{
  "_format": "hh-sol-artifact-1",
  "contractName": "E00020008Handler",
  "sourceName": "src/services/blockchain/contracts/e00020008Handler.sol",
  "abi": [
    {
      "inputs": [
        {
          "internalType": "address",
          "name": "_transactionContractAddress",
          "type": "address"
        },
        {
          "internalType": "address",
          "name": "_Parser",
          "type": "address"
        },
        {
          "internalType": "address",
          "name": "_reportAddress",
          "type": "address"
        }
      ],
      "stateMutability": "nonpayable",
      "type": "constructor"
    },
    {
      "anonymous": false,
      "inputs": [
        {
          "indexed": false,
          "internalType": "string",
          "name": "eventId",
          "type": "string"
        },
        {
          "indexed": false,
          "internalType": "int256",
          "name": "EP001",
          "type": "int256"
        },
        {
          "indexed": false,
          "internalType": "int256",
          "name": "EP002",
          "type": "int256"
        }
      ],
      "name": "EventEP001",
      "type": "event"
    },
    {
      "anonymous": false,
      "inputs": [
        {
          "indexed": false,
          "internalType": "string",
          "name": "eventId",
          "type": "string"
        },
        {
          "indexed": false,
          "internalType": "int256",
          "name": "SP002",
          "type": "int256"
        },
        {
          "indexed": false,
          "internalType": "int256",
          "name": "SP003",
          "type": "int256"
        },
        {
          "indexed": false,
          "internalType": "int256",
          "name": "SP004",
          "type": "int256"
        }
      ],
      "name": "EventIdAndRateReceived",
      "type": "event"
    },
    {
      "inputs": [],
      "name": "Iparser",
      "outputs": [
        {
          "internalType": "contract IParser",
          "name": "",
          "type": "address"
        }
      ],
      "stateMutability": "view",
      "type": "function"
    },
    {
      "inputs": [
        {
          "internalType": "bytes32",
          "name": "_eventId",
          "type": "bytes32"
        },
        {
          "internalType": "bytes32",
          "name": "_reportID",
          "type": "bytes32"
        },
        {
          "internalType": "bytes32",
          "name": "_SP002",
          "type": "bytes32"
        },
        {
          "internalType": "bytes32",
          "name": "_SP003",
          "type": "bytes32"
        },
        {
          "internalType": "bytes32",
          "name": "_SP004",
          "type": "bytes32"
        }
      ],
      "name": "getEventIdAndRate",
      "outputs": [],
      "stateMutability": "nonpayable",
      "type": "function"
    },
    {
      "inputs": [
        {
          "internalType": "bytes32[]",
          "name": "data",
          "type": "bytes32[]"
        },
        {
          "internalType": "address",
          "name": "recorder",
          "type": "address"
        }
      ],
      "name": "processTransaction",
      "outputs": [],
      "stateMutability": "nonpayable",
      "type": "function"
    },
    {
      "inputs": [],
      "name": "report",
      "outputs": [
        {
          "internalType": "contract Reports",
          "name": "",
          "type": "address"
        }
      ],
      "stateMutability": "view",
      "type": "function"
    }
  ],
  "bytecode": "0x60806040523480156200001157600080fd5b506040516200286138038062002861833981810160405281019062000037919062000119565b82600260006101000a81548173ffffffffffffffffffffffffffffffffffffffff021916908373ffffffffffffffffffffffffffffffffffffffff16021790555081600160006101000a81548173ffffffffffffffffffffffffffffffffffffffff021916908373ffffffffffffffffffffffffffffffffffffffff160217905550806000806101000a81548173ffffffffffffffffffffffffffffffffffffffff021916908373ffffffffffffffffffffffffffffffffffffffff160217905550505050620001bd565b6000815190506200011381620001a3565b92915050565b6000806000606084860312156200012f57600080fd5b60006200013f8682870162000102565b9350506020620001528682870162000102565b9250506040620001658682870162000102565b9150509250925092565b60006200017c8262000183565b9050919050565b600073ffffffffffffffffffffffffffffffffffffffff82169050919050565b620001ae816200016f565b8114620001ba57600080fd5b50565b61269480620001cd6000396000f3fe608060405234801561001057600080fd5b506004361061004c5760003560e01c80631d4fd87f146100515780632606a10b1461006d578063e064d1991461008b578063e91046a9146100a9575b600080fd5b61006b600480360381019061006691906114d7565b6100c5565b005b610075610666565b6040516100829190611cf6565b60405180910390f35b61009361068a565b6040516100a09190611cdb565b60405180910390f35b6100c360048036038101906100be919061145a565b6106b0565b005b8260001c6003819055508160001c6004819055508060001c600581905550600160009054906101000a900473ffffffffffffffffffffffffffffffffffffffff1673ffffffffffffffffffffffffffffffffffffffff16639201de55866040518263ffffffff1660e01b815260040161013e9190611c36565b60006040518083038186803b15801561015657600080fd5b505afa15801561016a573d6000803e3d6000fd5b505050506040513d6000823e3d601f19601f820116820180604052508101906101939190611577565b600890805190602001906101a8929190611265565b50600160009054906101000a900473ffffffffffffffffffffffffffffffffffffffff1673ffffffffffffffffffffffffffffffffffffffff16639201de55856040518263ffffffff1660e01b81526004016102049190611c36565b60006040518083038186803b15801561021c57600080fd5b505afa158015610230573d6000803e3d6000fd5b505050506040513d6000823e3d601f19601f820116820180604052508101906102599190611577565b6009908051906020019061026e929190611265565b507fb620de9f970909d721ffb707c84b4e17fdfd5f2e77d42c78b5b3e72219b4c00160086003546004546005546040516102ab9493929190611d4f565b60405180910390a1600260009054906101000a900473ffffffffffffffffffffffffffffffffffffffff1673ffffffffffffffffffffffffffffffffffffffff1663419e413886600160009054906101000a900473ffffffffffffffffffffffffffffffffffffffff1673ffffffffffffffffffffffffffffffffffffffff1663cfb519286040518163ffffffff1660e01b815260040161034b9061208b565b60206040518083038186803b15801561036357600080fd5b505afa158015610377573d6000803e3d6000fd5b505050506040513d601f19601f8201168201806040525081019061039b91906114ae565b6040518363ffffffff1660e01b81526004016103b8929190611c51565b60206040518083038186803b1580156103d057600080fd5b505afa1580156103e4573d6000803e3d6000fd5b505050506040513d601f19601f82011682018060405250810190610408919061154e565b600681905550600260009054906101000a900473ffffffffffffffffffffffffffffffffffffffff1673ffffffffffffffffffffffffffffffffffffffff1663419e413886600160009054906101000a900473ffffffffffffffffffffffffffffffffffffffff1673ffffffffffffffffffffffffffffffffffffffff1663cfb519286040518163ffffffff1660e01b81526004016104a69061204b565b60206040518083038186803b1580156104be57600080fd5b505afa1580156104d2573d6000803e3d6000fd5b505050506040513d601f19601f820116820180604052508101906104f691906114ae565b6040518363ffffffff1660e01b8152600401610513929190611c51565b60206040518083038186803b15801561052b57600080fd5b505afa15801561053f573d6000803e3d6000fd5b505050506040513d601f19601f82011682018060405250810190610563919061154e565b6007819055507fede25f32377dc45db9ecdbcaeb5e41e139fdd6e36c55895d5d1666a45c445d5e600160009054906101000a900473ffffffffffffffffffffffffffffffffffffffff1673ffffffffffffffffffffffffffffffffffffffff16639201de55876040518263ffffffff1660e01b81526004016105e59190611c36565b60006040518083038186803b1580156105fd57600080fd5b505afa158015610611573d6000803e3d6000fd5b505050506040513d6000823e3d601f19601f8201168201806040525081019061063a9190611577565b60065460075460405161064f93929190611d11565b60405180910390a161065f610d67565b5050505050565b60008054906101000a900473ffffffffffffffffffffffffffffffffffffffff1681565b600160009054906101000a900473ffffffffffffffffffffffffffffffffffffffff1681565b60048251146106f4576040517f08c379a00000000000000000000000000000000000000000000000000000000081526004016106eb906120ab565b60405180910390fd5b6000600367ffffffffffffffff811115610737577f4e487b7100000000000000000000000000000000000000000000000000000000600052604160045260246000fd5b6040519080825280602002602001820160405280156107655781602001602082028036833780820191505090505b5090506000600367ffffffffffffffff8111156107ab577f4e487b7100000000000000000000000000000000000000000000000000000000600052604160045260246000fd5b6040519080825280602002602001820160405280156107d95781602001602082028036833780820191505090505b509050600160009054906101000a900473ffffffffffffffffffffffffffffffffffffffff1673ffffffffffffffffffffffffffffffffffffffff1663cfb519286040518163ffffffff1660e01b81526004016108359061208b565b60206040518083038186803b15801561084d57600080fd5b505afa158015610861573d6000803e3d6000fd5b505050506040513d601f19601f8201168201806040525081019061088591906114ae565b826000815181106108bf577f4e487b7100000000000000000000000000000000000000000000000000000000600052603260045260246000fd5b60200260200101818152505083600281518110610905577f4e487b7100000000000000000000000000000000000000000000000000000000600052603260045260246000fd5b602002602001015160001c8160008151811061094a577f4e487b7100000000000000000000000000000000000000000000000000000000600052603260045260246000fd5b602002602001018181525050600160009054906101000a900473ffffffffffffffffffffffffffffffffffffffff1673ffffffffffffffffffffffffffffffffffffffff1663cfb519286040518163ffffffff1660e01b81526004016109af9061204b565b60206040518083038186803b1580156109c757600080fd5b505afa1580156109db573d6000803e3d6000fd5b505050506040513d601f19601f820116820180604052508101906109ff91906114ae565b82600181518110610a39577f4e487b7100000000000000000000000000000000000000000000000000000000600052603260045260246000fd5b60200260200101818152505083600381518110610a7f577f4e487b7100000000000000000000000000000000000000000000000000000000600052603260045260246000fd5b602002602001015160001c81600181518110610ac4577f4e487b7100000000000000000000000000000000000000000000000000000000600052603260045260246000fd5b602002602001018181525050600160009054906101000a900473ffffffffffffffffffffffffffffffffffffffff1673ffffffffffffffffffffffffffffffffffffffff1663cfb519286040518163ffffffff1660e01b8152600401610b299061206b565b60206040518083038186803b158015610b4157600080fd5b505afa158015610b55573d6000803e3d6000fd5b505050506040513d601f19601f82011682018060405250810190610b7991906114ae565b82600281518110610bb3577f4e487b7100000000000000000000000000000000000000000000000000000000600052603260045260246000fd5b60200260200101818152505083600481518110610bf9577f4e487b7100000000000000000000000000000000000000000000000000000000600052603260045260246000fd5b602002602001015160001c81600281518110610c3e577f4e487b7100000000000000000000000000000000000000000000000000000000600052603260045260246000fd5b602002602001018181525050600260009054906101000a900473ffffffffffffffffffffffffffffffffffffffff1673ffffffffffffffffffffffffffffffffffffffff1663ed40bbd585600081518110610cc2577f4e487b7100000000000000000000000000000000000000000000000000000000600052603260045260246000fd5b602002602001015186600181518110610d04577f4e487b7100000000000000000000000000000000000000000000000000000000600052603260045260246000fd5b60200260200101518686866040518663ffffffff1660e01b8152600401610d2f959493929190611c7a565b600060405180830381600087803b158015610d4957600080fd5b505af1158015610d5d573d6000803e3d6000fd5b5050505050505050565b6000670de0b6b3a7640000600354600654610d8190612503565b610d8b91906122f9565b610d95919061228f565b905060008054906101000a900473ffffffffffffffffffffffffffffffffffffffff1673ffffffffffffffffffffffffffffffffffffffff16637a1a29fb6009836040518363ffffffff1660e01b8152600401610df3929190611e9d565b600060405180830381600087803b158015610e0d57600080fd5b505af1158015610e21573d6000803e3d6000fd5b5050505060008054906101000a900473ffffffffffffffffffffffffffffffffffffffff1673ffffffffffffffffffffffffffffffffffffffff16637a1a29fb6009836040518363ffffffff1660e01b8152600401610e81929190611f49565b600060405180830381600087803b158015610e9b57600080fd5b505af1158015610eaf573d6000803e3d6000fd5b505050506000600654610ec190612503565b905060008054906101000a900473ffffffffffffffffffffffffffffffffffffffff1673ffffffffffffffffffffffffffffffffffffffff16637a1a29fb6009836040518363ffffffff1660e01b8152600401610f1f929190611ef3565b600060405180830381600087803b158015610f3957600080fd5b505af1158015610f4d573d6000803e3d6000fd5b5050505060007fffffffffffffffffffffffffffffffffffffffffffffffffffffffffffffffff83610f7f91906122f9565b905060008054906101000a900473ffffffffffffffffffffffffffffffffffffffff1673ffffffffffffffffffffffffffffffffffffffff16637a1a29fb6009836040518363ffffffff1660e01b8152600401610fdd929190611df1565b600060405180830381600087803b158015610ff757600080fd5b505af115801561100b573d6000803e3d6000fd5b5050505060008054906101000a900473ffffffffffffffffffffffffffffffffffffffff1673ffffffffffffffffffffffffffffffffffffffff16637a1a29fb6009836040518363ffffffff1660e01b815260040161106b929190611d9b565b600060405180830381600087803b15801561108557600080fd5b505af1158015611099573d6000803e3d6000fd5b505050506000600654905060008054906101000a900473ffffffffffffffffffffffffffffffffffffffff1673ffffffffffffffffffffffffffffffffffffffff16637a1a29fb6009836040518363ffffffff1660e01b8152600401611100929190611ff5565b600060405180830381600087803b15801561111a57600080fd5b505af115801561112e573d6000803e3d6000fd5b505050506000828561114091906121fb565b905060008054906101000a900473ffffffffffffffffffffffffffffffffffffffff1673ffffffffffffffffffffffffffffffffffffffff16637a1a29fb6009836040518363ffffffff1660e01b815260040161119e929190611f9f565b600060405180830381600087803b1580156111b857600080fd5b505af11580156111cc573d6000803e3d6000fd5b5050505060008054906101000a900473ffffffffffffffffffffffffffffffffffffffff1673ffffffffffffffffffffffffffffffffffffffff16637a1a29fb6009836040518363ffffffff1660e01b815260040161122c929190611e47565b600060405180830381600087803b15801561124657600080fd5b505af115801561125a573d6000803e3d6000fd5b505050505050505050565b828054611271906124d1565b90600052602060002090601f01602090048101928261129357600085556112da565b82601f106112ac57805160ff19168380011785556112da565b828001600101855582156112da579182015b828111156112d95782518255916020019190600101906112be565b5b5090506112e791906112eb565b5090565b5b808211156113045760008160009055506001016112ec565b5090565b600061131b611316846120fc565b6120cb565b9050808382526020820190508285602086028201111561133a57600080fd5b60005b8581101561136a578161135088826113f1565b84526020840193506020830192505060018101905061133d565b5050509392505050565b600061138761138284612128565b6120cb565b90508281526020810184848401111561139f57600080fd5b6113aa84828561249e565b509392505050565b6000813590506113c181612619565b92915050565b600082601f8301126113d857600080fd5b81356113e8848260208601611308565b91505092915050565b60008135905061140081612630565b92915050565b60008151905061141581612630565b92915050565b60008151905061142a81612647565b92915050565b600082601f83011261144157600080fd5b8151611451848260208601611374565b91505092915050565b6000806040838503121561146d57600080fd5b600083013567ffffffffffffffff81111561148757600080fd5b611493858286016113c7565b92505060206114a4858286016113b2565b9150509250929050565b6000602082840312156114c057600080fd5b60006114ce84828501611406565b91505092915050565b600080600080600060a086880312156114ef57600080fd5b60006114fd888289016113f1565b955050602061150e888289016113f1565b945050604061151f888289016113f1565b9350506060611530888289016113f1565b9250506080611541888289016113f1565b9150509295509295909350565b60006020828403121561156057600080fd5b600061156e8482850161141b565b91505092915050565b60006020828403121561158957600080fd5b600082015167ffffffffffffffff8111156115a357600080fd5b6115af84828501611430565b91505092915050565b60006115c483836116b3565b60208301905092915050565b60006115dc83836116ef565b60208301905092915050565b6115f181612410565b82525050565b60006116028261218d565b61160c81856121c8565b935061161783612158565b8060005b8381101561164857815161162f88826115b8565b975061163a836121ae565b92505060018101905061161b565b5085935050505092915050565b600061166082612198565b61166a81856121d9565b935061167583612168565b8060005b838110156116a657815161168d88826115d0565b9750611698836121bb565b925050600181019050611679565b5085935050505092915050565b6116bc81612422565b82525050565b6116cb81612422565b82525050565b6116da81612456565b82525050565b6116e98161247a565b82525050565b6116f88161242c565b82525050565b6117078161242c565b82525050565b6000611718826121a3565b61172281856121ea565b935061173281856020860161249e565b61173b81612608565b840191505092915050565b60008154611753816124d1565b61175d81866121ea565b94506001821660008114611778576001811461178a576117bd565b60ff19831686526020860193506117bd565b61179385612178565b60005b838110156117b557815481890152600182019150602081019050611796565b808801955050505b50505092915050565b60006117d3603c836121ea565b91507f6c696162696c69746965732e64657461696c732e6163636f756e74735061796160008301527f626c652e627265616b646f776e2e555344542e6661697256616c7565000000006020830152604082019050919050565b60006118396005836121ea565b91507f45503030320000000000000000000000000000000000000000000000000000006000830152602082019050919050565b60006118796038836121ea565b91507f6c696162696c69746965732e64657461696c732e6163636f756e74735061796160008301527f626c652e746f74616c416d6f756e744661697256616c756500000000000000006020830152604082019050919050565b60006118df6022836121ea565b91507f746f74616c4c696162696c6974696573416e644571756974794661697256616c60008301527f75650000000000000000000000000000000000000000000000000000000000006020830152604082019050919050565b60006119456034836121ea565b91507f6c696162696c69746965732e64657461696c732e757365724465706f7369742e60008301527f746f74616c416d6f756e744661697256616c75650000000000000000000000006020830152604082019050919050565b60006119ab6035836121ea565b91507f6c696162696c69746965732e64657461696c732e757365724465706f7369742e60008301527f627265616b646f776e2e555344542e616d6f756e7400000000000000000000006020830152604082019050919050565b6000611a11600a836121ea565b91507f7472616e735f74696d65000000000000000000000000000000000000000000006000830152602082019050919050565b6000611a51600c836121ea565b91507f62616c616e6365536865657400000000000000000000000000000000000000006000830152602082019050919050565b6000611a916005836121ea565b91507f45503030310000000000000000000000000000000000000000000000000000006000830152602082019050919050565b6000611ad16023836121ea565b91507f44617461206c656e67746820666f7220453030303230303031206d757374206260008301527f65203400000000000000000000000000000000000000000000000000000000006020830152604082019050919050565b6000611b376038836121ea565b91507f6c696162696c69746965732e64657461696c732e757365724465706f7369742e60008301527f627265616b646f776e2e555344542e6661697256616c756500000000000000006020830152604082019050919050565b6000611b9d6020836121ea565b91507f6c696162696c69746965732e746f74616c416d6f756e744661697256616c75656000830152602082019050919050565b6000611bdd6039836121ea565b91507f6c696162696c69746965732e64657461696c732e6163636f756e74735061796160008301527f626c652e627265616b646f776e2e555344542e616d6f756e74000000000000006020830152604082019050919050565b6000602082019050611c4b60008301846116c2565b92915050565b6000604082019050611c6660008301856116c2565b611c7360208301846116c2565b9392505050565b600060a082019050611c8f60008301886116c2565b611c9c60208301876116c2565b611ca960408301866115e8565b8181036060830152611cbb81856115f7565b90508181036080830152611ccf8184611655565b90509695505050505050565b6000602082019050611cf060008301846116d1565b92915050565b6000602082019050611d0b60008301846116e0565b92915050565b60006060820190508181036000830152611d2b818661170d565b9050611d3a60208301856116fe565b611d4760408301846116fe565b949350505050565b60006080820190508181036000830152611d698187611746565b9050611d7860208301866116fe565b611d8560408301856116fe565b611d9260608301846116fe565b95945050505050565b60006080820190508181036000830152611db58185611746565b90508181036020830152611dc881611a44565b90508181036040830152611ddb816117c6565b9050611dea60608301846116fe565b9392505050565b60006080820190508181036000830152611e0b8185611746565b90508181036020830152611e1e81611a44565b90508181036040830152611e318161186c565b9050611e4060608301846116fe565b9392505050565b60006080820190508181036000830152611e618185611746565b90508181036020830152611e7481611a44565b90508181036040830152611e87816118d2565b9050611e9660608301846116fe565b9392505050565b60006080820190508181036000830152611eb78185611746565b90508181036020830152611eca81611a44565b90508181036040830152611edd81611938565b9050611eec60608301846116fe565b9392505050565b60006080820190508181036000830152611f0d8185611746565b90508181036020830152611f2081611a44565b90508181036040830152611f338161199e565b9050611f4260608301846116fe565b9392505050565b60006080820190508181036000830152611f638185611746565b90508181036020830152611f7681611a44565b90508181036040830152611f8981611b2a565b9050611f9860608301846116fe565b9392505050565b60006080820190508181036000830152611fb98185611746565b90508181036020830152611fcc81611a44565b90508181036040830152611fdf81611b90565b9050611fee60608301846116fe565b9392505050565b6000608082019050818103600083015261200f8185611746565b9050818103602083015261202281611a44565b9050818103604083015261203581611bd0565b905061204460608301846116fe565b9392505050565b600060208201905081810360008301526120648161182c565b9050919050565b6000602082019050818103600083015261208481611a04565b9050919050565b600060208201905081810360008301526120a481611a84565b9050919050565b600060208201905081810360008301526120c481611ac4565b9050919050565b6000604051905081810181811067ffffffffffffffff821117156120f2576120f16125d9565b5b8060405250919050565b600067ffffffffffffffff821115612117576121166125d9565b5b602082029050602081019050919050565b600067ffffffffffffffff821115612143576121426125d9565b5b601f19601f8301169050602081019050919050565b6000819050602082019050919050565b6000819050602082019050919050565b60008190508160005260206000209050919050565b600081519050919050565b600081519050919050565b600081519050919050565b6000602082019050919050565b6000602082019050919050565b600082825260208201905092915050565b600082825260208201905092915050565b600082825260208201905092915050565b60006122068261242c565b91506122118361242c565b9250817f7fffffffffffffffffffffffffffffffffffffffffffffffffffffffffffffff0383136000831215161561224c5761224b61254c565b5b817f80000000000000000000000000000000000000000000000000000000000000000383126000831216156122845761228361254c565b5b828201905092915050565b600061229a8261242c565b91506122a58361242c565b9250826122b5576122b461257b565b5b600160000383147f8000000000000000000000000000000000000000000000000000000000000000831416156122ee576122ed61254c565b5b828205905092915050565b60006123048261242c565b915061230f8361242c565b9250827f7fffffffffffffffffffffffffffffffffffffffffffffffffffffffffffffff048211600084136000841316161561234e5761234d61254c565b5b817f8000000000000000000000000000000000000000000000000000000000000000058312600084126000841316161561238b5761238a61254c565b5b827f800000000000000000000000000000000000000000000000000000000000000005821260008413600084121616156123c8576123c761254c565b5b827f7fffffffffffffffffffffffffffffffffffffffffffffffffffffffffffffff05821260008412600084121616156124055761240461254c565b5b828202905092915050565b600061241b82612436565b9050919050565b6000819050919050565b6000819050919050565b600073ffffffffffffffffffffffffffffffffffffffff82169050919050565b600061246182612468565b9050919050565b600061247382612436565b9050919050565b60006124858261248c565b9050919050565b600061249782612436565b9050919050565b60005b838110156124bc5780820151818401526020810190506124a1565b838111156124cb576000848401525b50505050565b600060028204905060018216806124e957607f821691505b602082108114156124fd576124fc6125aa565b5b50919050565b600061250e8261242c565b91507f80000000000000000000000000000000000000000000000000000000000000008214156125415761254061254c565b5b816000039050919050565b7f4e487b7100000000000000000000000000000000000000000000000000000000600052601160045260246000fd5b7f4e487b7100000000000000000000000000000000000000000000000000000000600052601260045260246000fd5b7f4e487b7100000000000000000000000000000000000000000000000000000000600052602260045260246000fd5b7f4e487b7100000000000000000000000000000000000000000000000000000000600052604160045260246000fd5b6000601f19601f8301169050919050565b61262281612410565b811461262d57600080fd5b50565b61263981612422565b811461264457600080fd5b50565b6126508161242c565b811461265b57600080fd5b5056fea2646970667358221220cb520a7573dabf7a50d7e4e2704bc542ff87373e86bf8592c657292a191393d964736f6c63430008000033",
  "linkReferences": {},
  "deployedLinkReferences": {}
}