{
	"recordTransaction.sol": {
		"TransactionContract": {
			"abi": [
				{
					"inputs": [
						{
							"internalType": "string",
							"name": "_eventId",
							"type": "string"
						},
						{
							"internalType": "uint256",
							"name": "_EP001",
							"type": "uint256"
						},
						{
							"internalType": "uint256",
							"name": "_EP002",
							"type": "uint256"
						},
						{
							"internalType": "uint256",
							"name": "_EP003",
							"type": "uint256"
						},
						{
							"internalType": "uint256",
							"name": "_EP005",
							"type": "uint256"
						}
					],
					"name": "E00010001",
					"outputs": [],
					"stateMutability": "nonpayable",
					"type": "function"
				},
				{
					"inputs": [
						{
							"internalType": "string",
							"name": "_eventId",
							"type": "string"
						},
						{
							"internalType": "uint256",
							"name": "_EP001",
							"type": "uint256"
						},
						{
							"internalType": "uint256",
							"name": "_EP002",
							"type": "uint256"
						},
						{
							"internalType": "uint256",
							"name": "_EP003",
							"type": "uint256"
						},
						{
							"internalType": "uint256",
							"name": "_EP005",
							"type": "uint256"
						}
					],
					"name": "E00010002",
					"outputs": [],
					"stateMutability": "nonpayable",
					"type": "function"
				},
				{
					"inputs": [
						{
							"internalType": "string",
							"name": "_eventId",
							"type": "string"
						},
						{
							"internalType": "uint256",
							"name": "_EP001",
							"type": "uint256"
						},
						{
							"internalType": "uint256",
							"name": "_EP002",
							"type": "uint256"
						},
						{
							"internalType": "uint256",
							"name": "_EP003",
							"type": "uint256"
						},
						{
							"internalType": "uint256",
							"name": "_EP005",
							"type": "uint256"
						}
					],
					"name": "E00010003",
					"outputs": [],
					"stateMutability": "nonpayable",
					"type": "function"
				},
				{
					"inputs": [
						{
							"internalType": "string",
							"name": "_eventId",
							"type": "string"
						},
						{
							"internalType": "uint256",
							"name": "_EP001",
							"type": "uint256"
						},
						{
							"internalType": "uint256",
							"name": "_EP002",
							"type": "uint256"
						},
						{
							"internalType": "uint256",
							"name": "_EP003",
							"type": "uint256"
						},
						{
							"internalType": "uint256",
							"name": "_EP004",
							"type": "uint256"
						},
						{
							"internalType": "uint256",
							"name": "_EP006",
							"type": "uint256"
						},
						{
							"internalType": "uint256",
							"name": "_EP007",
							"type": "uint256"
						}
					],
					"name": "E00010004",
					"outputs": [],
					"stateMutability": "nonpayable",
					"type": "function"
				},
				{
					"inputs": [
						{
							"internalType": "string",
							"name": "_eventId",
							"type": "string"
						},
						{
							"internalType": "uint256",
							"name": "_EP001",
							"type": "uint256"
						},
						{
							"internalType": "uint256",
							"name": "_EP002",
							"type": "uint256"
						},
						{
							"internalType": "uint256",
							"name": "_EP003",
							"type": "uint256"
						},
						{
							"internalType": "uint256",
							"name": "_EP004",
							"type": "uint256"
						},
						{
							"internalType": "uint256",
							"name": "_EP006",
							"type": "uint256"
						}
					],
					"name": "E00010005",
					"outputs": [],
					"stateMutability": "nonpayable",
					"type": "function"
				},
				{
					"inputs": [
						{
							"internalType": "string",
							"name": "_eventId",
							"type": "string"
						},
						{
							"internalType": "uint256",
							"name": "_EP001",
							"type": "uint256"
						},
						{
							"internalType": "uint256",
							"name": "_EP002",
							"type": "uint256"
						},
						{
							"internalType": "uint256",
							"name": "_EP003",
							"type": "uint256"
						},
						{
							"internalType": "uint256",
							"name": "_EP004",
							"type": "uint256"
						},
						{
							"internalType": "uint256",
							"name": "_EP006",
							"type": "uint256"
						}
					],
					"name": "E00010006",
					"outputs": [],
					"stateMutability": "nonpayable",
					"type": "function"
				},
				{
					"inputs": [
						{
							"internalType": "string",
							"name": "_eventId",
							"type": "string"
						},
						{
							"internalType": "uint256",
							"name": "_EP001",
							"type": "uint256"
						},
						{
							"internalType": "uint256",
							"name": "_EP002",
							"type": "uint256"
						},
						{
							"internalType": "uint256",
							"name": "_BTC",
							"type": "uint256"
						},
						{
							"internalType": "uint256",
							"name": "_USDT",
							"type": "uint256"
						}
					],
					"name": "E00020001",
					"outputs": [],
					"stateMutability": "nonpayable",
					"type": "function"
				},
				{
					"inputs": [
						{
							"internalType": "string",
							"name": "_eventId",
							"type": "string"
						}
					],
					"name": "getTransaction",
					"outputs": [
						{
							"internalType": "string",
							"name": "",
							"type": "string"
						},
						{
							"internalType": "string",
							"name": "",
							"type": "string"
						},
						{
							"internalType": "address",
							"name": "",
							"type": "address"
						}
					],
					"stateMutability": "view",
					"type": "function"
				},
				{
					"inputs": [
						{
							"internalType": "string",
							"name": "_eventId",
							"type": "string"
						},
						{
							"internalType": "string",
							"name": "_paramKey",
							"type": "string"
						}
					],
					"name": "getTransactionParam",
					"outputs": [
						{
							"internalType": "uint256",
							"name": "",
							"type": "uint256"
						}
					],
					"stateMutability": "view",
					"type": "function"
				},
				{
					"inputs": [
						{
							"internalType": "uint256",
							"name": "",
							"type": "uint256"
						}
					],
					"name": "transactions",
					"outputs": [
						{
							"internalType": "string",
							"name": "transactionType",
							"type": "string"
						},
						{
							"internalType": "string",
							"name": "eventId",
							"type": "string"
						},
						{
							"internalType": "address",
							"name": "Recorder",
							"type": "address"
						}
					],
					"stateMutability": "view",
					"type": "function"
				}
			],
			"devdoc": {
				"kind": "dev",
				"methods": {},
				"version": 1
			},
			"evm": {
				"assembly": "    /* \"recordTransaction.sol\":58:6004  contract TransactionContract {... */\n  mstore(0x40, 0x80)\n  callvalue\n  dup1\n  iszero\n  tag_1\n  jumpi\n  0x00\n  dup1\n  revert\ntag_1:\n  pop\n  dataSize(sub_0)\n  dup1\n  dataOffset(sub_0)\n  0x00\n  codecopy\n  0x00\n  return\nstop\n\nsub_0: assembly {\n        /* \"recordTransaction.sol\":58:6004  contract TransactionContract {... */\n      mstore(0x40, 0x80)\n      callvalue\n      dup1\n      iszero\n      tag_1\n      jumpi\n      0x00\n      dup1\n      revert\n    tag_1:\n      pop\n      jumpi(tag_2, lt(calldatasize, 0x04))\n      shr(0xe0, calldataload(0x00))\n      dup1\n      0xb351ae99\n      gt\n      tag_13\n      jumpi\n      dup1\n      0xb351ae99\n      eq\n      tag_8\n      jumpi\n      dup1\n      0xc1c102e8\n      eq\n      tag_9\n      jumpi\n      dup1\n      0xc4f9ef20\n      eq\n      tag_10\n      jumpi\n      dup1\n      0xd85637e7\n      eq\n      tag_11\n      jumpi\n      dup1\n      0xd88936ce\n      eq\n      tag_12\n      jumpi\n      jump(tag_2)\n    tag_13:\n      dup1\n      0x606de0cb\n      eq\n      tag_3\n      jumpi\n      dup1\n      0x9ace38c2\n      eq\n      tag_4\n      jumpi\n      dup1\n      0x9f2967c7\n      eq\n      tag_5\n      jumpi\n      dup1\n      0xa75458c2\n      eq\n      tag_6\n      jumpi\n      dup1\n      0xac2ccd07\n      eq\n      tag_7\n      jumpi\n    tag_2:\n      0x00\n      dup1\n      revert\n        /* \"recordTransaction.sol\":2994:3693  function E00010005(string memory _eventId, uint256 _EP001, uint256 _EP002, uint256 _EP003, uint256 _EP004, uint256 _EP006) public {... */\n    tag_3:\n      tag_14\n      0x04\n      dup1\n      calldatasize\n      sub\n      dup2\n      add\n      swap1\n      tag_15\n      swap2\n      swap1\n      tag_16\n      jump\t// in\n    tag_15:\n      tag_17\n      jump\t// in\n    tag_14:\n      stop\n        /* \"recordTransaction.sol\":258:291  Transaction[] public transactions */\n    tag_4:\n      tag_18\n      0x04\n      dup1\n      calldatasize\n      sub\n      dup2\n      add\n      swap1\n      tag_19\n      swap2\n      swap1\n      tag_20\n      jump\t// in\n    tag_19:\n      tag_21\n      jump\t// in\n    tag_18:\n      mload(0x40)\n      tag_22\n      swap4\n      swap3\n      swap2\n      swap1\n      tag_23\n      jump\t// in\n    tag_22:\n      mload(0x40)\n      dup1\n      swap2\n      sub\n      swap1\n      return\n        /* \"recordTransaction.sol\":4402:5029  function E00020001(string memory _eventId, uint256 _EP001, uint256 _EP002, uint256 _BTC, uint256 _USDT) public {... */\n    tag_5:\n      tag_24\n      0x04\n      dup1\n      calldatasize\n      sub\n      dup2\n      add\n      swap1\n      tag_25\n      swap2\n      swap1\n      tag_26\n      jump\t// in\n    tag_25:\n      tag_27\n      jump\t// in\n    tag_24:\n      stop\n        /* \"recordTransaction.sol\":3699:4396  function E00010006(string memory _eventId, uint256 _EP001, uint256 _EP002, uint256 _EP003,uint256 _EP004, uint256 _EP006) public {... */\n    tag_6:\n      tag_28\n      0x04\n      dup1\n      calldatasize\n      sub\n      dup2\n      add\n      swap1\n      tag_29\n      swap2\n      swap1\n      tag_16\n      jump\t// in\n    tag_29:\n      tag_30\n      jump\t// in\n    tag_28:\n      stop\n        /* \"recordTransaction.sol\":5039:5358  function getTransaction(string memory _eventId) public view returns (string memory, string memory, address) {... */\n    tag_7:\n      tag_31\n      0x04\n      dup1\n      calldatasize\n      sub\n      dup2\n      add\n      swap1\n      tag_32\n      swap2\n      swap1\n      tag_33\n      jump\t// in\n    tag_32:\n      tag_34\n      jump\t// in\n    tag_31:\n      mload(0x40)\n      tag_35\n      swap4\n      swap3\n      swap2\n      swap1\n      tag_23\n      jump\t// in\n    tag_35:\n      mload(0x40)\n      dup1\n      swap2\n      sub\n      swap1\n      return\n        /* \"recordTransaction.sol\":5368:5598  function getTransactionParam(string memory _eventId, string memory _paramKey) public view returns (uint256) {... */\n    tag_8:\n      tag_36\n      0x04\n      dup1\n      calldatasize\n      sub\n      dup2\n      add\n      swap1\n      tag_37\n      swap2\n      swap1\n      tag_38\n      jump\t// in\n    tag_37:\n      tag_39\n      jump\t// in\n    tag_36:\n      mload(0x40)\n      tag_40\n      swap2\n      swap1\n      tag_41\n      jump\t// in\n    tag_40:\n      mload(0x40)\n      dup1\n      swap2\n      sub\n      swap1\n      return\n        /* \"recordTransaction.sol\":1584:2221  function E00010003(string memory _eventId, uint256 _EP001, uint256 _EP002, uint256 _EP003, uint256 _EP005) public {... */\n    tag_9:\n      tag_42\n      0x04\n      dup1\n      calldatasize\n      sub\n      dup2\n      add\n      swap1\n      tag_43\n      swap2\n      swap1\n      tag_26\n      jump\t// in\n    tag_43:\n      tag_44\n      jump\t// in\n    tag_42:\n      stop\n        /* \"recordTransaction.sol\":298:935  function E00010001(string memory _eventId, uint256 _EP001, uint256 _EP002, uint256 _EP003, uint256 _EP005) public {... */\n    tag_10:\n      tag_45\n      0x04\n      dup1\n      calldatasize\n      sub\n      dup2\n      add\n      swap1\n      tag_46\n      swap2\n      swap1\n      tag_26\n      jump\t// in\n    tag_46:\n      tag_47\n      jump\t// in\n    tag_45:\n      stop\n        /* \"recordTransaction.sol\":2227:2988  function E00010004(string memory _eventId, uint256 _EP001, uint256 _EP002, uint256 _EP003, uint256 _EP004, uint256 _EP006, uint256 _EP007) public {... */\n    tag_11:\n      tag_48\n      0x04\n      dup1\n      calldatasize\n      sub\n      dup2\n      add\n      swap1\n      tag_49\n      swap2\n      swap1\n      tag_50\n      jump\t// in\n    tag_49:\n      tag_51\n      jump\t// in\n    tag_48:\n      stop\n        /* \"recordTransaction.sol\":941:1578  function E00010002(string memory _eventId, uint256 _EP001, uint256 _EP002, uint256 _EP003, uint256 _EP005) public {... */\n    tag_12:\n      tag_52\n      0x04\n      dup1\n      calldatasize\n      sub\n      dup2\n      add\n      swap1\n      tag_53\n      swap2\n      swap1\n      tag_26\n      jump\t// in\n    tag_53:\n      tag_54\n      jump\t// in\n    tag_52:\n      stop\n        /* \"recordTransaction.sol\":2994:3693  function E00010005(string memory _eventId, uint256 _EP001, uint256 _EP002, uint256 _EP003, uint256 _EP004, uint256 _EP006) public {... */\n    tag_17:\n        /* \"recordTransaction.sol\":3134:3147  uint256 index */\n      0x00\n        /* \"recordTransaction.sol\":3150:3162  transactions */\n      dup1\n        /* \"recordTransaction.sol\":3150:3169  transactions.length */\n      dup1\n      sload\n      swap1\n      pop\n        /* \"recordTransaction.sol\":3134:3169  uint256 index = transactions.length */\n      swap1\n      pop\n        /* \"recordTransaction.sol\":3179:3191  transactions */\n      0x00\n        /* \"recordTransaction.sol\":3179:3198  transactions.push() */\n      0x01\n      dup2\n      0x01\n      dup2\n      sload\n      add\n      dup1\n      dup3\n      sstore\n      dup1\n      swap2\n      pop\n      pop\n      sub\n      swap1\n      0x00\n      mstore\n      keccak256(0x00, 0x20)\n      swap1\n      pop\n      pop\n        /* \"recordTransaction.sol\":3208:3239  Transaction storage transaction */\n      0x00\n        /* \"recordTransaction.sol\":3242:3254  transactions */\n      dup1\n        /* \"recordTransaction.sol\":3255:3260  index */\n      dup3\n        /* \"recordTransaction.sol\":3242:3261  transactions[index] */\n      dup2\n      sload\n      dup2\n      lt\n      tag_57\n      jumpi\n      tag_58\n      tag_59\n      jump\t// in\n    tag_58:\n    tag_57:\n      swap1\n      0x00\n      mstore\n      keccak256(0x00, 0x20)\n      swap1\n      0x04\n      mul\n      add\n        /* \"recordTransaction.sol\":3208:3261  Transaction storage transaction = transactions[index] */\n      swap1\n      pop\n        /* \"recordTransaction.sol\":3272:3313  transaction.transactionType = \"E00010005\" */\n      mload(0x40)\n      dup1\n      0x40\n      add\n      0x40\n      mstore\n      dup1\n      0x09\n      dup2\n      mstore\n      0x20\n      add\n      0x4530303031303030350000000000000000000000000000000000000000000000\n      dup2\n      mstore\n      pop\n        /* \"recordTransaction.sol\":3272:3283  transaction */\n      dup2\n        /* \"recordTransaction.sol\":3272:3299  transaction.transactionType */\n      0x00\n      add\n        /* \"recordTransaction.sol\":3272:3313  transaction.transactionType = \"E00010005\" */\n      swap1\n      dup2\n      tag_61\n      swap2\n      swap1\n      tag_62\n      jump\t// in\n    tag_61:\n      pop\n        /* \"recordTransaction.sol\":3345:3353  _eventId */\n      dup8\n        /* \"recordTransaction.sol\":3323:3334  transaction */\n      dup2\n        /* \"recordTransaction.sol\":3323:3342  transaction.eventId */\n      0x01\n      add\n        /* \"recordTransaction.sol\":3323:3353  transaction.eventId = _eventId */\n      swap1\n      dup2\n      tag_63\n      swap2\n      swap1\n      tag_62\n      jump\t// in\n    tag_63:\n      pop\n        /* \"recordTransaction.sol\":3386:3396  msg.sender */\n      caller\n        /* \"recordTransaction.sol\":3363:3374  transaction */\n      dup2\n        /* \"recordTransaction.sol\":3363:3383  transaction.Recorder */\n      0x02\n      add\n      0x00\n        /* \"recordTransaction.sol\":3363:3396  transaction.Recorder = msg.sender */\n      0x0100\n      exp\n      dup2\n      sload\n      dup2\n      0xffffffffffffffffffffffffffffffffffffffff\n      mul\n      not\n      and\n      swap1\n      dup4\n      0xffffffffffffffffffffffffffffffffffffffff\n      and\n      mul\n      or\n      swap1\n      sstore\n      pop\n        /* \"recordTransaction.sol\":3436:3442  _EP001 */\n      dup7\n        /* \"recordTransaction.sol\":3406:3417  transaction */\n      dup2\n        /* \"recordTransaction.sol\":3406:3424  transaction.params */\n      0x03\n      add\n        /* \"recordTransaction.sol\":3406:3433  transaction.params[\"EP001\"] */\n      mload(0x40)\n      tag_64\n      swap1\n      tag_65\n      jump\t// in\n    tag_64:\n      swap1\n      dup2\n      mstore\n      0x20\n      add\n      mload(0x40)\n      dup1\n      swap2\n      sub\n      swap1\n      keccak256\n        /* \"recordTransaction.sol\":3406:3442  transaction.params[\"EP001\"] = _EP001 */\n      dup2\n      swap1\n      sstore\n      pop\n        /* \"recordTransaction.sol\":3482:3488  _EP002 */\n      dup6\n        /* \"recordTransaction.sol\":3452:3463  transaction */\n      dup2\n        /* \"recordTransaction.sol\":3452:3470  transaction.params */\n      0x03\n      add\n        /* \"recordTransaction.sol\":3452:3479  transaction.params[\"EP002\"] */\n      mload(0x40)\n      tag_66\n      swap1\n      tag_67\n      jump\t// in\n    tag_66:\n      swap1\n      dup2\n      mstore\n      0x20\n      add\n      mload(0x40)\n      dup1\n      swap2\n      sub\n      swap1\n      keccak256\n        /* \"recordTransaction.sol\":3452:3488  transaction.params[\"EP002\"] = _EP002 */\n      dup2\n      swap1\n      sstore\n      pop\n        /* \"recordTransaction.sol\":3528:3534  _EP003 */\n      dup5\n        /* \"recordTransaction.sol\":3498:3509  transaction */\n      dup2\n        /* \"recordTransaction.sol\":3498:3516  transaction.params */\n      0x03\n      add\n        /* \"recordTransaction.sol\":3498:3525  transaction.params[\"EP003\"] */\n      mload(0x40)\n      tag_68\n      swap1\n      tag_69\n      jump\t// in\n    tag_68:\n      swap1\n      dup2\n      mstore\n      0x20\n      add\n      mload(0x40)\n      dup1\n      swap2\n      sub\n      swap1\n      keccak256\n        /* \"recordTransaction.sol\":3498:3534  transaction.params[\"EP003\"] = _EP003 */\n      dup2\n      swap1\n      sstore\n      pop\n        /* \"recordTransaction.sol\":3574:3580  _EP004 */\n      dup4\n        /* \"recordTransaction.sol\":3544:3555  transaction */\n      dup2\n        /* \"recordTransaction.sol\":3544:3562  transaction.params */\n      0x03\n      add\n        /* \"recordTransaction.sol\":3544:3571  transaction.params[\"EP004\"] */\n      mload(0x40)\n      tag_70\n      swap1\n      tag_71\n      jump\t// in\n    tag_70:\n      swap1\n      dup2\n      mstore\n      0x20\n      add\n      mload(0x40)\n      dup1\n      swap2\n      sub\n      swap1\n      keccak256\n        /* \"recordTransaction.sol\":3544:3580  transaction.params[\"EP004\"] = _EP004 */\n      dup2\n      swap1\n      sstore\n      pop\n        /* \"recordTransaction.sol\":3625:3640  block.timestamp */\n      timestamp\n        /* \"recordTransaction.sol\":3590:3601  transaction */\n      dup2\n        /* \"recordTransaction.sol\":3590:3608  transaction.params */\n      0x03\n      add\n        /* \"recordTransaction.sol\":3590:3622  transaction.params[\"trans_time\"] */\n      mload(0x40)\n      tag_72\n      swap1\n      tag_73\n      jump\t// in\n    tag_72:\n      swap1\n      dup2\n      mstore\n      0x20\n      add\n      mload(0x40)\n      dup1\n      swap2\n      sub\n      swap1\n      keccak256\n        /* \"recordTransaction.sol\":3590:3640  transaction.params[\"trans_time\"] = block.timestamp */\n      dup2\n      swap1\n      sstore\n      pop\n        /* \"recordTransaction.sol\":3680:3686  _EP006 */\n      dup3\n        /* \"recordTransaction.sol\":3650:3661  transaction */\n      dup2\n        /* \"recordTransaction.sol\":3650:3668  transaction.params */\n      0x03\n      add\n        /* \"recordTransaction.sol\":3650:3677  transaction.params[\"EP006\"] */\n      mload(0x40)\n      tag_74\n      swap1\n      tag_75\n      jump\t// in\n    tag_74:\n      swap1\n      dup2\n      mstore\n      0x20\n      add\n      mload(0x40)\n      dup1\n      swap2\n      sub\n      swap1\n      keccak256\n        /* \"recordTransaction.sol\":3650:3686  transaction.params[\"EP006\"] = _EP006 */\n      dup2\n      swap1\n      sstore\n      pop\n        /* \"recordTransaction.sol\":3124:3693  {... */\n      pop\n      pop\n        /* \"recordTransaction.sol\":2994:3693  function E00010005(string memory _eventId, uint256 _EP001, uint256 _EP002, uint256 _EP003, uint256 _EP004, uint256 _EP006) public {... */\n      pop\n      pop\n      pop\n      pop\n      pop\n      pop\n      jump\t// out\n        /* \"recordTransaction.sol\":258:291  Transaction[] public transactions */\n    tag_21:\n      0x00\n      dup2\n      dup2\n      sload\n      dup2\n      lt\n      tag_76\n      jumpi\n      0x00\n      dup1\n      revert\n    tag_76:\n      swap1\n      0x00\n      mstore\n      keccak256(0x00, 0x20)\n      swap1\n      0x04\n      mul\n      add\n      0x00\n      swap2\n      pop\n      swap1\n      pop\n      dup1\n      0x00\n      add\n      dup1\n      sload\n      tag_78\n      swap1\n      tag_79\n      jump\t// in\n    tag_78:\n      dup1\n      0x1f\n      add\n      0x20\n      dup1\n      swap2\n      div\n      mul\n      0x20\n      add\n      mload(0x40)\n      swap1\n      dup2\n      add\n      0x40\n      mstore\n      dup1\n      swap3\n      swap2\n      swap1\n      dup2\n      dup2\n      mstore\n      0x20\n      add\n      dup3\n      dup1\n      sload\n      tag_80\n      swap1\n      tag_79\n      jump\t// in\n    tag_80:\n      dup1\n      iszero\n      tag_81\n      jumpi\n      dup1\n      0x1f\n      lt\n      tag_82\n      jumpi\n      0x0100\n      dup1\n      dup4\n      sload\n      div\n      mul\n      dup4\n      mstore\n      swap2\n      0x20\n      add\n      swap2\n      jump(tag_81)\n    tag_82:\n      dup3\n      add\n      swap2\n      swap1\n      0x00\n      mstore\n      keccak256(0x00, 0x20)\n      swap1\n    tag_83:\n      dup2\n      sload\n      dup2\n      mstore\n      swap1\n      0x01\n      add\n      swap1\n      0x20\n      add\n      dup1\n      dup4\n      gt\n      tag_83\n      jumpi\n      dup3\n      swap1\n      sub\n      0x1f\n      and\n      dup3\n      add\n      swap2\n    tag_81:\n      pop\n      pop\n      pop\n      pop\n      pop\n      swap1\n      dup1\n      0x01\n      add\n      dup1\n      sload\n      tag_84\n      swap1\n      tag_79\n      jump\t// in\n    tag_84:\n      dup1\n      0x1f\n      add\n      0x20\n      dup1\n      swap2\n      div\n      mul\n      0x20\n      add\n      mload(0x40)\n      swap1\n      dup2\n      add\n      0x40\n      mstore\n      dup1\n      swap3\n      swap2\n      swap1\n      dup2\n      dup2\n      mstore\n      0x20\n      add\n      dup3\n      dup1\n      sload\n      tag_85\n      swap1\n      tag_79\n      jump\t// in\n    tag_85:\n      dup1\n      iszero\n      tag_86\n      jumpi\n      dup1\n      0x1f\n      lt\n      tag_87\n      jumpi\n      0x0100\n      dup1\n      dup4\n      sload\n      div\n      mul\n      dup4\n      mstore\n      swap2\n      0x20\n      add\n      swap2\n      jump(tag_86)\n    tag_87:\n      dup3\n      add\n      swap2\n      swap1\n      0x00\n      mstore\n      keccak256(0x00, 0x20)\n      swap1\n    tag_88:\n      dup2\n      sload\n      dup2\n      mstore\n      swap1\n      0x01\n      add\n      swap1\n      0x20\n      add\n      dup1\n      dup4\n      gt\n      tag_88\n      jumpi\n      dup3\n      swap1\n      sub\n      0x1f\n      and\n      dup3\n      add\n      swap2\n    tag_86:\n      pop\n      pop\n      pop\n      pop\n      pop\n      swap1\n      dup1\n      0x02\n      add\n      0x00\n      swap1\n      sload\n      swap1\n      0x0100\n      exp\n      swap1\n      div\n      0xffffffffffffffffffffffffffffffffffffffff\n      and\n      swap1\n      pop\n      dup4\n      jump\t// out\n        /* \"recordTransaction.sol\":4402:5029  function E00020001(string memory _eventId, uint256 _EP001, uint256 _EP002, uint256 _BTC, uint256 _USDT) public {... */\n    tag_27:\n        /* \"recordTransaction.sol\":4522:4535  uint256 index */\n      0x00\n        /* \"recordTransaction.sol\":4538:4550  transactions */\n      dup1\n        /* \"recordTransaction.sol\":4538:4557  transactions.length */\n      dup1\n      sload\n      swap1\n      pop\n        /* \"recordTransaction.sol\":4522:4557  uint256 index = transactions.length */\n      swap1\n      pop\n        /* \"recordTransaction.sol\":4567:4579  transactions */\n      0x00\n        /* \"recordTransaction.sol\":4567:4586  transactions.push() */\n      0x01\n      dup2\n      0x01\n      dup2\n      sload\n      add\n      dup1\n      dup3\n      sstore\n      dup1\n      swap2\n      pop\n      pop\n      sub\n      swap1\n      0x00\n      mstore\n      keccak256(0x00, 0x20)\n      swap1\n      pop\n      pop\n        /* \"recordTransaction.sol\":4596:4627  Transaction storage transaction */\n      0x00\n        /* \"recordTransaction.sol\":4630:4642  transactions */\n      dup1\n        /* \"recordTransaction.sol\":4643:4648  index */\n      dup3\n        /* \"recordTransaction.sol\":4630:4649  transactions[index] */\n      dup2\n      sload\n      dup2\n      lt\n      tag_91\n      jumpi\n      tag_92\n      tag_59\n      jump\t// in\n    tag_92:\n    tag_91:\n      swap1\n      0x00\n      mstore\n      keccak256(0x00, 0x20)\n      swap1\n      0x04\n      mul\n      add\n        /* \"recordTransaction.sol\":4596:4649  Transaction storage transaction = transactions[index] */\n      swap1\n      pop\n        /* \"recordTransaction.sol\":4660:4701  transaction.transactionType = \"E00020001\" */\n      mload(0x40)\n      dup1\n      0x40\n      add\n      0x40\n      mstore\n      dup1\n      0x09\n      dup2\n      mstore\n      0x20\n      add\n      0x4530303032303030310000000000000000000000000000000000000000000000\n      dup2\n      mstore\n      pop\n        /* \"recordTransaction.sol\":4660:4671  transaction */\n      dup2\n        /* \"recordTransaction.sol\":4660:4687  transaction.transactionType */\n      0x00\n      add\n        /* \"recordTransaction.sol\":4660:4701  transaction.transactionType = \"E00020001\" */\n      swap1\n      dup2\n      tag_94\n      swap2\n      swap1\n      tag_62\n      jump\t// in\n    tag_94:\n      pop\n        /* \"recordTransaction.sol\":4733:4741  _eventId */\n      dup7\n        /* \"recordTransaction.sol\":4711:4722  transaction */\n      dup2\n        /* \"recordTransaction.sol\":4711:4730  transaction.eventId */\n      0x01\n      add\n        /* \"recordTransaction.sol\":4711:4741  transaction.eventId = _eventId */\n      swap1\n      dup2\n      tag_95\n      swap2\n      swap1\n      tag_62\n      jump\t// in\n    tag_95:\n      pop\n        /* \"recordTransaction.sol\":4774:4784  msg.sender */\n      caller\n        /* \"recordTransaction.sol\":4751:4762  transaction */\n      dup2\n        /* \"recordTransaction.sol\":4751:4771  transaction.Recorder */\n      0x02\n      add\n      0x00\n        /* \"recordTransaction.sol\":4751:4784  transaction.Recorder = msg.sender */\n      0x0100\n      exp\n      dup2\n      sload\n      dup2\n      0xffffffffffffffffffffffffffffffffffffffff\n      mul\n      not\n      and\n      swap1\n      dup4\n      0xffffffffffffffffffffffffffffffffffffffff\n      and\n      mul\n      or\n      swap1\n      sstore\n      pop\n        /* \"recordTransaction.sol\":4824:4830  _EP001 */\n      dup6\n        /* \"recordTransaction.sol\":4794:4805  transaction */\n      dup2\n        /* \"recordTransaction.sol\":4794:4812  transaction.params */\n      0x03\n      add\n        /* \"recordTransaction.sol\":4794:4821  transaction.params[\"EP001\"] */\n      mload(0x40)\n      tag_96\n      swap1\n      tag_65\n      jump\t// in\n    tag_96:\n      swap1\n      dup2\n      mstore\n      0x20\n      add\n      mload(0x40)\n      dup1\n      swap2\n      sub\n      swap1\n      keccak256\n        /* \"recordTransaction.sol\":4794:4830  transaction.params[\"EP001\"] = _EP001 */\n      dup2\n      swap1\n      sstore\n      pop\n        /* \"recordTransaction.sol\":4870:4876  _EP002 */\n      dup5\n        /* \"recordTransaction.sol\":4840:4851  transaction */\n      dup2\n        /* \"recordTransaction.sol\":4840:4858  transaction.params */\n      0x03\n      add\n        /* \"recordTransaction.sol\":4840:4867  transaction.params[\"EP002\"] */\n      mload(0x40)\n      tag_97\n      swap1\n      tag_67\n      jump\t// in\n    tag_97:\n      swap1\n      dup2\n      mstore\n      0x20\n      add\n      mload(0x40)\n      dup1\n      swap2\n      sub\n      swap1\n      keccak256\n        /* \"recordTransaction.sol\":4840:4876  transaction.params[\"EP002\"] = _EP002 */\n      dup2\n      swap1\n      sstore\n      pop\n        /* \"recordTransaction.sol\":4914:4918  _BTC */\n      dup4\n        /* \"recordTransaction.sol\":4886:4897  transaction */\n      dup2\n        /* \"recordTransaction.sol\":4886:4904  transaction.params */\n      0x03\n      add\n        /* \"recordTransaction.sol\":4886:4911  transaction.params[\"BTC\"] */\n      mload(0x40)\n      tag_98\n      swap1\n      tag_99\n      jump\t// in\n    tag_98:\n      swap1\n      dup2\n      mstore\n      0x20\n      add\n      mload(0x40)\n      dup1\n      swap2\n      sub\n      swap1\n      keccak256\n        /* \"recordTransaction.sol\":4886:4918  transaction.params[\"BTC\"] = _BTC */\n      dup2\n      swap1\n      sstore\n      pop\n        /* \"recordTransaction.sol\":4957:4962  _USDT */\n      dup3\n        /* \"recordTransaction.sol\":4928:4939  transaction */\n      dup2\n        /* \"recordTransaction.sol\":4928:4946  transaction.params */\n      0x03\n      add\n        /* \"recordTransaction.sol\":4928:4954  transaction.params[\"USDT\"] */\n      mload(0x40)\n      tag_100\n      swap1\n      tag_101\n      jump\t// in\n    tag_100:\n      swap1\n      dup2\n      mstore\n      0x20\n      add\n      mload(0x40)\n      dup1\n      swap2\n      sub\n      swap1\n      keccak256\n        /* \"recordTransaction.sol\":4928:4962  transaction.params[\"USDT\"] = _USDT */\n      dup2\n      swap1\n      sstore\n      pop\n        /* \"recordTransaction.sol\":5007:5022  block.timestamp */\n      timestamp\n        /* \"recordTransaction.sol\":4972:4983  transaction */\n      dup2\n        /* \"recordTransaction.sol\":4972:4990  transaction.params */\n      0x03\n      add\n        /* \"recordTransaction.sol\":4972:5004  transaction.params[\"trans_time\"] */\n      mload(0x40)\n      tag_102\n      swap1\n      tag_73\n      jump\t// in\n    tag_102:\n      swap1\n      dup2\n      mstore\n      0x20\n      add\n      mload(0x40)\n      dup1\n      swap2\n      sub\n      swap1\n      keccak256\n        /* \"recordTransaction.sol\":4972:5022  transaction.params[\"trans_time\"] = block.timestamp */\n      dup2\n      swap1\n      sstore\n      pop\n        /* \"recordTransaction.sol\":4513:5029  {... */\n      pop\n      pop\n        /* \"recordTransaction.sol\":4402:5029  function E00020001(string memory _eventId, uint256 _EP001, uint256 _EP002, uint256 _BTC, uint256 _USDT) public {... */\n      pop\n      pop\n      pop\n      pop\n      pop\n      jump\t// out\n        /* \"recordTransaction.sol\":3699:4396  function E00010006(string memory _eventId, uint256 _EP001, uint256 _EP002, uint256 _EP003,uint256 _EP004, uint256 _EP006) public {... */\n    tag_30:\n        /* \"recordTransaction.sol\":3837:3850  uint256 index */\n      0x00\n        /* \"recordTransaction.sol\":3853:3865  transactions */\n      dup1\n        /* \"recordTransaction.sol\":3853:3872  transactions.length */\n      dup1\n      sload\n      swap1\n      pop\n        /* \"recordTransaction.sol\":3837:3872  uint256 index = transactions.length */\n      swap1\n      pop\n        /* \"recordTransaction.sol\":3882:3894  transactions */\n      0x00\n        /* \"recordTransaction.sol\":3882:3901  transactions.push() */\n      0x01\n      dup2\n      0x01\n      dup2\n      sload\n      add\n      dup1\n      dup3\n      sstore\n      dup1\n      swap2\n      pop\n      pop\n      sub\n      swap1\n      0x00\n      mstore\n      keccak256(0x00, 0x20)\n      swap1\n      pop\n      pop\n        /* \"recordTransaction.sol\":3911:3942  Transaction storage transaction */\n      0x00\n        /* \"recordTransaction.sol\":3945:3957  transactions */\n      dup1\n        /* \"recordTransaction.sol\":3958:3963  index */\n      dup3\n        /* \"recordTransaction.sol\":3945:3964  transactions[index] */\n      dup2\n      sload\n      dup2\n      lt\n      tag_105\n      jumpi\n      tag_106\n      tag_59\n      jump\t// in\n    tag_106:\n    tag_105:\n      swap1\n      0x00\n      mstore\n      keccak256(0x00, 0x20)\n      swap1\n      0x04\n      mul\n      add\n        /* \"recordTransaction.sol\":3911:3964  Transaction storage transaction = transactions[index] */\n      swap1\n      pop\n        /* \"recordTransaction.sol\":3975:4016  transaction.transactionType = \"E00010005\" */\n      mload(0x40)\n      dup1\n      0x40\n      add\n      0x40\n      mstore\n      dup1\n      0x09\n      dup2\n      mstore\n      0x20\n      add\n      0x4530303031303030350000000000000000000000000000000000000000000000\n      dup2\n      mstore\n      pop\n        /* \"recordTransaction.sol\":3975:3986  transaction */\n      dup2\n        /* \"recordTransaction.sol\":3975:4002  transaction.transactionType */\n      0x00\n      add\n        /* \"recordTransaction.sol\":3975:4016  transaction.transactionType = \"E00010005\" */\n      swap1\n      dup2\n      tag_108\n      swap2\n      swap1\n      tag_62\n      jump\t// in\n    tag_108:\n      pop\n        /* \"recordTransaction.sol\":4048:4056  _eventId */\n      dup8\n        /* \"recordTransaction.sol\":4026:4037  transaction */\n      dup2\n        /* \"recordTransaction.sol\":4026:4045  transaction.eventId */\n      0x01\n      add\n        /* \"recordTransaction.sol\":4026:4056  transaction.eventId = _eventId */\n      swap1\n      dup2\n      tag_109\n      swap2\n      swap1\n      tag_62\n      jump\t// in\n    tag_109:\n      pop\n        /* \"recordTransaction.sol\":4089:4099  msg.sender */\n      caller\n        /* \"recordTransaction.sol\":4066:4077  transaction */\n      dup2\n        /* \"recordTransaction.sol\":4066:4086  transaction.Recorder */\n      0x02\n      add\n      0x00\n        /* \"recordTransaction.sol\":4066:4099  transaction.Recorder = msg.sender */\n      0x0100\n      exp\n      dup2\n      sload\n      dup2\n      0xffffffffffffffffffffffffffffffffffffffff\n      mul\n      not\n      and\n      swap1\n      dup4\n      0xffffffffffffffffffffffffffffffffffffffff\n      and\n      mul\n      or\n      swap1\n      sstore\n      pop\n        /* \"recordTransaction.sol\":4139:4145  _EP001 */\n      dup7\n        /* \"recordTransaction.sol\":4109:4120  transaction */\n      dup2\n        /* \"recordTransaction.sol\":4109:4127  transaction.params */\n      0x03\n      add\n        /* \"recordTransaction.sol\":4109:4136  transaction.params[\"EP001\"] */\n      mload(0x40)\n      tag_110\n      swap1\n      tag_65\n      jump\t// in\n    tag_110:\n      swap1\n      dup2\n      mstore\n      0x20\n      add\n      mload(0x40)\n      dup1\n      swap2\n      sub\n      swap1\n      keccak256\n        /* \"recordTransaction.sol\":4109:4145  transaction.params[\"EP001\"] = _EP001 */\n      dup2\n      swap1\n      sstore\n      pop\n        /* \"recordTransaction.sol\":4185:4191  _EP002 */\n      dup6\n        /* \"recordTransaction.sol\":4155:4166  transaction */\n      dup2\n        /* \"recordTransaction.sol\":4155:4173  transaction.params */\n      0x03\n      add\n        /* \"recordTransaction.sol\":4155:4182  transaction.params[\"EP002\"] */\n      mload(0x40)\n      tag_111\n      swap1\n      tag_67\n      jump\t// in\n    tag_111:\n      swap1\n      dup2\n      mstore\n      0x20\n      add\n      mload(0x40)\n      dup1\n      swap2\n      sub\n      swap1\n      keccak256\n        /* \"recordTransaction.sol\":4155:4191  transaction.params[\"EP002\"] = _EP002 */\n      dup2\n      swap1\n      sstore\n      pop\n        /* \"recordTransaction.sol\":4231:4237  _EP003 */\n      dup5\n        /* \"recordTransaction.sol\":4201:4212  transaction */\n      dup2\n        /* \"recordTransaction.sol\":4201:4219  transaction.params */\n      0x03\n      add\n        /* \"recordTransaction.sol\":4201:4228  transaction.params[\"EP003\"] */\n      mload(0x40)\n      tag_112\n      swap1\n      tag_69\n      jump\t// in\n    tag_112:\n      swap1\n      dup2\n      mstore\n      0x20\n      add\n      mload(0x40)\n      dup1\n      swap2\n      sub\n      swap1\n      keccak256\n        /* \"recordTransaction.sol\":4201:4237  transaction.params[\"EP003\"] = _EP003 */\n      dup2\n      swap1\n      sstore\n      pop\n        /* \"recordTransaction.sol\":4277:4283  _EP004 */\n      dup4\n        /* \"recordTransaction.sol\":4247:4258  transaction */\n      dup2\n        /* \"recordTransaction.sol\":4247:4265  transaction.params */\n      0x03\n      add\n        /* \"recordTransaction.sol\":4247:4274  transaction.params[\"EP004\"] */\n      mload(0x40)\n      tag_113\n      swap1\n      tag_71\n      jump\t// in\n    tag_113:\n      swap1\n      dup2\n      mstore\n      0x20\n      add\n      mload(0x40)\n      dup1\n      swap2\n      sub\n      swap1\n      keccak256\n        /* \"recordTransaction.sol\":4247:4283  transaction.params[\"EP004\"] = _EP004 */\n      dup2\n      swap1\n      sstore\n      pop\n        /* \"recordTransaction.sol\":4328:4343  block.timestamp */\n      timestamp\n        /* \"recordTransaction.sol\":4293:4304  transaction */\n      dup2\n        /* \"recordTransaction.sol\":4293:4311  transaction.params */\n      0x03\n      add\n        /* \"recordTransaction.sol\":4293:4325  transaction.params[\"trans_time\"] */\n      mload(0x40)\n      tag_114\n      swap1\n      tag_73\n      jump\t// in\n    tag_114:\n      swap1\n      dup2\n      mstore\n      0x20\n      add\n      mload(0x40)\n      dup1\n      swap2\n      sub\n      swap1\n      keccak256\n        /* \"recordTransaction.sol\":4293:4343  transaction.params[\"trans_time\"] = block.timestamp */\n      dup2\n      swap1\n      sstore\n      pop\n        /* \"recordTransaction.sol\":4383:4389  _EP006 */\n      dup3\n        /* \"recordTransaction.sol\":4353:4364  transaction */\n      dup2\n        /* \"recordTransaction.sol\":4353:4371  transaction.params */\n      0x03\n      add\n        /* \"recordTransaction.sol\":4353:4380  transaction.params[\"EP006\"] */\n      mload(0x40)\n      tag_115\n      swap1\n      tag_75\n      jump\t// in\n    tag_115:\n      swap1\n      dup2\n      mstore\n      0x20\n      add\n      mload(0x40)\n      dup1\n      swap2\n      sub\n      swap1\n      keccak256\n        /* \"recordTransaction.sol\":4353:4389  transaction.params[\"EP006\"] = _EP006 */\n      dup2\n      swap1\n      sstore\n      pop\n        /* \"recordTransaction.sol\":3828:4396  {... */\n      pop\n      pop\n        /* \"recordTransaction.sol\":3699:4396  function E00010006(string memory _eventId, uint256 _EP001, uint256 _EP002, uint256 _EP003,uint256 _EP004, uint256 _EP006) public {... */\n      pop\n      pop\n      pop\n      pop\n      pop\n      pop\n      jump\t// out\n        /* \"recordTransaction.sol\":5039:5358  function getTransaction(string memory _eventId) public view returns (string memory, string memory, address) {... */\n    tag_34:\n        /* \"recordTransaction.sol\":5108:5121  string memory */\n      0x60\n        /* \"recordTransaction.sol\":5123:5136  string memory */\n      dup1\n        /* \"recordTransaction.sol\":5138:5145  address */\n      0x00\n        /* \"recordTransaction.sol\":5157:5188  Transaction storage transaction */\n      dup1\n        /* \"recordTransaction.sol\":5191:5216  findTransaction(_eventId) */\n      tag_117\n        /* \"recordTransaction.sol\":5207:5215  _eventId */\n      dup6\n        /* \"recordTransaction.sol\":5191:5206  findTransaction */\n      tag_118\n        /* \"recordTransaction.sol\":5191:5216  findTransaction(_eventId) */\n      jump\t// in\n    tag_117:\n        /* \"recordTransaction.sol\":5157:5216  Transaction storage transaction = findTransaction(_eventId) */\n      swap1\n      pop\n        /* \"recordTransaction.sol\":5247:5258  transaction */\n      dup1\n        /* \"recordTransaction.sol\":5247:5274  transaction.transactionType */\n      0x00\n      add\n        /* \"recordTransaction.sol\":5288:5299  transaction */\n      dup2\n        /* \"recordTransaction.sol\":5288:5307  transaction.eventId */\n      0x01\n      add\n        /* \"recordTransaction.sol\":5321:5332  transaction */\n      dup3\n        /* \"recordTransaction.sol\":5321:5341  transaction.Recorder */\n      0x02\n      add\n      0x00\n      swap1\n      sload\n      swap1\n      0x0100\n      exp\n      swap1\n      div\n      0xffffffffffffffffffffffffffffffffffffffff\n      and\n        /* \"recordTransaction.sol\":5226:5351  return (... */\n      dup3\n      dup1\n      sload\n      tag_119\n      swap1\n      tag_79\n      jump\t// in\n    tag_119:\n      dup1\n      0x1f\n      add\n      0x20\n      dup1\n      swap2\n      div\n      mul\n      0x20\n      add\n      mload(0x40)\n      swap1\n      dup2\n      add\n      0x40\n      mstore\n      dup1\n      swap3\n      swap2\n      swap1\n      dup2\n      dup2\n      mstore\n      0x20\n      add\n      dup3\n      dup1\n      sload\n      tag_120\n      swap1\n      tag_79\n      jump\t// in\n    tag_120:\n      dup1\n      iszero\n      tag_121\n      jumpi\n      dup1\n      0x1f\n      lt\n      tag_122\n      jumpi\n      0x0100\n      dup1\n      dup4\n      sload\n      div\n      mul\n      dup4\n      mstore\n      swap2\n      0x20\n      add\n      swap2\n      jump(tag_121)\n    tag_122:\n      dup3\n      add\n      swap2\n      swap1\n      0x00\n      mstore\n      keccak256(0x00, 0x20)\n      swap1\n    tag_123:\n      dup2\n      sload\n      dup2\n      mstore\n      swap1\n      0x01\n      add\n      swap1\n      0x20\n      add\n      dup1\n      dup4\n      gt\n      tag_123\n      jumpi\n      dup3\n      swap1\n      sub\n      0x1f\n      and\n      dup3\n      add\n      swap2\n    tag_121:\n      pop\n      pop\n      pop\n      pop\n      pop\n      swap3\n      pop\n      dup2\n      dup1\n      sload\n      tag_124\n      swap1\n      tag_79\n      jump\t// in\n    tag_124:\n      dup1\n      0x1f\n      add\n      0x20\n      dup1\n      swap2\n      div\n      mul\n      0x20\n      add\n      mload(0x40)\n      swap1\n      dup2\n      add\n      0x40\n      mstore\n      dup1\n      swap3\n      swap2\n      swap1\n      dup2\n      dup2\n      mstore\n      0x20\n      add\n      dup3\n      dup1\n      sload\n      tag_125\n      swap1\n      tag_79\n      jump\t// in\n    tag_125:\n      dup1\n      iszero\n      tag_126\n      jumpi\n      dup1\n      0x1f\n      lt\n      tag_127\n      jumpi\n      0x0100\n      dup1\n      dup4\n      sload\n      div\n      mul\n      dup4\n      mstore\n      swap2\n      0x20\n      add\n      swap2\n      jump(tag_126)\n    tag_127:\n      dup3\n      add\n      swap2\n      swap1\n      0x00\n      mstore\n      keccak256(0x00, 0x20)\n      swap1\n    tag_128:\n      dup2\n      sload\n      dup2\n      mstore\n      swap1\n      0x01\n      add\n      swap1\n      0x20\n      add\n      dup1\n      dup4\n      gt\n      tag_128\n      jumpi\n      dup3\n      swap1\n      sub\n      0x1f\n      and\n      dup3\n      add\n      swap2\n    tag_126:\n      pop\n      pop\n      pop\n      pop\n      pop\n      swap2\n      pop\n      swap4\n      pop\n      swap4\n      pop\n      swap4\n      pop\n      pop\n        /* \"recordTransaction.sol\":5039:5358  function getTransaction(string memory _eventId) public view returns (string memory, string memory, address) {... */\n      swap2\n      swap4\n      swap1\n      swap3\n      pop\n      jump\t// out\n        /* \"recordTransaction.sol\":5368:5598  function getTransactionParam(string memory _eventId, string memory _paramKey) public view returns (uint256) {... */\n    tag_39:\n        /* \"recordTransaction.sol\":5467:5474  uint256 */\n      0x00\n        /* \"recordTransaction.sol\":5486:5517  Transaction storage transaction */\n      dup1\n        /* \"recordTransaction.sol\":5520:5545  findTransaction(_eventId) */\n      tag_130\n        /* \"recordTransaction.sol\":5536:5544  _eventId */\n      dup5\n        /* \"recordTransaction.sol\":5520:5535  findTransaction */\n      tag_118\n        /* \"recordTransaction.sol\":5520:5545  findTransaction(_eventId) */\n      jump\t// in\n    tag_130:\n        /* \"recordTransaction.sol\":5486:5545  Transaction storage transaction = findTransaction(_eventId) */\n      swap1\n      pop\n        /* \"recordTransaction.sol\":5562:5573  transaction */\n      dup1\n        /* \"recordTransaction.sol\":5562:5580  transaction.params */\n      0x03\n      add\n        /* \"recordTransaction.sol\":5581:5590  _paramKey */\n      dup4\n        /* \"recordTransaction.sol\":5562:5591  transaction.params[_paramKey] */\n      mload(0x40)\n      tag_131\n      swap2\n      swap1\n      tag_132\n      jump\t// in\n    tag_131:\n      swap1\n      dup2\n      mstore\n      0x20\n      add\n      mload(0x40)\n      dup1\n      swap2\n      sub\n      swap1\n      keccak256\n      sload\n        /* \"recordTransaction.sol\":5555:5591  return transaction.params[_paramKey] */\n      swap2\n      pop\n      pop\n        /* \"recordTransaction.sol\":5368:5598  function getTransactionParam(string memory _eventId, string memory _paramKey) public view returns (uint256) {... */\n      swap3\n      swap2\n      pop\n      pop\n      jump\t// out\n        /* \"recordTransaction.sol\":1584:2221  function E00010003(string memory _eventId, uint256 _EP001, uint256 _EP002, uint256 _EP003, uint256 _EP005) public {... */\n    tag_44:\n        /* \"recordTransaction.sol\":1708:1721  uint256 index */\n      0x00\n        /* \"recordTransaction.sol\":1724:1736  transactions */\n      dup1\n        /* \"recordTransaction.sol\":1724:1743  transactions.length */\n      dup1\n      sload\n      swap1\n      pop\n        /* \"recordTransaction.sol\":1708:1743  uint256 index = transactions.length */\n      swap1\n      pop\n        /* \"recordTransaction.sol\":1753:1765  transactions */\n      0x00\n        /* \"recordTransaction.sol\":1753:1772  transactions.push() */\n      0x01\n      dup2\n      0x01\n      dup2\n      sload\n      add\n      dup1\n      dup3\n      sstore\n      dup1\n      swap2\n      pop\n      pop\n      sub\n      swap1\n      0x00\n      mstore\n      keccak256(0x00, 0x20)\n      swap1\n      pop\n      pop\n        /* \"recordTransaction.sol\":1782:1813  Transaction storage transaction */\n      0x00\n        /* \"recordTransaction.sol\":1816:1828  transactions */\n      dup1\n        /* \"recordTransaction.sol\":1829:1834  index */\n      dup3\n        /* \"recordTransaction.sol\":1816:1835  transactions[index] */\n      dup2\n      sload\n      dup2\n      lt\n      tag_135\n      jumpi\n      tag_136\n      tag_59\n      jump\t// in\n    tag_136:\n    tag_135:\n      swap1\n      0x00\n      mstore\n      keccak256(0x00, 0x20)\n      swap1\n      0x04\n      mul\n      add\n        /* \"recordTransaction.sol\":1782:1835  Transaction storage transaction = transactions[index] */\n      swap1\n      pop\n        /* \"recordTransaction.sol\":1846:1887  transaction.transactionType = \"E00010003\" */\n      mload(0x40)\n      dup1\n      0x40\n      add\n      0x40\n      mstore\n      dup1\n      0x09\n      dup2\n      mstore\n      0x20\n      add\n      0x4530303031303030330000000000000000000000000000000000000000000000\n      dup2\n      mstore\n      pop\n        /* \"recordTransaction.sol\":1846:1857  transaction */\n      dup2\n        /* \"recordTransaction.sol\":1846:1873  transaction.transactionType */\n      0x00\n      add\n        /* \"recordTransaction.sol\":1846:1887  transaction.transactionType = \"E00010003\" */\n      swap1\n      dup2\n      tag_138\n      swap2\n      swap1\n      tag_62\n      jump\t// in\n    tag_138:\n      pop\n        /* \"recordTransaction.sol\":1919:1927  _eventId */\n      dup7\n        /* \"recordTransaction.sol\":1897:1908  transaction */\n      dup2\n        /* \"recordTransaction.sol\":1897:1916  transaction.eventId */\n      0x01\n      add\n        /* \"recordTransaction.sol\":1897:1927  transaction.eventId = _eventId */\n      swap1\n      dup2\n      tag_139\n      swap2\n      swap1\n      tag_62\n      jump\t// in\n    tag_139:\n      pop\n        /* \"recordTransaction.sol\":1960:1970  msg.sender */\n      caller\n        /* \"recordTransaction.sol\":1937:1948  transaction */\n      dup2\n        /* \"recordTransaction.sol\":1937:1957  transaction.Recorder */\n      0x02\n      add\n      0x00\n        /* \"recordTransaction.sol\":1937:1970  transaction.Recorder = msg.sender */\n      0x0100\n      exp\n      dup2\n      sload\n      dup2\n      0xffffffffffffffffffffffffffffffffffffffff\n      mul\n      not\n      and\n      swap1\n      dup4\n      0xffffffffffffffffffffffffffffffffffffffff\n      and\n      mul\n      or\n      swap1\n      sstore\n      pop\n        /* \"recordTransaction.sol\":2010:2016  _EP001 */\n      dup6\n        /* \"recordTransaction.sol\":1980:1991  transaction */\n      dup2\n        /* \"recordTransaction.sol\":1980:1998  transaction.params */\n      0x03\n      add\n        /* \"recordTransaction.sol\":1980:2007  transaction.params[\"EP001\"] */\n      mload(0x40)\n      tag_140\n      swap1\n      tag_65\n      jump\t// in\n    tag_140:\n      swap1\n      dup2\n      mstore\n      0x20\n      add\n      mload(0x40)\n      dup1\n      swap2\n      sub\n      swap1\n      keccak256\n        /* \"recordTransaction.sol\":1980:2016  transaction.params[\"EP001\"] = _EP001 */\n      dup2\n      swap1\n      sstore\n      pop\n        /* \"recordTransaction.sol\":2056:2062  _EP002 */\n      dup5\n        /* \"recordTransaction.sol\":2026:2037  transaction */\n      dup2\n        /* \"recordTransaction.sol\":2026:2044  transaction.params */\n      0x03\n      add\n        /* \"recordTransaction.sol\":2026:2053  transaction.params[\"EP002\"] */\n      mload(0x40)\n      tag_141\n      swap1\n      tag_67\n      jump\t// in\n    tag_141:\n      swap1\n      dup2\n      mstore\n      0x20\n      add\n      mload(0x40)\n      dup1\n      swap2\n      sub\n      swap1\n      keccak256\n        /* \"recordTransaction.sol\":2026:2062  transaction.params[\"EP002\"] = _EP002 */\n      dup2\n      swap1\n      sstore\n      pop\n        /* \"recordTransaction.sol\":2102:2108  _EP003 */\n      dup4\n        /* \"recordTransaction.sol\":2072:2083  transaction */\n      dup2\n        /* \"recordTransaction.sol\":2072:2090  transaction.params */\n      0x03\n      add\n        /* \"recordTransaction.sol\":2072:2099  transaction.params[\"EP003\"] */\n      mload(0x40)\n      tag_142\n      swap1\n      tag_69\n      jump\t// in\n    tag_142:\n      swap1\n      dup2\n      mstore\n      0x20\n      add\n      mload(0x40)\n      dup1\n      swap2\n      sub\n      swap1\n      keccak256\n        /* \"recordTransaction.sol\":2072:2108  transaction.params[\"EP003\"] = _EP003 */\n      dup2\n      swap1\n      sstore\n      pop\n        /* \"recordTransaction.sol\":2153:2168  block.timestamp */\n      timestamp\n        /* \"recordTransaction.sol\":2118:2129  transaction */\n      dup2\n        /* \"recordTransaction.sol\":2118:2136  transaction.params */\n      0x03\n      add\n        /* \"recordTransaction.sol\":2118:2150  transaction.params[\"trans_time\"] */\n      mload(0x40)\n      tag_143\n      swap1\n      tag_73\n      jump\t// in\n    tag_143:\n      swap1\n      dup2\n      mstore\n      0x20\n      add\n      mload(0x40)\n      dup1\n      swap2\n      sub\n      swap1\n      keccak256\n        /* \"recordTransaction.sol\":2118:2168  transaction.params[\"trans_time\"] = block.timestamp */\n      dup2\n      swap1\n      sstore\n      pop\n        /* \"recordTransaction.sol\":2208:2214  _EP005 */\n      dup3\n        /* \"recordTransaction.sol\":2178:2189  transaction */\n      dup2\n        /* \"recordTransaction.sol\":2178:2196  transaction.params */\n      0x03\n      add\n        /* \"recordTransaction.sol\":2178:2205  transaction.params[\"EP005\"] */\n      mload(0x40)\n      tag_144\n      swap1\n      tag_145\n      jump\t// in\n    tag_144:\n      swap1\n      dup2\n      mstore\n      0x20\n      add\n      mload(0x40)\n      dup1\n      swap2\n      sub\n      swap1\n      keccak256\n        /* \"recordTransaction.sol\":2178:2214  transaction.params[\"EP005\"] = _EP005 */\n      dup2\n      swap1\n      sstore\n      pop\n        /* \"recordTransaction.sol\":1698:2221  {... */\n      pop\n      pop\n        /* \"recordTransaction.sol\":1584:2221  function E00010003(string memory _eventId, uint256 _EP001, uint256 _EP002, uint256 _EP003, uint256 _EP005) public {... */\n      pop\n      pop\n      pop\n      pop\n      pop\n      jump\t// out\n        /* \"recordTransaction.sol\":298:935  function E00010001(string memory _eventId, uint256 _EP001, uint256 _EP002, uint256 _EP003, uint256 _EP005) public {... */\n    tag_47:\n        /* \"recordTransaction.sol\":422:435  uint256 index */\n      0x00\n        /* \"recordTransaction.sol\":438:450  transactions */\n      dup1\n        /* \"recordTransaction.sol\":438:457  transactions.length */\n      dup1\n      sload\n      swap1\n      pop\n        /* \"recordTransaction.sol\":422:457  uint256 index = transactions.length */\n      swap1\n      pop\n        /* \"recordTransaction.sol\":467:479  transactions */\n      0x00\n        /* \"recordTransaction.sol\":467:486  transactions.push() */\n      0x01\n      dup2\n      0x01\n      dup2\n      sload\n      add\n      dup1\n      dup3\n      sstore\n      dup1\n      swap2\n      pop\n      pop\n      sub\n      swap1\n      0x00\n      mstore\n      keccak256(0x00, 0x20)\n      swap1\n      pop\n      pop\n        /* \"recordTransaction.sol\":496:527  Transaction storage transaction */\n      0x00\n        /* \"recordTransaction.sol\":530:542  transactions */\n      dup1\n        /* \"recordTransaction.sol\":543:548  index */\n      dup3\n        /* \"recordTransaction.sol\":530:549  transactions[index] */\n      dup2\n      sload\n      dup2\n      lt\n      tag_148\n      jumpi\n      tag_149\n      tag_59\n      jump\t// in\n    tag_149:\n    tag_148:\n      swap1\n      0x00\n      mstore\n      keccak256(0x00, 0x20)\n      swap1\n      0x04\n      mul\n      add\n        /* \"recordTransaction.sol\":496:549  Transaction storage transaction = transactions[index] */\n      swap1\n      pop\n        /* \"recordTransaction.sol\":560:601  transaction.transactionType = \"E00010001\" */\n      mload(0x40)\n      dup1\n      0x40\n      add\n      0x40\n      mstore\n      dup1\n      0x09\n      dup2\n      mstore\n      0x20\n      add\n      0x4530303031303030310000000000000000000000000000000000000000000000\n      dup2\n      mstore\n      pop\n        /* \"recordTransaction.sol\":560:571  transaction */\n      dup2\n        /* \"recordTransaction.sol\":560:587  transaction.transactionType */\n      0x00\n      add\n        /* \"recordTransaction.sol\":560:601  transaction.transactionType = \"E00010001\" */\n      swap1\n      dup2\n      tag_151\n      swap2\n      swap1\n      tag_62\n      jump\t// in\n    tag_151:\n      pop\n        /* \"recordTransaction.sol\":633:641  _eventId */\n      dup7\n        /* \"recordTransaction.sol\":611:622  transaction */\n      dup2\n        /* \"recordTransaction.sol\":611:630  transaction.eventId */\n      0x01\n      add\n        /* \"recordTransaction.sol\":611:641  transaction.eventId = _eventId */\n      swap1\n      dup2\n      tag_152\n      swap2\n      swap1\n      tag_62\n      jump\t// in\n    tag_152:\n      pop\n        /* \"recordTransaction.sol\":674:684  msg.sender */\n      caller\n        /* \"recordTransaction.sol\":651:662  transaction */\n      dup2\n        /* \"recordTransaction.sol\":651:671  transaction.Recorder */\n      0x02\n      add\n      0x00\n        /* \"recordTransaction.sol\":651:684  transaction.Recorder = msg.sender */\n      0x0100\n      exp\n      dup2\n      sload\n      dup2\n      0xffffffffffffffffffffffffffffffffffffffff\n      mul\n      not\n      and\n      swap1\n      dup4\n      0xffffffffffffffffffffffffffffffffffffffff\n      and\n      mul\n      or\n      swap1\n      sstore\n      pop\n        /* \"recordTransaction.sol\":724:730  _EP001 */\n      dup6\n        /* \"recordTransaction.sol\":694:705  transaction */\n      dup2\n        /* \"recordTransaction.sol\":694:712  transaction.params */\n      0x03\n      add\n        /* \"recordTransaction.sol\":694:721  transaction.params[\"EP001\"] */\n      mload(0x40)\n      tag_153\n      swap1\n      tag_65\n      jump\t// in\n    tag_153:\n      swap1\n      dup2\n      mstore\n      0x20\n      add\n      mload(0x40)\n      dup1\n      swap2\n      sub\n      swap1\n      keccak256\n        /* \"recordTransaction.sol\":694:730  transaction.params[\"EP001\"] = _EP001 */\n      dup2\n      swap1\n      sstore\n      pop\n        /* \"recordTransaction.sol\":770:776  _EP002 */\n      dup5\n        /* \"recordTransaction.sol\":740:751  transaction */\n      dup2\n        /* \"recordTransaction.sol\":740:758  transaction.params */\n      0x03\n      add\n        /* \"recordTransaction.sol\":740:767  transaction.params[\"EP002\"] */\n      mload(0x40)\n      tag_154\n      swap1\n      tag_67\n      jump\t// in\n    tag_154:\n      swap1\n      dup2\n      mstore\n      0x20\n      add\n      mload(0x40)\n      dup1\n      swap2\n      sub\n      swap1\n      keccak256\n        /* \"recordTransaction.sol\":740:776  transaction.params[\"EP002\"] = _EP002 */\n      dup2\n      swap1\n      sstore\n      pop\n        /* \"recordTransaction.sol\":816:822  _EP003 */\n      dup4\n        /* \"recordTransaction.sol\":786:797  transaction */\n      dup2\n        /* \"recordTransaction.sol\":786:804  transaction.params */\n      0x03\n      add\n        /* \"recordTransaction.sol\":786:813  transaction.params[\"EP003\"] */\n      mload(0x40)\n      tag_155\n      swap1\n      tag_69\n      jump\t// in\n    tag_155:\n      swap1\n      dup2\n      mstore\n      0x20\n      add\n      mload(0x40)\n      dup1\n      swap2\n      sub\n      swap1\n      keccak256\n        /* \"recordTransaction.sol\":786:822  transaction.params[\"EP003\"] = _EP003 */\n      dup2\n      swap1\n      sstore\n      pop\n        /* \"recordTransaction.sol\":867:882  block.timestamp */\n      timestamp\n        /* \"recordTransaction.sol\":832:843  transaction */\n      dup2\n        /* \"recordTransaction.sol\":832:850  transaction.params */\n      0x03\n      add\n        /* \"recordTransaction.sol\":832:864  transaction.params[\"trans_time\"] */\n      mload(0x40)\n      tag_156\n      swap1\n      tag_73\n      jump\t// in\n    tag_156:\n      swap1\n      dup2\n      mstore\n      0x20\n      add\n      mload(0x40)\n      dup1\n      swap2\n      sub\n      swap1\n      keccak256\n        /* \"recordTransaction.sol\":832:882  transaction.params[\"trans_time\"] = block.timestamp */\n      dup2\n      swap1\n      sstore\n      pop\n        /* \"recordTransaction.sol\":922:928  _EP005 */\n      dup3\n        /* \"recordTransaction.sol\":892:903  transaction */\n      dup2\n        /* \"recordTransaction.sol\":892:910  transaction.params */\n      0x03\n      add\n        /* \"recordTransaction.sol\":892:919  transaction.params[\"EP005\"] */\n      mload(0x40)\n      tag_157\n      swap1\n      tag_145\n      jump\t// in\n    tag_157:\n      swap1\n      dup2\n      mstore\n      0x20\n      add\n      mload(0x40)\n      dup1\n      swap2\n      sub\n      swap1\n      keccak256\n        /* \"recordTransaction.sol\":892:928  transaction.params[\"EP005\"] = _EP005 */\n      dup2\n      swap1\n      sstore\n      pop\n        /* \"recordTransaction.sol\":412:935  {... */\n      pop\n      pop\n        /* \"recordTransaction.sol\":298:935  function E00010001(string memory _eventId, uint256 _EP001, uint256 _EP002, uint256 _EP003, uint256 _EP005) public {... */\n      pop\n      pop\n      pop\n      pop\n      pop\n      jump\t// out\n        /* \"recordTransaction.sol\":2227:2988  function E00010004(string memory _eventId, uint256 _EP001, uint256 _EP002, uint256 _EP003, uint256 _EP004, uint256 _EP006, uint256 _EP007) public {... */\n    tag_51:\n        /* \"recordTransaction.sol\":2383:2396  uint256 index */\n      0x00\n        /* \"recordTransaction.sol\":2399:2411  transactions */\n      dup1\n        /* \"recordTransaction.sol\":2399:2418  transactions.length */\n      dup1\n      sload\n      swap1\n      pop\n        /* \"recordTransaction.sol\":2383:2418  uint256 index = transactions.length */\n      swap1\n      pop\n        /* \"recordTransaction.sol\":2428:2440  transactions */\n      0x00\n        /* \"recordTransaction.sol\":2428:2447  transactions.push() */\n      0x01\n      dup2\n      0x01\n      dup2\n      sload\n      add\n      dup1\n      dup3\n      sstore\n      dup1\n      swap2\n      pop\n      pop\n      sub\n      swap1\n      0x00\n      mstore\n      keccak256(0x00, 0x20)\n      swap1\n      pop\n      pop\n        /* \"recordTransaction.sol\":2457:2488  Transaction storage transaction */\n      0x00\n        /* \"recordTransaction.sol\":2491:2503  transactions */\n      dup1\n        /* \"recordTransaction.sol\":2504:2509  index */\n      dup3\n        /* \"recordTransaction.sol\":2491:2510  transactions[index] */\n      dup2\n      sload\n      dup2\n      lt\n      tag_160\n      jumpi\n      tag_161\n      tag_59\n      jump\t// in\n    tag_161:\n    tag_160:\n      swap1\n      0x00\n      mstore\n      keccak256(0x00, 0x20)\n      swap1\n      0x04\n      mul\n      add\n        /* \"recordTransaction.sol\":2457:2510  Transaction storage transaction = transactions[index] */\n      swap1\n      pop\n        /* \"recordTransaction.sol\":2521:2562  transaction.transactionType = \"E00010004\" */\n      mload(0x40)\n      dup1\n      0x40\n      add\n      0x40\n      mstore\n      dup1\n      0x09\n      dup2\n      mstore\n      0x20\n      add\n      0x4530303031303030340000000000000000000000000000000000000000000000\n      dup2\n      mstore\n      pop\n        /* \"recordTransaction.sol\":2521:2532  transaction */\n      dup2\n        /* \"recordTransaction.sol\":2521:2548  transaction.transactionType */\n      0x00\n      add\n        /* \"recordTransaction.sol\":2521:2562  transaction.transactionType = \"E00010004\" */\n      swap1\n      dup2\n      tag_163\n      swap2\n      swap1\n      tag_62\n      jump\t// in\n    tag_163:\n      pop\n        /* \"recordTransaction.sol\":2594:2602  _eventId */\n      dup9\n        /* \"recordTransaction.sol\":2572:2583  transaction */\n      dup2\n        /* \"recordTransaction.sol\":2572:2591  transaction.eventId */\n      0x01\n      add\n        /* \"recordTransaction.sol\":2572:2602  transaction.eventId = _eventId */\n      swap1\n      dup2\n      tag_164\n      swap2\n      swap1\n      tag_62\n      jump\t// in\n    tag_164:\n      pop\n        /* \"recordTransaction.sol\":2635:2645  msg.sender */\n      caller\n        /* \"recordTransaction.sol\":2612:2623  transaction */\n      dup2\n        /* \"recordTransaction.sol\":2612:2632  transaction.Recorder */\n      0x02\n      add\n      0x00\n        /* \"recordTransaction.sol\":2612:2645  transaction.Recorder = msg.sender */\n      0x0100\n      exp\n      dup2\n      sload\n      dup2\n      0xffffffffffffffffffffffffffffffffffffffff\n      mul\n      not\n      and\n      swap1\n      dup4\n      0xffffffffffffffffffffffffffffffffffffffff\n      and\n      mul\n      or\n      swap1\n      sstore\n      pop\n        /* \"recordTransaction.sol\":2685:2691  _EP001 */\n      dup8\n        /* \"recordTransaction.sol\":2655:2666  transaction */\n      dup2\n        /* \"recordTransaction.sol\":2655:2673  transaction.params */\n      0x03\n      add\n        /* \"recordTransaction.sol\":2655:2682  transaction.params[\"EP001\"] */\n      mload(0x40)\n      tag_165\n      swap1\n      tag_65\n      jump\t// in\n    tag_165:\n      swap1\n      dup2\n      mstore\n      0x20\n      add\n      mload(0x40)\n      dup1\n      swap2\n      sub\n      swap1\n      keccak256\n        /* \"recordTransaction.sol\":2655:2691  transaction.params[\"EP001\"] = _EP001 */\n      dup2\n      swap1\n      sstore\n      pop\n        /* \"recordTransaction.sol\":2731:2737  _EP002 */\n      dup7\n        /* \"recordTransaction.sol\":2701:2712  transaction */\n      dup2\n        /* \"recordTransaction.sol\":2701:2719  transaction.params */\n      0x03\n      add\n        /* \"recordTransaction.sol\":2701:2728  transaction.params[\"EP002\"] */\n      mload(0x40)\n      tag_166\n      swap1\n      tag_67\n      jump\t// in\n    tag_166:\n      swap1\n      dup2\n      mstore\n      0x20\n      add\n      mload(0x40)\n      dup1\n      swap2\n      sub\n      swap1\n      keccak256\n        /* \"recordTransaction.sol\":2701:2737  transaction.params[\"EP002\"] = _EP002 */\n      dup2\n      swap1\n      sstore\n      pop\n        /* \"recordTransaction.sol\":2777:2783  _EP003 */\n      dup6\n        /* \"recordTransaction.sol\":2747:2758  transaction */\n      dup2\n        /* \"recordTransaction.sol\":2747:2765  transaction.params */\n      0x03\n      add\n        /* \"recordTransaction.sol\":2747:2774  transaction.params[\"EP003\"] */\n      mload(0x40)\n      tag_167\n      swap1\n      tag_69\n      jump\t// in\n    tag_167:\n      swap1\n      dup2\n      mstore\n      0x20\n      add\n      mload(0x40)\n      dup1\n      swap2\n      sub\n      swap1\n      keccak256\n        /* \"recordTransaction.sol\":2747:2783  transaction.params[\"EP003\"] = _EP003 */\n      dup2\n      swap1\n      sstore\n      pop\n        /* \"recordTransaction.sol\":2823:2829  _EP004 */\n      dup5\n        /* \"recordTransaction.sol\":2793:2804  transaction */\n      dup2\n        /* \"recordTransaction.sol\":2793:2811  transaction.params */\n      0x03\n      add\n        /* \"recordTransaction.sol\":2793:2820  transaction.params[\"EP004\"] */\n      mload(0x40)\n      tag_168\n      swap1\n      tag_71\n      jump\t// in\n    tag_168:\n      swap1\n      dup2\n      mstore\n      0x20\n      add\n      mload(0x40)\n      dup1\n      swap2\n      sub\n      swap1\n      keccak256\n        /* \"recordTransaction.sol\":2793:2829  transaction.params[\"EP004\"] = _EP004 */\n      dup2\n      swap1\n      sstore\n      pop\n        /* \"recordTransaction.sol\":2874:2889  block.timestamp */\n      timestamp\n        /* \"recordTransaction.sol\":2839:2850  transaction */\n      dup2\n        /* \"recordTransaction.sol\":2839:2857  transaction.params */\n      0x03\n      add\n        /* \"recordTransaction.sol\":2839:2871  transaction.params[\"trans_time\"] */\n      mload(0x40)\n      tag_169\n      swap1\n      tag_73\n      jump\t// in\n    tag_169:\n      swap1\n      dup2\n      mstore\n      0x20\n      add\n      mload(0x40)\n      dup1\n      swap2\n      sub\n      swap1\n      keccak256\n        /* \"recordTransaction.sol\":2839:2889  transaction.params[\"trans_time\"] = block.timestamp */\n      dup2\n      swap1\n      sstore\n      pop\n        /* \"recordTransaction.sol\":2929:2935  _EP006 */\n      dup4\n        /* \"recordTransaction.sol\":2899:2910  transaction */\n      dup2\n        /* \"recordTransaction.sol\":2899:2917  transaction.params */\n      0x03\n      add\n        /* \"recordTransaction.sol\":2899:2926  transaction.params[\"EP006\"] */\n      mload(0x40)\n      tag_170\n      swap1\n      tag_75\n      jump\t// in\n    tag_170:\n      swap1\n      dup2\n      mstore\n      0x20\n      add\n      mload(0x40)\n      dup1\n      swap2\n      sub\n      swap1\n      keccak256\n        /* \"recordTransaction.sol\":2899:2935  transaction.params[\"EP006\"] = _EP006 */\n      dup2\n      swap1\n      sstore\n      pop\n        /* \"recordTransaction.sol\":2975:2981  _EP007 */\n      dup3\n        /* \"recordTransaction.sol\":2945:2956  transaction */\n      dup2\n        /* \"recordTransaction.sol\":2945:2963  transaction.params */\n      0x03\n      add\n        /* \"recordTransaction.sol\":2945:2972  transaction.params[\"EP007\"] */\n      mload(0x40)\n      tag_171\n      swap1\n      tag_172\n      jump\t// in\n    tag_171:\n      swap1\n      dup2\n      mstore\n      0x20\n      add\n      mload(0x40)\n      dup1\n      swap2\n      sub\n      swap1\n      keccak256\n        /* \"recordTransaction.sol\":2945:2981  transaction.params[\"EP007\"] = _EP007 */\n      dup2\n      swap1\n      sstore\n      pop\n        /* \"recordTransaction.sol\":2373:2988  {... */\n      pop\n      pop\n        /* \"recordTransaction.sol\":2227:2988  function E00010004(string memory _eventId, uint256 _EP001, uint256 _EP002, uint256 _EP003, uint256 _EP004, uint256 _EP006, uint256 _EP007) public {... */\n      pop\n      pop\n      pop\n      pop\n      pop\n      pop\n      pop\n      jump\t// out\n        /* \"recordTransaction.sol\":941:1578  function E00010002(string memory _eventId, uint256 _EP001, uint256 _EP002, uint256 _EP003, uint256 _EP005) public {... */\n    tag_54:\n        /* \"recordTransaction.sol\":1065:1078  uint256 index */\n      0x00\n        /* \"recordTransaction.sol\":1081:1093  transactions */\n      dup1\n        /* \"recordTransaction.sol\":1081:1100  transactions.length */\n      dup1\n      sload\n      swap1\n      pop\n        /* \"recordTransaction.sol\":1065:1100  uint256 index = transactions.length */\n      swap1\n      pop\n        /* \"recordTransaction.sol\":1110:1122  transactions */\n      0x00\n        /* \"recordTransaction.sol\":1110:1129  transactions.push() */\n      0x01\n      dup2\n      0x01\n      dup2\n      sload\n      add\n      dup1\n      dup3\n      sstore\n      dup1\n      swap2\n      pop\n      pop\n      sub\n      swap1\n      0x00\n      mstore\n      keccak256(0x00, 0x20)\n      swap1\n      pop\n      pop\n        /* \"recordTransaction.sol\":1139:1170  Transaction storage transaction */\n      0x00\n        /* \"recordTransaction.sol\":1173:1185  transactions */\n      dup1\n        /* \"recordTransaction.sol\":1186:1191  index */\n      dup3\n        /* \"recordTransaction.sol\":1173:1192  transactions[index] */\n      dup2\n      sload\n      dup2\n      lt\n      tag_175\n      jumpi\n      tag_176\n      tag_59\n      jump\t// in\n    tag_176:\n    tag_175:\n      swap1\n      0x00\n      mstore\n      keccak256(0x00, 0x20)\n      swap1\n      0x04\n      mul\n      add\n        /* \"recordTransaction.sol\":1139:1192  Transaction storage transaction = transactions[index] */\n      swap1\n      pop\n        /* \"recordTransaction.sol\":1203:1244  transaction.transactionType = \"E00010002\" */\n      mload(0x40)\n      dup1\n      0x40\n      add\n      0x40\n      mstore\n      dup1\n      0x09\n      dup2\n      mstore\n      0x20\n      add\n      0x4530303031303030320000000000000000000000000000000000000000000000\n      dup2\n      mstore\n      pop\n        /* \"recordTransaction.sol\":1203:1214  transaction */\n      dup2\n        /* \"recordTransaction.sol\":1203:1230  transaction.transactionType */\n      0x00\n      add\n        /* \"recordTransaction.sol\":1203:1244  transaction.transactionType = \"E00010002\" */\n      swap1\n      dup2\n      tag_178\n      swap2\n      swap1\n      tag_62\n      jump\t// in\n    tag_178:\n      pop\n        /* \"recordTransaction.sol\":1276:1284  _eventId */\n      dup7\n        /* \"recordTransaction.sol\":1254:1265  transaction */\n      dup2\n        /* \"recordTransaction.sol\":1254:1273  transaction.eventId */\n      0x01\n      add\n        /* \"recordTransaction.sol\":1254:1284  transaction.eventId = _eventId */\n      swap1\n      dup2\n      tag_179\n      swap2\n      swap1\n      tag_62\n      jump\t// in\n    tag_179:\n      pop\n        /* \"recordTransaction.sol\":1317:1327  msg.sender */\n      caller\n        /* \"recordTransaction.sol\":1294:1305  transaction */\n      dup2\n        /* \"recordTransaction.sol\":1294:1314  transaction.Recorder */\n      0x02\n      add\n      0x00\n        /* \"recordTransaction.sol\":1294:1327  transaction.Recorder = msg.sender */\n      0x0100\n      exp\n      dup2\n      sload\n      dup2\n      0xffffffffffffffffffffffffffffffffffffffff\n      mul\n      not\n      and\n      swap1\n      dup4\n      0xffffffffffffffffffffffffffffffffffffffff\n      and\n      mul\n      or\n      swap1\n      sstore\n      pop\n        /* \"recordTransaction.sol\":1367:1373  _EP001 */\n      dup6\n        /* \"recordTransaction.sol\":1337:1348  transaction */\n      dup2\n        /* \"recordTransaction.sol\":1337:1355  transaction.params */\n      0x03\n      add\n        /* \"recordTransaction.sol\":1337:1364  transaction.params[\"EP001\"] */\n      mload(0x40)\n      tag_180\n      swap1\n      tag_65\n      jump\t// in\n    tag_180:\n      swap1\n      dup2\n      mstore\n      0x20\n      add\n      mload(0x40)\n      dup1\n      swap2\n      sub\n      swap1\n      keccak256\n        /* \"recordTransaction.sol\":1337:1373  transaction.params[\"EP001\"] = _EP001 */\n      dup2\n      swap1\n      sstore\n      pop\n        /* \"recordTransaction.sol\":1413:1419  _EP002 */\n      dup5\n        /* \"recordTransaction.sol\":1383:1394  transaction */\n      dup2\n        /* \"recordTransaction.sol\":1383:1401  transaction.params */\n      0x03\n      add\n        /* \"recordTransaction.sol\":1383:1410  transaction.params[\"EP002\"] */\n      mload(0x40)\n      tag_181\n      swap1\n      tag_67\n      jump\t// in\n    tag_181:\n      swap1\n      dup2\n      mstore\n      0x20\n      add\n      mload(0x40)\n      dup1\n      swap2\n      sub\n      swap1\n      keccak256\n        /* \"recordTransaction.sol\":1383:1419  transaction.params[\"EP002\"] = _EP002 */\n      dup2\n      swap1\n      sstore\n      pop\n        /* \"recordTransaction.sol\":1459:1465  _EP003 */\n      dup4\n        /* \"recordTransaction.sol\":1429:1440  transaction */\n      dup2\n        /* \"recordTransaction.sol\":1429:1447  transaction.params */\n      0x03\n      add\n        /* \"recordTransaction.sol\":1429:1456  transaction.params[\"EP003\"] */\n      mload(0x40)\n      tag_182\n      swap1\n      tag_69\n      jump\t// in\n    tag_182:\n      swap1\n      dup2\n      mstore\n      0x20\n      add\n      mload(0x40)\n      dup1\n      swap2\n      sub\n      swap1\n      keccak256\n        /* \"recordTransaction.sol\":1429:1465  transaction.params[\"EP003\"] = _EP003 */\n      dup2\n      swap1\n      sstore\n      pop\n        /* \"recordTransaction.sol\":1510:1525  block.timestamp */\n      timestamp\n        /* \"recordTransaction.sol\":1475:1486  transaction */\n      dup2\n        /* \"recordTransaction.sol\":1475:1493  transaction.params */\n      0x03\n      add\n        /* \"recordTransaction.sol\":1475:1507  transaction.params[\"trans_time\"] */\n      mload(0x40)\n      tag_183\n      swap1\n      tag_73\n      jump\t// in\n    tag_183:\n      swap1\n      dup2\n      mstore\n      0x20\n      add\n      mload(0x40)\n      dup1\n      swap2\n      sub\n      swap1\n      keccak256\n        /* \"recordTransaction.sol\":1475:1525  transaction.params[\"trans_time\"] = block.timestamp */\n      dup2\n      swap1\n      sstore\n      pop\n        /* \"recordTransaction.sol\":1565:1571  _EP005 */\n      dup3\n        /* \"recordTransaction.sol\":1535:1546  transaction */\n      dup2\n        /* \"recordTransaction.sol\":1535:1553  transaction.params */\n      0x03\n      add\n        /* \"recordTransaction.sol\":1535:1562  transaction.params[\"EP005\"] */\n      mload(0x40)\n      tag_184\n      swap1\n      tag_145\n      jump\t// in\n    tag_184:\n      swap1\n      dup2\n      mstore\n      0x20\n      add\n      mload(0x40)\n      dup1\n      swap2\n      sub\n      swap1\n      keccak256\n        /* \"recordTransaction.sol\":1535:1571  transaction.params[\"EP005\"] = _EP005 */\n      dup2\n      swap1\n      sstore\n      pop\n        /* \"recordTransaction.sol\":1055:1578  {... */\n      pop\n      pop\n        /* \"recordTransaction.sol\":941:1578  function E00010002(string memory _eventId, uint256 _EP001, uint256 _EP002, uint256 _EP003, uint256 _EP005) public {... */\n      pop\n      pop\n      pop\n      pop\n      pop\n      jump\t// out\n        /* \"recordTransaction.sol\":5608:6002  function findTransaction(string memory _eventId) internal view returns (Transaction storage) {... */\n    tag_118:\n        /* \"recordTransaction.sol\":5680:5699  Transaction storage */\n      0x00\n        /* \"recordTransaction.sol\":5716:5722  uint i */\n      dup1\n        /* \"recordTransaction.sol\":5725:5726  0 */\n      0x00\n        /* \"recordTransaction.sol\":5716:5726  uint i = 0 */\n      swap1\n      pop\n        /* \"recordTransaction.sol\":5711:5936  for (uint i = 0; i < transactions.length; i++) {... */\n    tag_186:\n        /* \"recordTransaction.sol\":5732:5744  transactions */\n      0x00\n        /* \"recordTransaction.sol\":5732:5751  transactions.length */\n      dup1\n      sload\n      swap1\n      pop\n        /* \"recordTransaction.sol\":5728:5729  i */\n      dup2\n        /* \"recordTransaction.sol\":5728:5751  i < transactions.length */\n      lt\n        /* \"recordTransaction.sol\":5711:5936  for (uint i = 0; i < transactions.length; i++) {... */\n      iszero\n      tag_187\n      jumpi\n        /* \"recordTransaction.sol\":5859:5867  _eventId */\n      dup3\n        /* \"recordTransaction.sol\":5842:5868  abi.encodePacked(_eventId) */\n      add(0x20, mload(0x40))\n      tag_189\n      swap2\n      swap1\n      tag_132\n      jump\t// in\n    tag_189:\n      mload(0x40)\n      0x20\n      dup2\n      dup4\n      sub\n      sub\n      dup2\n      mstore\n      swap1\n      0x40\n      mstore\n        /* \"recordTransaction.sol\":5832:5869  keccak256(abi.encodePacked(_eventId)) */\n      dup1\n      mload\n      swap1\n      0x20\n      add\n      keccak256\n        /* \"recordTransaction.sol\":5803:5815  transactions */\n      0x00\n        /* \"recordTransaction.sol\":5816:5817  i */\n      dup3\n        /* \"recordTransaction.sol\":5803:5818  transactions[i] */\n      dup2\n      sload\n      dup2\n      lt\n      tag_190\n      jumpi\n      tag_191\n      tag_59\n      jump\t// in\n    tag_191:\n    tag_190:\n      swap1\n      0x00\n      mstore\n      keccak256(0x00, 0x20)\n      swap1\n      0x04\n      mul\n      add\n        /* \"recordTransaction.sol\":5803:5826  transactions[i].eventId */\n      0x01\n      add\n        /* \"recordTransaction.sol\":5786:5827  abi.encodePacked(transactions[i].eventId) */\n      add(0x20, mload(0x40))\n      tag_193\n      swap2\n      swap1\n      tag_194\n      jump\t// in\n    tag_193:\n      mload(0x40)\n      0x20\n      dup2\n      dup4\n      sub\n      sub\n      dup2\n      mstore\n      swap1\n      0x40\n      mstore\n        /* \"recordTransaction.sol\":5776:5828  keccak256(abi.encodePacked(transactions[i].eventId)) */\n      dup1\n      mload\n      swap1\n      0x20\n      add\n      keccak256\n        /* \"recordTransaction.sol\":5776:5869  keccak256(abi.encodePacked(transactions[i].eventId)) == keccak256(abi.encodePacked(_eventId)) */\n      sub\n        /* \"recordTransaction.sol\":5772:5926  if (keccak256(abi.encodePacked(transactions[i].eventId)) == keccak256(abi.encodePacked(_eventId))) {... */\n      tag_195\n      jumpi\n        /* \"recordTransaction.sol\":5896:5908  transactions */\n      0x00\n        /* \"recordTransaction.sol\":5909:5910  i */\n      dup2\n        /* \"recordTransaction.sol\":5896:5911  transactions[i] */\n      dup2\n      sload\n      dup2\n      lt\n      tag_196\n      jumpi\n      tag_197\n      tag_59\n      jump\t// in\n    tag_197:\n    tag_196:\n      swap1\n      0x00\n      mstore\n      keccak256(0x00, 0x20)\n      swap1\n      0x04\n      mul\n      add\n        /* \"recordTransaction.sol\":5889:5911  return transactions[i] */\n      swap2\n      pop\n      pop\n      jump(tag_185)\n        /* \"recordTransaction.sol\":5772:5926  if (keccak256(abi.encodePacked(transactions[i].eventId)) == keccak256(abi.encodePacked(_eventId))) {... */\n    tag_195:\n        /* \"recordTransaction.sol\":5753:5756  i++ */\n      dup1\n      dup1\n      tag_199\n      swap1\n      tag_200\n      jump\t// in\n    tag_199:\n      swap2\n      pop\n      pop\n        /* \"recordTransaction.sol\":5711:5936  for (uint i = 0; i < transactions.length; i++) {... */\n      jump(tag_186)\n    tag_187:\n      pop\n        /* \"recordTransaction.sol\":5945:5995  revert(\"Transaction with given eventId not found\") */\n      mload(0x40)\n      0x08c379a000000000000000000000000000000000000000000000000000000000\n      dup2\n      mstore\n      0x04\n      add\n      tag_201\n      swap1\n      tag_202\n      jump\t// in\n    tag_201:\n      mload(0x40)\n      dup1\n      swap2\n      sub\n      swap1\n      revert\n        /* \"recordTransaction.sol\":5608:6002  function findTransaction(string memory _eventId) internal view returns (Transaction storage) {... */\n    tag_185:\n      swap2\n      swap1\n      pop\n      jump\t// out\n        /* \"#utility.yul\":7:82   */\n    tag_203:\n        /* \"#utility.yul\":40:46   */\n      0x00\n        /* \"#utility.yul\":73:75   */\n      0x40\n        /* \"#utility.yul\":67:76   */\n      mload\n        /* \"#utility.yul\":57:76   */\n      swap1\n      pop\n        /* \"#utility.yul\":7:82   */\n      swap1\n      jump\t// out\n        /* \"#utility.yul\":88:205   */\n    tag_204:\n        /* \"#utility.yul\":197:198   */\n      0x00\n        /* \"#utility.yul\":194:195   */\n      dup1\n        /* \"#utility.yul\":187:199   */\n      revert\n        /* \"#utility.yul\":211:328   */\n    tag_205:\n        /* \"#utility.yul\":320:321   */\n      0x00\n        /* \"#utility.yul\":317:318   */\n      dup1\n        /* \"#utility.yul\":310:322   */\n      revert\n        /* \"#utility.yul\":334:451   */\n    tag_206:\n        /* \"#utility.yul\":443:444   */\n      0x00\n        /* \"#utility.yul\":440:441   */\n      dup1\n        /* \"#utility.yul\":433:445   */\n      revert\n        /* \"#utility.yul\":457:574   */\n    tag_207:\n        /* \"#utility.yul\":566:567   */\n      0x00\n        /* \"#utility.yul\":563:564   */\n      dup1\n        /* \"#utility.yul\":556:568   */\n      revert\n        /* \"#utility.yul\":580:682   */\n    tag_208:\n        /* \"#utility.yul\":621:627   */\n      0x00\n        /* \"#utility.yul\":672:674   */\n      0x1f\n        /* \"#utility.yul\":668:675   */\n      not\n        /* \"#utility.yul\":663:665   */\n      0x1f\n        /* \"#utility.yul\":656:661   */\n      dup4\n        /* \"#utility.yul\":652:666   */\n      add\n        /* \"#utility.yul\":648:676   */\n      and\n        /* \"#utility.yul\":638:676   */\n      swap1\n      pop\n        /* \"#utility.yul\":580:682   */\n      swap2\n      swap1\n      pop\n      jump\t// out\n        /* \"#utility.yul\":688:868   */\n    tag_209:\n        /* \"#utility.yul\":736:813   */\n      0x4e487b7100000000000000000000000000000000000000000000000000000000\n        /* \"#utility.yul\":733:734   */\n      0x00\n        /* \"#utility.yul\":726:814   */\n      mstore\n        /* \"#utility.yul\":833:837   */\n      0x41\n        /* \"#utility.yul\":830:831   */\n      0x04\n        /* \"#utility.yul\":823:838   */\n      mstore\n        /* \"#utility.yul\":857:861   */\n      0x24\n        /* \"#utility.yul\":854:855   */\n      0x00\n        /* \"#utility.yul\":847:862   */\n      revert\n        /* \"#utility.yul\":874:1155   */\n    tag_210:\n        /* \"#utility.yul\":957:984   */\n      tag_278\n        /* \"#utility.yul\":979:983   */\n      dup3\n        /* \"#utility.yul\":957:984   */\n      tag_208\n      jump\t// in\n    tag_278:\n        /* \"#utility.yul\":949:955   */\n      dup2\n        /* \"#utility.yul\":945:985   */\n      add\n        /* \"#utility.yul\":1087:1093   */\n      dup2\n        /* \"#utility.yul\":1075:1085   */\n      dup2\n        /* \"#utility.yul\":1072:1094   */\n      lt\n        /* \"#utility.yul\":1051:1069   */\n      0xffffffffffffffff\n        /* \"#utility.yul\":1039:1049   */\n      dup3\n        /* \"#utility.yul\":1036:1070   */\n      gt\n        /* \"#utility.yul\":1033:1095   */\n      or\n        /* \"#utility.yul\":1030:1118   */\n      iszero\n      tag_279\n      jumpi\n        /* \"#utility.yul\":1098:1116   */\n      tag_280\n      tag_209\n      jump\t// in\n    tag_280:\n        /* \"#utility.yul\":1030:1118   */\n    tag_279:\n        /* \"#utility.yul\":1138:1148   */\n      dup1\n        /* \"#utility.yul\":1134:1136   */\n      0x40\n        /* \"#utility.yul\":1127:1149   */\n      mstore\n        /* \"#utility.yul\":917:1155   */\n      pop\n        /* \"#utility.yul\":874:1155   */\n      pop\n      pop\n      jump\t// out\n        /* \"#utility.yul\":1161:1290   */\n    tag_211:\n        /* \"#utility.yul\":1195:1201   */\n      0x00\n        /* \"#utility.yul\":1222:1242   */\n      tag_282\n      tag_203\n      jump\t// in\n    tag_282:\n        /* \"#utility.yul\":1212:1242   */\n      swap1\n      pop\n        /* \"#utility.yul\":1251:1284   */\n      tag_283\n        /* \"#utility.yul\":1279:1283   */\n      dup3\n        /* \"#utility.yul\":1271:1277   */\n      dup3\n        /* \"#utility.yul\":1251:1284   */\n      tag_210\n      jump\t// in\n    tag_283:\n        /* \"#utility.yul\":1161:1290   */\n      swap2\n      swap1\n      pop\n      jump\t// out\n        /* \"#utility.yul\":1296:1604   */\n    tag_212:\n        /* \"#utility.yul\":1358:1362   */\n      0x00\n        /* \"#utility.yul\":1448:1466   */\n      0xffffffffffffffff\n        /* \"#utility.yul\":1440:1446   */\n      dup3\n        /* \"#utility.yul\":1437:1467   */\n      gt\n        /* \"#utility.yul\":1434:1490   */\n      iszero\n      tag_285\n      jumpi\n        /* \"#utility.yul\":1470:1488   */\n      tag_286\n      tag_209\n      jump\t// in\n    tag_286:\n        /* \"#utility.yul\":1434:1490   */\n    tag_285:\n        /* \"#utility.yul\":1508:1537   */\n      tag_287\n        /* \"#utility.yul\":1530:1536   */\n      dup3\n        /* \"#utility.yul\":1508:1537   */\n      tag_208\n      jump\t// in\n    tag_287:\n        /* \"#utility.yul\":1500:1537   */\n      swap1\n      pop\n        /* \"#utility.yul\":1592:1596   */\n      0x20\n        /* \"#utility.yul\":1586:1590   */\n      dup2\n        /* \"#utility.yul\":1582:1597   */\n      add\n        /* \"#utility.yul\":1574:1597   */\n      swap1\n      pop\n        /* \"#utility.yul\":1296:1604   */\n      swap2\n      swap1\n      pop\n      jump\t// out\n        /* \"#utility.yul\":1610:1756   */\n    tag_213:\n        /* \"#utility.yul\":1707:1713   */\n      dup3\n        /* \"#utility.yul\":1702:1705   */\n      dup2\n        /* \"#utility.yul\":1697:1700   */\n      dup4\n        /* \"#utility.yul\":1684:1714   */\n      calldatacopy\n        /* \"#utility.yul\":1748:1749   */\n      0x00\n        /* \"#utility.yul\":1739:1745   */\n      dup4\n        /* \"#utility.yul\":1734:1737   */\n      dup4\n        /* \"#utility.yul\":1730:1746   */\n      add\n        /* \"#utility.yul\":1723:1750   */\n      mstore\n        /* \"#utility.yul\":1610:1756   */\n      pop\n      pop\n      pop\n      jump\t// out\n        /* \"#utility.yul\":1762:2187   */\n    tag_214:\n        /* \"#utility.yul\":1840:1845   */\n      0x00\n        /* \"#utility.yul\":1865:1931   */\n      tag_290\n        /* \"#utility.yul\":1881:1930   */\n      tag_291\n        /* \"#utility.yul\":1923:1929   */\n      dup5\n        /* \"#utility.yul\":1881:1930   */\n      tag_212\n      jump\t// in\n    tag_291:\n        /* \"#utility.yul\":1865:1931   */\n      tag_211\n      jump\t// in\n    tag_290:\n        /* \"#utility.yul\":1856:1931   */\n      swap1\n      pop\n        /* \"#utility.yul\":1954:1960   */\n      dup3\n        /* \"#utility.yul\":1947:1952   */\n      dup2\n        /* \"#utility.yul\":1940:1961   */\n      mstore\n        /* \"#utility.yul\":1992:1996   */\n      0x20\n        /* \"#utility.yul\":1985:1990   */\n      dup2\n        /* \"#utility.yul\":1981:1997   */\n      add\n        /* \"#utility.yul\":2030:2033   */\n      dup5\n        /* \"#utility.yul\":2021:2027   */\n      dup5\n        /* \"#utility.yul\":2016:2019   */\n      dup5\n        /* \"#utility.yul\":2012:2028   */\n      add\n        /* \"#utility.yul\":2009:2034   */\n      gt\n        /* \"#utility.yul\":2006:2118   */\n      iszero\n      tag_292\n      jumpi\n        /* \"#utility.yul\":2037:2116   */\n      tag_293\n      tag_207\n      jump\t// in\n    tag_293:\n        /* \"#utility.yul\":2006:2118   */\n    tag_292:\n        /* \"#utility.yul\":2127:2181   */\n      tag_294\n        /* \"#utility.yul\":2174:2180   */\n      dup5\n        /* \"#utility.yul\":2169:2172   */\n      dup3\n        /* \"#utility.yul\":2164:2167   */\n      dup6\n        /* \"#utility.yul\":2127:2181   */\n      tag_213\n      jump\t// in\n    tag_294:\n        /* \"#utility.yul\":1846:2187   */\n      pop\n        /* \"#utility.yul\":1762:2187   */\n      swap4\n      swap3\n      pop\n      pop\n      pop\n      jump\t// out\n        /* \"#utility.yul\":2207:2547   */\n    tag_215:\n        /* \"#utility.yul\":2263:2268   */\n      0x00\n        /* \"#utility.yul\":2312:2315   */\n      dup3\n        /* \"#utility.yul\":2305:2309   */\n      0x1f\n        /* \"#utility.yul\":2297:2303   */\n      dup4\n        /* \"#utility.yul\":2293:2310   */\n      add\n        /* \"#utility.yul\":2289:2316   */\n      slt\n        /* \"#utility.yul\":2279:2401   */\n      tag_296\n      jumpi\n        /* \"#utility.yul\":2320:2399   */\n      tag_297\n      tag_206\n      jump\t// in\n    tag_297:\n        /* \"#utility.yul\":2279:2401   */\n    tag_296:\n        /* \"#utility.yul\":2437:2443   */\n      dup2\n        /* \"#utility.yul\":2424:2444   */\n      calldataload\n        /* \"#utility.yul\":2462:2541   */\n      tag_298\n        /* \"#utility.yul\":2537:2540   */\n      dup5\n        /* \"#utility.yul\":2529:2535   */\n      dup3\n        /* \"#utility.yul\":2522:2526   */\n      0x20\n        /* \"#utility.yul\":2514:2520   */\n      dup7\n        /* \"#utility.yul\":2510:2527   */\n      add\n        /* \"#utility.yul\":2462:2541   */\n      tag_214\n      jump\t// in\n    tag_298:\n        /* \"#utility.yul\":2453:2541   */\n      swap2\n      pop\n        /* \"#utility.yul\":2269:2547   */\n      pop\n        /* \"#utility.yul\":2207:2547   */\n      swap3\n      swap2\n      pop\n      pop\n      jump\t// out\n        /* \"#utility.yul\":2553:2630   */\n    tag_216:\n        /* \"#utility.yul\":2590:2597   */\n      0x00\n        /* \"#utility.yul\":2619:2624   */\n      dup2\n        /* \"#utility.yul\":2608:2624   */\n      swap1\n      pop\n        /* \"#utility.yul\":2553:2630   */\n      swap2\n      swap1\n      pop\n      jump\t// out\n        /* \"#utility.yul\":2636:2758   */\n    tag_217:\n        /* \"#utility.yul\":2709:2733   */\n      tag_301\n        /* \"#utility.yul\":2727:2732   */\n      dup2\n        /* \"#utility.yul\":2709:2733   */\n      tag_216\n      jump\t// in\n    tag_301:\n        /* \"#utility.yul\":2702:2707   */\n      dup2\n        /* \"#utility.yul\":2699:2734   */\n      eq\n        /* \"#utility.yul\":2689:2752   */\n      tag_302\n      jumpi\n        /* \"#utility.yul\":2748:2749   */\n      0x00\n        /* \"#utility.yul\":2745:2746   */\n      dup1\n        /* \"#utility.yul\":2738:2750   */\n      revert\n        /* \"#utility.yul\":2689:2752   */\n    tag_302:\n        /* \"#utility.yul\":2636:2758   */\n      pop\n      jump\t// out\n        /* \"#utility.yul\":2764:2903   */\n    tag_218:\n        /* \"#utility.yul\":2810:2815   */\n      0x00\n        /* \"#utility.yul\":2848:2854   */\n      dup2\n        /* \"#utility.yul\":2835:2855   */\n      calldataload\n        /* \"#utility.yul\":2826:2855   */\n      swap1\n      pop\n        /* \"#utility.yul\":2864:2897   */\n      tag_304\n        /* \"#utility.yul\":2891:2896   */\n      dup2\n        /* \"#utility.yul\":2864:2897   */\n      tag_217\n      jump\t// in\n    tag_304:\n        /* \"#utility.yul\":2764:2903   */\n      swap3\n      swap2\n      pop\n      pop\n      jump\t// out\n        /* \"#utility.yul\":2909:4146   */\n    tag_16:\n        /* \"#utility.yul\":3023:3029   */\n      0x00\n        /* \"#utility.yul\":3031:3037   */\n      dup1\n        /* \"#utility.yul\":3039:3045   */\n      0x00\n        /* \"#utility.yul\":3047:3053   */\n      dup1\n        /* \"#utility.yul\":3055:3061   */\n      0x00\n        /* \"#utility.yul\":3063:3069   */\n      dup1\n        /* \"#utility.yul\":3112:3115   */\n      0xc0\n        /* \"#utility.yul\":3100:3109   */\n      dup8\n        /* \"#utility.yul\":3091:3098   */\n      dup10\n        /* \"#utility.yul\":3087:3110   */\n      sub\n        /* \"#utility.yul\":3083:3116   */\n      slt\n        /* \"#utility.yul\":3080:3200   */\n      iszero\n      tag_306\n      jumpi\n        /* \"#utility.yul\":3119:3198   */\n      tag_307\n      tag_204\n      jump\t// in\n    tag_307:\n        /* \"#utility.yul\":3080:3200   */\n    tag_306:\n        /* \"#utility.yul\":3267:3268   */\n      0x00\n        /* \"#utility.yul\":3256:3265   */\n      dup8\n        /* \"#utility.yul\":3252:3269   */\n      add\n        /* \"#utility.yul\":3239:3270   */\n      calldataload\n        /* \"#utility.yul\":3297:3315   */\n      0xffffffffffffffff\n        /* \"#utility.yul\":3289:3295   */\n      dup2\n        /* \"#utility.yul\":3286:3316   */\n      gt\n        /* \"#utility.yul\":3283:3400   */\n      iszero\n      tag_308\n      jumpi\n        /* \"#utility.yul\":3319:3398   */\n      tag_309\n      tag_205\n      jump\t// in\n    tag_309:\n        /* \"#utility.yul\":3283:3400   */\n    tag_308:\n        /* \"#utility.yul\":3424:3487   */\n      tag_310\n        /* \"#utility.yul\":3479:3486   */\n      dup10\n        /* \"#utility.yul\":3470:3476   */\n      dup3\n        /* \"#utility.yul\":3459:3468   */\n      dup11\n        /* \"#utility.yul\":3455:3477   */\n      add\n        /* \"#utility.yul\":3424:3487   */\n      tag_215\n      jump\t// in\n    tag_310:\n        /* \"#utility.yul\":3414:3487   */\n      swap7\n      pop\n        /* \"#utility.yul\":3210:3497   */\n      pop\n        /* \"#utility.yul\":3536:3538   */\n      0x20\n        /* \"#utility.yul\":3562:3615   */\n      tag_311\n        /* \"#utility.yul\":3607:3614   */\n      dup10\n        /* \"#utility.yul\":3598:3604   */\n      dup3\n        /* \"#utility.yul\":3587:3596   */\n      dup11\n        /* \"#utility.yul\":3583:3605   */\n      add\n        /* \"#utility.yul\":3562:3615   */\n      tag_218\n      jump\t// in\n    tag_311:\n        /* \"#utility.yul\":3552:3615   */\n      swap6\n      pop\n        /* \"#utility.yul\":3507:3625   */\n      pop\n        /* \"#utility.yul\":3664:3666   */\n      0x40\n        /* \"#utility.yul\":3690:3743   */\n      tag_312\n        /* \"#utility.yul\":3735:3742   */\n      dup10\n        /* \"#utility.yul\":3726:3732   */\n      dup3\n        /* \"#utility.yul\":3715:3724   */\n      dup11\n        /* \"#utility.yul\":3711:3733   */\n      add\n        /* \"#utility.yul\":3690:3743   */\n      tag_218\n      jump\t// in\n    tag_312:\n        /* \"#utility.yul\":3680:3743   */\n      swap5\n      pop\n        /* \"#utility.yul\":3635:3753   */\n      pop\n        /* \"#utility.yul\":3792:3794   */\n      0x60\n        /* \"#utility.yul\":3818:3871   */\n      tag_313\n        /* \"#utility.yul\":3863:3870   */\n      dup10\n        /* \"#utility.yul\":3854:3860   */\n      dup3\n        /* \"#utility.yul\":3843:3852   */\n      dup11\n        /* \"#utility.yul\":3839:3861   */\n      add\n        /* \"#utility.yul\":3818:3871   */\n      tag_218\n      jump\t// in\n    tag_313:\n        /* \"#utility.yul\":3808:3871   */\n      swap4\n      pop\n        /* \"#utility.yul\":3763:3881   */\n      pop\n        /* \"#utility.yul\":3920:3923   */\n      0x80\n        /* \"#utility.yul\":3947:4000   */\n      tag_314\n        /* \"#utility.yul\":3992:3999   */\n      dup10\n        /* \"#utility.yul\":3983:3989   */\n      dup3\n        /* \"#utility.yul\":3972:3981   */\n      dup11\n        /* \"#utility.yul\":3968:3990   */\n      add\n        /* \"#utility.yul\":3947:4000   */\n      tag_218\n      jump\t// in\n    tag_314:\n        /* \"#utility.yul\":3937:4000   */\n      swap3\n      pop\n        /* \"#utility.yul\":3891:4010   */\n      pop\n        /* \"#utility.yul\":4049:4052   */\n      0xa0\n        /* \"#utility.yul\":4076:4129   */\n      tag_315\n        /* \"#utility.yul\":4121:4128   */\n      dup10\n        /* \"#utility.yul\":4112:4118   */\n      dup3\n        /* \"#utility.yul\":4101:4110   */\n      dup11\n        /* \"#utility.yul\":4097:4119   */\n      add\n        /* \"#utility.yul\":4076:4129   */\n      tag_218\n      jump\t// in\n    tag_315:\n        /* \"#utility.yul\":4066:4129   */\n      swap2\n      pop\n        /* \"#utility.yul\":4020:4139   */\n      pop\n        /* \"#utility.yul\":2909:4146   */\n      swap3\n      swap6\n      pop\n      swap3\n      swap6\n      pop\n      swap3\n      swap6\n      jump\t// out\n        /* \"#utility.yul\":4152:4481   */\n    tag_20:\n        /* \"#utility.yul\":4211:4217   */\n      0x00\n        /* \"#utility.yul\":4260:4262   */\n      0x20\n        /* \"#utility.yul\":4248:4257   */\n      dup3\n        /* \"#utility.yul\":4239:4246   */\n      dup5\n        /* \"#utility.yul\":4235:4258   */\n      sub\n        /* \"#utility.yul\":4231:4263   */\n      slt\n        /* \"#utility.yul\":4228:4347   */\n      iszero\n      tag_317\n      jumpi\n        /* \"#utility.yul\":4266:4345   */\n      tag_318\n      tag_204\n      jump\t// in\n    tag_318:\n        /* \"#utility.yul\":4228:4347   */\n    tag_317:\n        /* \"#utility.yul\":4386:4387   */\n      0x00\n        /* \"#utility.yul\":4411:4464   */\n      tag_319\n        /* \"#utility.yul\":4456:4463   */\n      dup5\n        /* \"#utility.yul\":4447:4453   */\n      dup3\n        /* \"#utility.yul\":4436:4445   */\n      dup6\n        /* \"#utility.yul\":4432:4454   */\n      add\n        /* \"#utility.yul\":4411:4464   */\n      tag_218\n      jump\t// in\n    tag_319:\n        /* \"#utility.yul\":4401:4464   */\n      swap2\n      pop\n        /* \"#utility.yul\":4357:4474   */\n      pop\n        /* \"#utility.yul\":4152:4481   */\n      swap3\n      swap2\n      pop\n      pop\n      jump\t// out\n        /* \"#utility.yul\":4487:4586   */\n    tag_219:\n        /* \"#utility.yul\":4539:4545   */\n      0x00\n        /* \"#utility.yul\":4573:4578   */\n      dup2\n        /* \"#utility.yul\":4567:4579   */\n      mload\n        /* \"#utility.yul\":4557:4579   */\n      swap1\n      pop\n        /* \"#utility.yul\":4487:4586   */\n      swap2\n      swap1\n      pop\n      jump\t// out\n        /* \"#utility.yul\":4592:4761   */\n    tag_220:\n        /* \"#utility.yul\":4676:4687   */\n      0x00\n        /* \"#utility.yul\":4710:4716   */\n      dup3\n        /* \"#utility.yul\":4705:4708   */\n      dup3\n        /* \"#utility.yul\":4698:4717   */\n      mstore\n        /* \"#utility.yul\":4750:4754   */\n      0x20\n        /* \"#utility.yul\":4745:4748   */\n      dup3\n        /* \"#utility.yul\":4741:4755   */\n      add\n        /* \"#utility.yul\":4726:4755   */\n      swap1\n      pop\n        /* \"#utility.yul\":4592:4761   */\n      swap3\n      swap2\n      pop\n      pop\n      jump\t// out\n        /* \"#utility.yul\":4767:5013   */\n    tag_221:\n        /* \"#utility.yul\":4848:4849   */\n      0x00\n        /* \"#utility.yul\":4858:4971   */\n    tag_323:\n        /* \"#utility.yul\":4872:4878   */\n      dup4\n        /* \"#utility.yul\":4869:4870   */\n      dup2\n        /* \"#utility.yul\":4866:4879   */\n      lt\n        /* \"#utility.yul\":4858:4971   */\n      iszero\n      tag_325\n      jumpi\n        /* \"#utility.yul\":4957:4958   */\n      dup1\n        /* \"#utility.yul\":4952:4955   */\n      dup3\n        /* \"#utility.yul\":4948:4959   */\n      add\n        /* \"#utility.yul\":4942:4960   */\n      mload\n        /* \"#utility.yul\":4938:4939   */\n      dup2\n        /* \"#utility.yul\":4933:4936   */\n      dup5\n        /* \"#utility.yul\":4929:4940   */\n      add\n        /* \"#utility.yul\":4922:4961   */\n      mstore\n        /* \"#utility.yul\":4894:4896   */\n      0x20\n        /* \"#utility.yul\":4891:4892   */\n      dup2\n        /* \"#utility.yul\":4887:4897   */\n      add\n        /* \"#utility.yul\":4882:4897   */\n      swap1\n      pop\n        /* \"#utility.yul\":4858:4971   */\n      jump(tag_323)\n    tag_325:\n        /* \"#utility.yul\":5005:5006   */\n      0x00\n        /* \"#utility.yul\":4996:5002   */\n      dup5\n        /* \"#utility.yul\":4991:4994   */\n      dup5\n        /* \"#utility.yul\":4987:5003   */\n      add\n        /* \"#utility.yul\":4980:5007   */\n      mstore\n        /* \"#utility.yul\":4829:5013   */\n      pop\n        /* \"#utility.yul\":4767:5013   */\n      pop\n      pop\n      pop\n      jump\t// out\n        /* \"#utility.yul\":5019:5396   */\n    tag_222:\n        /* \"#utility.yul\":5107:5110   */\n      0x00\n        /* \"#utility.yul\":5135:5174   */\n      tag_327\n        /* \"#utility.yul\":5168:5173   */\n      dup3\n        /* \"#utility.yul\":5135:5174   */\n      tag_219\n      jump\t// in\n    tag_327:\n        /* \"#utility.yul\":5190:5261   */\n      tag_328\n        /* \"#utility.yul\":5254:5260   */\n      dup2\n        /* \"#utility.yul\":5249:5252   */\n      dup6\n        /* \"#utility.yul\":5190:5261   */\n      tag_220\n      jump\t// in\n    tag_328:\n        /* \"#utility.yul\":5183:5261   */\n      swap4\n      pop\n        /* \"#utility.yul\":5270:5335   */\n      tag_329\n        /* \"#utility.yul\":5328:5334   */\n      dup2\n        /* \"#utility.yul\":5323:5326   */\n      dup6\n        /* \"#utility.yul\":5316:5320   */\n      0x20\n        /* \"#utility.yul\":5309:5314   */\n      dup7\n        /* \"#utility.yul\":5305:5321   */\n      add\n        /* \"#utility.yul\":5270:5335   */\n      tag_221\n      jump\t// in\n    tag_329:\n        /* \"#utility.yul\":5360:5389   */\n      tag_330\n        /* \"#utility.yul\":5382:5388   */\n      dup2\n        /* \"#utility.yul\":5360:5389   */\n      tag_208\n      jump\t// in\n    tag_330:\n        /* \"#utility.yul\":5355:5358   */\n      dup5\n        /* \"#utility.yul\":5351:5390   */\n      add\n        /* \"#utility.yul\":5344:5390   */\n      swap2\n      pop\n        /* \"#utility.yul\":5111:5396   */\n      pop\n        /* \"#utility.yul\":5019:5396   */\n      swap3\n      swap2\n      pop\n      pop\n      jump\t// out\n        /* \"#utility.yul\":5402:5528   */\n    tag_223:\n        /* \"#utility.yul\":5439:5446   */\n      0x00\n        /* \"#utility.yul\":5479:5521   */\n      0xffffffffffffffffffffffffffffffffffffffff\n        /* \"#utility.yul\":5472:5477   */\n      dup3\n        /* \"#utility.yul\":5468:5522   */\n      and\n        /* \"#utility.yul\":5457:5522   */\n      swap1\n      pop\n        /* \"#utility.yul\":5402:5528   */\n      swap2\n      swap1\n      pop\n      jump\t// out\n        /* \"#utility.yul\":5534:5630   */\n    tag_224:\n        /* \"#utility.yul\":5571:5578   */\n      0x00\n        /* \"#utility.yul\":5600:5624   */\n      tag_333\n        /* \"#utility.yul\":5618:5623   */\n      dup3\n        /* \"#utility.yul\":5600:5624   */\n      tag_223\n      jump\t// in\n    tag_333:\n        /* \"#utility.yul\":5589:5624   */\n      swap1\n      pop\n        /* \"#utility.yul\":5534:5630   */\n      swap2\n      swap1\n      pop\n      jump\t// out\n        /* \"#utility.yul\":5636:5754   */\n    tag_225:\n        /* \"#utility.yul\":5723:5747   */\n      tag_335\n        /* \"#utility.yul\":5741:5746   */\n      dup2\n        /* \"#utility.yul\":5723:5747   */\n      tag_224\n      jump\t// in\n    tag_335:\n        /* \"#utility.yul\":5718:5721   */\n      dup3\n        /* \"#utility.yul\":5711:5748   */\n      mstore\n        /* \"#utility.yul\":5636:5754   */\n      pop\n      pop\n      jump\t// out\n        /* \"#utility.yul\":5760:6384   */\n    tag_23:\n        /* \"#utility.yul\":5949:5953   */\n      0x00\n        /* \"#utility.yul\":5987:5989   */\n      0x60\n        /* \"#utility.yul\":5976:5985   */\n      dup3\n        /* \"#utility.yul\":5972:5990   */\n      add\n        /* \"#utility.yul\":5964:5990   */\n      swap1\n      pop\n        /* \"#utility.yul\":6036:6045   */\n      dup2\n        /* \"#utility.yul\":6030:6034   */\n      dup2\n        /* \"#utility.yul\":6026:6046   */\n      sub\n        /* \"#utility.yul\":6022:6023   */\n      0x00\n        /* \"#utility.yul\":6011:6020   */\n      dup4\n        /* \"#utility.yul\":6007:6024   */\n      add\n        /* \"#utility.yul\":6000:6047   */\n      mstore\n        /* \"#utility.yul\":6064:6142   */\n      tag_337\n        /* \"#utility.yul\":6137:6141   */\n      dup2\n        /* \"#utility.yul\":6128:6134   */\n      dup7\n        /* \"#utility.yul\":6064:6142   */\n      tag_222\n      jump\t// in\n    tag_337:\n        /* \"#utility.yul\":6056:6142   */\n      swap1\n      pop\n        /* \"#utility.yul\":6189:6198   */\n      dup2\n        /* \"#utility.yul\":6183:6187   */\n      dup2\n        /* \"#utility.yul\":6179:6199   */\n      sub\n        /* \"#utility.yul\":6174:6176   */\n      0x20\n        /* \"#utility.yul\":6163:6172   */\n      dup4\n        /* \"#utility.yul\":6159:6177   */\n      add\n        /* \"#utility.yul\":6152:6200   */\n      mstore\n        /* \"#utility.yul\":6217:6295   */\n      tag_338\n        /* \"#utility.yul\":6290:6294   */\n      dup2\n        /* \"#utility.yul\":6281:6287   */\n      dup6\n        /* \"#utility.yul\":6217:6295   */\n      tag_222\n      jump\t// in\n    tag_338:\n        /* \"#utility.yul\":6209:6295   */\n      swap1\n      pop\n        /* \"#utility.yul\":6305:6377   */\n      tag_339\n        /* \"#utility.yul\":6373:6375   */\n      0x40\n        /* \"#utility.yul\":6362:6371   */\n      dup4\n        /* \"#utility.yul\":6358:6376   */\n      add\n        /* \"#utility.yul\":6349:6355   */\n      dup5\n        /* \"#utility.yul\":6305:6377   */\n      tag_225\n      jump\t// in\n    tag_339:\n        /* \"#utility.yul\":5760:6384   */\n      swap5\n      swap4\n      pop\n      pop\n      pop\n      pop\n      jump\t// out\n        /* \"#utility.yul\":6390:7481   */\n    tag_26:\n        /* \"#utility.yul\":6495:6501   */\n      0x00\n        /* \"#utility.yul\":6503:6509   */\n      dup1\n        /* \"#utility.yul\":6511:6517   */\n      0x00\n        /* \"#utility.yul\":6519:6525   */\n      dup1\n        /* \"#utility.yul\":6527:6533   */\n      0x00\n        /* \"#utility.yul\":6576:6579   */\n      0xa0\n        /* \"#utility.yul\":6564:6573   */\n      dup7\n        /* \"#utility.yul\":6555:6562   */\n      dup9\n        /* \"#utility.yul\":6551:6574   */\n      sub\n        /* \"#utility.yul\":6547:6580   */\n      slt\n        /* \"#utility.yul\":6544:6664   */\n      iszero\n      tag_341\n      jumpi\n        /* \"#utility.yul\":6583:6662   */\n      tag_342\n      tag_204\n      jump\t// in\n    tag_342:\n        /* \"#utility.yul\":6544:6664   */\n    tag_341:\n        /* \"#utility.yul\":6731:6732   */\n      0x00\n        /* \"#utility.yul\":6720:6729   */\n      dup7\n        /* \"#utility.yul\":6716:6733   */\n      add\n        /* \"#utility.yul\":6703:6734   */\n      calldataload\n        /* \"#utility.yul\":6761:6779   */\n      0xffffffffffffffff\n        /* \"#utility.yul\":6753:6759   */\n      dup2\n        /* \"#utility.yul\":6750:6780   */\n      gt\n        /* \"#utility.yul\":6747:6864   */\n      iszero\n      tag_343\n      jumpi\n        /* \"#utility.yul\":6783:6862   */\n      tag_344\n      tag_205\n      jump\t// in\n    tag_344:\n        /* \"#utility.yul\":6747:6864   */\n    tag_343:\n        /* \"#utility.yul\":6888:6951   */\n      tag_345\n        /* \"#utility.yul\":6943:6950   */\n      dup9\n        /* \"#utility.yul\":6934:6940   */\n      dup3\n        /* \"#utility.yul\":6923:6932   */\n      dup10\n        /* \"#utility.yul\":6919:6941   */\n      add\n        /* \"#utility.yul\":6888:6951   */\n      tag_215\n      jump\t// in\n    tag_345:\n        /* \"#utility.yul\":6878:6951   */\n      swap6\n      pop\n        /* \"#utility.yul\":6674:6961   */\n      pop\n        /* \"#utility.yul\":7000:7002   */\n      0x20\n        /* \"#utility.yul\":7026:7079   */\n      tag_346\n        /* \"#utility.yul\":7071:7078   */\n      dup9\n        /* \"#utility.yul\":7062:7068   */\n      dup3\n        /* \"#utility.yul\":7051:7060   */\n      dup10\n        /* \"#utility.yul\":7047:7069   */\n      add\n        /* \"#utility.yul\":7026:7079   */\n      tag_218\n      jump\t// in\n    tag_346:\n        /* \"#utility.yul\":7016:7079   */\n      swap5\n      pop\n        /* \"#utility.yul\":6971:7089   */\n      pop\n        /* \"#utility.yul\":7128:7130   */\n      0x40\n        /* \"#utility.yul\":7154:7207   */\n      tag_347\n        /* \"#utility.yul\":7199:7206   */\n      dup9\n        /* \"#utility.yul\":7190:7196   */\n      dup3\n        /* \"#utility.yul\":7179:7188   */\n      dup10\n        /* \"#utility.yul\":7175:7197   */\n      add\n        /* \"#utility.yul\":7154:7207   */\n      tag_218\n      jump\t// in\n    tag_347:\n        /* \"#utility.yul\":7144:7207   */\n      swap4\n      pop\n        /* \"#utility.yul\":7099:7217   */\n      pop\n        /* \"#utility.yul\":7256:7258   */\n      0x60\n        /* \"#utility.yul\":7282:7335   */\n      tag_348\n        /* \"#utility.yul\":7327:7334   */\n      dup9\n        /* \"#utility.yul\":7318:7324   */\n      dup3\n        /* \"#utility.yul\":7307:7316   */\n      dup10\n        /* \"#utility.yul\":7303:7325   */\n      add\n        /* \"#utility.yul\":7282:7335   */\n      tag_218\n      jump\t// in\n    tag_348:\n        /* \"#utility.yul\":7272:7335   */\n      swap3\n      pop\n        /* \"#utility.yul\":7227:7345   */\n      pop\n        /* \"#utility.yul\":7384:7387   */\n      0x80\n        /* \"#utility.yul\":7411:7464   */\n      tag_349\n        /* \"#utility.yul\":7456:7463   */\n      dup9\n        /* \"#utility.yul\":7447:7453   */\n      dup3\n        /* \"#utility.yul\":7436:7445   */\n      dup10\n        /* \"#utility.yul\":7432:7454   */\n      add\n        /* \"#utility.yul\":7411:7464   */\n      tag_218\n      jump\t// in\n    tag_349:\n        /* \"#utility.yul\":7401:7464   */\n      swap2\n      pop\n        /* \"#utility.yul\":7355:7474   */\n      pop\n        /* \"#utility.yul\":6390:7481   */\n      swap3\n      swap6\n      pop\n      swap3\n      swap6\n      swap1\n      swap4\n      pop\n      jump\t// out\n        /* \"#utility.yul\":7487:7996   */\n    tag_33:\n        /* \"#utility.yul\":7556:7562   */\n      0x00\n        /* \"#utility.yul\":7605:7607   */\n      0x20\n        /* \"#utility.yul\":7593:7602   */\n      dup3\n        /* \"#utility.yul\":7584:7591   */\n      dup5\n        /* \"#utility.yul\":7580:7603   */\n      sub\n        /* \"#utility.yul\":7576:7608   */\n      slt\n        /* \"#utility.yul\":7573:7692   */\n      iszero\n      tag_351\n      jumpi\n        /* \"#utility.yul\":7611:7690   */\n      tag_352\n      tag_204\n      jump\t// in\n    tag_352:\n        /* \"#utility.yul\":7573:7692   */\n    tag_351:\n        /* \"#utility.yul\":7759:7760   */\n      0x00\n        /* \"#utility.yul\":7748:7757   */\n      dup3\n        /* \"#utility.yul\":7744:7761   */\n      add\n        /* \"#utility.yul\":7731:7762   */\n      calldataload\n        /* \"#utility.yul\":7789:7807   */\n      0xffffffffffffffff\n        /* \"#utility.yul\":7781:7787   */\n      dup2\n        /* \"#utility.yul\":7778:7808   */\n      gt\n        /* \"#utility.yul\":7775:7892   */\n      iszero\n      tag_353\n      jumpi\n        /* \"#utility.yul\":7811:7890   */\n      tag_354\n      tag_205\n      jump\t// in\n    tag_354:\n        /* \"#utility.yul\":7775:7892   */\n    tag_353:\n        /* \"#utility.yul\":7916:7979   */\n      tag_355\n        /* \"#utility.yul\":7971:7978   */\n      dup5\n        /* \"#utility.yul\":7962:7968   */\n      dup3\n        /* \"#utility.yul\":7951:7960   */\n      dup6\n        /* \"#utility.yul\":7947:7969   */\n      add\n        /* \"#utility.yul\":7916:7979   */\n      tag_215\n      jump\t// in\n    tag_355:\n        /* \"#utility.yul\":7906:7979   */\n      swap2\n      pop\n        /* \"#utility.yul\":7702:7989   */\n      pop\n        /* \"#utility.yul\":7487:7996   */\n      swap3\n      swap2\n      pop\n      pop\n      jump\t// out\n        /* \"#utility.yul\":8002:8836   */\n    tag_38:\n        /* \"#utility.yul\":8090:8096   */\n      0x00\n        /* \"#utility.yul\":8098:8104   */\n      dup1\n        /* \"#utility.yul\":8147:8149   */\n      0x40\n        /* \"#utility.yul\":8135:8144   */\n      dup4\n        /* \"#utility.yul\":8126:8133   */\n      dup6\n        /* \"#utility.yul\":8122:8145   */\n      sub\n        /* \"#utility.yul\":8118:8150   */\n      slt\n        /* \"#utility.yul\":8115:8234   */\n      iszero\n      tag_357\n      jumpi\n        /* \"#utility.yul\":8153:8232   */\n      tag_358\n      tag_204\n      jump\t// in\n    tag_358:\n        /* \"#utility.yul\":8115:8234   */\n    tag_357:\n        /* \"#utility.yul\":8301:8302   */\n      0x00\n        /* \"#utility.yul\":8290:8299   */\n      dup4\n        /* \"#utility.yul\":8286:8303   */\n      add\n        /* \"#utility.yul\":8273:8304   */\n      calldataload\n        /* \"#utility.yul\":8331:8349   */\n      0xffffffffffffffff\n        /* \"#utility.yul\":8323:8329   */\n      dup2\n        /* \"#utility.yul\":8320:8350   */\n      gt\n        /* \"#utility.yul\":8317:8434   */\n      iszero\n      tag_359\n      jumpi\n        /* \"#utility.yul\":8353:8432   */\n      tag_360\n      tag_205\n      jump\t// in\n    tag_360:\n        /* \"#utility.yul\":8317:8434   */\n    tag_359:\n        /* \"#utility.yul\":8458:8521   */\n      tag_361\n        /* \"#utility.yul\":8513:8520   */\n      dup6\n        /* \"#utility.yul\":8504:8510   */\n      dup3\n        /* \"#utility.yul\":8493:8502   */\n      dup7\n        /* \"#utility.yul\":8489:8511   */\n      add\n        /* \"#utility.yul\":8458:8521   */\n      tag_215\n      jump\t// in\n    tag_361:\n        /* \"#utility.yul\":8448:8521   */\n      swap3\n      pop\n        /* \"#utility.yul\":8244:8531   */\n      pop\n        /* \"#utility.yul\":8598:8600   */\n      0x20\n        /* \"#utility.yul\":8587:8596   */\n      dup4\n        /* \"#utility.yul\":8583:8601   */\n      add\n        /* \"#utility.yul\":8570:8602   */\n      calldataload\n        /* \"#utility.yul\":8629:8647   */\n      0xffffffffffffffff\n        /* \"#utility.yul\":8621:8627   */\n      dup2\n        /* \"#utility.yul\":8618:8648   */\n      gt\n        /* \"#utility.yul\":8615:8732   */\n      iszero\n      tag_362\n      jumpi\n        /* \"#utility.yul\":8651:8730   */\n      tag_363\n      tag_205\n      jump\t// in\n    tag_363:\n        /* \"#utility.yul\":8615:8732   */\n    tag_362:\n        /* \"#utility.yul\":8756:8819   */\n      tag_364\n        /* \"#utility.yul\":8811:8818   */\n      dup6\n        /* \"#utility.yul\":8802:8808   */\n      dup3\n        /* \"#utility.yul\":8791:8800   */\n      dup7\n        /* \"#utility.yul\":8787:8809   */\n      add\n        /* \"#utility.yul\":8756:8819   */\n      tag_215\n      jump\t// in\n    tag_364:\n        /* \"#utility.yul\":8746:8819   */\n      swap2\n      pop\n        /* \"#utility.yul\":8541:8829   */\n      pop\n        /* \"#utility.yul\":8002:8836   */\n      swap3\n      pop\n      swap3\n      swap1\n      pop\n      jump\t// out\n        /* \"#utility.yul\":8842:8960   */\n    tag_226:\n        /* \"#utility.yul\":8929:8953   */\n      tag_366\n        /* \"#utility.yul\":8947:8952   */\n      dup2\n        /* \"#utility.yul\":8929:8953   */\n      tag_216\n      jump\t// in\n    tag_366:\n        /* \"#utility.yul\":8924:8927   */\n      dup3\n        /* \"#utility.yul\":8917:8954   */\n      mstore\n        /* \"#utility.yul\":8842:8960   */\n      pop\n      pop\n      jump\t// out\n        /* \"#utility.yul\":8966:9188   */\n    tag_41:\n        /* \"#utility.yul\":9059:9063   */\n      0x00\n        /* \"#utility.yul\":9097:9099   */\n      0x20\n        /* \"#utility.yul\":9086:9095   */\n      dup3\n        /* \"#utility.yul\":9082:9100   */\n      add\n        /* \"#utility.yul\":9074:9100   */\n      swap1\n      pop\n        /* \"#utility.yul\":9110:9181   */\n      tag_368\n        /* \"#utility.yul\":9178:9179   */\n      0x00\n        /* \"#utility.yul\":9167:9176   */\n      dup4\n        /* \"#utility.yul\":9163:9180   */\n      add\n        /* \"#utility.yul\":9154:9160   */\n      dup5\n        /* \"#utility.yul\":9110:9181   */\n      tag_226\n      jump\t// in\n    tag_368:\n        /* \"#utility.yul\":8966:9188   */\n      swap3\n      swap2\n      pop\n      pop\n      jump\t// out\n        /* \"#utility.yul\":9194:10577   */\n    tag_50:\n        /* \"#utility.yul\":9317:9323   */\n      0x00\n        /* \"#utility.yul\":9325:9331   */\n      dup1\n        /* \"#utility.yul\":9333:9339   */\n      0x00\n        /* \"#utility.yul\":9341:9347   */\n      dup1\n        /* \"#utility.yul\":9349:9355   */\n      0x00\n        /* \"#utility.yul\":9357:9363   */\n      dup1\n        /* \"#utility.yul\":9365:9371   */\n      0x00\n        /* \"#utility.yul\":9414:9417   */\n      0xe0\n        /* \"#utility.yul\":9402:9411   */\n      dup9\n        /* \"#utility.yul\":9393:9400   */\n      dup11\n        /* \"#utility.yul\":9389:9412   */\n      sub\n        /* \"#utility.yul\":9385:9418   */\n      slt\n        /* \"#utility.yul\":9382:9502   */\n      iszero\n      tag_370\n      jumpi\n        /* \"#utility.yul\":9421:9500   */\n      tag_371\n      tag_204\n      jump\t// in\n    tag_371:\n        /* \"#utility.yul\":9382:9502   */\n    tag_370:\n        /* \"#utility.yul\":9569:9570   */\n      0x00\n        /* \"#utility.yul\":9558:9567   */\n      dup9\n        /* \"#utility.yul\":9554:9571   */\n      add\n        /* \"#utility.yul\":9541:9572   */\n      calldataload\n        /* \"#utility.yul\":9599:9617   */\n      0xffffffffffffffff\n        /* \"#utility.yul\":9591:9597   */\n      dup2\n        /* \"#utility.yul\":9588:9618   */\n      gt\n        /* \"#utility.yul\":9585:9702   */\n      iszero\n      tag_372\n      jumpi\n        /* \"#utility.yul\":9621:9700   */\n      tag_373\n      tag_205\n      jump\t// in\n    tag_373:\n        /* \"#utility.yul\":9585:9702   */\n    tag_372:\n        /* \"#utility.yul\":9726:9789   */\n      tag_374\n        /* \"#utility.yul\":9781:9788   */\n      dup11\n        /* \"#utility.yul\":9772:9778   */\n      dup3\n        /* \"#utility.yul\":9761:9770   */\n      dup12\n        /* \"#utility.yul\":9757:9779   */\n      add\n        /* \"#utility.yul\":9726:9789   */\n      tag_215\n      jump\t// in\n    tag_374:\n        /* \"#utility.yul\":9716:9789   */\n      swap8\n      pop\n        /* \"#utility.yul\":9512:9799   */\n      pop\n        /* \"#utility.yul\":9838:9840   */\n      0x20\n        /* \"#utility.yul\":9864:9917   */\n      tag_375\n        /* \"#utility.yul\":9909:9916   */\n      dup11\n        /* \"#utility.yul\":9900:9906   */\n      dup3\n        /* \"#utility.yul\":9889:9898   */\n      dup12\n        /* \"#utility.yul\":9885:9907   */\n      add\n        /* \"#utility.yul\":9864:9917   */\n      tag_218\n      jump\t// in\n    tag_375:\n        /* \"#utility.yul\":9854:9917   */\n      swap7\n      pop\n        /* \"#utility.yul\":9809:9927   */\n      pop\n        /* \"#utility.yul\":9966:9968   */\n      0x40\n        /* \"#utility.yul\":9992:10045   */\n      tag_376\n        /* \"#utility.yul\":10037:10044   */\n      dup11\n        /* \"#utility.yul\":10028:10034   */\n      dup3\n        /* \"#utility.yul\":10017:10026   */\n      dup12\n        /* \"#utility.yul\":10013:10035   */\n      add\n        /* \"#utility.yul\":9992:10045   */\n      tag_218\n      jump\t// in\n    tag_376:\n        /* \"#utility.yul\":9982:10045   */\n      swap6\n      pop\n        /* \"#utility.yul\":9937:10055   */\n      pop\n        /* \"#utility.yul\":10094:10096   */\n      0x60\n        /* \"#utility.yul\":10120:10173   */\n      tag_377\n        /* \"#utility.yul\":10165:10172   */\n      dup11\n        /* \"#utility.yul\":10156:10162   */\n      dup3\n        /* \"#utility.yul\":10145:10154   */\n      dup12\n        /* \"#utility.yul\":10141:10163   */\n      add\n        /* \"#utility.yul\":10120:10173   */\n      tag_218\n      jump\t// in\n    tag_377:\n        /* \"#utility.yul\":10110:10173   */\n      swap5\n      pop\n        /* \"#utility.yul\":10065:10183   */\n      pop\n        /* \"#utility.yul\":10222:10225   */\n      0x80\n        /* \"#utility.yul\":10249:10302   */\n      tag_378\n        /* \"#utility.yul\":10294:10301   */\n      dup11\n        /* \"#utility.yul\":10285:10291   */\n      dup3\n        /* \"#utility.yul\":10274:10283   */\n      dup12\n        /* \"#utility.yul\":10270:10292   */\n      add\n        /* \"#utility.yul\":10249:10302   */\n      tag_218\n      jump\t// in\n    tag_378:\n        /* \"#utility.yul\":10239:10302   */\n      swap4\n      pop\n        /* \"#utility.yul\":10193:10312   */\n      pop\n        /* \"#utility.yul\":10351:10354   */\n      0xa0\n        /* \"#utility.yul\":10378:10431   */\n      tag_379\n        /* \"#utility.yul\":10423:10430   */\n      dup11\n        /* \"#utility.yul\":10414:10420   */\n      dup3\n        /* \"#utility.yul\":10403:10412   */\n      dup12\n        /* \"#utility.yul\":10399:10421   */\n      add\n        /* \"#utility.yul\":10378:10431   */\n      tag_218\n      jump\t// in\n    tag_379:\n        /* \"#utility.yul\":10368:10431   */\n      swap3\n      pop\n        /* \"#utility.yul\":10322:10441   */\n      pop\n        /* \"#utility.yul\":10480:10483   */\n      0xc0\n        /* \"#utility.yul\":10507:10560   */\n      tag_380\n        /* \"#utility.yul\":10552:10559   */\n      dup11\n        /* \"#utility.yul\":10543:10549   */\n      dup3\n        /* \"#utility.yul\":10532:10541   */\n      dup12\n        /* \"#utility.yul\":10528:10550   */\n      add\n        /* \"#utility.yul\":10507:10560   */\n      tag_218\n      jump\t// in\n    tag_380:\n        /* \"#utility.yul\":10497:10560   */\n      swap2\n      pop\n        /* \"#utility.yul\":10451:10570   */\n      pop\n        /* \"#utility.yul\":9194:10577   */\n      swap3\n      swap6\n      swap9\n      swap2\n      swap5\n      swap8\n      pop\n      swap3\n      swap6\n      pop\n      jump\t// out\n        /* \"#utility.yul\":10583:10763   */\n    tag_59:\n        /* \"#utility.yul\":10631:10708   */\n      0x4e487b7100000000000000000000000000000000000000000000000000000000\n        /* \"#utility.yul\":10628:10629   */\n      0x00\n        /* \"#utility.yul\":10621:10709   */\n      mstore\n        /* \"#utility.yul\":10728:10732   */\n      0x32\n        /* \"#utility.yul\":10725:10726   */\n      0x04\n        /* \"#utility.yul\":10718:10733   */\n      mstore\n        /* \"#utility.yul\":10752:10756   */\n      0x24\n        /* \"#utility.yul\":10749:10750   */\n      0x00\n        /* \"#utility.yul\":10742:10757   */\n      revert\n        /* \"#utility.yul\":10769:10949   */\n    tag_227:\n        /* \"#utility.yul\":10817:10894   */\n      0x4e487b7100000000000000000000000000000000000000000000000000000000\n        /* \"#utility.yul\":10814:10815   */\n      0x00\n        /* \"#utility.yul\":10807:10895   */\n      mstore\n        /* \"#utility.yul\":10914:10918   */\n      0x22\n        /* \"#utility.yul\":10911:10912   */\n      0x04\n        /* \"#utility.yul\":10904:10919   */\n      mstore\n        /* \"#utility.yul\":10938:10942   */\n      0x24\n        /* \"#utility.yul\":10935:10936   */\n      0x00\n        /* \"#utility.yul\":10928:10943   */\n      revert\n        /* \"#utility.yul\":10955:11275   */\n    tag_79:\n        /* \"#utility.yul\":10999:11005   */\n      0x00\n        /* \"#utility.yul\":11036:11037   */\n      0x02\n        /* \"#utility.yul\":11030:11034   */\n      dup3\n        /* \"#utility.yul\":11026:11038   */\n      div\n        /* \"#utility.yul\":11016:11038   */\n      swap1\n      pop\n        /* \"#utility.yul\":11083:11084   */\n      0x01\n        /* \"#utility.yul\":11077:11081   */\n      dup3\n        /* \"#utility.yul\":11073:11085   */\n      and\n        /* \"#utility.yul\":11104:11122   */\n      dup1\n        /* \"#utility.yul\":11094:11175   */\n      tag_384\n      jumpi\n        /* \"#utility.yul\":11160:11164   */\n      0x7f\n        /* \"#utility.yul\":11152:11158   */\n      dup3\n        /* \"#utility.yul\":11148:11165   */\n      and\n        /* \"#utility.yul\":11138:11165   */\n      swap2\n      pop\n        /* \"#utility.yul\":11094:11175   */\n    tag_384:\n        /* \"#utility.yul\":11222:11224   */\n      0x20\n        /* \"#utility.yul\":11214:11220   */\n      dup3\n        /* \"#utility.yul\":11211:11225   */\n      lt\n        /* \"#utility.yul\":11191:11209   */\n      dup2\n        /* \"#utility.yul\":11188:11226   */\n      sub\n        /* \"#utility.yul\":11185:11269   */\n      tag_385\n      jumpi\n        /* \"#utility.yul\":11241:11259   */\n      tag_386\n      tag_227\n      jump\t// in\n    tag_386:\n        /* \"#utility.yul\":11185:11269   */\n    tag_385:\n        /* \"#utility.yul\":11006:11275   */\n      pop\n        /* \"#utility.yul\":10955:11275   */\n      swap2\n      swap1\n      pop\n      jump\t// out\n        /* \"#utility.yul\":11281:11422   */\n    tag_228:\n        /* \"#utility.yul\":11330:11334   */\n      0x00\n        /* \"#utility.yul\":11353:11356   */\n      dup2\n        /* \"#utility.yul\":11345:11356   */\n      swap1\n      pop\n        /* \"#utility.yul\":11376:11379   */\n      dup2\n        /* \"#utility.yul\":11373:11374   */\n      0x00\n        /* \"#utility.yul\":11366:11380   */\n      mstore\n        /* \"#utility.yul\":11410:11414   */\n      0x20\n        /* \"#utility.yul\":11407:11408   */\n      0x00\n        /* \"#utility.yul\":11397:11415   */\n      keccak256\n        /* \"#utility.yul\":11389:11415   */\n      swap1\n      pop\n        /* \"#utility.yul\":11281:11422   */\n      swap2\n      swap1\n      pop\n      jump\t// out\n        /* \"#utility.yul\":11428:11521   */\n    tag_229:\n        /* \"#utility.yul\":11465:11471   */\n      0x00\n        /* \"#utility.yul\":11512:11514   */\n      0x20\n        /* \"#utility.yul\":11507:11509   */\n      0x1f\n        /* \"#utility.yul\":11500:11505   */\n      dup4\n        /* \"#utility.yul\":11496:11510   */\n      add\n        /* \"#utility.yul\":11492:11515   */\n      div\n        /* \"#utility.yul\":11482:11515   */\n      swap1\n      pop\n        /* \"#utility.yul\":11428:11521   */\n      swap2\n      swap1\n      pop\n      jump\t// out\n        /* \"#utility.yul\":11527:11634   */\n    tag_230:\n        /* \"#utility.yul\":11571:11579   */\n      0x00\n        /* \"#utility.yul\":11621:11626   */\n      dup3\n        /* \"#utility.yul\":11615:11619   */\n      dup3\n        /* \"#utility.yul\":11611:11627   */\n      shl\n        /* \"#utility.yul\":11590:11627   */\n      swap1\n      pop\n        /* \"#utility.yul\":11527:11634   */\n      swap3\n      swap2\n      pop\n      pop\n      jump\t// out\n        /* \"#utility.yul\":11640:12033   */\n    tag_231:\n        /* \"#utility.yul\":11709:11715   */\n      0x00\n        /* \"#utility.yul\":11759:11760   */\n      0x08\n        /* \"#utility.yul\":11747:11757   */\n      dup4\n        /* \"#utility.yul\":11743:11761   */\n      mul\n        /* \"#utility.yul\":11782:11879   */\n      tag_391\n        /* \"#utility.yul\":11812:11878   */\n      0xffffffffffffffffffffffffffffffffffffffffffffffffffffffffffffffff\n        /* \"#utility.yul\":11801:11810   */\n      dup3\n        /* \"#utility.yul\":11782:11879   */\n      tag_230\n      jump\t// in\n    tag_391:\n        /* \"#utility.yul\":11900:11939   */\n      tag_392\n        /* \"#utility.yul\":11930:11938   */\n      dup7\n        /* \"#utility.yul\":11919:11928   */\n      dup4\n        /* \"#utility.yul\":11900:11939   */\n      tag_230\n      jump\t// in\n    tag_392:\n        /* \"#utility.yul\":11888:11939   */\n      swap6\n      pop\n        /* \"#utility.yul\":11972:11976   */\n      dup1\n        /* \"#utility.yul\":11968:11977   */\n      not\n        /* \"#utility.yul\":11961:11966   */\n      dup5\n        /* \"#utility.yul\":11957:11978   */\n      and\n        /* \"#utility.yul\":11948:11978   */\n      swap4\n      pop\n        /* \"#utility.yul\":12021:12025   */\n      dup1\n        /* \"#utility.yul\":12011:12019   */\n      dup7\n        /* \"#utility.yul\":12007:12026   */\n      and\n        /* \"#utility.yul\":12000:12005   */\n      dup5\n        /* \"#utility.yul\":11997:12027   */\n      or\n        /* \"#utility.yul\":11987:12027   */\n      swap3\n      pop\n        /* \"#utility.yul\":11716:12033   */\n      pop\n      pop\n        /* \"#utility.yul\":11640:12033   */\n      swap4\n      swap3\n      pop\n      pop\n      pop\n      jump\t// out\n        /* \"#utility.yul\":12039:12099   */\n    tag_232:\n        /* \"#utility.yul\":12067:12070   */\n      0x00\n        /* \"#utility.yul\":12088:12093   */\n      dup2\n        /* \"#utility.yul\":12081:12093   */\n      swap1\n      pop\n        /* \"#utility.yul\":12039:12099   */\n      swap2\n      swap1\n      pop\n      jump\t// out\n        /* \"#utility.yul\":12105:12247   */\n    tag_233:\n        /* \"#utility.yul\":12155:12164   */\n      0x00\n        /* \"#utility.yul\":12188:12241   */\n      tag_395\n        /* \"#utility.yul\":12206:12240   */\n      tag_396\n        /* \"#utility.yul\":12215:12239   */\n      tag_397\n        /* \"#utility.yul\":12233:12238   */\n      dup5\n        /* \"#utility.yul\":12215:12239   */\n      tag_216\n      jump\t// in\n    tag_397:\n        /* \"#utility.yul\":12206:12240   */\n      tag_232\n      jump\t// in\n    tag_396:\n        /* \"#utility.yul\":12188:12241   */\n      tag_216\n      jump\t// in\n    tag_395:\n        /* \"#utility.yul\":12175:12241   */\n      swap1\n      pop\n        /* \"#utility.yul\":12105:12247   */\n      swap2\n      swap1\n      pop\n      jump\t// out\n        /* \"#utility.yul\":12253:12328   */\n    tag_234:\n        /* \"#utility.yul\":12296:12299   */\n      0x00\n        /* \"#utility.yul\":12317:12322   */\n      dup2\n        /* \"#utility.yul\":12310:12322   */\n      swap1\n      pop\n        /* \"#utility.yul\":12253:12328   */\n      swap2\n      swap1\n      pop\n      jump\t// out\n        /* \"#utility.yul\":12334:12603   */\n    tag_235:\n        /* \"#utility.yul\":12444:12483   */\n      tag_400\n        /* \"#utility.yul\":12475:12482   */\n      dup4\n        /* \"#utility.yul\":12444:12483   */\n      tag_233\n      jump\t// in\n    tag_400:\n        /* \"#utility.yul\":12505:12596   */\n      tag_401\n        /* \"#utility.yul\":12554:12595   */\n      tag_402\n        /* \"#utility.yul\":12578:12594   */\n      dup3\n        /* \"#utility.yul\":12554:12595   */\n      tag_234\n      jump\t// in\n    tag_402:\n        /* \"#utility.yul\":12546:12552   */\n      dup5\n        /* \"#utility.yul\":12539:12543   */\n      dup5\n        /* \"#utility.yul\":12533:12544   */\n      sload\n        /* \"#utility.yul\":12505:12596   */\n      tag_231\n      jump\t// in\n    tag_401:\n        /* \"#utility.yul\":12499:12503   */\n      dup3\n        /* \"#utility.yul\":12492:12597   */\n      sstore\n        /* \"#utility.yul\":12410:12603   */\n      pop\n        /* \"#utility.yul\":12334:12603   */\n      pop\n      pop\n      pop\n      jump\t// out\n        /* \"#utility.yul\":12609:12682   */\n    tag_236:\n        /* \"#utility.yul\":12654:12657   */\n      0x00\n        /* \"#utility.yul\":12609:12682   */\n      swap1\n      jump\t// out\n        /* \"#utility.yul\":12688:12877   */\n    tag_237:\n        /* \"#utility.yul\":12765:12797   */\n      tag_405\n      tag_236\n      jump\t// in\n    tag_405:\n        /* \"#utility.yul\":12806:12871   */\n      tag_406\n        /* \"#utility.yul\":12864:12870   */\n      dup2\n        /* \"#utility.yul\":12856:12862   */\n      dup5\n        /* \"#utility.yul\":12850:12854   */\n      dup5\n        /* \"#utility.yul\":12806:12871   */\n      tag_235\n      jump\t// in\n    tag_406:\n        /* \"#utility.yul\":12741:12877   */\n      pop\n        /* \"#utility.yul\":12688:12877   */\n      pop\n      pop\n      jump\t// out\n        /* \"#utility.yul\":12883:13069   */\n    tag_238:\n        /* \"#utility.yul\":12943:13063   */\n    tag_408:\n        /* \"#utility.yul\":12960:12963   */\n      dup2\n        /* \"#utility.yul\":12953:12958   */\n      dup2\n        /* \"#utility.yul\":12950:12964   */\n      lt\n        /* \"#utility.yul\":12943:13063   */\n      iszero\n      tag_410\n      jumpi\n        /* \"#utility.yul\":13014:13053   */\n      tag_411\n        /* \"#utility.yul\":13051:13052   */\n      0x00\n        /* \"#utility.yul\":13044:13049   */\n      dup3\n        /* \"#utility.yul\":13014:13053   */\n      tag_237\n      jump\t// in\n    tag_411:\n        /* \"#utility.yul\":12987:12988   */\n      0x01\n        /* \"#utility.yul\":12980:12985   */\n      dup2\n        /* \"#utility.yul\":12976:12989   */\n      add\n        /* \"#utility.yul\":12967:12989   */\n      swap1\n      pop\n        /* \"#utility.yul\":12943:13063   */\n      jump(tag_408)\n    tag_410:\n        /* \"#utility.yul\":12883:13069   */\n      pop\n      pop\n      jump\t// out\n        /* \"#utility.yul\":13075:13618   */\n    tag_239:\n        /* \"#utility.yul\":13176:13178   */\n      0x1f\n        /* \"#utility.yul\":13171:13174   */\n      dup3\n        /* \"#utility.yul\":13168:13179   */\n      gt\n        /* \"#utility.yul\":13165:13611   */\n      iszero\n      tag_413\n      jumpi\n        /* \"#utility.yul\":13210:13248   */\n      tag_414\n        /* \"#utility.yul\":13242:13247   */\n      dup2\n        /* \"#utility.yul\":13210:13248   */\n      tag_228\n      jump\t// in\n    tag_414:\n        /* \"#utility.yul\":13294:13323   */\n      tag_415\n        /* \"#utility.yul\":13312:13322   */\n      dup5\n        /* \"#utility.yul\":13294:13323   */\n      tag_229\n      jump\t// in\n    tag_415:\n        /* \"#utility.yul\":13284:13292   */\n      dup2\n        /* \"#utility.yul\":13280:13324   */\n      add\n        /* \"#utility.yul\":13477:13479   */\n      0x20\n        /* \"#utility.yul\":13465:13475   */\n      dup6\n        /* \"#utility.yul\":13462:13480   */\n      lt\n        /* \"#utility.yul\":13459:13508   */\n      iszero\n      tag_416\n      jumpi\n        /* \"#utility.yul\":13498:13506   */\n      dup2\n        /* \"#utility.yul\":13483:13506   */\n      swap1\n      pop\n        /* \"#utility.yul\":13459:13508   */\n    tag_416:\n        /* \"#utility.yul\":13521:13601   */\n      tag_417\n        /* \"#utility.yul\":13577:13599   */\n      tag_418\n        /* \"#utility.yul\":13595:13598   */\n      dup6\n        /* \"#utility.yul\":13577:13599   */\n      tag_229\n      jump\t// in\n    tag_418:\n        /* \"#utility.yul\":13567:13575   */\n      dup4\n        /* \"#utility.yul\":13563:13600   */\n      add\n        /* \"#utility.yul\":13550:13561   */\n      dup3\n        /* \"#utility.yul\":13521:13601   */\n      tag_238\n      jump\t// in\n    tag_417:\n        /* \"#utility.yul\":13180:13611   */\n      pop\n      pop\n        /* \"#utility.yul\":13165:13611   */\n    tag_413:\n        /* \"#utility.yul\":13075:13618   */\n      pop\n      pop\n      pop\n      jump\t// out\n        /* \"#utility.yul\":13624:13741   */\n    tag_240:\n        /* \"#utility.yul\":13678:13686   */\n      0x00\n        /* \"#utility.yul\":13728:13733   */\n      dup3\n        /* \"#utility.yul\":13722:13726   */\n      dup3\n        /* \"#utility.yul\":13718:13734   */\n      shr\n        /* \"#utility.yul\":13697:13734   */\n      swap1\n      pop\n        /* \"#utility.yul\":13624:13741   */\n      swap3\n      swap2\n      pop\n      pop\n      jump\t// out\n        /* \"#utility.yul\":13747:13916   */\n    tag_241:\n        /* \"#utility.yul\":13791:13797   */\n      0x00\n        /* \"#utility.yul\":13824:13875   */\n      tag_421\n        /* \"#utility.yul\":13872:13873   */\n      0x00\n        /* \"#utility.yul\":13868:13874   */\n      not\n        /* \"#utility.yul\":13860:13865   */\n      dup5\n        /* \"#utility.yul\":13857:13858   */\n      0x08\n        /* \"#utility.yul\":13853:13866   */\n      mul\n        /* \"#utility.yul\":13824:13875   */\n      tag_240\n      jump\t// in\n    tag_421:\n        /* \"#utility.yul\":13820:13876   */\n      not\n        /* \"#utility.yul\":13905:13909   */\n      dup1\n        /* \"#utility.yul\":13899:13903   */\n      dup4\n        /* \"#utility.yul\":13895:13910   */\n      and\n        /* \"#utility.yul\":13885:13910   */\n      swap2\n      pop\n        /* \"#utility.yul\":13798:13916   */\n      pop\n        /* \"#utility.yul\":13747:13916   */\n      swap3\n      swap2\n      pop\n      pop\n      jump\t// out\n        /* \"#utility.yul\":13921:14216   */\n    tag_242:\n        /* \"#utility.yul\":13997:14001   */\n      0x00\n        /* \"#utility.yul\":14143:14172   */\n      tag_423\n        /* \"#utility.yul\":14168:14171   */\n      dup4\n        /* \"#utility.yul\":14162:14166   */\n      dup4\n        /* \"#utility.yul\":14143:14172   */\n      tag_241\n      jump\t// in\n    tag_423:\n        /* \"#utility.yul\":14135:14172   */\n      swap2\n      pop\n        /* \"#utility.yul\":14205:14208   */\n      dup3\n        /* \"#utility.yul\":14202:14203   */\n      0x02\n        /* \"#utility.yul\":14198:14209   */\n      mul\n        /* \"#utility.yul\":14192:14196   */\n      dup3\n        /* \"#utility.yul\":14189:14210   */\n      or\n        /* \"#utility.yul\":14181:14210   */\n      swap1\n      pop\n        /* \"#utility.yul\":13921:14216   */\n      swap3\n      swap2\n      pop\n      pop\n      jump\t// out\n        /* \"#utility.yul\":14221:15616   */\n    tag_62:\n        /* \"#utility.yul\":14338:14375   */\n      tag_425\n        /* \"#utility.yul\":14371:14374   */\n      dup3\n        /* \"#utility.yul\":14338:14375   */\n      tag_219\n      jump\t// in\n    tag_425:\n        /* \"#utility.yul\":14440:14458   */\n      0xffffffffffffffff\n        /* \"#utility.yul\":14432:14438   */\n      dup2\n        /* \"#utility.yul\":14429:14459   */\n      gt\n        /* \"#utility.yul\":14426:14482   */\n      iszero\n      tag_426\n      jumpi\n        /* \"#utility.yul\":14462:14480   */\n      tag_427\n      tag_209\n      jump\t// in\n    tag_427:\n        /* \"#utility.yul\":14426:14482   */\n    tag_426:\n        /* \"#utility.yul\":14506:14544   */\n      tag_428\n        /* \"#utility.yul\":14538:14542   */\n      dup3\n        /* \"#utility.yul\":14532:14543   */\n      sload\n        /* \"#utility.yul\":14506:14544   */\n      tag_79\n      jump\t// in\n    tag_428:\n        /* \"#utility.yul\":14591:14658   */\n      tag_429\n        /* \"#utility.yul\":14651:14657   */\n      dup3\n        /* \"#utility.yul\":14643:14649   */\n      dup3\n        /* \"#utility.yul\":14637:14641   */\n      dup6\n        /* \"#utility.yul\":14591:14658   */\n      tag_239\n      jump\t// in\n    tag_429:\n        /* \"#utility.yul\":14685:14686   */\n      0x00\n        /* \"#utility.yul\":14709:14713   */\n      0x20\n        /* \"#utility.yul\":14696:14713   */\n      swap1\n      pop\n        /* \"#utility.yul\":14741:14743   */\n      0x1f\n        /* \"#utility.yul\":14733:14739   */\n      dup4\n        /* \"#utility.yul\":14730:14744   */\n      gt\n        /* \"#utility.yul\":14758:14759   */\n      0x01\n        /* \"#utility.yul\":14753:15371   */\n      dup2\n      eq\n      tag_431\n      jumpi\n        /* \"#utility.yul\":15415:15416   */\n      0x00\n        /* \"#utility.yul\":15432:15438   */\n      dup5\n        /* \"#utility.yul\":15429:15506   */\n      iszero\n      tag_432\n      jumpi\n        /* \"#utility.yul\":15481:15490   */\n      dup3\n        /* \"#utility.yul\":15476:15479   */\n      dup8\n        /* \"#utility.yul\":15472:15491   */\n      add\n        /* \"#utility.yul\":15466:15492   */\n      mload\n        /* \"#utility.yul\":15457:15492   */\n      swap1\n      pop\n        /* \"#utility.yul\":15429:15506   */\n    tag_432:\n        /* \"#utility.yul\":15532:15599   */\n      tag_433\n        /* \"#utility.yul\":15592:15598   */\n      dup6\n        /* \"#utility.yul\":15585:15590   */\n      dup3\n        /* \"#utility.yul\":15532:15599   */\n      tag_242\n      jump\t// in\n    tag_433:\n        /* \"#utility.yul\":15526:15530   */\n      dup7\n        /* \"#utility.yul\":15519:15600   */\n      sstore\n        /* \"#utility.yul\":15388:15610   */\n      pop\n        /* \"#utility.yul\":14723:15610   */\n      jump(tag_430)\n        /* \"#utility.yul\":14753:15371   */\n    tag_431:\n        /* \"#utility.yul\":14805:14809   */\n      0x1f\n        /* \"#utility.yul\":14801:14810   */\n      not\n        /* \"#utility.yul\":14793:14799   */\n      dup5\n        /* \"#utility.yul\":14789:14811   */\n      and\n        /* \"#utility.yul\":14839:14876   */\n      tag_434\n        /* \"#utility.yul\":14871:14875   */\n      dup7\n        /* \"#utility.yul\":14839:14876   */\n      tag_228\n      jump\t// in\n    tag_434:\n        /* \"#utility.yul\":14898:14899   */\n      0x00\n        /* \"#utility.yul\":14912:15120   */\n    tag_435:\n        /* \"#utility.yul\":14926:14933   */\n      dup3\n        /* \"#utility.yul\":14923:14924   */\n      dup2\n        /* \"#utility.yul\":14920:14934   */\n      lt\n        /* \"#utility.yul\":14912:15120   */\n      iszero\n      tag_437\n      jumpi\n        /* \"#utility.yul\":15005:15014   */\n      dup5\n        /* \"#utility.yul\":15000:15003   */\n      dup10\n        /* \"#utility.yul\":14996:15015   */\n      add\n        /* \"#utility.yul\":14990:15016   */\n      mload\n        /* \"#utility.yul\":14982:14988   */\n      dup3\n        /* \"#utility.yul\":14975:15017   */\n      sstore\n        /* \"#utility.yul\":15056:15057   */\n      0x01\n        /* \"#utility.yul\":15048:15054   */\n      dup3\n        /* \"#utility.yul\":15044:15058   */\n      add\n        /* \"#utility.yul\":15034:15058   */\n      swap2\n      pop\n        /* \"#utility.yul\":15103:15105   */\n      0x20\n        /* \"#utility.yul\":15092:15101   */\n      dup6\n        /* \"#utility.yul\":15088:15106   */\n      add\n        /* \"#utility.yul\":15075:15106   */\n      swap5\n      pop\n        /* \"#utility.yul\":14949:14953   */\n      0x20\n        /* \"#utility.yul\":14946:14947   */\n      dup2\n        /* \"#utility.yul\":14942:14954   */\n      add\n        /* \"#utility.yul\":14937:14954   */\n      swap1\n      pop\n        /* \"#utility.yul\":14912:15120   */\n      jump(tag_435)\n    tag_437:\n        /* \"#utility.yul\":15148:15154   */\n      dup7\n        /* \"#utility.yul\":15139:15146   */\n      dup4\n        /* \"#utility.yul\":15136:15155   */\n      lt\n        /* \"#utility.yul\":15133:15312   */\n      iszero\n      tag_438\n      jumpi\n        /* \"#utility.yul\":15206:15215   */\n      dup5\n        /* \"#utility.yul\":15201:15204   */\n      dup10\n        /* \"#utility.yul\":15197:15216   */\n      add\n        /* \"#utility.yul\":15191:15217   */\n      mload\n        /* \"#utility.yul\":15249:15297   */\n      tag_439\n        /* \"#utility.yul\":15291:15295   */\n      0x1f\n        /* \"#utility.yul\":15283:15289   */\n      dup10\n        /* \"#utility.yul\":15279:15296   */\n      and\n        /* \"#utility.yul\":15268:15277   */\n      dup3\n        /* \"#utility.yul\":15249:15297   */\n      tag_241\n      jump\t// in\n    tag_439:\n        /* \"#utility.yul\":15241:15247   */\n      dup4\n        /* \"#utility.yul\":15234:15298   */\n      sstore\n        /* \"#utility.yul\":15156:15312   */\n      pop\n        /* \"#utility.yul\":15133:15312   */\n    tag_438:\n        /* \"#utility.yul\":15358:15359   */\n      0x01\n        /* \"#utility.yul\":15354:15355   */\n      0x02\n        /* \"#utility.yul\":15346:15352   */\n      dup9\n        /* \"#utility.yul\":15342:15356   */\n      mul\n        /* \"#utility.yul\":15338:15360   */\n      add\n        /* \"#utility.yul\":15332:15336   */\n      dup9\n        /* \"#utility.yul\":15325:15361   */\n      sstore\n        /* \"#utility.yul\":14760:15371   */\n      pop\n      pop\n      pop\n        /* \"#utility.yul\":14723:15610   */\n    tag_430:\n      pop\n        /* \"#utility.yul\":14313:15616   */\n      pop\n      pop\n      pop\n        /* \"#utility.yul\":14221:15616   */\n      pop\n      pop\n      jump\t// out\n        /* \"#utility.yul\":15622:15770   */\n    tag_243:\n        /* \"#utility.yul\":15724:15735   */\n      0x00\n        /* \"#utility.yul\":15761:15764   */\n      dup2\n        /* \"#utility.yul\":15746:15764   */\n      swap1\n      pop\n        /* \"#utility.yul\":15622:15770   */\n      swap3\n      swap2\n      pop\n      pop\n      jump\t// out\n        /* \"#utility.yul\":15776:15931   */\n    tag_244:\n        /* \"#utility.yul\":15916:15923   */\n      0x4550303031000000000000000000000000000000000000000000000000000000\n        /* \"#utility.yul\":15912:15913   */\n      0x00\n        /* \"#utility.yul\":15904:15910   */\n      dup3\n        /* \"#utility.yul\":15900:15914   */\n      add\n        /* \"#utility.yul\":15893:15924   */\n      mstore\n        /* \"#utility.yul\":15776:15931   */\n      pop\n      jump\t// out\n        /* \"#utility.yul\":15937:16337   */\n    tag_245:\n        /* \"#utility.yul\":16097:16100   */\n      0x00\n        /* \"#utility.yul\":16118:16202   */\n      tag_443\n        /* \"#utility.yul\":16200:16201   */\n      0x05\n        /* \"#utility.yul\":16195:16198   */\n      dup4\n        /* \"#utility.yul\":16118:16202   */\n      tag_243\n      jump\t// in\n    tag_443:\n        /* \"#utility.yul\":16111:16202   */\n      swap2\n      pop\n        /* \"#utility.yul\":16211:16304   */\n      tag_444\n        /* \"#utility.yul\":16300:16303   */\n      dup3\n        /* \"#utility.yul\":16211:16304   */\n      tag_244\n      jump\t// in\n    tag_444:\n        /* \"#utility.yul\":16329:16330   */\n      0x05\n        /* \"#utility.yul\":16324:16327   */\n      dup3\n        /* \"#utility.yul\":16320:16331   */\n      add\n        /* \"#utility.yul\":16313:16331   */\n      swap1\n      pop\n        /* \"#utility.yul\":15937:16337   */\n      swap2\n      swap1\n      pop\n      jump\t// out\n        /* \"#utility.yul\":16343:16724   */\n    tag_65:\n        /* \"#utility.yul\":16528:16531   */\n      0x00\n        /* \"#utility.yul\":16550:16698   */\n      tag_446\n        /* \"#utility.yul\":16694:16697   */\n      dup3\n        /* \"#utility.yul\":16550:16698   */\n      tag_245\n      jump\t// in\n    tag_446:\n        /* \"#utility.yul\":16543:16698   */\n      swap2\n      pop\n        /* \"#utility.yul\":16715:16718   */\n      dup2\n        /* \"#utility.yul\":16708:16718   */\n      swap1\n      pop\n        /* \"#utility.yul\":16343:16724   */\n      swap2\n      swap1\n      pop\n      jump\t// out\n        /* \"#utility.yul\":16730:16885   */\n    tag_246:\n        /* \"#utility.yul\":16870:16877   */\n      0x4550303032000000000000000000000000000000000000000000000000000000\n        /* \"#utility.yul\":16866:16867   */\n      0x00\n        /* \"#utility.yul\":16858:16864   */\n      dup3\n        /* \"#utility.yul\":16854:16868   */\n      add\n        /* \"#utility.yul\":16847:16878   */\n      mstore\n        /* \"#utility.yul\":16730:16885   */\n      pop\n      jump\t// out\n        /* \"#utility.yul\":16891:17291   */\n    tag_247:\n        /* \"#utility.yul\":17051:17054   */\n      0x00\n        /* \"#utility.yul\":17072:17156   */\n      tag_449\n        /* \"#utility.yul\":17154:17155   */\n      0x05\n        /* \"#utility.yul\":17149:17152   */\n      dup4\n        /* \"#utility.yul\":17072:17156   */\n      tag_243\n      jump\t// in\n    tag_449:\n        /* \"#utility.yul\":17065:17156   */\n      swap2\n      pop\n        /* \"#utility.yul\":17165:17258   */\n      tag_450\n        /* \"#utility.yul\":17254:17257   */\n      dup3\n        /* \"#utility.yul\":17165:17258   */\n      tag_246\n      jump\t// in\n    tag_450:\n        /* \"#utility.yul\":17283:17284   */\n      0x05\n        /* \"#utility.yul\":17278:17281   */\n      dup3\n        /* \"#utility.yul\":17274:17285   */\n      add\n        /* \"#utility.yul\":17267:17285   */\n      swap1\n      pop\n        /* \"#utility.yul\":16891:17291   */\n      swap2\n      swap1\n      pop\n      jump\t// out\n        /* \"#utility.yul\":17297:17678   */\n    tag_67:\n        /* \"#utility.yul\":17482:17485   */\n      0x00\n        /* \"#utility.yul\":17504:17652   */\n      tag_452\n        /* \"#utility.yul\":17648:17651   */\n      dup3\n        /* \"#utility.yul\":17504:17652   */\n      tag_247\n      jump\t// in\n    tag_452:\n        /* \"#utility.yul\":17497:17652   */\n      swap2\n      pop\n        /* \"#utility.yul\":17669:17672   */\n      dup2\n        /* \"#utility.yul\":17662:17672   */\n      swap1\n      pop\n        /* \"#utility.yul\":17297:17678   */\n      swap2\n      swap1\n      pop\n      jump\t// out\n        /* \"#utility.yul\":17684:17839   */\n    tag_248:\n        /* \"#utility.yul\":17824:17831   */\n      0x4550303033000000000000000000000000000000000000000000000000000000\n        /* \"#utility.yul\":17820:17821   */\n      0x00\n        /* \"#utility.yul\":17812:17818   */\n      dup3\n        /* \"#utility.yul\":17808:17822   */\n      add\n        /* \"#utility.yul\":17801:17832   */\n      mstore\n        /* \"#utility.yul\":17684:17839   */\n      pop\n      jump\t// out\n        /* \"#utility.yul\":17845:18245   */\n    tag_249:\n        /* \"#utility.yul\":18005:18008   */\n      0x00\n        /* \"#utility.yul\":18026:18110   */\n      tag_455\n        /* \"#utility.yul\":18108:18109   */\n      0x05\n        /* \"#utility.yul\":18103:18106   */\n      dup4\n        /* \"#utility.yul\":18026:18110   */\n      tag_243\n      jump\t// in\n    tag_455:\n        /* \"#utility.yul\":18019:18110   */\n      swap2\n      pop\n        /* \"#utility.yul\":18119:18212   */\n      tag_456\n        /* \"#utility.yul\":18208:18211   */\n      dup3\n        /* \"#utility.yul\":18119:18212   */\n      tag_248\n      jump\t// in\n    tag_456:\n        /* \"#utility.yul\":18237:18238   */\n      0x05\n        /* \"#utility.yul\":18232:18235   */\n      dup3\n        /* \"#utility.yul\":18228:18239   */\n      add\n        /* \"#utility.yul\":18221:18239   */\n      swap1\n      pop\n        /* \"#utility.yul\":17845:18245   */\n      swap2\n      swap1\n      pop\n      jump\t// out\n        /* \"#utility.yul\":18251:18632   */\n    tag_69:\n        /* \"#utility.yul\":18436:18439   */\n      0x00\n        /* \"#utility.yul\":18458:18606   */\n      tag_458\n        /* \"#utility.yul\":18602:18605   */\n      dup3\n        /* \"#utility.yul\":18458:18606   */\n      tag_249\n      jump\t// in\n    tag_458:\n        /* \"#utility.yul\":18451:18606   */\n      swap2\n      pop\n        /* \"#utility.yul\":18623:18626   */\n      dup2\n        /* \"#utility.yul\":18616:18626   */\n      swap1\n      pop\n        /* \"#utility.yul\":18251:18632   */\n      swap2\n      swap1\n      pop\n      jump\t// out\n        /* \"#utility.yul\":18638:18793   */\n    tag_250:\n        /* \"#utility.yul\":18778:18785   */\n      0x4550303034000000000000000000000000000000000000000000000000000000\n        /* \"#utility.yul\":18774:18775   */\n      0x00\n        /* \"#utility.yul\":18766:18772   */\n      dup3\n        /* \"#utility.yul\":18762:18776   */\n      add\n        /* \"#utility.yul\":18755:18786   */\n      mstore\n        /* \"#utility.yul\":18638:18793   */\n      pop\n      jump\t// out\n        /* \"#utility.yul\":18799:19199   */\n    tag_251:\n        /* \"#utility.yul\":18959:18962   */\n      0x00\n        /* \"#utility.yul\":18980:19064   */\n      tag_461\n        /* \"#utility.yul\":19062:19063   */\n      0x05\n        /* \"#utility.yul\":19057:19060   */\n      dup4\n        /* \"#utility.yul\":18980:19064   */\n      tag_243\n      jump\t// in\n    tag_461:\n        /* \"#utility.yul\":18973:19064   */\n      swap2\n      pop\n        /* \"#utility.yul\":19073:19166   */\n      tag_462\n        /* \"#utility.yul\":19162:19165   */\n      dup3\n        /* \"#utility.yul\":19073:19166   */\n      tag_250\n      jump\t// in\n    tag_462:\n        /* \"#utility.yul\":19191:19192   */\n      0x05\n        /* \"#utility.yul\":19186:19189   */\n      dup3\n        /* \"#utility.yul\":19182:19193   */\n      add\n        /* \"#utility.yul\":19175:19193   */\n      swap1\n      pop\n        /* \"#utility.yul\":18799:19199   */\n      swap2\n      swap1\n      pop\n      jump\t// out\n        /* \"#utility.yul\":19205:19586   */\n    tag_71:\n        /* \"#utility.yul\":19390:19393   */\n      0x00\n        /* \"#utility.yul\":19412:19560   */\n      tag_464\n        /* \"#utility.yul\":19556:19559   */\n      dup3\n        /* \"#utility.yul\":19412:19560   */\n      tag_251\n      jump\t// in\n    tag_464:\n        /* \"#utility.yul\":19405:19560   */\n      swap2\n      pop\n        /* \"#utility.yul\":19577:19580   */\n      dup2\n        /* \"#utility.yul\":19570:19580   */\n      swap1\n      pop\n        /* \"#utility.yul\":19205:19586   */\n      swap2\n      swap1\n      pop\n      jump\t// out\n        /* \"#utility.yul\":19592:19752   */\n    tag_252:\n        /* \"#utility.yul\":19732:19744   */\n      0x7472616e735f74696d6500000000000000000000000000000000000000000000\n        /* \"#utility.yul\":19728:19729   */\n      0x00\n        /* \"#utility.yul\":19720:19726   */\n      dup3\n        /* \"#utility.yul\":19716:19730   */\n      add\n        /* \"#utility.yul\":19709:19745   */\n      mstore\n        /* \"#utility.yul\":19592:19752   */\n      pop\n      jump\t// out\n        /* \"#utility.yul\":19758:20160   */\n    tag_253:\n        /* \"#utility.yul\":19918:19921   */\n      0x00\n        /* \"#utility.yul\":19939:20024   */\n      tag_467\n        /* \"#utility.yul\":20021:20023   */\n      0x0a\n        /* \"#utility.yul\":20016:20019   */\n      dup4\n        /* \"#utility.yul\":19939:20024   */\n      tag_243\n      jump\t// in\n    tag_467:\n        /* \"#utility.yul\":19932:20024   */\n      swap2\n      pop\n        /* \"#utility.yul\":20033:20126   */\n      tag_468\n        /* \"#utility.yul\":20122:20125   */\n      dup3\n        /* \"#utility.yul\":20033:20126   */\n      tag_252\n      jump\t// in\n    tag_468:\n        /* \"#utility.yul\":20151:20153   */\n      0x0a\n        /* \"#utility.yul\":20146:20149   */\n      dup3\n        /* \"#utility.yul\":20142:20154   */\n      add\n        /* \"#utility.yul\":20135:20154   */\n      swap1\n      pop\n        /* \"#utility.yul\":19758:20160   */\n      swap2\n      swap1\n      pop\n      jump\t// out\n        /* \"#utility.yul\":20166:20547   */\n    tag_73:\n        /* \"#utility.yul\":20351:20354   */\n      0x00\n        /* \"#utility.yul\":20373:20521   */\n      tag_470\n        /* \"#utility.yul\":20517:20520   */\n      dup3\n        /* \"#utility.yul\":20373:20521   */\n      tag_253\n      jump\t// in\n    tag_470:\n        /* \"#utility.yul\":20366:20521   */\n      swap2\n      pop\n        /* \"#utility.yul\":20538:20541   */\n      dup2\n        /* \"#utility.yul\":20531:20541   */\n      swap1\n      pop\n        /* \"#utility.yul\":20166:20547   */\n      swap2\n      swap1\n      pop\n      jump\t// out\n        /* \"#utility.yul\":20553:20708   */\n    tag_254:\n        /* \"#utility.yul\":20693:20700   */\n      0x4550303036000000000000000000000000000000000000000000000000000000\n        /* \"#utility.yul\":20689:20690   */\n      0x00\n        /* \"#utility.yul\":20681:20687   */\n      dup3\n        /* \"#utility.yul\":20677:20691   */\n      add\n        /* \"#utility.yul\":20670:20701   */\n      mstore\n        /* \"#utility.yul\":20553:20708   */\n      pop\n      jump\t// out\n        /* \"#utility.yul\":20714:21114   */\n    tag_255:\n        /* \"#utility.yul\":20874:20877   */\n      0x00\n        /* \"#utility.yul\":20895:20979   */\n      tag_473\n        /* \"#utility.yul\":20977:20978   */\n      0x05\n        /* \"#utility.yul\":20972:20975   */\n      dup4\n        /* \"#utility.yul\":20895:20979   */\n      tag_243\n      jump\t// in\n    tag_473:\n        /* \"#utility.yul\":20888:20979   */\n      swap2\n      pop\n        /* \"#utility.yul\":20988:21081   */\n      tag_474\n        /* \"#utility.yul\":21077:21080   */\n      dup3\n        /* \"#utility.yul\":20988:21081   */\n      tag_254\n      jump\t// in\n    tag_474:\n        /* \"#utility.yul\":21106:21107   */\n      0x05\n        /* \"#utility.yul\":21101:21104   */\n      dup3\n        /* \"#utility.yul\":21097:21108   */\n      add\n        /* \"#utility.yul\":21090:21108   */\n      swap1\n      pop\n        /* \"#utility.yul\":20714:21114   */\n      swap2\n      swap1\n      pop\n      jump\t// out\n        /* \"#utility.yul\":21120:21501   */\n    tag_75:\n        /* \"#utility.yul\":21305:21308   */\n      0x00\n        /* \"#utility.yul\":21327:21475   */\n      tag_476\n        /* \"#utility.yul\":21471:21474   */\n      dup3\n        /* \"#utility.yul\":21327:21475   */\n      tag_255\n      jump\t// in\n    tag_476:\n        /* \"#utility.yul\":21320:21475   */\n      swap2\n      pop\n        /* \"#utility.yul\":21492:21495   */\n      dup2\n        /* \"#utility.yul\":21485:21495   */\n      swap1\n      pop\n        /* \"#utility.yul\":21120:21501   */\n      swap2\n      swap1\n      pop\n      jump\t// out\n        /* \"#utility.yul\":21507:21660   */\n    tag_256:\n        /* \"#utility.yul\":21647:21652   */\n      0x4254430000000000000000000000000000000000000000000000000000000000\n        /* \"#utility.yul\":21643:21644   */\n      0x00\n        /* \"#utility.yul\":21635:21641   */\n      dup3\n        /* \"#utility.yul\":21631:21645   */\n      add\n        /* \"#utility.yul\":21624:21653   */\n      mstore\n        /* \"#utility.yul\":21507:21660   */\n      pop\n      jump\t// out\n        /* \"#utility.yul\":21666:22066   */\n    tag_257:\n        /* \"#utility.yul\":21826:21829   */\n      0x00\n        /* \"#utility.yul\":21847:21931   */\n      tag_479\n        /* \"#utility.yul\":21929:21930   */\n      0x03\n        /* \"#utility.yul\":21924:21927   */\n      dup4\n        /* \"#utility.yul\":21847:21931   */\n      tag_243\n      jump\t// in\n    tag_479:\n        /* \"#utility.yul\":21840:21931   */\n      swap2\n      pop\n        /* \"#utility.yul\":21940:22033   */\n      tag_480\n        /* \"#utility.yul\":22029:22032   */\n      dup3\n        /* \"#utility.yul\":21940:22033   */\n      tag_256\n      jump\t// in\n    tag_480:\n        /* \"#utility.yul\":22058:22059   */\n      0x03\n        /* \"#utility.yul\":22053:22056   */\n      dup3\n        /* \"#utility.yul\":22049:22060   */\n      add\n        /* \"#utility.yul\":22042:22060   */\n      swap1\n      pop\n        /* \"#utility.yul\":21666:22066   */\n      swap2\n      swap1\n      pop\n      jump\t// out\n        /* \"#utility.yul\":22072:22453   */\n    tag_99:\n        /* \"#utility.yul\":22257:22260   */\n      0x00\n        /* \"#utility.yul\":22279:22427   */\n      tag_482\n        /* \"#utility.yul\":22423:22426   */\n      dup3\n        /* \"#utility.yul\":22279:22427   */\n      tag_257\n      jump\t// in\n    tag_482:\n        /* \"#utility.yul\":22272:22427   */\n      swap2\n      pop\n        /* \"#utility.yul\":22444:22447   */\n      dup2\n        /* \"#utility.yul\":22437:22447   */\n      swap1\n      pop\n        /* \"#utility.yul\":22072:22453   */\n      swap2\n      swap1\n      pop\n      jump\t// out\n        /* \"#utility.yul\":22459:22613   */\n    tag_258:\n        /* \"#utility.yul\":22599:22605   */\n      0x5553445400000000000000000000000000000000000000000000000000000000\n        /* \"#utility.yul\":22595:22596   */\n      0x00\n        /* \"#utility.yul\":22587:22593   */\n      dup3\n        /* \"#utility.yul\":22583:22597   */\n      add\n        /* \"#utility.yul\":22576:22606   */\n      mstore\n        /* \"#utility.yul\":22459:22613   */\n      pop\n      jump\t// out\n        /* \"#utility.yul\":22619:23019   */\n    tag_259:\n        /* \"#utility.yul\":22779:22782   */\n      0x00\n        /* \"#utility.yul\":22800:22884   */\n      tag_485\n        /* \"#utility.yul\":22882:22883   */\n      0x04\n        /* \"#utility.yul\":22877:22880   */\n      dup4\n        /* \"#utility.yul\":22800:22884   */\n      tag_243\n      jump\t// in\n    tag_485:\n        /* \"#utility.yul\":22793:22884   */\n      swap2\n      pop\n        /* \"#utility.yul\":22893:22986   */\n      tag_486\n        /* \"#utility.yul\":22982:22985   */\n      dup3\n        /* \"#utility.yul\":22893:22986   */\n      tag_258\n      jump\t// in\n    tag_486:\n        /* \"#utility.yul\":23011:23012   */\n      0x04\n        /* \"#utility.yul\":23006:23009   */\n      dup3\n        /* \"#utility.yul\":23002:23013   */\n      add\n        /* \"#utility.yul\":22995:23013   */\n      swap1\n      pop\n        /* \"#utility.yul\":22619:23019   */\n      swap2\n      swap1\n      pop\n      jump\t// out\n        /* \"#utility.yul\":23025:23406   */\n    tag_101:\n        /* \"#utility.yul\":23210:23213   */\n      0x00\n        /* \"#utility.yul\":23232:23380   */\n      tag_488\n        /* \"#utility.yul\":23376:23379   */\n      dup3\n        /* \"#utility.yul\":23232:23380   */\n      tag_259\n      jump\t// in\n    tag_488:\n        /* \"#utility.yul\":23225:23380   */\n      swap2\n      pop\n        /* \"#utility.yul\":23397:23400   */\n      dup2\n        /* \"#utility.yul\":23390:23400   */\n      swap1\n      pop\n        /* \"#utility.yul\":23025:23406   */\n      swap2\n      swap1\n      pop\n      jump\t// out\n        /* \"#utility.yul\":23412:23802   */\n    tag_260:\n        /* \"#utility.yul\":23518:23521   */\n      0x00\n        /* \"#utility.yul\":23546:23585   */\n      tag_490\n        /* \"#utility.yul\":23579:23584   */\n      dup3\n        /* \"#utility.yul\":23546:23585   */\n      tag_219\n      jump\t// in\n    tag_490:\n        /* \"#utility.yul\":23601:23690   */\n      tag_491\n        /* \"#utility.yul\":23683:23689   */\n      dup2\n        /* \"#utility.yul\":23678:23681   */\n      dup6\n        /* \"#utility.yul\":23601:23690   */\n      tag_243\n      jump\t// in\n    tag_491:\n        /* \"#utility.yul\":23594:23690   */\n      swap4\n      pop\n        /* \"#utility.yul\":23699:23764   */\n      tag_492\n        /* \"#utility.yul\":23757:23763   */\n      dup2\n        /* \"#utility.yul\":23752:23755   */\n      dup6\n        /* \"#utility.yul\":23745:23749   */\n      0x20\n        /* \"#utility.yul\":23738:23743   */\n      dup7\n        /* \"#utility.yul\":23734:23750   */\n      add\n        /* \"#utility.yul\":23699:23764   */\n      tag_221\n      jump\t// in\n    tag_492:\n        /* \"#utility.yul\":23789:23795   */\n      dup1\n        /* \"#utility.yul\":23784:23787   */\n      dup5\n        /* \"#utility.yul\":23780:23796   */\n      add\n        /* \"#utility.yul\":23773:23796   */\n      swap2\n      pop\n        /* \"#utility.yul\":23522:23802   */\n      pop\n        /* \"#utility.yul\":23412:23802   */\n      swap3\n      swap2\n      pop\n      pop\n      jump\t// out\n        /* \"#utility.yul\":23808:24083   */\n    tag_132:\n        /* \"#utility.yul\":23940:23943   */\n      0x00\n        /* \"#utility.yul\":23962:24057   */\n      tag_494\n        /* \"#utility.yul\":24053:24056   */\n      dup3\n        /* \"#utility.yul\":24044:24050   */\n      dup5\n        /* \"#utility.yul\":23962:24057   */\n      tag_260\n      jump\t// in\n    tag_494:\n        /* \"#utility.yul\":23955:24057   */\n      swap2\n      pop\n        /* \"#utility.yul\":24074:24077   */\n      dup2\n        /* \"#utility.yul\":24067:24077   */\n      swap1\n      pop\n        /* \"#utility.yul\":23808:24083   */\n      swap3\n      swap2\n      pop\n      pop\n      jump\t// out\n        /* \"#utility.yul\":24089:24244   */\n    tag_261:\n        /* \"#utility.yul\":24229:24236   */\n      0x4550303035000000000000000000000000000000000000000000000000000000\n        /* \"#utility.yul\":24225:24226   */\n      0x00\n        /* \"#utility.yul\":24217:24223   */\n      dup3\n        /* \"#utility.yul\":24213:24227   */\n      add\n        /* \"#utility.yul\":24206:24237   */\n      mstore\n        /* \"#utility.yul\":24089:24244   */\n      pop\n      jump\t// out\n        /* \"#utility.yul\":24250:24650   */\n    tag_262:\n        /* \"#utility.yul\":24410:24413   */\n      0x00\n        /* \"#utility.yul\":24431:24515   */\n      tag_497\n        /* \"#utility.yul\":24513:24514   */\n      0x05\n        /* \"#utility.yul\":24508:24511   */\n      dup4\n        /* \"#utility.yul\":24431:24515   */\n      tag_243\n      jump\t// in\n    tag_497:\n        /* \"#utility.yul\":24424:24515   */\n      swap2\n      pop\n        /* \"#utility.yul\":24524:24617   */\n      tag_498\n        /* \"#utility.yul\":24613:24616   */\n      dup3\n        /* \"#utility.yul\":24524:24617   */\n      tag_261\n      jump\t// in\n    tag_498:\n        /* \"#utility.yul\":24642:24643   */\n      0x05\n        /* \"#utility.yul\":24637:24640   */\n      dup3\n        /* \"#utility.yul\":24633:24644   */\n      add\n        /* \"#utility.yul\":24626:24644   */\n      swap1\n      pop\n        /* \"#utility.yul\":24250:24650   */\n      swap2\n      swap1\n      pop\n      jump\t// out\n        /* \"#utility.yul\":24656:25037   */\n    tag_145:\n        /* \"#utility.yul\":24841:24844   */\n      0x00\n        /* \"#utility.yul\":24863:25011   */\n      tag_500\n        /* \"#utility.yul\":25007:25010   */\n      dup3\n        /* \"#utility.yul\":24863:25011   */\n      tag_262\n      jump\t// in\n    tag_500:\n        /* \"#utility.yul\":24856:25011   */\n      swap2\n      pop\n        /* \"#utility.yul\":25028:25031   */\n      dup2\n        /* \"#utility.yul\":25021:25031   */\n      swap1\n      pop\n        /* \"#utility.yul\":24656:25037   */\n      swap2\n      swap1\n      pop\n      jump\t// out\n        /* \"#utility.yul\":25043:25198   */\n    tag_263:\n        /* \"#utility.yul\":25183:25190   */\n      0x4550303037000000000000000000000000000000000000000000000000000000\n        /* \"#utility.yul\":25179:25180   */\n      0x00\n        /* \"#utility.yul\":25171:25177   */\n      dup3\n        /* \"#utility.yul\":25167:25181   */\n      add\n        /* \"#utility.yul\":25160:25191   */\n      mstore\n        /* \"#utility.yul\":25043:25198   */\n      pop\n      jump\t// out\n        /* \"#utility.yul\":25204:25604   */\n    tag_264:\n        /* \"#utility.yul\":25364:25367   */\n      0x00\n        /* \"#utility.yul\":25385:25469   */\n      tag_503\n        /* \"#utility.yul\":25467:25468   */\n      0x05\n        /* \"#utility.yul\":25462:25465   */\n      dup4\n        /* \"#utility.yul\":25385:25469   */\n      tag_243\n      jump\t// in\n    tag_503:\n        /* \"#utility.yul\":25378:25469   */\n      swap2\n      pop\n        /* \"#utility.yul\":25478:25571   */\n      tag_504\n        /* \"#utility.yul\":25567:25570   */\n      dup3\n        /* \"#utility.yul\":25478:25571   */\n      tag_263\n      jump\t// in\n    tag_504:\n        /* \"#utility.yul\":25596:25597   */\n      0x05\n        /* \"#utility.yul\":25591:25594   */\n      dup3\n        /* \"#utility.yul\":25587:25598   */\n      add\n        /* \"#utility.yul\":25580:25598   */\n      swap1\n      pop\n        /* \"#utility.yul\":25204:25604   */\n      swap2\n      swap1\n      pop\n      jump\t// out\n        /* \"#utility.yul\":25610:25991   */\n    tag_172:\n        /* \"#utility.yul\":25795:25798   */\n      0x00\n        /* \"#utility.yul\":25817:25965   */\n      tag_506\n        /* \"#utility.yul\":25961:25964   */\n      dup3\n        /* \"#utility.yul\":25817:25965   */\n      tag_264\n      jump\t// in\n    tag_506:\n        /* \"#utility.yul\":25810:25965   */\n      swap2\n      pop\n        /* \"#utility.yul\":25982:25985   */\n      dup2\n        /* \"#utility.yul\":25975:25985   */\n      swap1\n      pop\n        /* \"#utility.yul\":25610:25991   */\n      swap2\n      swap1\n      pop\n      jump\t// out\n        /* \"#utility.yul\":26021:26895   */\n    tag_265:\n        /* \"#utility.yul\":26124:26127   */\n      0x00\n        /* \"#utility.yul\":26161:26166   */\n      dup2\n        /* \"#utility.yul\":26155:26167   */\n      sload\n        /* \"#utility.yul\":26190:26226   */\n      tag_508\n        /* \"#utility.yul\":26216:26225   */\n      dup2\n        /* \"#utility.yul\":26190:26226   */\n      tag_79\n      jump\t// in\n    tag_508:\n        /* \"#utility.yul\":26242:26331   */\n      tag_509\n        /* \"#utility.yul\":26324:26330   */\n      dup2\n        /* \"#utility.yul\":26319:26322   */\n      dup7\n        /* \"#utility.yul\":26242:26331   */\n      tag_243\n      jump\t// in\n    tag_509:\n        /* \"#utility.yul\":26235:26331   */\n      swap5\n      pop\n        /* \"#utility.yul\":26362:26363   */\n      0x01\n        /* \"#utility.yul\":26351:26360   */\n      dup3\n        /* \"#utility.yul\":26347:26364   */\n      and\n        /* \"#utility.yul\":26378:26379   */\n      0x00\n        /* \"#utility.yul\":26373:26539   */\n      dup2\n      eq\n      tag_511\n      jumpi\n        /* \"#utility.yul\":26553:26554   */\n      0x01\n        /* \"#utility.yul\":26548:26889   */\n      dup2\n      eq\n      tag_512\n      jumpi\n        /* \"#utility.yul\":26340:26889   */\n      jump(tag_510)\n        /* \"#utility.yul\":26373:26539   */\n    tag_511:\n        /* \"#utility.yul\":26457:26461   */\n      0xff\n        /* \"#utility.yul\":26453:26462   */\n      not\n        /* \"#utility.yul\":26442:26451   */\n      dup4\n        /* \"#utility.yul\":26438:26463   */\n      and\n        /* \"#utility.yul\":26433:26436   */\n      dup7\n        /* \"#utility.yul\":26426:26464   */\n      mstore\n        /* \"#utility.yul\":26519:26525   */\n      dup2\n        /* \"#utility.yul\":26512:26526   */\n      iszero\n        /* \"#utility.yul\":26505:26527   */\n      iszero\n        /* \"#utility.yul\":26497:26503   */\n      dup3\n        /* \"#utility.yul\":26493:26528   */\n      mul\n        /* \"#utility.yul\":26488:26491   */\n      dup7\n        /* \"#utility.yul\":26484:26529   */\n      add\n        /* \"#utility.yul\":26477:26529   */\n      swap4\n      pop\n        /* \"#utility.yul\":26373:26539   */\n      jump(tag_510)\n        /* \"#utility.yul\":26548:26889   */\n    tag_512:\n        /* \"#utility.yul\":26615:26653   */\n      tag_513\n        /* \"#utility.yul\":26647:26652   */\n      dup6\n        /* \"#utility.yul\":26615:26653   */\n      tag_228\n      jump\t// in\n    tag_513:\n        /* \"#utility.yul\":26675:26676   */\n      0x00\n        /* \"#utility.yul\":26689:26843   */\n    tag_514:\n        /* \"#utility.yul\":26703:26709   */\n      dup4\n        /* \"#utility.yul\":26700:26701   */\n      dup2\n        /* \"#utility.yul\":26697:26710   */\n      lt\n        /* \"#utility.yul\":26689:26843   */\n      iszero\n      tag_516\n      jumpi\n        /* \"#utility.yul\":26777:26784   */\n      dup2\n        /* \"#utility.yul\":26771:26785   */\n      sload\n        /* \"#utility.yul\":26767:26768   */\n      dup2\n        /* \"#utility.yul\":26762:26765   */\n      dup10\n        /* \"#utility.yul\":26758:26769   */\n      add\n        /* \"#utility.yul\":26751:26786   */\n      mstore\n        /* \"#utility.yul\":26827:26828   */\n      0x01\n        /* \"#utility.yul\":26818:26825   */\n      dup3\n        /* \"#utility.yul\":26814:26829   */\n      add\n        /* \"#utility.yul\":26803:26829   */\n      swap2\n      pop\n        /* \"#utility.yul\":26725:26729   */\n      0x20\n        /* \"#utility.yul\":26722:26723   */\n      dup2\n        /* \"#utility.yul\":26718:26730   */\n      add\n        /* \"#utility.yul\":26713:26730   */\n      swap1\n      pop\n        /* \"#utility.yul\":26689:26843   */\n      jump(tag_514)\n    tag_516:\n        /* \"#utility.yul\":26872:26878   */\n      dup4\n        /* \"#utility.yul\":26867:26870   */\n      dup9\n        /* \"#utility.yul\":26863:26879   */\n      add\n        /* \"#utility.yul\":26856:26879   */\n      swap6\n      pop\n        /* \"#utility.yul\":26555:26889   */\n      pop\n      pop\n        /* \"#utility.yul\":26340:26889   */\n    tag_510:\n      pop\n        /* \"#utility.yul\":26128:26895   */\n      pop\n      pop\n        /* \"#utility.yul\":26021:26895   */\n      swap3\n      swap2\n      pop\n      pop\n      jump\t// out\n        /* \"#utility.yul\":26901:27170   */\n    tag_194:\n        /* \"#utility.yul\":27030:27033   */\n      0x00\n        /* \"#utility.yul\":27052:27144   */\n      tag_518\n        /* \"#utility.yul\":27140:27143   */\n      dup3\n        /* \"#utility.yul\":27131:27137   */\n      dup5\n        /* \"#utility.yul\":27052:27144   */\n      tag_265\n      jump\t// in\n    tag_518:\n        /* \"#utility.yul\":27045:27144   */\n      swap2\n      pop\n        /* \"#utility.yul\":27161:27164   */\n      dup2\n        /* \"#utility.yul\":27154:27164   */\n      swap1\n      pop\n        /* \"#utility.yul\":26901:27170   */\n      swap3\n      swap2\n      pop\n      pop\n      jump\t// out\n        /* \"#utility.yul\":27176:27356   */\n    tag_266:\n        /* \"#utility.yul\":27224:27301   */\n      0x4e487b7100000000000000000000000000000000000000000000000000000000\n        /* \"#utility.yul\":27221:27222   */\n      0x00\n        /* \"#utility.yul\":27214:27302   */\n      mstore\n        /* \"#utility.yul\":27321:27325   */\n      0x11\n        /* \"#utility.yul\":27318:27319   */\n      0x04\n        /* \"#utility.yul\":27311:27326   */\n      mstore\n        /* \"#utility.yul\":27345:27349   */\n      0x24\n        /* \"#utility.yul\":27342:27343   */\n      0x00\n        /* \"#utility.yul\":27335:27350   */\n      revert\n        /* \"#utility.yul\":27362:27595   */\n    tag_200:\n        /* \"#utility.yul\":27401:27404   */\n      0x00\n        /* \"#utility.yul\":27424:27448   */\n      tag_521\n        /* \"#utility.yul\":27442:27447   */\n      dup3\n        /* \"#utility.yul\":27424:27448   */\n      tag_216\n      jump\t// in\n    tag_521:\n        /* \"#utility.yul\":27415:27448   */\n      swap2\n      pop\n        /* \"#utility.yul\":27470:27536   */\n      0xffffffffffffffffffffffffffffffffffffffffffffffffffffffffffffffff\n        /* \"#utility.yul\":27463:27468   */\n      dup3\n        /* \"#utility.yul\":27460:27537   */\n      sub\n        /* \"#utility.yul\":27457:27560   */\n      tag_522\n      jumpi\n        /* \"#utility.yul\":27540:27558   */\n      tag_523\n      tag_266\n      jump\t// in\n    tag_523:\n        /* \"#utility.yul\":27457:27560   */\n    tag_522:\n        /* \"#utility.yul\":27587:27588   */\n      0x01\n        /* \"#utility.yul\":27580:27585   */\n      dup3\n        /* \"#utility.yul\":27576:27589   */\n      add\n        /* \"#utility.yul\":27569:27589   */\n      swap1\n      pop\n        /* \"#utility.yul\":27362:27595   */\n      swap2\n      swap1\n      pop\n      jump\t// out\n        /* \"#utility.yul\":27601:27828   */\n    tag_267:\n        /* \"#utility.yul\":27741:27775   */\n      0x5472616e73616374696f6e207769746820676976656e206576656e744964206e\n        /* \"#utility.yul\":27737:27738   */\n      0x00\n        /* \"#utility.yul\":27729:27735   */\n      dup3\n        /* \"#utility.yul\":27725:27739   */\n      add\n        /* \"#utility.yul\":27718:27776   */\n      mstore\n        /* \"#utility.yul\":27810:27820   */\n      0x6f7420666f756e64000000000000000000000000000000000000000000000000\n        /* \"#utility.yul\":27805:27807   */\n      0x20\n        /* \"#utility.yul\":27797:27803   */\n      dup3\n        /* \"#utility.yul\":27793:27808   */\n      add\n        /* \"#utility.yul\":27786:27821   */\n      mstore\n        /* \"#utility.yul\":27601:27828   */\n      pop\n      jump\t// out\n        /* \"#utility.yul\":27834:28200   */\n    tag_268:\n        /* \"#utility.yul\":27976:27979   */\n      0x00\n        /* \"#utility.yul\":27997:28064   */\n      tag_526\n        /* \"#utility.yul\":28061:28063   */\n      0x28\n        /* \"#utility.yul\":28056:28059   */\n      dup4\n        /* \"#utility.yul\":27997:28064   */\n      tag_220\n      jump\t// in\n    tag_526:\n        /* \"#utility.yul\":27990:28064   */\n      swap2\n      pop\n        /* \"#utility.yul\":28073:28166   */\n      tag_527\n        /* \"#utility.yul\":28162:28165   */\n      dup3\n        /* \"#utility.yul\":28073:28166   */\n      tag_267\n      jump\t// in\n    tag_527:\n        /* \"#utility.yul\":28191:28193   */\n      0x40\n        /* \"#utility.yul\":28186:28189   */\n      dup3\n        /* \"#utility.yul\":28182:28194   */\n      add\n        /* \"#utility.yul\":28175:28194   */\n      swap1\n      pop\n        /* \"#utility.yul\":27834:28200   */\n      swap2\n      swap1\n      pop\n      jump\t// out\n        /* \"#utility.yul\":28206:28625   */\n    tag_202:\n        /* \"#utility.yul\":28372:28376   */\n      0x00\n        /* \"#utility.yul\":28410:28412   */\n      0x20\n        /* \"#utility.yul\":28399:28408   */\n      dup3\n        /* \"#utility.yul\":28395:28413   */\n      add\n        /* \"#utility.yul\":28387:28413   */\n      swap1\n      pop\n        /* \"#utility.yul\":28459:28468   */\n      dup2\n        /* \"#utility.yul\":28453:28457   */\n      dup2\n        /* \"#utility.yul\":28449:28469   */\n      sub\n        /* \"#utility.yul\":28445:28446   */\n      0x00\n        /* \"#utility.yul\":28434:28443   */\n      dup4\n        /* \"#utility.yul\":28430:28447   */\n      add\n        /* \"#utility.yul\":28423:28470   */\n      mstore\n        /* \"#utility.yul\":28487:28618   */\n      tag_529\n        /* \"#utility.yul\":28613:28617   */\n      dup2\n        /* \"#utility.yul\":28487:28618   */\n      tag_268\n      jump\t// in\n    tag_529:\n        /* \"#utility.yul\":28479:28618   */\n      swap1\n      pop\n        /* \"#utility.yul\":28206:28625   */\n      swap2\n      swap1\n      pop\n      jump\t// out\n\n    auxdata: 0xa26469706673582212206d7f2407f4ef8450f75388644c5dfbc79ef64e9c9f29c48410296991ab801f6464736f6c63430008120033\n}\n",
				"bytecode": {
					"linkReferences": {},
					"object": "608060405234801561001057600080fd5b506120a9806100206000396000f3fe608060405234801561001057600080fd5b506004361061009e5760003560e01c8063b351ae9911610066578063b351ae991461015b578063c1c102e81461018b578063c4f9ef20146101a7578063d85637e7146101c3578063d88936ce146101df5761009e565b8063606de0cb146100a35780639ace38c2146100bf5780639f2967c7146100f1578063a75458c21461010d578063ac2ccd0714610129575b600080fd5b6100bd60048036038101906100b8919061138b565b6101fb565b005b6100d960048036038101906100d49190611434565b6103bf565b6040516100e893929190611521565b60405180910390f35b61010b60048036038101906101069190611566565b610529565b005b6101276004803603810190610122919061138b565b6106c9565b005b610143600480360381019061013e91906115fd565b61088d565b60405161015293929190611521565b60405180910390f35b61017560048036038101906101709190611646565b6109f1565b60405161018291906116cd565b60405180910390f35b6101a560048036038101906101a09190611566565b610a29565b005b6101c160048036038101906101bc9190611566565b610bc9565b005b6101dd60048036038101906101d891906116e8565b610d69565b005b6101f960048036038101906101f49190611566565b610f51565b005b6000808054905090506000600181600181540180825580915050039060005260206000209050506000808281548110610237576102366117a6565b5b906000526020600020906004020190506040518060400160405280600981526020017f453030303130303035000000000000000000000000000000000000000000000081525081600001908161028d91906119e1565b508781600101908161029f91906119e1565b50338160020160006101000a81548173ffffffffffffffffffffffffffffffffffffffff021916908373ffffffffffffffffffffffffffffffffffffffff16021790555086816003016040516102f490611b0a565b908152602001604051809103902081905550858160030160405161031790611b6b565b908152602001604051809103902081905550848160030160405161033a90611bcc565b908152602001604051809103902081905550838160030160405161035d90611c2d565b908152602001604051809103902081905550428160030160405161038090611c8e565b90815260200160405180910390208190555082816003016040516103a390611cef565b9081526020016040518091039020819055505050505050505050565b600081815481106103cf57600080fd5b90600052602060002090600402016000915090508060000180546103f290611804565b80601f016020809104026020016040519081016040528092919081815260200182805461041e90611804565b801561046b5780601f106104405761010080835404028352916020019161046b565b820191906000526020600020905b81548152906001019060200180831161044e57829003601f168201915b50505050509080600101805461048090611804565b80601f01602080910402602001604051908101604052809291908181526020018280546104ac90611804565b80156104f95780601f106104ce576101008083540402835291602001916104f9565b820191906000526020600020905b8154815290600101906020018083116104dc57829003601f168201915b5050505050908060020160009054906101000a900473ffffffffffffffffffffffffffffffffffffffff16905083565b6000808054905090506000600181600181540180825580915050039060005260206000209050506000808281548110610565576105646117a6565b5b906000526020600020906004020190506040518060400160405280600981526020017f45303030323030303100000000000000000000000000000000000000000000008152508160000190816105bb91906119e1565b50868160010190816105cd91906119e1565b50338160020160006101000a81548173ffffffffffffffffffffffffffffffffffffffff021916908373ffffffffffffffffffffffffffffffffffffffff160217905550858160030160405161062290611b0a565b908152602001604051809103902081905550848160030160405161064590611b6b565b908152602001604051809103902081905550838160030160405161066890611d50565b908152602001604051809103902081905550828160030160405161068b90611db1565b90815260200160405180910390208190555042816003016040516106ae90611c8e565b90815260200160405180910390208190555050505050505050565b6000808054905090506000600181600181540180825580915050039060005260206000209050506000808281548110610705576107046117a6565b5b906000526020600020906004020190506040518060400160405280600981526020017f453030303130303035000000000000000000000000000000000000000000000081525081600001908161075b91906119e1565b508781600101908161076d91906119e1565b50338160020160006101000a81548173ffffffffffffffffffffffffffffffffffffffff021916908373ffffffffffffffffffffffffffffffffffffffff16021790555086816003016040516107c290611b0a565b90815260200160405180910390208190555085816003016040516107e590611b6b565b908152602001604051809103902081905550848160030160405161080890611bcc565b908152602001604051809103902081905550838160030160405161082b90611c2d565b908152602001604051809103902081905550428160030160405161084e90611c8e565b908152602001604051809103902081905550828160030160405161087190611cef565b9081526020016040518091039020819055505050505050505050565b60608060008061089c856110f1565b905080600001816001018260020160009054906101000a900473ffffffffffffffffffffffffffffffffffffffff168280546108d790611804565b80601f016020809104026020016040519081016040528092919081815260200182805461090390611804565b80156109505780601f1061092557610100808354040283529160200191610950565b820191906000526020600020905b81548152906001019060200180831161093357829003601f168201915b5050505050925081805461096390611804565b80601f016020809104026020016040519081016040528092919081815260200182805461098f90611804565b80156109dc5780601f106109b1576101008083540402835291602001916109dc565b820191906000526020600020905b8154815290600101906020018083116109bf57829003601f168201915b50505050509150935093509350509193909250565b6000806109fd846110f1565b90508060030183604051610a119190611df7565b90815260200160405180910390205491505092915050565b6000808054905090506000600181600181540180825580915050039060005260206000209050506000808281548110610a6557610a646117a6565b5b906000526020600020906004020190506040518060400160405280600981526020017f4530303031303030330000000000000000000000000000000000000000000000815250816000019081610abb91906119e1565b5086816001019081610acd91906119e1565b50338160020160006101000a81548173ffffffffffffffffffffffffffffffffffffffff021916908373ffffffffffffffffffffffffffffffffffffffff1602179055508581600301604051610b2290611b0a565b9081526020016040518091039020819055508481600301604051610b4590611b6b565b9081526020016040518091039020819055508381600301604051610b6890611bcc565b9081526020016040518091039020819055504281600301604051610b8b90611c8e565b9081526020016040518091039020819055508281600301604051610bae90611e5a565b90815260200160405180910390208190555050505050505050565b6000808054905090506000600181600181540180825580915050039060005260206000209050506000808281548110610c0557610c046117a6565b5b906000526020600020906004020190506040518060400160405280600981526020017f4530303031303030310000000000000000000000000000000000000000000000815250816000019081610c5b91906119e1565b5086816001019081610c6d91906119e1565b50338160020160006101000a81548173ffffffffffffffffffffffffffffffffffffffff021916908373ffffffffffffffffffffffffffffffffffffffff1602179055508581600301604051610cc290611b0a565b9081526020016040518091039020819055508481600301604051610ce590611b6b565b9081526020016040518091039020819055508381600301604051610d0890611bcc565b9081526020016040518091039020819055504281600301604051610d2b90611c8e565b9081526020016040518091039020819055508281600301604051610d4e90611e5a565b90815260200160405180910390208190555050505050505050565b6000808054905090506000600181600181540180825580915050039060005260206000209050506000808281548110610da557610da46117a6565b5b906000526020600020906004020190506040518060400160405280600981526020017f4530303031303030340000000000000000000000000000000000000000000000815250816000019081610dfb91906119e1565b5088816001019081610e0d91906119e1565b50338160020160006101000a81548173ffffffffffffffffffffffffffffffffffffffff021916908373ffffffffffffffffffffffffffffffffffffffff1602179055508781600301604051610e6290611b0a565b9081526020016040518091039020819055508681600301604051610e8590611b6b565b9081526020016040518091039020819055508581600301604051610ea890611bcc565b9081526020016040518091039020819055508481600301604051610ecb90611c2d565b9081526020016040518091039020819055504281600301604051610eee90611c8e565b9081526020016040518091039020819055508381600301604051610f1190611cef565b9081526020016040518091039020819055508281600301604051610f3490611ebb565b908152602001604051809103902081905550505050505050505050565b6000808054905090506000600181600181540180825580915050039060005260206000209050506000808281548110610f8d57610f8c6117a6565b5b906000526020600020906004020190506040518060400160405280600981526020017f4530303031303030320000000000000000000000000000000000000000000000815250816000019081610fe391906119e1565b5086816001019081610ff591906119e1565b50338160020160006101000a81548173ffffffffffffffffffffffffffffffffffffffff021916908373ffffffffffffffffffffffffffffffffffffffff160217905550858160030160405161104a90611b0a565b908152602001604051809103902081905550848160030160405161106d90611b6b565b908152602001604051809103902081905550838160030160405161109090611bcc565b90815260200160405180910390208190555042816003016040516110b390611c8e565b90815260200160405180910390208190555082816003016040516110d690611e5a565b90815260200160405180910390208190555050505050505050565b600080600090505b6000805490508110156111ba57826040516020016111179190611df7565b6040516020818303038152906040528051906020012060008281548110611141576111406117a6565b5b90600052602060002090600402016001016040516020016111629190611f53565b60405160208183030381529060405280519060200120036111a75760008181548110611191576111906117a6565b5b90600052602060002090600402019150506111f6565b80806111b290611f99565b9150506110f9565b506040517f08c379a00000000000000000000000000000000000000000000000000000000081526004016111ed90612053565b60405180910390fd5b919050565b6000604051905090565b600080fd5b600080fd5b600080fd5b600080fd5b6000601f19601f8301169050919050565b7f4e487b7100000000000000000000000000000000000000000000000000000000600052604160045260246000fd5b61126282611219565b810181811067ffffffffffffffff821117156112815761128061122a565b5b80604052505050565b60006112946111fb565b90506112a08282611259565b919050565b600067ffffffffffffffff8211156112c0576112bf61122a565b5b6112c982611219565b9050602081019050919050565b82818337600083830152505050565b60006112f86112f3846112a5565b61128a565b90508281526020810184848401111561131457611313611214565b5b61131f8482856112d6565b509392505050565b600082601f83011261133c5761133b61120f565b5b813561134c8482602086016112e5565b91505092915050565b6000819050919050565b61136881611355565b811461137357600080fd5b50565b6000813590506113858161135f565b92915050565b60008060008060008060c087890312156113a8576113a7611205565b5b600087013567ffffffffffffffff8111156113c6576113c561120a565b5b6113d289828a01611327565b96505060206113e389828a01611376565b95505060406113f489828a01611376565b945050606061140589828a01611376565b935050608061141689828a01611376565b92505060a061142789828a01611376565b9150509295509295509295565b60006020828403121561144a57611449611205565b5b600061145884828501611376565b91505092915050565b600081519050919050565b600082825260208201905092915050565b60005b8381101561149b578082015181840152602081019050611480565b60008484015250505050565b60006114b282611461565b6114bc818561146c565b93506114cc81856020860161147d565b6114d581611219565b840191505092915050565b600073ffffffffffffffffffffffffffffffffffffffff82169050919050565b600061150b826114e0565b9050919050565b61151b81611500565b82525050565b6000606082019050818103600083015261153b81866114a7565b9050818103602083015261154f81856114a7565b905061155e6040830184611512565b949350505050565b600080600080600060a0868803121561158257611581611205565b5b600086013567ffffffffffffffff8111156115a05761159f61120a565b5b6115ac88828901611327565b95505060206115bd88828901611376565b94505060406115ce88828901611376565b93505060606115df88828901611376565b92505060806115f088828901611376565b9150509295509295909350565b60006020828403121561161357611612611205565b5b600082013567ffffffffffffffff8111156116315761163061120a565b5b61163d84828501611327565b91505092915050565b6000806040838503121561165d5761165c611205565b5b600083013567ffffffffffffffff81111561167b5761167a61120a565b5b61168785828601611327565b925050602083013567ffffffffffffffff8111156116a8576116a761120a565b5b6116b485828601611327565b9150509250929050565b6116c781611355565b82525050565b60006020820190506116e260008301846116be565b92915050565b600080600080600080600060e0888a03121561170757611706611205565b5b600088013567ffffffffffffffff8111156117255761172461120a565b5b6117318a828b01611327565b97505060206117428a828b01611376565b96505060406117538a828b01611376565b95505060606117648a828b01611376565b94505060806117758a828b01611376565b93505060a06117868a828b01611376565b92505060c06117978a828b01611376565b91505092959891949750929550565b7f4e487b7100000000000000000000000000000000000000000000000000000000600052603260045260246000fd5b7f4e487b7100000000000000000000000000000000000000000000000000000000600052602260045260246000fd5b6000600282049050600182168061181c57607f821691505b60208210810361182f5761182e6117d5565b5b50919050565b60008190508160005260206000209050919050565b60006020601f8301049050919050565b600082821b905092915050565b6000600883026118977fffffffffffffffffffffffffffffffffffffffffffffffffffffffffffffffff8261185a565b6118a1868361185a565b95508019841693508086168417925050509392505050565b6000819050919050565b60006118de6118d96118d484611355565b6118b9565b611355565b9050919050565b6000819050919050565b6118f8836118c3565b61190c611904826118e5565b848454611867565b825550505050565b600090565b611921611914565b61192c8184846118ef565b505050565b5b8181101561195057611945600082611919565b600181019050611932565b5050565b601f8211156119955761196681611835565b61196f8461184a565b8101602085101561197e578190505b61199261198a8561184a565b830182611931565b50505b505050565b600082821c905092915050565b60006119b86000198460080261199a565b1980831691505092915050565b60006119d183836119a7565b9150826002028217905092915050565b6119ea82611461565b67ffffffffffffffff811115611a0357611a0261122a565b5b611a0d8254611804565b611a18828285611954565b600060209050601f831160018114611a4b5760008415611a39578287015190505b611a4385826119c5565b865550611aab565b601f198416611a5986611835565b60005b82811015611a8157848901518255600182019150602085019450602081019050611a5c565b86831015611a9e5784890151611a9a601f8916826119a7565b8355505b6001600288020188555050505b505050505050565b600081905092915050565b7f4550303031000000000000000000000000000000000000000000000000000000600082015250565b6000611af4600583611ab3565b9150611aff82611abe565b600582019050919050565b6000611b1582611ae7565b9150819050919050565b7f4550303032000000000000000000000000000000000000000000000000000000600082015250565b6000611b55600583611ab3565b9150611b6082611b1f565b600582019050919050565b6000611b7682611b48565b9150819050919050565b7f4550303033000000000000000000000000000000000000000000000000000000600082015250565b6000611bb6600583611ab3565b9150611bc182611b80565b600582019050919050565b6000611bd782611ba9565b9150819050919050565b7f4550303034000000000000000000000000000000000000000000000000000000600082015250565b6000611c17600583611ab3565b9150611c2282611be1565b600582019050919050565b6000611c3882611c0a565b9150819050919050565b7f7472616e735f74696d6500000000000000000000000000000000000000000000600082015250565b6000611c78600a83611ab3565b9150611c8382611c42565b600a82019050919050565b6000611c9982611c6b565b9150819050919050565b7f4550303036000000000000000000000000000000000000000000000000000000600082015250565b6000611cd9600583611ab3565b9150611ce482611ca3565b600582019050919050565b6000611cfa82611ccc565b9150819050919050565b7f4254430000000000000000000000000000000000000000000000000000000000600082015250565b6000611d3a600383611ab3565b9150611d4582611d04565b600382019050919050565b6000611d5b82611d2d565b9150819050919050565b7f5553445400000000000000000000000000000000000000000000000000000000600082015250565b6000611d9b600483611ab3565b9150611da682611d65565b600482019050919050565b6000611dbc82611d8e565b9150819050919050565b6000611dd182611461565b611ddb8185611ab3565b9350611deb81856020860161147d565b80840191505092915050565b6000611e038284611dc6565b915081905092915050565b7f4550303035000000000000000000000000000000000000000000000000000000600082015250565b6000611e44600583611ab3565b9150611e4f82611e0e565b600582019050919050565b6000611e6582611e37565b9150819050919050565b7f4550303037000000000000000000000000000000000000000000000000000000600082015250565b6000611ea5600583611ab3565b9150611eb082611e6f565b600582019050919050565b6000611ec682611e98565b9150819050919050565b60008154611edd81611804565b611ee78186611ab3565b94506001821660008114611f025760018114611f1757611f4a565b60ff1983168652811515820286019350611f4a565b611f2085611835565b60005b83811015611f4257815481890152600182019150602081019050611f23565b838801955050505b50505092915050565b6000611f5f8284611ed0565b915081905092915050565b7f4e487b7100000000000000000000000000000000000000000000000000000000600052601160045260246000fd5b6000611fa482611355565b91507fffffffffffffffffffffffffffffffffffffffffffffffffffffffffffffffff8203611fd657611fd5611f6a565b5b600182019050919050565b7f5472616e73616374696f6e207769746820676976656e206576656e744964206e60008201527f6f7420666f756e64000000000000000000000000000000000000000000000000602082015250565b600061203d60288361146c565b915061204882611fe1565b604082019050919050565b6000602082019050818103600083015261206c81612030565b905091905056fea26469706673582212206d7f2407f4ef8450f75388644c5dfbc79ef64e9c9f29c48410296991ab801f6464736f6c63430008120033",
					"opcodes": "PUSH1 0x80 PUSH1 0x40 MSTORE CALLVALUE DUP1 ISZERO PUSH2 0x10 JUMPI PUSH1 0x0 DUP1 REVERT JUMPDEST POP PUSH2 0x20A9 DUP1 PUSH2 0x20 PUSH1 0x0 CODECOPY PUSH1 0x0 RETURN INVALID PUSH1 0x80 PUSH1 0x40 MSTORE CALLVALUE DUP1 ISZERO PUSH2 0x10 JUMPI PUSH1 0x0 DUP1 REVERT JUMPDEST POP PUSH1 0x4 CALLDATASIZE LT PUSH2 0x9E JUMPI PUSH1 0x0 CALLDATALOAD PUSH1 0xE0 SHR DUP1 PUSH4 0xB351AE99 GT PUSH2 0x66 JUMPI DUP1 PUSH4 0xB351AE99 EQ PUSH2 0x15B JUMPI DUP1 PUSH4 0xC1C102E8 EQ PUSH2 0x18B JUMPI DUP1 PUSH4 0xC4F9EF20 EQ PUSH2 0x1A7 JUMPI DUP1 PUSH4 0xD85637E7 EQ PUSH2 0x1C3 JUMPI DUP1 PUSH4 0xD88936CE EQ PUSH2 0x1DF JUMPI PUSH2 0x9E JUMP JUMPDEST DUP1 PUSH4 0x606DE0CB EQ PUSH2 0xA3 JUMPI DUP1 PUSH4 0x9ACE38C2 EQ PUSH2 0xBF JUMPI DUP1 PUSH4 0x9F2967C7 EQ PUSH2 0xF1 JUMPI DUP1 PUSH4 0xA75458C2 EQ PUSH2 0x10D JUMPI DUP1 PUSH4 0xAC2CCD07 EQ PUSH2 0x129 JUMPI JUMPDEST PUSH1 0x0 DUP1 REVERT JUMPDEST PUSH2 0xBD PUSH1 0x4 DUP1 CALLDATASIZE SUB DUP2 ADD SWAP1 PUSH2 0xB8 SWAP2 SWAP1 PUSH2 0x138B JUMP JUMPDEST PUSH2 0x1FB JUMP JUMPDEST STOP JUMPDEST PUSH2 0xD9 PUSH1 0x4 DUP1 CALLDATASIZE SUB DUP2 ADD SWAP1 PUSH2 0xD4 SWAP2 SWAP1 PUSH2 0x1434 JUMP JUMPDEST PUSH2 0x3BF JUMP JUMPDEST PUSH1 0x40 MLOAD PUSH2 0xE8 SWAP4 SWAP3 SWAP2 SWAP1 PUSH2 0x1521 JUMP JUMPDEST PUSH1 0x40 MLOAD DUP1 SWAP2 SUB SWAP1 RETURN JUMPDEST PUSH2 0x10B PUSH1 0x4 DUP1 CALLDATASIZE SUB DUP2 ADD SWAP1 PUSH2 0x106 SWAP2 SWAP1 PUSH2 0x1566 JUMP JUMPDEST PUSH2 0x529 JUMP JUMPDEST STOP JUMPDEST PUSH2 0x127 PUSH1 0x4 DUP1 CALLDATASIZE SUB DUP2 ADD SWAP1 PUSH2 0x122 SWAP2 SWAP1 PUSH2 0x138B JUMP JUMPDEST PUSH2 0x6C9 JUMP JUMPDEST STOP JUMPDEST PUSH2 0x143 PUSH1 0x4 DUP1 CALLDATASIZE SUB DUP2 ADD SWAP1 PUSH2 0x13E SWAP2 SWAP1 PUSH2 0x15FD JUMP JUMPDEST PUSH2 0x88D JUMP JUMPDEST PUSH1 0x40 MLOAD PUSH2 0x152 SWAP4 SWAP3 SWAP2 SWAP1 PUSH2 0x1521 JUMP JUMPDEST PUSH1 0x40 MLOAD DUP1 SWAP2 SUB SWAP1 RETURN JUMPDEST PUSH2 0x175 PUSH1 0x4 DUP1 CALLDATASIZE SUB DUP2 ADD SWAP1 PUSH2 0x170 SWAP2 SWAP1 PUSH2 0x1646 JUMP JUMPDEST PUSH2 0x9F1 JUMP JUMPDEST PUSH1 0x40 MLOAD PUSH2 0x182 SWAP2 SWAP1 PUSH2 0x16CD JUMP JUMPDEST PUSH1 0x40 MLOAD DUP1 SWAP2 SUB SWAP1 RETURN JUMPDEST PUSH2 0x1A5 PUSH1 0x4 DUP1 CALLDATASIZE SUB DUP2 ADD SWAP1 PUSH2 0x1A0 SWAP2 SWAP1 PUSH2 0x1566 JUMP JUMPDEST PUSH2 0xA29 JUMP JUMPDEST STOP JUMPDEST PUSH2 0x1C1 PUSH1 0x4 DUP1 CALLDATASIZE SUB DUP2 ADD SWAP1 PUSH2 0x1BC SWAP2 SWAP1 PUSH2 0x1566 JUMP JUMPDEST PUSH2 0xBC9 JUMP JUMPDEST STOP JUMPDEST PUSH2 0x1DD PUSH1 0x4 DUP1 CALLDATASIZE SUB DUP2 ADD SWAP1 PUSH2 0x1D8 SWAP2 SWAP1 PUSH2 0x16E8 JUMP JUMPDEST PUSH2 0xD69 JUMP JUMPDEST STOP JUMPDEST PUSH2 0x1F9 PUSH1 0x4 DUP1 CALLDATASIZE SUB DUP2 ADD SWAP1 PUSH2 0x1F4 SWAP2 SWAP1 PUSH2 0x1566 JUMP JUMPDEST PUSH2 0xF51 JUMP JUMPDEST STOP JUMPDEST PUSH1 0x0 DUP1 DUP1 SLOAD SWAP1 POP SWAP1 POP PUSH1 0x0 PUSH1 0x1 DUP2 PUSH1 0x1 DUP2 SLOAD ADD DUP1 DUP3 SSTORE DUP1 SWAP2 POP POP SUB SWAP1 PUSH1 0x0 MSTORE PUSH1 0x20 PUSH1 0x0 KECCAK256 SWAP1 POP POP PUSH1 0x0 DUP1 DUP3 DUP2 SLOAD DUP2 LT PUSH2 0x237 JUMPI PUSH2 0x236 PUSH2 0x17A6 JUMP JUMPDEST JUMPDEST SWAP1 PUSH1 0x0 MSTORE PUSH1 0x20 PUSH1 0x0 KECCAK256 SWAP1 PUSH1 0x4 MUL ADD SWAP1 POP PUSH1 0x40 MLOAD DUP1 PUSH1 0x40 ADD PUSH1 0x40 MSTORE DUP1 PUSH1 0x9 DUP2 MSTORE PUSH1 0x20 ADD PUSH32 0x4530303031303030350000000000000000000000000000000000000000000000 DUP2 MSTORE POP DUP2 PUSH1 0x0 ADD SWAP1 DUP2 PUSH2 0x28D SWAP2 SWAP1 PUSH2 0x19E1 JUMP JUMPDEST POP DUP8 DUP2 PUSH1 0x1 ADD SWAP1 DUP2 PUSH2 0x29F SWAP2 SWAP1 PUSH2 0x19E1 JUMP JUMPDEST POP CALLER DUP2 PUSH1 0x2 ADD PUSH1 0x0 PUSH2 0x100 EXP DUP2 SLOAD DUP2 PUSH20 0xFFFFFFFFFFFFFFFFFFFFFFFFFFFFFFFFFFFFFFFF MUL NOT AND SWAP1 DUP4 PUSH20 0xFFFFFFFFFFFFFFFFFFFFFFFFFFFFFFFFFFFFFFFF AND MUL OR SWAP1 SSTORE POP DUP7 DUP2 PUSH1 0x3 ADD PUSH1 0x40 MLOAD PUSH2 0x2F4 SWAP1 PUSH2 0x1B0A JUMP JUMPDEST SWAP1 DUP2 MSTORE PUSH1 0x20 ADD PUSH1 0x40 MLOAD DUP1 SWAP2 SUB SWAP1 KECCAK256 DUP2 SWAP1 SSTORE POP DUP6 DUP2 PUSH1 0x3 ADD PUSH1 0x40 MLOAD PUSH2 0x317 SWAP1 PUSH2 0x1B6B JUMP JUMPDEST SWAP1 DUP2 MSTORE PUSH1 0x20 ADD PUSH1 0x40 MLOAD DUP1 SWAP2 SUB SWAP1 KECCAK256 DUP2 SWAP1 SSTORE POP DUP5 DUP2 PUSH1 0x3 ADD PUSH1 0x40 MLOAD PUSH2 0x33A SWAP1 PUSH2 0x1BCC JUMP JUMPDEST SWAP1 DUP2 MSTORE PUSH1 0x20 ADD PUSH1 0x40 MLOAD DUP1 SWAP2 SUB SWAP1 KECCAK256 DUP2 SWAP1 SSTORE POP DUP4 DUP2 PUSH1 0x3 ADD PUSH1 0x40 MLOAD PUSH2 0x35D SWAP1 PUSH2 0x1C2D JUMP JUMPDEST SWAP1 DUP2 MSTORE PUSH1 0x20 ADD PUSH1 0x40 MLOAD DUP1 SWAP2 SUB SWAP1 KECCAK256 DUP2 SWAP1 SSTORE POP TIMESTAMP DUP2 PUSH1 0x3 ADD PUSH1 0x40 MLOAD PUSH2 0x380 SWAP1 PUSH2 0x1C8E JUMP JUMPDEST SWAP1 DUP2 MSTORE PUSH1 0x20 ADD PUSH1 0x40 MLOAD DUP1 SWAP2 SUB SWAP1 KECCAK256 DUP2 SWAP1 SSTORE POP DUP3 DUP2 PUSH1 0x3 ADD PUSH1 0x40 MLOAD PUSH2 0x3A3 SWAP1 PUSH2 0x1CEF JUMP JUMPDEST SWAP1 DUP2 MSTORE PUSH1 0x20 ADD PUSH1 0x40 MLOAD DUP1 SWAP2 SUB SWAP1 KECCAK256 DUP2 SWAP1 SSTORE POP POP POP POP POP POP POP POP POP JUMP JUMPDEST PUSH1 0x0 DUP2 DUP2 SLOAD DUP2 LT PUSH2 0x3CF JUMPI PUSH1 0x0 DUP1 REVERT JUMPDEST SWAP1 PUSH1 0x0 MSTORE PUSH1 0x20 PUSH1 0x0 KECCAK256 SWAP1 PUSH1 0x4 MUL ADD PUSH1 0x0 SWAP2 POP SWAP1 POP DUP1 PUSH1 0x0 ADD DUP1 SLOAD PUSH2 0x3F2 SWAP1 PUSH2 0x1804 JUMP JUMPDEST DUP1 PUSH1 0x1F ADD PUSH1 0x20 DUP1 SWAP2 DIV MUL PUSH1 0x20 ADD PUSH1 0x40 MLOAD SWAP1 DUP2 ADD PUSH1 0x40 MSTORE DUP1 SWAP3 SWAP2 SWAP1 DUP2 DUP2 MSTORE PUSH1 0x20 ADD DUP3 DUP1 SLOAD PUSH2 0x41E SWAP1 PUSH2 0x1804 JUMP JUMPDEST DUP1 ISZERO PUSH2 0x46B JUMPI DUP1 PUSH1 0x1F LT PUSH2 0x440 JUMPI PUSH2 0x100 DUP1 DUP4 SLOAD DIV MUL DUP4 MSTORE SWAP2 PUSH1 0x20 ADD SWAP2 PUSH2 0x46B JUMP JUMPDEST DUP3 ADD SWAP2 SWAP1 PUSH1 0x0 MSTORE PUSH1 0x20 PUSH1 0x0 KECCAK256 SWAP1 JUMPDEST DUP2 SLOAD DUP2 MSTORE SWAP1 PUSH1 0x1 ADD SWAP1 PUSH1 0x20 ADD DUP1 DUP4 GT PUSH2 0x44E JUMPI DUP3 SWAP1 SUB PUSH1 0x1F AND DUP3 ADD SWAP2 JUMPDEST POP POP POP POP POP SWAP1 DUP1 PUSH1 0x1 ADD DUP1 SLOAD PUSH2 0x480 SWAP1 PUSH2 0x1804 JUMP JUMPDEST DUP1 PUSH1 0x1F ADD PUSH1 0x20 DUP1 SWAP2 DIV MUL PUSH1 0x20 ADD PUSH1 0x40 MLOAD SWAP1 DUP2 ADD PUSH1 0x40 MSTORE DUP1 SWAP3 SWAP2 SWAP1 DUP2 DUP2 MSTORE PUSH1 0x20 ADD DUP3 DUP1 SLOAD PUSH2 0x4AC SWAP1 PUSH2 0x1804 JUMP JUMPDEST DUP1 ISZERO PUSH2 0x4F9 JUMPI DUP1 PUSH1 0x1F LT PUSH2 0x4CE JUMPI PUSH2 0x100 DUP1 DUP4 SLOAD DIV MUL DUP4 MSTORE SWAP2 PUSH1 0x20 ADD SWAP2 PUSH2 0x4F9 JUMP JUMPDEST DUP3 ADD SWAP2 SWAP1 PUSH1 0x0 MSTORE PUSH1 0x20 PUSH1 0x0 KECCAK256 SWAP1 JUMPDEST DUP2 SLOAD DUP2 MSTORE SWAP1 PUSH1 0x1 ADD SWAP1 PUSH1 0x20 ADD DUP1 DUP4 GT PUSH2 0x4DC JUMPI DUP3 SWAP1 SUB PUSH1 0x1F AND DUP3 ADD SWAP2 JUMPDEST POP POP POP POP POP SWAP1 DUP1 PUSH1 0x2 ADD PUSH1 0x0 SWAP1 SLOAD SWAP1 PUSH2 0x100 EXP SWAP1 DIV PUSH20 0xFFFFFFFFFFFFFFFFFFFFFFFFFFFFFFFFFFFFFFFF AND SWAP1 POP DUP4 JUMP JUMPDEST PUSH1 0x0 DUP1 DUP1 SLOAD SWAP1 POP SWAP1 POP PUSH1 0x0 PUSH1 0x1 DUP2 PUSH1 0x1 DUP2 SLOAD ADD DUP1 DUP3 SSTORE DUP1 SWAP2 POP POP SUB SWAP1 PUSH1 0x0 MSTORE PUSH1 0x20 PUSH1 0x0 KECCAK256 SWAP1 POP POP PUSH1 0x0 DUP1 DUP3 DUP2 SLOAD DUP2 LT PUSH2 0x565 JUMPI PUSH2 0x564 PUSH2 0x17A6 JUMP JUMPDEST JUMPDEST SWAP1 PUSH1 0x0 MSTORE PUSH1 0x20 PUSH1 0x0 KECCAK256 SWAP1 PUSH1 0x4 MUL ADD SWAP1 POP PUSH1 0x40 MLOAD DUP1 PUSH1 0x40 ADD PUSH1 0x40 MSTORE DUP1 PUSH1 0x9 DUP2 MSTORE PUSH1 0x20 ADD PUSH32 0x4530303032303030310000000000000000000000000000000000000000000000 DUP2 MSTORE POP DUP2 PUSH1 0x0 ADD SWAP1 DUP2 PUSH2 0x5BB SWAP2 SWAP1 PUSH2 0x19E1 JUMP JUMPDEST POP DUP7 DUP2 PUSH1 0x1 ADD SWAP1 DUP2 PUSH2 0x5CD SWAP2 SWAP1 PUSH2 0x19E1 JUMP JUMPDEST POP CALLER DUP2 PUSH1 0x2 ADD PUSH1 0x0 PUSH2 0x100 EXP DUP2 SLOAD DUP2 PUSH20 0xFFFFFFFFFFFFFFFFFFFFFFFFFFFFFFFFFFFFFFFF MUL NOT AND SWAP1 DUP4 PUSH20 0xFFFFFFFFFFFFFFFFFFFFFFFFFFFFFFFFFFFFFFFF AND MUL OR SWAP1 SSTORE POP DUP6 DUP2 PUSH1 0x3 ADD PUSH1 0x40 MLOAD PUSH2 0x622 SWAP1 PUSH2 0x1B0A JUMP JUMPDEST SWAP1 DUP2 MSTORE PUSH1 0x20 ADD PUSH1 0x40 MLOAD DUP1 SWAP2 SUB SWAP1 KECCAK256 DUP2 SWAP1 SSTORE POP DUP5 DUP2 PUSH1 0x3 ADD PUSH1 0x40 MLOAD PUSH2 0x645 SWAP1 PUSH2 0x1B6B JUMP JUMPDEST SWAP1 DUP2 MSTORE PUSH1 0x20 ADD PUSH1 0x40 MLOAD DUP1 SWAP2 SUB SWAP1 KECCAK256 DUP2 SWAP1 SSTORE POP DUP4 DUP2 PUSH1 0x3 ADD PUSH1 0x40 MLOAD PUSH2 0x668 SWAP1 PUSH2 0x1D50 JUMP JUMPDEST SWAP1 DUP2 MSTORE PUSH1 0x20 ADD PUSH1 0x40 MLOAD DUP1 SWAP2 SUB SWAP1 KECCAK256 DUP2 SWAP1 SSTORE POP DUP3 DUP2 PUSH1 0x3 ADD PUSH1 0x40 MLOAD PUSH2 0x68B SWAP1 PUSH2 0x1DB1 JUMP JUMPDEST SWAP1 DUP2 MSTORE PUSH1 0x20 ADD PUSH1 0x40 MLOAD DUP1 SWAP2 SUB SWAP1 KECCAK256 DUP2 SWAP1 SSTORE POP TIMESTAMP DUP2 PUSH1 0x3 ADD PUSH1 0x40 MLOAD PUSH2 0x6AE SWAP1 PUSH2 0x1C8E JUMP JUMPDEST SWAP1 DUP2 MSTORE PUSH1 0x20 ADD PUSH1 0x40 MLOAD DUP1 SWAP2 SUB SWAP1 KECCAK256 DUP2 SWAP1 SSTORE POP POP POP POP POP POP POP POP JUMP JUMPDEST PUSH1 0x0 DUP1 DUP1 SLOAD SWAP1 POP SWAP1 POP PUSH1 0x0 PUSH1 0x1 DUP2 PUSH1 0x1 DUP2 SLOAD ADD DUP1 DUP3 SSTORE DUP1 SWAP2 POP POP SUB SWAP1 PUSH1 0x0 MSTORE PUSH1 0x20 PUSH1 0x0 KECCAK256 SWAP1 POP POP PUSH1 0x0 DUP1 DUP3 DUP2 SLOAD DUP2 LT PUSH2 0x705 JUMPI PUSH2 0x704 PUSH2 0x17A6 JUMP JUMPDEST JUMPDEST SWAP1 PUSH1 0x0 MSTORE PUSH1 0x20 PUSH1 0x0 KECCAK256 SWAP1 PUSH1 0x4 MUL ADD SWAP1 POP PUSH1 0x40 MLOAD DUP1 PUSH1 0x40 ADD PUSH1 0x40 MSTORE DUP1 PUSH1 0x9 DUP2 MSTORE PUSH1 0x20 ADD PUSH32 0x4530303031303030350000000000000000000000000000000000000000000000 DUP2 MSTORE POP DUP2 PUSH1 0x0 ADD SWAP1 DUP2 PUSH2 0x75B SWAP2 SWAP1 PUSH2 0x19E1 JUMP JUMPDEST POP DUP8 DUP2 PUSH1 0x1 ADD SWAP1 DUP2 PUSH2 0x76D SWAP2 SWAP1 PUSH2 0x19E1 JUMP JUMPDEST POP CALLER DUP2 PUSH1 0x2 ADD PUSH1 0x0 PUSH2 0x100 EXP DUP2 SLOAD DUP2 PUSH20 0xFFFFFFFFFFFFFFFFFFFFFFFFFFFFFFFFFFFFFFFF MUL NOT AND SWAP1 DUP4 PUSH20 0xFFFFFFFFFFFFFFFFFFFFFFFFFFFFFFFFFFFFFFFF AND MUL OR SWAP1 SSTORE POP DUP7 DUP2 PUSH1 0x3 ADD PUSH1 0x40 MLOAD PUSH2 0x7C2 SWAP1 PUSH2 0x1B0A JUMP JUMPDEST SWAP1 DUP2 MSTORE PUSH1 0x20 ADD PUSH1 0x40 MLOAD DUP1 SWAP2 SUB SWAP1 KECCAK256 DUP2 SWAP1 SSTORE POP DUP6 DUP2 PUSH1 0x3 ADD PUSH1 0x40 MLOAD PUSH2 0x7E5 SWAP1 PUSH2 0x1B6B JUMP JUMPDEST SWAP1 DUP2 MSTORE PUSH1 0x20 ADD PUSH1 0x40 MLOAD DUP1 SWAP2 SUB SWAP1 KECCAK256 DUP2 SWAP1 SSTORE POP DUP5 DUP2 PUSH1 0x3 ADD PUSH1 0x40 MLOAD PUSH2 0x808 SWAP1 PUSH2 0x1BCC JUMP JUMPDEST SWAP1 DUP2 MSTORE PUSH1 0x20 ADD PUSH1 0x40 MLOAD DUP1 SWAP2 SUB SWAP1 KECCAK256 DUP2 SWAP1 SSTORE POP DUP4 DUP2 PUSH1 0x3 ADD PUSH1 0x40 MLOAD PUSH2 0x82B SWAP1 PUSH2 0x1C2D JUMP JUMPDEST SWAP1 DUP2 MSTORE PUSH1 0x20 ADD PUSH1 0x40 MLOAD DUP1 SWAP2 SUB SWAP1 KECCAK256 DUP2 SWAP1 SSTORE POP TIMESTAMP DUP2 PUSH1 0x3 ADD PUSH1 0x40 MLOAD PUSH2 0x84E SWAP1 PUSH2 0x1C8E JUMP JUMPDEST SWAP1 DUP2 MSTORE PUSH1 0x20 ADD PUSH1 0x40 MLOAD DUP1 SWAP2 SUB SWAP1 KECCAK256 DUP2 SWAP1 SSTORE POP DUP3 DUP2 PUSH1 0x3 ADD PUSH1 0x40 MLOAD PUSH2 0x871 SWAP1 PUSH2 0x1CEF JUMP JUMPDEST SWAP1 DUP2 MSTORE PUSH1 0x20 ADD PUSH1 0x40 MLOAD DUP1 SWAP2 SUB SWAP1 KECCAK256 DUP2 SWAP1 SSTORE POP POP POP POP POP POP POP POP POP JUMP JUMPDEST PUSH1 0x60 DUP1 PUSH1 0x0 DUP1 PUSH2 0x89C DUP6 PUSH2 0x10F1 JUMP JUMPDEST SWAP1 POP DUP1 PUSH1 0x0 ADD DUP2 PUSH1 0x1 ADD DUP3 PUSH1 0x2 ADD PUSH1 0x0 SWAP1 SLOAD SWAP1 PUSH2 0x100 EXP SWAP1 DIV PUSH20 0xFFFFFFFFFFFFFFFFFFFFFFFFFFFFFFFFFFFFFFFF AND DUP3 DUP1 SLOAD PUSH2 0x8D7 SWAP1 PUSH2 0x1804 JUMP JUMPDEST DUP1 PUSH1 0x1F ADD PUSH1 0x20 DUP1 SWAP2 DIV MUL PUSH1 0x20 ADD PUSH1 0x40 MLOAD SWAP1 DUP2 ADD PUSH1 0x40 MSTORE DUP1 SWAP3 SWAP2 SWAP1 DUP2 DUP2 MSTORE PUSH1 0x20 ADD DUP3 DUP1 SLOAD PUSH2 0x903 SWAP1 PUSH2 0x1804 JUMP JUMPDEST DUP1 ISZERO PUSH2 0x950 JUMPI DUP1 PUSH1 0x1F LT PUSH2 0x925 JUMPI PUSH2 0x100 DUP1 DUP4 SLOAD DIV MUL DUP4 MSTORE SWAP2 PUSH1 0x20 ADD SWAP2 PUSH2 0x950 JUMP JUMPDEST DUP3 ADD SWAP2 SWAP1 PUSH1 0x0 MSTORE PUSH1 0x20 PUSH1 0x0 KECCAK256 SWAP1 JUMPDEST DUP2 SLOAD DUP2 MSTORE SWAP1 PUSH1 0x1 ADD SWAP1 PUSH1 0x20 ADD DUP1 DUP4 GT PUSH2 0x933 JUMPI DUP3 SWAP1 SUB PUSH1 0x1F AND DUP3 ADD SWAP2 JUMPDEST POP POP POP POP POP SWAP3 POP DUP2 DUP1 SLOAD PUSH2 0x963 SWAP1 PUSH2 0x1804 JUMP JUMPDEST DUP1 PUSH1 0x1F ADD PUSH1 0x20 DUP1 SWAP2 DIV MUL PUSH1 0x20 ADD PUSH1 0x40 MLOAD SWAP1 DUP2 ADD PUSH1 0x40 MSTORE DUP1 SWAP3 SWAP2 SWAP1 DUP2 DUP2 MSTORE PUSH1 0x20 ADD DUP3 DUP1 SLOAD PUSH2 0x98F SWAP1 PUSH2 0x1804 JUMP JUMPDEST DUP1 ISZERO PUSH2 0x9DC JUMPI DUP1 PUSH1 0x1F LT PUSH2 0x9B1 JUMPI PUSH2 0x100 DUP1 DUP4 SLOAD DIV MUL DUP4 MSTORE SWAP2 PUSH1 0x20 ADD SWAP2 PUSH2 0x9DC JUMP JUMPDEST DUP3 ADD SWAP2 SWAP1 PUSH1 0x0 MSTORE PUSH1 0x20 PUSH1 0x0 KECCAK256 SWAP1 JUMPDEST DUP2 SLOAD DUP2 MSTORE SWAP1 PUSH1 0x1 ADD SWAP1 PUSH1 0x20 ADD DUP1 DUP4 GT PUSH2 0x9BF JUMPI DUP3 SWAP1 SUB PUSH1 0x1F AND DUP3 ADD SWAP2 JUMPDEST POP POP POP POP POP SWAP2 POP SWAP4 POP SWAP4 POP SWAP4 POP POP SWAP2 SWAP4 SWAP1 SWAP3 POP JUMP JUMPDEST PUSH1 0x0 DUP1 PUSH2 0x9FD DUP5 PUSH2 0x10F1 JUMP JUMPDEST SWAP1 POP DUP1 PUSH1 0x3 ADD DUP4 PUSH1 0x40 MLOAD PUSH2 0xA11 SWAP2 SWAP1 PUSH2 0x1DF7 JUMP JUMPDEST SWAP1 DUP2 MSTORE PUSH1 0x20 ADD PUSH1 0x40 MLOAD DUP1 SWAP2 SUB SWAP1 KECCAK256 SLOAD SWAP2 POP POP SWAP3 SWAP2 POP POP JUMP JUMPDEST PUSH1 0x0 DUP1 DUP1 SLOAD SWAP1 POP SWAP1 POP PUSH1 0x0 PUSH1 0x1 DUP2 PUSH1 0x1 DUP2 SLOAD ADD DUP1 DUP3 SSTORE DUP1 SWAP2 POP POP SUB SWAP1 PUSH1 0x0 MSTORE PUSH1 0x20 PUSH1 0x0 KECCAK256 SWAP1 POP POP PUSH1 0x0 DUP1 DUP3 DUP2 SLOAD DUP2 LT PUSH2 0xA65 JUMPI PUSH2 0xA64 PUSH2 0x17A6 JUMP JUMPDEST JUMPDEST SWAP1 PUSH1 0x0 MSTORE PUSH1 0x20 PUSH1 0x0 KECCAK256 SWAP1 PUSH1 0x4 MUL ADD SWAP1 POP PUSH1 0x40 MLOAD DUP1 PUSH1 0x40 ADD PUSH1 0x40 MSTORE DUP1 PUSH1 0x9 DUP2 MSTORE PUSH1 0x20 ADD PUSH32 0x4530303031303030330000000000000000000000000000000000000000000000 DUP2 MSTORE POP DUP2 PUSH1 0x0 ADD SWAP1 DUP2 PUSH2 0xABB SWAP2 SWAP1 PUSH2 0x19E1 JUMP JUMPDEST POP DUP7 DUP2 PUSH1 0x1 ADD SWAP1 DUP2 PUSH2 0xACD SWAP2 SWAP1 PUSH2 0x19E1 JUMP JUMPDEST POP CALLER DUP2 PUSH1 0x2 ADD PUSH1 0x0 PUSH2 0x100 EXP DUP2 SLOAD DUP2 PUSH20 0xFFFFFFFFFFFFFFFFFFFFFFFFFFFFFFFFFFFFFFFF MUL NOT AND SWAP1 DUP4 PUSH20 0xFFFFFFFFFFFFFFFFFFFFFFFFFFFFFFFFFFFFFFFF AND MUL OR SWAP1 SSTORE POP DUP6 DUP2 PUSH1 0x3 ADD PUSH1 0x40 MLOAD PUSH2 0xB22 SWAP1 PUSH2 0x1B0A JUMP JUMPDEST SWAP1 DUP2 MSTORE PUSH1 0x20 ADD PUSH1 0x40 MLOAD DUP1 SWAP2 SUB SWAP1 KECCAK256 DUP2 SWAP1 SSTORE POP DUP5 DUP2 PUSH1 0x3 ADD PUSH1 0x40 MLOAD PUSH2 0xB45 SWAP1 PUSH2 0x1B6B JUMP JUMPDEST SWAP1 DUP2 MSTORE PUSH1 0x20 ADD PUSH1 0x40 MLOAD DUP1 SWAP2 SUB SWAP1 KECCAK256 DUP2 SWAP1 SSTORE POP DUP4 DUP2 PUSH1 0x3 ADD PUSH1 0x40 MLOAD PUSH2 0xB68 SWAP1 PUSH2 0x1BCC JUMP JUMPDEST SWAP1 DUP2 MSTORE PUSH1 0x20 ADD PUSH1 0x40 MLOAD DUP1 SWAP2 SUB SWAP1 KECCAK256 DUP2 SWAP1 SSTORE POP TIMESTAMP DUP2 PUSH1 0x3 ADD PUSH1 0x40 MLOAD PUSH2 0xB8B SWAP1 PUSH2 0x1C8E JUMP JUMPDEST SWAP1 DUP2 MSTORE PUSH1 0x20 ADD PUSH1 0x40 MLOAD DUP1 SWAP2 SUB SWAP1 KECCAK256 DUP2 SWAP1 SSTORE POP DUP3 DUP2 PUSH1 0x3 ADD PUSH1 0x40 MLOAD PUSH2 0xBAE SWAP1 PUSH2 0x1E5A JUMP JUMPDEST SWAP1 DUP2 MSTORE PUSH1 0x20 ADD PUSH1 0x40 MLOAD DUP1 SWAP2 SUB SWAP1 KECCAK256 DUP2 SWAP1 SSTORE POP POP POP POP POP POP POP POP JUMP JUMPDEST PUSH1 0x0 DUP1 DUP1 SLOAD SWAP1 POP SWAP1 POP PUSH1 0x0 PUSH1 0x1 DUP2 PUSH1 0x1 DUP2 SLOAD ADD DUP1 DUP3 SSTORE DUP1 SWAP2 POP POP SUB SWAP1 PUSH1 0x0 MSTORE PUSH1 0x20 PUSH1 0x0 KECCAK256 SWAP1 POP POP PUSH1 0x0 DUP1 DUP3 DUP2 SLOAD DUP2 LT PUSH2 0xC05 JUMPI PUSH2 0xC04 PUSH2 0x17A6 JUMP JUMPDEST JUMPDEST SWAP1 PUSH1 0x0 MSTORE PUSH1 0x20 PUSH1 0x0 KECCAK256 SWAP1 PUSH1 0x4 MUL ADD SWAP1 POP PUSH1 0x40 MLOAD DUP1 PUSH1 0x40 ADD PUSH1 0x40 MSTORE DUP1 PUSH1 0x9 DUP2 MSTORE PUSH1 0x20 ADD PUSH32 0x4530303031303030310000000000000000000000000000000000000000000000 DUP2 MSTORE POP DUP2 PUSH1 0x0 ADD SWAP1 DUP2 PUSH2 0xC5B SWAP2 SWAP1 PUSH2 0x19E1 JUMP JUMPDEST POP DUP7 DUP2 PUSH1 0x1 ADD SWAP1 DUP2 PUSH2 0xC6D SWAP2 SWAP1 PUSH2 0x19E1 JUMP JUMPDEST POP CALLER DUP2 PUSH1 0x2 ADD PUSH1 0x0 PUSH2 0x100 EXP DUP2 SLOAD DUP2 PUSH20 0xFFFFFFFFFFFFFFFFFFFFFFFFFFFFFFFFFFFFFFFF MUL NOT AND SWAP1 DUP4 PUSH20 0xFFFFFFFFFFFFFFFFFFFFFFFFFFFFFFFFFFFFFFFF AND MUL OR SWAP1 SSTORE POP DUP6 DUP2 PUSH1 0x3 ADD PUSH1 0x40 MLOAD PUSH2 0xCC2 SWAP1 PUSH2 0x1B0A JUMP JUMPDEST SWAP1 DUP2 MSTORE PUSH1 0x20 ADD PUSH1 0x40 MLOAD DUP1 SWAP2 SUB SWAP1 KECCAK256 DUP2 SWAP1 SSTORE POP DUP5 DUP2 PUSH1 0x3 ADD PUSH1 0x40 MLOAD PUSH2 0xCE5 SWAP1 PUSH2 0x1B6B JUMP JUMPDEST SWAP1 DUP2 MSTORE PUSH1 0x20 ADD PUSH1 0x40 MLOAD DUP1 SWAP2 SUB SWAP1 KECCAK256 DUP2 SWAP1 SSTORE POP DUP4 DUP2 PUSH1 0x3 ADD PUSH1 0x40 MLOAD PUSH2 0xD08 SWAP1 PUSH2 0x1BCC JUMP JUMPDEST SWAP1 DUP2 MSTORE PUSH1 0x20 ADD PUSH1 0x40 MLOAD DUP1 SWAP2 SUB SWAP1 KECCAK256 DUP2 SWAP1 SSTORE POP TIMESTAMP DUP2 PUSH1 0x3 ADD PUSH1 0x40 MLOAD PUSH2 0xD2B SWAP1 PUSH2 0x1C8E JUMP JUMPDEST SWAP1 DUP2 MSTORE PUSH1 0x20 ADD PUSH1 0x40 MLOAD DUP1 SWAP2 SUB SWAP1 KECCAK256 DUP2 SWAP1 SSTORE POP DUP3 DUP2 PUSH1 0x3 ADD PUSH1 0x40 MLOAD PUSH2 0xD4E SWAP1 PUSH2 0x1E5A JUMP JUMPDEST SWAP1 DUP2 MSTORE PUSH1 0x20 ADD PUSH1 0x40 MLOAD DUP1 SWAP2 SUB SWAP1 KECCAK256 DUP2 SWAP1 SSTORE POP POP POP POP POP POP POP POP JUMP JUMPDEST PUSH1 0x0 DUP1 DUP1 SLOAD SWAP1 POP SWAP1 POP PUSH1 0x0 PUSH1 0x1 DUP2 PUSH1 0x1 DUP2 SLOAD ADD DUP1 DUP3 SSTORE DUP1 SWAP2 POP POP SUB SWAP1 PUSH1 0x0 MSTORE PUSH1 0x20 PUSH1 0x0 KECCAK256 SWAP1 POP POP PUSH1 0x0 DUP1 DUP3 DUP2 SLOAD DUP2 LT PUSH2 0xDA5 JUMPI PUSH2 0xDA4 PUSH2 0x17A6 JUMP JUMPDEST JUMPDEST SWAP1 PUSH1 0x0 MSTORE PUSH1 0x20 PUSH1 0x0 KECCAK256 SWAP1 PUSH1 0x4 MUL ADD SWAP1 POP PUSH1 0x40 MLOAD DUP1 PUSH1 0x40 ADD PUSH1 0x40 MSTORE DUP1 PUSH1 0x9 DUP2 MSTORE PUSH1 0x20 ADD PUSH32 0x4530303031303030340000000000000000000000000000000000000000000000 DUP2 MSTORE POP DUP2 PUSH1 0x0 ADD SWAP1 DUP2 PUSH2 0xDFB SWAP2 SWAP1 PUSH2 0x19E1 JUMP JUMPDEST POP DUP9 DUP2 PUSH1 0x1 ADD SWAP1 DUP2 PUSH2 0xE0D SWAP2 SWAP1 PUSH2 0x19E1 JUMP JUMPDEST POP CALLER DUP2 PUSH1 0x2 ADD PUSH1 0x0 PUSH2 0x100 EXP DUP2 SLOAD DUP2 PUSH20 0xFFFFFFFFFFFFFFFFFFFFFFFFFFFFFFFFFFFFFFFF MUL NOT AND SWAP1 DUP4 PUSH20 0xFFFFFFFFFFFFFFFFFFFFFFFFFFFFFFFFFFFFFFFF AND MUL OR SWAP1 SSTORE POP DUP8 DUP2 PUSH1 0x3 ADD PUSH1 0x40 MLOAD PUSH2 0xE62 SWAP1 PUSH2 0x1B0A JUMP JUMPDEST SWAP1 DUP2 MSTORE PUSH1 0x20 ADD PUSH1 0x40 MLOAD DUP1 SWAP2 SUB SWAP1 KECCAK256 DUP2 SWAP1 SSTORE POP DUP7 DUP2 PUSH1 0x3 ADD PUSH1 0x40 MLOAD PUSH2 0xE85 SWAP1 PUSH2 0x1B6B JUMP JUMPDEST SWAP1 DUP2 MSTORE PUSH1 0x20 ADD PUSH1 0x40 MLOAD DUP1 SWAP2 SUB SWAP1 KECCAK256 DUP2 SWAP1 SSTORE POP DUP6 DUP2 PUSH1 0x3 ADD PUSH1 0x40 MLOAD PUSH2 0xEA8 SWAP1 PUSH2 0x1BCC JUMP JUMPDEST SWAP1 DUP2 MSTORE PUSH1 0x20 ADD PUSH1 0x40 MLOAD DUP1 SWAP2 SUB SWAP1 KECCAK256 DUP2 SWAP1 SSTORE POP DUP5 DUP2 PUSH1 0x3 ADD PUSH1 0x40 MLOAD PUSH2 0xECB SWAP1 PUSH2 0x1C2D JUMP JUMPDEST SWAP1 DUP2 MSTORE PUSH1 0x20 ADD PUSH1 0x40 MLOAD DUP1 SWAP2 SUB SWAP1 KECCAK256 DUP2 SWAP1 SSTORE POP TIMESTAMP DUP2 PUSH1 0x3 ADD PUSH1 0x40 MLOAD PUSH2 0xEEE SWAP1 PUSH2 0x1C8E JUMP JUMPDEST SWAP1 DUP2 MSTORE PUSH1 0x20 ADD PUSH1 0x40 MLOAD DUP1 SWAP2 SUB SWAP1 KECCAK256 DUP2 SWAP1 SSTORE POP DUP4 DUP2 PUSH1 0x3 ADD PUSH1 0x40 MLOAD PUSH2 0xF11 SWAP1 PUSH2 0x1CEF JUMP JUMPDEST SWAP1 DUP2 MSTORE PUSH1 0x20 ADD PUSH1 0x40 MLOAD DUP1 SWAP2 SUB SWAP1 KECCAK256 DUP2 SWAP1 SSTORE POP DUP3 DUP2 PUSH1 0x3 ADD PUSH1 0x40 MLOAD PUSH2 0xF34 SWAP1 PUSH2 0x1EBB JUMP JUMPDEST SWAP1 DUP2 MSTORE PUSH1 0x20 ADD PUSH1 0x40 MLOAD DUP1 SWAP2 SUB SWAP1 KECCAK256 DUP2 SWAP1 SSTORE POP POP POP POP POP POP POP POP POP POP JUMP JUMPDEST PUSH1 0x0 DUP1 DUP1 SLOAD SWAP1 POP SWAP1 POP PUSH1 0x0 PUSH1 0x1 DUP2 PUSH1 0x1 DUP2 SLOAD ADD DUP1 DUP3 SSTORE DUP1 SWAP2 POP POP SUB SWAP1 PUSH1 0x0 MSTORE PUSH1 0x20 PUSH1 0x0 KECCAK256 SWAP1 POP POP PUSH1 0x0 DUP1 DUP3 DUP2 SLOAD DUP2 LT PUSH2 0xF8D JUMPI PUSH2 0xF8C PUSH2 0x17A6 JUMP JUMPDEST JUMPDEST SWAP1 PUSH1 0x0 MSTORE PUSH1 0x20 PUSH1 0x0 KECCAK256 SWAP1 PUSH1 0x4 MUL ADD SWAP1 POP PUSH1 0x40 MLOAD DUP1 PUSH1 0x40 ADD PUSH1 0x40 MSTORE DUP1 PUSH1 0x9 DUP2 MSTORE PUSH1 0x20 ADD PUSH32 0x4530303031303030320000000000000000000000000000000000000000000000 DUP2 MSTORE POP DUP2 PUSH1 0x0 ADD SWAP1 DUP2 PUSH2 0xFE3 SWAP2 SWAP1 PUSH2 0x19E1 JUMP JUMPDEST POP DUP7 DUP2 PUSH1 0x1 ADD SWAP1 DUP2 PUSH2 0xFF5 SWAP2 SWAP1 PUSH2 0x19E1 JUMP JUMPDEST POP CALLER DUP2 PUSH1 0x2 ADD PUSH1 0x0 PUSH2 0x100 EXP DUP2 SLOAD DUP2 PUSH20 0xFFFFFFFFFFFFFFFFFFFFFFFFFFFFFFFFFFFFFFFF MUL NOT AND SWAP1 DUP4 PUSH20 0xFFFFFFFFFFFFFFFFFFFFFFFFFFFFFFFFFFFFFFFF AND MUL OR SWAP1 SSTORE POP DUP6 DUP2 PUSH1 0x3 ADD PUSH1 0x40 MLOAD PUSH2 0x104A SWAP1 PUSH2 0x1B0A JUMP JUMPDEST SWAP1 DUP2 MSTORE PUSH1 0x20 ADD PUSH1 0x40 MLOAD DUP1 SWAP2 SUB SWAP1 KECCAK256 DUP2 SWAP1 SSTORE POP DUP5 DUP2 PUSH1 0x3 ADD PUSH1 0x40 MLOAD PUSH2 0x106D SWAP1 PUSH2 0x1B6B JUMP JUMPDEST SWAP1 DUP2 MSTORE PUSH1 0x20 ADD PUSH1 0x40 MLOAD DUP1 SWAP2 SUB SWAP1 KECCAK256 DUP2 SWAP1 SSTORE POP DUP4 DUP2 PUSH1 0x3 ADD PUSH1 0x40 MLOAD PUSH2 0x1090 SWAP1 PUSH2 0x1BCC JUMP JUMPDEST SWAP1 DUP2 MSTORE PUSH1 0x20 ADD PUSH1 0x40 MLOAD DUP1 SWAP2 SUB SWAP1 KECCAK256 DUP2 SWAP1 SSTORE POP TIMESTAMP DUP2 PUSH1 0x3 ADD PUSH1 0x40 MLOAD PUSH2 0x10B3 SWAP1 PUSH2 0x1C8E JUMP JUMPDEST SWAP1 DUP2 MSTORE PUSH1 0x20 ADD PUSH1 0x40 MLOAD DUP1 SWAP2 SUB SWAP1 KECCAK256 DUP2 SWAP1 SSTORE POP DUP3 DUP2 PUSH1 0x3 ADD PUSH1 0x40 MLOAD PUSH2 0x10D6 SWAP1 PUSH2 0x1E5A JUMP JUMPDEST SWAP1 DUP2 MSTORE PUSH1 0x20 ADD PUSH1 0x40 MLOAD DUP1 SWAP2 SUB SWAP1 KECCAK256 DUP2 SWAP1 SSTORE POP POP POP POP POP POP POP POP JUMP JUMPDEST PUSH1 0x0 DUP1 PUSH1 0x0 SWAP1 POP JUMPDEST PUSH1 0x0 DUP1 SLOAD SWAP1 POP DUP2 LT ISZERO PUSH2 0x11BA JUMPI DUP3 PUSH1 0x40 MLOAD PUSH1 0x20 ADD PUSH2 0x1117 SWAP2 SWAP1 PUSH2 0x1DF7 JUMP JUMPDEST PUSH1 0x40 MLOAD PUSH1 0x20 DUP2 DUP4 SUB SUB DUP2 MSTORE SWAP1 PUSH1 0x40 MSTORE DUP1 MLOAD SWAP1 PUSH1 0x20 ADD KECCAK256 PUSH1 0x0 DUP3 DUP2 SLOAD DUP2 LT PUSH2 0x1141 JUMPI PUSH2 0x1140 PUSH2 0x17A6 JUMP JUMPDEST JUMPDEST SWAP1 PUSH1 0x0 MSTORE PUSH1 0x20 PUSH1 0x0 KECCAK256 SWAP1 PUSH1 0x4 MUL ADD PUSH1 0x1 ADD PUSH1 0x40 MLOAD PUSH1 0x20 ADD PUSH2 0x1162 SWAP2 SWAP1 PUSH2 0x1F53 JUMP JUMPDEST PUSH1 0x40 MLOAD PUSH1 0x20 DUP2 DUP4 SUB SUB DUP2 MSTORE SWAP1 PUSH1 0x40 MSTORE DUP1 MLOAD SWAP1 PUSH1 0x20 ADD KECCAK256 SUB PUSH2 0x11A7 JUMPI PUSH1 0x0 DUP2 DUP2 SLOAD DUP2 LT PUSH2 0x1191 JUMPI PUSH2 0x1190 PUSH2 0x17A6 JUMP JUMPDEST JUMPDEST SWAP1 PUSH1 0x0 MSTORE PUSH1 0x20 PUSH1 0x0 KECCAK256 SWAP1 PUSH1 0x4 MUL ADD SWAP2 POP POP PUSH2 0x11F6 JUMP JUMPDEST DUP1 DUP1 PUSH2 0x11B2 SWAP1 PUSH2 0x1F99 JUMP JUMPDEST SWAP2 POP POP PUSH2 0x10F9 JUMP JUMPDEST POP PUSH1 0x40 MLOAD PUSH32 0x8C379A000000000000000000000000000000000000000000000000000000000 DUP2 MSTORE PUSH1 0x4 ADD PUSH2 0x11ED SWAP1 PUSH2 0x2053 JUMP JUMPDEST PUSH1 0x40 MLOAD DUP1 SWAP2 SUB SWAP1 REVERT JUMPDEST SWAP2 SWAP1 POP JUMP JUMPDEST PUSH1 0x0 PUSH1 0x40 MLOAD SWAP1 POP SWAP1 JUMP JUMPDEST PUSH1 0x0 DUP1 REVERT JUMPDEST PUSH1 0x0 DUP1 REVERT JUMPDEST PUSH1 0x0 DUP1 REVERT JUMPDEST PUSH1 0x0 DUP1 REVERT JUMPDEST PUSH1 0x0 PUSH1 0x1F NOT PUSH1 0x1F DUP4 ADD AND SWAP1 POP SWAP2 SWAP1 POP JUMP JUMPDEST PUSH32 0x4E487B7100000000000000000000000000000000000000000000000000000000 PUSH1 0x0 MSTORE PUSH1 0x41 PUSH1 0x4 MSTORE PUSH1 0x24 PUSH1 0x0 REVERT JUMPDEST PUSH2 0x1262 DUP3 PUSH2 0x1219 JUMP JUMPDEST DUP2 ADD DUP2 DUP2 LT PUSH8 0xFFFFFFFFFFFFFFFF DUP3 GT OR ISZERO PUSH2 0x1281 JUMPI PUSH2 0x1280 PUSH2 0x122A JUMP JUMPDEST JUMPDEST DUP1 PUSH1 0x40 MSTORE POP POP POP JUMP JUMPDEST PUSH1 0x0 PUSH2 0x1294 PUSH2 0x11FB JUMP JUMPDEST SWAP1 POP PUSH2 0x12A0 DUP3 DUP3 PUSH2 0x1259 JUMP JUMPDEST SWAP2 SWAP1 POP JUMP JUMPDEST PUSH1 0x0 PUSH8 0xFFFFFFFFFFFFFFFF DUP3 GT ISZERO PUSH2 0x12C0 JUMPI PUSH2 0x12BF PUSH2 0x122A JUMP JUMPDEST JUMPDEST PUSH2 0x12C9 DUP3 PUSH2 0x1219 JUMP JUMPDEST SWAP1 POP PUSH1 0x20 DUP2 ADD SWAP1 POP SWAP2 SWAP1 POP JUMP JUMPDEST DUP3 DUP2 DUP4 CALLDATACOPY PUSH1 0x0 DUP4 DUP4 ADD MSTORE POP POP POP JUMP JUMPDEST PUSH1 0x0 PUSH2 0x12F8 PUSH2 0x12F3 DUP5 PUSH2 0x12A5 JUMP JUMPDEST PUSH2 0x128A JUMP JUMPDEST SWAP1 POP DUP3 DUP2 MSTORE PUSH1 0x20 DUP2 ADD DUP5 DUP5 DUP5 ADD GT ISZERO PUSH2 0x1314 JUMPI PUSH2 0x1313 PUSH2 0x1214 JUMP JUMPDEST JUMPDEST PUSH2 0x131F DUP5 DUP3 DUP6 PUSH2 0x12D6 JUMP JUMPDEST POP SWAP4 SWAP3 POP POP POP JUMP JUMPDEST PUSH1 0x0 DUP3 PUSH1 0x1F DUP4 ADD SLT PUSH2 0x133C JUMPI PUSH2 0x133B PUSH2 0x120F JUMP JUMPDEST JUMPDEST DUP2 CALLDATALOAD PUSH2 0x134C DUP5 DUP3 PUSH1 0x20 DUP7 ADD PUSH2 0x12E5 JUMP JUMPDEST SWAP2 POP POP SWAP3 SWAP2 POP POP JUMP JUMPDEST PUSH1 0x0 DUP2 SWAP1 POP SWAP2 SWAP1 POP JUMP JUMPDEST PUSH2 0x1368 DUP2 PUSH2 0x1355 JUMP JUMPDEST DUP2 EQ PUSH2 0x1373 JUMPI PUSH1 0x0 DUP1 REVERT JUMPDEST POP JUMP JUMPDEST PUSH1 0x0 DUP2 CALLDATALOAD SWAP1 POP PUSH2 0x1385 DUP2 PUSH2 0x135F JUMP JUMPDEST SWAP3 SWAP2 POP POP JUMP JUMPDEST PUSH1 0x0 DUP1 PUSH1 0x0 DUP1 PUSH1 0x0 DUP1 PUSH1 0xC0 DUP8 DUP10 SUB SLT ISZERO PUSH2 0x13A8 JUMPI PUSH2 0x13A7 PUSH2 0x1205 JUMP JUMPDEST JUMPDEST PUSH1 0x0 DUP8 ADD CALLDATALOAD PUSH8 0xFFFFFFFFFFFFFFFF DUP2 GT ISZERO PUSH2 0x13C6 JUMPI PUSH2 0x13C5 PUSH2 0x120A JUMP JUMPDEST JUMPDEST PUSH2 0x13D2 DUP10 DUP3 DUP11 ADD PUSH2 0x1327 JUMP JUMPDEST SWAP7 POP POP PUSH1 0x20 PUSH2 0x13E3 DUP10 DUP3 DUP11 ADD PUSH2 0x1376 JUMP JUMPDEST SWAP6 POP POP PUSH1 0x40 PUSH2 0x13F4 DUP10 DUP3 DUP11 ADD PUSH2 0x1376 JUMP JUMPDEST SWAP5 POP POP PUSH1 0x60 PUSH2 0x1405 DUP10 DUP3 DUP11 ADD PUSH2 0x1376 JUMP JUMPDEST SWAP4 POP POP PUSH1 0x80 PUSH2 0x1416 DUP10 DUP3 DUP11 ADD PUSH2 0x1376 JUMP JUMPDEST SWAP3 POP POP PUSH1 0xA0 PUSH2 0x1427 DUP10 DUP3 DUP11 ADD PUSH2 0x1376 JUMP JUMPDEST SWAP2 POP POP SWAP3 SWAP6 POP SWAP3 SWAP6 POP SWAP3 SWAP6 JUMP JUMPDEST PUSH1 0x0 PUSH1 0x20 DUP3 DUP5 SUB SLT ISZERO PUSH2 0x144A JUMPI PUSH2 0x1449 PUSH2 0x1205 JUMP JUMPDEST JUMPDEST PUSH1 0x0 PUSH2 0x1458 DUP5 DUP3 DUP6 ADD PUSH2 0x1376 JUMP JUMPDEST SWAP2 POP POP SWAP3 SWAP2 POP POP JUMP JUMPDEST PUSH1 0x0 DUP2 MLOAD SWAP1 POP SWAP2 SWAP1 POP JUMP JUMPDEST PUSH1 0x0 DUP3 DUP3 MSTORE PUSH1 0x20 DUP3 ADD SWAP1 POP SWAP3 SWAP2 POP POP JUMP JUMPDEST PUSH1 0x0 JUMPDEST DUP4 DUP2 LT ISZERO PUSH2 0x149B JUMPI DUP1 DUP3 ADD MLOAD DUP2 DUP5 ADD MSTORE PUSH1 0x20 DUP2 ADD SWAP1 POP PUSH2 0x1480 JUMP JUMPDEST PUSH1 0x0 DUP5 DUP5 ADD MSTORE POP POP POP POP JUMP JUMPDEST PUSH1 0x0 PUSH2 0x14B2 DUP3 PUSH2 0x1461 JUMP JUMPDEST PUSH2 0x14BC DUP2 DUP6 PUSH2 0x146C JUMP JUMPDEST SWAP4 POP PUSH2 0x14CC DUP2 DUP6 PUSH1 0x20 DUP7 ADD PUSH2 0x147D JUMP JUMPDEST PUSH2 0x14D5 DUP2 PUSH2 0x1219 JUMP JUMPDEST DUP5 ADD SWAP2 POP POP SWAP3 SWAP2 POP POP JUMP JUMPDEST PUSH1 0x0 PUSH20 0xFFFFFFFFFFFFFFFFFFFFFFFFFFFFFFFFFFFFFFFF DUP3 AND SWAP1 POP SWAP2 SWAP1 POP JUMP JUMPDEST PUSH1 0x0 PUSH2 0x150B DUP3 PUSH2 0x14E0 JUMP JUMPDEST SWAP1 POP SWAP2 SWAP1 POP JUMP JUMPDEST PUSH2 0x151B DUP2 PUSH2 0x1500 JUMP JUMPDEST DUP3 MSTORE POP POP JUMP JUMPDEST PUSH1 0x0 PUSH1 0x60 DUP3 ADD SWAP1 POP DUP2 DUP2 SUB PUSH1 0x0 DUP4 ADD MSTORE PUSH2 0x153B DUP2 DUP7 PUSH2 0x14A7 JUMP JUMPDEST SWAP1 POP DUP2 DUP2 SUB PUSH1 0x20 DUP4 ADD MSTORE PUSH2 0x154F DUP2 DUP6 PUSH2 0x14A7 JUMP JUMPDEST SWAP1 POP PUSH2 0x155E PUSH1 0x40 DUP4 ADD DUP5 PUSH2 0x1512 JUMP JUMPDEST SWAP5 SWAP4 POP POP POP POP JUMP JUMPDEST PUSH1 0x0 DUP1 PUSH1 0x0 DUP1 PUSH1 0x0 PUSH1 0xA0 DUP7 DUP9 SUB SLT ISZERO PUSH2 0x1582 JUMPI PUSH2 0x1581 PUSH2 0x1205 JUMP JUMPDEST JUMPDEST PUSH1 0x0 DUP7 ADD CALLDATALOAD PUSH8 0xFFFFFFFFFFFFFFFF DUP2 GT ISZERO PUSH2 0x15A0 JUMPI PUSH2 0x159F PUSH2 0x120A JUMP JUMPDEST JUMPDEST PUSH2 0x15AC DUP9 DUP3 DUP10 ADD PUSH2 0x1327 JUMP JUMPDEST SWAP6 POP POP PUSH1 0x20 PUSH2 0x15BD DUP9 DUP3 DUP10 ADD PUSH2 0x1376 JUMP JUMPDEST SWAP5 POP POP PUSH1 0x40 PUSH2 0x15CE DUP9 DUP3 DUP10 ADD PUSH2 0x1376 JUMP JUMPDEST SWAP4 POP POP PUSH1 0x60 PUSH2 0x15DF DUP9 DUP3 DUP10 ADD PUSH2 0x1376 JUMP JUMPDEST SWAP3 POP POP PUSH1 0x80 PUSH2 0x15F0 DUP9 DUP3 DUP10 ADD PUSH2 0x1376 JUMP JUMPDEST SWAP2 POP POP SWAP3 SWAP6 POP SWAP3 SWAP6 SWAP1 SWAP4 POP JUMP JUMPDEST PUSH1 0x0 PUSH1 0x20 DUP3 DUP5 SUB SLT ISZERO PUSH2 0x1613 JUMPI PUSH2 0x1612 PUSH2 0x1205 JUMP JUMPDEST JUMPDEST PUSH1 0x0 DUP3 ADD CALLDATALOAD PUSH8 0xFFFFFFFFFFFFFFFF DUP2 GT ISZERO PUSH2 0x1631 JUMPI PUSH2 0x1630 PUSH2 0x120A JUMP JUMPDEST JUMPDEST PUSH2 0x163D DUP5 DUP3 DUP6 ADD PUSH2 0x1327 JUMP JUMPDEST SWAP2 POP POP SWAP3 SWAP2 POP POP JUMP JUMPDEST PUSH1 0x0 DUP1 PUSH1 0x40 DUP4 DUP6 SUB SLT ISZERO PUSH2 0x165D JUMPI PUSH2 0x165C PUSH2 0x1205 JUMP JUMPDEST JUMPDEST PUSH1 0x0 DUP4 ADD CALLDATALOAD PUSH8 0xFFFFFFFFFFFFFFFF DUP2 GT ISZERO PUSH2 0x167B JUMPI PUSH2 0x167A PUSH2 0x120A JUMP JUMPDEST JUMPDEST PUSH2 0x1687 DUP6 DUP3 DUP7 ADD PUSH2 0x1327 JUMP JUMPDEST SWAP3 POP POP PUSH1 0x20 DUP4 ADD CALLDATALOAD PUSH8 0xFFFFFFFFFFFFFFFF DUP2 GT ISZERO PUSH2 0x16A8 JUMPI PUSH2 0x16A7 PUSH2 0x120A JUMP JUMPDEST JUMPDEST PUSH2 0x16B4 DUP6 DUP3 DUP7 ADD PUSH2 0x1327 JUMP JUMPDEST SWAP2 POP POP SWAP3 POP SWAP3 SWAP1 POP JUMP JUMPDEST PUSH2 0x16C7 DUP2 PUSH2 0x1355 JUMP JUMPDEST DUP3 MSTORE POP POP JUMP JUMPDEST PUSH1 0x0 PUSH1 0x20 DUP3 ADD SWAP1 POP PUSH2 0x16E2 PUSH1 0x0 DUP4 ADD DUP5 PUSH2 0x16BE JUMP JUMPDEST SWAP3 SWAP2 POP POP JUMP JUMPDEST PUSH1 0x0 DUP1 PUSH1 0x0 DUP1 PUSH1 0x0 DUP1 PUSH1 0x0 PUSH1 0xE0 DUP9 DUP11 SUB SLT ISZERO PUSH2 0x1707 JUMPI PUSH2 0x1706 PUSH2 0x1205 JUMP JUMPDEST JUMPDEST PUSH1 0x0 DUP9 ADD CALLDATALOAD PUSH8 0xFFFFFFFFFFFFFFFF DUP2 GT ISZERO PUSH2 0x1725 JUMPI PUSH2 0x1724 PUSH2 0x120A JUMP JUMPDEST JUMPDEST PUSH2 0x1731 DUP11 DUP3 DUP12 ADD PUSH2 0x1327 JUMP JUMPDEST SWAP8 POP POP PUSH1 0x20 PUSH2 0x1742 DUP11 DUP3 DUP12 ADD PUSH2 0x1376 JUMP JUMPDEST SWAP7 POP POP PUSH1 0x40 PUSH2 0x1753 DUP11 DUP3 DUP12 ADD PUSH2 0x1376 JUMP JUMPDEST SWAP6 POP POP PUSH1 0x60 PUSH2 0x1764 DUP11 DUP3 DUP12 ADD PUSH2 0x1376 JUMP JUMPDEST SWAP5 POP POP PUSH1 0x80 PUSH2 0x1775 DUP11 DUP3 DUP12 ADD PUSH2 0x1376 JUMP JUMPDEST SWAP4 POP POP PUSH1 0xA0 PUSH2 0x1786 DUP11 DUP3 DUP12 ADD PUSH2 0x1376 JUMP JUMPDEST SWAP3 POP POP PUSH1 0xC0 PUSH2 0x1797 DUP11 DUP3 DUP12 ADD PUSH2 0x1376 JUMP JUMPDEST SWAP2 POP POP SWAP3 SWAP6 SWAP9 SWAP2 SWAP5 SWAP8 POP SWAP3 SWAP6 POP JUMP JUMPDEST PUSH32 0x4E487B7100000000000000000000000000000000000000000000000000000000 PUSH1 0x0 MSTORE PUSH1 0x32 PUSH1 0x4 MSTORE PUSH1 0x24 PUSH1 0x0 REVERT JUMPDEST PUSH32 0x4E487B7100000000000000000000000000000000000000000000000000000000 PUSH1 0x0 MSTORE PUSH1 0x22 PUSH1 0x4 MSTORE PUSH1 0x24 PUSH1 0x0 REVERT JUMPDEST PUSH1 0x0 PUSH1 0x2 DUP3 DIV SWAP1 POP PUSH1 0x1 DUP3 AND DUP1 PUSH2 0x181C JUMPI PUSH1 0x7F DUP3 AND SWAP2 POP JUMPDEST PUSH1 0x20 DUP3 LT DUP2 SUB PUSH2 0x182F JUMPI PUSH2 0x182E PUSH2 0x17D5 JUMP JUMPDEST JUMPDEST POP SWAP2 SWAP1 POP JUMP JUMPDEST PUSH1 0x0 DUP2 SWAP1 POP DUP2 PUSH1 0x0 MSTORE PUSH1 0x20 PUSH1 0x0 KECCAK256 SWAP1 POP SWAP2 SWAP1 POP JUMP JUMPDEST PUSH1 0x0 PUSH1 0x20 PUSH1 0x1F DUP4 ADD DIV SWAP1 POP SWAP2 SWAP1 POP JUMP JUMPDEST PUSH1 0x0 DUP3 DUP3 SHL SWAP1 POP SWAP3 SWAP2 POP POP JUMP JUMPDEST PUSH1 0x0 PUSH1 0x8 DUP4 MUL PUSH2 0x1897 PUSH32 0xFFFFFFFFFFFFFFFFFFFFFFFFFFFFFFFFFFFFFFFFFFFFFFFFFFFFFFFFFFFFFFFF DUP3 PUSH2 0x185A JUMP JUMPDEST PUSH2 0x18A1 DUP7 DUP4 PUSH2 0x185A JUMP JUMPDEST SWAP6 POP DUP1 NOT DUP5 AND SWAP4 POP DUP1 DUP7 AND DUP5 OR SWAP3 POP POP POP SWAP4 SWAP3 POP POP POP JUMP JUMPDEST PUSH1 0x0 DUP2 SWAP1 POP SWAP2 SWAP1 POP JUMP JUMPDEST PUSH1 0x0 PUSH2 0x18DE PUSH2 0x18D9 PUSH2 0x18D4 DUP5 PUSH2 0x1355 JUMP JUMPDEST PUSH2 0x18B9 JUMP JUMPDEST PUSH2 0x1355 JUMP JUMPDEST SWAP1 POP SWAP2 SWAP1 POP JUMP JUMPDEST PUSH1 0x0 DUP2 SWAP1 POP SWAP2 SWAP1 POP JUMP JUMPDEST PUSH2 0x18F8 DUP4 PUSH2 0x18C3 JUMP JUMPDEST PUSH2 0x190C PUSH2 0x1904 DUP3 PUSH2 0x18E5 JUMP JUMPDEST DUP5 DUP5 SLOAD PUSH2 0x1867 JUMP JUMPDEST DUP3 SSTORE POP POP POP POP JUMP JUMPDEST PUSH1 0x0 SWAP1 JUMP JUMPDEST PUSH2 0x1921 PUSH2 0x1914 JUMP JUMPDEST PUSH2 0x192C DUP2 DUP5 DUP5 PUSH2 0x18EF JUMP JUMPDEST POP POP POP JUMP JUMPDEST JUMPDEST DUP2 DUP2 LT ISZERO PUSH2 0x1950 JUMPI PUSH2 0x1945 PUSH1 0x0 DUP3 PUSH2 0x1919 JUMP JUMPDEST PUSH1 0x1 DUP2 ADD SWAP1 POP PUSH2 0x1932 JUMP JUMPDEST POP POP JUMP JUMPDEST PUSH1 0x1F DUP3 GT ISZERO PUSH2 0x1995 JUMPI PUSH2 0x1966 DUP2 PUSH2 0x1835 JUMP JUMPDEST PUSH2 0x196F DUP5 PUSH2 0x184A JUMP JUMPDEST DUP2 ADD PUSH1 0x20 DUP6 LT ISZERO PUSH2 0x197E JUMPI DUP2 SWAP1 POP JUMPDEST PUSH2 0x1992 PUSH2 0x198A DUP6 PUSH2 0x184A JUMP JUMPDEST DUP4 ADD DUP3 PUSH2 0x1931 JUMP JUMPDEST POP POP JUMPDEST POP POP POP JUMP JUMPDEST PUSH1 0x0 DUP3 DUP3 SHR SWAP1 POP SWAP3 SWAP2 POP POP JUMP JUMPDEST PUSH1 0x0 PUSH2 0x19B8 PUSH1 0x0 NOT DUP5 PUSH1 0x8 MUL PUSH2 0x199A JUMP JUMPDEST NOT DUP1 DUP4 AND SWAP2 POP POP SWAP3 SWAP2 POP POP JUMP JUMPDEST PUSH1 0x0 PUSH2 0x19D1 DUP4 DUP4 PUSH2 0x19A7 JUMP JUMPDEST SWAP2 POP DUP3 PUSH1 0x2 MUL DUP3 OR SWAP1 POP SWAP3 SWAP2 POP POP JUMP JUMPDEST PUSH2 0x19EA DUP3 PUSH2 0x1461 JUMP JUMPDEST PUSH8 0xFFFFFFFFFFFFFFFF DUP2 GT ISZERO PUSH2 0x1A03 JUMPI PUSH2 0x1A02 PUSH2 0x122A JUMP JUMPDEST JUMPDEST PUSH2 0x1A0D DUP3 SLOAD PUSH2 0x1804 JUMP JUMPDEST PUSH2 0x1A18 DUP3 DUP3 DUP6 PUSH2 0x1954 JUMP JUMPDEST PUSH1 0x0 PUSH1 0x20 SWAP1 POP PUSH1 0x1F DUP4 GT PUSH1 0x1 DUP2 EQ PUSH2 0x1A4B JUMPI PUSH1 0x0 DUP5 ISZERO PUSH2 0x1A39 JUMPI DUP3 DUP8 ADD MLOAD SWAP1 POP JUMPDEST PUSH2 0x1A43 DUP6 DUP3 PUSH2 0x19C5 JUMP JUMPDEST DUP7 SSTORE POP PUSH2 0x1AAB JUMP JUMPDEST PUSH1 0x1F NOT DUP5 AND PUSH2 0x1A59 DUP7 PUSH2 0x1835 JUMP JUMPDEST PUSH1 0x0 JUMPDEST DUP3 DUP2 LT ISZERO PUSH2 0x1A81 JUMPI DUP5 DUP10 ADD MLOAD DUP3 SSTORE PUSH1 0x1 DUP3 ADD SWAP2 POP PUSH1 0x20 DUP6 ADD SWAP5 POP PUSH1 0x20 DUP2 ADD SWAP1 POP PUSH2 0x1A5C JUMP JUMPDEST DUP7 DUP4 LT ISZERO PUSH2 0x1A9E JUMPI DUP5 DUP10 ADD MLOAD PUSH2 0x1A9A PUSH1 0x1F DUP10 AND DUP3 PUSH2 0x19A7 JUMP JUMPDEST DUP4 SSTORE POP JUMPDEST PUSH1 0x1 PUSH1 0x2 DUP9 MUL ADD DUP9 SSTORE POP POP POP JUMPDEST POP POP POP POP POP POP JUMP JUMPDEST PUSH1 0x0 DUP2 SWAP1 POP SWAP3 SWAP2 POP POP JUMP JUMPDEST PUSH32 0x4550303031000000000000000000000000000000000000000000000000000000 PUSH1 0x0 DUP3 ADD MSTORE POP JUMP JUMPDEST PUSH1 0x0 PUSH2 0x1AF4 PUSH1 0x5 DUP4 PUSH2 0x1AB3 JUMP JUMPDEST SWAP2 POP PUSH2 0x1AFF DUP3 PUSH2 0x1ABE JUMP JUMPDEST PUSH1 0x5 DUP3 ADD SWAP1 POP SWAP2 SWAP1 POP JUMP JUMPDEST PUSH1 0x0 PUSH2 0x1B15 DUP3 PUSH2 0x1AE7 JUMP JUMPDEST SWAP2 POP DUP2 SWAP1 POP SWAP2 SWAP1 POP JUMP JUMPDEST PUSH32 0x4550303032000000000000000000000000000000000000000000000000000000 PUSH1 0x0 DUP3 ADD MSTORE POP JUMP JUMPDEST PUSH1 0x0 PUSH2 0x1B55 PUSH1 0x5 DUP4 PUSH2 0x1AB3 JUMP JUMPDEST SWAP2 POP PUSH2 0x1B60 DUP3 PUSH2 0x1B1F JUMP JUMPDEST PUSH1 0x5 DUP3 ADD SWAP1 POP SWAP2 SWAP1 POP JUMP JUMPDEST PUSH1 0x0 PUSH2 0x1B76 DUP3 PUSH2 0x1B48 JUMP JUMPDEST SWAP2 POP DUP2 SWAP1 POP SWAP2 SWAP1 POP JUMP JUMPDEST PUSH32 0x4550303033000000000000000000000000000000000000000000000000000000 PUSH1 0x0 DUP3 ADD MSTORE POP JUMP JUMPDEST PUSH1 0x0 PUSH2 0x1BB6 PUSH1 0x5 DUP4 PUSH2 0x1AB3 JUMP JUMPDEST SWAP2 POP PUSH2 0x1BC1 DUP3 PUSH2 0x1B80 JUMP JUMPDEST PUSH1 0x5 DUP3 ADD SWAP1 POP SWAP2 SWAP1 POP JUMP JUMPDEST PUSH1 0x0 PUSH2 0x1BD7 DUP3 PUSH2 0x1BA9 JUMP JUMPDEST SWAP2 POP DUP2 SWAP1 POP SWAP2 SWAP1 POP JUMP JUMPDEST PUSH32 0x4550303034000000000000000000000000000000000000000000000000000000 PUSH1 0x0 DUP3 ADD MSTORE POP JUMP JUMPDEST PUSH1 0x0 PUSH2 0x1C17 PUSH1 0x5 DUP4 PUSH2 0x1AB3 JUMP JUMPDEST SWAP2 POP PUSH2 0x1C22 DUP3 PUSH2 0x1BE1 JUMP JUMPDEST PUSH1 0x5 DUP3 ADD SWAP1 POP SWAP2 SWAP1 POP JUMP JUMPDEST PUSH1 0x0 PUSH2 0x1C38 DUP3 PUSH2 0x1C0A JUMP JUMPDEST SWAP2 POP DUP2 SWAP1 POP SWAP2 SWAP1 POP JUMP JUMPDEST PUSH32 0x7472616E735F74696D6500000000000000000000000000000000000000000000 PUSH1 0x0 DUP3 ADD MSTORE POP JUMP JUMPDEST PUSH1 0x0 PUSH2 0x1C78 PUSH1 0xA DUP4 PUSH2 0x1AB3 JUMP JUMPDEST SWAP2 POP PUSH2 0x1C83 DUP3 PUSH2 0x1C42 JUMP JUMPDEST PUSH1 0xA DUP3 ADD SWAP1 POP SWAP2 SWAP1 POP JUMP JUMPDEST PUSH1 0x0 PUSH2 0x1C99 DUP3 PUSH2 0x1C6B JUMP JUMPDEST SWAP2 POP DUP2 SWAP1 POP SWAP2 SWAP1 POP JUMP JUMPDEST PUSH32 0x4550303036000000000000000000000000000000000000000000000000000000 PUSH1 0x0 DUP3 ADD MSTORE POP JUMP JUMPDEST PUSH1 0x0 PUSH2 0x1CD9 PUSH1 0x5 DUP4 PUSH2 0x1AB3 JUMP JUMPDEST SWAP2 POP PUSH2 0x1CE4 DUP3 PUSH2 0x1CA3 JUMP JUMPDEST PUSH1 0x5 DUP3 ADD SWAP1 POP SWAP2 SWAP1 POP JUMP JUMPDEST PUSH1 0x0 PUSH2 0x1CFA DUP3 PUSH2 0x1CCC JUMP JUMPDEST SWAP2 POP DUP2 SWAP1 POP SWAP2 SWAP1 POP JUMP JUMPDEST PUSH32 0x4254430000000000000000000000000000000000000000000000000000000000 PUSH1 0x0 DUP3 ADD MSTORE POP JUMP JUMPDEST PUSH1 0x0 PUSH2 0x1D3A PUSH1 0x3 DUP4 PUSH2 0x1AB3 JUMP JUMPDEST SWAP2 POP PUSH2 0x1D45 DUP3 PUSH2 0x1D04 JUMP JUMPDEST PUSH1 0x3 DUP3 ADD SWAP1 POP SWAP2 SWAP1 POP JUMP JUMPDEST PUSH1 0x0 PUSH2 0x1D5B DUP3 PUSH2 0x1D2D JUMP JUMPDEST SWAP2 POP DUP2 SWAP1 POP SWAP2 SWAP1 POP JUMP JUMPDEST PUSH32 0x5553445400000000000000000000000000000000000000000000000000000000 PUSH1 0x0 DUP3 ADD MSTORE POP JUMP JUMPDEST PUSH1 0x0 PUSH2 0x1D9B PUSH1 0x4 DUP4 PUSH2 0x1AB3 JUMP JUMPDEST SWAP2 POP PUSH2 0x1DA6 DUP3 PUSH2 0x1D65 JUMP JUMPDEST PUSH1 0x4 DUP3 ADD SWAP1 POP SWAP2 SWAP1 POP JUMP JUMPDEST PUSH1 0x0 PUSH2 0x1DBC DUP3 PUSH2 0x1D8E JUMP JUMPDEST SWAP2 POP DUP2 SWAP1 POP SWAP2 SWAP1 POP JUMP JUMPDEST PUSH1 0x0 PUSH2 0x1DD1 DUP3 PUSH2 0x1461 JUMP JUMPDEST PUSH2 0x1DDB DUP2 DUP6 PUSH2 0x1AB3 JUMP JUMPDEST SWAP4 POP PUSH2 0x1DEB DUP2 DUP6 PUSH1 0x20 DUP7 ADD PUSH2 0x147D JUMP JUMPDEST DUP1 DUP5 ADD SWAP2 POP POP SWAP3 SWAP2 POP POP JUMP JUMPDEST PUSH1 0x0 PUSH2 0x1E03 DUP3 DUP5 PUSH2 0x1DC6 JUMP JUMPDEST SWAP2 POP DUP2 SWAP1 POP SWAP3 SWAP2 POP POP JUMP JUMPDEST PUSH32 0x4550303035000000000000000000000000000000000000000000000000000000 PUSH1 0x0 DUP3 ADD MSTORE POP JUMP JUMPDEST PUSH1 0x0 PUSH2 0x1E44 PUSH1 0x5 DUP4 PUSH2 0x1AB3 JUMP JUMPDEST SWAP2 POP PUSH2 0x1E4F DUP3 PUSH2 0x1E0E JUMP JUMPDEST PUSH1 0x5 DUP3 ADD SWAP1 POP SWAP2 SWAP1 POP JUMP JUMPDEST PUSH1 0x0 PUSH2 0x1E65 DUP3 PUSH2 0x1E37 JUMP JUMPDEST SWAP2 POP DUP2 SWAP1 POP SWAP2 SWAP1 POP JUMP JUMPDEST PUSH32 0x4550303037000000000000000000000000000000000000000000000000000000 PUSH1 0x0 DUP3 ADD MSTORE POP JUMP JUMPDEST PUSH1 0x0 PUSH2 0x1EA5 PUSH1 0x5 DUP4 PUSH2 0x1AB3 JUMP JUMPDEST SWAP2 POP PUSH2 0x1EB0 DUP3 PUSH2 0x1E6F JUMP JUMPDEST PUSH1 0x5 DUP3 ADD SWAP1 POP SWAP2 SWAP1 POP JUMP JUMPDEST PUSH1 0x0 PUSH2 0x1EC6 DUP3 PUSH2 0x1E98 JUMP JUMPDEST SWAP2 POP DUP2 SWAP1 POP SWAP2 SWAP1 POP JUMP JUMPDEST PUSH1 0x0 DUP2 SLOAD PUSH2 0x1EDD DUP2 PUSH2 0x1804 JUMP JUMPDEST PUSH2 0x1EE7 DUP2 DUP7 PUSH2 0x1AB3 JUMP JUMPDEST SWAP5 POP PUSH1 0x1 DUP3 AND PUSH1 0x0 DUP2 EQ PUSH2 0x1F02 JUMPI PUSH1 0x1 DUP2 EQ PUSH2 0x1F17 JUMPI PUSH2 0x1F4A JUMP JUMPDEST PUSH1 0xFF NOT DUP4 AND DUP7 MSTORE DUP2 ISZERO ISZERO DUP3 MUL DUP7 ADD SWAP4 POP PUSH2 0x1F4A JUMP JUMPDEST PUSH2 0x1F20 DUP6 PUSH2 0x1835 JUMP JUMPDEST PUSH1 0x0 JUMPDEST DUP4 DUP2 LT ISZERO PUSH2 0x1F42 JUMPI DUP2 SLOAD DUP2 DUP10 ADD MSTORE PUSH1 0x1 DUP3 ADD SWAP2 POP PUSH1 0x20 DUP2 ADD SWAP1 POP PUSH2 0x1F23 JUMP JUMPDEST DUP4 DUP9 ADD SWAP6 POP POP POP JUMPDEST POP POP POP SWAP3 SWAP2 POP POP JUMP JUMPDEST PUSH1 0x0 PUSH2 0x1F5F DUP3 DUP5 PUSH2 0x1ED0 JUMP JUMPDEST SWAP2 POP DUP2 SWAP1 POP SWAP3 SWAP2 POP POP JUMP JUMPDEST PUSH32 0x4E487B7100000000000000000000000000000000000000000000000000000000 PUSH1 0x0 MSTORE PUSH1 0x11 PUSH1 0x4 MSTORE PUSH1 0x24 PUSH1 0x0 REVERT JUMPDEST PUSH1 0x0 PUSH2 0x1FA4 DUP3 PUSH2 0x1355 JUMP JUMPDEST SWAP2 POP PUSH32 0xFFFFFFFFFFFFFFFFFFFFFFFFFFFFFFFFFFFFFFFFFFFFFFFFFFFFFFFFFFFFFFFF DUP3 SUB PUSH2 0x1FD6 JUMPI PUSH2 0x1FD5 PUSH2 0x1F6A JUMP JUMPDEST JUMPDEST PUSH1 0x1 DUP3 ADD SWAP1 POP SWAP2 SWAP1 POP JUMP JUMPDEST PUSH32 0x5472616E73616374696F6E207769746820676976656E206576656E744964206E PUSH1 0x0 DUP3 ADD MSTORE PUSH32 0x6F7420666F756E64000000000000000000000000000000000000000000000000 PUSH1 0x20 DUP3 ADD MSTORE POP JUMP JUMPDEST PUSH1 0x0 PUSH2 0x203D PUSH1 0x28 DUP4 PUSH2 0x146C JUMP JUMPDEST SWAP2 POP PUSH2 0x2048 DUP3 PUSH2 0x1FE1 JUMP JUMPDEST PUSH1 0x40 DUP3 ADD SWAP1 POP SWAP2 SWAP1 POP JUMP JUMPDEST PUSH1 0x0 PUSH1 0x20 DUP3 ADD SWAP1 POP DUP2 DUP2 SUB PUSH1 0x0 DUP4 ADD MSTORE PUSH2 0x206C DUP2 PUSH2 0x2030 JUMP JUMPDEST SWAP1 POP SWAP2 SWAP1 POP JUMP INVALID LOG2 PUSH5 0x6970667358 0x22 SLT KECCAK256 PUSH14 0x7F2407F4EF8450F75388644C5DFB 0xC7 SWAP15 0xF6 0x4E SWAP13 SWAP16 0x29 0xC4 DUP5 LT 0x29 PUSH10 0x91AB801F6464736F6C63 NUMBER STOP ADDMOD SLT STOP CALLER "
				},
				"gasEstimates": {
					"creation": {
						"codeDepositCost": "1672200",
						"executionCost": "1757",
						"totalCost": "1673957"
					},
					"external": {
						"E00010001(string,uint256,uint256,uint256,uint256)": "infinite",
						"E00010002(string,uint256,uint256,uint256,uint256)": "infinite",
						"E00010003(string,uint256,uint256,uint256,uint256)": "infinite",
						"E00010004(string,uint256,uint256,uint256,uint256,uint256,uint256)": "infinite",
						"E00010005(string,uint256,uint256,uint256,uint256,uint256)": "infinite",
						"E00010006(string,uint256,uint256,uint256,uint256,uint256)": "infinite",
						"E00020001(string,uint256,uint256,uint256,uint256)": "infinite",
						"getTransaction(string)": "infinite",
						"getTransactionParam(string,string)": "infinite",
						"transactions(uint256)": "infinite"
					},
					"internal": {
						"findTransaction(string memory)": "infinite"
					}
				},
				"methodIdentifiers": {
					"E00010001(string,uint256,uint256,uint256,uint256)": "c4f9ef20",
					"E00010002(string,uint256,uint256,uint256,uint256)": "d88936ce",
					"E00010003(string,uint256,uint256,uint256,uint256)": "c1c102e8",
					"E00010004(string,uint256,uint256,uint256,uint256,uint256,uint256)": "d85637e7",
					"E00010005(string,uint256,uint256,uint256,uint256,uint256)": "606de0cb",
					"E00010006(string,uint256,uint256,uint256,uint256,uint256)": "a75458c2",
					"E00020001(string,uint256,uint256,uint256,uint256)": "9f2967c7",
					"getTransaction(string)": "ac2ccd07",
					"getTransactionParam(string,string)": "b351ae99",
					"transactions(uint256)": "9ace38c2"
				}
			},
			"storageLayout": {
				"storage": [
					{
						"astId": 16,
						"contract": "recordTransaction.sol:TransactionContract",
						"label": "transactions",
						"offset": 0,
						"slot": "0",
						"type": "t_array(t_struct(Transaction)12_storage)dyn_storage"
					}
				],
				"types": {
					"t_address": {
						"encoding": "inplace",
						"label": "address",
						"numberOfBytes": "20"
					},
					"t_array(t_struct(Transaction)12_storage)dyn_storage": {
						"base": "t_struct(Transaction)12_storage",
						"encoding": "dynamic_array",
						"label": "struct TransactionContract.Transaction[]",
						"numberOfBytes": "32"
					},
					"t_mapping(t_string_memory_ptr,t_uint256)": {
						"encoding": "mapping",
						"key": "t_string_memory_ptr",
						"label": "mapping(string => uint256)",
						"numberOfBytes": "32",
						"value": "t_uint256"
					},
					"t_string_memory_ptr": {
						"encoding": "bytes",
						"label": "string",
						"numberOfBytes": "32"
					},
					"t_string_storage": {
						"encoding": "bytes",
						"label": "string",
						"numberOfBytes": "32"
					},
					"t_struct(Transaction)12_storage": {
						"encoding": "inplace",
						"label": "struct TransactionContract.Transaction",
						"members": [
							{
								"astId": 3,
								"contract": "recordTransaction.sol:TransactionContract",
								"label": "transactionType",
								"offset": 0,
								"slot": "0",
								"type": "t_string_storage"
							},
							{
								"astId": 5,
								"contract": "recordTransaction.sol:TransactionContract",
								"label": "eventId",
								"offset": 0,
								"slot": "1",
								"type": "t_string_storage"
							},
							{
								"astId": 7,
								"contract": "recordTransaction.sol:TransactionContract",
								"label": "Recorder",
								"offset": 0,
								"slot": "2",
								"type": "t_address"
							},
							{
								"astId": 11,
								"contract": "recordTransaction.sol:TransactionContract",
								"label": "params",
								"offset": 0,
								"slot": "3",
								"type": "t_mapping(t_string_memory_ptr,t_uint256)"
							}
						],
						"numberOfBytes": "128"
					},
					"t_uint256": {
						"encoding": "inplace",
						"label": "uint256",
						"numberOfBytes": "32"
					}
				}
			},
			"userdoc": {
				"kind": "user",
				"methods": {},
				"version": 1
			}
		}
	}
}