{
	"temp.sol": {
		"E00010001": {
			"abi": [
				{
					"anonymous": false,
					"inputs": [
						{
							"indexed": false,
							"internalType": "string",
							"name": "id",
							"type": "string"
						},
						{
							"indexed": false,
							"internalType": "string",
							"name": "transactionType",
							"type": "string"
						}
					],
					"name": "NewTransaction",
					"type": "event"
				},
				{
					"inputs": [
						{
							"internalType": "string",
							"name": "",
							"type": "string"
						}
					],
					"name": "balanceSheet",
					"outputs": [
						{
							"internalType": "int256",
							"name": "",
							"type": "int256"
						}
					],
					"stateMutability": "view",
					"type": "function"
				},
				{
					"inputs": [
						{
							"internalType": "string",
							"name": "",
							"type": "string"
						}
					],
					"name": "cashFlow",
					"outputs": [
						{
							"internalType": "int256",
							"name": "",
							"type": "int256"
						}
					],
					"stateMutability": "view",
					"type": "function"
				},
				{
					"inputs": [
						{
							"internalType": "string",
							"name": "",
							"type": "string"
						}
					],
					"name": "comprehensiveIncome",
					"outputs": [
						{
							"internalType": "int256",
							"name": "",
							"type": "int256"
						}
					],
					"stateMutability": "view",
					"type": "function"
				},
				{
					"inputs": [
						{
							"internalType": "string",
							"name": "_eventId",
							"type": "string"
						},
						{
							"internalType": "uint256",
							"name": "_SP002",
							"type": "uint256"
						},
						{
							"internalType": "uint256",
							"name": "_SP003",
							"type": "uint256"
						},
						{
							"internalType": "uint256",
							"name": "_SP004",
							"type": "uint256"
						}
					],
					"name": "getEventIdAndRate",
					"outputs": [],
					"stateMutability": "nonpayable",
					"type": "function"
				},
				{
					"inputs": [],
					"name": "getLatestTransaction",
					"outputs": [
						{
							"components": [
								{
									"internalType": "string",
									"name": "id",
									"type": "string"
								},
								{
									"internalType": "string",
									"name": "transactionType",
									"type": "string"
								},
								{
									"internalType": "uint256",
									"name": "amount",
									"type": "uint256"
								},
								{
									"internalType": "uint256",
									"name": "internalFee",
									"type": "uint256"
								},
								{
									"internalType": "uint256",
									"name": "externalFee",
									"type": "uint256"
								},
								{
									"internalType": "uint256",
									"name": "timestamp",
									"type": "uint256"
								},
								{
									"internalType": "uint256",
									"name": "rateUSDTtoUSD",
									"type": "uint256"
								}
							],
							"internalType": "struct E00010001.Event",
							"name": "",
							"type": "tuple"
						}
					],
					"stateMutability": "view",
					"type": "function"
				},
				{
					"inputs": [
						{
							"internalType": "uint256",
							"name": "startTime",
							"type": "uint256"
						},
						{
							"internalType": "uint256",
							"name": "endTime",
							"type": "uint256"
						}
					],
					"name": "getReportsInTimeRange",
					"outputs": [
						{
							"internalType": "string[]",
							"name": "IDS",
							"type": "string[]"
						},
						{
							"internalType": "string[14]",
							"name": "balanceSheetKeys",
							"type": "string[14]"
						},
						{
							"internalType": "int256[][]",
							"name": "balanceSheetValues",
							"type": "int256[][]"
						},
						{
							"internalType": "string[4]",
							"name": "comprehensiveIncomeKeys",
							"type": "string[4]"
						},
						{
							"internalType": "int256[][]",
							"name": "comprehensiveIncomeValues",
							"type": "int256[][]"
						},
						{
							"internalType": "string[8]",
							"name": "cashFlowKeys",
							"type": "string[8]"
						},
						{
							"internalType": "int256[][]",
							"name": "cashFlowValues",
							"type": "int256[][]"
						}
					],
					"stateMutability": "view",
					"type": "function"
				},
				{
					"inputs": [
						{
							"internalType": "string",
							"name": "id",
							"type": "string"
						}
					],
					"name": "getTransactionById",
					"outputs": [
						{
							"components": [
								{
									"internalType": "string",
									"name": "id",
									"type": "string"
								},
								{
									"internalType": "string",
									"name": "transactionType",
									"type": "string"
								},
								{
									"internalType": "uint256",
									"name": "amount",
									"type": "uint256"
								},
								{
									"internalType": "uint256",
									"name": "internalFee",
									"type": "uint256"
								},
								{
									"internalType": "uint256",
									"name": "externalFee",
									"type": "uint256"
								},
								{
									"internalType": "uint256",
									"name": "timestamp",
									"type": "uint256"
								},
								{
									"internalType": "uint256",
									"name": "rateUSDTtoUSD",
									"type": "uint256"
								}
							],
							"internalType": "struct E00010001.Event",
							"name": "",
							"type": "tuple"
						}
					],
					"stateMutability": "view",
					"type": "function"
				},
				{
					"inputs": [
						{
							"internalType": "uint256",
							"name": "index",
							"type": "uint256"
						}
					],
					"name": "getTransactionByIndex",
					"outputs": [
						{
							"components": [
								{
									"internalType": "string",
									"name": "id",
									"type": "string"
								},
								{
									"internalType": "string",
									"name": "transactionType",
									"type": "string"
								},
								{
									"internalType": "uint256",
									"name": "amount",
									"type": "uint256"
								},
								{
									"internalType": "uint256",
									"name": "internalFee",
									"type": "uint256"
								},
								{
									"internalType": "uint256",
									"name": "externalFee",
									"type": "uint256"
								},
								{
									"internalType": "uint256",
									"name": "timestamp",
									"type": "uint256"
								},
								{
									"internalType": "uint256",
									"name": "rateUSDTtoUSD",
									"type": "uint256"
								}
							],
							"internalType": "struct E00010001.Event",
							"name": "",
							"type": "tuple"
						}
					],
					"stateMutability": "view",
					"type": "function"
				},
				{
					"inputs": [],
					"name": "getTransactionCount",
					"outputs": [
						{
							"internalType": "uint256",
							"name": "",
							"type": "uint256"
						}
					],
					"stateMutability": "view",
					"type": "function"
				},
				{
					"inputs": [
						{
							"internalType": "uint256",
							"name": "startTime",
							"type": "uint256"
						},
						{
							"internalType": "uint256",
							"name": "endTime",
							"type": "uint256"
						}
					],
					"name": "getTransactionsInTimeRange",
					"outputs": [
						{
							"components": [
								{
									"internalType": "string",
									"name": "id",
									"type": "string"
								},
								{
									"internalType": "string",
									"name": "transactionType",
									"type": "string"
								},
								{
									"internalType": "uint256",
									"name": "amount",
									"type": "uint256"
								},
								{
									"internalType": "uint256",
									"name": "internalFee",
									"type": "uint256"
								},
								{
									"internalType": "uint256",
									"name": "externalFee",
									"type": "uint256"
								},
								{
									"internalType": "uint256",
									"name": "timestamp",
									"type": "uint256"
								},
								{
									"internalType": "uint256",
									"name": "rateUSDTtoUSD",
									"type": "uint256"
								}
							],
							"internalType": "struct E00010001.Event[]",
							"name": "",
							"type": "tuple[]"
						}
					],
					"stateMutability": "view",
					"type": "function"
				},
				{
					"inputs": [
						{
							"internalType": "string",
							"name": "_id",
							"type": "string"
						},
						{
							"internalType": "string",
							"name": "_transactionType",
							"type": "string"
						},
						{
							"internalType": "uint256",
							"name": "_amount",
							"type": "uint256"
						},
						{
							"internalType": "uint256",
							"name": "_internalFee",
							"type": "uint256"
						},
						{
							"internalType": "uint256",
							"name": "_externalFee",
							"type": "uint256"
						},
						{
							"internalType": "uint256",
							"name": "_rateUSDTtoUSD",
							"type": "uint256"
						}
					],
					"name": "recordTransaction",
					"outputs": [],
					"stateMutability": "nonpayable",
					"type": "function"
				},
				{
					"inputs": [
						{
							"internalType": "uint256",
							"name": "",
							"type": "uint256"
						}
					],
					"name": "transactions",
					"outputs": [
						{
							"internalType": "string",
							"name": "id",
							"type": "string"
						},
						{
							"internalType": "string",
							"name": "transactionType",
							"type": "string"
						},
						{
							"internalType": "uint256",
							"name": "amount",
							"type": "uint256"
						},
						{
							"internalType": "uint256",
							"name": "internalFee",
							"type": "uint256"
						},
						{
							"internalType": "uint256",
							"name": "externalFee",
							"type": "uint256"
						},
						{
							"internalType": "uint256",
							"name": "timestamp",
							"type": "uint256"
						},
						{
							"internalType": "uint256",
							"name": "rateUSDTtoUSD",
							"type": "uint256"
						}
					],
					"stateMutability": "view",
					"type": "function"
				}
			],
			"devdoc": {
				"kind": "dev",
				"methods": {},
				"version": 1
			},
			"evm": {
				"assembly": "    /* \"temp.sol\":77:13038  contract E00010001 {... */\n  mstore(0x40, 0x80)\n  callvalue\n  dup1\n  iszero\n  tag_1\n  jumpi\n  0x00\n  dup1\n  revert\ntag_1:\n  pop\n  dataSize(sub_0)\n  dup1\n  dataOffset(sub_0)\n  0x00\n  codecopy\n  0x00\n  return\nstop\n\nsub_0: assembly {\n        /* \"temp.sol\":77:13038  contract E00010001 {... */\n      mstore(0x40, 0x80)\n      callvalue\n      dup1\n      iszero\n      tag_1\n      jumpi\n      0x00\n      dup1\n      revert\n    tag_1:\n      pop\n      jumpi(tag_2, lt(calldatasize, 0x04))\n      shr(0xe0, calldataload(0x00))\n      dup1\n      0x6ccc29dc\n      gt\n      tag_15\n      jumpi\n      dup1\n      0x6ccc29dc\n      eq\n      tag_9\n      jumpi\n      dup1\n      0x869152e7\n      eq\n      tag_10\n      jumpi\n      dup1\n      0x9ace38c2\n      eq\n      tag_11\n      jumpi\n      dup1\n      0x9ff16eb7\n      eq\n      tag_12\n      jumpi\n      dup1\n      0xc2e27541\n      eq\n      tag_13\n      jumpi\n      dup1\n      0xf61347cf\n      eq\n      tag_14\n      jumpi\n      jump(tag_2)\n    tag_15:\n      dup1\n      0x12496544\n      eq\n      tag_3\n      jumpi\n      dup1\n      0x2b3a8659\n      eq\n      tag_4\n      jumpi\n      dup1\n      0x2c86881c\n      eq\n      tag_5\n      jumpi\n      dup1\n      0x2e7700f0\n      eq\n      tag_6\n      jumpi\n      dup1\n      0x4fb9118b\n      eq\n      tag_7\n      jumpi\n      dup1\n      0x519a334b\n      eq\n      tag_8\n      jumpi\n    tag_2:\n      0x00\n      dup1\n      revert\n        /* \"temp.sol\":1611:5187  function recordTransaction(string memory _id, string memory _transactionType,uint256 _amount,uint256 _internalFee,uint256 _externalFee,uint256 _rateUSDTtoUSD ) public {... */\n    tag_3:\n      tag_16\n      0x04\n      dup1\n      calldatasize\n      sub\n      dup2\n      add\n      swap1\n      tag_17\n      swap2\n      swap1\n      tag_18\n      jump\t// in\n    tag_17:\n      tag_19\n      jump\t// in\n    tag_16:\n      stop\n        /* \"temp.sol\":435:487  mapping(string => int256) public comprehensiveIncome */\n    tag_4:\n      tag_20\n      0x04\n      dup1\n      calldatasize\n      sub\n      dup2\n      add\n      swap1\n      tag_21\n      swap2\n      swap1\n      tag_22\n      jump\t// in\n    tag_21:\n      tag_23\n      jump\t// in\n    tag_20:\n      mload(0x40)\n      tag_24\n      swap2\n      swap1\n      tag_25\n      jump\t// in\n    tag_24:\n      mload(0x40)\n      dup1\n      swap2\n      sub\n      swap1\n      return\n        /* \"temp.sol\":493:534  mapping(string => int256) public cashFlow */\n    tag_5:\n      tag_26\n      0x04\n      dup1\n      calldatasize\n      sub\n      dup2\n      add\n      swap1\n      tag_27\n      swap2\n      swap1\n      tag_22\n      jump\t// in\n    tag_27:\n      tag_28\n      jump\t// in\n    tag_26:\n      mload(0x40)\n      tag_29\n      swap2\n      swap1\n      tag_25\n      jump\t// in\n    tag_29:\n      mload(0x40)\n      dup1\n      swap2\n      sub\n      swap1\n      return\n        /* \"temp.sol\":7393:7493  function getTransactionCount() public view returns (uint256) {... */\n    tag_6:\n      tag_30\n      tag_31\n      jump\t// in\n    tag_30:\n      mload(0x40)\n      tag_32\n      swap2\n      swap1\n      tag_33\n      jump\t// in\n    tag_32:\n      mload(0x40)\n      dup1\n      swap2\n      sub\n      swap1\n      return\n        /* \"temp.sol\":8203:8904  function getTransactionsInTimeRange(uint256 startTime, uint256 endTime) public view returns (Event[] memory) {... */\n    tag_7:\n      tag_34\n      0x04\n      dup1\n      calldatasize\n      sub\n      dup2\n      add\n      swap1\n      tag_35\n      swap2\n      swap1\n      tag_36\n      jump\t// in\n    tag_35:\n      tag_37\n      jump\t// in\n    tag_34:\n      mload(0x40)\n      tag_38\n      swap2\n      swap1\n      tag_39\n      jump\t// in\n    tag_38:\n      mload(0x40)\n      dup1\n      swap2\n      sub\n      swap1\n      return\n        /* \"temp.sol\":770:1013  function getEventIdAndRate(string memory _eventId, uint256 _SP002, uint256 _SP003, uint256 _SP004) public {... */\n    tag_8:\n      tag_40\n      0x04\n      dup1\n      calldatasize\n      sub\n      dup2\n      add\n      swap1\n      tag_41\n      swap2\n      swap1\n      tag_42\n      jump\t// in\n    tag_41:\n      tag_43\n      jump\t// in\n    tag_40:\n      stop\n        /* \"temp.sol\":7692:7892  function getLatestTransaction() public view returns (Event memory) {... */\n    tag_9:\n      tag_44\n      tag_45\n      jump\t// in\n    tag_44:\n      mload(0x40)\n      tag_46\n      swap2\n      swap1\n      tag_47\n      jump\t// in\n    tag_46:\n      mload(0x40)\n      dup1\n      swap2\n      sub\n      swap1\n      return\n        /* \"temp.sol\":7499:7686  function getTransactionByIndex(uint256 index) public view returns (Event memory) {... */\n    tag_10:\n      tag_48\n      0x04\n      dup1\n      calldatasize\n      sub\n      dup2\n      add\n      swap1\n      tag_49\n      swap2\n      swap1\n      tag_50\n      jump\t// in\n    tag_49:\n      tag_51\n      jump\t// in\n    tag_48:\n      mload(0x40)\n      tag_52\n      swap2\n      swap1\n      tag_47\n      jump\t// in\n    tag_52:\n      mload(0x40)\n      dup1\n      swap2\n      sub\n      swap1\n      return\n        /* \"temp.sol\":350:377  Event[] public transactions */\n    tag_11:\n      tag_53\n      0x04\n      dup1\n      calldatasize\n      sub\n      dup2\n      add\n      swap1\n      tag_54\n      swap2\n      swap1\n      tag_50\n      jump\t// in\n    tag_54:\n      tag_55\n      jump\t// in\n    tag_53:\n      mload(0x40)\n      tag_56\n      swap8\n      swap7\n      swap6\n      swap5\n      swap4\n      swap3\n      swap2\n      swap1\n      tag_57\n      jump\t// in\n    tag_56:\n      mload(0x40)\n      dup1\n      swap2\n      sub\n      swap1\n      return\n        /* \"temp.sol\":7898:8197  function getTransactionById(string memory id) public view returns (Event memory) {... */\n    tag_12:\n      tag_58\n      0x04\n      dup1\n      calldatasize\n      sub\n      dup2\n      add\n      swap1\n      tag_59\n      swap2\n      swap1\n      tag_22\n      jump\t// in\n    tag_59:\n      tag_60\n      jump\t// in\n    tag_58:\n      mload(0x40)\n      tag_61\n      swap2\n      swap1\n      tag_47\n      jump\t// in\n    tag_61:\n      mload(0x40)\n      dup1\n      swap2\n      sub\n      swap1\n      return\n        /* \"temp.sol\":8910:13036  function getReportsInTimeRange(uint256 startTime, uint256 endTime) public view returns (... */\n    tag_13:\n      tag_62\n      0x04\n      dup1\n      calldatasize\n      sub\n      dup2\n      add\n      swap1\n      tag_63\n      swap2\n      swap1\n      tag_36\n      jump\t// in\n    tag_63:\n      tag_64\n      jump\t// in\n    tag_62:\n      mload(0x40)\n      tag_65\n      swap8\n      swap7\n      swap6\n      swap5\n      swap4\n      swap3\n      swap2\n      swap1\n      tag_66\n      jump\t// in\n    tag_65:\n      mload(0x40)\n      dup1\n      swap2\n      sub\n      swap1\n      return\n        /* \"temp.sol\":384:429  mapping(string => int256) public balanceSheet */\n    tag_14:\n      tag_67\n      0x04\n      dup1\n      calldatasize\n      sub\n      dup2\n      add\n      swap1\n      tag_68\n      swap2\n      swap1\n      tag_22\n      jump\t// in\n    tag_68:\n      tag_69\n      jump\t// in\n    tag_67:\n      mload(0x40)\n      tag_70\n      swap2\n      swap1\n      tag_25\n      jump\t// in\n    tag_70:\n      mload(0x40)\n      dup1\n      swap2\n      sub\n      swap1\n      return\n        /* \"temp.sol\":1611:5187  function recordTransaction(string memory _id, string memory _transactionType,uint256 _amount,uint256 _internalFee,uint256 _externalFee,uint256 _rateUSDTtoUSD ) public {... */\n    tag_19:\n        /* \"temp.sol\":1793:1802  uint256 i */\n      0x00\n        /* \"temp.sol\":1789:1972  for(uint256 i; i < transactions.length; i++){... */\n    tag_72:\n        /* \"temp.sol\":1808:1820  transactions */\n      0x00\n        /* \"temp.sol\":1808:1827  transactions.length */\n      dup1\n      sload\n      swap1\n      pop\n        /* \"temp.sol\":1804:1805  i */\n      dup2\n        /* \"temp.sol\":1804:1827  i < transactions.length */\n      lt\n        /* \"temp.sol\":1789:1972  for(uint256 i; i < transactions.length; i++){... */\n      iszero\n      tag_73\n      jumpi\n        /* \"temp.sol\":1918:1930  transactions */\n      0x00\n        /* \"temp.sol\":1931:1932  i */\n      dup2\n        /* \"temp.sol\":1918:1933  transactions[i] */\n      dup2\n      sload\n      dup2\n      lt\n      tag_75\n      jumpi\n      tag_76\n      tag_77\n      jump\t// in\n    tag_76:\n    tag_75:\n      swap1\n      0x00\n      mstore\n      keccak256(0x00, 0x20)\n      swap1\n      0x07\n      mul\n      add\n        /* \"temp.sol\":1918:1936  transactions[i].id */\n      0x00\n      add\n        /* \"temp.sol\":1901:1937  abi.encodePacked(transactions[i].id) */\n      add(0x20, mload(0x40))\n      tag_79\n      swap2\n      swap1\n      tag_80\n      jump\t// in\n    tag_79:\n      mload(0x40)\n      0x20\n      dup2\n      dup4\n      sub\n      sub\n      dup2\n      mstore\n      swap1\n      0x40\n      mstore\n        /* \"temp.sol\":1891:1938  keccak256(abi.encodePacked(transactions[i].id)) */\n      dup1\n      mload\n      swap1\n      0x20\n      add\n      keccak256\n        /* \"temp.sol\":1882:1885  _id */\n      dup8\n        /* \"temp.sol\":1865:1886  abi.encodePacked(_id) */\n      add(0x20, mload(0x40))\n      tag_81\n      swap2\n      swap1\n      tag_82\n      jump\t// in\n    tag_81:\n      mload(0x40)\n      0x20\n      dup2\n      dup4\n      sub\n      sub\n      dup2\n      mstore\n      swap1\n      0x40\n      mstore\n        /* \"temp.sol\":1855:1887  keccak256(abi.encodePacked(_id)) */\n      dup1\n      mload\n      swap1\n      0x20\n      add\n      keccak256\n        /* \"temp.sol\":1855:1938  keccak256(abi.encodePacked(_id)) != keccak256(abi.encodePacked(transactions[i].id)) */\n      sub\n        /* \"temp.sol\":1847:1961  require(keccak256(abi.encodePacked(_id)) != keccak256(abi.encodePacked(transactions[i].id)), \"ID already exists.\") */\n      tag_83\n      jumpi\n      mload(0x40)\n      0x08c379a000000000000000000000000000000000000000000000000000000000\n      dup2\n      mstore\n      0x04\n      add\n      tag_84\n      swap1\n      tag_85\n      jump\t// in\n    tag_84:\n      mload(0x40)\n      dup1\n      swap2\n      sub\n      swap1\n      revert\n    tag_83:\n        /* \"temp.sol\":1829:1832  i++ */\n      dup1\n      dup1\n      tag_86\n      swap1\n      tag_87\n      jump\t// in\n    tag_86:\n      swap2\n      pop\n      pop\n        /* \"temp.sol\":1789:1972  for(uint256 i; i < transactions.length; i++){... */\n      jump(tag_72)\n    tag_73:\n      pop\n        /* \"temp.sol\":1990:2017  Event memory newTransaction */\n      0x00\n        /* \"temp.sol\":2020:2294  Event({... */\n      mload(0x40)\n      dup1\n      0xe0\n      add\n      0x40\n      mstore\n      dup1\n        /* \"temp.sol\":2044:2047  _id */\n      dup9\n        /* \"temp.sol\":2020:2294  Event({... */\n      dup2\n      mstore\n      0x20\n      add\n        /* \"temp.sol\":2078:2094  _transactionType */\n      dup8\n        /* \"temp.sol\":2020:2294  Event({... */\n      dup2\n      mstore\n      0x20\n      add\n        /* \"temp.sol\":2116:2123  _amount */\n      dup7\n        /* \"temp.sol\":2020:2294  Event({... */\n      dup2\n      mstore\n      0x20\n      add\n        /* \"temp.sol\":2150:2162  _internalFee */\n      dup6\n        /* \"temp.sol\":2020:2294  Event({... */\n      dup2\n      mstore\n      0x20\n      add\n        /* \"temp.sol\":2189:2201  _externalFee */\n      dup5\n        /* \"temp.sol\":2020:2294  Event({... */\n      dup2\n      mstore\n      0x20\n      add\n        /* \"temp.sol\":2226:2241  block.timestamp */\n      timestamp\n        /* \"temp.sol\":2020:2294  Event({... */\n      dup2\n      mstore\n      0x20\n      add\n        /* \"temp.sol\":2269:2283  _rateUSDTtoUSD */\n      dup4\n        /* \"temp.sol\":2020:2294  Event({... */\n      dup2\n      mstore\n      pop\n        /* \"temp.sol\":1990:2294  Event memory newTransaction = Event({... */\n      swap1\n      pop\n        /* \"temp.sol\":2305:2317  transactions */\n      0x00\n        /* \"temp.sol\":2323:2337  newTransaction */\n      dup2\n        /* \"temp.sol\":2305:2338  transactions.push(newTransaction) */\n      swap1\n      dup1\n      0x01\n      dup2\n      sload\n      add\n      dup1\n      dup3\n      sstore\n      dup1\n      swap2\n      pop\n      pop\n      0x01\n      swap1\n      sub\n      swap1\n      0x00\n      mstore\n      keccak256(0x00, 0x20)\n      swap1\n      0x07\n      mul\n      add\n      0x00\n      swap1\n      swap2\n      swap1\n      swap2\n      swap1\n      swap2\n      pop\n      0x00\n      dup3\n      add\n      mload\n      dup2\n      0x00\n      add\n      swap1\n      dup2\n      tag_89\n      swap2\n      swap1\n      tag_90\n      jump\t// in\n    tag_89:\n      pop\n      0x20\n      dup3\n      add\n      mload\n      dup2\n      0x01\n      add\n      swap1\n      dup2\n      tag_91\n      swap2\n      swap1\n      tag_90\n      jump\t// in\n    tag_91:\n      pop\n      0x40\n      dup3\n      add\n      mload\n      dup2\n      0x02\n      add\n      sstore\n      0x60\n      dup3\n      add\n      mload\n      dup2\n      0x03\n      add\n      sstore\n      0x80\n      dup3\n      add\n      mload\n      dup2\n      0x04\n      add\n      sstore\n      0xa0\n      dup3\n      add\n      mload\n      dup2\n      0x05\n      add\n      sstore\n      0xc0\n      dup3\n      add\n      mload\n      dup2\n      0x06\n      add\n      sstore\n      pop\n      pop\n        /* \"temp.sol\":2410:2411  1 */\n      0x01\n        /* \"temp.sol\":2388:2400  transactions */\n      0x00\n        /* \"temp.sol\":2388:2407  transactions.length */\n      dup1\n      sload\n      swap1\n      pop\n        /* \"temp.sol\":2388:2411  transactions.length - 1 */\n      tag_92\n      swap2\n      swap1\n      tag_93\n      jump\t// in\n    tag_92:\n        /* \"temp.sol\":2348:2366  transactionIndices */\n      0x04\n        /* \"temp.sol\":2367:2381  newTransaction */\n      dup3\n        /* \"temp.sol\":2367:2384  newTransaction.id */\n      0x00\n      add\n      mload\n        /* \"temp.sol\":2348:2385  transactionIndices[newTransaction.id] */\n      mload(0x40)\n      tag_94\n      swap2\n      swap1\n      tag_82\n      jump\t// in\n    tag_94:\n      swap1\n      dup2\n      mstore\n      0x20\n      add\n      mload(0x40)\n      dup1\n      swap2\n      sub\n      swap1\n      keccak256\n        /* \"temp.sol\":2348:2411  transactionIndices[newTransaction.id] = transactions.length - 1 */\n      dup2\n      swap1\n      sstore\n      pop\n        /* \"temp.sol\":2422:2442  int256 A001_3_4_5_14 */\n      0x00\n        /* \"temp.sol\":2519:2522  100 */\n      0x64\n        /* \"temp.sol\":2507:2518  latestSP002 */\n      sload(0x05)\n        /* \"temp.sol\":2477:2491  newTransaction */\n      dup4\n        /* \"temp.sol\":2477:2503  newTransaction.externalFee */\n      0x80\n      add\n      mload\n        /* \"temp.sol\":2453:2467  newTransaction */\n      dup5\n        /* \"temp.sol\":2453:2474  newTransaction.amount */\n      0x40\n      add\n      mload\n        /* \"temp.sol\":2453:2503  newTransaction.amount + newTransaction.externalFee */\n      tag_95\n      swap2\n      swap1\n      tag_96\n      jump\t// in\n    tag_95:\n        /* \"temp.sol\":2452:2518  (newTransaction.amount + newTransaction.externalFee) * latestSP002 */\n      tag_97\n      swap2\n      swap1\n      tag_98\n      jump\t// in\n    tag_97:\n        /* \"temp.sol\":2452:2522  (newTransaction.amount + newTransaction.externalFee) * latestSP002/100 */\n      tag_99\n      swap2\n      swap1\n      tag_100\n      jump\t// in\n    tag_99:\n        /* \"temp.sol\":2422:2523  int256 A001_3_4_5_14 = int256((newTransaction.amount + newTransaction.externalFee) * latestSP002/100) */\n      swap1\n      pop\n        /* \"temp.sol\":2533:2569  string[] memory keysForA001_3_4_5_14 */\n      0x00\n        /* \"temp.sol\":2585:2586  5 */\n      0x05\n        /* \"temp.sol\":2572:2587  new string[](5) */\n      0xffffffffffffffff\n      dup2\n      gt\n      iszero\n      tag_101\n      jumpi\n      tag_102\n      tag_103\n      jump\t// in\n    tag_102:\n    tag_101:\n      mload(0x40)\n      swap1\n      dup1\n      dup3\n      mstore\n      dup1\n      0x20\n      mul\n      0x20\n      add\n      dup3\n      add\n      0x40\n      mstore\n      dup1\n      iszero\n      tag_104\n      jumpi\n      dup2\n      0x20\n      add\n    tag_105:\n      0x60\n      dup2\n      mstore\n      0x20\n      add\n      swap1\n      0x01\n      swap1\n      sub\n      swap1\n      dup2\n      tag_105\n      jumpi\n      swap1\n      pop\n    tag_104:\n      pop\n        /* \"temp.sol\":2533:2587  string[] memory keysForA001_3_4_5_14 = new string[](5) */\n      swap1\n      pop\n        /* \"temp.sol\":2597:2675  keysForA001_3_4_5_14[0] = \"assets.details.cryptocurrency.totalAmountFairValue\" */\n      mload(0x40)\n      dup1\n      0x60\n      add\n      0x40\n      mstore\n      dup1\n      0x32\n      dup2\n      mstore\n      0x20\n      add\n      data_10212a95d772616748d16efa793bee0b98ad5c46eb9519e0c9be970bff0d2a15\n      0x32\n      swap2\n      codecopy\n        /* \"temp.sol\":2597:2617  keysForA001_3_4_5_14 */\n      dup2\n        /* \"temp.sol\":2618:2619  0 */\n      0x00\n        /* \"temp.sol\":2597:2620  keysForA001_3_4_5_14[0] */\n      dup2\n      mload\n      dup2\n      lt\n      tag_106\n      jumpi\n      tag_107\n      tag_77\n      jump\t// in\n    tag_107:\n    tag_106:\n      0x20\n      mul\n      0x20\n      add\n      add\n        /* \"temp.sol\":2597:2675  keysForA001_3_4_5_14[0] = \"assets.details.cryptocurrency.totalAmountFairValue\" */\n      dup2\n      swap1\n      mstore\n      pop\n        /* \"temp.sol\":2685:2767  keysForA001_3_4_5_14[1] = \"assets.details.cryptocurrency.breakdown.USDT.fairValue\" */\n      mload(0x40)\n      dup1\n      0x60\n      add\n      0x40\n      mstore\n      dup1\n      0x36\n      dup2\n      mstore\n      0x20\n      add\n      data_5361a904a9ccaaf866d9716cb68f42ebcfde236af4238d6956fff2ba52d390ed\n      0x36\n      swap2\n      codecopy\n        /* \"temp.sol\":2685:2705  keysForA001_3_4_5_14 */\n      dup2\n        /* \"temp.sol\":2706:2707  1 */\n      0x01\n        /* \"temp.sol\":2685:2708  keysForA001_3_4_5_14[1] */\n      dup2\n      mload\n      dup2\n      lt\n      tag_108\n      jumpi\n      tag_109\n      tag_77\n      jump\t// in\n    tag_109:\n    tag_108:\n      0x20\n      mul\n      0x20\n      add\n      add\n        /* \"temp.sol\":2685:2767  keysForA001_3_4_5_14[1] = \"assets.details.cryptocurrency.breakdown.USDT.fairValue\" */\n      dup2\n      swap1\n      mstore\n      pop\n        /* \"temp.sol\":2777:2832  keysForA001_3_4_5_14[2] = \"assets.totalAmountFairValue\" */\n      mload(0x40)\n      dup1\n      0x40\n      add\n      0x40\n      mstore\n      dup1\n      0x1b\n      dup2\n      mstore\n      0x20\n      add\n      0x6173736574732e746f74616c416d6f756e744661697256616c75650000000000\n      dup2\n      mstore\n      pop\n        /* \"temp.sol\":2777:2797  keysForA001_3_4_5_14 */\n      dup2\n        /* \"temp.sol\":2798:2799  2 */\n      0x02\n        /* \"temp.sol\":2777:2800  keysForA001_3_4_5_14[2] */\n      dup2\n      mload\n      dup2\n      lt\n      tag_110\n      jumpi\n      tag_111\n      tag_77\n      jump\t// in\n    tag_111:\n    tag_110:\n      0x20\n      mul\n      0x20\n      add\n      add\n        /* \"temp.sol\":2777:2832  keysForA001_3_4_5_14[2] = \"assets.totalAmountFairValue\" */\n      dup2\n      swap1\n      mstore\n      pop\n        /* \"temp.sol\":2842:2890  keysForA001_3_4_5_14[3] = \"totalAssetsFairValue\" */\n      mload(0x40)\n      dup1\n      0x40\n      add\n      0x40\n      mstore\n      dup1\n      0x14\n      dup2\n      mstore\n      0x20\n      add\n      0x746f74616c4173736574734661697256616c7565000000000000000000000000\n      dup2\n      mstore\n      pop\n        /* \"temp.sol\":2842:2862  keysForA001_3_4_5_14 */\n      dup2\n        /* \"temp.sol\":2863:2864  3 */\n      0x03\n        /* \"temp.sol\":2842:2865  keysForA001_3_4_5_14[3] */\n      dup2\n      mload\n      dup2\n      lt\n      tag_112\n      jumpi\n      tag_113\n      tag_77\n      jump\t// in\n    tag_113:\n    tag_112:\n      0x20\n      mul\n      0x20\n      add\n      add\n        /* \"temp.sol\":2842:2890  keysForA001_3_4_5_14[3] = \"totalAssetsFairValue\" */\n      dup2\n      swap1\n      mstore\n      pop\n        /* \"temp.sol\":2900:2962  keysForA001_3_4_5_14[4] = \"totalLiabilitiesAndEquityFairValue\" */\n      mload(0x40)\n      dup1\n      0x60\n      add\n      0x40\n      mstore\n      dup1\n      0x22\n      dup2\n      mstore\n      0x20\n      add\n      data_51841a146b53adb530a6c57a8c8587a4b64fa0425e55f3407e1595e896aee44e\n      0x22\n      swap2\n      codecopy\n        /* \"temp.sol\":2900:2920  keysForA001_3_4_5_14 */\n      dup2\n        /* \"temp.sol\":2921:2922  4 */\n      0x04\n        /* \"temp.sol\":2900:2923  keysForA001_3_4_5_14[4] */\n      dup2\n      mload\n      dup2\n      lt\n      tag_114\n      jumpi\n      tag_115\n      tag_77\n      jump\t// in\n    tag_115:\n    tag_114:\n      0x20\n      mul\n      0x20\n      add\n      add\n        /* \"temp.sol\":2900:2962  keysForA001_3_4_5_14[4] = \"totalLiabilitiesAndEquityFairValue\" */\n      dup2\n      swap1\n      mstore\n      pop\n        /* \"temp.sol\":2972:3032  addAmountToBalanceSheet(keysForA001_3_4_5_14, A001_3_4_5_14) */\n      tag_116\n        /* \"temp.sol\":2996:3016  keysForA001_3_4_5_14 */\n      dup2\n        /* \"temp.sol\":3018:3031  A001_3_4_5_14 */\n      dup4\n        /* \"temp.sol\":2972:2995  addAmountToBalanceSheet */\n      tag_117\n        /* \"temp.sol\":2972:3032  addAmountToBalanceSheet(keysForA001_3_4_5_14, A001_3_4_5_14) */\n      jump\t// in\n    tag_116:\n        /* \"temp.sol\":3044:3055  int256 A002 */\n      0x00\n        /* \"temp.sol\":3089:3103  newTransaction */\n      dup4\n        /* \"temp.sol\":3089:3115  newTransaction.externalFee */\n      0x80\n      add\n      mload\n        /* \"temp.sol\":3065:3079  newTransaction */\n      dup5\n        /* \"temp.sol\":3065:3086  newTransaction.amount */\n      0x40\n      add\n      mload\n        /* \"temp.sol\":3065:3115  newTransaction.amount + newTransaction.externalFee */\n      tag_118\n      swap2\n      swap1\n      tag_96\n      jump\t// in\n    tag_118:\n        /* \"temp.sol\":3044:3116  int256 A002 = int256(newTransaction.amount + newTransaction.externalFee) */\n      swap1\n      pop\n        /* \"temp.sol\":3197:3201  A002 */\n      dup1\n        /* \"temp.sol\":3126:3138  balanceSheet */\n      0x01\n        /* \"temp.sol\":3126:3193  balanceSheet[\"assets.details.cryptocurrency.breakdown.USDT.amount\"] */\n      mload(0x40)\n      tag_119\n      swap1\n      tag_120\n      jump\t// in\n    tag_119:\n      swap1\n      dup2\n      mstore\n      0x20\n      add\n      mload(0x40)\n      dup1\n      swap2\n      sub\n      swap1\n      keccak256\n      0x00\n        /* \"temp.sol\":3126:3201  balanceSheet[\"assets.details.cryptocurrency.breakdown.USDT.amount\"] += A002 */\n      dup3\n      dup3\n      sload\n      tag_121\n      swap2\n      swap1\n      tag_122\n      jump\t// in\n    tag_121:\n      swap3\n      pop\n      pop\n      dup2\n      swap1\n      sstore\n      pop\n        /* \"temp.sol\":3212:3227  int256 A006_8_9 */\n      0x00\n        /* \"temp.sol\":3304:3307  100 */\n      0x64\n        /* \"temp.sol\":3292:3303  latestSP002 */\n      sload(0x05)\n        /* \"temp.sol\":3262:3276  newTransaction */\n      dup7\n        /* \"temp.sol\":3262:3288  newTransaction.internalFee */\n      0x60\n      add\n      mload\n        /* \"temp.sol\":3238:3252  newTransaction */\n      dup8\n        /* \"temp.sol\":3238:3259  newTransaction.amount */\n      0x40\n      add\n      mload\n        /* \"temp.sol\":3238:3288  newTransaction.amount - newTransaction.internalFee */\n      tag_123\n      swap2\n      swap1\n      tag_93\n      jump\t// in\n    tag_123:\n        /* \"temp.sol\":3237:3303  (newTransaction.amount - newTransaction.internalFee) * latestSP002 */\n      tag_124\n      swap2\n      swap1\n      tag_98\n      jump\t// in\n    tag_124:\n        /* \"temp.sol\":3237:3307  (newTransaction.amount - newTransaction.internalFee) * latestSP002/100 */\n      tag_125\n      swap2\n      swap1\n      tag_100\n      jump\t// in\n    tag_125:\n        /* \"temp.sol\":3212:3308  int256 A006_8_9 = int256((newTransaction.amount - newTransaction.internalFee) * latestSP002/100) */\n      swap1\n      pop\n        /* \"temp.sol\":3318:3349  string[] memory keysForA006_8_9 */\n      0x00\n        /* \"temp.sol\":3365:3366  3 */\n      0x03\n        /* \"temp.sol\":3352:3367  new string[](3) */\n      0xffffffffffffffff\n      dup2\n      gt\n      iszero\n      tag_126\n      jumpi\n      tag_127\n      tag_103\n      jump\t// in\n    tag_127:\n    tag_126:\n      mload(0x40)\n      swap1\n      dup1\n      dup3\n      mstore\n      dup1\n      0x20\n      mul\n      0x20\n      add\n      dup3\n      add\n      0x40\n      mstore\n      dup1\n      iszero\n      tag_128\n      jumpi\n      dup2\n      0x20\n      add\n    tag_129:\n      0x60\n      dup2\n      mstore\n      0x20\n      add\n      swap1\n      0x01\n      swap1\n      sub\n      swap1\n      dup2\n      tag_129\n      jumpi\n      swap1\n      pop\n    tag_128:\n      pop\n        /* \"temp.sol\":3318:3367  string[] memory keysForA006_8_9 = new string[](3) */\n      swap1\n      pop\n        /* \"temp.sol\":3377:3452  keysForA006_8_9[0] = \"liabilities.details.userDeposit.totalAmountFairValue\" */\n      mload(0x40)\n      dup1\n      0x60\n      add\n      0x40\n      mstore\n      dup1\n      0x34\n      dup2\n      mstore\n      0x20\n      add\n      data_6c886e0e08bddbc41f130649253a5b9f93f010fd7699e51580e73d74f822beaf\n      0x34\n      swap2\n      codecopy\n        /* \"temp.sol\":3377:3392  keysForA006_8_9 */\n      dup2\n        /* \"temp.sol\":3393:3394  0 */\n      0x00\n        /* \"temp.sol\":3377:3395  keysForA006_8_9[0] */\n      dup2\n      mload\n      dup2\n      lt\n      tag_130\n      jumpi\n      tag_131\n      tag_77\n      jump\t// in\n    tag_131:\n    tag_130:\n      0x20\n      mul\n      0x20\n      add\n      add\n        /* \"temp.sol\":3377:3452  keysForA006_8_9[0] = \"liabilities.details.userDeposit.totalAmountFairValue\" */\n      dup2\n      swap1\n      mstore\n      pop\n        /* \"temp.sol\":3462:3541  keysForA006_8_9[1] = \"liabilities.details.userDeposit.breakdown.USDT.fairValue\" */\n      mload(0x40)\n      dup1\n      0x60\n      add\n      0x40\n      mstore\n      dup1\n      0x38\n      dup2\n      mstore\n      0x20\n      add\n      data_bac76cc04e51c33eaec201989be16d49cd4cbca9658c3df26eb7a5adf6b03a09\n      0x38\n      swap2\n      codecopy\n        /* \"temp.sol\":3462:3477  keysForA006_8_9 */\n      dup2\n        /* \"temp.sol\":3478:3479  1 */\n      0x01\n        /* \"temp.sol\":3462:3480  keysForA006_8_9[1] */\n      dup2\n      mload\n      dup2\n      lt\n      tag_132\n      jumpi\n      tag_133\n      tag_77\n      jump\t// in\n    tag_133:\n    tag_132:\n      0x20\n      mul\n      0x20\n      add\n      add\n        /* \"temp.sol\":3462:3541  keysForA006_8_9[1] = \"liabilities.details.userDeposit.breakdown.USDT.fairValue\" */\n      dup2\n      swap1\n      mstore\n      pop\n        /* \"temp.sol\":3551:3606  keysForA006_8_9[2] = \"liabilities.totalAmountFairValue\" */\n      mload(0x40)\n      dup1\n      0x40\n      add\n      0x40\n      mstore\n      dup1\n      0x20\n      dup2\n      mstore\n      0x20\n      add\n      0x6c696162696c69746965732e746f74616c416d6f756e744661697256616c7565\n      dup2\n      mstore\n      pop\n        /* \"temp.sol\":3551:3566  keysForA006_8_9 */\n      dup2\n        /* \"temp.sol\":3567:3568  2 */\n      0x02\n        /* \"temp.sol\":3551:3569  keysForA006_8_9[2] */\n      dup2\n      mload\n      dup2\n      lt\n      tag_134\n      jumpi\n      tag_135\n      tag_77\n      jump\t// in\n    tag_135:\n    tag_134:\n      0x20\n      mul\n      0x20\n      add\n      add\n        /* \"temp.sol\":3551:3606  keysForA006_8_9[2] = \"liabilities.totalAmountFairValue\" */\n      dup2\n      swap1\n      mstore\n      pop\n        /* \"temp.sol\":3616:3666  addAmountToBalanceSheet(keysForA006_8_9, A006_8_9) */\n      tag_136\n        /* \"temp.sol\":3640:3655  keysForA006_8_9 */\n      dup2\n        /* \"temp.sol\":3657:3665  A006_8_9 */\n      dup4\n        /* \"temp.sol\":3616:3639  addAmountToBalanceSheet */\n      tag_117\n        /* \"temp.sol\":3616:3666  addAmountToBalanceSheet(keysForA006_8_9, A006_8_9) */\n      jump\t// in\n    tag_136:\n        /* \"temp.sol\":3677:3688  int256 A007 */\n      0x00\n        /* \"temp.sol\":3722:3736  newTransaction */\n      dup7\n        /* \"temp.sol\":3722:3748  newTransaction.internalFee */\n      0x60\n      add\n      mload\n        /* \"temp.sol\":3698:3712  newTransaction */\n      dup8\n        /* \"temp.sol\":3698:3719  newTransaction.amount */\n      0x40\n      add\n      mload\n        /* \"temp.sol\":3698:3748  newTransaction.amount - newTransaction.internalFee */\n      tag_137\n      swap2\n      swap1\n      tag_93\n      jump\t// in\n    tag_137:\n        /* \"temp.sol\":3677:3749  int256 A007 = int256(newTransaction.amount - newTransaction.internalFee) */\n      swap1\n      pop\n        /* \"temp.sol\":3832:3836  A007 */\n      dup1\n        /* \"temp.sol\":3759:3771  balanceSheet */\n      0x01\n        /* \"temp.sol\":3759:3828  balanceSheet[\"liabilities.details.userDeposit.breakdown.USDT.amount\"] */\n      mload(0x40)\n      tag_138\n      swap1\n      tag_139\n      jump\t// in\n    tag_138:\n      swap1\n      dup2\n      mstore\n      0x20\n      add\n      mload(0x40)\n      dup1\n      swap2\n      sub\n      swap1\n      keccak256\n      0x00\n        /* \"temp.sol\":3759:3836  balanceSheet[\"liabilities.details.userDeposit.breakdown.USDT.amount\"] += A007 */\n      dup3\n      dup3\n      sload\n      tag_140\n      swap2\n      swap1\n      tag_122\n      jump\t// in\n    tag_140:\n      swap3\n      pop\n      pop\n      dup2\n      swap1\n      sstore\n      pop\n        /* \"temp.sol\":3847:3864  int256 A010_12_13 */\n      0x00\n        /* \"temp.sol\":3946:3949  100 */\n      0x64\n        /* \"temp.sol\":3934:3945  latestSP002 */\n      sload(0x05)\n        /* \"temp.sol\":3904:3918  newTransaction */\n      dup10\n        /* \"temp.sol\":3904:3930  newTransaction.externalFee */\n      0x80\n      add\n      mload\n        /* \"temp.sol\":3875:3889  newTransaction */\n      dup11\n        /* \"temp.sol\":3875:3901  newTransaction.internalFee */\n      0x60\n      add\n      mload\n        /* \"temp.sol\":3875:3930  newTransaction.internalFee + newTransaction.externalFee */\n      tag_141\n      swap2\n      swap1\n      tag_96\n      jump\t// in\n    tag_141:\n        /* \"temp.sol\":3874:3945  (newTransaction.internalFee + newTransaction.externalFee) * latestSP002 */\n      tag_142\n      swap2\n      swap1\n      tag_98\n      jump\t// in\n    tag_142:\n        /* \"temp.sol\":3874:3949  (newTransaction.internalFee + newTransaction.externalFee) * latestSP002/100 */\n      tag_143\n      swap2\n      swap1\n      tag_100\n      jump\t// in\n    tag_143:\n        /* \"temp.sol\":3847:3950  int256 A010_12_13 = int256((newTransaction.internalFee + newTransaction.externalFee) * latestSP002/100) */\n      swap1\n      pop\n        /* \"temp.sol\":3960:3993  string[] memory keysForA010_12_13 */\n      0x00\n        /* \"temp.sol\":4009:4010  3 */\n      0x03\n        /* \"temp.sol\":3996:4011  new string[](3) */\n      0xffffffffffffffff\n      dup2\n      gt\n      iszero\n      tag_144\n      jumpi\n      tag_145\n      tag_103\n      jump\t// in\n    tag_145:\n    tag_144:\n      mload(0x40)\n      swap1\n      dup1\n      dup3\n      mstore\n      dup1\n      0x20\n      mul\n      0x20\n      add\n      dup3\n      add\n      0x40\n      mstore\n      dup1\n      iszero\n      tag_146\n      jumpi\n      dup2\n      0x20\n      add\n    tag_147:\n      0x60\n      dup2\n      mstore\n      0x20\n      add\n      swap1\n      0x01\n      swap1\n      sub\n      swap1\n      dup2\n      tag_147\n      jumpi\n      swap1\n      pop\n    tag_146:\n      pop\n        /* \"temp.sol\":3960:4011  string[] memory keysForA010_12_13 = new string[](3) */\n      swap1\n      pop\n        /* \"temp.sol\":4021:4098  keysForA010_12_13[0] = \"equity.details.retainedEarnings.totalAmountFairValue\" */\n      mload(0x40)\n      dup1\n      0x60\n      add\n      0x40\n      mstore\n      dup1\n      0x34\n      dup2\n      mstore\n      0x20\n      add\n      data_8d62cceb33553d0ea9401a647f5c57fb859e20b6d898f6cfabc43690d80d62b8\n      0x34\n      swap2\n      codecopy\n        /* \"temp.sol\":4021:4038  keysForA010_12_13 */\n      dup2\n        /* \"temp.sol\":4039:4040  0 */\n      0x00\n        /* \"temp.sol\":4021:4041  keysForA010_12_13[0] */\n      dup2\n      mload\n      dup2\n      lt\n      tag_148\n      jumpi\n      tag_149\n      tag_77\n      jump\t// in\n    tag_149:\n    tag_148:\n      0x20\n      mul\n      0x20\n      add\n      add\n        /* \"temp.sol\":4021:4098  keysForA010_12_13[0] = \"equity.details.retainedEarnings.totalAmountFairValue\" */\n      dup2\n      swap1\n      mstore\n      pop\n        /* \"temp.sol\":4108:4189  keysForA010_12_13[1] = \"equity.details.retainedEarnings.breakdown.USDT.fairValue\" */\n      mload(0x40)\n      dup1\n      0x60\n      add\n      0x40\n      mstore\n      dup1\n      0x38\n      dup2\n      mstore\n      0x20\n      add\n      data_2d9085f20ba0ef6e78431ae201a1a41544055172b9060d5be493a8d39102c12e\n      0x38\n      swap2\n      codecopy\n        /* \"temp.sol\":4108:4125  keysForA010_12_13 */\n      dup2\n        /* \"temp.sol\":4126:4127  1 */\n      0x01\n        /* \"temp.sol\":4108:4128  keysForA010_12_13[1] */\n      dup2\n      mload\n      dup2\n      lt\n      tag_150\n      jumpi\n      tag_151\n      tag_77\n      jump\t// in\n    tag_151:\n    tag_150:\n      0x20\n      mul\n      0x20\n      add\n      add\n        /* \"temp.sol\":4108:4189  keysForA010_12_13[1] = \"equity.details.retainedEarnings.breakdown.USDT.fairValue\" */\n      dup2\n      swap1\n      mstore\n      pop\n        /* \"temp.sol\":4199:4251  keysForA010_12_13[2] = \"equity.totalAmountFairValue\" */\n      mload(0x40)\n      dup1\n      0x40\n      add\n      0x40\n      mstore\n      dup1\n      0x1b\n      dup2\n      mstore\n      0x20\n      add\n      0x6571756974792e746f74616c416d6f756e744661697256616c75650000000000\n      dup2\n      mstore\n      pop\n        /* \"temp.sol\":4199:4216  keysForA010_12_13 */\n      dup2\n        /* \"temp.sol\":4217:4218  2 */\n      0x02\n        /* \"temp.sol\":4199:4219  keysForA010_12_13[2] */\n      dup2\n      mload\n      dup2\n      lt\n      tag_152\n      jumpi\n      tag_153\n      tag_77\n      jump\t// in\n    tag_153:\n    tag_152:\n      0x20\n      mul\n      0x20\n      add\n      add\n        /* \"temp.sol\":4199:4251  keysForA010_12_13[2] = \"equity.totalAmountFairValue\" */\n      dup2\n      swap1\n      mstore\n      pop\n        /* \"temp.sol\":4261:4315  addAmountToBalanceSheet(keysForA010_12_13, A010_12_13) */\n      tag_154\n        /* \"temp.sol\":4285:4302  keysForA010_12_13 */\n      dup2\n        /* \"temp.sol\":4304:4314  A010_12_13 */\n      dup4\n        /* \"temp.sol\":4261:4284  addAmountToBalanceSheet */\n      tag_117\n        /* \"temp.sol\":4261:4315  addAmountToBalanceSheet(keysForA010_12_13, A010_12_13) */\n      jump\t// in\n    tag_154:\n        /* \"temp.sol\":4326:4337  int256 A011 */\n      0x00\n        /* \"temp.sol\":4376:4390  newTransaction */\n      dup10\n        /* \"temp.sol\":4376:4402  newTransaction.externalFee */\n      0x80\n      add\n      mload\n        /* \"temp.sol\":4347:4361  newTransaction */\n      dup11\n        /* \"temp.sol\":4347:4373  newTransaction.internalFee */\n      0x60\n      add\n      mload\n        /* \"temp.sol\":4347:4402  newTransaction.internalFee + newTransaction.externalFee */\n      tag_155\n      swap2\n      swap1\n      tag_96\n      jump\t// in\n    tag_155:\n        /* \"temp.sol\":4326:4403  int256 A011 = int256(newTransaction.internalFee + newTransaction.externalFee) */\n      swap1\n      pop\n        /* \"temp.sol\":4486:4490  A011 */\n      dup1\n        /* \"temp.sol\":4413:4425  balanceSheet */\n      0x01\n        /* \"temp.sol\":4413:4482  balanceSheet[\"equity.details.retainedEarnings.breakdown.USDT.amount\"] */\n      mload(0x40)\n      tag_156\n      swap1\n      tag_157\n      jump\t// in\n    tag_156:\n      swap1\n      dup2\n      mstore\n      0x20\n      add\n      mload(0x40)\n      dup1\n      swap2\n      sub\n      swap1\n      keccak256\n      0x00\n        /* \"temp.sol\":4413:4490  balanceSheet[\"equity.details.retainedEarnings.breakdown.USDT.amount\"] += A011 */\n      dup3\n      dup3\n      sload\n      tag_158\n      swap2\n      swap1\n      tag_122\n      jump\t// in\n    tag_158:\n      swap3\n      pop\n      pop\n      dup2\n      swap1\n      sstore\n      pop\n        /* \"temp.sol\":4513:4528  int256 B001_3_4 */\n      0x00\n        /* \"temp.sol\":4610:4613  100 */\n      0x64\n        /* \"temp.sol\":4598:4609  latestSP002 */\n      sload(0x05)\n        /* \"temp.sol\":4568:4582  newTransaction */\n      dup13\n        /* \"temp.sol\":4568:4594  newTransaction.externalFee */\n      0x80\n      add\n      mload\n        /* \"temp.sol\":4539:4553  newTransaction */\n      dup14\n        /* \"temp.sol\":4539:4565  newTransaction.internalFee */\n      0x60\n      add\n      mload\n        /* \"temp.sol\":4539:4594  newTransaction.internalFee + newTransaction.externalFee */\n      tag_159\n      swap2\n      swap1\n      tag_96\n      jump\t// in\n    tag_159:\n        /* \"temp.sol\":4538:4609  (newTransaction.internalFee + newTransaction.externalFee) * latestSP002 */\n      tag_160\n      swap2\n      swap1\n      tag_98\n      jump\t// in\n    tag_160:\n        /* \"temp.sol\":4538:4613  (newTransaction.internalFee + newTransaction.externalFee) * latestSP002/100 */\n      tag_161\n      swap2\n      swap1\n      tag_100\n      jump\t// in\n    tag_161:\n        /* \"temp.sol\":4513:4614  int256 B001_3_4 = int256((newTransaction.internalFee + newTransaction.externalFee) * latestSP002/100) */\n      swap1\n      pop\n        /* \"temp.sol\":4624:4655  string[] memory keysForB001_3_4 */\n      0x00\n        /* \"temp.sol\":4671:4672  3 */\n      0x03\n        /* \"temp.sol\":4658:4673  new string[](3) */\n      0xffffffffffffffff\n      dup2\n      gt\n      iszero\n      tag_162\n      jumpi\n      tag_163\n      tag_103\n      jump\t// in\n    tag_163:\n    tag_162:\n      mload(0x40)\n      swap1\n      dup1\n      dup3\n      mstore\n      dup1\n      0x20\n      mul\n      0x20\n      add\n      dup3\n      add\n      0x40\n      mstore\n      dup1\n      iszero\n      tag_164\n      jumpi\n      dup2\n      0x20\n      add\n    tag_165:\n      0x60\n      dup2\n      mstore\n      0x20\n      add\n      swap1\n      0x01\n      swap1\n      sub\n      swap1\n      dup2\n      tag_165\n      jumpi\n      swap1\n      pop\n    tag_164:\n      pop\n        /* \"temp.sol\":4624:4673  string[] memory keysForB001_3_4 = new string[](3) */\n      swap1\n      pop\n        /* \"temp.sol\":4683:4751  keysForB001_3_4[0] = \"income.details.depositFee.weightedAverageCost\" */\n      mload(0x40)\n      dup1\n      0x60\n      add\n      0x40\n      mstore\n      dup1\n      0x2d\n      dup2\n      mstore\n      0x20\n      add\n      data_672065ce2cd4735cc9a43dbbd33e2a1db68a88157c01f0a28c0bd4a1b920b3ea\n      0x2d\n      swap2\n      codecopy\n        /* \"temp.sol\":4683:4698  keysForB001_3_4 */\n      dup2\n        /* \"temp.sol\":4699:4700  0 */\n      0x00\n        /* \"temp.sol\":4683:4701  keysForB001_3_4[0] */\n      dup2\n      mload\n      dup2\n      lt\n      tag_166\n      jumpi\n      tag_167\n      tag_77\n      jump\t// in\n    tag_167:\n    tag_166:\n      0x20\n      mul\n      0x20\n      add\n      add\n        /* \"temp.sol\":4683:4751  keysForB001_3_4[0] = \"income.details.depositFee.weightedAverageCost\" */\n      dup2\n      swap1\n      mstore\n      pop\n        /* \"temp.sol\":4761:4844  keysForB001_3_4[1] = \"income.details.depositFee.breakdown.USDT.weightedAverageCost\" */\n      mload(0x40)\n      dup1\n      0x60\n      add\n      0x40\n      mstore\n      dup1\n      0x3c\n      dup2\n      mstore\n      0x20\n      add\n      data_2fef656ae6a3ce7b3edbaab6dc60d5c8370e468265571d5ed0a35b0fe8bbb839\n      0x3c\n      swap2\n      codecopy\n        /* \"temp.sol\":4761:4776  keysForB001_3_4 */\n      dup2\n        /* \"temp.sol\":4777:4778  1 */\n      0x01\n        /* \"temp.sol\":4761:4779  keysForB001_3_4[1] */\n      dup2\n      mload\n      dup2\n      lt\n      tag_168\n      jumpi\n      tag_169\n      tag_77\n      jump\t// in\n    tag_169:\n    tag_168:\n      0x20\n      mul\n      0x20\n      add\n      add\n        /* \"temp.sol\":4761:4844  keysForB001_3_4[1] = \"income.details.depositFee.breakdown.USDT.weightedAverageCost\" */\n      dup2\n      swap1\n      mstore\n      pop\n        /* \"temp.sol\":4854:4886  keysForB001_3_4[2] = \"netProfit\" */\n      mload(0x40)\n      dup1\n      0x40\n      add\n      0x40\n      mstore\n      dup1\n      0x09\n      dup2\n      mstore\n      0x20\n      add\n      0x6e657450726f6669740000000000000000000000000000000000000000000000\n      dup2\n      mstore\n      pop\n        /* \"temp.sol\":4854:4869  keysForB001_3_4 */\n      dup2\n        /* \"temp.sol\":4870:4871  2 */\n      0x02\n        /* \"temp.sol\":4854:4872  keysForB001_3_4[2] */\n      dup2\n      mload\n      dup2\n      lt\n      tag_170\n      jumpi\n      tag_171\n      tag_77\n      jump\t// in\n    tag_171:\n    tag_170:\n      0x20\n      mul\n      0x20\n      add\n      add\n        /* \"temp.sol\":4854:4886  keysForB001_3_4[2] = \"netProfit\" */\n      dup2\n      swap1\n      mstore\n      pop\n        /* \"temp.sol\":4896:4947  addAmountTocomprehensive(keysForB001_3_4, B001_3_4) */\n      tag_172\n        /* \"temp.sol\":4921:4936  keysForB001_3_4 */\n      dup2\n        /* \"temp.sol\":4938:4946  B001_3_4 */\n      dup4\n        /* \"temp.sol\":4896:4920  addAmountTocomprehensive */\n      tag_173\n        /* \"temp.sol\":4896:4947  addAmountTocomprehensive(keysForB001_3_4, B001_3_4) */\n      jump\t// in\n    tag_172:\n        /* \"temp.sol\":4958:4966  int B002 */\n      0x00\n        /* \"temp.sol\":5005:5019  newTransaction */\n      dup13\n        /* \"temp.sol\":5005:5031  newTransaction.externalFee */\n      0x80\n      add\n      mload\n        /* \"temp.sol\":4976:4990  newTransaction */\n      dup14\n        /* \"temp.sol\":4976:5002  newTransaction.internalFee */\n      0x60\n      add\n      mload\n        /* \"temp.sol\":4976:5031  newTransaction.internalFee + newTransaction.externalFee */\n      tag_174\n      swap2\n      swap1\n      tag_96\n      jump\t// in\n    tag_174:\n        /* \"temp.sol\":4958:5032  int B002 = int256(newTransaction.internalFee + newTransaction.externalFee) */\n      swap1\n      pop\n        /* \"temp.sol\":5116:5120  B002 */\n      dup1\n        /* \"temp.sol\":5042:5061  comprehensiveIncome */\n      0x02\n        /* \"temp.sol\":5042:5112  comprehensiveIncome[\"income.details.depositFee.breakdown.USDT.amount\"] */\n      mload(0x40)\n      tag_175\n      swap1\n      tag_176\n      jump\t// in\n    tag_175:\n      swap1\n      dup2\n      mstore\n      0x20\n      add\n      mload(0x40)\n      dup1\n      swap2\n      sub\n      swap1\n      keccak256\n      0x00\n        /* \"temp.sol\":5042:5120  comprehensiveIncome[\"income.details.depositFee.breakdown.USDT.amount\"] += B002 */\n      dup3\n      dup3\n      sload\n      tag_177\n      swap2\n      swap1\n      tag_122\n      jump\t// in\n    tag_177:\n      swap3\n      pop\n      pop\n      dup2\n      swap1\n      sstore\n      pop\n        /* \"temp.sol\":5139:5180  recordTransactionCashFlow(newTransaction) */\n      tag_178\n        /* \"temp.sol\":5165:5179  newTransaction */\n      dup14\n        /* \"temp.sol\":5139:5164  recordTransactionCashFlow */\n      tag_179\n        /* \"temp.sol\":5139:5180  recordTransactionCashFlow(newTransaction) */\n      jump\t// in\n    tag_178:\n        /* \"temp.sol\":1778:5187  {... */\n      pop\n      pop\n      pop\n      pop\n      pop\n      pop\n      pop\n      pop\n      pop\n      pop\n      pop\n      pop\n      pop\n        /* \"temp.sol\":1611:5187  function recordTransaction(string memory _id, string memory _transactionType,uint256 _amount,uint256 _internalFee,uint256 _externalFee,uint256 _rateUSDTtoUSD ) public {... */\n      pop\n      pop\n      pop\n      pop\n      pop\n      pop\n      jump\t// out\n        /* \"temp.sol\":435:487  mapping(string => int256) public comprehensiveIncome */\n    tag_23:\n      0x02\n      dup2\n      dup1\n      mload\n      0x20\n      dup2\n      add\n      dup3\n      add\n      dup1\n      mload\n      dup5\n      dup3\n      mstore\n      0x20\n      dup4\n      add\n      0x20\n      dup6\n      add\n      keccak256\n      dup2\n      dup4\n      mstore\n      dup1\n      swap6\n      pop\n      pop\n      pop\n      pop\n      pop\n      pop\n      0x00\n      swap2\n      pop\n      swap1\n      pop\n      sload\n      dup2\n      jump\t// out\n        /* \"temp.sol\":493:534  mapping(string => int256) public cashFlow */\n    tag_28:\n      0x03\n      dup2\n      dup1\n      mload\n      0x20\n      dup2\n      add\n      dup3\n      add\n      dup1\n      mload\n      dup5\n      dup3\n      mstore\n      0x20\n      dup4\n      add\n      0x20\n      dup6\n      add\n      keccak256\n      dup2\n      dup4\n      mstore\n      dup1\n      swap6\n      pop\n      pop\n      pop\n      pop\n      pop\n      pop\n      0x00\n      swap2\n      pop\n      swap1\n      pop\n      sload\n      dup2\n      jump\t// out\n        /* \"temp.sol\":7393:7493  function getTransactionCount() public view returns (uint256) {... */\n    tag_31:\n        /* \"temp.sol\":7445:7452  uint256 */\n      0x00\n        /* \"temp.sol\":7467:7479  transactions */\n      dup1\n        /* \"temp.sol\":7467:7486  transactions.length */\n      dup1\n      sload\n      swap1\n      pop\n        /* \"temp.sol\":7460:7486  return transactions.length */\n      swap1\n      pop\n        /* \"temp.sol\":7393:7493  function getTransactionCount() public view returns (uint256) {... */\n      swap1\n      jump\t// out\n        /* \"temp.sol\":8203:8904  function getTransactionsInTimeRange(uint256 startTime, uint256 endTime) public view returns (Event[] memory) {... */\n    tag_37:\n        /* \"temp.sol\":8296:8310  Event[] memory */\n      0x60\n        /* \"temp.sol\":8322:8335  uint256 count */\n      0x00\n        /* \"temp.sol\":8354:8363  uint256 i */\n      dup1\n        /* \"temp.sol\":8349:8547  for (uint256 i = 0; i < transactions.length; i++) {... */\n    tag_182:\n        /* \"temp.sol\":8373:8385  transactions */\n      0x00\n        /* \"temp.sol\":8373:8392  transactions.length */\n      dup1\n      sload\n      swap1\n      pop\n        /* \"temp.sol\":8369:8370  i */\n      dup2\n        /* \"temp.sol\":8369:8392  i < transactions.length */\n      lt\n        /* \"temp.sol\":8349:8547  for (uint256 i = 0; i < transactions.length; i++) {... */\n      iszero\n      tag_183\n      jumpi\n        /* \"temp.sol\":8446:8455  startTime */\n      dup5\n        /* \"temp.sol\":8417:8429  transactions */\n      0x00\n        /* \"temp.sol\":8430:8431  i */\n      dup3\n        /* \"temp.sol\":8417:8432  transactions[i] */\n      dup2\n      sload\n      dup2\n      lt\n      tag_185\n      jumpi\n      tag_186\n      tag_77\n      jump\t// in\n    tag_186:\n    tag_185:\n      swap1\n      0x00\n      mstore\n      keccak256(0x00, 0x20)\n      swap1\n      0x07\n      mul\n      add\n        /* \"temp.sol\":8417:8442  transactions[i].timestamp */\n      0x05\n      add\n      sload\n        /* \"temp.sol\":8417:8455  transactions[i].timestamp >= startTime */\n      lt\n      iszero\n        /* \"temp.sol\":8417:8495  transactions[i].timestamp >= startTime && transactions[i].timestamp <= endTime */\n      dup1\n      iszero\n      tag_188\n      jumpi\n      pop\n        /* \"temp.sol\":8488:8495  endTime */\n      dup4\n        /* \"temp.sol\":8459:8471  transactions */\n      0x00\n        /* \"temp.sol\":8472:8473  i */\n      dup3\n        /* \"temp.sol\":8459:8474  transactions[i] */\n      dup2\n      sload\n      dup2\n      lt\n      tag_189\n      jumpi\n      tag_190\n      tag_77\n      jump\t// in\n    tag_190:\n    tag_189:\n      swap1\n      0x00\n      mstore\n      keccak256(0x00, 0x20)\n      swap1\n      0x07\n      mul\n      add\n        /* \"temp.sol\":8459:8484  transactions[i].timestamp */\n      0x05\n      add\n      sload\n        /* \"temp.sol\":8459:8495  transactions[i].timestamp <= endTime */\n      gt\n      iszero\n        /* \"temp.sol\":8417:8495  transactions[i].timestamp >= startTime && transactions[i].timestamp <= endTime */\n    tag_188:\n        /* \"temp.sol\":8413:8537  if (transactions[i].timestamp >= startTime && transactions[i].timestamp <= endTime) {... */\n      iszero\n      tag_192\n      jumpi\n        /* \"temp.sol\":8515:8522  count++ */\n      dup2\n      dup1\n      tag_193\n      swap1\n      tag_87\n      jump\t// in\n    tag_193:\n      swap3\n      pop\n      pop\n        /* \"temp.sol\":8413:8537  if (transactions[i].timestamp >= startTime && transactions[i].timestamp <= endTime) {... */\n    tag_192:\n        /* \"temp.sol\":8394:8397  i++ */\n      dup1\n      dup1\n      tag_194\n      swap1\n      tag_87\n      jump\t// in\n    tag_194:\n      swap2\n      pop\n      pop\n        /* \"temp.sol\":8349:8547  for (uint256 i = 0; i < transactions.length; i++) {... */\n      jump(tag_182)\n    tag_183:\n      pop\n        /* \"temp.sol\":8557:8579  Event[] memory results */\n      0x00\n        /* \"temp.sol\":8594:8599  count */\n      dup2\n        /* \"temp.sol\":8582:8600  new Event[](count) */\n      0xffffffffffffffff\n      dup2\n      gt\n      iszero\n      tag_195\n      jumpi\n      tag_196\n      tag_103\n      jump\t// in\n    tag_196:\n    tag_195:\n      mload(0x40)\n      swap1\n      dup1\n      dup3\n      mstore\n      dup1\n      0x20\n      mul\n      0x20\n      add\n      dup3\n      add\n      0x40\n      mstore\n      dup1\n      iszero\n      tag_197\n      jumpi\n      dup2\n      0x20\n      add\n    tag_198:\n      tag_199\n      tag_200\n      jump\t// in\n    tag_199:\n      dup2\n      mstore\n      0x20\n      add\n      swap1\n      0x01\n      swap1\n      sub\n      swap1\n      dup2\n      tag_198\n      jumpi\n      swap1\n      pop\n    tag_197:\n      pop\n        /* \"temp.sol\":8557:8600  Event[] memory results = new Event[](count) */\n      swap1\n      pop\n        /* \"temp.sol\":8611:8620  uint256 j */\n      0x00\n        /* \"temp.sol\":8639:8648  uint256 i */\n      dup1\n        /* \"temp.sol\":8634:8874  for (uint256 i = 0; i < transactions.length; i++) {... */\n    tag_201:\n        /* \"temp.sol\":8658:8670  transactions */\n      0x00\n        /* \"temp.sol\":8658:8677  transactions.length */\n      dup1\n      sload\n      swap1\n      pop\n        /* \"temp.sol\":8654:8655  i */\n      dup2\n        /* \"temp.sol\":8654:8677  i < transactions.length */\n      lt\n        /* \"temp.sol\":8634:8874  for (uint256 i = 0; i < transactions.length; i++) {... */\n      iszero\n      tag_202\n      jumpi\n        /* \"temp.sol\":8731:8740  startTime */\n      dup7\n        /* \"temp.sol\":8702:8714  transactions */\n      0x00\n        /* \"temp.sol\":8715:8716  i */\n      dup3\n        /* \"temp.sol\":8702:8717  transactions[i] */\n      dup2\n      sload\n      dup2\n      lt\n      tag_204\n      jumpi\n      tag_205\n      tag_77\n      jump\t// in\n    tag_205:\n    tag_204:\n      swap1\n      0x00\n      mstore\n      keccak256(0x00, 0x20)\n      swap1\n      0x07\n      mul\n      add\n        /* \"temp.sol\":8702:8727  transactions[i].timestamp */\n      0x05\n      add\n      sload\n        /* \"temp.sol\":8702:8740  transactions[i].timestamp >= startTime */\n      lt\n      iszero\n        /* \"temp.sol\":8702:8780  transactions[i].timestamp >= startTime && transactions[i].timestamp <= endTime */\n      dup1\n      iszero\n      tag_207\n      jumpi\n      pop\n        /* \"temp.sol\":8773:8780  endTime */\n      dup6\n        /* \"temp.sol\":8744:8756  transactions */\n      0x00\n        /* \"temp.sol\":8757:8758  i */\n      dup3\n        /* \"temp.sol\":8744:8759  transactions[i] */\n      dup2\n      sload\n      dup2\n      lt\n      tag_208\n      jumpi\n      tag_209\n      tag_77\n      jump\t// in\n    tag_209:\n    tag_208:\n      swap1\n      0x00\n      mstore\n      keccak256(0x00, 0x20)\n      swap1\n      0x07\n      mul\n      add\n        /* \"temp.sol\":8744:8769  transactions[i].timestamp */\n      0x05\n      add\n      sload\n        /* \"temp.sol\":8744:8780  transactions[i].timestamp <= endTime */\n      gt\n      iszero\n        /* \"temp.sol\":8702:8780  transactions[i].timestamp >= startTime && transactions[i].timestamp <= endTime */\n    tag_207:\n        /* \"temp.sol\":8698:8864  if (transactions[i].timestamp >= startTime && transactions[i].timestamp <= endTime) {... */\n      iszero\n      tag_211\n      jumpi\n        /* \"temp.sol\":8813:8825  transactions */\n      0x00\n        /* \"temp.sol\":8826:8827  i */\n      dup2\n        /* \"temp.sol\":8813:8828  transactions[i] */\n      dup2\n      sload\n      dup2\n      lt\n      tag_212\n      jumpi\n      tag_213\n      tag_77\n      jump\t// in\n    tag_213:\n    tag_212:\n      swap1\n      0x00\n      mstore\n      keccak256(0x00, 0x20)\n      swap1\n      0x07\n      mul\n      add\n        /* \"temp.sol\":8800:8828  results[j] = transactions[i] */\n      mload(0x40)\n      dup1\n      0xe0\n      add\n      0x40\n      mstore\n      swap1\n      dup2\n      0x00\n      dup3\n      add\n      dup1\n      sload\n      tag_215\n      swap1\n      tag_216\n      jump\t// in\n    tag_215:\n      dup1\n      0x1f\n      add\n      0x20\n      dup1\n      swap2\n      div\n      mul\n      0x20\n      add\n      mload(0x40)\n      swap1\n      dup2\n      add\n      0x40\n      mstore\n      dup1\n      swap3\n      swap2\n      swap1\n      dup2\n      dup2\n      mstore\n      0x20\n      add\n      dup3\n      dup1\n      sload\n      tag_217\n      swap1\n      tag_216\n      jump\t// in\n    tag_217:\n      dup1\n      iszero\n      tag_218\n      jumpi\n      dup1\n      0x1f\n      lt\n      tag_219\n      jumpi\n      0x0100\n      dup1\n      dup4\n      sload\n      div\n      mul\n      dup4\n      mstore\n      swap2\n      0x20\n      add\n      swap2\n      jump(tag_218)\n    tag_219:\n      dup3\n      add\n      swap2\n      swap1\n      0x00\n      mstore\n      keccak256(0x00, 0x20)\n      swap1\n    tag_220:\n      dup2\n      sload\n      dup2\n      mstore\n      swap1\n      0x01\n      add\n      swap1\n      0x20\n      add\n      dup1\n      dup4\n      gt\n      tag_220\n      jumpi\n      dup3\n      swap1\n      sub\n      0x1f\n      and\n      dup3\n      add\n      swap2\n    tag_218:\n      pop\n      pop\n      pop\n      pop\n      pop\n      dup2\n      mstore\n      0x20\n      add\n      0x01\n      dup3\n      add\n      dup1\n      sload\n      tag_221\n      swap1\n      tag_216\n      jump\t// in\n    tag_221:\n      dup1\n      0x1f\n      add\n      0x20\n      dup1\n      swap2\n      div\n      mul\n      0x20\n      add\n      mload(0x40)\n      swap1\n      dup2\n      add\n      0x40\n      mstore\n      dup1\n      swap3\n      swap2\n      swap1\n      dup2\n      dup2\n      mstore\n      0x20\n      add\n      dup3\n      dup1\n      sload\n      tag_222\n      swap1\n      tag_216\n      jump\t// in\n    tag_222:\n      dup1\n      iszero\n      tag_223\n      jumpi\n      dup1\n      0x1f\n      lt\n      tag_224\n      jumpi\n      0x0100\n      dup1\n      dup4\n      sload\n      div\n      mul\n      dup4\n      mstore\n      swap2\n      0x20\n      add\n      swap2\n      jump(tag_223)\n    tag_224:\n      dup3\n      add\n      swap2\n      swap1\n      0x00\n      mstore\n      keccak256(0x00, 0x20)\n      swap1\n    tag_225:\n      dup2\n      sload\n      dup2\n      mstore\n      swap1\n      0x01\n      add\n      swap1\n      0x20\n      add\n      dup1\n      dup4\n      gt\n      tag_225\n      jumpi\n      dup3\n      swap1\n      sub\n      0x1f\n      and\n      dup3\n      add\n      swap2\n    tag_223:\n      pop\n      pop\n      pop\n      pop\n      pop\n      dup2\n      mstore\n      0x20\n      add\n      0x02\n      dup3\n      add\n      sload\n      dup2\n      mstore\n      0x20\n      add\n      0x03\n      dup3\n      add\n      sload\n      dup2\n      mstore\n      0x20\n      add\n      0x04\n      dup3\n      add\n      sload\n      dup2\n      mstore\n      0x20\n      add\n      0x05\n      dup3\n      add\n      sload\n      dup2\n      mstore\n      0x20\n      add\n      0x06\n      dup3\n      add\n      sload\n      dup2\n      mstore\n      pop\n      pop\n        /* \"temp.sol\":8800:8807  results */\n      dup4\n        /* \"temp.sol\":8808:8809  j */\n      dup4\n        /* \"temp.sol\":8800:8810  results[j] */\n      dup2\n      mload\n      dup2\n      lt\n      tag_226\n      jumpi\n      tag_227\n      tag_77\n      jump\t// in\n    tag_227:\n    tag_226:\n      0x20\n      mul\n      0x20\n      add\n      add\n        /* \"temp.sol\":8800:8828  results[j] = transactions[i] */\n      dup2\n      swap1\n      mstore\n      pop\n        /* \"temp.sol\":8846:8849  j++ */\n      dup2\n      dup1\n      tag_228\n      swap1\n      tag_87\n      jump\t// in\n    tag_228:\n      swap3\n      pop\n      pop\n        /* \"temp.sol\":8698:8864  if (transactions[i].timestamp >= startTime && transactions[i].timestamp <= endTime) {... */\n    tag_211:\n        /* \"temp.sol\":8679:8682  i++ */\n      dup1\n      dup1\n      tag_229\n      swap1\n      tag_87\n      jump\t// in\n    tag_229:\n      swap2\n      pop\n      pop\n        /* \"temp.sol\":8634:8874  for (uint256 i = 0; i < transactions.length; i++) {... */\n      jump(tag_201)\n    tag_202:\n      pop\n        /* \"temp.sol\":8890:8897  results */\n      dup2\n        /* \"temp.sol\":8883:8897  return results */\n      swap4\n      pop\n      pop\n      pop\n      pop\n        /* \"temp.sol\":8203:8904  function getTransactionsInTimeRange(uint256 startTime, uint256 endTime) public view returns (Event[] memory) {... */\n      swap3\n      swap2\n      pop\n      pop\n      jump\t// out\n        /* \"temp.sol\":770:1013  function getEventIdAndRate(string memory _eventId, uint256 _SP002, uint256 _SP003, uint256 _SP004) public {... */\n    tag_43:\n        /* \"temp.sol\":900:906  _SP002 */\n      dup3\n        /* \"temp.sol\":886:897  latestSP002 */\n      0x05\n        /* \"temp.sol\":886:906  latestSP002 = _SP002 */\n      dup2\n      swap1\n      sstore\n      pop\n        /* \"temp.sol\":930:936  _SP003 */\n      dup2\n        /* \"temp.sol\":916:927  latestSP003 */\n      0x06\n        /* \"temp.sol\":916:936  latestSP003 = _SP003 */\n      dup2\n      swap1\n      sstore\n      pop\n        /* \"temp.sol\":960:966  _SP004 */\n      dup1\n        /* \"temp.sol\":946:957  latestSP004 */\n      0x07\n        /* \"temp.sol\":946:966  latestSP004 = _SP004 */\n      dup2\n      swap1\n      sstore\n      pop\n        /* \"temp.sol\":998:1006  _eventId */\n      dup4\n        /* \"temp.sol\":976:995  eventIdFromTimeSpan */\n      0x08\n        /* \"temp.sol\":976:1006  eventIdFromTimeSpan = _eventId */\n      swap1\n      dup2\n      tag_231\n      swap2\n      swap1\n      tag_90\n      jump\t// in\n    tag_231:\n      pop\n        /* \"temp.sol\":770:1013  function getEventIdAndRate(string memory _eventId, uint256 _SP002, uint256 _SP003, uint256 _SP004) public {... */\n      pop\n      pop\n      pop\n      pop\n      jump\t// out\n        /* \"temp.sol\":7692:7892  function getLatestTransaction() public view returns (Event memory) {... */\n    tag_45:\n        /* \"temp.sol\":7745:7757  Event memory */\n      tag_232\n      tag_200\n      jump\t// in\n    tag_232:\n        /* \"temp.sol\":7799:7800  0 */\n      0x00\n        /* \"temp.sol\":7777:7789  transactions */\n      dup1\n        /* \"temp.sol\":7777:7796  transactions.length */\n      dup1\n      sload\n      swap1\n      pop\n        /* \"temp.sol\":7777:7800  transactions.length > 0 */\n      gt\n        /* \"temp.sol\":7769:7831  require(transactions.length > 0, \"No transactions available.\") */\n      tag_234\n      jumpi\n      mload(0x40)\n      0x08c379a000000000000000000000000000000000000000000000000000000000\n      dup2\n      mstore\n      0x04\n      add\n      tag_235\n      swap1\n      tag_236\n      jump\t// in\n    tag_235:\n      mload(0x40)\n      dup1\n      swap2\n      sub\n      swap1\n      revert\n    tag_234:\n        /* \"temp.sol\":7848:7860  transactions */\n      0x00\n        /* \"temp.sol\":7883:7884  1 */\n      0x01\n        /* \"temp.sol\":7861:7873  transactions */\n      0x00\n        /* \"temp.sol\":7861:7880  transactions.length */\n      dup1\n      sload\n      swap1\n      pop\n        /* \"temp.sol\":7861:7884  transactions.length - 1 */\n      tag_237\n      swap2\n      swap1\n      tag_93\n      jump\t// in\n    tag_237:\n        /* \"temp.sol\":7848:7885  transactions[transactions.length - 1] */\n      dup2\n      sload\n      dup2\n      lt\n      tag_238\n      jumpi\n      tag_239\n      tag_77\n      jump\t// in\n    tag_239:\n    tag_238:\n      swap1\n      0x00\n      mstore\n      keccak256(0x00, 0x20)\n      swap1\n      0x07\n      mul\n      add\n        /* \"temp.sol\":7841:7885  return transactions[transactions.length - 1] */\n      mload(0x40)\n      dup1\n      0xe0\n      add\n      0x40\n      mstore\n      swap1\n      dup2\n      0x00\n      dup3\n      add\n      dup1\n      sload\n      tag_241\n      swap1\n      tag_216\n      jump\t// in\n    tag_241:\n      dup1\n      0x1f\n      add\n      0x20\n      dup1\n      swap2\n      div\n      mul\n      0x20\n      add\n      mload(0x40)\n      swap1\n      dup2\n      add\n      0x40\n      mstore\n      dup1\n      swap3\n      swap2\n      swap1\n      dup2\n      dup2\n      mstore\n      0x20\n      add\n      dup3\n      dup1\n      sload\n      tag_242\n      swap1\n      tag_216\n      jump\t// in\n    tag_242:\n      dup1\n      iszero\n      tag_243\n      jumpi\n      dup1\n      0x1f\n      lt\n      tag_244\n      jumpi\n      0x0100\n      dup1\n      dup4\n      sload\n      div\n      mul\n      dup4\n      mstore\n      swap2\n      0x20\n      add\n      swap2\n      jump(tag_243)\n    tag_244:\n      dup3\n      add\n      swap2\n      swap1\n      0x00\n      mstore\n      keccak256(0x00, 0x20)\n      swap1\n    tag_245:\n      dup2\n      sload\n      dup2\n      mstore\n      swap1\n      0x01\n      add\n      swap1\n      0x20\n      add\n      dup1\n      dup4\n      gt\n      tag_245\n      jumpi\n      dup3\n      swap1\n      sub\n      0x1f\n      and\n      dup3\n      add\n      swap2\n    tag_243:\n      pop\n      pop\n      pop\n      pop\n      pop\n      dup2\n      mstore\n      0x20\n      add\n      0x01\n      dup3\n      add\n      dup1\n      sload\n      tag_246\n      swap1\n      tag_216\n      jump\t// in\n    tag_246:\n      dup1\n      0x1f\n      add\n      0x20\n      dup1\n      swap2\n      div\n      mul\n      0x20\n      add\n      mload(0x40)\n      swap1\n      dup2\n      add\n      0x40\n      mstore\n      dup1\n      swap3\n      swap2\n      swap1\n      dup2\n      dup2\n      mstore\n      0x20\n      add\n      dup3\n      dup1\n      sload\n      tag_247\n      swap1\n      tag_216\n      jump\t// in\n    tag_247:\n      dup1\n      iszero\n      tag_248\n      jumpi\n      dup1\n      0x1f\n      lt\n      tag_249\n      jumpi\n      0x0100\n      dup1\n      dup4\n      sload\n      div\n      mul\n      dup4\n      mstore\n      swap2\n      0x20\n      add\n      swap2\n      jump(tag_248)\n    tag_249:\n      dup3\n      add\n      swap2\n      swap1\n      0x00\n      mstore\n      keccak256(0x00, 0x20)\n      swap1\n    tag_250:\n      dup2\n      sload\n      dup2\n      mstore\n      swap1\n      0x01\n      add\n      swap1\n      0x20\n      add\n      dup1\n      dup4\n      gt\n      tag_250\n      jumpi\n      dup3\n      swap1\n      sub\n      0x1f\n      and\n      dup3\n      add\n      swap2\n    tag_248:\n      pop\n      pop\n      pop\n      pop\n      pop\n      dup2\n      mstore\n      0x20\n      add\n      0x02\n      dup3\n      add\n      sload\n      dup2\n      mstore\n      0x20\n      add\n      0x03\n      dup3\n      add\n      sload\n      dup2\n      mstore\n      0x20\n      add\n      0x04\n      dup3\n      add\n      sload\n      dup2\n      mstore\n      0x20\n      add\n      0x05\n      dup3\n      add\n      sload\n      dup2\n      mstore\n      0x20\n      add\n      0x06\n      dup3\n      add\n      sload\n      dup2\n      mstore\n      pop\n      pop\n      swap1\n      pop\n        /* \"temp.sol\":7692:7892  function getLatestTransaction() public view returns (Event memory) {... */\n      swap1\n      jump\t// out\n        /* \"temp.sol\":7499:7686  function getTransactionByIndex(uint256 index) public view returns (Event memory) {... */\n    tag_51:\n        /* \"temp.sol\":7566:7578  Event memory */\n      tag_251\n      tag_200\n      jump\t// in\n    tag_251:\n        /* \"temp.sol\":7606:7618  transactions */\n      0x00\n        /* \"temp.sol\":7606:7625  transactions.length */\n      dup1\n      sload\n      swap1\n      pop\n        /* \"temp.sol\":7598:7603  index */\n      dup3\n        /* \"temp.sol\":7598:7625  index < transactions.length */\n      lt\n        /* \"temp.sol\":7590:7643  require(index < transactions.length, \"Invalid index\") */\n      tag_253\n      jumpi\n      mload(0x40)\n      0x08c379a000000000000000000000000000000000000000000000000000000000\n      dup2\n      mstore\n      0x04\n      add\n      tag_254\n      swap1\n      tag_255\n      jump\t// in\n    tag_254:\n      mload(0x40)\n      dup1\n      swap2\n      sub\n      swap1\n      revert\n    tag_253:\n        /* \"temp.sol\":7660:7672  transactions */\n      0x00\n        /* \"temp.sol\":7673:7678  index */\n      dup3\n        /* \"temp.sol\":7660:7679  transactions[index] */\n      dup2\n      sload\n      dup2\n      lt\n      tag_256\n      jumpi\n      tag_257\n      tag_77\n      jump\t// in\n    tag_257:\n    tag_256:\n      swap1\n      0x00\n      mstore\n      keccak256(0x00, 0x20)\n      swap1\n      0x07\n      mul\n      add\n        /* \"temp.sol\":7653:7679  return transactions[index] */\n      mload(0x40)\n      dup1\n      0xe0\n      add\n      0x40\n      mstore\n      swap1\n      dup2\n      0x00\n      dup3\n      add\n      dup1\n      sload\n      tag_259\n      swap1\n      tag_216\n      jump\t// in\n    tag_259:\n      dup1\n      0x1f\n      add\n      0x20\n      dup1\n      swap2\n      div\n      mul\n      0x20\n      add\n      mload(0x40)\n      swap1\n      dup2\n      add\n      0x40\n      mstore\n      dup1\n      swap3\n      swap2\n      swap1\n      dup2\n      dup2\n      mstore\n      0x20\n      add\n      dup3\n      dup1\n      sload\n      tag_260\n      swap1\n      tag_216\n      jump\t// in\n    tag_260:\n      dup1\n      iszero\n      tag_261\n      jumpi\n      dup1\n      0x1f\n      lt\n      tag_262\n      jumpi\n      0x0100\n      dup1\n      dup4\n      sload\n      div\n      mul\n      dup4\n      mstore\n      swap2\n      0x20\n      add\n      swap2\n      jump(tag_261)\n    tag_262:\n      dup3\n      add\n      swap2\n      swap1\n      0x00\n      mstore\n      keccak256(0x00, 0x20)\n      swap1\n    tag_263:\n      dup2\n      sload\n      dup2\n      mstore\n      swap1\n      0x01\n      add\n      swap1\n      0x20\n      add\n      dup1\n      dup4\n      gt\n      tag_263\n      jumpi\n      dup3\n      swap1\n      sub\n      0x1f\n      and\n      dup3\n      add\n      swap2\n    tag_261:\n      pop\n      pop\n      pop\n      pop\n      pop\n      dup2\n      mstore\n      0x20\n      add\n      0x01\n      dup3\n      add\n      dup1\n      sload\n      tag_264\n      swap1\n      tag_216\n      jump\t// in\n    tag_264:\n      dup1\n      0x1f\n      add\n      0x20\n      dup1\n      swap2\n      div\n      mul\n      0x20\n      add\n      mload(0x40)\n      swap1\n      dup2\n      add\n      0x40\n      mstore\n      dup1\n      swap3\n      swap2\n      swap1\n      dup2\n      dup2\n      mstore\n      0x20\n      add\n      dup3\n      dup1\n      sload\n      tag_265\n      swap1\n      tag_216\n      jump\t// in\n    tag_265:\n      dup1\n      iszero\n      tag_266\n      jumpi\n      dup1\n      0x1f\n      lt\n      tag_267\n      jumpi\n      0x0100\n      dup1\n      dup4\n      sload\n      div\n      mul\n      dup4\n      mstore\n      swap2\n      0x20\n      add\n      swap2\n      jump(tag_266)\n    tag_267:\n      dup3\n      add\n      swap2\n      swap1\n      0x00\n      mstore\n      keccak256(0x00, 0x20)\n      swap1\n    tag_268:\n      dup2\n      sload\n      dup2\n      mstore\n      swap1\n      0x01\n      add\n      swap1\n      0x20\n      add\n      dup1\n      dup4\n      gt\n      tag_268\n      jumpi\n      dup3\n      swap1\n      sub\n      0x1f\n      and\n      dup3\n      add\n      swap2\n    tag_266:\n      pop\n      pop\n      pop\n      pop\n      pop\n      dup2\n      mstore\n      0x20\n      add\n      0x02\n      dup3\n      add\n      sload\n      dup2\n      mstore\n      0x20\n      add\n      0x03\n      dup3\n      add\n      sload\n      dup2\n      mstore\n      0x20\n      add\n      0x04\n      dup3\n      add\n      sload\n      dup2\n      mstore\n      0x20\n      add\n      0x05\n      dup3\n      add\n      sload\n      dup2\n      mstore\n      0x20\n      add\n      0x06\n      dup3\n      add\n      sload\n      dup2\n      mstore\n      pop\n      pop\n      swap1\n      pop\n        /* \"temp.sol\":7499:7686  function getTransactionByIndex(uint256 index) public view returns (Event memory) {... */\n      swap2\n      swap1\n      pop\n      jump\t// out\n        /* \"temp.sol\":350:377  Event[] public transactions */\n    tag_55:\n      0x00\n      dup2\n      dup2\n      sload\n      dup2\n      lt\n      tag_269\n      jumpi\n      0x00\n      dup1\n      revert\n    tag_269:\n      swap1\n      0x00\n      mstore\n      keccak256(0x00, 0x20)\n      swap1\n      0x07\n      mul\n      add\n      0x00\n      swap2\n      pop\n      swap1\n      pop\n      dup1\n      0x00\n      add\n      dup1\n      sload\n      tag_271\n      swap1\n      tag_216\n      jump\t// in\n    tag_271:\n      dup1\n      0x1f\n      add\n      0x20\n      dup1\n      swap2\n      div\n      mul\n      0x20\n      add\n      mload(0x40)\n      swap1\n      dup2\n      add\n      0x40\n      mstore\n      dup1\n      swap3\n      swap2\n      swap1\n      dup2\n      dup2\n      mstore\n      0x20\n      add\n      dup3\n      dup1\n      sload\n      tag_272\n      swap1\n      tag_216\n      jump\t// in\n    tag_272:\n      dup1\n      iszero\n      tag_273\n      jumpi\n      dup1\n      0x1f\n      lt\n      tag_274\n      jumpi\n      0x0100\n      dup1\n      dup4\n      sload\n      div\n      mul\n      dup4\n      mstore\n      swap2\n      0x20\n      add\n      swap2\n      jump(tag_273)\n    tag_274:\n      dup3\n      add\n      swap2\n      swap1\n      0x00\n      mstore\n      keccak256(0x00, 0x20)\n      swap1\n    tag_275:\n      dup2\n      sload\n      dup2\n      mstore\n      swap1\n      0x01\n      add\n      swap1\n      0x20\n      add\n      dup1\n      dup4\n      gt\n      tag_275\n      jumpi\n      dup3\n      swap1\n      sub\n      0x1f\n      and\n      dup3\n      add\n      swap2\n    tag_273:\n      pop\n      pop\n      pop\n      pop\n      pop\n      swap1\n      dup1\n      0x01\n      add\n      dup1\n      sload\n      tag_276\n      swap1\n      tag_216\n      jump\t// in\n    tag_276:\n      dup1\n      0x1f\n      add\n      0x20\n      dup1\n      swap2\n      div\n      mul\n      0x20\n      add\n      mload(0x40)\n      swap1\n      dup2\n      add\n      0x40\n      mstore\n      dup1\n      swap3\n      swap2\n      swap1\n      dup2\n      dup2\n      mstore\n      0x20\n      add\n      dup3\n      dup1\n      sload\n      tag_277\n      swap1\n      tag_216\n      jump\t// in\n    tag_277:\n      dup1\n      iszero\n      tag_278\n      jumpi\n      dup1\n      0x1f\n      lt\n      tag_279\n      jumpi\n      0x0100\n      dup1\n      dup4\n      sload\n      div\n      mul\n      dup4\n      mstore\n      swap2\n      0x20\n      add\n      swap2\n      jump(tag_278)\n    tag_279:\n      dup3\n      add\n      swap2\n      swap1\n      0x00\n      mstore\n      keccak256(0x00, 0x20)\n      swap1\n    tag_280:\n      dup2\n      sload\n      dup2\n      mstore\n      swap1\n      0x01\n      add\n      swap1\n      0x20\n      add\n      dup1\n      dup4\n      gt\n      tag_280\n      jumpi\n      dup3\n      swap1\n      sub\n      0x1f\n      and\n      dup3\n      add\n      swap2\n    tag_278:\n      pop\n      pop\n      pop\n      pop\n      pop\n      swap1\n      dup1\n      0x02\n      add\n      sload\n      swap1\n      dup1\n      0x03\n      add\n      sload\n      swap1\n      dup1\n      0x04\n      add\n      sload\n      swap1\n      dup1\n      0x05\n      add\n      sload\n      swap1\n      dup1\n      0x06\n      add\n      sload\n      swap1\n      pop\n      dup8\n      jump\t// out\n        /* \"temp.sol\":7898:8197  function getTransactionById(string memory id) public view returns (Event memory) {... */\n    tag_60:\n        /* \"temp.sol\":7965:7977  Event memory */\n      tag_281\n      tag_200\n      jump\t// in\n    tag_281:\n        /* \"temp.sol\":8023:8024  0 */\n      0x00\n        /* \"temp.sol\":7997:8015  transactionIndices */\n      0x04\n        /* \"temp.sol\":8016:8018  id */\n      dup4\n        /* \"temp.sol\":7997:8019  transactionIndices[id] */\n      mload(0x40)\n      tag_283\n      swap2\n      swap1\n      tag_82\n      jump\t// in\n    tag_283:\n      swap1\n      dup2\n      mstore\n      0x20\n      add\n      mload(0x40)\n      dup1\n      swap2\n      sub\n      swap1\n      keccak256\n      sload\n        /* \"temp.sol\":7997:8024  transactionIndices[id] != 0 */\n      eq\n      iszero\n        /* \"temp.sol\":7997:8110  transactionIndices[id] != 0 || keccak256(abi.encodePacked(transactions[0].id)) == keccak256(abi.encodePacked(id)) */\n      dup1\n      tag_284\n      jumpi\n      pop\n        /* \"temp.sol\":8106:8108  id */\n      dup2\n        /* \"temp.sol\":8089:8109  abi.encodePacked(id) */\n      add(0x20, mload(0x40))\n      tag_285\n      swap2\n      swap1\n      tag_82\n      jump\t// in\n    tag_285:\n      mload(0x40)\n      0x20\n      dup2\n      dup4\n      sub\n      sub\n      dup2\n      mstore\n      swap1\n      0x40\n      mstore\n        /* \"temp.sol\":8079:8110  keccak256(abi.encodePacked(id)) */\n      dup1\n      mload\n      swap1\n      0x20\n      add\n      keccak256\n        /* \"temp.sol\":8055:8067  transactions */\n      0x00\n        /* \"temp.sol\":8068:8069  0 */\n      dup1\n        /* \"temp.sol\":8055:8070  transactions[0] */\n      dup2\n      sload\n      dup2\n      lt\n      tag_286\n      jumpi\n      tag_287\n      tag_77\n      jump\t// in\n    tag_287:\n    tag_286:\n      swap1\n      0x00\n      mstore\n      keccak256(0x00, 0x20)\n      swap1\n      0x07\n      mul\n      add\n        /* \"temp.sol\":8055:8073  transactions[0].id */\n      0x00\n      add\n        /* \"temp.sol\":8038:8074  abi.encodePacked(transactions[0].id) */\n      add(0x20, mload(0x40))\n      tag_289\n      swap2\n      swap1\n      tag_80\n      jump\t// in\n    tag_289:\n      mload(0x40)\n      0x20\n      dup2\n      dup4\n      sub\n      sub\n      dup2\n      mstore\n      swap1\n      0x40\n      mstore\n        /* \"temp.sol\":8028:8075  keccak256(abi.encodePacked(transactions[0].id)) */\n      dup1\n      mload\n      swap1\n      0x20\n      add\n      keccak256\n        /* \"temp.sol\":8028:8110  keccak256(abi.encodePacked(transactions[0].id)) == keccak256(abi.encodePacked(id)) */\n      eq\n        /* \"temp.sol\":7997:8110  transactionIndices[id] != 0 || keccak256(abi.encodePacked(transactions[0].id)) == keccak256(abi.encodePacked(id)) */\n    tag_284:\n        /* \"temp.sol\":7989:8136  require(transactionIndices[id] != 0 || keccak256(abi.encodePacked(transactions[0].id)) == keccak256(abi.encodePacked(id)), \"Transaction not found\") */\n      tag_290\n      jumpi\n      mload(0x40)\n      0x08c379a000000000000000000000000000000000000000000000000000000000\n      dup2\n      mstore\n      0x04\n      add\n      tag_291\n      swap1\n      tag_292\n      jump\t// in\n    tag_291:\n      mload(0x40)\n      dup1\n      swap2\n      sub\n      swap1\n      revert\n    tag_290:\n        /* \"temp.sol\":8154:8166  transactions */\n      0x00\n        /* \"temp.sol\":8167:8185  transactionIndices */\n      0x04\n        /* \"temp.sol\":8186:8188  id */\n      dup4\n        /* \"temp.sol\":8167:8189  transactionIndices[id] */\n      mload(0x40)\n      tag_293\n      swap2\n      swap1\n      tag_82\n      jump\t// in\n    tag_293:\n      swap1\n      dup2\n      mstore\n      0x20\n      add\n      mload(0x40)\n      dup1\n      swap2\n      sub\n      swap1\n      keccak256\n      sload\n        /* \"temp.sol\":8154:8190  transactions[transactionIndices[id]] */\n      dup2\n      sload\n      dup2\n      lt\n      tag_294\n      jumpi\n      tag_295\n      tag_77\n      jump\t// in\n    tag_295:\n    tag_294:\n      swap1\n      0x00\n      mstore\n      keccak256(0x00, 0x20)\n      swap1\n      0x07\n      mul\n      add\n        /* \"temp.sol\":8147:8190  return transactions[transactionIndices[id]] */\n      mload(0x40)\n      dup1\n      0xe0\n      add\n      0x40\n      mstore\n      swap1\n      dup2\n      0x00\n      dup3\n      add\n      dup1\n      sload\n      tag_297\n      swap1\n      tag_216\n      jump\t// in\n    tag_297:\n      dup1\n      0x1f\n      add\n      0x20\n      dup1\n      swap2\n      div\n      mul\n      0x20\n      add\n      mload(0x40)\n      swap1\n      dup2\n      add\n      0x40\n      mstore\n      dup1\n      swap3\n      swap2\n      swap1\n      dup2\n      dup2\n      mstore\n      0x20\n      add\n      dup3\n      dup1\n      sload\n      tag_298\n      swap1\n      tag_216\n      jump\t// in\n    tag_298:\n      dup1\n      iszero\n      tag_299\n      jumpi\n      dup1\n      0x1f\n      lt\n      tag_300\n      jumpi\n      0x0100\n      dup1\n      dup4\n      sload\n      div\n      mul\n      dup4\n      mstore\n      swap2\n      0x20\n      add\n      swap2\n      jump(tag_299)\n    tag_300:\n      dup3\n      add\n      swap2\n      swap1\n      0x00\n      mstore\n      keccak256(0x00, 0x20)\n      swap1\n    tag_301:\n      dup2\n      sload\n      dup2\n      mstore\n      swap1\n      0x01\n      add\n      swap1\n      0x20\n      add\n      dup1\n      dup4\n      gt\n      tag_301\n      jumpi\n      dup3\n      swap1\n      sub\n      0x1f\n      and\n      dup3\n      add\n      swap2\n    tag_299:\n      pop\n      pop\n      pop\n      pop\n      pop\n      dup2\n      mstore\n      0x20\n      add\n      0x01\n      dup3\n      add\n      dup1\n      sload\n      tag_302\n      swap1\n      tag_216\n      jump\t// in\n    tag_302:\n      dup1\n      0x1f\n      add\n      0x20\n      dup1\n      swap2\n      div\n      mul\n      0x20\n      add\n      mload(0x40)\n      swap1\n      dup2\n      add\n      0x40\n      mstore\n      dup1\n      swap3\n      swap2\n      swap1\n      dup2\n      dup2\n      mstore\n      0x20\n      add\n      dup3\n      dup1\n      sload\n      tag_303\n      swap1\n      tag_216\n      jump\t// in\n    tag_303:\n      dup1\n      iszero\n      tag_304\n      jumpi\n      dup1\n      0x1f\n      lt\n      tag_305\n      jumpi\n      0x0100\n      dup1\n      dup4\n      sload\n      div\n      mul\n      dup4\n      mstore\n      swap2\n      0x20\n      add\n      swap2\n      jump(tag_304)\n    tag_305:\n      dup3\n      add\n      swap2\n      swap1\n      0x00\n      mstore\n      keccak256(0x00, 0x20)\n      swap1\n    tag_306:\n      dup2\n      sload\n      dup2\n      mstore\n      swap1\n      0x01\n      add\n      swap1\n      0x20\n      add\n      dup1\n      dup4\n      gt\n      tag_306\n      jumpi\n      dup3\n      swap1\n      sub\n      0x1f\n      and\n      dup3\n      add\n      swap2\n    tag_304:\n      pop\n      pop\n      pop\n      pop\n      pop\n      dup2\n      mstore\n      0x20\n      add\n      0x02\n      dup3\n      add\n      sload\n      dup2\n      mstore\n      0x20\n      add\n      0x03\n      dup3\n      add\n      sload\n      dup2\n      mstore\n      0x20\n      add\n      0x04\n      dup3\n      add\n      sload\n      dup2\n      mstore\n      0x20\n      add\n      0x05\n      dup3\n      add\n      sload\n      dup2\n      mstore\n      0x20\n      add\n      0x06\n      dup3\n      add\n      sload\n      dup2\n      mstore\n      pop\n      pop\n      swap1\n      pop\n        /* \"temp.sol\":7898:8197  function getTransactionById(string memory id) public view returns (Event memory) {... */\n      swap2\n      swap1\n      pop\n      jump\t// out\n        /* \"temp.sol\":8910:13036  function getReportsInTimeRange(uint256 startTime, uint256 endTime) public view returns (... */\n    tag_64:\n        /* \"temp.sol\":9007:9026  string[] memory IDS */\n      0x60\n        /* \"temp.sol\":9036:9070  string[14] memory balanceSheetKeys */\n      tag_307\n      tag_308\n      jump\t// in\n    tag_307:\n        /* \"temp.sol\":9080:9116  int256[][] memory balanceSheetValues */\n      0x60\n        /* \"temp.sol\":9126:9166  string[4] memory comprehensiveIncomeKeys */\n      tag_309\n      tag_310\n      jump\t// in\n    tag_309:\n        /* \"temp.sol\":9176:9219  int256[][] memory comprehensiveIncomeValues */\n      0x60\n        /* \"temp.sol\":9229:9258  string[8] memory cashFlowKeys */\n      tag_311\n      tag_312\n      jump\t// in\n    tag_311:\n        /* \"temp.sol\":9268:9300  int256[][] memory cashFlowValues */\n      0x60\n        /* \"temp.sol\":9317:9345  Event[] memory eventsInRange */\n      0x00\n        /* \"temp.sol\":9348:9394  getTransactionsInTimeRange(startTime, endTime) */\n      tag_314\n        /* \"temp.sol\":9375:9384  startTime */\n      dup11\n        /* \"temp.sol\":9386:9393  endTime */\n      dup11\n        /* \"temp.sol\":9348:9374  getTransactionsInTimeRange */\n      tag_37\n        /* \"temp.sol\":9348:9394  getTransactionsInTimeRange(startTime, endTime) */\n      jump\t// in\n    tag_314:\n        /* \"temp.sol\":9317:9394  Event[] memory eventsInRange = getTransactionsInTimeRange(startTime, endTime) */\n      swap1\n      pop\n        /* \"temp.sol\":9432:9445  eventsInRange */\n      dup1\n        /* \"temp.sol\":9432:9452  eventsInRange.length */\n      mload\n        /* \"temp.sol\":9419:9453  new string[](eventsInRange.length) */\n      0xffffffffffffffff\n      dup2\n      gt\n      iszero\n      tag_315\n      jumpi\n      tag_316\n      tag_103\n      jump\t// in\n    tag_316:\n    tag_315:\n      mload(0x40)\n      swap1\n      dup1\n      dup3\n      mstore\n      dup1\n      0x20\n      mul\n      0x20\n      add\n      dup3\n      add\n      0x40\n      mstore\n      dup1\n      iszero\n      tag_317\n      jumpi\n      dup2\n      0x20\n      add\n    tag_318:\n      0x60\n      dup2\n      mstore\n      0x20\n      add\n      swap1\n      0x01\n      swap1\n      sub\n      swap1\n      dup2\n      tag_318\n      jumpi\n      swap1\n      pop\n    tag_317:\n      pop\n        /* \"temp.sol\":9413:9453  IDS = new string[](eventsInRange.length) */\n      swap8\n      pop\n        /* \"temp.sol\":9472:10342  balanceSheetKeys = [... */\n      mload(0x40)\n      dup1\n      0x01c0\n      add\n      0x40\n      mstore\n      dup1\n      mload(0x40)\n      dup1\n      0x60\n      add\n      0x40\n      mstore\n      dup1\n      0x32\n      dup2\n      mstore\n      0x20\n      add\n      data_10212a95d772616748d16efa793bee0b98ad5c46eb9519e0c9be970bff0d2a15\n      0x32\n      swap2\n      codecopy\n      dup2\n      mstore\n      0x20\n      add\n      mload(0x40)\n      dup1\n      0x60\n      add\n      0x40\n      mstore\n      dup1\n      0x33\n      dup2\n      mstore\n      0x20\n      add\n      data_4c0690ddc889f15840b437f8b273636743e0fa2e4a8dacc7168762f1c7ab308f\n      0x33\n      swap2\n      codecopy\n      dup2\n      mstore\n      0x20\n      add\n      mload(0x40)\n      dup1\n      0x60\n      add\n      0x40\n      mstore\n      dup1\n      0x36\n      dup2\n      mstore\n      0x20\n      add\n      data_5361a904a9ccaaf866d9716cb68f42ebcfde236af4238d6956fff2ba52d390ed\n      0x36\n      swap2\n      codecopy\n      dup2\n      mstore\n      0x20\n      add\n      mload(0x40)\n      dup1\n      0x40\n      add\n      0x40\n      mstore\n      dup1\n      0x1b\n      dup2\n      mstore\n      0x20\n      add\n      0x6173736574732e746f74616c416d6f756e744661697256616c75650000000000\n      dup2\n      mstore\n      pop\n      dup2\n      mstore\n      0x20\n      add\n      mload(0x40)\n      dup1\n      0x40\n      add\n      0x40\n      mstore\n      dup1\n      0x14\n      dup2\n      mstore\n      0x20\n      add\n      0x746f74616c4173736574734661697256616c7565000000000000000000000000\n      dup2\n      mstore\n      pop\n      dup2\n      mstore\n      0x20\n      add\n      mload(0x40)\n      dup1\n      0x60\n      add\n      0x40\n      mstore\n      dup1\n      0x34\n      dup2\n      mstore\n      0x20\n      add\n      data_6c886e0e08bddbc41f130649253a5b9f93f010fd7699e51580e73d74f822beaf\n      0x34\n      swap2\n      codecopy\n      dup2\n      mstore\n      0x20\n      add\n      mload(0x40)\n      dup1\n      0x60\n      add\n      0x40\n      mstore\n      dup1\n      0x35\n      dup2\n      mstore\n      0x20\n      add\n      data_7b36471cf4f79388a32aae3fae374a31afb69269702d8e8ec9c6e53188767e1d\n      0x35\n      swap2\n      codecopy\n      dup2\n      mstore\n      0x20\n      add\n      mload(0x40)\n      dup1\n      0x60\n      add\n      0x40\n      mstore\n      dup1\n      0x38\n      dup2\n      mstore\n      0x20\n      add\n      data_bac76cc04e51c33eaec201989be16d49cd4cbca9658c3df26eb7a5adf6b03a09\n      0x38\n      swap2\n      codecopy\n      dup2\n      mstore\n      0x20\n      add\n      mload(0x40)\n      dup1\n      0x40\n      add\n      0x40\n      mstore\n      dup1\n      0x20\n      dup2\n      mstore\n      0x20\n      add\n      0x6c696162696c69746965732e746f74616c416d6f756e744661697256616c7565\n      dup2\n      mstore\n      pop\n      dup2\n      mstore\n      0x20\n      add\n      mload(0x40)\n      dup1\n      0x60\n      add\n      0x40\n      mstore\n      dup1\n      0x34\n      dup2\n      mstore\n      0x20\n      add\n      data_8d62cceb33553d0ea9401a647f5c57fb859e20b6d898f6cfabc43690d80d62b8\n      0x34\n      swap2\n      codecopy\n      dup2\n      mstore\n      0x20\n      add\n      mload(0x40)\n      dup1\n      0x60\n      add\n      0x40\n      mstore\n      dup1\n      0x35\n      dup2\n      mstore\n      0x20\n      add\n      data_9dab475a3c797a25d1651b6e61270a235ea4bece13ed5053e9c60cdd4d27de1d\n      0x35\n      swap2\n      codecopy\n      dup2\n      mstore\n      0x20\n      add\n      mload(0x40)\n      dup1\n      0x60\n      add\n      0x40\n      mstore\n      dup1\n      0x38\n      dup2\n      mstore\n      0x20\n      add\n      data_2d9085f20ba0ef6e78431ae201a1a41544055172b9060d5be493a8d39102c12e\n      0x38\n      swap2\n      codecopy\n      dup2\n      mstore\n      0x20\n      add\n      mload(0x40)\n      dup1\n      0x40\n      add\n      0x40\n      mstore\n      dup1\n      0x1b\n      dup2\n      mstore\n      0x20\n      add\n      0x6571756974792e746f74616c416d6f756e744661697256616c75650000000000\n      dup2\n      mstore\n      pop\n      dup2\n      mstore\n      0x20\n      add\n      mload(0x40)\n      dup1\n      0x60\n      add\n      0x40\n      mstore\n      dup1\n      0x22\n      dup2\n      mstore\n      0x20\n      add\n      data_51841a146b53adb530a6c57a8c8587a4b64fa0425e55f3407e1595e896aee44e\n      0x22\n      swap2\n      codecopy\n      dup2\n      mstore\n      pop\n      swap7\n      pop\n        /* \"temp.sol\":10361:10690  comprehensiveIncomeKeys = [... */\n      mload(0x40)\n      dup1\n      0x80\n      add\n      0x40\n      mstore\n      dup1\n      mload(0x40)\n      dup1\n      0x60\n      add\n      0x40\n      mstore\n      dup1\n      0x2d\n      dup2\n      mstore\n      0x20\n      add\n      data_672065ce2cd4735cc9a43dbbd33e2a1db68a88157c01f0a28c0bd4a1b920b3ea\n      0x2d\n      swap2\n      codecopy\n      dup2\n      mstore\n      0x20\n      add\n      mload(0x40)\n      dup1\n      0x60\n      add\n      0x40\n      mstore\n      dup1\n      0x2f\n      dup2\n      mstore\n      0x20\n      add\n      data_683f98542db49cd654b95466cfafe5aa4945d86bbac637e5b31f3b271ed6ba62\n      0x2f\n      swap2\n      codecopy\n      dup2\n      mstore\n      0x20\n      add\n      mload(0x40)\n      dup1\n      0xa0\n      add\n      0x40\n      mstore\n      dup1\n      0x80\n      dup2\n      mstore\n      0x20\n      add\n      data_08700b6453f8f95c1cc2f754b223fac3f9002a3b94ceef26b5952ef1d140fd05\n      0x80\n      swap2\n      codecopy\n      dup2\n      mstore\n      0x20\n      add\n      mload(0x40)\n      dup1\n      0x40\n      add\n      0x40\n      mstore\n      dup1\n      0x09\n      dup2\n      mstore\n      0x20\n      add\n      0x6e657450726f6669740000000000000000000000000000000000000000000000\n      dup2\n      mstore\n      pop\n      dup2\n      mstore\n      pop\n      swap5\n      pop\n        /* \"temp.sol\":10709:11780  cashFlowKeys = [... */\n      mload(0x40)\n      dup1\n      0x0100\n      add\n      0x40\n      mstore\n      dup1\n      mload(0x40)\n      dup1\n      0xa0\n      add\n      0x40\n      mstore\n      dup1\n      0x71\n      dup2\n      mstore\n      0x20\n      add\n      data_f93c158fc4141373d133c3187c78462409ba6073bc95d62d4ebc42a608e902a1\n      0x71\n      swap2\n      codecopy\n      dup2\n      mstore\n      0x20\n      add\n      mload(0x40)\n      dup1\n      0xa0\n      add\n      0x40\n      mstore\n      dup1\n      0x73\n      dup2\n      mstore\n      0x20\n      add\n      data_9da70e59108e53ecd8897300816983f1818497604023e9805f9d92c260f4877d\n      0x73\n      swap2\n      codecopy\n      dup2\n      mstore\n      0x20\n      add\n      mload(0x40)\n      dup1\n      0xa0\n      add\n      0x40\n      mstore\n      dup1\n      0x80\n      dup2\n      mstore\n      0x20\n      add\n      data_08700b6453f8f95c1cc2f754b223fac3f9002a3b94ceef26b5952ef1d140fd05\n      0x80\n      swap2\n      codecopy\n      dup2\n      mstore\n      0x20\n      add\n      mload(0x40)\n      dup1\n      0xc0\n      add\n      0x40\n      mstore\n      dup1\n      0x83\n      dup2\n      mstore\n      0x20\n      add\n      data_e9374b3d9fcc8af3b8083b54588c48b8f25b32a32c3314f7a7d348668acdb652\n      0x83\n      swap2\n      codecopy\n      dup2\n      mstore\n      0x20\n      add\n      mload(0x40)\n      dup1\n      0xc0\n      add\n      0x40\n      mstore\n      dup1\n      0x85\n      dup2\n      mstore\n      0x20\n      add\n      data_6da468df93cd0528770806447a6757159cf53ac5ae89bf9f4e0fa267f467fa56\n      0x85\n      swap2\n      codecopy\n      dup2\n      mstore\n      0x20\n      add\n      mload(0x40)\n      dup1\n      0xc0\n      add\n      0x40\n      mstore\n      dup1\n      0x92\n      dup2\n      mstore\n      0x20\n      add\n      data_dc1e3b141eb7c4f0493cf97ff9e97fef738d38747e93e92ac7479ece51cb1481\n      0x92\n      swap2\n      codecopy\n      dup2\n      mstore\n      0x20\n      add\n      mload(0x40)\n      dup1\n      0x80\n      add\n      0x40\n      mstore\n      dup1\n      0x44\n      dup2\n      mstore\n      0x20\n      add\n      data_4e73ff8eb2727f3fa2ea80dbb33ea1eebeb47820fa41462eed2bb2e289a7eda1\n      0x44\n      swap2\n      codecopy\n      dup2\n      mstore\n      0x20\n      add\n      mload(0x40)\n      dup1\n      0x80\n      add\n      0x40\n      mstore\n      dup1\n      0x54\n      dup2\n      mstore\n      0x20\n      add\n      data_15c20e8d0b3d40be2e84ef435d7a22e35af1d3a75ef669876f6405bb1124a943\n      0x54\n      swap2\n      codecopy\n      dup2\n      mstore\n      pop\n      swap3\n      pop\n        /* \"temp.sol\":11835:11848  eventsInRange */\n      dup1\n        /* \"temp.sol\":11835:11855  eventsInRange.length */\n      mload\n        /* \"temp.sol\":11820:11856  new int256[][](eventsInRange.length) */\n      0xffffffffffffffff\n      dup2\n      gt\n      iszero\n      tag_319\n      jumpi\n      tag_320\n      tag_103\n      jump\t// in\n    tag_320:\n    tag_319:\n      mload(0x40)\n      swap1\n      dup1\n      dup3\n      mstore\n      dup1\n      0x20\n      mul\n      0x20\n      add\n      dup3\n      add\n      0x40\n      mstore\n      dup1\n      iszero\n      tag_321\n      jumpi\n      dup2\n      0x20\n      add\n    tag_322:\n      0x60\n      dup2\n      mstore\n      0x20\n      add\n      swap1\n      0x01\n      swap1\n      sub\n      swap1\n      dup2\n      tag_322\n      jumpi\n      swap1\n      pop\n    tag_321:\n      pop\n        /* \"temp.sol\":11799:11856  balanceSheetValues = new int256[][](eventsInRange.length) */\n      swap6\n      pop\n        /* \"temp.sol\":11909:11922  eventsInRange */\n      dup1\n        /* \"temp.sol\":11909:11929  eventsInRange.length */\n      mload\n        /* \"temp.sol\":11894:11930  new int256[][](eventsInRange.length) */\n      0xffffffffffffffff\n      dup2\n      gt\n      iszero\n      tag_323\n      jumpi\n      tag_324\n      tag_103\n      jump\t// in\n    tag_324:\n    tag_323:\n      mload(0x40)\n      swap1\n      dup1\n      dup3\n      mstore\n      dup1\n      0x20\n      mul\n      0x20\n      add\n      dup3\n      add\n      0x40\n      mstore\n      dup1\n      iszero\n      tag_325\n      jumpi\n      dup2\n      0x20\n      add\n    tag_326:\n      0x60\n      dup2\n      mstore\n      0x20\n      add\n      swap1\n      0x01\n      swap1\n      sub\n      swap1\n      dup2\n      tag_326\n      jumpi\n      swap1\n      pop\n    tag_325:\n      pop\n        /* \"temp.sol\":11866:11930  comprehensiveIncomeValues = new int256[][](eventsInRange.length) */\n      swap4\n      pop\n        /* \"temp.sol\":11972:11985  eventsInRange */\n      dup1\n        /* \"temp.sol\":11972:11992  eventsInRange.length */\n      mload\n        /* \"temp.sol\":11957:11993  new int256[][](eventsInRange.length) */\n      0xffffffffffffffff\n      dup2\n      gt\n      iszero\n      tag_327\n      jumpi\n      tag_328\n      tag_103\n      jump\t// in\n    tag_328:\n    tag_327:\n      mload(0x40)\n      swap1\n      dup1\n      dup3\n      mstore\n      dup1\n      0x20\n      mul\n      0x20\n      add\n      dup3\n      add\n      0x40\n      mstore\n      dup1\n      iszero\n      tag_329\n      jumpi\n      dup2\n      0x20\n      add\n    tag_330:\n      0x60\n      dup2\n      mstore\n      0x20\n      add\n      swap1\n      0x01\n      swap1\n      sub\n      swap1\n      dup2\n      tag_330\n      jumpi\n      swap1\n      pop\n    tag_329:\n      pop\n        /* \"temp.sol\":11940:11993  cashFlowValues = new int256[][](eventsInRange.length) */\n      swap2\n      pop\n        /* \"temp.sol\":12016:12025  uint256 i */\n      0x00\n        /* \"temp.sol\":12012:12888  for(uint256 i=0; i < eventsInRange.length; i++){... */\n    tag_331:\n        /* \"temp.sol\":12033:12046  eventsInRange */\n      dup2\n        /* \"temp.sol\":12033:12053  eventsInRange.length */\n      mload\n        /* \"temp.sol\":12029:12030  i */\n      dup2\n        /* \"temp.sol\":12029:12053  i < eventsInRange.length */\n      lt\n        /* \"temp.sol\":12012:12888  for(uint256 i=0; i < eventsInRange.length; i++){... */\n      iszero\n      tag_332\n      jumpi\n        /* \"temp.sol\":12083:12096  eventsInRange */\n      dup2\n        /* \"temp.sol\":12097:12098  i */\n      dup2\n        /* \"temp.sol\":12083:12099  eventsInRange[i] */\n      dup2\n      mload\n      dup2\n      lt\n      tag_334\n      jumpi\n      tag_335\n      tag_77\n      jump\t// in\n    tag_335:\n    tag_334:\n      0x20\n      mul\n      0x20\n      add\n      add\n      mload\n        /* \"temp.sol\":12083:12102  eventsInRange[i].id */\n      0x00\n      add\n      mload\n        /* \"temp.sol\":12074:12077  IDS */\n      dup10\n        /* \"temp.sol\":12078:12079  i */\n      dup3\n        /* \"temp.sol\":12074:12080  IDS[i] */\n      dup2\n      mload\n      dup2\n      lt\n      tag_336\n      jumpi\n      tag_337\n      tag_77\n      jump\t// in\n    tag_337:\n    tag_336:\n      0x20\n      mul\n      0x20\n      add\n      add\n        /* \"temp.sol\":12074:12102  IDS[i] = eventsInRange[i].id */\n      dup2\n      swap1\n      mstore\n      pop\n        /* \"temp.sol\":12166:12189  balanceSheetKeys.length */\n      0x0e\n        /* \"temp.sol\":12153:12190  new int256[](balanceSheetKeys.length) */\n      0xffffffffffffffff\n      dup2\n      gt\n      iszero\n      tag_338\n      jumpi\n      tag_339\n      tag_103\n      jump\t// in\n    tag_339:\n    tag_338:\n      mload(0x40)\n      swap1\n      dup1\n      dup3\n      mstore\n      dup1\n      0x20\n      mul\n      0x20\n      add\n      dup3\n      add\n      0x40\n      mstore\n      dup1\n      iszero\n      tag_340\n      jumpi\n      dup2\n      0x20\n      add\n      0x20\n      dup3\n      mul\n      dup1\n      calldatasize\n      dup4\n      calldatacopy\n      dup1\n      dup3\n      add\n      swap2\n      pop\n      pop\n      swap1\n      pop\n    tag_340:\n      pop\n        /* \"temp.sol\":12129:12147  balanceSheetValues */\n      dup8\n        /* \"temp.sol\":12148:12149  i */\n      dup3\n        /* \"temp.sol\":12129:12150  balanceSheetValues[i] */\n      dup2\n      mload\n      dup2\n      lt\n      tag_341\n      jumpi\n      tag_342\n      tag_77\n      jump\t// in\n    tag_342:\n    tag_341:\n      0x20\n      mul\n      0x20\n      add\n      add\n        /* \"temp.sol\":12129:12190  balanceSheetValues[i] = new int256[](balanceSheetKeys.length) */\n      dup2\n      swap1\n      mstore\n      pop\n        /* \"temp.sol\":12248:12278  comprehensiveIncomeKeys.length */\n      0x04\n        /* \"temp.sol\":12235:12279  new int256[](comprehensiveIncomeKeys.length) */\n      0xffffffffffffffff\n      dup2\n      gt\n      iszero\n      tag_343\n      jumpi\n      tag_344\n      tag_103\n      jump\t// in\n    tag_344:\n    tag_343:\n      mload(0x40)\n      swap1\n      dup1\n      dup3\n      mstore\n      dup1\n      0x20\n      mul\n      0x20\n      add\n      dup3\n      add\n      0x40\n      mstore\n      dup1\n      iszero\n      tag_345\n      jumpi\n      dup2\n      0x20\n      add\n      0x20\n      dup3\n      mul\n      dup1\n      calldatasize\n      dup4\n      calldatacopy\n      dup1\n      dup3\n      add\n      swap2\n      pop\n      pop\n      swap1\n      pop\n    tag_345:\n      pop\n        /* \"temp.sol\":12204:12229  comprehensiveIncomeValues */\n      dup6\n        /* \"temp.sol\":12230:12231  i */\n      dup3\n        /* \"temp.sol\":12204:12232  comprehensiveIncomeValues[i] */\n      dup2\n      mload\n      dup2\n      lt\n      tag_346\n      jumpi\n      tag_347\n      tag_77\n      jump\t// in\n    tag_347:\n    tag_346:\n      0x20\n      mul\n      0x20\n      add\n      add\n        /* \"temp.sol\":12204:12279  comprehensiveIncomeValues[i] = new int256[](comprehensiveIncomeKeys.length) */\n      dup2\n      swap1\n      mstore\n      pop\n        /* \"temp.sol\":12326:12345  cashFlowKeys.length */\n      0x08\n        /* \"temp.sol\":12313:12346  new int256[](cashFlowKeys.length) */\n      0xffffffffffffffff\n      dup2\n      gt\n      iszero\n      tag_348\n      jumpi\n      tag_349\n      tag_103\n      jump\t// in\n    tag_349:\n    tag_348:\n      mload(0x40)\n      swap1\n      dup1\n      dup3\n      mstore\n      dup1\n      0x20\n      mul\n      0x20\n      add\n      dup3\n      add\n      0x40\n      mstore\n      dup1\n      iszero\n      tag_350\n      jumpi\n      dup2\n      0x20\n      add\n      0x20\n      dup3\n      mul\n      dup1\n      calldatasize\n      dup4\n      calldatacopy\n      dup1\n      dup3\n      add\n      swap2\n      pop\n      pop\n      swap1\n      pop\n    tag_350:\n      pop\n        /* \"temp.sol\":12293:12307  cashFlowValues */\n      dup4\n        /* \"temp.sol\":12308:12309  i */\n      dup3\n        /* \"temp.sol\":12293:12310  cashFlowValues[i] */\n      dup2\n      mload\n      dup2\n      lt\n      tag_351\n      jumpi\n      tag_352\n      tag_77\n      jump\t// in\n    tag_352:\n    tag_351:\n      0x20\n      mul\n      0x20\n      add\n      add\n        /* \"temp.sol\":12293:12346  cashFlowValues[i] = new int256[](cashFlowKeys.length) */\n      dup2\n      swap1\n      mstore\n      pop\n        /* \"temp.sol\":12378:12387  uint256 j */\n      0x00\n        /* \"temp.sol\":12373:12520  for (uint256 j = 0; j < balanceSheetKeys.length; j++) {... */\n    tag_353:\n        /* \"temp.sol\":12397:12420  balanceSheetKeys.length */\n      0x0e\n        /* \"temp.sol\":12393:12394  j */\n      dup2\n        /* \"temp.sol\":12393:12420  j < balanceSheetKeys.length */\n      lt\n        /* \"temp.sol\":12373:12520  for (uint256 j = 0; j < balanceSheetKeys.length; j++) {... */\n      iszero\n      tag_354\n      jumpi\n        /* \"temp.sol\":12472:12484  balanceSheet */\n      0x01\n        /* \"temp.sol\":12485:12501  balanceSheetKeys */\n      dup10\n        /* \"temp.sol\":12502:12503  j */\n      dup3\n        /* \"temp.sol\":12485:12504  balanceSheetKeys[j] */\n      0x0e\n      dup2\n      lt\n      tag_356\n      jumpi\n      tag_357\n      tag_77\n      jump\t// in\n    tag_357:\n    tag_356:\n      0x20\n      mul\n      add\n      mload\n        /* \"temp.sol\":12472:12505  balanceSheet[balanceSheetKeys[j]] */\n      mload(0x40)\n      tag_358\n      swap2\n      swap1\n      tag_82\n      jump\t// in\n    tag_358:\n      swap1\n      dup2\n      mstore\n      0x20\n      add\n      mload(0x40)\n      dup1\n      swap2\n      sub\n      swap1\n      keccak256\n      sload\n        /* \"temp.sol\":12445:12463  balanceSheetValues */\n      dup9\n        /* \"temp.sol\":12464:12465  i */\n      dup4\n        /* \"temp.sol\":12445:12466  balanceSheetValues[i] */\n      dup2\n      mload\n      dup2\n      lt\n      tag_359\n      jumpi\n      tag_360\n      tag_77\n      jump\t// in\n    tag_360:\n    tag_359:\n      0x20\n      mul\n      0x20\n      add\n      add\n      mload\n        /* \"temp.sol\":12467:12468  j */\n      dup3\n        /* \"temp.sol\":12445:12469  balanceSheetValues[i][j] */\n      dup2\n      mload\n      dup2\n      lt\n      tag_361\n      jumpi\n      tag_362\n      tag_77\n      jump\t// in\n    tag_362:\n    tag_361:\n      0x20\n      mul\n      0x20\n      add\n      add\n        /* \"temp.sol\":12445:12505  balanceSheetValues[i][j] = balanceSheet[balanceSheetKeys[j]] */\n      dup2\n      dup2\n      mstore\n      pop\n      pop\n        /* \"temp.sol\":12422:12425  j++ */\n      dup1\n      dup1\n      tag_363\n      swap1\n      tag_87\n      jump\t// in\n    tag_363:\n      swap2\n      pop\n      pop\n        /* \"temp.sol\":12373:12520  for (uint256 j = 0; j < balanceSheetKeys.length; j++) {... */\n      jump(tag_353)\n    tag_354:\n      pop\n        /* \"temp.sol\":12551:12560  uint256 j */\n      0x00\n        /* \"temp.sol\":12546:12721  for (uint256 j = 0; j < comprehensiveIncomeKeys.length; j++) {... */\n    tag_364:\n        /* \"temp.sol\":12570:12600  comprehensiveIncomeKeys.length */\n      0x04\n        /* \"temp.sol\":12566:12567  j */\n      dup2\n        /* \"temp.sol\":12566:12600  j < comprehensiveIncomeKeys.length */\n      lt\n        /* \"temp.sol\":12546:12721  for (uint256 j = 0; j < comprehensiveIncomeKeys.length; j++) {... */\n      iszero\n      tag_365\n      jumpi\n        /* \"temp.sol\":12659:12678  comprehensiveIncome */\n      0x02\n        /* \"temp.sol\":12679:12702  comprehensiveIncomeKeys */\n      dup8\n        /* \"temp.sol\":12703:12704  j */\n      dup3\n        /* \"temp.sol\":12679:12705  comprehensiveIncomeKeys[j] */\n      0x04\n      dup2\n      lt\n      tag_367\n      jumpi\n      tag_368\n      tag_77\n      jump\t// in\n    tag_368:\n    tag_367:\n      0x20\n      mul\n      add\n      mload\n        /* \"temp.sol\":12659:12706  comprehensiveIncome[comprehensiveIncomeKeys[j]] */\n      mload(0x40)\n      tag_369\n      swap2\n      swap1\n      tag_82\n      jump\t// in\n    tag_369:\n      swap1\n      dup2\n      mstore\n      0x20\n      add\n      mload(0x40)\n      dup1\n      swap2\n      sub\n      swap1\n      keccak256\n      sload\n        /* \"temp.sol\":12625:12650  comprehensiveIncomeValues */\n      dup7\n        /* \"temp.sol\":12651:12652  i */\n      dup4\n        /* \"temp.sol\":12625:12653  comprehensiveIncomeValues[i] */\n      dup2\n      mload\n      dup2\n      lt\n      tag_370\n      jumpi\n      tag_371\n      tag_77\n      jump\t// in\n    tag_371:\n    tag_370:\n      0x20\n      mul\n      0x20\n      add\n      add\n      mload\n        /* \"temp.sol\":12654:12655  j */\n      dup3\n        /* \"temp.sol\":12625:12656  comprehensiveIncomeValues[i][j] */\n      dup2\n      mload\n      dup2\n      lt\n      tag_372\n      jumpi\n      tag_373\n      tag_77\n      jump\t// in\n    tag_373:\n    tag_372:\n      0x20\n      mul\n      0x20\n      add\n      add\n        /* \"temp.sol\":12625:12706  comprehensiveIncomeValues[i][j] = comprehensiveIncome[comprehensiveIncomeKeys[j]] */\n      dup2\n      dup2\n      mstore\n      pop\n      pop\n        /* \"temp.sol\":12602:12605  j++ */\n      dup1\n      dup1\n      tag_374\n      swap1\n      tag_87\n      jump\t// in\n    tag_374:\n      swap2\n      pop\n      pop\n        /* \"temp.sol\":12546:12721  for (uint256 j = 0; j < comprehensiveIncomeKeys.length; j++) {... */\n      jump(tag_364)\n    tag_365:\n      pop\n        /* \"temp.sol\":12752:12761  uint256 j */\n      0x00\n        /* \"temp.sol\":12747:12878  for (uint256 j = 0; j < cashFlowKeys.length; j++) {... */\n    tag_375:\n        /* \"temp.sol\":12771:12790  cashFlowKeys.length */\n      0x08\n        /* \"temp.sol\":12767:12768  j */\n      dup2\n        /* \"temp.sol\":12767:12790  j < cashFlowKeys.length */\n      lt\n        /* \"temp.sol\":12747:12878  for (uint256 j = 0; j < cashFlowKeys.length; j++) {... */\n      iszero\n      tag_376\n      jumpi\n        /* \"temp.sol\":12838:12846  cashFlow */\n      0x03\n        /* \"temp.sol\":12847:12859  cashFlowKeys */\n      dup6\n        /* \"temp.sol\":12860:12861  j */\n      dup3\n        /* \"temp.sol\":12847:12862  cashFlowKeys[j] */\n      0x08\n      dup2\n      lt\n      tag_378\n      jumpi\n      tag_379\n      tag_77\n      jump\t// in\n    tag_379:\n    tag_378:\n      0x20\n      mul\n      add\n      mload\n        /* \"temp.sol\":12838:12863  cashFlow[cashFlowKeys[j]] */\n      mload(0x40)\n      tag_380\n      swap2\n      swap1\n      tag_82\n      jump\t// in\n    tag_380:\n      swap1\n      dup2\n      mstore\n      0x20\n      add\n      mload(0x40)\n      dup1\n      swap2\n      sub\n      swap1\n      keccak256\n      sload\n        /* \"temp.sol\":12815:12829  cashFlowValues */\n      dup5\n        /* \"temp.sol\":12830:12831  i */\n      dup4\n        /* \"temp.sol\":12815:12832  cashFlowValues[i] */\n      dup2\n      mload\n      dup2\n      lt\n      tag_381\n      jumpi\n      tag_382\n      tag_77\n      jump\t// in\n    tag_382:\n    tag_381:\n      0x20\n      mul\n      0x20\n      add\n      add\n      mload\n        /* \"temp.sol\":12833:12834  j */\n      dup3\n        /* \"temp.sol\":12815:12835  cashFlowValues[i][j] */\n      dup2\n      mload\n      dup2\n      lt\n      tag_383\n      jumpi\n      tag_384\n      tag_77\n      jump\t// in\n    tag_384:\n    tag_383:\n      0x20\n      mul\n      0x20\n      add\n      add\n        /* \"temp.sol\":12815:12863  cashFlowValues[i][j] = cashFlow[cashFlowKeys[j]] */\n      dup2\n      dup2\n      mstore\n      pop\n      pop\n        /* \"temp.sol\":12792:12795  j++ */\n      dup1\n      dup1\n      tag_385\n      swap1\n      tag_87\n      jump\t// in\n    tag_385:\n      swap2\n      pop\n      pop\n        /* \"temp.sol\":12747:12878  for (uint256 j = 0; j < cashFlowKeys.length; j++) {... */\n      jump(tag_375)\n    tag_376:\n      pop\n        /* \"temp.sol\":12055:12058  i++ */\n      dup1\n      dup1\n      tag_386\n      swap1\n      tag_87\n      jump\t// in\n    tag_386:\n      swap2\n      pop\n      pop\n        /* \"temp.sol\":12012:12888  for(uint256 i=0; i < eventsInRange.length; i++){... */\n      jump(tag_331)\n    tag_332:\n      pop\n        /* \"temp.sol\":12898:13029  return (IDS,balanceSheetKeys, balanceSheetValues, comprehensiveIncomeKeys, comprehensiveIncomeValues, cashFlowKeys, cashFlowValues) */\n      pop\n        /* \"temp.sol\":8910:13036  function getReportsInTimeRange(uint256 startTime, uint256 endTime) public view returns (... */\n      swap3\n      swap6\n      swap9\n      swap2\n      swap5\n      swap8\n      pop\n      swap3\n      swap6\n      pop\n      jump\t// out\n        /* \"temp.sol\":384:429  mapping(string => int256) public balanceSheet */\n    tag_69:\n      0x01\n      dup2\n      dup1\n      mload\n      0x20\n      dup2\n      add\n      dup3\n      add\n      dup1\n      mload\n      dup5\n      dup3\n      mstore\n      0x20\n      dup4\n      add\n      0x20\n      dup6\n      add\n      keccak256\n      dup2\n      dup4\n      mstore\n      dup1\n      swap6\n      pop\n      pop\n      pop\n      pop\n      pop\n      pop\n      0x00\n      swap2\n      pop\n      swap1\n      pop\n      sload\n      dup2\n      jump\t// out\n        /* \"temp.sol\":1019:1210  function addAmountToBalanceSheet(string[] memory keys, int256 value) internal {... */\n    tag_117:\n        /* \"temp.sol\":1112:1121  uint256 i */\n      0x00\n        /* \"temp.sol\":1107:1204  for (uint256 i = 0; i < keys.length; i++) {... */\n    tag_388:\n        /* \"temp.sol\":1131:1135  keys */\n      dup3\n        /* \"temp.sol\":1131:1142  keys.length */\n      mload\n        /* \"temp.sol\":1127:1128  i */\n      dup2\n        /* \"temp.sol\":1127:1142  i < keys.length */\n      lt\n        /* \"temp.sol\":1107:1204  for (uint256 i = 0; i < keys.length; i++) {... */\n      iszero\n      tag_389\n      jumpi\n        /* \"temp.sol\":1188:1193  value */\n      dup2\n        /* \"temp.sol\":1163:1175  balanceSheet */\n      0x01\n        /* \"temp.sol\":1176:1180  keys */\n      dup5\n        /* \"temp.sol\":1181:1182  i */\n      dup4\n        /* \"temp.sol\":1176:1183  keys[i] */\n      dup2\n      mload\n      dup2\n      lt\n      tag_391\n      jumpi\n      tag_392\n      tag_77\n      jump\t// in\n    tag_392:\n    tag_391:\n      0x20\n      mul\n      0x20\n      add\n      add\n      mload\n        /* \"temp.sol\":1163:1184  balanceSheet[keys[i]] */\n      mload(0x40)\n      tag_393\n      swap2\n      swap1\n      tag_82\n      jump\t// in\n    tag_393:\n      swap1\n      dup2\n      mstore\n      0x20\n      add\n      mload(0x40)\n      dup1\n      swap2\n      sub\n      swap1\n      keccak256\n      0x00\n        /* \"temp.sol\":1163:1193  balanceSheet[keys[i]] += value */\n      dup3\n      dup3\n      sload\n      tag_394\n      swap2\n      swap1\n      tag_122\n      jump\t// in\n    tag_394:\n      swap3\n      pop\n      pop\n      dup2\n      swap1\n      sstore\n      pop\n        /* \"temp.sol\":1144:1147  i++ */\n      dup1\n      dup1\n      tag_395\n      swap1\n      tag_87\n      jump\t// in\n    tag_395:\n      swap2\n      pop\n      pop\n        /* \"temp.sol\":1107:1204  for (uint256 i = 0; i < keys.length; i++) {... */\n      jump(tag_388)\n    tag_389:\n      pop\n        /* \"temp.sol\":1019:1210  function addAmountToBalanceSheet(string[] memory keys, int256 value) internal {... */\n      pop\n      pop\n      jump\t// out\n        /* \"temp.sol\":1216:1415  function addAmountTocomprehensive(string[] memory keys, int256 value) internal {... */\n    tag_173:\n        /* \"temp.sol\":1310:1319  uint256 i */\n      0x00\n        /* \"temp.sol\":1305:1409  for (uint256 i = 0; i < keys.length; i++) {... */\n    tag_397:\n        /* \"temp.sol\":1329:1333  keys */\n      dup3\n        /* \"temp.sol\":1329:1340  keys.length */\n      mload\n        /* \"temp.sol\":1325:1326  i */\n      dup2\n        /* \"temp.sol\":1325:1340  i < keys.length */\n      lt\n        /* \"temp.sol\":1305:1409  for (uint256 i = 0; i < keys.length; i++) {... */\n      iszero\n      tag_398\n      jumpi\n        /* \"temp.sol\":1393:1398  value */\n      dup2\n        /* \"temp.sol\":1361:1380  comprehensiveIncome */\n      0x02\n        /* \"temp.sol\":1381:1385  keys */\n      dup5\n        /* \"temp.sol\":1386:1387  i */\n      dup4\n        /* \"temp.sol\":1381:1388  keys[i] */\n      dup2\n      mload\n      dup2\n      lt\n      tag_400\n      jumpi\n      tag_401\n      tag_77\n      jump\t// in\n    tag_401:\n    tag_400:\n      0x20\n      mul\n      0x20\n      add\n      add\n      mload\n        /* \"temp.sol\":1361:1389  comprehensiveIncome[keys[i]] */\n      mload(0x40)\n      tag_402\n      swap2\n      swap1\n      tag_82\n      jump\t// in\n    tag_402:\n      swap1\n      dup2\n      mstore\n      0x20\n      add\n      mload(0x40)\n      dup1\n      swap2\n      sub\n      swap1\n      keccak256\n      0x00\n        /* \"temp.sol\":1361:1398  comprehensiveIncome[keys[i]] += value */\n      dup3\n      dup3\n      sload\n      tag_403\n      swap2\n      swap1\n      tag_122\n      jump\t// in\n    tag_403:\n      swap3\n      pop\n      pop\n      dup2\n      swap1\n      sstore\n      pop\n        /* \"temp.sol\":1342:1345  i++ */\n      dup1\n      dup1\n      tag_404\n      swap1\n      tag_87\n      jump\t// in\n    tag_404:\n      swap2\n      pop\n      pop\n        /* \"temp.sol\":1305:1409  for (uint256 i = 0; i < keys.length; i++) {... */\n      jump(tag_397)\n    tag_398:\n      pop\n        /* \"temp.sol\":1216:1415  function addAmountTocomprehensive(string[] memory keys, int256 value) internal {... */\n      pop\n      pop\n      jump\t// out\n        /* \"temp.sol\":5193:7386  function recordTransactionCashFlow(Event memory newTransaction) internal {... */\n    tag_179:\n        /* \"temp.sol\":5277:5290  int256 C001_3 */\n      0x00\n        /* \"temp.sol\":5384:5387  100 */\n      0x64\n        /* \"temp.sol\":5355:5369  newTransaction */\n      dup3\n        /* \"temp.sol\":5355:5383  newTransaction.rateUSDTtoUSD */\n      0xc0\n      add\n      mload\n        /* \"temp.sol\":5325:5339  newTransaction */\n      dup4\n        /* \"temp.sol\":5325:5351  newTransaction.internalFee */\n      0x60\n      add\n      mload\n        /* \"temp.sol\":5301:5315  newTransaction */\n      dup5\n        /* \"temp.sol\":5301:5322  newTransaction.amount */\n      0x40\n      add\n      mload\n        /* \"temp.sol\":5301:5351  newTransaction.amount - newTransaction.internalFee */\n      tag_406\n      swap2\n      swap1\n      tag_93\n      jump\t// in\n    tag_406:\n        /* \"temp.sol\":5300:5383  (newTransaction.amount - newTransaction.internalFee) * newTransaction.rateUSDTtoUSD */\n      tag_407\n      swap2\n      swap1\n      tag_98\n      jump\t// in\n    tag_407:\n        /* \"temp.sol\":5300:5387  (newTransaction.amount - newTransaction.internalFee) * newTransaction.rateUSDTtoUSD/100 */\n      tag_408\n      swap2\n      swap1\n      tag_100\n      jump\t// in\n    tag_408:\n        /* \"temp.sol\":5277:5388  int256 C001_3 = int256((newTransaction.amount - newTransaction.internalFee) * newTransaction.rateUSDTtoUSD/100) */\n      swap1\n      pop\n        /* \"temp.sol\":5398:5427  string[] memory keysForC001_3 */\n      0x00\n        /* \"temp.sol\":5443:5444  2 */\n      0x02\n        /* \"temp.sol\":5430:5445  new string[](2) */\n      0xffffffffffffffff\n      dup2\n      gt\n      iszero\n      tag_409\n      jumpi\n      tag_410\n      tag_103\n      jump\t// in\n    tag_410:\n    tag_409:\n      mload(0x40)\n      swap1\n      dup1\n      dup3\n      mstore\n      dup1\n      0x20\n      mul\n      0x20\n      add\n      dup3\n      add\n      0x40\n      mstore\n      dup1\n      iszero\n      tag_411\n      jumpi\n      dup2\n      0x20\n      add\n    tag_412:\n      0x60\n      dup2\n      mstore\n      0x20\n      add\n      swap1\n      0x01\n      swap1\n      sub\n      swap1\n      dup2\n      tag_412\n      jumpi\n      swap1\n      pop\n    tag_411:\n      pop\n        /* \"temp.sol\":5398:5445  string[] memory keysForC001_3 = new string[](2) */\n      swap1\n      pop\n        /* \"temp.sol\":5455:5589  keysForC001_3[0] = \"supplementalScheduleOfNonCashOperatingActivities.details.cryptocurrenciesDepositedByCustomers.weightedAverageCost\" */\n      mload(0x40)\n      dup1\n      0xa0\n      add\n      0x40\n      mstore\n      dup1\n      0x71\n      dup2\n      mstore\n      0x20\n      add\n      data_f93c158fc4141373d133c3187c78462409ba6073bc95d62d4ebc42a608e902a1\n      0x71\n      swap2\n      codecopy\n        /* \"temp.sol\":5455:5468  keysForC001_3 */\n      dup2\n        /* \"temp.sol\":5469:5470  0 */\n      0x00\n        /* \"temp.sol\":5455:5471  keysForC001_3[0] */\n      dup2\n      mload\n      dup2\n      lt\n      tag_413\n      jumpi\n      tag_414\n      tag_77\n      jump\t// in\n    tag_414:\n    tag_413:\n      0x20\n      mul\n      0x20\n      add\n      add\n        /* \"temp.sol\":5455:5589  keysForC001_3[0] = \"supplementalScheduleOfNonCashOperatingActivities.details.cryptocurrenciesDepositedByCustomers.weightedAverageCost\" */\n      dup2\n      swap1\n      mstore\n      pop\n        /* \"temp.sol\":5600:5749  keysForC001_3[1] = \"supplementalScheduleOfNonCashOperatingActivities.details.cryptocurrenciesDepositedByCustomers.breakdown.USDT.weightedAverageCost\" */\n      mload(0x40)\n      dup1\n      0xa0\n      add\n      0x40\n      mstore\n      dup1\n      0x80\n      dup2\n      mstore\n      0x20\n      add\n      data_08700b6453f8f95c1cc2f754b223fac3f9002a3b94ceef26b5952ef1d140fd05\n      0x80\n      swap2\n      codecopy\n        /* \"temp.sol\":5600:5613  keysForC001_3 */\n      dup2\n        /* \"temp.sol\":5614:5615  1 */\n      0x01\n        /* \"temp.sol\":5600:5616  keysForC001_3[1] */\n      dup2\n      mload\n      dup2\n      lt\n      tag_415\n      jumpi\n      tag_416\n      tag_77\n      jump\t// in\n    tag_416:\n    tag_415:\n      0x20\n      mul\n      0x20\n      add\n      add\n        /* \"temp.sol\":5600:5749  keysForC001_3[1] = \"supplementalScheduleOfNonCashOperatingActivities.details.cryptocurrenciesDepositedByCustomers.breakdown.USDT.weightedAverageCost\" */\n      dup2\n      swap1\n      mstore\n      pop\n        /* \"temp.sol\":5759:5801  addAmountToCashFlow(keysForC001_3, C001_3) */\n      tag_417\n        /* \"temp.sol\":5779:5792  keysForC001_3 */\n      dup2\n        /* \"temp.sol\":5794:5800  C001_3 */\n      dup4\n        /* \"temp.sol\":5759:5778  addAmountToCashFlow */\n      tag_418\n        /* \"temp.sol\":5759:5801  addAmountToCashFlow(keysForC001_3, C001_3) */\n      jump\t// in\n    tag_417:\n        /* \"temp.sol\":5812:5823  int256 C002 */\n      0x00\n        /* \"temp.sol\":5857:5871  newTransaction */\n      dup4\n        /* \"temp.sol\":5857:5883  newTransaction.internalFee */\n      0x60\n      add\n      mload\n        /* \"temp.sol\":5833:5847  newTransaction */\n      dup5\n        /* \"temp.sol\":5833:5854  newTransaction.amount */\n      0x40\n      add\n      mload\n        /* \"temp.sol\":5833:5883  newTransaction.amount - newTransaction.internalFee */\n      tag_419\n      swap2\n      swap1\n      tag_93\n      jump\t// in\n    tag_419:\n        /* \"temp.sol\":5812:5884  int256 C002 = int256(newTransaction.amount - newTransaction.internalFee) */\n      swap1\n      pop\n        /* \"temp.sol\":6025:6029  C002 */\n      dup1\n        /* \"temp.sol\":5894:5902  cashFlow */\n      0x03\n        /* \"temp.sol\":5894:6021  cashFlow[\"supplementalScheduleOfNonCashOperatingActivities.details.cryptocurrenciesDepositedByCustomers.breakdown.USDT.amount\"] */\n      mload(0x40)\n      tag_420\n      swap1\n      tag_421\n      jump\t// in\n    tag_420:\n      swap1\n      dup2\n      mstore\n      0x20\n      add\n      mload(0x40)\n      dup1\n      swap2\n      sub\n      swap1\n      keccak256\n      0x00\n        /* \"temp.sol\":5894:6029  cashFlow[\"supplementalScheduleOfNonCashOperatingActivities.details.cryptocurrenciesDepositedByCustomers.breakdown.USDT.amount\"] += C002 */\n      dup3\n      dup3\n      sload\n      tag_422\n      swap2\n      swap1\n      tag_122\n      jump\t// in\n    tag_422:\n      swap3\n      pop\n      pop\n      dup2\n      swap1\n      sstore\n      pop\n        /* \"temp.sol\":6040:6053  int256 C004_6 */\n      0x00\n        /* \"temp.sol\":6152:6155  100 */\n      0x64\n        /* \"temp.sol\":6123:6137  newTransaction */\n      dup6\n        /* \"temp.sol\":6123:6151  newTransaction.rateUSDTtoUSD */\n      0xc0\n      add\n      mload\n        /* \"temp.sol\":6093:6107  newTransaction */\n      dup7\n        /* \"temp.sol\":6093:6119  newTransaction.externalFee */\n      0x80\n      add\n      mload\n        /* \"temp.sol\":6064:6078  newTransaction */\n      dup8\n        /* \"temp.sol\":6064:6090  newTransaction.internalFee */\n      0x60\n      add\n      mload\n        /* \"temp.sol\":6064:6119  newTransaction.internalFee + newTransaction.externalFee */\n      tag_423\n      swap2\n      swap1\n      tag_96\n      jump\t// in\n    tag_423:\n        /* \"temp.sol\":6063:6151  (newTransaction.internalFee + newTransaction.externalFee) * newTransaction.rateUSDTtoUSD */\n      tag_424\n      swap2\n      swap1\n      tag_98\n      jump\t// in\n    tag_424:\n        /* \"temp.sol\":6063:6155  (newTransaction.internalFee + newTransaction.externalFee) * newTransaction.rateUSDTtoUSD/100 */\n      tag_425\n      swap2\n      swap1\n      tag_100\n      jump\t// in\n    tag_425:\n        /* \"temp.sol\":6040:6156  int256 C004_6 = int256((newTransaction.internalFee + newTransaction.externalFee) * newTransaction.rateUSDTtoUSD/100) */\n      swap1\n      pop\n        /* \"temp.sol\":6166:6195  string[] memory keysForC004_6 */\n      0x00\n        /* \"temp.sol\":6211:6212  2 */\n      0x02\n        /* \"temp.sol\":6198:6213  new string[](2) */\n      0xffffffffffffffff\n      dup2\n      gt\n      iszero\n      tag_426\n      jumpi\n      tag_427\n      tag_103\n      jump\t// in\n    tag_427:\n    tag_426:\n      mload(0x40)\n      swap1\n      dup1\n      dup3\n      mstore\n      dup1\n      0x20\n      mul\n      0x20\n      add\n      dup3\n      add\n      0x40\n      mstore\n      dup1\n      iszero\n      tag_428\n      jumpi\n      dup2\n      0x20\n      add\n    tag_429:\n      0x60\n      dup2\n      mstore\n      0x20\n      add\n      swap1\n      0x01\n      swap1\n      sub\n      swap1\n      dup2\n      tag_429\n      jumpi\n      swap1\n      pop\n    tag_428:\n      pop\n        /* \"temp.sol\":6166:6213  string[] memory keysForC004_6 = new string[](2) */\n      swap1\n      pop\n        /* \"temp.sol\":6223:6375  keysForC004_6[0] = \"supplementalScheduleOfNonCashOperatingActivities.details.cryptocurrenciesReceivedFromCustomersAsTransactionFees.weightedAverageCost\" */\n      mload(0x40)\n      dup1\n      0xc0\n      add\n      0x40\n      mstore\n      dup1\n      0x83\n      dup2\n      mstore\n      0x20\n      add\n      data_e9374b3d9fcc8af3b8083b54588c48b8f25b32a32c3314f7a7d348668acdb652\n      0x83\n      swap2\n      codecopy\n        /* \"temp.sol\":6223:6236  keysForC004_6 */\n      dup2\n        /* \"temp.sol\":6237:6238  0 */\n      0x00\n        /* \"temp.sol\":6223:6239  keysForC004_6[0] */\n      dup2\n      mload\n      dup2\n      lt\n      tag_430\n      jumpi\n      tag_431\n      tag_77\n      jump\t// in\n    tag_431:\n    tag_430:\n      0x20\n      mul\n      0x20\n      add\n      add\n        /* \"temp.sol\":6223:6375  keysForC004_6[0] = \"supplementalScheduleOfNonCashOperatingActivities.details.cryptocurrenciesReceivedFromCustomersAsTransactionFees.weightedAverageCost\" */\n      dup2\n      swap1\n      mstore\n      pop\n        /* \"temp.sol\":6386:6553  keysForC004_6[1] = \"supplementalScheduleOfNonCashOperatingActivities.details.cryptocurrenciesReceivedFromCustomersAsTransactionFees.breakdown.USDT.weightedAverageCost\" */\n      mload(0x40)\n      dup1\n      0xc0\n      add\n      0x40\n      mstore\n      dup1\n      0x92\n      dup2\n      mstore\n      0x20\n      add\n      data_dc1e3b141eb7c4f0493cf97ff9e97fef738d38747e93e92ac7479ece51cb1481\n      0x92\n      swap2\n      codecopy\n        /* \"temp.sol\":6386:6399  keysForC004_6 */\n      dup2\n        /* \"temp.sol\":6400:6401  1 */\n      0x01\n        /* \"temp.sol\":6386:6402  keysForC004_6[1] */\n      dup2\n      mload\n      dup2\n      lt\n      tag_432\n      jumpi\n      tag_433\n      tag_77\n      jump\t// in\n    tag_433:\n    tag_432:\n      0x20\n      mul\n      0x20\n      add\n      add\n        /* \"temp.sol\":6386:6553  keysForC004_6[1] = \"supplementalScheduleOfNonCashOperatingActivities.details.cryptocurrenciesReceivedFromCustomersAsTransactionFees.breakdown.USDT.weightedAverageCost\" */\n      dup2\n      swap1\n      mstore\n      pop\n        /* \"temp.sol\":6563:6605  addAmountToCashFlow(keysForC004_6, C004_6) */\n      tag_434\n        /* \"temp.sol\":6583:6596  keysForC004_6 */\n      dup2\n        /* \"temp.sol\":6598:6604  C004_6 */\n      dup4\n        /* \"temp.sol\":6563:6582  addAmountToCashFlow */\n      tag_418\n        /* \"temp.sol\":6563:6605  addAmountToCashFlow(keysForC004_6, C004_6) */\n      jump\t// in\n    tag_434:\n        /* \"temp.sol\":6616:6627  int256 C005 */\n      0x00\n        /* \"temp.sol\":6661:6675  newTransaction */\n      dup7\n        /* \"temp.sol\":6661:6687  newTransaction.internalFee */\n      0x60\n      add\n      mload\n        /* \"temp.sol\":6637:6651  newTransaction */\n      dup8\n        /* \"temp.sol\":6637:6658  newTransaction.amount */\n      0x40\n      add\n      mload\n        /* \"temp.sol\":6637:6687  newTransaction.amount - newTransaction.internalFee */\n      tag_435\n      swap2\n      swap1\n      tag_93\n      jump\t// in\n    tag_435:\n        /* \"temp.sol\":6616:6688  int256 C005 = int256(newTransaction.amount - newTransaction.internalFee) */\n      swap1\n      pop\n        /* \"temp.sol\":6847:6851  C005 */\n      dup1\n        /* \"temp.sol\":6698:6706  cashFlow */\n      0x03\n        /* \"temp.sol\":6698:6843  cashFlow[\"supplementalScheduleOfNonCashOperatingActivities.details.cryptocurrenciesReceivedFromCustomersAsTransactionFees.breakdown.USDT.amount\"] */\n      mload(0x40)\n      tag_436\n      swap1\n      tag_437\n      jump\t// in\n    tag_436:\n      swap1\n      dup2\n      mstore\n      0x20\n      add\n      mload(0x40)\n      dup1\n      swap2\n      sub\n      swap1\n      keccak256\n      0x00\n        /* \"temp.sol\":6698:6851  cashFlow[\"supplementalScheduleOfNonCashOperatingActivities.details.cryptocurrenciesReceivedFromCustomersAsTransactionFees.breakdown.USDT.amount\"] += C005 */\n      dup3\n      dup3\n      sload\n      tag_438\n      swap2\n      swap1\n      tag_122\n      jump\t// in\n    tag_438:\n      swap3\n      pop\n      pop\n      dup2\n      swap1\n      sstore\n      pop\n        /* \"temp.sol\":6862:6875  int256 C007_8 */\n      0x00\n        /* \"temp.sol\":6969:6972  100 */\n      0x64\n        /* \"temp.sol\":6940:6954  newTransaction */\n      dup9\n        /* \"temp.sol\":6940:6968  newTransaction.rateUSDTtoUSD */\n      0xc0\n      add\n      mload\n        /* \"temp.sol\":6910:6924  newTransaction */\n      dup10\n        /* \"temp.sol\":6910:6936  newTransaction.externalFee */\n      0x80\n      add\n      mload\n        /* \"temp.sol\":6886:6900  newTransaction */\n      dup11\n        /* \"temp.sol\":6886:6907  newTransaction.amount */\n      0x40\n      add\n      mload\n        /* \"temp.sol\":6886:6936  newTransaction.amount + newTransaction.externalFee */\n      tag_439\n      swap2\n      swap1\n      tag_96\n      jump\t// in\n    tag_439:\n        /* \"temp.sol\":6885:6968  (newTransaction.amount + newTransaction.externalFee) * newTransaction.rateUSDTtoUSD */\n      tag_440\n      swap2\n      swap1\n      tag_98\n      jump\t// in\n    tag_440:\n        /* \"temp.sol\":6885:6972  (newTransaction.amount + newTransaction.externalFee) * newTransaction.rateUSDTtoUSD/100 */\n      tag_441\n      swap2\n      swap1\n      tag_100\n      jump\t// in\n    tag_441:\n        /* \"temp.sol\":6862:6973  int256 C007_8 = int256((newTransaction.amount + newTransaction.externalFee) * newTransaction.rateUSDTtoUSD/100) */\n      swap1\n      pop\n        /* \"temp.sol\":6983:7012  string[] memory keysForC007_8 */\n      0x00\n        /* \"temp.sol\":7028:7029  2 */\n      0x02\n        /* \"temp.sol\":7015:7030  new string[](2) */\n      0xffffffffffffffff\n      dup2\n      gt\n      iszero\n      tag_442\n      jumpi\n      tag_443\n      tag_103\n      jump\t// in\n    tag_443:\n    tag_442:\n      mload(0x40)\n      swap1\n      dup1\n      dup3\n      mstore\n      dup1\n      0x20\n      mul\n      0x20\n      add\n      dup3\n      add\n      0x40\n      mstore\n      dup1\n      iszero\n      tag_444\n      jumpi\n      dup2\n      0x20\n      add\n    tag_445:\n      0x60\n      dup2\n      mstore\n      0x20\n      add\n      swap1\n      0x01\n      swap1\n      sub\n      swap1\n      dup2\n      tag_445\n      jumpi\n      swap1\n      pop\n    tag_444:\n      pop\n        /* \"temp.sol\":6983:7030  string[] memory keysForC007_8 = new string[](2) */\n      swap1\n      pop\n        /* \"temp.sol\":7040:7129  keysForC007_8[0] = \"supplementalScheduleOfNonCashOperatingActivities.weightedAverageCost\" */\n      mload(0x40)\n      dup1\n      0x80\n      add\n      0x40\n      mstore\n      dup1\n      0x44\n      dup2\n      mstore\n      0x20\n      add\n      data_4e73ff8eb2727f3fa2ea80dbb33ea1eebeb47820fa41462eed2bb2e289a7eda1\n      0x44\n      swap2\n      codecopy\n        /* \"temp.sol\":7040:7053  keysForC007_8 */\n      dup2\n        /* \"temp.sol\":7054:7055  0 */\n      0x00\n        /* \"temp.sol\":7040:7056  keysForC007_8[0] */\n      dup2\n      mload\n      dup2\n      lt\n      tag_446\n      jumpi\n      tag_447\n      tag_77\n      jump\t// in\n    tag_447:\n    tag_446:\n      0x20\n      mul\n      0x20\n      add\n      add\n        /* \"temp.sol\":7040:7129  keysForC007_8[0] = \"supplementalScheduleOfNonCashOperatingActivities.weightedAverageCost\" */\n      dup2\n      swap1\n      mstore\n      pop\n        /* \"temp.sol\":7140:7245  keysForC007_8[1] = \"supplementalScheduleOfNonCashOperatingActivities.details.cryptocurrenciesEndOfPeriod\" */\n      mload(0x40)\n      dup1\n      0x80\n      add\n      0x40\n      mstore\n      dup1\n      0x54\n      dup2\n      mstore\n      0x20\n      add\n      data_15c20e8d0b3d40be2e84ef435d7a22e35af1d3a75ef669876f6405bb1124a943\n      0x54\n      swap2\n      codecopy\n        /* \"temp.sol\":7140:7153  keysForC007_8 */\n      dup2\n        /* \"temp.sol\":7154:7155  1 */\n      0x01\n        /* \"temp.sol\":7140:7156  keysForC007_8[1] */\n      dup2\n      mload\n      dup2\n      lt\n      tag_448\n      jumpi\n      tag_449\n      tag_77\n      jump\t// in\n    tag_449:\n    tag_448:\n      0x20\n      mul\n      0x20\n      add\n      add\n        /* \"temp.sol\":7140:7245  keysForC007_8[1] = \"supplementalScheduleOfNonCashOperatingActivities.details.cryptocurrenciesEndOfPeriod\" */\n      dup2\n      swap1\n      mstore\n      pop\n        /* \"temp.sol\":7255:7297  addAmountToCashFlow(keysForC007_8, C007_8) */\n      tag_450\n        /* \"temp.sol\":7275:7288  keysForC007_8 */\n      dup2\n        /* \"temp.sol\":7290:7296  C007_8 */\n      dup4\n        /* \"temp.sol\":7255:7274  addAmountToCashFlow */\n      tag_418\n        /* \"temp.sol\":7255:7297  addAmountToCashFlow(keysForC007_8, C007_8) */\n      jump\t// in\n    tag_450:\n        /* \"temp.sol\":7313:7378  NewTransaction(newTransaction.id, newTransaction.transactionType) */\n      0xa26bdd521074fe90072fbbad03f6cccbc67a863f014b3f6afa31efa7e026ee4a\n        /* \"temp.sol\":7328:7342  newTransaction */\n      dup10\n        /* \"temp.sol\":7328:7345  newTransaction.id */\n      0x00\n      add\n      mload\n        /* \"temp.sol\":7347:7361  newTransaction */\n      dup11\n        /* \"temp.sol\":7347:7377  newTransaction.transactionType */\n      0x20\n      add\n      mload\n        /* \"temp.sol\":7313:7378  NewTransaction(newTransaction.id, newTransaction.transactionType) */\n      mload(0x40)\n      tag_451\n      swap3\n      swap2\n      swap1\n      tag_452\n      jump\t// in\n    tag_451:\n      mload(0x40)\n      dup1\n      swap2\n      sub\n      swap1\n      log1\n        /* \"temp.sol\":5266:7386  {... */\n      pop\n      pop\n      pop\n      pop\n      pop\n      pop\n      pop\n      pop\n        /* \"temp.sol\":5193:7386  function recordTransactionCashFlow(Event memory newTransaction) internal {... */\n      pop\n      jump\t// out\n        /* \"temp.sol\":1421:1604  function addAmountToCashFlow(string[] memory keys, int256 value) internal {... */\n    tag_418:\n        /* \"temp.sol\":1510:1519  uint256 i */\n      0x00\n        /* \"temp.sol\":1505:1598  for (uint256 i = 0; i < keys.length; i++) {... */\n    tag_454:\n        /* \"temp.sol\":1529:1533  keys */\n      dup3\n        /* \"temp.sol\":1529:1540  keys.length */\n      mload\n        /* \"temp.sol\":1525:1526  i */\n      dup2\n        /* \"temp.sol\":1525:1540  i < keys.length */\n      lt\n        /* \"temp.sol\":1505:1598  for (uint256 i = 0; i < keys.length; i++) {... */\n      iszero\n      tag_455\n      jumpi\n        /* \"temp.sol\":1582:1587  value */\n      dup2\n        /* \"temp.sol\":1561:1569  cashFlow */\n      0x03\n        /* \"temp.sol\":1570:1574  keys */\n      dup5\n        /* \"temp.sol\":1575:1576  i */\n      dup4\n        /* \"temp.sol\":1570:1577  keys[i] */\n      dup2\n      mload\n      dup2\n      lt\n      tag_457\n      jumpi\n      tag_458\n      tag_77\n      jump\t// in\n    tag_458:\n    tag_457:\n      0x20\n      mul\n      0x20\n      add\n      add\n      mload\n        /* \"temp.sol\":1561:1578  cashFlow[keys[i]] */\n      mload(0x40)\n      tag_459\n      swap2\n      swap1\n      tag_82\n      jump\t// in\n    tag_459:\n      swap1\n      dup2\n      mstore\n      0x20\n      add\n      mload(0x40)\n      dup1\n      swap2\n      sub\n      swap1\n      keccak256\n      0x00\n        /* \"temp.sol\":1561:1587  cashFlow[keys[i]] += value */\n      dup3\n      dup3\n      sload\n      tag_460\n      swap2\n      swap1\n      tag_122\n      jump\t// in\n    tag_460:\n      swap3\n      pop\n      pop\n      dup2\n      swap1\n      sstore\n      pop\n        /* \"temp.sol\":1542:1545  i++ */\n      dup1\n      dup1\n      tag_461\n      swap1\n      tag_87\n      jump\t// in\n    tag_461:\n      swap2\n      pop\n      pop\n        /* \"temp.sol\":1505:1598  for (uint256 i = 0; i < keys.length; i++) {... */\n      jump(tag_454)\n    tag_455:\n      pop\n        /* \"temp.sol\":1421:1604  function addAmountToCashFlow(string[] memory keys, int256 value) internal {... */\n      pop\n      pop\n      jump\t// out\n    tag_200:\n      mload(0x40)\n      dup1\n      0xe0\n      add\n      0x40\n      mstore\n      dup1\n      0x60\n      dup2\n      mstore\n      0x20\n      add\n      0x60\n      dup2\n      mstore\n      0x20\n      add\n      0x00\n      dup2\n      mstore\n      0x20\n      add\n      0x00\n      dup2\n      mstore\n      0x20\n      add\n      0x00\n      dup2\n      mstore\n      0x20\n      add\n      0x00\n      dup2\n      mstore\n      0x20\n      add\n      0x00\n      dup2\n      mstore\n      pop\n      swap1\n      jump\t// out\n    tag_308:\n      mload(0x40)\n      dup1\n      0x01c0\n      add\n      0x40\n      mstore\n      dup1\n      0x0e\n      swap1\n    tag_462:\n      0x60\n      dup2\n      mstore\n      0x20\n      add\n      swap1\n      0x01\n      swap1\n      sub\n      swap1\n      dup2\n      tag_462\n      jumpi\n      swap1\n      pop\n      pop\n      swap1\n      jump\t// out\n    tag_310:\n      mload(0x40)\n      dup1\n      0x80\n      add\n      0x40\n      mstore\n      dup1\n      0x04\n      swap1\n    tag_463:\n      0x60\n      dup2\n      mstore\n      0x20\n      add\n      swap1\n      0x01\n      swap1\n      sub\n      swap1\n      dup2\n      tag_463\n      jumpi\n      swap1\n      pop\n      pop\n      swap1\n      jump\t// out\n    tag_312:\n      mload(0x40)\n      dup1\n      0x0100\n      add\n      0x40\n      mstore\n      dup1\n      0x08\n      swap1\n    tag_464:\n      0x60\n      dup2\n      mstore\n      0x20\n      add\n      swap1\n      0x01\n      swap1\n      sub\n      swap1\n      dup2\n      tag_464\n      jumpi\n      swap1\n      pop\n      pop\n      swap1\n      jump\t// out\n        /* \"#utility.yul\":7:82   */\n    tag_465:\n        /* \"#utility.yul\":40:46   */\n      0x00\n        /* \"#utility.yul\":73:75   */\n      0x40\n        /* \"#utility.yul\":67:76   */\n      mload\n        /* \"#utility.yul\":57:76   */\n      swap1\n      pop\n        /* \"#utility.yul\":7:82   */\n      swap1\n      jump\t// out\n        /* \"#utility.yul\":88:205   */\n    tag_466:\n        /* \"#utility.yul\":197:198   */\n      0x00\n        /* \"#utility.yul\":194:195   */\n      dup1\n        /* \"#utility.yul\":187:199   */\n      revert\n        /* \"#utility.yul\":211:328   */\n    tag_467:\n        /* \"#utility.yul\":320:321   */\n      0x00\n        /* \"#utility.yul\":317:318   */\n      dup1\n        /* \"#utility.yul\":310:322   */\n      revert\n        /* \"#utility.yul\":334:451   */\n    tag_468:\n        /* \"#utility.yul\":443:444   */\n      0x00\n        /* \"#utility.yul\":440:441   */\n      dup1\n        /* \"#utility.yul\":433:445   */\n      revert\n        /* \"#utility.yul\":457:574   */\n    tag_469:\n        /* \"#utility.yul\":566:567   */\n      0x00\n        /* \"#utility.yul\":563:564   */\n      dup1\n        /* \"#utility.yul\":556:568   */\n      revert\n        /* \"#utility.yul\":580:682   */\n    tag_470:\n        /* \"#utility.yul\":621:627   */\n      0x00\n        /* \"#utility.yul\":672:674   */\n      0x1f\n        /* \"#utility.yul\":668:675   */\n      not\n        /* \"#utility.yul\":663:665   */\n      0x1f\n        /* \"#utility.yul\":656:661   */\n      dup4\n        /* \"#utility.yul\":652:666   */\n      add\n        /* \"#utility.yul\":648:676   */\n      and\n        /* \"#utility.yul\":638:676   */\n      swap1\n      pop\n        /* \"#utility.yul\":580:682   */\n      swap2\n      swap1\n      pop\n      jump\t// out\n        /* \"#utility.yul\":688:868   */\n    tag_103:\n        /* \"#utility.yul\":736:813   */\n      0x4e487b7100000000000000000000000000000000000000000000000000000000\n        /* \"#utility.yul\":733:734   */\n      0x00\n        /* \"#utility.yul\":726:814   */\n      mstore\n        /* \"#utility.yul\":833:837   */\n      0x41\n        /* \"#utility.yul\":830:831   */\n      0x04\n        /* \"#utility.yul\":823:838   */\n      mstore\n        /* \"#utility.yul\":857:861   */\n      0x24\n        /* \"#utility.yul\":854:855   */\n      0x00\n        /* \"#utility.yul\":847:862   */\n      revert\n        /* \"#utility.yul\":874:1155   */\n    tag_471:\n        /* \"#utility.yul\":957:984   */\n      tag_582\n        /* \"#utility.yul\":979:983   */\n      dup3\n        /* \"#utility.yul\":957:984   */\n      tag_470\n      jump\t// in\n    tag_582:\n        /* \"#utility.yul\":949:955   */\n      dup2\n        /* \"#utility.yul\":945:985   */\n      add\n        /* \"#utility.yul\":1087:1093   */\n      dup2\n        /* \"#utility.yul\":1075:1085   */\n      dup2\n        /* \"#utility.yul\":1072:1094   */\n      lt\n        /* \"#utility.yul\":1051:1069   */\n      0xffffffffffffffff\n        /* \"#utility.yul\":1039:1049   */\n      dup3\n        /* \"#utility.yul\":1036:1070   */\n      gt\n        /* \"#utility.yul\":1033:1095   */\n      or\n        /* \"#utility.yul\":1030:1118   */\n      iszero\n      tag_583\n      jumpi\n        /* \"#utility.yul\":1098:1116   */\n      tag_584\n      tag_103\n      jump\t// in\n    tag_584:\n        /* \"#utility.yul\":1030:1118   */\n    tag_583:\n        /* \"#utility.yul\":1138:1148   */\n      dup1\n        /* \"#utility.yul\":1134:1136   */\n      0x40\n        /* \"#utility.yul\":1127:1149   */\n      mstore\n        /* \"#utility.yul\":917:1155   */\n      pop\n        /* \"#utility.yul\":874:1155   */\n      pop\n      pop\n      jump\t// out\n        /* \"#utility.yul\":1161:1290   */\n    tag_472:\n        /* \"#utility.yul\":1195:1201   */\n      0x00\n        /* \"#utility.yul\":1222:1242   */\n      tag_586\n      tag_465\n      jump\t// in\n    tag_586:\n        /* \"#utility.yul\":1212:1242   */\n      swap1\n      pop\n        /* \"#utility.yul\":1251:1284   */\n      tag_587\n        /* \"#utility.yul\":1279:1283   */\n      dup3\n        /* \"#utility.yul\":1271:1277   */\n      dup3\n        /* \"#utility.yul\":1251:1284   */\n      tag_471\n      jump\t// in\n    tag_587:\n        /* \"#utility.yul\":1161:1290   */\n      swap2\n      swap1\n      pop\n      jump\t// out\n        /* \"#utility.yul\":1296:1604   */\n    tag_473:\n        /* \"#utility.yul\":1358:1362   */\n      0x00\n        /* \"#utility.yul\":1448:1466   */\n      0xffffffffffffffff\n        /* \"#utility.yul\":1440:1446   */\n      dup3\n        /* \"#utility.yul\":1437:1467   */\n      gt\n        /* \"#utility.yul\":1434:1490   */\n      iszero\n      tag_589\n      jumpi\n        /* \"#utility.yul\":1470:1488   */\n      tag_590\n      tag_103\n      jump\t// in\n    tag_590:\n        /* \"#utility.yul\":1434:1490   */\n    tag_589:\n        /* \"#utility.yul\":1508:1537   */\n      tag_591\n        /* \"#utility.yul\":1530:1536   */\n      dup3\n        /* \"#utility.yul\":1508:1537   */\n      tag_470\n      jump\t// in\n    tag_591:\n        /* \"#utility.yul\":1500:1537   */\n      swap1\n      pop\n        /* \"#utility.yul\":1592:1596   */\n      0x20\n        /* \"#utility.yul\":1586:1590   */\n      dup2\n        /* \"#utility.yul\":1582:1597   */\n      add\n        /* \"#utility.yul\":1574:1597   */\n      swap1\n      pop\n        /* \"#utility.yul\":1296:1604   */\n      swap2\n      swap1\n      pop\n      jump\t// out\n        /* \"#utility.yul\":1610:1756   */\n    tag_474:\n        /* \"#utility.yul\":1707:1713   */\n      dup3\n        /* \"#utility.yul\":1702:1705   */\n      dup2\n        /* \"#utility.yul\":1697:1700   */\n      dup4\n        /* \"#utility.yul\":1684:1714   */\n      calldatacopy\n        /* \"#utility.yul\":1748:1749   */\n      0x00\n        /* \"#utility.yul\":1739:1745   */\n      dup4\n        /* \"#utility.yul\":1734:1737   */\n      dup4\n        /* \"#utility.yul\":1730:1746   */\n      add\n        /* \"#utility.yul\":1723:1750   */\n      mstore\n        /* \"#utility.yul\":1610:1756   */\n      pop\n      pop\n      pop\n      jump\t// out\n        /* \"#utility.yul\":1762:2187   */\n    tag_475:\n        /* \"#utility.yul\":1840:1845   */\n      0x00\n        /* \"#utility.yul\":1865:1931   */\n      tag_594\n        /* \"#utility.yul\":1881:1930   */\n      tag_595\n        /* \"#utility.yul\":1923:1929   */\n      dup5\n        /* \"#utility.yul\":1881:1930   */\n      tag_473\n      jump\t// in\n    tag_595:\n        /* \"#utility.yul\":1865:1931   */\n      tag_472\n      jump\t// in\n    tag_594:\n        /* \"#utility.yul\":1856:1931   */\n      swap1\n      pop\n        /* \"#utility.yul\":1954:1960   */\n      dup3\n        /* \"#utility.yul\":1947:1952   */\n      dup2\n        /* \"#utility.yul\":1940:1961   */\n      mstore\n        /* \"#utility.yul\":1992:1996   */\n      0x20\n        /* \"#utility.yul\":1985:1990   */\n      dup2\n        /* \"#utility.yul\":1981:1997   */\n      add\n        /* \"#utility.yul\":2030:2033   */\n      dup5\n        /* \"#utility.yul\":2021:2027   */\n      dup5\n        /* \"#utility.yul\":2016:2019   */\n      dup5\n        /* \"#utility.yul\":2012:2028   */\n      add\n        /* \"#utility.yul\":2009:2034   */\n      gt\n        /* \"#utility.yul\":2006:2118   */\n      iszero\n      tag_596\n      jumpi\n        /* \"#utility.yul\":2037:2116   */\n      tag_597\n      tag_469\n      jump\t// in\n    tag_597:\n        /* \"#utility.yul\":2006:2118   */\n    tag_596:\n        /* \"#utility.yul\":2127:2181   */\n      tag_598\n        /* \"#utility.yul\":2174:2180   */\n      dup5\n        /* \"#utility.yul\":2169:2172   */\n      dup3\n        /* \"#utility.yul\":2164:2167   */\n      dup6\n        /* \"#utility.yul\":2127:2181   */\n      tag_474\n      jump\t// in\n    tag_598:\n        /* \"#utility.yul\":1846:2187   */\n      pop\n        /* \"#utility.yul\":1762:2187   */\n      swap4\n      swap3\n      pop\n      pop\n      pop\n      jump\t// out\n        /* \"#utility.yul\":2207:2547   */\n    tag_476:\n        /* \"#utility.yul\":2263:2268   */\n      0x00\n        /* \"#utility.yul\":2312:2315   */\n      dup3\n        /* \"#utility.yul\":2305:2309   */\n      0x1f\n        /* \"#utility.yul\":2297:2303   */\n      dup4\n        /* \"#utility.yul\":2293:2310   */\n      add\n        /* \"#utility.yul\":2289:2316   */\n      slt\n        /* \"#utility.yul\":2279:2401   */\n      tag_600\n      jumpi\n        /* \"#utility.yul\":2320:2399   */\n      tag_601\n      tag_468\n      jump\t// in\n    tag_601:\n        /* \"#utility.yul\":2279:2401   */\n    tag_600:\n        /* \"#utility.yul\":2437:2443   */\n      dup2\n        /* \"#utility.yul\":2424:2444   */\n      calldataload\n        /* \"#utility.yul\":2462:2541   */\n      tag_602\n        /* \"#utility.yul\":2537:2540   */\n      dup5\n        /* \"#utility.yul\":2529:2535   */\n      dup3\n        /* \"#utility.yul\":2522:2526   */\n      0x20\n        /* \"#utility.yul\":2514:2520   */\n      dup7\n        /* \"#utility.yul\":2510:2527   */\n      add\n        /* \"#utility.yul\":2462:2541   */\n      tag_475\n      jump\t// in\n    tag_602:\n        /* \"#utility.yul\":2453:2541   */\n      swap2\n      pop\n        /* \"#utility.yul\":2269:2547   */\n      pop\n        /* \"#utility.yul\":2207:2547   */\n      swap3\n      swap2\n      pop\n      pop\n      jump\t// out\n        /* \"#utility.yul\":2553:2630   */\n    tag_477:\n        /* \"#utility.yul\":2590:2597   */\n      0x00\n        /* \"#utility.yul\":2619:2624   */\n      dup2\n        /* \"#utility.yul\":2608:2624   */\n      swap1\n      pop\n        /* \"#utility.yul\":2553:2630   */\n      swap2\n      swap1\n      pop\n      jump\t// out\n        /* \"#utility.yul\":2636:2758   */\n    tag_478:\n        /* \"#utility.yul\":2709:2733   */\n      tag_605\n        /* \"#utility.yul\":2727:2732   */\n      dup2\n        /* \"#utility.yul\":2709:2733   */\n      tag_477\n      jump\t// in\n    tag_605:\n        /* \"#utility.yul\":2702:2707   */\n      dup2\n        /* \"#utility.yul\":2699:2734   */\n      eq\n        /* \"#utility.yul\":2689:2752   */\n      tag_606\n      jumpi\n        /* \"#utility.yul\":2748:2749   */\n      0x00\n        /* \"#utility.yul\":2745:2746   */\n      dup1\n        /* \"#utility.yul\":2738:2750   */\n      revert\n        /* \"#utility.yul\":2689:2752   */\n    tag_606:\n        /* \"#utility.yul\":2636:2758   */\n      pop\n      jump\t// out\n        /* \"#utility.yul\":2764:2903   */\n    tag_479:\n        /* \"#utility.yul\":2810:2815   */\n      0x00\n        /* \"#utility.yul\":2848:2854   */\n      dup2\n        /* \"#utility.yul\":2835:2855   */\n      calldataload\n        /* \"#utility.yul\":2826:2855   */\n      swap1\n      pop\n        /* \"#utility.yul\":2864:2897   */\n      tag_608\n        /* \"#utility.yul\":2891:2896   */\n      dup2\n        /* \"#utility.yul\":2864:2897   */\n      tag_478\n      jump\t// in\n    tag_608:\n        /* \"#utility.yul\":2764:2903   */\n      swap3\n      swap2\n      pop\n      pop\n      jump\t// out\n        /* \"#utility.yul\":2909:4326   */\n    tag_18:\n        /* \"#utility.yul\":3033:3039   */\n      0x00\n        /* \"#utility.yul\":3041:3047   */\n      dup1\n        /* \"#utility.yul\":3049:3055   */\n      0x00\n        /* \"#utility.yul\":3057:3063   */\n      dup1\n        /* \"#utility.yul\":3065:3071   */\n      0x00\n        /* \"#utility.yul\":3073:3079   */\n      dup1\n        /* \"#utility.yul\":3122:3125   */\n      0xc0\n        /* \"#utility.yul\":3110:3119   */\n      dup8\n        /* \"#utility.yul\":3101:3108   */\n      dup10\n        /* \"#utility.yul\":3097:3120   */\n      sub\n        /* \"#utility.yul\":3093:3126   */\n      slt\n        /* \"#utility.yul\":3090:3210   */\n      iszero\n      tag_610\n      jumpi\n        /* \"#utility.yul\":3129:3208   */\n      tag_611\n      tag_466\n      jump\t// in\n    tag_611:\n        /* \"#utility.yul\":3090:3210   */\n    tag_610:\n        /* \"#utility.yul\":3277:3278   */\n      0x00\n        /* \"#utility.yul\":3266:3275   */\n      dup8\n        /* \"#utility.yul\":3262:3279   */\n      add\n        /* \"#utility.yul\":3249:3280   */\n      calldataload\n        /* \"#utility.yul\":3307:3325   */\n      0xffffffffffffffff\n        /* \"#utility.yul\":3299:3305   */\n      dup2\n        /* \"#utility.yul\":3296:3326   */\n      gt\n        /* \"#utility.yul\":3293:3410   */\n      iszero\n      tag_612\n      jumpi\n        /* \"#utility.yul\":3329:3408   */\n      tag_613\n      tag_467\n      jump\t// in\n    tag_613:\n        /* \"#utility.yul\":3293:3410   */\n    tag_612:\n        /* \"#utility.yul\":3434:3497   */\n      tag_614\n        /* \"#utility.yul\":3489:3496   */\n      dup10\n        /* \"#utility.yul\":3480:3486   */\n      dup3\n        /* \"#utility.yul\":3469:3478   */\n      dup11\n        /* \"#utility.yul\":3465:3487   */\n      add\n        /* \"#utility.yul\":3434:3497   */\n      tag_476\n      jump\t// in\n    tag_614:\n        /* \"#utility.yul\":3424:3497   */\n      swap7\n      pop\n        /* \"#utility.yul\":3220:3507   */\n      pop\n        /* \"#utility.yul\":3574:3576   */\n      0x20\n        /* \"#utility.yul\":3563:3572   */\n      dup8\n        /* \"#utility.yul\":3559:3577   */\n      add\n        /* \"#utility.yul\":3546:3578   */\n      calldataload\n        /* \"#utility.yul\":3605:3623   */\n      0xffffffffffffffff\n        /* \"#utility.yul\":3597:3603   */\n      dup2\n        /* \"#utility.yul\":3594:3624   */\n      gt\n        /* \"#utility.yul\":3591:3708   */\n      iszero\n      tag_615\n      jumpi\n        /* \"#utility.yul\":3627:3706   */\n      tag_616\n      tag_467\n      jump\t// in\n    tag_616:\n        /* \"#utility.yul\":3591:3708   */\n    tag_615:\n        /* \"#utility.yul\":3732:3795   */\n      tag_617\n        /* \"#utility.yul\":3787:3794   */\n      dup10\n        /* \"#utility.yul\":3778:3784   */\n      dup3\n        /* \"#utility.yul\":3767:3776   */\n      dup11\n        /* \"#utility.yul\":3763:3785   */\n      add\n        /* \"#utility.yul\":3732:3795   */\n      tag_476\n      jump\t// in\n    tag_617:\n        /* \"#utility.yul\":3722:3795   */\n      swap6\n      pop\n        /* \"#utility.yul\":3517:3805   */\n      pop\n        /* \"#utility.yul\":3844:3846   */\n      0x40\n        /* \"#utility.yul\":3870:3923   */\n      tag_618\n        /* \"#utility.yul\":3915:3922   */\n      dup10\n        /* \"#utility.yul\":3906:3912   */\n      dup3\n        /* \"#utility.yul\":3895:3904   */\n      dup11\n        /* \"#utility.yul\":3891:3913   */\n      add\n        /* \"#utility.yul\":3870:3923   */\n      tag_479\n      jump\t// in\n    tag_618:\n        /* \"#utility.yul\":3860:3923   */\n      swap5\n      pop\n        /* \"#utility.yul\":3815:3933   */\n      pop\n        /* \"#utility.yul\":3972:3974   */\n      0x60\n        /* \"#utility.yul\":3998:4051   */\n      tag_619\n        /* \"#utility.yul\":4043:4050   */\n      dup10\n        /* \"#utility.yul\":4034:4040   */\n      dup3\n        /* \"#utility.yul\":4023:4032   */\n      dup11\n        /* \"#utility.yul\":4019:4041   */\n      add\n        /* \"#utility.yul\":3998:4051   */\n      tag_479\n      jump\t// in\n    tag_619:\n        /* \"#utility.yul\":3988:4051   */\n      swap4\n      pop\n        /* \"#utility.yul\":3943:4061   */\n      pop\n        /* \"#utility.yul\":4100:4103   */\n      0x80\n        /* \"#utility.yul\":4127:4180   */\n      tag_620\n        /* \"#utility.yul\":4172:4179   */\n      dup10\n        /* \"#utility.yul\":4163:4169   */\n      dup3\n        /* \"#utility.yul\":4152:4161   */\n      dup11\n        /* \"#utility.yul\":4148:4170   */\n      add\n        /* \"#utility.yul\":4127:4180   */\n      tag_479\n      jump\t// in\n    tag_620:\n        /* \"#utility.yul\":4117:4180   */\n      swap3\n      pop\n        /* \"#utility.yul\":4071:4190   */\n      pop\n        /* \"#utility.yul\":4229:4232   */\n      0xa0\n        /* \"#utility.yul\":4256:4309   */\n      tag_621\n        /* \"#utility.yul\":4301:4308   */\n      dup10\n        /* \"#utility.yul\":4292:4298   */\n      dup3\n        /* \"#utility.yul\":4281:4290   */\n      dup11\n        /* \"#utility.yul\":4277:4299   */\n      add\n        /* \"#utility.yul\":4256:4309   */\n      tag_479\n      jump\t// in\n    tag_621:\n        /* \"#utility.yul\":4246:4309   */\n      swap2\n      pop\n        /* \"#utility.yul\":4200:4319   */\n      pop\n        /* \"#utility.yul\":2909:4326   */\n      swap3\n      swap6\n      pop\n      swap3\n      swap6\n      pop\n      swap3\n      swap6\n      jump\t// out\n        /* \"#utility.yul\":4332:4841   */\n    tag_22:\n        /* \"#utility.yul\":4401:4407   */\n      0x00\n        /* \"#utility.yul\":4450:4452   */\n      0x20\n        /* \"#utility.yul\":4438:4447   */\n      dup3\n        /* \"#utility.yul\":4429:4436   */\n      dup5\n        /* \"#utility.yul\":4425:4448   */\n      sub\n        /* \"#utility.yul\":4421:4453   */\n      slt\n        /* \"#utility.yul\":4418:4537   */\n      iszero\n      tag_623\n      jumpi\n        /* \"#utility.yul\":4456:4535   */\n      tag_624\n      tag_466\n      jump\t// in\n    tag_624:\n        /* \"#utility.yul\":4418:4537   */\n    tag_623:\n        /* \"#utility.yul\":4604:4605   */\n      0x00\n        /* \"#utility.yul\":4593:4602   */\n      dup3\n        /* \"#utility.yul\":4589:4606   */\n      add\n        /* \"#utility.yul\":4576:4607   */\n      calldataload\n        /* \"#utility.yul\":4634:4652   */\n      0xffffffffffffffff\n        /* \"#utility.yul\":4626:4632   */\n      dup2\n        /* \"#utility.yul\":4623:4653   */\n      gt\n        /* \"#utility.yul\":4620:4737   */\n      iszero\n      tag_625\n      jumpi\n        /* \"#utility.yul\":4656:4735   */\n      tag_626\n      tag_467\n      jump\t// in\n    tag_626:\n        /* \"#utility.yul\":4620:4737   */\n    tag_625:\n        /* \"#utility.yul\":4761:4824   */\n      tag_627\n        /* \"#utility.yul\":4816:4823   */\n      dup5\n        /* \"#utility.yul\":4807:4813   */\n      dup3\n        /* \"#utility.yul\":4796:4805   */\n      dup6\n        /* \"#utility.yul\":4792:4814   */\n      add\n        /* \"#utility.yul\":4761:4824   */\n      tag_476\n      jump\t// in\n    tag_627:\n        /* \"#utility.yul\":4751:4824   */\n      swap2\n      pop\n        /* \"#utility.yul\":4547:4834   */\n      pop\n        /* \"#utility.yul\":4332:4841   */\n      swap3\n      swap2\n      pop\n      pop\n      jump\t// out\n        /* \"#utility.yul\":4847:4923   */\n    tag_480:\n        /* \"#utility.yul\":4883:4890   */\n      0x00\n        /* \"#utility.yul\":4912:4917   */\n      dup2\n        /* \"#utility.yul\":4901:4917   */\n      swap1\n      pop\n        /* \"#utility.yul\":4847:4923   */\n      swap2\n      swap1\n      pop\n      jump\t// out\n        /* \"#utility.yul\":4929:5044   */\n    tag_481:\n        /* \"#utility.yul\":5014:5037   */\n      tag_630\n        /* \"#utility.yul\":5031:5036   */\n      dup2\n        /* \"#utility.yul\":5014:5037   */\n      tag_480\n      jump\t// in\n    tag_630:\n        /* \"#utility.yul\":5009:5012   */\n      dup3\n        /* \"#utility.yul\":5002:5038   */\n      mstore\n        /* \"#utility.yul\":4929:5044   */\n      pop\n      pop\n      jump\t// out\n        /* \"#utility.yul\":5050:5268   */\n    tag_25:\n        /* \"#utility.yul\":5141:5145   */\n      0x00\n        /* \"#utility.yul\":5179:5181   */\n      0x20\n        /* \"#utility.yul\":5168:5177   */\n      dup3\n        /* \"#utility.yul\":5164:5182   */\n      add\n        /* \"#utility.yul\":5156:5182   */\n      swap1\n      pop\n        /* \"#utility.yul\":5192:5261   */\n      tag_632\n        /* \"#utility.yul\":5258:5259   */\n      0x00\n        /* \"#utility.yul\":5247:5256   */\n      dup4\n        /* \"#utility.yul\":5243:5260   */\n      add\n        /* \"#utility.yul\":5234:5240   */\n      dup5\n        /* \"#utility.yul\":5192:5261   */\n      tag_481\n      jump\t// in\n    tag_632:\n        /* \"#utility.yul\":5050:5268   */\n      swap3\n      swap2\n      pop\n      pop\n      jump\t// out\n        /* \"#utility.yul\":5274:5392   */\n    tag_482:\n        /* \"#utility.yul\":5361:5385   */\n      tag_634\n        /* \"#utility.yul\":5379:5384   */\n      dup2\n        /* \"#utility.yul\":5361:5385   */\n      tag_477\n      jump\t// in\n    tag_634:\n        /* \"#utility.yul\":5356:5359   */\n      dup3\n        /* \"#utility.yul\":5349:5386   */\n      mstore\n        /* \"#utility.yul\":5274:5392   */\n      pop\n      pop\n      jump\t// out\n        /* \"#utility.yul\":5398:5620   */\n    tag_33:\n        /* \"#utility.yul\":5491:5495   */\n      0x00\n        /* \"#utility.yul\":5529:5531   */\n      0x20\n        /* \"#utility.yul\":5518:5527   */\n      dup3\n        /* \"#utility.yul\":5514:5532   */\n      add\n        /* \"#utility.yul\":5506:5532   */\n      swap1\n      pop\n        /* \"#utility.yul\":5542:5613   */\n      tag_636\n        /* \"#utility.yul\":5610:5611   */\n      0x00\n        /* \"#utility.yul\":5599:5608   */\n      dup4\n        /* \"#utility.yul\":5595:5612   */\n      add\n        /* \"#utility.yul\":5586:5592   */\n      dup5\n        /* \"#utility.yul\":5542:5613   */\n      tag_482\n      jump\t// in\n    tag_636:\n        /* \"#utility.yul\":5398:5620   */\n      swap3\n      swap2\n      pop\n      pop\n      jump\t// out\n        /* \"#utility.yul\":5626:6100   */\n    tag_36:\n        /* \"#utility.yul\":5694:5700   */\n      0x00\n        /* \"#utility.yul\":5702:5708   */\n      dup1\n        /* \"#utility.yul\":5751:5753   */\n      0x40\n        /* \"#utility.yul\":5739:5748   */\n      dup4\n        /* \"#utility.yul\":5730:5737   */\n      dup6\n        /* \"#utility.yul\":5726:5749   */\n      sub\n        /* \"#utility.yul\":5722:5754   */\n      slt\n        /* \"#utility.yul\":5719:5838   */\n      iszero\n      tag_638\n      jumpi\n        /* \"#utility.yul\":5757:5836   */\n      tag_639\n      tag_466\n      jump\t// in\n    tag_639:\n        /* \"#utility.yul\":5719:5838   */\n    tag_638:\n        /* \"#utility.yul\":5877:5878   */\n      0x00\n        /* \"#utility.yul\":5902:5955   */\n      tag_640\n        /* \"#utility.yul\":5947:5954   */\n      dup6\n        /* \"#utility.yul\":5938:5944   */\n      dup3\n        /* \"#utility.yul\":5927:5936   */\n      dup7\n        /* \"#utility.yul\":5923:5945   */\n      add\n        /* \"#utility.yul\":5902:5955   */\n      tag_479\n      jump\t// in\n    tag_640:\n        /* \"#utility.yul\":5892:5955   */\n      swap3\n      pop\n        /* \"#utility.yul\":5848:5965   */\n      pop\n        /* \"#utility.yul\":6004:6006   */\n      0x20\n        /* \"#utility.yul\":6030:6083   */\n      tag_641\n        /* \"#utility.yul\":6075:6082   */\n      dup6\n        /* \"#utility.yul\":6066:6072   */\n      dup3\n        /* \"#utility.yul\":6055:6064   */\n      dup7\n        /* \"#utility.yul\":6051:6073   */\n      add\n        /* \"#utility.yul\":6030:6083   */\n      tag_479\n      jump\t// in\n    tag_641:\n        /* \"#utility.yul\":6020:6083   */\n      swap2\n      pop\n        /* \"#utility.yul\":5975:6093   */\n      pop\n        /* \"#utility.yul\":5626:6100   */\n      swap3\n      pop\n      swap3\n      swap1\n      pop\n      jump\t// out\n        /* \"#utility.yul\":6106:6241   */\n    tag_483:\n        /* \"#utility.yul\":6194:6200   */\n      0x00\n        /* \"#utility.yul\":6228:6233   */\n      dup2\n        /* \"#utility.yul\":6222:6234   */\n      mload\n        /* \"#utility.yul\":6212:6234   */\n      swap1\n      pop\n        /* \"#utility.yul\":6106:6241   */\n      swap2\n      swap1\n      pop\n      jump\t// out\n        /* \"#utility.yul\":6247:6452   */\n    tag_484:\n        /* \"#utility.yul\":6367:6378   */\n      0x00\n        /* \"#utility.yul\":6401:6407   */\n      dup3\n        /* \"#utility.yul\":6396:6399   */\n      dup3\n        /* \"#utility.yul\":6389:6408   */\n      mstore\n        /* \"#utility.yul\":6441:6445   */\n      0x20\n        /* \"#utility.yul\":6436:6439   */\n      dup3\n        /* \"#utility.yul\":6432:6446   */\n      add\n        /* \"#utility.yul\":6417:6446   */\n      swap1\n      pop\n        /* \"#utility.yul\":6247:6452   */\n      swap3\n      swap2\n      pop\n      pop\n      jump\t// out\n        /* \"#utility.yul\":6458:6611   */\n    tag_485:\n        /* \"#utility.yul\":6546:6550   */\n      0x00\n        /* \"#utility.yul\":6569:6572   */\n      dup2\n        /* \"#utility.yul\":6561:6572   */\n      swap1\n      pop\n        /* \"#utility.yul\":6599:6603   */\n      0x20\n        /* \"#utility.yul\":6594:6597   */\n      dup3\n        /* \"#utility.yul\":6590:6604   */\n      add\n        /* \"#utility.yul\":6582:6604   */\n      swap1\n      pop\n        /* \"#utility.yul\":6458:6611   */\n      swap2\n      swap1\n      pop\n      jump\t// out\n        /* \"#utility.yul\":6617:6716   */\n    tag_486:\n        /* \"#utility.yul\":6669:6675   */\n      0x00\n        /* \"#utility.yul\":6703:6708   */\n      dup2\n        /* \"#utility.yul\":6697:6709   */\n      mload\n        /* \"#utility.yul\":6687:6709   */\n      swap1\n      pop\n        /* \"#utility.yul\":6617:6716   */\n      swap2\n      swap1\n      pop\n      jump\t// out\n        /* \"#utility.yul\":6722:6881   */\n    tag_487:\n        /* \"#utility.yul\":6796:6807   */\n      0x00\n        /* \"#utility.yul\":6830:6836   */\n      dup3\n        /* \"#utility.yul\":6825:6828   */\n      dup3\n        /* \"#utility.yul\":6818:6837   */\n      mstore\n        /* \"#utility.yul\":6870:6874   */\n      0x20\n        /* \"#utility.yul\":6865:6868   */\n      dup3\n        /* \"#utility.yul\":6861:6875   */\n      add\n        /* \"#utility.yul\":6846:6875   */\n      swap1\n      pop\n        /* \"#utility.yul\":6722:6881   */\n      swap3\n      swap2\n      pop\n      pop\n      jump\t// out\n        /* \"#utility.yul\":6887:7133   */\n    tag_488:\n        /* \"#utility.yul\":6968:6969   */\n      0x00\n        /* \"#utility.yul\":6978:7091   */\n    tag_648:\n        /* \"#utility.yul\":6992:6998   */\n      dup4\n        /* \"#utility.yul\":6989:6990   */\n      dup2\n        /* \"#utility.yul\":6986:6999   */\n      lt\n        /* \"#utility.yul\":6978:7091   */\n      iszero\n      tag_650\n      jumpi\n        /* \"#utility.yul\":7077:7078   */\n      dup1\n        /* \"#utility.yul\":7072:7075   */\n      dup3\n        /* \"#utility.yul\":7068:7079   */\n      add\n        /* \"#utility.yul\":7062:7080   */\n      mload\n        /* \"#utility.yul\":7058:7059   */\n      dup2\n        /* \"#utility.yul\":7053:7056   */\n      dup5\n        /* \"#utility.yul\":7049:7060   */\n      add\n        /* \"#utility.yul\":7042:7081   */\n      mstore\n        /* \"#utility.yul\":7014:7016   */\n      0x20\n        /* \"#utility.yul\":7011:7012   */\n      dup2\n        /* \"#utility.yul\":7007:7017   */\n      add\n        /* \"#utility.yul\":7002:7017   */\n      swap1\n      pop\n        /* \"#utility.yul\":6978:7091   */\n      jump(tag_648)\n    tag_650:\n        /* \"#utility.yul\":7125:7126   */\n      0x00\n        /* \"#utility.yul\":7116:7122   */\n      dup5\n        /* \"#utility.yul\":7111:7114   */\n      dup5\n        /* \"#utility.yul\":7107:7123   */\n      add\n        /* \"#utility.yul\":7100:7127   */\n      mstore\n        /* \"#utility.yul\":6949:7133   */\n      pop\n        /* \"#utility.yul\":6887:7133   */\n      pop\n      pop\n      pop\n      jump\t// out\n        /* \"#utility.yul\":7139:7496   */\n    tag_489:\n        /* \"#utility.yul\":7217:7220   */\n      0x00\n        /* \"#utility.yul\":7245:7284   */\n      tag_652\n        /* \"#utility.yul\":7278:7283   */\n      dup3\n        /* \"#utility.yul\":7245:7284   */\n      tag_486\n      jump\t// in\n    tag_652:\n        /* \"#utility.yul\":7300:7361   */\n      tag_653\n        /* \"#utility.yul\":7354:7360   */\n      dup2\n        /* \"#utility.yul\":7349:7352   */\n      dup6\n        /* \"#utility.yul\":7300:7361   */\n      tag_487\n      jump\t// in\n    tag_653:\n        /* \"#utility.yul\":7293:7361   */\n      swap4\n      pop\n        /* \"#utility.yul\":7370:7435   */\n      tag_654\n        /* \"#utility.yul\":7428:7434   */\n      dup2\n        /* \"#utility.yul\":7423:7426   */\n      dup6\n        /* \"#utility.yul\":7416:7420   */\n      0x20\n        /* \"#utility.yul\":7409:7414   */\n      dup7\n        /* \"#utility.yul\":7405:7421   */\n      add\n        /* \"#utility.yul\":7370:7435   */\n      tag_488\n      jump\t// in\n    tag_654:\n        /* \"#utility.yul\":7460:7489   */\n      tag_655\n        /* \"#utility.yul\":7482:7488   */\n      dup2\n        /* \"#utility.yul\":7460:7489   */\n      tag_470\n      jump\t// in\n    tag_655:\n        /* \"#utility.yul\":7455:7458   */\n      dup5\n        /* \"#utility.yul\":7451:7490   */\n      add\n        /* \"#utility.yul\":7444:7490   */\n      swap2\n      pop\n        /* \"#utility.yul\":7221:7496   */\n      pop\n        /* \"#utility.yul\":7139:7496   */\n      swap3\n      swap2\n      pop\n      pop\n      jump\t// out\n        /* \"#utility.yul\":7502:7610   */\n    tag_490:\n        /* \"#utility.yul\":7579:7603   */\n      tag_657\n        /* \"#utility.yul\":7597:7602   */\n      dup2\n        /* \"#utility.yul\":7579:7603   */\n      tag_477\n      jump\t// in\n    tag_657:\n        /* \"#utility.yul\":7574:7577   */\n      dup3\n        /* \"#utility.yul\":7567:7604   */\n      mstore\n        /* \"#utility.yul\":7502:7610   */\n      pop\n      pop\n      jump\t// out\n        /* \"#utility.yul\":7672:9240   */\n    tag_491:\n        /* \"#utility.yul\":7773:7776   */\n      0x00\n        /* \"#utility.yul\":7809:7813   */\n      0xe0\n        /* \"#utility.yul\":7804:7807   */\n      dup4\n        /* \"#utility.yul\":7800:7814   */\n      add\n        /* \"#utility.yul\":7894:7898   */\n      0x00\n        /* \"#utility.yul\":7887:7892   */\n      dup4\n        /* \"#utility.yul\":7883:7899   */\n      add\n        /* \"#utility.yul\":7877:7900   */\n      mload\n        /* \"#utility.yul\":7947:7950   */\n      dup5\n        /* \"#utility.yul\":7941:7945   */\n      dup3\n        /* \"#utility.yul\":7937:7951   */\n      sub\n        /* \"#utility.yul\":7930:7934   */\n      0x00\n        /* \"#utility.yul\":7925:7928   */\n      dup7\n        /* \"#utility.yul\":7921:7935   */\n      add\n        /* \"#utility.yul\":7914:7952   */\n      mstore\n        /* \"#utility.yul\":7973:8046   */\n      tag_659\n        /* \"#utility.yul\":8041:8045   */\n      dup3\n        /* \"#utility.yul\":8027:8039   */\n      dup3\n        /* \"#utility.yul\":7973:8046   */\n      tag_489\n      jump\t// in\n    tag_659:\n        /* \"#utility.yul\":7965:8046   */\n      swap2\n      pop\n        /* \"#utility.yul\":7824:8057   */\n      pop\n        /* \"#utility.yul\":8150:8154   */\n      0x20\n        /* \"#utility.yul\":8143:8148   */\n      dup4\n        /* \"#utility.yul\":8139:8155   */\n      add\n        /* \"#utility.yul\":8133:8156   */\n      mload\n        /* \"#utility.yul\":8203:8206   */\n      dup5\n        /* \"#utility.yul\":8197:8201   */\n      dup3\n        /* \"#utility.yul\":8193:8207   */\n      sub\n        /* \"#utility.yul\":8186:8190   */\n      0x20\n        /* \"#utility.yul\":8181:8184   */\n      dup7\n        /* \"#utility.yul\":8177:8191   */\n      add\n        /* \"#utility.yul\":8170:8208   */\n      mstore\n        /* \"#utility.yul\":8229:8302   */\n      tag_660\n        /* \"#utility.yul\":8297:8301   */\n      dup3\n        /* \"#utility.yul\":8283:8295   */\n      dup3\n        /* \"#utility.yul\":8229:8302   */\n      tag_489\n      jump\t// in\n    tag_660:\n        /* \"#utility.yul\":8221:8302   */\n      swap2\n      pop\n        /* \"#utility.yul\":8067:8313   */\n      pop\n        /* \"#utility.yul\":8397:8401   */\n      0x40\n        /* \"#utility.yul\":8390:8395   */\n      dup4\n        /* \"#utility.yul\":8386:8402   */\n      add\n        /* \"#utility.yul\":8380:8403   */\n      mload\n        /* \"#utility.yul\":8416:8479   */\n      tag_661\n        /* \"#utility.yul\":8473:8477   */\n      0x40\n        /* \"#utility.yul\":8468:8471   */\n      dup7\n        /* \"#utility.yul\":8464:8478   */\n      add\n        /* \"#utility.yul\":8450:8462   */\n      dup3\n        /* \"#utility.yul\":8416:8479   */\n      tag_490\n      jump\t// in\n    tag_661:\n        /* \"#utility.yul\":8323:8489   */\n      pop\n        /* \"#utility.yul\":8578:8582   */\n      0x60\n        /* \"#utility.yul\":8571:8576   */\n      dup4\n        /* \"#utility.yul\":8567:8583   */\n      add\n        /* \"#utility.yul\":8561:8584   */\n      mload\n        /* \"#utility.yul\":8597:8660   */\n      tag_662\n        /* \"#utility.yul\":8654:8658   */\n      0x60\n        /* \"#utility.yul\":8649:8652   */\n      dup7\n        /* \"#utility.yul\":8645:8659   */\n      add\n        /* \"#utility.yul\":8631:8643   */\n      dup3\n        /* \"#utility.yul\":8597:8660   */\n      tag_490\n      jump\t// in\n    tag_662:\n        /* \"#utility.yul\":8499:8670   */\n      pop\n        /* \"#utility.yul\":8759:8763   */\n      0x80\n        /* \"#utility.yul\":8752:8757   */\n      dup4\n        /* \"#utility.yul\":8748:8764   */\n      add\n        /* \"#utility.yul\":8742:8765   */\n      mload\n        /* \"#utility.yul\":8778:8841   */\n      tag_663\n        /* \"#utility.yul\":8835:8839   */\n      0x80\n        /* \"#utility.yul\":8830:8833   */\n      dup7\n        /* \"#utility.yul\":8826:8840   */\n      add\n        /* \"#utility.yul\":8812:8824   */\n      dup3\n        /* \"#utility.yul\":8778:8841   */\n      tag_490\n      jump\t// in\n    tag_663:\n        /* \"#utility.yul\":8680:8851   */\n      pop\n        /* \"#utility.yul\":8938:8942   */\n      0xa0\n        /* \"#utility.yul\":8931:8936   */\n      dup4\n        /* \"#utility.yul\":8927:8943   */\n      add\n        /* \"#utility.yul\":8921:8944   */\n      mload\n        /* \"#utility.yul\":8957:9020   */\n      tag_664\n        /* \"#utility.yul\":9014:9018   */\n      0xa0\n        /* \"#utility.yul\":9009:9012   */\n      dup7\n        /* \"#utility.yul\":9005:9019   */\n      add\n        /* \"#utility.yul\":8991:9003   */\n      dup3\n        /* \"#utility.yul\":8957:9020   */\n      tag_490\n      jump\t// in\n    tag_664:\n        /* \"#utility.yul\":8861:9030   */\n      pop\n        /* \"#utility.yul\":9121:9125   */\n      0xc0\n        /* \"#utility.yul\":9114:9119   */\n      dup4\n        /* \"#utility.yul\":9110:9126   */\n      add\n        /* \"#utility.yul\":9104:9127   */\n      mload\n        /* \"#utility.yul\":9140:9203   */\n      tag_665\n        /* \"#utility.yul\":9197:9201   */\n      0xc0\n        /* \"#utility.yul\":9192:9195   */\n      dup7\n        /* \"#utility.yul\":9188:9202   */\n      add\n        /* \"#utility.yul\":9174:9186   */\n      dup3\n        /* \"#utility.yul\":9140:9203   */\n      tag_490\n      jump\t// in\n    tag_665:\n        /* \"#utility.yul\":9040:9213   */\n      pop\n        /* \"#utility.yul\":9230:9234   */\n      dup1\n        /* \"#utility.yul\":9223:9234   */\n      swap2\n      pop\n        /* \"#utility.yul\":7778:9240   */\n      pop\n        /* \"#utility.yul\":7672:9240   */\n      swap3\n      swap2\n      pop\n      pop\n      jump\t// out\n        /* \"#utility.yul\":9246:9486   */\n    tag_492:\n        /* \"#utility.yul\":9357:9367   */\n      0x00\n        /* \"#utility.yul\":9392:9480   */\n      tag_667\n        /* \"#utility.yul\":9476:9479   */\n      dup4\n        /* \"#utility.yul\":9468:9474   */\n      dup4\n        /* \"#utility.yul\":9392:9480   */\n      tag_491\n      jump\t// in\n    tag_667:\n        /* \"#utility.yul\":9378:9480   */\n      swap1\n      pop\n        /* \"#utility.yul\":9246:9486   */\n      swap3\n      swap2\n      pop\n      pop\n      jump\t// out\n        /* \"#utility.yul\":9492:9626   */\n    tag_493:\n        /* \"#utility.yul\":9583:9587   */\n      0x00\n        /* \"#utility.yul\":9615:9619   */\n      0x20\n        /* \"#utility.yul\":9610:9613   */\n      dup3\n        /* \"#utility.yul\":9606:9620   */\n      add\n        /* \"#utility.yul\":9598:9620   */\n      swap1\n      pop\n        /* \"#utility.yul\":9492:9626   */\n      swap2\n      swap1\n      pop\n      jump\t// out\n        /* \"#utility.yul\":9692:10771   */\n    tag_494:\n        /* \"#utility.yul\":9853:9856   */\n      0x00\n        /* \"#utility.yul\":9882:9957   */\n      tag_670\n        /* \"#utility.yul\":9951:9956   */\n      dup3\n        /* \"#utility.yul\":9882:9957   */\n      tag_483\n      jump\t// in\n    tag_670:\n        /* \"#utility.yul\":9973:10080   */\n      tag_671\n        /* \"#utility.yul\":10073:10079   */\n      dup2\n        /* \"#utility.yul\":10068:10071   */\n      dup6\n        /* \"#utility.yul\":9973:10080   */\n      tag_484\n      jump\t// in\n    tag_671:\n        /* \"#utility.yul\":9966:10080   */\n      swap4\n      pop\n        /* \"#utility.yul\":10106:10109   */\n      dup4\n        /* \"#utility.yul\":10151:10155   */\n      0x20\n        /* \"#utility.yul\":10143:10149   */\n      dup3\n        /* \"#utility.yul\":10139:10156   */\n      mul\n        /* \"#utility.yul\":10134:10137   */\n      dup6\n        /* \"#utility.yul\":10130:10157   */\n      add\n        /* \"#utility.yul\":10181:10258   */\n      tag_672\n        /* \"#utility.yul\":10252:10257   */\n      dup6\n        /* \"#utility.yul\":10181:10258   */\n      tag_485\n      jump\t// in\n    tag_672:\n        /* \"#utility.yul\":10281:10288   */\n      dup1\n        /* \"#utility.yul\":10312:10313   */\n      0x00\n        /* \"#utility.yul\":10297:10726   */\n    tag_673:\n        /* \"#utility.yul\":10322:10328   */\n      dup6\n        /* \"#utility.yul\":10319:10320   */\n      dup2\n        /* \"#utility.yul\":10316:10329   */\n      lt\n        /* \"#utility.yul\":10297:10726   */\n      iszero\n      tag_675\n      jumpi\n        /* \"#utility.yul\":10393:10402   */\n      dup5\n        /* \"#utility.yul\":10387:10391   */\n      dup5\n        /* \"#utility.yul\":10383:10403   */\n      sub\n        /* \"#utility.yul\":10378:10381   */\n      dup10\n        /* \"#utility.yul\":10371:10404   */\n      mstore\n        /* \"#utility.yul\":10444:10450   */\n      dup2\n        /* \"#utility.yul\":10438:10451   */\n      mload\n        /* \"#utility.yul\":10472:10578   */\n      tag_676\n        /* \"#utility.yul\":10573:10577   */\n      dup6\n        /* \"#utility.yul\":10558:10571   */\n      dup3\n        /* \"#utility.yul\":10472:10578   */\n      tag_492\n      jump\t// in\n    tag_676:\n        /* \"#utility.yul\":10464:10578   */\n      swap5\n      pop\n        /* \"#utility.yul\":10601:10682   */\n      tag_677\n        /* \"#utility.yul\":10675:10681   */\n      dup4\n        /* \"#utility.yul\":10601:10682   */\n      tag_493\n      jump\t// in\n    tag_677:\n        /* \"#utility.yul\":10591:10682   */\n      swap3\n      pop\n        /* \"#utility.yul\":10711:10715   */\n      0x20\n        /* \"#utility.yul\":10706:10709   */\n      dup11\n        /* \"#utility.yul\":10702:10716   */\n      add\n        /* \"#utility.yul\":10695:10716   */\n      swap10\n      pop\n        /* \"#utility.yul\":10357:10726   */\n      pop\n        /* \"#utility.yul\":10344:10345   */\n      0x01\n        /* \"#utility.yul\":10341:10342   */\n      dup2\n        /* \"#utility.yul\":10337:10346   */\n      add\n        /* \"#utility.yul\":10332:10346   */\n      swap1\n      pop\n        /* \"#utility.yul\":10297:10726   */\n      jump(tag_673)\n    tag_675:\n        /* \"#utility.yul\":10301:10315   */\n      pop\n        /* \"#utility.yul\":10742:10746   */\n      dup3\n        /* \"#utility.yul\":10735:10746   */\n      swap8\n      pop\n        /* \"#utility.yul\":10762:10765   */\n      dup8\n        /* \"#utility.yul\":10755:10765   */\n      swap6\n      pop\n        /* \"#utility.yul\":9858:10771   */\n      pop\n      pop\n      pop\n      pop\n      pop\n        /* \"#utility.yul\":9692:10771   */\n      swap3\n      swap2\n      pop\n      pop\n      jump\t// out\n        /* \"#utility.yul\":10777:11234   */\n    tag_39:\n        /* \"#utility.yul\":10962:10966   */\n      0x00\n        /* \"#utility.yul\":11000:11002   */\n      0x20\n        /* \"#utility.yul\":10989:10998   */\n      dup3\n        /* \"#utility.yul\":10985:11003   */\n      add\n        /* \"#utility.yul\":10977:11003   */\n      swap1\n      pop\n        /* \"#utility.yul\":11049:11058   */\n      dup2\n        /* \"#utility.yul\":11043:11047   */\n      dup2\n        /* \"#utility.yul\":11039:11059   */\n      sub\n        /* \"#utility.yul\":11035:11036   */\n      0x00\n        /* \"#utility.yul\":11024:11033   */\n      dup4\n        /* \"#utility.yul\":11020:11037   */\n      add\n        /* \"#utility.yul\":11013:11060   */\n      mstore\n        /* \"#utility.yul\":11077:11227   */\n      tag_679\n        /* \"#utility.yul\":11222:11226   */\n      dup2\n        /* \"#utility.yul\":11213:11219   */\n      dup5\n        /* \"#utility.yul\":11077:11227   */\n      tag_494\n      jump\t// in\n    tag_679:\n        /* \"#utility.yul\":11069:11227   */\n      swap1\n      pop\n        /* \"#utility.yul\":10777:11234   */\n      swap3\n      swap2\n      pop\n      pop\n      jump\t// out\n        /* \"#utility.yul\":11240:12185   */\n    tag_42:\n        /* \"#utility.yul\":11336:11342   */\n      0x00\n        /* \"#utility.yul\":11344:11350   */\n      dup1\n        /* \"#utility.yul\":11352:11358   */\n      0x00\n        /* \"#utility.yul\":11360:11366   */\n      dup1\n        /* \"#utility.yul\":11409:11412   */\n      0x80\n        /* \"#utility.yul\":11397:11406   */\n      dup6\n        /* \"#utility.yul\":11388:11395   */\n      dup8\n        /* \"#utility.yul\":11384:11407   */\n      sub\n        /* \"#utility.yul\":11380:11413   */\n      slt\n        /* \"#utility.yul\":11377:11497   */\n      iszero\n      tag_681\n      jumpi\n        /* \"#utility.yul\":11416:11495   */\n      tag_682\n      tag_466\n      jump\t// in\n    tag_682:\n        /* \"#utility.yul\":11377:11497   */\n    tag_681:\n        /* \"#utility.yul\":11564:11565   */\n      0x00\n        /* \"#utility.yul\":11553:11562   */\n      dup6\n        /* \"#utility.yul\":11549:11566   */\n      add\n        /* \"#utility.yul\":11536:11567   */\n      calldataload\n        /* \"#utility.yul\":11594:11612   */\n      0xffffffffffffffff\n        /* \"#utility.yul\":11586:11592   */\n      dup2\n        /* \"#utility.yul\":11583:11613   */\n      gt\n        /* \"#utility.yul\":11580:11697   */\n      iszero\n      tag_683\n      jumpi\n        /* \"#utility.yul\":11616:11695   */\n      tag_684\n      tag_467\n      jump\t// in\n    tag_684:\n        /* \"#utility.yul\":11580:11697   */\n    tag_683:\n        /* \"#utility.yul\":11721:11784   */\n      tag_685\n        /* \"#utility.yul\":11776:11783   */\n      dup8\n        /* \"#utility.yul\":11767:11773   */\n      dup3\n        /* \"#utility.yul\":11756:11765   */\n      dup9\n        /* \"#utility.yul\":11752:11774   */\n      add\n        /* \"#utility.yul\":11721:11784   */\n      tag_476\n      jump\t// in\n    tag_685:\n        /* \"#utility.yul\":11711:11784   */\n      swap5\n      pop\n        /* \"#utility.yul\":11507:11794   */\n      pop\n        /* \"#utility.yul\":11833:11835   */\n      0x20\n        /* \"#utility.yul\":11859:11912   */\n      tag_686\n        /* \"#utility.yul\":11904:11911   */\n      dup8\n        /* \"#utility.yul\":11895:11901   */\n      dup3\n        /* \"#utility.yul\":11884:11893   */\n      dup9\n        /* \"#utility.yul\":11880:11902   */\n      add\n        /* \"#utility.yul\":11859:11912   */\n      tag_479\n      jump\t// in\n    tag_686:\n        /* \"#utility.yul\":11849:11912   */\n      swap4\n      pop\n        /* \"#utility.yul\":11804:11922   */\n      pop\n        /* \"#utility.yul\":11961:11963   */\n      0x40\n        /* \"#utility.yul\":11987:12040   */\n      tag_687\n        /* \"#utility.yul\":12032:12039   */\n      dup8\n        /* \"#utility.yul\":12023:12029   */\n      dup3\n        /* \"#utility.yul\":12012:12021   */\n      dup9\n        /* \"#utility.yul\":12008:12030   */\n      add\n        /* \"#utility.yul\":11987:12040   */\n      tag_479\n      jump\t// in\n    tag_687:\n        /* \"#utility.yul\":11977:12040   */\n      swap3\n      pop\n        /* \"#utility.yul\":11932:12050   */\n      pop\n        /* \"#utility.yul\":12089:12091   */\n      0x60\n        /* \"#utility.yul\":12115:12168   */\n      tag_688\n        /* \"#utility.yul\":12160:12167   */\n      dup8\n        /* \"#utility.yul\":12151:12157   */\n      dup3\n        /* \"#utility.yul\":12140:12149   */\n      dup9\n        /* \"#utility.yul\":12136:12158   */\n      add\n        /* \"#utility.yul\":12115:12168   */\n      tag_479\n      jump\t// in\n    tag_688:\n        /* \"#utility.yul\":12105:12168   */\n      swap2\n      pop\n        /* \"#utility.yul\":12060:12178   */\n      pop\n        /* \"#utility.yul\":11240:12185   */\n      swap3\n      swap6\n      swap2\n      swap5\n      pop\n      swap3\n      pop\n      jump\t// out\n        /* \"#utility.yul\":12247:13825   */\n    tag_495:\n        /* \"#utility.yul\":12358:12361   */\n      0x00\n        /* \"#utility.yul\":12394:12398   */\n      0xe0\n        /* \"#utility.yul\":12389:12392   */\n      dup4\n        /* \"#utility.yul\":12385:12399   */\n      add\n        /* \"#utility.yul\":12479:12483   */\n      0x00\n        /* \"#utility.yul\":12472:12477   */\n      dup4\n        /* \"#utility.yul\":12468:12484   */\n      add\n        /* \"#utility.yul\":12462:12485   */\n      mload\n        /* \"#utility.yul\":12532:12535   */\n      dup5\n        /* \"#utility.yul\":12526:12530   */\n      dup3\n        /* \"#utility.yul\":12522:12536   */\n      sub\n        /* \"#utility.yul\":12515:12519   */\n      0x00\n        /* \"#utility.yul\":12510:12513   */\n      dup7\n        /* \"#utility.yul\":12506:12520   */\n      add\n        /* \"#utility.yul\":12499:12537   */\n      mstore\n        /* \"#utility.yul\":12558:12631   */\n      tag_690\n        /* \"#utility.yul\":12626:12630   */\n      dup3\n        /* \"#utility.yul\":12612:12624   */\n      dup3\n        /* \"#utility.yul\":12558:12631   */\n      tag_489\n      jump\t// in\n    tag_690:\n        /* \"#utility.yul\":12550:12631   */\n      swap2\n      pop\n        /* \"#utility.yul\":12409:12642   */\n      pop\n        /* \"#utility.yul\":12735:12739   */\n      0x20\n        /* \"#utility.yul\":12728:12733   */\n      dup4\n        /* \"#utility.yul\":12724:12740   */\n      add\n        /* \"#utility.yul\":12718:12741   */\n      mload\n        /* \"#utility.yul\":12788:12791   */\n      dup5\n        /* \"#utility.yul\":12782:12786   */\n      dup3\n        /* \"#utility.yul\":12778:12792   */\n      sub\n        /* \"#utility.yul\":12771:12775   */\n      0x20\n        /* \"#utility.yul\":12766:12769   */\n      dup7\n        /* \"#utility.yul\":12762:12776   */\n      add\n        /* \"#utility.yul\":12755:12793   */\n      mstore\n        /* \"#utility.yul\":12814:12887   */\n      tag_691\n        /* \"#utility.yul\":12882:12886   */\n      dup3\n        /* \"#utility.yul\":12868:12880   */\n      dup3\n        /* \"#utility.yul\":12814:12887   */\n      tag_489\n      jump\t// in\n    tag_691:\n        /* \"#utility.yul\":12806:12887   */\n      swap2\n      pop\n        /* \"#utility.yul\":12652:12898   */\n      pop\n        /* \"#utility.yul\":12982:12986   */\n      0x40\n        /* \"#utility.yul\":12975:12980   */\n      dup4\n        /* \"#utility.yul\":12971:12987   */\n      add\n        /* \"#utility.yul\":12965:12988   */\n      mload\n        /* \"#utility.yul\":13001:13064   */\n      tag_692\n        /* \"#utility.yul\":13058:13062   */\n      0x40\n        /* \"#utility.yul\":13053:13056   */\n      dup7\n        /* \"#utility.yul\":13049:13063   */\n      add\n        /* \"#utility.yul\":13035:13047   */\n      dup3\n        /* \"#utility.yul\":13001:13064   */\n      tag_490\n      jump\t// in\n    tag_692:\n        /* \"#utility.yul\":12908:13074   */\n      pop\n        /* \"#utility.yul\":13163:13167   */\n      0x60\n        /* \"#utility.yul\":13156:13161   */\n      dup4\n        /* \"#utility.yul\":13152:13168   */\n      add\n        /* \"#utility.yul\":13146:13169   */\n      mload\n        /* \"#utility.yul\":13182:13245   */\n      tag_693\n        /* \"#utility.yul\":13239:13243   */\n      0x60\n        /* \"#utility.yul\":13234:13237   */\n      dup7\n        /* \"#utility.yul\":13230:13244   */\n      add\n        /* \"#utility.yul\":13216:13228   */\n      dup3\n        /* \"#utility.yul\":13182:13245   */\n      tag_490\n      jump\t// in\n    tag_693:\n        /* \"#utility.yul\":13084:13255   */\n      pop\n        /* \"#utility.yul\":13344:13348   */\n      0x80\n        /* \"#utility.yul\":13337:13342   */\n      dup4\n        /* \"#utility.yul\":13333:13349   */\n      add\n        /* \"#utility.yul\":13327:13350   */\n      mload\n        /* \"#utility.yul\":13363:13426   */\n      tag_694\n        /* \"#utility.yul\":13420:13424   */\n      0x80\n        /* \"#utility.yul\":13415:13418   */\n      dup7\n        /* \"#utility.yul\":13411:13425   */\n      add\n        /* \"#utility.yul\":13397:13409   */\n      dup3\n        /* \"#utility.yul\":13363:13426   */\n      tag_490\n      jump\t// in\n    tag_694:\n        /* \"#utility.yul\":13265:13436   */\n      pop\n        /* \"#utility.yul\":13523:13527   */\n      0xa0\n        /* \"#utility.yul\":13516:13521   */\n      dup4\n        /* \"#utility.yul\":13512:13528   */\n      add\n        /* \"#utility.yul\":13506:13529   */\n      mload\n        /* \"#utility.yul\":13542:13605   */\n      tag_695\n        /* \"#utility.yul\":13599:13603   */\n      0xa0\n        /* \"#utility.yul\":13594:13597   */\n      dup7\n        /* \"#utility.yul\":13590:13604   */\n      add\n        /* \"#utility.yul\":13576:13588   */\n      dup3\n        /* \"#utility.yul\":13542:13605   */\n      tag_490\n      jump\t// in\n    tag_695:\n        /* \"#utility.yul\":13446:13615   */\n      pop\n        /* \"#utility.yul\":13706:13710   */\n      0xc0\n        /* \"#utility.yul\":13699:13704   */\n      dup4\n        /* \"#utility.yul\":13695:13711   */\n      add\n        /* \"#utility.yul\":13689:13712   */\n      mload\n        /* \"#utility.yul\":13725:13788   */\n      tag_696\n        /* \"#utility.yul\":13782:13786   */\n      0xc0\n        /* \"#utility.yul\":13777:13780   */\n      dup7\n        /* \"#utility.yul\":13773:13787   */\n      add\n        /* \"#utility.yul\":13759:13771   */\n      dup3\n        /* \"#utility.yul\":13725:13788   */\n      tag_490\n      jump\t// in\n    tag_696:\n        /* \"#utility.yul\":13625:13798   */\n      pop\n        /* \"#utility.yul\":13815:13819   */\n      dup1\n        /* \"#utility.yul\":13808:13819   */\n      swap2\n      pop\n        /* \"#utility.yul\":12363:13825   */\n      pop\n        /* \"#utility.yul\":12247:13825   */\n      swap3\n      swap2\n      pop\n      pop\n      jump\t// out\n        /* \"#utility.yul\":13831:14188   */\n    tag_47:\n        /* \"#utility.yul\":13966:13970   */\n      0x00\n        /* \"#utility.yul\":14004:14006   */\n      0x20\n        /* \"#utility.yul\":13993:14002   */\n      dup3\n        /* \"#utility.yul\":13989:14007   */\n      add\n        /* \"#utility.yul\":13981:14007   */\n      swap1\n      pop\n        /* \"#utility.yul\":14053:14062   */\n      dup2\n        /* \"#utility.yul\":14047:14051   */\n      dup2\n        /* \"#utility.yul\":14043:14063   */\n      sub\n        /* \"#utility.yul\":14039:14040   */\n      0x00\n        /* \"#utility.yul\":14028:14037   */\n      dup4\n        /* \"#utility.yul\":14024:14041   */\n      add\n        /* \"#utility.yul\":14017:14064   */\n      mstore\n        /* \"#utility.yul\":14081:14181   */\n      tag_698\n        /* \"#utility.yul\":14176:14180   */\n      dup2\n        /* \"#utility.yul\":14167:14173   */\n      dup5\n        /* \"#utility.yul\":14081:14181   */\n      tag_495\n      jump\t// in\n    tag_698:\n        /* \"#utility.yul\":14073:14181   */\n      swap1\n      pop\n        /* \"#utility.yul\":13831:14188   */\n      swap3\n      swap2\n      pop\n      pop\n      jump\t// out\n        /* \"#utility.yul\":14194:14523   */\n    tag_50:\n        /* \"#utility.yul\":14253:14259   */\n      0x00\n        /* \"#utility.yul\":14302:14304   */\n      0x20\n        /* \"#utility.yul\":14290:14299   */\n      dup3\n        /* \"#utility.yul\":14281:14288   */\n      dup5\n        /* \"#utility.yul\":14277:14300   */\n      sub\n        /* \"#utility.yul\":14273:14305   */\n      slt\n        /* \"#utility.yul\":14270:14389   */\n      iszero\n      tag_700\n      jumpi\n        /* \"#utility.yul\":14308:14387   */\n      tag_701\n      tag_466\n      jump\t// in\n    tag_701:\n        /* \"#utility.yul\":14270:14389   */\n    tag_700:\n        /* \"#utility.yul\":14428:14429   */\n      0x00\n        /* \"#utility.yul\":14453:14506   */\n      tag_702\n        /* \"#utility.yul\":14498:14505   */\n      dup5\n        /* \"#utility.yul\":14489:14495   */\n      dup3\n        /* \"#utility.yul\":14478:14487   */\n      dup6\n        /* \"#utility.yul\":14474:14496   */\n      add\n        /* \"#utility.yul\":14453:14506   */\n      tag_479\n      jump\t// in\n    tag_702:\n        /* \"#utility.yul\":14443:14506   */\n      swap2\n      pop\n        /* \"#utility.yul\":14399:14516   */\n      pop\n        /* \"#utility.yul\":14194:14523   */\n      swap3\n      swap2\n      pop\n      pop\n      jump\t// out\n        /* \"#utility.yul\":14529:14698   */\n    tag_496:\n        /* \"#utility.yul\":14613:14624   */\n      0x00\n        /* \"#utility.yul\":14647:14653   */\n      dup3\n        /* \"#utility.yul\":14642:14645   */\n      dup3\n        /* \"#utility.yul\":14635:14654   */\n      mstore\n        /* \"#utility.yul\":14687:14691   */\n      0x20\n        /* \"#utility.yul\":14682:14685   */\n      dup3\n        /* \"#utility.yul\":14678:14692   */\n      add\n        /* \"#utility.yul\":14663:14692   */\n      swap1\n      pop\n        /* \"#utility.yul\":14529:14698   */\n      swap3\n      swap2\n      pop\n      pop\n      jump\t// out\n        /* \"#utility.yul\":14704:15081   */\n    tag_497:\n        /* \"#utility.yul\":14792:14795   */\n      0x00\n        /* \"#utility.yul\":14820:14859   */\n      tag_705\n        /* \"#utility.yul\":14853:14858   */\n      dup3\n        /* \"#utility.yul\":14820:14859   */\n      tag_486\n      jump\t// in\n    tag_705:\n        /* \"#utility.yul\":14875:14946   */\n      tag_706\n        /* \"#utility.yul\":14939:14945   */\n      dup2\n        /* \"#utility.yul\":14934:14937   */\n      dup6\n        /* \"#utility.yul\":14875:14946   */\n      tag_496\n      jump\t// in\n    tag_706:\n        /* \"#utility.yul\":14868:14946   */\n      swap4\n      pop\n        /* \"#utility.yul\":14955:15020   */\n      tag_707\n        /* \"#utility.yul\":15013:15019   */\n      dup2\n        /* \"#utility.yul\":15008:15011   */\n      dup6\n        /* \"#utility.yul\":15001:15005   */\n      0x20\n        /* \"#utility.yul\":14994:14999   */\n      dup7\n        /* \"#utility.yul\":14990:15006   */\n      add\n        /* \"#utility.yul\":14955:15020   */\n      tag_488\n      jump\t// in\n    tag_707:\n        /* \"#utility.yul\":15045:15074   */\n      tag_708\n        /* \"#utility.yul\":15067:15073   */\n      dup2\n        /* \"#utility.yul\":15045:15074   */\n      tag_470\n      jump\t// in\n    tag_708:\n        /* \"#utility.yul\":15040:15043   */\n      dup5\n        /* \"#utility.yul\":15036:15075   */\n      add\n        /* \"#utility.yul\":15029:15075   */\n      swap2\n      pop\n        /* \"#utility.yul\":14796:15081   */\n      pop\n        /* \"#utility.yul\":14704:15081   */\n      swap3\n      swap2\n      pop\n      pop\n      jump\t// out\n        /* \"#utility.yul\":15087:16155   */\n    tag_57:\n        /* \"#utility.yul\":15388:15392   */\n      0x00\n        /* \"#utility.yul\":15426:15429   */\n      0xe0\n        /* \"#utility.yul\":15415:15424   */\n      dup3\n        /* \"#utility.yul\":15411:15430   */\n      add\n        /* \"#utility.yul\":15403:15430   */\n      swap1\n      pop\n        /* \"#utility.yul\":15476:15485   */\n      dup2\n        /* \"#utility.yul\":15470:15474   */\n      dup2\n        /* \"#utility.yul\":15466:15486   */\n      sub\n        /* \"#utility.yul\":15462:15463   */\n      0x00\n        /* \"#utility.yul\":15451:15460   */\n      dup4\n        /* \"#utility.yul\":15447:15464   */\n      add\n        /* \"#utility.yul\":15440:15487   */\n      mstore\n        /* \"#utility.yul\":15504:15582   */\n      tag_710\n        /* \"#utility.yul\":15577:15581   */\n      dup2\n        /* \"#utility.yul\":15568:15574   */\n      dup11\n        /* \"#utility.yul\":15504:15582   */\n      tag_497\n      jump\t// in\n    tag_710:\n        /* \"#utility.yul\":15496:15582   */\n      swap1\n      pop\n        /* \"#utility.yul\":15629:15638   */\n      dup2\n        /* \"#utility.yul\":15623:15627   */\n      dup2\n        /* \"#utility.yul\":15619:15639   */\n      sub\n        /* \"#utility.yul\":15614:15616   */\n      0x20\n        /* \"#utility.yul\":15603:15612   */\n      dup4\n        /* \"#utility.yul\":15599:15617   */\n      add\n        /* \"#utility.yul\":15592:15640   */\n      mstore\n        /* \"#utility.yul\":15657:15735   */\n      tag_711\n        /* \"#utility.yul\":15730:15734   */\n      dup2\n        /* \"#utility.yul\":15721:15727   */\n      dup10\n        /* \"#utility.yul\":15657:15735   */\n      tag_497\n      jump\t// in\n    tag_711:\n        /* \"#utility.yul\":15649:15735   */\n      swap1\n      pop\n        /* \"#utility.yul\":15745:15817   */\n      tag_712\n        /* \"#utility.yul\":15813:15815   */\n      0x40\n        /* \"#utility.yul\":15802:15811   */\n      dup4\n        /* \"#utility.yul\":15798:15816   */\n      add\n        /* \"#utility.yul\":15789:15795   */\n      dup9\n        /* \"#utility.yul\":15745:15817   */\n      tag_482\n      jump\t// in\n    tag_712:\n        /* \"#utility.yul\":15827:15899   */\n      tag_713\n        /* \"#utility.yul\":15895:15897   */\n      0x60\n        /* \"#utility.yul\":15884:15893   */\n      dup4\n        /* \"#utility.yul\":15880:15898   */\n      add\n        /* \"#utility.yul\":15871:15877   */\n      dup8\n        /* \"#utility.yul\":15827:15899   */\n      tag_482\n      jump\t// in\n    tag_713:\n        /* \"#utility.yul\":15909:15982   */\n      tag_714\n        /* \"#utility.yul\":15977:15980   */\n      0x80\n        /* \"#utility.yul\":15966:15975   */\n      dup4\n        /* \"#utility.yul\":15962:15981   */\n      add\n        /* \"#utility.yul\":15953:15959   */\n      dup7\n        /* \"#utility.yul\":15909:15982   */\n      tag_482\n      jump\t// in\n    tag_714:\n        /* \"#utility.yul\":15992:16065   */\n      tag_715\n        /* \"#utility.yul\":16060:16063   */\n      0xa0\n        /* \"#utility.yul\":16049:16058   */\n      dup4\n        /* \"#utility.yul\":16045:16064   */\n      add\n        /* \"#utility.yul\":16036:16042   */\n      dup6\n        /* \"#utility.yul\":15992:16065   */\n      tag_482\n      jump\t// in\n    tag_715:\n        /* \"#utility.yul\":16075:16148   */\n      tag_716\n        /* \"#utility.yul\":16143:16146   */\n      0xc0\n        /* \"#utility.yul\":16132:16141   */\n      dup4\n        /* \"#utility.yul\":16128:16147   */\n      add\n        /* \"#utility.yul\":16119:16125   */\n      dup5\n        /* \"#utility.yul\":16075:16148   */\n      tag_482\n      jump\t// in\n    tag_716:\n        /* \"#utility.yul\":15087:16155   */\n      swap9\n      swap8\n      pop\n      pop\n      pop\n      pop\n      pop\n      pop\n      pop\n      pop\n      jump\t// out\n        /* \"#utility.yul\":16161:16285   */\n    tag_498:\n        /* \"#utility.yul\":16238:16244   */\n      0x00\n        /* \"#utility.yul\":16272:16277   */\n      dup2\n        /* \"#utility.yul\":16266:16278   */\n      mload\n        /* \"#utility.yul\":16256:16278   */\n      swap1\n      pop\n        /* \"#utility.yul\":16161:16285   */\n      swap2\n      swap1\n      pop\n      jump\t// out\n        /* \"#utility.yul\":16291:16485   */\n    tag_499:\n        /* \"#utility.yul\":16400:16411   */\n      0x00\n        /* \"#utility.yul\":16434:16440   */\n      dup3\n        /* \"#utility.yul\":16429:16432   */\n      dup3\n        /* \"#utility.yul\":16422:16441   */\n      mstore\n        /* \"#utility.yul\":16474:16478   */\n      0x20\n        /* \"#utility.yul\":16469:16472   */\n      dup3\n        /* \"#utility.yul\":16465:16479   */\n      add\n        /* \"#utility.yul\":16450:16479   */\n      swap1\n      pop\n        /* \"#utility.yul\":16291:16485   */\n      swap3\n      swap2\n      pop\n      pop\n      jump\t// out\n        /* \"#utility.yul\":16491:16633   */\n    tag_500:\n        /* \"#utility.yul\":16568:16572   */\n      0x00\n        /* \"#utility.yul\":16591:16594   */\n      dup2\n        /* \"#utility.yul\":16583:16594   */\n      swap1\n      pop\n        /* \"#utility.yul\":16621:16625   */\n      0x20\n        /* \"#utility.yul\":16616:16619   */\n      dup3\n        /* \"#utility.yul\":16612:16626   */\n      add\n        /* \"#utility.yul\":16604:16626   */\n      swap1\n      pop\n        /* \"#utility.yul\":16491:16633   */\n      swap2\n      swap1\n      pop\n      jump\t// out\n        /* \"#utility.yul\":16639:16835   */\n    tag_501:\n        /* \"#utility.yul\":16728:16738   */\n      0x00\n        /* \"#utility.yul\":16763:16829   */\n      tag_721\n        /* \"#utility.yul\":16825:16828   */\n      dup4\n        /* \"#utility.yul\":16817:16823   */\n      dup4\n        /* \"#utility.yul\":16763:16829   */\n      tag_489\n      jump\t// in\n    tag_721:\n        /* \"#utility.yul\":16749:16829   */\n      swap1\n      pop\n        /* \"#utility.yul\":16639:16835   */\n      swap3\n      swap2\n      pop\n      pop\n      jump\t// out\n        /* \"#utility.yul\":16841:16964   */\n    tag_502:\n        /* \"#utility.yul\":16921:16925   */\n      0x00\n        /* \"#utility.yul\":16953:16957   */\n      0x20\n        /* \"#utility.yul\":16948:16951   */\n      dup3\n        /* \"#utility.yul\":16944:16958   */\n      add\n        /* \"#utility.yul\":16936:16958   */\n      swap1\n      pop\n        /* \"#utility.yul\":16841:16964   */\n      swap2\n      swap1\n      pop\n      jump\t// out\n        /* \"#utility.yul\":16998:17989   */\n    tag_503:\n        /* \"#utility.yul\":17137:17140   */\n      0x00\n        /* \"#utility.yul\":17166:17230   */\n      tag_724\n        /* \"#utility.yul\":17224:17229   */\n      dup3\n        /* \"#utility.yul\":17166:17230   */\n      tag_498\n      jump\t// in\n    tag_724:\n        /* \"#utility.yul\":17246:17342   */\n      tag_725\n        /* \"#utility.yul\":17335:17341   */\n      dup2\n        /* \"#utility.yul\":17330:17333   */\n      dup6\n        /* \"#utility.yul\":17246:17342   */\n      tag_499\n      jump\t// in\n    tag_725:\n        /* \"#utility.yul\":17239:17342   */\n      swap4\n      pop\n        /* \"#utility.yul\":17368:17371   */\n      dup4\n        /* \"#utility.yul\":17413:17417   */\n      0x20\n        /* \"#utility.yul\":17405:17411   */\n      dup3\n        /* \"#utility.yul\":17401:17418   */\n      mul\n        /* \"#utility.yul\":17396:17399   */\n      dup6\n        /* \"#utility.yul\":17392:17419   */\n      add\n        /* \"#utility.yul\":17443:17509   */\n      tag_726\n        /* \"#utility.yul\":17503:17508   */\n      dup6\n        /* \"#utility.yul\":17443:17509   */\n      tag_500\n      jump\t// in\n    tag_726:\n        /* \"#utility.yul\":17532:17539   */\n      dup1\n        /* \"#utility.yul\":17563:17564   */\n      0x00\n        /* \"#utility.yul\":17548:17944   */\n    tag_727:\n        /* \"#utility.yul\":17573:17579   */\n      dup6\n        /* \"#utility.yul\":17570:17571   */\n      dup2\n        /* \"#utility.yul\":17567:17580   */\n      lt\n        /* \"#utility.yul\":17548:17944   */\n      iszero\n      tag_729\n      jumpi\n        /* \"#utility.yul\":17644:17653   */\n      dup5\n        /* \"#utility.yul\":17638:17642   */\n      dup5\n        /* \"#utility.yul\":17634:17654   */\n      sub\n        /* \"#utility.yul\":17629:17632   */\n      dup10\n        /* \"#utility.yul\":17622:17655   */\n      mstore\n        /* \"#utility.yul\":17695:17701   */\n      dup2\n        /* \"#utility.yul\":17689:17702   */\n      mload\n        /* \"#utility.yul\":17723:17807   */\n      tag_730\n        /* \"#utility.yul\":17802:17806   */\n      dup6\n        /* \"#utility.yul\":17787:17800   */\n      dup3\n        /* \"#utility.yul\":17723:17807   */\n      tag_501\n      jump\t// in\n    tag_730:\n        /* \"#utility.yul\":17715:17807   */\n      swap5\n      pop\n        /* \"#utility.yul\":17830:17900   */\n      tag_731\n        /* \"#utility.yul\":17893:17899   */\n      dup4\n        /* \"#utility.yul\":17830:17900   */\n      tag_502\n      jump\t// in\n    tag_731:\n        /* \"#utility.yul\":17820:17900   */\n      swap3\n      pop\n        /* \"#utility.yul\":17929:17933   */\n      0x20\n        /* \"#utility.yul\":17924:17927   */\n      dup11\n        /* \"#utility.yul\":17920:17934   */\n      add\n        /* \"#utility.yul\":17913:17934   */\n      swap10\n      pop\n        /* \"#utility.yul\":17608:17944   */\n      pop\n        /* \"#utility.yul\":17595:17596   */\n      0x01\n        /* \"#utility.yul\":17592:17593   */\n      dup2\n        /* \"#utility.yul\":17588:17597   */\n      add\n        /* \"#utility.yul\":17583:17597   */\n      swap1\n      pop\n        /* \"#utility.yul\":17548:17944   */\n      jump(tag_727)\n    tag_729:\n        /* \"#utility.yul\":17552:17566   */\n      pop\n        /* \"#utility.yul\":17960:17964   */\n      dup3\n        /* \"#utility.yul\":17953:17964   */\n      swap8\n      pop\n        /* \"#utility.yul\":17980:17983   */\n      dup8\n        /* \"#utility.yul\":17973:17983   */\n      swap6\n      pop\n        /* \"#utility.yul\":17142:17989   */\n      pop\n      pop\n      pop\n      pop\n      pop\n        /* \"#utility.yul\":16998:17989   */\n      swap3\n      swap2\n      pop\n      pop\n      jump\t// out\n        /* \"#utility.yul\":17995:18110   */\n    tag_504:\n        /* \"#utility.yul\":18071:18077   */\n      0x00\n        /* \"#utility.yul\":18099:18103   */\n      0x0e\n        /* \"#utility.yul\":18089:18103   */\n      swap1\n      pop\n        /* \"#utility.yul\":17995:18110   */\n      swap2\n      swap1\n      pop\n      jump\t// out\n        /* \"#utility.yul\":18116:18270   */\n    tag_505:\n        /* \"#utility.yul\":18224:18235   */\n      0x00\n        /* \"#utility.yul\":18261:18264   */\n      dup2\n        /* \"#utility.yul\":18246:18264   */\n      swap1\n      pop\n        /* \"#utility.yul\":18116:18270   */\n      swap3\n      swap2\n      pop\n      pop\n      jump\t// out\n        /* \"#utility.yul\":18276:18385   */\n    tag_506:\n        /* \"#utility.yul\":18352:18356   */\n      0x00\n        /* \"#utility.yul\":18375:18378   */\n      dup2\n        /* \"#utility.yul\":18367:18378   */\n      swap1\n      pop\n        /* \"#utility.yul\":18276:18385   */\n      swap2\n      swap1\n      pop\n      jump\t// out\n        /* \"#utility.yul\":18391:18513   */\n    tag_507:\n        /* \"#utility.yul\":18470:18474   */\n      0x00\n        /* \"#utility.yul\":18502:18506   */\n      0x20\n        /* \"#utility.yul\":18497:18500   */\n      dup3\n        /* \"#utility.yul\":18493:18507   */\n      add\n        /* \"#utility.yul\":18485:18507   */\n      swap1\n      pop\n        /* \"#utility.yul\":18391:18513   */\n      swap2\n      swap1\n      pop\n      jump\t// out\n        /* \"#utility.yul\":18551:19536   */\n    tag_508:\n        /* \"#utility.yul\":18688:18691   */\n      0x00\n        /* \"#utility.yul\":18717:18780   */\n      tag_737\n        /* \"#utility.yul\":18774:18779   */\n      dup3\n        /* \"#utility.yul\":18717:18780   */\n      tag_504\n      jump\t// in\n    tag_737:\n        /* \"#utility.yul\":18796:18891   */\n      tag_738\n        /* \"#utility.yul\":18884:18890   */\n      dup2\n        /* \"#utility.yul\":18879:18882   */\n      dup6\n        /* \"#utility.yul\":18796:18891   */\n      tag_505\n      jump\t// in\n    tag_738:\n        /* \"#utility.yul\":18789:18891   */\n      swap4\n      pop\n        /* \"#utility.yul\":18917:18920   */\n      dup4\n        /* \"#utility.yul\":18962:18966   */\n      0x20\n        /* \"#utility.yul\":18954:18960   */\n      dup3\n        /* \"#utility.yul\":18950:18967   */\n      mul\n        /* \"#utility.yul\":18945:18948   */\n      dup6\n        /* \"#utility.yul\":18941:18968   */\n      add\n        /* \"#utility.yul\":18992:19057   */\n      tag_739\n        /* \"#utility.yul\":19051:19056   */\n      dup6\n        /* \"#utility.yul\":18992:19057   */\n      tag_506\n      jump\t// in\n    tag_739:\n        /* \"#utility.yul\":19080:19087   */\n      dup1\n        /* \"#utility.yul\":19111:19112   */\n      0x00\n        /* \"#utility.yul\":19096:19491   */\n    tag_740:\n        /* \"#utility.yul\":19121:19127   */\n      dup6\n        /* \"#utility.yul\":19118:19119   */\n      dup2\n        /* \"#utility.yul\":19115:19128   */\n      lt\n        /* \"#utility.yul\":19096:19491   */\n      iszero\n      tag_742\n      jumpi\n        /* \"#utility.yul\":19192:19201   */\n      dup5\n        /* \"#utility.yul\":19186:19190   */\n      dup5\n        /* \"#utility.yul\":19182:19202   */\n      sub\n        /* \"#utility.yul\":19177:19180   */\n      dup10\n        /* \"#utility.yul\":19170:19203   */\n      mstore\n        /* \"#utility.yul\":19243:19249   */\n      dup2\n        /* \"#utility.yul\":19237:19250   */\n      mload\n        /* \"#utility.yul\":19271:19355   */\n      tag_743\n        /* \"#utility.yul\":19350:19354   */\n      dup6\n        /* \"#utility.yul\":19335:19348   */\n      dup3\n        /* \"#utility.yul\":19271:19355   */\n      tag_501\n      jump\t// in\n    tag_743:\n        /* \"#utility.yul\":19263:19355   */\n      swap5\n      pop\n        /* \"#utility.yul\":19378:19447   */\n      tag_744\n        /* \"#utility.yul\":19440:19446   */\n      dup4\n        /* \"#utility.yul\":19378:19447   */\n      tag_507\n      jump\t// in\n    tag_744:\n        /* \"#utility.yul\":19368:19447   */\n      swap3\n      pop\n        /* \"#utility.yul\":19476:19480   */\n      0x20\n        /* \"#utility.yul\":19471:19474   */\n      dup11\n        /* \"#utility.yul\":19467:19481   */\n      add\n        /* \"#utility.yul\":19460:19481   */\n      swap10\n      pop\n        /* \"#utility.yul\":19156:19491   */\n      pop\n        /* \"#utility.yul\":19143:19144   */\n      0x01\n        /* \"#utility.yul\":19140:19141   */\n      dup2\n        /* \"#utility.yul\":19136:19145   */\n      add\n        /* \"#utility.yul\":19131:19145   */\n      swap1\n      pop\n        /* \"#utility.yul\":19096:19491   */\n      jump(tag_740)\n    tag_742:\n        /* \"#utility.yul\":19100:19114   */\n      pop\n        /* \"#utility.yul\":19507:19511   */\n      dup3\n        /* \"#utility.yul\":19500:19511   */\n      swap8\n      pop\n        /* \"#utility.yul\":19527:19530   */\n      dup8\n        /* \"#utility.yul\":19520:19530   */\n      swap6\n      pop\n        /* \"#utility.yul\":18693:19536   */\n      pop\n      pop\n      pop\n      pop\n      pop\n        /* \"#utility.yul\":18551:19536   */\n      swap3\n      swap2\n      pop\n      pop\n      jump\t// out\n        /* \"#utility.yul\":19542:19680   */\n    tag_509:\n        /* \"#utility.yul\":19633:19639   */\n      0x00\n        /* \"#utility.yul\":19667:19672   */\n      dup2\n        /* \"#utility.yul\":19661:19673   */\n      mload\n        /* \"#utility.yul\":19651:19673   */\n      swap1\n      pop\n        /* \"#utility.yul\":19542:19680   */\n      swap2\n      swap1\n      pop\n      jump\t// out\n        /* \"#utility.yul\":19686:19894   */\n    tag_510:\n        /* \"#utility.yul\":19809:19820   */\n      0x00\n        /* \"#utility.yul\":19843:19849   */\n      dup3\n        /* \"#utility.yul\":19838:19841   */\n      dup3\n        /* \"#utility.yul\":19831:19850   */\n      mstore\n        /* \"#utility.yul\":19883:19887   */\n      0x20\n        /* \"#utility.yul\":19878:19881   */\n      dup3\n        /* \"#utility.yul\":19874:19888   */\n      add\n        /* \"#utility.yul\":19859:19888   */\n      swap1\n      pop\n        /* \"#utility.yul\":19686:19894   */\n      swap3\n      swap2\n      pop\n      pop\n      jump\t// out\n        /* \"#utility.yul\":19900:20056   */\n    tag_511:\n        /* \"#utility.yul\":19991:19995   */\n      0x00\n        /* \"#utility.yul\":20014:20017   */\n      dup2\n        /* \"#utility.yul\":20006:20017   */\n      swap1\n      pop\n        /* \"#utility.yul\":20044:20048   */\n      0x20\n        /* \"#utility.yul\":20039:20042   */\n      dup3\n        /* \"#utility.yul\":20035:20049   */\n      add\n        /* \"#utility.yul\":20027:20049   */\n      swap1\n      pop\n        /* \"#utility.yul\":19900:20056   */\n      swap2\n      swap1\n      pop\n      jump\t// out\n        /* \"#utility.yul\":20062:20175   */\n    tag_512:\n        /* \"#utility.yul\":20128:20134   */\n      0x00\n        /* \"#utility.yul\":20162:20167   */\n      dup2\n        /* \"#utility.yul\":20156:20168   */\n      mload\n        /* \"#utility.yul\":20146:20168   */\n      swap1\n      pop\n        /* \"#utility.yul\":20062:20175   */\n      swap2\n      swap1\n      pop\n      jump\t// out\n        /* \"#utility.yul\":20181:20354   */\n    tag_513:\n        /* \"#utility.yul\":20269:20280   */\n      0x00\n        /* \"#utility.yul\":20303:20309   */\n      dup3\n        /* \"#utility.yul\":20298:20301   */\n      dup3\n        /* \"#utility.yul\":20291:20310   */\n      mstore\n        /* \"#utility.yul\":20343:20347   */\n      0x20\n        /* \"#utility.yul\":20338:20341   */\n      dup3\n        /* \"#utility.yul\":20334:20348   */\n      add\n        /* \"#utility.yul\":20319:20348   */\n      swap1\n      pop\n        /* \"#utility.yul\":20181:20354   */\n      swap3\n      swap2\n      pop\n      pop\n      jump\t// out\n        /* \"#utility.yul\":20360:20491   */\n    tag_514:\n        /* \"#utility.yul\":20426:20430   */\n      0x00\n        /* \"#utility.yul\":20449:20452   */\n      dup2\n        /* \"#utility.yul\":20441:20452   */\n      swap1\n      pop\n        /* \"#utility.yul\":20479:20483   */\n      0x20\n        /* \"#utility.yul\":20474:20477   */\n      dup3\n        /* \"#utility.yul\":20470:20484   */\n      add\n        /* \"#utility.yul\":20462:20484   */\n      swap1\n      pop\n        /* \"#utility.yul\":20360:20491   */\n      swap2\n      swap1\n      pop\n      jump\t// out\n        /* \"#utility.yul\":20497:20602   */\n    tag_515:\n        /* \"#utility.yul\":20572:20595   */\n      tag_752\n        /* \"#utility.yul\":20589:20594   */\n      dup2\n        /* \"#utility.yul\":20572:20595   */\n      tag_480\n      jump\t// in\n    tag_752:\n        /* \"#utility.yul\":20567:20570   */\n      dup3\n        /* \"#utility.yul\":20560:20596   */\n      mstore\n        /* \"#utility.yul\":20497:20602   */\n      pop\n      pop\n      jump\t// out\n        /* \"#utility.yul\":20608:20783   */\n    tag_516:\n        /* \"#utility.yul\":20675:20685   */\n      0x00\n        /* \"#utility.yul\":20696:20740   */\n      tag_754\n        /* \"#utility.yul\":20736:20739   */\n      dup4\n        /* \"#utility.yul\":20728:20734   */\n      dup4\n        /* \"#utility.yul\":20696:20740   */\n      tag_515\n      jump\t// in\n    tag_754:\n        /* \"#utility.yul\":20772:20776   */\n      0x20\n        /* \"#utility.yul\":20767:20770   */\n      dup4\n        /* \"#utility.yul\":20763:20777   */\n      add\n        /* \"#utility.yul\":20749:20777   */\n      swap1\n      pop\n        /* \"#utility.yul\":20608:20783   */\n      swap3\n      swap2\n      pop\n      pop\n      jump\t// out\n        /* \"#utility.yul\":20789:20901   */\n    tag_517:\n        /* \"#utility.yul\":20858:20862   */\n      0x00\n        /* \"#utility.yul\":20890:20894   */\n      0x20\n        /* \"#utility.yul\":20885:20888   */\n      dup3\n        /* \"#utility.yul\":20881:20895   */\n      add\n        /* \"#utility.yul\":20873:20895   */\n      swap1\n      pop\n        /* \"#utility.yul\":20789:20901   */\n      swap2\n      swap1\n      pop\n      jump\t// out\n        /* \"#utility.yul\":20935:21639   */\n    tag_518:\n        /* \"#utility.yul\":21042:21045   */\n      0x00\n        /* \"#utility.yul\":21071:21124   */\n      tag_757\n        /* \"#utility.yul\":21118:21123   */\n      dup3\n        /* \"#utility.yul\":21071:21124   */\n      tag_512\n      jump\t// in\n    tag_757:\n        /* \"#utility.yul\":21140:21215   */\n      tag_758\n        /* \"#utility.yul\":21208:21214   */\n      dup2\n        /* \"#utility.yul\":21203:21206   */\n      dup6\n        /* \"#utility.yul\":21140:21215   */\n      tag_513\n      jump\t// in\n    tag_758:\n        /* \"#utility.yul\":21133:21215   */\n      swap4\n      pop\n        /* \"#utility.yul\":21239:21294   */\n      tag_759\n        /* \"#utility.yul\":21288:21293   */\n      dup4\n        /* \"#utility.yul\":21239:21294   */\n      tag_514\n      jump\t// in\n    tag_759:\n        /* \"#utility.yul\":21317:21324   */\n      dup1\n        /* \"#utility.yul\":21348:21349   */\n      0x00\n        /* \"#utility.yul\":21333:21614   */\n    tag_760:\n        /* \"#utility.yul\":21358:21364   */\n      dup4\n        /* \"#utility.yul\":21355:21356   */\n      dup2\n        /* \"#utility.yul\":21352:21365   */\n      lt\n        /* \"#utility.yul\":21333:21614   */\n      iszero\n      tag_762\n      jumpi\n        /* \"#utility.yul\":21434:21440   */\n      dup2\n        /* \"#utility.yul\":21428:21441   */\n      mload\n        /* \"#utility.yul\":21461:21522   */\n      tag_763\n        /* \"#utility.yul\":21518:21521   */\n      dup9\n        /* \"#utility.yul\":21503:21516   */\n      dup3\n        /* \"#utility.yul\":21461:21522   */\n      tag_516\n      jump\t// in\n    tag_763:\n        /* \"#utility.yul\":21454:21522   */\n      swap8\n      pop\n        /* \"#utility.yul\":21545:21604   */\n      tag_764\n        /* \"#utility.yul\":21597:21603   */\n      dup4\n        /* \"#utility.yul\":21545:21604   */\n      tag_517\n      jump\t// in\n    tag_764:\n        /* \"#utility.yul\":21535:21604   */\n      swap3\n      pop\n        /* \"#utility.yul\":21393:21614   */\n      pop\n        /* \"#utility.yul\":21380:21381   */\n      0x01\n        /* \"#utility.yul\":21377:21378   */\n      dup2\n        /* \"#utility.yul\":21373:21382   */\n      add\n        /* \"#utility.yul\":21368:21382   */\n      swap1\n      pop\n        /* \"#utility.yul\":21333:21614   */\n      jump(tag_760)\n    tag_762:\n        /* \"#utility.yul\":21337:21351   */\n      pop\n        /* \"#utility.yul\":21630:21633   */\n      dup6\n        /* \"#utility.yul\":21623:21633   */\n      swap4\n      pop\n        /* \"#utility.yul\":21047:21639   */\n      pop\n      pop\n      pop\n        /* \"#utility.yul\":20935:21639   */\n      swap3\n      swap2\n      pop\n      pop\n      jump\t// out\n        /* \"#utility.yul\":21645:21897   */\n    tag_519:\n        /* \"#utility.yul\":21762:21772   */\n      0x00\n        /* \"#utility.yul\":21797:21891   */\n      tag_766\n        /* \"#utility.yul\":21887:21890   */\n      dup4\n        /* \"#utility.yul\":21879:21885   */\n      dup4\n        /* \"#utility.yul\":21797:21891   */\n      tag_518\n      jump\t// in\n    tag_766:\n        /* \"#utility.yul\":21783:21891   */\n      swap1\n      pop\n        /* \"#utility.yul\":21645:21897   */\n      swap3\n      swap2\n      pop\n      pop\n      jump\t// out\n        /* \"#utility.yul\":21903:22040   */\n    tag_520:\n        /* \"#utility.yul\":21997:22001   */\n      0x00\n        /* \"#utility.yul\":22029:22033   */\n      0x20\n        /* \"#utility.yul\":22024:22027   */\n      dup3\n        /* \"#utility.yul\":22020:22034   */\n      add\n        /* \"#utility.yul\":22012:22034   */\n      swap1\n      pop\n        /* \"#utility.yul\":21903:22040   */\n      swap2\n      swap1\n      pop\n      jump\t// out\n        /* \"#utility.yul\":22078:23181   */\n    tag_521:\n        /* \"#utility.yul\":22245:22248   */\n      0x00\n        /* \"#utility.yul\":22274:22352   */\n      tag_769\n        /* \"#utility.yul\":22346:22351   */\n      dup3\n        /* \"#utility.yul\":22274:22352   */\n      tag_509\n      jump\t// in\n    tag_769:\n        /* \"#utility.yul\":22368:22478   */\n      tag_770\n        /* \"#utility.yul\":22471:22477   */\n      dup2\n        /* \"#utility.yul\":22466:22469   */\n      dup6\n        /* \"#utility.yul\":22368:22478   */\n      tag_510\n      jump\t// in\n    tag_770:\n        /* \"#utility.yul\":22361:22478   */\n      swap4\n      pop\n        /* \"#utility.yul\":22504:22507   */\n      dup4\n        /* \"#utility.yul\":22549:22553   */\n      0x20\n        /* \"#utility.yul\":22541:22547   */\n      dup3\n        /* \"#utility.yul\":22537:22554   */\n      mul\n        /* \"#utility.yul\":22532:22535   */\n      dup6\n        /* \"#utility.yul\":22528:22555   */\n      add\n        /* \"#utility.yul\":22579:22659   */\n      tag_771\n        /* \"#utility.yul\":22653:22658   */\n      dup6\n        /* \"#utility.yul\":22579:22659   */\n      tag_511\n      jump\t// in\n    tag_771:\n        /* \"#utility.yul\":22682:22689   */\n      dup1\n        /* \"#utility.yul\":22713:22714   */\n      0x00\n        /* \"#utility.yul\":22698:23136   */\n    tag_772:\n        /* \"#utility.yul\":22723:22729   */\n      dup6\n        /* \"#utility.yul\":22720:22721   */\n      dup2\n        /* \"#utility.yul\":22717:22730   */\n      lt\n        /* \"#utility.yul\":22698:23136   */\n      iszero\n      tag_774\n      jumpi\n        /* \"#utility.yul\":22794:22803   */\n      dup5\n        /* \"#utility.yul\":22788:22792   */\n      dup5\n        /* \"#utility.yul\":22784:22804   */\n      sub\n        /* \"#utility.yul\":22779:22782   */\n      dup10\n        /* \"#utility.yul\":22772:22805   */\n      mstore\n        /* \"#utility.yul\":22845:22851   */\n      dup2\n        /* \"#utility.yul\":22839:22852   */\n      mload\n        /* \"#utility.yul\":22873:22985   */\n      tag_775\n        /* \"#utility.yul\":22980:22984   */\n      dup6\n        /* \"#utility.yul\":22965:22978   */\n      dup3\n        /* \"#utility.yul\":22873:22985   */\n      tag_519\n      jump\t// in\n    tag_775:\n        /* \"#utility.yul\":22865:22985   */\n      swap5\n      pop\n        /* \"#utility.yul\":23008:23092   */\n      tag_776\n        /* \"#utility.yul\":23085:23091   */\n      dup4\n        /* \"#utility.yul\":23008:23092   */\n      tag_520\n      jump\t// in\n    tag_776:\n        /* \"#utility.yul\":22998:23092   */\n      swap3\n      pop\n        /* \"#utility.yul\":23121:23125   */\n      0x20\n        /* \"#utility.yul\":23116:23119   */\n      dup11\n        /* \"#utility.yul\":23112:23126   */\n      add\n        /* \"#utility.yul\":23105:23126   */\n      swap10\n      pop\n        /* \"#utility.yul\":22758:23136   */\n      pop\n        /* \"#utility.yul\":22745:22746   */\n      0x01\n        /* \"#utility.yul\":22742:22743   */\n      dup2\n        /* \"#utility.yul\":22738:22747   */\n      add\n        /* \"#utility.yul\":22733:22747   */\n      swap1\n      pop\n        /* \"#utility.yul\":22698:23136   */\n      jump(tag_772)\n    tag_774:\n        /* \"#utility.yul\":22702:22716   */\n      pop\n        /* \"#utility.yul\":23152:23156   */\n      dup3\n        /* \"#utility.yul\":23145:23156   */\n      swap8\n      pop\n        /* \"#utility.yul\":23172:23175   */\n      dup8\n        /* \"#utility.yul\":23165:23175   */\n      swap6\n      pop\n        /* \"#utility.yul\":22250:23181   */\n      pop\n      pop\n      pop\n      pop\n      pop\n        /* \"#utility.yul\":22078:23181   */\n      swap3\n      swap2\n      pop\n      pop\n      jump\t// out\n        /* \"#utility.yul\":23187:23301   */\n    tag_522:\n        /* \"#utility.yul\":23262:23268   */\n      0x00\n        /* \"#utility.yul\":23290:23294   */\n      0x04\n        /* \"#utility.yul\":23280:23294   */\n      swap1\n      pop\n        /* \"#utility.yul\":23187:23301   */\n      swap2\n      swap1\n      pop\n      jump\t// out\n        /* \"#utility.yul\":23307:23460   */\n    tag_523:\n        /* \"#utility.yul\":23414:23425   */\n      0x00\n        /* \"#utility.yul\":23451:23454   */\n      dup2\n        /* \"#utility.yul\":23436:23454   */\n      swap1\n      pop\n        /* \"#utility.yul\":23307:23460   */\n      swap3\n      swap2\n      pop\n      pop\n      jump\t// out\n        /* \"#utility.yul\":23466:23574   */\n    tag_524:\n        /* \"#utility.yul\":23541:23545   */\n      0x00\n        /* \"#utility.yul\":23564:23567   */\n      dup2\n        /* \"#utility.yul\":23556:23567   */\n      swap1\n      pop\n        /* \"#utility.yul\":23466:23574   */\n      swap2\n      swap1\n      pop\n      jump\t// out\n        /* \"#utility.yul\":23580:23701   */\n    tag_525:\n        /* \"#utility.yul\":23658:23662   */\n      0x00\n        /* \"#utility.yul\":23690:23694   */\n      0x20\n        /* \"#utility.yul\":23685:23688   */\n      dup3\n        /* \"#utility.yul\":23681:23695   */\n      add\n        /* \"#utility.yul\":23673:23695   */\n      swap1\n      pop\n        /* \"#utility.yul\":23580:23701   */\n      swap2\n      swap1\n      pop\n      jump\t// out\n        /* \"#utility.yul\":23737:24716   */\n    tag_526:\n        /* \"#utility.yul\":23872:23875   */\n      0x00\n        /* \"#utility.yul\":23901:23963   */\n      tag_782\n        /* \"#utility.yul\":23957:23962   */\n      dup3\n        /* \"#utility.yul\":23901:23963   */\n      tag_522\n      jump\t// in\n    tag_782:\n        /* \"#utility.yul\":23979:24073   */\n      tag_783\n        /* \"#utility.yul\":24066:24072   */\n      dup2\n        /* \"#utility.yul\":24061:24064   */\n      dup6\n        /* \"#utility.yul\":23979:24073   */\n      tag_523\n      jump\t// in\n    tag_783:\n        /* \"#utility.yul\":23972:24073   */\n      swap4\n      pop\n        /* \"#utility.yul\":24099:24102   */\n      dup4\n        /* \"#utility.yul\":24144:24148   */\n      0x20\n        /* \"#utility.yul\":24136:24142   */\n      dup3\n        /* \"#utility.yul\":24132:24149   */\n      mul\n        /* \"#utility.yul\":24127:24130   */\n      dup6\n        /* \"#utility.yul\":24123:24150   */\n      add\n        /* \"#utility.yul\":24174:24238   */\n      tag_784\n        /* \"#utility.yul\":24232:24237   */\n      dup6\n        /* \"#utility.yul\":24174:24238   */\n      tag_524\n      jump\t// in\n    tag_784:\n        /* \"#utility.yul\":24261:24268   */\n      dup1\n        /* \"#utility.yul\":24292:24293   */\n      0x00\n        /* \"#utility.yul\":24277:24671   */\n    tag_785:\n        /* \"#utility.yul\":24302:24308   */\n      dup6\n        /* \"#utility.yul\":24299:24300   */\n      dup2\n        /* \"#utility.yul\":24296:24309   */\n      lt\n        /* \"#utility.yul\":24277:24671   */\n      iszero\n      tag_787\n      jumpi\n        /* \"#utility.yul\":24373:24382   */\n      dup5\n        /* \"#utility.yul\":24367:24371   */\n      dup5\n        /* \"#utility.yul\":24363:24383   */\n      sub\n        /* \"#utility.yul\":24358:24361   */\n      dup10\n        /* \"#utility.yul\":24351:24384   */\n      mstore\n        /* \"#utility.yul\":24424:24430   */\n      dup2\n        /* \"#utility.yul\":24418:24431   */\n      mload\n        /* \"#utility.yul\":24452:24536   */\n      tag_788\n        /* \"#utility.yul\":24531:24535   */\n      dup6\n        /* \"#utility.yul\":24516:24529   */\n      dup3\n        /* \"#utility.yul\":24452:24536   */\n      tag_501\n      jump\t// in\n    tag_788:\n        /* \"#utility.yul\":24444:24536   */\n      swap5\n      pop\n        /* \"#utility.yul\":24559:24627   */\n      tag_789\n        /* \"#utility.yul\":24620:24626   */\n      dup4\n        /* \"#utility.yul\":24559:24627   */\n      tag_525\n      jump\t// in\n    tag_789:\n        /* \"#utility.yul\":24549:24627   */\n      swap3\n      pop\n        /* \"#utility.yul\":24656:24660   */\n      0x20\n        /* \"#utility.yul\":24651:24654   */\n      dup11\n        /* \"#utility.yul\":24647:24661   */\n      add\n        /* \"#utility.yul\":24640:24661   */\n      swap10\n      pop\n        /* \"#utility.yul\":24337:24671   */\n      pop\n        /* \"#utility.yul\":24324:24325   */\n      0x01\n        /* \"#utility.yul\":24321:24322   */\n      dup2\n        /* \"#utility.yul\":24317:24326   */\n      add\n        /* \"#utility.yul\":24312:24326   */\n      swap1\n      pop\n        /* \"#utility.yul\":24277:24671   */\n      jump(tag_785)\n    tag_787:\n        /* \"#utility.yul\":24281:24295   */\n      pop\n        /* \"#utility.yul\":24687:24691   */\n      dup3\n        /* \"#utility.yul\":24680:24691   */\n      swap8\n      pop\n        /* \"#utility.yul\":24707:24710   */\n      dup8\n        /* \"#utility.yul\":24700:24710   */\n      swap6\n      pop\n        /* \"#utility.yul\":23877:24716   */\n      pop\n      pop\n      pop\n      pop\n      pop\n        /* \"#utility.yul\":23737:24716   */\n      swap3\n      swap2\n      pop\n      pop\n      jump\t// out\n        /* \"#utility.yul\":24722:24836   */\n    tag_527:\n        /* \"#utility.yul\":24797:24803   */\n      0x00\n        /* \"#utility.yul\":24825:24829   */\n      0x08\n        /* \"#utility.yul\":24815:24829   */\n      swap1\n      pop\n        /* \"#utility.yul\":24722:24836   */\n      swap2\n      swap1\n      pop\n      jump\t// out\n        /* \"#utility.yul\":24842:24995   */\n    tag_528:\n        /* \"#utility.yul\":24949:24960   */\n      0x00\n        /* \"#utility.yul\":24986:24989   */\n      dup2\n        /* \"#utility.yul\":24971:24989   */\n      swap1\n      pop\n        /* \"#utility.yul\":24842:24995   */\n      swap3\n      swap2\n      pop\n      pop\n      jump\t// out\n        /* \"#utility.yul\":25001:25109   */\n    tag_529:\n        /* \"#utility.yul\":25076:25080   */\n      0x00\n        /* \"#utility.yul\":25099:25102   */\n      dup2\n        /* \"#utility.yul\":25091:25102   */\n      swap1\n      pop\n        /* \"#utility.yul\":25001:25109   */\n      swap2\n      swap1\n      pop\n      jump\t// out\n        /* \"#utility.yul\":25115:25236   */\n    tag_530:\n        /* \"#utility.yul\":25193:25197   */\n      0x00\n        /* \"#utility.yul\":25225:25229   */\n      0x20\n        /* \"#utility.yul\":25220:25223   */\n      dup3\n        /* \"#utility.yul\":25216:25230   */\n      add\n        /* \"#utility.yul\":25208:25230   */\n      swap1\n      pop\n        /* \"#utility.yul\":25115:25236   */\n      swap2\n      swap1\n      pop\n      jump\t// out\n        /* \"#utility.yul\":25272:26251   */\n    tag_531:\n        /* \"#utility.yul\":25407:25410   */\n      0x00\n        /* \"#utility.yul\":25436:25498   */\n      tag_795\n        /* \"#utility.yul\":25492:25497   */\n      dup3\n        /* \"#utility.yul\":25436:25498   */\n      tag_527\n      jump\t// in\n    tag_795:\n        /* \"#utility.yul\":25514:25608   */\n      tag_796\n        /* \"#utility.yul\":25601:25607   */\n      dup2\n        /* \"#utility.yul\":25596:25599   */\n      dup6\n        /* \"#utility.yul\":25514:25608   */\n      tag_528\n      jump\t// in\n    tag_796:\n        /* \"#utility.yul\":25507:25608   */\n      swap4\n      pop\n        /* \"#utility.yul\":25634:25637   */\n      dup4\n        /* \"#utility.yul\":25679:25683   */\n      0x20\n        /* \"#utility.yul\":25671:25677   */\n      dup3\n        /* \"#utility.yul\":25667:25684   */\n      mul\n        /* \"#utility.yul\":25662:25665   */\n      dup6\n        /* \"#utility.yul\":25658:25685   */\n      add\n        /* \"#utility.yul\":25709:25773   */\n      tag_797\n        /* \"#utility.yul\":25767:25772   */\n      dup6\n        /* \"#utility.yul\":25709:25773   */\n      tag_529\n      jump\t// in\n    tag_797:\n        /* \"#utility.yul\":25796:25803   */\n      dup1\n        /* \"#utility.yul\":25827:25828   */\n      0x00\n        /* \"#utility.yul\":25812:26206   */\n    tag_798:\n        /* \"#utility.yul\":25837:25843   */\n      dup6\n        /* \"#utility.yul\":25834:25835   */\n      dup2\n        /* \"#utility.yul\":25831:25844   */\n      lt\n        /* \"#utility.yul\":25812:26206   */\n      iszero\n      tag_800\n      jumpi\n        /* \"#utility.yul\":25908:25917   */\n      dup5\n        /* \"#utility.yul\":25902:25906   */\n      dup5\n        /* \"#utility.yul\":25898:25918   */\n      sub\n        /* \"#utility.yul\":25893:25896   */\n      dup10\n        /* \"#utility.yul\":25886:25919   */\n      mstore\n        /* \"#utility.yul\":25959:25965   */\n      dup2\n        /* \"#utility.yul\":25953:25966   */\n      mload\n        /* \"#utility.yul\":25987:26071   */\n      tag_801\n        /* \"#utility.yul\":26066:26070   */\n      dup6\n        /* \"#utility.yul\":26051:26064   */\n      dup3\n        /* \"#utility.yul\":25987:26071   */\n      tag_501\n      jump\t// in\n    tag_801:\n        /* \"#utility.yul\":25979:26071   */\n      swap5\n      pop\n        /* \"#utility.yul\":26094:26162   */\n      tag_802\n        /* \"#utility.yul\":26155:26161   */\n      dup4\n        /* \"#utility.yul\":26094:26162   */\n      tag_530\n      jump\t// in\n    tag_802:\n        /* \"#utility.yul\":26084:26162   */\n      swap3\n      pop\n        /* \"#utility.yul\":26191:26195   */\n      0x20\n        /* \"#utility.yul\":26186:26189   */\n      dup11\n        /* \"#utility.yul\":26182:26196   */\n      add\n        /* \"#utility.yul\":26175:26196   */\n      swap10\n      pop\n        /* \"#utility.yul\":25872:26206   */\n      pop\n        /* \"#utility.yul\":25859:25860   */\n      0x01\n        /* \"#utility.yul\":25856:25857   */\n      dup2\n        /* \"#utility.yul\":25852:25861   */\n      add\n        /* \"#utility.yul\":25847:25861   */\n      swap1\n      pop\n        /* \"#utility.yul\":25812:26206   */\n      jump(tag_798)\n    tag_800:\n        /* \"#utility.yul\":25816:25830   */\n      pop\n        /* \"#utility.yul\":26222:26226   */\n      dup3\n        /* \"#utility.yul\":26215:26226   */\n      swap8\n      pop\n        /* \"#utility.yul\":26242:26245   */\n      dup8\n        /* \"#utility.yul\":26235:26245   */\n      swap6\n      pop\n        /* \"#utility.yul\":25412:26251   */\n      pop\n      pop\n      pop\n      pop\n      pop\n        /* \"#utility.yul\":25272:26251   */\n      swap3\n      swap2\n      pop\n      pop\n      jump\t// out\n        /* \"#utility.yul\":26257:28628   */\n    tag_66:\n        /* \"#utility.yul\":27082:27086   */\n      0x00\n        /* \"#utility.yul\":27120:27123   */\n      0xe0\n        /* \"#utility.yul\":27109:27118   */\n      dup3\n        /* \"#utility.yul\":27105:27124   */\n      add\n        /* \"#utility.yul\":27097:27124   */\n      swap1\n      pop\n        /* \"#utility.yul\":27170:27179   */\n      dup2\n        /* \"#utility.yul\":27164:27168   */\n      dup2\n        /* \"#utility.yul\":27160:27180   */\n      sub\n        /* \"#utility.yul\":27156:27157   */\n      0x00\n        /* \"#utility.yul\":27145:27154   */\n      dup4\n        /* \"#utility.yul\":27141:27158   */\n      add\n        /* \"#utility.yul\":27134:27181   */\n      mstore\n        /* \"#utility.yul\":27198:27326   */\n      tag_804\n        /* \"#utility.yul\":27321:27325   */\n      dup2\n        /* \"#utility.yul\":27312:27318   */\n      dup11\n        /* \"#utility.yul\":27198:27326   */\n      tag_503\n      jump\t// in\n    tag_804:\n        /* \"#utility.yul\":27190:27326   */\n      swap1\n      pop\n        /* \"#utility.yul\":27373:27382   */\n      dup2\n        /* \"#utility.yul\":27367:27371   */\n      dup2\n        /* \"#utility.yul\":27363:27383   */\n      sub\n        /* \"#utility.yul\":27358:27360   */\n      0x20\n        /* \"#utility.yul\":27347:27356   */\n      dup4\n        /* \"#utility.yul\":27343:27361   */\n      add\n        /* \"#utility.yul\":27336:27384   */\n      mstore\n        /* \"#utility.yul\":27401:27527   */\n      tag_805\n        /* \"#utility.yul\":27522:27526   */\n      dup2\n        /* \"#utility.yul\":27513:27519   */\n      dup10\n        /* \"#utility.yul\":27401:27527   */\n      tag_508\n      jump\t// in\n    tag_805:\n        /* \"#utility.yul\":27393:27527   */\n      swap1\n      pop\n        /* \"#utility.yul\":27574:27583   */\n      dup2\n        /* \"#utility.yul\":27568:27572   */\n      dup2\n        /* \"#utility.yul\":27564:27584   */\n      sub\n        /* \"#utility.yul\":27559:27561   */\n      0x40\n        /* \"#utility.yul\":27548:27557   */\n      dup4\n        /* \"#utility.yul\":27544:27562   */\n      add\n        /* \"#utility.yul\":27537:27585   */\n      mstore\n        /* \"#utility.yul\":27602:27758   */\n      tag_806\n        /* \"#utility.yul\":27753:27757   */\n      dup2\n        /* \"#utility.yul\":27744:27750   */\n      dup9\n        /* \"#utility.yul\":27602:27758   */\n      tag_521\n      jump\t// in\n    tag_806:\n        /* \"#utility.yul\":27594:27758   */\n      swap1\n      pop\n        /* \"#utility.yul\":27805:27814   */\n      dup2\n        /* \"#utility.yul\":27799:27803   */\n      dup2\n        /* \"#utility.yul\":27795:27815   */\n      sub\n        /* \"#utility.yul\":27790:27792   */\n      0x60\n        /* \"#utility.yul\":27779:27788   */\n      dup4\n        /* \"#utility.yul\":27775:27793   */\n      add\n        /* \"#utility.yul\":27768:27816   */\n      mstore\n        /* \"#utility.yul\":27833:27957   */\n      tag_807\n        /* \"#utility.yul\":27952:27956   */\n      dup2\n        /* \"#utility.yul\":27943:27949   */\n      dup8\n        /* \"#utility.yul\":27833:27957   */\n      tag_526\n      jump\t// in\n    tag_807:\n        /* \"#utility.yul\":27825:27957   */\n      swap1\n      pop\n        /* \"#utility.yul\":28005:28014   */\n      dup2\n        /* \"#utility.yul\":27999:28003   */\n      dup2\n        /* \"#utility.yul\":27995:28015   */\n      sub\n        /* \"#utility.yul\":27989:27992   */\n      0x80\n        /* \"#utility.yul\":27978:27987   */\n      dup4\n        /* \"#utility.yul\":27974:27993   */\n      add\n        /* \"#utility.yul\":27967:28016   */\n      mstore\n        /* \"#utility.yul\":28033:28189   */\n      tag_808\n        /* \"#utility.yul\":28184:28188   */\n      dup2\n        /* \"#utility.yul\":28175:28181   */\n      dup7\n        /* \"#utility.yul\":28033:28189   */\n      tag_521\n      jump\t// in\n    tag_808:\n        /* \"#utility.yul\":28025:28189   */\n      swap1\n      pop\n        /* \"#utility.yul\":28237:28246   */\n      dup2\n        /* \"#utility.yul\":28231:28235   */\n      dup2\n        /* \"#utility.yul\":28227:28247   */\n      sub\n        /* \"#utility.yul\":28221:28224   */\n      0xa0\n        /* \"#utility.yul\":28210:28219   */\n      dup4\n        /* \"#utility.yul\":28206:28225   */\n      add\n        /* \"#utility.yul\":28199:28248   */\n      mstore\n        /* \"#utility.yul\":28265:28389   */\n      tag_809\n        /* \"#utility.yul\":28384:28388   */\n      dup2\n        /* \"#utility.yul\":28375:28381   */\n      dup6\n        /* \"#utility.yul\":28265:28389   */\n      tag_531\n      jump\t// in\n    tag_809:\n        /* \"#utility.yul\":28257:28389   */\n      swap1\n      pop\n        /* \"#utility.yul\":28437:28446   */\n      dup2\n        /* \"#utility.yul\":28431:28435   */\n      dup2\n        /* \"#utility.yul\":28427:28447   */\n      sub\n        /* \"#utility.yul\":28421:28424   */\n      0xc0\n        /* \"#utility.yul\":28410:28419   */\n      dup4\n        /* \"#utility.yul\":28406:28425   */\n      add\n        /* \"#utility.yul\":28399:28448   */\n      mstore\n        /* \"#utility.yul\":28465:28621   */\n      tag_810\n        /* \"#utility.yul\":28616:28620   */\n      dup2\n        /* \"#utility.yul\":28607:28613   */\n      dup5\n        /* \"#utility.yul\":28465:28621   */\n      tag_521\n      jump\t// in\n    tag_810:\n        /* \"#utility.yul\":28457:28621   */\n      swap1\n      pop\n        /* \"#utility.yul\":26257:28628   */\n      swap9\n      swap8\n      pop\n      pop\n      pop\n      pop\n      pop\n      pop\n      pop\n      pop\n      jump\t// out\n        /* \"#utility.yul\":28634:28814   */\n    tag_77:\n        /* \"#utility.yul\":28682:28759   */\n      0x4e487b7100000000000000000000000000000000000000000000000000000000\n        /* \"#utility.yul\":28679:28680   */\n      0x00\n        /* \"#utility.yul\":28672:28760   */\n      mstore\n        /* \"#utility.yul\":28779:28783   */\n      0x32\n        /* \"#utility.yul\":28776:28777   */\n      0x04\n        /* \"#utility.yul\":28769:28784   */\n      mstore\n        /* \"#utility.yul\":28803:28807   */\n      0x24\n        /* \"#utility.yul\":28800:28801   */\n      0x00\n        /* \"#utility.yul\":28793:28808   */\n      revert\n        /* \"#utility.yul\":28820:29000   */\n    tag_532:\n        /* \"#utility.yul\":28868:28945   */\n      0x4e487b7100000000000000000000000000000000000000000000000000000000\n        /* \"#utility.yul\":28865:28866   */\n      0x00\n        /* \"#utility.yul\":28858:28946   */\n      mstore\n        /* \"#utility.yul\":28965:28969   */\n      0x22\n        /* \"#utility.yul\":28962:28963   */\n      0x04\n        /* \"#utility.yul\":28955:28970   */\n      mstore\n        /* \"#utility.yul\":28989:28993   */\n      0x24\n        /* \"#utility.yul\":28986:28987   */\n      0x00\n        /* \"#utility.yul\":28979:28994   */\n      revert\n        /* \"#utility.yul\":29006:29326   */\n    tag_216:\n        /* \"#utility.yul\":29050:29056   */\n      0x00\n        /* \"#utility.yul\":29087:29088   */\n      0x02\n        /* \"#utility.yul\":29081:29085   */\n      dup3\n        /* \"#utility.yul\":29077:29089   */\n      div\n        /* \"#utility.yul\":29067:29089   */\n      swap1\n      pop\n        /* \"#utility.yul\":29134:29135   */\n      0x01\n        /* \"#utility.yul\":29128:29132   */\n      dup3\n        /* \"#utility.yul\":29124:29136   */\n      and\n        /* \"#utility.yul\":29155:29173   */\n      dup1\n        /* \"#utility.yul\":29145:29226   */\n      tag_814\n      jumpi\n        /* \"#utility.yul\":29211:29215   */\n      0x7f\n        /* \"#utility.yul\":29203:29209   */\n      dup3\n        /* \"#utility.yul\":29199:29216   */\n      and\n        /* \"#utility.yul\":29189:29216   */\n      swap2\n      pop\n        /* \"#utility.yul\":29145:29226   */\n    tag_814:\n        /* \"#utility.yul\":29273:29275   */\n      0x20\n        /* \"#utility.yul\":29265:29271   */\n      dup3\n        /* \"#utility.yul\":29262:29276   */\n      lt\n        /* \"#utility.yul\":29242:29260   */\n      dup2\n        /* \"#utility.yul\":29239:29277   */\n      sub\n        /* \"#utility.yul\":29236:29320   */\n      tag_815\n      jumpi\n        /* \"#utility.yul\":29292:29310   */\n      tag_816\n      tag_532\n      jump\t// in\n    tag_816:\n        /* \"#utility.yul\":29236:29320   */\n    tag_815:\n        /* \"#utility.yul\":29057:29326   */\n      pop\n        /* \"#utility.yul\":29006:29326   */\n      swap2\n      swap1\n      pop\n      jump\t// out\n        /* \"#utility.yul\":29332:29480   */\n    tag_533:\n        /* \"#utility.yul\":29434:29445   */\n      0x00\n        /* \"#utility.yul\":29471:29474   */\n      dup2\n        /* \"#utility.yul\":29456:29474   */\n      swap1\n      pop\n        /* \"#utility.yul\":29332:29480   */\n      swap3\n      swap2\n      pop\n      pop\n      jump\t// out\n        /* \"#utility.yul\":29486:29627   */\n    tag_534:\n        /* \"#utility.yul\":29535:29539   */\n      0x00\n        /* \"#utility.yul\":29558:29561   */\n      dup2\n        /* \"#utility.yul\":29550:29561   */\n      swap1\n      pop\n        /* \"#utility.yul\":29581:29584   */\n      dup2\n        /* \"#utility.yul\":29578:29579   */\n      0x00\n        /* \"#utility.yul\":29571:29585   */\n      mstore\n        /* \"#utility.yul\":29615:29619   */\n      0x20\n        /* \"#utility.yul\":29612:29613   */\n      0x00\n        /* \"#utility.yul\":29602:29620   */\n      keccak256\n        /* \"#utility.yul\":29594:29620   */\n      swap1\n      pop\n        /* \"#utility.yul\":29486:29627   */\n      swap2\n      swap1\n      pop\n      jump\t// out\n        /* \"#utility.yul\":29657:30531   */\n    tag_535:\n        /* \"#utility.yul\":29760:29763   */\n      0x00\n        /* \"#utility.yul\":29797:29802   */\n      dup2\n        /* \"#utility.yul\":29791:29803   */\n      sload\n        /* \"#utility.yul\":29826:29862   */\n      tag_820\n        /* \"#utility.yul\":29852:29861   */\n      dup2\n        /* \"#utility.yul\":29826:29862   */\n      tag_216\n      jump\t// in\n    tag_820:\n        /* \"#utility.yul\":29878:29967   */\n      tag_821\n        /* \"#utility.yul\":29960:29966   */\n      dup2\n        /* \"#utility.yul\":29955:29958   */\n      dup7\n        /* \"#utility.yul\":29878:29967   */\n      tag_533\n      jump\t// in\n    tag_821:\n        /* \"#utility.yul\":29871:29967   */\n      swap5\n      pop\n        /* \"#utility.yul\":29998:29999   */\n      0x01\n        /* \"#utility.yul\":29987:29996   */\n      dup3\n        /* \"#utility.yul\":29983:30000   */\n      and\n        /* \"#utility.yul\":30014:30015   */\n      0x00\n        /* \"#utility.yul\":30009:30175   */\n      dup2\n      eq\n      tag_823\n      jumpi\n        /* \"#utility.yul\":30189:30190   */\n      0x01\n        /* \"#utility.yul\":30184:30525   */\n      dup2\n      eq\n      tag_824\n      jumpi\n        /* \"#utility.yul\":29976:30525   */\n      jump(tag_822)\n        /* \"#utility.yul\":30009:30175   */\n    tag_823:\n        /* \"#utility.yul\":30093:30097   */\n      0xff\n        /* \"#utility.yul\":30089:30098   */\n      not\n        /* \"#utility.yul\":30078:30087   */\n      dup4\n        /* \"#utility.yul\":30074:30099   */\n      and\n        /* \"#utility.yul\":30069:30072   */\n      dup7\n        /* \"#utility.yul\":30062:30100   */\n      mstore\n        /* \"#utility.yul\":30155:30161   */\n      dup2\n        /* \"#utility.yul\":30148:30162   */\n      iszero\n        /* \"#utility.yul\":30141:30163   */\n      iszero\n        /* \"#utility.yul\":30133:30139   */\n      dup3\n        /* \"#utility.yul\":30129:30164   */\n      mul\n        /* \"#utility.yul\":30124:30127   */\n      dup7\n        /* \"#utility.yul\":30120:30165   */\n      add\n        /* \"#utility.yul\":30113:30165   */\n      swap4\n      pop\n        /* \"#utility.yul\":30009:30175   */\n      jump(tag_822)\n        /* \"#utility.yul\":30184:30525   */\n    tag_824:\n        /* \"#utility.yul\":30251:30289   */\n      tag_825\n        /* \"#utility.yul\":30283:30288   */\n      dup6\n        /* \"#utility.yul\":30251:30289   */\n      tag_534\n      jump\t// in\n    tag_825:\n        /* \"#utility.yul\":30311:30312   */\n      0x00\n        /* \"#utility.yul\":30325:30479   */\n    tag_826:\n        /* \"#utility.yul\":30339:30345   */\n      dup4\n        /* \"#utility.yul\":30336:30337   */\n      dup2\n        /* \"#utility.yul\":30333:30346   */\n      lt\n        /* \"#utility.yul\":30325:30479   */\n      iszero\n      tag_828\n      jumpi\n        /* \"#utility.yul\":30413:30420   */\n      dup2\n        /* \"#utility.yul\":30407:30421   */\n      sload\n        /* \"#utility.yul\":30403:30404   */\n      dup2\n        /* \"#utility.yul\":30398:30401   */\n      dup10\n        /* \"#utility.yul\":30394:30405   */\n      add\n        /* \"#utility.yul\":30387:30422   */\n      mstore\n        /* \"#utility.yul\":30463:30464   */\n      0x01\n        /* \"#utility.yul\":30454:30461   */\n      dup3\n        /* \"#utility.yul\":30450:30465   */\n      add\n        /* \"#utility.yul\":30439:30465   */\n      swap2\n      pop\n        /* \"#utility.yul\":30361:30365   */\n      0x20\n        /* \"#utility.yul\":30358:30359   */\n      dup2\n        /* \"#utility.yul\":30354:30366   */\n      add\n        /* \"#utility.yul\":30349:30366   */\n      swap1\n      pop\n        /* \"#utility.yul\":30325:30479   */\n      jump(tag_826)\n    tag_828:\n        /* \"#utility.yul\":30508:30514   */\n      dup4\n        /* \"#utility.yul\":30503:30506   */\n      dup9\n        /* \"#utility.yul\":30499:30515   */\n      add\n        /* \"#utility.yul\":30492:30515   */\n      swap6\n      pop\n        /* \"#utility.yul\":30191:30525   */\n      pop\n      pop\n        /* \"#utility.yul\":29976:30525   */\n    tag_822:\n      pop\n        /* \"#utility.yul\":29764:30531   */\n      pop\n      pop\n        /* \"#utility.yul\":29657:30531   */\n      swap3\n      swap2\n      pop\n      pop\n      jump\t// out\n        /* \"#utility.yul\":30537:30806   */\n    tag_80:\n        /* \"#utility.yul\":30666:30669   */\n      0x00\n        /* \"#utility.yul\":30688:30780   */\n      tag_830\n        /* \"#utility.yul\":30776:30779   */\n      dup3\n        /* \"#utility.yul\":30767:30773   */\n      dup5\n        /* \"#utility.yul\":30688:30780   */\n      tag_535\n      jump\t// in\n    tag_830:\n        /* \"#utility.yul\":30681:30780   */\n      swap2\n      pop\n        /* \"#utility.yul\":30797:30800   */\n      dup2\n        /* \"#utility.yul\":30790:30800   */\n      swap1\n      pop\n        /* \"#utility.yul\":30537:30806   */\n      swap3\n      swap2\n      pop\n      pop\n      jump\t// out\n        /* \"#utility.yul\":30812:31202   */\n    tag_536:\n        /* \"#utility.yul\":30918:30921   */\n      0x00\n        /* \"#utility.yul\":30946:30985   */\n      tag_832\n        /* \"#utility.yul\":30979:30984   */\n      dup3\n        /* \"#utility.yul\":30946:30985   */\n      tag_486\n      jump\t// in\n    tag_832:\n        /* \"#utility.yul\":31001:31090   */\n      tag_833\n        /* \"#utility.yul\":31083:31089   */\n      dup2\n        /* \"#utility.yul\":31078:31081   */\n      dup6\n        /* \"#utility.yul\":31001:31090   */\n      tag_533\n      jump\t// in\n    tag_833:\n        /* \"#utility.yul\":30994:31090   */\n      swap4\n      pop\n        /* \"#utility.yul\":31099:31164   */\n      tag_834\n        /* \"#utility.yul\":31157:31163   */\n      dup2\n        /* \"#utility.yul\":31152:31155   */\n      dup6\n        /* \"#utility.yul\":31145:31149   */\n      0x20\n        /* \"#utility.yul\":31138:31143   */\n      dup7\n        /* \"#utility.yul\":31134:31150   */\n      add\n        /* \"#utility.yul\":31099:31164   */\n      tag_488\n      jump\t// in\n    tag_834:\n        /* \"#utility.yul\":31189:31195   */\n      dup1\n        /* \"#utility.yul\":31184:31187   */\n      dup5\n        /* \"#utility.yul\":31180:31196   */\n      add\n        /* \"#utility.yul\":31173:31196   */\n      swap2\n      pop\n        /* \"#utility.yul\":30922:31202   */\n      pop\n        /* \"#utility.yul\":30812:31202   */\n      swap3\n      swap2\n      pop\n      pop\n      jump\t// out\n        /* \"#utility.yul\":31208:31483   */\n    tag_82:\n        /* \"#utility.yul\":31340:31343   */\n      0x00\n        /* \"#utility.yul\":31362:31457   */\n      tag_836\n        /* \"#utility.yul\":31453:31456   */\n      dup3\n        /* \"#utility.yul\":31444:31450   */\n      dup5\n        /* \"#utility.yul\":31362:31457   */\n      tag_536\n      jump\t// in\n    tag_836:\n        /* \"#utility.yul\":31355:31457   */\n      swap2\n      pop\n        /* \"#utility.yul\":31474:31477   */\n      dup2\n        /* \"#utility.yul\":31467:31477   */\n      swap1\n      pop\n        /* \"#utility.yul\":31208:31483   */\n      swap3\n      swap2\n      pop\n      pop\n      jump\t// out\n        /* \"#utility.yul\":31489:31657   */\n    tag_537:\n        /* \"#utility.yul\":31629:31649   */\n      0x494420616c7265616479206578697374732e0000000000000000000000000000\n        /* \"#utility.yul\":31625:31626   */\n      0x00\n        /* \"#utility.yul\":31617:31623   */\n      dup3\n        /* \"#utility.yul\":31613:31627   */\n      add\n        /* \"#utility.yul\":31606:31650   */\n      mstore\n        /* \"#utility.yul\":31489:31657   */\n      pop\n      jump\t// out\n        /* \"#utility.yul\":31663:32029   */\n    tag_538:\n        /* \"#utility.yul\":31805:31808   */\n      0x00\n        /* \"#utility.yul\":31826:31893   */\n      tag_839\n        /* \"#utility.yul\":31890:31892   */\n      0x12\n        /* \"#utility.yul\":31885:31888   */\n      dup4\n        /* \"#utility.yul\":31826:31893   */\n      tag_496\n      jump\t// in\n    tag_839:\n        /* \"#utility.yul\":31819:31893   */\n      swap2\n      pop\n        /* \"#utility.yul\":31902:31995   */\n      tag_840\n        /* \"#utility.yul\":31991:31994   */\n      dup3\n        /* \"#utility.yul\":31902:31995   */\n      tag_537\n      jump\t// in\n    tag_840:\n        /* \"#utility.yul\":32020:32022   */\n      0x20\n        /* \"#utility.yul\":32015:32018   */\n      dup3\n        /* \"#utility.yul\":32011:32023   */\n      add\n        /* \"#utility.yul\":32004:32023   */\n      swap1\n      pop\n        /* \"#utility.yul\":31663:32029   */\n      swap2\n      swap1\n      pop\n      jump\t// out\n        /* \"#utility.yul\":32035:32454   */\n    tag_85:\n        /* \"#utility.yul\":32201:32205   */\n      0x00\n        /* \"#utility.yul\":32239:32241   */\n      0x20\n        /* \"#utility.yul\":32228:32237   */\n      dup3\n        /* \"#utility.yul\":32224:32242   */\n      add\n        /* \"#utility.yul\":32216:32242   */\n      swap1\n      pop\n        /* \"#utility.yul\":32288:32297   */\n      dup2\n        /* \"#utility.yul\":32282:32286   */\n      dup2\n        /* \"#utility.yul\":32278:32298   */\n      sub\n        /* \"#utility.yul\":32274:32275   */\n      0x00\n        /* \"#utility.yul\":32263:32272   */\n      dup4\n        /* \"#utility.yul\":32259:32276   */\n      add\n        /* \"#utility.yul\":32252:32299   */\n      mstore\n        /* \"#utility.yul\":32316:32447   */\n      tag_842\n        /* \"#utility.yul\":32442:32446   */\n      dup2\n        /* \"#utility.yul\":32316:32447   */\n      tag_538\n      jump\t// in\n    tag_842:\n        /* \"#utility.yul\":32308:32447   */\n      swap1\n      pop\n        /* \"#utility.yul\":32035:32454   */\n      swap2\n      swap1\n      pop\n      jump\t// out\n        /* \"#utility.yul\":32460:32640   */\n    tag_539:\n        /* \"#utility.yul\":32508:32585   */\n      0x4e487b7100000000000000000000000000000000000000000000000000000000\n        /* \"#utility.yul\":32505:32506   */\n      0x00\n        /* \"#utility.yul\":32498:32586   */\n      mstore\n        /* \"#utility.yul\":32605:32609   */\n      0x11\n        /* \"#utility.yul\":32602:32603   */\n      0x04\n        /* \"#utility.yul\":32595:32610   */\n      mstore\n        /* \"#utility.yul\":32629:32633   */\n      0x24\n        /* \"#utility.yul\":32626:32627   */\n      0x00\n        /* \"#utility.yul\":32619:32634   */\n      revert\n        /* \"#utility.yul\":32646:32879   */\n    tag_87:\n        /* \"#utility.yul\":32685:32688   */\n      0x00\n        /* \"#utility.yul\":32708:32732   */\n      tag_845\n        /* \"#utility.yul\":32726:32731   */\n      dup3\n        /* \"#utility.yul\":32708:32732   */\n      tag_477\n      jump\t// in\n    tag_845:\n        /* \"#utility.yul\":32699:32732   */\n      swap2\n      pop\n        /* \"#utility.yul\":32754:32820   */\n      0xffffffffffffffffffffffffffffffffffffffffffffffffffffffffffffffff\n        /* \"#utility.yul\":32747:32752   */\n      dup3\n        /* \"#utility.yul\":32744:32821   */\n      sub\n        /* \"#utility.yul\":32741:32844   */\n      tag_846\n      jumpi\n        /* \"#utility.yul\":32824:32842   */\n      tag_847\n      tag_539\n      jump\t// in\n    tag_847:\n        /* \"#utility.yul\":32741:32844   */\n    tag_846:\n        /* \"#utility.yul\":32871:32872   */\n      0x01\n        /* \"#utility.yul\":32864:32869   */\n      dup3\n        /* \"#utility.yul\":32860:32873   */\n      add\n        /* \"#utility.yul\":32853:32873   */\n      swap1\n      pop\n        /* \"#utility.yul\":32646:32879   */\n      swap2\n      swap1\n      pop\n      jump\t// out\n        /* \"#utility.yul\":32885:32978   */\n    tag_540:\n        /* \"#utility.yul\":32922:32928   */\n      0x00\n        /* \"#utility.yul\":32969:32971   */\n      0x20\n        /* \"#utility.yul\":32964:32966   */\n      0x1f\n        /* \"#utility.yul\":32957:32962   */\n      dup4\n        /* \"#utility.yul\":32953:32967   */\n      add\n        /* \"#utility.yul\":32949:32972   */\n      div\n        /* \"#utility.yul\":32939:32972   */\n      swap1\n      pop\n        /* \"#utility.yul\":32885:32978   */\n      swap2\n      swap1\n      pop\n      jump\t// out\n        /* \"#utility.yul\":32984:33091   */\n    tag_541:\n        /* \"#utility.yul\":33028:33036   */\n      0x00\n        /* \"#utility.yul\":33078:33083   */\n      dup3\n        /* \"#utility.yul\":33072:33076   */\n      dup3\n        /* \"#utility.yul\":33068:33084   */\n      shl\n        /* \"#utility.yul\":33047:33084   */\n      swap1\n      pop\n        /* \"#utility.yul\":32984:33091   */\n      swap3\n      swap2\n      pop\n      pop\n      jump\t// out\n        /* \"#utility.yul\":33097:33490   */\n    tag_542:\n        /* \"#utility.yul\":33166:33172   */\n      0x00\n        /* \"#utility.yul\":33216:33217   */\n      0x08\n        /* \"#utility.yul\":33204:33214   */\n      dup4\n        /* \"#utility.yul\":33200:33218   */\n      mul\n        /* \"#utility.yul\":33239:33336   */\n      tag_851\n        /* \"#utility.yul\":33269:33335   */\n      0xffffffffffffffffffffffffffffffffffffffffffffffffffffffffffffffff\n        /* \"#utility.yul\":33258:33267   */\n      dup3\n        /* \"#utility.yul\":33239:33336   */\n      tag_541\n      jump\t// in\n    tag_851:\n        /* \"#utility.yul\":33357:33396   */\n      tag_852\n        /* \"#utility.yul\":33387:33395   */\n      dup7\n        /* \"#utility.yul\":33376:33385   */\n      dup4\n        /* \"#utility.yul\":33357:33396   */\n      tag_541\n      jump\t// in\n    tag_852:\n        /* \"#utility.yul\":33345:33396   */\n      swap6\n      pop\n        /* \"#utility.yul\":33429:33433   */\n      dup1\n        /* \"#utility.yul\":33425:33434   */\n      not\n        /* \"#utility.yul\":33418:33423   */\n      dup5\n        /* \"#utility.yul\":33414:33435   */\n      and\n        /* \"#utility.yul\":33405:33435   */\n      swap4\n      pop\n        /* \"#utility.yul\":33478:33482   */\n      dup1\n        /* \"#utility.yul\":33468:33476   */\n      dup7\n        /* \"#utility.yul\":33464:33483   */\n      and\n        /* \"#utility.yul\":33457:33462   */\n      dup5\n        /* \"#utility.yul\":33454:33484   */\n      or\n        /* \"#utility.yul\":33444:33484   */\n      swap3\n      pop\n        /* \"#utility.yul\":33173:33490   */\n      pop\n      pop\n        /* \"#utility.yul\":33097:33490   */\n      swap4\n      swap3\n      pop\n      pop\n      pop\n      jump\t// out\n        /* \"#utility.yul\":33496:33556   */\n    tag_543:\n        /* \"#utility.yul\":33524:33527   */\n      0x00\n        /* \"#utility.yul\":33545:33550   */\n      dup2\n        /* \"#utility.yul\":33538:33550   */\n      swap1\n      pop\n        /* \"#utility.yul\":33496:33556   */\n      swap2\n      swap1\n      pop\n      jump\t// out\n        /* \"#utility.yul\":33562:33704   */\n    tag_544:\n        /* \"#utility.yul\":33612:33621   */\n      0x00\n        /* \"#utility.yul\":33645:33698   */\n      tag_855\n        /* \"#utility.yul\":33663:33697   */\n      tag_856\n        /* \"#utility.yul\":33672:33696   */\n      tag_857\n        /* \"#utility.yul\":33690:33695   */\n      dup5\n        /* \"#utility.yul\":33672:33696   */\n      tag_477\n      jump\t// in\n    tag_857:\n        /* \"#utility.yul\":33663:33697   */\n      tag_543\n      jump\t// in\n    tag_856:\n        /* \"#utility.yul\":33645:33698   */\n      tag_477\n      jump\t// in\n    tag_855:\n        /* \"#utility.yul\":33632:33698   */\n      swap1\n      pop\n        /* \"#utility.yul\":33562:33704   */\n      swap2\n      swap1\n      pop\n      jump\t// out\n        /* \"#utility.yul\":33710:33785   */\n    tag_545:\n        /* \"#utility.yul\":33753:33756   */\n      0x00\n        /* \"#utility.yul\":33774:33779   */\n      dup2\n        /* \"#utility.yul\":33767:33779   */\n      swap1\n      pop\n        /* \"#utility.yul\":33710:33785   */\n      swap2\n      swap1\n      pop\n      jump\t// out\n        /* \"#utility.yul\":33791:34060   */\n    tag_546:\n        /* \"#utility.yul\":33901:33940   */\n      tag_860\n        /* \"#utility.yul\":33932:33939   */\n      dup4\n        /* \"#utility.yul\":33901:33940   */\n      tag_544\n      jump\t// in\n    tag_860:\n        /* \"#utility.yul\":33962:34053   */\n      tag_861\n        /* \"#utility.yul\":34011:34052   */\n      tag_862\n        /* \"#utility.yul\":34035:34051   */\n      dup3\n        /* \"#utility.yul\":34011:34052   */\n      tag_545\n      jump\t// in\n    tag_862:\n        /* \"#utility.yul\":34003:34009   */\n      dup5\n        /* \"#utility.yul\":33996:34000   */\n      dup5\n        /* \"#utility.yul\":33990:34001   */\n      sload\n        /* \"#utility.yul\":33962:34053   */\n      tag_542\n      jump\t// in\n    tag_861:\n        /* \"#utility.yul\":33956:33960   */\n      dup3\n        /* \"#utility.yul\":33949:34054   */\n      sstore\n        /* \"#utility.yul\":33867:34060   */\n      pop\n        /* \"#utility.yul\":33791:34060   */\n      pop\n      pop\n      pop\n      jump\t// out\n        /* \"#utility.yul\":34066:34139   */\n    tag_547:\n        /* \"#utility.yul\":34111:34114   */\n      0x00\n        /* \"#utility.yul\":34066:34139   */\n      swap1\n      jump\t// out\n        /* \"#utility.yul\":34145:34334   */\n    tag_548:\n        /* \"#utility.yul\":34222:34254   */\n      tag_865\n      tag_547\n      jump\t// in\n    tag_865:\n        /* \"#utility.yul\":34263:34328   */\n      tag_866\n        /* \"#utility.yul\":34321:34327   */\n      dup2\n        /* \"#utility.yul\":34313:34319   */\n      dup5\n        /* \"#utility.yul\":34307:34311   */\n      dup5\n        /* \"#utility.yul\":34263:34328   */\n      tag_546\n      jump\t// in\n    tag_866:\n        /* \"#utility.yul\":34198:34334   */\n      pop\n        /* \"#utility.yul\":34145:34334   */\n      pop\n      pop\n      jump\t// out\n        /* \"#utility.yul\":34340:34526   */\n    tag_549:\n        /* \"#utility.yul\":34400:34520   */\n    tag_868:\n        /* \"#utility.yul\":34417:34420   */\n      dup2\n        /* \"#utility.yul\":34410:34415   */\n      dup2\n        /* \"#utility.yul\":34407:34421   */\n      lt\n        /* \"#utility.yul\":34400:34520   */\n      iszero\n      tag_870\n      jumpi\n        /* \"#utility.yul\":34471:34510   */\n      tag_871\n        /* \"#utility.yul\":34508:34509   */\n      0x00\n        /* \"#utility.yul\":34501:34506   */\n      dup3\n        /* \"#utility.yul\":34471:34510   */\n      tag_548\n      jump\t// in\n    tag_871:\n        /* \"#utility.yul\":34444:34445   */\n      0x01\n        /* \"#utility.yul\":34437:34442   */\n      dup2\n        /* \"#utility.yul\":34433:34446   */\n      add\n        /* \"#utility.yul\":34424:34446   */\n      swap1\n      pop\n        /* \"#utility.yul\":34400:34520   */\n      jump(tag_868)\n    tag_870:\n        /* \"#utility.yul\":34340:34526   */\n      pop\n      pop\n      jump\t// out\n        /* \"#utility.yul\":34532:35075   */\n    tag_550:\n        /* \"#utility.yul\":34633:34635   */\n      0x1f\n        /* \"#utility.yul\":34628:34631   */\n      dup3\n        /* \"#utility.yul\":34625:34636   */\n      gt\n        /* \"#utility.yul\":34622:35068   */\n      iszero\n      tag_873\n      jumpi\n        /* \"#utility.yul\":34667:34705   */\n      tag_874\n        /* \"#utility.yul\":34699:34704   */\n      dup2\n        /* \"#utility.yul\":34667:34705   */\n      tag_534\n      jump\t// in\n    tag_874:\n        /* \"#utility.yul\":34751:34780   */\n      tag_875\n        /* \"#utility.yul\":34769:34779   */\n      dup5\n        /* \"#utility.yul\":34751:34780   */\n      tag_540\n      jump\t// in\n    tag_875:\n        /* \"#utility.yul\":34741:34749   */\n      dup2\n        /* \"#utility.yul\":34737:34781   */\n      add\n        /* \"#utility.yul\":34934:34936   */\n      0x20\n        /* \"#utility.yul\":34922:34932   */\n      dup6\n        /* \"#utility.yul\":34919:34937   */\n      lt\n        /* \"#utility.yul\":34916:34965   */\n      iszero\n      tag_876\n      jumpi\n        /* \"#utility.yul\":34955:34963   */\n      dup2\n        /* \"#utility.yul\":34940:34963   */\n      swap1\n      pop\n        /* \"#utility.yul\":34916:34965   */\n    tag_876:\n        /* \"#utility.yul\":34978:35058   */\n      tag_877\n        /* \"#utility.yul\":35034:35056   */\n      tag_878\n        /* \"#utility.yul\":35052:35055   */\n      dup6\n        /* \"#utility.yul\":35034:35056   */\n      tag_540\n      jump\t// in\n    tag_878:\n        /* \"#utility.yul\":35024:35032   */\n      dup4\n        /* \"#utility.yul\":35020:35057   */\n      add\n        /* \"#utility.yul\":35007:35018   */\n      dup3\n        /* \"#utility.yul\":34978:35058   */\n      tag_549\n      jump\t// in\n    tag_877:\n        /* \"#utility.yul\":34637:35068   */\n      pop\n      pop\n        /* \"#utility.yul\":34622:35068   */\n    tag_873:\n        /* \"#utility.yul\":34532:35075   */\n      pop\n      pop\n      pop\n      jump\t// out\n        /* \"#utility.yul\":35081:35198   */\n    tag_551:\n        /* \"#utility.yul\":35135:35143   */\n      0x00\n        /* \"#utility.yul\":35185:35190   */\n      dup3\n        /* \"#utility.yul\":35179:35183   */\n      dup3\n        /* \"#utility.yul\":35175:35191   */\n      shr\n        /* \"#utility.yul\":35154:35191   */\n      swap1\n      pop\n        /* \"#utility.yul\":35081:35198   */\n      swap3\n      swap2\n      pop\n      pop\n      jump\t// out\n        /* \"#utility.yul\":35204:35373   */\n    tag_552:\n        /* \"#utility.yul\":35248:35254   */\n      0x00\n        /* \"#utility.yul\":35281:35332   */\n      tag_881\n        /* \"#utility.yul\":35329:35330   */\n      0x00\n        /* \"#utility.yul\":35325:35331   */\n      not\n        /* \"#utility.yul\":35317:35322   */\n      dup5\n        /* \"#utility.yul\":35314:35315   */\n      0x08\n        /* \"#utility.yul\":35310:35323   */\n      mul\n        /* \"#utility.yul\":35281:35332   */\n      tag_551\n      jump\t// in\n    tag_881:\n        /* \"#utility.yul\":35277:35333   */\n      not\n        /* \"#utility.yul\":35362:35366   */\n      dup1\n        /* \"#utility.yul\":35356:35360   */\n      dup4\n        /* \"#utility.yul\":35352:35367   */\n      and\n        /* \"#utility.yul\":35342:35367   */\n      swap2\n      pop\n        /* \"#utility.yul\":35255:35373   */\n      pop\n        /* \"#utility.yul\":35204:35373   */\n      swap3\n      swap2\n      pop\n      pop\n      jump\t// out\n        /* \"#utility.yul\":35378:35673   */\n    tag_553:\n        /* \"#utility.yul\":35454:35458   */\n      0x00\n        /* \"#utility.yul\":35600:35629   */\n      tag_883\n        /* \"#utility.yul\":35625:35628   */\n      dup4\n        /* \"#utility.yul\":35619:35623   */\n      dup4\n        /* \"#utility.yul\":35600:35629   */\n      tag_552\n      jump\t// in\n    tag_883:\n        /* \"#utility.yul\":35592:35629   */\n      swap2\n      pop\n        /* \"#utility.yul\":35662:35665   */\n      dup3\n        /* \"#utility.yul\":35659:35660   */\n      0x02\n        /* \"#utility.yul\":35655:35666   */\n      mul\n        /* \"#utility.yul\":35649:35653   */\n      dup3\n        /* \"#utility.yul\":35646:35667   */\n      or\n        /* \"#utility.yul\":35638:35667   */\n      swap1\n      pop\n        /* \"#utility.yul\":35378:35673   */\n      swap3\n      swap2\n      pop\n      pop\n      jump\t// out\n        /* \"#utility.yul\":35678:37073   */\n    tag_90:\n        /* \"#utility.yul\":35795:35832   */\n      tag_885\n        /* \"#utility.yul\":35828:35831   */\n      dup3\n        /* \"#utility.yul\":35795:35832   */\n      tag_486\n      jump\t// in\n    tag_885:\n        /* \"#utility.yul\":35897:35915   */\n      0xffffffffffffffff\n        /* \"#utility.yul\":35889:35895   */\n      dup2\n        /* \"#utility.yul\":35886:35916   */\n      gt\n        /* \"#utility.yul\":35883:35939   */\n      iszero\n      tag_886\n      jumpi\n        /* \"#utility.yul\":35919:35937   */\n      tag_887\n      tag_103\n      jump\t// in\n    tag_887:\n        /* \"#utility.yul\":35883:35939   */\n    tag_886:\n        /* \"#utility.yul\":35963:36001   */\n      tag_888\n        /* \"#utility.yul\":35995:35999   */\n      dup3\n        /* \"#utility.yul\":35989:36000   */\n      sload\n        /* \"#utility.yul\":35963:36001   */\n      tag_216\n      jump\t// in\n    tag_888:\n        /* \"#utility.yul\":36048:36115   */\n      tag_889\n        /* \"#utility.yul\":36108:36114   */\n      dup3\n        /* \"#utility.yul\":36100:36106   */\n      dup3\n        /* \"#utility.yul\":36094:36098   */\n      dup6\n        /* \"#utility.yul\":36048:36115   */\n      tag_550\n      jump\t// in\n    tag_889:\n        /* \"#utility.yul\":36142:36143   */\n      0x00\n        /* \"#utility.yul\":36166:36170   */\n      0x20\n        /* \"#utility.yul\":36153:36170   */\n      swap1\n      pop\n        /* \"#utility.yul\":36198:36200   */\n      0x1f\n        /* \"#utility.yul\":36190:36196   */\n      dup4\n        /* \"#utility.yul\":36187:36201   */\n      gt\n        /* \"#utility.yul\":36215:36216   */\n      0x01\n        /* \"#utility.yul\":36210:36828   */\n      dup2\n      eq\n      tag_891\n      jumpi\n        /* \"#utility.yul\":36872:36873   */\n      0x00\n        /* \"#utility.yul\":36889:36895   */\n      dup5\n        /* \"#utility.yul\":36886:36963   */\n      iszero\n      tag_892\n      jumpi\n        /* \"#utility.yul\":36938:36947   */\n      dup3\n        /* \"#utility.yul\":36933:36936   */\n      dup8\n        /* \"#utility.yul\":36929:36948   */\n      add\n        /* \"#utility.yul\":36923:36949   */\n      mload\n        /* \"#utility.yul\":36914:36949   */\n      swap1\n      pop\n        /* \"#utility.yul\":36886:36963   */\n    tag_892:\n        /* \"#utility.yul\":36989:37056   */\n      tag_893\n        /* \"#utility.yul\":37049:37055   */\n      dup6\n        /* \"#utility.yul\":37042:37047   */\n      dup3\n        /* \"#utility.yul\":36989:37056   */\n      tag_553\n      jump\t// in\n    tag_893:\n        /* \"#utility.yul\":36983:36987   */\n      dup7\n        /* \"#utility.yul\":36976:37057   */\n      sstore\n        /* \"#utility.yul\":36845:37067   */\n      pop\n        /* \"#utility.yul\":36180:37067   */\n      jump(tag_890)\n        /* \"#utility.yul\":36210:36828   */\n    tag_891:\n        /* \"#utility.yul\":36262:36266   */\n      0x1f\n        /* \"#utility.yul\":36258:36267   */\n      not\n        /* \"#utility.yul\":36250:36256   */\n      dup5\n        /* \"#utility.yul\":36246:36268   */\n      and\n        /* \"#utility.yul\":36296:36333   */\n      tag_894\n        /* \"#utility.yul\":36328:36332   */\n      dup7\n        /* \"#utility.yul\":36296:36333   */\n      tag_534\n      jump\t// in\n    tag_894:\n        /* \"#utility.yul\":36355:36356   */\n      0x00\n        /* \"#utility.yul\":36369:36577   */\n    tag_895:\n        /* \"#utility.yul\":36383:36390   */\n      dup3\n        /* \"#utility.yul\":36380:36381   */\n      dup2\n        /* \"#utility.yul\":36377:36391   */\n      lt\n        /* \"#utility.yul\":36369:36577   */\n      iszero\n      tag_897\n      jumpi\n        /* \"#utility.yul\":36462:36471   */\n      dup5\n        /* \"#utility.yul\":36457:36460   */\n      dup10\n        /* \"#utility.yul\":36453:36472   */\n      add\n        /* \"#utility.yul\":36447:36473   */\n      mload\n        /* \"#utility.yul\":36439:36445   */\n      dup3\n        /* \"#utility.yul\":36432:36474   */\n      sstore\n        /* \"#utility.yul\":36513:36514   */\n      0x01\n        /* \"#utility.yul\":36505:36511   */\n      dup3\n        /* \"#utility.yul\":36501:36515   */\n      add\n        /* \"#utility.yul\":36491:36515   */\n      swap2\n      pop\n        /* \"#utility.yul\":36560:36562   */\n      0x20\n        /* \"#utility.yul\":36549:36558   */\n      dup6\n        /* \"#utility.yul\":36545:36563   */\n      add\n        /* \"#utility.yul\":36532:36563   */\n      swap5\n      pop\n        /* \"#utility.yul\":36406:36410   */\n      0x20\n        /* \"#utility.yul\":36403:36404   */\n      dup2\n        /* \"#utility.yul\":36399:36411   */\n      add\n        /* \"#utility.yul\":36394:36411   */\n      swap1\n      pop\n        /* \"#utility.yul\":36369:36577   */\n      jump(tag_895)\n    tag_897:\n        /* \"#utility.yul\":36605:36611   */\n      dup7\n        /* \"#utility.yul\":36596:36603   */\n      dup4\n        /* \"#utility.yul\":36593:36612   */\n      lt\n        /* \"#utility.yul\":36590:36769   */\n      iszero\n      tag_898\n      jumpi\n        /* \"#utility.yul\":36663:36672   */\n      dup5\n        /* \"#utility.yul\":36658:36661   */\n      dup10\n        /* \"#utility.yul\":36654:36673   */\n      add\n        /* \"#utility.yul\":36648:36674   */\n      mload\n        /* \"#utility.yul\":36706:36754   */\n      tag_899\n        /* \"#utility.yul\":36748:36752   */\n      0x1f\n        /* \"#utility.yul\":36740:36746   */\n      dup10\n        /* \"#utility.yul\":36736:36753   */\n      and\n        /* \"#utility.yul\":36725:36734   */\n      dup3\n        /* \"#utility.yul\":36706:36754   */\n      tag_552\n      jump\t// in\n    tag_899:\n        /* \"#utility.yul\":36698:36704   */\n      dup4\n        /* \"#utility.yul\":36691:36755   */\n      sstore\n        /* \"#utility.yul\":36613:36769   */\n      pop\n        /* \"#utility.yul\":36590:36769   */\n    tag_898:\n        /* \"#utility.yul\":36815:36816   */\n      0x01\n        /* \"#utility.yul\":36811:36812   */\n      0x02\n        /* \"#utility.yul\":36803:36809   */\n      dup9\n        /* \"#utility.yul\":36799:36813   */\n      mul\n        /* \"#utility.yul\":36795:36817   */\n      add\n        /* \"#utility.yul\":36789:36793   */\n      dup9\n        /* \"#utility.yul\":36782:36818   */\n      sstore\n        /* \"#utility.yul\":36217:36828   */\n      pop\n      pop\n      pop\n        /* \"#utility.yul\":36180:37067   */\n    tag_890:\n      pop\n        /* \"#utility.yul\":35770:37073   */\n      pop\n      pop\n      pop\n        /* \"#utility.yul\":35678:37073   */\n      pop\n      pop\n      jump\t// out\n        /* \"#utility.yul\":37079:37273   */\n    tag_93:\n        /* \"#utility.yul\":37119:37123   */\n      0x00\n        /* \"#utility.yul\":37139:37159   */\n      tag_901\n        /* \"#utility.yul\":37157:37158   */\n      dup3\n        /* \"#utility.yul\":37139:37159   */\n      tag_477\n      jump\t// in\n    tag_901:\n        /* \"#utility.yul\":37134:37159   */\n      swap2\n      pop\n        /* \"#utility.yul\":37173:37193   */\n      tag_902\n        /* \"#utility.yul\":37191:37192   */\n      dup4\n        /* \"#utility.yul\":37173:37193   */\n      tag_477\n      jump\t// in\n    tag_902:\n        /* \"#utility.yul\":37168:37193   */\n      swap3\n      pop\n        /* \"#utility.yul\":37217:37218   */\n      dup3\n        /* \"#utility.yul\":37214:37215   */\n      dup3\n        /* \"#utility.yul\":37210:37219   */\n      sub\n        /* \"#utility.yul\":37202:37219   */\n      swap1\n      pop\n        /* \"#utility.yul\":37241:37242   */\n      dup2\n        /* \"#utility.yul\":37235:37239   */\n      dup2\n        /* \"#utility.yul\":37232:37243   */\n      gt\n        /* \"#utility.yul\":37229:37266   */\n      iszero\n      tag_903\n      jumpi\n        /* \"#utility.yul\":37246:37264   */\n      tag_904\n      tag_539\n      jump\t// in\n    tag_904:\n        /* \"#utility.yul\":37229:37266   */\n    tag_903:\n        /* \"#utility.yul\":37079:37273   */\n      swap3\n      swap2\n      pop\n      pop\n      jump\t// out\n        /* \"#utility.yul\":37279:37470   */\n    tag_96:\n        /* \"#utility.yul\":37319:37322   */\n      0x00\n        /* \"#utility.yul\":37338:37358   */\n      tag_906\n        /* \"#utility.yul\":37356:37357   */\n      dup3\n        /* \"#utility.yul\":37338:37358   */\n      tag_477\n      jump\t// in\n    tag_906:\n        /* \"#utility.yul\":37333:37358   */\n      swap2\n      pop\n        /* \"#utility.yul\":37372:37392   */\n      tag_907\n        /* \"#utility.yul\":37390:37391   */\n      dup4\n        /* \"#utility.yul\":37372:37392   */\n      tag_477\n      jump\t// in\n    tag_907:\n        /* \"#utility.yul\":37367:37392   */\n      swap3\n      pop\n        /* \"#utility.yul\":37415:37416   */\n      dup3\n        /* \"#utility.yul\":37412:37413   */\n      dup3\n        /* \"#utility.yul\":37408:37417   */\n      add\n        /* \"#utility.yul\":37401:37417   */\n      swap1\n      pop\n        /* \"#utility.yul\":37436:37439   */\n      dup1\n        /* \"#utility.yul\":37433:37434   */\n      dup3\n        /* \"#utility.yul\":37430:37440   */\n      gt\n        /* \"#utility.yul\":37427:37463   */\n      iszero\n      tag_908\n      jumpi\n        /* \"#utility.yul\":37443:37461   */\n      tag_909\n      tag_539\n      jump\t// in\n    tag_909:\n        /* \"#utility.yul\":37427:37463   */\n    tag_908:\n        /* \"#utility.yul\":37279:37470   */\n      swap3\n      swap2\n      pop\n      pop\n      jump\t// out\n        /* \"#utility.yul\":37476:37886   */\n    tag_98:\n        /* \"#utility.yul\":37516:37523   */\n      0x00\n        /* \"#utility.yul\":37539:37559   */\n      tag_911\n        /* \"#utility.yul\":37557:37558   */\n      dup3\n        /* \"#utility.yul\":37539:37559   */\n      tag_477\n      jump\t// in\n    tag_911:\n        /* \"#utility.yul\":37534:37559   */\n      swap2\n      pop\n        /* \"#utility.yul\":37573:37593   */\n      tag_912\n        /* \"#utility.yul\":37591:37592   */\n      dup4\n        /* \"#utility.yul\":37573:37593   */\n      tag_477\n      jump\t// in\n    tag_912:\n        /* \"#utility.yul\":37568:37593   */\n      swap3\n      pop\n        /* \"#utility.yul\":37628:37629   */\n      dup3\n        /* \"#utility.yul\":37625:37626   */\n      dup3\n        /* \"#utility.yul\":37621:37630   */\n      mul\n        /* \"#utility.yul\":37650:37680   */\n      tag_913\n        /* \"#utility.yul\":37668:37679   */\n      dup2\n        /* \"#utility.yul\":37650:37680   */\n      tag_477\n      jump\t// in\n    tag_913:\n        /* \"#utility.yul\":37639:37680   */\n      swap2\n      pop\n        /* \"#utility.yul\":37829:37830   */\n      dup3\n        /* \"#utility.yul\":37820:37827   */\n      dup3\n        /* \"#utility.yul\":37816:37831   */\n      div\n        /* \"#utility.yul\":37813:37814   */\n      dup5\n        /* \"#utility.yul\":37810:37832   */\n      eq\n        /* \"#utility.yul\":37790:37791   */\n      dup4\n        /* \"#utility.yul\":37783:37792   */\n      iszero\n        /* \"#utility.yul\":37763:37846   */\n      or\n        /* \"#utility.yul\":37740:37879   */\n      tag_914\n      jumpi\n        /* \"#utility.yul\":37859:37877   */\n      tag_915\n      tag_539\n      jump\t// in\n    tag_915:\n        /* \"#utility.yul\":37740:37879   */\n    tag_914:\n        /* \"#utility.yul\":37524:37886   */\n      pop\n        /* \"#utility.yul\":37476:37886   */\n      swap3\n      swap2\n      pop\n      pop\n      jump\t// out\n        /* \"#utility.yul\":37892:38072   */\n    tag_554:\n        /* \"#utility.yul\":37940:38017   */\n      0x4e487b7100000000000000000000000000000000000000000000000000000000\n        /* \"#utility.yul\":37937:37938   */\n      0x00\n        /* \"#utility.yul\":37930:38018   */\n      mstore\n        /* \"#utility.yul\":38037:38041   */\n      0x12\n        /* \"#utility.yul\":38034:38035   */\n      0x04\n        /* \"#utility.yul\":38027:38042   */\n      mstore\n        /* \"#utility.yul\":38061:38065   */\n      0x24\n        /* \"#utility.yul\":38058:38059   */\n      0x00\n        /* \"#utility.yul\":38051:38066   */\n      revert\n        /* \"#utility.yul\":38078:38263   */\n    tag_100:\n        /* \"#utility.yul\":38118:38119   */\n      0x00\n        /* \"#utility.yul\":38135:38155   */\n      tag_918\n        /* \"#utility.yul\":38153:38154   */\n      dup3\n        /* \"#utility.yul\":38135:38155   */\n      tag_477\n      jump\t// in\n    tag_918:\n        /* \"#utility.yul\":38130:38155   */\n      swap2\n      pop\n        /* \"#utility.yul\":38169:38189   */\n      tag_919\n        /* \"#utility.yul\":38187:38188   */\n      dup4\n        /* \"#utility.yul\":38169:38189   */\n      tag_477\n      jump\t// in\n    tag_919:\n        /* \"#utility.yul\":38164:38189   */\n      swap3\n      pop\n        /* \"#utility.yul\":38208:38209   */\n      dup3\n        /* \"#utility.yul\":38198:38233   */\n      tag_920\n      jumpi\n        /* \"#utility.yul\":38213:38231   */\n      tag_921\n      tag_554\n      jump\t// in\n    tag_921:\n        /* \"#utility.yul\":38198:38233   */\n    tag_920:\n        /* \"#utility.yul\":38255:38256   */\n      dup3\n        /* \"#utility.yul\":38252:38253   */\n      dup3\n        /* \"#utility.yul\":38248:38257   */\n      div\n        /* \"#utility.yul\":38243:38257   */\n      swap1\n      pop\n        /* \"#utility.yul\":38078:38263   */\n      swap3\n      swap2\n      pop\n      pop\n      jump\t// out\n        /* \"#utility.yul\":38269:38507   */\n    tag_555:\n        /* \"#utility.yul\":38409:38443   */\n      0x6173736574732e64657461696c732e63727970746f63757272656e63792e6272\n        /* \"#utility.yul\":38405:38406   */\n      0x00\n        /* \"#utility.yul\":38397:38403   */\n      dup3\n        /* \"#utility.yul\":38393:38407   */\n      add\n        /* \"#utility.yul\":38386:38444   */\n      mstore\n        /* \"#utility.yul\":38478:38499   */\n      0x65616b646f776e2e555344542e616d6f756e7400000000000000000000000000\n        /* \"#utility.yul\":38473:38475   */\n      0x20\n        /* \"#utility.yul\":38465:38471   */\n      dup3\n        /* \"#utility.yul\":38461:38476   */\n      add\n        /* \"#utility.yul\":38454:38500   */\n      mstore\n        /* \"#utility.yul\":38269:38507   */\n      pop\n      jump\t// out\n        /* \"#utility.yul\":38513:38915   */\n    tag_556:\n        /* \"#utility.yul\":38673:38676   */\n      0x00\n        /* \"#utility.yul\":38694:38779   */\n      tag_924\n        /* \"#utility.yul\":38776:38778   */\n      0x33\n        /* \"#utility.yul\":38771:38774   */\n      dup4\n        /* \"#utility.yul\":38694:38779   */\n      tag_533\n      jump\t// in\n    tag_924:\n        /* \"#utility.yul\":38687:38779   */\n      swap2\n      pop\n        /* \"#utility.yul\":38788:38881   */\n      tag_925\n        /* \"#utility.yul\":38877:38880   */\n      dup3\n        /* \"#utility.yul\":38788:38881   */\n      tag_555\n      jump\t// in\n    tag_925:\n        /* \"#utility.yul\":38906:38908   */\n      0x33\n        /* \"#utility.yul\":38901:38904   */\n      dup3\n        /* \"#utility.yul\":38897:38909   */\n      add\n        /* \"#utility.yul\":38890:38909   */\n      swap1\n      pop\n        /* \"#utility.yul\":38513:38915   */\n      swap2\n      swap1\n      pop\n      jump\t// out\n        /* \"#utility.yul\":38921:39302   */\n    tag_120:\n        /* \"#utility.yul\":39106:39109   */\n      0x00\n        /* \"#utility.yul\":39128:39276   */\n      tag_927\n        /* \"#utility.yul\":39272:39275   */\n      dup3\n        /* \"#utility.yul\":39128:39276   */\n      tag_556\n      jump\t// in\n    tag_927:\n        /* \"#utility.yul\":39121:39276   */\n      swap2\n      pop\n        /* \"#utility.yul\":39293:39296   */\n      dup2\n        /* \"#utility.yul\":39286:39296   */\n      swap1\n      pop\n        /* \"#utility.yul\":38921:39302   */\n      swap2\n      swap1\n      pop\n      jump\t// out\n        /* \"#utility.yul\":39308:39683   */\n    tag_122:\n        /* \"#utility.yul\":39347:39350   */\n      0x00\n        /* \"#utility.yul\":39366:39385   */\n      tag_929\n        /* \"#utility.yul\":39383:39384   */\n      dup3\n        /* \"#utility.yul\":39366:39385   */\n      tag_480\n      jump\t// in\n    tag_929:\n        /* \"#utility.yul\":39361:39385   */\n      swap2\n      pop\n        /* \"#utility.yul\":39399:39418   */\n      tag_930\n        /* \"#utility.yul\":39416:39417   */\n      dup4\n        /* \"#utility.yul\":39399:39418   */\n      tag_480\n      jump\t// in\n    tag_930:\n        /* \"#utility.yul\":39394:39418   */\n      swap3\n      pop\n        /* \"#utility.yul\":39441:39442   */\n      dup3\n        /* \"#utility.yul\":39438:39439   */\n      dup3\n        /* \"#utility.yul\":39434:39443   */\n      add\n        /* \"#utility.yul\":39427:39443   */\n      swap1\n      pop\n        /* \"#utility.yul\":39639:39640   */\n      dup3\n        /* \"#utility.yul\":39634:39637   */\n      dup2\n        /* \"#utility.yul\":39630:39641   */\n      slt\n        /* \"#utility.yul\":39623:39642   */\n      iszero\n        /* \"#utility.yul\":39619:39620   */\n      0x00\n        /* \"#utility.yul\":39616:39617   */\n      dup4\n        /* \"#utility.yul\":39612:39621   */\n      slt\n        /* \"#utility.yul\":39608:39643   */\n      and\n        /* \"#utility.yul\":39591:39592   */\n      dup4\n        /* \"#utility.yul\":39586:39589   */\n      dup3\n        /* \"#utility.yul\":39582:39593   */\n      slt\n        /* \"#utility.yul\":39577:39578   */\n      0x00\n        /* \"#utility.yul\":39574:39575   */\n      dup5\n        /* \"#utility.yul\":39570:39579   */\n      slt\n        /* \"#utility.yul\":39563:39580   */\n      iszero\n        /* \"#utility.yul\":39559:39594   */\n      and\n        /* \"#utility.yul\":39543:39653   */\n      or\n        /* \"#utility.yul\":39540:39676   */\n      iszero\n      tag_931\n      jumpi\n        /* \"#utility.yul\":39656:39674   */\n      tag_932\n      tag_539\n      jump\t// in\n    tag_932:\n        /* \"#utility.yul\":39540:39676   */\n    tag_931:\n        /* \"#utility.yul\":39308:39683   */\n      swap3\n      swap2\n      pop\n      pop\n      jump\t// out\n        /* \"#utility.yul\":39689:39929   */\n    tag_557:\n        /* \"#utility.yul\":39829:39863   */\n      0x6c696162696c69746965732e64657461696c732e757365724465706f7369742e\n        /* \"#utility.yul\":39825:39826   */\n      0x00\n        /* \"#utility.yul\":39817:39823   */\n      dup3\n        /* \"#utility.yul\":39813:39827   */\n      add\n        /* \"#utility.yul\":39806:39864   */\n      mstore\n        /* \"#utility.yul\":39898:39921   */\n      0x627265616b646f776e2e555344542e616d6f756e740000000000000000000000\n        /* \"#utility.yul\":39893:39895   */\n      0x20\n        /* \"#utility.yul\":39885:39891   */\n      dup3\n        /* \"#utility.yul\":39881:39896   */\n      add\n        /* \"#utility.yul\":39874:39922   */\n      mstore\n        /* \"#utility.yul\":39689:39929   */\n      pop\n      jump\t// out\n        /* \"#utility.yul\":39935:40337   */\n    tag_558:\n        /* \"#utility.yul\":40095:40098   */\n      0x00\n        /* \"#utility.yul\":40116:40201   */\n      tag_935\n        /* \"#utility.yul\":40198:40200   */\n      0x35\n        /* \"#utility.yul\":40193:40196   */\n      dup4\n        /* \"#utility.yul\":40116:40201   */\n      tag_533\n      jump\t// in\n    tag_935:\n        /* \"#utility.yul\":40109:40201   */\n      swap2\n      pop\n        /* \"#utility.yul\":40210:40303   */\n      tag_936\n        /* \"#utility.yul\":40299:40302   */\n      dup3\n        /* \"#utility.yul\":40210:40303   */\n      tag_557\n      jump\t// in\n    tag_936:\n        /* \"#utility.yul\":40328:40330   */\n      0x35\n        /* \"#utility.yul\":40323:40326   */\n      dup3\n        /* \"#utility.yul\":40319:40331   */\n      add\n        /* \"#utility.yul\":40312:40331   */\n      swap1\n      pop\n        /* \"#utility.yul\":39935:40337   */\n      swap2\n      swap1\n      pop\n      jump\t// out\n        /* \"#utility.yul\":40343:40724   */\n    tag_139:\n        /* \"#utility.yul\":40528:40531   */\n      0x00\n        /* \"#utility.yul\":40550:40698   */\n      tag_938\n        /* \"#utility.yul\":40694:40697   */\n      dup3\n        /* \"#utility.yul\":40550:40698   */\n      tag_558\n      jump\t// in\n    tag_938:\n        /* \"#utility.yul\":40543:40698   */\n      swap2\n      pop\n        /* \"#utility.yul\":40715:40718   */\n      dup2\n        /* \"#utility.yul\":40708:40718   */\n      swap1\n      pop\n        /* \"#utility.yul\":40343:40724   */\n      swap2\n      swap1\n      pop\n      jump\t// out\n        /* \"#utility.yul\":40730:40970   */\n    tag_559:\n        /* \"#utility.yul\":40870:40904   */\n      0x6571756974792e64657461696c732e72657461696e65644561726e696e67732e\n        /* \"#utility.yul\":40866:40867   */\n      0x00\n        /* \"#utility.yul\":40858:40864   */\n      dup3\n        /* \"#utility.yul\":40854:40868   */\n      add\n        /* \"#utility.yul\":40847:40905   */\n      mstore\n        /* \"#utility.yul\":40939:40962   */\n      0x627265616b646f776e2e555344542e616d6f756e740000000000000000000000\n        /* \"#utility.yul\":40934:40936   */\n      0x20\n        /* \"#utility.yul\":40926:40932   */\n      dup3\n        /* \"#utility.yul\":40922:40937   */\n      add\n        /* \"#utility.yul\":40915:40963   */\n      mstore\n        /* \"#utility.yul\":40730:40970   */\n      pop\n      jump\t// out\n        /* \"#utility.yul\":40976:41378   */\n    tag_560:\n        /* \"#utility.yul\":41136:41139   */\n      0x00\n        /* \"#utility.yul\":41157:41242   */\n      tag_941\n        /* \"#utility.yul\":41239:41241   */\n      0x35\n        /* \"#utility.yul\":41234:41237   */\n      dup4\n        /* \"#utility.yul\":41157:41242   */\n      tag_533\n      jump\t// in\n    tag_941:\n        /* \"#utility.yul\":41150:41242   */\n      swap2\n      pop\n        /* \"#utility.yul\":41251:41344   */\n      tag_942\n        /* \"#utility.yul\":41340:41343   */\n      dup3\n        /* \"#utility.yul\":41251:41344   */\n      tag_559\n      jump\t// in\n    tag_942:\n        /* \"#utility.yul\":41369:41371   */\n      0x35\n        /* \"#utility.yul\":41364:41367   */\n      dup3\n        /* \"#utility.yul\":41360:41372   */\n      add\n        /* \"#utility.yul\":41353:41372   */\n      swap1\n      pop\n        /* \"#utility.yul\":40976:41378   */\n      swap2\n      swap1\n      pop\n      jump\t// out\n        /* \"#utility.yul\":41384:41765   */\n    tag_157:\n        /* \"#utility.yul\":41569:41572   */\n      0x00\n        /* \"#utility.yul\":41591:41739   */\n      tag_944\n        /* \"#utility.yul\":41735:41738   */\n      dup3\n        /* \"#utility.yul\":41591:41739   */\n      tag_560\n      jump\t// in\n    tag_944:\n        /* \"#utility.yul\":41584:41739   */\n      swap2\n      pop\n        /* \"#utility.yul\":41756:41759   */\n      dup2\n        /* \"#utility.yul\":41749:41759   */\n      swap1\n      pop\n        /* \"#utility.yul\":41384:41765   */\n      swap2\n      swap1\n      pop\n      jump\t// out\n        /* \"#utility.yul\":41771:42005   */\n    tag_561:\n        /* \"#utility.yul\":41911:41945   */\n      0x696e636f6d652e64657461696c732e6465706f7369744665652e627265616b64\n        /* \"#utility.yul\":41907:41908   */\n      0x00\n        /* \"#utility.yul\":41899:41905   */\n      dup3\n        /* \"#utility.yul\":41895:41909   */\n      add\n        /* \"#utility.yul\":41888:41946   */\n      mstore\n        /* \"#utility.yul\":41980:41997   */\n      0x6f776e2e555344542e616d6f756e740000000000000000000000000000000000\n        /* \"#utility.yul\":41975:41977   */\n      0x20\n        /* \"#utility.yul\":41967:41973   */\n      dup3\n        /* \"#utility.yul\":41963:41978   */\n      add\n        /* \"#utility.yul\":41956:41998   */\n      mstore\n        /* \"#utility.yul\":41771:42005   */\n      pop\n      jump\t// out\n        /* \"#utility.yul\":42011:42413   */\n    tag_562:\n        /* \"#utility.yul\":42171:42174   */\n      0x00\n        /* \"#utility.yul\":42192:42277   */\n      tag_947\n        /* \"#utility.yul\":42274:42276   */\n      0x2f\n        /* \"#utility.yul\":42269:42272   */\n      dup4\n        /* \"#utility.yul\":42192:42277   */\n      tag_533\n      jump\t// in\n    tag_947:\n        /* \"#utility.yul\":42185:42277   */\n      swap2\n      pop\n        /* \"#utility.yul\":42286:42379   */\n      tag_948\n        /* \"#utility.yul\":42375:42378   */\n      dup3\n        /* \"#utility.yul\":42286:42379   */\n      tag_561\n      jump\t// in\n    tag_948:\n        /* \"#utility.yul\":42404:42406   */\n      0x2f\n        /* \"#utility.yul\":42399:42402   */\n      dup3\n        /* \"#utility.yul\":42395:42407   */\n      add\n        /* \"#utility.yul\":42388:42407   */\n      swap1\n      pop\n        /* \"#utility.yul\":42011:42413   */\n      swap2\n      swap1\n      pop\n      jump\t// out\n        /* \"#utility.yul\":42419:42800   */\n    tag_176:\n        /* \"#utility.yul\":42604:42607   */\n      0x00\n        /* \"#utility.yul\":42626:42774   */\n      tag_950\n        /* \"#utility.yul\":42770:42773   */\n      dup3\n        /* \"#utility.yul\":42626:42774   */\n      tag_562\n      jump\t// in\n    tag_950:\n        /* \"#utility.yul\":42619:42774   */\n      swap2\n      pop\n        /* \"#utility.yul\":42791:42794   */\n      dup2\n        /* \"#utility.yul\":42784:42794   */\n      swap1\n      pop\n        /* \"#utility.yul\":42419:42800   */\n      swap2\n      swap1\n      pop\n      jump\t// out\n        /* \"#utility.yul\":42806:42982   */\n    tag_563:\n        /* \"#utility.yul\":42946:42974   */\n      0x4e6f207472616e73616374696f6e7320617661696c61626c652e000000000000\n        /* \"#utility.yul\":42942:42943   */\n      0x00\n        /* \"#utility.yul\":42934:42940   */\n      dup3\n        /* \"#utility.yul\":42930:42944   */\n      add\n        /* \"#utility.yul\":42923:42975   */\n      mstore\n        /* \"#utility.yul\":42806:42982   */\n      pop\n      jump\t// out\n        /* \"#utility.yul\":42988:43354   */\n    tag_564:\n        /* \"#utility.yul\":43130:43133   */\n      0x00\n        /* \"#utility.yul\":43151:43218   */\n      tag_953\n        /* \"#utility.yul\":43215:43217   */\n      0x1a\n        /* \"#utility.yul\":43210:43213   */\n      dup4\n        /* \"#utility.yul\":43151:43218   */\n      tag_496\n      jump\t// in\n    tag_953:\n        /* \"#utility.yul\":43144:43218   */\n      swap2\n      pop\n        /* \"#utility.yul\":43227:43320   */\n      tag_954\n        /* \"#utility.yul\":43316:43319   */\n      dup3\n        /* \"#utility.yul\":43227:43320   */\n      tag_563\n      jump\t// in\n    tag_954:\n        /* \"#utility.yul\":43345:43347   */\n      0x20\n        /* \"#utility.yul\":43340:43343   */\n      dup3\n        /* \"#utility.yul\":43336:43348   */\n      add\n        /* \"#utility.yul\":43329:43348   */\n      swap1\n      pop\n        /* \"#utility.yul\":42988:43354   */\n      swap2\n      swap1\n      pop\n      jump\t// out\n        /* \"#utility.yul\":43360:43779   */\n    tag_236:\n        /* \"#utility.yul\":43526:43530   */\n      0x00\n        /* \"#utility.yul\":43564:43566   */\n      0x20\n        /* \"#utility.yul\":43553:43562   */\n      dup3\n        /* \"#utility.yul\":43549:43567   */\n      add\n        /* \"#utility.yul\":43541:43567   */\n      swap1\n      pop\n        /* \"#utility.yul\":43613:43622   */\n      dup2\n        /* \"#utility.yul\":43607:43611   */\n      dup2\n        /* \"#utility.yul\":43603:43623   */\n      sub\n        /* \"#utility.yul\":43599:43600   */\n      0x00\n        /* \"#utility.yul\":43588:43597   */\n      dup4\n        /* \"#utility.yul\":43584:43601   */\n      add\n        /* \"#utility.yul\":43577:43624   */\n      mstore\n        /* \"#utility.yul\":43641:43772   */\n      tag_956\n        /* \"#utility.yul\":43767:43771   */\n      dup2\n        /* \"#utility.yul\":43641:43772   */\n      tag_564\n      jump\t// in\n    tag_956:\n        /* \"#utility.yul\":43633:43772   */\n      swap1\n      pop\n        /* \"#utility.yul\":43360:43779   */\n      swap2\n      swap1\n      pop\n      jump\t// out\n        /* \"#utility.yul\":43785:43948   */\n    tag_565:\n        /* \"#utility.yul\":43925:43940   */\n      0x496e76616c696420696e64657800000000000000000000000000000000000000\n        /* \"#utility.yul\":43921:43922   */\n      0x00\n        /* \"#utility.yul\":43913:43919   */\n      dup3\n        /* \"#utility.yul\":43909:43923   */\n      add\n        /* \"#utility.yul\":43902:43941   */\n      mstore\n        /* \"#utility.yul\":43785:43948   */\n      pop\n      jump\t// out\n        /* \"#utility.yul\":43954:44320   */\n    tag_566:\n        /* \"#utility.yul\":44096:44099   */\n      0x00\n        /* \"#utility.yul\":44117:44184   */\n      tag_959\n        /* \"#utility.yul\":44181:44183   */\n      0x0d\n        /* \"#utility.yul\":44176:44179   */\n      dup4\n        /* \"#utility.yul\":44117:44184   */\n      tag_496\n      jump\t// in\n    tag_959:\n        /* \"#utility.yul\":44110:44184   */\n      swap2\n      pop\n        /* \"#utility.yul\":44193:44286   */\n      tag_960\n        /* \"#utility.yul\":44282:44285   */\n      dup3\n        /* \"#utility.yul\":44193:44286   */\n      tag_565\n      jump\t// in\n    tag_960:\n        /* \"#utility.yul\":44311:44313   */\n      0x20\n        /* \"#utility.yul\":44306:44309   */\n      dup3\n        /* \"#utility.yul\":44302:44314   */\n      add\n        /* \"#utility.yul\":44295:44314   */\n      swap1\n      pop\n        /* \"#utility.yul\":43954:44320   */\n      swap2\n      swap1\n      pop\n      jump\t// out\n        /* \"#utility.yul\":44326:44745   */\n    tag_255:\n        /* \"#utility.yul\":44492:44496   */\n      0x00\n        /* \"#utility.yul\":44530:44532   */\n      0x20\n        /* \"#utility.yul\":44519:44528   */\n      dup3\n        /* \"#utility.yul\":44515:44533   */\n      add\n        /* \"#utility.yul\":44507:44533   */\n      swap1\n      pop\n        /* \"#utility.yul\":44579:44588   */\n      dup2\n        /* \"#utility.yul\":44573:44577   */\n      dup2\n        /* \"#utility.yul\":44569:44589   */\n      sub\n        /* \"#utility.yul\":44565:44566   */\n      0x00\n        /* \"#utility.yul\":44554:44563   */\n      dup4\n        /* \"#utility.yul\":44550:44567   */\n      add\n        /* \"#utility.yul\":44543:44590   */\n      mstore\n        /* \"#utility.yul\":44607:44738   */\n      tag_962\n        /* \"#utility.yul\":44733:44737   */\n      dup2\n        /* \"#utility.yul\":44607:44738   */\n      tag_566\n      jump\t// in\n    tag_962:\n        /* \"#utility.yul\":44599:44738   */\n      swap1\n      pop\n        /* \"#utility.yul\":44326:44745   */\n      swap2\n      swap1\n      pop\n      jump\t// out\n        /* \"#utility.yul\":44751:44922   */\n    tag_567:\n        /* \"#utility.yul\":44891:44914   */\n      0x5472616e73616374696f6e206e6f7420666f756e640000000000000000000000\n        /* \"#utility.yul\":44887:44888   */\n      0x00\n        /* \"#utility.yul\":44879:44885   */\n      dup3\n        /* \"#utility.yul\":44875:44889   */\n      add\n        /* \"#utility.yul\":44868:44915   */\n      mstore\n        /* \"#utility.yul\":44751:44922   */\n      pop\n      jump\t// out\n        /* \"#utility.yul\":44928:45294   */\n    tag_568:\n        /* \"#utility.yul\":45070:45073   */\n      0x00\n        /* \"#utility.yul\":45091:45158   */\n      tag_965\n        /* \"#utility.yul\":45155:45157   */\n      0x15\n        /* \"#utility.yul\":45150:45153   */\n      dup4\n        /* \"#utility.yul\":45091:45158   */\n      tag_496\n      jump\t// in\n    tag_965:\n        /* \"#utility.yul\":45084:45158   */\n      swap2\n      pop\n        /* \"#utility.yul\":45167:45260   */\n      tag_966\n        /* \"#utility.yul\":45256:45259   */\n      dup3\n        /* \"#utility.yul\":45167:45260   */\n      tag_567\n      jump\t// in\n    tag_966:\n        /* \"#utility.yul\":45285:45287   */\n      0x20\n        /* \"#utility.yul\":45280:45283   */\n      dup3\n        /* \"#utility.yul\":45276:45288   */\n      add\n        /* \"#utility.yul\":45269:45288   */\n      swap1\n      pop\n        /* \"#utility.yul\":44928:45294   */\n      swap2\n      swap1\n      pop\n      jump\t// out\n        /* \"#utility.yul\":45300:45719   */\n    tag_292:\n        /* \"#utility.yul\":45466:45470   */\n      0x00\n        /* \"#utility.yul\":45504:45506   */\n      0x20\n        /* \"#utility.yul\":45493:45502   */\n      dup3\n        /* \"#utility.yul\":45489:45507   */\n      add\n        /* \"#utility.yul\":45481:45507   */\n      swap1\n      pop\n        /* \"#utility.yul\":45553:45562   */\n      dup2\n        /* \"#utility.yul\":45547:45551   */\n      dup2\n        /* \"#utility.yul\":45543:45563   */\n      sub\n        /* \"#utility.yul\":45539:45540   */\n      0x00\n        /* \"#utility.yul\":45528:45537   */\n      dup4\n        /* \"#utility.yul\":45524:45541   */\n      add\n        /* \"#utility.yul\":45517:45564   */\n      mstore\n        /* \"#utility.yul\":45581:45712   */\n      tag_968\n        /* \"#utility.yul\":45707:45711   */\n      dup2\n        /* \"#utility.yul\":45581:45712   */\n      tag_568\n      jump\t// in\n    tag_968:\n        /* \"#utility.yul\":45573:45712   */\n      swap1\n      pop\n        /* \"#utility.yul\":45300:45719   */\n      swap2\n      swap1\n      pop\n      jump\t// out\n        /* \"#utility.yul\":45725:46101   */\n    tag_569:\n        /* \"#utility.yul\":45865:45899   */\n      0x737570706c656d656e74616c5363686564756c654f664e6f6e436173684f7065\n        /* \"#utility.yul\":45861:45862   */\n      0x00\n        /* \"#utility.yul\":45853:45859   */\n      dup3\n        /* \"#utility.yul\":45849:45863   */\n      add\n        /* \"#utility.yul\":45842:45900   */\n      mstore\n        /* \"#utility.yul\":45934:45968   */\n      0x726174696e67416374697669746965732e64657461696c732e63727970746f63\n        /* \"#utility.yul\":45929:45931   */\n      0x20\n        /* \"#utility.yul\":45921:45927   */\n      dup3\n        /* \"#utility.yul\":45917:45932   */\n      add\n        /* \"#utility.yul\":45910:45969   */\n      mstore\n        /* \"#utility.yul\":46003:46037   */\n      0x757272656e636965734465706f73697465644279437573746f6d6572732e6272\n        /* \"#utility.yul\":45998:46000   */\n      0x40\n        /* \"#utility.yul\":45990:45996   */\n      dup3\n        /* \"#utility.yul\":45986:46001   */\n      add\n        /* \"#utility.yul\":45979:46038   */\n      mstore\n        /* \"#utility.yul\":46072:46093   */\n      0x65616b646f776e2e555344542e616d6f756e7400000000000000000000000000\n        /* \"#utility.yul\":46067:46069   */\n      0x60\n        /* \"#utility.yul\":46059:46065   */\n      dup3\n        /* \"#utility.yul\":46055:46070   */\n      add\n        /* \"#utility.yul\":46048:46094   */\n      mstore\n        /* \"#utility.yul\":45725:46101   */\n      pop\n      jump\t// out\n        /* \"#utility.yul\":46107:46511   */\n    tag_570:\n        /* \"#utility.yul\":46267:46270   */\n      0x00\n        /* \"#utility.yul\":46288:46374   */\n      tag_971\n        /* \"#utility.yul\":46370:46373   */\n      0x73\n        /* \"#utility.yul\":46365:46368   */\n      dup4\n        /* \"#utility.yul\":46288:46374   */\n      tag_533\n      jump\t// in\n    tag_971:\n        /* \"#utility.yul\":46281:46374   */\n      swap2\n      pop\n        /* \"#utility.yul\":46383:46476   */\n      tag_972\n        /* \"#utility.yul\":46472:46475   */\n      dup3\n        /* \"#utility.yul\":46383:46476   */\n      tag_569\n      jump\t// in\n    tag_972:\n        /* \"#utility.yul\":46501:46504   */\n      0x73\n        /* \"#utility.yul\":46496:46499   */\n      dup3\n        /* \"#utility.yul\":46492:46505   */\n      add\n        /* \"#utility.yul\":46485:46505   */\n      swap1\n      pop\n        /* \"#utility.yul\":46107:46511   */\n      swap2\n      swap1\n      pop\n      jump\t// out\n        /* \"#utility.yul\":46517:46898   */\n    tag_421:\n        /* \"#utility.yul\":46702:46705   */\n      0x00\n        /* \"#utility.yul\":46724:46872   */\n      tag_974\n        /* \"#utility.yul\":46868:46871   */\n      dup3\n        /* \"#utility.yul\":46724:46872   */\n      tag_570\n      jump\t// in\n    tag_974:\n        /* \"#utility.yul\":46717:46872   */\n      swap2\n      pop\n        /* \"#utility.yul\":46889:46892   */\n      dup2\n        /* \"#utility.yul\":46882:46892   */\n      swap1\n      pop\n        /* \"#utility.yul\":46517:46898   */\n      swap2\n      swap1\n      pop\n      jump\t// out\n        /* \"#utility.yul\":46904:47336   */\n    tag_571:\n        /* \"#utility.yul\":47044:47078   */\n      0x737570706c656d656e74616c5363686564756c654f664e6f6e436173684f7065\n        /* \"#utility.yul\":47040:47041   */\n      0x00\n        /* \"#utility.yul\":47032:47038   */\n      dup3\n        /* \"#utility.yul\":47028:47042   */\n      add\n        /* \"#utility.yul\":47021:47079   */\n      mstore\n        /* \"#utility.yul\":47113:47147   */\n      0x726174696e67416374697669746965732e64657461696c732e63727970746f63\n        /* \"#utility.yul\":47108:47110   */\n      0x20\n        /* \"#utility.yul\":47100:47106   */\n      dup3\n        /* \"#utility.yul\":47096:47111   */\n      add\n        /* \"#utility.yul\":47089:47148   */\n      mstore\n        /* \"#utility.yul\":47182:47216   */\n      0x757272656e63696573526563656976656446726f6d437573746f6d6572734173\n        /* \"#utility.yul\":47177:47179   */\n      0x40\n        /* \"#utility.yul\":47169:47175   */\n      dup3\n        /* \"#utility.yul\":47165:47180   */\n      add\n        /* \"#utility.yul\":47158:47217   */\n      mstore\n        /* \"#utility.yul\":47251:47285   */\n      0x5472616e73616374696f6e466565732e627265616b646f776e2e555344542e61\n        /* \"#utility.yul\":47246:47248   */\n      0x60\n        /* \"#utility.yul\":47238:47244   */\n      dup3\n        /* \"#utility.yul\":47234:47249   */\n      add\n        /* \"#utility.yul\":47227:47286   */\n      mstore\n        /* \"#utility.yul\":47321:47328   */\n      0x6d6f756e74000000000000000000000000000000000000000000000000000000\n        /* \"#utility.yul\":47315:47318   */\n      0x80\n        /* \"#utility.yul\":47307:47313   */\n      dup3\n        /* \"#utility.yul\":47303:47319   */\n      add\n        /* \"#utility.yul\":47296:47329   */\n      mstore\n        /* \"#utility.yul\":46904:47336   */\n      pop\n      jump\t// out\n        /* \"#utility.yul\":47342:47746   */\n    tag_572:\n        /* \"#utility.yul\":47502:47505   */\n      0x00\n        /* \"#utility.yul\":47523:47609   */\n      tag_977\n        /* \"#utility.yul\":47605:47608   */\n      0x85\n        /* \"#utility.yul\":47600:47603   */\n      dup4\n        /* \"#utility.yul\":47523:47609   */\n      tag_533\n      jump\t// in\n    tag_977:\n        /* \"#utility.yul\":47516:47609   */\n      swap2\n      pop\n        /* \"#utility.yul\":47618:47711   */\n      tag_978\n        /* \"#utility.yul\":47707:47710   */\n      dup3\n        /* \"#utility.yul\":47618:47711   */\n      tag_571\n      jump\t// in\n    tag_978:\n        /* \"#utility.yul\":47736:47739   */\n      0x85\n        /* \"#utility.yul\":47731:47734   */\n      dup3\n        /* \"#utility.yul\":47727:47740   */\n      add\n        /* \"#utility.yul\":47720:47740   */\n      swap1\n      pop\n        /* \"#utility.yul\":47342:47746   */\n      swap2\n      swap1\n      pop\n      jump\t// out\n        /* \"#utility.yul\":47752:48133   */\n    tag_437:\n        /* \"#utility.yul\":47937:47940   */\n      0x00\n        /* \"#utility.yul\":47959:48107   */\n      tag_980\n        /* \"#utility.yul\":48103:48106   */\n      dup3\n        /* \"#utility.yul\":47959:48107   */\n      tag_572\n      jump\t// in\n    tag_980:\n        /* \"#utility.yul\":47952:48107   */\n      swap2\n      pop\n        /* \"#utility.yul\":48124:48127   */\n      dup2\n        /* \"#utility.yul\":48117:48127   */\n      swap1\n      pop\n        /* \"#utility.yul\":47752:48133   */\n      swap2\n      swap1\n      pop\n      jump\t// out\n        /* \"#utility.yul\":48139:48653   */\n    tag_452:\n        /* \"#utility.yul\":48300:48304   */\n      0x00\n        /* \"#utility.yul\":48338:48340   */\n      0x40\n        /* \"#utility.yul\":48327:48336   */\n      dup3\n        /* \"#utility.yul\":48323:48341   */\n      add\n        /* \"#utility.yul\":48315:48341   */\n      swap1\n      pop\n        /* \"#utility.yul\":48387:48396   */\n      dup2\n        /* \"#utility.yul\":48381:48385   */\n      dup2\n        /* \"#utility.yul\":48377:48397   */\n      sub\n        /* \"#utility.yul\":48373:48374   */\n      0x00\n        /* \"#utility.yul\":48362:48371   */\n      dup4\n        /* \"#utility.yul\":48358:48375   */\n      add\n        /* \"#utility.yul\":48351:48398   */\n      mstore\n        /* \"#utility.yul\":48415:48493   */\n      tag_982\n        /* \"#utility.yul\":48488:48492   */\n      dup2\n        /* \"#utility.yul\":48479:48485   */\n      dup6\n        /* \"#utility.yul\":48415:48493   */\n      tag_497\n      jump\t// in\n    tag_982:\n        /* \"#utility.yul\":48407:48493   */\n      swap1\n      pop\n        /* \"#utility.yul\":48540:48549   */\n      dup2\n        /* \"#utility.yul\":48534:48538   */\n      dup2\n        /* \"#utility.yul\":48530:48550   */\n      sub\n        /* \"#utility.yul\":48525:48527   */\n      0x20\n        /* \"#utility.yul\":48514:48523   */\n      dup4\n        /* \"#utility.yul\":48510:48528   */\n      add\n        /* \"#utility.yul\":48503:48551   */\n      mstore\n        /* \"#utility.yul\":48568:48646   */\n      tag_983\n        /* \"#utility.yul\":48641:48645   */\n      dup2\n        /* \"#utility.yul\":48632:48638   */\n      dup5\n        /* \"#utility.yul\":48568:48646   */\n      tag_497\n      jump\t// in\n    tag_983:\n        /* \"#utility.yul\":48560:48646   */\n      swap1\n      pop\n        /* \"#utility.yul\":48139:48653   */\n      swap4\n      swap3\n      pop\n      pop\n      pop\n      jump\t// out\n    stop\n    data_08700b6453f8f95c1cc2f754b223fac3f9002a3b94ceef26b5952ef1d140fd05 737570706c656d656e74616c5363686564756c654f664e6f6e436173684f7065726174696e67416374697669746965732e64657461696c732e63727970746f63757272656e636965734465706f73697465644279437573746f6d6572732e627265616b646f776e2e555344542e776569676874656441766572616765436f7374\n    data_10212a95d772616748d16efa793bee0b98ad5c46eb9519e0c9be970bff0d2a15 6173736574732e64657461696c732e63727970746f63757272656e63792e746f74616c416d6f756e744661697256616c7565\n    data_15c20e8d0b3d40be2e84ef435d7a22e35af1d3a75ef669876f6405bb1124a943 737570706c656d656e74616c5363686564756c654f664e6f6e436173684f7065726174696e67416374697669746965732e64657461696c732e63727970746f63757272656e63696573456e644f66506572696f64\n    data_2d9085f20ba0ef6e78431ae201a1a41544055172b9060d5be493a8d39102c12e 6571756974792e64657461696c732e72657461696e65644561726e696e67732e627265616b646f776e2e555344542e6661697256616c7565\n    data_2fef656ae6a3ce7b3edbaab6dc60d5c8370e468265571d5ed0a35b0fe8bbb839 696e636f6d652e64657461696c732e6465706f7369744665652e627265616b646f776e2e555344542e776569676874656441766572616765436f7374\n    data_4c0690ddc889f15840b437f8b273636743e0fa2e4a8dacc7168762f1c7ab308f 6173736574732e64657461696c732e63727970746f63757272656e63792e627265616b646f776e2e555344542e616d6f756e74\n    data_4e73ff8eb2727f3fa2ea80dbb33ea1eebeb47820fa41462eed2bb2e289a7eda1 737570706c656d656e74616c5363686564756c654f664e6f6e436173684f7065726174696e67416374697669746965732e776569676874656441766572616765436f7374\n    data_51841a146b53adb530a6c57a8c8587a4b64fa0425e55f3407e1595e896aee44e 746f74616c4c696162696c6974696573416e644571756974794661697256616c7565\n    data_5361a904a9ccaaf866d9716cb68f42ebcfde236af4238d6956fff2ba52d390ed 6173736574732e64657461696c732e63727970746f63757272656e63792e627265616b646f776e2e555344542e6661697256616c7565\n    data_672065ce2cd4735cc9a43dbbd33e2a1db68a88157c01f0a28c0bd4a1b920b3ea 696e636f6d652e64657461696c732e6465706f7369744665652e776569676874656441766572616765436f7374\n    data_683f98542db49cd654b95466cfafe5aa4945d86bbac637e5b31f3b271ed6ba62 696e636f6d652e64657461696c732e6465706f7369744665652e627265616b646f776e2e555344542e616d6f756e74\n    data_6c886e0e08bddbc41f130649253a5b9f93f010fd7699e51580e73d74f822beaf 6c696162696c69746965732e64657461696c732e757365724465706f7369742e746f74616c416d6f756e744661697256616c7565\n    data_6da468df93cd0528770806447a6757159cf53ac5ae89bf9f4e0fa267f467fa56 737570706c656d656e74616c5363686564756c654f664e6f6e436173684f7065726174696e67416374697669746965732e64657461696c732e63727970746f63757272656e63696573526563656976656446726f6d437573746f6d65727341735472616e73616374696f6e466565732e627265616b646f776e2e555344542e616d6f756e74\n    data_7b36471cf4f79388a32aae3fae374a31afb69269702d8e8ec9c6e53188767e1d 6c696162696c69746965732e64657461696c732e757365724465706f7369742e627265616b646f776e2e555344542e616d6f756e74\n    data_8d62cceb33553d0ea9401a647f5c57fb859e20b6d898f6cfabc43690d80d62b8 6571756974792e64657461696c732e72657461696e65644561726e696e67732e746f74616c416d6f756e744661697256616c7565\n    data_9da70e59108e53ecd8897300816983f1818497604023e9805f9d92c260f4877d 737570706c656d656e74616c5363686564756c654f664e6f6e436173684f7065726174696e67416374697669746965732e64657461696c732e63727970746f63757272656e636965734465706f73697465644279437573746f6d6572732e627265616b646f776e2e555344542e616d6f756e74\n    data_9dab475a3c797a25d1651b6e61270a235ea4bece13ed5053e9c60cdd4d27de1d 6571756974792e64657461696c732e72657461696e65644561726e696e67732e627265616b646f776e2e555344542e616d6f756e74\n    data_bac76cc04e51c33eaec201989be16d49cd4cbca9658c3df26eb7a5adf6b03a09 6c696162696c69746965732e64657461696c732e757365724465706f7369742e627265616b646f776e2e555344542e6661697256616c7565\n    data_dc1e3b141eb7c4f0493cf97ff9e97fef738d38747e93e92ac7479ece51cb1481 737570706c656d656e74616c5363686564756c654f664e6f6e436173684f7065726174696e67416374697669746965732e64657461696c732e63727970746f63757272656e63696573526563656976656446726f6d437573746f6d65727341735472616e73616374696f6e466565732e627265616b646f776e2e555344542e776569676874656441766572616765436f7374\n    data_e9374b3d9fcc8af3b8083b54588c48b8f25b32a32c3314f7a7d348668acdb652 737570706c656d656e74616c5363686564756c654f664e6f6e436173684f7065726174696e67416374697669746965732e64657461696c732e63727970746f63757272656e63696573526563656976656446726f6d437573746f6d65727341735472616e73616374696f6e466565732e776569676874656441766572616765436f7374\n    data_f93c158fc4141373d133c3187c78462409ba6073bc95d62d4ebc42a608e902a1 737570706c656d656e74616c5363686564756c654f664e6f6e436173684f7065726174696e67416374697669746965732e64657461696c732e63727970746f63757272656e636965734465706f73697465644279437573746f6d6572732e776569676874656441766572616765436f7374\n\n    auxdata: 0xa2646970667358221220fd30d3e02bb8d0666d03737e2495d8653b1313a1e8b0a401c987eddbf325ecee64736f6c63430008120033\n}\n",
				"bytecode": {
					"linkReferences": {},
					"object": "608060405234801561001057600080fd5b50614400806100206000396000f3fe608060405234801561001057600080fd5b50600436106100b45760003560e01c80636ccc29dc116100715780636ccc29dc1461019f578063869152e7146101bd5780639ace38c2146101ed5780639ff16eb714610223578063c2e2754114610253578063f61347cf14610289576100b4565b806312496544146100b95780632b3a8659146100d55780632c86881c146101055780632e7700f0146101355780634fb9118b14610153578063519a334b14610183575b600080fd5b6100d360048036038101906100ce919061274a565b6102b9565b005b6100ef60048036038101906100ea919061280f565b610bad565b6040516100fc9190612871565b60405180910390f35b61011f600480360381019061011a919061280f565b610bdb565b60405161012c9190612871565b60405180910390f35b61013d610c09565b60405161014a919061289b565b60405180910390f35b61016d600480360381019061016891906128b6565b610c15565b60405161017a9190612ae9565b60405180910390f35b61019d60048036038101906101989190612b0b565b610f42565b005b6101a7610f6d565b6040516101b49190612c31565b60405180910390f35b6101d760048036038101906101d29190612c53565b611155565b6040516101e49190612c31565b60405180910390f35b61020760048036038101906102029190612c53565b61132e565b60405161021a9796959493929190612cca565b60405180910390f35b61023d6004803603810190610238919061280f565b611490565b60405161024a9190612c31565b60405180910390f35b61026d600480360381019061026891906128b6565b61171c565b604051610280979695949392919061316f565b60405180910390f35b6102a3600480360381019061029e919061280f565b611f9d565b6040516102b09190612871565b60405180910390f35b60005b60008054905081101561038e57600081815481106102dd576102dc61320f565b5b90600052602060002090600702016000016040516020016102fe9190613341565b60405160208183030381529060405280519060200120876040516020016103259190613389565b604051602081830303815290604052805190602001200361037b576040517f08c379a0000000000000000000000000000000000000000000000000000000008152600401610372906133ec565b60405180910390fd5b80806103869061343b565b9150506102bc565b5060006040518060e0016040528088815260200187815260200186815260200185815260200184815260200142815260200183815250905060008190806001815401808255809150506001900390600052602060002090600702016000909190919091506000820151816000019081610407919061361a565b50602082015181600101908161041d919061361a565b5060408201518160020155606082015181600301556080820151816004015560a0820151816005015560c082015181600601555050600160008054905061046491906136ec565b600482600001516040516104789190613389565b90815260200160405180910390208190555060006064600554836080015184604001516104a59190613720565b6104af9190613754565b6104b991906137c5565b90506000600567ffffffffffffffff8111156104d8576104d76125e9565b5b60405190808252806020026020018201604052801561050b57816020015b60608152602001906001900390816104f65790505b509050604051806060016040528060328152602001613e1e603291398160008151811061053b5761053a61320f565b5b6020026020010181905250604051806060016040528060368152602001613fb160369139816001815181106105735761057261320f565b5b60200260200101819052506040518060400160405280601b81526020017f6173736574732e746f74616c416d6f756e744661697256616c75650000000000815250816002815181106105c8576105c761320f565b5b60200260200101819052506040518060400160405280601481526020017f746f74616c4173736574734661697256616c75650000000000000000000000008152508160038151811061061d5761061c61320f565b5b6020026020010181905250604051806060016040528060228152602001613f8f60229139816004815181106106555761065461320f565b5b602002602001018190525061066a8183611fcb565b6000836080015184604001516106809190613720565b905080600160405161069190613868565b908152602001604051809103902060008282546106ae919061387d565b9250508190555060006064600554866060015187604001516106d091906136ec565b6106da9190613754565b6106e491906137c5565b90506000600367ffffffffffffffff811115610703576107026125e9565b5b60405190808252806020026020018201604052801561073657816020015b60608152602001906001900390816107215790505b50905060405180606001604052806034815260200161404360349139816000815181106107665761076561320f565b5b602002602001018190525060405180606001604052806038815260200161420d603891398160018151811061079e5761079d61320f565b5b60200260200101819052506040518060400160405280602081526020017f6c696162696c69746965732e746f74616c416d6f756e744661697256616c7565815250816002815181106107f3576107f261320f565b5b60200260200101819052506108088183611fcb565b60008660600151876040015161081e91906136ec565b905080600160405161082f90613933565b9081526020016040518091039020600082825461084c919061387d565b925050819055506000606460055489608001518a6060015161086e9190613720565b6108789190613754565b61088291906137c5565b90506000600367ffffffffffffffff8111156108a1576108a06125e9565b5b6040519080825280602002602001820160405280156108d457816020015b60608152602001906001900390816108bf5790505b50905060405180606001604052806034815260200161413160349139816000815181106109045761090361320f565b5b6020026020010181905250604051806060016040528060388152602001613ea4603891398160018151811061093c5761093b61320f565b5b60200260200101819052506040518060400160405280601b81526020017f6571756974792e746f74616c416d6f756e744661697256616c75650000000000815250816002815181106109915761099061320f565b5b60200260200101819052506109a68183611fcb565b600089608001518a606001516109bc9190613720565b90508060016040516109cd906139ba565b908152602001604051809103902060008282546109ea919061387d565b92505081905550600060646005548c608001518d60600151610a0c9190613720565b610a169190613754565b610a2091906137c5565b90506000600367ffffffffffffffff811115610a3f57610a3e6125e9565b5b604051908082528060200260200182016040528015610a7257816020015b6060815260200190600190039081610a5d5790505b5090506040518060600160405280602d8152602001613fe7602d913981600081518110610aa257610aa161320f565b5b60200260200101819052506040518060600160405280603c8152602001613edc603c913981600181518110610ada57610ad961320f565b5b60200260200101819052506040518060400160405280600981526020017f6e657450726f666974000000000000000000000000000000000000000000000081525081600281518110610b2f57610b2e61320f565b5b6020026020010181905250610b44818361203e565b60008c608001518d60600151610b5a9190613720565b9050806002604051610b6b90613a41565b90815260200160405180910390206000828254610b88919061387d565b92505081905550610b988d6120b1565b50505050505050505050505050505050505050565b6002818051602081018201805184825260208301602085012081835280955050505050506000915090505481565b6003818051602081018201805184825260208301602085012081835280955050505050506000915090505481565b60008080549050905090565b60606000805b600080549050811015610ca9578460008281548110610c3d57610c3c61320f565b5b90600052602060002090600702016005015410158015610c8257508360008281548110610c6d57610c6c61320f565b5b90600052602060002090600702016005015411155b15610c96578180610c929061343b565b9250505b8080610ca19061343b565b915050610c1b565b5060008167ffffffffffffffff811115610cc657610cc56125e9565b5b604051908082528060200260200182016040528015610cff57816020015b610cec612506565b815260200190600190039081610ce45790505b5090506000805b600080549050811015610f35578660008281548110610d2857610d2761320f565b5b90600052602060002090600702016005015410158015610d6d57508560008281548110610d5857610d5761320f565b5b90600052602060002090600702016005015411155b15610f225760008181548110610d8657610d8561320f565b5b90600052602060002090600702016040518060e0016040529081600082018054610daf9061326d565b80601f0160208091040260200160405190810160405280929190818152602001828054610ddb9061326d565b8015610e285780601f10610dfd57610100808354040283529160200191610e28565b820191906000526020600020905b815481529060010190602001808311610e0b57829003601f168201915b50505050508152602001600182018054610e419061326d565b80601f0160208091040260200160405190810160405280929190818152602001828054610e6d9061326d565b8015610eba5780601f10610e8f57610100808354040283529160200191610eba565b820191906000526020600020905b815481529060010190602001808311610e9d57829003601f168201915b5050505050815260200160028201548152602001600382015481526020016004820154815260200160058201548152602001600682015481525050838381518110610f0857610f0761320f565b5b60200260200101819052508180610f1e9061343b565b9250505b8080610f2d9061343b565b915050610d06565b5081935050505092915050565b8260058190555081600681905550806007819055508360089081610f66919061361a565b5050505050565b610f75612506565b6000808054905011610fbc576040517f08c379a0000000000000000000000000000000000000000000000000000000008152600401610fb390613aa2565b60405180910390fd5b60006001600080549050610fd091906136ec565b81548110610fe157610fe061320f565b5b90600052602060002090600702016040518060e001604052908160008201805461100a9061326d565b80601f01602080910402602001604051908101604052809291908181526020018280546110369061326d565b80156110835780601f1061105857610100808354040283529160200191611083565b820191906000526020600020905b81548152906001019060200180831161106657829003601f168201915b5050505050815260200160018201805461109c9061326d565b80601f01602080910402602001604051908101604052809291908181526020018280546110c89061326d565b80156111155780601f106110ea57610100808354040283529160200191611115565b820191906000526020600020905b8154815290600101906020018083116110f857829003601f168201915b5050505050815260200160028201548152602001600382015481526020016004820154815260200160058201548152602001600682015481525050905090565b61115d612506565b60008054905082106111a4576040517f08c379a000000000000000000000000000000000000000000000000000000000815260040161119b90613b0e565b60405180910390fd5b600082815481106111b8576111b761320f565b5b90600052602060002090600702016040518060e00160405290816000820180546111e19061326d565b80601f016020809104026020016040519081016040528092919081815260200182805461120d9061326d565b801561125a5780601f1061122f5761010080835404028352916020019161125a565b820191906000526020600020905b81548152906001019060200180831161123d57829003601f168201915b505050505081526020016001820180546112739061326d565b80601f016020809104026020016040519081016040528092919081815260200182805461129f9061326d565b80156112ec5780601f106112c1576101008083540402835291602001916112ec565b820191906000526020600020905b8154815290600101906020018083116112cf57829003601f168201915b50505050508152602001600282015481526020016003820154815260200160048201548152602001600582015481526020016006820154815250509050919050565b6000818154811061133e57600080fd5b90600052602060002090600702016000915090508060000180546113619061326d565b80601f016020809104026020016040519081016040528092919081815260200182805461138d9061326d565b80156113da5780601f106113af576101008083540402835291602001916113da565b820191906000526020600020905b8154815290600101906020018083116113bd57829003601f168201915b5050505050908060010180546113ef9061326d565b80601f016020809104026020016040519081016040528092919081815260200182805461141b9061326d565b80156114685780601f1061143d57610100808354040283529160200191611468565b820191906000526020600020905b81548152906001019060200180831161144b57829003601f168201915b5050505050908060020154908060030154908060040154908060050154908060060154905087565b611498612506565b60006004836040516114aa9190613389565b9081526020016040518091039020541415806115355750816040516020016114d29190613389565b60405160208183030381529060405280519060200120600080815481106114fc576114fb61320f565b5b906000526020600020906007020160000160405160200161151d9190613341565b60405160208183030381529060405280519060200120145b611574576040517f08c379a000000000000000000000000000000000000000000000000000000000815260040161156b90613b7a565b60405180910390fd5b60006004836040516115869190613389565b908152602001604051809103902054815481106115a6576115a561320f565b5b90600052602060002090600702016040518060e00160405290816000820180546115cf9061326d565b80601f01602080910402602001604051908101604052809291908181526020018280546115fb9061326d565b80156116485780601f1061161d57610100808354040283529160200191611648565b820191906000526020600020905b81548152906001019060200180831161162b57829003601f168201915b505050505081526020016001820180546116619061326d565b80601f016020809104026020016040519081016040528092919081815260200182805461168d9061326d565b80156116da5780601f106116af576101008083540402835291602001916116da565b820191906000526020600020905b8154815290600101906020018083116116bd57829003601f168201915b50505050508152602001600282015481526020016003820154815260200160048201548152602001600582015481526020016006820154815250509050919050565b6060611726612543565b606061173061256b565b606061173a612592565b606060006117488a8a610c15565b9050805167ffffffffffffffff811115611765576117646125e9565b5b60405190808252806020026020018201604052801561179857816020015b60608152602001906001900390816117835790505b509750604051806101c00160405280604051806060016040528060328152602001613e1e603291398152602001604051806060016040528060338152602001613f18603391398152602001604051806060016040528060368152602001613fb16036913981526020016040518060400160405280601b81526020017f6173736574732e746f74616c416d6f756e744661697256616c7565000000000081525081526020016040518060400160405280601481526020017f746f74616c4173736574734661697256616c756500000000000000000000000081525081526020016040518060600160405280603481526020016140436034913981526020016040518060600160405280603581526020016140fc60359139815260200160405180606001604052806038815260200161420d6038913981526020016040518060400160405280602081526020017f6c696162696c69746965732e746f74616c416d6f756e744661697256616c756581525081526020016040518060600160405280603481526020016141316034913981526020016040518060600160405280603581526020016141d8603591398152602001604051806060016040528060388152602001613ea46038913981526020016040518060400160405280601b81526020017f6571756974792e746f74616c416d6f756e744661697256616c756500000000008152508152602001604051806060016040528060228152602001613f8f60229139815250965060405180608001604052806040518060600160405280602d8152602001613fe7602d913981526020016040518060600160405280602f8152602001614014602f913981526020016040518060a0016040528060808152602001613d9e6080913981526020016040518060400160405280600981526020017f6e657450726f666974000000000000000000000000000000000000000000000081525081525094506040518061010001604052806040518060a001604052806071815260200161435a6071913981526020016040518060a00160405280607381526020016141656073913981526020016040518060a0016040528060808152602001613d9e6080913981526020016040518060c00160405280608381526020016142d76083913981526020016040518060c00160405280608581526020016140776085913981526020016040518060c0016040528060928152602001614245609291398152602001604051806080016040528060448152602001613f4b604491398152602001604051806080016040528060548152602001613e50605491398152509250805167ffffffffffffffff811115611b7657611b756125e9565b5b604051908082528060200260200182016040528015611ba957816020015b6060815260200190600190039081611b945790505b509550805167ffffffffffffffff811115611bc757611bc66125e9565b5b604051908082528060200260200182016040528015611bfa57816020015b6060815260200190600190039081611be55790505b509350805167ffffffffffffffff811115611c1857611c176125e9565b5b604051908082528060200260200182016040528015611c4b57816020015b6060815260200190600190039081611c365790505b50915060005b8151811015611f8f57818181518110611c6d57611c6c61320f565b5b602002602001015160000151898281518110611c8c57611c8b61320f565b5b6020026020010181905250600e67ffffffffffffffff811115611cb257611cb16125e9565b5b604051908082528060200260200182016040528015611ce05781602001602082028036833780820191505090505b50878281518110611cf457611cf361320f565b5b6020026020010181905250600467ffffffffffffffff811115611d1a57611d196125e9565b5b604051908082528060200260200182016040528015611d485781602001602082028036833780820191505090505b50858281518110611d5c57611d5b61320f565b5b6020026020010181905250600867ffffffffffffffff811115611d8257611d816125e9565b5b604051908082528060200260200182016040528015611db05781602001602082028036833780820191505090505b50838281518110611dc457611dc361320f565b5b602002602001018190525060005b600e811015611e5d5760018982600e8110611df057611def61320f565b5b6020020151604051611e029190613389565b908152602001604051809103902054888381518110611e2457611e2361320f565b5b60200260200101518281518110611e3e57611e3d61320f565b5b6020026020010181815250508080611e559061343b565b915050611dd2565b5060005b6004811015611eec576002878260048110611e7f57611e7e61320f565b5b6020020151604051611e919190613389565b908152602001604051809103902054868381518110611eb357611eb261320f565b5b60200260200101518281518110611ecd57611ecc61320f565b5b6020026020010181815250508080611ee49061343b565b915050611e61565b5060005b6008811015611f7b576003858260088110611f0e57611f0d61320f565b5b6020020151604051611f209190613389565b908152602001604051809103902054848381518110611f4257611f4161320f565b5b60200260200101518281518110611f5c57611f5b61320f565b5b6020026020010181815250508080611f739061343b565b915050611ef0565b508080611f879061343b565b915050611c51565b505092959891949750929550565b6001818051602081018201805184825260208301602085012081835280955050505050506000915090505481565b60005b825181101561203957816001848381518110611fed57611fec61320f565b5b60200260200101516040516120029190613389565b9081526020016040518091039020600082825461201f919061387d565b9250508190555080806120319061343b565b915050611fce565b505050565b60005b82518110156120ac578160028483815181106120605761205f61320f565b5b60200260200101516040516120759190613389565b90815260200160405180910390206000828254612092919061387d565b9250508190555080806120a49061343b565b915050612041565b505050565b600060648260c00151836060015184604001516120ce91906136ec565b6120d89190613754565b6120e291906137c5565b90506000600267ffffffffffffffff811115612101576121006125e9565b5b60405190808252806020026020018201604052801561213457816020015b606081526020019060019003908161211f5790505b5090506040518060a001604052806071815260200161435a60719139816000815181106121645761216361320f565b5b60200260200101819052506040518060a0016040528060808152602001613d9e608091398160018151811061219c5761219b61320f565b5b60200260200101819052506121b18183612493565b6000836060015184604001516121c791906136ec565b90508060036040516121d890613c58565b908152602001604051809103902060008282546121f5919061387d565b92505081905550600060648560c00151866080015187606001516122199190613720565b6122239190613754565b61222d91906137c5565b90506000600267ffffffffffffffff81111561224c5761224b6125e9565b5b60405190808252806020026020018201604052801561227f57816020015b606081526020019060019003908161226a5790505b5090506040518060c00160405280608381526020016142d760839139816000815181106122af576122ae61320f565b5b60200260200101819052506040518060c001604052806092815260200161424560929139816001815181106122e7576122e661320f565b5b60200260200101819052506122fc8183612493565b60008660600151876040015161231291906136ec565b905080600360405161232390613d51565b90815260200160405180910390206000828254612340919061387d565b92505081905550600060648860c0015189608001518a604001516123649190613720565b61236e9190613754565b61237891906137c5565b90506000600267ffffffffffffffff811115612397576123966125e9565b5b6040519080825280602002602001820160405280156123ca57816020015b60608152602001906001900390816123b55790505b509050604051806080016040528060448152602001613f4b60449139816000815181106123fa576123f961320f565b5b6020026020010181905250604051806080016040528060548152602001613e5060549139816001815181106124325761243161320f565b5b60200260200101819052506124478183612493565b7fa26bdd521074fe90072fbbad03f6cccbc67a863f014b3f6afa31efa7e026ee4a89600001518a60200151604051612480929190613d66565b60405180910390a1505050505050505050565b60005b8251811015612501578160038483815181106124b5576124b461320f565b5b60200260200101516040516124ca9190613389565b908152602001604051809103902060008282546124e7919061387d565b9250508190555080806124f99061343b565b915050612496565b505050565b6040518060e00160405280606081526020016060815260200160008152602001600081526020016000815260200160008152602001600081525090565b604051806101c00160405280600e905b60608152602001906001900390816125535790505090565b60405180608001604052806004905b606081526020019060019003908161257a5790505090565b6040518061010001604052806008905b60608152602001906001900390816125a25790505090565b6000604051905090565b600080fd5b600080fd5b600080fd5b600080fd5b6000601f19601f8301169050919050565b7f4e487b7100000000000000000000000000000000000000000000000000000000600052604160045260246000fd5b612621826125d8565b810181811067ffffffffffffffff821117156126405761263f6125e9565b5b80604052505050565b60006126536125ba565b905061265f8282612618565b919050565b600067ffffffffffffffff82111561267f5761267e6125e9565b5b612688826125d8565b9050602081019050919050565b82818337600083830152505050565b60006126b76126b284612664565b612649565b9050828152602081018484840111156126d3576126d26125d3565b5b6126de848285612695565b509392505050565b600082601f8301126126fb576126fa6125ce565b5b813561270b8482602086016126a4565b91505092915050565b6000819050919050565b61272781612714565b811461273257600080fd5b50565b6000813590506127448161271e565b92915050565b60008060008060008060c08789031215612767576127666125c4565b5b600087013567ffffffffffffffff811115612785576127846125c9565b5b61279189828a016126e6565b965050602087013567ffffffffffffffff8111156127b2576127b16125c9565b5b6127be89828a016126e6565b95505060406127cf89828a01612735565b94505060606127e089828a01612735565b93505060806127f189828a01612735565b92505060a061280289828a01612735565b9150509295509295509295565b600060208284031215612825576128246125c4565b5b600082013567ffffffffffffffff811115612843576128426125c9565b5b61284f848285016126e6565b91505092915050565b6000819050919050565b61286b81612858565b82525050565b60006020820190506128866000830184612862565b92915050565b61289581612714565b82525050565b60006020820190506128b0600083018461288c565b92915050565b600080604083850312156128cd576128cc6125c4565b5b60006128db85828601612735565b92505060206128ec85828601612735565b9150509250929050565b600081519050919050565b600082825260208201905092915050565b6000819050602082019050919050565b600081519050919050565b600082825260208201905092915050565b60005b8381101561295c578082015181840152602081019050612941565b60008484015250505050565b600061297382612922565b61297d818561292d565b935061298d81856020860161293e565b612996816125d8565b840191505092915050565b6129aa81612714565b82525050565b600060e08301600083015184820360008601526129cd8282612968565b915050602083015184820360208601526129e78282612968565b91505060408301516129fc60408601826129a1565b506060830151612a0f60608601826129a1565b506080830151612a2260808601826129a1565b5060a0830151612a3560a08601826129a1565b5060c0830151612a4860c08601826129a1565b508091505092915050565b6000612a5f83836129b0565b905092915050565b6000602082019050919050565b6000612a7f826128f6565b612a898185612901565b935083602082028501612a9b85612912565b8060005b85811015612ad75784840389528151612ab88582612a53565b9450612ac383612a67565b925060208a01995050600181019050612a9f565b50829750879550505050505092915050565b60006020820190508181036000830152612b038184612a74565b905092915050565b60008060008060808587031215612b2557612b246125c4565b5b600085013567ffffffffffffffff811115612b4357612b426125c9565b5b612b4f878288016126e6565b9450506020612b6087828801612735565b9350506040612b7187828801612735565b9250506060612b8287828801612735565b91505092959194509250565b600060e0830160008301518482036000860152612bab8282612968565b91505060208301518482036020860152612bc58282612968565b9150506040830151612bda60408601826129a1565b506060830151612bed60608601826129a1565b506080830151612c0060808601826129a1565b5060a0830151612c1360a08601826129a1565b5060c0830151612c2660c08601826129a1565b508091505092915050565b60006020820190508181036000830152612c4b8184612b8e565b905092915050565b600060208284031215612c6957612c686125c4565b5b6000612c7784828501612735565b91505092915050565b600082825260208201905092915050565b6000612c9c82612922565b612ca68185612c80565b9350612cb681856020860161293e565b612cbf816125d8565b840191505092915050565b600060e0820190508181036000830152612ce4818a612c91565b90508181036020830152612cf88189612c91565b9050612d07604083018861288c565b612d14606083018761288c565b612d21608083018661288c565b612d2e60a083018561288c565b612d3b60c083018461288c565b98975050505050505050565b600081519050919050565b600082825260208201905092915050565b6000819050602082019050919050565b6000612d7f8383612968565b905092915050565b6000602082019050919050565b6000612d9f82612d47565b612da98185612d52565b935083602082028501612dbb85612d63565b8060005b85811015612df75784840389528151612dd88582612d73565b9450612de383612d87565b925060208a01995050600181019050612dbf565b50829750879550505050505092915050565b6000600e9050919050565b600081905092915050565b6000819050919050565b6000602082019050919050565b6000612e4182612e09565b612e4b8185612e14565b935083602082028501612e5d85612e1f565b8060005b85811015612e995784840389528151612e7a8582612d73565b9450612e8583612e29565b925060208a01995050600181019050612e61565b50829750879550505050505092915050565b600081519050919050565b600082825260208201905092915050565b6000819050602082019050919050565b600081519050919050565b600082825260208201905092915050565b6000819050602082019050919050565b612f0c81612858565b82525050565b6000612f1e8383612f03565b60208301905092915050565b6000602082019050919050565b6000612f4282612ed7565b612f4c8185612ee2565b9350612f5783612ef3565b8060005b83811015612f88578151612f6f8882612f12565b9750612f7a83612f2a565b925050600181019050612f5b565b5085935050505092915050565b6000612fa18383612f37565b905092915050565b6000602082019050919050565b6000612fc182612eab565b612fcb8185612eb6565b935083602082028501612fdd85612ec7565b8060005b858110156130195784840389528151612ffa8582612f95565b945061300583612fa9565b925060208a01995050600181019050612fe1565b50829750879550505050505092915050565b600060049050919050565b600081905092915050565b6000819050919050565b6000602082019050919050565b60006130638261302b565b61306d8185613036565b93508360208202850161307f85613041565b8060005b858110156130bb578484038952815161309c8582612d73565b94506130a78361304b565b925060208a01995050600181019050613083565b50829750879550505050505092915050565b600060089050919050565b600081905092915050565b6000819050919050565b6000602082019050919050565b6000613105826130cd565b61310f81856130d8565b935083602082028501613121856130e3565b8060005b8581101561315d578484038952815161313e8582612d73565b9450613149836130ed565b925060208a01995050600181019050613125565b50829750879550505050505092915050565b600060e0820190508181036000830152613189818a612d94565b9050818103602083015261319d8189612e36565b905081810360408301526131b18188612fb6565b905081810360608301526131c58187613058565b905081810360808301526131d98186612fb6565b905081810360a08301526131ed81856130fa565b905081810360c08301526132018184612fb6565b905098975050505050505050565b7f4e487b7100000000000000000000000000000000000000000000000000000000600052603260045260246000fd5b7f4e487b7100000000000000000000000000000000000000000000000000000000600052602260045260246000fd5b6000600282049050600182168061328557607f821691505b6020821081036132985761329761323e565b5b50919050565b600081905092915050565b60008190508160005260206000209050919050565b600081546132cb8161326d565b6132d5818661329e565b945060018216600081146132f0576001811461330557613338565b60ff1983168652811515820286019350613338565b61330e856132a9565b60005b8381101561333057815481890152600182019150602081019050613311565b838801955050505b50505092915050565b600061334d82846132be565b915081905092915050565b600061336382612922565b61336d818561329e565b935061337d81856020860161293e565b80840191505092915050565b60006133958284613358565b915081905092915050565b7f494420616c7265616479206578697374732e0000000000000000000000000000600082015250565b60006133d6601283612c80565b91506133e1826133a0565b602082019050919050565b60006020820190508181036000830152613405816133c9565b9050919050565b7f4e487b7100000000000000000000000000000000000000000000000000000000600052601160045260246000fd5b600061344682612714565b91507fffffffffffffffffffffffffffffffffffffffffffffffffffffffffffffffff82036134785761347761340c565b5b600182019050919050565b60006020601f8301049050919050565b600082821b905092915050565b6000600883026134d07fffffffffffffffffffffffffffffffffffffffffffffffffffffffffffffffff82613493565b6134da8683613493565b95508019841693508086168417925050509392505050565b6000819050919050565b600061351761351261350d84612714565b6134f2565b612714565b9050919050565b6000819050919050565b613531836134fc565b61354561353d8261351e565b8484546134a0565b825550505050565b600090565b61355a61354d565b613565818484613528565b505050565b5b818110156135895761357e600082613552565b60018101905061356b565b5050565b601f8211156135ce5761359f816132a9565b6135a884613483565b810160208510156135b7578190505b6135cb6135c385613483565b83018261356a565b50505b505050565b600082821c905092915050565b60006135f1600019846008026135d3565b1980831691505092915050565b600061360a83836135e0565b9150826002028217905092915050565b61362382612922565b67ffffffffffffffff81111561363c5761363b6125e9565b5b613646825461326d565b61365182828561358d565b600060209050601f8311600181146136845760008415613672578287015190505b61367c85826135fe565b8655506136e4565b601f198416613692866132a9565b60005b828110156136ba57848901518255600182019150602085019450602081019050613695565b868310156136d757848901516136d3601f8916826135e0565b8355505b6001600288020188555050505b505050505050565b60006136f782612714565b915061370283612714565b925082820390508181111561371a5761371961340c565b5b92915050565b600061372b82612714565b915061373683612714565b925082820190508082111561374e5761374d61340c565b5b92915050565b600061375f82612714565b915061376a83612714565b925082820261377881612714565b9150828204841483151761378f5761378e61340c565b5b5092915050565b7f4e487b7100000000000000000000000000000000000000000000000000000000600052601260045260246000fd5b60006137d082612714565b91506137db83612714565b9250826137eb576137ea613796565b5b828204905092915050565b7f6173736574732e64657461696c732e63727970746f63757272656e63792e627260008201527f65616b646f776e2e555344542e616d6f756e7400000000000000000000000000602082015250565b600061385260338361329e565b915061385d826137f6565b603382019050919050565b600061387382613845565b9150819050919050565b600061388882612858565b915061389383612858565b9250828201905082811215600083121683821260008412151617156138bb576138ba61340c565b5b92915050565b7f6c696162696c69746965732e64657461696c732e757365724465706f7369742e60008201527f627265616b646f776e2e555344542e616d6f756e740000000000000000000000602082015250565b600061391d60358361329e565b9150613928826138c1565b603582019050919050565b600061393e82613910565b9150819050919050565b7f6571756974792e64657461696c732e72657461696e65644561726e696e67732e60008201527f627265616b646f776e2e555344542e616d6f756e740000000000000000000000602082015250565b60006139a460358361329e565b91506139af82613948565b603582019050919050565b60006139c582613997565b9150819050919050565b7f696e636f6d652e64657461696c732e6465706f7369744665652e627265616b6460008201527f6f776e2e555344542e616d6f756e740000000000000000000000000000000000602082015250565b6000613a2b602f8361329e565b9150613a36826139cf565b602f82019050919050565b6000613a4c82613a1e565b9150819050919050565b7f4e6f207472616e73616374696f6e7320617661696c61626c652e000000000000600082015250565b6000613a8c601a83612c80565b9150613a9782613a56565b602082019050919050565b60006020820190508181036000830152613abb81613a7f565b9050919050565b7f496e76616c696420696e64657800000000000000000000000000000000000000600082015250565b6000613af8600d83612c80565b9150613b0382613ac2565b602082019050919050565b60006020820190508181036000830152613b2781613aeb565b9050919050565b7f5472616e73616374696f6e206e6f7420666f756e640000000000000000000000600082015250565b6000613b64601583612c80565b9150613b6f82613b2e565b602082019050919050565b60006020820190508181036000830152613b9381613b57565b9050919050565b7f737570706c656d656e74616c5363686564756c654f664e6f6e436173684f706560008201527f726174696e67416374697669746965732e64657461696c732e63727970746f6360208201527f757272656e636965734465706f73697465644279437573746f6d6572732e627260408201527f65616b646f776e2e555344542e616d6f756e7400000000000000000000000000606082015250565b6000613c4260738361329e565b9150613c4d82613b9a565b607382019050919050565b6000613c6382613c35565b9150819050919050565b7f737570706c656d656e74616c5363686564756c654f664e6f6e436173684f706560008201527f726174696e67416374697669746965732e64657461696c732e63727970746f6360208201527f757272656e63696573526563656976656446726f6d437573746f6d657273417360408201527f5472616e73616374696f6e466565732e627265616b646f776e2e555344542e6160608201527f6d6f756e74000000000000000000000000000000000000000000000000000000608082015250565b6000613d3b60858361329e565b9150613d4682613c6d565b608582019050919050565b6000613d5c82613d2e565b9150819050919050565b60006040820190508181036000830152613d808185612c91565b90508181036020830152613d948184612c91565b9050939250505056fe737570706c656d656e74616c5363686564756c654f664e6f6e436173684f7065726174696e67416374697669746965732e64657461696c732e63727970746f63757272656e636965734465706f73697465644279437573746f6d6572732e627265616b646f776e2e555344542e776569676874656441766572616765436f73746173736574732e64657461696c732e63727970746f63757272656e63792e746f74616c416d6f756e744661697256616c7565737570706c656d656e74616c5363686564756c654f664e6f6e436173684f7065726174696e67416374697669746965732e64657461696c732e63727970746f63757272656e63696573456e644f66506572696f646571756974792e64657461696c732e72657461696e65644561726e696e67732e627265616b646f776e2e555344542e6661697256616c7565696e636f6d652e64657461696c732e6465706f7369744665652e627265616b646f776e2e555344542e776569676874656441766572616765436f73746173736574732e64657461696c732e63727970746f63757272656e63792e627265616b646f776e2e555344542e616d6f756e74737570706c656d656e74616c5363686564756c654f664e6f6e436173684f7065726174696e67416374697669746965732e776569676874656441766572616765436f7374746f74616c4c696162696c6974696573416e644571756974794661697256616c75656173736574732e64657461696c732e63727970746f63757272656e63792e627265616b646f776e2e555344542e6661697256616c7565696e636f6d652e64657461696c732e6465706f7369744665652e776569676874656441766572616765436f7374696e636f6d652e64657461696c732e6465706f7369744665652e627265616b646f776e2e555344542e616d6f756e746c696162696c69746965732e64657461696c732e757365724465706f7369742e746f74616c416d6f756e744661697256616c7565737570706c656d656e74616c5363686564756c654f664e6f6e436173684f7065726174696e67416374697669746965732e64657461696c732e63727970746f63757272656e63696573526563656976656446726f6d437573746f6d65727341735472616e73616374696f6e466565732e627265616b646f776e2e555344542e616d6f756e746c696162696c69746965732e64657461696c732e757365724465706f7369742e627265616b646f776e2e555344542e616d6f756e746571756974792e64657461696c732e72657461696e65644561726e696e67732e746f74616c416d6f756e744661697256616c7565737570706c656d656e74616c5363686564756c654f664e6f6e436173684f7065726174696e67416374697669746965732e64657461696c732e63727970746f63757272656e636965734465706f73697465644279437573746f6d6572732e627265616b646f776e2e555344542e616d6f756e746571756974792e64657461696c732e72657461696e65644561726e696e67732e627265616b646f776e2e555344542e616d6f756e746c696162696c69746965732e64657461696c732e757365724465706f7369742e627265616b646f776e2e555344542e6661697256616c7565737570706c656d656e74616c5363686564756c654f664e6f6e436173684f7065726174696e67416374697669746965732e64657461696c732e63727970746f63757272656e63696573526563656976656446726f6d437573746f6d65727341735472616e73616374696f6e466565732e627265616b646f776e2e555344542e776569676874656441766572616765436f7374737570706c656d656e74616c5363686564756c654f664e6f6e436173684f7065726174696e67416374697669746965732e64657461696c732e63727970746f63757272656e63696573526563656976656446726f6d437573746f6d65727341735472616e73616374696f6e466565732e776569676874656441766572616765436f7374737570706c656d656e74616c5363686564756c654f664e6f6e436173684f7065726174696e67416374697669746965732e64657461696c732e63727970746f63757272656e636965734465706f73697465644279437573746f6d6572732e776569676874656441766572616765436f7374a2646970667358221220fd30d3e02bb8d0666d03737e2495d8653b1313a1e8b0a401c987eddbf325ecee64736f6c63430008120033",
					"opcodes": "PUSH1 0x80 PUSH1 0x40 MSTORE CALLVALUE DUP1 ISZERO PUSH2 0x10 JUMPI PUSH1 0x0 DUP1 REVERT JUMPDEST POP PUSH2 0x4400 DUP1 PUSH2 0x20 PUSH1 0x0 CODECOPY PUSH1 0x0 RETURN INVALID PUSH1 0x80 PUSH1 0x40 MSTORE CALLVALUE DUP1 ISZERO PUSH2 0x10 JUMPI PUSH1 0x0 DUP1 REVERT JUMPDEST POP PUSH1 0x4 CALLDATASIZE LT PUSH2 0xB4 JUMPI PUSH1 0x0 CALLDATALOAD PUSH1 0xE0 SHR DUP1 PUSH4 0x6CCC29DC GT PUSH2 0x71 JUMPI DUP1 PUSH4 0x6CCC29DC EQ PUSH2 0x19F JUMPI DUP1 PUSH4 0x869152E7 EQ PUSH2 0x1BD JUMPI DUP1 PUSH4 0x9ACE38C2 EQ PUSH2 0x1ED JUMPI DUP1 PUSH4 0x9FF16EB7 EQ PUSH2 0x223 JUMPI DUP1 PUSH4 0xC2E27541 EQ PUSH2 0x253 JUMPI DUP1 PUSH4 0xF61347CF EQ PUSH2 0x289 JUMPI PUSH2 0xB4 JUMP JUMPDEST DUP1 PUSH4 0x12496544 EQ PUSH2 0xB9 JUMPI DUP1 PUSH4 0x2B3A8659 EQ PUSH2 0xD5 JUMPI DUP1 PUSH4 0x2C86881C EQ PUSH2 0x105 JUMPI DUP1 PUSH4 0x2E7700F0 EQ PUSH2 0x135 JUMPI DUP1 PUSH4 0x4FB9118B EQ PUSH2 0x153 JUMPI DUP1 PUSH4 0x519A334B EQ PUSH2 0x183 JUMPI JUMPDEST PUSH1 0x0 DUP1 REVERT JUMPDEST PUSH2 0xD3 PUSH1 0x4 DUP1 CALLDATASIZE SUB DUP2 ADD SWAP1 PUSH2 0xCE SWAP2 SWAP1 PUSH2 0x274A JUMP JUMPDEST PUSH2 0x2B9 JUMP JUMPDEST STOP JUMPDEST PUSH2 0xEF PUSH1 0x4 DUP1 CALLDATASIZE SUB DUP2 ADD SWAP1 PUSH2 0xEA SWAP2 SWAP1 PUSH2 0x280F JUMP JUMPDEST PUSH2 0xBAD JUMP JUMPDEST PUSH1 0x40 MLOAD PUSH2 0xFC SWAP2 SWAP1 PUSH2 0x2871 JUMP JUMPDEST PUSH1 0x40 MLOAD DUP1 SWAP2 SUB SWAP1 RETURN JUMPDEST PUSH2 0x11F PUSH1 0x4 DUP1 CALLDATASIZE SUB DUP2 ADD SWAP1 PUSH2 0x11A SWAP2 SWAP1 PUSH2 0x280F JUMP JUMPDEST PUSH2 0xBDB JUMP JUMPDEST PUSH1 0x40 MLOAD PUSH2 0x12C SWAP2 SWAP1 PUSH2 0x2871 JUMP JUMPDEST PUSH1 0x40 MLOAD DUP1 SWAP2 SUB SWAP1 RETURN JUMPDEST PUSH2 0x13D PUSH2 0xC09 JUMP JUMPDEST PUSH1 0x40 MLOAD PUSH2 0x14A SWAP2 SWAP1 PUSH2 0x289B JUMP JUMPDEST PUSH1 0x40 MLOAD DUP1 SWAP2 SUB SWAP1 RETURN JUMPDEST PUSH2 0x16D PUSH1 0x4 DUP1 CALLDATASIZE SUB DUP2 ADD SWAP1 PUSH2 0x168 SWAP2 SWAP1 PUSH2 0x28B6 JUMP JUMPDEST PUSH2 0xC15 JUMP JUMPDEST PUSH1 0x40 MLOAD PUSH2 0x17A SWAP2 SWAP1 PUSH2 0x2AE9 JUMP JUMPDEST PUSH1 0x40 MLOAD DUP1 SWAP2 SUB SWAP1 RETURN JUMPDEST PUSH2 0x19D PUSH1 0x4 DUP1 CALLDATASIZE SUB DUP2 ADD SWAP1 PUSH2 0x198 SWAP2 SWAP1 PUSH2 0x2B0B JUMP JUMPDEST PUSH2 0xF42 JUMP JUMPDEST STOP JUMPDEST PUSH2 0x1A7 PUSH2 0xF6D JUMP JUMPDEST PUSH1 0x40 MLOAD PUSH2 0x1B4 SWAP2 SWAP1 PUSH2 0x2C31 JUMP JUMPDEST PUSH1 0x40 MLOAD DUP1 SWAP2 SUB SWAP1 RETURN JUMPDEST PUSH2 0x1D7 PUSH1 0x4 DUP1 CALLDATASIZE SUB DUP2 ADD SWAP1 PUSH2 0x1D2 SWAP2 SWAP1 PUSH2 0x2C53 JUMP JUMPDEST PUSH2 0x1155 JUMP JUMPDEST PUSH1 0x40 MLOAD PUSH2 0x1E4 SWAP2 SWAP1 PUSH2 0x2C31 JUMP JUMPDEST PUSH1 0x40 MLOAD DUP1 SWAP2 SUB SWAP1 RETURN JUMPDEST PUSH2 0x207 PUSH1 0x4 DUP1 CALLDATASIZE SUB DUP2 ADD SWAP1 PUSH2 0x202 SWAP2 SWAP1 PUSH2 0x2C53 JUMP JUMPDEST PUSH2 0x132E JUMP JUMPDEST PUSH1 0x40 MLOAD PUSH2 0x21A SWAP8 SWAP7 SWAP6 SWAP5 SWAP4 SWAP3 SWAP2 SWAP1 PUSH2 0x2CCA JUMP JUMPDEST PUSH1 0x40 MLOAD DUP1 SWAP2 SUB SWAP1 RETURN JUMPDEST PUSH2 0x23D PUSH1 0x4 DUP1 CALLDATASIZE SUB DUP2 ADD SWAP1 PUSH2 0x238 SWAP2 SWAP1 PUSH2 0x280F JUMP JUMPDEST PUSH2 0x1490 JUMP JUMPDEST PUSH1 0x40 MLOAD PUSH2 0x24A SWAP2 SWAP1 PUSH2 0x2C31 JUMP JUMPDEST PUSH1 0x40 MLOAD DUP1 SWAP2 SUB SWAP1 RETURN JUMPDEST PUSH2 0x26D PUSH1 0x4 DUP1 CALLDATASIZE SUB DUP2 ADD SWAP1 PUSH2 0x268 SWAP2 SWAP1 PUSH2 0x28B6 JUMP JUMPDEST PUSH2 0x171C JUMP JUMPDEST PUSH1 0x40 MLOAD PUSH2 0x280 SWAP8 SWAP7 SWAP6 SWAP5 SWAP4 SWAP3 SWAP2 SWAP1 PUSH2 0x316F JUMP JUMPDEST PUSH1 0x40 MLOAD DUP1 SWAP2 SUB SWAP1 RETURN JUMPDEST PUSH2 0x2A3 PUSH1 0x4 DUP1 CALLDATASIZE SUB DUP2 ADD SWAP1 PUSH2 0x29E SWAP2 SWAP1 PUSH2 0x280F JUMP JUMPDEST PUSH2 0x1F9D JUMP JUMPDEST PUSH1 0x40 MLOAD PUSH2 0x2B0 SWAP2 SWAP1 PUSH2 0x2871 JUMP JUMPDEST PUSH1 0x40 MLOAD DUP1 SWAP2 SUB SWAP1 RETURN JUMPDEST PUSH1 0x0 JUMPDEST PUSH1 0x0 DUP1 SLOAD SWAP1 POP DUP2 LT ISZERO PUSH2 0x38E JUMPI PUSH1 0x0 DUP2 DUP2 SLOAD DUP2 LT PUSH2 0x2DD JUMPI PUSH2 0x2DC PUSH2 0x320F JUMP JUMPDEST JUMPDEST SWAP1 PUSH1 0x0 MSTORE PUSH1 0x20 PUSH1 0x0 KECCAK256 SWAP1 PUSH1 0x7 MUL ADD PUSH1 0x0 ADD PUSH1 0x40 MLOAD PUSH1 0x20 ADD PUSH2 0x2FE SWAP2 SWAP1 PUSH2 0x3341 JUMP JUMPDEST PUSH1 0x40 MLOAD PUSH1 0x20 DUP2 DUP4 SUB SUB DUP2 MSTORE SWAP1 PUSH1 0x40 MSTORE DUP1 MLOAD SWAP1 PUSH1 0x20 ADD KECCAK256 DUP8 PUSH1 0x40 MLOAD PUSH1 0x20 ADD PUSH2 0x325 SWAP2 SWAP1 PUSH2 0x3389 JUMP JUMPDEST PUSH1 0x40 MLOAD PUSH1 0x20 DUP2 DUP4 SUB SUB DUP2 MSTORE SWAP1 PUSH1 0x40 MSTORE DUP1 MLOAD SWAP1 PUSH1 0x20 ADD KECCAK256 SUB PUSH2 0x37B JUMPI PUSH1 0x40 MLOAD PUSH32 0x8C379A000000000000000000000000000000000000000000000000000000000 DUP2 MSTORE PUSH1 0x4 ADD PUSH2 0x372 SWAP1 PUSH2 0x33EC JUMP JUMPDEST PUSH1 0x40 MLOAD DUP1 SWAP2 SUB SWAP1 REVERT JUMPDEST DUP1 DUP1 PUSH2 0x386 SWAP1 PUSH2 0x343B JUMP JUMPDEST SWAP2 POP POP PUSH2 0x2BC JUMP JUMPDEST POP PUSH1 0x0 PUSH1 0x40 MLOAD DUP1 PUSH1 0xE0 ADD PUSH1 0x40 MSTORE DUP1 DUP9 DUP2 MSTORE PUSH1 0x20 ADD DUP8 DUP2 MSTORE PUSH1 0x20 ADD DUP7 DUP2 MSTORE PUSH1 0x20 ADD DUP6 DUP2 MSTORE PUSH1 0x20 ADD DUP5 DUP2 MSTORE PUSH1 0x20 ADD TIMESTAMP DUP2 MSTORE PUSH1 0x20 ADD DUP4 DUP2 MSTORE POP SWAP1 POP PUSH1 0x0 DUP2 SWAP1 DUP1 PUSH1 0x1 DUP2 SLOAD ADD DUP1 DUP3 SSTORE DUP1 SWAP2 POP POP PUSH1 0x1 SWAP1 SUB SWAP1 PUSH1 0x0 MSTORE PUSH1 0x20 PUSH1 0x0 KECCAK256 SWAP1 PUSH1 0x7 MUL ADD PUSH1 0x0 SWAP1 SWAP2 SWAP1 SWAP2 SWAP1 SWAP2 POP PUSH1 0x0 DUP3 ADD MLOAD DUP2 PUSH1 0x0 ADD SWAP1 DUP2 PUSH2 0x407 SWAP2 SWAP1 PUSH2 0x361A JUMP JUMPDEST POP PUSH1 0x20 DUP3 ADD MLOAD DUP2 PUSH1 0x1 ADD SWAP1 DUP2 PUSH2 0x41D SWAP2 SWAP1 PUSH2 0x361A JUMP JUMPDEST POP PUSH1 0x40 DUP3 ADD MLOAD DUP2 PUSH1 0x2 ADD SSTORE PUSH1 0x60 DUP3 ADD MLOAD DUP2 PUSH1 0x3 ADD SSTORE PUSH1 0x80 DUP3 ADD MLOAD DUP2 PUSH1 0x4 ADD SSTORE PUSH1 0xA0 DUP3 ADD MLOAD DUP2 PUSH1 0x5 ADD SSTORE PUSH1 0xC0 DUP3 ADD MLOAD DUP2 PUSH1 0x6 ADD SSTORE POP POP PUSH1 0x1 PUSH1 0x0 DUP1 SLOAD SWAP1 POP PUSH2 0x464 SWAP2 SWAP1 PUSH2 0x36EC JUMP JUMPDEST PUSH1 0x4 DUP3 PUSH1 0x0 ADD MLOAD PUSH1 0x40 MLOAD PUSH2 0x478 SWAP2 SWAP1 PUSH2 0x3389 JUMP JUMPDEST SWAP1 DUP2 MSTORE PUSH1 0x20 ADD PUSH1 0x40 MLOAD DUP1 SWAP2 SUB SWAP1 KECCAK256 DUP2 SWAP1 SSTORE POP PUSH1 0x0 PUSH1 0x64 PUSH1 0x5 SLOAD DUP4 PUSH1 0x80 ADD MLOAD DUP5 PUSH1 0x40 ADD MLOAD PUSH2 0x4A5 SWAP2 SWAP1 PUSH2 0x3720 JUMP JUMPDEST PUSH2 0x4AF SWAP2 SWAP1 PUSH2 0x3754 JUMP JUMPDEST PUSH2 0x4B9 SWAP2 SWAP1 PUSH2 0x37C5 JUMP JUMPDEST SWAP1 POP PUSH1 0x0 PUSH1 0x5 PUSH8 0xFFFFFFFFFFFFFFFF DUP2 GT ISZERO PUSH2 0x4D8 JUMPI PUSH2 0x4D7 PUSH2 0x25E9 JUMP JUMPDEST JUMPDEST PUSH1 0x40 MLOAD SWAP1 DUP1 DUP3 MSTORE DUP1 PUSH1 0x20 MUL PUSH1 0x20 ADD DUP3 ADD PUSH1 0x40 MSTORE DUP1 ISZERO PUSH2 0x50B JUMPI DUP2 PUSH1 0x20 ADD JUMPDEST PUSH1 0x60 DUP2 MSTORE PUSH1 0x20 ADD SWAP1 PUSH1 0x1 SWAP1 SUB SWAP1 DUP2 PUSH2 0x4F6 JUMPI SWAP1 POP JUMPDEST POP SWAP1 POP PUSH1 0x40 MLOAD DUP1 PUSH1 0x60 ADD PUSH1 0x40 MSTORE DUP1 PUSH1 0x32 DUP2 MSTORE PUSH1 0x20 ADD PUSH2 0x3E1E PUSH1 0x32 SWAP2 CODECOPY DUP2 PUSH1 0x0 DUP2 MLOAD DUP2 LT PUSH2 0x53B JUMPI PUSH2 0x53A PUSH2 0x320F JUMP JUMPDEST JUMPDEST PUSH1 0x20 MUL PUSH1 0x20 ADD ADD DUP2 SWAP1 MSTORE POP PUSH1 0x40 MLOAD DUP1 PUSH1 0x60 ADD PUSH1 0x40 MSTORE DUP1 PUSH1 0x36 DUP2 MSTORE PUSH1 0x20 ADD PUSH2 0x3FB1 PUSH1 0x36 SWAP2 CODECOPY DUP2 PUSH1 0x1 DUP2 MLOAD DUP2 LT PUSH2 0x573 JUMPI PUSH2 0x572 PUSH2 0x320F JUMP JUMPDEST JUMPDEST PUSH1 0x20 MUL PUSH1 0x20 ADD ADD DUP2 SWAP1 MSTORE POP PUSH1 0x40 MLOAD DUP1 PUSH1 0x40 ADD PUSH1 0x40 MSTORE DUP1 PUSH1 0x1B DUP2 MSTORE PUSH1 0x20 ADD PUSH32 0x6173736574732E746F74616C416D6F756E744661697256616C75650000000000 DUP2 MSTORE POP DUP2 PUSH1 0x2 DUP2 MLOAD DUP2 LT PUSH2 0x5C8 JUMPI PUSH2 0x5C7 PUSH2 0x320F JUMP JUMPDEST JUMPDEST PUSH1 0x20 MUL PUSH1 0x20 ADD ADD DUP2 SWAP1 MSTORE POP PUSH1 0x40 MLOAD DUP1 PUSH1 0x40 ADD PUSH1 0x40 MSTORE DUP1 PUSH1 0x14 DUP2 MSTORE PUSH1 0x20 ADD PUSH32 0x746F74616C4173736574734661697256616C7565000000000000000000000000 DUP2 MSTORE POP DUP2 PUSH1 0x3 DUP2 MLOAD DUP2 LT PUSH2 0x61D JUMPI PUSH2 0x61C PUSH2 0x320F JUMP JUMPDEST JUMPDEST PUSH1 0x20 MUL PUSH1 0x20 ADD ADD DUP2 SWAP1 MSTORE POP PUSH1 0x40 MLOAD DUP1 PUSH1 0x60 ADD PUSH1 0x40 MSTORE DUP1 PUSH1 0x22 DUP2 MSTORE PUSH1 0x20 ADD PUSH2 0x3F8F PUSH1 0x22 SWAP2 CODECOPY DUP2 PUSH1 0x4 DUP2 MLOAD DUP2 LT PUSH2 0x655 JUMPI PUSH2 0x654 PUSH2 0x320F JUMP JUMPDEST JUMPDEST PUSH1 0x20 MUL PUSH1 0x20 ADD ADD DUP2 SWAP1 MSTORE POP PUSH2 0x66A DUP2 DUP4 PUSH2 0x1FCB JUMP JUMPDEST PUSH1 0x0 DUP4 PUSH1 0x80 ADD MLOAD DUP5 PUSH1 0x40 ADD MLOAD PUSH2 0x680 SWAP2 SWAP1 PUSH2 0x3720 JUMP JUMPDEST SWAP1 POP DUP1 PUSH1 0x1 PUSH1 0x40 MLOAD PUSH2 0x691 SWAP1 PUSH2 0x3868 JUMP JUMPDEST SWAP1 DUP2 MSTORE PUSH1 0x20 ADD PUSH1 0x40 MLOAD DUP1 SWAP2 SUB SWAP1 KECCAK256 PUSH1 0x0 DUP3 DUP3 SLOAD PUSH2 0x6AE SWAP2 SWAP1 PUSH2 0x387D JUMP JUMPDEST SWAP3 POP POP DUP2 SWAP1 SSTORE POP PUSH1 0x0 PUSH1 0x64 PUSH1 0x5 SLOAD DUP7 PUSH1 0x60 ADD MLOAD DUP8 PUSH1 0x40 ADD MLOAD PUSH2 0x6D0 SWAP2 SWAP1 PUSH2 0x36EC JUMP JUMPDEST PUSH2 0x6DA SWAP2 SWAP1 PUSH2 0x3754 JUMP JUMPDEST PUSH2 0x6E4 SWAP2 SWAP1 PUSH2 0x37C5 JUMP JUMPDEST SWAP1 POP PUSH1 0x0 PUSH1 0x3 PUSH8 0xFFFFFFFFFFFFFFFF DUP2 GT ISZERO PUSH2 0x703 JUMPI PUSH2 0x702 PUSH2 0x25E9 JUMP JUMPDEST JUMPDEST PUSH1 0x40 MLOAD SWAP1 DUP1 DUP3 MSTORE DUP1 PUSH1 0x20 MUL PUSH1 0x20 ADD DUP3 ADD PUSH1 0x40 MSTORE DUP1 ISZERO PUSH2 0x736 JUMPI DUP2 PUSH1 0x20 ADD JUMPDEST PUSH1 0x60 DUP2 MSTORE PUSH1 0x20 ADD SWAP1 PUSH1 0x1 SWAP1 SUB SWAP1 DUP2 PUSH2 0x721 JUMPI SWAP1 POP JUMPDEST POP SWAP1 POP PUSH1 0x40 MLOAD DUP1 PUSH1 0x60 ADD PUSH1 0x40 MSTORE DUP1 PUSH1 0x34 DUP2 MSTORE PUSH1 0x20 ADD PUSH2 0x4043 PUSH1 0x34 SWAP2 CODECOPY DUP2 PUSH1 0x0 DUP2 MLOAD DUP2 LT PUSH2 0x766 JUMPI PUSH2 0x765 PUSH2 0x320F JUMP JUMPDEST JUMPDEST PUSH1 0x20 MUL PUSH1 0x20 ADD ADD DUP2 SWAP1 MSTORE POP PUSH1 0x40 MLOAD DUP1 PUSH1 0x60 ADD PUSH1 0x40 MSTORE DUP1 PUSH1 0x38 DUP2 MSTORE PUSH1 0x20 ADD PUSH2 0x420D PUSH1 0x38 SWAP2 CODECOPY DUP2 PUSH1 0x1 DUP2 MLOAD DUP2 LT PUSH2 0x79E JUMPI PUSH2 0x79D PUSH2 0x320F JUMP JUMPDEST JUMPDEST PUSH1 0x20 MUL PUSH1 0x20 ADD ADD DUP2 SWAP1 MSTORE POP PUSH1 0x40 MLOAD DUP1 PUSH1 0x40 ADD PUSH1 0x40 MSTORE DUP1 PUSH1 0x20 DUP2 MSTORE PUSH1 0x20 ADD PUSH32 0x6C696162696C69746965732E746F74616C416D6F756E744661697256616C7565 DUP2 MSTORE POP DUP2 PUSH1 0x2 DUP2 MLOAD DUP2 LT PUSH2 0x7F3 JUMPI PUSH2 0x7F2 PUSH2 0x320F JUMP JUMPDEST JUMPDEST PUSH1 0x20 MUL PUSH1 0x20 ADD ADD DUP2 SWAP1 MSTORE POP PUSH2 0x808 DUP2 DUP4 PUSH2 0x1FCB JUMP JUMPDEST PUSH1 0x0 DUP7 PUSH1 0x60 ADD MLOAD DUP8 PUSH1 0x40 ADD MLOAD PUSH2 0x81E SWAP2 SWAP1 PUSH2 0x36EC JUMP JUMPDEST SWAP1 POP DUP1 PUSH1 0x1 PUSH1 0x40 MLOAD PUSH2 0x82F SWAP1 PUSH2 0x3933 JUMP JUMPDEST SWAP1 DUP2 MSTORE PUSH1 0x20 ADD PUSH1 0x40 MLOAD DUP1 SWAP2 SUB SWAP1 KECCAK256 PUSH1 0x0 DUP3 DUP3 SLOAD PUSH2 0x84C SWAP2 SWAP1 PUSH2 0x387D JUMP JUMPDEST SWAP3 POP POP DUP2 SWAP1 SSTORE POP PUSH1 0x0 PUSH1 0x64 PUSH1 0x5 SLOAD DUP10 PUSH1 0x80 ADD MLOAD DUP11 PUSH1 0x60 ADD MLOAD PUSH2 0x86E SWAP2 SWAP1 PUSH2 0x3720 JUMP JUMPDEST PUSH2 0x878 SWAP2 SWAP1 PUSH2 0x3754 JUMP JUMPDEST PUSH2 0x882 SWAP2 SWAP1 PUSH2 0x37C5 JUMP JUMPDEST SWAP1 POP PUSH1 0x0 PUSH1 0x3 PUSH8 0xFFFFFFFFFFFFFFFF DUP2 GT ISZERO PUSH2 0x8A1 JUMPI PUSH2 0x8A0 PUSH2 0x25E9 JUMP JUMPDEST JUMPDEST PUSH1 0x40 MLOAD SWAP1 DUP1 DUP3 MSTORE DUP1 PUSH1 0x20 MUL PUSH1 0x20 ADD DUP3 ADD PUSH1 0x40 MSTORE DUP1 ISZERO PUSH2 0x8D4 JUMPI DUP2 PUSH1 0x20 ADD JUMPDEST PUSH1 0x60 DUP2 MSTORE PUSH1 0x20 ADD SWAP1 PUSH1 0x1 SWAP1 SUB SWAP1 DUP2 PUSH2 0x8BF JUMPI SWAP1 POP JUMPDEST POP SWAP1 POP PUSH1 0x40 MLOAD DUP1 PUSH1 0x60 ADD PUSH1 0x40 MSTORE DUP1 PUSH1 0x34 DUP2 MSTORE PUSH1 0x20 ADD PUSH2 0x4131 PUSH1 0x34 SWAP2 CODECOPY DUP2 PUSH1 0x0 DUP2 MLOAD DUP2 LT PUSH2 0x904 JUMPI PUSH2 0x903 PUSH2 0x320F JUMP JUMPDEST JUMPDEST PUSH1 0x20 MUL PUSH1 0x20 ADD ADD DUP2 SWAP1 MSTORE POP PUSH1 0x40 MLOAD DUP1 PUSH1 0x60 ADD PUSH1 0x40 MSTORE DUP1 PUSH1 0x38 DUP2 MSTORE PUSH1 0x20 ADD PUSH2 0x3EA4 PUSH1 0x38 SWAP2 CODECOPY DUP2 PUSH1 0x1 DUP2 MLOAD DUP2 LT PUSH2 0x93C JUMPI PUSH2 0x93B PUSH2 0x320F JUMP JUMPDEST JUMPDEST PUSH1 0x20 MUL PUSH1 0x20 ADD ADD DUP2 SWAP1 MSTORE POP PUSH1 0x40 MLOAD DUP1 PUSH1 0x40 ADD PUSH1 0x40 MSTORE DUP1 PUSH1 0x1B DUP2 MSTORE PUSH1 0x20 ADD PUSH32 0x6571756974792E746F74616C416D6F756E744661697256616C75650000000000 DUP2 MSTORE POP DUP2 PUSH1 0x2 DUP2 MLOAD DUP2 LT PUSH2 0x991 JUMPI PUSH2 0x990 PUSH2 0x320F JUMP JUMPDEST JUMPDEST PUSH1 0x20 MUL PUSH1 0x20 ADD ADD DUP2 SWAP1 MSTORE POP PUSH2 0x9A6 DUP2 DUP4 PUSH2 0x1FCB JUMP JUMPDEST PUSH1 0x0 DUP10 PUSH1 0x80 ADD MLOAD DUP11 PUSH1 0x60 ADD MLOAD PUSH2 0x9BC SWAP2 SWAP1 PUSH2 0x3720 JUMP JUMPDEST SWAP1 POP DUP1 PUSH1 0x1 PUSH1 0x40 MLOAD PUSH2 0x9CD SWAP1 PUSH2 0x39BA JUMP JUMPDEST SWAP1 DUP2 MSTORE PUSH1 0x20 ADD PUSH1 0x40 MLOAD DUP1 SWAP2 SUB SWAP1 KECCAK256 PUSH1 0x0 DUP3 DUP3 SLOAD PUSH2 0x9EA SWAP2 SWAP1 PUSH2 0x387D JUMP JUMPDEST SWAP3 POP POP DUP2 SWAP1 SSTORE POP PUSH1 0x0 PUSH1 0x64 PUSH1 0x5 SLOAD DUP13 PUSH1 0x80 ADD MLOAD DUP14 PUSH1 0x60 ADD MLOAD PUSH2 0xA0C SWAP2 SWAP1 PUSH2 0x3720 JUMP JUMPDEST PUSH2 0xA16 SWAP2 SWAP1 PUSH2 0x3754 JUMP JUMPDEST PUSH2 0xA20 SWAP2 SWAP1 PUSH2 0x37C5 JUMP JUMPDEST SWAP1 POP PUSH1 0x0 PUSH1 0x3 PUSH8 0xFFFFFFFFFFFFFFFF DUP2 GT ISZERO PUSH2 0xA3F JUMPI PUSH2 0xA3E PUSH2 0x25E9 JUMP JUMPDEST JUMPDEST PUSH1 0x40 MLOAD SWAP1 DUP1 DUP3 MSTORE DUP1 PUSH1 0x20 MUL PUSH1 0x20 ADD DUP3 ADD PUSH1 0x40 MSTORE DUP1 ISZERO PUSH2 0xA72 JUMPI DUP2 PUSH1 0x20 ADD JUMPDEST PUSH1 0x60 DUP2 MSTORE PUSH1 0x20 ADD SWAP1 PUSH1 0x1 SWAP1 SUB SWAP1 DUP2 PUSH2 0xA5D JUMPI SWAP1 POP JUMPDEST POP SWAP1 POP PUSH1 0x40 MLOAD DUP1 PUSH1 0x60 ADD PUSH1 0x40 MSTORE DUP1 PUSH1 0x2D DUP2 MSTORE PUSH1 0x20 ADD PUSH2 0x3FE7 PUSH1 0x2D SWAP2 CODECOPY DUP2 PUSH1 0x0 DUP2 MLOAD DUP2 LT PUSH2 0xAA2 JUMPI PUSH2 0xAA1 PUSH2 0x320F JUMP JUMPDEST JUMPDEST PUSH1 0x20 MUL PUSH1 0x20 ADD ADD DUP2 SWAP1 MSTORE POP PUSH1 0x40 MLOAD DUP1 PUSH1 0x60 ADD PUSH1 0x40 MSTORE DUP1 PUSH1 0x3C DUP2 MSTORE PUSH1 0x20 ADD PUSH2 0x3EDC PUSH1 0x3C SWAP2 CODECOPY DUP2 PUSH1 0x1 DUP2 MLOAD DUP2 LT PUSH2 0xADA JUMPI PUSH2 0xAD9 PUSH2 0x320F JUMP JUMPDEST JUMPDEST PUSH1 0x20 MUL PUSH1 0x20 ADD ADD DUP2 SWAP1 MSTORE POP PUSH1 0x40 MLOAD DUP1 PUSH1 0x40 ADD PUSH1 0x40 MSTORE DUP1 PUSH1 0x9 DUP2 MSTORE PUSH1 0x20 ADD PUSH32 0x6E657450726F6669740000000000000000000000000000000000000000000000 DUP2 MSTORE POP DUP2 PUSH1 0x2 DUP2 MLOAD DUP2 LT PUSH2 0xB2F JUMPI PUSH2 0xB2E PUSH2 0x320F JUMP JUMPDEST JUMPDEST PUSH1 0x20 MUL PUSH1 0x20 ADD ADD DUP2 SWAP1 MSTORE POP PUSH2 0xB44 DUP2 DUP4 PUSH2 0x203E JUMP JUMPDEST PUSH1 0x0 DUP13 PUSH1 0x80 ADD MLOAD DUP14 PUSH1 0x60 ADD MLOAD PUSH2 0xB5A SWAP2 SWAP1 PUSH2 0x3720 JUMP JUMPDEST SWAP1 POP DUP1 PUSH1 0x2 PUSH1 0x40 MLOAD PUSH2 0xB6B SWAP1 PUSH2 0x3A41 JUMP JUMPDEST SWAP1 DUP2 MSTORE PUSH1 0x20 ADD PUSH1 0x40 MLOAD DUP1 SWAP2 SUB SWAP1 KECCAK256 PUSH1 0x0 DUP3 DUP3 SLOAD PUSH2 0xB88 SWAP2 SWAP1 PUSH2 0x387D JUMP JUMPDEST SWAP3 POP POP DUP2 SWAP1 SSTORE POP PUSH2 0xB98 DUP14 PUSH2 0x20B1 JUMP JUMPDEST POP POP POP POP POP POP POP POP POP POP POP POP POP POP POP POP POP POP POP JUMP JUMPDEST PUSH1 0x2 DUP2 DUP1 MLOAD PUSH1 0x20 DUP2 ADD DUP3 ADD DUP1 MLOAD DUP5 DUP3 MSTORE PUSH1 0x20 DUP4 ADD PUSH1 0x20 DUP6 ADD KECCAK256 DUP2 DUP4 MSTORE DUP1 SWAP6 POP POP POP POP POP POP PUSH1 0x0 SWAP2 POP SWAP1 POP SLOAD DUP2 JUMP JUMPDEST PUSH1 0x3 DUP2 DUP1 MLOAD PUSH1 0x20 DUP2 ADD DUP3 ADD DUP1 MLOAD DUP5 DUP3 MSTORE PUSH1 0x20 DUP4 ADD PUSH1 0x20 DUP6 ADD KECCAK256 DUP2 DUP4 MSTORE DUP1 SWAP6 POP POP POP POP POP POP PUSH1 0x0 SWAP2 POP SWAP1 POP SLOAD DUP2 JUMP JUMPDEST PUSH1 0x0 DUP1 DUP1 SLOAD SWAP1 POP SWAP1 POP SWAP1 JUMP JUMPDEST PUSH1 0x60 PUSH1 0x0 DUP1 JUMPDEST PUSH1 0x0 DUP1 SLOAD SWAP1 POP DUP2 LT ISZERO PUSH2 0xCA9 JUMPI DUP5 PUSH1 0x0 DUP3 DUP2 SLOAD DUP2 LT PUSH2 0xC3D JUMPI PUSH2 0xC3C PUSH2 0x320F JUMP JUMPDEST JUMPDEST SWAP1 PUSH1 0x0 MSTORE PUSH1 0x20 PUSH1 0x0 KECCAK256 SWAP1 PUSH1 0x7 MUL ADD PUSH1 0x5 ADD SLOAD LT ISZERO DUP1 ISZERO PUSH2 0xC82 JUMPI POP DUP4 PUSH1 0x0 DUP3 DUP2 SLOAD DUP2 LT PUSH2 0xC6D JUMPI PUSH2 0xC6C PUSH2 0x320F JUMP JUMPDEST JUMPDEST SWAP1 PUSH1 0x0 MSTORE PUSH1 0x20 PUSH1 0x0 KECCAK256 SWAP1 PUSH1 0x7 MUL ADD PUSH1 0x5 ADD SLOAD GT ISZERO JUMPDEST ISZERO PUSH2 0xC96 JUMPI DUP2 DUP1 PUSH2 0xC92 SWAP1 PUSH2 0x343B JUMP JUMPDEST SWAP3 POP POP JUMPDEST DUP1 DUP1 PUSH2 0xCA1 SWAP1 PUSH2 0x343B JUMP JUMPDEST SWAP2 POP POP PUSH2 0xC1B JUMP JUMPDEST POP PUSH1 0x0 DUP2 PUSH8 0xFFFFFFFFFFFFFFFF DUP2 GT ISZERO PUSH2 0xCC6 JUMPI PUSH2 0xCC5 PUSH2 0x25E9 JUMP JUMPDEST JUMPDEST PUSH1 0x40 MLOAD SWAP1 DUP1 DUP3 MSTORE DUP1 PUSH1 0x20 MUL PUSH1 0x20 ADD DUP3 ADD PUSH1 0x40 MSTORE DUP1 ISZERO PUSH2 0xCFF JUMPI DUP2 PUSH1 0x20 ADD JUMPDEST PUSH2 0xCEC PUSH2 0x2506 JUMP JUMPDEST DUP2 MSTORE PUSH1 0x20 ADD SWAP1 PUSH1 0x1 SWAP1 SUB SWAP1 DUP2 PUSH2 0xCE4 JUMPI SWAP1 POP JUMPDEST POP SWAP1 POP PUSH1 0x0 DUP1 JUMPDEST PUSH1 0x0 DUP1 SLOAD SWAP1 POP DUP2 LT ISZERO PUSH2 0xF35 JUMPI DUP7 PUSH1 0x0 DUP3 DUP2 SLOAD DUP2 LT PUSH2 0xD28 JUMPI PUSH2 0xD27 PUSH2 0x320F JUMP JUMPDEST JUMPDEST SWAP1 PUSH1 0x0 MSTORE PUSH1 0x20 PUSH1 0x0 KECCAK256 SWAP1 PUSH1 0x7 MUL ADD PUSH1 0x5 ADD SLOAD LT ISZERO DUP1 ISZERO PUSH2 0xD6D JUMPI POP DUP6 PUSH1 0x0 DUP3 DUP2 SLOAD DUP2 LT PUSH2 0xD58 JUMPI PUSH2 0xD57 PUSH2 0x320F JUMP JUMPDEST JUMPDEST SWAP1 PUSH1 0x0 MSTORE PUSH1 0x20 PUSH1 0x0 KECCAK256 SWAP1 PUSH1 0x7 MUL ADD PUSH1 0x5 ADD SLOAD GT ISZERO JUMPDEST ISZERO PUSH2 0xF22 JUMPI PUSH1 0x0 DUP2 DUP2 SLOAD DUP2 LT PUSH2 0xD86 JUMPI PUSH2 0xD85 PUSH2 0x320F JUMP JUMPDEST JUMPDEST SWAP1 PUSH1 0x0 MSTORE PUSH1 0x20 PUSH1 0x0 KECCAK256 SWAP1 PUSH1 0x7 MUL ADD PUSH1 0x40 MLOAD DUP1 PUSH1 0xE0 ADD PUSH1 0x40 MSTORE SWAP1 DUP2 PUSH1 0x0 DUP3 ADD DUP1 SLOAD PUSH2 0xDAF SWAP1 PUSH2 0x326D JUMP JUMPDEST DUP1 PUSH1 0x1F ADD PUSH1 0x20 DUP1 SWAP2 DIV MUL PUSH1 0x20 ADD PUSH1 0x40 MLOAD SWAP1 DUP2 ADD PUSH1 0x40 MSTORE DUP1 SWAP3 SWAP2 SWAP1 DUP2 DUP2 MSTORE PUSH1 0x20 ADD DUP3 DUP1 SLOAD PUSH2 0xDDB SWAP1 PUSH2 0x326D JUMP JUMPDEST DUP1 ISZERO PUSH2 0xE28 JUMPI DUP1 PUSH1 0x1F LT PUSH2 0xDFD JUMPI PUSH2 0x100 DUP1 DUP4 SLOAD DIV MUL DUP4 MSTORE SWAP2 PUSH1 0x20 ADD SWAP2 PUSH2 0xE28 JUMP JUMPDEST DUP3 ADD SWAP2 SWAP1 PUSH1 0x0 MSTORE PUSH1 0x20 PUSH1 0x0 KECCAK256 SWAP1 JUMPDEST DUP2 SLOAD DUP2 MSTORE SWAP1 PUSH1 0x1 ADD SWAP1 PUSH1 0x20 ADD DUP1 DUP4 GT PUSH2 0xE0B JUMPI DUP3 SWAP1 SUB PUSH1 0x1F AND DUP3 ADD SWAP2 JUMPDEST POP POP POP POP POP DUP2 MSTORE PUSH1 0x20 ADD PUSH1 0x1 DUP3 ADD DUP1 SLOAD PUSH2 0xE41 SWAP1 PUSH2 0x326D JUMP JUMPDEST DUP1 PUSH1 0x1F ADD PUSH1 0x20 DUP1 SWAP2 DIV MUL PUSH1 0x20 ADD PUSH1 0x40 MLOAD SWAP1 DUP2 ADD PUSH1 0x40 MSTORE DUP1 SWAP3 SWAP2 SWAP1 DUP2 DUP2 MSTORE PUSH1 0x20 ADD DUP3 DUP1 SLOAD PUSH2 0xE6D SWAP1 PUSH2 0x326D JUMP JUMPDEST DUP1 ISZERO PUSH2 0xEBA JUMPI DUP1 PUSH1 0x1F LT PUSH2 0xE8F JUMPI PUSH2 0x100 DUP1 DUP4 SLOAD DIV MUL DUP4 MSTORE SWAP2 PUSH1 0x20 ADD SWAP2 PUSH2 0xEBA JUMP JUMPDEST DUP3 ADD SWAP2 SWAP1 PUSH1 0x0 MSTORE PUSH1 0x20 PUSH1 0x0 KECCAK256 SWAP1 JUMPDEST DUP2 SLOAD DUP2 MSTORE SWAP1 PUSH1 0x1 ADD SWAP1 PUSH1 0x20 ADD DUP1 DUP4 GT PUSH2 0xE9D JUMPI DUP3 SWAP1 SUB PUSH1 0x1F AND DUP3 ADD SWAP2 JUMPDEST POP POP POP POP POP DUP2 MSTORE PUSH1 0x20 ADD PUSH1 0x2 DUP3 ADD SLOAD DUP2 MSTORE PUSH1 0x20 ADD PUSH1 0x3 DUP3 ADD SLOAD DUP2 MSTORE PUSH1 0x20 ADD PUSH1 0x4 DUP3 ADD SLOAD DUP2 MSTORE PUSH1 0x20 ADD PUSH1 0x5 DUP3 ADD SLOAD DUP2 MSTORE PUSH1 0x20 ADD PUSH1 0x6 DUP3 ADD SLOAD DUP2 MSTORE POP POP DUP4 DUP4 DUP2 MLOAD DUP2 LT PUSH2 0xF08 JUMPI PUSH2 0xF07 PUSH2 0x320F JUMP JUMPDEST JUMPDEST PUSH1 0x20 MUL PUSH1 0x20 ADD ADD DUP2 SWAP1 MSTORE POP DUP2 DUP1 PUSH2 0xF1E SWAP1 PUSH2 0x343B JUMP JUMPDEST SWAP3 POP POP JUMPDEST DUP1 DUP1 PUSH2 0xF2D SWAP1 PUSH2 0x343B JUMP JUMPDEST SWAP2 POP POP PUSH2 0xD06 JUMP JUMPDEST POP DUP2 SWAP4 POP POP POP POP SWAP3 SWAP2 POP POP JUMP JUMPDEST DUP3 PUSH1 0x5 DUP2 SWAP1 SSTORE POP DUP2 PUSH1 0x6 DUP2 SWAP1 SSTORE POP DUP1 PUSH1 0x7 DUP2 SWAP1 SSTORE POP DUP4 PUSH1 0x8 SWAP1 DUP2 PUSH2 0xF66 SWAP2 SWAP1 PUSH2 0x361A JUMP JUMPDEST POP POP POP POP POP JUMP JUMPDEST PUSH2 0xF75 PUSH2 0x2506 JUMP JUMPDEST PUSH1 0x0 DUP1 DUP1 SLOAD SWAP1 POP GT PUSH2 0xFBC JUMPI PUSH1 0x40 MLOAD PUSH32 0x8C379A000000000000000000000000000000000000000000000000000000000 DUP2 MSTORE PUSH1 0x4 ADD PUSH2 0xFB3 SWAP1 PUSH2 0x3AA2 JUMP JUMPDEST PUSH1 0x40 MLOAD DUP1 SWAP2 SUB SWAP1 REVERT JUMPDEST PUSH1 0x0 PUSH1 0x1 PUSH1 0x0 DUP1 SLOAD SWAP1 POP PUSH2 0xFD0 SWAP2 SWAP1 PUSH2 0x36EC JUMP JUMPDEST DUP2 SLOAD DUP2 LT PUSH2 0xFE1 JUMPI PUSH2 0xFE0 PUSH2 0x320F JUMP JUMPDEST JUMPDEST SWAP1 PUSH1 0x0 MSTORE PUSH1 0x20 PUSH1 0x0 KECCAK256 SWAP1 PUSH1 0x7 MUL ADD PUSH1 0x40 MLOAD DUP1 PUSH1 0xE0 ADD PUSH1 0x40 MSTORE SWAP1 DUP2 PUSH1 0x0 DUP3 ADD DUP1 SLOAD PUSH2 0x100A SWAP1 PUSH2 0x326D JUMP JUMPDEST DUP1 PUSH1 0x1F ADD PUSH1 0x20 DUP1 SWAP2 DIV MUL PUSH1 0x20 ADD PUSH1 0x40 MLOAD SWAP1 DUP2 ADD PUSH1 0x40 MSTORE DUP1 SWAP3 SWAP2 SWAP1 DUP2 DUP2 MSTORE PUSH1 0x20 ADD DUP3 DUP1 SLOAD PUSH2 0x1036 SWAP1 PUSH2 0x326D JUMP JUMPDEST DUP1 ISZERO PUSH2 0x1083 JUMPI DUP1 PUSH1 0x1F LT PUSH2 0x1058 JUMPI PUSH2 0x100 DUP1 DUP4 SLOAD DIV MUL DUP4 MSTORE SWAP2 PUSH1 0x20 ADD SWAP2 PUSH2 0x1083 JUMP JUMPDEST DUP3 ADD SWAP2 SWAP1 PUSH1 0x0 MSTORE PUSH1 0x20 PUSH1 0x0 KECCAK256 SWAP1 JUMPDEST DUP2 SLOAD DUP2 MSTORE SWAP1 PUSH1 0x1 ADD SWAP1 PUSH1 0x20 ADD DUP1 DUP4 GT PUSH2 0x1066 JUMPI DUP3 SWAP1 SUB PUSH1 0x1F AND DUP3 ADD SWAP2 JUMPDEST POP POP POP POP POP DUP2 MSTORE PUSH1 0x20 ADD PUSH1 0x1 DUP3 ADD DUP1 SLOAD PUSH2 0x109C SWAP1 PUSH2 0x326D JUMP JUMPDEST DUP1 PUSH1 0x1F ADD PUSH1 0x20 DUP1 SWAP2 DIV MUL PUSH1 0x20 ADD PUSH1 0x40 MLOAD SWAP1 DUP2 ADD PUSH1 0x40 MSTORE DUP1 SWAP3 SWAP2 SWAP1 DUP2 DUP2 MSTORE PUSH1 0x20 ADD DUP3 DUP1 SLOAD PUSH2 0x10C8 SWAP1 PUSH2 0x326D JUMP JUMPDEST DUP1 ISZERO PUSH2 0x1115 JUMPI DUP1 PUSH1 0x1F LT PUSH2 0x10EA JUMPI PUSH2 0x100 DUP1 DUP4 SLOAD DIV MUL DUP4 MSTORE SWAP2 PUSH1 0x20 ADD SWAP2 PUSH2 0x1115 JUMP JUMPDEST DUP3 ADD SWAP2 SWAP1 PUSH1 0x0 MSTORE PUSH1 0x20 PUSH1 0x0 KECCAK256 SWAP1 JUMPDEST DUP2 SLOAD DUP2 MSTORE SWAP1 PUSH1 0x1 ADD SWAP1 PUSH1 0x20 ADD DUP1 DUP4 GT PUSH2 0x10F8 JUMPI DUP3 SWAP1 SUB PUSH1 0x1F AND DUP3 ADD SWAP2 JUMPDEST POP POP POP POP POP DUP2 MSTORE PUSH1 0x20 ADD PUSH1 0x2 DUP3 ADD SLOAD DUP2 MSTORE PUSH1 0x20 ADD PUSH1 0x3 DUP3 ADD SLOAD DUP2 MSTORE PUSH1 0x20 ADD PUSH1 0x4 DUP3 ADD SLOAD DUP2 MSTORE PUSH1 0x20 ADD PUSH1 0x5 DUP3 ADD SLOAD DUP2 MSTORE PUSH1 0x20 ADD PUSH1 0x6 DUP3 ADD SLOAD DUP2 MSTORE POP POP SWAP1 POP SWAP1 JUMP JUMPDEST PUSH2 0x115D PUSH2 0x2506 JUMP JUMPDEST PUSH1 0x0 DUP1 SLOAD SWAP1 POP DUP3 LT PUSH2 0x11A4 JUMPI PUSH1 0x40 MLOAD PUSH32 0x8C379A000000000000000000000000000000000000000000000000000000000 DUP2 MSTORE PUSH1 0x4 ADD PUSH2 0x119B SWAP1 PUSH2 0x3B0E JUMP JUMPDEST PUSH1 0x40 MLOAD DUP1 SWAP2 SUB SWAP1 REVERT JUMPDEST PUSH1 0x0 DUP3 DUP2 SLOAD DUP2 LT PUSH2 0x11B8 JUMPI PUSH2 0x11B7 PUSH2 0x320F JUMP JUMPDEST JUMPDEST SWAP1 PUSH1 0x0 MSTORE PUSH1 0x20 PUSH1 0x0 KECCAK256 SWAP1 PUSH1 0x7 MUL ADD PUSH1 0x40 MLOAD DUP1 PUSH1 0xE0 ADD PUSH1 0x40 MSTORE SWAP1 DUP2 PUSH1 0x0 DUP3 ADD DUP1 SLOAD PUSH2 0x11E1 SWAP1 PUSH2 0x326D JUMP JUMPDEST DUP1 PUSH1 0x1F ADD PUSH1 0x20 DUP1 SWAP2 DIV MUL PUSH1 0x20 ADD PUSH1 0x40 MLOAD SWAP1 DUP2 ADD PUSH1 0x40 MSTORE DUP1 SWAP3 SWAP2 SWAP1 DUP2 DUP2 MSTORE PUSH1 0x20 ADD DUP3 DUP1 SLOAD PUSH2 0x120D SWAP1 PUSH2 0x326D JUMP JUMPDEST DUP1 ISZERO PUSH2 0x125A JUMPI DUP1 PUSH1 0x1F LT PUSH2 0x122F JUMPI PUSH2 0x100 DUP1 DUP4 SLOAD DIV MUL DUP4 MSTORE SWAP2 PUSH1 0x20 ADD SWAP2 PUSH2 0x125A JUMP JUMPDEST DUP3 ADD SWAP2 SWAP1 PUSH1 0x0 MSTORE PUSH1 0x20 PUSH1 0x0 KECCAK256 SWAP1 JUMPDEST DUP2 SLOAD DUP2 MSTORE SWAP1 PUSH1 0x1 ADD SWAP1 PUSH1 0x20 ADD DUP1 DUP4 GT PUSH2 0x123D JUMPI DUP3 SWAP1 SUB PUSH1 0x1F AND DUP3 ADD SWAP2 JUMPDEST POP POP POP POP POP DUP2 MSTORE PUSH1 0x20 ADD PUSH1 0x1 DUP3 ADD DUP1 SLOAD PUSH2 0x1273 SWAP1 PUSH2 0x326D JUMP JUMPDEST DUP1 PUSH1 0x1F ADD PUSH1 0x20 DUP1 SWAP2 DIV MUL PUSH1 0x20 ADD PUSH1 0x40 MLOAD SWAP1 DUP2 ADD PUSH1 0x40 MSTORE DUP1 SWAP3 SWAP2 SWAP1 DUP2 DUP2 MSTORE PUSH1 0x20 ADD DUP3 DUP1 SLOAD PUSH2 0x129F SWAP1 PUSH2 0x326D JUMP JUMPDEST DUP1 ISZERO PUSH2 0x12EC JUMPI DUP1 PUSH1 0x1F LT PUSH2 0x12C1 JUMPI PUSH2 0x100 DUP1 DUP4 SLOAD DIV MUL DUP4 MSTORE SWAP2 PUSH1 0x20 ADD SWAP2 PUSH2 0x12EC JUMP JUMPDEST DUP3 ADD SWAP2 SWAP1 PUSH1 0x0 MSTORE PUSH1 0x20 PUSH1 0x0 KECCAK256 SWAP1 JUMPDEST DUP2 SLOAD DUP2 MSTORE SWAP1 PUSH1 0x1 ADD SWAP1 PUSH1 0x20 ADD DUP1 DUP4 GT PUSH2 0x12CF JUMPI DUP3 SWAP1 SUB PUSH1 0x1F AND DUP3 ADD SWAP2 JUMPDEST POP POP POP POP POP DUP2 MSTORE PUSH1 0x20 ADD PUSH1 0x2 DUP3 ADD SLOAD DUP2 MSTORE PUSH1 0x20 ADD PUSH1 0x3 DUP3 ADD SLOAD DUP2 MSTORE PUSH1 0x20 ADD PUSH1 0x4 DUP3 ADD SLOAD DUP2 MSTORE PUSH1 0x20 ADD PUSH1 0x5 DUP3 ADD SLOAD DUP2 MSTORE PUSH1 0x20 ADD PUSH1 0x6 DUP3 ADD SLOAD DUP2 MSTORE POP POP SWAP1 POP SWAP2 SWAP1 POP JUMP JUMPDEST PUSH1 0x0 DUP2 DUP2 SLOAD DUP2 LT PUSH2 0x133E JUMPI PUSH1 0x0 DUP1 REVERT JUMPDEST SWAP1 PUSH1 0x0 MSTORE PUSH1 0x20 PUSH1 0x0 KECCAK256 SWAP1 PUSH1 0x7 MUL ADD PUSH1 0x0 SWAP2 POP SWAP1 POP DUP1 PUSH1 0x0 ADD DUP1 SLOAD PUSH2 0x1361 SWAP1 PUSH2 0x326D JUMP JUMPDEST DUP1 PUSH1 0x1F ADD PUSH1 0x20 DUP1 SWAP2 DIV MUL PUSH1 0x20 ADD PUSH1 0x40 MLOAD SWAP1 DUP2 ADD PUSH1 0x40 MSTORE DUP1 SWAP3 SWAP2 SWAP1 DUP2 DUP2 MSTORE PUSH1 0x20 ADD DUP3 DUP1 SLOAD PUSH2 0x138D SWAP1 PUSH2 0x326D JUMP JUMPDEST DUP1 ISZERO PUSH2 0x13DA JUMPI DUP1 PUSH1 0x1F LT PUSH2 0x13AF JUMPI PUSH2 0x100 DUP1 DUP4 SLOAD DIV MUL DUP4 MSTORE SWAP2 PUSH1 0x20 ADD SWAP2 PUSH2 0x13DA JUMP JUMPDEST DUP3 ADD SWAP2 SWAP1 PUSH1 0x0 MSTORE PUSH1 0x20 PUSH1 0x0 KECCAK256 SWAP1 JUMPDEST DUP2 SLOAD DUP2 MSTORE SWAP1 PUSH1 0x1 ADD SWAP1 PUSH1 0x20 ADD DUP1 DUP4 GT PUSH2 0x13BD JUMPI DUP3 SWAP1 SUB PUSH1 0x1F AND DUP3 ADD SWAP2 JUMPDEST POP POP POP POP POP SWAP1 DUP1 PUSH1 0x1 ADD DUP1 SLOAD PUSH2 0x13EF SWAP1 PUSH2 0x326D JUMP JUMPDEST DUP1 PUSH1 0x1F ADD PUSH1 0x20 DUP1 SWAP2 DIV MUL PUSH1 0x20 ADD PUSH1 0x40 MLOAD SWAP1 DUP2 ADD PUSH1 0x40 MSTORE DUP1 SWAP3 SWAP2 SWAP1 DUP2 DUP2 MSTORE PUSH1 0x20 ADD DUP3 DUP1 SLOAD PUSH2 0x141B SWAP1 PUSH2 0x326D JUMP JUMPDEST DUP1 ISZERO PUSH2 0x1468 JUMPI DUP1 PUSH1 0x1F LT PUSH2 0x143D JUMPI PUSH2 0x100 DUP1 DUP4 SLOAD DIV MUL DUP4 MSTORE SWAP2 PUSH1 0x20 ADD SWAP2 PUSH2 0x1468 JUMP JUMPDEST DUP3 ADD SWAP2 SWAP1 PUSH1 0x0 MSTORE PUSH1 0x20 PUSH1 0x0 KECCAK256 SWAP1 JUMPDEST DUP2 SLOAD DUP2 MSTORE SWAP1 PUSH1 0x1 ADD SWAP1 PUSH1 0x20 ADD DUP1 DUP4 GT PUSH2 0x144B JUMPI DUP3 SWAP1 SUB PUSH1 0x1F AND DUP3 ADD SWAP2 JUMPDEST POP POP POP POP POP SWAP1 DUP1 PUSH1 0x2 ADD SLOAD SWAP1 DUP1 PUSH1 0x3 ADD SLOAD SWAP1 DUP1 PUSH1 0x4 ADD SLOAD SWAP1 DUP1 PUSH1 0x5 ADD SLOAD SWAP1 DUP1 PUSH1 0x6 ADD SLOAD SWAP1 POP DUP8 JUMP JUMPDEST PUSH2 0x1498 PUSH2 0x2506 JUMP JUMPDEST PUSH1 0x0 PUSH1 0x4 DUP4 PUSH1 0x40 MLOAD PUSH2 0x14AA SWAP2 SWAP1 PUSH2 0x3389 JUMP JUMPDEST SWAP1 DUP2 MSTORE PUSH1 0x20 ADD PUSH1 0x40 MLOAD DUP1 SWAP2 SUB SWAP1 KECCAK256 SLOAD EQ ISZERO DUP1 PUSH2 0x1535 JUMPI POP DUP2 PUSH1 0x40 MLOAD PUSH1 0x20 ADD PUSH2 0x14D2 SWAP2 SWAP1 PUSH2 0x3389 JUMP JUMPDEST PUSH1 0x40 MLOAD PUSH1 0x20 DUP2 DUP4 SUB SUB DUP2 MSTORE SWAP1 PUSH1 0x40 MSTORE DUP1 MLOAD SWAP1 PUSH1 0x20 ADD KECCAK256 PUSH1 0x0 DUP1 DUP2 SLOAD DUP2 LT PUSH2 0x14FC JUMPI PUSH2 0x14FB PUSH2 0x320F JUMP JUMPDEST JUMPDEST SWAP1 PUSH1 0x0 MSTORE PUSH1 0x20 PUSH1 0x0 KECCAK256 SWAP1 PUSH1 0x7 MUL ADD PUSH1 0x0 ADD PUSH1 0x40 MLOAD PUSH1 0x20 ADD PUSH2 0x151D SWAP2 SWAP1 PUSH2 0x3341 JUMP JUMPDEST PUSH1 0x40 MLOAD PUSH1 0x20 DUP2 DUP4 SUB SUB DUP2 MSTORE SWAP1 PUSH1 0x40 MSTORE DUP1 MLOAD SWAP1 PUSH1 0x20 ADD KECCAK256 EQ JUMPDEST PUSH2 0x1574 JUMPI PUSH1 0x40 MLOAD PUSH32 0x8C379A000000000000000000000000000000000000000000000000000000000 DUP2 MSTORE PUSH1 0x4 ADD PUSH2 0x156B SWAP1 PUSH2 0x3B7A JUMP JUMPDEST PUSH1 0x40 MLOAD DUP1 SWAP2 SUB SWAP1 REVERT JUMPDEST PUSH1 0x0 PUSH1 0x4 DUP4 PUSH1 0x40 MLOAD PUSH2 0x1586 SWAP2 SWAP1 PUSH2 0x3389 JUMP JUMPDEST SWAP1 DUP2 MSTORE PUSH1 0x20 ADD PUSH1 0x40 MLOAD DUP1 SWAP2 SUB SWAP1 KECCAK256 SLOAD DUP2 SLOAD DUP2 LT PUSH2 0x15A6 JUMPI PUSH2 0x15A5 PUSH2 0x320F JUMP JUMPDEST JUMPDEST SWAP1 PUSH1 0x0 MSTORE PUSH1 0x20 PUSH1 0x0 KECCAK256 SWAP1 PUSH1 0x7 MUL ADD PUSH1 0x40 MLOAD DUP1 PUSH1 0xE0 ADD PUSH1 0x40 MSTORE SWAP1 DUP2 PUSH1 0x0 DUP3 ADD DUP1 SLOAD PUSH2 0x15CF SWAP1 PUSH2 0x326D JUMP JUMPDEST DUP1 PUSH1 0x1F ADD PUSH1 0x20 DUP1 SWAP2 DIV MUL PUSH1 0x20 ADD PUSH1 0x40 MLOAD SWAP1 DUP2 ADD PUSH1 0x40 MSTORE DUP1 SWAP3 SWAP2 SWAP1 DUP2 DUP2 MSTORE PUSH1 0x20 ADD DUP3 DUP1 SLOAD PUSH2 0x15FB SWAP1 PUSH2 0x326D JUMP JUMPDEST DUP1 ISZERO PUSH2 0x1648 JUMPI DUP1 PUSH1 0x1F LT PUSH2 0x161D JUMPI PUSH2 0x100 DUP1 DUP4 SLOAD DIV MUL DUP4 MSTORE SWAP2 PUSH1 0x20 ADD SWAP2 PUSH2 0x1648 JUMP JUMPDEST DUP3 ADD SWAP2 SWAP1 PUSH1 0x0 MSTORE PUSH1 0x20 PUSH1 0x0 KECCAK256 SWAP1 JUMPDEST DUP2 SLOAD DUP2 MSTORE SWAP1 PUSH1 0x1 ADD SWAP1 PUSH1 0x20 ADD DUP1 DUP4 GT PUSH2 0x162B JUMPI DUP3 SWAP1 SUB PUSH1 0x1F AND DUP3 ADD SWAP2 JUMPDEST POP POP POP POP POP DUP2 MSTORE PUSH1 0x20 ADD PUSH1 0x1 DUP3 ADD DUP1 SLOAD PUSH2 0x1661 SWAP1 PUSH2 0x326D JUMP JUMPDEST DUP1 PUSH1 0x1F ADD PUSH1 0x20 DUP1 SWAP2 DIV MUL PUSH1 0x20 ADD PUSH1 0x40 MLOAD SWAP1 DUP2 ADD PUSH1 0x40 MSTORE DUP1 SWAP3 SWAP2 SWAP1 DUP2 DUP2 MSTORE PUSH1 0x20 ADD DUP3 DUP1 SLOAD PUSH2 0x168D SWAP1 PUSH2 0x326D JUMP JUMPDEST DUP1 ISZERO PUSH2 0x16DA JUMPI DUP1 PUSH1 0x1F LT PUSH2 0x16AF JUMPI PUSH2 0x100 DUP1 DUP4 SLOAD DIV MUL DUP4 MSTORE SWAP2 PUSH1 0x20 ADD SWAP2 PUSH2 0x16DA JUMP JUMPDEST DUP3 ADD SWAP2 SWAP1 PUSH1 0x0 MSTORE PUSH1 0x20 PUSH1 0x0 KECCAK256 SWAP1 JUMPDEST DUP2 SLOAD DUP2 MSTORE SWAP1 PUSH1 0x1 ADD SWAP1 PUSH1 0x20 ADD DUP1 DUP4 GT PUSH2 0x16BD JUMPI DUP3 SWAP1 SUB PUSH1 0x1F AND DUP3 ADD SWAP2 JUMPDEST POP POP POP POP POP DUP2 MSTORE PUSH1 0x20 ADD PUSH1 0x2 DUP3 ADD SLOAD DUP2 MSTORE PUSH1 0x20 ADD PUSH1 0x3 DUP3 ADD SLOAD DUP2 MSTORE PUSH1 0x20 ADD PUSH1 0x4 DUP3 ADD SLOAD DUP2 MSTORE PUSH1 0x20 ADD PUSH1 0x5 DUP3 ADD SLOAD DUP2 MSTORE PUSH1 0x20 ADD PUSH1 0x6 DUP3 ADD SLOAD DUP2 MSTORE POP POP SWAP1 POP SWAP2 SWAP1 POP JUMP JUMPDEST PUSH1 0x60 PUSH2 0x1726 PUSH2 0x2543 JUMP JUMPDEST PUSH1 0x60 PUSH2 0x1730 PUSH2 0x256B JUMP JUMPDEST PUSH1 0x60 PUSH2 0x173A PUSH2 0x2592 JUMP JUMPDEST PUSH1 0x60 PUSH1 0x0 PUSH2 0x1748 DUP11 DUP11 PUSH2 0xC15 JUMP JUMPDEST SWAP1 POP DUP1 MLOAD PUSH8 0xFFFFFFFFFFFFFFFF DUP2 GT ISZERO PUSH2 0x1765 JUMPI PUSH2 0x1764 PUSH2 0x25E9 JUMP JUMPDEST JUMPDEST PUSH1 0x40 MLOAD SWAP1 DUP1 DUP3 MSTORE DUP1 PUSH1 0x20 MUL PUSH1 0x20 ADD DUP3 ADD PUSH1 0x40 MSTORE DUP1 ISZERO PUSH2 0x1798 JUMPI DUP2 PUSH1 0x20 ADD JUMPDEST PUSH1 0x60 DUP2 MSTORE PUSH1 0x20 ADD SWAP1 PUSH1 0x1 SWAP1 SUB SWAP1 DUP2 PUSH2 0x1783 JUMPI SWAP1 POP JUMPDEST POP SWAP8 POP PUSH1 0x40 MLOAD DUP1 PUSH2 0x1C0 ADD PUSH1 0x40 MSTORE DUP1 PUSH1 0x40 MLOAD DUP1 PUSH1 0x60 ADD PUSH1 0x40 MSTORE DUP1 PUSH1 0x32 DUP2 MSTORE PUSH1 0x20 ADD PUSH2 0x3E1E PUSH1 0x32 SWAP2 CODECOPY DUP2 MSTORE PUSH1 0x20 ADD PUSH1 0x40 MLOAD DUP1 PUSH1 0x60 ADD PUSH1 0x40 MSTORE DUP1 PUSH1 0x33 DUP2 MSTORE PUSH1 0x20 ADD PUSH2 0x3F18 PUSH1 0x33 SWAP2 CODECOPY DUP2 MSTORE PUSH1 0x20 ADD PUSH1 0x40 MLOAD DUP1 PUSH1 0x60 ADD PUSH1 0x40 MSTORE DUP1 PUSH1 0x36 DUP2 MSTORE PUSH1 0x20 ADD PUSH2 0x3FB1 PUSH1 0x36 SWAP2 CODECOPY DUP2 MSTORE PUSH1 0x20 ADD PUSH1 0x40 MLOAD DUP1 PUSH1 0x40 ADD PUSH1 0x40 MSTORE DUP1 PUSH1 0x1B DUP2 MSTORE PUSH1 0x20 ADD PUSH32 0x6173736574732E746F74616C416D6F756E744661697256616C75650000000000 DUP2 MSTORE POP DUP2 MSTORE PUSH1 0x20 ADD PUSH1 0x40 MLOAD DUP1 PUSH1 0x40 ADD PUSH1 0x40 MSTORE DUP1 PUSH1 0x14 DUP2 MSTORE PUSH1 0x20 ADD PUSH32 0x746F74616C4173736574734661697256616C7565000000000000000000000000 DUP2 MSTORE POP DUP2 MSTORE PUSH1 0x20 ADD PUSH1 0x40 MLOAD DUP1 PUSH1 0x60 ADD PUSH1 0x40 MSTORE DUP1 PUSH1 0x34 DUP2 MSTORE PUSH1 0x20 ADD PUSH2 0x4043 PUSH1 0x34 SWAP2 CODECOPY DUP2 MSTORE PUSH1 0x20 ADD PUSH1 0x40 MLOAD DUP1 PUSH1 0x60 ADD PUSH1 0x40 MSTORE DUP1 PUSH1 0x35 DUP2 MSTORE PUSH1 0x20 ADD PUSH2 0x40FC PUSH1 0x35 SWAP2 CODECOPY DUP2 MSTORE PUSH1 0x20 ADD PUSH1 0x40 MLOAD DUP1 PUSH1 0x60 ADD PUSH1 0x40 MSTORE DUP1 PUSH1 0x38 DUP2 MSTORE PUSH1 0x20 ADD PUSH2 0x420D PUSH1 0x38 SWAP2 CODECOPY DUP2 MSTORE PUSH1 0x20 ADD PUSH1 0x40 MLOAD DUP1 PUSH1 0x40 ADD PUSH1 0x40 MSTORE DUP1 PUSH1 0x20 DUP2 MSTORE PUSH1 0x20 ADD PUSH32 0x6C696162696C69746965732E746F74616C416D6F756E744661697256616C7565 DUP2 MSTORE POP DUP2 MSTORE PUSH1 0x20 ADD PUSH1 0x40 MLOAD DUP1 PUSH1 0x60 ADD PUSH1 0x40 MSTORE DUP1 PUSH1 0x34 DUP2 MSTORE PUSH1 0x20 ADD PUSH2 0x4131 PUSH1 0x34 SWAP2 CODECOPY DUP2 MSTORE PUSH1 0x20 ADD PUSH1 0x40 MLOAD DUP1 PUSH1 0x60 ADD PUSH1 0x40 MSTORE DUP1 PUSH1 0x35 DUP2 MSTORE PUSH1 0x20 ADD PUSH2 0x41D8 PUSH1 0x35 SWAP2 CODECOPY DUP2 MSTORE PUSH1 0x20 ADD PUSH1 0x40 MLOAD DUP1 PUSH1 0x60 ADD PUSH1 0x40 MSTORE DUP1 PUSH1 0x38 DUP2 MSTORE PUSH1 0x20 ADD PUSH2 0x3EA4 PUSH1 0x38 SWAP2 CODECOPY DUP2 MSTORE PUSH1 0x20 ADD PUSH1 0x40 MLOAD DUP1 PUSH1 0x40 ADD PUSH1 0x40 MSTORE DUP1 PUSH1 0x1B DUP2 MSTORE PUSH1 0x20 ADD PUSH32 0x6571756974792E746F74616C416D6F756E744661697256616C75650000000000 DUP2 MSTORE POP DUP2 MSTORE PUSH1 0x20 ADD PUSH1 0x40 MLOAD DUP1 PUSH1 0x60 ADD PUSH1 0x40 MSTORE DUP1 PUSH1 0x22 DUP2 MSTORE PUSH1 0x20 ADD PUSH2 0x3F8F PUSH1 0x22 SWAP2 CODECOPY DUP2 MSTORE POP SWAP7 POP PUSH1 0x40 MLOAD DUP1 PUSH1 0x80 ADD PUSH1 0x40 MSTORE DUP1 PUSH1 0x40 MLOAD DUP1 PUSH1 0x60 ADD PUSH1 0x40 MSTORE DUP1 PUSH1 0x2D DUP2 MSTORE PUSH1 0x20 ADD PUSH2 0x3FE7 PUSH1 0x2D SWAP2 CODECOPY DUP2 MSTORE PUSH1 0x20 ADD PUSH1 0x40 MLOAD DUP1 PUSH1 0x60 ADD PUSH1 0x40 MSTORE DUP1 PUSH1 0x2F DUP2 MSTORE PUSH1 0x20 ADD PUSH2 0x4014 PUSH1 0x2F SWAP2 CODECOPY DUP2 MSTORE PUSH1 0x20 ADD PUSH1 0x40 MLOAD DUP1 PUSH1 0xA0 ADD PUSH1 0x40 MSTORE DUP1 PUSH1 0x80 DUP2 MSTORE PUSH1 0x20 ADD PUSH2 0x3D9E PUSH1 0x80 SWAP2 CODECOPY DUP2 MSTORE PUSH1 0x20 ADD PUSH1 0x40 MLOAD DUP1 PUSH1 0x40 ADD PUSH1 0x40 MSTORE DUP1 PUSH1 0x9 DUP2 MSTORE PUSH1 0x20 ADD PUSH32 0x6E657450726F6669740000000000000000000000000000000000000000000000 DUP2 MSTORE POP DUP2 MSTORE POP SWAP5 POP PUSH1 0x40 MLOAD DUP1 PUSH2 0x100 ADD PUSH1 0x40 MSTORE DUP1 PUSH1 0x40 MLOAD DUP1 PUSH1 0xA0 ADD PUSH1 0x40 MSTORE DUP1 PUSH1 0x71 DUP2 MSTORE PUSH1 0x20 ADD PUSH2 0x435A PUSH1 0x71 SWAP2 CODECOPY DUP2 MSTORE PUSH1 0x20 ADD PUSH1 0x40 MLOAD DUP1 PUSH1 0xA0 ADD PUSH1 0x40 MSTORE DUP1 PUSH1 0x73 DUP2 MSTORE PUSH1 0x20 ADD PUSH2 0x4165 PUSH1 0x73 SWAP2 CODECOPY DUP2 MSTORE PUSH1 0x20 ADD PUSH1 0x40 MLOAD DUP1 PUSH1 0xA0 ADD PUSH1 0x40 MSTORE DUP1 PUSH1 0x80 DUP2 MSTORE PUSH1 0x20 ADD PUSH2 0x3D9E PUSH1 0x80 SWAP2 CODECOPY DUP2 MSTORE PUSH1 0x20 ADD PUSH1 0x40 MLOAD DUP1 PUSH1 0xC0 ADD PUSH1 0x40 MSTORE DUP1 PUSH1 0x83 DUP2 MSTORE PUSH1 0x20 ADD PUSH2 0x42D7 PUSH1 0x83 SWAP2 CODECOPY DUP2 MSTORE PUSH1 0x20 ADD PUSH1 0x40 MLOAD DUP1 PUSH1 0xC0 ADD PUSH1 0x40 MSTORE DUP1 PUSH1 0x85 DUP2 MSTORE PUSH1 0x20 ADD PUSH2 0x4077 PUSH1 0x85 SWAP2 CODECOPY DUP2 MSTORE PUSH1 0x20 ADD PUSH1 0x40 MLOAD DUP1 PUSH1 0xC0 ADD PUSH1 0x40 MSTORE DUP1 PUSH1 0x92 DUP2 MSTORE PUSH1 0x20 ADD PUSH2 0x4245 PUSH1 0x92 SWAP2 CODECOPY DUP2 MSTORE PUSH1 0x20 ADD PUSH1 0x40 MLOAD DUP1 PUSH1 0x80 ADD PUSH1 0x40 MSTORE DUP1 PUSH1 0x44 DUP2 MSTORE PUSH1 0x20 ADD PUSH2 0x3F4B PUSH1 0x44 SWAP2 CODECOPY DUP2 MSTORE PUSH1 0x20 ADD PUSH1 0x40 MLOAD DUP1 PUSH1 0x80 ADD PUSH1 0x40 MSTORE DUP1 PUSH1 0x54 DUP2 MSTORE PUSH1 0x20 ADD PUSH2 0x3E50 PUSH1 0x54 SWAP2 CODECOPY DUP2 MSTORE POP SWAP3 POP DUP1 MLOAD PUSH8 0xFFFFFFFFFFFFFFFF DUP2 GT ISZERO PUSH2 0x1B76 JUMPI PUSH2 0x1B75 PUSH2 0x25E9 JUMP JUMPDEST JUMPDEST PUSH1 0x40 MLOAD SWAP1 DUP1 DUP3 MSTORE DUP1 PUSH1 0x20 MUL PUSH1 0x20 ADD DUP3 ADD PUSH1 0x40 MSTORE DUP1 ISZERO PUSH2 0x1BA9 JUMPI DUP2 PUSH1 0x20 ADD JUMPDEST PUSH1 0x60 DUP2 MSTORE PUSH1 0x20 ADD SWAP1 PUSH1 0x1 SWAP1 SUB SWAP1 DUP2 PUSH2 0x1B94 JUMPI SWAP1 POP JUMPDEST POP SWAP6 POP DUP1 MLOAD PUSH8 0xFFFFFFFFFFFFFFFF DUP2 GT ISZERO PUSH2 0x1BC7 JUMPI PUSH2 0x1BC6 PUSH2 0x25E9 JUMP JUMPDEST JUMPDEST PUSH1 0x40 MLOAD SWAP1 DUP1 DUP3 MSTORE DUP1 PUSH1 0x20 MUL PUSH1 0x20 ADD DUP3 ADD PUSH1 0x40 MSTORE DUP1 ISZERO PUSH2 0x1BFA JUMPI DUP2 PUSH1 0x20 ADD JUMPDEST PUSH1 0x60 DUP2 MSTORE PUSH1 0x20 ADD SWAP1 PUSH1 0x1 SWAP1 SUB SWAP1 DUP2 PUSH2 0x1BE5 JUMPI SWAP1 POP JUMPDEST POP SWAP4 POP DUP1 MLOAD PUSH8 0xFFFFFFFFFFFFFFFF DUP2 GT ISZERO PUSH2 0x1C18 JUMPI PUSH2 0x1C17 PUSH2 0x25E9 JUMP JUMPDEST JUMPDEST PUSH1 0x40 MLOAD SWAP1 DUP1 DUP3 MSTORE DUP1 PUSH1 0x20 MUL PUSH1 0x20 ADD DUP3 ADD PUSH1 0x40 MSTORE DUP1 ISZERO PUSH2 0x1C4B JUMPI DUP2 PUSH1 0x20 ADD JUMPDEST PUSH1 0x60 DUP2 MSTORE PUSH1 0x20 ADD SWAP1 PUSH1 0x1 SWAP1 SUB SWAP1 DUP2 PUSH2 0x1C36 JUMPI SWAP1 POP JUMPDEST POP SWAP2 POP PUSH1 0x0 JUMPDEST DUP2 MLOAD DUP2 LT ISZERO PUSH2 0x1F8F JUMPI DUP2 DUP2 DUP2 MLOAD DUP2 LT PUSH2 0x1C6D JUMPI PUSH2 0x1C6C PUSH2 0x320F JUMP JUMPDEST JUMPDEST PUSH1 0x20 MUL PUSH1 0x20 ADD ADD MLOAD PUSH1 0x0 ADD MLOAD DUP10 DUP3 DUP2 MLOAD DUP2 LT PUSH2 0x1C8C JUMPI PUSH2 0x1C8B PUSH2 0x320F JUMP JUMPDEST JUMPDEST PUSH1 0x20 MUL PUSH1 0x20 ADD ADD DUP2 SWAP1 MSTORE POP PUSH1 0xE PUSH8 0xFFFFFFFFFFFFFFFF DUP2 GT ISZERO PUSH2 0x1CB2 JUMPI PUSH2 0x1CB1 PUSH2 0x25E9 JUMP JUMPDEST JUMPDEST PUSH1 0x40 MLOAD SWAP1 DUP1 DUP3 MSTORE DUP1 PUSH1 0x20 MUL PUSH1 0x20 ADD DUP3 ADD PUSH1 0x40 MSTORE DUP1 ISZERO PUSH2 0x1CE0 JUMPI DUP2 PUSH1 0x20 ADD PUSH1 0x20 DUP3 MUL DUP1 CALLDATASIZE DUP4 CALLDATACOPY DUP1 DUP3 ADD SWAP2 POP POP SWAP1 POP JUMPDEST POP DUP8 DUP3 DUP2 MLOAD DUP2 LT PUSH2 0x1CF4 JUMPI PUSH2 0x1CF3 PUSH2 0x320F JUMP JUMPDEST JUMPDEST PUSH1 0x20 MUL PUSH1 0x20 ADD ADD DUP2 SWAP1 MSTORE POP PUSH1 0x4 PUSH8 0xFFFFFFFFFFFFFFFF DUP2 GT ISZERO PUSH2 0x1D1A JUMPI PUSH2 0x1D19 PUSH2 0x25E9 JUMP JUMPDEST JUMPDEST PUSH1 0x40 MLOAD SWAP1 DUP1 DUP3 MSTORE DUP1 PUSH1 0x20 MUL PUSH1 0x20 ADD DUP3 ADD PUSH1 0x40 MSTORE DUP1 ISZERO PUSH2 0x1D48 JUMPI DUP2 PUSH1 0x20 ADD PUSH1 0x20 DUP3 MUL DUP1 CALLDATASIZE DUP4 CALLDATACOPY DUP1 DUP3 ADD SWAP2 POP POP SWAP1 POP JUMPDEST POP DUP6 DUP3 DUP2 MLOAD DUP2 LT PUSH2 0x1D5C JUMPI PUSH2 0x1D5B PUSH2 0x320F JUMP JUMPDEST JUMPDEST PUSH1 0x20 MUL PUSH1 0x20 ADD ADD DUP2 SWAP1 MSTORE POP PUSH1 0x8 PUSH8 0xFFFFFFFFFFFFFFFF DUP2 GT ISZERO PUSH2 0x1D82 JUMPI PUSH2 0x1D81 PUSH2 0x25E9 JUMP JUMPDEST JUMPDEST PUSH1 0x40 MLOAD SWAP1 DUP1 DUP3 MSTORE DUP1 PUSH1 0x20 MUL PUSH1 0x20 ADD DUP3 ADD PUSH1 0x40 MSTORE DUP1 ISZERO PUSH2 0x1DB0 JUMPI DUP2 PUSH1 0x20 ADD PUSH1 0x20 DUP3 MUL DUP1 CALLDATASIZE DUP4 CALLDATACOPY DUP1 DUP3 ADD SWAP2 POP POP SWAP1 POP JUMPDEST POP DUP4 DUP3 DUP2 MLOAD DUP2 LT PUSH2 0x1DC4 JUMPI PUSH2 0x1DC3 PUSH2 0x320F JUMP JUMPDEST JUMPDEST PUSH1 0x20 MUL PUSH1 0x20 ADD ADD DUP2 SWAP1 MSTORE POP PUSH1 0x0 JUMPDEST PUSH1 0xE DUP2 LT ISZERO PUSH2 0x1E5D JUMPI PUSH1 0x1 DUP10 DUP3 PUSH1 0xE DUP2 LT PUSH2 0x1DF0 JUMPI PUSH2 0x1DEF PUSH2 0x320F JUMP JUMPDEST JUMPDEST PUSH1 0x20 MUL ADD MLOAD PUSH1 0x40 MLOAD PUSH2 0x1E02 SWAP2 SWAP1 PUSH2 0x3389 JUMP JUMPDEST SWAP1 DUP2 MSTORE PUSH1 0x20 ADD PUSH1 0x40 MLOAD DUP1 SWAP2 SUB SWAP1 KECCAK256 SLOAD DUP9 DUP4 DUP2 MLOAD DUP2 LT PUSH2 0x1E24 JUMPI PUSH2 0x1E23 PUSH2 0x320F JUMP JUMPDEST JUMPDEST PUSH1 0x20 MUL PUSH1 0x20 ADD ADD MLOAD DUP3 DUP2 MLOAD DUP2 LT PUSH2 0x1E3E JUMPI PUSH2 0x1E3D PUSH2 0x320F JUMP JUMPDEST JUMPDEST PUSH1 0x20 MUL PUSH1 0x20 ADD ADD DUP2 DUP2 MSTORE POP POP DUP1 DUP1 PUSH2 0x1E55 SWAP1 PUSH2 0x343B JUMP JUMPDEST SWAP2 POP POP PUSH2 0x1DD2 JUMP JUMPDEST POP PUSH1 0x0 JUMPDEST PUSH1 0x4 DUP2 LT ISZERO PUSH2 0x1EEC JUMPI PUSH1 0x2 DUP8 DUP3 PUSH1 0x4 DUP2 LT PUSH2 0x1E7F JUMPI PUSH2 0x1E7E PUSH2 0x320F JUMP JUMPDEST JUMPDEST PUSH1 0x20 MUL ADD MLOAD PUSH1 0x40 MLOAD PUSH2 0x1E91 SWAP2 SWAP1 PUSH2 0x3389 JUMP JUMPDEST SWAP1 DUP2 MSTORE PUSH1 0x20 ADD PUSH1 0x40 MLOAD DUP1 SWAP2 SUB SWAP1 KECCAK256 SLOAD DUP7 DUP4 DUP2 MLOAD DUP2 LT PUSH2 0x1EB3 JUMPI PUSH2 0x1EB2 PUSH2 0x320F JUMP JUMPDEST JUMPDEST PUSH1 0x20 MUL PUSH1 0x20 ADD ADD MLOAD DUP3 DUP2 MLOAD DUP2 LT PUSH2 0x1ECD JUMPI PUSH2 0x1ECC PUSH2 0x320F JUMP JUMPDEST JUMPDEST PUSH1 0x20 MUL PUSH1 0x20 ADD ADD DUP2 DUP2 MSTORE POP POP DUP1 DUP1 PUSH2 0x1EE4 SWAP1 PUSH2 0x343B JUMP JUMPDEST SWAP2 POP POP PUSH2 0x1E61 JUMP JUMPDEST POP PUSH1 0x0 JUMPDEST PUSH1 0x8 DUP2 LT ISZERO PUSH2 0x1F7B JUMPI PUSH1 0x3 DUP6 DUP3 PUSH1 0x8 DUP2 LT PUSH2 0x1F0E JUMPI PUSH2 0x1F0D PUSH2 0x320F JUMP JUMPDEST JUMPDEST PUSH1 0x20 MUL ADD MLOAD PUSH1 0x40 MLOAD PUSH2 0x1F20 SWAP2 SWAP1 PUSH2 0x3389 JUMP JUMPDEST SWAP1 DUP2 MSTORE PUSH1 0x20 ADD PUSH1 0x40 MLOAD DUP1 SWAP2 SUB SWAP1 KECCAK256 SLOAD DUP5 DUP4 DUP2 MLOAD DUP2 LT PUSH2 0x1F42 JUMPI PUSH2 0x1F41 PUSH2 0x320F JUMP JUMPDEST JUMPDEST PUSH1 0x20 MUL PUSH1 0x20 ADD ADD MLOAD DUP3 DUP2 MLOAD DUP2 LT PUSH2 0x1F5C JUMPI PUSH2 0x1F5B PUSH2 0x320F JUMP JUMPDEST JUMPDEST PUSH1 0x20 MUL PUSH1 0x20 ADD ADD DUP2 DUP2 MSTORE POP POP DUP1 DUP1 PUSH2 0x1F73 SWAP1 PUSH2 0x343B JUMP JUMPDEST SWAP2 POP POP PUSH2 0x1EF0 JUMP JUMPDEST POP DUP1 DUP1 PUSH2 0x1F87 SWAP1 PUSH2 0x343B JUMP JUMPDEST SWAP2 POP POP PUSH2 0x1C51 JUMP JUMPDEST POP POP SWAP3 SWAP6 SWAP9 SWAP2 SWAP5 SWAP8 POP SWAP3 SWAP6 POP JUMP JUMPDEST PUSH1 0x1 DUP2 DUP1 MLOAD PUSH1 0x20 DUP2 ADD DUP3 ADD DUP1 MLOAD DUP5 DUP3 MSTORE PUSH1 0x20 DUP4 ADD PUSH1 0x20 DUP6 ADD KECCAK256 DUP2 DUP4 MSTORE DUP1 SWAP6 POP POP POP POP POP POP PUSH1 0x0 SWAP2 POP SWAP1 POP SLOAD DUP2 JUMP JUMPDEST PUSH1 0x0 JUMPDEST DUP3 MLOAD DUP2 LT ISZERO PUSH2 0x2039 JUMPI DUP2 PUSH1 0x1 DUP5 DUP4 DUP2 MLOAD DUP2 LT PUSH2 0x1FED JUMPI PUSH2 0x1FEC PUSH2 0x320F JUMP JUMPDEST JUMPDEST PUSH1 0x20 MUL PUSH1 0x20 ADD ADD MLOAD PUSH1 0x40 MLOAD PUSH2 0x2002 SWAP2 SWAP1 PUSH2 0x3389 JUMP JUMPDEST SWAP1 DUP2 MSTORE PUSH1 0x20 ADD PUSH1 0x40 MLOAD DUP1 SWAP2 SUB SWAP1 KECCAK256 PUSH1 0x0 DUP3 DUP3 SLOAD PUSH2 0x201F SWAP2 SWAP1 PUSH2 0x387D JUMP JUMPDEST SWAP3 POP POP DUP2 SWAP1 SSTORE POP DUP1 DUP1 PUSH2 0x2031 SWAP1 PUSH2 0x343B JUMP JUMPDEST SWAP2 POP POP PUSH2 0x1FCE JUMP JUMPDEST POP POP POP JUMP JUMPDEST PUSH1 0x0 JUMPDEST DUP3 MLOAD DUP2 LT ISZERO PUSH2 0x20AC JUMPI DUP2 PUSH1 0x2 DUP5 DUP4 DUP2 MLOAD DUP2 LT PUSH2 0x2060 JUMPI PUSH2 0x205F PUSH2 0x320F JUMP JUMPDEST JUMPDEST PUSH1 0x20 MUL PUSH1 0x20 ADD ADD MLOAD PUSH1 0x40 MLOAD PUSH2 0x2075 SWAP2 SWAP1 PUSH2 0x3389 JUMP JUMPDEST SWAP1 DUP2 MSTORE PUSH1 0x20 ADD PUSH1 0x40 MLOAD DUP1 SWAP2 SUB SWAP1 KECCAK256 PUSH1 0x0 DUP3 DUP3 SLOAD PUSH2 0x2092 SWAP2 SWAP1 PUSH2 0x387D JUMP JUMPDEST SWAP3 POP POP DUP2 SWAP1 SSTORE POP DUP1 DUP1 PUSH2 0x20A4 SWAP1 PUSH2 0x343B JUMP JUMPDEST SWAP2 POP POP PUSH2 0x2041 JUMP JUMPDEST POP POP POP JUMP JUMPDEST PUSH1 0x0 PUSH1 0x64 DUP3 PUSH1 0xC0 ADD MLOAD DUP4 PUSH1 0x60 ADD MLOAD DUP5 PUSH1 0x40 ADD MLOAD PUSH2 0x20CE SWAP2 SWAP1 PUSH2 0x36EC JUMP JUMPDEST PUSH2 0x20D8 SWAP2 SWAP1 PUSH2 0x3754 JUMP JUMPDEST PUSH2 0x20E2 SWAP2 SWAP1 PUSH2 0x37C5 JUMP JUMPDEST SWAP1 POP PUSH1 0x0 PUSH1 0x2 PUSH8 0xFFFFFFFFFFFFFFFF DUP2 GT ISZERO PUSH2 0x2101 JUMPI PUSH2 0x2100 PUSH2 0x25E9 JUMP JUMPDEST JUMPDEST PUSH1 0x40 MLOAD SWAP1 DUP1 DUP3 MSTORE DUP1 PUSH1 0x20 MUL PUSH1 0x20 ADD DUP3 ADD PUSH1 0x40 MSTORE DUP1 ISZERO PUSH2 0x2134 JUMPI DUP2 PUSH1 0x20 ADD JUMPDEST PUSH1 0x60 DUP2 MSTORE PUSH1 0x20 ADD SWAP1 PUSH1 0x1 SWAP1 SUB SWAP1 DUP2 PUSH2 0x211F JUMPI SWAP1 POP JUMPDEST POP SWAP1 POP PUSH1 0x40 MLOAD DUP1 PUSH1 0xA0 ADD PUSH1 0x40 MSTORE DUP1 PUSH1 0x71 DUP2 MSTORE PUSH1 0x20 ADD PUSH2 0x435A PUSH1 0x71 SWAP2 CODECOPY DUP2 PUSH1 0x0 DUP2 MLOAD DUP2 LT PUSH2 0x2164 JUMPI PUSH2 0x2163 PUSH2 0x320F JUMP JUMPDEST JUMPDEST PUSH1 0x20 MUL PUSH1 0x20 ADD ADD DUP2 SWAP1 MSTORE POP PUSH1 0x40 MLOAD DUP1 PUSH1 0xA0 ADD PUSH1 0x40 MSTORE DUP1 PUSH1 0x80 DUP2 MSTORE PUSH1 0x20 ADD PUSH2 0x3D9E PUSH1 0x80 SWAP2 CODECOPY DUP2 PUSH1 0x1 DUP2 MLOAD DUP2 LT PUSH2 0x219C JUMPI PUSH2 0x219B PUSH2 0x320F JUMP JUMPDEST JUMPDEST PUSH1 0x20 MUL PUSH1 0x20 ADD ADD DUP2 SWAP1 MSTORE POP PUSH2 0x21B1 DUP2 DUP4 PUSH2 0x2493 JUMP JUMPDEST PUSH1 0x0 DUP4 PUSH1 0x60 ADD MLOAD DUP5 PUSH1 0x40 ADD MLOAD PUSH2 0x21C7 SWAP2 SWAP1 PUSH2 0x36EC JUMP JUMPDEST SWAP1 POP DUP1 PUSH1 0x3 PUSH1 0x40 MLOAD PUSH2 0x21D8 SWAP1 PUSH2 0x3C58 JUMP JUMPDEST SWAP1 DUP2 MSTORE PUSH1 0x20 ADD PUSH1 0x40 MLOAD DUP1 SWAP2 SUB SWAP1 KECCAK256 PUSH1 0x0 DUP3 DUP3 SLOAD PUSH2 0x21F5 SWAP2 SWAP1 PUSH2 0x387D JUMP JUMPDEST SWAP3 POP POP DUP2 SWAP1 SSTORE POP PUSH1 0x0 PUSH1 0x64 DUP6 PUSH1 0xC0 ADD MLOAD DUP7 PUSH1 0x80 ADD MLOAD DUP8 PUSH1 0x60 ADD MLOAD PUSH2 0x2219 SWAP2 SWAP1 PUSH2 0x3720 JUMP JUMPDEST PUSH2 0x2223 SWAP2 SWAP1 PUSH2 0x3754 JUMP JUMPDEST PUSH2 0x222D SWAP2 SWAP1 PUSH2 0x37C5 JUMP JUMPDEST SWAP1 POP PUSH1 0x0 PUSH1 0x2 PUSH8 0xFFFFFFFFFFFFFFFF DUP2 GT ISZERO PUSH2 0x224C JUMPI PUSH2 0x224B PUSH2 0x25E9 JUMP JUMPDEST JUMPDEST PUSH1 0x40 MLOAD SWAP1 DUP1 DUP3 MSTORE DUP1 PUSH1 0x20 MUL PUSH1 0x20 ADD DUP3 ADD PUSH1 0x40 MSTORE DUP1 ISZERO PUSH2 0x227F JUMPI DUP2 PUSH1 0x20 ADD JUMPDEST PUSH1 0x60 DUP2 MSTORE PUSH1 0x20 ADD SWAP1 PUSH1 0x1 SWAP1 SUB SWAP1 DUP2 PUSH2 0x226A JUMPI SWAP1 POP JUMPDEST POP SWAP1 POP PUSH1 0x40 MLOAD DUP1 PUSH1 0xC0 ADD PUSH1 0x40 MSTORE DUP1 PUSH1 0x83 DUP2 MSTORE PUSH1 0x20 ADD PUSH2 0x42D7 PUSH1 0x83 SWAP2 CODECOPY DUP2 PUSH1 0x0 DUP2 MLOAD DUP2 LT PUSH2 0x22AF JUMPI PUSH2 0x22AE PUSH2 0x320F JUMP JUMPDEST JUMPDEST PUSH1 0x20 MUL PUSH1 0x20 ADD ADD DUP2 SWAP1 MSTORE POP PUSH1 0x40 MLOAD DUP1 PUSH1 0xC0 ADD PUSH1 0x40 MSTORE DUP1 PUSH1 0x92 DUP2 MSTORE PUSH1 0x20 ADD PUSH2 0x4245 PUSH1 0x92 SWAP2 CODECOPY DUP2 PUSH1 0x1 DUP2 MLOAD DUP2 LT PUSH2 0x22E7 JUMPI PUSH2 0x22E6 PUSH2 0x320F JUMP JUMPDEST JUMPDEST PUSH1 0x20 MUL PUSH1 0x20 ADD ADD DUP2 SWAP1 MSTORE POP PUSH2 0x22FC DUP2 DUP4 PUSH2 0x2493 JUMP JUMPDEST PUSH1 0x0 DUP7 PUSH1 0x60 ADD MLOAD DUP8 PUSH1 0x40 ADD MLOAD PUSH2 0x2312 SWAP2 SWAP1 PUSH2 0x36EC JUMP JUMPDEST SWAP1 POP DUP1 PUSH1 0x3 PUSH1 0x40 MLOAD PUSH2 0x2323 SWAP1 PUSH2 0x3D51 JUMP JUMPDEST SWAP1 DUP2 MSTORE PUSH1 0x20 ADD PUSH1 0x40 MLOAD DUP1 SWAP2 SUB SWAP1 KECCAK256 PUSH1 0x0 DUP3 DUP3 SLOAD PUSH2 0x2340 SWAP2 SWAP1 PUSH2 0x387D JUMP JUMPDEST SWAP3 POP POP DUP2 SWAP1 SSTORE POP PUSH1 0x0 PUSH1 0x64 DUP9 PUSH1 0xC0 ADD MLOAD DUP10 PUSH1 0x80 ADD MLOAD DUP11 PUSH1 0x40 ADD MLOAD PUSH2 0x2364 SWAP2 SWAP1 PUSH2 0x3720 JUMP JUMPDEST PUSH2 0x236E SWAP2 SWAP1 PUSH2 0x3754 JUMP JUMPDEST PUSH2 0x2378 SWAP2 SWAP1 PUSH2 0x37C5 JUMP JUMPDEST SWAP1 POP PUSH1 0x0 PUSH1 0x2 PUSH8 0xFFFFFFFFFFFFFFFF DUP2 GT ISZERO PUSH2 0x2397 JUMPI PUSH2 0x2396 PUSH2 0x25E9 JUMP JUMPDEST JUMPDEST PUSH1 0x40 MLOAD SWAP1 DUP1 DUP3 MSTORE DUP1 PUSH1 0x20 MUL PUSH1 0x20 ADD DUP3 ADD PUSH1 0x40 MSTORE DUP1 ISZERO PUSH2 0x23CA JUMPI DUP2 PUSH1 0x20 ADD JUMPDEST PUSH1 0x60 DUP2 MSTORE PUSH1 0x20 ADD SWAP1 PUSH1 0x1 SWAP1 SUB SWAP1 DUP2 PUSH2 0x23B5 JUMPI SWAP1 POP JUMPDEST POP SWAP1 POP PUSH1 0x40 MLOAD DUP1 PUSH1 0x80 ADD PUSH1 0x40 MSTORE DUP1 PUSH1 0x44 DUP2 MSTORE PUSH1 0x20 ADD PUSH2 0x3F4B PUSH1 0x44 SWAP2 CODECOPY DUP2 PUSH1 0x0 DUP2 MLOAD DUP2 LT PUSH2 0x23FA JUMPI PUSH2 0x23F9 PUSH2 0x320F JUMP JUMPDEST JUMPDEST PUSH1 0x20 MUL PUSH1 0x20 ADD ADD DUP2 SWAP1 MSTORE POP PUSH1 0x40 MLOAD DUP1 PUSH1 0x80 ADD PUSH1 0x40 MSTORE DUP1 PUSH1 0x54 DUP2 MSTORE PUSH1 0x20 ADD PUSH2 0x3E50 PUSH1 0x54 SWAP2 CODECOPY DUP2 PUSH1 0x1 DUP2 MLOAD DUP2 LT PUSH2 0x2432 JUMPI PUSH2 0x2431 PUSH2 0x320F JUMP JUMPDEST JUMPDEST PUSH1 0x20 MUL PUSH1 0x20 ADD ADD DUP2 SWAP1 MSTORE POP PUSH2 0x2447 DUP2 DUP4 PUSH2 0x2493 JUMP JUMPDEST PUSH32 0xA26BDD521074FE90072FBBAD03F6CCCBC67A863F014B3F6AFA31EFA7E026EE4A DUP10 PUSH1 0x0 ADD MLOAD DUP11 PUSH1 0x20 ADD MLOAD PUSH1 0x40 MLOAD PUSH2 0x2480 SWAP3 SWAP2 SWAP1 PUSH2 0x3D66 JUMP JUMPDEST PUSH1 0x40 MLOAD DUP1 SWAP2 SUB SWAP1 LOG1 POP POP POP POP POP POP POP POP POP JUMP JUMPDEST PUSH1 0x0 JUMPDEST DUP3 MLOAD DUP2 LT ISZERO PUSH2 0x2501 JUMPI DUP2 PUSH1 0x3 DUP5 DUP4 DUP2 MLOAD DUP2 LT PUSH2 0x24B5 JUMPI PUSH2 0x24B4 PUSH2 0x320F JUMP JUMPDEST JUMPDEST PUSH1 0x20 MUL PUSH1 0x20 ADD ADD MLOAD PUSH1 0x40 MLOAD PUSH2 0x24CA SWAP2 SWAP1 PUSH2 0x3389 JUMP JUMPDEST SWAP1 DUP2 MSTORE PUSH1 0x20 ADD PUSH1 0x40 MLOAD DUP1 SWAP2 SUB SWAP1 KECCAK256 PUSH1 0x0 DUP3 DUP3 SLOAD PUSH2 0x24E7 SWAP2 SWAP1 PUSH2 0x387D JUMP JUMPDEST SWAP3 POP POP DUP2 SWAP1 SSTORE POP DUP1 DUP1 PUSH2 0x24F9 SWAP1 PUSH2 0x343B JUMP JUMPDEST SWAP2 POP POP PUSH2 0x2496 JUMP JUMPDEST POP POP POP JUMP JUMPDEST PUSH1 0x40 MLOAD DUP1 PUSH1 0xE0 ADD PUSH1 0x40 MSTORE DUP1 PUSH1 0x60 DUP2 MSTORE PUSH1 0x20 ADD PUSH1 0x60 DUP2 MSTORE PUSH1 0x20 ADD PUSH1 0x0 DUP2 MSTORE PUSH1 0x20 ADD PUSH1 0x0 DUP2 MSTORE PUSH1 0x20 ADD PUSH1 0x0 DUP2 MSTORE PUSH1 0x20 ADD PUSH1 0x0 DUP2 MSTORE PUSH1 0x20 ADD PUSH1 0x0 DUP2 MSTORE POP SWAP1 JUMP JUMPDEST PUSH1 0x40 MLOAD DUP1 PUSH2 0x1C0 ADD PUSH1 0x40 MSTORE DUP1 PUSH1 0xE SWAP1 JUMPDEST PUSH1 0x60 DUP2 MSTORE PUSH1 0x20 ADD SWAP1 PUSH1 0x1 SWAP1 SUB SWAP1 DUP2 PUSH2 0x2553 JUMPI SWAP1 POP POP SWAP1 JUMP JUMPDEST PUSH1 0x40 MLOAD DUP1 PUSH1 0x80 ADD PUSH1 0x40 MSTORE DUP1 PUSH1 0x4 SWAP1 JUMPDEST PUSH1 0x60 DUP2 MSTORE PUSH1 0x20 ADD SWAP1 PUSH1 0x1 SWAP1 SUB SWAP1 DUP2 PUSH2 0x257A JUMPI SWAP1 POP POP SWAP1 JUMP JUMPDEST PUSH1 0x40 MLOAD DUP1 PUSH2 0x100 ADD PUSH1 0x40 MSTORE DUP1 PUSH1 0x8 SWAP1 JUMPDEST PUSH1 0x60 DUP2 MSTORE PUSH1 0x20 ADD SWAP1 PUSH1 0x1 SWAP1 SUB SWAP1 DUP2 PUSH2 0x25A2 JUMPI SWAP1 POP POP SWAP1 JUMP JUMPDEST PUSH1 0x0 PUSH1 0x40 MLOAD SWAP1 POP SWAP1 JUMP JUMPDEST PUSH1 0x0 DUP1 REVERT JUMPDEST PUSH1 0x0 DUP1 REVERT JUMPDEST PUSH1 0x0 DUP1 REVERT JUMPDEST PUSH1 0x0 DUP1 REVERT JUMPDEST PUSH1 0x0 PUSH1 0x1F NOT PUSH1 0x1F DUP4 ADD AND SWAP1 POP SWAP2 SWAP1 POP JUMP JUMPDEST PUSH32 0x4E487B7100000000000000000000000000000000000000000000000000000000 PUSH1 0x0 MSTORE PUSH1 0x41 PUSH1 0x4 MSTORE PUSH1 0x24 PUSH1 0x0 REVERT JUMPDEST PUSH2 0x2621 DUP3 PUSH2 0x25D8 JUMP JUMPDEST DUP2 ADD DUP2 DUP2 LT PUSH8 0xFFFFFFFFFFFFFFFF DUP3 GT OR ISZERO PUSH2 0x2640 JUMPI PUSH2 0x263F PUSH2 0x25E9 JUMP JUMPDEST JUMPDEST DUP1 PUSH1 0x40 MSTORE POP POP POP JUMP JUMPDEST PUSH1 0x0 PUSH2 0x2653 PUSH2 0x25BA JUMP JUMPDEST SWAP1 POP PUSH2 0x265F DUP3 DUP3 PUSH2 0x2618 JUMP JUMPDEST SWAP2 SWAP1 POP JUMP JUMPDEST PUSH1 0x0 PUSH8 0xFFFFFFFFFFFFFFFF DUP3 GT ISZERO PUSH2 0x267F JUMPI PUSH2 0x267E PUSH2 0x25E9 JUMP JUMPDEST JUMPDEST PUSH2 0x2688 DUP3 PUSH2 0x25D8 JUMP JUMPDEST SWAP1 POP PUSH1 0x20 DUP2 ADD SWAP1 POP SWAP2 SWAP1 POP JUMP JUMPDEST DUP3 DUP2 DUP4 CALLDATACOPY PUSH1 0x0 DUP4 DUP4 ADD MSTORE POP POP POP JUMP JUMPDEST PUSH1 0x0 PUSH2 0x26B7 PUSH2 0x26B2 DUP5 PUSH2 0x2664 JUMP JUMPDEST PUSH2 0x2649 JUMP JUMPDEST SWAP1 POP DUP3 DUP2 MSTORE PUSH1 0x20 DUP2 ADD DUP5 DUP5 DUP5 ADD GT ISZERO PUSH2 0x26D3 JUMPI PUSH2 0x26D2 PUSH2 0x25D3 JUMP JUMPDEST JUMPDEST PUSH2 0x26DE DUP5 DUP3 DUP6 PUSH2 0x2695 JUMP JUMPDEST POP SWAP4 SWAP3 POP POP POP JUMP JUMPDEST PUSH1 0x0 DUP3 PUSH1 0x1F DUP4 ADD SLT PUSH2 0x26FB JUMPI PUSH2 0x26FA PUSH2 0x25CE JUMP JUMPDEST JUMPDEST DUP2 CALLDATALOAD PUSH2 0x270B DUP5 DUP3 PUSH1 0x20 DUP7 ADD PUSH2 0x26A4 JUMP JUMPDEST SWAP2 POP POP SWAP3 SWAP2 POP POP JUMP JUMPDEST PUSH1 0x0 DUP2 SWAP1 POP SWAP2 SWAP1 POP JUMP JUMPDEST PUSH2 0x2727 DUP2 PUSH2 0x2714 JUMP JUMPDEST DUP2 EQ PUSH2 0x2732 JUMPI PUSH1 0x0 DUP1 REVERT JUMPDEST POP JUMP JUMPDEST PUSH1 0x0 DUP2 CALLDATALOAD SWAP1 POP PUSH2 0x2744 DUP2 PUSH2 0x271E JUMP JUMPDEST SWAP3 SWAP2 POP POP JUMP JUMPDEST PUSH1 0x0 DUP1 PUSH1 0x0 DUP1 PUSH1 0x0 DUP1 PUSH1 0xC0 DUP8 DUP10 SUB SLT ISZERO PUSH2 0x2767 JUMPI PUSH2 0x2766 PUSH2 0x25C4 JUMP JUMPDEST JUMPDEST PUSH1 0x0 DUP8 ADD CALLDATALOAD PUSH8 0xFFFFFFFFFFFFFFFF DUP2 GT ISZERO PUSH2 0x2785 JUMPI PUSH2 0x2784 PUSH2 0x25C9 JUMP JUMPDEST JUMPDEST PUSH2 0x2791 DUP10 DUP3 DUP11 ADD PUSH2 0x26E6 JUMP JUMPDEST SWAP7 POP POP PUSH1 0x20 DUP8 ADD CALLDATALOAD PUSH8 0xFFFFFFFFFFFFFFFF DUP2 GT ISZERO PUSH2 0x27B2 JUMPI PUSH2 0x27B1 PUSH2 0x25C9 JUMP JUMPDEST JUMPDEST PUSH2 0x27BE DUP10 DUP3 DUP11 ADD PUSH2 0x26E6 JUMP JUMPDEST SWAP6 POP POP PUSH1 0x40 PUSH2 0x27CF DUP10 DUP3 DUP11 ADD PUSH2 0x2735 JUMP JUMPDEST SWAP5 POP POP PUSH1 0x60 PUSH2 0x27E0 DUP10 DUP3 DUP11 ADD PUSH2 0x2735 JUMP JUMPDEST SWAP4 POP POP PUSH1 0x80 PUSH2 0x27F1 DUP10 DUP3 DUP11 ADD PUSH2 0x2735 JUMP JUMPDEST SWAP3 POP POP PUSH1 0xA0 PUSH2 0x2802 DUP10 DUP3 DUP11 ADD PUSH2 0x2735 JUMP JUMPDEST SWAP2 POP POP SWAP3 SWAP6 POP SWAP3 SWAP6 POP SWAP3 SWAP6 JUMP JUMPDEST PUSH1 0x0 PUSH1 0x20 DUP3 DUP5 SUB SLT ISZERO PUSH2 0x2825 JUMPI PUSH2 0x2824 PUSH2 0x25C4 JUMP JUMPDEST JUMPDEST PUSH1 0x0 DUP3 ADD CALLDATALOAD PUSH8 0xFFFFFFFFFFFFFFFF DUP2 GT ISZERO PUSH2 0x2843 JUMPI PUSH2 0x2842 PUSH2 0x25C9 JUMP JUMPDEST JUMPDEST PUSH2 0x284F DUP5 DUP3 DUP6 ADD PUSH2 0x26E6 JUMP JUMPDEST SWAP2 POP POP SWAP3 SWAP2 POP POP JUMP JUMPDEST PUSH1 0x0 DUP2 SWAP1 POP SWAP2 SWAP1 POP JUMP JUMPDEST PUSH2 0x286B DUP2 PUSH2 0x2858 JUMP JUMPDEST DUP3 MSTORE POP POP JUMP JUMPDEST PUSH1 0x0 PUSH1 0x20 DUP3 ADD SWAP1 POP PUSH2 0x2886 PUSH1 0x0 DUP4 ADD DUP5 PUSH2 0x2862 JUMP JUMPDEST SWAP3 SWAP2 POP POP JUMP JUMPDEST PUSH2 0x2895 DUP2 PUSH2 0x2714 JUMP JUMPDEST DUP3 MSTORE POP POP JUMP JUMPDEST PUSH1 0x0 PUSH1 0x20 DUP3 ADD SWAP1 POP PUSH2 0x28B0 PUSH1 0x0 DUP4 ADD DUP5 PUSH2 0x288C JUMP JUMPDEST SWAP3 SWAP2 POP POP JUMP JUMPDEST PUSH1 0x0 DUP1 PUSH1 0x40 DUP4 DUP6 SUB SLT ISZERO PUSH2 0x28CD JUMPI PUSH2 0x28CC PUSH2 0x25C4 JUMP JUMPDEST JUMPDEST PUSH1 0x0 PUSH2 0x28DB DUP6 DUP3 DUP7 ADD PUSH2 0x2735 JUMP JUMPDEST SWAP3 POP POP PUSH1 0x20 PUSH2 0x28EC DUP6 DUP3 DUP7 ADD PUSH2 0x2735 JUMP JUMPDEST SWAP2 POP POP SWAP3 POP SWAP3 SWAP1 POP JUMP JUMPDEST PUSH1 0x0 DUP2 MLOAD SWAP1 POP SWAP2 SWAP1 POP JUMP JUMPDEST PUSH1 0x0 DUP3 DUP3 MSTORE PUSH1 0x20 DUP3 ADD SWAP1 POP SWAP3 SWAP2 POP POP JUMP JUMPDEST PUSH1 0x0 DUP2 SWAP1 POP PUSH1 0x20 DUP3 ADD SWAP1 POP SWAP2 SWAP1 POP JUMP JUMPDEST PUSH1 0x0 DUP2 MLOAD SWAP1 POP SWAP2 SWAP1 POP JUMP JUMPDEST PUSH1 0x0 DUP3 DUP3 MSTORE PUSH1 0x20 DUP3 ADD SWAP1 POP SWAP3 SWAP2 POP POP JUMP JUMPDEST PUSH1 0x0 JUMPDEST DUP4 DUP2 LT ISZERO PUSH2 0x295C JUMPI DUP1 DUP3 ADD MLOAD DUP2 DUP5 ADD MSTORE PUSH1 0x20 DUP2 ADD SWAP1 POP PUSH2 0x2941 JUMP JUMPDEST PUSH1 0x0 DUP5 DUP5 ADD MSTORE POP POP POP POP JUMP JUMPDEST PUSH1 0x0 PUSH2 0x2973 DUP3 PUSH2 0x2922 JUMP JUMPDEST PUSH2 0x297D DUP2 DUP6 PUSH2 0x292D JUMP JUMPDEST SWAP4 POP PUSH2 0x298D DUP2 DUP6 PUSH1 0x20 DUP7 ADD PUSH2 0x293E JUMP JUMPDEST PUSH2 0x2996 DUP2 PUSH2 0x25D8 JUMP JUMPDEST DUP5 ADD SWAP2 POP POP SWAP3 SWAP2 POP POP JUMP JUMPDEST PUSH2 0x29AA DUP2 PUSH2 0x2714 JUMP JUMPDEST DUP3 MSTORE POP POP JUMP JUMPDEST PUSH1 0x0 PUSH1 0xE0 DUP4 ADD PUSH1 0x0 DUP4 ADD MLOAD DUP5 DUP3 SUB PUSH1 0x0 DUP7 ADD MSTORE PUSH2 0x29CD DUP3 DUP3 PUSH2 0x2968 JUMP JUMPDEST SWAP2 POP POP PUSH1 0x20 DUP4 ADD MLOAD DUP5 DUP3 SUB PUSH1 0x20 DUP7 ADD MSTORE PUSH2 0x29E7 DUP3 DUP3 PUSH2 0x2968 JUMP JUMPDEST SWAP2 POP POP PUSH1 0x40 DUP4 ADD MLOAD PUSH2 0x29FC PUSH1 0x40 DUP7 ADD DUP3 PUSH2 0x29A1 JUMP JUMPDEST POP PUSH1 0x60 DUP4 ADD MLOAD PUSH2 0x2A0F PUSH1 0x60 DUP7 ADD DUP3 PUSH2 0x29A1 JUMP JUMPDEST POP PUSH1 0x80 DUP4 ADD MLOAD PUSH2 0x2A22 PUSH1 0x80 DUP7 ADD DUP3 PUSH2 0x29A1 JUMP JUMPDEST POP PUSH1 0xA0 DUP4 ADD MLOAD PUSH2 0x2A35 PUSH1 0xA0 DUP7 ADD DUP3 PUSH2 0x29A1 JUMP JUMPDEST POP PUSH1 0xC0 DUP4 ADD MLOAD PUSH2 0x2A48 PUSH1 0xC0 DUP7 ADD DUP3 PUSH2 0x29A1 JUMP JUMPDEST POP DUP1 SWAP2 POP POP SWAP3 SWAP2 POP POP JUMP JUMPDEST PUSH1 0x0 PUSH2 0x2A5F DUP4 DUP4 PUSH2 0x29B0 JUMP JUMPDEST SWAP1 POP SWAP3 SWAP2 POP POP JUMP JUMPDEST PUSH1 0x0 PUSH1 0x20 DUP3 ADD SWAP1 POP SWAP2 SWAP1 POP JUMP JUMPDEST PUSH1 0x0 PUSH2 0x2A7F DUP3 PUSH2 0x28F6 JUMP JUMPDEST PUSH2 0x2A89 DUP2 DUP6 PUSH2 0x2901 JUMP JUMPDEST SWAP4 POP DUP4 PUSH1 0x20 DUP3 MUL DUP6 ADD PUSH2 0x2A9B DUP6 PUSH2 0x2912 JUMP JUMPDEST DUP1 PUSH1 0x0 JUMPDEST DUP6 DUP2 LT ISZERO PUSH2 0x2AD7 JUMPI DUP5 DUP5 SUB DUP10 MSTORE DUP2 MLOAD PUSH2 0x2AB8 DUP6 DUP3 PUSH2 0x2A53 JUMP JUMPDEST SWAP5 POP PUSH2 0x2AC3 DUP4 PUSH2 0x2A67 JUMP JUMPDEST SWAP3 POP PUSH1 0x20 DUP11 ADD SWAP10 POP POP PUSH1 0x1 DUP2 ADD SWAP1 POP PUSH2 0x2A9F JUMP JUMPDEST POP DUP3 SWAP8 POP DUP8 SWAP6 POP POP POP POP POP POP SWAP3 SWAP2 POP POP JUMP JUMPDEST PUSH1 0x0 PUSH1 0x20 DUP3 ADD SWAP1 POP DUP2 DUP2 SUB PUSH1 0x0 DUP4 ADD MSTORE PUSH2 0x2B03 DUP2 DUP5 PUSH2 0x2A74 JUMP JUMPDEST SWAP1 POP SWAP3 SWAP2 POP POP JUMP JUMPDEST PUSH1 0x0 DUP1 PUSH1 0x0 DUP1 PUSH1 0x80 DUP6 DUP8 SUB SLT ISZERO PUSH2 0x2B25 JUMPI PUSH2 0x2B24 PUSH2 0x25C4 JUMP JUMPDEST JUMPDEST PUSH1 0x0 DUP6 ADD CALLDATALOAD PUSH8 0xFFFFFFFFFFFFFFFF DUP2 GT ISZERO PUSH2 0x2B43 JUMPI PUSH2 0x2B42 PUSH2 0x25C9 JUMP JUMPDEST JUMPDEST PUSH2 0x2B4F DUP8 DUP3 DUP9 ADD PUSH2 0x26E6 JUMP JUMPDEST SWAP5 POP POP PUSH1 0x20 PUSH2 0x2B60 DUP8 DUP3 DUP9 ADD PUSH2 0x2735 JUMP JUMPDEST SWAP4 POP POP PUSH1 0x40 PUSH2 0x2B71 DUP8 DUP3 DUP9 ADD PUSH2 0x2735 JUMP JUMPDEST SWAP3 POP POP PUSH1 0x60 PUSH2 0x2B82 DUP8 DUP3 DUP9 ADD PUSH2 0x2735 JUMP JUMPDEST SWAP2 POP POP SWAP3 SWAP6 SWAP2 SWAP5 POP SWAP3 POP JUMP JUMPDEST PUSH1 0x0 PUSH1 0xE0 DUP4 ADD PUSH1 0x0 DUP4 ADD MLOAD DUP5 DUP3 SUB PUSH1 0x0 DUP7 ADD MSTORE PUSH2 0x2BAB DUP3 DUP3 PUSH2 0x2968 JUMP JUMPDEST SWAP2 POP POP PUSH1 0x20 DUP4 ADD MLOAD DUP5 DUP3 SUB PUSH1 0x20 DUP7 ADD MSTORE PUSH2 0x2BC5 DUP3 DUP3 PUSH2 0x2968 JUMP JUMPDEST SWAP2 POP POP PUSH1 0x40 DUP4 ADD MLOAD PUSH2 0x2BDA PUSH1 0x40 DUP7 ADD DUP3 PUSH2 0x29A1 JUMP JUMPDEST POP PUSH1 0x60 DUP4 ADD MLOAD PUSH2 0x2BED PUSH1 0x60 DUP7 ADD DUP3 PUSH2 0x29A1 JUMP JUMPDEST POP PUSH1 0x80 DUP4 ADD MLOAD PUSH2 0x2C00 PUSH1 0x80 DUP7 ADD DUP3 PUSH2 0x29A1 JUMP JUMPDEST POP PUSH1 0xA0 DUP4 ADD MLOAD PUSH2 0x2C13 PUSH1 0xA0 DUP7 ADD DUP3 PUSH2 0x29A1 JUMP JUMPDEST POP PUSH1 0xC0 DUP4 ADD MLOAD PUSH2 0x2C26 PUSH1 0xC0 DUP7 ADD DUP3 PUSH2 0x29A1 JUMP JUMPDEST POP DUP1 SWAP2 POP POP SWAP3 SWAP2 POP POP JUMP JUMPDEST PUSH1 0x0 PUSH1 0x20 DUP3 ADD SWAP1 POP DUP2 DUP2 SUB PUSH1 0x0 DUP4 ADD MSTORE PUSH2 0x2C4B DUP2 DUP5 PUSH2 0x2B8E JUMP JUMPDEST SWAP1 POP SWAP3 SWAP2 POP POP JUMP JUMPDEST PUSH1 0x0 PUSH1 0x20 DUP3 DUP5 SUB SLT ISZERO PUSH2 0x2C69 JUMPI PUSH2 0x2C68 PUSH2 0x25C4 JUMP JUMPDEST JUMPDEST PUSH1 0x0 PUSH2 0x2C77 DUP5 DUP3 DUP6 ADD PUSH2 0x2735 JUMP JUMPDEST SWAP2 POP POP SWAP3 SWAP2 POP POP JUMP JUMPDEST PUSH1 0x0 DUP3 DUP3 MSTORE PUSH1 0x20 DUP3 ADD SWAP1 POP SWAP3 SWAP2 POP POP JUMP JUMPDEST PUSH1 0x0 PUSH2 0x2C9C DUP3 PUSH2 0x2922 JUMP JUMPDEST PUSH2 0x2CA6 DUP2 DUP6 PUSH2 0x2C80 JUMP JUMPDEST SWAP4 POP PUSH2 0x2CB6 DUP2 DUP6 PUSH1 0x20 DUP7 ADD PUSH2 0x293E JUMP JUMPDEST PUSH2 0x2CBF DUP2 PUSH2 0x25D8 JUMP JUMPDEST DUP5 ADD SWAP2 POP POP SWAP3 SWAP2 POP POP JUMP JUMPDEST PUSH1 0x0 PUSH1 0xE0 DUP3 ADD SWAP1 POP DUP2 DUP2 SUB PUSH1 0x0 DUP4 ADD MSTORE PUSH2 0x2CE4 DUP2 DUP11 PUSH2 0x2C91 JUMP JUMPDEST SWAP1 POP DUP2 DUP2 SUB PUSH1 0x20 DUP4 ADD MSTORE PUSH2 0x2CF8 DUP2 DUP10 PUSH2 0x2C91 JUMP JUMPDEST SWAP1 POP PUSH2 0x2D07 PUSH1 0x40 DUP4 ADD DUP9 PUSH2 0x288C JUMP JUMPDEST PUSH2 0x2D14 PUSH1 0x60 DUP4 ADD DUP8 PUSH2 0x288C JUMP JUMPDEST PUSH2 0x2D21 PUSH1 0x80 DUP4 ADD DUP7 PUSH2 0x288C JUMP JUMPDEST PUSH2 0x2D2E PUSH1 0xA0 DUP4 ADD DUP6 PUSH2 0x288C JUMP JUMPDEST PUSH2 0x2D3B PUSH1 0xC0 DUP4 ADD DUP5 PUSH2 0x288C JUMP JUMPDEST SWAP9 SWAP8 POP POP POP POP POP POP POP POP JUMP JUMPDEST PUSH1 0x0 DUP2 MLOAD SWAP1 POP SWAP2 SWAP1 POP JUMP JUMPDEST PUSH1 0x0 DUP3 DUP3 MSTORE PUSH1 0x20 DUP3 ADD SWAP1 POP SWAP3 SWAP2 POP POP JUMP JUMPDEST PUSH1 0x0 DUP2 SWAP1 POP PUSH1 0x20 DUP3 ADD SWAP1 POP SWAP2 SWAP1 POP JUMP JUMPDEST PUSH1 0x0 PUSH2 0x2D7F DUP4 DUP4 PUSH2 0x2968 JUMP JUMPDEST SWAP1 POP SWAP3 SWAP2 POP POP JUMP JUMPDEST PUSH1 0x0 PUSH1 0x20 DUP3 ADD SWAP1 POP SWAP2 SWAP1 POP JUMP JUMPDEST PUSH1 0x0 PUSH2 0x2D9F DUP3 PUSH2 0x2D47 JUMP JUMPDEST PUSH2 0x2DA9 DUP2 DUP6 PUSH2 0x2D52 JUMP JUMPDEST SWAP4 POP DUP4 PUSH1 0x20 DUP3 MUL DUP6 ADD PUSH2 0x2DBB DUP6 PUSH2 0x2D63 JUMP JUMPDEST DUP1 PUSH1 0x0 JUMPDEST DUP6 DUP2 LT ISZERO PUSH2 0x2DF7 JUMPI DUP5 DUP5 SUB DUP10 MSTORE DUP2 MLOAD PUSH2 0x2DD8 DUP6 DUP3 PUSH2 0x2D73 JUMP JUMPDEST SWAP5 POP PUSH2 0x2DE3 DUP4 PUSH2 0x2D87 JUMP JUMPDEST SWAP3 POP PUSH1 0x20 DUP11 ADD SWAP10 POP POP PUSH1 0x1 DUP2 ADD SWAP1 POP PUSH2 0x2DBF JUMP JUMPDEST POP DUP3 SWAP8 POP DUP8 SWAP6 POP POP POP POP POP POP SWAP3 SWAP2 POP POP JUMP JUMPDEST PUSH1 0x0 PUSH1 0xE SWAP1 POP SWAP2 SWAP1 POP JUMP JUMPDEST PUSH1 0x0 DUP2 SWAP1 POP SWAP3 SWAP2 POP POP JUMP JUMPDEST PUSH1 0x0 DUP2 SWAP1 POP SWAP2 SWAP1 POP JUMP JUMPDEST PUSH1 0x0 PUSH1 0x20 DUP3 ADD SWAP1 POP SWAP2 SWAP1 POP JUMP JUMPDEST PUSH1 0x0 PUSH2 0x2E41 DUP3 PUSH2 0x2E09 JUMP JUMPDEST PUSH2 0x2E4B DUP2 DUP6 PUSH2 0x2E14 JUMP JUMPDEST SWAP4 POP DUP4 PUSH1 0x20 DUP3 MUL DUP6 ADD PUSH2 0x2E5D DUP6 PUSH2 0x2E1F JUMP JUMPDEST DUP1 PUSH1 0x0 JUMPDEST DUP6 DUP2 LT ISZERO PUSH2 0x2E99 JUMPI DUP5 DUP5 SUB DUP10 MSTORE DUP2 MLOAD PUSH2 0x2E7A DUP6 DUP3 PUSH2 0x2D73 JUMP JUMPDEST SWAP5 POP PUSH2 0x2E85 DUP4 PUSH2 0x2E29 JUMP JUMPDEST SWAP3 POP PUSH1 0x20 DUP11 ADD SWAP10 POP POP PUSH1 0x1 DUP2 ADD SWAP1 POP PUSH2 0x2E61 JUMP JUMPDEST POP DUP3 SWAP8 POP DUP8 SWAP6 POP POP POP POP POP POP SWAP3 SWAP2 POP POP JUMP JUMPDEST PUSH1 0x0 DUP2 MLOAD SWAP1 POP SWAP2 SWAP1 POP JUMP JUMPDEST PUSH1 0x0 DUP3 DUP3 MSTORE PUSH1 0x20 DUP3 ADD SWAP1 POP SWAP3 SWAP2 POP POP JUMP JUMPDEST PUSH1 0x0 DUP2 SWAP1 POP PUSH1 0x20 DUP3 ADD SWAP1 POP SWAP2 SWAP1 POP JUMP JUMPDEST PUSH1 0x0 DUP2 MLOAD SWAP1 POP SWAP2 SWAP1 POP JUMP JUMPDEST PUSH1 0x0 DUP3 DUP3 MSTORE PUSH1 0x20 DUP3 ADD SWAP1 POP SWAP3 SWAP2 POP POP JUMP JUMPDEST PUSH1 0x0 DUP2 SWAP1 POP PUSH1 0x20 DUP3 ADD SWAP1 POP SWAP2 SWAP1 POP JUMP JUMPDEST PUSH2 0x2F0C DUP2 PUSH2 0x2858 JUMP JUMPDEST DUP3 MSTORE POP POP JUMP JUMPDEST PUSH1 0x0 PUSH2 0x2F1E DUP4 DUP4 PUSH2 0x2F03 JUMP JUMPDEST PUSH1 0x20 DUP4 ADD SWAP1 POP SWAP3 SWAP2 POP POP JUMP JUMPDEST PUSH1 0x0 PUSH1 0x20 DUP3 ADD SWAP1 POP SWAP2 SWAP1 POP JUMP JUMPDEST PUSH1 0x0 PUSH2 0x2F42 DUP3 PUSH2 0x2ED7 JUMP JUMPDEST PUSH2 0x2F4C DUP2 DUP6 PUSH2 0x2EE2 JUMP JUMPDEST SWAP4 POP PUSH2 0x2F57 DUP4 PUSH2 0x2EF3 JUMP JUMPDEST DUP1 PUSH1 0x0 JUMPDEST DUP4 DUP2 LT ISZERO PUSH2 0x2F88 JUMPI DUP2 MLOAD PUSH2 0x2F6F DUP9 DUP3 PUSH2 0x2F12 JUMP JUMPDEST SWAP8 POP PUSH2 0x2F7A DUP4 PUSH2 0x2F2A JUMP JUMPDEST SWAP3 POP POP PUSH1 0x1 DUP2 ADD SWAP1 POP PUSH2 0x2F5B JUMP JUMPDEST POP DUP6 SWAP4 POP POP POP POP SWAP3 SWAP2 POP POP JUMP JUMPDEST PUSH1 0x0 PUSH2 0x2FA1 DUP4 DUP4 PUSH2 0x2F37 JUMP JUMPDEST SWAP1 POP SWAP3 SWAP2 POP POP JUMP JUMPDEST PUSH1 0x0 PUSH1 0x20 DUP3 ADD SWAP1 POP SWAP2 SWAP1 POP JUMP JUMPDEST PUSH1 0x0 PUSH2 0x2FC1 DUP3 PUSH2 0x2EAB JUMP JUMPDEST PUSH2 0x2FCB DUP2 DUP6 PUSH2 0x2EB6 JUMP JUMPDEST SWAP4 POP DUP4 PUSH1 0x20 DUP3 MUL DUP6 ADD PUSH2 0x2FDD DUP6 PUSH2 0x2EC7 JUMP JUMPDEST DUP1 PUSH1 0x0 JUMPDEST DUP6 DUP2 LT ISZERO PUSH2 0x3019 JUMPI DUP5 DUP5 SUB DUP10 MSTORE DUP2 MLOAD PUSH2 0x2FFA DUP6 DUP3 PUSH2 0x2F95 JUMP JUMPDEST SWAP5 POP PUSH2 0x3005 DUP4 PUSH2 0x2FA9 JUMP JUMPDEST SWAP3 POP PUSH1 0x20 DUP11 ADD SWAP10 POP POP PUSH1 0x1 DUP2 ADD SWAP1 POP PUSH2 0x2FE1 JUMP JUMPDEST POP DUP3 SWAP8 POP DUP8 SWAP6 POP POP POP POP POP POP SWAP3 SWAP2 POP POP JUMP JUMPDEST PUSH1 0x0 PUSH1 0x4 SWAP1 POP SWAP2 SWAP1 POP JUMP JUMPDEST PUSH1 0x0 DUP2 SWAP1 POP SWAP3 SWAP2 POP POP JUMP JUMPDEST PUSH1 0x0 DUP2 SWAP1 POP SWAP2 SWAP1 POP JUMP JUMPDEST PUSH1 0x0 PUSH1 0x20 DUP3 ADD SWAP1 POP SWAP2 SWAP1 POP JUMP JUMPDEST PUSH1 0x0 PUSH2 0x3063 DUP3 PUSH2 0x302B JUMP JUMPDEST PUSH2 0x306D DUP2 DUP6 PUSH2 0x3036 JUMP JUMPDEST SWAP4 POP DUP4 PUSH1 0x20 DUP3 MUL DUP6 ADD PUSH2 0x307F DUP6 PUSH2 0x3041 JUMP JUMPDEST DUP1 PUSH1 0x0 JUMPDEST DUP6 DUP2 LT ISZERO PUSH2 0x30BB JUMPI DUP5 DUP5 SUB DUP10 MSTORE DUP2 MLOAD PUSH2 0x309C DUP6 DUP3 PUSH2 0x2D73 JUMP JUMPDEST SWAP5 POP PUSH2 0x30A7 DUP4 PUSH2 0x304B JUMP JUMPDEST SWAP3 POP PUSH1 0x20 DUP11 ADD SWAP10 POP POP PUSH1 0x1 DUP2 ADD SWAP1 POP PUSH2 0x3083 JUMP JUMPDEST POP DUP3 SWAP8 POP DUP8 SWAP6 POP POP POP POP POP POP SWAP3 SWAP2 POP POP JUMP JUMPDEST PUSH1 0x0 PUSH1 0x8 SWAP1 POP SWAP2 SWAP1 POP JUMP JUMPDEST PUSH1 0x0 DUP2 SWAP1 POP SWAP3 SWAP2 POP POP JUMP JUMPDEST PUSH1 0x0 DUP2 SWAP1 POP SWAP2 SWAP1 POP JUMP JUMPDEST PUSH1 0x0 PUSH1 0x20 DUP3 ADD SWAP1 POP SWAP2 SWAP1 POP JUMP JUMPDEST PUSH1 0x0 PUSH2 0x3105 DUP3 PUSH2 0x30CD JUMP JUMPDEST PUSH2 0x310F DUP2 DUP6 PUSH2 0x30D8 JUMP JUMPDEST SWAP4 POP DUP4 PUSH1 0x20 DUP3 MUL DUP6 ADD PUSH2 0x3121 DUP6 PUSH2 0x30E3 JUMP JUMPDEST DUP1 PUSH1 0x0 JUMPDEST DUP6 DUP2 LT ISZERO PUSH2 0x315D JUMPI DUP5 DUP5 SUB DUP10 MSTORE DUP2 MLOAD PUSH2 0x313E DUP6 DUP3 PUSH2 0x2D73 JUMP JUMPDEST SWAP5 POP PUSH2 0x3149 DUP4 PUSH2 0x30ED JUMP JUMPDEST SWAP3 POP PUSH1 0x20 DUP11 ADD SWAP10 POP POP PUSH1 0x1 DUP2 ADD SWAP1 POP PUSH2 0x3125 JUMP JUMPDEST POP DUP3 SWAP8 POP DUP8 SWAP6 POP POP POP POP POP POP SWAP3 SWAP2 POP POP JUMP JUMPDEST PUSH1 0x0 PUSH1 0xE0 DUP3 ADD SWAP1 POP DUP2 DUP2 SUB PUSH1 0x0 DUP4 ADD MSTORE PUSH2 0x3189 DUP2 DUP11 PUSH2 0x2D94 JUMP JUMPDEST SWAP1 POP DUP2 DUP2 SUB PUSH1 0x20 DUP4 ADD MSTORE PUSH2 0x319D DUP2 DUP10 PUSH2 0x2E36 JUMP JUMPDEST SWAP1 POP DUP2 DUP2 SUB PUSH1 0x40 DUP4 ADD MSTORE PUSH2 0x31B1 DUP2 DUP9 PUSH2 0x2FB6 JUMP JUMPDEST SWAP1 POP DUP2 DUP2 SUB PUSH1 0x60 DUP4 ADD MSTORE PUSH2 0x31C5 DUP2 DUP8 PUSH2 0x3058 JUMP JUMPDEST SWAP1 POP DUP2 DUP2 SUB PUSH1 0x80 DUP4 ADD MSTORE PUSH2 0x31D9 DUP2 DUP7 PUSH2 0x2FB6 JUMP JUMPDEST SWAP1 POP DUP2 DUP2 SUB PUSH1 0xA0 DUP4 ADD MSTORE PUSH2 0x31ED DUP2 DUP6 PUSH2 0x30FA JUMP JUMPDEST SWAP1 POP DUP2 DUP2 SUB PUSH1 0xC0 DUP4 ADD MSTORE PUSH2 0x3201 DUP2 DUP5 PUSH2 0x2FB6 JUMP JUMPDEST SWAP1 POP SWAP9 SWAP8 POP POP POP POP POP POP POP POP JUMP JUMPDEST PUSH32 0x4E487B7100000000000000000000000000000000000000000000000000000000 PUSH1 0x0 MSTORE PUSH1 0x32 PUSH1 0x4 MSTORE PUSH1 0x24 PUSH1 0x0 REVERT JUMPDEST PUSH32 0x4E487B7100000000000000000000000000000000000000000000000000000000 PUSH1 0x0 MSTORE PUSH1 0x22 PUSH1 0x4 MSTORE PUSH1 0x24 PUSH1 0x0 REVERT JUMPDEST PUSH1 0x0 PUSH1 0x2 DUP3 DIV SWAP1 POP PUSH1 0x1 DUP3 AND DUP1 PUSH2 0x3285 JUMPI PUSH1 0x7F DUP3 AND SWAP2 POP JUMPDEST PUSH1 0x20 DUP3 LT DUP2 SUB PUSH2 0x3298 JUMPI PUSH2 0x3297 PUSH2 0x323E JUMP JUMPDEST JUMPDEST POP SWAP2 SWAP1 POP JUMP JUMPDEST PUSH1 0x0 DUP2 SWAP1 POP SWAP3 SWAP2 POP POP JUMP JUMPDEST PUSH1 0x0 DUP2 SWAP1 POP DUP2 PUSH1 0x0 MSTORE PUSH1 0x20 PUSH1 0x0 KECCAK256 SWAP1 POP SWAP2 SWAP1 POP JUMP JUMPDEST PUSH1 0x0 DUP2 SLOAD PUSH2 0x32CB DUP2 PUSH2 0x326D JUMP JUMPDEST PUSH2 0x32D5 DUP2 DUP7 PUSH2 0x329E JUMP JUMPDEST SWAP5 POP PUSH1 0x1 DUP3 AND PUSH1 0x0 DUP2 EQ PUSH2 0x32F0 JUMPI PUSH1 0x1 DUP2 EQ PUSH2 0x3305 JUMPI PUSH2 0x3338 JUMP JUMPDEST PUSH1 0xFF NOT DUP4 AND DUP7 MSTORE DUP2 ISZERO ISZERO DUP3 MUL DUP7 ADD SWAP4 POP PUSH2 0x3338 JUMP JUMPDEST PUSH2 0x330E DUP6 PUSH2 0x32A9 JUMP JUMPDEST PUSH1 0x0 JUMPDEST DUP4 DUP2 LT ISZERO PUSH2 0x3330 JUMPI DUP2 SLOAD DUP2 DUP10 ADD MSTORE PUSH1 0x1 DUP3 ADD SWAP2 POP PUSH1 0x20 DUP2 ADD SWAP1 POP PUSH2 0x3311 JUMP JUMPDEST DUP4 DUP9 ADD SWAP6 POP POP POP JUMPDEST POP POP POP SWAP3 SWAP2 POP POP JUMP JUMPDEST PUSH1 0x0 PUSH2 0x334D DUP3 DUP5 PUSH2 0x32BE JUMP JUMPDEST SWAP2 POP DUP2 SWAP1 POP SWAP3 SWAP2 POP POP JUMP JUMPDEST PUSH1 0x0 PUSH2 0x3363 DUP3 PUSH2 0x2922 JUMP JUMPDEST PUSH2 0x336D DUP2 DUP6 PUSH2 0x329E JUMP JUMPDEST SWAP4 POP PUSH2 0x337D DUP2 DUP6 PUSH1 0x20 DUP7 ADD PUSH2 0x293E JUMP JUMPDEST DUP1 DUP5 ADD SWAP2 POP POP SWAP3 SWAP2 POP POP JUMP JUMPDEST PUSH1 0x0 PUSH2 0x3395 DUP3 DUP5 PUSH2 0x3358 JUMP JUMPDEST SWAP2 POP DUP2 SWAP1 POP SWAP3 SWAP2 POP POP JUMP JUMPDEST PUSH32 0x494420616C7265616479206578697374732E0000000000000000000000000000 PUSH1 0x0 DUP3 ADD MSTORE POP JUMP JUMPDEST PUSH1 0x0 PUSH2 0x33D6 PUSH1 0x12 DUP4 PUSH2 0x2C80 JUMP JUMPDEST SWAP2 POP PUSH2 0x33E1 DUP3 PUSH2 0x33A0 JUMP JUMPDEST PUSH1 0x20 DUP3 ADD SWAP1 POP SWAP2 SWAP1 POP JUMP JUMPDEST PUSH1 0x0 PUSH1 0x20 DUP3 ADD SWAP1 POP DUP2 DUP2 SUB PUSH1 0x0 DUP4 ADD MSTORE PUSH2 0x3405 DUP2 PUSH2 0x33C9 JUMP JUMPDEST SWAP1 POP SWAP2 SWAP1 POP JUMP JUMPDEST PUSH32 0x4E487B7100000000000000000000000000000000000000000000000000000000 PUSH1 0x0 MSTORE PUSH1 0x11 PUSH1 0x4 MSTORE PUSH1 0x24 PUSH1 0x0 REVERT JUMPDEST PUSH1 0x0 PUSH2 0x3446 DUP3 PUSH2 0x2714 JUMP JUMPDEST SWAP2 POP PUSH32 0xFFFFFFFFFFFFFFFFFFFFFFFFFFFFFFFFFFFFFFFFFFFFFFFFFFFFFFFFFFFFFFFF DUP3 SUB PUSH2 0x3478 JUMPI PUSH2 0x3477 PUSH2 0x340C JUMP JUMPDEST JUMPDEST PUSH1 0x1 DUP3 ADD SWAP1 POP SWAP2 SWAP1 POP JUMP JUMPDEST PUSH1 0x0 PUSH1 0x20 PUSH1 0x1F DUP4 ADD DIV SWAP1 POP SWAP2 SWAP1 POP JUMP JUMPDEST PUSH1 0x0 DUP3 DUP3 SHL SWAP1 POP SWAP3 SWAP2 POP POP JUMP JUMPDEST PUSH1 0x0 PUSH1 0x8 DUP4 MUL PUSH2 0x34D0 PUSH32 0xFFFFFFFFFFFFFFFFFFFFFFFFFFFFFFFFFFFFFFFFFFFFFFFFFFFFFFFFFFFFFFFF DUP3 PUSH2 0x3493 JUMP JUMPDEST PUSH2 0x34DA DUP7 DUP4 PUSH2 0x3493 JUMP JUMPDEST SWAP6 POP DUP1 NOT DUP5 AND SWAP4 POP DUP1 DUP7 AND DUP5 OR SWAP3 POP POP POP SWAP4 SWAP3 POP POP POP JUMP JUMPDEST PUSH1 0x0 DUP2 SWAP1 POP SWAP2 SWAP1 POP JUMP JUMPDEST PUSH1 0x0 PUSH2 0x3517 PUSH2 0x3512 PUSH2 0x350D DUP5 PUSH2 0x2714 JUMP JUMPDEST PUSH2 0x34F2 JUMP JUMPDEST PUSH2 0x2714 JUMP JUMPDEST SWAP1 POP SWAP2 SWAP1 POP JUMP JUMPDEST PUSH1 0x0 DUP2 SWAP1 POP SWAP2 SWAP1 POP JUMP JUMPDEST PUSH2 0x3531 DUP4 PUSH2 0x34FC JUMP JUMPDEST PUSH2 0x3545 PUSH2 0x353D DUP3 PUSH2 0x351E JUMP JUMPDEST DUP5 DUP5 SLOAD PUSH2 0x34A0 JUMP JUMPDEST DUP3 SSTORE POP POP POP POP JUMP JUMPDEST PUSH1 0x0 SWAP1 JUMP JUMPDEST PUSH2 0x355A PUSH2 0x354D JUMP JUMPDEST PUSH2 0x3565 DUP2 DUP5 DUP5 PUSH2 0x3528 JUMP JUMPDEST POP POP POP JUMP JUMPDEST JUMPDEST DUP2 DUP2 LT ISZERO PUSH2 0x3589 JUMPI PUSH2 0x357E PUSH1 0x0 DUP3 PUSH2 0x3552 JUMP JUMPDEST PUSH1 0x1 DUP2 ADD SWAP1 POP PUSH2 0x356B JUMP JUMPDEST POP POP JUMP JUMPDEST PUSH1 0x1F DUP3 GT ISZERO PUSH2 0x35CE JUMPI PUSH2 0x359F DUP2 PUSH2 0x32A9 JUMP JUMPDEST PUSH2 0x35A8 DUP5 PUSH2 0x3483 JUMP JUMPDEST DUP2 ADD PUSH1 0x20 DUP6 LT ISZERO PUSH2 0x35B7 JUMPI DUP2 SWAP1 POP JUMPDEST PUSH2 0x35CB PUSH2 0x35C3 DUP6 PUSH2 0x3483 JUMP JUMPDEST DUP4 ADD DUP3 PUSH2 0x356A JUMP JUMPDEST POP POP JUMPDEST POP POP POP JUMP JUMPDEST PUSH1 0x0 DUP3 DUP3 SHR SWAP1 POP SWAP3 SWAP2 POP POP JUMP JUMPDEST PUSH1 0x0 PUSH2 0x35F1 PUSH1 0x0 NOT DUP5 PUSH1 0x8 MUL PUSH2 0x35D3 JUMP JUMPDEST NOT DUP1 DUP4 AND SWAP2 POP POP SWAP3 SWAP2 POP POP JUMP JUMPDEST PUSH1 0x0 PUSH2 0x360A DUP4 DUP4 PUSH2 0x35E0 JUMP JUMPDEST SWAP2 POP DUP3 PUSH1 0x2 MUL DUP3 OR SWAP1 POP SWAP3 SWAP2 POP POP JUMP JUMPDEST PUSH2 0x3623 DUP3 PUSH2 0x2922 JUMP JUMPDEST PUSH8 0xFFFFFFFFFFFFFFFF DUP2 GT ISZERO PUSH2 0x363C JUMPI PUSH2 0x363B PUSH2 0x25E9 JUMP JUMPDEST JUMPDEST PUSH2 0x3646 DUP3 SLOAD PUSH2 0x326D JUMP JUMPDEST PUSH2 0x3651 DUP3 DUP3 DUP6 PUSH2 0x358D JUMP JUMPDEST PUSH1 0x0 PUSH1 0x20 SWAP1 POP PUSH1 0x1F DUP4 GT PUSH1 0x1 DUP2 EQ PUSH2 0x3684 JUMPI PUSH1 0x0 DUP5 ISZERO PUSH2 0x3672 JUMPI DUP3 DUP8 ADD MLOAD SWAP1 POP JUMPDEST PUSH2 0x367C DUP6 DUP3 PUSH2 0x35FE JUMP JUMPDEST DUP7 SSTORE POP PUSH2 0x36E4 JUMP JUMPDEST PUSH1 0x1F NOT DUP5 AND PUSH2 0x3692 DUP7 PUSH2 0x32A9 JUMP JUMPDEST PUSH1 0x0 JUMPDEST DUP3 DUP2 LT ISZERO PUSH2 0x36BA JUMPI DUP5 DUP10 ADD MLOAD DUP3 SSTORE PUSH1 0x1 DUP3 ADD SWAP2 POP PUSH1 0x20 DUP6 ADD SWAP5 POP PUSH1 0x20 DUP2 ADD SWAP1 POP PUSH2 0x3695 JUMP JUMPDEST DUP7 DUP4 LT ISZERO PUSH2 0x36D7 JUMPI DUP5 DUP10 ADD MLOAD PUSH2 0x36D3 PUSH1 0x1F DUP10 AND DUP3 PUSH2 0x35E0 JUMP JUMPDEST DUP4 SSTORE POP JUMPDEST PUSH1 0x1 PUSH1 0x2 DUP9 MUL ADD DUP9 SSTORE POP POP POP JUMPDEST POP POP POP POP POP POP JUMP JUMPDEST PUSH1 0x0 PUSH2 0x36F7 DUP3 PUSH2 0x2714 JUMP JUMPDEST SWAP2 POP PUSH2 0x3702 DUP4 PUSH2 0x2714 JUMP JUMPDEST SWAP3 POP DUP3 DUP3 SUB SWAP1 POP DUP2 DUP2 GT ISZERO PUSH2 0x371A JUMPI PUSH2 0x3719 PUSH2 0x340C JUMP JUMPDEST JUMPDEST SWAP3 SWAP2 POP POP JUMP JUMPDEST PUSH1 0x0 PUSH2 0x372B DUP3 PUSH2 0x2714 JUMP JUMPDEST SWAP2 POP PUSH2 0x3736 DUP4 PUSH2 0x2714 JUMP JUMPDEST SWAP3 POP DUP3 DUP3 ADD SWAP1 POP DUP1 DUP3 GT ISZERO PUSH2 0x374E JUMPI PUSH2 0x374D PUSH2 0x340C JUMP JUMPDEST JUMPDEST SWAP3 SWAP2 POP POP JUMP JUMPDEST PUSH1 0x0 PUSH2 0x375F DUP3 PUSH2 0x2714 JUMP JUMPDEST SWAP2 POP PUSH2 0x376A DUP4 PUSH2 0x2714 JUMP JUMPDEST SWAP3 POP DUP3 DUP3 MUL PUSH2 0x3778 DUP2 PUSH2 0x2714 JUMP JUMPDEST SWAP2 POP DUP3 DUP3 DIV DUP5 EQ DUP4 ISZERO OR PUSH2 0x378F JUMPI PUSH2 0x378E PUSH2 0x340C JUMP JUMPDEST JUMPDEST POP SWAP3 SWAP2 POP POP JUMP JUMPDEST PUSH32 0x4E487B7100000000000000000000000000000000000000000000000000000000 PUSH1 0x0 MSTORE PUSH1 0x12 PUSH1 0x4 MSTORE PUSH1 0x24 PUSH1 0x0 REVERT JUMPDEST PUSH1 0x0 PUSH2 0x37D0 DUP3 PUSH2 0x2714 JUMP JUMPDEST SWAP2 POP PUSH2 0x37DB DUP4 PUSH2 0x2714 JUMP JUMPDEST SWAP3 POP DUP3 PUSH2 0x37EB JUMPI PUSH2 0x37EA PUSH2 0x3796 JUMP JUMPDEST JUMPDEST DUP3 DUP3 DIV SWAP1 POP SWAP3 SWAP2 POP POP JUMP JUMPDEST PUSH32 0x6173736574732E64657461696C732E63727970746F63757272656E63792E6272 PUSH1 0x0 DUP3 ADD MSTORE PUSH32 0x65616B646F776E2E555344542E616D6F756E7400000000000000000000000000 PUSH1 0x20 DUP3 ADD MSTORE POP JUMP JUMPDEST PUSH1 0x0 PUSH2 0x3852 PUSH1 0x33 DUP4 PUSH2 0x329E JUMP JUMPDEST SWAP2 POP PUSH2 0x385D DUP3 PUSH2 0x37F6 JUMP JUMPDEST PUSH1 0x33 DUP3 ADD SWAP1 POP SWAP2 SWAP1 POP JUMP JUMPDEST PUSH1 0x0 PUSH2 0x3873 DUP3 PUSH2 0x3845 JUMP JUMPDEST SWAP2 POP DUP2 SWAP1 POP SWAP2 SWAP1 POP JUMP JUMPDEST PUSH1 0x0 PUSH2 0x3888 DUP3 PUSH2 0x2858 JUMP JUMPDEST SWAP2 POP PUSH2 0x3893 DUP4 PUSH2 0x2858 JUMP JUMPDEST SWAP3 POP DUP3 DUP3 ADD SWAP1 POP DUP3 DUP2 SLT ISZERO PUSH1 0x0 DUP4 SLT AND DUP4 DUP3 SLT PUSH1 0x0 DUP5 SLT ISZERO AND OR ISZERO PUSH2 0x38BB JUMPI PUSH2 0x38BA PUSH2 0x340C JUMP JUMPDEST JUMPDEST SWAP3 SWAP2 POP POP JUMP JUMPDEST PUSH32 0x6C696162696C69746965732E64657461696C732E757365724465706F7369742E PUSH1 0x0 DUP3 ADD MSTORE PUSH32 0x627265616B646F776E2E555344542E616D6F756E740000000000000000000000 PUSH1 0x20 DUP3 ADD MSTORE POP JUMP JUMPDEST PUSH1 0x0 PUSH2 0x391D PUSH1 0x35 DUP4 PUSH2 0x329E JUMP JUMPDEST SWAP2 POP PUSH2 0x3928 DUP3 PUSH2 0x38C1 JUMP JUMPDEST PUSH1 0x35 DUP3 ADD SWAP1 POP SWAP2 SWAP1 POP JUMP JUMPDEST PUSH1 0x0 PUSH2 0x393E DUP3 PUSH2 0x3910 JUMP JUMPDEST SWAP2 POP DUP2 SWAP1 POP SWAP2 SWAP1 POP JUMP JUMPDEST PUSH32 0x6571756974792E64657461696C732E72657461696E65644561726E696E67732E PUSH1 0x0 DUP3 ADD MSTORE PUSH32 0x627265616B646F776E2E555344542E616D6F756E740000000000000000000000 PUSH1 0x20 DUP3 ADD MSTORE POP JUMP JUMPDEST PUSH1 0x0 PUSH2 0x39A4 PUSH1 0x35 DUP4 PUSH2 0x329E JUMP JUMPDEST SWAP2 POP PUSH2 0x39AF DUP3 PUSH2 0x3948 JUMP JUMPDEST PUSH1 0x35 DUP3 ADD SWAP1 POP SWAP2 SWAP1 POP JUMP JUMPDEST PUSH1 0x0 PUSH2 0x39C5 DUP3 PUSH2 0x3997 JUMP JUMPDEST SWAP2 POP DUP2 SWAP1 POP SWAP2 SWAP1 POP JUMP JUMPDEST PUSH32 0x696E636F6D652E64657461696C732E6465706F7369744665652E627265616B64 PUSH1 0x0 DUP3 ADD MSTORE PUSH32 0x6F776E2E555344542E616D6F756E740000000000000000000000000000000000 PUSH1 0x20 DUP3 ADD MSTORE POP JUMP JUMPDEST PUSH1 0x0 PUSH2 0x3A2B PUSH1 0x2F DUP4 PUSH2 0x329E JUMP JUMPDEST SWAP2 POP PUSH2 0x3A36 DUP3 PUSH2 0x39CF JUMP JUMPDEST PUSH1 0x2F DUP3 ADD SWAP1 POP SWAP2 SWAP1 POP JUMP JUMPDEST PUSH1 0x0 PUSH2 0x3A4C DUP3 PUSH2 0x3A1E JUMP JUMPDEST SWAP2 POP DUP2 SWAP1 POP SWAP2 SWAP1 POP JUMP JUMPDEST PUSH32 0x4E6F207472616E73616374696F6E7320617661696C61626C652E000000000000 PUSH1 0x0 DUP3 ADD MSTORE POP JUMP JUMPDEST PUSH1 0x0 PUSH2 0x3A8C PUSH1 0x1A DUP4 PUSH2 0x2C80 JUMP JUMPDEST SWAP2 POP PUSH2 0x3A97 DUP3 PUSH2 0x3A56 JUMP JUMPDEST PUSH1 0x20 DUP3 ADD SWAP1 POP SWAP2 SWAP1 POP JUMP JUMPDEST PUSH1 0x0 PUSH1 0x20 DUP3 ADD SWAP1 POP DUP2 DUP2 SUB PUSH1 0x0 DUP4 ADD MSTORE PUSH2 0x3ABB DUP2 PUSH2 0x3A7F JUMP JUMPDEST SWAP1 POP SWAP2 SWAP1 POP JUMP JUMPDEST PUSH32 0x496E76616C696420696E64657800000000000000000000000000000000000000 PUSH1 0x0 DUP3 ADD MSTORE POP JUMP JUMPDEST PUSH1 0x0 PUSH2 0x3AF8 PUSH1 0xD DUP4 PUSH2 0x2C80 JUMP JUMPDEST SWAP2 POP PUSH2 0x3B03 DUP3 PUSH2 0x3AC2 JUMP JUMPDEST PUSH1 0x20 DUP3 ADD SWAP1 POP SWAP2 SWAP1 POP JUMP JUMPDEST PUSH1 0x0 PUSH1 0x20 DUP3 ADD SWAP1 POP DUP2 DUP2 SUB PUSH1 0x0 DUP4 ADD MSTORE PUSH2 0x3B27 DUP2 PUSH2 0x3AEB JUMP JUMPDEST SWAP1 POP SWAP2 SWAP1 POP JUMP JUMPDEST PUSH32 0x5472616E73616374696F6E206E6F7420666F756E640000000000000000000000 PUSH1 0x0 DUP3 ADD MSTORE POP JUMP JUMPDEST PUSH1 0x0 PUSH2 0x3B64 PUSH1 0x15 DUP4 PUSH2 0x2C80 JUMP JUMPDEST SWAP2 POP PUSH2 0x3B6F DUP3 PUSH2 0x3B2E JUMP JUMPDEST PUSH1 0x20 DUP3 ADD SWAP1 POP SWAP2 SWAP1 POP JUMP JUMPDEST PUSH1 0x0 PUSH1 0x20 DUP3 ADD SWAP1 POP DUP2 DUP2 SUB PUSH1 0x0 DUP4 ADD MSTORE PUSH2 0x3B93 DUP2 PUSH2 0x3B57 JUMP JUMPDEST SWAP1 POP SWAP2 SWAP1 POP JUMP JUMPDEST PUSH32 0x737570706C656D656E74616C5363686564756C654F664E6F6E436173684F7065 PUSH1 0x0 DUP3 ADD MSTORE PUSH32 0x726174696E67416374697669746965732E64657461696C732E63727970746F63 PUSH1 0x20 DUP3 ADD MSTORE PUSH32 0x757272656E636965734465706F73697465644279437573746F6D6572732E6272 PUSH1 0x40 DUP3 ADD MSTORE PUSH32 0x65616B646F776E2E555344542E616D6F756E7400000000000000000000000000 PUSH1 0x60 DUP3 ADD MSTORE POP JUMP JUMPDEST PUSH1 0x0 PUSH2 0x3C42 PUSH1 0x73 DUP4 PUSH2 0x329E JUMP JUMPDEST SWAP2 POP PUSH2 0x3C4D DUP3 PUSH2 0x3B9A JUMP JUMPDEST PUSH1 0x73 DUP3 ADD SWAP1 POP SWAP2 SWAP1 POP JUMP JUMPDEST PUSH1 0x0 PUSH2 0x3C63 DUP3 PUSH2 0x3C35 JUMP JUMPDEST SWAP2 POP DUP2 SWAP1 POP SWAP2 SWAP1 POP JUMP JUMPDEST PUSH32 0x737570706C656D656E74616C5363686564756C654F664E6F6E436173684F7065 PUSH1 0x0 DUP3 ADD MSTORE PUSH32 0x726174696E67416374697669746965732E64657461696C732E63727970746F63 PUSH1 0x20 DUP3 ADD MSTORE PUSH32 0x757272656E63696573526563656976656446726F6D437573746F6D6572734173 PUSH1 0x40 DUP3 ADD MSTORE PUSH32 0x5472616E73616374696F6E466565732E627265616B646F776E2E555344542E61 PUSH1 0x60 DUP3 ADD MSTORE PUSH32 0x6D6F756E74000000000000000000000000000000000000000000000000000000 PUSH1 0x80 DUP3 ADD MSTORE POP JUMP JUMPDEST PUSH1 0x0 PUSH2 0x3D3B PUSH1 0x85 DUP4 PUSH2 0x329E JUMP JUMPDEST SWAP2 POP PUSH2 0x3D46 DUP3 PUSH2 0x3C6D JUMP JUMPDEST PUSH1 0x85 DUP3 ADD SWAP1 POP SWAP2 SWAP1 POP JUMP JUMPDEST PUSH1 0x0 PUSH2 0x3D5C DUP3 PUSH2 0x3D2E JUMP JUMPDEST SWAP2 POP DUP2 SWAP1 POP SWAP2 SWAP1 POP JUMP JUMPDEST PUSH1 0x0 PUSH1 0x40 DUP3 ADD SWAP1 POP DUP2 DUP2 SUB PUSH1 0x0 DUP4 ADD MSTORE PUSH2 0x3D80 DUP2 DUP6 PUSH2 0x2C91 JUMP JUMPDEST SWAP1 POP DUP2 DUP2 SUB PUSH1 0x20 DUP4 ADD MSTORE PUSH2 0x3D94 DUP2 DUP5 PUSH2 0x2C91 JUMP JUMPDEST SWAP1 POP SWAP4 SWAP3 POP POP POP JUMP INVALID PUSH20 0x7570706C656D656E74616C5363686564756C654F PUSH7 0x4E6F6E43617368 0x4F PUSH17 0x65726174696E6741637469766974696573 0x2E PUSH5 0x657461696C PUSH20 0x2E63727970746F63757272656E63696573446570 PUSH16 0x73697465644279437573746F6D657273 0x2E PUSH3 0x726561 PUSH12 0x646F776E2E555344542E7765 PUSH10 0x67687465644176657261 PUSH8 0x65436F7374617373 PUSH6 0x74732E646574 PUSH2 0x696C PUSH20 0x2E63727970746F63757272656E63792E746F7461 PUSH13 0x416D6F756E744661697256616C PUSH22 0x65737570706C656D656E74616C5363686564756C654F PUSH7 0x4E6F6E43617368 0x4F PUSH17 0x65726174696E6741637469766974696573 0x2E PUSH5 0x657461696C PUSH20 0x2E63727970746F63757272656E63696573456E64 0x4F PUSH7 0x506572696F6465 PUSH18 0x756974792E64657461696C732E7265746169 PUSH15 0x65644561726E696E67732E62726561 PUSH12 0x646F776E2E555344542E6661 PUSH10 0x7256616C7565696E636F PUSH14 0x652E64657461696C732E6465706F PUSH20 0x69744665652E627265616B646F776E2E55534454 0x2E PUSH24 0x6569676874656441766572616765436F7374617373657473 0x2E PUSH5 0x657461696C PUSH20 0x2E63727970746F63757272656E63792E62726561 PUSH12 0x646F776E2E555344542E616D PUSH16 0x756E74737570706C656D656E74616C53 PUSH4 0x68656475 PUSH13 0x654F664E6F6E436173684F7065 PUSH19 0x6174696E67416374697669746965732E776569 PUSH8 0x6874656441766572 PUSH2 0x6765 NUMBER PUSH16 0x7374746F74616C4C696162696C697469 PUSH6 0x73416E644571 PUSH22 0x6974794661697256616C75656173736574732E646574 PUSH2 0x696C PUSH20 0x2E63727970746F63757272656E63792E62726561 PUSH12 0x646F776E2E555344542E6661 PUSH10 0x7256616C7565696E636F PUSH14 0x652E64657461696C732E6465706F PUSH20 0x69744665652E7765696768746564417665726167 PUSH6 0x436F7374696E PUSH4 0x6F6D652E PUSH5 0x657461696C PUSH20 0x2E6465706F7369744665652E627265616B646F77 PUSH15 0x2E555344542E616D6F756E746C6961 PUSH3 0x696C69 PUSH21 0x6965732E64657461696C732E757365724465706F73 PUSH10 0x742E746F74616C416D6F PUSH22 0x6E744661697256616C7565737570706C656D656E7461 PUSH13 0x5363686564756C654F664E6F6E NUMBER PUSH2 0x7368 0x4F PUSH17 0x65726174696E6741637469766974696573 0x2E PUSH5 0x657461696C PUSH20 0x2E63727970746F63757272656E63696573526563 PUSH6 0x697665644672 PUSH16 0x6D437573746F6D65727341735472616E PUSH20 0x616374696F6E466565732E627265616B646F776E 0x2E SSTORE MSTORE8 PREVRANDAO SLOAD 0x2E PUSH2 0x6D6F PUSH22 0x6E746C696162696C69746965732E64657461696C732E PUSH22 0x7365724465706F7369742E627265616B646F776E2E55 MSTORE8 PREVRANDAO SLOAD 0x2E PUSH2 0x6D6F PUSH22 0x6E746571756974792E64657461696C732E7265746169 PUSH15 0x65644561726E696E67732E746F7461 PUSH13 0x416D6F756E744661697256616C PUSH22 0x65737570706C656D656E74616C5363686564756C654F PUSH7 0x4E6F6E43617368 0x4F PUSH17 0x65726174696E6741637469766974696573 0x2E PUSH5 0x657461696C PUSH20 0x2E63727970746F63757272656E63696573446570 PUSH16 0x73697465644279437573746F6D657273 0x2E PUSH3 0x726561 PUSH12 0x646F776E2E555344542E616D PUSH16 0x756E746571756974792E64657461696C PUSH20 0x2E72657461696E65644561726E696E67732E6272 PUSH6 0x616B646F776E 0x2E SSTORE MSTORE8 PREVRANDAO SLOAD 0x2E PUSH2 0x6D6F PUSH22 0x6E746C696162696C69746965732E64657461696C732E PUSH22 0x7365724465706F7369742E627265616B646F776E2E55 MSTORE8 PREVRANDAO SLOAD 0x2E PUSH7 0x61697256616C75 PUSH6 0x737570706C65 PUSH14 0x656E74616C5363686564756C654F PUSH7 0x4E6F6E43617368 0x4F PUSH17 0x65726174696E6741637469766974696573 0x2E PUSH5 0x657461696C PUSH20 0x2E63727970746F63757272656E63696573526563 PUSH6 0x697665644672 PUSH16 0x6D437573746F6D65727341735472616E PUSH20 0x616374696F6E466565732E627265616B646F776E 0x2E SSTORE MSTORE8 PREVRANDAO SLOAD 0x2E PUSH24 0x6569676874656441766572616765436F7374737570706C65 PUSH14 0x656E74616C5363686564756C654F PUSH7 0x4E6F6E43617368 0x4F PUSH17 0x65726174696E6741637469766974696573 0x2E PUSH5 0x657461696C PUSH20 0x2E63727970746F63757272656E63696573526563 PUSH6 0x697665644672 PUSH16 0x6D437573746F6D65727341735472616E PUSH20 0x616374696F6E466565732E776569676874656441 PUSH23 0x6572616765436F7374737570706C656D656E74616C5363 PUSH9 0x6564756C654F664E6F PUSH15 0x436173684F7065726174696E674163 PUSH21 0x697669746965732E64657461696C732E6372797074 PUSH16 0x63757272656E636965734465706F7369 PUSH21 0x65644279437573746F6D6572732E77656967687465 PUSH5 0x4176657261 PUSH8 0x65436F7374A26469 PUSH17 0x667358221220FD30D3E02BB8D0666D0373 PUSH31 0x2495D8653B1313A1E8B0A401C987EDDBF325ECEE64736F6C63430008120033 "
				},
				"gasEstimates": {
					"creation": {
						"codeDepositCost": "3481600",
						"executionCost": "3893",
						"totalCost": "3485493"
					},
					"external": {
						"balanceSheet(string)": "infinite",
						"cashFlow(string)": "infinite",
						"comprehensiveIncome(string)": "infinite",
						"getEventIdAndRate(string,uint256,uint256,uint256)": "infinite",
						"getLatestTransaction()": "infinite",
						"getReportsInTimeRange(uint256,uint256)": "infinite",
						"getTransactionById(string)": "infinite",
						"getTransactionByIndex(uint256)": "infinite",
						"getTransactionCount()": "2512",
						"getTransactionsInTimeRange(uint256,uint256)": "infinite",
						"recordTransaction(string,string,uint256,uint256,uint256,uint256)": "infinite",
						"transactions(uint256)": "infinite"
					},
					"internal": {
						"addAmountToBalanceSheet(string memory[] memory,int256)": "infinite",
						"addAmountToCashFlow(string memory[] memory,int256)": "infinite",
						"addAmountTocomprehensive(string memory[] memory,int256)": "infinite",
						"recordTransactionCashFlow(struct E00010001.Event memory)": "infinite"
					}
				},
				"methodIdentifiers": {
					"balanceSheet(string)": "f61347cf",
					"cashFlow(string)": "2c86881c",
					"comprehensiveIncome(string)": "2b3a8659",
					"getEventIdAndRate(string,uint256,uint256,uint256)": "519a334b",
					"getLatestTransaction()": "6ccc29dc",
					"getReportsInTimeRange(uint256,uint256)": "c2e27541",
					"getTransactionById(string)": "9ff16eb7",
					"getTransactionByIndex(uint256)": "869152e7",
					"getTransactionCount()": "2e7700f0",
					"getTransactionsInTimeRange(uint256,uint256)": "4fb9118b",
					"recordTransaction(string,string,uint256,uint256,uint256,uint256)": "12496544",
					"transactions(uint256)": "9ace38c2"
				}
			},
			"storageLayout": {
				"storage": [
					{
						"astId": 20,
						"contract": "temp.sol:E00010001",
						"label": "transactions",
						"offset": 0,
						"slot": "0",
						"type": "t_array(t_struct(Event)16_storage)dyn_storage"
					},
					{
						"astId": 24,
						"contract": "temp.sol:E00010001",
						"label": "balanceSheet",
						"offset": 0,
						"slot": "1",
						"type": "t_mapping(t_string_memory_ptr,t_int256)"
					},
					{
						"astId": 28,
						"contract": "temp.sol:E00010001",
						"label": "comprehensiveIncome",
						"offset": 0,
						"slot": "2",
						"type": "t_mapping(t_string_memory_ptr,t_int256)"
					},
					{
						"astId": 32,
						"contract": "temp.sol:E00010001",
						"label": "cashFlow",
						"offset": 0,
						"slot": "3",
						"type": "t_mapping(t_string_memory_ptr,t_int256)"
					},
					{
						"astId": 36,
						"contract": "temp.sol:E00010001",
						"label": "transactionIndices",
						"offset": 0,
						"slot": "4",
						"type": "t_mapping(t_string_memory_ptr,t_uint256)"
					},
					{
						"astId": 38,
						"contract": "temp.sol:E00010001",
						"label": "latestSP002",
						"offset": 0,
						"slot": "5",
						"type": "t_uint256"
					},
					{
						"astId": 40,
						"contract": "temp.sol:E00010001",
						"label": "latestSP003",
						"offset": 0,
						"slot": "6",
						"type": "t_uint256"
					},
					{
						"astId": 42,
						"contract": "temp.sol:E00010001",
						"label": "latestSP004",
						"offset": 0,
						"slot": "7",
						"type": "t_uint256"
					},
					{
						"astId": 44,
						"contract": "temp.sol:E00010001",
						"label": "eventIdFromTimeSpan",
						"offset": 0,
						"slot": "8",
						"type": "t_string_storage"
					}
				],
				"types": {
					"t_array(t_struct(Event)16_storage)dyn_storage": {
						"base": "t_struct(Event)16_storage",
						"encoding": "dynamic_array",
						"label": "struct E00010001.Event[]",
						"numberOfBytes": "32"
					},
					"t_int256": {
						"encoding": "inplace",
						"label": "int256",
						"numberOfBytes": "32"
					},
					"t_mapping(t_string_memory_ptr,t_int256)": {
						"encoding": "mapping",
						"key": "t_string_memory_ptr",
						"label": "mapping(string => int256)",
						"numberOfBytes": "32",
						"value": "t_int256"
					},
					"t_mapping(t_string_memory_ptr,t_uint256)": {
						"encoding": "mapping",
						"key": "t_string_memory_ptr",
						"label": "mapping(string => uint256)",
						"numberOfBytes": "32",
						"value": "t_uint256"
					},
					"t_string_memory_ptr": {
						"encoding": "bytes",
						"label": "string",
						"numberOfBytes": "32"
					},
					"t_string_storage": {
						"encoding": "bytes",
						"label": "string",
						"numberOfBytes": "32"
					},
					"t_struct(Event)16_storage": {
						"encoding": "inplace",
						"label": "struct E00010001.Event",
						"members": [
							{
								"astId": 3,
								"contract": "temp.sol:E00010001",
								"label": "id",
								"offset": 0,
								"slot": "0",
								"type": "t_string_storage"
							},
							{
								"astId": 5,
								"contract": "temp.sol:E00010001",
								"label": "transactionType",
								"offset": 0,
								"slot": "1",
								"type": "t_string_storage"
							},
							{
								"astId": 7,
								"contract": "temp.sol:E00010001",
								"label": "amount",
								"offset": 0,
								"slot": "2",
								"type": "t_uint256"
							},
							{
								"astId": 9,
								"contract": "temp.sol:E00010001",
								"label": "internalFee",
								"offset": 0,
								"slot": "3",
								"type": "t_uint256"
							},
							{
								"astId": 11,
								"contract": "temp.sol:E00010001",
								"label": "externalFee",
								"offset": 0,
								"slot": "4",
								"type": "t_uint256"
							},
							{
								"astId": 13,
								"contract": "temp.sol:E00010001",
								"label": "timestamp",
								"offset": 0,
								"slot": "5",
								"type": "t_uint256"
							},
							{
								"astId": 15,
								"contract": "temp.sol:E00010001",
								"label": "rateUSDTtoUSD",
								"offset": 0,
								"slot": "6",
								"type": "t_uint256"
							}
						],
						"numberOfBytes": "224"
					},
					"t_uint256": {
						"encoding": "inplace",
						"label": "uint256",
						"numberOfBytes": "32"
					}
				}
			},
			"userdoc": {
				"kind": "user",
				"methods": {},
				"version": 1
			}
		}
	}
}