{
	"parser.sol": {
		"parser": {
			"abi": [
				{
					"inputs": [
						{
							"internalType": "bytes32",
							"name": "_bytes32",
							"type": "bytes32"
						}
					],
					"name": "bytes32ToString",
					"outputs": [
						{
							"internalType": "string",
							"name": "",
							"type": "string"
						}
					],
					"stateMutability": "pure",
					"type": "function"
				}
			],
			"devdoc": {
				"kind": "dev",
				"methods": {},
				"version": 1
			},
			"evm": {
				"assembly": "    /* \"parser.sol\":57:746  contract parser{... */\n  mstore(0x40, 0x80)\n  callvalue\n  dup1\n  iszero\n  tag_1\n  jumpi\n  0x00\n  dup1\n  revert\ntag_1:\n  pop\n  dataSize(sub_0)\n  dup1\n  dataOffset(sub_0)\n  0x00\n  codecopy\n  0x00\n  return\nstop\n\nsub_0: assembly {\n        /* \"parser.sol\":57:746  contract parser{... */\n      mstore(0x40, 0x80)\n      callvalue\n      dup1\n      iszero\n      tag_1\n      jumpi\n      0x00\n      dup1\n      revert\n    tag_1:\n      pop\n      jumpi(tag_2, lt(calldatasize, 0x04))\n      shr(0xe0, calldataload(0x00))\n      dup1\n      0x9201de55\n      eq\n      tag_3\n      jumpi\n    tag_2:\n      0x00\n      dup1\n      revert\n        /* \"parser.sol\":78:430  function bytes32ToString(bytes32 _bytes32) public pure returns (string memory) {... */\n    tag_3:\n      tag_4\n      0x04\n      dup1\n      calldatasize\n      sub\n      dup2\n      add\n      swap1\n      tag_5\n      swap2\n      swap1\n      tag_6\n      jump\t// in\n    tag_5:\n      tag_7\n      jump\t// in\n    tag_4:\n      mload(0x40)\n      tag_8\n      swap2\n      swap1\n      tag_9\n      jump\t// in\n    tag_8:\n      mload(0x40)\n      dup1\n      swap2\n      sub\n      swap1\n      return\n    tag_7:\n        /* \"parser.sol\":142:155  string memory */\n      0x60\n        /* \"parser.sol\":167:174  uint8 i */\n      0x00\n        /* \"parser.sol\":188:250  while(i < 32 && _bytes32[i] != 0) {... */\n    tag_11:\n        /* \"parser.sol\":198:200  32 */\n      0x20\n        /* \"parser.sol\":194:195  i */\n      dup2\n        /* \"parser.sol\":194:200  i < 32 */\n      0xff\n      and\n      lt\n        /* \"parser.sol\":194:220  i < 32 && _bytes32[i] != 0 */\n      dup1\n      iszero\n      tag_13\n      jumpi\n      pop\n        /* \"parser.sol\":219:220  0 */\n      0x00\n        /* \"parser.sol\":204:220  _bytes32[i] != 0 */\n      0xf8\n      shl\n        /* \"parser.sol\":204:212  _bytes32 */\n      dup4\n        /* \"parser.sol\":213:214  i */\n      dup3\n        /* \"parser.sol\":204:215  _bytes32[i] */\n      0xff\n      and\n      0x20\n      dup2\n      lt\n      tag_14\n      jumpi\n      tag_15\n      tag_16\n      jump\t// in\n    tag_15:\n    tag_14:\n      byte\n      0xf8\n      shl\n        /* \"parser.sol\":204:220  _bytes32[i] != 0 */\n      not(0xffffffffffffffffffffffffffffffffffffffffffffffffffffffffffffff)\n      and\n      eq\n      iszero\n        /* \"parser.sol\":194:220  i < 32 && _bytes32[i] != 0 */\n    tag_13:\n        /* \"parser.sol\":188:250  while(i < 32 && _bytes32[i] != 0) {... */\n      iszero\n      tag_12\n      jumpi\n        /* \"parser.sol\":236:239  i++ */\n      dup1\n      dup1\n      tag_17\n      swap1\n      tag_18\n      jump\t// in\n    tag_17:\n      swap2\n      pop\n      pop\n        /* \"parser.sol\":188:250  while(i < 32 && _bytes32[i] != 0) {... */\n      jump(tag_11)\n    tag_12:\n        /* \"parser.sol\":259:282  bytes memory bytesArray */\n      0x00\n        /* \"parser.sol\":295:296  i */\n      dup2\n        /* \"parser.sol\":285:297  new bytes(i) */\n      0xff\n      and\n      0xffffffffffffffff\n      dup2\n      gt\n      iszero\n      tag_19\n      jumpi\n      tag_20\n      tag_21\n      jump\t// in\n    tag_20:\n    tag_19:\n      mload(0x40)\n      swap1\n      dup1\n      dup3\n      mstore\n      dup1\n      0x1f\n      add\n      not(0x1f)\n      and\n      0x20\n      add\n      dup3\n      add\n      0x40\n      mstore\n      dup1\n      iszero\n      tag_22\n      jumpi\n      dup2\n      0x20\n      add\n      0x01\n      dup3\n      mul\n      dup1\n      calldatasize\n      dup4\n      calldatacopy\n      dup1\n      dup3\n      add\n      swap2\n      pop\n      pop\n      swap1\n      pop\n    tag_22:\n      pop\n        /* \"parser.sol\":259:297  bytes memory bytesArray = new bytes(i) */\n      swap1\n      pop\n        /* \"parser.sol\":312:319  uint8 j */\n      0x00\n        /* \"parser.sol\":307:389  for (uint8 j = 0; j < i; j++) {... */\n    tag_23:\n        /* \"parser.sol\":329:330  i */\n      dup3\n        /* \"parser.sol\":325:330  j < i */\n      0xff\n      and\n        /* \"parser.sol\":325:326  j */\n      dup2\n        /* \"parser.sol\":325:330  j < i */\n      0xff\n      and\n      lt\n        /* \"parser.sol\":307:389  for (uint8 j = 0; j < i; j++) {... */\n      iszero\n      tag_24\n      jumpi\n        /* \"parser.sol\":367:375  _bytes32 */\n      dup5\n        /* \"parser.sol\":376:377  j */\n      dup2\n        /* \"parser.sol\":367:378  _bytes32[j] */\n      0xff\n      and\n      0x20\n      dup2\n      lt\n      tag_26\n      jumpi\n      tag_27\n      tag_16\n      jump\t// in\n    tag_27:\n    tag_26:\n      byte\n      0xf8\n      shl\n        /* \"parser.sol\":351:361  bytesArray */\n      dup3\n        /* \"parser.sol\":362:363  j */\n      dup3\n        /* \"parser.sol\":351:364  bytesArray[j] */\n      0xff\n      and\n      dup2\n      mload\n      dup2\n      lt\n      tag_28\n      jumpi\n      tag_29\n      tag_16\n      jump\t// in\n    tag_29:\n    tag_28:\n      0x20\n      add\n      add\n        /* \"parser.sol\":351:378  bytesArray[j] = _bytes32[j] */\n      swap1\n      not(0xffffffffffffffffffffffffffffffffffffffffffffffffffffffffffffff)\n      and\n      swap1\n      dup2\n      0x00\n      byte\n      swap1\n      mstore8\n      pop\n        /* \"parser.sol\":332:335  j++ */\n      dup1\n      dup1\n      tag_30\n      swap1\n      tag_18\n      jump\t// in\n    tag_30:\n      swap2\n      pop\n      pop\n        /* \"parser.sol\":307:389  for (uint8 j = 0; j < i; j++) {... */\n      jump(tag_23)\n    tag_24:\n      pop\n        /* \"parser.sol\":412:422  bytesArray */\n      dup1\n        /* \"parser.sol\":398:423  return string(bytesArray) */\n      swap3\n      pop\n      pop\n      pop\n        /* \"parser.sol\":78:430  function bytes32ToString(bytes32 _bytes32) public pure returns (string memory) {... */\n      swap2\n      swap1\n      pop\n      jump\t// out\n        /* \"#utility.yul\":88:205   */\n    tag_32:\n        /* \"#utility.yul\":197:198   */\n      0x00\n        /* \"#utility.yul\":194:195   */\n      dup1\n        /* \"#utility.yul\":187:199   */\n      revert\n        /* \"#utility.yul\":334:411   */\n    tag_34:\n        /* \"#utility.yul\":371:378   */\n      0x00\n        /* \"#utility.yul\":400:405   */\n      dup2\n        /* \"#utility.yul\":389:405   */\n      swap1\n      pop\n        /* \"#utility.yul\":334:411   */\n      swap2\n      swap1\n      pop\n      jump\t// out\n        /* \"#utility.yul\":417:539   */\n    tag_35:\n        /* \"#utility.yul\":490:514   */\n      tag_50\n        /* \"#utility.yul\":508:513   */\n      dup2\n        /* \"#utility.yul\":490:514   */\n      tag_34\n      jump\t// in\n    tag_50:\n        /* \"#utility.yul\":483:488   */\n      dup2\n        /* \"#utility.yul\":480:515   */\n      eq\n        /* \"#utility.yul\":470:533   */\n      tag_51\n      jumpi\n        /* \"#utility.yul\":529:530   */\n      0x00\n        /* \"#utility.yul\":526:527   */\n      dup1\n        /* \"#utility.yul\":519:531   */\n      revert\n        /* \"#utility.yul\":470:533   */\n    tag_51:\n        /* \"#utility.yul\":417:539   */\n      pop\n      jump\t// out\n        /* \"#utility.yul\":545:684   */\n    tag_36:\n        /* \"#utility.yul\":591:596   */\n      0x00\n        /* \"#utility.yul\":629:635   */\n      dup2\n        /* \"#utility.yul\":616:636   */\n      calldataload\n        /* \"#utility.yul\":607:636   */\n      swap1\n      pop\n        /* \"#utility.yul\":645:678   */\n      tag_53\n        /* \"#utility.yul\":672:677   */\n      dup2\n        /* \"#utility.yul\":645:678   */\n      tag_35\n      jump\t// in\n    tag_53:\n        /* \"#utility.yul\":545:684   */\n      swap3\n      swap2\n      pop\n      pop\n      jump\t// out\n        /* \"#utility.yul\":690:1019   */\n    tag_6:\n        /* \"#utility.yul\":749:755   */\n      0x00\n        /* \"#utility.yul\":798:800   */\n      0x20\n        /* \"#utility.yul\":786:795   */\n      dup3\n        /* \"#utility.yul\":777:784   */\n      dup5\n        /* \"#utility.yul\":773:796   */\n      sub\n        /* \"#utility.yul\":769:801   */\n      slt\n        /* \"#utility.yul\":766:885   */\n      iszero\n      tag_55\n      jumpi\n        /* \"#utility.yul\":804:883   */\n      tag_56\n      tag_32\n      jump\t// in\n    tag_56:\n        /* \"#utility.yul\":766:885   */\n    tag_55:\n        /* \"#utility.yul\":924:925   */\n      0x00\n        /* \"#utility.yul\":949:1002   */\n      tag_57\n        /* \"#utility.yul\":994:1001   */\n      dup5\n        /* \"#utility.yul\":985:991   */\n      dup3\n        /* \"#utility.yul\":974:983   */\n      dup6\n        /* \"#utility.yul\":970:992   */\n      add\n        /* \"#utility.yul\":949:1002   */\n      tag_36\n      jump\t// in\n    tag_57:\n        /* \"#utility.yul\":939:1002   */\n      swap2\n      pop\n        /* \"#utility.yul\":895:1012   */\n      pop\n        /* \"#utility.yul\":690:1019   */\n      swap3\n      swap2\n      pop\n      pop\n      jump\t// out\n        /* \"#utility.yul\":1025:1124   */\n    tag_37:\n        /* \"#utility.yul\":1077:1083   */\n      0x00\n        /* \"#utility.yul\":1111:1116   */\n      dup2\n        /* \"#utility.yul\":1105:1117   */\n      mload\n        /* \"#utility.yul\":1095:1117   */\n      swap1\n      pop\n        /* \"#utility.yul\":1025:1124   */\n      swap2\n      swap1\n      pop\n      jump\t// out\n        /* \"#utility.yul\":1130:1299   */\n    tag_38:\n        /* \"#utility.yul\":1214:1225   */\n      0x00\n        /* \"#utility.yul\":1248:1254   */\n      dup3\n        /* \"#utility.yul\":1243:1246   */\n      dup3\n        /* \"#utility.yul\":1236:1255   */\n      mstore\n        /* \"#utility.yul\":1288:1292   */\n      0x20\n        /* \"#utility.yul\":1283:1286   */\n      dup3\n        /* \"#utility.yul\":1279:1293   */\n      add\n        /* \"#utility.yul\":1264:1293   */\n      swap1\n      pop\n        /* \"#utility.yul\":1130:1299   */\n      swap3\n      swap2\n      pop\n      pop\n      jump\t// out\n        /* \"#utility.yul\":1305:1551   */\n    tag_39:\n        /* \"#utility.yul\":1386:1387   */\n      0x00\n        /* \"#utility.yul\":1396:1509   */\n    tag_61:\n        /* \"#utility.yul\":1410:1416   */\n      dup4\n        /* \"#utility.yul\":1407:1408   */\n      dup2\n        /* \"#utility.yul\":1404:1417   */\n      lt\n        /* \"#utility.yul\":1396:1509   */\n      iszero\n      tag_63\n      jumpi\n        /* \"#utility.yul\":1495:1496   */\n      dup1\n        /* \"#utility.yul\":1490:1493   */\n      dup3\n        /* \"#utility.yul\":1486:1497   */\n      add\n        /* \"#utility.yul\":1480:1498   */\n      mload\n        /* \"#utility.yul\":1476:1477   */\n      dup2\n        /* \"#utility.yul\":1471:1474   */\n      dup5\n        /* \"#utility.yul\":1467:1478   */\n      add\n        /* \"#utility.yul\":1460:1499   */\n      mstore\n        /* \"#utility.yul\":1432:1434   */\n      0x20\n        /* \"#utility.yul\":1429:1430   */\n      dup2\n        /* \"#utility.yul\":1425:1435   */\n      add\n        /* \"#utility.yul\":1420:1435   */\n      swap1\n      pop\n        /* \"#utility.yul\":1396:1509   */\n      jump(tag_61)\n    tag_63:\n        /* \"#utility.yul\":1543:1544   */\n      0x00\n        /* \"#utility.yul\":1534:1540   */\n      dup5\n        /* \"#utility.yul\":1529:1532   */\n      dup5\n        /* \"#utility.yul\":1525:1541   */\n      add\n        /* \"#utility.yul\":1518:1545   */\n      mstore\n        /* \"#utility.yul\":1367:1551   */\n      pop\n        /* \"#utility.yul\":1305:1551   */\n      pop\n      pop\n      pop\n      jump\t// out\n        /* \"#utility.yul\":1557:1659   */\n    tag_40:\n        /* \"#utility.yul\":1598:1604   */\n      0x00\n        /* \"#utility.yul\":1649:1651   */\n      0x1f\n        /* \"#utility.yul\":1645:1652   */\n      not\n        /* \"#utility.yul\":1640:1642   */\n      0x1f\n        /* \"#utility.yul\":1633:1638   */\n      dup4\n        /* \"#utility.yul\":1629:1643   */\n      add\n        /* \"#utility.yul\":1625:1653   */\n      and\n        /* \"#utility.yul\":1615:1653   */\n      swap1\n      pop\n        /* \"#utility.yul\":1557:1659   */\n      swap2\n      swap1\n      pop\n      jump\t// out\n        /* \"#utility.yul\":1665:2042   */\n    tag_41:\n        /* \"#utility.yul\":1753:1756   */\n      0x00\n        /* \"#utility.yul\":1781:1820   */\n      tag_66\n        /* \"#utility.yul\":1814:1819   */\n      dup3\n        /* \"#utility.yul\":1781:1820   */\n      tag_37\n      jump\t// in\n    tag_66:\n        /* \"#utility.yul\":1836:1907   */\n      tag_67\n        /* \"#utility.yul\":1900:1906   */\n      dup2\n        /* \"#utility.yul\":1895:1898   */\n      dup6\n        /* \"#utility.yul\":1836:1907   */\n      tag_38\n      jump\t// in\n    tag_67:\n        /* \"#utility.yul\":1829:1907   */\n      swap4\n      pop\n        /* \"#utility.yul\":1916:1981   */\n      tag_68\n        /* \"#utility.yul\":1974:1980   */\n      dup2\n        /* \"#utility.yul\":1969:1972   */\n      dup6\n        /* \"#utility.yul\":1962:1966   */\n      0x20\n        /* \"#utility.yul\":1955:1960   */\n      dup7\n        /* \"#utility.yul\":1951:1967   */\n      add\n        /* \"#utility.yul\":1916:1981   */\n      tag_39\n      jump\t// in\n    tag_68:\n        /* \"#utility.yul\":2006:2035   */\n      tag_69\n        /* \"#utility.yul\":2028:2034   */\n      dup2\n        /* \"#utility.yul\":2006:2035   */\n      tag_40\n      jump\t// in\n    tag_69:\n        /* \"#utility.yul\":2001:2004   */\n      dup5\n        /* \"#utility.yul\":1997:2036   */\n      add\n        /* \"#utility.yul\":1990:2036   */\n      swap2\n      pop\n        /* \"#utility.yul\":1757:2042   */\n      pop\n        /* \"#utility.yul\":1665:2042   */\n      swap3\n      swap2\n      pop\n      pop\n      jump\t// out\n        /* \"#utility.yul\":2048:2361   */\n    tag_9:\n        /* \"#utility.yul\":2161:2165   */\n      0x00\n        /* \"#utility.yul\":2199:2201   */\n      0x20\n        /* \"#utility.yul\":2188:2197   */\n      dup3\n        /* \"#utility.yul\":2184:2202   */\n      add\n        /* \"#utility.yul\":2176:2202   */\n      swap1\n      pop\n        /* \"#utility.yul\":2248:2257   */\n      dup2\n        /* \"#utility.yul\":2242:2246   */\n      dup2\n        /* \"#utility.yul\":2238:2258   */\n      sub\n        /* \"#utility.yul\":2234:2235   */\n      0x00\n        /* \"#utility.yul\":2223:2232   */\n      dup4\n        /* \"#utility.yul\":2219:2236   */\n      add\n        /* \"#utility.yul\":2212:2259   */\n      mstore\n        /* \"#utility.yul\":2276:2354   */\n      tag_71\n        /* \"#utility.yul\":2349:2353   */\n      dup2\n        /* \"#utility.yul\":2340:2346   */\n      dup5\n        /* \"#utility.yul\":2276:2354   */\n      tag_41\n      jump\t// in\n    tag_71:\n        /* \"#utility.yul\":2268:2354   */\n      swap1\n      pop\n        /* \"#utility.yul\":2048:2361   */\n      swap3\n      swap2\n      pop\n      pop\n      jump\t// out\n        /* \"#utility.yul\":2367:2547   */\n    tag_16:\n        /* \"#utility.yul\":2415:2492   */\n      0x4e487b7100000000000000000000000000000000000000000000000000000000\n        /* \"#utility.yul\":2412:2413   */\n      0x00\n        /* \"#utility.yul\":2405:2493   */\n      mstore\n        /* \"#utility.yul\":2512:2516   */\n      0x32\n        /* \"#utility.yul\":2509:2510   */\n      0x04\n        /* \"#utility.yul\":2502:2517   */\n      mstore\n        /* \"#utility.yul\":2536:2540   */\n      0x24\n        /* \"#utility.yul\":2533:2534   */\n      0x00\n        /* \"#utility.yul\":2526:2541   */\n      revert\n        /* \"#utility.yul\":2553:2733   */\n    tag_42:\n        /* \"#utility.yul\":2601:2678   */\n      0x4e487b7100000000000000000000000000000000000000000000000000000000\n        /* \"#utility.yul\":2598:2599   */\n      0x00\n        /* \"#utility.yul\":2591:2679   */\n      mstore\n        /* \"#utility.yul\":2698:2702   */\n      0x11\n        /* \"#utility.yul\":2695:2696   */\n      0x04\n        /* \"#utility.yul\":2688:2703   */\n      mstore\n        /* \"#utility.yul\":2722:2726   */\n      0x24\n        /* \"#utility.yul\":2719:2720   */\n      0x00\n        /* \"#utility.yul\":2712:2727   */\n      revert\n        /* \"#utility.yul\":2739:2825   */\n    tag_43:\n        /* \"#utility.yul\":2774:2781   */\n      0x00\n        /* \"#utility.yul\":2814:2818   */\n      0xff\n        /* \"#utility.yul\":2807:2812   */\n      dup3\n        /* \"#utility.yul\":2803:2819   */\n      and\n        /* \"#utility.yul\":2792:2819   */\n      swap1\n      pop\n        /* \"#utility.yul\":2739:2825   */\n      swap2\n      swap1\n      pop\n      jump\t// out\n        /* \"#utility.yul\":2831:2998   */\n    tag_18:\n        /* \"#utility.yul\":2868:2871   */\n      0x00\n        /* \"#utility.yul\":2891:2913   */\n      tag_76\n        /* \"#utility.yul\":2907:2912   */\n      dup3\n        /* \"#utility.yul\":2891:2913   */\n      tag_43\n      jump\t// in\n    tag_76:\n        /* \"#utility.yul\":2882:2913   */\n      swap2\n      pop\n        /* \"#utility.yul\":2935:2939   */\n      0xff\n        /* \"#utility.yul\":2928:2933   */\n      dup3\n        /* \"#utility.yul\":2925:2940   */\n      sub\n        /* \"#utility.yul\":2922:2963   */\n      tag_77\n      jumpi\n        /* \"#utility.yul\":2943:2961   */\n      tag_78\n      tag_42\n      jump\t// in\n    tag_78:\n        /* \"#utility.yul\":2922:2963   */\n    tag_77:\n        /* \"#utility.yul\":2990:2991   */\n      0x01\n        /* \"#utility.yul\":2983:2988   */\n      dup3\n        /* \"#utility.yul\":2979:2992   */\n      add\n        /* \"#utility.yul\":2972:2992   */\n      swap1\n      pop\n        /* \"#utility.yul\":2831:2998   */\n      swap2\n      swap1\n      pop\n      jump\t// out\n        /* \"#utility.yul\":3004:3184   */\n    tag_21:\n        /* \"#utility.yul\":3052:3129   */\n      0x4e487b7100000000000000000000000000000000000000000000000000000000\n        /* \"#utility.yul\":3049:3050   */\n      0x00\n        /* \"#utility.yul\":3042:3130   */\n      mstore\n        /* \"#utility.yul\":3149:3153   */\n      0x41\n        /* \"#utility.yul\":3146:3147   */\n      0x04\n        /* \"#utility.yul\":3139:3154   */\n      mstore\n        /* \"#utility.yul\":3173:3177   */\n      0x24\n        /* \"#utility.yul\":3170:3171   */\n      0x00\n        /* \"#utility.yul\":3163:3178   */\n      revert\n\n    auxdata: 0xa26469706673582212203409de2d2ef2a0f740a86029ce01248bdcfb7c1b1504f2e3f79bd86d66c31ba764736f6c63430008120033\n}\n",
				"bytecode": {
					"linkReferences": {},
					"object": "608060405234801561001057600080fd5b506103c4806100206000396000f3fe608060405234801561001057600080fd5b506004361061002b5760003560e01c80639201de5514610030575b600080fd5b61004a600480360381019061004591906101ec565b610060565b60405161005791906102a9565b60405180910390f35b606060005b60208160ff161080156100b75750600060f81b838260ff166020811061008e5761008d6102cb565b5b1a60f81b7effffffffffffffffffffffffffffffffffffffffffffffffffffffffffffff191614155b156100cf5780806100c790610336565b915050610065565b60008160ff1667ffffffffffffffff8111156100ee576100ed61035f565b5b6040519080825280601f01601f1916602001820160405280156101205781602001600182028036833780820191505090505b50905060005b8260ff168160ff1610156101a657848160ff166020811061014a576101496102cb565b5b1a60f81b828260ff1681518110610164576101636102cb565b5b60200101907effffffffffffffffffffffffffffffffffffffffffffffffffffffffffffff1916908160001a905350808061019e90610336565b915050610126565b508092505050919050565b600080fd5b6000819050919050565b6101c9816101b6565b81146101d457600080fd5b50565b6000813590506101e6816101c0565b92915050565b600060208284031215610202576102016101b1565b5b6000610210848285016101d7565b91505092915050565b600081519050919050565b600082825260208201905092915050565b60005b83811015610253578082015181840152602081019050610238565b60008484015250505050565b6000601f19601f8301169050919050565b600061027b82610219565b6102858185610224565b9350610295818560208601610235565b61029e8161025f565b840191505092915050565b600060208201905081810360008301526102c38184610270565b905092915050565b7f4e487b7100000000000000000000000000000000000000000000000000000000600052603260045260246000fd5b7f4e487b7100000000000000000000000000000000000000000000000000000000600052601160045260246000fd5b600060ff82169050919050565b600061034182610329565b915060ff8203610354576103536102fa565b5b600182019050919050565b7f4e487b7100000000000000000000000000000000000000000000000000000000600052604160045260246000fdfea26469706673582212203409de2d2ef2a0f740a86029ce01248bdcfb7c1b1504f2e3f79bd86d66c31ba764736f6c63430008120033",
					"opcodes": "PUSH1 0x80 PUSH1 0x40 MSTORE CALLVALUE DUP1 ISZERO PUSH2 0x10 JUMPI PUSH1 0x0 DUP1 REVERT JUMPDEST POP PUSH2 0x3C4 DUP1 PUSH2 0x20 PUSH1 0x0 CODECOPY PUSH1 0x0 RETURN INVALID PUSH1 0x80 PUSH1 0x40 MSTORE CALLVALUE DUP1 ISZERO PUSH2 0x10 JUMPI PUSH1 0x0 DUP1 REVERT JUMPDEST POP PUSH1 0x4 CALLDATASIZE LT PUSH2 0x2B JUMPI PUSH1 0x0 CALLDATALOAD PUSH1 0xE0 SHR DUP1 PUSH4 0x9201DE55 EQ PUSH2 0x30 JUMPI JUMPDEST PUSH1 0x0 DUP1 REVERT JUMPDEST PUSH2 0x4A PUSH1 0x4 DUP1 CALLDATASIZE SUB DUP2 ADD SWAP1 PUSH2 0x45 SWAP2 SWAP1 PUSH2 0x1EC JUMP JUMPDEST PUSH2 0x60 JUMP JUMPDEST PUSH1 0x40 MLOAD PUSH2 0x57 SWAP2 SWAP1 PUSH2 0x2A9 JUMP JUMPDEST PUSH1 0x40 MLOAD DUP1 SWAP2 SUB SWAP1 RETURN JUMPDEST PUSH1 0x60 PUSH1 0x0 JUMPDEST PUSH1 0x20 DUP2 PUSH1 0xFF AND LT DUP1 ISZERO PUSH2 0xB7 JUMPI POP PUSH1 0x0 PUSH1 0xF8 SHL DUP4 DUP3 PUSH1 0xFF AND PUSH1 0x20 DUP2 LT PUSH2 0x8E JUMPI PUSH2 0x8D PUSH2 0x2CB JUMP JUMPDEST JUMPDEST BYTE PUSH1 0xF8 SHL PUSH31 0xFFFFFFFFFFFFFFFFFFFFFFFFFFFFFFFFFFFFFFFFFFFFFFFFFFFFFFFFFFFFFF NOT AND EQ ISZERO JUMPDEST ISZERO PUSH2 0xCF JUMPI DUP1 DUP1 PUSH2 0xC7 SWAP1 PUSH2 0x336 JUMP JUMPDEST SWAP2 POP POP PUSH2 0x65 JUMP JUMPDEST PUSH1 0x0 DUP2 PUSH1 0xFF AND PUSH8 0xFFFFFFFFFFFFFFFF DUP2 GT ISZERO PUSH2 0xEE JUMPI PUSH2 0xED PUSH2 0x35F JUMP JUMPDEST JUMPDEST PUSH1 0x40 MLOAD SWAP1 DUP1 DUP3 MSTORE DUP1 PUSH1 0x1F ADD PUSH1 0x1F NOT AND PUSH1 0x20 ADD DUP3 ADD PUSH1 0x40 MSTORE DUP1 ISZERO PUSH2 0x120 JUMPI DUP2 PUSH1 0x20 ADD PUSH1 0x1 DUP3 MUL DUP1 CALLDATASIZE DUP4 CALLDATACOPY DUP1 DUP3 ADD SWAP2 POP POP SWAP1 POP JUMPDEST POP SWAP1 POP PUSH1 0x0 JUMPDEST DUP3 PUSH1 0xFF AND DUP2 PUSH1 0xFF AND LT ISZERO PUSH2 0x1A6 JUMPI DUP5 DUP2 PUSH1 0xFF AND PUSH1 0x20 DUP2 LT PUSH2 0x14A JUMPI PUSH2 0x149 PUSH2 0x2CB JUMP JUMPDEST JUMPDEST BYTE PUSH1 0xF8 SHL DUP3 DUP3 PUSH1 0xFF AND DUP2 MLOAD DUP2 LT PUSH2 0x164 JUMPI PUSH2 0x163 PUSH2 0x2CB JUMP JUMPDEST JUMPDEST PUSH1 0x20 ADD ADD SWAP1 PUSH31 0xFFFFFFFFFFFFFFFFFFFFFFFFFFFFFFFFFFFFFFFFFFFFFFFFFFFFFFFFFFFFFF NOT AND SWAP1 DUP2 PUSH1 0x0 BYTE SWAP1 MSTORE8 POP DUP1 DUP1 PUSH2 0x19E SWAP1 PUSH2 0x336 JUMP JUMPDEST SWAP2 POP POP PUSH2 0x126 JUMP JUMPDEST POP DUP1 SWAP3 POP POP POP SWAP2 SWAP1 POP JUMP JUMPDEST PUSH1 0x0 DUP1 REVERT JUMPDEST PUSH1 0x0 DUP2 SWAP1 POP SWAP2 SWAP1 POP JUMP JUMPDEST PUSH2 0x1C9 DUP2 PUSH2 0x1B6 JUMP JUMPDEST DUP2 EQ PUSH2 0x1D4 JUMPI PUSH1 0x0 DUP1 REVERT JUMPDEST POP JUMP JUMPDEST PUSH1 0x0 DUP2 CALLDATALOAD SWAP1 POP PUSH2 0x1E6 DUP2 PUSH2 0x1C0 JUMP JUMPDEST SWAP3 SWAP2 POP POP JUMP JUMPDEST PUSH1 0x0 PUSH1 0x20 DUP3 DUP5 SUB SLT ISZERO PUSH2 0x202 JUMPI PUSH2 0x201 PUSH2 0x1B1 JUMP JUMPDEST JUMPDEST PUSH1 0x0 PUSH2 0x210 DUP5 DUP3 DUP6 ADD PUSH2 0x1D7 JUMP JUMPDEST SWAP2 POP POP SWAP3 SWAP2 POP POP JUMP JUMPDEST PUSH1 0x0 DUP2 MLOAD SWAP1 POP SWAP2 SWAP1 POP JUMP JUMPDEST PUSH1 0x0 DUP3 DUP3 MSTORE PUSH1 0x20 DUP3 ADD SWAP1 POP SWAP3 SWAP2 POP POP JUMP JUMPDEST PUSH1 0x0 JUMPDEST DUP4 DUP2 LT ISZERO PUSH2 0x253 JUMPI DUP1 DUP3 ADD MLOAD DUP2 DUP5 ADD MSTORE PUSH1 0x20 DUP2 ADD SWAP1 POP PUSH2 0x238 JUMP JUMPDEST PUSH1 0x0 DUP5 DUP5 ADD MSTORE POP POP POP POP JUMP JUMPDEST PUSH1 0x0 PUSH1 0x1F NOT PUSH1 0x1F DUP4 ADD AND SWAP1 POP SWAP2 SWAP1 POP JUMP JUMPDEST PUSH1 0x0 PUSH2 0x27B DUP3 PUSH2 0x219 JUMP JUMPDEST PUSH2 0x285 DUP2 DUP6 PUSH2 0x224 JUMP JUMPDEST SWAP4 POP PUSH2 0x295 DUP2 DUP6 PUSH1 0x20 DUP7 ADD PUSH2 0x235 JUMP JUMPDEST PUSH2 0x29E DUP2 PUSH2 0x25F JUMP JUMPDEST DUP5 ADD SWAP2 POP POP SWAP3 SWAP2 POP POP JUMP JUMPDEST PUSH1 0x0 PUSH1 0x20 DUP3 ADD SWAP1 POP DUP2 DUP2 SUB PUSH1 0x0 DUP4 ADD MSTORE PUSH2 0x2C3 DUP2 DUP5 PUSH2 0x270 JUMP JUMPDEST SWAP1 POP SWAP3 SWAP2 POP POP JUMP JUMPDEST PUSH32 0x4E487B7100000000000000000000000000000000000000000000000000000000 PUSH1 0x0 MSTORE PUSH1 0x32 PUSH1 0x4 MSTORE PUSH1 0x24 PUSH1 0x0 REVERT JUMPDEST PUSH32 0x4E487B7100000000000000000000000000000000000000000000000000000000 PUSH1 0x0 MSTORE PUSH1 0x11 PUSH1 0x4 MSTORE PUSH1 0x24 PUSH1 0x0 REVERT JUMPDEST PUSH1 0x0 PUSH1 0xFF DUP3 AND SWAP1 POP SWAP2 SWAP1 POP JUMP JUMPDEST PUSH1 0x0 PUSH2 0x341 DUP3 PUSH2 0x329 JUMP JUMPDEST SWAP2 POP PUSH1 0xFF DUP3 SUB PUSH2 0x354 JUMPI PUSH2 0x353 PUSH2 0x2FA JUMP JUMPDEST JUMPDEST PUSH1 0x1 DUP3 ADD SWAP1 POP SWAP2 SWAP1 POP JUMP JUMPDEST PUSH32 0x4E487B7100000000000000000000000000000000000000000000000000000000 PUSH1 0x0 MSTORE PUSH1 0x41 PUSH1 0x4 MSTORE PUSH1 0x24 PUSH1 0x0 REVERT INVALID LOG2 PUSH5 0x6970667358 0x22 SLT KECCAK256 CALLVALUE MULMOD 0xDE 0x2D 0x2E CALLCODE LOG0 0xF7 BLOCKHASH 0xA8 PUSH1 0x29 0xCE ADD 0x24 DUP12 0xDC 0xFB PUSH29 0x1B1504F2E3F79BD86D66C31BA764736F6C634300081200330000000000 "
				},
				"gasEstimates": {
					"creation": {
						"codeDepositCost": "192800",
						"executionCost": "238",
						"totalCost": "193038"
					},
					"external": {
						"bytes32ToString(bytes32)": "infinite"
					},
					"internal": {
						"stringToBytes32(string memory)": "infinite"
					}
				},
				"methodIdentifiers": {
					"bytes32ToString(bytes32)": "9201de55"
				}
			},
			"storageLayout": {
				"storage": [],
				"types": null
			},
			"userdoc": {
				"kind": "user",
				"methods": {},
				"version": 1
			}
		}
	}
}