{
	"reports.sol": {
		"Reports": {
			"abi": [
				{
					"inputs": [
						{
							"internalType": "string",
							"name": "reportID",
							"type": "string"
						},
						{
							"internalType": "string",
							"name": "reportType",
							"type": "string"
						},
						{
							"internalType": "string",
							"name": "reportColumn",
							"type": "string"
						},
						{
							"internalType": "uint256",
							"name": "value",
							"type": "uint256"
						}
					],
					"name": "addValue",
					"outputs": [],
					"stateMutability": "nonpayable",
					"type": "function"
				},
				{
					"inputs": [
						{
							"internalType": "string",
							"name": "",
							"type": "string"
						},
						{
							"internalType": "string",
							"name": "",
							"type": "string"
						},
						{
							"internalType": "string",
							"name": "",
							"type": "string"
						}
					],
					"name": "data",
					"outputs": [
						{
							"internalType": "uint256",
							"name": "",
							"type": "uint256"
						}
					],
					"stateMutability": "view",
					"type": "function"
				},
				{
					"inputs": [
						{
							"internalType": "string",
							"name": "reportID",
							"type": "string"
						},
						{
							"internalType": "string",
							"name": "reportType",
							"type": "string"
						},
						{
							"internalType": "string",
							"name": "reportColumn",
							"type": "string"
						}
					],
					"name": "getValue",
					"outputs": [
						{
							"internalType": "uint256",
							"name": "",
							"type": "uint256"
						}
					],
					"stateMutability": "view",
					"type": "function"
				}
			],
			"devdoc": {
				"kind": "dev",
				"methods": {},
				"version": 1
			},
			"evm": {
				"assembly": "    /* \"reports.sol\":57:545  contract Reports {... */\n  mstore(0x40, 0x80)\n  callvalue\n  dup1\n  iszero\n  tag_1\n  jumpi\n  0x00\n  dup1\n  revert\ntag_1:\n  pop\n  dataSize(sub_0)\n  dup1\n  dataOffset(sub_0)\n  0x00\n  codecopy\n  0x00\n  return\nstop\n\nsub_0: assembly {\n        /* \"reports.sol\":57:545  contract Reports {... */\n      mstore(0x40, 0x80)\n      callvalue\n      dup1\n      iszero\n      tag_1\n      jumpi\n      0x00\n      dup1\n      revert\n    tag_1:\n      pop\n      jumpi(tag_2, lt(calldatasize, 0x04))\n      shr(0xe0, calldataload(0x00))\n      dup1\n      0x0d23da12\n      eq\n      tag_3\n      jumpi\n      dup1\n      0xa81bfb33\n      eq\n      tag_4\n      jumpi\n      dup1\n      0xaba5f544\n      eq\n      tag_5\n      jumpi\n    tag_2:\n      0x00\n      dup1\n      revert\n        /* \"reports.sol\":163:347  function addValue(string memory reportID, string memory reportType, string memory reportColumn, uint256 value) public {... */\n    tag_3:\n      tag_6\n      0x04\n      dup1\n      calldatasize\n      sub\n      dup2\n      add\n      swap1\n      tag_7\n      swap2\n      swap1\n      tag_8\n      jump\t// in\n    tag_7:\n      tag_9\n      jump\t// in\n    tag_6:\n      stop\n        /* \"reports.sol\":80:156  mapping(string => mapping(string => mapping(string => uint256))) public data */\n    tag_4:\n      tag_10\n      0x04\n      dup1\n      calldatasize\n      sub\n      dup2\n      add\n      swap1\n      tag_11\n      swap2\n      swap1\n      tag_12\n      jump\t// in\n    tag_11:\n      tag_13\n      jump\t// in\n    tag_10:\n      mload(0x40)\n      tag_14\n      swap2\n      swap1\n      tag_15\n      jump\t// in\n    tag_14:\n      mload(0x40)\n      dup1\n      swap2\n      sub\n      swap1\n      return\n        /* \"reports.sol\":353:543  function getValue(string memory reportID, string memory reportType, string memory reportColumn) public view returns (uint256) {... */\n    tag_5:\n      tag_16\n      0x04\n      dup1\n      calldatasize\n      sub\n      dup2\n      add\n      swap1\n      tag_17\n      swap2\n      swap1\n      tag_12\n      jump\t// in\n    tag_17:\n      tag_18\n      jump\t// in\n    tag_16:\n      mload(0x40)\n      tag_19\n      swap2\n      swap1\n      tag_15\n      jump\t// in\n    tag_19:\n      mload(0x40)\n      dup1\n      swap2\n      sub\n      swap1\n      return\n        /* \"reports.sol\":163:347  function addValue(string memory reportID, string memory reportType, string memory reportColumn, uint256 value) public {... */\n    tag_9:\n        /* \"reports.sol\":335:340  value */\n      dup1\n        /* \"reports.sol\":291:295  data */\n      0x00\n        /* \"reports.sol\":296:304  reportID */\n      dup6\n        /* \"reports.sol\":291:305  data[reportID] */\n      mload(0x40)\n      tag_21\n      swap2\n      swap1\n      tag_22\n      jump\t// in\n    tag_21:\n      swap1\n      dup2\n      mstore\n      0x20\n      add\n      mload(0x40)\n      dup1\n      swap2\n      sub\n      swap1\n      keccak256\n        /* \"reports.sol\":306:316  reportType */\n      dup5\n        /* \"reports.sol\":291:317  data[reportID][reportType] */\n      mload(0x40)\n      tag_23\n      swap2\n      swap1\n      tag_22\n      jump\t// in\n    tag_23:\n      swap1\n      dup2\n      mstore\n      0x20\n      add\n      mload(0x40)\n      dup1\n      swap2\n      sub\n      swap1\n      keccak256\n        /* \"reports.sol\":318:330  reportColumn */\n      dup4\n        /* \"reports.sol\":291:331  data[reportID][reportType][reportColumn] */\n      mload(0x40)\n      tag_24\n      swap2\n      swap1\n      tag_22\n      jump\t// in\n    tag_24:\n      swap1\n      dup2\n      mstore\n      0x20\n      add\n      mload(0x40)\n      dup1\n      swap2\n      sub\n      swap1\n      keccak256\n      0x00\n        /* \"reports.sol\":291:340  data[reportID][reportType][reportColumn] += value */\n      dup3\n      dup3\n      sload\n      tag_25\n      swap2\n      swap1\n      tag_26\n      jump\t// in\n    tag_25:\n      swap3\n      pop\n      pop\n      dup2\n      swap1\n      sstore\n      pop\n        /* \"reports.sol\":163:347  function addValue(string memory reportID, string memory reportType, string memory reportColumn, uint256 value) public {... */\n      pop\n      pop\n      pop\n      pop\n      jump\t// out\n        /* \"reports.sol\":80:156  mapping(string => mapping(string => mapping(string => uint256))) public data */\n    tag_13:\n      0x00\n      dup4\n      dup1\n      mload\n      0x20\n      dup2\n      add\n      dup3\n      add\n      dup1\n      mload\n      dup5\n      dup3\n      mstore\n      0x20\n      dup4\n      add\n      0x20\n      dup6\n      add\n      keccak256\n      dup2\n      dup4\n      mstore\n      dup1\n      swap6\n      pop\n      pop\n      pop\n      pop\n      pop\n      pop\n      dup3\n      dup1\n      mload\n      0x20\n      dup2\n      add\n      dup3\n      add\n      dup1\n      mload\n      dup5\n      dup3\n      mstore\n      0x20\n      dup4\n      add\n      0x20\n      dup6\n      add\n      keccak256\n      dup2\n      dup4\n      mstore\n      dup1\n      swap6\n      pop\n      pop\n      pop\n      pop\n      pop\n      pop\n      dup2\n      dup1\n      mload\n      0x20\n      dup2\n      add\n      dup3\n      add\n      dup1\n      mload\n      dup5\n      dup3\n      mstore\n      0x20\n      dup4\n      add\n      0x20\n      dup6\n      add\n      keccak256\n      dup2\n      dup4\n      mstore\n      dup1\n      swap6\n      pop\n      pop\n      pop\n      pop\n      pop\n      pop\n      0x00\n      swap3\n      pop\n      swap3\n      pop\n      pop\n      pop\n      sload\n      dup2\n      jump\t// out\n        /* \"reports.sol\":353:543  function getValue(string memory reportID, string memory reportType, string memory reportColumn) public view returns (uint256) {... */\n    tag_18:\n        /* \"reports.sol\":470:477  uint256 */\n      0x00\n        /* \"reports.sol\":496:500  data */\n      dup1\n        /* \"reports.sol\":501:509  reportID */\n      dup5\n        /* \"reports.sol\":496:510  data[reportID] */\n      mload(0x40)\n      tag_28\n      swap2\n      swap1\n      tag_22\n      jump\t// in\n    tag_28:\n      swap1\n      dup2\n      mstore\n      0x20\n      add\n      mload(0x40)\n      dup1\n      swap2\n      sub\n      swap1\n      keccak256\n        /* \"reports.sol\":511:521  reportType */\n      dup4\n        /* \"reports.sol\":496:522  data[reportID][reportType] */\n      mload(0x40)\n      tag_29\n      swap2\n      swap1\n      tag_22\n      jump\t// in\n    tag_29:\n      swap1\n      dup2\n      mstore\n      0x20\n      add\n      mload(0x40)\n      dup1\n      swap2\n      sub\n      swap1\n      keccak256\n        /* \"reports.sol\":523:535  reportColumn */\n      dup3\n        /* \"reports.sol\":496:536  data[reportID][reportType][reportColumn] */\n      mload(0x40)\n      tag_30\n      swap2\n      swap1\n      tag_22\n      jump\t// in\n    tag_30:\n      swap1\n      dup2\n      mstore\n      0x20\n      add\n      mload(0x40)\n      dup1\n      swap2\n      sub\n      swap1\n      keccak256\n      sload\n        /* \"reports.sol\":489:536  return data[reportID][reportType][reportColumn] */\n      swap1\n      pop\n        /* \"reports.sol\":353:543  function getValue(string memory reportID, string memory reportType, string memory reportColumn) public view returns (uint256) {... */\n      swap4\n      swap3\n      pop\n      pop\n      pop\n      jump\t// out\n        /* \"#utility.yul\":7:82   */\n    tag_31:\n        /* \"#utility.yul\":40:46   */\n      0x00\n        /* \"#utility.yul\":73:75   */\n      0x40\n        /* \"#utility.yul\":67:76   */\n      mload\n        /* \"#utility.yul\":57:76   */\n      swap1\n      pop\n        /* \"#utility.yul\":7:82   */\n      swap1\n      jump\t// out\n        /* \"#utility.yul\":88:205   */\n    tag_32:\n        /* \"#utility.yul\":197:198   */\n      0x00\n        /* \"#utility.yul\":194:195   */\n      dup1\n        /* \"#utility.yul\":187:199   */\n      revert\n        /* \"#utility.yul\":211:328   */\n    tag_33:\n        /* \"#utility.yul\":320:321   */\n      0x00\n        /* \"#utility.yul\":317:318   */\n      dup1\n        /* \"#utility.yul\":310:322   */\n      revert\n        /* \"#utility.yul\":334:451   */\n    tag_34:\n        /* \"#utility.yul\":443:444   */\n      0x00\n        /* \"#utility.yul\":440:441   */\n      dup1\n        /* \"#utility.yul\":433:445   */\n      revert\n        /* \"#utility.yul\":457:574   */\n    tag_35:\n        /* \"#utility.yul\":566:567   */\n      0x00\n        /* \"#utility.yul\":563:564   */\n      dup1\n        /* \"#utility.yul\":556:568   */\n      revert\n        /* \"#utility.yul\":580:682   */\n    tag_36:\n        /* \"#utility.yul\":621:627   */\n      0x00\n        /* \"#utility.yul\":672:674   */\n      0x1f\n        /* \"#utility.yul\":668:675   */\n      not\n        /* \"#utility.yul\":663:665   */\n      0x1f\n        /* \"#utility.yul\":656:661   */\n      dup4\n        /* \"#utility.yul\":652:666   */\n      add\n        /* \"#utility.yul\":648:676   */\n      and\n        /* \"#utility.yul\":638:676   */\n      swap1\n      pop\n        /* \"#utility.yul\":580:682   */\n      swap2\n      swap1\n      pop\n      jump\t// out\n        /* \"#utility.yul\":688:868   */\n    tag_37:\n        /* \"#utility.yul\":736:813   */\n      0x4e487b7100000000000000000000000000000000000000000000000000000000\n        /* \"#utility.yul\":733:734   */\n      0x00\n        /* \"#utility.yul\":726:814   */\n      mstore\n        /* \"#utility.yul\":833:837   */\n      0x41\n        /* \"#utility.yul\":830:831   */\n      0x04\n        /* \"#utility.yul\":823:838   */\n      mstore\n        /* \"#utility.yul\":857:861   */\n      0x24\n        /* \"#utility.yul\":854:855   */\n      0x00\n        /* \"#utility.yul\":847:862   */\n      revert\n        /* \"#utility.yul\":874:1155   */\n    tag_38:\n        /* \"#utility.yul\":957:984   */\n      tag_62\n        /* \"#utility.yul\":979:983   */\n      dup3\n        /* \"#utility.yul\":957:984   */\n      tag_36\n      jump\t// in\n    tag_62:\n        /* \"#utility.yul\":949:955   */\n      dup2\n        /* \"#utility.yul\":945:985   */\n      add\n        /* \"#utility.yul\":1087:1093   */\n      dup2\n        /* \"#utility.yul\":1075:1085   */\n      dup2\n        /* \"#utility.yul\":1072:1094   */\n      lt\n        /* \"#utility.yul\":1051:1069   */\n      0xffffffffffffffff\n        /* \"#utility.yul\":1039:1049   */\n      dup3\n        /* \"#utility.yul\":1036:1070   */\n      gt\n        /* \"#utility.yul\":1033:1095   */\n      or\n        /* \"#utility.yul\":1030:1118   */\n      iszero\n      tag_63\n      jumpi\n        /* \"#utility.yul\":1098:1116   */\n      tag_64\n      tag_37\n      jump\t// in\n    tag_64:\n        /* \"#utility.yul\":1030:1118   */\n    tag_63:\n        /* \"#utility.yul\":1138:1148   */\n      dup1\n        /* \"#utility.yul\":1134:1136   */\n      0x40\n        /* \"#utility.yul\":1127:1149   */\n      mstore\n        /* \"#utility.yul\":917:1155   */\n      pop\n        /* \"#utility.yul\":874:1155   */\n      pop\n      pop\n      jump\t// out\n        /* \"#utility.yul\":1161:1290   */\n    tag_39:\n        /* \"#utility.yul\":1195:1201   */\n      0x00\n        /* \"#utility.yul\":1222:1242   */\n      tag_66\n      tag_31\n      jump\t// in\n    tag_66:\n        /* \"#utility.yul\":1212:1242   */\n      swap1\n      pop\n        /* \"#utility.yul\":1251:1284   */\n      tag_67\n        /* \"#utility.yul\":1279:1283   */\n      dup3\n        /* \"#utility.yul\":1271:1277   */\n      dup3\n        /* \"#utility.yul\":1251:1284   */\n      tag_38\n      jump\t// in\n    tag_67:\n        /* \"#utility.yul\":1161:1290   */\n      swap2\n      swap1\n      pop\n      jump\t// out\n        /* \"#utility.yul\":1296:1604   */\n    tag_40:\n        /* \"#utility.yul\":1358:1362   */\n      0x00\n        /* \"#utility.yul\":1448:1466   */\n      0xffffffffffffffff\n        /* \"#utility.yul\":1440:1446   */\n      dup3\n        /* \"#utility.yul\":1437:1467   */\n      gt\n        /* \"#utility.yul\":1434:1490   */\n      iszero\n      tag_69\n      jumpi\n        /* \"#utility.yul\":1470:1488   */\n      tag_70\n      tag_37\n      jump\t// in\n    tag_70:\n        /* \"#utility.yul\":1434:1490   */\n    tag_69:\n        /* \"#utility.yul\":1508:1537   */\n      tag_71\n        /* \"#utility.yul\":1530:1536   */\n      dup3\n        /* \"#utility.yul\":1508:1537   */\n      tag_36\n      jump\t// in\n    tag_71:\n        /* \"#utility.yul\":1500:1537   */\n      swap1\n      pop\n        /* \"#utility.yul\":1592:1596   */\n      0x20\n        /* \"#utility.yul\":1586:1590   */\n      dup2\n        /* \"#utility.yul\":1582:1597   */\n      add\n        /* \"#utility.yul\":1574:1597   */\n      swap1\n      pop\n        /* \"#utility.yul\":1296:1604   */\n      swap2\n      swap1\n      pop\n      jump\t// out\n        /* \"#utility.yul\":1610:1756   */\n    tag_41:\n        /* \"#utility.yul\":1707:1713   */\n      dup3\n        /* \"#utility.yul\":1702:1705   */\n      dup2\n        /* \"#utility.yul\":1697:1700   */\n      dup4\n        /* \"#utility.yul\":1684:1714   */\n      calldatacopy\n        /* \"#utility.yul\":1748:1749   */\n      0x00\n        /* \"#utility.yul\":1739:1745   */\n      dup4\n        /* \"#utility.yul\":1734:1737   */\n      dup4\n        /* \"#utility.yul\":1730:1746   */\n      add\n        /* \"#utility.yul\":1723:1750   */\n      mstore\n        /* \"#utility.yul\":1610:1756   */\n      pop\n      pop\n      pop\n      jump\t// out\n        /* \"#utility.yul\":1762:2187   */\n    tag_42:\n        /* \"#utility.yul\":1840:1845   */\n      0x00\n        /* \"#utility.yul\":1865:1931   */\n      tag_74\n        /* \"#utility.yul\":1881:1930   */\n      tag_75\n        /* \"#utility.yul\":1923:1929   */\n      dup5\n        /* \"#utility.yul\":1881:1930   */\n      tag_40\n      jump\t// in\n    tag_75:\n        /* \"#utility.yul\":1865:1931   */\n      tag_39\n      jump\t// in\n    tag_74:\n        /* \"#utility.yul\":1856:1931   */\n      swap1\n      pop\n        /* \"#utility.yul\":1954:1960   */\n      dup3\n        /* \"#utility.yul\":1947:1952   */\n      dup2\n        /* \"#utility.yul\":1940:1961   */\n      mstore\n        /* \"#utility.yul\":1992:1996   */\n      0x20\n        /* \"#utility.yul\":1985:1990   */\n      dup2\n        /* \"#utility.yul\":1981:1997   */\n      add\n        /* \"#utility.yul\":2030:2033   */\n      dup5\n        /* \"#utility.yul\":2021:2027   */\n      dup5\n        /* \"#utility.yul\":2016:2019   */\n      dup5\n        /* \"#utility.yul\":2012:2028   */\n      add\n        /* \"#utility.yul\":2009:2034   */\n      gt\n        /* \"#utility.yul\":2006:2118   */\n      iszero\n      tag_76\n      jumpi\n        /* \"#utility.yul\":2037:2116   */\n      tag_77\n      tag_35\n      jump\t// in\n    tag_77:\n        /* \"#utility.yul\":2006:2118   */\n    tag_76:\n        /* \"#utility.yul\":2127:2181   */\n      tag_78\n        /* \"#utility.yul\":2174:2180   */\n      dup5\n        /* \"#utility.yul\":2169:2172   */\n      dup3\n        /* \"#utility.yul\":2164:2167   */\n      dup6\n        /* \"#utility.yul\":2127:2181   */\n      tag_41\n      jump\t// in\n    tag_78:\n        /* \"#utility.yul\":1846:2187   */\n      pop\n        /* \"#utility.yul\":1762:2187   */\n      swap4\n      swap3\n      pop\n      pop\n      pop\n      jump\t// out\n        /* \"#utility.yul\":2207:2547   */\n    tag_43:\n        /* \"#utility.yul\":2263:2268   */\n      0x00\n        /* \"#utility.yul\":2312:2315   */\n      dup3\n        /* \"#utility.yul\":2305:2309   */\n      0x1f\n        /* \"#utility.yul\":2297:2303   */\n      dup4\n        /* \"#utility.yul\":2293:2310   */\n      add\n        /* \"#utility.yul\":2289:2316   */\n      slt\n        /* \"#utility.yul\":2279:2401   */\n      tag_80\n      jumpi\n        /* \"#utility.yul\":2320:2399   */\n      tag_81\n      tag_34\n      jump\t// in\n    tag_81:\n        /* \"#utility.yul\":2279:2401   */\n    tag_80:\n        /* \"#utility.yul\":2437:2443   */\n      dup2\n        /* \"#utility.yul\":2424:2444   */\n      calldataload\n        /* \"#utility.yul\":2462:2541   */\n      tag_82\n        /* \"#utility.yul\":2537:2540   */\n      dup5\n        /* \"#utility.yul\":2529:2535   */\n      dup3\n        /* \"#utility.yul\":2522:2526   */\n      0x20\n        /* \"#utility.yul\":2514:2520   */\n      dup7\n        /* \"#utility.yul\":2510:2527   */\n      add\n        /* \"#utility.yul\":2462:2541   */\n      tag_42\n      jump\t// in\n    tag_82:\n        /* \"#utility.yul\":2453:2541   */\n      swap2\n      pop\n        /* \"#utility.yul\":2269:2547   */\n      pop\n        /* \"#utility.yul\":2207:2547   */\n      swap3\n      swap2\n      pop\n      pop\n      jump\t// out\n        /* \"#utility.yul\":2553:2630   */\n    tag_44:\n        /* \"#utility.yul\":2590:2597   */\n      0x00\n        /* \"#utility.yul\":2619:2624   */\n      dup2\n        /* \"#utility.yul\":2608:2624   */\n      swap1\n      pop\n        /* \"#utility.yul\":2553:2630   */\n      swap2\n      swap1\n      pop\n      jump\t// out\n        /* \"#utility.yul\":2636:2758   */\n    tag_45:\n        /* \"#utility.yul\":2709:2733   */\n      tag_85\n        /* \"#utility.yul\":2727:2732   */\n      dup2\n        /* \"#utility.yul\":2709:2733   */\n      tag_44\n      jump\t// in\n    tag_85:\n        /* \"#utility.yul\":2702:2707   */\n      dup2\n        /* \"#utility.yul\":2699:2734   */\n      eq\n        /* \"#utility.yul\":2689:2752   */\n      tag_86\n      jumpi\n        /* \"#utility.yul\":2748:2749   */\n      0x00\n        /* \"#utility.yul\":2745:2746   */\n      dup1\n        /* \"#utility.yul\":2738:2750   */\n      revert\n        /* \"#utility.yul\":2689:2752   */\n    tag_86:\n        /* \"#utility.yul\":2636:2758   */\n      pop\n      jump\t// out\n        /* \"#utility.yul\":2764:2903   */\n    tag_46:\n        /* \"#utility.yul\":2810:2815   */\n      0x00\n        /* \"#utility.yul\":2848:2854   */\n      dup2\n        /* \"#utility.yul\":2835:2855   */\n      calldataload\n        /* \"#utility.yul\":2826:2855   */\n      swap1\n      pop\n        /* \"#utility.yul\":2864:2897   */\n      tag_88\n        /* \"#utility.yul\":2891:2896   */\n      dup2\n        /* \"#utility.yul\":2864:2897   */\n      tag_45\n      jump\t// in\n    tag_88:\n        /* \"#utility.yul\":2764:2903   */\n      swap3\n      swap2\n      pop\n      pop\n      jump\t// out\n        /* \"#utility.yul\":2909:4214   */\n    tag_8:\n        /* \"#utility.yul\":3025:3031   */\n      0x00\n        /* \"#utility.yul\":3033:3039   */\n      dup1\n        /* \"#utility.yul\":3041:3047   */\n      0x00\n        /* \"#utility.yul\":3049:3055   */\n      dup1\n        /* \"#utility.yul\":3098:3101   */\n      0x80\n        /* \"#utility.yul\":3086:3095   */\n      dup6\n        /* \"#utility.yul\":3077:3084   */\n      dup8\n        /* \"#utility.yul\":3073:3096   */\n      sub\n        /* \"#utility.yul\":3069:3102   */\n      slt\n        /* \"#utility.yul\":3066:3186   */\n      iszero\n      tag_90\n      jumpi\n        /* \"#utility.yul\":3105:3184   */\n      tag_91\n      tag_32\n      jump\t// in\n    tag_91:\n        /* \"#utility.yul\":3066:3186   */\n    tag_90:\n        /* \"#utility.yul\":3253:3254   */\n      0x00\n        /* \"#utility.yul\":3242:3251   */\n      dup6\n        /* \"#utility.yul\":3238:3255   */\n      add\n        /* \"#utility.yul\":3225:3256   */\n      calldataload\n        /* \"#utility.yul\":3283:3301   */\n      0xffffffffffffffff\n        /* \"#utility.yul\":3275:3281   */\n      dup2\n        /* \"#utility.yul\":3272:3302   */\n      gt\n        /* \"#utility.yul\":3269:3386   */\n      iszero\n      tag_92\n      jumpi\n        /* \"#utility.yul\":3305:3384   */\n      tag_93\n      tag_33\n      jump\t// in\n    tag_93:\n        /* \"#utility.yul\":3269:3386   */\n    tag_92:\n        /* \"#utility.yul\":3410:3473   */\n      tag_94\n        /* \"#utility.yul\":3465:3472   */\n      dup8\n        /* \"#utility.yul\":3456:3462   */\n      dup3\n        /* \"#utility.yul\":3445:3454   */\n      dup9\n        /* \"#utility.yul\":3441:3463   */\n      add\n        /* \"#utility.yul\":3410:3473   */\n      tag_43\n      jump\t// in\n    tag_94:\n        /* \"#utility.yul\":3400:3473   */\n      swap5\n      pop\n        /* \"#utility.yul\":3196:3483   */\n      pop\n        /* \"#utility.yul\":3550:3552   */\n      0x20\n        /* \"#utility.yul\":3539:3548   */\n      dup6\n        /* \"#utility.yul\":3535:3553   */\n      add\n        /* \"#utility.yul\":3522:3554   */\n      calldataload\n        /* \"#utility.yul\":3581:3599   */\n      0xffffffffffffffff\n        /* \"#utility.yul\":3573:3579   */\n      dup2\n        /* \"#utility.yul\":3570:3600   */\n      gt\n        /* \"#utility.yul\":3567:3684   */\n      iszero\n      tag_95\n      jumpi\n        /* \"#utility.yul\":3603:3682   */\n      tag_96\n      tag_33\n      jump\t// in\n    tag_96:\n        /* \"#utility.yul\":3567:3684   */\n    tag_95:\n        /* \"#utility.yul\":3708:3771   */\n      tag_97\n        /* \"#utility.yul\":3763:3770   */\n      dup8\n        /* \"#utility.yul\":3754:3760   */\n      dup3\n        /* \"#utility.yul\":3743:3752   */\n      dup9\n        /* \"#utility.yul\":3739:3761   */\n      add\n        /* \"#utility.yul\":3708:3771   */\n      tag_43\n      jump\t// in\n    tag_97:\n        /* \"#utility.yul\":3698:3771   */\n      swap4\n      pop\n        /* \"#utility.yul\":3493:3781   */\n      pop\n        /* \"#utility.yul\":3848:3850   */\n      0x40\n        /* \"#utility.yul\":3837:3846   */\n      dup6\n        /* \"#utility.yul\":3833:3851   */\n      add\n        /* \"#utility.yul\":3820:3852   */\n      calldataload\n        /* \"#utility.yul\":3879:3897   */\n      0xffffffffffffffff\n        /* \"#utility.yul\":3871:3877   */\n      dup2\n        /* \"#utility.yul\":3868:3898   */\n      gt\n        /* \"#utility.yul\":3865:3982   */\n      iszero\n      tag_98\n      jumpi\n        /* \"#utility.yul\":3901:3980   */\n      tag_99\n      tag_33\n      jump\t// in\n    tag_99:\n        /* \"#utility.yul\":3865:3982   */\n    tag_98:\n        /* \"#utility.yul\":4006:4069   */\n      tag_100\n        /* \"#utility.yul\":4061:4068   */\n      dup8\n        /* \"#utility.yul\":4052:4058   */\n      dup3\n        /* \"#utility.yul\":4041:4050   */\n      dup9\n        /* \"#utility.yul\":4037:4059   */\n      add\n        /* \"#utility.yul\":4006:4069   */\n      tag_43\n      jump\t// in\n    tag_100:\n        /* \"#utility.yul\":3996:4069   */\n      swap3\n      pop\n        /* \"#utility.yul\":3791:4079   */\n      pop\n        /* \"#utility.yul\":4118:4120   */\n      0x60\n        /* \"#utility.yul\":4144:4197   */\n      tag_101\n        /* \"#utility.yul\":4189:4196   */\n      dup8\n        /* \"#utility.yul\":4180:4186   */\n      dup3\n        /* \"#utility.yul\":4169:4178   */\n      dup9\n        /* \"#utility.yul\":4165:4187   */\n      add\n        /* \"#utility.yul\":4144:4197   */\n      tag_46\n      jump\t// in\n    tag_101:\n        /* \"#utility.yul\":4134:4197   */\n      swap2\n      pop\n        /* \"#utility.yul\":4089:4207   */\n      pop\n        /* \"#utility.yul\":2909:4214   */\n      swap3\n      swap6\n      swap2\n      swap5\n      pop\n      swap3\n      pop\n      jump\t// out\n        /* \"#utility.yul\":4220:5379   */\n    tag_12:\n        /* \"#utility.yul\":4327:4333   */\n      0x00\n        /* \"#utility.yul\":4335:4341   */\n      dup1\n        /* \"#utility.yul\":4343:4349   */\n      0x00\n        /* \"#utility.yul\":4392:4394   */\n      0x60\n        /* \"#utility.yul\":4380:4389   */\n      dup5\n        /* \"#utility.yul\":4371:4378   */\n      dup7\n        /* \"#utility.yul\":4367:4390   */\n      sub\n        /* \"#utility.yul\":4363:4395   */\n      slt\n        /* \"#utility.yul\":4360:4479   */\n      iszero\n      tag_103\n      jumpi\n        /* \"#utility.yul\":4398:4477   */\n      tag_104\n      tag_32\n      jump\t// in\n    tag_104:\n        /* \"#utility.yul\":4360:4479   */\n    tag_103:\n        /* \"#utility.yul\":4546:4547   */\n      0x00\n        /* \"#utility.yul\":4535:4544   */\n      dup5\n        /* \"#utility.yul\":4531:4548   */\n      add\n        /* \"#utility.yul\":4518:4549   */\n      calldataload\n        /* \"#utility.yul\":4576:4594   */\n      0xffffffffffffffff\n        /* \"#utility.yul\":4568:4574   */\n      dup2\n        /* \"#utility.yul\":4565:4595   */\n      gt\n        /* \"#utility.yul\":4562:4679   */\n      iszero\n      tag_105\n      jumpi\n        /* \"#utility.yul\":4598:4677   */\n      tag_106\n      tag_33\n      jump\t// in\n    tag_106:\n        /* \"#utility.yul\":4562:4679   */\n    tag_105:\n        /* \"#utility.yul\":4703:4766   */\n      tag_107\n        /* \"#utility.yul\":4758:4765   */\n      dup7\n        /* \"#utility.yul\":4749:4755   */\n      dup3\n        /* \"#utility.yul\":4738:4747   */\n      dup8\n        /* \"#utility.yul\":4734:4756   */\n      add\n        /* \"#utility.yul\":4703:4766   */\n      tag_43\n      jump\t// in\n    tag_107:\n        /* \"#utility.yul\":4693:4766   */\n      swap4\n      pop\n        /* \"#utility.yul\":4489:4776   */\n      pop\n        /* \"#utility.yul\":4843:4845   */\n      0x20\n        /* \"#utility.yul\":4832:4841   */\n      dup5\n        /* \"#utility.yul\":4828:4846   */\n      add\n        /* \"#utility.yul\":4815:4847   */\n      calldataload\n        /* \"#utility.yul\":4874:4892   */\n      0xffffffffffffffff\n        /* \"#utility.yul\":4866:4872   */\n      dup2\n        /* \"#utility.yul\":4863:4893   */\n      gt\n        /* \"#utility.yul\":4860:4977   */\n      iszero\n      tag_108\n      jumpi\n        /* \"#utility.yul\":4896:4975   */\n      tag_109\n      tag_33\n      jump\t// in\n    tag_109:\n        /* \"#utility.yul\":4860:4977   */\n    tag_108:\n        /* \"#utility.yul\":5001:5064   */\n      tag_110\n        /* \"#utility.yul\":5056:5063   */\n      dup7\n        /* \"#utility.yul\":5047:5053   */\n      dup3\n        /* \"#utility.yul\":5036:5045   */\n      dup8\n        /* \"#utility.yul\":5032:5054   */\n      add\n        /* \"#utility.yul\":5001:5064   */\n      tag_43\n      jump\t// in\n    tag_110:\n        /* \"#utility.yul\":4991:5064   */\n      swap3\n      pop\n        /* \"#utility.yul\":4786:5074   */\n      pop\n        /* \"#utility.yul\":5141:5143   */\n      0x40\n        /* \"#utility.yul\":5130:5139   */\n      dup5\n        /* \"#utility.yul\":5126:5144   */\n      add\n        /* \"#utility.yul\":5113:5145   */\n      calldataload\n        /* \"#utility.yul\":5172:5190   */\n      0xffffffffffffffff\n        /* \"#utility.yul\":5164:5170   */\n      dup2\n        /* \"#utility.yul\":5161:5191   */\n      gt\n        /* \"#utility.yul\":5158:5275   */\n      iszero\n      tag_111\n      jumpi\n        /* \"#utility.yul\":5194:5273   */\n      tag_112\n      tag_33\n      jump\t// in\n    tag_112:\n        /* \"#utility.yul\":5158:5275   */\n    tag_111:\n        /* \"#utility.yul\":5299:5362   */\n      tag_113\n        /* \"#utility.yul\":5354:5361   */\n      dup7\n        /* \"#utility.yul\":5345:5351   */\n      dup3\n        /* \"#utility.yul\":5334:5343   */\n      dup8\n        /* \"#utility.yul\":5330:5352   */\n      add\n        /* \"#utility.yul\":5299:5362   */\n      tag_43\n      jump\t// in\n    tag_113:\n        /* \"#utility.yul\":5289:5362   */\n      swap2\n      pop\n        /* \"#utility.yul\":5084:5372   */\n      pop\n        /* \"#utility.yul\":4220:5379   */\n      swap3\n      pop\n      swap3\n      pop\n      swap3\n      jump\t// out\n        /* \"#utility.yul\":5385:5503   */\n    tag_47:\n        /* \"#utility.yul\":5472:5496   */\n      tag_115\n        /* \"#utility.yul\":5490:5495   */\n      dup2\n        /* \"#utility.yul\":5472:5496   */\n      tag_44\n      jump\t// in\n    tag_115:\n        /* \"#utility.yul\":5467:5470   */\n      dup3\n        /* \"#utility.yul\":5460:5497   */\n      mstore\n        /* \"#utility.yul\":5385:5503   */\n      pop\n      pop\n      jump\t// out\n        /* \"#utility.yul\":5509:5731   */\n    tag_15:\n        /* \"#utility.yul\":5602:5606   */\n      0x00\n        /* \"#utility.yul\":5640:5642   */\n      0x20\n        /* \"#utility.yul\":5629:5638   */\n      dup3\n        /* \"#utility.yul\":5625:5643   */\n      add\n        /* \"#utility.yul\":5617:5643   */\n      swap1\n      pop\n        /* \"#utility.yul\":5653:5724   */\n      tag_117\n        /* \"#utility.yul\":5721:5722   */\n      0x00\n        /* \"#utility.yul\":5710:5719   */\n      dup4\n        /* \"#utility.yul\":5706:5723   */\n      add\n        /* \"#utility.yul\":5697:5703   */\n      dup5\n        /* \"#utility.yul\":5653:5724   */\n      tag_47\n      jump\t// in\n    tag_117:\n        /* \"#utility.yul\":5509:5731   */\n      swap3\n      swap2\n      pop\n      pop\n      jump\t// out\n        /* \"#utility.yul\":5737:5836   */\n    tag_48:\n        /* \"#utility.yul\":5789:5795   */\n      0x00\n        /* \"#utility.yul\":5823:5828   */\n      dup2\n        /* \"#utility.yul\":5817:5829   */\n      mload\n        /* \"#utility.yul\":5807:5829   */\n      swap1\n      pop\n        /* \"#utility.yul\":5737:5836   */\n      swap2\n      swap1\n      pop\n      jump\t// out\n        /* \"#utility.yul\":5842:5990   */\n    tag_49:\n        /* \"#utility.yul\":5944:5955   */\n      0x00\n        /* \"#utility.yul\":5981:5984   */\n      dup2\n        /* \"#utility.yul\":5966:5984   */\n      swap1\n      pop\n        /* \"#utility.yul\":5842:5990   */\n      swap3\n      swap2\n      pop\n      pop\n      jump\t// out\n        /* \"#utility.yul\":5996:6242   */\n    tag_50:\n        /* \"#utility.yul\":6077:6078   */\n      0x00\n        /* \"#utility.yul\":6087:6200   */\n    tag_121:\n        /* \"#utility.yul\":6101:6107   */\n      dup4\n        /* \"#utility.yul\":6098:6099   */\n      dup2\n        /* \"#utility.yul\":6095:6108   */\n      lt\n        /* \"#utility.yul\":6087:6200   */\n      iszero\n      tag_123\n      jumpi\n        /* \"#utility.yul\":6186:6187   */\n      dup1\n        /* \"#utility.yul\":6181:6184   */\n      dup3\n        /* \"#utility.yul\":6177:6188   */\n      add\n        /* \"#utility.yul\":6171:6189   */\n      mload\n        /* \"#utility.yul\":6167:6168   */\n      dup2\n        /* \"#utility.yul\":6162:6165   */\n      dup5\n        /* \"#utility.yul\":6158:6169   */\n      add\n        /* \"#utility.yul\":6151:6190   */\n      mstore\n        /* \"#utility.yul\":6123:6125   */\n      0x20\n        /* \"#utility.yul\":6120:6121   */\n      dup2\n        /* \"#utility.yul\":6116:6126   */\n      add\n        /* \"#utility.yul\":6111:6126   */\n      swap1\n      pop\n        /* \"#utility.yul\":6087:6200   */\n      jump(tag_121)\n    tag_123:\n        /* \"#utility.yul\":6234:6235   */\n      0x00\n        /* \"#utility.yul\":6225:6231   */\n      dup5\n        /* \"#utility.yul\":6220:6223   */\n      dup5\n        /* \"#utility.yul\":6216:6232   */\n      add\n        /* \"#utility.yul\":6209:6236   */\n      mstore\n        /* \"#utility.yul\":6058:6242   */\n      pop\n        /* \"#utility.yul\":5996:6242   */\n      pop\n      pop\n      pop\n      jump\t// out\n        /* \"#utility.yul\":6248:6638   */\n    tag_51:\n        /* \"#utility.yul\":6354:6357   */\n      0x00\n        /* \"#utility.yul\":6382:6421   */\n      tag_125\n        /* \"#utility.yul\":6415:6420   */\n      dup3\n        /* \"#utility.yul\":6382:6421   */\n      tag_48\n      jump\t// in\n    tag_125:\n        /* \"#utility.yul\":6437:6526   */\n      tag_126\n        /* \"#utility.yul\":6519:6525   */\n      dup2\n        /* \"#utility.yul\":6514:6517   */\n      dup6\n        /* \"#utility.yul\":6437:6526   */\n      tag_49\n      jump\t// in\n    tag_126:\n        /* \"#utility.yul\":6430:6526   */\n      swap4\n      pop\n        /* \"#utility.yul\":6535:6600   */\n      tag_127\n        /* \"#utility.yul\":6593:6599   */\n      dup2\n        /* \"#utility.yul\":6588:6591   */\n      dup6\n        /* \"#utility.yul\":6581:6585   */\n      0x20\n        /* \"#utility.yul\":6574:6579   */\n      dup7\n        /* \"#utility.yul\":6570:6586   */\n      add\n        /* \"#utility.yul\":6535:6600   */\n      tag_50\n      jump\t// in\n    tag_127:\n        /* \"#utility.yul\":6625:6631   */\n      dup1\n        /* \"#utility.yul\":6620:6623   */\n      dup5\n        /* \"#utility.yul\":6616:6632   */\n      add\n        /* \"#utility.yul\":6609:6632   */\n      swap2\n      pop\n        /* \"#utility.yul\":6358:6638   */\n      pop\n        /* \"#utility.yul\":6248:6638   */\n      swap3\n      swap2\n      pop\n      pop\n      jump\t// out\n        /* \"#utility.yul\":6644:6919   */\n    tag_22:\n        /* \"#utility.yul\":6776:6779   */\n      0x00\n        /* \"#utility.yul\":6798:6893   */\n      tag_129\n        /* \"#utility.yul\":6889:6892   */\n      dup3\n        /* \"#utility.yul\":6880:6886   */\n      dup5\n        /* \"#utility.yul\":6798:6893   */\n      tag_51\n      jump\t// in\n    tag_129:\n        /* \"#utility.yul\":6791:6893   */\n      swap2\n      pop\n        /* \"#utility.yul\":6910:6913   */\n      dup2\n        /* \"#utility.yul\":6903:6913   */\n      swap1\n      pop\n        /* \"#utility.yul\":6644:6919   */\n      swap3\n      swap2\n      pop\n      pop\n      jump\t// out\n        /* \"#utility.yul\":6925:7105   */\n    tag_52:\n        /* \"#utility.yul\":6973:7050   */\n      0x4e487b7100000000000000000000000000000000000000000000000000000000\n        /* \"#utility.yul\":6970:6971   */\n      0x00\n        /* \"#utility.yul\":6963:7051   */\n      mstore\n        /* \"#utility.yul\":7070:7074   */\n      0x11\n        /* \"#utility.yul\":7067:7068   */\n      0x04\n        /* \"#utility.yul\":7060:7075   */\n      mstore\n        /* \"#utility.yul\":7094:7098   */\n      0x24\n        /* \"#utility.yul\":7091:7092   */\n      0x00\n        /* \"#utility.yul\":7084:7099   */\n      revert\n        /* \"#utility.yul\":7111:7302   */\n    tag_26:\n        /* \"#utility.yul\":7151:7154   */\n      0x00\n        /* \"#utility.yul\":7170:7190   */\n      tag_132\n        /* \"#utility.yul\":7188:7189   */\n      dup3\n        /* \"#utility.yul\":7170:7190   */\n      tag_44\n      jump\t// in\n    tag_132:\n        /* \"#utility.yul\":7165:7190   */\n      swap2\n      pop\n        /* \"#utility.yul\":7204:7224   */\n      tag_133\n        /* \"#utility.yul\":7222:7223   */\n      dup4\n        /* \"#utility.yul\":7204:7224   */\n      tag_44\n      jump\t// in\n    tag_133:\n        /* \"#utility.yul\":7199:7224   */\n      swap3\n      pop\n        /* \"#utility.yul\":7247:7248   */\n      dup3\n        /* \"#utility.yul\":7244:7245   */\n      dup3\n        /* \"#utility.yul\":7240:7249   */\n      add\n        /* \"#utility.yul\":7233:7249   */\n      swap1\n      pop\n        /* \"#utility.yul\":7268:7271   */\n      dup1\n        /* \"#utility.yul\":7265:7266   */\n      dup3\n        /* \"#utility.yul\":7262:7272   */\n      gt\n        /* \"#utility.yul\":7259:7295   */\n      iszero\n      tag_134\n      jumpi\n        /* \"#utility.yul\":7275:7293   */\n      tag_135\n      tag_52\n      jump\t// in\n    tag_135:\n        /* \"#utility.yul\":7259:7295   */\n    tag_134:\n        /* \"#utility.yul\":7111:7302   */\n      swap3\n      swap2\n      pop\n      pop\n      jump\t// out\n\n    auxdata: 0xa2646970667358221220aef72c2fd528acd1b1215bfe0a5b207725aa46d0854416ac27ec1567f6a3da9a64736f6c63430008120033\n}\n",
				"bytecode": {
					"linkReferences": {},
					"object": "608060405234801561001057600080fd5b50610647806100206000396000f3fe608060405234801561001057600080fd5b50600436106100415760003560e01c80630d23da1214610046578063a81bfb3314610062578063aba5f54414610092575b600080fd5b610060600480360381019061005b919061039a565b6100c2565b005b61007c60048036038101906100779190610455565b610135565b604051610089919061050b565b60405180910390f35b6100ac60048036038101906100a79190610455565b6101a9565b6040516100b9919061050b565b60405180910390f35b806000856040516100d39190610597565b9081526020016040518091039020846040516100ef9190610597565b90815260200160405180910390208360405161010b9190610597565b9081526020016040518091039020600082825461012891906105dd565b9250508190555050505050565b600083805160208101820180518482526020830160208501208183528095505050505050828051602081018201805184825260208301602085012081835280955050505050508180516020810182018051848252602083016020850120818352809550505050505060009250925050505481565b600080846040516101ba9190610597565b9081526020016040518091039020836040516101d69190610597565b9081526020016040518091039020826040516101f29190610597565b90815260200160405180910390205490509392505050565b6000604051905090565b600080fd5b600080fd5b600080fd5b600080fd5b6000601f19601f8301169050919050565b7f4e487b7100000000000000000000000000000000000000000000000000000000600052604160045260246000fd5b61027182610228565b810181811067ffffffffffffffff821117156102905761028f610239565b5b80604052505050565b60006102a361020a565b90506102af8282610268565b919050565b600067ffffffffffffffff8211156102cf576102ce610239565b5b6102d882610228565b9050602081019050919050565b82818337600083830152505050565b6000610307610302846102b4565b610299565b90508281526020810184848401111561032357610322610223565b5b61032e8482856102e5565b509392505050565b600082601f83011261034b5761034a61021e565b5b813561035b8482602086016102f4565b91505092915050565b6000819050919050565b61037781610364565b811461038257600080fd5b50565b6000813590506103948161036e565b92915050565b600080600080608085870312156103b4576103b3610214565b5b600085013567ffffffffffffffff8111156103d2576103d1610219565b5b6103de87828801610336565b945050602085013567ffffffffffffffff8111156103ff576103fe610219565b5b61040b87828801610336565b935050604085013567ffffffffffffffff81111561042c5761042b610219565b5b61043887828801610336565b925050606061044987828801610385565b91505092959194509250565b60008060006060848603121561046e5761046d610214565b5b600084013567ffffffffffffffff81111561048c5761048b610219565b5b61049886828701610336565b935050602084013567ffffffffffffffff8111156104b9576104b8610219565b5b6104c586828701610336565b925050604084013567ffffffffffffffff8111156104e6576104e5610219565b5b6104f286828701610336565b9150509250925092565b61050581610364565b82525050565b600060208201905061052060008301846104fc565b92915050565b600081519050919050565b600081905092915050565b60005b8381101561055a57808201518184015260208101905061053f565b60008484015250505050565b600061057182610526565b61057b8185610531565b935061058b81856020860161053c565b80840191505092915050565b60006105a38284610566565b915081905092915050565b7f4e487b7100000000000000000000000000000000000000000000000000000000600052601160045260246000fd5b60006105e882610364565b91506105f383610364565b925082820190508082111561060b5761060a6105ae565b5b9291505056fea2646970667358221220aef72c2fd528acd1b1215bfe0a5b207725aa46d0854416ac27ec1567f6a3da9a64736f6c63430008120033",
					"opcodes": "PUSH1 0x80 PUSH1 0x40 MSTORE CALLVALUE DUP1 ISZERO PUSH2 0x10 JUMPI PUSH1 0x0 DUP1 REVERT JUMPDEST POP PUSH2 0x647 DUP1 PUSH2 0x20 PUSH1 0x0 CODECOPY PUSH1 0x0 RETURN INVALID PUSH1 0x80 PUSH1 0x40 MSTORE CALLVALUE DUP1 ISZERO PUSH2 0x10 JUMPI PUSH1 0x0 DUP1 REVERT JUMPDEST POP PUSH1 0x4 CALLDATASIZE LT PUSH2 0x41 JUMPI PUSH1 0x0 CALLDATALOAD PUSH1 0xE0 SHR DUP1 PUSH4 0xD23DA12 EQ PUSH2 0x46 JUMPI DUP1 PUSH4 0xA81BFB33 EQ PUSH2 0x62 JUMPI DUP1 PUSH4 0xABA5F544 EQ PUSH2 0x92 JUMPI JUMPDEST PUSH1 0x0 DUP1 REVERT JUMPDEST PUSH2 0x60 PUSH1 0x4 DUP1 CALLDATASIZE SUB DUP2 ADD SWAP1 PUSH2 0x5B SWAP2 SWAP1 PUSH2 0x39A JUMP JUMPDEST PUSH2 0xC2 JUMP JUMPDEST STOP JUMPDEST PUSH2 0x7C PUSH1 0x4 DUP1 CALLDATASIZE SUB DUP2 ADD SWAP1 PUSH2 0x77 SWAP2 SWAP1 PUSH2 0x455 JUMP JUMPDEST PUSH2 0x135 JUMP JUMPDEST PUSH1 0x40 MLOAD PUSH2 0x89 SWAP2 SWAP1 PUSH2 0x50B JUMP JUMPDEST PUSH1 0x40 MLOAD DUP1 SWAP2 SUB SWAP1 RETURN JUMPDEST PUSH2 0xAC PUSH1 0x4 DUP1 CALLDATASIZE SUB DUP2 ADD SWAP1 PUSH2 0xA7 SWAP2 SWAP1 PUSH2 0x455 JUMP JUMPDEST PUSH2 0x1A9 JUMP JUMPDEST PUSH1 0x40 MLOAD PUSH2 0xB9 SWAP2 SWAP1 PUSH2 0x50B JUMP JUMPDEST PUSH1 0x40 MLOAD DUP1 SWAP2 SUB SWAP1 RETURN JUMPDEST DUP1 PUSH1 0x0 DUP6 PUSH1 0x40 MLOAD PUSH2 0xD3 SWAP2 SWAP1 PUSH2 0x597 JUMP JUMPDEST SWAP1 DUP2 MSTORE PUSH1 0x20 ADD PUSH1 0x40 MLOAD DUP1 SWAP2 SUB SWAP1 KECCAK256 DUP5 PUSH1 0x40 MLOAD PUSH2 0xEF SWAP2 SWAP1 PUSH2 0x597 JUMP JUMPDEST SWAP1 DUP2 MSTORE PUSH1 0x20 ADD PUSH1 0x40 MLOAD DUP1 SWAP2 SUB SWAP1 KECCAK256 DUP4 PUSH1 0x40 MLOAD PUSH2 0x10B SWAP2 SWAP1 PUSH2 0x597 JUMP JUMPDEST SWAP1 DUP2 MSTORE PUSH1 0x20 ADD PUSH1 0x40 MLOAD DUP1 SWAP2 SUB SWAP1 KECCAK256 PUSH1 0x0 DUP3 DUP3 SLOAD PUSH2 0x128 SWAP2 SWAP1 PUSH2 0x5DD JUMP JUMPDEST SWAP3 POP POP DUP2 SWAP1 SSTORE POP POP POP POP POP JUMP JUMPDEST PUSH1 0x0 DUP4 DUP1 MLOAD PUSH1 0x20 DUP2 ADD DUP3 ADD DUP1 MLOAD DUP5 DUP3 MSTORE PUSH1 0x20 DUP4 ADD PUSH1 0x20 DUP6 ADD KECCAK256 DUP2 DUP4 MSTORE DUP1 SWAP6 POP POP POP POP POP POP DUP3 DUP1 MLOAD PUSH1 0x20 DUP2 ADD DUP3 ADD DUP1 MLOAD DUP5 DUP3 MSTORE PUSH1 0x20 DUP4 ADD PUSH1 0x20 DUP6 ADD KECCAK256 DUP2 DUP4 MSTORE DUP1 SWAP6 POP POP POP POP POP POP DUP2 DUP1 MLOAD PUSH1 0x20 DUP2 ADD DUP3 ADD DUP1 MLOAD DUP5 DUP3 MSTORE PUSH1 0x20 DUP4 ADD PUSH1 0x20 DUP6 ADD KECCAK256 DUP2 DUP4 MSTORE DUP1 SWAP6 POP POP POP POP POP POP PUSH1 0x0 SWAP3 POP SWAP3 POP POP POP SLOAD DUP2 JUMP JUMPDEST PUSH1 0x0 DUP1 DUP5 PUSH1 0x40 MLOAD PUSH2 0x1BA SWAP2 SWAP1 PUSH2 0x597 JUMP JUMPDEST SWAP1 DUP2 MSTORE PUSH1 0x20 ADD PUSH1 0x40 MLOAD DUP1 SWAP2 SUB SWAP1 KECCAK256 DUP4 PUSH1 0x40 MLOAD PUSH2 0x1D6 SWAP2 SWAP1 PUSH2 0x597 JUMP JUMPDEST SWAP1 DUP2 MSTORE PUSH1 0x20 ADD PUSH1 0x40 MLOAD DUP1 SWAP2 SUB SWAP1 KECCAK256 DUP3 PUSH1 0x40 MLOAD PUSH2 0x1F2 SWAP2 SWAP1 PUSH2 0x597 JUMP JUMPDEST SWAP1 DUP2 MSTORE PUSH1 0x20 ADD PUSH1 0x40 MLOAD DUP1 SWAP2 SUB SWAP1 KECCAK256 SLOAD SWAP1 POP SWAP4 SWAP3 POP POP POP JUMP JUMPDEST PUSH1 0x0 PUSH1 0x40 MLOAD SWAP1 POP SWAP1 JUMP JUMPDEST PUSH1 0x0 DUP1 REVERT JUMPDEST PUSH1 0x0 DUP1 REVERT JUMPDEST PUSH1 0x0 DUP1 REVERT JUMPDEST PUSH1 0x0 DUP1 REVERT JUMPDEST PUSH1 0x0 PUSH1 0x1F NOT PUSH1 0x1F DUP4 ADD AND SWAP1 POP SWAP2 SWAP1 POP JUMP JUMPDEST PUSH32 0x4E487B7100000000000000000000000000000000000000000000000000000000 PUSH1 0x0 MSTORE PUSH1 0x41 PUSH1 0x4 MSTORE PUSH1 0x24 PUSH1 0x0 REVERT JUMPDEST PUSH2 0x271 DUP3 PUSH2 0x228 JUMP JUMPDEST DUP2 ADD DUP2 DUP2 LT PUSH8 0xFFFFFFFFFFFFFFFF DUP3 GT OR ISZERO PUSH2 0x290 JUMPI PUSH2 0x28F PUSH2 0x239 JUMP JUMPDEST JUMPDEST DUP1 PUSH1 0x40 MSTORE POP POP POP JUMP JUMPDEST PUSH1 0x0 PUSH2 0x2A3 PUSH2 0x20A JUMP JUMPDEST SWAP1 POP PUSH2 0x2AF DUP3 DUP3 PUSH2 0x268 JUMP JUMPDEST SWAP2 SWAP1 POP JUMP JUMPDEST PUSH1 0x0 PUSH8 0xFFFFFFFFFFFFFFFF DUP3 GT ISZERO PUSH2 0x2CF JUMPI PUSH2 0x2CE PUSH2 0x239 JUMP JUMPDEST JUMPDEST PUSH2 0x2D8 DUP3 PUSH2 0x228 JUMP JUMPDEST SWAP1 POP PUSH1 0x20 DUP2 ADD SWAP1 POP SWAP2 SWAP1 POP JUMP JUMPDEST DUP3 DUP2 DUP4 CALLDATACOPY PUSH1 0x0 DUP4 DUP4 ADD MSTORE POP POP POP JUMP JUMPDEST PUSH1 0x0 PUSH2 0x307 PUSH2 0x302 DUP5 PUSH2 0x2B4 JUMP JUMPDEST PUSH2 0x299 JUMP JUMPDEST SWAP1 POP DUP3 DUP2 MSTORE PUSH1 0x20 DUP2 ADD DUP5 DUP5 DUP5 ADD GT ISZERO PUSH2 0x323 JUMPI PUSH2 0x322 PUSH2 0x223 JUMP JUMPDEST JUMPDEST PUSH2 0x32E DUP5 DUP3 DUP6 PUSH2 0x2E5 JUMP JUMPDEST POP SWAP4 SWAP3 POP POP POP JUMP JUMPDEST PUSH1 0x0 DUP3 PUSH1 0x1F DUP4 ADD SLT PUSH2 0x34B JUMPI PUSH2 0x34A PUSH2 0x21E JUMP JUMPDEST JUMPDEST DUP2 CALLDATALOAD PUSH2 0x35B DUP5 DUP3 PUSH1 0x20 DUP7 ADD PUSH2 0x2F4 JUMP JUMPDEST SWAP2 POP POP SWAP3 SWAP2 POP POP JUMP JUMPDEST PUSH1 0x0 DUP2 SWAP1 POP SWAP2 SWAP1 POP JUMP JUMPDEST PUSH2 0x377 DUP2 PUSH2 0x364 JUMP JUMPDEST DUP2 EQ PUSH2 0x382 JUMPI PUSH1 0x0 DUP1 REVERT JUMPDEST POP JUMP JUMPDEST PUSH1 0x0 DUP2 CALLDATALOAD SWAP1 POP PUSH2 0x394 DUP2 PUSH2 0x36E JUMP JUMPDEST SWAP3 SWAP2 POP POP JUMP JUMPDEST PUSH1 0x0 DUP1 PUSH1 0x0 DUP1 PUSH1 0x80 DUP6 DUP8 SUB SLT ISZERO PUSH2 0x3B4 JUMPI PUSH2 0x3B3 PUSH2 0x214 JUMP JUMPDEST JUMPDEST PUSH1 0x0 DUP6 ADD CALLDATALOAD PUSH8 0xFFFFFFFFFFFFFFFF DUP2 GT ISZERO PUSH2 0x3D2 JUMPI PUSH2 0x3D1 PUSH2 0x219 JUMP JUMPDEST JUMPDEST PUSH2 0x3DE DUP8 DUP3 DUP9 ADD PUSH2 0x336 JUMP JUMPDEST SWAP5 POP POP PUSH1 0x20 DUP6 ADD CALLDATALOAD PUSH8 0xFFFFFFFFFFFFFFFF DUP2 GT ISZERO PUSH2 0x3FF JUMPI PUSH2 0x3FE PUSH2 0x219 JUMP JUMPDEST JUMPDEST PUSH2 0x40B DUP8 DUP3 DUP9 ADD PUSH2 0x336 JUMP JUMPDEST SWAP4 POP POP PUSH1 0x40 DUP6 ADD CALLDATALOAD PUSH8 0xFFFFFFFFFFFFFFFF DUP2 GT ISZERO PUSH2 0x42C JUMPI PUSH2 0x42B PUSH2 0x219 JUMP JUMPDEST JUMPDEST PUSH2 0x438 DUP8 DUP3 DUP9 ADD PUSH2 0x336 JUMP JUMPDEST SWAP3 POP POP PUSH1 0x60 PUSH2 0x449 DUP8 DUP3 DUP9 ADD PUSH2 0x385 JUMP JUMPDEST SWAP2 POP POP SWAP3 SWAP6 SWAP2 SWAP5 POP SWAP3 POP JUMP JUMPDEST PUSH1 0x0 DUP1 PUSH1 0x0 PUSH1 0x60 DUP5 DUP7 SUB SLT ISZERO PUSH2 0x46E JUMPI PUSH2 0x46D PUSH2 0x214 JUMP JUMPDEST JUMPDEST PUSH1 0x0 DUP5 ADD CALLDATALOAD PUSH8 0xFFFFFFFFFFFFFFFF DUP2 GT ISZERO PUSH2 0x48C JUMPI PUSH2 0x48B PUSH2 0x219 JUMP JUMPDEST JUMPDEST PUSH2 0x498 DUP7 DUP3 DUP8 ADD PUSH2 0x336 JUMP JUMPDEST SWAP4 POP POP PUSH1 0x20 DUP5 ADD CALLDATALOAD PUSH8 0xFFFFFFFFFFFFFFFF DUP2 GT ISZERO PUSH2 0x4B9 JUMPI PUSH2 0x4B8 PUSH2 0x219 JUMP JUMPDEST JUMPDEST PUSH2 0x4C5 DUP7 DUP3 DUP8 ADD PUSH2 0x336 JUMP JUMPDEST SWAP3 POP POP PUSH1 0x40 DUP5 ADD CALLDATALOAD PUSH8 0xFFFFFFFFFFFFFFFF DUP2 GT ISZERO PUSH2 0x4E6 JUMPI PUSH2 0x4E5 PUSH2 0x219 JUMP JUMPDEST JUMPDEST PUSH2 0x4F2 DUP7 DUP3 DUP8 ADD PUSH2 0x336 JUMP JUMPDEST SWAP2 POP POP SWAP3 POP SWAP3 POP SWAP3 JUMP JUMPDEST PUSH2 0x505 DUP2 PUSH2 0x364 JUMP JUMPDEST DUP3 MSTORE POP POP JUMP JUMPDEST PUSH1 0x0 PUSH1 0x20 DUP3 ADD SWAP1 POP PUSH2 0x520 PUSH1 0x0 DUP4 ADD DUP5 PUSH2 0x4FC JUMP JUMPDEST SWAP3 SWAP2 POP POP JUMP JUMPDEST PUSH1 0x0 DUP2 MLOAD SWAP1 POP SWAP2 SWAP1 POP JUMP JUMPDEST PUSH1 0x0 DUP2 SWAP1 POP SWAP3 SWAP2 POP POP JUMP JUMPDEST PUSH1 0x0 JUMPDEST DUP4 DUP2 LT ISZERO PUSH2 0x55A JUMPI DUP1 DUP3 ADD MLOAD DUP2 DUP5 ADD MSTORE PUSH1 0x20 DUP2 ADD SWAP1 POP PUSH2 0x53F JUMP JUMPDEST PUSH1 0x0 DUP5 DUP5 ADD MSTORE POP POP POP POP JUMP JUMPDEST PUSH1 0x0 PUSH2 0x571 DUP3 PUSH2 0x526 JUMP JUMPDEST PUSH2 0x57B DUP2 DUP6 PUSH2 0x531 JUMP JUMPDEST SWAP4 POP PUSH2 0x58B DUP2 DUP6 PUSH1 0x20 DUP7 ADD PUSH2 0x53C JUMP JUMPDEST DUP1 DUP5 ADD SWAP2 POP POP SWAP3 SWAP2 POP POP JUMP JUMPDEST PUSH1 0x0 PUSH2 0x5A3 DUP3 DUP5 PUSH2 0x566 JUMP JUMPDEST SWAP2 POP DUP2 SWAP1 POP SWAP3 SWAP2 POP POP JUMP JUMPDEST PUSH32 0x4E487B7100000000000000000000000000000000000000000000000000000000 PUSH1 0x0 MSTORE PUSH1 0x11 PUSH1 0x4 MSTORE PUSH1 0x24 PUSH1 0x0 REVERT JUMPDEST PUSH1 0x0 PUSH2 0x5E8 DUP3 PUSH2 0x364 JUMP JUMPDEST SWAP2 POP PUSH2 0x5F3 DUP4 PUSH2 0x364 JUMP JUMPDEST SWAP3 POP DUP3 DUP3 ADD SWAP1 POP DUP1 DUP3 GT ISZERO PUSH2 0x60B JUMPI PUSH2 0x60A PUSH2 0x5AE JUMP JUMPDEST JUMPDEST SWAP3 SWAP2 POP POP JUMP INVALID LOG2 PUSH5 0x6970667358 0x22 SLT KECCAK256 0xAE 0xF7 0x2C 0x2F 0xD5 0x28 0xAC 0xD1 0xB1 0x21 JUMPDEST INVALID EXP JUMPDEST KECCAK256 PUSH24 0x25AA46D0854416AC27EC1567F6A3DA9A64736F6C63430008 SLT STOP CALLER "
				},
				"gasEstimates": {
					"creation": {
						"codeDepositCost": "321400",
						"executionCost": "362",
						"totalCost": "321762"
					},
					"external": {
						"addValue(string,string,string,uint256)": "infinite",
						"data(string,string,string)": "infinite",
						"getValue(string,string,string)": "infinite"
					}
				},
				"methodIdentifiers": {
					"addValue(string,string,string,uint256)": "0d23da12",
					"data(string,string,string)": "a81bfb33",
					"getValue(string,string,string)": "aba5f544"
				}
			},
			"storageLayout": {
				"storage": [
					{
						"astId": 9,
						"contract": "reports.sol:Reports",
						"label": "data",
						"offset": 0,
						"slot": "0",
						"type": "t_mapping(t_string_memory_ptr,t_mapping(t_string_memory_ptr,t_mapping(t_string_memory_ptr,t_uint256)))"
					}
				],
				"types": {
					"t_mapping(t_string_memory_ptr,t_mapping(t_string_memory_ptr,t_mapping(t_string_memory_ptr,t_uint256)))": {
						"encoding": "mapping",
						"key": "t_string_memory_ptr",
						"label": "mapping(string => mapping(string => mapping(string => uint256)))",
						"numberOfBytes": "32",
						"value": "t_mapping(t_string_memory_ptr,t_mapping(t_string_memory_ptr,t_uint256))"
					},
					"t_mapping(t_string_memory_ptr,t_mapping(t_string_memory_ptr,t_uint256))": {
						"encoding": "mapping",
						"key": "t_string_memory_ptr",
						"label": "mapping(string => mapping(string => uint256))",
						"numberOfBytes": "32",
						"value": "t_mapping(t_string_memory_ptr,t_uint256)"
					},
					"t_mapping(t_string_memory_ptr,t_uint256)": {
						"encoding": "mapping",
						"key": "t_string_memory_ptr",
						"label": "mapping(string => uint256)",
						"numberOfBytes": "32",
						"value": "t_uint256"
					},
					"t_string_memory_ptr": {
						"encoding": "bytes",
						"label": "string",
						"numberOfBytes": "32"
					},
					"t_uint256": {
						"encoding": "inplace",
						"label": "uint256",
						"numberOfBytes": "32"
					}
				}
			},
			"userdoc": {
				"kind": "user",
				"methods": {},
				"version": 1
			}
		}
	}
}