{
	"E00010001.sol": {
		"E00010001": {
			"abi": [
				{
					"anonymous": false,
					"inputs": [
						{
							"indexed": false,
							"internalType": "string",
							"name": "eventId",
							"type": "string"
						},
						{
							"indexed": false,
							"internalType": "uint256",
							"name": "SP002",
							"type": "uint256"
						},
						{
							"indexed": false,
							"internalType": "uint256",
							"name": "SP003",
							"type": "uint256"
						},
						{
							"indexed": false,
							"internalType": "uint256",
							"name": "SP004",
							"type": "uint256"
						}
					],
					"name": "EventIdAndRateReceived",
					"type": "event"
				},
				{
					"inputs": [
						{
							"internalType": "string",
							"name": "_eventId",
							"type": "string"
						},
						{
							"internalType": "uint256",
							"name": "_SP002",
							"type": "uint256"
						},
						{
							"internalType": "uint256",
							"name": "_SP003",
							"type": "uint256"
						},
						{
							"internalType": "uint256",
							"name": "_SP004",
							"type": "uint256"
						}
					],
					"name": "getEventIdAndRate",
					"outputs": [],
					"stateMutability": "nonpayable",
					"type": "function"
				}
			],
			"devdoc": {
				"kind": "dev",
				"methods": {},
				"version": 1
			},
			"evm": {
				"assembly": "    /* \"E00010001.sol\":77:629  contract E00010001 {... */\n  mstore(0x40, 0x80)\n  callvalue\n  dup1\n  iszero\n  tag_1\n  jumpi\n  0x00\n  dup1\n  revert\ntag_1:\n  pop\n  dataSize(sub_0)\n  dup1\n  dataOffset(sub_0)\n  0x00\n  codecopy\n  0x00\n  return\nstop\n\nsub_0: assembly {\n        /* \"E00010001.sol\":77:629  contract E00010001 {... */\n      mstore(0x40, 0x80)\n      callvalue\n      dup1\n      iszero\n      tag_1\n      jumpi\n      0x00\n      dup1\n      revert\n    tag_1:\n      pop\n      jumpi(tag_2, lt(calldatasize, 0x04))\n      shr(0xe0, calldataload(0x00))\n      dup1\n      0x519a334b\n      eq\n      tag_3\n      jumpi\n    tag_2:\n      0x00\n      dup1\n      revert\n        /* \"E00010001.sol\":308:622  function getEventIdAndRate(string memory _eventId, uint256 _SP002, uint256 _SP003, uint256 _SP004) public {... */\n    tag_3:\n      tag_4\n      0x04\n      dup1\n      calldatasize\n      sub\n      dup2\n      add\n      swap1\n      tag_5\n      swap2\n      swap1\n      tag_6\n      jump\t// in\n    tag_5:\n      tag_7\n      jump\t// in\n    tag_4:\n      stop\n    tag_7:\n        /* \"E00010001.sol\":438:444  _SP002 */\n      dup3\n        /* \"E00010001.sol\":424:435  latestSP002 */\n      0x00\n        /* \"E00010001.sol\":424:444  latestSP002 = _SP002 */\n      dup2\n      swap1\n      sstore\n      pop\n        /* \"E00010001.sol\":468:474  _SP003 */\n      dup2\n        /* \"E00010001.sol\":454:465  latestSP003 */\n      0x01\n        /* \"E00010001.sol\":454:474  latestSP003 = _SP003 */\n      dup2\n      swap1\n      sstore\n      pop\n        /* \"E00010001.sol\":498:504  _SP004 */\n      dup1\n        /* \"E00010001.sol\":484:495  latestSP004 */\n      0x02\n        /* \"E00010001.sol\":484:504  latestSP004 = _SP004 */\n      dup2\n      swap1\n      sstore\n      pop\n        /* \"E00010001.sol\":536:544  _eventId */\n      dup4\n        /* \"E00010001.sol\":514:533  eventIdFromTimeSpan */\n      0x03\n        /* \"E00010001.sol\":514:544  eventIdFromTimeSpan = _eventId */\n      swap1\n      dup2\n      tag_9\n      swap2\n      swap1\n      tag_10\n      jump\t// in\n    tag_9:\n      pop\n        /* \"E00010001.sol\":559:615  EventIdAndRateReceived(_eventId, _SP002, _SP003, _SP004) */\n      0x2f8b6c1fd8fe2d4e7dd11b901ace8653bc7de5d664372c606d1f14cac3b1d952\n        /* \"E00010001.sol\":582:590  _eventId */\n      dup5\n        /* \"E00010001.sol\":592:598  _SP002 */\n      dup5\n        /* \"E00010001.sol\":600:606  _SP003 */\n      dup5\n        /* \"E00010001.sol\":608:614  _SP004 */\n      dup5\n        /* \"E00010001.sol\":559:615  EventIdAndRateReceived(_eventId, _SP002, _SP003, _SP004) */\n      mload(0x40)\n      tag_11\n      swap5\n      swap4\n      swap3\n      swap2\n      swap1\n      tag_12\n      jump\t// in\n    tag_11:\n      mload(0x40)\n      dup1\n      swap2\n      sub\n      swap1\n      log1\n        /* \"E00010001.sol\":308:622  function getEventIdAndRate(string memory _eventId, uint256 _SP002, uint256 _SP003, uint256 _SP004) public {... */\n      pop\n      pop\n      pop\n      pop\n      jump\t// out\n        /* \"#utility.yul\":7:82   */\n    tag_13:\n        /* \"#utility.yul\":40:46   */\n      0x00\n        /* \"#utility.yul\":73:75   */\n      0x40\n        /* \"#utility.yul\":67:76   */\n      mload\n        /* \"#utility.yul\":57:76   */\n      swap1\n      pop\n        /* \"#utility.yul\":7:82   */\n      swap1\n      jump\t// out\n        /* \"#utility.yul\":88:205   */\n    tag_14:\n        /* \"#utility.yul\":197:198   */\n      0x00\n        /* \"#utility.yul\":194:195   */\n      dup1\n        /* \"#utility.yul\":187:199   */\n      revert\n        /* \"#utility.yul\":211:328   */\n    tag_15:\n        /* \"#utility.yul\":320:321   */\n      0x00\n        /* \"#utility.yul\":317:318   */\n      dup1\n        /* \"#utility.yul\":310:322   */\n      revert\n        /* \"#utility.yul\":334:451   */\n    tag_16:\n        /* \"#utility.yul\":443:444   */\n      0x00\n        /* \"#utility.yul\":440:441   */\n      dup1\n        /* \"#utility.yul\":433:445   */\n      revert\n        /* \"#utility.yul\":457:574   */\n    tag_17:\n        /* \"#utility.yul\":566:567   */\n      0x00\n        /* \"#utility.yul\":563:564   */\n      dup1\n        /* \"#utility.yul\":556:568   */\n      revert\n        /* \"#utility.yul\":580:682   */\n    tag_18:\n        /* \"#utility.yul\":621:627   */\n      0x00\n        /* \"#utility.yul\":672:674   */\n      0x1f\n        /* \"#utility.yul\":668:675   */\n      not\n        /* \"#utility.yul\":663:665   */\n      0x1f\n        /* \"#utility.yul\":656:661   */\n      dup4\n        /* \"#utility.yul\":652:666   */\n      add\n        /* \"#utility.yul\":648:676   */\n      and\n        /* \"#utility.yul\":638:676   */\n      swap1\n      pop\n        /* \"#utility.yul\":580:682   */\n      swap2\n      swap1\n      pop\n      jump\t// out\n        /* \"#utility.yul\":688:868   */\n    tag_19:\n        /* \"#utility.yul\":736:813   */\n      0x4e487b7100000000000000000000000000000000000000000000000000000000\n        /* \"#utility.yul\":733:734   */\n      0x00\n        /* \"#utility.yul\":726:814   */\n      mstore\n        /* \"#utility.yul\":833:837   */\n      0x41\n        /* \"#utility.yul\":830:831   */\n      0x04\n        /* \"#utility.yul\":823:838   */\n      mstore\n        /* \"#utility.yul\":857:861   */\n      0x24\n        /* \"#utility.yul\":854:855   */\n      0x00\n        /* \"#utility.yul\":847:862   */\n      revert\n        /* \"#utility.yul\":874:1155   */\n    tag_20:\n        /* \"#utility.yul\":957:984   */\n      tag_60\n        /* \"#utility.yul\":979:983   */\n      dup3\n        /* \"#utility.yul\":957:984   */\n      tag_18\n      jump\t// in\n    tag_60:\n        /* \"#utility.yul\":949:955   */\n      dup2\n        /* \"#utility.yul\":945:985   */\n      add\n        /* \"#utility.yul\":1087:1093   */\n      dup2\n        /* \"#utility.yul\":1075:1085   */\n      dup2\n        /* \"#utility.yul\":1072:1094   */\n      lt\n        /* \"#utility.yul\":1051:1069   */\n      0xffffffffffffffff\n        /* \"#utility.yul\":1039:1049   */\n      dup3\n        /* \"#utility.yul\":1036:1070   */\n      gt\n        /* \"#utility.yul\":1033:1095   */\n      or\n        /* \"#utility.yul\":1030:1118   */\n      iszero\n      tag_61\n      jumpi\n        /* \"#utility.yul\":1098:1116   */\n      tag_62\n      tag_19\n      jump\t// in\n    tag_62:\n        /* \"#utility.yul\":1030:1118   */\n    tag_61:\n        /* \"#utility.yul\":1138:1148   */\n      dup1\n        /* \"#utility.yul\":1134:1136   */\n      0x40\n        /* \"#utility.yul\":1127:1149   */\n      mstore\n        /* \"#utility.yul\":917:1155   */\n      pop\n        /* \"#utility.yul\":874:1155   */\n      pop\n      pop\n      jump\t// out\n        /* \"#utility.yul\":1161:1290   */\n    tag_21:\n        /* \"#utility.yul\":1195:1201   */\n      0x00\n        /* \"#utility.yul\":1222:1242   */\n      tag_64\n      tag_13\n      jump\t// in\n    tag_64:\n        /* \"#utility.yul\":1212:1242   */\n      swap1\n      pop\n        /* \"#utility.yul\":1251:1284   */\n      tag_65\n        /* \"#utility.yul\":1279:1283   */\n      dup3\n        /* \"#utility.yul\":1271:1277   */\n      dup3\n        /* \"#utility.yul\":1251:1284   */\n      tag_20\n      jump\t// in\n    tag_65:\n        /* \"#utility.yul\":1161:1290   */\n      swap2\n      swap1\n      pop\n      jump\t// out\n        /* \"#utility.yul\":1296:1604   */\n    tag_22:\n        /* \"#utility.yul\":1358:1362   */\n      0x00\n        /* \"#utility.yul\":1448:1466   */\n      0xffffffffffffffff\n        /* \"#utility.yul\":1440:1446   */\n      dup3\n        /* \"#utility.yul\":1437:1467   */\n      gt\n        /* \"#utility.yul\":1434:1490   */\n      iszero\n      tag_67\n      jumpi\n        /* \"#utility.yul\":1470:1488   */\n      tag_68\n      tag_19\n      jump\t// in\n    tag_68:\n        /* \"#utility.yul\":1434:1490   */\n    tag_67:\n        /* \"#utility.yul\":1508:1537   */\n      tag_69\n        /* \"#utility.yul\":1530:1536   */\n      dup3\n        /* \"#utility.yul\":1508:1537   */\n      tag_18\n      jump\t// in\n    tag_69:\n        /* \"#utility.yul\":1500:1537   */\n      swap1\n      pop\n        /* \"#utility.yul\":1592:1596   */\n      0x20\n        /* \"#utility.yul\":1586:1590   */\n      dup2\n        /* \"#utility.yul\":1582:1597   */\n      add\n        /* \"#utility.yul\":1574:1597   */\n      swap1\n      pop\n        /* \"#utility.yul\":1296:1604   */\n      swap2\n      swap1\n      pop\n      jump\t// out\n        /* \"#utility.yul\":1610:1756   */\n    tag_23:\n        /* \"#utility.yul\":1707:1713   */\n      dup3\n        /* \"#utility.yul\":1702:1705   */\n      dup2\n        /* \"#utility.yul\":1697:1700   */\n      dup4\n        /* \"#utility.yul\":1684:1714   */\n      calldatacopy\n        /* \"#utility.yul\":1748:1749   */\n      0x00\n        /* \"#utility.yul\":1739:1745   */\n      dup4\n        /* \"#utility.yul\":1734:1737   */\n      dup4\n        /* \"#utility.yul\":1730:1746   */\n      add\n        /* \"#utility.yul\":1723:1750   */\n      mstore\n        /* \"#utility.yul\":1610:1756   */\n      pop\n      pop\n      pop\n      jump\t// out\n        /* \"#utility.yul\":1762:2187   */\n    tag_24:\n        /* \"#utility.yul\":1840:1845   */\n      0x00\n        /* \"#utility.yul\":1865:1931   */\n      tag_72\n        /* \"#utility.yul\":1881:1930   */\n      tag_73\n        /* \"#utility.yul\":1923:1929   */\n      dup5\n        /* \"#utility.yul\":1881:1930   */\n      tag_22\n      jump\t// in\n    tag_73:\n        /* \"#utility.yul\":1865:1931   */\n      tag_21\n      jump\t// in\n    tag_72:\n        /* \"#utility.yul\":1856:1931   */\n      swap1\n      pop\n        /* \"#utility.yul\":1954:1960   */\n      dup3\n        /* \"#utility.yul\":1947:1952   */\n      dup2\n        /* \"#utility.yul\":1940:1961   */\n      mstore\n        /* \"#utility.yul\":1992:1996   */\n      0x20\n        /* \"#utility.yul\":1985:1990   */\n      dup2\n        /* \"#utility.yul\":1981:1997   */\n      add\n        /* \"#utility.yul\":2030:2033   */\n      dup5\n        /* \"#utility.yul\":2021:2027   */\n      dup5\n        /* \"#utility.yul\":2016:2019   */\n      dup5\n        /* \"#utility.yul\":2012:2028   */\n      add\n        /* \"#utility.yul\":2009:2034   */\n      gt\n        /* \"#utility.yul\":2006:2118   */\n      iszero\n      tag_74\n      jumpi\n        /* \"#utility.yul\":2037:2116   */\n      tag_75\n      tag_17\n      jump\t// in\n    tag_75:\n        /* \"#utility.yul\":2006:2118   */\n    tag_74:\n        /* \"#utility.yul\":2127:2181   */\n      tag_76\n        /* \"#utility.yul\":2174:2180   */\n      dup5\n        /* \"#utility.yul\":2169:2172   */\n      dup3\n        /* \"#utility.yul\":2164:2167   */\n      dup6\n        /* \"#utility.yul\":2127:2181   */\n      tag_23\n      jump\t// in\n    tag_76:\n        /* \"#utility.yul\":1846:2187   */\n      pop\n        /* \"#utility.yul\":1762:2187   */\n      swap4\n      swap3\n      pop\n      pop\n      pop\n      jump\t// out\n        /* \"#utility.yul\":2207:2547   */\n    tag_25:\n        /* \"#utility.yul\":2263:2268   */\n      0x00\n        /* \"#utility.yul\":2312:2315   */\n      dup3\n        /* \"#utility.yul\":2305:2309   */\n      0x1f\n        /* \"#utility.yul\":2297:2303   */\n      dup4\n        /* \"#utility.yul\":2293:2310   */\n      add\n        /* \"#utility.yul\":2289:2316   */\n      slt\n        /* \"#utility.yul\":2279:2401   */\n      tag_78\n      jumpi\n        /* \"#utility.yul\":2320:2399   */\n      tag_79\n      tag_16\n      jump\t// in\n    tag_79:\n        /* \"#utility.yul\":2279:2401   */\n    tag_78:\n        /* \"#utility.yul\":2437:2443   */\n      dup2\n        /* \"#utility.yul\":2424:2444   */\n      calldataload\n        /* \"#utility.yul\":2462:2541   */\n      tag_80\n        /* \"#utility.yul\":2537:2540   */\n      dup5\n        /* \"#utility.yul\":2529:2535   */\n      dup3\n        /* \"#utility.yul\":2522:2526   */\n      0x20\n        /* \"#utility.yul\":2514:2520   */\n      dup7\n        /* \"#utility.yul\":2510:2527   */\n      add\n        /* \"#utility.yul\":2462:2541   */\n      tag_24\n      jump\t// in\n    tag_80:\n        /* \"#utility.yul\":2453:2541   */\n      swap2\n      pop\n        /* \"#utility.yul\":2269:2547   */\n      pop\n        /* \"#utility.yul\":2207:2547   */\n      swap3\n      swap2\n      pop\n      pop\n      jump\t// out\n        /* \"#utility.yul\":2553:2630   */\n    tag_26:\n        /* \"#utility.yul\":2590:2597   */\n      0x00\n        /* \"#utility.yul\":2619:2624   */\n      dup2\n        /* \"#utility.yul\":2608:2624   */\n      swap1\n      pop\n        /* \"#utility.yul\":2553:2630   */\n      swap2\n      swap1\n      pop\n      jump\t// out\n        /* \"#utility.yul\":2636:2758   */\n    tag_27:\n        /* \"#utility.yul\":2709:2733   */\n      tag_83\n        /* \"#utility.yul\":2727:2732   */\n      dup2\n        /* \"#utility.yul\":2709:2733   */\n      tag_26\n      jump\t// in\n    tag_83:\n        /* \"#utility.yul\":2702:2707   */\n      dup2\n        /* \"#utility.yul\":2699:2734   */\n      eq\n        /* \"#utility.yul\":2689:2752   */\n      tag_84\n      jumpi\n        /* \"#utility.yul\":2748:2749   */\n      0x00\n        /* \"#utility.yul\":2745:2746   */\n      dup1\n        /* \"#utility.yul\":2738:2750   */\n      revert\n        /* \"#utility.yul\":2689:2752   */\n    tag_84:\n        /* \"#utility.yul\":2636:2758   */\n      pop\n      jump\t// out\n        /* \"#utility.yul\":2764:2903   */\n    tag_28:\n        /* \"#utility.yul\":2810:2815   */\n      0x00\n        /* \"#utility.yul\":2848:2854   */\n      dup2\n        /* \"#utility.yul\":2835:2855   */\n      calldataload\n        /* \"#utility.yul\":2826:2855   */\n      swap1\n      pop\n        /* \"#utility.yul\":2864:2897   */\n      tag_86\n        /* \"#utility.yul\":2891:2896   */\n      dup2\n        /* \"#utility.yul\":2864:2897   */\n      tag_27\n      jump\t// in\n    tag_86:\n        /* \"#utility.yul\":2764:2903   */\n      swap3\n      swap2\n      pop\n      pop\n      jump\t// out\n        /* \"#utility.yul\":2909:3854   */\n    tag_6:\n        /* \"#utility.yul\":3005:3011   */\n      0x00\n        /* \"#utility.yul\":3013:3019   */\n      dup1\n        /* \"#utility.yul\":3021:3027   */\n      0x00\n        /* \"#utility.yul\":3029:3035   */\n      dup1\n        /* \"#utility.yul\":3078:3081   */\n      0x80\n        /* \"#utility.yul\":3066:3075   */\n      dup6\n        /* \"#utility.yul\":3057:3064   */\n      dup8\n        /* \"#utility.yul\":3053:3076   */\n      sub\n        /* \"#utility.yul\":3049:3082   */\n      slt\n        /* \"#utility.yul\":3046:3166   */\n      iszero\n      tag_88\n      jumpi\n        /* \"#utility.yul\":3085:3164   */\n      tag_89\n      tag_14\n      jump\t// in\n    tag_89:\n        /* \"#utility.yul\":3046:3166   */\n    tag_88:\n        /* \"#utility.yul\":3233:3234   */\n      0x00\n        /* \"#utility.yul\":3222:3231   */\n      dup6\n        /* \"#utility.yul\":3218:3235   */\n      add\n        /* \"#utility.yul\":3205:3236   */\n      calldataload\n        /* \"#utility.yul\":3263:3281   */\n      0xffffffffffffffff\n        /* \"#utility.yul\":3255:3261   */\n      dup2\n        /* \"#utility.yul\":3252:3282   */\n      gt\n        /* \"#utility.yul\":3249:3366   */\n      iszero\n      tag_90\n      jumpi\n        /* \"#utility.yul\":3285:3364   */\n      tag_91\n      tag_15\n      jump\t// in\n    tag_91:\n        /* \"#utility.yul\":3249:3366   */\n    tag_90:\n        /* \"#utility.yul\":3390:3453   */\n      tag_92\n        /* \"#utility.yul\":3445:3452   */\n      dup8\n        /* \"#utility.yul\":3436:3442   */\n      dup3\n        /* \"#utility.yul\":3425:3434   */\n      dup9\n        /* \"#utility.yul\":3421:3443   */\n      add\n        /* \"#utility.yul\":3390:3453   */\n      tag_25\n      jump\t// in\n    tag_92:\n        /* \"#utility.yul\":3380:3453   */\n      swap5\n      pop\n        /* \"#utility.yul\":3176:3463   */\n      pop\n        /* \"#utility.yul\":3502:3504   */\n      0x20\n        /* \"#utility.yul\":3528:3581   */\n      tag_93\n        /* \"#utility.yul\":3573:3580   */\n      dup8\n        /* \"#utility.yul\":3564:3570   */\n      dup3\n        /* \"#utility.yul\":3553:3562   */\n      dup9\n        /* \"#utility.yul\":3549:3571   */\n      add\n        /* \"#utility.yul\":3528:3581   */\n      tag_28\n      jump\t// in\n    tag_93:\n        /* \"#utility.yul\":3518:3581   */\n      swap4\n      pop\n        /* \"#utility.yul\":3473:3591   */\n      pop\n        /* \"#utility.yul\":3630:3632   */\n      0x40\n        /* \"#utility.yul\":3656:3709   */\n      tag_94\n        /* \"#utility.yul\":3701:3708   */\n      dup8\n        /* \"#utility.yul\":3692:3698   */\n      dup3\n        /* \"#utility.yul\":3681:3690   */\n      dup9\n        /* \"#utility.yul\":3677:3699   */\n      add\n        /* \"#utility.yul\":3656:3709   */\n      tag_28\n      jump\t// in\n    tag_94:\n        /* \"#utility.yul\":3646:3709   */\n      swap3\n      pop\n        /* \"#utility.yul\":3601:3719   */\n      pop\n        /* \"#utility.yul\":3758:3760   */\n      0x60\n        /* \"#utility.yul\":3784:3837   */\n      tag_95\n        /* \"#utility.yul\":3829:3836   */\n      dup8\n        /* \"#utility.yul\":3820:3826   */\n      dup3\n        /* \"#utility.yul\":3809:3818   */\n      dup9\n        /* \"#utility.yul\":3805:3827   */\n      add\n        /* \"#utility.yul\":3784:3837   */\n      tag_28\n      jump\t// in\n    tag_95:\n        /* \"#utility.yul\":3774:3837   */\n      swap2\n      pop\n        /* \"#utility.yul\":3729:3847   */\n      pop\n        /* \"#utility.yul\":2909:3854   */\n      swap3\n      swap6\n      swap2\n      swap5\n      pop\n      swap3\n      pop\n      jump\t// out\n        /* \"#utility.yul\":3860:3959   */\n    tag_29:\n        /* \"#utility.yul\":3912:3918   */\n      0x00\n        /* \"#utility.yul\":3946:3951   */\n      dup2\n        /* \"#utility.yul\":3940:3952   */\n      mload\n        /* \"#utility.yul\":3930:3952   */\n      swap1\n      pop\n        /* \"#utility.yul\":3860:3959   */\n      swap2\n      swap1\n      pop\n      jump\t// out\n        /* \"#utility.yul\":3965:4145   */\n    tag_30:\n        /* \"#utility.yul\":4013:4090   */\n      0x4e487b7100000000000000000000000000000000000000000000000000000000\n        /* \"#utility.yul\":4010:4011   */\n      0x00\n        /* \"#utility.yul\":4003:4091   */\n      mstore\n        /* \"#utility.yul\":4110:4114   */\n      0x22\n        /* \"#utility.yul\":4107:4108   */\n      0x04\n        /* \"#utility.yul\":4100:4115   */\n      mstore\n        /* \"#utility.yul\":4134:4138   */\n      0x24\n        /* \"#utility.yul\":4131:4132   */\n      0x00\n        /* \"#utility.yul\":4124:4139   */\n      revert\n        /* \"#utility.yul\":4151:4471   */\n    tag_31:\n        /* \"#utility.yul\":4195:4201   */\n      0x00\n        /* \"#utility.yul\":4232:4233   */\n      0x02\n        /* \"#utility.yul\":4226:4230   */\n      dup3\n        /* \"#utility.yul\":4222:4234   */\n      div\n        /* \"#utility.yul\":4212:4234   */\n      swap1\n      pop\n        /* \"#utility.yul\":4279:4280   */\n      0x01\n        /* \"#utility.yul\":4273:4277   */\n      dup3\n        /* \"#utility.yul\":4269:4281   */\n      and\n        /* \"#utility.yul\":4300:4318   */\n      dup1\n        /* \"#utility.yul\":4290:4371   */\n      tag_99\n      jumpi\n        /* \"#utility.yul\":4356:4360   */\n      0x7f\n        /* \"#utility.yul\":4348:4354   */\n      dup3\n        /* \"#utility.yul\":4344:4361   */\n      and\n        /* \"#utility.yul\":4334:4361   */\n      swap2\n      pop\n        /* \"#utility.yul\":4290:4371   */\n    tag_99:\n        /* \"#utility.yul\":4418:4420   */\n      0x20\n        /* \"#utility.yul\":4410:4416   */\n      dup3\n        /* \"#utility.yul\":4407:4421   */\n      lt\n        /* \"#utility.yul\":4387:4405   */\n      dup2\n        /* \"#utility.yul\":4384:4422   */\n      sub\n        /* \"#utility.yul\":4381:4465   */\n      tag_100\n      jumpi\n        /* \"#utility.yul\":4437:4455   */\n      tag_101\n      tag_30\n      jump\t// in\n    tag_101:\n        /* \"#utility.yul\":4381:4465   */\n    tag_100:\n        /* \"#utility.yul\":4202:4471   */\n      pop\n        /* \"#utility.yul\":4151:4471   */\n      swap2\n      swap1\n      pop\n      jump\t// out\n        /* \"#utility.yul\":4477:4618   */\n    tag_32:\n        /* \"#utility.yul\":4526:4530   */\n      0x00\n        /* \"#utility.yul\":4549:4552   */\n      dup2\n        /* \"#utility.yul\":4541:4552   */\n      swap1\n      pop\n        /* \"#utility.yul\":4572:4575   */\n      dup2\n        /* \"#utility.yul\":4569:4570   */\n      0x00\n        /* \"#utility.yul\":4562:4576   */\n      mstore\n        /* \"#utility.yul\":4606:4610   */\n      0x20\n        /* \"#utility.yul\":4603:4604   */\n      0x00\n        /* \"#utility.yul\":4593:4611   */\n      keccak256\n        /* \"#utility.yul\":4585:4611   */\n      swap1\n      pop\n        /* \"#utility.yul\":4477:4618   */\n      swap2\n      swap1\n      pop\n      jump\t// out\n        /* \"#utility.yul\":4624:4717   */\n    tag_33:\n        /* \"#utility.yul\":4661:4667   */\n      0x00\n        /* \"#utility.yul\":4708:4710   */\n      0x20\n        /* \"#utility.yul\":4703:4705   */\n      0x1f\n        /* \"#utility.yul\":4696:4701   */\n      dup4\n        /* \"#utility.yul\":4692:4706   */\n      add\n        /* \"#utility.yul\":4688:4711   */\n      div\n        /* \"#utility.yul\":4678:4711   */\n      swap1\n      pop\n        /* \"#utility.yul\":4624:4717   */\n      swap2\n      swap1\n      pop\n      jump\t// out\n        /* \"#utility.yul\":4723:4830   */\n    tag_34:\n        /* \"#utility.yul\":4767:4775   */\n      0x00\n        /* \"#utility.yul\":4817:4822   */\n      dup3\n        /* \"#utility.yul\":4811:4815   */\n      dup3\n        /* \"#utility.yul\":4807:4823   */\n      shl\n        /* \"#utility.yul\":4786:4823   */\n      swap1\n      pop\n        /* \"#utility.yul\":4723:4830   */\n      swap3\n      swap2\n      pop\n      pop\n      jump\t// out\n        /* \"#utility.yul\":4836:5229   */\n    tag_35:\n        /* \"#utility.yul\":4905:4911   */\n      0x00\n        /* \"#utility.yul\":4955:4956   */\n      0x08\n        /* \"#utility.yul\":4943:4953   */\n      dup4\n        /* \"#utility.yul\":4939:4957   */\n      mul\n        /* \"#utility.yul\":4978:5075   */\n      tag_106\n        /* \"#utility.yul\":5008:5074   */\n      0xffffffffffffffffffffffffffffffffffffffffffffffffffffffffffffffff\n        /* \"#utility.yul\":4997:5006   */\n      dup3\n        /* \"#utility.yul\":4978:5075   */\n      tag_34\n      jump\t// in\n    tag_106:\n        /* \"#utility.yul\":5096:5135   */\n      tag_107\n        /* \"#utility.yul\":5126:5134   */\n      dup7\n        /* \"#utility.yul\":5115:5124   */\n      dup4\n        /* \"#utility.yul\":5096:5135   */\n      tag_34\n      jump\t// in\n    tag_107:\n        /* \"#utility.yul\":5084:5135   */\n      swap6\n      pop\n        /* \"#utility.yul\":5168:5172   */\n      dup1\n        /* \"#utility.yul\":5164:5173   */\n      not\n        /* \"#utility.yul\":5157:5162   */\n      dup5\n        /* \"#utility.yul\":5153:5174   */\n      and\n        /* \"#utility.yul\":5144:5174   */\n      swap4\n      pop\n        /* \"#utility.yul\":5217:5221   */\n      dup1\n        /* \"#utility.yul\":5207:5215   */\n      dup7\n        /* \"#utility.yul\":5203:5222   */\n      and\n        /* \"#utility.yul\":5196:5201   */\n      dup5\n        /* \"#utility.yul\":5193:5223   */\n      or\n        /* \"#utility.yul\":5183:5223   */\n      swap3\n      pop\n        /* \"#utility.yul\":4912:5229   */\n      pop\n      pop\n        /* \"#utility.yul\":4836:5229   */\n      swap4\n      swap3\n      pop\n      pop\n      pop\n      jump\t// out\n        /* \"#utility.yul\":5235:5295   */\n    tag_36:\n        /* \"#utility.yul\":5263:5266   */\n      0x00\n        /* \"#utility.yul\":5284:5289   */\n      dup2\n        /* \"#utility.yul\":5277:5289   */\n      swap1\n      pop\n        /* \"#utility.yul\":5235:5295   */\n      swap2\n      swap1\n      pop\n      jump\t// out\n        /* \"#utility.yul\":5301:5443   */\n    tag_37:\n        /* \"#utility.yul\":5351:5360   */\n      0x00\n        /* \"#utility.yul\":5384:5437   */\n      tag_110\n        /* \"#utility.yul\":5402:5436   */\n      tag_111\n        /* \"#utility.yul\":5411:5435   */\n      tag_112\n        /* \"#utility.yul\":5429:5434   */\n      dup5\n        /* \"#utility.yul\":5411:5435   */\n      tag_26\n      jump\t// in\n    tag_112:\n        /* \"#utility.yul\":5402:5436   */\n      tag_36\n      jump\t// in\n    tag_111:\n        /* \"#utility.yul\":5384:5437   */\n      tag_26\n      jump\t// in\n    tag_110:\n        /* \"#utility.yul\":5371:5437   */\n      swap1\n      pop\n        /* \"#utility.yul\":5301:5443   */\n      swap2\n      swap1\n      pop\n      jump\t// out\n        /* \"#utility.yul\":5449:5524   */\n    tag_38:\n        /* \"#utility.yul\":5492:5495   */\n      0x00\n        /* \"#utility.yul\":5513:5518   */\n      dup2\n        /* \"#utility.yul\":5506:5518   */\n      swap1\n      pop\n        /* \"#utility.yul\":5449:5524   */\n      swap2\n      swap1\n      pop\n      jump\t// out\n        /* \"#utility.yul\":5530:5799   */\n    tag_39:\n        /* \"#utility.yul\":5640:5679   */\n      tag_115\n        /* \"#utility.yul\":5671:5678   */\n      dup4\n        /* \"#utility.yul\":5640:5679   */\n      tag_37\n      jump\t// in\n    tag_115:\n        /* \"#utility.yul\":5701:5792   */\n      tag_116\n        /* \"#utility.yul\":5750:5791   */\n      tag_117\n        /* \"#utility.yul\":5774:5790   */\n      dup3\n        /* \"#utility.yul\":5750:5791   */\n      tag_38\n      jump\t// in\n    tag_117:\n        /* \"#utility.yul\":5742:5748   */\n      dup5\n        /* \"#utility.yul\":5735:5739   */\n      dup5\n        /* \"#utility.yul\":5729:5740   */\n      sload\n        /* \"#utility.yul\":5701:5792   */\n      tag_35\n      jump\t// in\n    tag_116:\n        /* \"#utility.yul\":5695:5699   */\n      dup3\n        /* \"#utility.yul\":5688:5793   */\n      sstore\n        /* \"#utility.yul\":5606:5799   */\n      pop\n        /* \"#utility.yul\":5530:5799   */\n      pop\n      pop\n      pop\n      jump\t// out\n        /* \"#utility.yul\":5805:5878   */\n    tag_40:\n        /* \"#utility.yul\":5850:5853   */\n      0x00\n        /* \"#utility.yul\":5805:5878   */\n      swap1\n      jump\t// out\n        /* \"#utility.yul\":5884:6073   */\n    tag_41:\n        /* \"#utility.yul\":5961:5993   */\n      tag_120\n      tag_40\n      jump\t// in\n    tag_120:\n        /* \"#utility.yul\":6002:6067   */\n      tag_121\n        /* \"#utility.yul\":6060:6066   */\n      dup2\n        /* \"#utility.yul\":6052:6058   */\n      dup5\n        /* \"#utility.yul\":6046:6050   */\n      dup5\n        /* \"#utility.yul\":6002:6067   */\n      tag_39\n      jump\t// in\n    tag_121:\n        /* \"#utility.yul\":5937:6073   */\n      pop\n        /* \"#utility.yul\":5884:6073   */\n      pop\n      pop\n      jump\t// out\n        /* \"#utility.yul\":6079:6265   */\n    tag_42:\n        /* \"#utility.yul\":6139:6259   */\n    tag_123:\n        /* \"#utility.yul\":6156:6159   */\n      dup2\n        /* \"#utility.yul\":6149:6154   */\n      dup2\n        /* \"#utility.yul\":6146:6160   */\n      lt\n        /* \"#utility.yul\":6139:6259   */\n      iszero\n      tag_125\n      jumpi\n        /* \"#utility.yul\":6210:6249   */\n      tag_126\n        /* \"#utility.yul\":6247:6248   */\n      0x00\n        /* \"#utility.yul\":6240:6245   */\n      dup3\n        /* \"#utility.yul\":6210:6249   */\n      tag_41\n      jump\t// in\n    tag_126:\n        /* \"#utility.yul\":6183:6184   */\n      0x01\n        /* \"#utility.yul\":6176:6181   */\n      dup2\n        /* \"#utility.yul\":6172:6185   */\n      add\n        /* \"#utility.yul\":6163:6185   */\n      swap1\n      pop\n        /* \"#utility.yul\":6139:6259   */\n      jump(tag_123)\n    tag_125:\n        /* \"#utility.yul\":6079:6265   */\n      pop\n      pop\n      jump\t// out\n        /* \"#utility.yul\":6271:6814   */\n    tag_43:\n        /* \"#utility.yul\":6372:6374   */\n      0x1f\n        /* \"#utility.yul\":6367:6370   */\n      dup3\n        /* \"#utility.yul\":6364:6375   */\n      gt\n        /* \"#utility.yul\":6361:6807   */\n      iszero\n      tag_128\n      jumpi\n        /* \"#utility.yul\":6406:6444   */\n      tag_129\n        /* \"#utility.yul\":6438:6443   */\n      dup2\n        /* \"#utility.yul\":6406:6444   */\n      tag_32\n      jump\t// in\n    tag_129:\n        /* \"#utility.yul\":6490:6519   */\n      tag_130\n        /* \"#utility.yul\":6508:6518   */\n      dup5\n        /* \"#utility.yul\":6490:6519   */\n      tag_33\n      jump\t// in\n    tag_130:\n        /* \"#utility.yul\":6480:6488   */\n      dup2\n        /* \"#utility.yul\":6476:6520   */\n      add\n        /* \"#utility.yul\":6673:6675   */\n      0x20\n        /* \"#utility.yul\":6661:6671   */\n      dup6\n        /* \"#utility.yul\":6658:6676   */\n      lt\n        /* \"#utility.yul\":6655:6704   */\n      iszero\n      tag_131\n      jumpi\n        /* \"#utility.yul\":6694:6702   */\n      dup2\n        /* \"#utility.yul\":6679:6702   */\n      swap1\n      pop\n        /* \"#utility.yul\":6655:6704   */\n    tag_131:\n        /* \"#utility.yul\":6717:6797   */\n      tag_132\n        /* \"#utility.yul\":6773:6795   */\n      tag_133\n        /* \"#utility.yul\":6791:6794   */\n      dup6\n        /* \"#utility.yul\":6773:6795   */\n      tag_33\n      jump\t// in\n    tag_133:\n        /* \"#utility.yul\":6763:6771   */\n      dup4\n        /* \"#utility.yul\":6759:6796   */\n      add\n        /* \"#utility.yul\":6746:6757   */\n      dup3\n        /* \"#utility.yul\":6717:6797   */\n      tag_42\n      jump\t// in\n    tag_132:\n        /* \"#utility.yul\":6376:6807   */\n      pop\n      pop\n        /* \"#utility.yul\":6361:6807   */\n    tag_128:\n        /* \"#utility.yul\":6271:6814   */\n      pop\n      pop\n      pop\n      jump\t// out\n        /* \"#utility.yul\":6820:6937   */\n    tag_44:\n        /* \"#utility.yul\":6874:6882   */\n      0x00\n        /* \"#utility.yul\":6924:6929   */\n      dup3\n        /* \"#utility.yul\":6918:6922   */\n      dup3\n        /* \"#utility.yul\":6914:6930   */\n      shr\n        /* \"#utility.yul\":6893:6930   */\n      swap1\n      pop\n        /* \"#utility.yul\":6820:6937   */\n      swap3\n      swap2\n      pop\n      pop\n      jump\t// out\n        /* \"#utility.yul\":6943:7112   */\n    tag_45:\n        /* \"#utility.yul\":6987:6993   */\n      0x00\n        /* \"#utility.yul\":7020:7071   */\n      tag_136\n        /* \"#utility.yul\":7068:7069   */\n      0x00\n        /* \"#utility.yul\":7064:7070   */\n      not\n        /* \"#utility.yul\":7056:7061   */\n      dup5\n        /* \"#utility.yul\":7053:7054   */\n      0x08\n        /* \"#utility.yul\":7049:7062   */\n      mul\n        /* \"#utility.yul\":7020:7071   */\n      tag_44\n      jump\t// in\n    tag_136:\n        /* \"#utility.yul\":7016:7072   */\n      not\n        /* \"#utility.yul\":7101:7105   */\n      dup1\n        /* \"#utility.yul\":7095:7099   */\n      dup4\n        /* \"#utility.yul\":7091:7106   */\n      and\n        /* \"#utility.yul\":7081:7106   */\n      swap2\n      pop\n        /* \"#utility.yul\":6994:7112   */\n      pop\n        /* \"#utility.yul\":6943:7112   */\n      swap3\n      swap2\n      pop\n      pop\n      jump\t// out\n        /* \"#utility.yul\":7117:7412   */\n    tag_46:\n        /* \"#utility.yul\":7193:7197   */\n      0x00\n        /* \"#utility.yul\":7339:7368   */\n      tag_138\n        /* \"#utility.yul\":7364:7367   */\n      dup4\n        /* \"#utility.yul\":7358:7362   */\n      dup4\n        /* \"#utility.yul\":7339:7368   */\n      tag_45\n      jump\t// in\n    tag_138:\n        /* \"#utility.yul\":7331:7368   */\n      swap2\n      pop\n        /* \"#utility.yul\":7401:7404   */\n      dup3\n        /* \"#utility.yul\":7398:7399   */\n      0x02\n        /* \"#utility.yul\":7394:7405   */\n      mul\n        /* \"#utility.yul\":7388:7392   */\n      dup3\n        /* \"#utility.yul\":7385:7406   */\n      or\n        /* \"#utility.yul\":7377:7406   */\n      swap1\n      pop\n        /* \"#utility.yul\":7117:7412   */\n      swap3\n      swap2\n      pop\n      pop\n      jump\t// out\n        /* \"#utility.yul\":7417:8812   */\n    tag_10:\n        /* \"#utility.yul\":7534:7571   */\n      tag_140\n        /* \"#utility.yul\":7567:7570   */\n      dup3\n        /* \"#utility.yul\":7534:7571   */\n      tag_29\n      jump\t// in\n    tag_140:\n        /* \"#utility.yul\":7636:7654   */\n      0xffffffffffffffff\n        /* \"#utility.yul\":7628:7634   */\n      dup2\n        /* \"#utility.yul\":7625:7655   */\n      gt\n        /* \"#utility.yul\":7622:7678   */\n      iszero\n      tag_141\n      jumpi\n        /* \"#utility.yul\":7658:7676   */\n      tag_142\n      tag_19\n      jump\t// in\n    tag_142:\n        /* \"#utility.yul\":7622:7678   */\n    tag_141:\n        /* \"#utility.yul\":7702:7740   */\n      tag_143\n        /* \"#utility.yul\":7734:7738   */\n      dup3\n        /* \"#utility.yul\":7728:7739   */\n      sload\n        /* \"#utility.yul\":7702:7740   */\n      tag_31\n      jump\t// in\n    tag_143:\n        /* \"#utility.yul\":7787:7854   */\n      tag_144\n        /* \"#utility.yul\":7847:7853   */\n      dup3\n        /* \"#utility.yul\":7839:7845   */\n      dup3\n        /* \"#utility.yul\":7833:7837   */\n      dup6\n        /* \"#utility.yul\":7787:7854   */\n      tag_43\n      jump\t// in\n    tag_144:\n        /* \"#utility.yul\":7881:7882   */\n      0x00\n        /* \"#utility.yul\":7905:7909   */\n      0x20\n        /* \"#utility.yul\":7892:7909   */\n      swap1\n      pop\n        /* \"#utility.yul\":7937:7939   */\n      0x1f\n        /* \"#utility.yul\":7929:7935   */\n      dup4\n        /* \"#utility.yul\":7926:7940   */\n      gt\n        /* \"#utility.yul\":7954:7955   */\n      0x01\n        /* \"#utility.yul\":7949:8567   */\n      dup2\n      eq\n      tag_146\n      jumpi\n        /* \"#utility.yul\":8611:8612   */\n      0x00\n        /* \"#utility.yul\":8628:8634   */\n      dup5\n        /* \"#utility.yul\":8625:8702   */\n      iszero\n      tag_147\n      jumpi\n        /* \"#utility.yul\":8677:8686   */\n      dup3\n        /* \"#utility.yul\":8672:8675   */\n      dup8\n        /* \"#utility.yul\":8668:8687   */\n      add\n        /* \"#utility.yul\":8662:8688   */\n      mload\n        /* \"#utility.yul\":8653:8688   */\n      swap1\n      pop\n        /* \"#utility.yul\":8625:8702   */\n    tag_147:\n        /* \"#utility.yul\":8728:8795   */\n      tag_148\n        /* \"#utility.yul\":8788:8794   */\n      dup6\n        /* \"#utility.yul\":8781:8786   */\n      dup3\n        /* \"#utility.yul\":8728:8795   */\n      tag_46\n      jump\t// in\n    tag_148:\n        /* \"#utility.yul\":8722:8726   */\n      dup7\n        /* \"#utility.yul\":8715:8796   */\n      sstore\n        /* \"#utility.yul\":8584:8806   */\n      pop\n        /* \"#utility.yul\":7919:8806   */\n      jump(tag_145)\n        /* \"#utility.yul\":7949:8567   */\n    tag_146:\n        /* \"#utility.yul\":8001:8005   */\n      0x1f\n        /* \"#utility.yul\":7997:8006   */\n      not\n        /* \"#utility.yul\":7989:7995   */\n      dup5\n        /* \"#utility.yul\":7985:8007   */\n      and\n        /* \"#utility.yul\":8035:8072   */\n      tag_149\n        /* \"#utility.yul\":8067:8071   */\n      dup7\n        /* \"#utility.yul\":8035:8072   */\n      tag_32\n      jump\t// in\n    tag_149:\n        /* \"#utility.yul\":8094:8095   */\n      0x00\n        /* \"#utility.yul\":8108:8316   */\n    tag_150:\n        /* \"#utility.yul\":8122:8129   */\n      dup3\n        /* \"#utility.yul\":8119:8120   */\n      dup2\n        /* \"#utility.yul\":8116:8130   */\n      lt\n        /* \"#utility.yul\":8108:8316   */\n      iszero\n      tag_152\n      jumpi\n        /* \"#utility.yul\":8201:8210   */\n      dup5\n        /* \"#utility.yul\":8196:8199   */\n      dup10\n        /* \"#utility.yul\":8192:8211   */\n      add\n        /* \"#utility.yul\":8186:8212   */\n      mload\n        /* \"#utility.yul\":8178:8184   */\n      dup3\n        /* \"#utility.yul\":8171:8213   */\n      sstore\n        /* \"#utility.yul\":8252:8253   */\n      0x01\n        /* \"#utility.yul\":8244:8250   */\n      dup3\n        /* \"#utility.yul\":8240:8254   */\n      add\n        /* \"#utility.yul\":8230:8254   */\n      swap2\n      pop\n        /* \"#utility.yul\":8299:8301   */\n      0x20\n        /* \"#utility.yul\":8288:8297   */\n      dup6\n        /* \"#utility.yul\":8284:8302   */\n      add\n        /* \"#utility.yul\":8271:8302   */\n      swap5\n      pop\n        /* \"#utility.yul\":8145:8149   */\n      0x20\n        /* \"#utility.yul\":8142:8143   */\n      dup2\n        /* \"#utility.yul\":8138:8150   */\n      add\n        /* \"#utility.yul\":8133:8150   */\n      swap1\n      pop\n        /* \"#utility.yul\":8108:8316   */\n      jump(tag_150)\n    tag_152:\n        /* \"#utility.yul\":8344:8350   */\n      dup7\n        /* \"#utility.yul\":8335:8342   */\n      dup4\n        /* \"#utility.yul\":8332:8351   */\n      lt\n        /* \"#utility.yul\":8329:8508   */\n      iszero\n      tag_153\n      jumpi\n        /* \"#utility.yul\":8402:8411   */\n      dup5\n        /* \"#utility.yul\":8397:8400   */\n      dup10\n        /* \"#utility.yul\":8393:8412   */\n      add\n        /* \"#utility.yul\":8387:8413   */\n      mload\n        /* \"#utility.yul\":8445:8493   */\n      tag_154\n        /* \"#utility.yul\":8487:8491   */\n      0x1f\n        /* \"#utility.yul\":8479:8485   */\n      dup10\n        /* \"#utility.yul\":8475:8492   */\n      and\n        /* \"#utility.yul\":8464:8473   */\n      dup3\n        /* \"#utility.yul\":8445:8493   */\n      tag_45\n      jump\t// in\n    tag_154:\n        /* \"#utility.yul\":8437:8443   */\n      dup4\n        /* \"#utility.yul\":8430:8494   */\n      sstore\n        /* \"#utility.yul\":8352:8508   */\n      pop\n        /* \"#utility.yul\":8329:8508   */\n    tag_153:\n        /* \"#utility.yul\":8554:8555   */\n      0x01\n        /* \"#utility.yul\":8550:8551   */\n      0x02\n        /* \"#utility.yul\":8542:8548   */\n      dup9\n        /* \"#utility.yul\":8538:8552   */\n      mul\n        /* \"#utility.yul\":8534:8556   */\n      add\n        /* \"#utility.yul\":8528:8532   */\n      dup9\n        /* \"#utility.yul\":8521:8557   */\n      sstore\n        /* \"#utility.yul\":7956:8567   */\n      pop\n      pop\n      pop\n        /* \"#utility.yul\":7919:8806   */\n    tag_145:\n      pop\n        /* \"#utility.yul\":7509:8812   */\n      pop\n      pop\n      pop\n        /* \"#utility.yul\":7417:8812   */\n      pop\n      pop\n      jump\t// out\n        /* \"#utility.yul\":8818:8987   */\n    tag_47:\n        /* \"#utility.yul\":8902:8913   */\n      0x00\n        /* \"#utility.yul\":8936:8942   */\n      dup3\n        /* \"#utility.yul\":8931:8934   */\n      dup3\n        /* \"#utility.yul\":8924:8943   */\n      mstore\n        /* \"#utility.yul\":8976:8980   */\n      0x20\n        /* \"#utility.yul\":8971:8974   */\n      dup3\n        /* \"#utility.yul\":8967:8981   */\n      add\n        /* \"#utility.yul\":8952:8981   */\n      swap1\n      pop\n        /* \"#utility.yul\":8818:8987   */\n      swap3\n      swap2\n      pop\n      pop\n      jump\t// out\n        /* \"#utility.yul\":8993:9239   */\n    tag_48:\n        /* \"#utility.yul\":9074:9075   */\n      0x00\n        /* \"#utility.yul\":9084:9197   */\n    tag_157:\n        /* \"#utility.yul\":9098:9104   */\n      dup4\n        /* \"#utility.yul\":9095:9096   */\n      dup2\n        /* \"#utility.yul\":9092:9105   */\n      lt\n        /* \"#utility.yul\":9084:9197   */\n      iszero\n      tag_159\n      jumpi\n        /* \"#utility.yul\":9183:9184   */\n      dup1\n        /* \"#utility.yul\":9178:9181   */\n      dup3\n        /* \"#utility.yul\":9174:9185   */\n      add\n        /* \"#utility.yul\":9168:9186   */\n      mload\n        /* \"#utility.yul\":9164:9165   */\n      dup2\n        /* \"#utility.yul\":9159:9162   */\n      dup5\n        /* \"#utility.yul\":9155:9166   */\n      add\n        /* \"#utility.yul\":9148:9187   */\n      mstore\n        /* \"#utility.yul\":9120:9122   */\n      0x20\n        /* \"#utility.yul\":9117:9118   */\n      dup2\n        /* \"#utility.yul\":9113:9123   */\n      add\n        /* \"#utility.yul\":9108:9123   */\n      swap1\n      pop\n        /* \"#utility.yul\":9084:9197   */\n      jump(tag_157)\n    tag_159:\n        /* \"#utility.yul\":9231:9232   */\n      0x00\n        /* \"#utility.yul\":9222:9228   */\n      dup5\n        /* \"#utility.yul\":9217:9220   */\n      dup5\n        /* \"#utility.yul\":9213:9229   */\n      add\n        /* \"#utility.yul\":9206:9233   */\n      mstore\n        /* \"#utility.yul\":9055:9239   */\n      pop\n        /* \"#utility.yul\":8993:9239   */\n      pop\n      pop\n      pop\n      jump\t// out\n        /* \"#utility.yul\":9245:9622   */\n    tag_49:\n        /* \"#utility.yul\":9333:9336   */\n      0x00\n        /* \"#utility.yul\":9361:9400   */\n      tag_161\n        /* \"#utility.yul\":9394:9399   */\n      dup3\n        /* \"#utility.yul\":9361:9400   */\n      tag_29\n      jump\t// in\n    tag_161:\n        /* \"#utility.yul\":9416:9487   */\n      tag_162\n        /* \"#utility.yul\":9480:9486   */\n      dup2\n        /* \"#utility.yul\":9475:9478   */\n      dup6\n        /* \"#utility.yul\":9416:9487   */\n      tag_47\n      jump\t// in\n    tag_162:\n        /* \"#utility.yul\":9409:9487   */\n      swap4\n      pop\n        /* \"#utility.yul\":9496:9561   */\n      tag_163\n        /* \"#utility.yul\":9554:9560   */\n      dup2\n        /* \"#utility.yul\":9549:9552   */\n      dup6\n        /* \"#utility.yul\":9542:9546   */\n      0x20\n        /* \"#utility.yul\":9535:9540   */\n      dup7\n        /* \"#utility.yul\":9531:9547   */\n      add\n        /* \"#utility.yul\":9496:9561   */\n      tag_48\n      jump\t// in\n    tag_163:\n        /* \"#utility.yul\":9586:9615   */\n      tag_164\n        /* \"#utility.yul\":9608:9614   */\n      dup2\n        /* \"#utility.yul\":9586:9615   */\n      tag_18\n      jump\t// in\n    tag_164:\n        /* \"#utility.yul\":9581:9584   */\n      dup5\n        /* \"#utility.yul\":9577:9616   */\n      add\n        /* \"#utility.yul\":9570:9616   */\n      swap2\n      pop\n        /* \"#utility.yul\":9337:9622   */\n      pop\n        /* \"#utility.yul\":9245:9622   */\n      swap3\n      swap2\n      pop\n      pop\n      jump\t// out\n        /* \"#utility.yul\":9628:9746   */\n    tag_50:\n        /* \"#utility.yul\":9715:9739   */\n      tag_166\n        /* \"#utility.yul\":9733:9738   */\n      dup2\n        /* \"#utility.yul\":9715:9739   */\n      tag_26\n      jump\t// in\n    tag_166:\n        /* \"#utility.yul\":9710:9713   */\n      dup3\n        /* \"#utility.yul\":9703:9740   */\n      mstore\n        /* \"#utility.yul\":9628:9746   */\n      pop\n      pop\n      jump\t// out\n        /* \"#utility.yul\":9752:10396   */\n    tag_12:\n        /* \"#utility.yul\":9949:9953   */\n      0x00\n        /* \"#utility.yul\":9987:9990   */\n      0x80\n        /* \"#utility.yul\":9976:9985   */\n      dup3\n        /* \"#utility.yul\":9972:9991   */\n      add\n        /* \"#utility.yul\":9964:9991   */\n      swap1\n      pop\n        /* \"#utility.yul\":10037:10046   */\n      dup2\n        /* \"#utility.yul\":10031:10035   */\n      dup2\n        /* \"#utility.yul\":10027:10047   */\n      sub\n        /* \"#utility.yul\":10023:10024   */\n      0x00\n        /* \"#utility.yul\":10012:10021   */\n      dup4\n        /* \"#utility.yul\":10008:10025   */\n      add\n        /* \"#utility.yul\":10001:10048   */\n      mstore\n        /* \"#utility.yul\":10065:10143   */\n      tag_168\n        /* \"#utility.yul\":10138:10142   */\n      dup2\n        /* \"#utility.yul\":10129:10135   */\n      dup8\n        /* \"#utility.yul\":10065:10143   */\n      tag_49\n      jump\t// in\n    tag_168:\n        /* \"#utility.yul\":10057:10143   */\n      swap1\n      pop\n        /* \"#utility.yul\":10153:10225   */\n      tag_169\n        /* \"#utility.yul\":10221:10223   */\n      0x20\n        /* \"#utility.yul\":10210:10219   */\n      dup4\n        /* \"#utility.yul\":10206:10224   */\n      add\n        /* \"#utility.yul\":10197:10203   */\n      dup7\n        /* \"#utility.yul\":10153:10225   */\n      tag_50\n      jump\t// in\n    tag_169:\n        /* \"#utility.yul\":10235:10307   */\n      tag_170\n        /* \"#utility.yul\":10303:10305   */\n      0x40\n        /* \"#utility.yul\":10292:10301   */\n      dup4\n        /* \"#utility.yul\":10288:10306   */\n      add\n        /* \"#utility.yul\":10279:10285   */\n      dup6\n        /* \"#utility.yul\":10235:10307   */\n      tag_50\n      jump\t// in\n    tag_170:\n        /* \"#utility.yul\":10317:10389   */\n      tag_171\n        /* \"#utility.yul\":10385:10387   */\n      0x60\n        /* \"#utility.yul\":10374:10383   */\n      dup4\n        /* \"#utility.yul\":10370:10388   */\n      add\n        /* \"#utility.yul\":10361:10367   */\n      dup5\n        /* \"#utility.yul\":10317:10389   */\n      tag_50\n      jump\t// in\n    tag_171:\n        /* \"#utility.yul\":9752:10396   */\n      swap6\n      swap5\n      pop\n      pop\n      pop\n      pop\n      pop\n      jump\t// out\n\n    auxdata: 0xa264697066735822122092072c8a44dbc7eb1ebcf2ee26cff8fe05a046cdc5a3dbd49a1ea9ba5b56944d64736f6c63430008120033\n}\n",
				"bytecode": {
					"linkReferences": {},
					"object": "608060405234801561001057600080fd5b506106b5806100206000396000f3fe608060405234801561001057600080fd5b506004361061002b5760003560e01c8063519a334b14610030575b600080fd5b61004a60048036038101906100459190610244565b61004c565b005b826000819055508160018190555080600281905550836003908161007091906104de565b507f2f8b6c1fd8fe2d4e7dd11b901ace8653bc7de5d664372c606d1f14cac3b1d952848484846040516100a69493929190610633565b60405180910390a150505050565b6000604051905090565b600080fd5b600080fd5b600080fd5b600080fd5b6000601f19601f8301169050919050565b7f4e487b7100000000000000000000000000000000000000000000000000000000600052604160045260246000fd5b61011b826100d2565b810181811067ffffffffffffffff8211171561013a576101396100e3565b5b80604052505050565b600061014d6100b4565b90506101598282610112565b919050565b600067ffffffffffffffff821115610179576101786100e3565b5b610182826100d2565b9050602081019050919050565b82818337600083830152505050565b60006101b16101ac8461015e565b610143565b9050828152602081018484840111156101cd576101cc6100cd565b5b6101d884828561018f565b509392505050565b600082601f8301126101f5576101f46100c8565b5b813561020584826020860161019e565b91505092915050565b6000819050919050565b6102218161020e565b811461022c57600080fd5b50565b60008135905061023e81610218565b92915050565b6000806000806080858703121561025e5761025d6100be565b5b600085013567ffffffffffffffff81111561027c5761027b6100c3565b5b610288878288016101e0565b94505060206102998782880161022f565b93505060406102aa8782880161022f565b92505060606102bb8782880161022f565b91505092959194509250565b600081519050919050565b7f4e487b7100000000000000000000000000000000000000000000000000000000600052602260045260246000fd5b6000600282049050600182168061031957607f821691505b60208210810361032c5761032b6102d2565b5b50919050565b60008190508160005260206000209050919050565b60006020601f8301049050919050565b600082821b905092915050565b6000600883026103947fffffffffffffffffffffffffffffffffffffffffffffffffffffffffffffffff82610357565b61039e8683610357565b95508019841693508086168417925050509392505050565b6000819050919050565b60006103db6103d66103d18461020e565b6103b6565b61020e565b9050919050565b6000819050919050565b6103f5836103c0565b610409610401826103e2565b848454610364565b825550505050565b600090565b61041e610411565b6104298184846103ec565b505050565b5b8181101561044d57610442600082610416565b60018101905061042f565b5050565b601f8211156104925761046381610332565b61046c84610347565b8101602085101561047b578190505b61048f61048785610347565b83018261042e565b50505b505050565b600082821c905092915050565b60006104b560001984600802610497565b1980831691505092915050565b60006104ce83836104a4565b9150826002028217905092915050565b6104e7826102c7565b67ffffffffffffffff811115610500576104ff6100e3565b5b61050a8254610301565b610515828285610451565b600060209050601f8311600181146105485760008415610536578287015190505b61054085826104c2565b8655506105a8565b601f19841661055686610332565b60005b8281101561057e57848901518255600182019150602085019450602081019050610559565b8683101561059b5784890151610597601f8916826104a4565b8355505b6001600288020188555050505b505050505050565b600082825260208201905092915050565b60005b838110156105df5780820151818401526020810190506105c4565b60008484015250505050565b60006105f6826102c7565b61060081856105b0565b93506106108185602086016105c1565b610619816100d2565b840191505092915050565b61062d8161020e565b82525050565b6000608082019050818103600083015261064d81876105eb565b905061065c6020830186610624565b6106696040830185610624565b6106766060830184610624565b9594505050505056fea264697066735822122092072c8a44dbc7eb1ebcf2ee26cff8fe05a046cdc5a3dbd49a1ea9ba5b56944d64736f6c63430008120033",
					"opcodes": "PUSH1 0x80 PUSH1 0x40 MSTORE CALLVALUE DUP1 ISZERO PUSH2 0x10 JUMPI PUSH1 0x0 DUP1 REVERT JUMPDEST POP PUSH2 0x6B5 DUP1 PUSH2 0x20 PUSH1 0x0 CODECOPY PUSH1 0x0 RETURN INVALID PUSH1 0x80 PUSH1 0x40 MSTORE CALLVALUE DUP1 ISZERO PUSH2 0x10 JUMPI PUSH1 0x0 DUP1 REVERT JUMPDEST POP PUSH1 0x4 CALLDATASIZE LT PUSH2 0x2B JUMPI PUSH1 0x0 CALLDATALOAD PUSH1 0xE0 SHR DUP1 PUSH4 0x519A334B EQ PUSH2 0x30 JUMPI JUMPDEST PUSH1 0x0 DUP1 REVERT JUMPDEST PUSH2 0x4A PUSH1 0x4 DUP1 CALLDATASIZE SUB DUP2 ADD SWAP1 PUSH2 0x45 SWAP2 SWAP1 PUSH2 0x244 JUMP JUMPDEST PUSH2 0x4C JUMP JUMPDEST STOP JUMPDEST DUP3 PUSH1 0x0 DUP2 SWAP1 SSTORE POP DUP2 PUSH1 0x1 DUP2 SWAP1 SSTORE POP DUP1 PUSH1 0x2 DUP2 SWAP1 SSTORE POP DUP4 PUSH1 0x3 SWAP1 DUP2 PUSH2 0x70 SWAP2 SWAP1 PUSH2 0x4DE JUMP JUMPDEST POP PUSH32 0x2F8B6C1FD8FE2D4E7DD11B901ACE8653BC7DE5D664372C606D1F14CAC3B1D952 DUP5 DUP5 DUP5 DUP5 PUSH1 0x40 MLOAD PUSH2 0xA6 SWAP5 SWAP4 SWAP3 SWAP2 SWAP1 PUSH2 0x633 JUMP JUMPDEST PUSH1 0x40 MLOAD DUP1 SWAP2 SUB SWAP1 LOG1 POP POP POP POP JUMP JUMPDEST PUSH1 0x0 PUSH1 0x40 MLOAD SWAP1 POP SWAP1 JUMP JUMPDEST PUSH1 0x0 DUP1 REVERT JUMPDEST PUSH1 0x0 DUP1 REVERT JUMPDEST PUSH1 0x0 DUP1 REVERT JUMPDEST PUSH1 0x0 DUP1 REVERT JUMPDEST PUSH1 0x0 PUSH1 0x1F NOT PUSH1 0x1F DUP4 ADD AND SWAP1 POP SWAP2 SWAP1 POP JUMP JUMPDEST PUSH32 0x4E487B7100000000000000000000000000000000000000000000000000000000 PUSH1 0x0 MSTORE PUSH1 0x41 PUSH1 0x4 MSTORE PUSH1 0x24 PUSH1 0x0 REVERT JUMPDEST PUSH2 0x11B DUP3 PUSH2 0xD2 JUMP JUMPDEST DUP2 ADD DUP2 DUP2 LT PUSH8 0xFFFFFFFFFFFFFFFF DUP3 GT OR ISZERO PUSH2 0x13A JUMPI PUSH2 0x139 PUSH2 0xE3 JUMP JUMPDEST JUMPDEST DUP1 PUSH1 0x40 MSTORE POP POP POP JUMP JUMPDEST PUSH1 0x0 PUSH2 0x14D PUSH2 0xB4 JUMP JUMPDEST SWAP1 POP PUSH2 0x159 DUP3 DUP3 PUSH2 0x112 JUMP JUMPDEST SWAP2 SWAP1 POP JUMP JUMPDEST PUSH1 0x0 PUSH8 0xFFFFFFFFFFFFFFFF DUP3 GT ISZERO PUSH2 0x179 JUMPI PUSH2 0x178 PUSH2 0xE3 JUMP JUMPDEST JUMPDEST PUSH2 0x182 DUP3 PUSH2 0xD2 JUMP JUMPDEST SWAP1 POP PUSH1 0x20 DUP2 ADD SWAP1 POP SWAP2 SWAP1 POP JUMP JUMPDEST DUP3 DUP2 DUP4 CALLDATACOPY PUSH1 0x0 DUP4 DUP4 ADD MSTORE POP POP POP JUMP JUMPDEST PUSH1 0x0 PUSH2 0x1B1 PUSH2 0x1AC DUP5 PUSH2 0x15E JUMP JUMPDEST PUSH2 0x143 JUMP JUMPDEST SWAP1 POP DUP3 DUP2 MSTORE PUSH1 0x20 DUP2 ADD DUP5 DUP5 DUP5 ADD GT ISZERO PUSH2 0x1CD JUMPI PUSH2 0x1CC PUSH2 0xCD JUMP JUMPDEST JUMPDEST PUSH2 0x1D8 DUP5 DUP3 DUP6 PUSH2 0x18F JUMP JUMPDEST POP SWAP4 SWAP3 POP POP POP JUMP JUMPDEST PUSH1 0x0 DUP3 PUSH1 0x1F DUP4 ADD SLT PUSH2 0x1F5 JUMPI PUSH2 0x1F4 PUSH2 0xC8 JUMP JUMPDEST JUMPDEST DUP2 CALLDATALOAD PUSH2 0x205 DUP5 DUP3 PUSH1 0x20 DUP7 ADD PUSH2 0x19E JUMP JUMPDEST SWAP2 POP POP SWAP3 SWAP2 POP POP JUMP JUMPDEST PUSH1 0x0 DUP2 SWAP1 POP SWAP2 SWAP1 POP JUMP JUMPDEST PUSH2 0x221 DUP2 PUSH2 0x20E JUMP JUMPDEST DUP2 EQ PUSH2 0x22C JUMPI PUSH1 0x0 DUP1 REVERT JUMPDEST POP JUMP JUMPDEST PUSH1 0x0 DUP2 CALLDATALOAD SWAP1 POP PUSH2 0x23E DUP2 PUSH2 0x218 JUMP JUMPDEST SWAP3 SWAP2 POP POP JUMP JUMPDEST PUSH1 0x0 DUP1 PUSH1 0x0 DUP1 PUSH1 0x80 DUP6 DUP8 SUB SLT ISZERO PUSH2 0x25E JUMPI PUSH2 0x25D PUSH2 0xBE JUMP JUMPDEST JUMPDEST PUSH1 0x0 DUP6 ADD CALLDATALOAD PUSH8 0xFFFFFFFFFFFFFFFF DUP2 GT ISZERO PUSH2 0x27C JUMPI PUSH2 0x27B PUSH2 0xC3 JUMP JUMPDEST JUMPDEST PUSH2 0x288 DUP8 DUP3 DUP9 ADD PUSH2 0x1E0 JUMP JUMPDEST SWAP5 POP POP PUSH1 0x20 PUSH2 0x299 DUP8 DUP3 DUP9 ADD PUSH2 0x22F JUMP JUMPDEST SWAP4 POP POP PUSH1 0x40 PUSH2 0x2AA DUP8 DUP3 DUP9 ADD PUSH2 0x22F JUMP JUMPDEST SWAP3 POP POP PUSH1 0x60 PUSH2 0x2BB DUP8 DUP3 DUP9 ADD PUSH2 0x22F JUMP JUMPDEST SWAP2 POP POP SWAP3 SWAP6 SWAP2 SWAP5 POP SWAP3 POP JUMP JUMPDEST PUSH1 0x0 DUP2 MLOAD SWAP1 POP SWAP2 SWAP1 POP JUMP JUMPDEST PUSH32 0x4E487B7100000000000000000000000000000000000000000000000000000000 PUSH1 0x0 MSTORE PUSH1 0x22 PUSH1 0x4 MSTORE PUSH1 0x24 PUSH1 0x0 REVERT JUMPDEST PUSH1 0x0 PUSH1 0x2 DUP3 DIV SWAP1 POP PUSH1 0x1 DUP3 AND DUP1 PUSH2 0x319 JUMPI PUSH1 0x7F DUP3 AND SWAP2 POP JUMPDEST PUSH1 0x20 DUP3 LT DUP2 SUB PUSH2 0x32C JUMPI PUSH2 0x32B PUSH2 0x2D2 JUMP JUMPDEST JUMPDEST POP SWAP2 SWAP1 POP JUMP JUMPDEST PUSH1 0x0 DUP2 SWAP1 POP DUP2 PUSH1 0x0 MSTORE PUSH1 0x20 PUSH1 0x0 KECCAK256 SWAP1 POP SWAP2 SWAP1 POP JUMP JUMPDEST PUSH1 0x0 PUSH1 0x20 PUSH1 0x1F DUP4 ADD DIV SWAP1 POP SWAP2 SWAP1 POP JUMP JUMPDEST PUSH1 0x0 DUP3 DUP3 SHL SWAP1 POP SWAP3 SWAP2 POP POP JUMP JUMPDEST PUSH1 0x0 PUSH1 0x8 DUP4 MUL PUSH2 0x394 PUSH32 0xFFFFFFFFFFFFFFFFFFFFFFFFFFFFFFFFFFFFFFFFFFFFFFFFFFFFFFFFFFFFFFFF DUP3 PUSH2 0x357 JUMP JUMPDEST PUSH2 0x39E DUP7 DUP4 PUSH2 0x357 JUMP JUMPDEST SWAP6 POP DUP1 NOT DUP5 AND SWAP4 POP DUP1 DUP7 AND DUP5 OR SWAP3 POP POP POP SWAP4 SWAP3 POP POP POP JUMP JUMPDEST PUSH1 0x0 DUP2 SWAP1 POP SWAP2 SWAP1 POP JUMP JUMPDEST PUSH1 0x0 PUSH2 0x3DB PUSH2 0x3D6 PUSH2 0x3D1 DUP5 PUSH2 0x20E JUMP JUMPDEST PUSH2 0x3B6 JUMP JUMPDEST PUSH2 0x20E JUMP JUMPDEST SWAP1 POP SWAP2 SWAP1 POP JUMP JUMPDEST PUSH1 0x0 DUP2 SWAP1 POP SWAP2 SWAP1 POP JUMP JUMPDEST PUSH2 0x3F5 DUP4 PUSH2 0x3C0 JUMP JUMPDEST PUSH2 0x409 PUSH2 0x401 DUP3 PUSH2 0x3E2 JUMP JUMPDEST DUP5 DUP5 SLOAD PUSH2 0x364 JUMP JUMPDEST DUP3 SSTORE POP POP POP POP JUMP JUMPDEST PUSH1 0x0 SWAP1 JUMP JUMPDEST PUSH2 0x41E PUSH2 0x411 JUMP JUMPDEST PUSH2 0x429 DUP2 DUP5 DUP5 PUSH2 0x3EC JUMP JUMPDEST POP POP POP JUMP JUMPDEST JUMPDEST DUP2 DUP2 LT ISZERO PUSH2 0x44D JUMPI PUSH2 0x442 PUSH1 0x0 DUP3 PUSH2 0x416 JUMP JUMPDEST PUSH1 0x1 DUP2 ADD SWAP1 POP PUSH2 0x42F JUMP JUMPDEST POP POP JUMP JUMPDEST PUSH1 0x1F DUP3 GT ISZERO PUSH2 0x492 JUMPI PUSH2 0x463 DUP2 PUSH2 0x332 JUMP JUMPDEST PUSH2 0x46C DUP5 PUSH2 0x347 JUMP JUMPDEST DUP2 ADD PUSH1 0x20 DUP6 LT ISZERO PUSH2 0x47B JUMPI DUP2 SWAP1 POP JUMPDEST PUSH2 0x48F PUSH2 0x487 DUP6 PUSH2 0x347 JUMP JUMPDEST DUP4 ADD DUP3 PUSH2 0x42E JUMP JUMPDEST POP POP JUMPDEST POP POP POP JUMP JUMPDEST PUSH1 0x0 DUP3 DUP3 SHR SWAP1 POP SWAP3 SWAP2 POP POP JUMP JUMPDEST PUSH1 0x0 PUSH2 0x4B5 PUSH1 0x0 NOT DUP5 PUSH1 0x8 MUL PUSH2 0x497 JUMP JUMPDEST NOT DUP1 DUP4 AND SWAP2 POP POP SWAP3 SWAP2 POP POP JUMP JUMPDEST PUSH1 0x0 PUSH2 0x4CE DUP4 DUP4 PUSH2 0x4A4 JUMP JUMPDEST SWAP2 POP DUP3 PUSH1 0x2 MUL DUP3 OR SWAP1 POP SWAP3 SWAP2 POP POP JUMP JUMPDEST PUSH2 0x4E7 DUP3 PUSH2 0x2C7 JUMP JUMPDEST PUSH8 0xFFFFFFFFFFFFFFFF DUP2 GT ISZERO PUSH2 0x500 JUMPI PUSH2 0x4FF PUSH2 0xE3 JUMP JUMPDEST JUMPDEST PUSH2 0x50A DUP3 SLOAD PUSH2 0x301 JUMP JUMPDEST PUSH2 0x515 DUP3 DUP3 DUP6 PUSH2 0x451 JUMP JUMPDEST PUSH1 0x0 PUSH1 0x20 SWAP1 POP PUSH1 0x1F DUP4 GT PUSH1 0x1 DUP2 EQ PUSH2 0x548 JUMPI PUSH1 0x0 DUP5 ISZERO PUSH2 0x536 JUMPI DUP3 DUP8 ADD MLOAD SWAP1 POP JUMPDEST PUSH2 0x540 DUP6 DUP3 PUSH2 0x4C2 JUMP JUMPDEST DUP7 SSTORE POP PUSH2 0x5A8 JUMP JUMPDEST PUSH1 0x1F NOT DUP5 AND PUSH2 0x556 DUP7 PUSH2 0x332 JUMP JUMPDEST PUSH1 0x0 JUMPDEST DUP3 DUP2 LT ISZERO PUSH2 0x57E JUMPI DUP5 DUP10 ADD MLOAD DUP3 SSTORE PUSH1 0x1 DUP3 ADD SWAP2 POP PUSH1 0x20 DUP6 ADD SWAP5 POP PUSH1 0x20 DUP2 ADD SWAP1 POP PUSH2 0x559 JUMP JUMPDEST DUP7 DUP4 LT ISZERO PUSH2 0x59B JUMPI DUP5 DUP10 ADD MLOAD PUSH2 0x597 PUSH1 0x1F DUP10 AND DUP3 PUSH2 0x4A4 JUMP JUMPDEST DUP4 SSTORE POP JUMPDEST PUSH1 0x1 PUSH1 0x2 DUP9 MUL ADD DUP9 SSTORE POP POP POP JUMPDEST POP POP POP POP POP POP JUMP JUMPDEST PUSH1 0x0 DUP3 DUP3 MSTORE PUSH1 0x20 DUP3 ADD SWAP1 POP SWAP3 SWAP2 POP POP JUMP JUMPDEST PUSH1 0x0 JUMPDEST DUP4 DUP2 LT ISZERO PUSH2 0x5DF JUMPI DUP1 DUP3 ADD MLOAD DUP2 DUP5 ADD MSTORE PUSH1 0x20 DUP2 ADD SWAP1 POP PUSH2 0x5C4 JUMP JUMPDEST PUSH1 0x0 DUP5 DUP5 ADD MSTORE POP POP POP POP JUMP JUMPDEST PUSH1 0x0 PUSH2 0x5F6 DUP3 PUSH2 0x2C7 JUMP JUMPDEST PUSH2 0x600 DUP2 DUP6 PUSH2 0x5B0 JUMP JUMPDEST SWAP4 POP PUSH2 0x610 DUP2 DUP6 PUSH1 0x20 DUP7 ADD PUSH2 0x5C1 JUMP JUMPDEST PUSH2 0x619 DUP2 PUSH2 0xD2 JUMP JUMPDEST DUP5 ADD SWAP2 POP POP SWAP3 SWAP2 POP POP JUMP JUMPDEST PUSH2 0x62D DUP2 PUSH2 0x20E JUMP JUMPDEST DUP3 MSTORE POP POP JUMP JUMPDEST PUSH1 0x0 PUSH1 0x80 DUP3 ADD SWAP1 POP DUP2 DUP2 SUB PUSH1 0x0 DUP4 ADD MSTORE PUSH2 0x64D DUP2 DUP8 PUSH2 0x5EB JUMP JUMPDEST SWAP1 POP PUSH2 0x65C PUSH1 0x20 DUP4 ADD DUP7 PUSH2 0x624 JUMP JUMPDEST PUSH2 0x669 PUSH1 0x40 DUP4 ADD DUP6 PUSH2 0x624 JUMP JUMPDEST PUSH2 0x676 PUSH1 0x60 DUP4 ADD DUP5 PUSH2 0x624 JUMP JUMPDEST SWAP6 SWAP5 POP POP POP POP POP JUMP INVALID LOG2 PUSH5 0x6970667358 0x22 SLT KECCAK256 SWAP3 SMOD 0x2C DUP11 PREVRANDAO 0xDB 0xC7 0xEB 0x1E 0xBC CALLCODE 0xEE 0x26 0xCF 0xF8 INVALID SDIV LOG0 CHAINID 0xCD 0xC5 LOG3 0xDB 0xD4 SWAP11 0x1E 0xA9 0xBA JUMPDEST JUMP SWAP5 0x4D PUSH5 0x736F6C6343 STOP ADDMOD SLT STOP CALLER "
				},
				"gasEstimates": {
					"creation": {
						"codeDepositCost": "343400",
						"executionCost": "380",
						"totalCost": "343780"
					},
					"external": {
						"getEventIdAndRate(string,uint256,uint256,uint256)": "infinite"
					}
				},
				"methodIdentifiers": {
					"getEventIdAndRate(string,uint256,uint256,uint256)": "519a334b"
				}
			},
			"storageLayout": {
				"storage": [
					{
						"astId": 13,
						"contract": "E00010001.sol:E00010001",
						"label": "latestSP002",
						"offset": 0,
						"slot": "0",
						"type": "t_uint256"
					},
					{
						"astId": 15,
						"contract": "E00010001.sol:E00010001",
						"label": "latestSP003",
						"offset": 0,
						"slot": "1",
						"type": "t_uint256"
					},
					{
						"astId": 17,
						"contract": "E00010001.sol:E00010001",
						"label": "latestSP004",
						"offset": 0,
						"slot": "2",
						"type": "t_uint256"
					},
					{
						"astId": 19,
						"contract": "E00010001.sol:E00010001",
						"label": "eventIdFromTimeSpan",
						"offset": 0,
						"slot": "3",
						"type": "t_string_storage"
					}
				],
				"types": {
					"t_string_storage": {
						"encoding": "bytes",
						"label": "string",
						"numberOfBytes": "32"
					},
					"t_uint256": {
						"encoding": "inplace",
						"label": "uint256",
						"numberOfBytes": "32"
					}
				}
			},
			"userdoc": {
				"kind": "user",
				"methods": {},
				"version": 1
			}
		}
	}
}