{
	"eventTransactionRecord.sol": {
		"TransactionContract": {
			"abi": [
				{
					"inputs": [
						{
							"internalType": "string",
							"name": "_eventId",
							"type": "string"
						},
						{
							"internalType": "uint256",
							"name": "_EP001",
							"type": "uint256"
						},
						{
							"internalType": "uint256",
							"name": "_EP002",
							"type": "uint256"
						},
						{
							"internalType": "uint256",
							"name": "_EP003",
							"type": "uint256"
						},
						{
							"internalType": "uint256",
							"name": "_EP005",
							"type": "uint256"
						}
					],
					"name": "E00010001",
					"outputs": [],
					"stateMutability": "nonpayable",
					"type": "function"
				},
				{
					"inputs": [
						{
							"internalType": "string",
							"name": "_eventId",
							"type": "string"
						},
						{
							"internalType": "uint256",
							"name": "_EP001",
							"type": "uint256"
						},
						{
							"internalType": "uint256",
							"name": "_EP002",
							"type": "uint256"
						},
						{
							"internalType": "uint256",
							"name": "_EP003",
							"type": "uint256"
						},
						{
							"internalType": "uint256",
							"name": "_EP005",
							"type": "uint256"
						}
					],
					"name": "E00010002",
					"outputs": [],
					"stateMutability": "nonpayable",
					"type": "function"
				},
				{
					"inputs": [
						{
							"internalType": "string",
							"name": "_eventId",
							"type": "string"
						},
						{
							"internalType": "uint256",
							"name": "_EP001",
							"type": "uint256"
						},
						{
							"internalType": "uint256",
							"name": "_EP002",
							"type": "uint256"
						},
						{
							"internalType": "uint256",
							"name": "_EP003",
							"type": "uint256"
						},
						{
							"internalType": "uint256",
							"name": "_EP005",
							"type": "uint256"
						}
					],
					"name": "E00010003",
					"outputs": [],
					"stateMutability": "nonpayable",
					"type": "function"
				},
				{
					"inputs": [
						{
							"internalType": "string",
							"name": "_eventId",
							"type": "string"
						},
						{
							"internalType": "uint256",
							"name": "_EP001",
							"type": "uint256"
						},
						{
							"internalType": "uint256",
							"name": "_EP002",
							"type": "uint256"
						},
						{
							"internalType": "uint256",
							"name": "_EP003",
							"type": "uint256"
						},
						{
							"internalType": "uint256",
							"name": "_EP004",
							"type": "uint256"
						},
						{
							"internalType": "uint256",
							"name": "_EP006",
							"type": "uint256"
						},
						{
							"internalType": "uint256",
							"name": "_EP007",
							"type": "uint256"
						}
					],
					"name": "E00010004",
					"outputs": [],
					"stateMutability": "nonpayable",
					"type": "function"
				},
				{
					"inputs": [
						{
							"internalType": "string",
							"name": "_eventId",
							"type": "string"
						},
						{
							"internalType": "uint256",
							"name": "_EP001",
							"type": "uint256"
						},
						{
							"internalType": "uint256",
							"name": "_EP002",
							"type": "uint256"
						},
						{
							"internalType": "uint256",
							"name": "_EP003",
							"type": "uint256"
						},
						{
							"internalType": "uint256",
							"name": "_EP004",
							"type": "uint256"
						},
						{
							"internalType": "uint256",
							"name": "_EP006",
							"type": "uint256"
						}
					],
					"name": "E00010005",
					"outputs": [],
					"stateMutability": "nonpayable",
					"type": "function"
				},
				{
					"inputs": [
						{
							"internalType": "string",
							"name": "_eventId",
							"type": "string"
						},
						{
							"internalType": "uint256",
							"name": "_EP001",
							"type": "uint256"
						},
						{
							"internalType": "uint256",
							"name": "_EP002",
							"type": "uint256"
						},
						{
							"internalType": "uint256",
							"name": "_EP003",
							"type": "uint256"
						},
						{
							"internalType": "uint256",
							"name": "_EP004",
							"type": "uint256"
						},
						{
							"internalType": "uint256",
							"name": "_EP006",
							"type": "uint256"
						}
					],
					"name": "E00010006",
					"outputs": [],
					"stateMutability": "nonpayable",
					"type": "function"
				},
				{
					"inputs": [
						{
							"internalType": "string",
							"name": "_eventId",
							"type": "string"
						},
						{
							"internalType": "uint256",
							"name": "_EP001",
							"type": "uint256"
						},
						{
							"internalType": "uint256",
							"name": "_EP002",
							"type": "uint256"
						},
						{
							"internalType": "uint256",
							"name": "_BTC",
							"type": "uint256"
						},
						{
							"internalType": "uint256",
							"name": "_USDT",
							"type": "uint256"
						}
					],
					"name": "E00020001",
					"outputs": [],
					"stateMutability": "nonpayable",
					"type": "function"
				},
				{
					"inputs": [
						{
							"internalType": "string",
							"name": "_eventId",
							"type": "string"
						}
					],
					"name": "getTransaction",
					"outputs": [
						{
							"internalType": "string",
							"name": "",
							"type": "string"
						},
						{
							"internalType": "string",
							"name": "",
							"type": "string"
						},
						{
							"internalType": "address",
							"name": "",
							"type": "address"
						}
					],
					"stateMutability": "view",
					"type": "function"
				},
				{
					"inputs": [
						{
							"internalType": "uint256",
							"name": "index",
							"type": "uint256"
						}
					],
					"name": "getTransactionEventId",
					"outputs": [
						{
							"internalType": "string",
							"name": "",
							"type": "string"
						}
					],
					"stateMutability": "view",
					"type": "function"
				},
				{
					"inputs": [
						{
							"internalType": "uint256",
							"name": "index",
							"type": "uint256"
						},
						{
							"internalType": "string",
							"name": "paramKey",
							"type": "string"
						}
					],
					"name": "getTransactionParam",
					"outputs": [
						{
							"internalType": "uint256",
							"name": "",
							"type": "uint256"
						}
					],
					"stateMutability": "view",
					"type": "function"
				},
				{
					"inputs": [
						{
							"internalType": "string",
							"name": "_eventId",
							"type": "string"
						},
						{
							"internalType": "string",
							"name": "_paramKey",
							"type": "string"
						}
					],
					"name": "getTransactionParamByEventId",
					"outputs": [
						{
							"internalType": "uint256",
							"name": "",
							"type": "uint256"
						}
					],
					"stateMutability": "view",
					"type": "function"
				},
				{
					"inputs": [
						{
							"internalType": "uint256",
							"name": "index",
							"type": "uint256"
						}
					],
					"name": "getTransactionType",
					"outputs": [
						{
							"internalType": "string",
							"name": "",
							"type": "string"
						}
					],
					"stateMutability": "view",
					"type": "function"
				},
				{
					"inputs": [],
					"name": "getTransactionsCount",
					"outputs": [
						{
							"internalType": "uint256",
							"name": "",
							"type": "uint256"
						}
					],
					"stateMutability": "view",
					"type": "function"
				},
				{
					"inputs": [
						{
							"internalType": "uint256",
							"name": "",
							"type": "uint256"
						}
					],
					"name": "transactions",
					"outputs": [
						{
							"internalType": "string",
							"name": "transactionType",
							"type": "string"
						},
						{
							"internalType": "string",
							"name": "eventId",
							"type": "string"
						},
						{
							"internalType": "address",
							"name": "Recorder",
							"type": "address"
						}
					],
					"stateMutability": "view",
					"type": "function"
				}
			],
			"devdoc": {
				"kind": "dev",
				"methods": {},
				"version": 1
			},
			"evm": {
				"assembly": "    /* \"eventTransactionRecord.sol\":58:6583  contract TransactionContract {... */\n  mstore(0x40, 0x80)\n  callvalue\n  dup1\n  iszero\n  tag_1\n  jumpi\n  0x00\n  dup1\n  revert\ntag_1:\n  pop\n  dataSize(sub_0)\n  dup1\n  dataOffset(sub_0)\n  0x00\n  codecopy\n  0x00\n  return\nstop\n\nsub_0: assembly {\n        /* \"eventTransactionRecord.sol\":58:6583  contract TransactionContract {... */\n      mstore(0x40, 0x80)\n      callvalue\n      dup1\n      iszero\n      tag_1\n      jumpi\n      0x00\n      dup1\n      revert\n    tag_1:\n      pop\n      jumpi(tag_2, lt(calldatasize, 0x04))\n      shr(0xe0, calldataload(0x00))\n      dup1\n      0xb89da5ab\n      gt\n      tag_17\n      jumpi\n      dup1\n      0xd6fa22b9\n      gt\n      tag_18\n      jumpi\n      dup1\n      0xd6fa22b9\n      eq\n      tag_13\n      jumpi\n      dup1\n      0xd85637e7\n      eq\n      tag_14\n      jumpi\n      dup1\n      0xd88936ce\n      eq\n      tag_15\n      jumpi\n      dup1\n      0xe09576f0\n      eq\n      tag_16\n      jumpi\n      jump(tag_2)\n    tag_18:\n      dup1\n      0xb89da5ab\n      eq\n      tag_10\n      jumpi\n      dup1\n      0xc1c102e8\n      eq\n      tag_11\n      jumpi\n      dup1\n      0xc4f9ef20\n      eq\n      tag_12\n      jumpi\n      jump(tag_2)\n    tag_17:\n      dup1\n      0x9b4e3420\n      gt\n      tag_19\n      jumpi\n      dup1\n      0x9b4e3420\n      eq\n      tag_6\n      jumpi\n      dup1\n      0x9f2967c7\n      eq\n      tag_7\n      jumpi\n      dup1\n      0xa75458c2\n      eq\n      tag_8\n      jumpi\n      dup1\n      0xac2ccd07\n      eq\n      tag_9\n      jumpi\n      jump(tag_2)\n    tag_19:\n      dup1\n      0x578cb8f9\n      eq\n      tag_3\n      jumpi\n      dup1\n      0x606de0cb\n      eq\n      tag_4\n      jumpi\n      dup1\n      0x9ace38c2\n      eq\n      tag_5\n      jumpi\n    tag_2:\n      0x00\n      dup1\n      revert\n        /* \"eventTransactionRecord.sol\":5768:5873  function getTransactionsCount() public view returns (uint256) {... */\n    tag_3:\n      tag_20\n      tag_21\n      jump\t// in\n    tag_20:\n      mload(0x40)\n      tag_22\n      swap2\n      swap1\n      tag_23\n      jump\t// in\n    tag_22:\n      mload(0x40)\n      dup1\n      swap2\n      sub\n      swap1\n      return\n        /* \"eventTransactionRecord.sol\":2994:3693  function E00010005(string memory _eventId, uint256 _EP001, uint256 _EP002, uint256 _EP003, uint256 _EP004, uint256 _EP006) public {... */\n    tag_4:\n      tag_24\n      0x04\n      dup1\n      calldatasize\n      sub\n      dup2\n      add\n      swap1\n      tag_25\n      swap2\n      swap1\n      tag_26\n      jump\t// in\n    tag_25:\n      tag_27\n      jump\t// in\n    tag_24:\n      stop\n        /* \"eventTransactionRecord.sol\":258:291  Transaction[] public transactions */\n    tag_5:\n      tag_28\n      0x04\n      dup1\n      calldatasize\n      sub\n      dup2\n      add\n      swap1\n      tag_29\n      swap2\n      swap1\n      tag_30\n      jump\t// in\n    tag_29:\n      tag_31\n      jump\t// in\n    tag_28:\n      mload(0x40)\n      tag_32\n      swap4\n      swap3\n      swap2\n      swap1\n      tag_33\n      jump\t// in\n    tag_32:\n      mload(0x40)\n      dup1\n      swap2\n      sub\n      swap1\n      return\n        /* \"eventTransactionRecord.sol\":6023:6156  function getTransactionEventId(uint256 index) public view returns (string memory) {... */\n    tag_6:\n      tag_34\n      0x04\n      dup1\n      calldatasize\n      sub\n      dup2\n      add\n      swap1\n      tag_35\n      swap2\n      swap1\n      tag_30\n      jump\t// in\n    tag_35:\n      tag_36\n      jump\t// in\n    tag_34:\n      mload(0x40)\n      tag_37\n      swap2\n      swap1\n      tag_38\n      jump\t// in\n    tag_37:\n      mload(0x40)\n      dup1\n      swap2\n      sub\n      swap1\n      return\n        /* \"eventTransactionRecord.sol\":4402:5029  function E00020001(string memory _eventId, uint256 _EP001, uint256 _EP002, uint256 _BTC, uint256 _USDT) public {... */\n    tag_7:\n      tag_39\n      0x04\n      dup1\n      calldatasize\n      sub\n      dup2\n      add\n      swap1\n      tag_40\n      swap2\n      swap1\n      tag_41\n      jump\t// in\n    tag_40:\n      tag_42\n      jump\t// in\n    tag_39:\n      stop\n        /* \"eventTransactionRecord.sol\":3699:4396  function E00010006(string memory _eventId, uint256 _EP001, uint256 _EP002, uint256 _EP003,uint256 _EP004, uint256 _EP006) public {... */\n    tag_8:\n      tag_43\n      0x04\n      dup1\n      calldatasize\n      sub\n      dup2\n      add\n      swap1\n      tag_44\n      swap2\n      swap1\n      tag_26\n      jump\t// in\n    tag_44:\n      tag_45\n      jump\t// in\n    tag_43:\n      stop\n        /* \"eventTransactionRecord.sol\":5039:5358  function getTransaction(string memory _eventId) public view returns (string memory, string memory, address) {... */\n    tag_9:\n      tag_46\n      0x04\n      dup1\n      calldatasize\n      sub\n      dup2\n      add\n      swap1\n      tag_47\n      swap2\n      swap1\n      tag_48\n      jump\t// in\n    tag_47:\n      tag_49\n      jump\t// in\n    tag_46:\n      mload(0x40)\n      tag_50\n      swap4\n      swap3\n      swap2\n      swap1\n      tag_33\n      jump\t// in\n    tag_50:\n      mload(0x40)\n      dup1\n      swap2\n      sub\n      swap1\n      return\n        /* \"eventTransactionRecord.sol\":6162:6320  function getTransactionParam(uint256 index, string memory paramKey) public view returns (uint256) {... */\n    tag_10:\n      tag_51\n      0x04\n      dup1\n      calldatasize\n      sub\n      dup2\n      add\n      swap1\n      tag_52\n      swap2\n      swap1\n      tag_53\n      jump\t// in\n    tag_52:\n      tag_54\n      jump\t// in\n    tag_51:\n      mload(0x40)\n      tag_55\n      swap2\n      swap1\n      tag_23\n      jump\t// in\n    tag_55:\n      mload(0x40)\n      dup1\n      swap2\n      sub\n      swap1\n      return\n        /* \"eventTransactionRecord.sol\":1584:2221  function E00010003(string memory _eventId, uint256 _EP001, uint256 _EP002, uint256 _EP003, uint256 _EP005) public {... */\n    tag_11:\n      tag_56\n      0x04\n      dup1\n      calldatasize\n      sub\n      dup2\n      add\n      swap1\n      tag_57\n      swap2\n      swap1\n      tag_41\n      jump\t// in\n    tag_57:\n      tag_58\n      jump\t// in\n    tag_56:\n      stop\n        /* \"eventTransactionRecord.sol\":298:935  function E00010001(string memory _eventId, uint256 _EP001, uint256 _EP002, uint256 _EP003, uint256 _EP005) public {... */\n    tag_12:\n      tag_59\n      0x04\n      dup1\n      calldatasize\n      sub\n      dup2\n      add\n      swap1\n      tag_60\n      swap2\n      swap1\n      tag_41\n      jump\t// in\n    tag_60:\n      tag_61\n      jump\t// in\n    tag_59:\n      stop\n        /* \"eventTransactionRecord.sol\":6325:6564  function getTransactionParamByEventId(string memory _eventId, string memory _paramKey) public view returns (uint256) {... */\n    tag_13:\n      tag_62\n      0x04\n      dup1\n      calldatasize\n      sub\n      dup2\n      add\n      swap1\n      tag_63\n      swap2\n      swap1\n      tag_64\n      jump\t// in\n    tag_63:\n      tag_65\n      jump\t// in\n    tag_62:\n      mload(0x40)\n      tag_66\n      swap2\n      swap1\n      tag_23\n      jump\t// in\n    tag_66:\n      mload(0x40)\n      dup1\n      swap2\n      sub\n      swap1\n      return\n        /* \"eventTransactionRecord.sol\":2227:2988  function E00010004(string memory _eventId, uint256 _EP001, uint256 _EP002, uint256 _EP003, uint256 _EP004, uint256 _EP006, uint256 _EP007) public {... */\n    tag_14:\n      tag_67\n      0x04\n      dup1\n      calldatasize\n      sub\n      dup2\n      add\n      swap1\n      tag_68\n      swap2\n      swap1\n      tag_69\n      jump\t// in\n    tag_68:\n      tag_70\n      jump\t// in\n    tag_67:\n      stop\n        /* \"eventTransactionRecord.sol\":941:1578  function E00010002(string memory _eventId, uint256 _EP001, uint256 _EP002, uint256 _EP003, uint256 _EP005) public {... */\n    tag_15:\n      tag_71\n      0x04\n      dup1\n      calldatasize\n      sub\n      dup2\n      add\n      swap1\n      tag_72\n      swap2\n      swap1\n      tag_41\n      jump\t// in\n    tag_72:\n      tag_73\n      jump\t// in\n    tag_71:\n      stop\n        /* \"eventTransactionRecord.sol\":5879:6017  function getTransactionType(uint256 index) public view returns (string memory) {... */\n    tag_16:\n      tag_74\n      0x04\n      dup1\n      calldatasize\n      sub\n      dup2\n      add\n      swap1\n      tag_75\n      swap2\n      swap1\n      tag_30\n      jump\t// in\n    tag_75:\n      tag_76\n      jump\t// in\n    tag_74:\n      mload(0x40)\n      tag_77\n      swap2\n      swap1\n      tag_38\n      jump\t// in\n    tag_77:\n      mload(0x40)\n      dup1\n      swap2\n      sub\n      swap1\n      return\n        /* \"eventTransactionRecord.sol\":5768:5873  function getTransactionsCount() public view returns (uint256) {... */\n    tag_21:\n        /* \"eventTransactionRecord.sol\":5821:5828  uint256 */\n      0x00\n        /* \"eventTransactionRecord.sol\":5847:5859  transactions */\n      dup1\n        /* \"eventTransactionRecord.sol\":5847:5866  transactions.length */\n      dup1\n      sload\n      swap1\n      pop\n        /* \"eventTransactionRecord.sol\":5840:5866  return transactions.length */\n      swap1\n      pop\n        /* \"eventTransactionRecord.sol\":5768:5873  function getTransactionsCount() public view returns (uint256) {... */\n      swap1\n      jump\t// out\n        /* \"eventTransactionRecord.sol\":2994:3693  function E00010005(string memory _eventId, uint256 _EP001, uint256 _EP002, uint256 _EP003, uint256 _EP004, uint256 _EP006) public {... */\n    tag_27:\n        /* \"eventTransactionRecord.sol\":3134:3147  uint256 index */\n      0x00\n        /* \"eventTransactionRecord.sol\":3150:3162  transactions */\n      dup1\n        /* \"eventTransactionRecord.sol\":3150:3169  transactions.length */\n      dup1\n      sload\n      swap1\n      pop\n        /* \"eventTransactionRecord.sol\":3134:3169  uint256 index = transactions.length */\n      swap1\n      pop\n        /* \"eventTransactionRecord.sol\":3179:3191  transactions */\n      0x00\n        /* \"eventTransactionRecord.sol\":3179:3198  transactions.push() */\n      0x01\n      dup2\n      0x01\n      dup2\n      sload\n      add\n      dup1\n      dup3\n      sstore\n      dup1\n      swap2\n      pop\n      pop\n      sub\n      swap1\n      0x00\n      mstore\n      keccak256(0x00, 0x20)\n      swap1\n      pop\n      pop\n        /* \"eventTransactionRecord.sol\":3208:3239  Transaction storage transaction */\n      0x00\n        /* \"eventTransactionRecord.sol\":3242:3254  transactions */\n      dup1\n        /* \"eventTransactionRecord.sol\":3255:3260  index */\n      dup3\n        /* \"eventTransactionRecord.sol\":3242:3261  transactions[index] */\n      dup2\n      sload\n      dup2\n      lt\n      tag_81\n      jumpi\n      tag_82\n      tag_83\n      jump\t// in\n    tag_82:\n    tag_81:\n      swap1\n      0x00\n      mstore\n      keccak256(0x00, 0x20)\n      swap1\n      0x04\n      mul\n      add\n        /* \"eventTransactionRecord.sol\":3208:3261  Transaction storage transaction = transactions[index] */\n      swap1\n      pop\n        /* \"eventTransactionRecord.sol\":3272:3313  transaction.transactionType = \"E00010005\" */\n      mload(0x40)\n      dup1\n      0x40\n      add\n      0x40\n      mstore\n      dup1\n      0x09\n      dup2\n      mstore\n      0x20\n      add\n      0x4530303031303030350000000000000000000000000000000000000000000000\n      dup2\n      mstore\n      pop\n        /* \"eventTransactionRecord.sol\":3272:3283  transaction */\n      dup2\n        /* \"eventTransactionRecord.sol\":3272:3299  transaction.transactionType */\n      0x00\n      add\n        /* \"eventTransactionRecord.sol\":3272:3313  transaction.transactionType = \"E00010005\" */\n      swap1\n      dup2\n      tag_85\n      swap2\n      swap1\n      tag_86\n      jump\t// in\n    tag_85:\n      pop\n        /* \"eventTransactionRecord.sol\":3345:3353  _eventId */\n      dup8\n        /* \"eventTransactionRecord.sol\":3323:3334  transaction */\n      dup2\n        /* \"eventTransactionRecord.sol\":3323:3342  transaction.eventId */\n      0x01\n      add\n        /* \"eventTransactionRecord.sol\":3323:3353  transaction.eventId = _eventId */\n      swap1\n      dup2\n      tag_87\n      swap2\n      swap1\n      tag_86\n      jump\t// in\n    tag_87:\n      pop\n        /* \"eventTransactionRecord.sol\":3386:3396  msg.sender */\n      caller\n        /* \"eventTransactionRecord.sol\":3363:3374  transaction */\n      dup2\n        /* \"eventTransactionRecord.sol\":3363:3383  transaction.Recorder */\n      0x02\n      add\n      0x00\n        /* \"eventTransactionRecord.sol\":3363:3396  transaction.Recorder = msg.sender */\n      0x0100\n      exp\n      dup2\n      sload\n      dup2\n      0xffffffffffffffffffffffffffffffffffffffff\n      mul\n      not\n      and\n      swap1\n      dup4\n      0xffffffffffffffffffffffffffffffffffffffff\n      and\n      mul\n      or\n      swap1\n      sstore\n      pop\n        /* \"eventTransactionRecord.sol\":3436:3442  _EP001 */\n      dup7\n        /* \"eventTransactionRecord.sol\":3406:3417  transaction */\n      dup2\n        /* \"eventTransactionRecord.sol\":3406:3424  transaction.params */\n      0x03\n      add\n        /* \"eventTransactionRecord.sol\":3406:3433  transaction.params[\"EP001\"] */\n      mload(0x40)\n      tag_88\n      swap1\n      tag_89\n      jump\t// in\n    tag_88:\n      swap1\n      dup2\n      mstore\n      0x20\n      add\n      mload(0x40)\n      dup1\n      swap2\n      sub\n      swap1\n      keccak256\n        /* \"eventTransactionRecord.sol\":3406:3442  transaction.params[\"EP001\"] = _EP001 */\n      dup2\n      swap1\n      sstore\n      pop\n        /* \"eventTransactionRecord.sol\":3482:3488  _EP002 */\n      dup6\n        /* \"eventTransactionRecord.sol\":3452:3463  transaction */\n      dup2\n        /* \"eventTransactionRecord.sol\":3452:3470  transaction.params */\n      0x03\n      add\n        /* \"eventTransactionRecord.sol\":3452:3479  transaction.params[\"EP002\"] */\n      mload(0x40)\n      tag_90\n      swap1\n      tag_91\n      jump\t// in\n    tag_90:\n      swap1\n      dup2\n      mstore\n      0x20\n      add\n      mload(0x40)\n      dup1\n      swap2\n      sub\n      swap1\n      keccak256\n        /* \"eventTransactionRecord.sol\":3452:3488  transaction.params[\"EP002\"] = _EP002 */\n      dup2\n      swap1\n      sstore\n      pop\n        /* \"eventTransactionRecord.sol\":3528:3534  _EP003 */\n      dup5\n        /* \"eventTransactionRecord.sol\":3498:3509  transaction */\n      dup2\n        /* \"eventTransactionRecord.sol\":3498:3516  transaction.params */\n      0x03\n      add\n        /* \"eventTransactionRecord.sol\":3498:3525  transaction.params[\"EP003\"] */\n      mload(0x40)\n      tag_92\n      swap1\n      tag_93\n      jump\t// in\n    tag_92:\n      swap1\n      dup2\n      mstore\n      0x20\n      add\n      mload(0x40)\n      dup1\n      swap2\n      sub\n      swap1\n      keccak256\n        /* \"eventTransactionRecord.sol\":3498:3534  transaction.params[\"EP003\"] = _EP003 */\n      dup2\n      swap1\n      sstore\n      pop\n        /* \"eventTransactionRecord.sol\":3574:3580  _EP004 */\n      dup4\n        /* \"eventTransactionRecord.sol\":3544:3555  transaction */\n      dup2\n        /* \"eventTransactionRecord.sol\":3544:3562  transaction.params */\n      0x03\n      add\n        /* \"eventTransactionRecord.sol\":3544:3571  transaction.params[\"EP004\"] */\n      mload(0x40)\n      tag_94\n      swap1\n      tag_95\n      jump\t// in\n    tag_94:\n      swap1\n      dup2\n      mstore\n      0x20\n      add\n      mload(0x40)\n      dup1\n      swap2\n      sub\n      swap1\n      keccak256\n        /* \"eventTransactionRecord.sol\":3544:3580  transaction.params[\"EP004\"] = _EP004 */\n      dup2\n      swap1\n      sstore\n      pop\n        /* \"eventTransactionRecord.sol\":3625:3640  block.timestamp */\n      timestamp\n        /* \"eventTransactionRecord.sol\":3590:3601  transaction */\n      dup2\n        /* \"eventTransactionRecord.sol\":3590:3608  transaction.params */\n      0x03\n      add\n        /* \"eventTransactionRecord.sol\":3590:3622  transaction.params[\"trans_time\"] */\n      mload(0x40)\n      tag_96\n      swap1\n      tag_97\n      jump\t// in\n    tag_96:\n      swap1\n      dup2\n      mstore\n      0x20\n      add\n      mload(0x40)\n      dup1\n      swap2\n      sub\n      swap1\n      keccak256\n        /* \"eventTransactionRecord.sol\":3590:3640  transaction.params[\"trans_time\"] = block.timestamp */\n      dup2\n      swap1\n      sstore\n      pop\n        /* \"eventTransactionRecord.sol\":3680:3686  _EP006 */\n      dup3\n        /* \"eventTransactionRecord.sol\":3650:3661  transaction */\n      dup2\n        /* \"eventTransactionRecord.sol\":3650:3668  transaction.params */\n      0x03\n      add\n        /* \"eventTransactionRecord.sol\":3650:3677  transaction.params[\"EP006\"] */\n      mload(0x40)\n      tag_98\n      swap1\n      tag_99\n      jump\t// in\n    tag_98:\n      swap1\n      dup2\n      mstore\n      0x20\n      add\n      mload(0x40)\n      dup1\n      swap2\n      sub\n      swap1\n      keccak256\n        /* \"eventTransactionRecord.sol\":3650:3686  transaction.params[\"EP006\"] = _EP006 */\n      dup2\n      swap1\n      sstore\n      pop\n        /* \"eventTransactionRecord.sol\":3124:3693  {... */\n      pop\n      pop\n        /* \"eventTransactionRecord.sol\":2994:3693  function E00010005(string memory _eventId, uint256 _EP001, uint256 _EP002, uint256 _EP003, uint256 _EP004, uint256 _EP006) public {... */\n      pop\n      pop\n      pop\n      pop\n      pop\n      pop\n      jump\t// out\n        /* \"eventTransactionRecord.sol\":258:291  Transaction[] public transactions */\n    tag_31:\n      0x00\n      dup2\n      dup2\n      sload\n      dup2\n      lt\n      tag_100\n      jumpi\n      0x00\n      dup1\n      revert\n    tag_100:\n      swap1\n      0x00\n      mstore\n      keccak256(0x00, 0x20)\n      swap1\n      0x04\n      mul\n      add\n      0x00\n      swap2\n      pop\n      swap1\n      pop\n      dup1\n      0x00\n      add\n      dup1\n      sload\n      tag_102\n      swap1\n      tag_103\n      jump\t// in\n    tag_102:\n      dup1\n      0x1f\n      add\n      0x20\n      dup1\n      swap2\n      div\n      mul\n      0x20\n      add\n      mload(0x40)\n      swap1\n      dup2\n      add\n      0x40\n      mstore\n      dup1\n      swap3\n      swap2\n      swap1\n      dup2\n      dup2\n      mstore\n      0x20\n      add\n      dup3\n      dup1\n      sload\n      tag_104\n      swap1\n      tag_103\n      jump\t// in\n    tag_104:\n      dup1\n      iszero\n      tag_105\n      jumpi\n      dup1\n      0x1f\n      lt\n      tag_106\n      jumpi\n      0x0100\n      dup1\n      dup4\n      sload\n      div\n      mul\n      dup4\n      mstore\n      swap2\n      0x20\n      add\n      swap2\n      jump(tag_105)\n    tag_106:\n      dup3\n      add\n      swap2\n      swap1\n      0x00\n      mstore\n      keccak256(0x00, 0x20)\n      swap1\n    tag_107:\n      dup2\n      sload\n      dup2\n      mstore\n      swap1\n      0x01\n      add\n      swap1\n      0x20\n      add\n      dup1\n      dup4\n      gt\n      tag_107\n      jumpi\n      dup3\n      swap1\n      sub\n      0x1f\n      and\n      dup3\n      add\n      swap2\n    tag_105:\n      pop\n      pop\n      pop\n      pop\n      pop\n      swap1\n      dup1\n      0x01\n      add\n      dup1\n      sload\n      tag_108\n      swap1\n      tag_103\n      jump\t// in\n    tag_108:\n      dup1\n      0x1f\n      add\n      0x20\n      dup1\n      swap2\n      div\n      mul\n      0x20\n      add\n      mload(0x40)\n      swap1\n      dup2\n      add\n      0x40\n      mstore\n      dup1\n      swap3\n      swap2\n      swap1\n      dup2\n      dup2\n      mstore\n      0x20\n      add\n      dup3\n      dup1\n      sload\n      tag_109\n      swap1\n      tag_103\n      jump\t// in\n    tag_109:\n      dup1\n      iszero\n      tag_110\n      jumpi\n      dup1\n      0x1f\n      lt\n      tag_111\n      jumpi\n      0x0100\n      dup1\n      dup4\n      sload\n      div\n      mul\n      dup4\n      mstore\n      swap2\n      0x20\n      add\n      swap2\n      jump(tag_110)\n    tag_111:\n      dup3\n      add\n      swap2\n      swap1\n      0x00\n      mstore\n      keccak256(0x00, 0x20)\n      swap1\n    tag_112:\n      dup2\n      sload\n      dup2\n      mstore\n      swap1\n      0x01\n      add\n      swap1\n      0x20\n      add\n      dup1\n      dup4\n      gt\n      tag_112\n      jumpi\n      dup3\n      swap1\n      sub\n      0x1f\n      and\n      dup3\n      add\n      swap2\n    tag_110:\n      pop\n      pop\n      pop\n      pop\n      pop\n      swap1\n      dup1\n      0x02\n      add\n      0x00\n      swap1\n      sload\n      swap1\n      0x0100\n      exp\n      swap1\n      div\n      0xffffffffffffffffffffffffffffffffffffffff\n      and\n      swap1\n      pop\n      dup4\n      jump\t// out\n        /* \"eventTransactionRecord.sol\":6023:6156  function getTransactionEventId(uint256 index) public view returns (string memory) {... */\n    tag_36:\n        /* \"eventTransactionRecord.sol\":6090:6103  string memory */\n      0x60\n        /* \"eventTransactionRecord.sol\":6122:6134  transactions */\n      0x00\n        /* \"eventTransactionRecord.sol\":6135:6140  index */\n      dup3\n        /* \"eventTransactionRecord.sol\":6122:6141  transactions[index] */\n      dup2\n      sload\n      dup2\n      lt\n      tag_114\n      jumpi\n      tag_115\n      tag_83\n      jump\t// in\n    tag_115:\n    tag_114:\n      swap1\n      0x00\n      mstore\n      keccak256(0x00, 0x20)\n      swap1\n      0x04\n      mul\n      add\n        /* \"eventTransactionRecord.sol\":6122:6149  transactions[index].eventId */\n      0x01\n      add\n        /* \"eventTransactionRecord.sol\":6115:6149  return transactions[index].eventId */\n      dup1\n      sload\n      tag_117\n      swap1\n      tag_103\n      jump\t// in\n    tag_117:\n      dup1\n      0x1f\n      add\n      0x20\n      dup1\n      swap2\n      div\n      mul\n      0x20\n      add\n      mload(0x40)\n      swap1\n      dup2\n      add\n      0x40\n      mstore\n      dup1\n      swap3\n      swap2\n      swap1\n      dup2\n      dup2\n      mstore\n      0x20\n      add\n      dup3\n      dup1\n      sload\n      tag_118\n      swap1\n      tag_103\n      jump\t// in\n    tag_118:\n      dup1\n      iszero\n      tag_119\n      jumpi\n      dup1\n      0x1f\n      lt\n      tag_120\n      jumpi\n      0x0100\n      dup1\n      dup4\n      sload\n      div\n      mul\n      dup4\n      mstore\n      swap2\n      0x20\n      add\n      swap2\n      jump(tag_119)\n    tag_120:\n      dup3\n      add\n      swap2\n      swap1\n      0x00\n      mstore\n      keccak256(0x00, 0x20)\n      swap1\n    tag_121:\n      dup2\n      sload\n      dup2\n      mstore\n      swap1\n      0x01\n      add\n      swap1\n      0x20\n      add\n      dup1\n      dup4\n      gt\n      tag_121\n      jumpi\n      dup3\n      swap1\n      sub\n      0x1f\n      and\n      dup3\n      add\n      swap2\n    tag_119:\n      pop\n      pop\n      pop\n      pop\n      pop\n      swap1\n      pop\n        /* \"eventTransactionRecord.sol\":6023:6156  function getTransactionEventId(uint256 index) public view returns (string memory) {... */\n      swap2\n      swap1\n      pop\n      jump\t// out\n        /* \"eventTransactionRecord.sol\":4402:5029  function E00020001(string memory _eventId, uint256 _EP001, uint256 _EP002, uint256 _BTC, uint256 _USDT) public {... */\n    tag_42:\n        /* \"eventTransactionRecord.sol\":4522:4535  uint256 index */\n      0x00\n        /* \"eventTransactionRecord.sol\":4538:4550  transactions */\n      dup1\n        /* \"eventTransactionRecord.sol\":4538:4557  transactions.length */\n      dup1\n      sload\n      swap1\n      pop\n        /* \"eventTransactionRecord.sol\":4522:4557  uint256 index = transactions.length */\n      swap1\n      pop\n        /* \"eventTransactionRecord.sol\":4567:4579  transactions */\n      0x00\n        /* \"eventTransactionRecord.sol\":4567:4586  transactions.push() */\n      0x01\n      dup2\n      0x01\n      dup2\n      sload\n      add\n      dup1\n      dup3\n      sstore\n      dup1\n      swap2\n      pop\n      pop\n      sub\n      swap1\n      0x00\n      mstore\n      keccak256(0x00, 0x20)\n      swap1\n      pop\n      pop\n        /* \"eventTransactionRecord.sol\":4596:4627  Transaction storage transaction */\n      0x00\n        /* \"eventTransactionRecord.sol\":4630:4642  transactions */\n      dup1\n        /* \"eventTransactionRecord.sol\":4643:4648  index */\n      dup3\n        /* \"eventTransactionRecord.sol\":4630:4649  transactions[index] */\n      dup2\n      sload\n      dup2\n      lt\n      tag_124\n      jumpi\n      tag_125\n      tag_83\n      jump\t// in\n    tag_125:\n    tag_124:\n      swap1\n      0x00\n      mstore\n      keccak256(0x00, 0x20)\n      swap1\n      0x04\n      mul\n      add\n        /* \"eventTransactionRecord.sol\":4596:4649  Transaction storage transaction = transactions[index] */\n      swap1\n      pop\n        /* \"eventTransactionRecord.sol\":4660:4701  transaction.transactionType = \"E00020001\" */\n      mload(0x40)\n      dup1\n      0x40\n      add\n      0x40\n      mstore\n      dup1\n      0x09\n      dup2\n      mstore\n      0x20\n      add\n      0x4530303032303030310000000000000000000000000000000000000000000000\n      dup2\n      mstore\n      pop\n        /* \"eventTransactionRecord.sol\":4660:4671  transaction */\n      dup2\n        /* \"eventTransactionRecord.sol\":4660:4687  transaction.transactionType */\n      0x00\n      add\n        /* \"eventTransactionRecord.sol\":4660:4701  transaction.transactionType = \"E00020001\" */\n      swap1\n      dup2\n      tag_127\n      swap2\n      swap1\n      tag_86\n      jump\t// in\n    tag_127:\n      pop\n        /* \"eventTransactionRecord.sol\":4733:4741  _eventId */\n      dup7\n        /* \"eventTransactionRecord.sol\":4711:4722  transaction */\n      dup2\n        /* \"eventTransactionRecord.sol\":4711:4730  transaction.eventId */\n      0x01\n      add\n        /* \"eventTransactionRecord.sol\":4711:4741  transaction.eventId = _eventId */\n      swap1\n      dup2\n      tag_128\n      swap2\n      swap1\n      tag_86\n      jump\t// in\n    tag_128:\n      pop\n        /* \"eventTransactionRecord.sol\":4774:4784  msg.sender */\n      caller\n        /* \"eventTransactionRecord.sol\":4751:4762  transaction */\n      dup2\n        /* \"eventTransactionRecord.sol\":4751:4771  transaction.Recorder */\n      0x02\n      add\n      0x00\n        /* \"eventTransactionRecord.sol\":4751:4784  transaction.Recorder = msg.sender */\n      0x0100\n      exp\n      dup2\n      sload\n      dup2\n      0xffffffffffffffffffffffffffffffffffffffff\n      mul\n      not\n      and\n      swap1\n      dup4\n      0xffffffffffffffffffffffffffffffffffffffff\n      and\n      mul\n      or\n      swap1\n      sstore\n      pop\n        /* \"eventTransactionRecord.sol\":4824:4830  _EP001 */\n      dup6\n        /* \"eventTransactionRecord.sol\":4794:4805  transaction */\n      dup2\n        /* \"eventTransactionRecord.sol\":4794:4812  transaction.params */\n      0x03\n      add\n        /* \"eventTransactionRecord.sol\":4794:4821  transaction.params[\"EP001\"] */\n      mload(0x40)\n      tag_129\n      swap1\n      tag_89\n      jump\t// in\n    tag_129:\n      swap1\n      dup2\n      mstore\n      0x20\n      add\n      mload(0x40)\n      dup1\n      swap2\n      sub\n      swap1\n      keccak256\n        /* \"eventTransactionRecord.sol\":4794:4830  transaction.params[\"EP001\"] = _EP001 */\n      dup2\n      swap1\n      sstore\n      pop\n        /* \"eventTransactionRecord.sol\":4870:4876  _EP002 */\n      dup5\n        /* \"eventTransactionRecord.sol\":4840:4851  transaction */\n      dup2\n        /* \"eventTransactionRecord.sol\":4840:4858  transaction.params */\n      0x03\n      add\n        /* \"eventTransactionRecord.sol\":4840:4867  transaction.params[\"EP002\"] */\n      mload(0x40)\n      tag_130\n      swap1\n      tag_91\n      jump\t// in\n    tag_130:\n      swap1\n      dup2\n      mstore\n      0x20\n      add\n      mload(0x40)\n      dup1\n      swap2\n      sub\n      swap1\n      keccak256\n        /* \"eventTransactionRecord.sol\":4840:4876  transaction.params[\"EP002\"] = _EP002 */\n      dup2\n      swap1\n      sstore\n      pop\n        /* \"eventTransactionRecord.sol\":4914:4918  _BTC */\n      dup4\n        /* \"eventTransactionRecord.sol\":4886:4897  transaction */\n      dup2\n        /* \"eventTransactionRecord.sol\":4886:4904  transaction.params */\n      0x03\n      add\n        /* \"eventTransactionRecord.sol\":4886:4911  transaction.params[\"BTC\"] */\n      mload(0x40)\n      tag_131\n      swap1\n      tag_132\n      jump\t// in\n    tag_131:\n      swap1\n      dup2\n      mstore\n      0x20\n      add\n      mload(0x40)\n      dup1\n      swap2\n      sub\n      swap1\n      keccak256\n        /* \"eventTransactionRecord.sol\":4886:4918  transaction.params[\"BTC\"] = _BTC */\n      dup2\n      swap1\n      sstore\n      pop\n        /* \"eventTransactionRecord.sol\":4957:4962  _USDT */\n      dup3\n        /* \"eventTransactionRecord.sol\":4928:4939  transaction */\n      dup2\n        /* \"eventTransactionRecord.sol\":4928:4946  transaction.params */\n      0x03\n      add\n        /* \"eventTransactionRecord.sol\":4928:4954  transaction.params[\"USDT\"] */\n      mload(0x40)\n      tag_133\n      swap1\n      tag_134\n      jump\t// in\n    tag_133:\n      swap1\n      dup2\n      mstore\n      0x20\n      add\n      mload(0x40)\n      dup1\n      swap2\n      sub\n      swap1\n      keccak256\n        /* \"eventTransactionRecord.sol\":4928:4962  transaction.params[\"USDT\"] = _USDT */\n      dup2\n      swap1\n      sstore\n      pop\n        /* \"eventTransactionRecord.sol\":5007:5022  block.timestamp */\n      timestamp\n        /* \"eventTransactionRecord.sol\":4972:4983  transaction */\n      dup2\n        /* \"eventTransactionRecord.sol\":4972:4990  transaction.params */\n      0x03\n      add\n        /* \"eventTransactionRecord.sol\":4972:5004  transaction.params[\"trans_time\"] */\n      mload(0x40)\n      tag_135\n      swap1\n      tag_97\n      jump\t// in\n    tag_135:\n      swap1\n      dup2\n      mstore\n      0x20\n      add\n      mload(0x40)\n      dup1\n      swap2\n      sub\n      swap1\n      keccak256\n        /* \"eventTransactionRecord.sol\":4972:5022  transaction.params[\"trans_time\"] = block.timestamp */\n      dup2\n      swap1\n      sstore\n      pop\n        /* \"eventTransactionRecord.sol\":4513:5029  {... */\n      pop\n      pop\n        /* \"eventTransactionRecord.sol\":4402:5029  function E00020001(string memory _eventId, uint256 _EP001, uint256 _EP002, uint256 _BTC, uint256 _USDT) public {... */\n      pop\n      pop\n      pop\n      pop\n      pop\n      jump\t// out\n        /* \"eventTransactionRecord.sol\":3699:4396  function E00010006(string memory _eventId, uint256 _EP001, uint256 _EP002, uint256 _EP003,uint256 _EP004, uint256 _EP006) public {... */\n    tag_45:\n        /* \"eventTransactionRecord.sol\":3837:3850  uint256 index */\n      0x00\n        /* \"eventTransactionRecord.sol\":3853:3865  transactions */\n      dup1\n        /* \"eventTransactionRecord.sol\":3853:3872  transactions.length */\n      dup1\n      sload\n      swap1\n      pop\n        /* \"eventTransactionRecord.sol\":3837:3872  uint256 index = transactions.length */\n      swap1\n      pop\n        /* \"eventTransactionRecord.sol\":3882:3894  transactions */\n      0x00\n        /* \"eventTransactionRecord.sol\":3882:3901  transactions.push() */\n      0x01\n      dup2\n      0x01\n      dup2\n      sload\n      add\n      dup1\n      dup3\n      sstore\n      dup1\n      swap2\n      pop\n      pop\n      sub\n      swap1\n      0x00\n      mstore\n      keccak256(0x00, 0x20)\n      swap1\n      pop\n      pop\n        /* \"eventTransactionRecord.sol\":3911:3942  Transaction storage transaction */\n      0x00\n        /* \"eventTransactionRecord.sol\":3945:3957  transactions */\n      dup1\n        /* \"eventTransactionRecord.sol\":3958:3963  index */\n      dup3\n        /* \"eventTransactionRecord.sol\":3945:3964  transactions[index] */\n      dup2\n      sload\n      dup2\n      lt\n      tag_138\n      jumpi\n      tag_139\n      tag_83\n      jump\t// in\n    tag_139:\n    tag_138:\n      swap1\n      0x00\n      mstore\n      keccak256(0x00, 0x20)\n      swap1\n      0x04\n      mul\n      add\n        /* \"eventTransactionRecord.sol\":3911:3964  Transaction storage transaction = transactions[index] */\n      swap1\n      pop\n        /* \"eventTransactionRecord.sol\":3975:4016  transaction.transactionType = \"E00010005\" */\n      mload(0x40)\n      dup1\n      0x40\n      add\n      0x40\n      mstore\n      dup1\n      0x09\n      dup2\n      mstore\n      0x20\n      add\n      0x4530303031303030350000000000000000000000000000000000000000000000\n      dup2\n      mstore\n      pop\n        /* \"eventTransactionRecord.sol\":3975:3986  transaction */\n      dup2\n        /* \"eventTransactionRecord.sol\":3975:4002  transaction.transactionType */\n      0x00\n      add\n        /* \"eventTransactionRecord.sol\":3975:4016  transaction.transactionType = \"E00010005\" */\n      swap1\n      dup2\n      tag_141\n      swap2\n      swap1\n      tag_86\n      jump\t// in\n    tag_141:\n      pop\n        /* \"eventTransactionRecord.sol\":4048:4056  _eventId */\n      dup8\n        /* \"eventTransactionRecord.sol\":4026:4037  transaction */\n      dup2\n        /* \"eventTransactionRecord.sol\":4026:4045  transaction.eventId */\n      0x01\n      add\n        /* \"eventTransactionRecord.sol\":4026:4056  transaction.eventId = _eventId */\n      swap1\n      dup2\n      tag_142\n      swap2\n      swap1\n      tag_86\n      jump\t// in\n    tag_142:\n      pop\n        /* \"eventTransactionRecord.sol\":4089:4099  msg.sender */\n      caller\n        /* \"eventTransactionRecord.sol\":4066:4077  transaction */\n      dup2\n        /* \"eventTransactionRecord.sol\":4066:4086  transaction.Recorder */\n      0x02\n      add\n      0x00\n        /* \"eventTransactionRecord.sol\":4066:4099  transaction.Recorder = msg.sender */\n      0x0100\n      exp\n      dup2\n      sload\n      dup2\n      0xffffffffffffffffffffffffffffffffffffffff\n      mul\n      not\n      and\n      swap1\n      dup4\n      0xffffffffffffffffffffffffffffffffffffffff\n      and\n      mul\n      or\n      swap1\n      sstore\n      pop\n        /* \"eventTransactionRecord.sol\":4139:4145  _EP001 */\n      dup7\n        /* \"eventTransactionRecord.sol\":4109:4120  transaction */\n      dup2\n        /* \"eventTransactionRecord.sol\":4109:4127  transaction.params */\n      0x03\n      add\n        /* \"eventTransactionRecord.sol\":4109:4136  transaction.params[\"EP001\"] */\n      mload(0x40)\n      tag_143\n      swap1\n      tag_89\n      jump\t// in\n    tag_143:\n      swap1\n      dup2\n      mstore\n      0x20\n      add\n      mload(0x40)\n      dup1\n      swap2\n      sub\n      swap1\n      keccak256\n        /* \"eventTransactionRecord.sol\":4109:4145  transaction.params[\"EP001\"] = _EP001 */\n      dup2\n      swap1\n      sstore\n      pop\n        /* \"eventTransactionRecord.sol\":4185:4191  _EP002 */\n      dup6\n        /* \"eventTransactionRecord.sol\":4155:4166  transaction */\n      dup2\n        /* \"eventTransactionRecord.sol\":4155:4173  transaction.params */\n      0x03\n      add\n        /* \"eventTransactionRecord.sol\":4155:4182  transaction.params[\"EP002\"] */\n      mload(0x40)\n      tag_144\n      swap1\n      tag_91\n      jump\t// in\n    tag_144:\n      swap1\n      dup2\n      mstore\n      0x20\n      add\n      mload(0x40)\n      dup1\n      swap2\n      sub\n      swap1\n      keccak256\n        /* \"eventTransactionRecord.sol\":4155:4191  transaction.params[\"EP002\"] = _EP002 */\n      dup2\n      swap1\n      sstore\n      pop\n        /* \"eventTransactionRecord.sol\":4231:4237  _EP003 */\n      dup5\n        /* \"eventTransactionRecord.sol\":4201:4212  transaction */\n      dup2\n        /* \"eventTransactionRecord.sol\":4201:4219  transaction.params */\n      0x03\n      add\n        /* \"eventTransactionRecord.sol\":4201:4228  transaction.params[\"EP003\"] */\n      mload(0x40)\n      tag_145\n      swap1\n      tag_93\n      jump\t// in\n    tag_145:\n      swap1\n      dup2\n      mstore\n      0x20\n      add\n      mload(0x40)\n      dup1\n      swap2\n      sub\n      swap1\n      keccak256\n        /* \"eventTransactionRecord.sol\":4201:4237  transaction.params[\"EP003\"] = _EP003 */\n      dup2\n      swap1\n      sstore\n      pop\n        /* \"eventTransactionRecord.sol\":4277:4283  _EP004 */\n      dup4\n        /* \"eventTransactionRecord.sol\":4247:4258  transaction */\n      dup2\n        /* \"eventTransactionRecord.sol\":4247:4265  transaction.params */\n      0x03\n      add\n        /* \"eventTransactionRecord.sol\":4247:4274  transaction.params[\"EP004\"] */\n      mload(0x40)\n      tag_146\n      swap1\n      tag_95\n      jump\t// in\n    tag_146:\n      swap1\n      dup2\n      mstore\n      0x20\n      add\n      mload(0x40)\n      dup1\n      swap2\n      sub\n      swap1\n      keccak256\n        /* \"eventTransactionRecord.sol\":4247:4283  transaction.params[\"EP004\"] = _EP004 */\n      dup2\n      swap1\n      sstore\n      pop\n        /* \"eventTransactionRecord.sol\":4328:4343  block.timestamp */\n      timestamp\n        /* \"eventTransactionRecord.sol\":4293:4304  transaction */\n      dup2\n        /* \"eventTransactionRecord.sol\":4293:4311  transaction.params */\n      0x03\n      add\n        /* \"eventTransactionRecord.sol\":4293:4325  transaction.params[\"trans_time\"] */\n      mload(0x40)\n      tag_147\n      swap1\n      tag_97\n      jump\t// in\n    tag_147:\n      swap1\n      dup2\n      mstore\n      0x20\n      add\n      mload(0x40)\n      dup1\n      swap2\n      sub\n      swap1\n      keccak256\n        /* \"eventTransactionRecord.sol\":4293:4343  transaction.params[\"trans_time\"] = block.timestamp */\n      dup2\n      swap1\n      sstore\n      pop\n        /* \"eventTransactionRecord.sol\":4383:4389  _EP006 */\n      dup3\n        /* \"eventTransactionRecord.sol\":4353:4364  transaction */\n      dup2\n        /* \"eventTransactionRecord.sol\":4353:4371  transaction.params */\n      0x03\n      add\n        /* \"eventTransactionRecord.sol\":4353:4380  transaction.params[\"EP006\"] */\n      mload(0x40)\n      tag_148\n      swap1\n      tag_99\n      jump\t// in\n    tag_148:\n      swap1\n      dup2\n      mstore\n      0x20\n      add\n      mload(0x40)\n      dup1\n      swap2\n      sub\n      swap1\n      keccak256\n        /* \"eventTransactionRecord.sol\":4353:4389  transaction.params[\"EP006\"] = _EP006 */\n      dup2\n      swap1\n      sstore\n      pop\n        /* \"eventTransactionRecord.sol\":3828:4396  {... */\n      pop\n      pop\n        /* \"eventTransactionRecord.sol\":3699:4396  function E00010006(string memory _eventId, uint256 _EP001, uint256 _EP002, uint256 _EP003,uint256 _EP004, uint256 _EP006) public {... */\n      pop\n      pop\n      pop\n      pop\n      pop\n      pop\n      jump\t// out\n        /* \"eventTransactionRecord.sol\":5039:5358  function getTransaction(string memory _eventId) public view returns (string memory, string memory, address) {... */\n    tag_49:\n        /* \"eventTransactionRecord.sol\":5108:5121  string memory */\n      0x60\n        /* \"eventTransactionRecord.sol\":5123:5136  string memory */\n      dup1\n        /* \"eventTransactionRecord.sol\":5138:5145  address */\n      0x00\n        /* \"eventTransactionRecord.sol\":5157:5188  Transaction storage transaction */\n      dup1\n        /* \"eventTransactionRecord.sol\":5191:5216  findTransaction(_eventId) */\n      tag_150\n        /* \"eventTransactionRecord.sol\":5207:5215  _eventId */\n      dup6\n        /* \"eventTransactionRecord.sol\":5191:5206  findTransaction */\n      tag_151\n        /* \"eventTransactionRecord.sol\":5191:5216  findTransaction(_eventId) */\n      jump\t// in\n    tag_150:\n        /* \"eventTransactionRecord.sol\":5157:5216  Transaction storage transaction = findTransaction(_eventId) */\n      swap1\n      pop\n        /* \"eventTransactionRecord.sol\":5247:5258  transaction */\n      dup1\n        /* \"eventTransactionRecord.sol\":5247:5274  transaction.transactionType */\n      0x00\n      add\n        /* \"eventTransactionRecord.sol\":5288:5299  transaction */\n      dup2\n        /* \"eventTransactionRecord.sol\":5288:5307  transaction.eventId */\n      0x01\n      add\n        /* \"eventTransactionRecord.sol\":5321:5332  transaction */\n      dup3\n        /* \"eventTransactionRecord.sol\":5321:5341  transaction.Recorder */\n      0x02\n      add\n      0x00\n      swap1\n      sload\n      swap1\n      0x0100\n      exp\n      swap1\n      div\n      0xffffffffffffffffffffffffffffffffffffffff\n      and\n        /* \"eventTransactionRecord.sol\":5226:5351  return (... */\n      dup3\n      dup1\n      sload\n      tag_152\n      swap1\n      tag_103\n      jump\t// in\n    tag_152:\n      dup1\n      0x1f\n      add\n      0x20\n      dup1\n      swap2\n      div\n      mul\n      0x20\n      add\n      mload(0x40)\n      swap1\n      dup2\n      add\n      0x40\n      mstore\n      dup1\n      swap3\n      swap2\n      swap1\n      dup2\n      dup2\n      mstore\n      0x20\n      add\n      dup3\n      dup1\n      sload\n      tag_153\n      swap1\n      tag_103\n      jump\t// in\n    tag_153:\n      dup1\n      iszero\n      tag_154\n      jumpi\n      dup1\n      0x1f\n      lt\n      tag_155\n      jumpi\n      0x0100\n      dup1\n      dup4\n      sload\n      div\n      mul\n      dup4\n      mstore\n      swap2\n      0x20\n      add\n      swap2\n      jump(tag_154)\n    tag_155:\n      dup3\n      add\n      swap2\n      swap1\n      0x00\n      mstore\n      keccak256(0x00, 0x20)\n      swap1\n    tag_156:\n      dup2\n      sload\n      dup2\n      mstore\n      swap1\n      0x01\n      add\n      swap1\n      0x20\n      add\n      dup1\n      dup4\n      gt\n      tag_156\n      jumpi\n      dup3\n      swap1\n      sub\n      0x1f\n      and\n      dup3\n      add\n      swap2\n    tag_154:\n      pop\n      pop\n      pop\n      pop\n      pop\n      swap3\n      pop\n      dup2\n      dup1\n      sload\n      tag_157\n      swap1\n      tag_103\n      jump\t// in\n    tag_157:\n      dup1\n      0x1f\n      add\n      0x20\n      dup1\n      swap2\n      div\n      mul\n      0x20\n      add\n      mload(0x40)\n      swap1\n      dup2\n      add\n      0x40\n      mstore\n      dup1\n      swap3\n      swap2\n      swap1\n      dup2\n      dup2\n      mstore\n      0x20\n      add\n      dup3\n      dup1\n      sload\n      tag_158\n      swap1\n      tag_103\n      jump\t// in\n    tag_158:\n      dup1\n      iszero\n      tag_159\n      jumpi\n      dup1\n      0x1f\n      lt\n      tag_160\n      jumpi\n      0x0100\n      dup1\n      dup4\n      sload\n      div\n      mul\n      dup4\n      mstore\n      swap2\n      0x20\n      add\n      swap2\n      jump(tag_159)\n    tag_160:\n      dup3\n      add\n      swap2\n      swap1\n      0x00\n      mstore\n      keccak256(0x00, 0x20)\n      swap1\n    tag_161:\n      dup2\n      sload\n      dup2\n      mstore\n      swap1\n      0x01\n      add\n      swap1\n      0x20\n      add\n      dup1\n      dup4\n      gt\n      tag_161\n      jumpi\n      dup3\n      swap1\n      sub\n      0x1f\n      and\n      dup3\n      add\n      swap2\n    tag_159:\n      pop\n      pop\n      pop\n      pop\n      pop\n      swap2\n      pop\n      swap4\n      pop\n      swap4\n      pop\n      swap4\n      pop\n      pop\n        /* \"eventTransactionRecord.sol\":5039:5358  function getTransaction(string memory _eventId) public view returns (string memory, string memory, address) {... */\n      swap2\n      swap4\n      swap1\n      swap3\n      pop\n      jump\t// out\n        /* \"eventTransactionRecord.sol\":6162:6320  function getTransactionParam(uint256 index, string memory paramKey) public view returns (uint256) {... */\n    tag_54:\n        /* \"eventTransactionRecord.sol\":6251:6258  uint256 */\n      0x00\n        /* \"eventTransactionRecord.sol\":6277:6289  transactions */\n      dup1\n        /* \"eventTransactionRecord.sol\":6290:6295  index */\n      dup4\n        /* \"eventTransactionRecord.sol\":6277:6296  transactions[index] */\n      dup2\n      sload\n      dup2\n      lt\n      tag_163\n      jumpi\n      tag_164\n      tag_83\n      jump\t// in\n    tag_164:\n    tag_163:\n      swap1\n      0x00\n      mstore\n      keccak256(0x00, 0x20)\n      swap1\n      0x04\n      mul\n      add\n        /* \"eventTransactionRecord.sol\":6277:6303  transactions[index].params */\n      0x03\n      add\n        /* \"eventTransactionRecord.sol\":6304:6312  paramKey */\n      dup3\n        /* \"eventTransactionRecord.sol\":6277:6313  transactions[index].params[paramKey] */\n      mload(0x40)\n      tag_166\n      swap2\n      swap1\n      tag_167\n      jump\t// in\n    tag_166:\n      swap1\n      dup2\n      mstore\n      0x20\n      add\n      mload(0x40)\n      dup1\n      swap2\n      sub\n      swap1\n      keccak256\n      sload\n        /* \"eventTransactionRecord.sol\":6270:6313  return transactions[index].params[paramKey] */\n      swap1\n      pop\n        /* \"eventTransactionRecord.sol\":6162:6320  function getTransactionParam(uint256 index, string memory paramKey) public view returns (uint256) {... */\n      swap3\n      swap2\n      pop\n      pop\n      jump\t// out\n        /* \"eventTransactionRecord.sol\":1584:2221  function E00010003(string memory _eventId, uint256 _EP001, uint256 _EP002, uint256 _EP003, uint256 _EP005) public {... */\n    tag_58:\n        /* \"eventTransactionRecord.sol\":1708:1721  uint256 index */\n      0x00\n        /* \"eventTransactionRecord.sol\":1724:1736  transactions */\n      dup1\n        /* \"eventTransactionRecord.sol\":1724:1743  transactions.length */\n      dup1\n      sload\n      swap1\n      pop\n        /* \"eventTransactionRecord.sol\":1708:1743  uint256 index = transactions.length */\n      swap1\n      pop\n        /* \"eventTransactionRecord.sol\":1753:1765  transactions */\n      0x00\n        /* \"eventTransactionRecord.sol\":1753:1772  transactions.push() */\n      0x01\n      dup2\n      0x01\n      dup2\n      sload\n      add\n      dup1\n      dup3\n      sstore\n      dup1\n      swap2\n      pop\n      pop\n      sub\n      swap1\n      0x00\n      mstore\n      keccak256(0x00, 0x20)\n      swap1\n      pop\n      pop\n        /* \"eventTransactionRecord.sol\":1782:1813  Transaction storage transaction */\n      0x00\n        /* \"eventTransactionRecord.sol\":1816:1828  transactions */\n      dup1\n        /* \"eventTransactionRecord.sol\":1829:1834  index */\n      dup3\n        /* \"eventTransactionRecord.sol\":1816:1835  transactions[index] */\n      dup2\n      sload\n      dup2\n      lt\n      tag_170\n      jumpi\n      tag_171\n      tag_83\n      jump\t// in\n    tag_171:\n    tag_170:\n      swap1\n      0x00\n      mstore\n      keccak256(0x00, 0x20)\n      swap1\n      0x04\n      mul\n      add\n        /* \"eventTransactionRecord.sol\":1782:1835  Transaction storage transaction = transactions[index] */\n      swap1\n      pop\n        /* \"eventTransactionRecord.sol\":1846:1887  transaction.transactionType = \"E00010003\" */\n      mload(0x40)\n      dup1\n      0x40\n      add\n      0x40\n      mstore\n      dup1\n      0x09\n      dup2\n      mstore\n      0x20\n      add\n      0x4530303031303030330000000000000000000000000000000000000000000000\n      dup2\n      mstore\n      pop\n        /* \"eventTransactionRecord.sol\":1846:1857  transaction */\n      dup2\n        /* \"eventTransactionRecord.sol\":1846:1873  transaction.transactionType */\n      0x00\n      add\n        /* \"eventTransactionRecord.sol\":1846:1887  transaction.transactionType = \"E00010003\" */\n      swap1\n      dup2\n      tag_173\n      swap2\n      swap1\n      tag_86\n      jump\t// in\n    tag_173:\n      pop\n        /* \"eventTransactionRecord.sol\":1919:1927  _eventId */\n      dup7\n        /* \"eventTransactionRecord.sol\":1897:1908  transaction */\n      dup2\n        /* \"eventTransactionRecord.sol\":1897:1916  transaction.eventId */\n      0x01\n      add\n        /* \"eventTransactionRecord.sol\":1897:1927  transaction.eventId = _eventId */\n      swap1\n      dup2\n      tag_174\n      swap2\n      swap1\n      tag_86\n      jump\t// in\n    tag_174:\n      pop\n        /* \"eventTransactionRecord.sol\":1960:1970  msg.sender */\n      caller\n        /* \"eventTransactionRecord.sol\":1937:1948  transaction */\n      dup2\n        /* \"eventTransactionRecord.sol\":1937:1957  transaction.Recorder */\n      0x02\n      add\n      0x00\n        /* \"eventTransactionRecord.sol\":1937:1970  transaction.Recorder = msg.sender */\n      0x0100\n      exp\n      dup2\n      sload\n      dup2\n      0xffffffffffffffffffffffffffffffffffffffff\n      mul\n      not\n      and\n      swap1\n      dup4\n      0xffffffffffffffffffffffffffffffffffffffff\n      and\n      mul\n      or\n      swap1\n      sstore\n      pop\n        /* \"eventTransactionRecord.sol\":2010:2016  _EP001 */\n      dup6\n        /* \"eventTransactionRecord.sol\":1980:1991  transaction */\n      dup2\n        /* \"eventTransactionRecord.sol\":1980:1998  transaction.params */\n      0x03\n      add\n        /* \"eventTransactionRecord.sol\":1980:2007  transaction.params[\"EP001\"] */\n      mload(0x40)\n      tag_175\n      swap1\n      tag_89\n      jump\t// in\n    tag_175:\n      swap1\n      dup2\n      mstore\n      0x20\n      add\n      mload(0x40)\n      dup1\n      swap2\n      sub\n      swap1\n      keccak256\n        /* \"eventTransactionRecord.sol\":1980:2016  transaction.params[\"EP001\"] = _EP001 */\n      dup2\n      swap1\n      sstore\n      pop\n        /* \"eventTransactionRecord.sol\":2056:2062  _EP002 */\n      dup5\n        /* \"eventTransactionRecord.sol\":2026:2037  transaction */\n      dup2\n        /* \"eventTransactionRecord.sol\":2026:2044  transaction.params */\n      0x03\n      add\n        /* \"eventTransactionRecord.sol\":2026:2053  transaction.params[\"EP002\"] */\n      mload(0x40)\n      tag_176\n      swap1\n      tag_91\n      jump\t// in\n    tag_176:\n      swap1\n      dup2\n      mstore\n      0x20\n      add\n      mload(0x40)\n      dup1\n      swap2\n      sub\n      swap1\n      keccak256\n        /* \"eventTransactionRecord.sol\":2026:2062  transaction.params[\"EP002\"] = _EP002 */\n      dup2\n      swap1\n      sstore\n      pop\n        /* \"eventTransactionRecord.sol\":2102:2108  _EP003 */\n      dup4\n        /* \"eventTransactionRecord.sol\":2072:2083  transaction */\n      dup2\n        /* \"eventTransactionRecord.sol\":2072:2090  transaction.params */\n      0x03\n      add\n        /* \"eventTransactionRecord.sol\":2072:2099  transaction.params[\"EP003\"] */\n      mload(0x40)\n      tag_177\n      swap1\n      tag_93\n      jump\t// in\n    tag_177:\n      swap1\n      dup2\n      mstore\n      0x20\n      add\n      mload(0x40)\n      dup1\n      swap2\n      sub\n      swap1\n      keccak256\n        /* \"eventTransactionRecord.sol\":2072:2108  transaction.params[\"EP003\"] = _EP003 */\n      dup2\n      swap1\n      sstore\n      pop\n        /* \"eventTransactionRecord.sol\":2153:2168  block.timestamp */\n      timestamp\n        /* \"eventTransactionRecord.sol\":2118:2129  transaction */\n      dup2\n        /* \"eventTransactionRecord.sol\":2118:2136  transaction.params */\n      0x03\n      add\n        /* \"eventTransactionRecord.sol\":2118:2150  transaction.params[\"trans_time\"] */\n      mload(0x40)\n      tag_178\n      swap1\n      tag_97\n      jump\t// in\n    tag_178:\n      swap1\n      dup2\n      mstore\n      0x20\n      add\n      mload(0x40)\n      dup1\n      swap2\n      sub\n      swap1\n      keccak256\n        /* \"eventTransactionRecord.sol\":2118:2168  transaction.params[\"trans_time\"] = block.timestamp */\n      dup2\n      swap1\n      sstore\n      pop\n        /* \"eventTransactionRecord.sol\":2208:2214  _EP005 */\n      dup3\n        /* \"eventTransactionRecord.sol\":2178:2189  transaction */\n      dup2\n        /* \"eventTransactionRecord.sol\":2178:2196  transaction.params */\n      0x03\n      add\n        /* \"eventTransactionRecord.sol\":2178:2205  transaction.params[\"EP005\"] */\n      mload(0x40)\n      tag_179\n      swap1\n      tag_180\n      jump\t// in\n    tag_179:\n      swap1\n      dup2\n      mstore\n      0x20\n      add\n      mload(0x40)\n      dup1\n      swap2\n      sub\n      swap1\n      keccak256\n        /* \"eventTransactionRecord.sol\":2178:2214  transaction.params[\"EP005\"] = _EP005 */\n      dup2\n      swap1\n      sstore\n      pop\n        /* \"eventTransactionRecord.sol\":1698:2221  {... */\n      pop\n      pop\n        /* \"eventTransactionRecord.sol\":1584:2221  function E00010003(string memory _eventId, uint256 _EP001, uint256 _EP002, uint256 _EP003, uint256 _EP005) public {... */\n      pop\n      pop\n      pop\n      pop\n      pop\n      jump\t// out\n        /* \"eventTransactionRecord.sol\":298:935  function E00010001(string memory _eventId, uint256 _EP001, uint256 _EP002, uint256 _EP003, uint256 _EP005) public {... */\n    tag_61:\n        /* \"eventTransactionRecord.sol\":422:435  uint256 index */\n      0x00\n        /* \"eventTransactionRecord.sol\":438:450  transactions */\n      dup1\n        /* \"eventTransactionRecord.sol\":438:457  transactions.length */\n      dup1\n      sload\n      swap1\n      pop\n        /* \"eventTransactionRecord.sol\":422:457  uint256 index = transactions.length */\n      swap1\n      pop\n        /* \"eventTransactionRecord.sol\":467:479  transactions */\n      0x00\n        /* \"eventTransactionRecord.sol\":467:486  transactions.push() */\n      0x01\n      dup2\n      0x01\n      dup2\n      sload\n      add\n      dup1\n      dup3\n      sstore\n      dup1\n      swap2\n      pop\n      pop\n      sub\n      swap1\n      0x00\n      mstore\n      keccak256(0x00, 0x20)\n      swap1\n      pop\n      pop\n        /* \"eventTransactionRecord.sol\":496:527  Transaction storage transaction */\n      0x00\n        /* \"eventTransactionRecord.sol\":530:542  transactions */\n      dup1\n        /* \"eventTransactionRecord.sol\":543:548  index */\n      dup3\n        /* \"eventTransactionRecord.sol\":530:549  transactions[index] */\n      dup2\n      sload\n      dup2\n      lt\n      tag_183\n      jumpi\n      tag_184\n      tag_83\n      jump\t// in\n    tag_184:\n    tag_183:\n      swap1\n      0x00\n      mstore\n      keccak256(0x00, 0x20)\n      swap1\n      0x04\n      mul\n      add\n        /* \"eventTransactionRecord.sol\":496:549  Transaction storage transaction = transactions[index] */\n      swap1\n      pop\n        /* \"eventTransactionRecord.sol\":560:601  transaction.transactionType = \"E00010001\" */\n      mload(0x40)\n      dup1\n      0x40\n      add\n      0x40\n      mstore\n      dup1\n      0x09\n      dup2\n      mstore\n      0x20\n      add\n      0x4530303031303030310000000000000000000000000000000000000000000000\n      dup2\n      mstore\n      pop\n        /* \"eventTransactionRecord.sol\":560:571  transaction */\n      dup2\n        /* \"eventTransactionRecord.sol\":560:587  transaction.transactionType */\n      0x00\n      add\n        /* \"eventTransactionRecord.sol\":560:601  transaction.transactionType = \"E00010001\" */\n      swap1\n      dup2\n      tag_186\n      swap2\n      swap1\n      tag_86\n      jump\t// in\n    tag_186:\n      pop\n        /* \"eventTransactionRecord.sol\":633:641  _eventId */\n      dup7\n        /* \"eventTransactionRecord.sol\":611:622  transaction */\n      dup2\n        /* \"eventTransactionRecord.sol\":611:630  transaction.eventId */\n      0x01\n      add\n        /* \"eventTransactionRecord.sol\":611:641  transaction.eventId = _eventId */\n      swap1\n      dup2\n      tag_187\n      swap2\n      swap1\n      tag_86\n      jump\t// in\n    tag_187:\n      pop\n        /* \"eventTransactionRecord.sol\":674:684  msg.sender */\n      caller\n        /* \"eventTransactionRecord.sol\":651:662  transaction */\n      dup2\n        /* \"eventTransactionRecord.sol\":651:671  transaction.Recorder */\n      0x02\n      add\n      0x00\n        /* \"eventTransactionRecord.sol\":651:684  transaction.Recorder = msg.sender */\n      0x0100\n      exp\n      dup2\n      sload\n      dup2\n      0xffffffffffffffffffffffffffffffffffffffff\n      mul\n      not\n      and\n      swap1\n      dup4\n      0xffffffffffffffffffffffffffffffffffffffff\n      and\n      mul\n      or\n      swap1\n      sstore\n      pop\n        /* \"eventTransactionRecord.sol\":724:730  _EP001 */\n      dup6\n        /* \"eventTransactionRecord.sol\":694:705  transaction */\n      dup2\n        /* \"eventTransactionRecord.sol\":694:712  transaction.params */\n      0x03\n      add\n        /* \"eventTransactionRecord.sol\":694:721  transaction.params[\"EP001\"] */\n      mload(0x40)\n      tag_188\n      swap1\n      tag_89\n      jump\t// in\n    tag_188:\n      swap1\n      dup2\n      mstore\n      0x20\n      add\n      mload(0x40)\n      dup1\n      swap2\n      sub\n      swap1\n      keccak256\n        /* \"eventTransactionRecord.sol\":694:730  transaction.params[\"EP001\"] = _EP001 */\n      dup2\n      swap1\n      sstore\n      pop\n        /* \"eventTransactionRecord.sol\":770:776  _EP002 */\n      dup5\n        /* \"eventTransactionRecord.sol\":740:751  transaction */\n      dup2\n        /* \"eventTransactionRecord.sol\":740:758  transaction.params */\n      0x03\n      add\n        /* \"eventTransactionRecord.sol\":740:767  transaction.params[\"EP002\"] */\n      mload(0x40)\n      tag_189\n      swap1\n      tag_91\n      jump\t// in\n    tag_189:\n      swap1\n      dup2\n      mstore\n      0x20\n      add\n      mload(0x40)\n      dup1\n      swap2\n      sub\n      swap1\n      keccak256\n        /* \"eventTransactionRecord.sol\":740:776  transaction.params[\"EP002\"] = _EP002 */\n      dup2\n      swap1\n      sstore\n      pop\n        /* \"eventTransactionRecord.sol\":816:822  _EP003 */\n      dup4\n        /* \"eventTransactionRecord.sol\":786:797  transaction */\n      dup2\n        /* \"eventTransactionRecord.sol\":786:804  transaction.params */\n      0x03\n      add\n        /* \"eventTransactionRecord.sol\":786:813  transaction.params[\"EP003\"] */\n      mload(0x40)\n      tag_190\n      swap1\n      tag_93\n      jump\t// in\n    tag_190:\n      swap1\n      dup2\n      mstore\n      0x20\n      add\n      mload(0x40)\n      dup1\n      swap2\n      sub\n      swap1\n      keccak256\n        /* \"eventTransactionRecord.sol\":786:822  transaction.params[\"EP003\"] = _EP003 */\n      dup2\n      swap1\n      sstore\n      pop\n        /* \"eventTransactionRecord.sol\":867:882  block.timestamp */\n      timestamp\n        /* \"eventTransactionRecord.sol\":832:843  transaction */\n      dup2\n        /* \"eventTransactionRecord.sol\":832:850  transaction.params */\n      0x03\n      add\n        /* \"eventTransactionRecord.sol\":832:864  transaction.params[\"trans_time\"] */\n      mload(0x40)\n      tag_191\n      swap1\n      tag_97\n      jump\t// in\n    tag_191:\n      swap1\n      dup2\n      mstore\n      0x20\n      add\n      mload(0x40)\n      dup1\n      swap2\n      sub\n      swap1\n      keccak256\n        /* \"eventTransactionRecord.sol\":832:882  transaction.params[\"trans_time\"] = block.timestamp */\n      dup2\n      swap1\n      sstore\n      pop\n        /* \"eventTransactionRecord.sol\":922:928  _EP005 */\n      dup3\n        /* \"eventTransactionRecord.sol\":892:903  transaction */\n      dup2\n        /* \"eventTransactionRecord.sol\":892:910  transaction.params */\n      0x03\n      add\n        /* \"eventTransactionRecord.sol\":892:919  transaction.params[\"EP005\"] */\n      mload(0x40)\n      tag_192\n      swap1\n      tag_180\n      jump\t// in\n    tag_192:\n      swap1\n      dup2\n      mstore\n      0x20\n      add\n      mload(0x40)\n      dup1\n      swap2\n      sub\n      swap1\n      keccak256\n        /* \"eventTransactionRecord.sol\":892:928  transaction.params[\"EP005\"] = _EP005 */\n      dup2\n      swap1\n      sstore\n      pop\n        /* \"eventTransactionRecord.sol\":412:935  {... */\n      pop\n      pop\n        /* \"eventTransactionRecord.sol\":298:935  function E00010001(string memory _eventId, uint256 _EP001, uint256 _EP002, uint256 _EP003, uint256 _EP005) public {... */\n      pop\n      pop\n      pop\n      pop\n      pop\n      jump\t// out\n        /* \"eventTransactionRecord.sol\":6325:6564  function getTransactionParamByEventId(string memory _eventId, string memory _paramKey) public view returns (uint256) {... */\n    tag_65:\n        /* \"eventTransactionRecord.sol\":6433:6440  uint256 */\n      0x00\n        /* \"eventTransactionRecord.sol\":6452:6483  Transaction storage transaction */\n      dup1\n        /* \"eventTransactionRecord.sol\":6486:6511  findTransaction(_eventId) */\n      tag_194\n        /* \"eventTransactionRecord.sol\":6502:6510  _eventId */\n      dup5\n        /* \"eventTransactionRecord.sol\":6486:6501  findTransaction */\n      tag_151\n        /* \"eventTransactionRecord.sol\":6486:6511  findTransaction(_eventId) */\n      jump\t// in\n    tag_194:\n        /* \"eventTransactionRecord.sol\":6452:6511  Transaction storage transaction = findTransaction(_eventId) */\n      swap1\n      pop\n        /* \"eventTransactionRecord.sol\":6528:6539  transaction */\n      dup1\n        /* \"eventTransactionRecord.sol\":6528:6546  transaction.params */\n      0x03\n      add\n        /* \"eventTransactionRecord.sol\":6547:6556  _paramKey */\n      dup4\n        /* \"eventTransactionRecord.sol\":6528:6557  transaction.params[_paramKey] */\n      mload(0x40)\n      tag_195\n      swap2\n      swap1\n      tag_167\n      jump\t// in\n    tag_195:\n      swap1\n      dup2\n      mstore\n      0x20\n      add\n      mload(0x40)\n      dup1\n      swap2\n      sub\n      swap1\n      keccak256\n      sload\n        /* \"eventTransactionRecord.sol\":6521:6557  return transaction.params[_paramKey] */\n      swap2\n      pop\n      pop\n        /* \"eventTransactionRecord.sol\":6325:6564  function getTransactionParamByEventId(string memory _eventId, string memory _paramKey) public view returns (uint256) {... */\n      swap3\n      swap2\n      pop\n      pop\n      jump\t// out\n        /* \"eventTransactionRecord.sol\":2227:2988  function E00010004(string memory _eventId, uint256 _EP001, uint256 _EP002, uint256 _EP003, uint256 _EP004, uint256 _EP006, uint256 _EP007) public {... */\n    tag_70:\n        /* \"eventTransactionRecord.sol\":2383:2396  uint256 index */\n      0x00\n        /* \"eventTransactionRecord.sol\":2399:2411  transactions */\n      dup1\n        /* \"eventTransactionRecord.sol\":2399:2418  transactions.length */\n      dup1\n      sload\n      swap1\n      pop\n        /* \"eventTransactionRecord.sol\":2383:2418  uint256 index = transactions.length */\n      swap1\n      pop\n        /* \"eventTransactionRecord.sol\":2428:2440  transactions */\n      0x00\n        /* \"eventTransactionRecord.sol\":2428:2447  transactions.push() */\n      0x01\n      dup2\n      0x01\n      dup2\n      sload\n      add\n      dup1\n      dup3\n      sstore\n      dup1\n      swap2\n      pop\n      pop\n      sub\n      swap1\n      0x00\n      mstore\n      keccak256(0x00, 0x20)\n      swap1\n      pop\n      pop\n        /* \"eventTransactionRecord.sol\":2457:2488  Transaction storage transaction */\n      0x00\n        /* \"eventTransactionRecord.sol\":2491:2503  transactions */\n      dup1\n        /* \"eventTransactionRecord.sol\":2504:2509  index */\n      dup3\n        /* \"eventTransactionRecord.sol\":2491:2510  transactions[index] */\n      dup2\n      sload\n      dup2\n      lt\n      tag_198\n      jumpi\n      tag_199\n      tag_83\n      jump\t// in\n    tag_199:\n    tag_198:\n      swap1\n      0x00\n      mstore\n      keccak256(0x00, 0x20)\n      swap1\n      0x04\n      mul\n      add\n        /* \"eventTransactionRecord.sol\":2457:2510  Transaction storage transaction = transactions[index] */\n      swap1\n      pop\n        /* \"eventTransactionRecord.sol\":2521:2562  transaction.transactionType = \"E00010004\" */\n      mload(0x40)\n      dup1\n      0x40\n      add\n      0x40\n      mstore\n      dup1\n      0x09\n      dup2\n      mstore\n      0x20\n      add\n      0x4530303031303030340000000000000000000000000000000000000000000000\n      dup2\n      mstore\n      pop\n        /* \"eventTransactionRecord.sol\":2521:2532  transaction */\n      dup2\n        /* \"eventTransactionRecord.sol\":2521:2548  transaction.transactionType */\n      0x00\n      add\n        /* \"eventTransactionRecord.sol\":2521:2562  transaction.transactionType = \"E00010004\" */\n      swap1\n      dup2\n      tag_201\n      swap2\n      swap1\n      tag_86\n      jump\t// in\n    tag_201:\n      pop\n        /* \"eventTransactionRecord.sol\":2594:2602  _eventId */\n      dup9\n        /* \"eventTransactionRecord.sol\":2572:2583  transaction */\n      dup2\n        /* \"eventTransactionRecord.sol\":2572:2591  transaction.eventId */\n      0x01\n      add\n        /* \"eventTransactionRecord.sol\":2572:2602  transaction.eventId = _eventId */\n      swap1\n      dup2\n      tag_202\n      swap2\n      swap1\n      tag_86\n      jump\t// in\n    tag_202:\n      pop\n        /* \"eventTransactionRecord.sol\":2635:2645  msg.sender */\n      caller\n        /* \"eventTransactionRecord.sol\":2612:2623  transaction */\n      dup2\n        /* \"eventTransactionRecord.sol\":2612:2632  transaction.Recorder */\n      0x02\n      add\n      0x00\n        /* \"eventTransactionRecord.sol\":2612:2645  transaction.Recorder = msg.sender */\n      0x0100\n      exp\n      dup2\n      sload\n      dup2\n      0xffffffffffffffffffffffffffffffffffffffff\n      mul\n      not\n      and\n      swap1\n      dup4\n      0xffffffffffffffffffffffffffffffffffffffff\n      and\n      mul\n      or\n      swap1\n      sstore\n      pop\n        /* \"eventTransactionRecord.sol\":2685:2691  _EP001 */\n      dup8\n        /* \"eventTransactionRecord.sol\":2655:2666  transaction */\n      dup2\n        /* \"eventTransactionRecord.sol\":2655:2673  transaction.params */\n      0x03\n      add\n        /* \"eventTransactionRecord.sol\":2655:2682  transaction.params[\"EP001\"] */\n      mload(0x40)\n      tag_203\n      swap1\n      tag_89\n      jump\t// in\n    tag_203:\n      swap1\n      dup2\n      mstore\n      0x20\n      add\n      mload(0x40)\n      dup1\n      swap2\n      sub\n      swap1\n      keccak256\n        /* \"eventTransactionRecord.sol\":2655:2691  transaction.params[\"EP001\"] = _EP001 */\n      dup2\n      swap1\n      sstore\n      pop\n        /* \"eventTransactionRecord.sol\":2731:2737  _EP002 */\n      dup7\n        /* \"eventTransactionRecord.sol\":2701:2712  transaction */\n      dup2\n        /* \"eventTransactionRecord.sol\":2701:2719  transaction.params */\n      0x03\n      add\n        /* \"eventTransactionRecord.sol\":2701:2728  transaction.params[\"EP002\"] */\n      mload(0x40)\n      tag_204\n      swap1\n      tag_91\n      jump\t// in\n    tag_204:\n      swap1\n      dup2\n      mstore\n      0x20\n      add\n      mload(0x40)\n      dup1\n      swap2\n      sub\n      swap1\n      keccak256\n        /* \"eventTransactionRecord.sol\":2701:2737  transaction.params[\"EP002\"] = _EP002 */\n      dup2\n      swap1\n      sstore\n      pop\n        /* \"eventTransactionRecord.sol\":2777:2783  _EP003 */\n      dup6\n        /* \"eventTransactionRecord.sol\":2747:2758  transaction */\n      dup2\n        /* \"eventTransactionRecord.sol\":2747:2765  transaction.params */\n      0x03\n      add\n        /* \"eventTransactionRecord.sol\":2747:2774  transaction.params[\"EP003\"] */\n      mload(0x40)\n      tag_205\n      swap1\n      tag_93\n      jump\t// in\n    tag_205:\n      swap1\n      dup2\n      mstore\n      0x20\n      add\n      mload(0x40)\n      dup1\n      swap2\n      sub\n      swap1\n      keccak256\n        /* \"eventTransactionRecord.sol\":2747:2783  transaction.params[\"EP003\"] = _EP003 */\n      dup2\n      swap1\n      sstore\n      pop\n        /* \"eventTransactionRecord.sol\":2823:2829  _EP004 */\n      dup5\n        /* \"eventTransactionRecord.sol\":2793:2804  transaction */\n      dup2\n        /* \"eventTransactionRecord.sol\":2793:2811  transaction.params */\n      0x03\n      add\n        /* \"eventTransactionRecord.sol\":2793:2820  transaction.params[\"EP004\"] */\n      mload(0x40)\n      tag_206\n      swap1\n      tag_95\n      jump\t// in\n    tag_206:\n      swap1\n      dup2\n      mstore\n      0x20\n      add\n      mload(0x40)\n      dup1\n      swap2\n      sub\n      swap1\n      keccak256\n        /* \"eventTransactionRecord.sol\":2793:2829  transaction.params[\"EP004\"] = _EP004 */\n      dup2\n      swap1\n      sstore\n      pop\n        /* \"eventTransactionRecord.sol\":2874:2889  block.timestamp */\n      timestamp\n        /* \"eventTransactionRecord.sol\":2839:2850  transaction */\n      dup2\n        /* \"eventTransactionRecord.sol\":2839:2857  transaction.params */\n      0x03\n      add\n        /* \"eventTransactionRecord.sol\":2839:2871  transaction.params[\"trans_time\"] */\n      mload(0x40)\n      tag_207\n      swap1\n      tag_97\n      jump\t// in\n    tag_207:\n      swap1\n      dup2\n      mstore\n      0x20\n      add\n      mload(0x40)\n      dup1\n      swap2\n      sub\n      swap1\n      keccak256\n        /* \"eventTransactionRecord.sol\":2839:2889  transaction.params[\"trans_time\"] = block.timestamp */\n      dup2\n      swap1\n      sstore\n      pop\n        /* \"eventTransactionRecord.sol\":2929:2935  _EP006 */\n      dup4\n        /* \"eventTransactionRecord.sol\":2899:2910  transaction */\n      dup2\n        /* \"eventTransactionRecord.sol\":2899:2917  transaction.params */\n      0x03\n      add\n        /* \"eventTransactionRecord.sol\":2899:2926  transaction.params[\"EP006\"] */\n      mload(0x40)\n      tag_208\n      swap1\n      tag_99\n      jump\t// in\n    tag_208:\n      swap1\n      dup2\n      mstore\n      0x20\n      add\n      mload(0x40)\n      dup1\n      swap2\n      sub\n      swap1\n      keccak256\n        /* \"eventTransactionRecord.sol\":2899:2935  transaction.params[\"EP006\"] = _EP006 */\n      dup2\n      swap1\n      sstore\n      pop\n        /* \"eventTransactionRecord.sol\":2975:2981  _EP007 */\n      dup3\n        /* \"eventTransactionRecord.sol\":2945:2956  transaction */\n      dup2\n        /* \"eventTransactionRecord.sol\":2945:2963  transaction.params */\n      0x03\n      add\n        /* \"eventTransactionRecord.sol\":2945:2972  transaction.params[\"EP007\"] */\n      mload(0x40)\n      tag_209\n      swap1\n      tag_210\n      jump\t// in\n    tag_209:\n      swap1\n      dup2\n      mstore\n      0x20\n      add\n      mload(0x40)\n      dup1\n      swap2\n      sub\n      swap1\n      keccak256\n        /* \"eventTransactionRecord.sol\":2945:2981  transaction.params[\"EP007\"] = _EP007 */\n      dup2\n      swap1\n      sstore\n      pop\n        /* \"eventTransactionRecord.sol\":2373:2988  {... */\n      pop\n      pop\n        /* \"eventTransactionRecord.sol\":2227:2988  function E00010004(string memory _eventId, uint256 _EP001, uint256 _EP002, uint256 _EP003, uint256 _EP004, uint256 _EP006, uint256 _EP007) public {... */\n      pop\n      pop\n      pop\n      pop\n      pop\n      pop\n      pop\n      jump\t// out\n        /* \"eventTransactionRecord.sol\":941:1578  function E00010002(string memory _eventId, uint256 _EP001, uint256 _EP002, uint256 _EP003, uint256 _EP005) public {... */\n    tag_73:\n        /* \"eventTransactionRecord.sol\":1065:1078  uint256 index */\n      0x00\n        /* \"eventTransactionRecord.sol\":1081:1093  transactions */\n      dup1\n        /* \"eventTransactionRecord.sol\":1081:1100  transactions.length */\n      dup1\n      sload\n      swap1\n      pop\n        /* \"eventTransactionRecord.sol\":1065:1100  uint256 index = transactions.length */\n      swap1\n      pop\n        /* \"eventTransactionRecord.sol\":1110:1122  transactions */\n      0x00\n        /* \"eventTransactionRecord.sol\":1110:1129  transactions.push() */\n      0x01\n      dup2\n      0x01\n      dup2\n      sload\n      add\n      dup1\n      dup3\n      sstore\n      dup1\n      swap2\n      pop\n      pop\n      sub\n      swap1\n      0x00\n      mstore\n      keccak256(0x00, 0x20)\n      swap1\n      pop\n      pop\n        /* \"eventTransactionRecord.sol\":1139:1170  Transaction storage transaction */\n      0x00\n        /* \"eventTransactionRecord.sol\":1173:1185  transactions */\n      dup1\n        /* \"eventTransactionRecord.sol\":1186:1191  index */\n      dup3\n        /* \"eventTransactionRecord.sol\":1173:1192  transactions[index] */\n      dup2\n      sload\n      dup2\n      lt\n      tag_213\n      jumpi\n      tag_214\n      tag_83\n      jump\t// in\n    tag_214:\n    tag_213:\n      swap1\n      0x00\n      mstore\n      keccak256(0x00, 0x20)\n      swap1\n      0x04\n      mul\n      add\n        /* \"eventTransactionRecord.sol\":1139:1192  Transaction storage transaction = transactions[index] */\n      swap1\n      pop\n        /* \"eventTransactionRecord.sol\":1203:1244  transaction.transactionType = \"E00010002\" */\n      mload(0x40)\n      dup1\n      0x40\n      add\n      0x40\n      mstore\n      dup1\n      0x09\n      dup2\n      mstore\n      0x20\n      add\n      0x4530303031303030320000000000000000000000000000000000000000000000\n      dup2\n      mstore\n      pop\n        /* \"eventTransactionRecord.sol\":1203:1214  transaction */\n      dup2\n        /* \"eventTransactionRecord.sol\":1203:1230  transaction.transactionType */\n      0x00\n      add\n        /* \"eventTransactionRecord.sol\":1203:1244  transaction.transactionType = \"E00010002\" */\n      swap1\n      dup2\n      tag_216\n      swap2\n      swap1\n      tag_86\n      jump\t// in\n    tag_216:\n      pop\n        /* \"eventTransactionRecord.sol\":1276:1284  _eventId */\n      dup7\n        /* \"eventTransactionRecord.sol\":1254:1265  transaction */\n      dup2\n        /* \"eventTransactionRecord.sol\":1254:1273  transaction.eventId */\n      0x01\n      add\n        /* \"eventTransactionRecord.sol\":1254:1284  transaction.eventId = _eventId */\n      swap1\n      dup2\n      tag_217\n      swap2\n      swap1\n      tag_86\n      jump\t// in\n    tag_217:\n      pop\n        /* \"eventTransactionRecord.sol\":1317:1327  msg.sender */\n      caller\n        /* \"eventTransactionRecord.sol\":1294:1305  transaction */\n      dup2\n        /* \"eventTransactionRecord.sol\":1294:1314  transaction.Recorder */\n      0x02\n      add\n      0x00\n        /* \"eventTransactionRecord.sol\":1294:1327  transaction.Recorder = msg.sender */\n      0x0100\n      exp\n      dup2\n      sload\n      dup2\n      0xffffffffffffffffffffffffffffffffffffffff\n      mul\n      not\n      and\n      swap1\n      dup4\n      0xffffffffffffffffffffffffffffffffffffffff\n      and\n      mul\n      or\n      swap1\n      sstore\n      pop\n        /* \"eventTransactionRecord.sol\":1367:1373  _EP001 */\n      dup6\n        /* \"eventTransactionRecord.sol\":1337:1348  transaction */\n      dup2\n        /* \"eventTransactionRecord.sol\":1337:1355  transaction.params */\n      0x03\n      add\n        /* \"eventTransactionRecord.sol\":1337:1364  transaction.params[\"EP001\"] */\n      mload(0x40)\n      tag_218\n      swap1\n      tag_89\n      jump\t// in\n    tag_218:\n      swap1\n      dup2\n      mstore\n      0x20\n      add\n      mload(0x40)\n      dup1\n      swap2\n      sub\n      swap1\n      keccak256\n        /* \"eventTransactionRecord.sol\":1337:1373  transaction.params[\"EP001\"] = _EP001 */\n      dup2\n      swap1\n      sstore\n      pop\n        /* \"eventTransactionRecord.sol\":1413:1419  _EP002 */\n      dup5\n        /* \"eventTransactionRecord.sol\":1383:1394  transaction */\n      dup2\n        /* \"eventTransactionRecord.sol\":1383:1401  transaction.params */\n      0x03\n      add\n        /* \"eventTransactionRecord.sol\":1383:1410  transaction.params[\"EP002\"] */\n      mload(0x40)\n      tag_219\n      swap1\n      tag_91\n      jump\t// in\n    tag_219:\n      swap1\n      dup2\n      mstore\n      0x20\n      add\n      mload(0x40)\n      dup1\n      swap2\n      sub\n      swap1\n      keccak256\n        /* \"eventTransactionRecord.sol\":1383:1419  transaction.params[\"EP002\"] = _EP002 */\n      dup2\n      swap1\n      sstore\n      pop\n        /* \"eventTransactionRecord.sol\":1459:1465  _EP003 */\n      dup4\n        /* \"eventTransactionRecord.sol\":1429:1440  transaction */\n      dup2\n        /* \"eventTransactionRecord.sol\":1429:1447  transaction.params */\n      0x03\n      add\n        /* \"eventTransactionRecord.sol\":1429:1456  transaction.params[\"EP003\"] */\n      mload(0x40)\n      tag_220\n      swap1\n      tag_93\n      jump\t// in\n    tag_220:\n      swap1\n      dup2\n      mstore\n      0x20\n      add\n      mload(0x40)\n      dup1\n      swap2\n      sub\n      swap1\n      keccak256\n        /* \"eventTransactionRecord.sol\":1429:1465  transaction.params[\"EP003\"] = _EP003 */\n      dup2\n      swap1\n      sstore\n      pop\n        /* \"eventTransactionRecord.sol\":1510:1525  block.timestamp */\n      timestamp\n        /* \"eventTransactionRecord.sol\":1475:1486  transaction */\n      dup2\n        /* \"eventTransactionRecord.sol\":1475:1493  transaction.params */\n      0x03\n      add\n        /* \"eventTransactionRecord.sol\":1475:1507  transaction.params[\"trans_time\"] */\n      mload(0x40)\n      tag_221\n      swap1\n      tag_97\n      jump\t// in\n    tag_221:\n      swap1\n      dup2\n      mstore\n      0x20\n      add\n      mload(0x40)\n      dup1\n      swap2\n      sub\n      swap1\n      keccak256\n        /* \"eventTransactionRecord.sol\":1475:1525  transaction.params[\"trans_time\"] = block.timestamp */\n      dup2\n      swap1\n      sstore\n      pop\n        /* \"eventTransactionRecord.sol\":1565:1571  _EP005 */\n      dup3\n        /* \"eventTransactionRecord.sol\":1535:1546  transaction */\n      dup2\n        /* \"eventTransactionRecord.sol\":1535:1553  transaction.params */\n      0x03\n      add\n        /* \"eventTransactionRecord.sol\":1535:1562  transaction.params[\"EP005\"] */\n      mload(0x40)\n      tag_222\n      swap1\n      tag_180\n      jump\t// in\n    tag_222:\n      swap1\n      dup2\n      mstore\n      0x20\n      add\n      mload(0x40)\n      dup1\n      swap2\n      sub\n      swap1\n      keccak256\n        /* \"eventTransactionRecord.sol\":1535:1571  transaction.params[\"EP005\"] = _EP005 */\n      dup2\n      swap1\n      sstore\n      pop\n        /* \"eventTransactionRecord.sol\":1055:1578  {... */\n      pop\n      pop\n        /* \"eventTransactionRecord.sol\":941:1578  function E00010002(string memory _eventId, uint256 _EP001, uint256 _EP002, uint256 _EP003, uint256 _EP005) public {... */\n      pop\n      pop\n      pop\n      pop\n      pop\n      jump\t// out\n        /* \"eventTransactionRecord.sol\":5879:6017  function getTransactionType(uint256 index) public view returns (string memory) {... */\n    tag_76:\n        /* \"eventTransactionRecord.sol\":5943:5956  string memory */\n      0x60\n        /* \"eventTransactionRecord.sol\":5975:5987  transactions */\n      0x00\n        /* \"eventTransactionRecord.sol\":5988:5993  index */\n      dup3\n        /* \"eventTransactionRecord.sol\":5975:5994  transactions[index] */\n      dup2\n      sload\n      dup2\n      lt\n      tag_224\n      jumpi\n      tag_225\n      tag_83\n      jump\t// in\n    tag_225:\n    tag_224:\n      swap1\n      0x00\n      mstore\n      keccak256(0x00, 0x20)\n      swap1\n      0x04\n      mul\n      add\n        /* \"eventTransactionRecord.sol\":5975:6010  transactions[index].transactionType */\n      0x00\n      add\n        /* \"eventTransactionRecord.sol\":5968:6010  return transactions[index].transactionType */\n      dup1\n      sload\n      tag_227\n      swap1\n      tag_103\n      jump\t// in\n    tag_227:\n      dup1\n      0x1f\n      add\n      0x20\n      dup1\n      swap2\n      div\n      mul\n      0x20\n      add\n      mload(0x40)\n      swap1\n      dup2\n      add\n      0x40\n      mstore\n      dup1\n      swap3\n      swap2\n      swap1\n      dup2\n      dup2\n      mstore\n      0x20\n      add\n      dup3\n      dup1\n      sload\n      tag_228\n      swap1\n      tag_103\n      jump\t// in\n    tag_228:\n      dup1\n      iszero\n      tag_229\n      jumpi\n      dup1\n      0x1f\n      lt\n      tag_230\n      jumpi\n      0x0100\n      dup1\n      dup4\n      sload\n      div\n      mul\n      dup4\n      mstore\n      swap2\n      0x20\n      add\n      swap2\n      jump(tag_229)\n    tag_230:\n      dup3\n      add\n      swap2\n      swap1\n      0x00\n      mstore\n      keccak256(0x00, 0x20)\n      swap1\n    tag_231:\n      dup2\n      sload\n      dup2\n      mstore\n      swap1\n      0x01\n      add\n      swap1\n      0x20\n      add\n      dup1\n      dup4\n      gt\n      tag_231\n      jumpi\n      dup3\n      swap1\n      sub\n      0x1f\n      and\n      dup3\n      add\n      swap2\n    tag_229:\n      pop\n      pop\n      pop\n      pop\n      pop\n      swap1\n      pop\n        /* \"eventTransactionRecord.sol\":5879:6017  function getTransactionType(uint256 index) public view returns (string memory) {... */\n      swap2\n      swap1\n      pop\n      jump\t// out\n        /* \"eventTransactionRecord.sol\":5368:5762  function findTransaction(string memory _eventId) internal view returns (Transaction storage) {... */\n    tag_151:\n        /* \"eventTransactionRecord.sol\":5440:5459  Transaction storage */\n      0x00\n        /* \"eventTransactionRecord.sol\":5476:5482  uint i */\n      dup1\n        /* \"eventTransactionRecord.sol\":5485:5486  0 */\n      0x00\n        /* \"eventTransactionRecord.sol\":5476:5486  uint i = 0 */\n      swap1\n      pop\n        /* \"eventTransactionRecord.sol\":5471:5696  for (uint i = 0; i < transactions.length; i++) {... */\n    tag_233:\n        /* \"eventTransactionRecord.sol\":5492:5504  transactions */\n      0x00\n        /* \"eventTransactionRecord.sol\":5492:5511  transactions.length */\n      dup1\n      sload\n      swap1\n      pop\n        /* \"eventTransactionRecord.sol\":5488:5489  i */\n      dup2\n        /* \"eventTransactionRecord.sol\":5488:5511  i < transactions.length */\n      lt\n        /* \"eventTransactionRecord.sol\":5471:5696  for (uint i = 0; i < transactions.length; i++) {... */\n      iszero\n      tag_234\n      jumpi\n        /* \"eventTransactionRecord.sol\":5619:5627  _eventId */\n      dup3\n        /* \"eventTransactionRecord.sol\":5602:5628  abi.encodePacked(_eventId) */\n      add(0x20, mload(0x40))\n      tag_236\n      swap2\n      swap1\n      tag_167\n      jump\t// in\n    tag_236:\n      mload(0x40)\n      0x20\n      dup2\n      dup4\n      sub\n      sub\n      dup2\n      mstore\n      swap1\n      0x40\n      mstore\n        /* \"eventTransactionRecord.sol\":5592:5629  keccak256(abi.encodePacked(_eventId)) */\n      dup1\n      mload\n      swap1\n      0x20\n      add\n      keccak256\n        /* \"eventTransactionRecord.sol\":5563:5575  transactions */\n      0x00\n        /* \"eventTransactionRecord.sol\":5576:5577  i */\n      dup3\n        /* \"eventTransactionRecord.sol\":5563:5578  transactions[i] */\n      dup2\n      sload\n      dup2\n      lt\n      tag_237\n      jumpi\n      tag_238\n      tag_83\n      jump\t// in\n    tag_238:\n    tag_237:\n      swap1\n      0x00\n      mstore\n      keccak256(0x00, 0x20)\n      swap1\n      0x04\n      mul\n      add\n        /* \"eventTransactionRecord.sol\":5563:5586  transactions[i].eventId */\n      0x01\n      add\n        /* \"eventTransactionRecord.sol\":5546:5587  abi.encodePacked(transactions[i].eventId) */\n      add(0x20, mload(0x40))\n      tag_240\n      swap2\n      swap1\n      tag_241\n      jump\t// in\n    tag_240:\n      mload(0x40)\n      0x20\n      dup2\n      dup4\n      sub\n      sub\n      dup2\n      mstore\n      swap1\n      0x40\n      mstore\n        /* \"eventTransactionRecord.sol\":5536:5588  keccak256(abi.encodePacked(transactions[i].eventId)) */\n      dup1\n      mload\n      swap1\n      0x20\n      add\n      keccak256\n        /* \"eventTransactionRecord.sol\":5536:5629  keccak256(abi.encodePacked(transactions[i].eventId)) == keccak256(abi.encodePacked(_eventId)) */\n      sub\n        /* \"eventTransactionRecord.sol\":5532:5686  if (keccak256(abi.encodePacked(transactions[i].eventId)) == keccak256(abi.encodePacked(_eventId))) {... */\n      tag_242\n      jumpi\n        /* \"eventTransactionRecord.sol\":5656:5668  transactions */\n      0x00\n        /* \"eventTransactionRecord.sol\":5669:5670  i */\n      dup2\n        /* \"eventTransactionRecord.sol\":5656:5671  transactions[i] */\n      dup2\n      sload\n      dup2\n      lt\n      tag_243\n      jumpi\n      tag_244\n      tag_83\n      jump\t// in\n    tag_244:\n    tag_243:\n      swap1\n      0x00\n      mstore\n      keccak256(0x00, 0x20)\n      swap1\n      0x04\n      mul\n      add\n        /* \"eventTransactionRecord.sol\":5649:5671  return transactions[i] */\n      swap2\n      pop\n      pop\n      jump(tag_232)\n        /* \"eventTransactionRecord.sol\":5532:5686  if (keccak256(abi.encodePacked(transactions[i].eventId)) == keccak256(abi.encodePacked(_eventId))) {... */\n    tag_242:\n        /* \"eventTransactionRecord.sol\":5513:5516  i++ */\n      dup1\n      dup1\n      tag_246\n      swap1\n      tag_247\n      jump\t// in\n    tag_246:\n      swap2\n      pop\n      pop\n        /* \"eventTransactionRecord.sol\":5471:5696  for (uint i = 0; i < transactions.length; i++) {... */\n      jump(tag_233)\n    tag_234:\n      pop\n        /* \"eventTransactionRecord.sol\":5705:5755  revert(\"Transaction with given eventId not found\") */\n      mload(0x40)\n      0x08c379a000000000000000000000000000000000000000000000000000000000\n      dup2\n      mstore\n      0x04\n      add\n      tag_248\n      swap1\n      tag_249\n      jump\t// in\n    tag_248:\n      mload(0x40)\n      dup1\n      swap2\n      sub\n      swap1\n      revert\n        /* \"eventTransactionRecord.sol\":5368:5762  function findTransaction(string memory _eventId) internal view returns (Transaction storage) {... */\n    tag_232:\n      swap2\n      swap1\n      pop\n      jump\t// out\n        /* \"#utility.yul\":7:84   */\n    tag_250:\n        /* \"#utility.yul\":44:51   */\n      0x00\n        /* \"#utility.yul\":73:78   */\n      dup2\n        /* \"#utility.yul\":62:78   */\n      swap1\n      pop\n        /* \"#utility.yul\":7:84   */\n      swap2\n      swap1\n      pop\n      jump\t// out\n        /* \"#utility.yul\":90:208   */\n    tag_251:\n        /* \"#utility.yul\":177:201   */\n      tag_319\n        /* \"#utility.yul\":195:200   */\n      dup2\n        /* \"#utility.yul\":177:201   */\n      tag_250\n      jump\t// in\n    tag_319:\n        /* \"#utility.yul\":172:175   */\n      dup3\n        /* \"#utility.yul\":165:202   */\n      mstore\n        /* \"#utility.yul\":90:208   */\n      pop\n      pop\n      jump\t// out\n        /* \"#utility.yul\":214:436   */\n    tag_23:\n        /* \"#utility.yul\":307:311   */\n      0x00\n        /* \"#utility.yul\":345:347   */\n      0x20\n        /* \"#utility.yul\":334:343   */\n      dup3\n        /* \"#utility.yul\":330:348   */\n      add\n        /* \"#utility.yul\":322:348   */\n      swap1\n      pop\n        /* \"#utility.yul\":358:429   */\n      tag_321\n        /* \"#utility.yul\":426:427   */\n      0x00\n        /* \"#utility.yul\":415:424   */\n      dup4\n        /* \"#utility.yul\":411:428   */\n      add\n        /* \"#utility.yul\":402:408   */\n      dup5\n        /* \"#utility.yul\":358:429   */\n      tag_251\n      jump\t// in\n    tag_321:\n        /* \"#utility.yul\":214:436   */\n      swap3\n      swap2\n      pop\n      pop\n      jump\t// out\n        /* \"#utility.yul\":442:517   */\n    tag_252:\n        /* \"#utility.yul\":475:481   */\n      0x00\n        /* \"#utility.yul\":508:510   */\n      0x40\n        /* \"#utility.yul\":502:511   */\n      mload\n        /* \"#utility.yul\":492:511   */\n      swap1\n      pop\n        /* \"#utility.yul\":442:517   */\n      swap1\n      jump\t// out\n        /* \"#utility.yul\":523:640   */\n    tag_253:\n        /* \"#utility.yul\":632:633   */\n      0x00\n        /* \"#utility.yul\":629:630   */\n      dup1\n        /* \"#utility.yul\":622:634   */\n      revert\n        /* \"#utility.yul\":646:763   */\n    tag_254:\n        /* \"#utility.yul\":755:756   */\n      0x00\n        /* \"#utility.yul\":752:753   */\n      dup1\n        /* \"#utility.yul\":745:757   */\n      revert\n        /* \"#utility.yul\":769:886   */\n    tag_255:\n        /* \"#utility.yul\":878:879   */\n      0x00\n        /* \"#utility.yul\":875:876   */\n      dup1\n        /* \"#utility.yul\":868:880   */\n      revert\n        /* \"#utility.yul\":892:1009   */\n    tag_256:\n        /* \"#utility.yul\":1001:1002   */\n      0x00\n        /* \"#utility.yul\":998:999   */\n      dup1\n        /* \"#utility.yul\":991:1003   */\n      revert\n        /* \"#utility.yul\":1015:1117   */\n    tag_257:\n        /* \"#utility.yul\":1056:1062   */\n      0x00\n        /* \"#utility.yul\":1107:1109   */\n      0x1f\n        /* \"#utility.yul\":1103:1110   */\n      not\n        /* \"#utility.yul\":1098:1100   */\n      0x1f\n        /* \"#utility.yul\":1091:1096   */\n      dup4\n        /* \"#utility.yul\":1087:1101   */\n      add\n        /* \"#utility.yul\":1083:1111   */\n      and\n        /* \"#utility.yul\":1073:1111   */\n      swap1\n      pop\n        /* \"#utility.yul\":1015:1117   */\n      swap2\n      swap1\n      pop\n      jump\t// out\n        /* \"#utility.yul\":1123:1303   */\n    tag_258:\n        /* \"#utility.yul\":1171:1248   */\n      0x4e487b7100000000000000000000000000000000000000000000000000000000\n        /* \"#utility.yul\":1168:1169   */\n      0x00\n        /* \"#utility.yul\":1161:1249   */\n      mstore\n        /* \"#utility.yul\":1268:1272   */\n      0x41\n        /* \"#utility.yul\":1265:1266   */\n      0x04\n        /* \"#utility.yul\":1258:1273   */\n      mstore\n        /* \"#utility.yul\":1292:1296   */\n      0x24\n        /* \"#utility.yul\":1289:1290   */\n      0x00\n        /* \"#utility.yul\":1282:1297   */\n      revert\n        /* \"#utility.yul\":1309:1590   */\n    tag_259:\n        /* \"#utility.yul\":1392:1419   */\n      tag_330\n        /* \"#utility.yul\":1414:1418   */\n      dup3\n        /* \"#utility.yul\":1392:1419   */\n      tag_257\n      jump\t// in\n    tag_330:\n        /* \"#utility.yul\":1384:1390   */\n      dup2\n        /* \"#utility.yul\":1380:1420   */\n      add\n        /* \"#utility.yul\":1522:1528   */\n      dup2\n        /* \"#utility.yul\":1510:1520   */\n      dup2\n        /* \"#utility.yul\":1507:1529   */\n      lt\n        /* \"#utility.yul\":1486:1504   */\n      0xffffffffffffffff\n        /* \"#utility.yul\":1474:1484   */\n      dup3\n        /* \"#utility.yul\":1471:1505   */\n      gt\n        /* \"#utility.yul\":1468:1530   */\n      or\n        /* \"#utility.yul\":1465:1553   */\n      iszero\n      tag_331\n      jumpi\n        /* \"#utility.yul\":1533:1551   */\n      tag_332\n      tag_258\n      jump\t// in\n    tag_332:\n        /* \"#utility.yul\":1465:1553   */\n    tag_331:\n        /* \"#utility.yul\":1573:1583   */\n      dup1\n        /* \"#utility.yul\":1569:1571   */\n      0x40\n        /* \"#utility.yul\":1562:1584   */\n      mstore\n        /* \"#utility.yul\":1352:1590   */\n      pop\n        /* \"#utility.yul\":1309:1590   */\n      pop\n      pop\n      jump\t// out\n        /* \"#utility.yul\":1596:1725   */\n    tag_260:\n        /* \"#utility.yul\":1630:1636   */\n      0x00\n        /* \"#utility.yul\":1657:1677   */\n      tag_334\n      tag_252\n      jump\t// in\n    tag_334:\n        /* \"#utility.yul\":1647:1677   */\n      swap1\n      pop\n        /* \"#utility.yul\":1686:1719   */\n      tag_335\n        /* \"#utility.yul\":1714:1718   */\n      dup3\n        /* \"#utility.yul\":1706:1712   */\n      dup3\n        /* \"#utility.yul\":1686:1719   */\n      tag_259\n      jump\t// in\n    tag_335:\n        /* \"#utility.yul\":1596:1725   */\n      swap2\n      swap1\n      pop\n      jump\t// out\n        /* \"#utility.yul\":1731:2039   */\n    tag_261:\n        /* \"#utility.yul\":1793:1797   */\n      0x00\n        /* \"#utility.yul\":1883:1901   */\n      0xffffffffffffffff\n        /* \"#utility.yul\":1875:1881   */\n      dup3\n        /* \"#utility.yul\":1872:1902   */\n      gt\n        /* \"#utility.yul\":1869:1925   */\n      iszero\n      tag_337\n      jumpi\n        /* \"#utility.yul\":1905:1923   */\n      tag_338\n      tag_258\n      jump\t// in\n    tag_338:\n        /* \"#utility.yul\":1869:1925   */\n    tag_337:\n        /* \"#utility.yul\":1943:1972   */\n      tag_339\n        /* \"#utility.yul\":1965:1971   */\n      dup3\n        /* \"#utility.yul\":1943:1972   */\n      tag_257\n      jump\t// in\n    tag_339:\n        /* \"#utility.yul\":1935:1972   */\n      swap1\n      pop\n        /* \"#utility.yul\":2027:2031   */\n      0x20\n        /* \"#utility.yul\":2021:2025   */\n      dup2\n        /* \"#utility.yul\":2017:2032   */\n      add\n        /* \"#utility.yul\":2009:2032   */\n      swap1\n      pop\n        /* \"#utility.yul\":1731:2039   */\n      swap2\n      swap1\n      pop\n      jump\t// out\n        /* \"#utility.yul\":2045:2191   */\n    tag_262:\n        /* \"#utility.yul\":2142:2148   */\n      dup3\n        /* \"#utility.yul\":2137:2140   */\n      dup2\n        /* \"#utility.yul\":2132:2135   */\n      dup4\n        /* \"#utility.yul\":2119:2149   */\n      calldatacopy\n        /* \"#utility.yul\":2183:2184   */\n      0x00\n        /* \"#utility.yul\":2174:2180   */\n      dup4\n        /* \"#utility.yul\":2169:2172   */\n      dup4\n        /* \"#utility.yul\":2165:2181   */\n      add\n        /* \"#utility.yul\":2158:2185   */\n      mstore\n        /* \"#utility.yul\":2045:2191   */\n      pop\n      pop\n      pop\n      jump\t// out\n        /* \"#utility.yul\":2197:2622   */\n    tag_263:\n        /* \"#utility.yul\":2275:2280   */\n      0x00\n        /* \"#utility.yul\":2300:2366   */\n      tag_342\n        /* \"#utility.yul\":2316:2365   */\n      tag_343\n        /* \"#utility.yul\":2358:2364   */\n      dup5\n        /* \"#utility.yul\":2316:2365   */\n      tag_261\n      jump\t// in\n    tag_343:\n        /* \"#utility.yul\":2300:2366   */\n      tag_260\n      jump\t// in\n    tag_342:\n        /* \"#utility.yul\":2291:2366   */\n      swap1\n      pop\n        /* \"#utility.yul\":2389:2395   */\n      dup3\n        /* \"#utility.yul\":2382:2387   */\n      dup2\n        /* \"#utility.yul\":2375:2396   */\n      mstore\n        /* \"#utility.yul\":2427:2431   */\n      0x20\n        /* \"#utility.yul\":2420:2425   */\n      dup2\n        /* \"#utility.yul\":2416:2432   */\n      add\n        /* \"#utility.yul\":2465:2468   */\n      dup5\n        /* \"#utility.yul\":2456:2462   */\n      dup5\n        /* \"#utility.yul\":2451:2454   */\n      dup5\n        /* \"#utility.yul\":2447:2463   */\n      add\n        /* \"#utility.yul\":2444:2469   */\n      gt\n        /* \"#utility.yul\":2441:2553   */\n      iszero\n      tag_344\n      jumpi\n        /* \"#utility.yul\":2472:2551   */\n      tag_345\n      tag_256\n      jump\t// in\n    tag_345:\n        /* \"#utility.yul\":2441:2553   */\n    tag_344:\n        /* \"#utility.yul\":2562:2616   */\n      tag_346\n        /* \"#utility.yul\":2609:2615   */\n      dup5\n        /* \"#utility.yul\":2604:2607   */\n      dup3\n        /* \"#utility.yul\":2599:2602   */\n      dup6\n        /* \"#utility.yul\":2562:2616   */\n      tag_262\n      jump\t// in\n    tag_346:\n        /* \"#utility.yul\":2281:2622   */\n      pop\n        /* \"#utility.yul\":2197:2622   */\n      swap4\n      swap3\n      pop\n      pop\n      pop\n      jump\t// out\n        /* \"#utility.yul\":2642:2982   */\n    tag_264:\n        /* \"#utility.yul\":2698:2703   */\n      0x00\n        /* \"#utility.yul\":2747:2750   */\n      dup3\n        /* \"#utility.yul\":2740:2744   */\n      0x1f\n        /* \"#utility.yul\":2732:2738   */\n      dup4\n        /* \"#utility.yul\":2728:2745   */\n      add\n        /* \"#utility.yul\":2724:2751   */\n      slt\n        /* \"#utility.yul\":2714:2836   */\n      tag_348\n      jumpi\n        /* \"#utility.yul\":2755:2834   */\n      tag_349\n      tag_255\n      jump\t// in\n    tag_349:\n        /* \"#utility.yul\":2714:2836   */\n    tag_348:\n        /* \"#utility.yul\":2872:2878   */\n      dup2\n        /* \"#utility.yul\":2859:2879   */\n      calldataload\n        /* \"#utility.yul\":2897:2976   */\n      tag_350\n        /* \"#utility.yul\":2972:2975   */\n      dup5\n        /* \"#utility.yul\":2964:2970   */\n      dup3\n        /* \"#utility.yul\":2957:2961   */\n      0x20\n        /* \"#utility.yul\":2949:2955   */\n      dup7\n        /* \"#utility.yul\":2945:2962   */\n      add\n        /* \"#utility.yul\":2897:2976   */\n      tag_263\n      jump\t// in\n    tag_350:\n        /* \"#utility.yul\":2888:2976   */\n      swap2\n      pop\n        /* \"#utility.yul\":2704:2982   */\n      pop\n        /* \"#utility.yul\":2642:2982   */\n      swap3\n      swap2\n      pop\n      pop\n      jump\t// out\n        /* \"#utility.yul\":2988:3110   */\n    tag_265:\n        /* \"#utility.yul\":3061:3085   */\n      tag_352\n        /* \"#utility.yul\":3079:3084   */\n      dup2\n        /* \"#utility.yul\":3061:3085   */\n      tag_250\n      jump\t// in\n    tag_352:\n        /* \"#utility.yul\":3054:3059   */\n      dup2\n        /* \"#utility.yul\":3051:3086   */\n      eq\n        /* \"#utility.yul\":3041:3104   */\n      tag_353\n      jumpi\n        /* \"#utility.yul\":3100:3101   */\n      0x00\n        /* \"#utility.yul\":3097:3098   */\n      dup1\n        /* \"#utility.yul\":3090:3102   */\n      revert\n        /* \"#utility.yul\":3041:3104   */\n    tag_353:\n        /* \"#utility.yul\":2988:3110   */\n      pop\n      jump\t// out\n        /* \"#utility.yul\":3116:3255   */\n    tag_266:\n        /* \"#utility.yul\":3162:3167   */\n      0x00\n        /* \"#utility.yul\":3200:3206   */\n      dup2\n        /* \"#utility.yul\":3187:3207   */\n      calldataload\n        /* \"#utility.yul\":3178:3207   */\n      swap1\n      pop\n        /* \"#utility.yul\":3216:3249   */\n      tag_355\n        /* \"#utility.yul\":3243:3248   */\n      dup2\n        /* \"#utility.yul\":3216:3249   */\n      tag_265\n      jump\t// in\n    tag_355:\n        /* \"#utility.yul\":3116:3255   */\n      swap3\n      swap2\n      pop\n      pop\n      jump\t// out\n        /* \"#utility.yul\":3261:4498   */\n    tag_26:\n        /* \"#utility.yul\":3375:3381   */\n      0x00\n        /* \"#utility.yul\":3383:3389   */\n      dup1\n        /* \"#utility.yul\":3391:3397   */\n      0x00\n        /* \"#utility.yul\":3399:3405   */\n      dup1\n        /* \"#utility.yul\":3407:3413   */\n      0x00\n        /* \"#utility.yul\":3415:3421   */\n      dup1\n        /* \"#utility.yul\":3464:3467   */\n      0xc0\n        /* \"#utility.yul\":3452:3461   */\n      dup8\n        /* \"#utility.yul\":3443:3450   */\n      dup10\n        /* \"#utility.yul\":3439:3462   */\n      sub\n        /* \"#utility.yul\":3435:3468   */\n      slt\n        /* \"#utility.yul\":3432:3552   */\n      iszero\n      tag_357\n      jumpi\n        /* \"#utility.yul\":3471:3550   */\n      tag_358\n      tag_253\n      jump\t// in\n    tag_358:\n        /* \"#utility.yul\":3432:3552   */\n    tag_357:\n        /* \"#utility.yul\":3619:3620   */\n      0x00\n        /* \"#utility.yul\":3608:3617   */\n      dup8\n        /* \"#utility.yul\":3604:3621   */\n      add\n        /* \"#utility.yul\":3591:3622   */\n      calldataload\n        /* \"#utility.yul\":3649:3667   */\n      0xffffffffffffffff\n        /* \"#utility.yul\":3641:3647   */\n      dup2\n        /* \"#utility.yul\":3638:3668   */\n      gt\n        /* \"#utility.yul\":3635:3752   */\n      iszero\n      tag_359\n      jumpi\n        /* \"#utility.yul\":3671:3750   */\n      tag_360\n      tag_254\n      jump\t// in\n    tag_360:\n        /* \"#utility.yul\":3635:3752   */\n    tag_359:\n        /* \"#utility.yul\":3776:3839   */\n      tag_361\n        /* \"#utility.yul\":3831:3838   */\n      dup10\n        /* \"#utility.yul\":3822:3828   */\n      dup3\n        /* \"#utility.yul\":3811:3820   */\n      dup11\n        /* \"#utility.yul\":3807:3829   */\n      add\n        /* \"#utility.yul\":3776:3839   */\n      tag_264\n      jump\t// in\n    tag_361:\n        /* \"#utility.yul\":3766:3839   */\n      swap7\n      pop\n        /* \"#utility.yul\":3562:3849   */\n      pop\n        /* \"#utility.yul\":3888:3890   */\n      0x20\n        /* \"#utility.yul\":3914:3967   */\n      tag_362\n        /* \"#utility.yul\":3959:3966   */\n      dup10\n        /* \"#utility.yul\":3950:3956   */\n      dup3\n        /* \"#utility.yul\":3939:3948   */\n      dup11\n        /* \"#utility.yul\":3935:3957   */\n      add\n        /* \"#utility.yul\":3914:3967   */\n      tag_266\n      jump\t// in\n    tag_362:\n        /* \"#utility.yul\":3904:3967   */\n      swap6\n      pop\n        /* \"#utility.yul\":3859:3977   */\n      pop\n        /* \"#utility.yul\":4016:4018   */\n      0x40\n        /* \"#utility.yul\":4042:4095   */\n      tag_363\n        /* \"#utility.yul\":4087:4094   */\n      dup10\n        /* \"#utility.yul\":4078:4084   */\n      dup3\n        /* \"#utility.yul\":4067:4076   */\n      dup11\n        /* \"#utility.yul\":4063:4085   */\n      add\n        /* \"#utility.yul\":4042:4095   */\n      tag_266\n      jump\t// in\n    tag_363:\n        /* \"#utility.yul\":4032:4095   */\n      swap5\n      pop\n        /* \"#utility.yul\":3987:4105   */\n      pop\n        /* \"#utility.yul\":4144:4146   */\n      0x60\n        /* \"#utility.yul\":4170:4223   */\n      tag_364\n        /* \"#utility.yul\":4215:4222   */\n      dup10\n        /* \"#utility.yul\":4206:4212   */\n      dup3\n        /* \"#utility.yul\":4195:4204   */\n      dup11\n        /* \"#utility.yul\":4191:4213   */\n      add\n        /* \"#utility.yul\":4170:4223   */\n      tag_266\n      jump\t// in\n    tag_364:\n        /* \"#utility.yul\":4160:4223   */\n      swap4\n      pop\n        /* \"#utility.yul\":4115:4233   */\n      pop\n        /* \"#utility.yul\":4272:4275   */\n      0x80\n        /* \"#utility.yul\":4299:4352   */\n      tag_365\n        /* \"#utility.yul\":4344:4351   */\n      dup10\n        /* \"#utility.yul\":4335:4341   */\n      dup3\n        /* \"#utility.yul\":4324:4333   */\n      dup11\n        /* \"#utility.yul\":4320:4342   */\n      add\n        /* \"#utility.yul\":4299:4352   */\n      tag_266\n      jump\t// in\n    tag_365:\n        /* \"#utility.yul\":4289:4352   */\n      swap3\n      pop\n        /* \"#utility.yul\":4243:4362   */\n      pop\n        /* \"#utility.yul\":4401:4404   */\n      0xa0\n        /* \"#utility.yul\":4428:4481   */\n      tag_366\n        /* \"#utility.yul\":4473:4480   */\n      dup10\n        /* \"#utility.yul\":4464:4470   */\n      dup3\n        /* \"#utility.yul\":4453:4462   */\n      dup11\n        /* \"#utility.yul\":4449:4471   */\n      add\n        /* \"#utility.yul\":4428:4481   */\n      tag_266\n      jump\t// in\n    tag_366:\n        /* \"#utility.yul\":4418:4481   */\n      swap2\n      pop\n        /* \"#utility.yul\":4372:4491   */\n      pop\n        /* \"#utility.yul\":3261:4498   */\n      swap3\n      swap6\n      pop\n      swap3\n      swap6\n      pop\n      swap3\n      swap6\n      jump\t// out\n        /* \"#utility.yul\":4504:4833   */\n    tag_30:\n        /* \"#utility.yul\":4563:4569   */\n      0x00\n        /* \"#utility.yul\":4612:4614   */\n      0x20\n        /* \"#utility.yul\":4600:4609   */\n      dup3\n        /* \"#utility.yul\":4591:4598   */\n      dup5\n        /* \"#utility.yul\":4587:4610   */\n      sub\n        /* \"#utility.yul\":4583:4615   */\n      slt\n        /* \"#utility.yul\":4580:4699   */\n      iszero\n      tag_368\n      jumpi\n        /* \"#utility.yul\":4618:4697   */\n      tag_369\n      tag_253\n      jump\t// in\n    tag_369:\n        /* \"#utility.yul\":4580:4699   */\n    tag_368:\n        /* \"#utility.yul\":4738:4739   */\n      0x00\n        /* \"#utility.yul\":4763:4816   */\n      tag_370\n        /* \"#utility.yul\":4808:4815   */\n      dup5\n        /* \"#utility.yul\":4799:4805   */\n      dup3\n        /* \"#utility.yul\":4788:4797   */\n      dup6\n        /* \"#utility.yul\":4784:4806   */\n      add\n        /* \"#utility.yul\":4763:4816   */\n      tag_266\n      jump\t// in\n    tag_370:\n        /* \"#utility.yul\":4753:4816   */\n      swap2\n      pop\n        /* \"#utility.yul\":4709:4826   */\n      pop\n        /* \"#utility.yul\":4504:4833   */\n      swap3\n      swap2\n      pop\n      pop\n      jump\t// out\n        /* \"#utility.yul\":4839:4938   */\n    tag_267:\n        /* \"#utility.yul\":4891:4897   */\n      0x00\n        /* \"#utility.yul\":4925:4930   */\n      dup2\n        /* \"#utility.yul\":4919:4931   */\n      mload\n        /* \"#utility.yul\":4909:4931   */\n      swap1\n      pop\n        /* \"#utility.yul\":4839:4938   */\n      swap2\n      swap1\n      pop\n      jump\t// out\n        /* \"#utility.yul\":4944:5113   */\n    tag_268:\n        /* \"#utility.yul\":5028:5039   */\n      0x00\n        /* \"#utility.yul\":5062:5068   */\n      dup3\n        /* \"#utility.yul\":5057:5060   */\n      dup3\n        /* \"#utility.yul\":5050:5069   */\n      mstore\n        /* \"#utility.yul\":5102:5106   */\n      0x20\n        /* \"#utility.yul\":5097:5100   */\n      dup3\n        /* \"#utility.yul\":5093:5107   */\n      add\n        /* \"#utility.yul\":5078:5107   */\n      swap1\n      pop\n        /* \"#utility.yul\":4944:5113   */\n      swap3\n      swap2\n      pop\n      pop\n      jump\t// out\n        /* \"#utility.yul\":5119:5365   */\n    tag_269:\n        /* \"#utility.yul\":5200:5201   */\n      0x00\n        /* \"#utility.yul\":5210:5323   */\n    tag_374:\n        /* \"#utility.yul\":5224:5230   */\n      dup4\n        /* \"#utility.yul\":5221:5222   */\n      dup2\n        /* \"#utility.yul\":5218:5231   */\n      lt\n        /* \"#utility.yul\":5210:5323   */\n      iszero\n      tag_376\n      jumpi\n        /* \"#utility.yul\":5309:5310   */\n      dup1\n        /* \"#utility.yul\":5304:5307   */\n      dup3\n        /* \"#utility.yul\":5300:5311   */\n      add\n        /* \"#utility.yul\":5294:5312   */\n      mload\n        /* \"#utility.yul\":5290:5291   */\n      dup2\n        /* \"#utility.yul\":5285:5288   */\n      dup5\n        /* \"#utility.yul\":5281:5292   */\n      add\n        /* \"#utility.yul\":5274:5313   */\n      mstore\n        /* \"#utility.yul\":5246:5248   */\n      0x20\n        /* \"#utility.yul\":5243:5244   */\n      dup2\n        /* \"#utility.yul\":5239:5249   */\n      add\n        /* \"#utility.yul\":5234:5249   */\n      swap1\n      pop\n        /* \"#utility.yul\":5210:5323   */\n      jump(tag_374)\n    tag_376:\n        /* \"#utility.yul\":5357:5358   */\n      0x00\n        /* \"#utility.yul\":5348:5354   */\n      dup5\n        /* \"#utility.yul\":5343:5346   */\n      dup5\n        /* \"#utility.yul\":5339:5355   */\n      add\n        /* \"#utility.yul\":5332:5359   */\n      mstore\n        /* \"#utility.yul\":5181:5365   */\n      pop\n        /* \"#utility.yul\":5119:5365   */\n      pop\n      pop\n      pop\n      jump\t// out\n        /* \"#utility.yul\":5371:5748   */\n    tag_270:\n        /* \"#utility.yul\":5459:5462   */\n      0x00\n        /* \"#utility.yul\":5487:5526   */\n      tag_378\n        /* \"#utility.yul\":5520:5525   */\n      dup3\n        /* \"#utility.yul\":5487:5526   */\n      tag_267\n      jump\t// in\n    tag_378:\n        /* \"#utility.yul\":5542:5613   */\n      tag_379\n        /* \"#utility.yul\":5606:5612   */\n      dup2\n        /* \"#utility.yul\":5601:5604   */\n      dup6\n        /* \"#utility.yul\":5542:5613   */\n      tag_268\n      jump\t// in\n    tag_379:\n        /* \"#utility.yul\":5535:5613   */\n      swap4\n      pop\n        /* \"#utility.yul\":5622:5687   */\n      tag_380\n        /* \"#utility.yul\":5680:5686   */\n      dup2\n        /* \"#utility.yul\":5675:5678   */\n      dup6\n        /* \"#utility.yul\":5668:5672   */\n      0x20\n        /* \"#utility.yul\":5661:5666   */\n      dup7\n        /* \"#utility.yul\":5657:5673   */\n      add\n        /* \"#utility.yul\":5622:5687   */\n      tag_269\n      jump\t// in\n    tag_380:\n        /* \"#utility.yul\":5712:5741   */\n      tag_381\n        /* \"#utility.yul\":5734:5740   */\n      dup2\n        /* \"#utility.yul\":5712:5741   */\n      tag_257\n      jump\t// in\n    tag_381:\n        /* \"#utility.yul\":5707:5710   */\n      dup5\n        /* \"#utility.yul\":5703:5742   */\n      add\n        /* \"#utility.yul\":5696:5742   */\n      swap2\n      pop\n        /* \"#utility.yul\":5463:5748   */\n      pop\n        /* \"#utility.yul\":5371:5748   */\n      swap3\n      swap2\n      pop\n      pop\n      jump\t// out\n        /* \"#utility.yul\":5754:5880   */\n    tag_271:\n        /* \"#utility.yul\":5791:5798   */\n      0x00\n        /* \"#utility.yul\":5831:5873   */\n      0xffffffffffffffffffffffffffffffffffffffff\n        /* \"#utility.yul\":5824:5829   */\n      dup3\n        /* \"#utility.yul\":5820:5874   */\n      and\n        /* \"#utility.yul\":5809:5874   */\n      swap1\n      pop\n        /* \"#utility.yul\":5754:5880   */\n      swap2\n      swap1\n      pop\n      jump\t// out\n        /* \"#utility.yul\":5886:5982   */\n    tag_272:\n        /* \"#utility.yul\":5923:5930   */\n      0x00\n        /* \"#utility.yul\":5952:5976   */\n      tag_384\n        /* \"#utility.yul\":5970:5975   */\n      dup3\n        /* \"#utility.yul\":5952:5976   */\n      tag_271\n      jump\t// in\n    tag_384:\n        /* \"#utility.yul\":5941:5976   */\n      swap1\n      pop\n        /* \"#utility.yul\":5886:5982   */\n      swap2\n      swap1\n      pop\n      jump\t// out\n        /* \"#utility.yul\":5988:6106   */\n    tag_273:\n        /* \"#utility.yul\":6075:6099   */\n      tag_386\n        /* \"#utility.yul\":6093:6098   */\n      dup2\n        /* \"#utility.yul\":6075:6099   */\n      tag_272\n      jump\t// in\n    tag_386:\n        /* \"#utility.yul\":6070:6073   */\n      dup3\n        /* \"#utility.yul\":6063:6100   */\n      mstore\n        /* \"#utility.yul\":5988:6106   */\n      pop\n      pop\n      jump\t// out\n        /* \"#utility.yul\":6112:6736   */\n    tag_33:\n        /* \"#utility.yul\":6301:6305   */\n      0x00\n        /* \"#utility.yul\":6339:6341   */\n      0x60\n        /* \"#utility.yul\":6328:6337   */\n      dup3\n        /* \"#utility.yul\":6324:6342   */\n      add\n        /* \"#utility.yul\":6316:6342   */\n      swap1\n      pop\n        /* \"#utility.yul\":6388:6397   */\n      dup2\n        /* \"#utility.yul\":6382:6386   */\n      dup2\n        /* \"#utility.yul\":6378:6398   */\n      sub\n        /* \"#utility.yul\":6374:6375   */\n      0x00\n        /* \"#utility.yul\":6363:6372   */\n      dup4\n        /* \"#utility.yul\":6359:6376   */\n      add\n        /* \"#utility.yul\":6352:6399   */\n      mstore\n        /* \"#utility.yul\":6416:6494   */\n      tag_388\n        /* \"#utility.yul\":6489:6493   */\n      dup2\n        /* \"#utility.yul\":6480:6486   */\n      dup7\n        /* \"#utility.yul\":6416:6494   */\n      tag_270\n      jump\t// in\n    tag_388:\n        /* \"#utility.yul\":6408:6494   */\n      swap1\n      pop\n        /* \"#utility.yul\":6541:6550   */\n      dup2\n        /* \"#utility.yul\":6535:6539   */\n      dup2\n        /* \"#utility.yul\":6531:6551   */\n      sub\n        /* \"#utility.yul\":6526:6528   */\n      0x20\n        /* \"#utility.yul\":6515:6524   */\n      dup4\n        /* \"#utility.yul\":6511:6529   */\n      add\n        /* \"#utility.yul\":6504:6552   */\n      mstore\n        /* \"#utility.yul\":6569:6647   */\n      tag_389\n        /* \"#utility.yul\":6642:6646   */\n      dup2\n        /* \"#utility.yul\":6633:6639   */\n      dup6\n        /* \"#utility.yul\":6569:6647   */\n      tag_270\n      jump\t// in\n    tag_389:\n        /* \"#utility.yul\":6561:6647   */\n      swap1\n      pop\n        /* \"#utility.yul\":6657:6729   */\n      tag_390\n        /* \"#utility.yul\":6725:6727   */\n      0x40\n        /* \"#utility.yul\":6714:6723   */\n      dup4\n        /* \"#utility.yul\":6710:6728   */\n      add\n        /* \"#utility.yul\":6701:6707   */\n      dup5\n        /* \"#utility.yul\":6657:6729   */\n      tag_273\n      jump\t// in\n    tag_390:\n        /* \"#utility.yul\":6112:6736   */\n      swap5\n      swap4\n      pop\n      pop\n      pop\n      pop\n      jump\t// out\n        /* \"#utility.yul\":6742:7055   */\n    tag_38:\n        /* \"#utility.yul\":6855:6859   */\n      0x00\n        /* \"#utility.yul\":6893:6895   */\n      0x20\n        /* \"#utility.yul\":6882:6891   */\n      dup3\n        /* \"#utility.yul\":6878:6896   */\n      add\n        /* \"#utility.yul\":6870:6896   */\n      swap1\n      pop\n        /* \"#utility.yul\":6942:6951   */\n      dup2\n        /* \"#utility.yul\":6936:6940   */\n      dup2\n        /* \"#utility.yul\":6932:6952   */\n      sub\n        /* \"#utility.yul\":6928:6929   */\n      0x00\n        /* \"#utility.yul\":6917:6926   */\n      dup4\n        /* \"#utility.yul\":6913:6930   */\n      add\n        /* \"#utility.yul\":6906:6953   */\n      mstore\n        /* \"#utility.yul\":6970:7048   */\n      tag_392\n        /* \"#utility.yul\":7043:7047   */\n      dup2\n        /* \"#utility.yul\":7034:7040   */\n      dup5\n        /* \"#utility.yul\":6970:7048   */\n      tag_270\n      jump\t// in\n    tag_392:\n        /* \"#utility.yul\":6962:7048   */\n      swap1\n      pop\n        /* \"#utility.yul\":6742:7055   */\n      swap3\n      swap2\n      pop\n      pop\n      jump\t// out\n        /* \"#utility.yul\":7061:8152   */\n    tag_41:\n        /* \"#utility.yul\":7166:7172   */\n      0x00\n        /* \"#utility.yul\":7174:7180   */\n      dup1\n        /* \"#utility.yul\":7182:7188   */\n      0x00\n        /* \"#utility.yul\":7190:7196   */\n      dup1\n        /* \"#utility.yul\":7198:7204   */\n      0x00\n        /* \"#utility.yul\":7247:7250   */\n      0xa0\n        /* \"#utility.yul\":7235:7244   */\n      dup7\n        /* \"#utility.yul\":7226:7233   */\n      dup9\n        /* \"#utility.yul\":7222:7245   */\n      sub\n        /* \"#utility.yul\":7218:7251   */\n      slt\n        /* \"#utility.yul\":7215:7335   */\n      iszero\n      tag_394\n      jumpi\n        /* \"#utility.yul\":7254:7333   */\n      tag_395\n      tag_253\n      jump\t// in\n    tag_395:\n        /* \"#utility.yul\":7215:7335   */\n    tag_394:\n        /* \"#utility.yul\":7402:7403   */\n      0x00\n        /* \"#utility.yul\":7391:7400   */\n      dup7\n        /* \"#utility.yul\":7387:7404   */\n      add\n        /* \"#utility.yul\":7374:7405   */\n      calldataload\n        /* \"#utility.yul\":7432:7450   */\n      0xffffffffffffffff\n        /* \"#utility.yul\":7424:7430   */\n      dup2\n        /* \"#utility.yul\":7421:7451   */\n      gt\n        /* \"#utility.yul\":7418:7535   */\n      iszero\n      tag_396\n      jumpi\n        /* \"#utility.yul\":7454:7533   */\n      tag_397\n      tag_254\n      jump\t// in\n    tag_397:\n        /* \"#utility.yul\":7418:7535   */\n    tag_396:\n        /* \"#utility.yul\":7559:7622   */\n      tag_398\n        /* \"#utility.yul\":7614:7621   */\n      dup9\n        /* \"#utility.yul\":7605:7611   */\n      dup3\n        /* \"#utility.yul\":7594:7603   */\n      dup10\n        /* \"#utility.yul\":7590:7612   */\n      add\n        /* \"#utility.yul\":7559:7622   */\n      tag_264\n      jump\t// in\n    tag_398:\n        /* \"#utility.yul\":7549:7622   */\n      swap6\n      pop\n        /* \"#utility.yul\":7345:7632   */\n      pop\n        /* \"#utility.yul\":7671:7673   */\n      0x20\n        /* \"#utility.yul\":7697:7750   */\n      tag_399\n        /* \"#utility.yul\":7742:7749   */\n      dup9\n        /* \"#utility.yul\":7733:7739   */\n      dup3\n        /* \"#utility.yul\":7722:7731   */\n      dup10\n        /* \"#utility.yul\":7718:7740   */\n      add\n        /* \"#utility.yul\":7697:7750   */\n      tag_266\n      jump\t// in\n    tag_399:\n        /* \"#utility.yul\":7687:7750   */\n      swap5\n      pop\n        /* \"#utility.yul\":7642:7760   */\n      pop\n        /* \"#utility.yul\":7799:7801   */\n      0x40\n        /* \"#utility.yul\":7825:7878   */\n      tag_400\n        /* \"#utility.yul\":7870:7877   */\n      dup9\n        /* \"#utility.yul\":7861:7867   */\n      dup3\n        /* \"#utility.yul\":7850:7859   */\n      dup10\n        /* \"#utility.yul\":7846:7868   */\n      add\n        /* \"#utility.yul\":7825:7878   */\n      tag_266\n      jump\t// in\n    tag_400:\n        /* \"#utility.yul\":7815:7878   */\n      swap4\n      pop\n        /* \"#utility.yul\":7770:7888   */\n      pop\n        /* \"#utility.yul\":7927:7929   */\n      0x60\n        /* \"#utility.yul\":7953:8006   */\n      tag_401\n        /* \"#utility.yul\":7998:8005   */\n      dup9\n        /* \"#utility.yul\":7989:7995   */\n      dup3\n        /* \"#utility.yul\":7978:7987   */\n      dup10\n        /* \"#utility.yul\":7974:7996   */\n      add\n        /* \"#utility.yul\":7953:8006   */\n      tag_266\n      jump\t// in\n    tag_401:\n        /* \"#utility.yul\":7943:8006   */\n      swap3\n      pop\n        /* \"#utility.yul\":7898:8016   */\n      pop\n        /* \"#utility.yul\":8055:8058   */\n      0x80\n        /* \"#utility.yul\":8082:8135   */\n      tag_402\n        /* \"#utility.yul\":8127:8134   */\n      dup9\n        /* \"#utility.yul\":8118:8124   */\n      dup3\n        /* \"#utility.yul\":8107:8116   */\n      dup10\n        /* \"#utility.yul\":8103:8125   */\n      add\n        /* \"#utility.yul\":8082:8135   */\n      tag_266\n      jump\t// in\n    tag_402:\n        /* \"#utility.yul\":8072:8135   */\n      swap2\n      pop\n        /* \"#utility.yul\":8026:8145   */\n      pop\n        /* \"#utility.yul\":7061:8152   */\n      swap3\n      swap6\n      pop\n      swap3\n      swap6\n      swap1\n      swap4\n      pop\n      jump\t// out\n        /* \"#utility.yul\":8158:8667   */\n    tag_48:\n        /* \"#utility.yul\":8227:8233   */\n      0x00\n        /* \"#utility.yul\":8276:8278   */\n      0x20\n        /* \"#utility.yul\":8264:8273   */\n      dup3\n        /* \"#utility.yul\":8255:8262   */\n      dup5\n        /* \"#utility.yul\":8251:8274   */\n      sub\n        /* \"#utility.yul\":8247:8279   */\n      slt\n        /* \"#utility.yul\":8244:8363   */\n      iszero\n      tag_404\n      jumpi\n        /* \"#utility.yul\":8282:8361   */\n      tag_405\n      tag_253\n      jump\t// in\n    tag_405:\n        /* \"#utility.yul\":8244:8363   */\n    tag_404:\n        /* \"#utility.yul\":8430:8431   */\n      0x00\n        /* \"#utility.yul\":8419:8428   */\n      dup3\n        /* \"#utility.yul\":8415:8432   */\n      add\n        /* \"#utility.yul\":8402:8433   */\n      calldataload\n        /* \"#utility.yul\":8460:8478   */\n      0xffffffffffffffff\n        /* \"#utility.yul\":8452:8458   */\n      dup2\n        /* \"#utility.yul\":8449:8479   */\n      gt\n        /* \"#utility.yul\":8446:8563   */\n      iszero\n      tag_406\n      jumpi\n        /* \"#utility.yul\":8482:8561   */\n      tag_407\n      tag_254\n      jump\t// in\n    tag_407:\n        /* \"#utility.yul\":8446:8563   */\n    tag_406:\n        /* \"#utility.yul\":8587:8650   */\n      tag_408\n        /* \"#utility.yul\":8642:8649   */\n      dup5\n        /* \"#utility.yul\":8633:8639   */\n      dup3\n        /* \"#utility.yul\":8622:8631   */\n      dup6\n        /* \"#utility.yul\":8618:8640   */\n      add\n        /* \"#utility.yul\":8587:8650   */\n      tag_264\n      jump\t// in\n    tag_408:\n        /* \"#utility.yul\":8577:8650   */\n      swap2\n      pop\n        /* \"#utility.yul\":8373:8660   */\n      pop\n        /* \"#utility.yul\":8158:8667   */\n      swap3\n      swap2\n      pop\n      pop\n      jump\t// out\n        /* \"#utility.yul\":8673:9327   */\n    tag_53:\n        /* \"#utility.yul\":8751:8757   */\n      0x00\n        /* \"#utility.yul\":8759:8765   */\n      dup1\n        /* \"#utility.yul\":8808:8810   */\n      0x40\n        /* \"#utility.yul\":8796:8805   */\n      dup4\n        /* \"#utility.yul\":8787:8794   */\n      dup6\n        /* \"#utility.yul\":8783:8806   */\n      sub\n        /* \"#utility.yul\":8779:8811   */\n      slt\n        /* \"#utility.yul\":8776:8895   */\n      iszero\n      tag_410\n      jumpi\n        /* \"#utility.yul\":8814:8893   */\n      tag_411\n      tag_253\n      jump\t// in\n    tag_411:\n        /* \"#utility.yul\":8776:8895   */\n    tag_410:\n        /* \"#utility.yul\":8934:8935   */\n      0x00\n        /* \"#utility.yul\":8959:9012   */\n      tag_412\n        /* \"#utility.yul\":9004:9011   */\n      dup6\n        /* \"#utility.yul\":8995:9001   */\n      dup3\n        /* \"#utility.yul\":8984:8993   */\n      dup7\n        /* \"#utility.yul\":8980:9002   */\n      add\n        /* \"#utility.yul\":8959:9012   */\n      tag_266\n      jump\t// in\n    tag_412:\n        /* \"#utility.yul\":8949:9012   */\n      swap3\n      pop\n        /* \"#utility.yul\":8905:9022   */\n      pop\n        /* \"#utility.yul\":9089:9091   */\n      0x20\n        /* \"#utility.yul\":9078:9087   */\n      dup4\n        /* \"#utility.yul\":9074:9092   */\n      add\n        /* \"#utility.yul\":9061:9093   */\n      calldataload\n        /* \"#utility.yul\":9120:9138   */\n      0xffffffffffffffff\n        /* \"#utility.yul\":9112:9118   */\n      dup2\n        /* \"#utility.yul\":9109:9139   */\n      gt\n        /* \"#utility.yul\":9106:9223   */\n      iszero\n      tag_413\n      jumpi\n        /* \"#utility.yul\":9142:9221   */\n      tag_414\n      tag_254\n      jump\t// in\n    tag_414:\n        /* \"#utility.yul\":9106:9223   */\n    tag_413:\n        /* \"#utility.yul\":9247:9310   */\n      tag_415\n        /* \"#utility.yul\":9302:9309   */\n      dup6\n        /* \"#utility.yul\":9293:9299   */\n      dup3\n        /* \"#utility.yul\":9282:9291   */\n      dup7\n        /* \"#utility.yul\":9278:9300   */\n      add\n        /* \"#utility.yul\":9247:9310   */\n      tag_264\n      jump\t// in\n    tag_415:\n        /* \"#utility.yul\":9237:9310   */\n      swap2\n      pop\n        /* \"#utility.yul\":9032:9320   */\n      pop\n        /* \"#utility.yul\":8673:9327   */\n      swap3\n      pop\n      swap3\n      swap1\n      pop\n      jump\t// out\n        /* \"#utility.yul\":9333:10167   */\n    tag_64:\n        /* \"#utility.yul\":9421:9427   */\n      0x00\n        /* \"#utility.yul\":9429:9435   */\n      dup1\n        /* \"#utility.yul\":9478:9480   */\n      0x40\n        /* \"#utility.yul\":9466:9475   */\n      dup4\n        /* \"#utility.yul\":9457:9464   */\n      dup6\n        /* \"#utility.yul\":9453:9476   */\n      sub\n        /* \"#utility.yul\":9449:9481   */\n      slt\n        /* \"#utility.yul\":9446:9565   */\n      iszero\n      tag_417\n      jumpi\n        /* \"#utility.yul\":9484:9563   */\n      tag_418\n      tag_253\n      jump\t// in\n    tag_418:\n        /* \"#utility.yul\":9446:9565   */\n    tag_417:\n        /* \"#utility.yul\":9632:9633   */\n      0x00\n        /* \"#utility.yul\":9621:9630   */\n      dup4\n        /* \"#utility.yul\":9617:9634   */\n      add\n        /* \"#utility.yul\":9604:9635   */\n      calldataload\n        /* \"#utility.yul\":9662:9680   */\n      0xffffffffffffffff\n        /* \"#utility.yul\":9654:9660   */\n      dup2\n        /* \"#utility.yul\":9651:9681   */\n      gt\n        /* \"#utility.yul\":9648:9765   */\n      iszero\n      tag_419\n      jumpi\n        /* \"#utility.yul\":9684:9763   */\n      tag_420\n      tag_254\n      jump\t// in\n    tag_420:\n        /* \"#utility.yul\":9648:9765   */\n    tag_419:\n        /* \"#utility.yul\":9789:9852   */\n      tag_421\n        /* \"#utility.yul\":9844:9851   */\n      dup6\n        /* \"#utility.yul\":9835:9841   */\n      dup3\n        /* \"#utility.yul\":9824:9833   */\n      dup7\n        /* \"#utility.yul\":9820:9842   */\n      add\n        /* \"#utility.yul\":9789:9852   */\n      tag_264\n      jump\t// in\n    tag_421:\n        /* \"#utility.yul\":9779:9852   */\n      swap3\n      pop\n        /* \"#utility.yul\":9575:9862   */\n      pop\n        /* \"#utility.yul\":9929:9931   */\n      0x20\n        /* \"#utility.yul\":9918:9927   */\n      dup4\n        /* \"#utility.yul\":9914:9932   */\n      add\n        /* \"#utility.yul\":9901:9933   */\n      calldataload\n        /* \"#utility.yul\":9960:9978   */\n      0xffffffffffffffff\n        /* \"#utility.yul\":9952:9958   */\n      dup2\n        /* \"#utility.yul\":9949:9979   */\n      gt\n        /* \"#utility.yul\":9946:10063   */\n      iszero\n      tag_422\n      jumpi\n        /* \"#utility.yul\":9982:10061   */\n      tag_423\n      tag_254\n      jump\t// in\n    tag_423:\n        /* \"#utility.yul\":9946:10063   */\n    tag_422:\n        /* \"#utility.yul\":10087:10150   */\n      tag_424\n        /* \"#utility.yul\":10142:10149   */\n      dup6\n        /* \"#utility.yul\":10133:10139   */\n      dup3\n        /* \"#utility.yul\":10122:10131   */\n      dup7\n        /* \"#utility.yul\":10118:10140   */\n      add\n        /* \"#utility.yul\":10087:10150   */\n      tag_264\n      jump\t// in\n    tag_424:\n        /* \"#utility.yul\":10077:10150   */\n      swap2\n      pop\n        /* \"#utility.yul\":9872:10160   */\n      pop\n        /* \"#utility.yul\":9333:10167   */\n      swap3\n      pop\n      swap3\n      swap1\n      pop\n      jump\t// out\n        /* \"#utility.yul\":10173:11556   */\n    tag_69:\n        /* \"#utility.yul\":10296:10302   */\n      0x00\n        /* \"#utility.yul\":10304:10310   */\n      dup1\n        /* \"#utility.yul\":10312:10318   */\n      0x00\n        /* \"#utility.yul\":10320:10326   */\n      dup1\n        /* \"#utility.yul\":10328:10334   */\n      0x00\n        /* \"#utility.yul\":10336:10342   */\n      dup1\n        /* \"#utility.yul\":10344:10350   */\n      0x00\n        /* \"#utility.yul\":10393:10396   */\n      0xe0\n        /* \"#utility.yul\":10381:10390   */\n      dup9\n        /* \"#utility.yul\":10372:10379   */\n      dup11\n        /* \"#utility.yul\":10368:10391   */\n      sub\n        /* \"#utility.yul\":10364:10397   */\n      slt\n        /* \"#utility.yul\":10361:10481   */\n      iszero\n      tag_426\n      jumpi\n        /* \"#utility.yul\":10400:10479   */\n      tag_427\n      tag_253\n      jump\t// in\n    tag_427:\n        /* \"#utility.yul\":10361:10481   */\n    tag_426:\n        /* \"#utility.yul\":10548:10549   */\n      0x00\n        /* \"#utility.yul\":10537:10546   */\n      dup9\n        /* \"#utility.yul\":10533:10550   */\n      add\n        /* \"#utility.yul\":10520:10551   */\n      calldataload\n        /* \"#utility.yul\":10578:10596   */\n      0xffffffffffffffff\n        /* \"#utility.yul\":10570:10576   */\n      dup2\n        /* \"#utility.yul\":10567:10597   */\n      gt\n        /* \"#utility.yul\":10564:10681   */\n      iszero\n      tag_428\n      jumpi\n        /* \"#utility.yul\":10600:10679   */\n      tag_429\n      tag_254\n      jump\t// in\n    tag_429:\n        /* \"#utility.yul\":10564:10681   */\n    tag_428:\n        /* \"#utility.yul\":10705:10768   */\n      tag_430\n        /* \"#utility.yul\":10760:10767   */\n      dup11\n        /* \"#utility.yul\":10751:10757   */\n      dup3\n        /* \"#utility.yul\":10740:10749   */\n      dup12\n        /* \"#utility.yul\":10736:10758   */\n      add\n        /* \"#utility.yul\":10705:10768   */\n      tag_264\n      jump\t// in\n    tag_430:\n        /* \"#utility.yul\":10695:10768   */\n      swap8\n      pop\n        /* \"#utility.yul\":10491:10778   */\n      pop\n        /* \"#utility.yul\":10817:10819   */\n      0x20\n        /* \"#utility.yul\":10843:10896   */\n      tag_431\n        /* \"#utility.yul\":10888:10895   */\n      dup11\n        /* \"#utility.yul\":10879:10885   */\n      dup3\n        /* \"#utility.yul\":10868:10877   */\n      dup12\n        /* \"#utility.yul\":10864:10886   */\n      add\n        /* \"#utility.yul\":10843:10896   */\n      tag_266\n      jump\t// in\n    tag_431:\n        /* \"#utility.yul\":10833:10896   */\n      swap7\n      pop\n        /* \"#utility.yul\":10788:10906   */\n      pop\n        /* \"#utility.yul\":10945:10947   */\n      0x40\n        /* \"#utility.yul\":10971:11024   */\n      tag_432\n        /* \"#utility.yul\":11016:11023   */\n      dup11\n        /* \"#utility.yul\":11007:11013   */\n      dup3\n        /* \"#utility.yul\":10996:11005   */\n      dup12\n        /* \"#utility.yul\":10992:11014   */\n      add\n        /* \"#utility.yul\":10971:11024   */\n      tag_266\n      jump\t// in\n    tag_432:\n        /* \"#utility.yul\":10961:11024   */\n      swap6\n      pop\n        /* \"#utility.yul\":10916:11034   */\n      pop\n        /* \"#utility.yul\":11073:11075   */\n      0x60\n        /* \"#utility.yul\":11099:11152   */\n      tag_433\n        /* \"#utility.yul\":11144:11151   */\n      dup11\n        /* \"#utility.yul\":11135:11141   */\n      dup3\n        /* \"#utility.yul\":11124:11133   */\n      dup12\n        /* \"#utility.yul\":11120:11142   */\n      add\n        /* \"#utility.yul\":11099:11152   */\n      tag_266\n      jump\t// in\n    tag_433:\n        /* \"#utility.yul\":11089:11152   */\n      swap5\n      pop\n        /* \"#utility.yul\":11044:11162   */\n      pop\n        /* \"#utility.yul\":11201:11204   */\n      0x80\n        /* \"#utility.yul\":11228:11281   */\n      tag_434\n        /* \"#utility.yul\":11273:11280   */\n      dup11\n        /* \"#utility.yul\":11264:11270   */\n      dup3\n        /* \"#utility.yul\":11253:11262   */\n      dup12\n        /* \"#utility.yul\":11249:11271   */\n      add\n        /* \"#utility.yul\":11228:11281   */\n      tag_266\n      jump\t// in\n    tag_434:\n        /* \"#utility.yul\":11218:11281   */\n      swap4\n      pop\n        /* \"#utility.yul\":11172:11291   */\n      pop\n        /* \"#utility.yul\":11330:11333   */\n      0xa0\n        /* \"#utility.yul\":11357:11410   */\n      tag_435\n        /* \"#utility.yul\":11402:11409   */\n      dup11\n        /* \"#utility.yul\":11393:11399   */\n      dup3\n        /* \"#utility.yul\":11382:11391   */\n      dup12\n        /* \"#utility.yul\":11378:11400   */\n      add\n        /* \"#utility.yul\":11357:11410   */\n      tag_266\n      jump\t// in\n    tag_435:\n        /* \"#utility.yul\":11347:11410   */\n      swap3\n      pop\n        /* \"#utility.yul\":11301:11420   */\n      pop\n        /* \"#utility.yul\":11459:11462   */\n      0xc0\n        /* \"#utility.yul\":11486:11539   */\n      tag_436\n        /* \"#utility.yul\":11531:11538   */\n      dup11\n        /* \"#utility.yul\":11522:11528   */\n      dup3\n        /* \"#utility.yul\":11511:11520   */\n      dup12\n        /* \"#utility.yul\":11507:11529   */\n      add\n        /* \"#utility.yul\":11486:11539   */\n      tag_266\n      jump\t// in\n    tag_436:\n        /* \"#utility.yul\":11476:11539   */\n      swap2\n      pop\n        /* \"#utility.yul\":11430:11549   */\n      pop\n        /* \"#utility.yul\":10173:11556   */\n      swap3\n      swap6\n      swap9\n      swap2\n      swap5\n      swap8\n      pop\n      swap3\n      swap6\n      pop\n      jump\t// out\n        /* \"#utility.yul\":11562:11742   */\n    tag_83:\n        /* \"#utility.yul\":11610:11687   */\n      0x4e487b7100000000000000000000000000000000000000000000000000000000\n        /* \"#utility.yul\":11607:11608   */\n      0x00\n        /* \"#utility.yul\":11600:11688   */\n      mstore\n        /* \"#utility.yul\":11707:11711   */\n      0x32\n        /* \"#utility.yul\":11704:11705   */\n      0x04\n        /* \"#utility.yul\":11697:11712   */\n      mstore\n        /* \"#utility.yul\":11731:11735   */\n      0x24\n        /* \"#utility.yul\":11728:11729   */\n      0x00\n        /* \"#utility.yul\":11721:11736   */\n      revert\n        /* \"#utility.yul\":11748:11928   */\n    tag_274:\n        /* \"#utility.yul\":11796:11873   */\n      0x4e487b7100000000000000000000000000000000000000000000000000000000\n        /* \"#utility.yul\":11793:11794   */\n      0x00\n        /* \"#utility.yul\":11786:11874   */\n      mstore\n        /* \"#utility.yul\":11893:11897   */\n      0x22\n        /* \"#utility.yul\":11890:11891   */\n      0x04\n        /* \"#utility.yul\":11883:11898   */\n      mstore\n        /* \"#utility.yul\":11917:11921   */\n      0x24\n        /* \"#utility.yul\":11914:11915   */\n      0x00\n        /* \"#utility.yul\":11907:11922   */\n      revert\n        /* \"#utility.yul\":11934:12254   */\n    tag_103:\n        /* \"#utility.yul\":11978:11984   */\n      0x00\n        /* \"#utility.yul\":12015:12016   */\n      0x02\n        /* \"#utility.yul\":12009:12013   */\n      dup3\n        /* \"#utility.yul\":12005:12017   */\n      div\n        /* \"#utility.yul\":11995:12017   */\n      swap1\n      pop\n        /* \"#utility.yul\":12062:12063   */\n      0x01\n        /* \"#utility.yul\":12056:12060   */\n      dup3\n        /* \"#utility.yul\":12052:12064   */\n      and\n        /* \"#utility.yul\":12083:12101   */\n      dup1\n        /* \"#utility.yul\":12073:12154   */\n      tag_440\n      jumpi\n        /* \"#utility.yul\":12139:12143   */\n      0x7f\n        /* \"#utility.yul\":12131:12137   */\n      dup3\n        /* \"#utility.yul\":12127:12144   */\n      and\n        /* \"#utility.yul\":12117:12144   */\n      swap2\n      pop\n        /* \"#utility.yul\":12073:12154   */\n    tag_440:\n        /* \"#utility.yul\":12201:12203   */\n      0x20\n        /* \"#utility.yul\":12193:12199   */\n      dup3\n        /* \"#utility.yul\":12190:12204   */\n      lt\n        /* \"#utility.yul\":12170:12188   */\n      dup2\n        /* \"#utility.yul\":12167:12205   */\n      sub\n        /* \"#utility.yul\":12164:12248   */\n      tag_441\n      jumpi\n        /* \"#utility.yul\":12220:12238   */\n      tag_442\n      tag_274\n      jump\t// in\n    tag_442:\n        /* \"#utility.yul\":12164:12248   */\n    tag_441:\n        /* \"#utility.yul\":11985:12254   */\n      pop\n        /* \"#utility.yul\":11934:12254   */\n      swap2\n      swap1\n      pop\n      jump\t// out\n        /* \"#utility.yul\":12260:12401   */\n    tag_275:\n        /* \"#utility.yul\":12309:12313   */\n      0x00\n        /* \"#utility.yul\":12332:12335   */\n      dup2\n        /* \"#utility.yul\":12324:12335   */\n      swap1\n      pop\n        /* \"#utility.yul\":12355:12358   */\n      dup2\n        /* \"#utility.yul\":12352:12353   */\n      0x00\n        /* \"#utility.yul\":12345:12359   */\n      mstore\n        /* \"#utility.yul\":12389:12393   */\n      0x20\n        /* \"#utility.yul\":12386:12387   */\n      0x00\n        /* \"#utility.yul\":12376:12394   */\n      keccak256\n        /* \"#utility.yul\":12368:12394   */\n      swap1\n      pop\n        /* \"#utility.yul\":12260:12401   */\n      swap2\n      swap1\n      pop\n      jump\t// out\n        /* \"#utility.yul\":12407:12500   */\n    tag_276:\n        /* \"#utility.yul\":12444:12450   */\n      0x00\n        /* \"#utility.yul\":12491:12493   */\n      0x20\n        /* \"#utility.yul\":12486:12488   */\n      0x1f\n        /* \"#utility.yul\":12479:12484   */\n      dup4\n        /* \"#utility.yul\":12475:12489   */\n      add\n        /* \"#utility.yul\":12471:12494   */\n      div\n        /* \"#utility.yul\":12461:12494   */\n      swap1\n      pop\n        /* \"#utility.yul\":12407:12500   */\n      swap2\n      swap1\n      pop\n      jump\t// out\n        /* \"#utility.yul\":12506:12613   */\n    tag_277:\n        /* \"#utility.yul\":12550:12558   */\n      0x00\n        /* \"#utility.yul\":12600:12605   */\n      dup3\n        /* \"#utility.yul\":12594:12598   */\n      dup3\n        /* \"#utility.yul\":12590:12606   */\n      shl\n        /* \"#utility.yul\":12569:12606   */\n      swap1\n      pop\n        /* \"#utility.yul\":12506:12613   */\n      swap3\n      swap2\n      pop\n      pop\n      jump\t// out\n        /* \"#utility.yul\":12619:13012   */\n    tag_278:\n        /* \"#utility.yul\":12688:12694   */\n      0x00\n        /* \"#utility.yul\":12738:12739   */\n      0x08\n        /* \"#utility.yul\":12726:12736   */\n      dup4\n        /* \"#utility.yul\":12722:12740   */\n      mul\n        /* \"#utility.yul\":12761:12858   */\n      tag_447\n        /* \"#utility.yul\":12791:12857   */\n      0xffffffffffffffffffffffffffffffffffffffffffffffffffffffffffffffff\n        /* \"#utility.yul\":12780:12789   */\n      dup3\n        /* \"#utility.yul\":12761:12858   */\n      tag_277\n      jump\t// in\n    tag_447:\n        /* \"#utility.yul\":12879:12918   */\n      tag_448\n        /* \"#utility.yul\":12909:12917   */\n      dup7\n        /* \"#utility.yul\":12898:12907   */\n      dup4\n        /* \"#utility.yul\":12879:12918   */\n      tag_277\n      jump\t// in\n    tag_448:\n        /* \"#utility.yul\":12867:12918   */\n      swap6\n      pop\n        /* \"#utility.yul\":12951:12955   */\n      dup1\n        /* \"#utility.yul\":12947:12956   */\n      not\n        /* \"#utility.yul\":12940:12945   */\n      dup5\n        /* \"#utility.yul\":12936:12957   */\n      and\n        /* \"#utility.yul\":12927:12957   */\n      swap4\n      pop\n        /* \"#utility.yul\":13000:13004   */\n      dup1\n        /* \"#utility.yul\":12990:12998   */\n      dup7\n        /* \"#utility.yul\":12986:13005   */\n      and\n        /* \"#utility.yul\":12979:12984   */\n      dup5\n        /* \"#utility.yul\":12976:13006   */\n      or\n        /* \"#utility.yul\":12966:13006   */\n      swap3\n      pop\n        /* \"#utility.yul\":12695:13012   */\n      pop\n      pop\n        /* \"#utility.yul\":12619:13012   */\n      swap4\n      swap3\n      pop\n      pop\n      pop\n      jump\t// out\n        /* \"#utility.yul\":13018:13078   */\n    tag_279:\n        /* \"#utility.yul\":13046:13049   */\n      0x00\n        /* \"#utility.yul\":13067:13072   */\n      dup2\n        /* \"#utility.yul\":13060:13072   */\n      swap1\n      pop\n        /* \"#utility.yul\":13018:13078   */\n      swap2\n      swap1\n      pop\n      jump\t// out\n        /* \"#utility.yul\":13084:13226   */\n    tag_280:\n        /* \"#utility.yul\":13134:13143   */\n      0x00\n        /* \"#utility.yul\":13167:13220   */\n      tag_451\n        /* \"#utility.yul\":13185:13219   */\n      tag_452\n        /* \"#utility.yul\":13194:13218   */\n      tag_453\n        /* \"#utility.yul\":13212:13217   */\n      dup5\n        /* \"#utility.yul\":13194:13218   */\n      tag_250\n      jump\t// in\n    tag_453:\n        /* \"#utility.yul\":13185:13219   */\n      tag_279\n      jump\t// in\n    tag_452:\n        /* \"#utility.yul\":13167:13220   */\n      tag_250\n      jump\t// in\n    tag_451:\n        /* \"#utility.yul\":13154:13220   */\n      swap1\n      pop\n        /* \"#utility.yul\":13084:13226   */\n      swap2\n      swap1\n      pop\n      jump\t// out\n        /* \"#utility.yul\":13232:13307   */\n    tag_281:\n        /* \"#utility.yul\":13275:13278   */\n      0x00\n        /* \"#utility.yul\":13296:13301   */\n      dup2\n        /* \"#utility.yul\":13289:13301   */\n      swap1\n      pop\n        /* \"#utility.yul\":13232:13307   */\n      swap2\n      swap1\n      pop\n      jump\t// out\n        /* \"#utility.yul\":13313:13582   */\n    tag_282:\n        /* \"#utility.yul\":13423:13462   */\n      tag_456\n        /* \"#utility.yul\":13454:13461   */\n      dup4\n        /* \"#utility.yul\":13423:13462   */\n      tag_280\n      jump\t// in\n    tag_456:\n        /* \"#utility.yul\":13484:13575   */\n      tag_457\n        /* \"#utility.yul\":13533:13574   */\n      tag_458\n        /* \"#utility.yul\":13557:13573   */\n      dup3\n        /* \"#utility.yul\":13533:13574   */\n      tag_281\n      jump\t// in\n    tag_458:\n        /* \"#utility.yul\":13525:13531   */\n      dup5\n        /* \"#utility.yul\":13518:13522   */\n      dup5\n        /* \"#utility.yul\":13512:13523   */\n      sload\n        /* \"#utility.yul\":13484:13575   */\n      tag_278\n      jump\t// in\n    tag_457:\n        /* \"#utility.yul\":13478:13482   */\n      dup3\n        /* \"#utility.yul\":13471:13576   */\n      sstore\n        /* \"#utility.yul\":13389:13582   */\n      pop\n        /* \"#utility.yul\":13313:13582   */\n      pop\n      pop\n      pop\n      jump\t// out\n        /* \"#utility.yul\":13588:13661   */\n    tag_283:\n        /* \"#utility.yul\":13633:13636   */\n      0x00\n        /* \"#utility.yul\":13588:13661   */\n      swap1\n      jump\t// out\n        /* \"#utility.yul\":13667:13856   */\n    tag_284:\n        /* \"#utility.yul\":13744:13776   */\n      tag_461\n      tag_283\n      jump\t// in\n    tag_461:\n        /* \"#utility.yul\":13785:13850   */\n      tag_462\n        /* \"#utility.yul\":13843:13849   */\n      dup2\n        /* \"#utility.yul\":13835:13841   */\n      dup5\n        /* \"#utility.yul\":13829:13833   */\n      dup5\n        /* \"#utility.yul\":13785:13850   */\n      tag_282\n      jump\t// in\n    tag_462:\n        /* \"#utility.yul\":13720:13856   */\n      pop\n        /* \"#utility.yul\":13667:13856   */\n      pop\n      pop\n      jump\t// out\n        /* \"#utility.yul\":13862:14048   */\n    tag_285:\n        /* \"#utility.yul\":13922:14042   */\n    tag_464:\n        /* \"#utility.yul\":13939:13942   */\n      dup2\n        /* \"#utility.yul\":13932:13937   */\n      dup2\n        /* \"#utility.yul\":13929:13943   */\n      lt\n        /* \"#utility.yul\":13922:14042   */\n      iszero\n      tag_466\n      jumpi\n        /* \"#utility.yul\":13993:14032   */\n      tag_467\n        /* \"#utility.yul\":14030:14031   */\n      0x00\n        /* \"#utility.yul\":14023:14028   */\n      dup3\n        /* \"#utility.yul\":13993:14032   */\n      tag_284\n      jump\t// in\n    tag_467:\n        /* \"#utility.yul\":13966:13967   */\n      0x01\n        /* \"#utility.yul\":13959:13964   */\n      dup2\n        /* \"#utility.yul\":13955:13968   */\n      add\n        /* \"#utility.yul\":13946:13968   */\n      swap1\n      pop\n        /* \"#utility.yul\":13922:14042   */\n      jump(tag_464)\n    tag_466:\n        /* \"#utility.yul\":13862:14048   */\n      pop\n      pop\n      jump\t// out\n        /* \"#utility.yul\":14054:14597   */\n    tag_286:\n        /* \"#utility.yul\":14155:14157   */\n      0x1f\n        /* \"#utility.yul\":14150:14153   */\n      dup3\n        /* \"#utility.yul\":14147:14158   */\n      gt\n        /* \"#utility.yul\":14144:14590   */\n      iszero\n      tag_469\n      jumpi\n        /* \"#utility.yul\":14189:14227   */\n      tag_470\n        /* \"#utility.yul\":14221:14226   */\n      dup2\n        /* \"#utility.yul\":14189:14227   */\n      tag_275\n      jump\t// in\n    tag_470:\n        /* \"#utility.yul\":14273:14302   */\n      tag_471\n        /* \"#utility.yul\":14291:14301   */\n      dup5\n        /* \"#utility.yul\":14273:14302   */\n      tag_276\n      jump\t// in\n    tag_471:\n        /* \"#utility.yul\":14263:14271   */\n      dup2\n        /* \"#utility.yul\":14259:14303   */\n      add\n        /* \"#utility.yul\":14456:14458   */\n      0x20\n        /* \"#utility.yul\":14444:14454   */\n      dup6\n        /* \"#utility.yul\":14441:14459   */\n      lt\n        /* \"#utility.yul\":14438:14487   */\n      iszero\n      tag_472\n      jumpi\n        /* \"#utility.yul\":14477:14485   */\n      dup2\n        /* \"#utility.yul\":14462:14485   */\n      swap1\n      pop\n        /* \"#utility.yul\":14438:14487   */\n    tag_472:\n        /* \"#utility.yul\":14500:14580   */\n      tag_473\n        /* \"#utility.yul\":14556:14578   */\n      tag_474\n        /* \"#utility.yul\":14574:14577   */\n      dup6\n        /* \"#utility.yul\":14556:14578   */\n      tag_276\n      jump\t// in\n    tag_474:\n        /* \"#utility.yul\":14546:14554   */\n      dup4\n        /* \"#utility.yul\":14542:14579   */\n      add\n        /* \"#utility.yul\":14529:14540   */\n      dup3\n        /* \"#utility.yul\":14500:14580   */\n      tag_285\n      jump\t// in\n    tag_473:\n        /* \"#utility.yul\":14159:14590   */\n      pop\n      pop\n        /* \"#utility.yul\":14144:14590   */\n    tag_469:\n        /* \"#utility.yul\":14054:14597   */\n      pop\n      pop\n      pop\n      jump\t// out\n        /* \"#utility.yul\":14603:14720   */\n    tag_287:\n        /* \"#utility.yul\":14657:14665   */\n      0x00\n        /* \"#utility.yul\":14707:14712   */\n      dup3\n        /* \"#utility.yul\":14701:14705   */\n      dup3\n        /* \"#utility.yul\":14697:14713   */\n      shr\n        /* \"#utility.yul\":14676:14713   */\n      swap1\n      pop\n        /* \"#utility.yul\":14603:14720   */\n      swap3\n      swap2\n      pop\n      pop\n      jump\t// out\n        /* \"#utility.yul\":14726:14895   */\n    tag_288:\n        /* \"#utility.yul\":14770:14776   */\n      0x00\n        /* \"#utility.yul\":14803:14854   */\n      tag_477\n        /* \"#utility.yul\":14851:14852   */\n      0x00\n        /* \"#utility.yul\":14847:14853   */\n      not\n        /* \"#utility.yul\":14839:14844   */\n      dup5\n        /* \"#utility.yul\":14836:14837   */\n      0x08\n        /* \"#utility.yul\":14832:14845   */\n      mul\n        /* \"#utility.yul\":14803:14854   */\n      tag_287\n      jump\t// in\n    tag_477:\n        /* \"#utility.yul\":14799:14855   */\n      not\n        /* \"#utility.yul\":14884:14888   */\n      dup1\n        /* \"#utility.yul\":14878:14882   */\n      dup4\n        /* \"#utility.yul\":14874:14889   */\n      and\n        /* \"#utility.yul\":14864:14889   */\n      swap2\n      pop\n        /* \"#utility.yul\":14777:14895   */\n      pop\n        /* \"#utility.yul\":14726:14895   */\n      swap3\n      swap2\n      pop\n      pop\n      jump\t// out\n        /* \"#utility.yul\":14900:15195   */\n    tag_289:\n        /* \"#utility.yul\":14976:14980   */\n      0x00\n        /* \"#utility.yul\":15122:15151   */\n      tag_479\n        /* \"#utility.yul\":15147:15150   */\n      dup4\n        /* \"#utility.yul\":15141:15145   */\n      dup4\n        /* \"#utility.yul\":15122:15151   */\n      tag_288\n      jump\t// in\n    tag_479:\n        /* \"#utility.yul\":15114:15151   */\n      swap2\n      pop\n        /* \"#utility.yul\":15184:15187   */\n      dup3\n        /* \"#utility.yul\":15181:15182   */\n      0x02\n        /* \"#utility.yul\":15177:15188   */\n      mul\n        /* \"#utility.yul\":15171:15175   */\n      dup3\n        /* \"#utility.yul\":15168:15189   */\n      or\n        /* \"#utility.yul\":15160:15189   */\n      swap1\n      pop\n        /* \"#utility.yul\":14900:15195   */\n      swap3\n      swap2\n      pop\n      pop\n      jump\t// out\n        /* \"#utility.yul\":15200:16595   */\n    tag_86:\n        /* \"#utility.yul\":15317:15354   */\n      tag_481\n        /* \"#utility.yul\":15350:15353   */\n      dup3\n        /* \"#utility.yul\":15317:15354   */\n      tag_267\n      jump\t// in\n    tag_481:\n        /* \"#utility.yul\":15419:15437   */\n      0xffffffffffffffff\n        /* \"#utility.yul\":15411:15417   */\n      dup2\n        /* \"#utility.yul\":15408:15438   */\n      gt\n        /* \"#utility.yul\":15405:15461   */\n      iszero\n      tag_482\n      jumpi\n        /* \"#utility.yul\":15441:15459   */\n      tag_483\n      tag_258\n      jump\t// in\n    tag_483:\n        /* \"#utility.yul\":15405:15461   */\n    tag_482:\n        /* \"#utility.yul\":15485:15523   */\n      tag_484\n        /* \"#utility.yul\":15517:15521   */\n      dup3\n        /* \"#utility.yul\":15511:15522   */\n      sload\n        /* \"#utility.yul\":15485:15523   */\n      tag_103\n      jump\t// in\n    tag_484:\n        /* \"#utility.yul\":15570:15637   */\n      tag_485\n        /* \"#utility.yul\":15630:15636   */\n      dup3\n        /* \"#utility.yul\":15622:15628   */\n      dup3\n        /* \"#utility.yul\":15616:15620   */\n      dup6\n        /* \"#utility.yul\":15570:15637   */\n      tag_286\n      jump\t// in\n    tag_485:\n        /* \"#utility.yul\":15664:15665   */\n      0x00\n        /* \"#utility.yul\":15688:15692   */\n      0x20\n        /* \"#utility.yul\":15675:15692   */\n      swap1\n      pop\n        /* \"#utility.yul\":15720:15722   */\n      0x1f\n        /* \"#utility.yul\":15712:15718   */\n      dup4\n        /* \"#utility.yul\":15709:15723   */\n      gt\n        /* \"#utility.yul\":15737:15738   */\n      0x01\n        /* \"#utility.yul\":15732:16350   */\n      dup2\n      eq\n      tag_487\n      jumpi\n        /* \"#utility.yul\":16394:16395   */\n      0x00\n        /* \"#utility.yul\":16411:16417   */\n      dup5\n        /* \"#utility.yul\":16408:16485   */\n      iszero\n      tag_488\n      jumpi\n        /* \"#utility.yul\":16460:16469   */\n      dup3\n        /* \"#utility.yul\":16455:16458   */\n      dup8\n        /* \"#utility.yul\":16451:16470   */\n      add\n        /* \"#utility.yul\":16445:16471   */\n      mload\n        /* \"#utility.yul\":16436:16471   */\n      swap1\n      pop\n        /* \"#utility.yul\":16408:16485   */\n    tag_488:\n        /* \"#utility.yul\":16511:16578   */\n      tag_489\n        /* \"#utility.yul\":16571:16577   */\n      dup6\n        /* \"#utility.yul\":16564:16569   */\n      dup3\n        /* \"#utility.yul\":16511:16578   */\n      tag_289\n      jump\t// in\n    tag_489:\n        /* \"#utility.yul\":16505:16509   */\n      dup7\n        /* \"#utility.yul\":16498:16579   */\n      sstore\n        /* \"#utility.yul\":16367:16589   */\n      pop\n        /* \"#utility.yul\":15702:16589   */\n      jump(tag_486)\n        /* \"#utility.yul\":15732:16350   */\n    tag_487:\n        /* \"#utility.yul\":15784:15788   */\n      0x1f\n        /* \"#utility.yul\":15780:15789   */\n      not\n        /* \"#utility.yul\":15772:15778   */\n      dup5\n        /* \"#utility.yul\":15768:15790   */\n      and\n        /* \"#utility.yul\":15818:15855   */\n      tag_490\n        /* \"#utility.yul\":15850:15854   */\n      dup7\n        /* \"#utility.yul\":15818:15855   */\n      tag_275\n      jump\t// in\n    tag_490:\n        /* \"#utility.yul\":15877:15878   */\n      0x00\n        /* \"#utility.yul\":15891:16099   */\n    tag_491:\n        /* \"#utility.yul\":15905:15912   */\n      dup3\n        /* \"#utility.yul\":15902:15903   */\n      dup2\n        /* \"#utility.yul\":15899:15913   */\n      lt\n        /* \"#utility.yul\":15891:16099   */\n      iszero\n      tag_493\n      jumpi\n        /* \"#utility.yul\":15984:15993   */\n      dup5\n        /* \"#utility.yul\":15979:15982   */\n      dup10\n        /* \"#utility.yul\":15975:15994   */\n      add\n        /* \"#utility.yul\":15969:15995   */\n      mload\n        /* \"#utility.yul\":15961:15967   */\n      dup3\n        /* \"#utility.yul\":15954:15996   */\n      sstore\n        /* \"#utility.yul\":16035:16036   */\n      0x01\n        /* \"#utility.yul\":16027:16033   */\n      dup3\n        /* \"#utility.yul\":16023:16037   */\n      add\n        /* \"#utility.yul\":16013:16037   */\n      swap2\n      pop\n        /* \"#utility.yul\":16082:16084   */\n      0x20\n        /* \"#utility.yul\":16071:16080   */\n      dup6\n        /* \"#utility.yul\":16067:16085   */\n      add\n        /* \"#utility.yul\":16054:16085   */\n      swap5\n      pop\n        /* \"#utility.yul\":15928:15932   */\n      0x20\n        /* \"#utility.yul\":15925:15926   */\n      dup2\n        /* \"#utility.yul\":15921:15933   */\n      add\n        /* \"#utility.yul\":15916:15933   */\n      swap1\n      pop\n        /* \"#utility.yul\":15891:16099   */\n      jump(tag_491)\n    tag_493:\n        /* \"#utility.yul\":16127:16133   */\n      dup7\n        /* \"#utility.yul\":16118:16125   */\n      dup4\n        /* \"#utility.yul\":16115:16134   */\n      lt\n        /* \"#utility.yul\":16112:16291   */\n      iszero\n      tag_494\n      jumpi\n        /* \"#utility.yul\":16185:16194   */\n      dup5\n        /* \"#utility.yul\":16180:16183   */\n      dup10\n        /* \"#utility.yul\":16176:16195   */\n      add\n        /* \"#utility.yul\":16170:16196   */\n      mload\n        /* \"#utility.yul\":16228:16276   */\n      tag_495\n        /* \"#utility.yul\":16270:16274   */\n      0x1f\n        /* \"#utility.yul\":16262:16268   */\n      dup10\n        /* \"#utility.yul\":16258:16275   */\n      and\n        /* \"#utility.yul\":16247:16256   */\n      dup3\n        /* \"#utility.yul\":16228:16276   */\n      tag_288\n      jump\t// in\n    tag_495:\n        /* \"#utility.yul\":16220:16226   */\n      dup4\n        /* \"#utility.yul\":16213:16277   */\n      sstore\n        /* \"#utility.yul\":16135:16291   */\n      pop\n        /* \"#utility.yul\":16112:16291   */\n    tag_494:\n        /* \"#utility.yul\":16337:16338   */\n      0x01\n        /* \"#utility.yul\":16333:16334   */\n      0x02\n        /* \"#utility.yul\":16325:16331   */\n      dup9\n        /* \"#utility.yul\":16321:16335   */\n      mul\n        /* \"#utility.yul\":16317:16339   */\n      add\n        /* \"#utility.yul\":16311:16315   */\n      dup9\n        /* \"#utility.yul\":16304:16340   */\n      sstore\n        /* \"#utility.yul\":15739:16350   */\n      pop\n      pop\n      pop\n        /* \"#utility.yul\":15702:16589   */\n    tag_486:\n      pop\n        /* \"#utility.yul\":15292:16595   */\n      pop\n      pop\n      pop\n        /* \"#utility.yul\":15200:16595   */\n      pop\n      pop\n      jump\t// out\n        /* \"#utility.yul\":16601:16749   */\n    tag_290:\n        /* \"#utility.yul\":16703:16714   */\n      0x00\n        /* \"#utility.yul\":16740:16743   */\n      dup2\n        /* \"#utility.yul\":16725:16743   */\n      swap1\n      pop\n        /* \"#utility.yul\":16601:16749   */\n      swap3\n      swap2\n      pop\n      pop\n      jump\t// out\n        /* \"#utility.yul\":16755:16910   */\n    tag_291:\n        /* \"#utility.yul\":16895:16902   */\n      0x4550303031000000000000000000000000000000000000000000000000000000\n        /* \"#utility.yul\":16891:16892   */\n      0x00\n        /* \"#utility.yul\":16883:16889   */\n      dup3\n        /* \"#utility.yul\":16879:16893   */\n      add\n        /* \"#utility.yul\":16872:16903   */\n      mstore\n        /* \"#utility.yul\":16755:16910   */\n      pop\n      jump\t// out\n        /* \"#utility.yul\":16916:17316   */\n    tag_292:\n        /* \"#utility.yul\":17076:17079   */\n      0x00\n        /* \"#utility.yul\":17097:17181   */\n      tag_499\n        /* \"#utility.yul\":17179:17180   */\n      0x05\n        /* \"#utility.yul\":17174:17177   */\n      dup4\n        /* \"#utility.yul\":17097:17181   */\n      tag_290\n      jump\t// in\n    tag_499:\n        /* \"#utility.yul\":17090:17181   */\n      swap2\n      pop\n        /* \"#utility.yul\":17190:17283   */\n      tag_500\n        /* \"#utility.yul\":17279:17282   */\n      dup3\n        /* \"#utility.yul\":17190:17283   */\n      tag_291\n      jump\t// in\n    tag_500:\n        /* \"#utility.yul\":17308:17309   */\n      0x05\n        /* \"#utility.yul\":17303:17306   */\n      dup3\n        /* \"#utility.yul\":17299:17310   */\n      add\n        /* \"#utility.yul\":17292:17310   */\n      swap1\n      pop\n        /* \"#utility.yul\":16916:17316   */\n      swap2\n      swap1\n      pop\n      jump\t// out\n        /* \"#utility.yul\":17322:17703   */\n    tag_89:\n        /* \"#utility.yul\":17507:17510   */\n      0x00\n        /* \"#utility.yul\":17529:17677   */\n      tag_502\n        /* \"#utility.yul\":17673:17676   */\n      dup3\n        /* \"#utility.yul\":17529:17677   */\n      tag_292\n      jump\t// in\n    tag_502:\n        /* \"#utility.yul\":17522:17677   */\n      swap2\n      pop\n        /* \"#utility.yul\":17694:17697   */\n      dup2\n        /* \"#utility.yul\":17687:17697   */\n      swap1\n      pop\n        /* \"#utility.yul\":17322:17703   */\n      swap2\n      swap1\n      pop\n      jump\t// out\n        /* \"#utility.yul\":17709:17864   */\n    tag_293:\n        /* \"#utility.yul\":17849:17856   */\n      0x4550303032000000000000000000000000000000000000000000000000000000\n        /* \"#utility.yul\":17845:17846   */\n      0x00\n        /* \"#utility.yul\":17837:17843   */\n      dup3\n        /* \"#utility.yul\":17833:17847   */\n      add\n        /* \"#utility.yul\":17826:17857   */\n      mstore\n        /* \"#utility.yul\":17709:17864   */\n      pop\n      jump\t// out\n        /* \"#utility.yul\":17870:18270   */\n    tag_294:\n        /* \"#utility.yul\":18030:18033   */\n      0x00\n        /* \"#utility.yul\":18051:18135   */\n      tag_505\n        /* \"#utility.yul\":18133:18134   */\n      0x05\n        /* \"#utility.yul\":18128:18131   */\n      dup4\n        /* \"#utility.yul\":18051:18135   */\n      tag_290\n      jump\t// in\n    tag_505:\n        /* \"#utility.yul\":18044:18135   */\n      swap2\n      pop\n        /* \"#utility.yul\":18144:18237   */\n      tag_506\n        /* \"#utility.yul\":18233:18236   */\n      dup3\n        /* \"#utility.yul\":18144:18237   */\n      tag_293\n      jump\t// in\n    tag_506:\n        /* \"#utility.yul\":18262:18263   */\n      0x05\n        /* \"#utility.yul\":18257:18260   */\n      dup3\n        /* \"#utility.yul\":18253:18264   */\n      add\n        /* \"#utility.yul\":18246:18264   */\n      swap1\n      pop\n        /* \"#utility.yul\":17870:18270   */\n      swap2\n      swap1\n      pop\n      jump\t// out\n        /* \"#utility.yul\":18276:18657   */\n    tag_91:\n        /* \"#utility.yul\":18461:18464   */\n      0x00\n        /* \"#utility.yul\":18483:18631   */\n      tag_508\n        /* \"#utility.yul\":18627:18630   */\n      dup3\n        /* \"#utility.yul\":18483:18631   */\n      tag_294\n      jump\t// in\n    tag_508:\n        /* \"#utility.yul\":18476:18631   */\n      swap2\n      pop\n        /* \"#utility.yul\":18648:18651   */\n      dup2\n        /* \"#utility.yul\":18641:18651   */\n      swap1\n      pop\n        /* \"#utility.yul\":18276:18657   */\n      swap2\n      swap1\n      pop\n      jump\t// out\n        /* \"#utility.yul\":18663:18818   */\n    tag_295:\n        /* \"#utility.yul\":18803:18810   */\n      0x4550303033000000000000000000000000000000000000000000000000000000\n        /* \"#utility.yul\":18799:18800   */\n      0x00\n        /* \"#utility.yul\":18791:18797   */\n      dup3\n        /* \"#utility.yul\":18787:18801   */\n      add\n        /* \"#utility.yul\":18780:18811   */\n      mstore\n        /* \"#utility.yul\":18663:18818   */\n      pop\n      jump\t// out\n        /* \"#utility.yul\":18824:19224   */\n    tag_296:\n        /* \"#utility.yul\":18984:18987   */\n      0x00\n        /* \"#utility.yul\":19005:19089   */\n      tag_511\n        /* \"#utility.yul\":19087:19088   */\n      0x05\n        /* \"#utility.yul\":19082:19085   */\n      dup4\n        /* \"#utility.yul\":19005:19089   */\n      tag_290\n      jump\t// in\n    tag_511:\n        /* \"#utility.yul\":18998:19089   */\n      swap2\n      pop\n        /* \"#utility.yul\":19098:19191   */\n      tag_512\n        /* \"#utility.yul\":19187:19190   */\n      dup3\n        /* \"#utility.yul\":19098:19191   */\n      tag_295\n      jump\t// in\n    tag_512:\n        /* \"#utility.yul\":19216:19217   */\n      0x05\n        /* \"#utility.yul\":19211:19214   */\n      dup3\n        /* \"#utility.yul\":19207:19218   */\n      add\n        /* \"#utility.yul\":19200:19218   */\n      swap1\n      pop\n        /* \"#utility.yul\":18824:19224   */\n      swap2\n      swap1\n      pop\n      jump\t// out\n        /* \"#utility.yul\":19230:19611   */\n    tag_93:\n        /* \"#utility.yul\":19415:19418   */\n      0x00\n        /* \"#utility.yul\":19437:19585   */\n      tag_514\n        /* \"#utility.yul\":19581:19584   */\n      dup3\n        /* \"#utility.yul\":19437:19585   */\n      tag_296\n      jump\t// in\n    tag_514:\n        /* \"#utility.yul\":19430:19585   */\n      swap2\n      pop\n        /* \"#utility.yul\":19602:19605   */\n      dup2\n        /* \"#utility.yul\":19595:19605   */\n      swap1\n      pop\n        /* \"#utility.yul\":19230:19611   */\n      swap2\n      swap1\n      pop\n      jump\t// out\n        /* \"#utility.yul\":19617:19772   */\n    tag_297:\n        /* \"#utility.yul\":19757:19764   */\n      0x4550303034000000000000000000000000000000000000000000000000000000\n        /* \"#utility.yul\":19753:19754   */\n      0x00\n        /* \"#utility.yul\":19745:19751   */\n      dup3\n        /* \"#utility.yul\":19741:19755   */\n      add\n        /* \"#utility.yul\":19734:19765   */\n      mstore\n        /* \"#utility.yul\":19617:19772   */\n      pop\n      jump\t// out\n        /* \"#utility.yul\":19778:20178   */\n    tag_298:\n        /* \"#utility.yul\":19938:19941   */\n      0x00\n        /* \"#utility.yul\":19959:20043   */\n      tag_517\n        /* \"#utility.yul\":20041:20042   */\n      0x05\n        /* \"#utility.yul\":20036:20039   */\n      dup4\n        /* \"#utility.yul\":19959:20043   */\n      tag_290\n      jump\t// in\n    tag_517:\n        /* \"#utility.yul\":19952:20043   */\n      swap2\n      pop\n        /* \"#utility.yul\":20052:20145   */\n      tag_518\n        /* \"#utility.yul\":20141:20144   */\n      dup3\n        /* \"#utility.yul\":20052:20145   */\n      tag_297\n      jump\t// in\n    tag_518:\n        /* \"#utility.yul\":20170:20171   */\n      0x05\n        /* \"#utility.yul\":20165:20168   */\n      dup3\n        /* \"#utility.yul\":20161:20172   */\n      add\n        /* \"#utility.yul\":20154:20172   */\n      swap1\n      pop\n        /* \"#utility.yul\":19778:20178   */\n      swap2\n      swap1\n      pop\n      jump\t// out\n        /* \"#utility.yul\":20184:20565   */\n    tag_95:\n        /* \"#utility.yul\":20369:20372   */\n      0x00\n        /* \"#utility.yul\":20391:20539   */\n      tag_520\n        /* \"#utility.yul\":20535:20538   */\n      dup3\n        /* \"#utility.yul\":20391:20539   */\n      tag_298\n      jump\t// in\n    tag_520:\n        /* \"#utility.yul\":20384:20539   */\n      swap2\n      pop\n        /* \"#utility.yul\":20556:20559   */\n      dup2\n        /* \"#utility.yul\":20549:20559   */\n      swap1\n      pop\n        /* \"#utility.yul\":20184:20565   */\n      swap2\n      swap1\n      pop\n      jump\t// out\n        /* \"#utility.yul\":20571:20731   */\n    tag_299:\n        /* \"#utility.yul\":20711:20723   */\n      0x7472616e735f74696d6500000000000000000000000000000000000000000000\n        /* \"#utility.yul\":20707:20708   */\n      0x00\n        /* \"#utility.yul\":20699:20705   */\n      dup3\n        /* \"#utility.yul\":20695:20709   */\n      add\n        /* \"#utility.yul\":20688:20724   */\n      mstore\n        /* \"#utility.yul\":20571:20731   */\n      pop\n      jump\t// out\n        /* \"#utility.yul\":20737:21139   */\n    tag_300:\n        /* \"#utility.yul\":20897:20900   */\n      0x00\n        /* \"#utility.yul\":20918:21003   */\n      tag_523\n        /* \"#utility.yul\":21000:21002   */\n      0x0a\n        /* \"#utility.yul\":20995:20998   */\n      dup4\n        /* \"#utility.yul\":20918:21003   */\n      tag_290\n      jump\t// in\n    tag_523:\n        /* \"#utility.yul\":20911:21003   */\n      swap2\n      pop\n        /* \"#utility.yul\":21012:21105   */\n      tag_524\n        /* \"#utility.yul\":21101:21104   */\n      dup3\n        /* \"#utility.yul\":21012:21105   */\n      tag_299\n      jump\t// in\n    tag_524:\n        /* \"#utility.yul\":21130:21132   */\n      0x0a\n        /* \"#utility.yul\":21125:21128   */\n      dup3\n        /* \"#utility.yul\":21121:21133   */\n      add\n        /* \"#utility.yul\":21114:21133   */\n      swap1\n      pop\n        /* \"#utility.yul\":20737:21139   */\n      swap2\n      swap1\n      pop\n      jump\t// out\n        /* \"#utility.yul\":21145:21526   */\n    tag_97:\n        /* \"#utility.yul\":21330:21333   */\n      0x00\n        /* \"#utility.yul\":21352:21500   */\n      tag_526\n        /* \"#utility.yul\":21496:21499   */\n      dup3\n        /* \"#utility.yul\":21352:21500   */\n      tag_300\n      jump\t// in\n    tag_526:\n        /* \"#utility.yul\":21345:21500   */\n      swap2\n      pop\n        /* \"#utility.yul\":21517:21520   */\n      dup2\n        /* \"#utility.yul\":21510:21520   */\n      swap1\n      pop\n        /* \"#utility.yul\":21145:21526   */\n      swap2\n      swap1\n      pop\n      jump\t// out\n        /* \"#utility.yul\":21532:21687   */\n    tag_301:\n        /* \"#utility.yul\":21672:21679   */\n      0x4550303036000000000000000000000000000000000000000000000000000000\n        /* \"#utility.yul\":21668:21669   */\n      0x00\n        /* \"#utility.yul\":21660:21666   */\n      dup3\n        /* \"#utility.yul\":21656:21670   */\n      add\n        /* \"#utility.yul\":21649:21680   */\n      mstore\n        /* \"#utility.yul\":21532:21687   */\n      pop\n      jump\t// out\n        /* \"#utility.yul\":21693:22093   */\n    tag_302:\n        /* \"#utility.yul\":21853:21856   */\n      0x00\n        /* \"#utility.yul\":21874:21958   */\n      tag_529\n        /* \"#utility.yul\":21956:21957   */\n      0x05\n        /* \"#utility.yul\":21951:21954   */\n      dup4\n        /* \"#utility.yul\":21874:21958   */\n      tag_290\n      jump\t// in\n    tag_529:\n        /* \"#utility.yul\":21867:21958   */\n      swap2\n      pop\n        /* \"#utility.yul\":21967:22060   */\n      tag_530\n        /* \"#utility.yul\":22056:22059   */\n      dup3\n        /* \"#utility.yul\":21967:22060   */\n      tag_301\n      jump\t// in\n    tag_530:\n        /* \"#utility.yul\":22085:22086   */\n      0x05\n        /* \"#utility.yul\":22080:22083   */\n      dup3\n        /* \"#utility.yul\":22076:22087   */\n      add\n        /* \"#utility.yul\":22069:22087   */\n      swap1\n      pop\n        /* \"#utility.yul\":21693:22093   */\n      swap2\n      swap1\n      pop\n      jump\t// out\n        /* \"#utility.yul\":22099:22480   */\n    tag_99:\n        /* \"#utility.yul\":22284:22287   */\n      0x00\n        /* \"#utility.yul\":22306:22454   */\n      tag_532\n        /* \"#utility.yul\":22450:22453   */\n      dup3\n        /* \"#utility.yul\":22306:22454   */\n      tag_302\n      jump\t// in\n    tag_532:\n        /* \"#utility.yul\":22299:22454   */\n      swap2\n      pop\n        /* \"#utility.yul\":22471:22474   */\n      dup2\n        /* \"#utility.yul\":22464:22474   */\n      swap1\n      pop\n        /* \"#utility.yul\":22099:22480   */\n      swap2\n      swap1\n      pop\n      jump\t// out\n        /* \"#utility.yul\":22486:22639   */\n    tag_303:\n        /* \"#utility.yul\":22626:22631   */\n      0x4254430000000000000000000000000000000000000000000000000000000000\n        /* \"#utility.yul\":22622:22623   */\n      0x00\n        /* \"#utility.yul\":22614:22620   */\n      dup3\n        /* \"#utility.yul\":22610:22624   */\n      add\n        /* \"#utility.yul\":22603:22632   */\n      mstore\n        /* \"#utility.yul\":22486:22639   */\n      pop\n      jump\t// out\n        /* \"#utility.yul\":22645:23045   */\n    tag_304:\n        /* \"#utility.yul\":22805:22808   */\n      0x00\n        /* \"#utility.yul\":22826:22910   */\n      tag_535\n        /* \"#utility.yul\":22908:22909   */\n      0x03\n        /* \"#utility.yul\":22903:22906   */\n      dup4\n        /* \"#utility.yul\":22826:22910   */\n      tag_290\n      jump\t// in\n    tag_535:\n        /* \"#utility.yul\":22819:22910   */\n      swap2\n      pop\n        /* \"#utility.yul\":22919:23012   */\n      tag_536\n        /* \"#utility.yul\":23008:23011   */\n      dup3\n        /* \"#utility.yul\":22919:23012   */\n      tag_303\n      jump\t// in\n    tag_536:\n        /* \"#utility.yul\":23037:23038   */\n      0x03\n        /* \"#utility.yul\":23032:23035   */\n      dup3\n        /* \"#utility.yul\":23028:23039   */\n      add\n        /* \"#utility.yul\":23021:23039   */\n      swap1\n      pop\n        /* \"#utility.yul\":22645:23045   */\n      swap2\n      swap1\n      pop\n      jump\t// out\n        /* \"#utility.yul\":23051:23432   */\n    tag_132:\n        /* \"#utility.yul\":23236:23239   */\n      0x00\n        /* \"#utility.yul\":23258:23406   */\n      tag_538\n        /* \"#utility.yul\":23402:23405   */\n      dup3\n        /* \"#utility.yul\":23258:23406   */\n      tag_304\n      jump\t// in\n    tag_538:\n        /* \"#utility.yul\":23251:23406   */\n      swap2\n      pop\n        /* \"#utility.yul\":23423:23426   */\n      dup2\n        /* \"#utility.yul\":23416:23426   */\n      swap1\n      pop\n        /* \"#utility.yul\":23051:23432   */\n      swap2\n      swap1\n      pop\n      jump\t// out\n        /* \"#utility.yul\":23438:23592   */\n    tag_305:\n        /* \"#utility.yul\":23578:23584   */\n      0x5553445400000000000000000000000000000000000000000000000000000000\n        /* \"#utility.yul\":23574:23575   */\n      0x00\n        /* \"#utility.yul\":23566:23572   */\n      dup3\n        /* \"#utility.yul\":23562:23576   */\n      add\n        /* \"#utility.yul\":23555:23585   */\n      mstore\n        /* \"#utility.yul\":23438:23592   */\n      pop\n      jump\t// out\n        /* \"#utility.yul\":23598:23998   */\n    tag_306:\n        /* \"#utility.yul\":23758:23761   */\n      0x00\n        /* \"#utility.yul\":23779:23863   */\n      tag_541\n        /* \"#utility.yul\":23861:23862   */\n      0x04\n        /* \"#utility.yul\":23856:23859   */\n      dup4\n        /* \"#utility.yul\":23779:23863   */\n      tag_290\n      jump\t// in\n    tag_541:\n        /* \"#utility.yul\":23772:23863   */\n      swap2\n      pop\n        /* \"#utility.yul\":23872:23965   */\n      tag_542\n        /* \"#utility.yul\":23961:23964   */\n      dup3\n        /* \"#utility.yul\":23872:23965   */\n      tag_305\n      jump\t// in\n    tag_542:\n        /* \"#utility.yul\":23990:23991   */\n      0x04\n        /* \"#utility.yul\":23985:23988   */\n      dup3\n        /* \"#utility.yul\":23981:23992   */\n      add\n        /* \"#utility.yul\":23974:23992   */\n      swap1\n      pop\n        /* \"#utility.yul\":23598:23998   */\n      swap2\n      swap1\n      pop\n      jump\t// out\n        /* \"#utility.yul\":24004:24385   */\n    tag_134:\n        /* \"#utility.yul\":24189:24192   */\n      0x00\n        /* \"#utility.yul\":24211:24359   */\n      tag_544\n        /* \"#utility.yul\":24355:24358   */\n      dup3\n        /* \"#utility.yul\":24211:24359   */\n      tag_306\n      jump\t// in\n    tag_544:\n        /* \"#utility.yul\":24204:24359   */\n      swap2\n      pop\n        /* \"#utility.yul\":24376:24379   */\n      dup2\n        /* \"#utility.yul\":24369:24379   */\n      swap1\n      pop\n        /* \"#utility.yul\":24004:24385   */\n      swap2\n      swap1\n      pop\n      jump\t// out\n        /* \"#utility.yul\":24391:24781   */\n    tag_307:\n        /* \"#utility.yul\":24497:24500   */\n      0x00\n        /* \"#utility.yul\":24525:24564   */\n      tag_546\n        /* \"#utility.yul\":24558:24563   */\n      dup3\n        /* \"#utility.yul\":24525:24564   */\n      tag_267\n      jump\t// in\n    tag_546:\n        /* \"#utility.yul\":24580:24669   */\n      tag_547\n        /* \"#utility.yul\":24662:24668   */\n      dup2\n        /* \"#utility.yul\":24657:24660   */\n      dup6\n        /* \"#utility.yul\":24580:24669   */\n      tag_290\n      jump\t// in\n    tag_547:\n        /* \"#utility.yul\":24573:24669   */\n      swap4\n      pop\n        /* \"#utility.yul\":24678:24743   */\n      tag_548\n        /* \"#utility.yul\":24736:24742   */\n      dup2\n        /* \"#utility.yul\":24731:24734   */\n      dup6\n        /* \"#utility.yul\":24724:24728   */\n      0x20\n        /* \"#utility.yul\":24717:24722   */\n      dup7\n        /* \"#utility.yul\":24713:24729   */\n      add\n        /* \"#utility.yul\":24678:24743   */\n      tag_269\n      jump\t// in\n    tag_548:\n        /* \"#utility.yul\":24768:24774   */\n      dup1\n        /* \"#utility.yul\":24763:24766   */\n      dup5\n        /* \"#utility.yul\":24759:24775   */\n      add\n        /* \"#utility.yul\":24752:24775   */\n      swap2\n      pop\n        /* \"#utility.yul\":24501:24781   */\n      pop\n        /* \"#utility.yul\":24391:24781   */\n      swap3\n      swap2\n      pop\n      pop\n      jump\t// out\n        /* \"#utility.yul\":24787:25062   */\n    tag_167:\n        /* \"#utility.yul\":24919:24922   */\n      0x00\n        /* \"#utility.yul\":24941:25036   */\n      tag_550\n        /* \"#utility.yul\":25032:25035   */\n      dup3\n        /* \"#utility.yul\":25023:25029   */\n      dup5\n        /* \"#utility.yul\":24941:25036   */\n      tag_307\n      jump\t// in\n    tag_550:\n        /* \"#utility.yul\":24934:25036   */\n      swap2\n      pop\n        /* \"#utility.yul\":25053:25056   */\n      dup2\n        /* \"#utility.yul\":25046:25056   */\n      swap1\n      pop\n        /* \"#utility.yul\":24787:25062   */\n      swap3\n      swap2\n      pop\n      pop\n      jump\t// out\n        /* \"#utility.yul\":25068:25223   */\n    tag_308:\n        /* \"#utility.yul\":25208:25215   */\n      0x4550303035000000000000000000000000000000000000000000000000000000\n        /* \"#utility.yul\":25204:25205   */\n      0x00\n        /* \"#utility.yul\":25196:25202   */\n      dup3\n        /* \"#utility.yul\":25192:25206   */\n      add\n        /* \"#utility.yul\":25185:25216   */\n      mstore\n        /* \"#utility.yul\":25068:25223   */\n      pop\n      jump\t// out\n        /* \"#utility.yul\":25229:25629   */\n    tag_309:\n        /* \"#utility.yul\":25389:25392   */\n      0x00\n        /* \"#utility.yul\":25410:25494   */\n      tag_553\n        /* \"#utility.yul\":25492:25493   */\n      0x05\n        /* \"#utility.yul\":25487:25490   */\n      dup4\n        /* \"#utility.yul\":25410:25494   */\n      tag_290\n      jump\t// in\n    tag_553:\n        /* \"#utility.yul\":25403:25494   */\n      swap2\n      pop\n        /* \"#utility.yul\":25503:25596   */\n      tag_554\n        /* \"#utility.yul\":25592:25595   */\n      dup3\n        /* \"#utility.yul\":25503:25596   */\n      tag_308\n      jump\t// in\n    tag_554:\n        /* \"#utility.yul\":25621:25622   */\n      0x05\n        /* \"#utility.yul\":25616:25619   */\n      dup3\n        /* \"#utility.yul\":25612:25623   */\n      add\n        /* \"#utility.yul\":25605:25623   */\n      swap1\n      pop\n        /* \"#utility.yul\":25229:25629   */\n      swap2\n      swap1\n      pop\n      jump\t// out\n        /* \"#utility.yul\":25635:26016   */\n    tag_180:\n        /* \"#utility.yul\":25820:25823   */\n      0x00\n        /* \"#utility.yul\":25842:25990   */\n      tag_556\n        /* \"#utility.yul\":25986:25989   */\n      dup3\n        /* \"#utility.yul\":25842:25990   */\n      tag_309\n      jump\t// in\n    tag_556:\n        /* \"#utility.yul\":25835:25990   */\n      swap2\n      pop\n        /* \"#utility.yul\":26007:26010   */\n      dup2\n        /* \"#utility.yul\":26000:26010   */\n      swap1\n      pop\n        /* \"#utility.yul\":25635:26016   */\n      swap2\n      swap1\n      pop\n      jump\t// out\n        /* \"#utility.yul\":26022:26177   */\n    tag_310:\n        /* \"#utility.yul\":26162:26169   */\n      0x4550303037000000000000000000000000000000000000000000000000000000\n        /* \"#utility.yul\":26158:26159   */\n      0x00\n        /* \"#utility.yul\":26150:26156   */\n      dup3\n        /* \"#utility.yul\":26146:26160   */\n      add\n        /* \"#utility.yul\":26139:26170   */\n      mstore\n        /* \"#utility.yul\":26022:26177   */\n      pop\n      jump\t// out\n        /* \"#utility.yul\":26183:26583   */\n    tag_311:\n        /* \"#utility.yul\":26343:26346   */\n      0x00\n        /* \"#utility.yul\":26364:26448   */\n      tag_559\n        /* \"#utility.yul\":26446:26447   */\n      0x05\n        /* \"#utility.yul\":26441:26444   */\n      dup4\n        /* \"#utility.yul\":26364:26448   */\n      tag_290\n      jump\t// in\n    tag_559:\n        /* \"#utility.yul\":26357:26448   */\n      swap2\n      pop\n        /* \"#utility.yul\":26457:26550   */\n      tag_560\n        /* \"#utility.yul\":26546:26549   */\n      dup3\n        /* \"#utility.yul\":26457:26550   */\n      tag_310\n      jump\t// in\n    tag_560:\n        /* \"#utility.yul\":26575:26576   */\n      0x05\n        /* \"#utility.yul\":26570:26573   */\n      dup3\n        /* \"#utility.yul\":26566:26577   */\n      add\n        /* \"#utility.yul\":26559:26577   */\n      swap1\n      pop\n        /* \"#utility.yul\":26183:26583   */\n      swap2\n      swap1\n      pop\n      jump\t// out\n        /* \"#utility.yul\":26589:26970   */\n    tag_210:\n        /* \"#utility.yul\":26774:26777   */\n      0x00\n        /* \"#utility.yul\":26796:26944   */\n      tag_562\n        /* \"#utility.yul\":26940:26943   */\n      dup3\n        /* \"#utility.yul\":26796:26944   */\n      tag_311\n      jump\t// in\n    tag_562:\n        /* \"#utility.yul\":26789:26944   */\n      swap2\n      pop\n        /* \"#utility.yul\":26961:26964   */\n      dup2\n        /* \"#utility.yul\":26954:26964   */\n      swap1\n      pop\n        /* \"#utility.yul\":26589:26970   */\n      swap2\n      swap1\n      pop\n      jump\t// out\n        /* \"#utility.yul\":27000:27874   */\n    tag_312:\n        /* \"#utility.yul\":27103:27106   */\n      0x00\n        /* \"#utility.yul\":27140:27145   */\n      dup2\n        /* \"#utility.yul\":27134:27146   */\n      sload\n        /* \"#utility.yul\":27169:27205   */\n      tag_564\n        /* \"#utility.yul\":27195:27204   */\n      dup2\n        /* \"#utility.yul\":27169:27205   */\n      tag_103\n      jump\t// in\n    tag_564:\n        /* \"#utility.yul\":27221:27310   */\n      tag_565\n        /* \"#utility.yul\":27303:27309   */\n      dup2\n        /* \"#utility.yul\":27298:27301   */\n      dup7\n        /* \"#utility.yul\":27221:27310   */\n      tag_290\n      jump\t// in\n    tag_565:\n        /* \"#utility.yul\":27214:27310   */\n      swap5\n      pop\n        /* \"#utility.yul\":27341:27342   */\n      0x01\n        /* \"#utility.yul\":27330:27339   */\n      dup3\n        /* \"#utility.yul\":27326:27343   */\n      and\n        /* \"#utility.yul\":27357:27358   */\n      0x00\n        /* \"#utility.yul\":27352:27518   */\n      dup2\n      eq\n      tag_567\n      jumpi\n        /* \"#utility.yul\":27532:27533   */\n      0x01\n        /* \"#utility.yul\":27527:27868   */\n      dup2\n      eq\n      tag_568\n      jumpi\n        /* \"#utility.yul\":27319:27868   */\n      jump(tag_566)\n        /* \"#utility.yul\":27352:27518   */\n    tag_567:\n        /* \"#utility.yul\":27436:27440   */\n      0xff\n        /* \"#utility.yul\":27432:27441   */\n      not\n        /* \"#utility.yul\":27421:27430   */\n      dup4\n        /* \"#utility.yul\":27417:27442   */\n      and\n        /* \"#utility.yul\":27412:27415   */\n      dup7\n        /* \"#utility.yul\":27405:27443   */\n      mstore\n        /* \"#utility.yul\":27498:27504   */\n      dup2\n        /* \"#utility.yul\":27491:27505   */\n      iszero\n        /* \"#utility.yul\":27484:27506   */\n      iszero\n        /* \"#utility.yul\":27476:27482   */\n      dup3\n        /* \"#utility.yul\":27472:27507   */\n      mul\n        /* \"#utility.yul\":27467:27470   */\n      dup7\n        /* \"#utility.yul\":27463:27508   */\n      add\n        /* \"#utility.yul\":27456:27508   */\n      swap4\n      pop\n        /* \"#utility.yul\":27352:27518   */\n      jump(tag_566)\n        /* \"#utility.yul\":27527:27868   */\n    tag_568:\n        /* \"#utility.yul\":27594:27632   */\n      tag_569\n        /* \"#utility.yul\":27626:27631   */\n      dup6\n        /* \"#utility.yul\":27594:27632   */\n      tag_275\n      jump\t// in\n    tag_569:\n        /* \"#utility.yul\":27654:27655   */\n      0x00\n        /* \"#utility.yul\":27668:27822   */\n    tag_570:\n        /* \"#utility.yul\":27682:27688   */\n      dup4\n        /* \"#utility.yul\":27679:27680   */\n      dup2\n        /* \"#utility.yul\":27676:27689   */\n      lt\n        /* \"#utility.yul\":27668:27822   */\n      iszero\n      tag_572\n      jumpi\n        /* \"#utility.yul\":27756:27763   */\n      dup2\n        /* \"#utility.yul\":27750:27764   */\n      sload\n        /* \"#utility.yul\":27746:27747   */\n      dup2\n        /* \"#utility.yul\":27741:27744   */\n      dup10\n        /* \"#utility.yul\":27737:27748   */\n      add\n        /* \"#utility.yul\":27730:27765   */\n      mstore\n        /* \"#utility.yul\":27806:27807   */\n      0x01\n        /* \"#utility.yul\":27797:27804   */\n      dup3\n        /* \"#utility.yul\":27793:27808   */\n      add\n        /* \"#utility.yul\":27782:27808   */\n      swap2\n      pop\n        /* \"#utility.yul\":27704:27708   */\n      0x20\n        /* \"#utility.yul\":27701:27702   */\n      dup2\n        /* \"#utility.yul\":27697:27709   */\n      add\n        /* \"#utility.yul\":27692:27709   */\n      swap1\n      pop\n        /* \"#utility.yul\":27668:27822   */\n      jump(tag_570)\n    tag_572:\n        /* \"#utility.yul\":27851:27857   */\n      dup4\n        /* \"#utility.yul\":27846:27849   */\n      dup9\n        /* \"#utility.yul\":27842:27858   */\n      add\n        /* \"#utility.yul\":27835:27858   */\n      swap6\n      pop\n        /* \"#utility.yul\":27534:27868   */\n      pop\n      pop\n        /* \"#utility.yul\":27319:27868   */\n    tag_566:\n      pop\n        /* \"#utility.yul\":27107:27874   */\n      pop\n      pop\n        /* \"#utility.yul\":27000:27874   */\n      swap3\n      swap2\n      pop\n      pop\n      jump\t// out\n        /* \"#utility.yul\":27880:28149   */\n    tag_241:\n        /* \"#utility.yul\":28009:28012   */\n      0x00\n        /* \"#utility.yul\":28031:28123   */\n      tag_574\n        /* \"#utility.yul\":28119:28122   */\n      dup3\n        /* \"#utility.yul\":28110:28116   */\n      dup5\n        /* \"#utility.yul\":28031:28123   */\n      tag_312\n      jump\t// in\n    tag_574:\n        /* \"#utility.yul\":28024:28123   */\n      swap2\n      pop\n        /* \"#utility.yul\":28140:28143   */\n      dup2\n        /* \"#utility.yul\":28133:28143   */\n      swap1\n      pop\n        /* \"#utility.yul\":27880:28149   */\n      swap3\n      swap2\n      pop\n      pop\n      jump\t// out\n        /* \"#utility.yul\":28155:28335   */\n    tag_313:\n        /* \"#utility.yul\":28203:28280   */\n      0x4e487b7100000000000000000000000000000000000000000000000000000000\n        /* \"#utility.yul\":28200:28201   */\n      0x00\n        /* \"#utility.yul\":28193:28281   */\n      mstore\n        /* \"#utility.yul\":28300:28304   */\n      0x11\n        /* \"#utility.yul\":28297:28298   */\n      0x04\n        /* \"#utility.yul\":28290:28305   */\n      mstore\n        /* \"#utility.yul\":28324:28328   */\n      0x24\n        /* \"#utility.yul\":28321:28322   */\n      0x00\n        /* \"#utility.yul\":28314:28329   */\n      revert\n        /* \"#utility.yul\":28341:28574   */\n    tag_247:\n        /* \"#utility.yul\":28380:28383   */\n      0x00\n        /* \"#utility.yul\":28403:28427   */\n      tag_577\n        /* \"#utility.yul\":28421:28426   */\n      dup3\n        /* \"#utility.yul\":28403:28427   */\n      tag_250\n      jump\t// in\n    tag_577:\n        /* \"#utility.yul\":28394:28427   */\n      swap2\n      pop\n        /* \"#utility.yul\":28449:28515   */\n      0xffffffffffffffffffffffffffffffffffffffffffffffffffffffffffffffff\n        /* \"#utility.yul\":28442:28447   */\n      dup3\n        /* \"#utility.yul\":28439:28516   */\n      sub\n        /* \"#utility.yul\":28436:28539   */\n      tag_578\n      jumpi\n        /* \"#utility.yul\":28519:28537   */\n      tag_579\n      tag_313\n      jump\t// in\n    tag_579:\n        /* \"#utility.yul\":28436:28539   */\n    tag_578:\n        /* \"#utility.yul\":28566:28567   */\n      0x01\n        /* \"#utility.yul\":28559:28564   */\n      dup3\n        /* \"#utility.yul\":28555:28568   */\n      add\n        /* \"#utility.yul\":28548:28568   */\n      swap1\n      pop\n        /* \"#utility.yul\":28341:28574   */\n      swap2\n      swap1\n      pop\n      jump\t// out\n        /* \"#utility.yul\":28580:28807   */\n    tag_314:\n        /* \"#utility.yul\":28720:28754   */\n      0x5472616e73616374696f6e207769746820676976656e206576656e744964206e\n        /* \"#utility.yul\":28716:28717   */\n      0x00\n        /* \"#utility.yul\":28708:28714   */\n      dup3\n        /* \"#utility.yul\":28704:28718   */\n      add\n        /* \"#utility.yul\":28697:28755   */\n      mstore\n        /* \"#utility.yul\":28789:28799   */\n      0x6f7420666f756e64000000000000000000000000000000000000000000000000\n        /* \"#utility.yul\":28784:28786   */\n      0x20\n        /* \"#utility.yul\":28776:28782   */\n      dup3\n        /* \"#utility.yul\":28772:28787   */\n      add\n        /* \"#utility.yul\":28765:28800   */\n      mstore\n        /* \"#utility.yul\":28580:28807   */\n      pop\n      jump\t// out\n        /* \"#utility.yul\":28813:29179   */\n    tag_315:\n        /* \"#utility.yul\":28955:28958   */\n      0x00\n        /* \"#utility.yul\":28976:29043   */\n      tag_582\n        /* \"#utility.yul\":29040:29042   */\n      0x28\n        /* \"#utility.yul\":29035:29038   */\n      dup4\n        /* \"#utility.yul\":28976:29043   */\n      tag_268\n      jump\t// in\n    tag_582:\n        /* \"#utility.yul\":28969:29043   */\n      swap2\n      pop\n        /* \"#utility.yul\":29052:29145   */\n      tag_583\n        /* \"#utility.yul\":29141:29144   */\n      dup3\n        /* \"#utility.yul\":29052:29145   */\n      tag_314\n      jump\t// in\n    tag_583:\n        /* \"#utility.yul\":29170:29172   */\n      0x40\n        /* \"#utility.yul\":29165:29168   */\n      dup3\n        /* \"#utility.yul\":29161:29173   */\n      add\n        /* \"#utility.yul\":29154:29173   */\n      swap1\n      pop\n        /* \"#utility.yul\":28813:29179   */\n      swap2\n      swap1\n      pop\n      jump\t// out\n        /* \"#utility.yul\":29185:29604   */\n    tag_249:\n        /* \"#utility.yul\":29351:29355   */\n      0x00\n        /* \"#utility.yul\":29389:29391   */\n      0x20\n        /* \"#utility.yul\":29378:29387   */\n      dup3\n        /* \"#utility.yul\":29374:29392   */\n      add\n        /* \"#utility.yul\":29366:29392   */\n      swap1\n      pop\n        /* \"#utility.yul\":29438:29447   */\n      dup2\n        /* \"#utility.yul\":29432:29436   */\n      dup2\n        /* \"#utility.yul\":29428:29448   */\n      sub\n        /* \"#utility.yul\":29424:29425   */\n      0x00\n        /* \"#utility.yul\":29413:29422   */\n      dup4\n        /* \"#utility.yul\":29409:29426   */\n      add\n        /* \"#utility.yul\":29402:29449   */\n      mstore\n        /* \"#utility.yul\":29466:29597   */\n      tag_585\n        /* \"#utility.yul\":29592:29596   */\n      dup2\n        /* \"#utility.yul\":29466:29597   */\n      tag_315\n      jump\t// in\n    tag_585:\n        /* \"#utility.yul\":29458:29597   */\n      swap1\n      pop\n        /* \"#utility.yul\":29185:29604   */\n      swap2\n      swap1\n      pop\n      jump\t// out\n\n    auxdata: 0xa2646970667358221220ce21b2a299e553929d26754dd59a7fd3112c57c3919cb9f55588613629f60eb064736f6c63430008120033\n}\n",
				"bytecode": {
					"linkReferences": {},
					"object": "608060405234801561001057600080fd5b506123e6806100206000396000f3fe608060405234801561001057600080fd5b50600436106100ea5760003560e01c8063b89da5ab1161008c578063d6fa22b911610066578063d6fa22b91461025d578063d85637e71461028d578063d88936ce146102a9578063e09576f0146102c5576100ea565b8063b89da5ab146101f5578063c1c102e814610225578063c4f9ef2014610241576100ea565b80639b4e3420116100c85780639b4e34201461015b5780639f2967c71461018b578063a75458c2146101a7578063ac2ccd07146101c3576100ea565b8063578cb8f9146100ef578063606de0cb1461010d5780639ace38c214610129575b600080fd5b6100f76102f5565b60405161010491906114d3565b60405180910390f35b61012760048036038101906101229190611674565b610301565b005b610143600480360381019061013e919061171d565b6104c5565b6040516101529392919061180a565b60405180910390f35b6101756004803603810190610170919061171d565b61062f565b604051610182919061184f565b60405180910390f35b6101a560048036038101906101a09190611871565b6106e6565b005b6101c160048036038101906101bc9190611674565b610886565b005b6101dd60048036038101906101d89190611908565b610a4a565b6040516101ec9392919061180a565b60405180910390f35b61020f600480360381019061020a9190611951565b610bae565b60405161021c91906114d3565b60405180910390f35b61023f600480360381019061023a9190611871565b610bf9565b005b61025b60048036038101906102569190611871565b610d99565b005b610277600480360381019061027291906119ad565b610f39565b60405161028491906114d3565b60405180910390f35b6102a760048036038101906102a29190611a25565b610f71565b005b6102c360048036038101906102be9190611871565b611159565b005b6102df60048036038101906102da919061171d565b6112f9565b6040516102ec919061184f565b60405180910390f35b60008080549050905090565b600080805490509050600060018160018154018082558091505003906000526020600020905050600080828154811061033d5761033c611ae3565b5b906000526020600020906004020190506040518060400160405280600981526020017f45303030313030303500000000000000000000000000000000000000000000008152508160000190816103939190611d1e565b50878160010190816103a59190611d1e565b50338160020160006101000a81548173ffffffffffffffffffffffffffffffffffffffff021916908373ffffffffffffffffffffffffffffffffffffffff16021790555086816003016040516103fa90611e47565b908152602001604051809103902081905550858160030160405161041d90611ea8565b908152602001604051809103902081905550848160030160405161044090611f09565b908152602001604051809103902081905550838160030160405161046390611f6a565b908152602001604051809103902081905550428160030160405161048690611fcb565b90815260200160405180910390208190555082816003016040516104a99061202c565b9081526020016040518091039020819055505050505050505050565b600081815481106104d557600080fd5b90600052602060002090600402016000915090508060000180546104f890611b41565b80601f016020809104026020016040519081016040528092919081815260200182805461052490611b41565b80156105715780601f1061054657610100808354040283529160200191610571565b820191906000526020600020905b81548152906001019060200180831161055457829003601f168201915b50505050509080600101805461058690611b41565b80601f01602080910402602001604051908101604052809291908181526020018280546105b290611b41565b80156105ff5780601f106105d4576101008083540402835291602001916105ff565b820191906000526020600020905b8154815290600101906020018083116105e257829003601f168201915b5050505050908060020160009054906101000a900473ffffffffffffffffffffffffffffffffffffffff16905083565b60606000828154811061064557610644611ae3565b5b9060005260206000209060040201600101805461066190611b41565b80601f016020809104026020016040519081016040528092919081815260200182805461068d90611b41565b80156106da5780601f106106af576101008083540402835291602001916106da565b820191906000526020600020905b8154815290600101906020018083116106bd57829003601f168201915b50505050509050919050565b600080805490509050600060018160018154018082558091505003906000526020600020905050600080828154811061072257610721611ae3565b5b906000526020600020906004020190506040518060400160405280600981526020017f45303030323030303100000000000000000000000000000000000000000000008152508160000190816107789190611d1e565b508681600101908161078a9190611d1e565b50338160020160006101000a81548173ffffffffffffffffffffffffffffffffffffffff021916908373ffffffffffffffffffffffffffffffffffffffff16021790555085816003016040516107df90611e47565b908152602001604051809103902081905550848160030160405161080290611ea8565b90815260200160405180910390208190555083816003016040516108259061208d565b9081526020016040518091039020819055508281600301604051610848906120ee565b908152602001604051809103902081905550428160030160405161086b90611fcb565b90815260200160405180910390208190555050505050505050565b60008080549050905060006001816001815401808255809150500390600052602060002090505060008082815481106108c2576108c1611ae3565b5b906000526020600020906004020190506040518060400160405280600981526020017f45303030313030303500000000000000000000000000000000000000000000008152508160000190816109189190611d1e565b508781600101908161092a9190611d1e565b50338160020160006101000a81548173ffffffffffffffffffffffffffffffffffffffff021916908373ffffffffffffffffffffffffffffffffffffffff160217905550868160030160405161097f90611e47565b90815260200160405180910390208190555085816003016040516109a290611ea8565b90815260200160405180910390208190555084816003016040516109c590611f09565b90815260200160405180910390208190555083816003016040516109e890611f6a565b9081526020016040518091039020819055504281600301604051610a0b90611fcb565b9081526020016040518091039020819055508281600301604051610a2e9061202c565b9081526020016040518091039020819055505050505050505050565b606080600080610a59856113b0565b905080600001816001018260020160009054906101000a900473ffffffffffffffffffffffffffffffffffffffff16828054610a9490611b41565b80601f0160208091040260200160405190810160405280929190818152602001828054610ac090611b41565b8015610b0d5780601f10610ae257610100808354040283529160200191610b0d565b820191906000526020600020905b815481529060010190602001808311610af057829003601f168201915b50505050509250818054610b2090611b41565b80601f0160208091040260200160405190810160405280929190818152602001828054610b4c90611b41565b8015610b995780601f10610b6e57610100808354040283529160200191610b99565b820191906000526020600020905b815481529060010190602001808311610b7c57829003601f168201915b50505050509150935093509350509193909250565b6000808381548110610bc357610bc2611ae3565b5b906000526020600020906004020160030182604051610be29190612134565b908152602001604051809103902054905092915050565b6000808054905090506000600181600181540180825580915050039060005260206000209050506000808281548110610c3557610c34611ae3565b5b906000526020600020906004020190506040518060400160405280600981526020017f4530303031303030330000000000000000000000000000000000000000000000815250816000019081610c8b9190611d1e565b5086816001019081610c9d9190611d1e565b50338160020160006101000a81548173ffffffffffffffffffffffffffffffffffffffff021916908373ffffffffffffffffffffffffffffffffffffffff1602179055508581600301604051610cf290611e47565b9081526020016040518091039020819055508481600301604051610d1590611ea8565b9081526020016040518091039020819055508381600301604051610d3890611f09565b9081526020016040518091039020819055504281600301604051610d5b90611fcb565b9081526020016040518091039020819055508281600301604051610d7e90612197565b90815260200160405180910390208190555050505050505050565b6000808054905090506000600181600181540180825580915050039060005260206000209050506000808281548110610dd557610dd4611ae3565b5b906000526020600020906004020190506040518060400160405280600981526020017f4530303031303030310000000000000000000000000000000000000000000000815250816000019081610e2b9190611d1e565b5086816001019081610e3d9190611d1e565b50338160020160006101000a81548173ffffffffffffffffffffffffffffffffffffffff021916908373ffffffffffffffffffffffffffffffffffffffff1602179055508581600301604051610e9290611e47565b9081526020016040518091039020819055508481600301604051610eb590611ea8565b9081526020016040518091039020819055508381600301604051610ed890611f09565b9081526020016040518091039020819055504281600301604051610efb90611fcb565b9081526020016040518091039020819055508281600301604051610f1e90612197565b90815260200160405180910390208190555050505050505050565b600080610f45846113b0565b90508060030183604051610f599190612134565b90815260200160405180910390205491505092915050565b6000808054905090506000600181600181540180825580915050039060005260206000209050506000808281548110610fad57610fac611ae3565b5b906000526020600020906004020190506040518060400160405280600981526020017f45303030313030303400000000000000000000000000000000000000000000008152508160000190816110039190611d1e565b50888160010190816110159190611d1e565b50338160020160006101000a81548173ffffffffffffffffffffffffffffffffffffffff021916908373ffffffffffffffffffffffffffffffffffffffff160217905550878160030160405161106a90611e47565b908152602001604051809103902081905550868160030160405161108d90611ea8565b90815260200160405180910390208190555085816003016040516110b090611f09565b90815260200160405180910390208190555084816003016040516110d390611f6a565b90815260200160405180910390208190555042816003016040516110f690611fcb565b90815260200160405180910390208190555083816003016040516111199061202c565b908152602001604051809103902081905550828160030160405161113c906121f8565b908152602001604051809103902081905550505050505050505050565b600080805490509050600060018160018154018082558091505003906000526020600020905050600080828154811061119557611194611ae3565b5b906000526020600020906004020190506040518060400160405280600981526020017f45303030313030303200000000000000000000000000000000000000000000008152508160000190816111eb9190611d1e565b50868160010190816111fd9190611d1e565b50338160020160006101000a81548173ffffffffffffffffffffffffffffffffffffffff021916908373ffffffffffffffffffffffffffffffffffffffff160217905550858160030160405161125290611e47565b908152602001604051809103902081905550848160030160405161127590611ea8565b908152602001604051809103902081905550838160030160405161129890611f09565b90815260200160405180910390208190555042816003016040516112bb90611fcb565b90815260200160405180910390208190555082816003016040516112de90612197565b90815260200160405180910390208190555050505050505050565b60606000828154811061130f5761130e611ae3565b5b9060005260206000209060040201600001805461132b90611b41565b80601f016020809104026020016040519081016040528092919081815260200182805461135790611b41565b80156113a45780601f10611379576101008083540402835291602001916113a4565b820191906000526020600020905b81548152906001019060200180831161138757829003601f168201915b50505050509050919050565b600080600090505b60008054905081101561147957826040516020016113d69190612134565b6040516020818303038152906040528051906020012060008281548110611400576113ff611ae3565b5b90600052602060002090600402016001016040516020016114219190612290565b604051602081830303815290604052805190602001200361146657600081815481106114505761144f611ae3565b5b90600052602060002090600402019150506114b5565b8080611471906122d6565b9150506113b8565b506040517f08c379a00000000000000000000000000000000000000000000000000000000081526004016114ac90612390565b60405180910390fd5b919050565b6000819050919050565b6114cd816114ba565b82525050565b60006020820190506114e860008301846114c4565b92915050565b6000604051905090565b600080fd5b600080fd5b600080fd5b600080fd5b6000601f19601f8301169050919050565b7f4e487b7100000000000000000000000000000000000000000000000000000000600052604160045260246000fd5b6115558261150c565b810181811067ffffffffffffffff821117156115745761157361151d565b5b80604052505050565b60006115876114ee565b9050611593828261154c565b919050565b600067ffffffffffffffff8211156115b3576115b261151d565b5b6115bc8261150c565b9050602081019050919050565b82818337600083830152505050565b60006115eb6115e684611598565b61157d565b90508281526020810184848401111561160757611606611507565b5b6116128482856115c9565b509392505050565b600082601f83011261162f5761162e611502565b5b813561163f8482602086016115d8565b91505092915050565b611651816114ba565b811461165c57600080fd5b50565b60008135905061166e81611648565b92915050565b60008060008060008060c08789031215611691576116906114f8565b5b600087013567ffffffffffffffff8111156116af576116ae6114fd565b5b6116bb89828a0161161a565b96505060206116cc89828a0161165f565b95505060406116dd89828a0161165f565b94505060606116ee89828a0161165f565b93505060806116ff89828a0161165f565b92505060a061171089828a0161165f565b9150509295509295509295565b600060208284031215611733576117326114f8565b5b60006117418482850161165f565b91505092915050565b600081519050919050565b600082825260208201905092915050565b60005b83811015611784578082015181840152602081019050611769565b60008484015250505050565b600061179b8261174a565b6117a58185611755565b93506117b5818560208601611766565b6117be8161150c565b840191505092915050565b600073ffffffffffffffffffffffffffffffffffffffff82169050919050565b60006117f4826117c9565b9050919050565b611804816117e9565b82525050565b600060608201905081810360008301526118248186611790565b905081810360208301526118388185611790565b905061184760408301846117fb565b949350505050565b600060208201905081810360008301526118698184611790565b905092915050565b600080600080600060a0868803121561188d5761188c6114f8565b5b600086013567ffffffffffffffff8111156118ab576118aa6114fd565b5b6118b78882890161161a565b95505060206118c88882890161165f565b94505060406118d98882890161165f565b93505060606118ea8882890161165f565b92505060806118fb8882890161165f565b9150509295509295909350565b60006020828403121561191e5761191d6114f8565b5b600082013567ffffffffffffffff81111561193c5761193b6114fd565b5b6119488482850161161a565b91505092915050565b60008060408385031215611968576119676114f8565b5b60006119768582860161165f565b925050602083013567ffffffffffffffff811115611997576119966114fd565b5b6119a38582860161161a565b9150509250929050565b600080604083850312156119c4576119c36114f8565b5b600083013567ffffffffffffffff8111156119e2576119e16114fd565b5b6119ee8582860161161a565b925050602083013567ffffffffffffffff811115611a0f57611a0e6114fd565b5b611a1b8582860161161a565b9150509250929050565b600080600080600080600060e0888a031215611a4457611a436114f8565b5b600088013567ffffffffffffffff811115611a6257611a616114fd565b5b611a6e8a828b0161161a565b9750506020611a7f8a828b0161165f565b9650506040611a908a828b0161165f565b9550506060611aa18a828b0161165f565b9450506080611ab28a828b0161165f565b93505060a0611ac38a828b0161165f565b92505060c0611ad48a828b0161165f565b91505092959891949750929550565b7f4e487b7100000000000000000000000000000000000000000000000000000000600052603260045260246000fd5b7f4e487b7100000000000000000000000000000000000000000000000000000000600052602260045260246000fd5b60006002820490506001821680611b5957607f821691505b602082108103611b6c57611b6b611b12565b5b50919050565b60008190508160005260206000209050919050565b60006020601f8301049050919050565b600082821b905092915050565b600060088302611bd47fffffffffffffffffffffffffffffffffffffffffffffffffffffffffffffffff82611b97565b611bde8683611b97565b95508019841693508086168417925050509392505050565b6000819050919050565b6000611c1b611c16611c11846114ba565b611bf6565b6114ba565b9050919050565b6000819050919050565b611c3583611c00565b611c49611c4182611c22565b848454611ba4565b825550505050565b600090565b611c5e611c51565b611c69818484611c2c565b505050565b5b81811015611c8d57611c82600082611c56565b600181019050611c6f565b5050565b601f821115611cd257611ca381611b72565b611cac84611b87565b81016020851015611cbb578190505b611ccf611cc785611b87565b830182611c6e565b50505b505050565b600082821c905092915050565b6000611cf560001984600802611cd7565b1980831691505092915050565b6000611d0e8383611ce4565b9150826002028217905092915050565b611d278261174a565b67ffffffffffffffff811115611d4057611d3f61151d565b5b611d4a8254611b41565b611d55828285611c91565b600060209050601f831160018114611d885760008415611d76578287015190505b611d808582611d02565b865550611de8565b601f198416611d9686611b72565b60005b82811015611dbe57848901518255600182019150602085019450602081019050611d99565b86831015611ddb5784890151611dd7601f891682611ce4565b8355505b6001600288020188555050505b505050505050565b600081905092915050565b7f4550303031000000000000000000000000000000000000000000000000000000600082015250565b6000611e31600583611df0565b9150611e3c82611dfb565b600582019050919050565b6000611e5282611e24565b9150819050919050565b7f4550303032000000000000000000000000000000000000000000000000000000600082015250565b6000611e92600583611df0565b9150611e9d82611e5c565b600582019050919050565b6000611eb382611e85565b9150819050919050565b7f4550303033000000000000000000000000000000000000000000000000000000600082015250565b6000611ef3600583611df0565b9150611efe82611ebd565b600582019050919050565b6000611f1482611ee6565b9150819050919050565b7f4550303034000000000000000000000000000000000000000000000000000000600082015250565b6000611f54600583611df0565b9150611f5f82611f1e565b600582019050919050565b6000611f7582611f47565b9150819050919050565b7f7472616e735f74696d6500000000000000000000000000000000000000000000600082015250565b6000611fb5600a83611df0565b9150611fc082611f7f565b600a82019050919050565b6000611fd682611fa8565b9150819050919050565b7f4550303036000000000000000000000000000000000000000000000000000000600082015250565b6000612016600583611df0565b915061202182611fe0565b600582019050919050565b600061203782612009565b9150819050919050565b7f4254430000000000000000000000000000000000000000000000000000000000600082015250565b6000612077600383611df0565b915061208282612041565b600382019050919050565b60006120988261206a565b9150819050919050565b7f5553445400000000000000000000000000000000000000000000000000000000600082015250565b60006120d8600483611df0565b91506120e3826120a2565b600482019050919050565b60006120f9826120cb565b9150819050919050565b600061210e8261174a565b6121188185611df0565b9350612128818560208601611766565b80840191505092915050565b60006121408284612103565b915081905092915050565b7f4550303035000000000000000000000000000000000000000000000000000000600082015250565b6000612181600583611df0565b915061218c8261214b565b600582019050919050565b60006121a282612174565b9150819050919050565b7f4550303037000000000000000000000000000000000000000000000000000000600082015250565b60006121e2600583611df0565b91506121ed826121ac565b600582019050919050565b6000612203826121d5565b9150819050919050565b6000815461221a81611b41565b6122248186611df0565b9450600182166000811461223f576001811461225457612287565b60ff1983168652811515820286019350612287565b61225d85611b72565b60005b8381101561227f57815481890152600182019150602081019050612260565b838801955050505b50505092915050565b600061229c828461220d565b915081905092915050565b7f4e487b7100000000000000000000000000000000000000000000000000000000600052601160045260246000fd5b60006122e1826114ba565b91507fffffffffffffffffffffffffffffffffffffffffffffffffffffffffffffffff8203612313576123126122a7565b5b600182019050919050565b7f5472616e73616374696f6e207769746820676976656e206576656e744964206e60008201527f6f7420666f756e64000000000000000000000000000000000000000000000000602082015250565b600061237a602883611755565b91506123858261231e565b604082019050919050565b600060208201905081810360008301526123a98161236d565b905091905056fea2646970667358221220ce21b2a299e553929d26754dd59a7fd3112c57c3919cb9f55588613629f60eb064736f6c63430008120033",
					"opcodes": "PUSH1 0x80 PUSH1 0x40 MSTORE CALLVALUE DUP1 ISZERO PUSH2 0x10 JUMPI PUSH1 0x0 DUP1 REVERT JUMPDEST POP PUSH2 0x23E6 DUP1 PUSH2 0x20 PUSH1 0x0 CODECOPY PUSH1 0x0 RETURN INVALID PUSH1 0x80 PUSH1 0x40 MSTORE CALLVALUE DUP1 ISZERO PUSH2 0x10 JUMPI PUSH1 0x0 DUP1 REVERT JUMPDEST POP PUSH1 0x4 CALLDATASIZE LT PUSH2 0xEA JUMPI PUSH1 0x0 CALLDATALOAD PUSH1 0xE0 SHR DUP1 PUSH4 0xB89DA5AB GT PUSH2 0x8C JUMPI DUP1 PUSH4 0xD6FA22B9 GT PUSH2 0x66 JUMPI DUP1 PUSH4 0xD6FA22B9 EQ PUSH2 0x25D JUMPI DUP1 PUSH4 0xD85637E7 EQ PUSH2 0x28D JUMPI DUP1 PUSH4 0xD88936CE EQ PUSH2 0x2A9 JUMPI DUP1 PUSH4 0xE09576F0 EQ PUSH2 0x2C5 JUMPI PUSH2 0xEA JUMP JUMPDEST DUP1 PUSH4 0xB89DA5AB EQ PUSH2 0x1F5 JUMPI DUP1 PUSH4 0xC1C102E8 EQ PUSH2 0x225 JUMPI DUP1 PUSH4 0xC4F9EF20 EQ PUSH2 0x241 JUMPI PUSH2 0xEA JUMP JUMPDEST DUP1 PUSH4 0x9B4E3420 GT PUSH2 0xC8 JUMPI DUP1 PUSH4 0x9B4E3420 EQ PUSH2 0x15B JUMPI DUP1 PUSH4 0x9F2967C7 EQ PUSH2 0x18B JUMPI DUP1 PUSH4 0xA75458C2 EQ PUSH2 0x1A7 JUMPI DUP1 PUSH4 0xAC2CCD07 EQ PUSH2 0x1C3 JUMPI PUSH2 0xEA JUMP JUMPDEST DUP1 PUSH4 0x578CB8F9 EQ PUSH2 0xEF JUMPI DUP1 PUSH4 0x606DE0CB EQ PUSH2 0x10D JUMPI DUP1 PUSH4 0x9ACE38C2 EQ PUSH2 0x129 JUMPI JUMPDEST PUSH1 0x0 DUP1 REVERT JUMPDEST PUSH2 0xF7 PUSH2 0x2F5 JUMP JUMPDEST PUSH1 0x40 MLOAD PUSH2 0x104 SWAP2 SWAP1 PUSH2 0x14D3 JUMP JUMPDEST PUSH1 0x40 MLOAD DUP1 SWAP2 SUB SWAP1 RETURN JUMPDEST PUSH2 0x127 PUSH1 0x4 DUP1 CALLDATASIZE SUB DUP2 ADD SWAP1 PUSH2 0x122 SWAP2 SWAP1 PUSH2 0x1674 JUMP JUMPDEST PUSH2 0x301 JUMP JUMPDEST STOP JUMPDEST PUSH2 0x143 PUSH1 0x4 DUP1 CALLDATASIZE SUB DUP2 ADD SWAP1 PUSH2 0x13E SWAP2 SWAP1 PUSH2 0x171D JUMP JUMPDEST PUSH2 0x4C5 JUMP JUMPDEST PUSH1 0x40 MLOAD PUSH2 0x152 SWAP4 SWAP3 SWAP2 SWAP1 PUSH2 0x180A JUMP JUMPDEST PUSH1 0x40 MLOAD DUP1 SWAP2 SUB SWAP1 RETURN JUMPDEST PUSH2 0x175 PUSH1 0x4 DUP1 CALLDATASIZE SUB DUP2 ADD SWAP1 PUSH2 0x170 SWAP2 SWAP1 PUSH2 0x171D JUMP JUMPDEST PUSH2 0x62F JUMP JUMPDEST PUSH1 0x40 MLOAD PUSH2 0x182 SWAP2 SWAP1 PUSH2 0x184F JUMP JUMPDEST PUSH1 0x40 MLOAD DUP1 SWAP2 SUB SWAP1 RETURN JUMPDEST PUSH2 0x1A5 PUSH1 0x4 DUP1 CALLDATASIZE SUB DUP2 ADD SWAP1 PUSH2 0x1A0 SWAP2 SWAP1 PUSH2 0x1871 JUMP JUMPDEST PUSH2 0x6E6 JUMP JUMPDEST STOP JUMPDEST PUSH2 0x1C1 PUSH1 0x4 DUP1 CALLDATASIZE SUB DUP2 ADD SWAP1 PUSH2 0x1BC SWAP2 SWAP1 PUSH2 0x1674 JUMP JUMPDEST PUSH2 0x886 JUMP JUMPDEST STOP JUMPDEST PUSH2 0x1DD PUSH1 0x4 DUP1 CALLDATASIZE SUB DUP2 ADD SWAP1 PUSH2 0x1D8 SWAP2 SWAP1 PUSH2 0x1908 JUMP JUMPDEST PUSH2 0xA4A JUMP JUMPDEST PUSH1 0x40 MLOAD PUSH2 0x1EC SWAP4 SWAP3 SWAP2 SWAP1 PUSH2 0x180A JUMP JUMPDEST PUSH1 0x40 MLOAD DUP1 SWAP2 SUB SWAP1 RETURN JUMPDEST PUSH2 0x20F PUSH1 0x4 DUP1 CALLDATASIZE SUB DUP2 ADD SWAP1 PUSH2 0x20A SWAP2 SWAP1 PUSH2 0x1951 JUMP JUMPDEST PUSH2 0xBAE JUMP JUMPDEST PUSH1 0x40 MLOAD PUSH2 0x21C SWAP2 SWAP1 PUSH2 0x14D3 JUMP JUMPDEST PUSH1 0x40 MLOAD DUP1 SWAP2 SUB SWAP1 RETURN JUMPDEST PUSH2 0x23F PUSH1 0x4 DUP1 CALLDATASIZE SUB DUP2 ADD SWAP1 PUSH2 0x23A SWAP2 SWAP1 PUSH2 0x1871 JUMP JUMPDEST PUSH2 0xBF9 JUMP JUMPDEST STOP JUMPDEST PUSH2 0x25B PUSH1 0x4 DUP1 CALLDATASIZE SUB DUP2 ADD SWAP1 PUSH2 0x256 SWAP2 SWAP1 PUSH2 0x1871 JUMP JUMPDEST PUSH2 0xD99 JUMP JUMPDEST STOP JUMPDEST PUSH2 0x277 PUSH1 0x4 DUP1 CALLDATASIZE SUB DUP2 ADD SWAP1 PUSH2 0x272 SWAP2 SWAP1 PUSH2 0x19AD JUMP JUMPDEST PUSH2 0xF39 JUMP JUMPDEST PUSH1 0x40 MLOAD PUSH2 0x284 SWAP2 SWAP1 PUSH2 0x14D3 JUMP JUMPDEST PUSH1 0x40 MLOAD DUP1 SWAP2 SUB SWAP1 RETURN JUMPDEST PUSH2 0x2A7 PUSH1 0x4 DUP1 CALLDATASIZE SUB DUP2 ADD SWAP1 PUSH2 0x2A2 SWAP2 SWAP1 PUSH2 0x1A25 JUMP JUMPDEST PUSH2 0xF71 JUMP JUMPDEST STOP JUMPDEST PUSH2 0x2C3 PUSH1 0x4 DUP1 CALLDATASIZE SUB DUP2 ADD SWAP1 PUSH2 0x2BE SWAP2 SWAP1 PUSH2 0x1871 JUMP JUMPDEST PUSH2 0x1159 JUMP JUMPDEST STOP JUMPDEST PUSH2 0x2DF PUSH1 0x4 DUP1 CALLDATASIZE SUB DUP2 ADD SWAP1 PUSH2 0x2DA SWAP2 SWAP1 PUSH2 0x171D JUMP JUMPDEST PUSH2 0x12F9 JUMP JUMPDEST PUSH1 0x40 MLOAD PUSH2 0x2EC SWAP2 SWAP1 PUSH2 0x184F JUMP JUMPDEST PUSH1 0x40 MLOAD DUP1 SWAP2 SUB SWAP1 RETURN JUMPDEST PUSH1 0x0 DUP1 DUP1 SLOAD SWAP1 POP SWAP1 POP SWAP1 JUMP JUMPDEST PUSH1 0x0 DUP1 DUP1 SLOAD SWAP1 POP SWAP1 POP PUSH1 0x0 PUSH1 0x1 DUP2 PUSH1 0x1 DUP2 SLOAD ADD DUP1 DUP3 SSTORE DUP1 SWAP2 POP POP SUB SWAP1 PUSH1 0x0 MSTORE PUSH1 0x20 PUSH1 0x0 KECCAK256 SWAP1 POP POP PUSH1 0x0 DUP1 DUP3 DUP2 SLOAD DUP2 LT PUSH2 0x33D JUMPI PUSH2 0x33C PUSH2 0x1AE3 JUMP JUMPDEST JUMPDEST SWAP1 PUSH1 0x0 MSTORE PUSH1 0x20 PUSH1 0x0 KECCAK256 SWAP1 PUSH1 0x4 MUL ADD SWAP1 POP PUSH1 0x40 MLOAD DUP1 PUSH1 0x40 ADD PUSH1 0x40 MSTORE DUP1 PUSH1 0x9 DUP2 MSTORE PUSH1 0x20 ADD PUSH32 0x4530303031303030350000000000000000000000000000000000000000000000 DUP2 MSTORE POP DUP2 PUSH1 0x0 ADD SWAP1 DUP2 PUSH2 0x393 SWAP2 SWAP1 PUSH2 0x1D1E JUMP JUMPDEST POP DUP8 DUP2 PUSH1 0x1 ADD SWAP1 DUP2 PUSH2 0x3A5 SWAP2 SWAP1 PUSH2 0x1D1E JUMP JUMPDEST POP CALLER DUP2 PUSH1 0x2 ADD PUSH1 0x0 PUSH2 0x100 EXP DUP2 SLOAD DUP2 PUSH20 0xFFFFFFFFFFFFFFFFFFFFFFFFFFFFFFFFFFFFFFFF MUL NOT AND SWAP1 DUP4 PUSH20 0xFFFFFFFFFFFFFFFFFFFFFFFFFFFFFFFFFFFFFFFF AND MUL OR SWAP1 SSTORE POP DUP7 DUP2 PUSH1 0x3 ADD PUSH1 0x40 MLOAD PUSH2 0x3FA SWAP1 PUSH2 0x1E47 JUMP JUMPDEST SWAP1 DUP2 MSTORE PUSH1 0x20 ADD PUSH1 0x40 MLOAD DUP1 SWAP2 SUB SWAP1 KECCAK256 DUP2 SWAP1 SSTORE POP DUP6 DUP2 PUSH1 0x3 ADD PUSH1 0x40 MLOAD PUSH2 0x41D SWAP1 PUSH2 0x1EA8 JUMP JUMPDEST SWAP1 DUP2 MSTORE PUSH1 0x20 ADD PUSH1 0x40 MLOAD DUP1 SWAP2 SUB SWAP1 KECCAK256 DUP2 SWAP1 SSTORE POP DUP5 DUP2 PUSH1 0x3 ADD PUSH1 0x40 MLOAD PUSH2 0x440 SWAP1 PUSH2 0x1F09 JUMP JUMPDEST SWAP1 DUP2 MSTORE PUSH1 0x20 ADD PUSH1 0x40 MLOAD DUP1 SWAP2 SUB SWAP1 KECCAK256 DUP2 SWAP1 SSTORE POP DUP4 DUP2 PUSH1 0x3 ADD PUSH1 0x40 MLOAD PUSH2 0x463 SWAP1 PUSH2 0x1F6A JUMP JUMPDEST SWAP1 DUP2 MSTORE PUSH1 0x20 ADD PUSH1 0x40 MLOAD DUP1 SWAP2 SUB SWAP1 KECCAK256 DUP2 SWAP1 SSTORE POP TIMESTAMP DUP2 PUSH1 0x3 ADD PUSH1 0x40 MLOAD PUSH2 0x486 SWAP1 PUSH2 0x1FCB JUMP JUMPDEST SWAP1 DUP2 MSTORE PUSH1 0x20 ADD PUSH1 0x40 MLOAD DUP1 SWAP2 SUB SWAP1 KECCAK256 DUP2 SWAP1 SSTORE POP DUP3 DUP2 PUSH1 0x3 ADD PUSH1 0x40 MLOAD PUSH2 0x4A9 SWAP1 PUSH2 0x202C JUMP JUMPDEST SWAP1 DUP2 MSTORE PUSH1 0x20 ADD PUSH1 0x40 MLOAD DUP1 SWAP2 SUB SWAP1 KECCAK256 DUP2 SWAP1 SSTORE POP POP POP POP POP POP POP POP POP JUMP JUMPDEST PUSH1 0x0 DUP2 DUP2 SLOAD DUP2 LT PUSH2 0x4D5 JUMPI PUSH1 0x0 DUP1 REVERT JUMPDEST SWAP1 PUSH1 0x0 MSTORE PUSH1 0x20 PUSH1 0x0 KECCAK256 SWAP1 PUSH1 0x4 MUL ADD PUSH1 0x0 SWAP2 POP SWAP1 POP DUP1 PUSH1 0x0 ADD DUP1 SLOAD PUSH2 0x4F8 SWAP1 PUSH2 0x1B41 JUMP JUMPDEST DUP1 PUSH1 0x1F ADD PUSH1 0x20 DUP1 SWAP2 DIV MUL PUSH1 0x20 ADD PUSH1 0x40 MLOAD SWAP1 DUP2 ADD PUSH1 0x40 MSTORE DUP1 SWAP3 SWAP2 SWAP1 DUP2 DUP2 MSTORE PUSH1 0x20 ADD DUP3 DUP1 SLOAD PUSH2 0x524 SWAP1 PUSH2 0x1B41 JUMP JUMPDEST DUP1 ISZERO PUSH2 0x571 JUMPI DUP1 PUSH1 0x1F LT PUSH2 0x546 JUMPI PUSH2 0x100 DUP1 DUP4 SLOAD DIV MUL DUP4 MSTORE SWAP2 PUSH1 0x20 ADD SWAP2 PUSH2 0x571 JUMP JUMPDEST DUP3 ADD SWAP2 SWAP1 PUSH1 0x0 MSTORE PUSH1 0x20 PUSH1 0x0 KECCAK256 SWAP1 JUMPDEST DUP2 SLOAD DUP2 MSTORE SWAP1 PUSH1 0x1 ADD SWAP1 PUSH1 0x20 ADD DUP1 DUP4 GT PUSH2 0x554 JUMPI DUP3 SWAP1 SUB PUSH1 0x1F AND DUP3 ADD SWAP2 JUMPDEST POP POP POP POP POP SWAP1 DUP1 PUSH1 0x1 ADD DUP1 SLOAD PUSH2 0x586 SWAP1 PUSH2 0x1B41 JUMP JUMPDEST DUP1 PUSH1 0x1F ADD PUSH1 0x20 DUP1 SWAP2 DIV MUL PUSH1 0x20 ADD PUSH1 0x40 MLOAD SWAP1 DUP2 ADD PUSH1 0x40 MSTORE DUP1 SWAP3 SWAP2 SWAP1 DUP2 DUP2 MSTORE PUSH1 0x20 ADD DUP3 DUP1 SLOAD PUSH2 0x5B2 SWAP1 PUSH2 0x1B41 JUMP JUMPDEST DUP1 ISZERO PUSH2 0x5FF JUMPI DUP1 PUSH1 0x1F LT PUSH2 0x5D4 JUMPI PUSH2 0x100 DUP1 DUP4 SLOAD DIV MUL DUP4 MSTORE SWAP2 PUSH1 0x20 ADD SWAP2 PUSH2 0x5FF JUMP JUMPDEST DUP3 ADD SWAP2 SWAP1 PUSH1 0x0 MSTORE PUSH1 0x20 PUSH1 0x0 KECCAK256 SWAP1 JUMPDEST DUP2 SLOAD DUP2 MSTORE SWAP1 PUSH1 0x1 ADD SWAP1 PUSH1 0x20 ADD DUP1 DUP4 GT PUSH2 0x5E2 JUMPI DUP3 SWAP1 SUB PUSH1 0x1F AND DUP3 ADD SWAP2 JUMPDEST POP POP POP POP POP SWAP1 DUP1 PUSH1 0x2 ADD PUSH1 0x0 SWAP1 SLOAD SWAP1 PUSH2 0x100 EXP SWAP1 DIV PUSH20 0xFFFFFFFFFFFFFFFFFFFFFFFFFFFFFFFFFFFFFFFF AND SWAP1 POP DUP4 JUMP JUMPDEST PUSH1 0x60 PUSH1 0x0 DUP3 DUP2 SLOAD DUP2 LT PUSH2 0x645 JUMPI PUSH2 0x644 PUSH2 0x1AE3 JUMP JUMPDEST JUMPDEST SWAP1 PUSH1 0x0 MSTORE PUSH1 0x20 PUSH1 0x0 KECCAK256 SWAP1 PUSH1 0x4 MUL ADD PUSH1 0x1 ADD DUP1 SLOAD PUSH2 0x661 SWAP1 PUSH2 0x1B41 JUMP JUMPDEST DUP1 PUSH1 0x1F ADD PUSH1 0x20 DUP1 SWAP2 DIV MUL PUSH1 0x20 ADD PUSH1 0x40 MLOAD SWAP1 DUP2 ADD PUSH1 0x40 MSTORE DUP1 SWAP3 SWAP2 SWAP1 DUP2 DUP2 MSTORE PUSH1 0x20 ADD DUP3 DUP1 SLOAD PUSH2 0x68D SWAP1 PUSH2 0x1B41 JUMP JUMPDEST DUP1 ISZERO PUSH2 0x6DA JUMPI DUP1 PUSH1 0x1F LT PUSH2 0x6AF JUMPI PUSH2 0x100 DUP1 DUP4 SLOAD DIV MUL DUP4 MSTORE SWAP2 PUSH1 0x20 ADD SWAP2 PUSH2 0x6DA JUMP JUMPDEST DUP3 ADD SWAP2 SWAP1 PUSH1 0x0 MSTORE PUSH1 0x20 PUSH1 0x0 KECCAK256 SWAP1 JUMPDEST DUP2 SLOAD DUP2 MSTORE SWAP1 PUSH1 0x1 ADD SWAP1 PUSH1 0x20 ADD DUP1 DUP4 GT PUSH2 0x6BD JUMPI DUP3 SWAP1 SUB PUSH1 0x1F AND DUP3 ADD SWAP2 JUMPDEST POP POP POP POP POP SWAP1 POP SWAP2 SWAP1 POP JUMP JUMPDEST PUSH1 0x0 DUP1 DUP1 SLOAD SWAP1 POP SWAP1 POP PUSH1 0x0 PUSH1 0x1 DUP2 PUSH1 0x1 DUP2 SLOAD ADD DUP1 DUP3 SSTORE DUP1 SWAP2 POP POP SUB SWAP1 PUSH1 0x0 MSTORE PUSH1 0x20 PUSH1 0x0 KECCAK256 SWAP1 POP POP PUSH1 0x0 DUP1 DUP3 DUP2 SLOAD DUP2 LT PUSH2 0x722 JUMPI PUSH2 0x721 PUSH2 0x1AE3 JUMP JUMPDEST JUMPDEST SWAP1 PUSH1 0x0 MSTORE PUSH1 0x20 PUSH1 0x0 KECCAK256 SWAP1 PUSH1 0x4 MUL ADD SWAP1 POP PUSH1 0x40 MLOAD DUP1 PUSH1 0x40 ADD PUSH1 0x40 MSTORE DUP1 PUSH1 0x9 DUP2 MSTORE PUSH1 0x20 ADD PUSH32 0x4530303032303030310000000000000000000000000000000000000000000000 DUP2 MSTORE POP DUP2 PUSH1 0x0 ADD SWAP1 DUP2 PUSH2 0x778 SWAP2 SWAP1 PUSH2 0x1D1E JUMP JUMPDEST POP DUP7 DUP2 PUSH1 0x1 ADD SWAP1 DUP2 PUSH2 0x78A SWAP2 SWAP1 PUSH2 0x1D1E JUMP JUMPDEST POP CALLER DUP2 PUSH1 0x2 ADD PUSH1 0x0 PUSH2 0x100 EXP DUP2 SLOAD DUP2 PUSH20 0xFFFFFFFFFFFFFFFFFFFFFFFFFFFFFFFFFFFFFFFF MUL NOT AND SWAP1 DUP4 PUSH20 0xFFFFFFFFFFFFFFFFFFFFFFFFFFFFFFFFFFFFFFFF AND MUL OR SWAP1 SSTORE POP DUP6 DUP2 PUSH1 0x3 ADD PUSH1 0x40 MLOAD PUSH2 0x7DF SWAP1 PUSH2 0x1E47 JUMP JUMPDEST SWAP1 DUP2 MSTORE PUSH1 0x20 ADD PUSH1 0x40 MLOAD DUP1 SWAP2 SUB SWAP1 KECCAK256 DUP2 SWAP1 SSTORE POP DUP5 DUP2 PUSH1 0x3 ADD PUSH1 0x40 MLOAD PUSH2 0x802 SWAP1 PUSH2 0x1EA8 JUMP JUMPDEST SWAP1 DUP2 MSTORE PUSH1 0x20 ADD PUSH1 0x40 MLOAD DUP1 SWAP2 SUB SWAP1 KECCAK256 DUP2 SWAP1 SSTORE POP DUP4 DUP2 PUSH1 0x3 ADD PUSH1 0x40 MLOAD PUSH2 0x825 SWAP1 PUSH2 0x208D JUMP JUMPDEST SWAP1 DUP2 MSTORE PUSH1 0x20 ADD PUSH1 0x40 MLOAD DUP1 SWAP2 SUB SWAP1 KECCAK256 DUP2 SWAP1 SSTORE POP DUP3 DUP2 PUSH1 0x3 ADD PUSH1 0x40 MLOAD PUSH2 0x848 SWAP1 PUSH2 0x20EE JUMP JUMPDEST SWAP1 DUP2 MSTORE PUSH1 0x20 ADD PUSH1 0x40 MLOAD DUP1 SWAP2 SUB SWAP1 KECCAK256 DUP2 SWAP1 SSTORE POP TIMESTAMP DUP2 PUSH1 0x3 ADD PUSH1 0x40 MLOAD PUSH2 0x86B SWAP1 PUSH2 0x1FCB JUMP JUMPDEST SWAP1 DUP2 MSTORE PUSH1 0x20 ADD PUSH1 0x40 MLOAD DUP1 SWAP2 SUB SWAP1 KECCAK256 DUP2 SWAP1 SSTORE POP POP POP POP POP POP POP POP JUMP JUMPDEST PUSH1 0x0 DUP1 DUP1 SLOAD SWAP1 POP SWAP1 POP PUSH1 0x0 PUSH1 0x1 DUP2 PUSH1 0x1 DUP2 SLOAD ADD DUP1 DUP3 SSTORE DUP1 SWAP2 POP POP SUB SWAP1 PUSH1 0x0 MSTORE PUSH1 0x20 PUSH1 0x0 KECCAK256 SWAP1 POP POP PUSH1 0x0 DUP1 DUP3 DUP2 SLOAD DUP2 LT PUSH2 0x8C2 JUMPI PUSH2 0x8C1 PUSH2 0x1AE3 JUMP JUMPDEST JUMPDEST SWAP1 PUSH1 0x0 MSTORE PUSH1 0x20 PUSH1 0x0 KECCAK256 SWAP1 PUSH1 0x4 MUL ADD SWAP1 POP PUSH1 0x40 MLOAD DUP1 PUSH1 0x40 ADD PUSH1 0x40 MSTORE DUP1 PUSH1 0x9 DUP2 MSTORE PUSH1 0x20 ADD PUSH32 0x4530303031303030350000000000000000000000000000000000000000000000 DUP2 MSTORE POP DUP2 PUSH1 0x0 ADD SWAP1 DUP2 PUSH2 0x918 SWAP2 SWAP1 PUSH2 0x1D1E JUMP JUMPDEST POP DUP8 DUP2 PUSH1 0x1 ADD SWAP1 DUP2 PUSH2 0x92A SWAP2 SWAP1 PUSH2 0x1D1E JUMP JUMPDEST POP CALLER DUP2 PUSH1 0x2 ADD PUSH1 0x0 PUSH2 0x100 EXP DUP2 SLOAD DUP2 PUSH20 0xFFFFFFFFFFFFFFFFFFFFFFFFFFFFFFFFFFFFFFFF MUL NOT AND SWAP1 DUP4 PUSH20 0xFFFFFFFFFFFFFFFFFFFFFFFFFFFFFFFFFFFFFFFF AND MUL OR SWAP1 SSTORE POP DUP7 DUP2 PUSH1 0x3 ADD PUSH1 0x40 MLOAD PUSH2 0x97F SWAP1 PUSH2 0x1E47 JUMP JUMPDEST SWAP1 DUP2 MSTORE PUSH1 0x20 ADD PUSH1 0x40 MLOAD DUP1 SWAP2 SUB SWAP1 KECCAK256 DUP2 SWAP1 SSTORE POP DUP6 DUP2 PUSH1 0x3 ADD PUSH1 0x40 MLOAD PUSH2 0x9A2 SWAP1 PUSH2 0x1EA8 JUMP JUMPDEST SWAP1 DUP2 MSTORE PUSH1 0x20 ADD PUSH1 0x40 MLOAD DUP1 SWAP2 SUB SWAP1 KECCAK256 DUP2 SWAP1 SSTORE POP DUP5 DUP2 PUSH1 0x3 ADD PUSH1 0x40 MLOAD PUSH2 0x9C5 SWAP1 PUSH2 0x1F09 JUMP JUMPDEST SWAP1 DUP2 MSTORE PUSH1 0x20 ADD PUSH1 0x40 MLOAD DUP1 SWAP2 SUB SWAP1 KECCAK256 DUP2 SWAP1 SSTORE POP DUP4 DUP2 PUSH1 0x3 ADD PUSH1 0x40 MLOAD PUSH2 0x9E8 SWAP1 PUSH2 0x1F6A JUMP JUMPDEST SWAP1 DUP2 MSTORE PUSH1 0x20 ADD PUSH1 0x40 MLOAD DUP1 SWAP2 SUB SWAP1 KECCAK256 DUP2 SWAP1 SSTORE POP TIMESTAMP DUP2 PUSH1 0x3 ADD PUSH1 0x40 MLOAD PUSH2 0xA0B SWAP1 PUSH2 0x1FCB JUMP JUMPDEST SWAP1 DUP2 MSTORE PUSH1 0x20 ADD PUSH1 0x40 MLOAD DUP1 SWAP2 SUB SWAP1 KECCAK256 DUP2 SWAP1 SSTORE POP DUP3 DUP2 PUSH1 0x3 ADD PUSH1 0x40 MLOAD PUSH2 0xA2E SWAP1 PUSH2 0x202C JUMP JUMPDEST SWAP1 DUP2 MSTORE PUSH1 0x20 ADD PUSH1 0x40 MLOAD DUP1 SWAP2 SUB SWAP1 KECCAK256 DUP2 SWAP1 SSTORE POP POP POP POP POP POP POP POP POP JUMP JUMPDEST PUSH1 0x60 DUP1 PUSH1 0x0 DUP1 PUSH2 0xA59 DUP6 PUSH2 0x13B0 JUMP JUMPDEST SWAP1 POP DUP1 PUSH1 0x0 ADD DUP2 PUSH1 0x1 ADD DUP3 PUSH1 0x2 ADD PUSH1 0x0 SWAP1 SLOAD SWAP1 PUSH2 0x100 EXP SWAP1 DIV PUSH20 0xFFFFFFFFFFFFFFFFFFFFFFFFFFFFFFFFFFFFFFFF AND DUP3 DUP1 SLOAD PUSH2 0xA94 SWAP1 PUSH2 0x1B41 JUMP JUMPDEST DUP1 PUSH1 0x1F ADD PUSH1 0x20 DUP1 SWAP2 DIV MUL PUSH1 0x20 ADD PUSH1 0x40 MLOAD SWAP1 DUP2 ADD PUSH1 0x40 MSTORE DUP1 SWAP3 SWAP2 SWAP1 DUP2 DUP2 MSTORE PUSH1 0x20 ADD DUP3 DUP1 SLOAD PUSH2 0xAC0 SWAP1 PUSH2 0x1B41 JUMP JUMPDEST DUP1 ISZERO PUSH2 0xB0D JUMPI DUP1 PUSH1 0x1F LT PUSH2 0xAE2 JUMPI PUSH2 0x100 DUP1 DUP4 SLOAD DIV MUL DUP4 MSTORE SWAP2 PUSH1 0x20 ADD SWAP2 PUSH2 0xB0D JUMP JUMPDEST DUP3 ADD SWAP2 SWAP1 PUSH1 0x0 MSTORE PUSH1 0x20 PUSH1 0x0 KECCAK256 SWAP1 JUMPDEST DUP2 SLOAD DUP2 MSTORE SWAP1 PUSH1 0x1 ADD SWAP1 PUSH1 0x20 ADD DUP1 DUP4 GT PUSH2 0xAF0 JUMPI DUP3 SWAP1 SUB PUSH1 0x1F AND DUP3 ADD SWAP2 JUMPDEST POP POP POP POP POP SWAP3 POP DUP2 DUP1 SLOAD PUSH2 0xB20 SWAP1 PUSH2 0x1B41 JUMP JUMPDEST DUP1 PUSH1 0x1F ADD PUSH1 0x20 DUP1 SWAP2 DIV MUL PUSH1 0x20 ADD PUSH1 0x40 MLOAD SWAP1 DUP2 ADD PUSH1 0x40 MSTORE DUP1 SWAP3 SWAP2 SWAP1 DUP2 DUP2 MSTORE PUSH1 0x20 ADD DUP3 DUP1 SLOAD PUSH2 0xB4C SWAP1 PUSH2 0x1B41 JUMP JUMPDEST DUP1 ISZERO PUSH2 0xB99 JUMPI DUP1 PUSH1 0x1F LT PUSH2 0xB6E JUMPI PUSH2 0x100 DUP1 DUP4 SLOAD DIV MUL DUP4 MSTORE SWAP2 PUSH1 0x20 ADD SWAP2 PUSH2 0xB99 JUMP JUMPDEST DUP3 ADD SWAP2 SWAP1 PUSH1 0x0 MSTORE PUSH1 0x20 PUSH1 0x0 KECCAK256 SWAP1 JUMPDEST DUP2 SLOAD DUP2 MSTORE SWAP1 PUSH1 0x1 ADD SWAP1 PUSH1 0x20 ADD DUP1 DUP4 GT PUSH2 0xB7C JUMPI DUP3 SWAP1 SUB PUSH1 0x1F AND DUP3 ADD SWAP2 JUMPDEST POP POP POP POP POP SWAP2 POP SWAP4 POP SWAP4 POP SWAP4 POP POP SWAP2 SWAP4 SWAP1 SWAP3 POP JUMP JUMPDEST PUSH1 0x0 DUP1 DUP4 DUP2 SLOAD DUP2 LT PUSH2 0xBC3 JUMPI PUSH2 0xBC2 PUSH2 0x1AE3 JUMP JUMPDEST JUMPDEST SWAP1 PUSH1 0x0 MSTORE PUSH1 0x20 PUSH1 0x0 KECCAK256 SWAP1 PUSH1 0x4 MUL ADD PUSH1 0x3 ADD DUP3 PUSH1 0x40 MLOAD PUSH2 0xBE2 SWAP2 SWAP1 PUSH2 0x2134 JUMP JUMPDEST SWAP1 DUP2 MSTORE PUSH1 0x20 ADD PUSH1 0x40 MLOAD DUP1 SWAP2 SUB SWAP1 KECCAK256 SLOAD SWAP1 POP SWAP3 SWAP2 POP POP JUMP JUMPDEST PUSH1 0x0 DUP1 DUP1 SLOAD SWAP1 POP SWAP1 POP PUSH1 0x0 PUSH1 0x1 DUP2 PUSH1 0x1 DUP2 SLOAD ADD DUP1 DUP3 SSTORE DUP1 SWAP2 POP POP SUB SWAP1 PUSH1 0x0 MSTORE PUSH1 0x20 PUSH1 0x0 KECCAK256 SWAP1 POP POP PUSH1 0x0 DUP1 DUP3 DUP2 SLOAD DUP2 LT PUSH2 0xC35 JUMPI PUSH2 0xC34 PUSH2 0x1AE3 JUMP JUMPDEST JUMPDEST SWAP1 PUSH1 0x0 MSTORE PUSH1 0x20 PUSH1 0x0 KECCAK256 SWAP1 PUSH1 0x4 MUL ADD SWAP1 POP PUSH1 0x40 MLOAD DUP1 PUSH1 0x40 ADD PUSH1 0x40 MSTORE DUP1 PUSH1 0x9 DUP2 MSTORE PUSH1 0x20 ADD PUSH32 0x4530303031303030330000000000000000000000000000000000000000000000 DUP2 MSTORE POP DUP2 PUSH1 0x0 ADD SWAP1 DUP2 PUSH2 0xC8B SWAP2 SWAP1 PUSH2 0x1D1E JUMP JUMPDEST POP DUP7 DUP2 PUSH1 0x1 ADD SWAP1 DUP2 PUSH2 0xC9D SWAP2 SWAP1 PUSH2 0x1D1E JUMP JUMPDEST POP CALLER DUP2 PUSH1 0x2 ADD PUSH1 0x0 PUSH2 0x100 EXP DUP2 SLOAD DUP2 PUSH20 0xFFFFFFFFFFFFFFFFFFFFFFFFFFFFFFFFFFFFFFFF MUL NOT AND SWAP1 DUP4 PUSH20 0xFFFFFFFFFFFFFFFFFFFFFFFFFFFFFFFFFFFFFFFF AND MUL OR SWAP1 SSTORE POP DUP6 DUP2 PUSH1 0x3 ADD PUSH1 0x40 MLOAD PUSH2 0xCF2 SWAP1 PUSH2 0x1E47 JUMP JUMPDEST SWAP1 DUP2 MSTORE PUSH1 0x20 ADD PUSH1 0x40 MLOAD DUP1 SWAP2 SUB SWAP1 KECCAK256 DUP2 SWAP1 SSTORE POP DUP5 DUP2 PUSH1 0x3 ADD PUSH1 0x40 MLOAD PUSH2 0xD15 SWAP1 PUSH2 0x1EA8 JUMP JUMPDEST SWAP1 DUP2 MSTORE PUSH1 0x20 ADD PUSH1 0x40 MLOAD DUP1 SWAP2 SUB SWAP1 KECCAK256 DUP2 SWAP1 SSTORE POP DUP4 DUP2 PUSH1 0x3 ADD PUSH1 0x40 MLOAD PUSH2 0xD38 SWAP1 PUSH2 0x1F09 JUMP JUMPDEST SWAP1 DUP2 MSTORE PUSH1 0x20 ADD PUSH1 0x40 MLOAD DUP1 SWAP2 SUB SWAP1 KECCAK256 DUP2 SWAP1 SSTORE POP TIMESTAMP DUP2 PUSH1 0x3 ADD PUSH1 0x40 MLOAD PUSH2 0xD5B SWAP1 PUSH2 0x1FCB JUMP JUMPDEST SWAP1 DUP2 MSTORE PUSH1 0x20 ADD PUSH1 0x40 MLOAD DUP1 SWAP2 SUB SWAP1 KECCAK256 DUP2 SWAP1 SSTORE POP DUP3 DUP2 PUSH1 0x3 ADD PUSH1 0x40 MLOAD PUSH2 0xD7E SWAP1 PUSH2 0x2197 JUMP JUMPDEST SWAP1 DUP2 MSTORE PUSH1 0x20 ADD PUSH1 0x40 MLOAD DUP1 SWAP2 SUB SWAP1 KECCAK256 DUP2 SWAP1 SSTORE POP POP POP POP POP POP POP POP JUMP JUMPDEST PUSH1 0x0 DUP1 DUP1 SLOAD SWAP1 POP SWAP1 POP PUSH1 0x0 PUSH1 0x1 DUP2 PUSH1 0x1 DUP2 SLOAD ADD DUP1 DUP3 SSTORE DUP1 SWAP2 POP POP SUB SWAP1 PUSH1 0x0 MSTORE PUSH1 0x20 PUSH1 0x0 KECCAK256 SWAP1 POP POP PUSH1 0x0 DUP1 DUP3 DUP2 SLOAD DUP2 LT PUSH2 0xDD5 JUMPI PUSH2 0xDD4 PUSH2 0x1AE3 JUMP JUMPDEST JUMPDEST SWAP1 PUSH1 0x0 MSTORE PUSH1 0x20 PUSH1 0x0 KECCAK256 SWAP1 PUSH1 0x4 MUL ADD SWAP1 POP PUSH1 0x40 MLOAD DUP1 PUSH1 0x40 ADD PUSH1 0x40 MSTORE DUP1 PUSH1 0x9 DUP2 MSTORE PUSH1 0x20 ADD PUSH32 0x4530303031303030310000000000000000000000000000000000000000000000 DUP2 MSTORE POP DUP2 PUSH1 0x0 ADD SWAP1 DUP2 PUSH2 0xE2B SWAP2 SWAP1 PUSH2 0x1D1E JUMP JUMPDEST POP DUP7 DUP2 PUSH1 0x1 ADD SWAP1 DUP2 PUSH2 0xE3D SWAP2 SWAP1 PUSH2 0x1D1E JUMP JUMPDEST POP CALLER DUP2 PUSH1 0x2 ADD PUSH1 0x0 PUSH2 0x100 EXP DUP2 SLOAD DUP2 PUSH20 0xFFFFFFFFFFFFFFFFFFFFFFFFFFFFFFFFFFFFFFFF MUL NOT AND SWAP1 DUP4 PUSH20 0xFFFFFFFFFFFFFFFFFFFFFFFFFFFFFFFFFFFFFFFF AND MUL OR SWAP1 SSTORE POP DUP6 DUP2 PUSH1 0x3 ADD PUSH1 0x40 MLOAD PUSH2 0xE92 SWAP1 PUSH2 0x1E47 JUMP JUMPDEST SWAP1 DUP2 MSTORE PUSH1 0x20 ADD PUSH1 0x40 MLOAD DUP1 SWAP2 SUB SWAP1 KECCAK256 DUP2 SWAP1 SSTORE POP DUP5 DUP2 PUSH1 0x3 ADD PUSH1 0x40 MLOAD PUSH2 0xEB5 SWAP1 PUSH2 0x1EA8 JUMP JUMPDEST SWAP1 DUP2 MSTORE PUSH1 0x20 ADD PUSH1 0x40 MLOAD DUP1 SWAP2 SUB SWAP1 KECCAK256 DUP2 SWAP1 SSTORE POP DUP4 DUP2 PUSH1 0x3 ADD PUSH1 0x40 MLOAD PUSH2 0xED8 SWAP1 PUSH2 0x1F09 JUMP JUMPDEST SWAP1 DUP2 MSTORE PUSH1 0x20 ADD PUSH1 0x40 MLOAD DUP1 SWAP2 SUB SWAP1 KECCAK256 DUP2 SWAP1 SSTORE POP TIMESTAMP DUP2 PUSH1 0x3 ADD PUSH1 0x40 MLOAD PUSH2 0xEFB SWAP1 PUSH2 0x1FCB JUMP JUMPDEST SWAP1 DUP2 MSTORE PUSH1 0x20 ADD PUSH1 0x40 MLOAD DUP1 SWAP2 SUB SWAP1 KECCAK256 DUP2 SWAP1 SSTORE POP DUP3 DUP2 PUSH1 0x3 ADD PUSH1 0x40 MLOAD PUSH2 0xF1E SWAP1 PUSH2 0x2197 JUMP JUMPDEST SWAP1 DUP2 MSTORE PUSH1 0x20 ADD PUSH1 0x40 MLOAD DUP1 SWAP2 SUB SWAP1 KECCAK256 DUP2 SWAP1 SSTORE POP POP POP POP POP POP POP POP JUMP JUMPDEST PUSH1 0x0 DUP1 PUSH2 0xF45 DUP5 PUSH2 0x13B0 JUMP JUMPDEST SWAP1 POP DUP1 PUSH1 0x3 ADD DUP4 PUSH1 0x40 MLOAD PUSH2 0xF59 SWAP2 SWAP1 PUSH2 0x2134 JUMP JUMPDEST SWAP1 DUP2 MSTORE PUSH1 0x20 ADD PUSH1 0x40 MLOAD DUP1 SWAP2 SUB SWAP1 KECCAK256 SLOAD SWAP2 POP POP SWAP3 SWAP2 POP POP JUMP JUMPDEST PUSH1 0x0 DUP1 DUP1 SLOAD SWAP1 POP SWAP1 POP PUSH1 0x0 PUSH1 0x1 DUP2 PUSH1 0x1 DUP2 SLOAD ADD DUP1 DUP3 SSTORE DUP1 SWAP2 POP POP SUB SWAP1 PUSH1 0x0 MSTORE PUSH1 0x20 PUSH1 0x0 KECCAK256 SWAP1 POP POP PUSH1 0x0 DUP1 DUP3 DUP2 SLOAD DUP2 LT PUSH2 0xFAD JUMPI PUSH2 0xFAC PUSH2 0x1AE3 JUMP JUMPDEST JUMPDEST SWAP1 PUSH1 0x0 MSTORE PUSH1 0x20 PUSH1 0x0 KECCAK256 SWAP1 PUSH1 0x4 MUL ADD SWAP1 POP PUSH1 0x40 MLOAD DUP1 PUSH1 0x40 ADD PUSH1 0x40 MSTORE DUP1 PUSH1 0x9 DUP2 MSTORE PUSH1 0x20 ADD PUSH32 0x4530303031303030340000000000000000000000000000000000000000000000 DUP2 MSTORE POP DUP2 PUSH1 0x0 ADD SWAP1 DUP2 PUSH2 0x1003 SWAP2 SWAP1 PUSH2 0x1D1E JUMP JUMPDEST POP DUP9 DUP2 PUSH1 0x1 ADD SWAP1 DUP2 PUSH2 0x1015 SWAP2 SWAP1 PUSH2 0x1D1E JUMP JUMPDEST POP CALLER DUP2 PUSH1 0x2 ADD PUSH1 0x0 PUSH2 0x100 EXP DUP2 SLOAD DUP2 PUSH20 0xFFFFFFFFFFFFFFFFFFFFFFFFFFFFFFFFFFFFFFFF MUL NOT AND SWAP1 DUP4 PUSH20 0xFFFFFFFFFFFFFFFFFFFFFFFFFFFFFFFFFFFFFFFF AND MUL OR SWAP1 SSTORE POP DUP8 DUP2 PUSH1 0x3 ADD PUSH1 0x40 MLOAD PUSH2 0x106A SWAP1 PUSH2 0x1E47 JUMP JUMPDEST SWAP1 DUP2 MSTORE PUSH1 0x20 ADD PUSH1 0x40 MLOAD DUP1 SWAP2 SUB SWAP1 KECCAK256 DUP2 SWAP1 SSTORE POP DUP7 DUP2 PUSH1 0x3 ADD PUSH1 0x40 MLOAD PUSH2 0x108D SWAP1 PUSH2 0x1EA8 JUMP JUMPDEST SWAP1 DUP2 MSTORE PUSH1 0x20 ADD PUSH1 0x40 MLOAD DUP1 SWAP2 SUB SWAP1 KECCAK256 DUP2 SWAP1 SSTORE POP DUP6 DUP2 PUSH1 0x3 ADD PUSH1 0x40 MLOAD PUSH2 0x10B0 SWAP1 PUSH2 0x1F09 JUMP JUMPDEST SWAP1 DUP2 MSTORE PUSH1 0x20 ADD PUSH1 0x40 MLOAD DUP1 SWAP2 SUB SWAP1 KECCAK256 DUP2 SWAP1 SSTORE POP DUP5 DUP2 PUSH1 0x3 ADD PUSH1 0x40 MLOAD PUSH2 0x10D3 SWAP1 PUSH2 0x1F6A JUMP JUMPDEST SWAP1 DUP2 MSTORE PUSH1 0x20 ADD PUSH1 0x40 MLOAD DUP1 SWAP2 SUB SWAP1 KECCAK256 DUP2 SWAP1 SSTORE POP TIMESTAMP DUP2 PUSH1 0x3 ADD PUSH1 0x40 MLOAD PUSH2 0x10F6 SWAP1 PUSH2 0x1FCB JUMP JUMPDEST SWAP1 DUP2 MSTORE PUSH1 0x20 ADD PUSH1 0x40 MLOAD DUP1 SWAP2 SUB SWAP1 KECCAK256 DUP2 SWAP1 SSTORE POP DUP4 DUP2 PUSH1 0x3 ADD PUSH1 0x40 MLOAD PUSH2 0x1119 SWAP1 PUSH2 0x202C JUMP JUMPDEST SWAP1 DUP2 MSTORE PUSH1 0x20 ADD PUSH1 0x40 MLOAD DUP1 SWAP2 SUB SWAP1 KECCAK256 DUP2 SWAP1 SSTORE POP DUP3 DUP2 PUSH1 0x3 ADD PUSH1 0x40 MLOAD PUSH2 0x113C SWAP1 PUSH2 0x21F8 JUMP JUMPDEST SWAP1 DUP2 MSTORE PUSH1 0x20 ADD PUSH1 0x40 MLOAD DUP1 SWAP2 SUB SWAP1 KECCAK256 DUP2 SWAP1 SSTORE POP POP POP POP POP POP POP POP POP POP JUMP JUMPDEST PUSH1 0x0 DUP1 DUP1 SLOAD SWAP1 POP SWAP1 POP PUSH1 0x0 PUSH1 0x1 DUP2 PUSH1 0x1 DUP2 SLOAD ADD DUP1 DUP3 SSTORE DUP1 SWAP2 POP POP SUB SWAP1 PUSH1 0x0 MSTORE PUSH1 0x20 PUSH1 0x0 KECCAK256 SWAP1 POP POP PUSH1 0x0 DUP1 DUP3 DUP2 SLOAD DUP2 LT PUSH2 0x1195 JUMPI PUSH2 0x1194 PUSH2 0x1AE3 JUMP JUMPDEST JUMPDEST SWAP1 PUSH1 0x0 MSTORE PUSH1 0x20 PUSH1 0x0 KECCAK256 SWAP1 PUSH1 0x4 MUL ADD SWAP1 POP PUSH1 0x40 MLOAD DUP1 PUSH1 0x40 ADD PUSH1 0x40 MSTORE DUP1 PUSH1 0x9 DUP2 MSTORE PUSH1 0x20 ADD PUSH32 0x4530303031303030320000000000000000000000000000000000000000000000 DUP2 MSTORE POP DUP2 PUSH1 0x0 ADD SWAP1 DUP2 PUSH2 0x11EB SWAP2 SWAP1 PUSH2 0x1D1E JUMP JUMPDEST POP DUP7 DUP2 PUSH1 0x1 ADD SWAP1 DUP2 PUSH2 0x11FD SWAP2 SWAP1 PUSH2 0x1D1E JUMP JUMPDEST POP CALLER DUP2 PUSH1 0x2 ADD PUSH1 0x0 PUSH2 0x100 EXP DUP2 SLOAD DUP2 PUSH20 0xFFFFFFFFFFFFFFFFFFFFFFFFFFFFFFFFFFFFFFFF MUL NOT AND SWAP1 DUP4 PUSH20 0xFFFFFFFFFFFFFFFFFFFFFFFFFFFFFFFFFFFFFFFF AND MUL OR SWAP1 SSTORE POP DUP6 DUP2 PUSH1 0x3 ADD PUSH1 0x40 MLOAD PUSH2 0x1252 SWAP1 PUSH2 0x1E47 JUMP JUMPDEST SWAP1 DUP2 MSTORE PUSH1 0x20 ADD PUSH1 0x40 MLOAD DUP1 SWAP2 SUB SWAP1 KECCAK256 DUP2 SWAP1 SSTORE POP DUP5 DUP2 PUSH1 0x3 ADD PUSH1 0x40 MLOAD PUSH2 0x1275 SWAP1 PUSH2 0x1EA8 JUMP JUMPDEST SWAP1 DUP2 MSTORE PUSH1 0x20 ADD PUSH1 0x40 MLOAD DUP1 SWAP2 SUB SWAP1 KECCAK256 DUP2 SWAP1 SSTORE POP DUP4 DUP2 PUSH1 0x3 ADD PUSH1 0x40 MLOAD PUSH2 0x1298 SWAP1 PUSH2 0x1F09 JUMP JUMPDEST SWAP1 DUP2 MSTORE PUSH1 0x20 ADD PUSH1 0x40 MLOAD DUP1 SWAP2 SUB SWAP1 KECCAK256 DUP2 SWAP1 SSTORE POP TIMESTAMP DUP2 PUSH1 0x3 ADD PUSH1 0x40 MLOAD PUSH2 0x12BB SWAP1 PUSH2 0x1FCB JUMP JUMPDEST SWAP1 DUP2 MSTORE PUSH1 0x20 ADD PUSH1 0x40 MLOAD DUP1 SWAP2 SUB SWAP1 KECCAK256 DUP2 SWAP1 SSTORE POP DUP3 DUP2 PUSH1 0x3 ADD PUSH1 0x40 MLOAD PUSH2 0x12DE SWAP1 PUSH2 0x2197 JUMP JUMPDEST SWAP1 DUP2 MSTORE PUSH1 0x20 ADD PUSH1 0x40 MLOAD DUP1 SWAP2 SUB SWAP1 KECCAK256 DUP2 SWAP1 SSTORE POP POP POP POP POP POP POP POP JUMP JUMPDEST PUSH1 0x60 PUSH1 0x0 DUP3 DUP2 SLOAD DUP2 LT PUSH2 0x130F JUMPI PUSH2 0x130E PUSH2 0x1AE3 JUMP JUMPDEST JUMPDEST SWAP1 PUSH1 0x0 MSTORE PUSH1 0x20 PUSH1 0x0 KECCAK256 SWAP1 PUSH1 0x4 MUL ADD PUSH1 0x0 ADD DUP1 SLOAD PUSH2 0x132B SWAP1 PUSH2 0x1B41 JUMP JUMPDEST DUP1 PUSH1 0x1F ADD PUSH1 0x20 DUP1 SWAP2 DIV MUL PUSH1 0x20 ADD PUSH1 0x40 MLOAD SWAP1 DUP2 ADD PUSH1 0x40 MSTORE DUP1 SWAP3 SWAP2 SWAP1 DUP2 DUP2 MSTORE PUSH1 0x20 ADD DUP3 DUP1 SLOAD PUSH2 0x1357 SWAP1 PUSH2 0x1B41 JUMP JUMPDEST DUP1 ISZERO PUSH2 0x13A4 JUMPI DUP1 PUSH1 0x1F LT PUSH2 0x1379 JUMPI PUSH2 0x100 DUP1 DUP4 SLOAD DIV MUL DUP4 MSTORE SWAP2 PUSH1 0x20 ADD SWAP2 PUSH2 0x13A4 JUMP JUMPDEST DUP3 ADD SWAP2 SWAP1 PUSH1 0x0 MSTORE PUSH1 0x20 PUSH1 0x0 KECCAK256 SWAP1 JUMPDEST DUP2 SLOAD DUP2 MSTORE SWAP1 PUSH1 0x1 ADD SWAP1 PUSH1 0x20 ADD DUP1 DUP4 GT PUSH2 0x1387 JUMPI DUP3 SWAP1 SUB PUSH1 0x1F AND DUP3 ADD SWAP2 JUMPDEST POP POP POP POP POP SWAP1 POP SWAP2 SWAP1 POP JUMP JUMPDEST PUSH1 0x0 DUP1 PUSH1 0x0 SWAP1 POP JUMPDEST PUSH1 0x0 DUP1 SLOAD SWAP1 POP DUP2 LT ISZERO PUSH2 0x1479 JUMPI DUP3 PUSH1 0x40 MLOAD PUSH1 0x20 ADD PUSH2 0x13D6 SWAP2 SWAP1 PUSH2 0x2134 JUMP JUMPDEST PUSH1 0x40 MLOAD PUSH1 0x20 DUP2 DUP4 SUB SUB DUP2 MSTORE SWAP1 PUSH1 0x40 MSTORE DUP1 MLOAD SWAP1 PUSH1 0x20 ADD KECCAK256 PUSH1 0x0 DUP3 DUP2 SLOAD DUP2 LT PUSH2 0x1400 JUMPI PUSH2 0x13FF PUSH2 0x1AE3 JUMP JUMPDEST JUMPDEST SWAP1 PUSH1 0x0 MSTORE PUSH1 0x20 PUSH1 0x0 KECCAK256 SWAP1 PUSH1 0x4 MUL ADD PUSH1 0x1 ADD PUSH1 0x40 MLOAD PUSH1 0x20 ADD PUSH2 0x1421 SWAP2 SWAP1 PUSH2 0x2290 JUMP JUMPDEST PUSH1 0x40 MLOAD PUSH1 0x20 DUP2 DUP4 SUB SUB DUP2 MSTORE SWAP1 PUSH1 0x40 MSTORE DUP1 MLOAD SWAP1 PUSH1 0x20 ADD KECCAK256 SUB PUSH2 0x1466 JUMPI PUSH1 0x0 DUP2 DUP2 SLOAD DUP2 LT PUSH2 0x1450 JUMPI PUSH2 0x144F PUSH2 0x1AE3 JUMP JUMPDEST JUMPDEST SWAP1 PUSH1 0x0 MSTORE PUSH1 0x20 PUSH1 0x0 KECCAK256 SWAP1 PUSH1 0x4 MUL ADD SWAP2 POP POP PUSH2 0x14B5 JUMP JUMPDEST DUP1 DUP1 PUSH2 0x1471 SWAP1 PUSH2 0x22D6 JUMP JUMPDEST SWAP2 POP POP PUSH2 0x13B8 JUMP JUMPDEST POP PUSH1 0x40 MLOAD PUSH32 0x8C379A000000000000000000000000000000000000000000000000000000000 DUP2 MSTORE PUSH1 0x4 ADD PUSH2 0x14AC SWAP1 PUSH2 0x2390 JUMP JUMPDEST PUSH1 0x40 MLOAD DUP1 SWAP2 SUB SWAP1 REVERT JUMPDEST SWAP2 SWAP1 POP JUMP JUMPDEST PUSH1 0x0 DUP2 SWAP1 POP SWAP2 SWAP1 POP JUMP JUMPDEST PUSH2 0x14CD DUP2 PUSH2 0x14BA JUMP JUMPDEST DUP3 MSTORE POP POP JUMP JUMPDEST PUSH1 0x0 PUSH1 0x20 DUP3 ADD SWAP1 POP PUSH2 0x14E8 PUSH1 0x0 DUP4 ADD DUP5 PUSH2 0x14C4 JUMP JUMPDEST SWAP3 SWAP2 POP POP JUMP JUMPDEST PUSH1 0x0 PUSH1 0x40 MLOAD SWAP1 POP SWAP1 JUMP JUMPDEST PUSH1 0x0 DUP1 REVERT JUMPDEST PUSH1 0x0 DUP1 REVERT JUMPDEST PUSH1 0x0 DUP1 REVERT JUMPDEST PUSH1 0x0 DUP1 REVERT JUMPDEST PUSH1 0x0 PUSH1 0x1F NOT PUSH1 0x1F DUP4 ADD AND SWAP1 POP SWAP2 SWAP1 POP JUMP JUMPDEST PUSH32 0x4E487B7100000000000000000000000000000000000000000000000000000000 PUSH1 0x0 MSTORE PUSH1 0x41 PUSH1 0x4 MSTORE PUSH1 0x24 PUSH1 0x0 REVERT JUMPDEST PUSH2 0x1555 DUP3 PUSH2 0x150C JUMP JUMPDEST DUP2 ADD DUP2 DUP2 LT PUSH8 0xFFFFFFFFFFFFFFFF DUP3 GT OR ISZERO PUSH2 0x1574 JUMPI PUSH2 0x1573 PUSH2 0x151D JUMP JUMPDEST JUMPDEST DUP1 PUSH1 0x40 MSTORE POP POP POP JUMP JUMPDEST PUSH1 0x0 PUSH2 0x1587 PUSH2 0x14EE JUMP JUMPDEST SWAP1 POP PUSH2 0x1593 DUP3 DUP3 PUSH2 0x154C JUMP JUMPDEST SWAP2 SWAP1 POP JUMP JUMPDEST PUSH1 0x0 PUSH8 0xFFFFFFFFFFFFFFFF DUP3 GT ISZERO PUSH2 0x15B3 JUMPI PUSH2 0x15B2 PUSH2 0x151D JUMP JUMPDEST JUMPDEST PUSH2 0x15BC DUP3 PUSH2 0x150C JUMP JUMPDEST SWAP1 POP PUSH1 0x20 DUP2 ADD SWAP1 POP SWAP2 SWAP1 POP JUMP JUMPDEST DUP3 DUP2 DUP4 CALLDATACOPY PUSH1 0x0 DUP4 DUP4 ADD MSTORE POP POP POP JUMP JUMPDEST PUSH1 0x0 PUSH2 0x15EB PUSH2 0x15E6 DUP5 PUSH2 0x1598 JUMP JUMPDEST PUSH2 0x157D JUMP JUMPDEST SWAP1 POP DUP3 DUP2 MSTORE PUSH1 0x20 DUP2 ADD DUP5 DUP5 DUP5 ADD GT ISZERO PUSH2 0x1607 JUMPI PUSH2 0x1606 PUSH2 0x1507 JUMP JUMPDEST JUMPDEST PUSH2 0x1612 DUP5 DUP3 DUP6 PUSH2 0x15C9 JUMP JUMPDEST POP SWAP4 SWAP3 POP POP POP JUMP JUMPDEST PUSH1 0x0 DUP3 PUSH1 0x1F DUP4 ADD SLT PUSH2 0x162F JUMPI PUSH2 0x162E PUSH2 0x1502 JUMP JUMPDEST JUMPDEST DUP2 CALLDATALOAD PUSH2 0x163F DUP5 DUP3 PUSH1 0x20 DUP7 ADD PUSH2 0x15D8 JUMP JUMPDEST SWAP2 POP POP SWAP3 SWAP2 POP POP JUMP JUMPDEST PUSH2 0x1651 DUP2 PUSH2 0x14BA JUMP JUMPDEST DUP2 EQ PUSH2 0x165C JUMPI PUSH1 0x0 DUP1 REVERT JUMPDEST POP JUMP JUMPDEST PUSH1 0x0 DUP2 CALLDATALOAD SWAP1 POP PUSH2 0x166E DUP2 PUSH2 0x1648 JUMP JUMPDEST SWAP3 SWAP2 POP POP JUMP JUMPDEST PUSH1 0x0 DUP1 PUSH1 0x0 DUP1 PUSH1 0x0 DUP1 PUSH1 0xC0 DUP8 DUP10 SUB SLT ISZERO PUSH2 0x1691 JUMPI PUSH2 0x1690 PUSH2 0x14F8 JUMP JUMPDEST JUMPDEST PUSH1 0x0 DUP8 ADD CALLDATALOAD PUSH8 0xFFFFFFFFFFFFFFFF DUP2 GT ISZERO PUSH2 0x16AF JUMPI PUSH2 0x16AE PUSH2 0x14FD JUMP JUMPDEST JUMPDEST PUSH2 0x16BB DUP10 DUP3 DUP11 ADD PUSH2 0x161A JUMP JUMPDEST SWAP7 POP POP PUSH1 0x20 PUSH2 0x16CC DUP10 DUP3 DUP11 ADD PUSH2 0x165F JUMP JUMPDEST SWAP6 POP POP PUSH1 0x40 PUSH2 0x16DD DUP10 DUP3 DUP11 ADD PUSH2 0x165F JUMP JUMPDEST SWAP5 POP POP PUSH1 0x60 PUSH2 0x16EE DUP10 DUP3 DUP11 ADD PUSH2 0x165F JUMP JUMPDEST SWAP4 POP POP PUSH1 0x80 PUSH2 0x16FF DUP10 DUP3 DUP11 ADD PUSH2 0x165F JUMP JUMPDEST SWAP3 POP POP PUSH1 0xA0 PUSH2 0x1710 DUP10 DUP3 DUP11 ADD PUSH2 0x165F JUMP JUMPDEST SWAP2 POP POP SWAP3 SWAP6 POP SWAP3 SWAP6 POP SWAP3 SWAP6 JUMP JUMPDEST PUSH1 0x0 PUSH1 0x20 DUP3 DUP5 SUB SLT ISZERO PUSH2 0x1733 JUMPI PUSH2 0x1732 PUSH2 0x14F8 JUMP JUMPDEST JUMPDEST PUSH1 0x0 PUSH2 0x1741 DUP5 DUP3 DUP6 ADD PUSH2 0x165F JUMP JUMPDEST SWAP2 POP POP SWAP3 SWAP2 POP POP JUMP JUMPDEST PUSH1 0x0 DUP2 MLOAD SWAP1 POP SWAP2 SWAP1 POP JUMP JUMPDEST PUSH1 0x0 DUP3 DUP3 MSTORE PUSH1 0x20 DUP3 ADD SWAP1 POP SWAP3 SWAP2 POP POP JUMP JUMPDEST PUSH1 0x0 JUMPDEST DUP4 DUP2 LT ISZERO PUSH2 0x1784 JUMPI DUP1 DUP3 ADD MLOAD DUP2 DUP5 ADD MSTORE PUSH1 0x20 DUP2 ADD SWAP1 POP PUSH2 0x1769 JUMP JUMPDEST PUSH1 0x0 DUP5 DUP5 ADD MSTORE POP POP POP POP JUMP JUMPDEST PUSH1 0x0 PUSH2 0x179B DUP3 PUSH2 0x174A JUMP JUMPDEST PUSH2 0x17A5 DUP2 DUP6 PUSH2 0x1755 JUMP JUMPDEST SWAP4 POP PUSH2 0x17B5 DUP2 DUP6 PUSH1 0x20 DUP7 ADD PUSH2 0x1766 JUMP JUMPDEST PUSH2 0x17BE DUP2 PUSH2 0x150C JUMP JUMPDEST DUP5 ADD SWAP2 POP POP SWAP3 SWAP2 POP POP JUMP JUMPDEST PUSH1 0x0 PUSH20 0xFFFFFFFFFFFFFFFFFFFFFFFFFFFFFFFFFFFFFFFF DUP3 AND SWAP1 POP SWAP2 SWAP1 POP JUMP JUMPDEST PUSH1 0x0 PUSH2 0x17F4 DUP3 PUSH2 0x17C9 JUMP JUMPDEST SWAP1 POP SWAP2 SWAP1 POP JUMP JUMPDEST PUSH2 0x1804 DUP2 PUSH2 0x17E9 JUMP JUMPDEST DUP3 MSTORE POP POP JUMP JUMPDEST PUSH1 0x0 PUSH1 0x60 DUP3 ADD SWAP1 POP DUP2 DUP2 SUB PUSH1 0x0 DUP4 ADD MSTORE PUSH2 0x1824 DUP2 DUP7 PUSH2 0x1790 JUMP JUMPDEST SWAP1 POP DUP2 DUP2 SUB PUSH1 0x20 DUP4 ADD MSTORE PUSH2 0x1838 DUP2 DUP6 PUSH2 0x1790 JUMP JUMPDEST SWAP1 POP PUSH2 0x1847 PUSH1 0x40 DUP4 ADD DUP5 PUSH2 0x17FB JUMP JUMPDEST SWAP5 SWAP4 POP POP POP POP JUMP JUMPDEST PUSH1 0x0 PUSH1 0x20 DUP3 ADD SWAP1 POP DUP2 DUP2 SUB PUSH1 0x0 DUP4 ADD MSTORE PUSH2 0x1869 DUP2 DUP5 PUSH2 0x1790 JUMP JUMPDEST SWAP1 POP SWAP3 SWAP2 POP POP JUMP JUMPDEST PUSH1 0x0 DUP1 PUSH1 0x0 DUP1 PUSH1 0x0 PUSH1 0xA0 DUP7 DUP9 SUB SLT ISZERO PUSH2 0x188D JUMPI PUSH2 0x188C PUSH2 0x14F8 JUMP JUMPDEST JUMPDEST PUSH1 0x0 DUP7 ADD CALLDATALOAD PUSH8 0xFFFFFFFFFFFFFFFF DUP2 GT ISZERO PUSH2 0x18AB JUMPI PUSH2 0x18AA PUSH2 0x14FD JUMP JUMPDEST JUMPDEST PUSH2 0x18B7 DUP9 DUP3 DUP10 ADD PUSH2 0x161A JUMP JUMPDEST SWAP6 POP POP PUSH1 0x20 PUSH2 0x18C8 DUP9 DUP3 DUP10 ADD PUSH2 0x165F JUMP JUMPDEST SWAP5 POP POP PUSH1 0x40 PUSH2 0x18D9 DUP9 DUP3 DUP10 ADD PUSH2 0x165F JUMP JUMPDEST SWAP4 POP POP PUSH1 0x60 PUSH2 0x18EA DUP9 DUP3 DUP10 ADD PUSH2 0x165F JUMP JUMPDEST SWAP3 POP POP PUSH1 0x80 PUSH2 0x18FB DUP9 DUP3 DUP10 ADD PUSH2 0x165F JUMP JUMPDEST SWAP2 POP POP SWAP3 SWAP6 POP SWAP3 SWAP6 SWAP1 SWAP4 POP JUMP JUMPDEST PUSH1 0x0 PUSH1 0x20 DUP3 DUP5 SUB SLT ISZERO PUSH2 0x191E JUMPI PUSH2 0x191D PUSH2 0x14F8 JUMP JUMPDEST JUMPDEST PUSH1 0x0 DUP3 ADD CALLDATALOAD PUSH8 0xFFFFFFFFFFFFFFFF DUP2 GT ISZERO PUSH2 0x193C JUMPI PUSH2 0x193B PUSH2 0x14FD JUMP JUMPDEST JUMPDEST PUSH2 0x1948 DUP5 DUP3 DUP6 ADD PUSH2 0x161A JUMP JUMPDEST SWAP2 POP POP SWAP3 SWAP2 POP POP JUMP JUMPDEST PUSH1 0x0 DUP1 PUSH1 0x40 DUP4 DUP6 SUB SLT ISZERO PUSH2 0x1968 JUMPI PUSH2 0x1967 PUSH2 0x14F8 JUMP JUMPDEST JUMPDEST PUSH1 0x0 PUSH2 0x1976 DUP6 DUP3 DUP7 ADD PUSH2 0x165F JUMP JUMPDEST SWAP3 POP POP PUSH1 0x20 DUP4 ADD CALLDATALOAD PUSH8 0xFFFFFFFFFFFFFFFF DUP2 GT ISZERO PUSH2 0x1997 JUMPI PUSH2 0x1996 PUSH2 0x14FD JUMP JUMPDEST JUMPDEST PUSH2 0x19A3 DUP6 DUP3 DUP7 ADD PUSH2 0x161A JUMP JUMPDEST SWAP2 POP POP SWAP3 POP SWAP3 SWAP1 POP JUMP JUMPDEST PUSH1 0x0 DUP1 PUSH1 0x40 DUP4 DUP6 SUB SLT ISZERO PUSH2 0x19C4 JUMPI PUSH2 0x19C3 PUSH2 0x14F8 JUMP JUMPDEST JUMPDEST PUSH1 0x0 DUP4 ADD CALLDATALOAD PUSH8 0xFFFFFFFFFFFFFFFF DUP2 GT ISZERO PUSH2 0x19E2 JUMPI PUSH2 0x19E1 PUSH2 0x14FD JUMP JUMPDEST JUMPDEST PUSH2 0x19EE DUP6 DUP3 DUP7 ADD PUSH2 0x161A JUMP JUMPDEST SWAP3 POP POP PUSH1 0x20 DUP4 ADD CALLDATALOAD PUSH8 0xFFFFFFFFFFFFFFFF DUP2 GT ISZERO PUSH2 0x1A0F JUMPI PUSH2 0x1A0E PUSH2 0x14FD JUMP JUMPDEST JUMPDEST PUSH2 0x1A1B DUP6 DUP3 DUP7 ADD PUSH2 0x161A JUMP JUMPDEST SWAP2 POP POP SWAP3 POP SWAP3 SWAP1 POP JUMP JUMPDEST PUSH1 0x0 DUP1 PUSH1 0x0 DUP1 PUSH1 0x0 DUP1 PUSH1 0x0 PUSH1 0xE0 DUP9 DUP11 SUB SLT ISZERO PUSH2 0x1A44 JUMPI PUSH2 0x1A43 PUSH2 0x14F8 JUMP JUMPDEST JUMPDEST PUSH1 0x0 DUP9 ADD CALLDATALOAD PUSH8 0xFFFFFFFFFFFFFFFF DUP2 GT ISZERO PUSH2 0x1A62 JUMPI PUSH2 0x1A61 PUSH2 0x14FD JUMP JUMPDEST JUMPDEST PUSH2 0x1A6E DUP11 DUP3 DUP12 ADD PUSH2 0x161A JUMP JUMPDEST SWAP8 POP POP PUSH1 0x20 PUSH2 0x1A7F DUP11 DUP3 DUP12 ADD PUSH2 0x165F JUMP JUMPDEST SWAP7 POP POP PUSH1 0x40 PUSH2 0x1A90 DUP11 DUP3 DUP12 ADD PUSH2 0x165F JUMP JUMPDEST SWAP6 POP POP PUSH1 0x60 PUSH2 0x1AA1 DUP11 DUP3 DUP12 ADD PUSH2 0x165F JUMP JUMPDEST SWAP5 POP POP PUSH1 0x80 PUSH2 0x1AB2 DUP11 DUP3 DUP12 ADD PUSH2 0x165F JUMP JUMPDEST SWAP4 POP POP PUSH1 0xA0 PUSH2 0x1AC3 DUP11 DUP3 DUP12 ADD PUSH2 0x165F JUMP JUMPDEST SWAP3 POP POP PUSH1 0xC0 PUSH2 0x1AD4 DUP11 DUP3 DUP12 ADD PUSH2 0x165F JUMP JUMPDEST SWAP2 POP POP SWAP3 SWAP6 SWAP9 SWAP2 SWAP5 SWAP8 POP SWAP3 SWAP6 POP JUMP JUMPDEST PUSH32 0x4E487B7100000000000000000000000000000000000000000000000000000000 PUSH1 0x0 MSTORE PUSH1 0x32 PUSH1 0x4 MSTORE PUSH1 0x24 PUSH1 0x0 REVERT JUMPDEST PUSH32 0x4E487B7100000000000000000000000000000000000000000000000000000000 PUSH1 0x0 MSTORE PUSH1 0x22 PUSH1 0x4 MSTORE PUSH1 0x24 PUSH1 0x0 REVERT JUMPDEST PUSH1 0x0 PUSH1 0x2 DUP3 DIV SWAP1 POP PUSH1 0x1 DUP3 AND DUP1 PUSH2 0x1B59 JUMPI PUSH1 0x7F DUP3 AND SWAP2 POP JUMPDEST PUSH1 0x20 DUP3 LT DUP2 SUB PUSH2 0x1B6C JUMPI PUSH2 0x1B6B PUSH2 0x1B12 JUMP JUMPDEST JUMPDEST POP SWAP2 SWAP1 POP JUMP JUMPDEST PUSH1 0x0 DUP2 SWAP1 POP DUP2 PUSH1 0x0 MSTORE PUSH1 0x20 PUSH1 0x0 KECCAK256 SWAP1 POP SWAP2 SWAP1 POP JUMP JUMPDEST PUSH1 0x0 PUSH1 0x20 PUSH1 0x1F DUP4 ADD DIV SWAP1 POP SWAP2 SWAP1 POP JUMP JUMPDEST PUSH1 0x0 DUP3 DUP3 SHL SWAP1 POP SWAP3 SWAP2 POP POP JUMP JUMPDEST PUSH1 0x0 PUSH1 0x8 DUP4 MUL PUSH2 0x1BD4 PUSH32 0xFFFFFFFFFFFFFFFFFFFFFFFFFFFFFFFFFFFFFFFFFFFFFFFFFFFFFFFFFFFFFFFF DUP3 PUSH2 0x1B97 JUMP JUMPDEST PUSH2 0x1BDE DUP7 DUP4 PUSH2 0x1B97 JUMP JUMPDEST SWAP6 POP DUP1 NOT DUP5 AND SWAP4 POP DUP1 DUP7 AND DUP5 OR SWAP3 POP POP POP SWAP4 SWAP3 POP POP POP JUMP JUMPDEST PUSH1 0x0 DUP2 SWAP1 POP SWAP2 SWAP1 POP JUMP JUMPDEST PUSH1 0x0 PUSH2 0x1C1B PUSH2 0x1C16 PUSH2 0x1C11 DUP5 PUSH2 0x14BA JUMP JUMPDEST PUSH2 0x1BF6 JUMP JUMPDEST PUSH2 0x14BA JUMP JUMPDEST SWAP1 POP SWAP2 SWAP1 POP JUMP JUMPDEST PUSH1 0x0 DUP2 SWAP1 POP SWAP2 SWAP1 POP JUMP JUMPDEST PUSH2 0x1C35 DUP4 PUSH2 0x1C00 JUMP JUMPDEST PUSH2 0x1C49 PUSH2 0x1C41 DUP3 PUSH2 0x1C22 JUMP JUMPDEST DUP5 DUP5 SLOAD PUSH2 0x1BA4 JUMP JUMPDEST DUP3 SSTORE POP POP POP POP JUMP JUMPDEST PUSH1 0x0 SWAP1 JUMP JUMPDEST PUSH2 0x1C5E PUSH2 0x1C51 JUMP JUMPDEST PUSH2 0x1C69 DUP2 DUP5 DUP5 PUSH2 0x1C2C JUMP JUMPDEST POP POP POP JUMP JUMPDEST JUMPDEST DUP2 DUP2 LT ISZERO PUSH2 0x1C8D JUMPI PUSH2 0x1C82 PUSH1 0x0 DUP3 PUSH2 0x1C56 JUMP JUMPDEST PUSH1 0x1 DUP2 ADD SWAP1 POP PUSH2 0x1C6F JUMP JUMPDEST POP POP JUMP JUMPDEST PUSH1 0x1F DUP3 GT ISZERO PUSH2 0x1CD2 JUMPI PUSH2 0x1CA3 DUP2 PUSH2 0x1B72 JUMP JUMPDEST PUSH2 0x1CAC DUP5 PUSH2 0x1B87 JUMP JUMPDEST DUP2 ADD PUSH1 0x20 DUP6 LT ISZERO PUSH2 0x1CBB JUMPI DUP2 SWAP1 POP JUMPDEST PUSH2 0x1CCF PUSH2 0x1CC7 DUP6 PUSH2 0x1B87 JUMP JUMPDEST DUP4 ADD DUP3 PUSH2 0x1C6E JUMP JUMPDEST POP POP JUMPDEST POP POP POP JUMP JUMPDEST PUSH1 0x0 DUP3 DUP3 SHR SWAP1 POP SWAP3 SWAP2 POP POP JUMP JUMPDEST PUSH1 0x0 PUSH2 0x1CF5 PUSH1 0x0 NOT DUP5 PUSH1 0x8 MUL PUSH2 0x1CD7 JUMP JUMPDEST NOT DUP1 DUP4 AND SWAP2 POP POP SWAP3 SWAP2 POP POP JUMP JUMPDEST PUSH1 0x0 PUSH2 0x1D0E DUP4 DUP4 PUSH2 0x1CE4 JUMP JUMPDEST SWAP2 POP DUP3 PUSH1 0x2 MUL DUP3 OR SWAP1 POP SWAP3 SWAP2 POP POP JUMP JUMPDEST PUSH2 0x1D27 DUP3 PUSH2 0x174A JUMP JUMPDEST PUSH8 0xFFFFFFFFFFFFFFFF DUP2 GT ISZERO PUSH2 0x1D40 JUMPI PUSH2 0x1D3F PUSH2 0x151D JUMP JUMPDEST JUMPDEST PUSH2 0x1D4A DUP3 SLOAD PUSH2 0x1B41 JUMP JUMPDEST PUSH2 0x1D55 DUP3 DUP3 DUP6 PUSH2 0x1C91 JUMP JUMPDEST PUSH1 0x0 PUSH1 0x20 SWAP1 POP PUSH1 0x1F DUP4 GT PUSH1 0x1 DUP2 EQ PUSH2 0x1D88 JUMPI PUSH1 0x0 DUP5 ISZERO PUSH2 0x1D76 JUMPI DUP3 DUP8 ADD MLOAD SWAP1 POP JUMPDEST PUSH2 0x1D80 DUP6 DUP3 PUSH2 0x1D02 JUMP JUMPDEST DUP7 SSTORE POP PUSH2 0x1DE8 JUMP JUMPDEST PUSH1 0x1F NOT DUP5 AND PUSH2 0x1D96 DUP7 PUSH2 0x1B72 JUMP JUMPDEST PUSH1 0x0 JUMPDEST DUP3 DUP2 LT ISZERO PUSH2 0x1DBE JUMPI DUP5 DUP10 ADD MLOAD DUP3 SSTORE PUSH1 0x1 DUP3 ADD SWAP2 POP PUSH1 0x20 DUP6 ADD SWAP5 POP PUSH1 0x20 DUP2 ADD SWAP1 POP PUSH2 0x1D99 JUMP JUMPDEST DUP7 DUP4 LT ISZERO PUSH2 0x1DDB JUMPI DUP5 DUP10 ADD MLOAD PUSH2 0x1DD7 PUSH1 0x1F DUP10 AND DUP3 PUSH2 0x1CE4 JUMP JUMPDEST DUP4 SSTORE POP JUMPDEST PUSH1 0x1 PUSH1 0x2 DUP9 MUL ADD DUP9 SSTORE POP POP POP JUMPDEST POP POP POP POP POP POP JUMP JUMPDEST PUSH1 0x0 DUP2 SWAP1 POP SWAP3 SWAP2 POP POP JUMP JUMPDEST PUSH32 0x4550303031000000000000000000000000000000000000000000000000000000 PUSH1 0x0 DUP3 ADD MSTORE POP JUMP JUMPDEST PUSH1 0x0 PUSH2 0x1E31 PUSH1 0x5 DUP4 PUSH2 0x1DF0 JUMP JUMPDEST SWAP2 POP PUSH2 0x1E3C DUP3 PUSH2 0x1DFB JUMP JUMPDEST PUSH1 0x5 DUP3 ADD SWAP1 POP SWAP2 SWAP1 POP JUMP JUMPDEST PUSH1 0x0 PUSH2 0x1E52 DUP3 PUSH2 0x1E24 JUMP JUMPDEST SWAP2 POP DUP2 SWAP1 POP SWAP2 SWAP1 POP JUMP JUMPDEST PUSH32 0x4550303032000000000000000000000000000000000000000000000000000000 PUSH1 0x0 DUP3 ADD MSTORE POP JUMP JUMPDEST PUSH1 0x0 PUSH2 0x1E92 PUSH1 0x5 DUP4 PUSH2 0x1DF0 JUMP JUMPDEST SWAP2 POP PUSH2 0x1E9D DUP3 PUSH2 0x1E5C JUMP JUMPDEST PUSH1 0x5 DUP3 ADD SWAP1 POP SWAP2 SWAP1 POP JUMP JUMPDEST PUSH1 0x0 PUSH2 0x1EB3 DUP3 PUSH2 0x1E85 JUMP JUMPDEST SWAP2 POP DUP2 SWAP1 POP SWAP2 SWAP1 POP JUMP JUMPDEST PUSH32 0x4550303033000000000000000000000000000000000000000000000000000000 PUSH1 0x0 DUP3 ADD MSTORE POP JUMP JUMPDEST PUSH1 0x0 PUSH2 0x1EF3 PUSH1 0x5 DUP4 PUSH2 0x1DF0 JUMP JUMPDEST SWAP2 POP PUSH2 0x1EFE DUP3 PUSH2 0x1EBD JUMP JUMPDEST PUSH1 0x5 DUP3 ADD SWAP1 POP SWAP2 SWAP1 POP JUMP JUMPDEST PUSH1 0x0 PUSH2 0x1F14 DUP3 PUSH2 0x1EE6 JUMP JUMPDEST SWAP2 POP DUP2 SWAP1 POP SWAP2 SWAP1 POP JUMP JUMPDEST PUSH32 0x4550303034000000000000000000000000000000000000000000000000000000 PUSH1 0x0 DUP3 ADD MSTORE POP JUMP JUMPDEST PUSH1 0x0 PUSH2 0x1F54 PUSH1 0x5 DUP4 PUSH2 0x1DF0 JUMP JUMPDEST SWAP2 POP PUSH2 0x1F5F DUP3 PUSH2 0x1F1E JUMP JUMPDEST PUSH1 0x5 DUP3 ADD SWAP1 POP SWAP2 SWAP1 POP JUMP JUMPDEST PUSH1 0x0 PUSH2 0x1F75 DUP3 PUSH2 0x1F47 JUMP JUMPDEST SWAP2 POP DUP2 SWAP1 POP SWAP2 SWAP1 POP JUMP JUMPDEST PUSH32 0x7472616E735F74696D6500000000000000000000000000000000000000000000 PUSH1 0x0 DUP3 ADD MSTORE POP JUMP JUMPDEST PUSH1 0x0 PUSH2 0x1FB5 PUSH1 0xA DUP4 PUSH2 0x1DF0 JUMP JUMPDEST SWAP2 POP PUSH2 0x1FC0 DUP3 PUSH2 0x1F7F JUMP JUMPDEST PUSH1 0xA DUP3 ADD SWAP1 POP SWAP2 SWAP1 POP JUMP JUMPDEST PUSH1 0x0 PUSH2 0x1FD6 DUP3 PUSH2 0x1FA8 JUMP JUMPDEST SWAP2 POP DUP2 SWAP1 POP SWAP2 SWAP1 POP JUMP JUMPDEST PUSH32 0x4550303036000000000000000000000000000000000000000000000000000000 PUSH1 0x0 DUP3 ADD MSTORE POP JUMP JUMPDEST PUSH1 0x0 PUSH2 0x2016 PUSH1 0x5 DUP4 PUSH2 0x1DF0 JUMP JUMPDEST SWAP2 POP PUSH2 0x2021 DUP3 PUSH2 0x1FE0 JUMP JUMPDEST PUSH1 0x5 DUP3 ADD SWAP1 POP SWAP2 SWAP1 POP JUMP JUMPDEST PUSH1 0x0 PUSH2 0x2037 DUP3 PUSH2 0x2009 JUMP JUMPDEST SWAP2 POP DUP2 SWAP1 POP SWAP2 SWAP1 POP JUMP JUMPDEST PUSH32 0x4254430000000000000000000000000000000000000000000000000000000000 PUSH1 0x0 DUP3 ADD MSTORE POP JUMP JUMPDEST PUSH1 0x0 PUSH2 0x2077 PUSH1 0x3 DUP4 PUSH2 0x1DF0 JUMP JUMPDEST SWAP2 POP PUSH2 0x2082 DUP3 PUSH2 0x2041 JUMP JUMPDEST PUSH1 0x3 DUP3 ADD SWAP1 POP SWAP2 SWAP1 POP JUMP JUMPDEST PUSH1 0x0 PUSH2 0x2098 DUP3 PUSH2 0x206A JUMP JUMPDEST SWAP2 POP DUP2 SWAP1 POP SWAP2 SWAP1 POP JUMP JUMPDEST PUSH32 0x5553445400000000000000000000000000000000000000000000000000000000 PUSH1 0x0 DUP3 ADD MSTORE POP JUMP JUMPDEST PUSH1 0x0 PUSH2 0x20D8 PUSH1 0x4 DUP4 PUSH2 0x1DF0 JUMP JUMPDEST SWAP2 POP PUSH2 0x20E3 DUP3 PUSH2 0x20A2 JUMP JUMPDEST PUSH1 0x4 DUP3 ADD SWAP1 POP SWAP2 SWAP1 POP JUMP JUMPDEST PUSH1 0x0 PUSH2 0x20F9 DUP3 PUSH2 0x20CB JUMP JUMPDEST SWAP2 POP DUP2 SWAP1 POP SWAP2 SWAP1 POP JUMP JUMPDEST PUSH1 0x0 PUSH2 0x210E DUP3 PUSH2 0x174A JUMP JUMPDEST PUSH2 0x2118 DUP2 DUP6 PUSH2 0x1DF0 JUMP JUMPDEST SWAP4 POP PUSH2 0x2128 DUP2 DUP6 PUSH1 0x20 DUP7 ADD PUSH2 0x1766 JUMP JUMPDEST DUP1 DUP5 ADD SWAP2 POP POP SWAP3 SWAP2 POP POP JUMP JUMPDEST PUSH1 0x0 PUSH2 0x2140 DUP3 DUP5 PUSH2 0x2103 JUMP JUMPDEST SWAP2 POP DUP2 SWAP1 POP SWAP3 SWAP2 POP POP JUMP JUMPDEST PUSH32 0x4550303035000000000000000000000000000000000000000000000000000000 PUSH1 0x0 DUP3 ADD MSTORE POP JUMP JUMPDEST PUSH1 0x0 PUSH2 0x2181 PUSH1 0x5 DUP4 PUSH2 0x1DF0 JUMP JUMPDEST SWAP2 POP PUSH2 0x218C DUP3 PUSH2 0x214B JUMP JUMPDEST PUSH1 0x5 DUP3 ADD SWAP1 POP SWAP2 SWAP1 POP JUMP JUMPDEST PUSH1 0x0 PUSH2 0x21A2 DUP3 PUSH2 0x2174 JUMP JUMPDEST SWAP2 POP DUP2 SWAP1 POP SWAP2 SWAP1 POP JUMP JUMPDEST PUSH32 0x4550303037000000000000000000000000000000000000000000000000000000 PUSH1 0x0 DUP3 ADD MSTORE POP JUMP JUMPDEST PUSH1 0x0 PUSH2 0x21E2 PUSH1 0x5 DUP4 PUSH2 0x1DF0 JUMP JUMPDEST SWAP2 POP PUSH2 0x21ED DUP3 PUSH2 0x21AC JUMP JUMPDEST PUSH1 0x5 DUP3 ADD SWAP1 POP SWAP2 SWAP1 POP JUMP JUMPDEST PUSH1 0x0 PUSH2 0x2203 DUP3 PUSH2 0x21D5 JUMP JUMPDEST SWAP2 POP DUP2 SWAP1 POP SWAP2 SWAP1 POP JUMP JUMPDEST PUSH1 0x0 DUP2 SLOAD PUSH2 0x221A DUP2 PUSH2 0x1B41 JUMP JUMPDEST PUSH2 0x2224 DUP2 DUP7 PUSH2 0x1DF0 JUMP JUMPDEST SWAP5 POP PUSH1 0x1 DUP3 AND PUSH1 0x0 DUP2 EQ PUSH2 0x223F JUMPI PUSH1 0x1 DUP2 EQ PUSH2 0x2254 JUMPI PUSH2 0x2287 JUMP JUMPDEST PUSH1 0xFF NOT DUP4 AND DUP7 MSTORE DUP2 ISZERO ISZERO DUP3 MUL DUP7 ADD SWAP4 POP PUSH2 0x2287 JUMP JUMPDEST PUSH2 0x225D DUP6 PUSH2 0x1B72 JUMP JUMPDEST PUSH1 0x0 JUMPDEST DUP4 DUP2 LT ISZERO PUSH2 0x227F JUMPI DUP2 SLOAD DUP2 DUP10 ADD MSTORE PUSH1 0x1 DUP3 ADD SWAP2 POP PUSH1 0x20 DUP2 ADD SWAP1 POP PUSH2 0x2260 JUMP JUMPDEST DUP4 DUP9 ADD SWAP6 POP POP POP JUMPDEST POP POP POP SWAP3 SWAP2 POP POP JUMP JUMPDEST PUSH1 0x0 PUSH2 0x229C DUP3 DUP5 PUSH2 0x220D JUMP JUMPDEST SWAP2 POP DUP2 SWAP1 POP SWAP3 SWAP2 POP POP JUMP JUMPDEST PUSH32 0x4E487B7100000000000000000000000000000000000000000000000000000000 PUSH1 0x0 MSTORE PUSH1 0x11 PUSH1 0x4 MSTORE PUSH1 0x24 PUSH1 0x0 REVERT JUMPDEST PUSH1 0x0 PUSH2 0x22E1 DUP3 PUSH2 0x14BA JUMP JUMPDEST SWAP2 POP PUSH32 0xFFFFFFFFFFFFFFFFFFFFFFFFFFFFFFFFFFFFFFFFFFFFFFFFFFFFFFFFFFFFFFFF DUP3 SUB PUSH2 0x2313 JUMPI PUSH2 0x2312 PUSH2 0x22A7 JUMP JUMPDEST JUMPDEST PUSH1 0x1 DUP3 ADD SWAP1 POP SWAP2 SWAP1 POP JUMP JUMPDEST PUSH32 0x5472616E73616374696F6E207769746820676976656E206576656E744964206E PUSH1 0x0 DUP3 ADD MSTORE PUSH32 0x6F7420666F756E64000000000000000000000000000000000000000000000000 PUSH1 0x20 DUP3 ADD MSTORE POP JUMP JUMPDEST PUSH1 0x0 PUSH2 0x237A PUSH1 0x28 DUP4 PUSH2 0x1755 JUMP JUMPDEST SWAP2 POP PUSH2 0x2385 DUP3 PUSH2 0x231E JUMP JUMPDEST PUSH1 0x40 DUP3 ADD SWAP1 POP SWAP2 SWAP1 POP JUMP JUMPDEST PUSH1 0x0 PUSH1 0x20 DUP3 ADD SWAP1 POP DUP2 DUP2 SUB PUSH1 0x0 DUP4 ADD MSTORE PUSH2 0x23A9 DUP2 PUSH2 0x236D JUMP JUMPDEST SWAP1 POP SWAP2 SWAP1 POP JUMP INVALID LOG2 PUSH5 0x6970667358 0x22 SLT KECCAK256 0xCE 0x21 0xB2 LOG2 SWAP10 0xE5 MSTORE8 SWAP3 SWAP14 0x26 PUSH22 0x4DD59A7FD3112C57C3919CB9F55588613629F60EB064 PUSH20 0x6F6C634300081200330000000000000000000000 "
				},
				"gasEstimates": {
					"creation": {
						"codeDepositCost": "1838000",
						"executionCost": "1941",
						"totalCost": "1839941"
					},
					"external": {
						"E00010001(string,uint256,uint256,uint256,uint256)": "infinite",
						"E00010002(string,uint256,uint256,uint256,uint256)": "infinite",
						"E00010003(string,uint256,uint256,uint256,uint256)": "infinite",
						"E00010004(string,uint256,uint256,uint256,uint256,uint256,uint256)": "infinite",
						"E00010005(string,uint256,uint256,uint256,uint256,uint256)": "infinite",
						"E00010006(string,uint256,uint256,uint256,uint256,uint256)": "infinite",
						"E00020001(string,uint256,uint256,uint256,uint256)": "infinite",
						"getTransaction(string)": "infinite",
						"getTransactionEventId(uint256)": "infinite",
						"getTransactionParam(uint256,string)": "infinite",
						"getTransactionParamByEventId(string,string)": "infinite",
						"getTransactionType(uint256)": "infinite",
						"getTransactionsCount()": "2469",
						"transactions(uint256)": "infinite"
					},
					"internal": {
						"findTransaction(string memory)": "infinite"
					}
				},
				"methodIdentifiers": {
					"E00010001(string,uint256,uint256,uint256,uint256)": "c4f9ef20",
					"E00010002(string,uint256,uint256,uint256,uint256)": "d88936ce",
					"E00010003(string,uint256,uint256,uint256,uint256)": "c1c102e8",
					"E00010004(string,uint256,uint256,uint256,uint256,uint256,uint256)": "d85637e7",
					"E00010005(string,uint256,uint256,uint256,uint256,uint256)": "606de0cb",
					"E00010006(string,uint256,uint256,uint256,uint256,uint256)": "a75458c2",
					"E00020001(string,uint256,uint256,uint256,uint256)": "9f2967c7",
					"getTransaction(string)": "ac2ccd07",
					"getTransactionEventId(uint256)": "9b4e3420",
					"getTransactionParam(uint256,string)": "b89da5ab",
					"getTransactionParamByEventId(string,string)": "d6fa22b9",
					"getTransactionType(uint256)": "e09576f0",
					"getTransactionsCount()": "578cb8f9",
					"transactions(uint256)": "9ace38c2"
				}
			},
			"storageLayout": {
				"storage": [
					{
						"astId": 16,
						"contract": "eventTransactionRecord.sol:TransactionContract",
						"label": "transactions",
						"offset": 0,
						"slot": "0",
						"type": "t_array(t_struct(Transaction)12_storage)dyn_storage"
					}
				],
				"types": {
					"t_address": {
						"encoding": "inplace",
						"label": "address",
						"numberOfBytes": "20"
					},
					"t_array(t_struct(Transaction)12_storage)dyn_storage": {
						"base": "t_struct(Transaction)12_storage",
						"encoding": "dynamic_array",
						"label": "struct TransactionContract.Transaction[]",
						"numberOfBytes": "32"
					},
					"t_mapping(t_string_memory_ptr,t_uint256)": {
						"encoding": "mapping",
						"key": "t_string_memory_ptr",
						"label": "mapping(string => uint256)",
						"numberOfBytes": "32",
						"value": "t_uint256"
					},
					"t_string_memory_ptr": {
						"encoding": "bytes",
						"label": "string",
						"numberOfBytes": "32"
					},
					"t_string_storage": {
						"encoding": "bytes",
						"label": "string",
						"numberOfBytes": "32"
					},
					"t_struct(Transaction)12_storage": {
						"encoding": "inplace",
						"label": "struct TransactionContract.Transaction",
						"members": [
							{
								"astId": 3,
								"contract": "eventTransactionRecord.sol:TransactionContract",
								"label": "transactionType",
								"offset": 0,
								"slot": "0",
								"type": "t_string_storage"
							},
							{
								"astId": 5,
								"contract": "eventTransactionRecord.sol:TransactionContract",
								"label": "eventId",
								"offset": 0,
								"slot": "1",
								"type": "t_string_storage"
							},
							{
								"astId": 7,
								"contract": "eventTransactionRecord.sol:TransactionContract",
								"label": "Recorder",
								"offset": 0,
								"slot": "2",
								"type": "t_address"
							},
							{
								"astId": 11,
								"contract": "eventTransactionRecord.sol:TransactionContract",
								"label": "params",
								"offset": 0,
								"slot": "3",
								"type": "t_mapping(t_string_memory_ptr,t_uint256)"
							}
						],
						"numberOfBytes": "128"
					},
					"t_uint256": {
						"encoding": "inplace",
						"label": "uint256",
						"numberOfBytes": "32"
					}
				}
			},
			"userdoc": {
				"kind": "user",
				"methods": {},
				"version": 1
			}
		}
	}
}