{
	"reports.sol": {
		"Reports": {
			"abi": [
				{
					"inputs": [
						{
							"internalType": "string",
							"name": "reportID",
							"type": "string"
						},
						{
							"internalType": "string",
							"name": "reportType",
							"type": "string"
						},
						{
							"internalType": "string",
							"name": "reportColumn",
							"type": "string"
						},
						{
							"internalType": "int256",
							"name": "value",
							"type": "int256"
						}
					],
					"name": "addValue",
					"outputs": [],
					"stateMutability": "nonpayable",
					"type": "function"
				},
				{
					"inputs": [
						{
							"internalType": "string",
							"name": "",
							"type": "string"
						},
						{
							"internalType": "string",
							"name": "",
							"type": "string"
						},
						{
							"internalType": "string",
							"name": "",
							"type": "string"
						}
					],
					"name": "data",
					"outputs": [
						{
							"internalType": "int256",
							"name": "",
							"type": "int256"
						}
					],
					"stateMutability": "view",
					"type": "function"
				},
				{
					"inputs": [
						{
							"internalType": "string",
							"name": "reportID",
							"type": "string"
						},
						{
							"internalType": "string",
							"name": "reportType",
							"type": "string"
						},
						{
							"internalType": "string",
							"name": "reportColumn",
							"type": "string"
						}
					],
					"name": "getValue",
					"outputs": [
						{
							"internalType": "int256",
							"name": "",
							"type": "int256"
						}
					],
					"stateMutability": "view",
					"type": "function"
				}
			],
			"devdoc": {
				"kind": "dev",
				"methods": {},
				"version": 1
			},
			"evm": {
				"assembly": "    /* \"reports.sol\":57:542  contract Reports {... */\n  mstore(0x40, 0x80)\n  callvalue\n  dup1\n  iszero\n  tag_1\n  jumpi\n  0x00\n  dup1\n  revert\ntag_1:\n  pop\n  dataSize(sub_0)\n  dup1\n  dataOffset(sub_0)\n  0x00\n  codecopy\n  0x00\n  return\nstop\n\nsub_0: assembly {\n        /* \"reports.sol\":57:542  contract Reports {... */\n      mstore(0x40, 0x80)\n      callvalue\n      dup1\n      iszero\n      tag_1\n      jumpi\n      0x00\n      dup1\n      revert\n    tag_1:\n      pop\n      jumpi(tag_2, lt(calldatasize, 0x04))\n      shr(0xe0, calldataload(0x00))\n      dup1\n      0x7a1a29fb\n      eq\n      tag_3\n      jumpi\n      dup1\n      0xa81bfb33\n      eq\n      tag_4\n      jumpi\n      dup1\n      0xaba5f544\n      eq\n      tag_5\n      jumpi\n    tag_2:\n      0x00\n      dup1\n      revert\n        /* \"reports.sol\":162:345  function addValue(string memory reportID, string memory reportType, string memory reportColumn, int256 value) public {... */\n    tag_3:\n      tag_6\n      0x04\n      dup1\n      calldatasize\n      sub\n      dup2\n      add\n      swap1\n      tag_7\n      swap2\n      swap1\n      tag_8\n      jump\t// in\n    tag_7:\n      tag_9\n      jump\t// in\n    tag_6:\n      stop\n        /* \"reports.sol\":80:155  mapping(string => mapping(string => mapping(string => int256))) public data */\n    tag_4:\n      tag_10\n      0x04\n      dup1\n      calldatasize\n      sub\n      dup2\n      add\n      swap1\n      tag_11\n      swap2\n      swap1\n      tag_12\n      jump\t// in\n    tag_11:\n      tag_13\n      jump\t// in\n    tag_10:\n      mload(0x40)\n      tag_14\n      swap2\n      swap1\n      tag_15\n      jump\t// in\n    tag_14:\n      mload(0x40)\n      dup1\n      swap2\n      sub\n      swap1\n      return\n        /* \"reports.sol\":351:540  function getValue(string memory reportID, string memory reportType, string memory reportColumn) public view returns (int256) {... */\n    tag_5:\n      tag_16\n      0x04\n      dup1\n      calldatasize\n      sub\n      dup2\n      add\n      swap1\n      tag_17\n      swap2\n      swap1\n      tag_12\n      jump\t// in\n    tag_17:\n      tag_18\n      jump\t// in\n    tag_16:\n      mload(0x40)\n      tag_19\n      swap2\n      swap1\n      tag_15\n      jump\t// in\n    tag_19:\n      mload(0x40)\n      dup1\n      swap2\n      sub\n      swap1\n      return\n        /* \"reports.sol\":162:345  function addValue(string memory reportID, string memory reportType, string memory reportColumn, int256 value) public {... */\n    tag_9:\n        /* \"reports.sol\":333:338  value */\n      dup1\n        /* \"reports.sol\":289:293  data */\n      0x00\n        /* \"reports.sol\":294:302  reportID */\n      dup6\n        /* \"reports.sol\":289:303  data[reportID] */\n      mload(0x40)\n      tag_21\n      swap2\n      swap1\n      tag_22\n      jump\t// in\n    tag_21:\n      swap1\n      dup2\n      mstore\n      0x20\n      add\n      mload(0x40)\n      dup1\n      swap2\n      sub\n      swap1\n      keccak256\n        /* \"reports.sol\":304:314  reportType */\n      dup5\n        /* \"reports.sol\":289:315  data[reportID][reportType] */\n      mload(0x40)\n      tag_23\n      swap2\n      swap1\n      tag_22\n      jump\t// in\n    tag_23:\n      swap1\n      dup2\n      mstore\n      0x20\n      add\n      mload(0x40)\n      dup1\n      swap2\n      sub\n      swap1\n      keccak256\n        /* \"reports.sol\":316:328  reportColumn */\n      dup4\n        /* \"reports.sol\":289:329  data[reportID][reportType][reportColumn] */\n      mload(0x40)\n      tag_24\n      swap2\n      swap1\n      tag_22\n      jump\t// in\n    tag_24:\n      swap1\n      dup2\n      mstore\n      0x20\n      add\n      mload(0x40)\n      dup1\n      swap2\n      sub\n      swap1\n      keccak256\n      0x00\n        /* \"reports.sol\":289:338  data[reportID][reportType][reportColumn] += value */\n      dup3\n      dup3\n      sload\n      tag_25\n      swap2\n      swap1\n      tag_26\n      jump\t// in\n    tag_25:\n      swap3\n      pop\n      pop\n      dup2\n      swap1\n      sstore\n      pop\n        /* \"reports.sol\":162:345  function addValue(string memory reportID, string memory reportType, string memory reportColumn, int256 value) public {... */\n      pop\n      pop\n      pop\n      pop\n      jump\t// out\n        /* \"reports.sol\":80:155  mapping(string => mapping(string => mapping(string => int256))) public data */\n    tag_13:\n      0x00\n      dup4\n      dup1\n      mload\n      0x20\n      dup2\n      add\n      dup3\n      add\n      dup1\n      mload\n      dup5\n      dup3\n      mstore\n      0x20\n      dup4\n      add\n      0x20\n      dup6\n      add\n      keccak256\n      dup2\n      dup4\n      mstore\n      dup1\n      swap6\n      pop\n      pop\n      pop\n      pop\n      pop\n      pop\n      dup3\n      dup1\n      mload\n      0x20\n      dup2\n      add\n      dup3\n      add\n      dup1\n      mload\n      dup5\n      dup3\n      mstore\n      0x20\n      dup4\n      add\n      0x20\n      dup6\n      add\n      keccak256\n      dup2\n      dup4\n      mstore\n      dup1\n      swap6\n      pop\n      pop\n      pop\n      pop\n      pop\n      pop\n      dup2\n      dup1\n      mload\n      0x20\n      dup2\n      add\n      dup3\n      add\n      dup1\n      mload\n      dup5\n      dup3\n      mstore\n      0x20\n      dup4\n      add\n      0x20\n      dup6\n      add\n      keccak256\n      dup2\n      dup4\n      mstore\n      dup1\n      swap6\n      pop\n      pop\n      pop\n      pop\n      pop\n      pop\n      0x00\n      swap3\n      pop\n      swap3\n      pop\n      pop\n      pop\n      sload\n      dup2\n      jump\t// out\n        /* \"reports.sol\":351:540  function getValue(string memory reportID, string memory reportType, string memory reportColumn) public view returns (int256) {... */\n    tag_18:\n        /* \"reports.sol\":468:474  int256 */\n      0x00\n        /* \"reports.sol\":493:497  data */\n      dup1\n        /* \"reports.sol\":498:506  reportID */\n      dup5\n        /* \"reports.sol\":493:507  data[reportID] */\n      mload(0x40)\n      tag_28\n      swap2\n      swap1\n      tag_22\n      jump\t// in\n    tag_28:\n      swap1\n      dup2\n      mstore\n      0x20\n      add\n      mload(0x40)\n      dup1\n      swap2\n      sub\n      swap1\n      keccak256\n        /* \"reports.sol\":508:518  reportType */\n      dup4\n        /* \"reports.sol\":493:519  data[reportID][reportType] */\n      mload(0x40)\n      tag_29\n      swap2\n      swap1\n      tag_22\n      jump\t// in\n    tag_29:\n      swap1\n      dup2\n      mstore\n      0x20\n      add\n      mload(0x40)\n      dup1\n      swap2\n      sub\n      swap1\n      keccak256\n        /* \"reports.sol\":520:532  reportColumn */\n      dup3\n        /* \"reports.sol\":493:533  data[reportID][reportType][reportColumn] */\n      mload(0x40)\n      tag_30\n      swap2\n      swap1\n      tag_22\n      jump\t// in\n    tag_30:\n      swap1\n      dup2\n      mstore\n      0x20\n      add\n      mload(0x40)\n      dup1\n      swap2\n      sub\n      swap1\n      keccak256\n      sload\n        /* \"reports.sol\":486:533  return data[reportID][reportType][reportColumn] */\n      swap1\n      pop\n        /* \"reports.sol\":351:540  function getValue(string memory reportID, string memory reportType, string memory reportColumn) public view returns (int256) {... */\n      swap4\n      swap3\n      pop\n      pop\n      pop\n      jump\t// out\n        /* \"#utility.yul\":7:82   */\n    tag_31:\n        /* \"#utility.yul\":40:46   */\n      0x00\n        /* \"#utility.yul\":73:75   */\n      0x40\n        /* \"#utility.yul\":67:76   */\n      mload\n        /* \"#utility.yul\":57:76   */\n      swap1\n      pop\n        /* \"#utility.yul\":7:82   */\n      swap1\n      jump\t// out\n        /* \"#utility.yul\":88:205   */\n    tag_32:\n        /* \"#utility.yul\":197:198   */\n      0x00\n        /* \"#utility.yul\":194:195   */\n      dup1\n        /* \"#utility.yul\":187:199   */\n      revert\n        /* \"#utility.yul\":211:328   */\n    tag_33:\n        /* \"#utility.yul\":320:321   */\n      0x00\n        /* \"#utility.yul\":317:318   */\n      dup1\n        /* \"#utility.yul\":310:322   */\n      revert\n        /* \"#utility.yul\":334:451   */\n    tag_34:\n        /* \"#utility.yul\":443:444   */\n      0x00\n        /* \"#utility.yul\":440:441   */\n      dup1\n        /* \"#utility.yul\":433:445   */\n      revert\n        /* \"#utility.yul\":457:574   */\n    tag_35:\n        /* \"#utility.yul\":566:567   */\n      0x00\n        /* \"#utility.yul\":563:564   */\n      dup1\n        /* \"#utility.yul\":556:568   */\n      revert\n        /* \"#utility.yul\":580:682   */\n    tag_36:\n        /* \"#utility.yul\":621:627   */\n      0x00\n        /* \"#utility.yul\":672:674   */\n      0x1f\n        /* \"#utility.yul\":668:675   */\n      not\n        /* \"#utility.yul\":663:665   */\n      0x1f\n        /* \"#utility.yul\":656:661   */\n      dup4\n        /* \"#utility.yul\":652:666   */\n      add\n        /* \"#utility.yul\":648:676   */\n      and\n        /* \"#utility.yul\":638:676   */\n      swap1\n      pop\n        /* \"#utility.yul\":580:682   */\n      swap2\n      swap1\n      pop\n      jump\t// out\n        /* \"#utility.yul\":688:868   */\n    tag_37:\n        /* \"#utility.yul\":736:813   */\n      0x4e487b7100000000000000000000000000000000000000000000000000000000\n        /* \"#utility.yul\":733:734   */\n      0x00\n        /* \"#utility.yul\":726:814   */\n      mstore\n        /* \"#utility.yul\":833:837   */\n      0x41\n        /* \"#utility.yul\":830:831   */\n      0x04\n        /* \"#utility.yul\":823:838   */\n      mstore\n        /* \"#utility.yul\":857:861   */\n      0x24\n        /* \"#utility.yul\":854:855   */\n      0x00\n        /* \"#utility.yul\":847:862   */\n      revert\n        /* \"#utility.yul\":874:1155   */\n    tag_38:\n        /* \"#utility.yul\":957:984   */\n      tag_62\n        /* \"#utility.yul\":979:983   */\n      dup3\n        /* \"#utility.yul\":957:984   */\n      tag_36\n      jump\t// in\n    tag_62:\n        /* \"#utility.yul\":949:955   */\n      dup2\n        /* \"#utility.yul\":945:985   */\n      add\n        /* \"#utility.yul\":1087:1093   */\n      dup2\n        /* \"#utility.yul\":1075:1085   */\n      dup2\n        /* \"#utility.yul\":1072:1094   */\n      lt\n        /* \"#utility.yul\":1051:1069   */\n      0xffffffffffffffff\n        /* \"#utility.yul\":1039:1049   */\n      dup3\n        /* \"#utility.yul\":1036:1070   */\n      gt\n        /* \"#utility.yul\":1033:1095   */\n      or\n        /* \"#utility.yul\":1030:1118   */\n      iszero\n      tag_63\n      jumpi\n        /* \"#utility.yul\":1098:1116   */\n      tag_64\n      tag_37\n      jump\t// in\n    tag_64:\n        /* \"#utility.yul\":1030:1118   */\n    tag_63:\n        /* \"#utility.yul\":1138:1148   */\n      dup1\n        /* \"#utility.yul\":1134:1136   */\n      0x40\n        /* \"#utility.yul\":1127:1149   */\n      mstore\n        /* \"#utility.yul\":917:1155   */\n      pop\n        /* \"#utility.yul\":874:1155   */\n      pop\n      pop\n      jump\t// out\n        /* \"#utility.yul\":1161:1290   */\n    tag_39:\n        /* \"#utility.yul\":1195:1201   */\n      0x00\n        /* \"#utility.yul\":1222:1242   */\n      tag_66\n      tag_31\n      jump\t// in\n    tag_66:\n        /* \"#utility.yul\":1212:1242   */\n      swap1\n      pop\n        /* \"#utility.yul\":1251:1284   */\n      tag_67\n        /* \"#utility.yul\":1279:1283   */\n      dup3\n        /* \"#utility.yul\":1271:1277   */\n      dup3\n        /* \"#utility.yul\":1251:1284   */\n      tag_38\n      jump\t// in\n    tag_67:\n        /* \"#utility.yul\":1161:1290   */\n      swap2\n      swap1\n      pop\n      jump\t// out\n        /* \"#utility.yul\":1296:1604   */\n    tag_40:\n        /* \"#utility.yul\":1358:1362   */\n      0x00\n        /* \"#utility.yul\":1448:1466   */\n      0xffffffffffffffff\n        /* \"#utility.yul\":1440:1446   */\n      dup3\n        /* \"#utility.yul\":1437:1467   */\n      gt\n        /* \"#utility.yul\":1434:1490   */\n      iszero\n      tag_69\n      jumpi\n        /* \"#utility.yul\":1470:1488   */\n      tag_70\n      tag_37\n      jump\t// in\n    tag_70:\n        /* \"#utility.yul\":1434:1490   */\n    tag_69:\n        /* \"#utility.yul\":1508:1537   */\n      tag_71\n        /* \"#utility.yul\":1530:1536   */\n      dup3\n        /* \"#utility.yul\":1508:1537   */\n      tag_36\n      jump\t// in\n    tag_71:\n        /* \"#utility.yul\":1500:1537   */\n      swap1\n      pop\n        /* \"#utility.yul\":1592:1596   */\n      0x20\n        /* \"#utility.yul\":1586:1590   */\n      dup2\n        /* \"#utility.yul\":1582:1597   */\n      add\n        /* \"#utility.yul\":1574:1597   */\n      swap1\n      pop\n        /* \"#utility.yul\":1296:1604   */\n      swap2\n      swap1\n      pop\n      jump\t// out\n        /* \"#utility.yul\":1610:1756   */\n    tag_41:\n        /* \"#utility.yul\":1707:1713   */\n      dup3\n        /* \"#utility.yul\":1702:1705   */\n      dup2\n        /* \"#utility.yul\":1697:1700   */\n      dup4\n        /* \"#utility.yul\":1684:1714   */\n      calldatacopy\n        /* \"#utility.yul\":1748:1749   */\n      0x00\n        /* \"#utility.yul\":1739:1745   */\n      dup4\n        /* \"#utility.yul\":1734:1737   */\n      dup4\n        /* \"#utility.yul\":1730:1746   */\n      add\n        /* \"#utility.yul\":1723:1750   */\n      mstore\n        /* \"#utility.yul\":1610:1756   */\n      pop\n      pop\n      pop\n      jump\t// out\n        /* \"#utility.yul\":1762:2187   */\n    tag_42:\n        /* \"#utility.yul\":1840:1845   */\n      0x00\n        /* \"#utility.yul\":1865:1931   */\n      tag_74\n        /* \"#utility.yul\":1881:1930   */\n      tag_75\n        /* \"#utility.yul\":1923:1929   */\n      dup5\n        /* \"#utility.yul\":1881:1930   */\n      tag_40\n      jump\t// in\n    tag_75:\n        /* \"#utility.yul\":1865:1931   */\n      tag_39\n      jump\t// in\n    tag_74:\n        /* \"#utility.yul\":1856:1931   */\n      swap1\n      pop\n        /* \"#utility.yul\":1954:1960   */\n      dup3\n        /* \"#utility.yul\":1947:1952   */\n      dup2\n        /* \"#utility.yul\":1940:1961   */\n      mstore\n        /* \"#utility.yul\":1992:1996   */\n      0x20\n        /* \"#utility.yul\":1985:1990   */\n      dup2\n        /* \"#utility.yul\":1981:1997   */\n      add\n        /* \"#utility.yul\":2030:2033   */\n      dup5\n        /* \"#utility.yul\":2021:2027   */\n      dup5\n        /* \"#utility.yul\":2016:2019   */\n      dup5\n        /* \"#utility.yul\":2012:2028   */\n      add\n        /* \"#utility.yul\":2009:2034   */\n      gt\n        /* \"#utility.yul\":2006:2118   */\n      iszero\n      tag_76\n      jumpi\n        /* \"#utility.yul\":2037:2116   */\n      tag_77\n      tag_35\n      jump\t// in\n    tag_77:\n        /* \"#utility.yul\":2006:2118   */\n    tag_76:\n        /* \"#utility.yul\":2127:2181   */\n      tag_78\n        /* \"#utility.yul\":2174:2180   */\n      dup5\n        /* \"#utility.yul\":2169:2172   */\n      dup3\n        /* \"#utility.yul\":2164:2167   */\n      dup6\n        /* \"#utility.yul\":2127:2181   */\n      tag_41\n      jump\t// in\n    tag_78:\n        /* \"#utility.yul\":1846:2187   */\n      pop\n        /* \"#utility.yul\":1762:2187   */\n      swap4\n      swap3\n      pop\n      pop\n      pop\n      jump\t// out\n        /* \"#utility.yul\":2207:2547   */\n    tag_43:\n        /* \"#utility.yul\":2263:2268   */\n      0x00\n        /* \"#utility.yul\":2312:2315   */\n      dup3\n        /* \"#utility.yul\":2305:2309   */\n      0x1f\n        /* \"#utility.yul\":2297:2303   */\n      dup4\n        /* \"#utility.yul\":2293:2310   */\n      add\n        /* \"#utility.yul\":2289:2316   */\n      slt\n        /* \"#utility.yul\":2279:2401   */\n      tag_80\n      jumpi\n        /* \"#utility.yul\":2320:2399   */\n      tag_81\n      tag_34\n      jump\t// in\n    tag_81:\n        /* \"#utility.yul\":2279:2401   */\n    tag_80:\n        /* \"#utility.yul\":2437:2443   */\n      dup2\n        /* \"#utility.yul\":2424:2444   */\n      calldataload\n        /* \"#utility.yul\":2462:2541   */\n      tag_82\n        /* \"#utility.yul\":2537:2540   */\n      dup5\n        /* \"#utility.yul\":2529:2535   */\n      dup3\n        /* \"#utility.yul\":2522:2526   */\n      0x20\n        /* \"#utility.yul\":2514:2520   */\n      dup7\n        /* \"#utility.yul\":2510:2527   */\n      add\n        /* \"#utility.yul\":2462:2541   */\n      tag_42\n      jump\t// in\n    tag_82:\n        /* \"#utility.yul\":2453:2541   */\n      swap2\n      pop\n        /* \"#utility.yul\":2269:2547   */\n      pop\n        /* \"#utility.yul\":2207:2547   */\n      swap3\n      swap2\n      pop\n      pop\n      jump\t// out\n        /* \"#utility.yul\":2553:2629   */\n    tag_44:\n        /* \"#utility.yul\":2589:2596   */\n      0x00\n        /* \"#utility.yul\":2618:2623   */\n      dup2\n        /* \"#utility.yul\":2607:2623   */\n      swap1\n      pop\n        /* \"#utility.yul\":2553:2629   */\n      swap2\n      swap1\n      pop\n      jump\t// out\n        /* \"#utility.yul\":2635:2755   */\n    tag_45:\n        /* \"#utility.yul\":2707:2730   */\n      tag_85\n        /* \"#utility.yul\":2724:2729   */\n      dup2\n        /* \"#utility.yul\":2707:2730   */\n      tag_44\n      jump\t// in\n    tag_85:\n        /* \"#utility.yul\":2700:2705   */\n      dup2\n        /* \"#utility.yul\":2697:2731   */\n      eq\n        /* \"#utility.yul\":2687:2749   */\n      tag_86\n      jumpi\n        /* \"#utility.yul\":2745:2746   */\n      0x00\n        /* \"#utility.yul\":2742:2743   */\n      dup1\n        /* \"#utility.yul\":2735:2747   */\n      revert\n        /* \"#utility.yul\":2687:2749   */\n    tag_86:\n        /* \"#utility.yul\":2635:2755   */\n      pop\n      jump\t// out\n        /* \"#utility.yul\":2761:2898   */\n    tag_46:\n        /* \"#utility.yul\":2806:2811   */\n      0x00\n        /* \"#utility.yul\":2844:2850   */\n      dup2\n        /* \"#utility.yul\":2831:2851   */\n      calldataload\n        /* \"#utility.yul\":2822:2851   */\n      swap1\n      pop\n        /* \"#utility.yul\":2860:2892   */\n      tag_88\n        /* \"#utility.yul\":2886:2891   */\n      dup2\n        /* \"#utility.yul\":2860:2892   */\n      tag_45\n      jump\t// in\n    tag_88:\n        /* \"#utility.yul\":2761:2898   */\n      swap3\n      swap2\n      pop\n      pop\n      jump\t// out\n        /* \"#utility.yul\":2904:4207   */\n    tag_8:\n        /* \"#utility.yul\":3019:3025   */\n      0x00\n        /* \"#utility.yul\":3027:3033   */\n      dup1\n        /* \"#utility.yul\":3035:3041   */\n      0x00\n        /* \"#utility.yul\":3043:3049   */\n      dup1\n        /* \"#utility.yul\":3092:3095   */\n      0x80\n        /* \"#utility.yul\":3080:3089   */\n      dup6\n        /* \"#utility.yul\":3071:3078   */\n      dup8\n        /* \"#utility.yul\":3067:3090   */\n      sub\n        /* \"#utility.yul\":3063:3096   */\n      slt\n        /* \"#utility.yul\":3060:3180   */\n      iszero\n      tag_90\n      jumpi\n        /* \"#utility.yul\":3099:3178   */\n      tag_91\n      tag_32\n      jump\t// in\n    tag_91:\n        /* \"#utility.yul\":3060:3180   */\n    tag_90:\n        /* \"#utility.yul\":3247:3248   */\n      0x00\n        /* \"#utility.yul\":3236:3245   */\n      dup6\n        /* \"#utility.yul\":3232:3249   */\n      add\n        /* \"#utility.yul\":3219:3250   */\n      calldataload\n        /* \"#utility.yul\":3277:3295   */\n      0xffffffffffffffff\n        /* \"#utility.yul\":3269:3275   */\n      dup2\n        /* \"#utility.yul\":3266:3296   */\n      gt\n        /* \"#utility.yul\":3263:3380   */\n      iszero\n      tag_92\n      jumpi\n        /* \"#utility.yul\":3299:3378   */\n      tag_93\n      tag_33\n      jump\t// in\n    tag_93:\n        /* \"#utility.yul\":3263:3380   */\n    tag_92:\n        /* \"#utility.yul\":3404:3467   */\n      tag_94\n        /* \"#utility.yul\":3459:3466   */\n      dup8\n        /* \"#utility.yul\":3450:3456   */\n      dup3\n        /* \"#utility.yul\":3439:3448   */\n      dup9\n        /* \"#utility.yul\":3435:3457   */\n      add\n        /* \"#utility.yul\":3404:3467   */\n      tag_43\n      jump\t// in\n    tag_94:\n        /* \"#utility.yul\":3394:3467   */\n      swap5\n      pop\n        /* \"#utility.yul\":3190:3477   */\n      pop\n        /* \"#utility.yul\":3544:3546   */\n      0x20\n        /* \"#utility.yul\":3533:3542   */\n      dup6\n        /* \"#utility.yul\":3529:3547   */\n      add\n        /* \"#utility.yul\":3516:3548   */\n      calldataload\n        /* \"#utility.yul\":3575:3593   */\n      0xffffffffffffffff\n        /* \"#utility.yul\":3567:3573   */\n      dup2\n        /* \"#utility.yul\":3564:3594   */\n      gt\n        /* \"#utility.yul\":3561:3678   */\n      iszero\n      tag_95\n      jumpi\n        /* \"#utility.yul\":3597:3676   */\n      tag_96\n      tag_33\n      jump\t// in\n    tag_96:\n        /* \"#utility.yul\":3561:3678   */\n    tag_95:\n        /* \"#utility.yul\":3702:3765   */\n      tag_97\n        /* \"#utility.yul\":3757:3764   */\n      dup8\n        /* \"#utility.yul\":3748:3754   */\n      dup3\n        /* \"#utility.yul\":3737:3746   */\n      dup9\n        /* \"#utility.yul\":3733:3755   */\n      add\n        /* \"#utility.yul\":3702:3765   */\n      tag_43\n      jump\t// in\n    tag_97:\n        /* \"#utility.yul\":3692:3765   */\n      swap4\n      pop\n        /* \"#utility.yul\":3487:3775   */\n      pop\n        /* \"#utility.yul\":3842:3844   */\n      0x40\n        /* \"#utility.yul\":3831:3840   */\n      dup6\n        /* \"#utility.yul\":3827:3845   */\n      add\n        /* \"#utility.yul\":3814:3846   */\n      calldataload\n        /* \"#utility.yul\":3873:3891   */\n      0xffffffffffffffff\n        /* \"#utility.yul\":3865:3871   */\n      dup2\n        /* \"#utility.yul\":3862:3892   */\n      gt\n        /* \"#utility.yul\":3859:3976   */\n      iszero\n      tag_98\n      jumpi\n        /* \"#utility.yul\":3895:3974   */\n      tag_99\n      tag_33\n      jump\t// in\n    tag_99:\n        /* \"#utility.yul\":3859:3976   */\n    tag_98:\n        /* \"#utility.yul\":4000:4063   */\n      tag_100\n        /* \"#utility.yul\":4055:4062   */\n      dup8\n        /* \"#utility.yul\":4046:4052   */\n      dup3\n        /* \"#utility.yul\":4035:4044   */\n      dup9\n        /* \"#utility.yul\":4031:4053   */\n      add\n        /* \"#utility.yul\":4000:4063   */\n      tag_43\n      jump\t// in\n    tag_100:\n        /* \"#utility.yul\":3990:4063   */\n      swap3\n      pop\n        /* \"#utility.yul\":3785:4073   */\n      pop\n        /* \"#utility.yul\":4112:4114   */\n      0x60\n        /* \"#utility.yul\":4138:4190   */\n      tag_101\n        /* \"#utility.yul\":4182:4189   */\n      dup8\n        /* \"#utility.yul\":4173:4179   */\n      dup3\n        /* \"#utility.yul\":4162:4171   */\n      dup9\n        /* \"#utility.yul\":4158:4180   */\n      add\n        /* \"#utility.yul\":4138:4190   */\n      tag_46\n      jump\t// in\n    tag_101:\n        /* \"#utility.yul\":4128:4190   */\n      swap2\n      pop\n        /* \"#utility.yul\":4083:4200   */\n      pop\n        /* \"#utility.yul\":2904:4207   */\n      swap3\n      swap6\n      swap2\n      swap5\n      pop\n      swap3\n      pop\n      jump\t// out\n        /* \"#utility.yul\":4213:5372   */\n    tag_12:\n        /* \"#utility.yul\":4320:4326   */\n      0x00\n        /* \"#utility.yul\":4328:4334   */\n      dup1\n        /* \"#utility.yul\":4336:4342   */\n      0x00\n        /* \"#utility.yul\":4385:4387   */\n      0x60\n        /* \"#utility.yul\":4373:4382   */\n      dup5\n        /* \"#utility.yul\":4364:4371   */\n      dup7\n        /* \"#utility.yul\":4360:4383   */\n      sub\n        /* \"#utility.yul\":4356:4388   */\n      slt\n        /* \"#utility.yul\":4353:4472   */\n      iszero\n      tag_103\n      jumpi\n        /* \"#utility.yul\":4391:4470   */\n      tag_104\n      tag_32\n      jump\t// in\n    tag_104:\n        /* \"#utility.yul\":4353:4472   */\n    tag_103:\n        /* \"#utility.yul\":4539:4540   */\n      0x00\n        /* \"#utility.yul\":4528:4537   */\n      dup5\n        /* \"#utility.yul\":4524:4541   */\n      add\n        /* \"#utility.yul\":4511:4542   */\n      calldataload\n        /* \"#utility.yul\":4569:4587   */\n      0xffffffffffffffff\n        /* \"#utility.yul\":4561:4567   */\n      dup2\n        /* \"#utility.yul\":4558:4588   */\n      gt\n        /* \"#utility.yul\":4555:4672   */\n      iszero\n      tag_105\n      jumpi\n        /* \"#utility.yul\":4591:4670   */\n      tag_106\n      tag_33\n      jump\t// in\n    tag_106:\n        /* \"#utility.yul\":4555:4672   */\n    tag_105:\n        /* \"#utility.yul\":4696:4759   */\n      tag_107\n        /* \"#utility.yul\":4751:4758   */\n      dup7\n        /* \"#utility.yul\":4742:4748   */\n      dup3\n        /* \"#utility.yul\":4731:4740   */\n      dup8\n        /* \"#utility.yul\":4727:4749   */\n      add\n        /* \"#utility.yul\":4696:4759   */\n      tag_43\n      jump\t// in\n    tag_107:\n        /* \"#utility.yul\":4686:4759   */\n      swap4\n      pop\n        /* \"#utility.yul\":4482:4769   */\n      pop\n        /* \"#utility.yul\":4836:4838   */\n      0x20\n        /* \"#utility.yul\":4825:4834   */\n      dup5\n        /* \"#utility.yul\":4821:4839   */\n      add\n        /* \"#utility.yul\":4808:4840   */\n      calldataload\n        /* \"#utility.yul\":4867:4885   */\n      0xffffffffffffffff\n        /* \"#utility.yul\":4859:4865   */\n      dup2\n        /* \"#utility.yul\":4856:4886   */\n      gt\n        /* \"#utility.yul\":4853:4970   */\n      iszero\n      tag_108\n      jumpi\n        /* \"#utility.yul\":4889:4968   */\n      tag_109\n      tag_33\n      jump\t// in\n    tag_109:\n        /* \"#utility.yul\":4853:4970   */\n    tag_108:\n        /* \"#utility.yul\":4994:5057   */\n      tag_110\n        /* \"#utility.yul\":5049:5056   */\n      dup7\n        /* \"#utility.yul\":5040:5046   */\n      dup3\n        /* \"#utility.yul\":5029:5038   */\n      dup8\n        /* \"#utility.yul\":5025:5047   */\n      add\n        /* \"#utility.yul\":4994:5057   */\n      tag_43\n      jump\t// in\n    tag_110:\n        /* \"#utility.yul\":4984:5057   */\n      swap3\n      pop\n        /* \"#utility.yul\":4779:5067   */\n      pop\n        /* \"#utility.yul\":5134:5136   */\n      0x40\n        /* \"#utility.yul\":5123:5132   */\n      dup5\n        /* \"#utility.yul\":5119:5137   */\n      add\n        /* \"#utility.yul\":5106:5138   */\n      calldataload\n        /* \"#utility.yul\":5165:5183   */\n      0xffffffffffffffff\n        /* \"#utility.yul\":5157:5163   */\n      dup2\n        /* \"#utility.yul\":5154:5184   */\n      gt\n        /* \"#utility.yul\":5151:5268   */\n      iszero\n      tag_111\n      jumpi\n        /* \"#utility.yul\":5187:5266   */\n      tag_112\n      tag_33\n      jump\t// in\n    tag_112:\n        /* \"#utility.yul\":5151:5268   */\n    tag_111:\n        /* \"#utility.yul\":5292:5355   */\n      tag_113\n        /* \"#utility.yul\":5347:5354   */\n      dup7\n        /* \"#utility.yul\":5338:5344   */\n      dup3\n        /* \"#utility.yul\":5327:5336   */\n      dup8\n        /* \"#utility.yul\":5323:5345   */\n      add\n        /* \"#utility.yul\":5292:5355   */\n      tag_43\n      jump\t// in\n    tag_113:\n        /* \"#utility.yul\":5282:5355   */\n      swap2\n      pop\n        /* \"#utility.yul\":5077:5365   */\n      pop\n        /* \"#utility.yul\":4213:5372   */\n      swap3\n      pop\n      swap3\n      pop\n      swap3\n      jump\t// out\n        /* \"#utility.yul\":5378:5493   */\n    tag_47:\n        /* \"#utility.yul\":5463:5486   */\n      tag_115\n        /* \"#utility.yul\":5480:5485   */\n      dup2\n        /* \"#utility.yul\":5463:5486   */\n      tag_44\n      jump\t// in\n    tag_115:\n        /* \"#utility.yul\":5458:5461   */\n      dup3\n        /* \"#utility.yul\":5451:5487   */\n      mstore\n        /* \"#utility.yul\":5378:5493   */\n      pop\n      pop\n      jump\t// out\n        /* \"#utility.yul\":5499:5717   */\n    tag_15:\n        /* \"#utility.yul\":5590:5594   */\n      0x00\n        /* \"#utility.yul\":5628:5630   */\n      0x20\n        /* \"#utility.yul\":5617:5626   */\n      dup3\n        /* \"#utility.yul\":5613:5631   */\n      add\n        /* \"#utility.yul\":5605:5631   */\n      swap1\n      pop\n        /* \"#utility.yul\":5641:5710   */\n      tag_117\n        /* \"#utility.yul\":5707:5708   */\n      0x00\n        /* \"#utility.yul\":5696:5705   */\n      dup4\n        /* \"#utility.yul\":5692:5709   */\n      add\n        /* \"#utility.yul\":5683:5689   */\n      dup5\n        /* \"#utility.yul\":5641:5710   */\n      tag_47\n      jump\t// in\n    tag_117:\n        /* \"#utility.yul\":5499:5717   */\n      swap3\n      swap2\n      pop\n      pop\n      jump\t// out\n        /* \"#utility.yul\":5723:5822   */\n    tag_48:\n        /* \"#utility.yul\":5775:5781   */\n      0x00\n        /* \"#utility.yul\":5809:5814   */\n      dup2\n        /* \"#utility.yul\":5803:5815   */\n      mload\n        /* \"#utility.yul\":5793:5815   */\n      swap1\n      pop\n        /* \"#utility.yul\":5723:5822   */\n      swap2\n      swap1\n      pop\n      jump\t// out\n        /* \"#utility.yul\":5828:5976   */\n    tag_49:\n        /* \"#utility.yul\":5930:5941   */\n      0x00\n        /* \"#utility.yul\":5967:5970   */\n      dup2\n        /* \"#utility.yul\":5952:5970   */\n      swap1\n      pop\n        /* \"#utility.yul\":5828:5976   */\n      swap3\n      swap2\n      pop\n      pop\n      jump\t// out\n        /* \"#utility.yul\":5982:6228   */\n    tag_50:\n        /* \"#utility.yul\":6063:6064   */\n      0x00\n        /* \"#utility.yul\":6073:6186   */\n    tag_121:\n        /* \"#utility.yul\":6087:6093   */\n      dup4\n        /* \"#utility.yul\":6084:6085   */\n      dup2\n        /* \"#utility.yul\":6081:6094   */\n      lt\n        /* \"#utility.yul\":6073:6186   */\n      iszero\n      tag_123\n      jumpi\n        /* \"#utility.yul\":6172:6173   */\n      dup1\n        /* \"#utility.yul\":6167:6170   */\n      dup3\n        /* \"#utility.yul\":6163:6174   */\n      add\n        /* \"#utility.yul\":6157:6175   */\n      mload\n        /* \"#utility.yul\":6153:6154   */\n      dup2\n        /* \"#utility.yul\":6148:6151   */\n      dup5\n        /* \"#utility.yul\":6144:6155   */\n      add\n        /* \"#utility.yul\":6137:6176   */\n      mstore\n        /* \"#utility.yul\":6109:6111   */\n      0x20\n        /* \"#utility.yul\":6106:6107   */\n      dup2\n        /* \"#utility.yul\":6102:6112   */\n      add\n        /* \"#utility.yul\":6097:6112   */\n      swap1\n      pop\n        /* \"#utility.yul\":6073:6186   */\n      jump(tag_121)\n    tag_123:\n        /* \"#utility.yul\":6220:6221   */\n      0x00\n        /* \"#utility.yul\":6211:6217   */\n      dup5\n        /* \"#utility.yul\":6206:6209   */\n      dup5\n        /* \"#utility.yul\":6202:6218   */\n      add\n        /* \"#utility.yul\":6195:6222   */\n      mstore\n        /* \"#utility.yul\":6044:6228   */\n      pop\n        /* \"#utility.yul\":5982:6228   */\n      pop\n      pop\n      pop\n      jump\t// out\n        /* \"#utility.yul\":6234:6624   */\n    tag_51:\n        /* \"#utility.yul\":6340:6343   */\n      0x00\n        /* \"#utility.yul\":6368:6407   */\n      tag_125\n        /* \"#utility.yul\":6401:6406   */\n      dup3\n        /* \"#utility.yul\":6368:6407   */\n      tag_48\n      jump\t// in\n    tag_125:\n        /* \"#utility.yul\":6423:6512   */\n      tag_126\n        /* \"#utility.yul\":6505:6511   */\n      dup2\n        /* \"#utility.yul\":6500:6503   */\n      dup6\n        /* \"#utility.yul\":6423:6512   */\n      tag_49\n      jump\t// in\n    tag_126:\n        /* \"#utility.yul\":6416:6512   */\n      swap4\n      pop\n        /* \"#utility.yul\":6521:6586   */\n      tag_127\n        /* \"#utility.yul\":6579:6585   */\n      dup2\n        /* \"#utility.yul\":6574:6577   */\n      dup6\n        /* \"#utility.yul\":6567:6571   */\n      0x20\n        /* \"#utility.yul\":6560:6565   */\n      dup7\n        /* \"#utility.yul\":6556:6572   */\n      add\n        /* \"#utility.yul\":6521:6586   */\n      tag_50\n      jump\t// in\n    tag_127:\n        /* \"#utility.yul\":6611:6617   */\n      dup1\n        /* \"#utility.yul\":6606:6609   */\n      dup5\n        /* \"#utility.yul\":6602:6618   */\n      add\n        /* \"#utility.yul\":6595:6618   */\n      swap2\n      pop\n        /* \"#utility.yul\":6344:6624   */\n      pop\n        /* \"#utility.yul\":6234:6624   */\n      swap3\n      swap2\n      pop\n      pop\n      jump\t// out\n        /* \"#utility.yul\":6630:6905   */\n    tag_22:\n        /* \"#utility.yul\":6762:6765   */\n      0x00\n        /* \"#utility.yul\":6784:6879   */\n      tag_129\n        /* \"#utility.yul\":6875:6878   */\n      dup3\n        /* \"#utility.yul\":6866:6872   */\n      dup5\n        /* \"#utility.yul\":6784:6879   */\n      tag_51\n      jump\t// in\n    tag_129:\n        /* \"#utility.yul\":6777:6879   */\n      swap2\n      pop\n        /* \"#utility.yul\":6896:6899   */\n      dup2\n        /* \"#utility.yul\":6889:6899   */\n      swap1\n      pop\n        /* \"#utility.yul\":6630:6905   */\n      swap3\n      swap2\n      pop\n      pop\n      jump\t// out\n        /* \"#utility.yul\":6911:7091   */\n    tag_52:\n        /* \"#utility.yul\":6959:7036   */\n      0x4e487b7100000000000000000000000000000000000000000000000000000000\n        /* \"#utility.yul\":6956:6957   */\n      0x00\n        /* \"#utility.yul\":6949:7037   */\n      mstore\n        /* \"#utility.yul\":7056:7060   */\n      0x11\n        /* \"#utility.yul\":7053:7054   */\n      0x04\n        /* \"#utility.yul\":7046:7061   */\n      mstore\n        /* \"#utility.yul\":7080:7084   */\n      0x24\n        /* \"#utility.yul\":7077:7078   */\n      0x00\n        /* \"#utility.yul\":7070:7085   */\n      revert\n        /* \"#utility.yul\":7097:7472   */\n    tag_26:\n        /* \"#utility.yul\":7136:7139   */\n      0x00\n        /* \"#utility.yul\":7155:7174   */\n      tag_132\n        /* \"#utility.yul\":7172:7173   */\n      dup3\n        /* \"#utility.yul\":7155:7174   */\n      tag_44\n      jump\t// in\n    tag_132:\n        /* \"#utility.yul\":7150:7174   */\n      swap2\n      pop\n        /* \"#utility.yul\":7188:7207   */\n      tag_133\n        /* \"#utility.yul\":7205:7206   */\n      dup4\n        /* \"#utility.yul\":7188:7207   */\n      tag_44\n      jump\t// in\n    tag_133:\n        /* \"#utility.yul\":7183:7207   */\n      swap3\n      pop\n        /* \"#utility.yul\":7230:7231   */\n      dup3\n        /* \"#utility.yul\":7227:7228   */\n      dup3\n        /* \"#utility.yul\":7223:7232   */\n      add\n        /* \"#utility.yul\":7216:7232   */\n      swap1\n      pop\n        /* \"#utility.yul\":7428:7429   */\n      dup3\n        /* \"#utility.yul\":7423:7426   */\n      dup2\n        /* \"#utility.yul\":7419:7430   */\n      slt\n        /* \"#utility.yul\":7412:7431   */\n      iszero\n        /* \"#utility.yul\":7408:7409   */\n      0x00\n        /* \"#utility.yul\":7405:7406   */\n      dup4\n        /* \"#utility.yul\":7401:7410   */\n      slt\n        /* \"#utility.yul\":7397:7432   */\n      and\n        /* \"#utility.yul\":7380:7381   */\n      dup4\n        /* \"#utility.yul\":7375:7378   */\n      dup3\n        /* \"#utility.yul\":7371:7382   */\n      slt\n        /* \"#utility.yul\":7366:7367   */\n      0x00\n        /* \"#utility.yul\":7363:7364   */\n      dup5\n        /* \"#utility.yul\":7359:7368   */\n      slt\n        /* \"#utility.yul\":7352:7369   */\n      iszero\n        /* \"#utility.yul\":7348:7383   */\n      and\n        /* \"#utility.yul\":7332:7442   */\n      or\n        /* \"#utility.yul\":7329:7465   */\n      iszero\n      tag_134\n      jumpi\n        /* \"#utility.yul\":7445:7463   */\n      tag_135\n      tag_52\n      jump\t// in\n    tag_135:\n        /* \"#utility.yul\":7329:7465   */\n    tag_134:\n        /* \"#utility.yul\":7097:7472   */\n      swap3\n      swap2\n      pop\n      pop\n      jump\t// out\n\n    auxdata: 0xa26469706673582212201220f4ee60ce891024aa338ebe165eb1e439c451528073209c1845a296cf555a64736f6c63430008120033\n}\n",
				"bytecode": {
					"linkReferences": {},
					"object": "608060405234801561001057600080fd5b50610657806100206000396000f3fe608060405234801561001057600080fd5b50600436106100415760003560e01c80637a1a29fb14610046578063a81bfb3314610062578063aba5f54414610092575b600080fd5b610060600480360381019061005b919061039a565b6100c2565b005b61007c60048036038101906100779190610455565b610135565b604051610089919061050b565b60405180910390f35b6100ac60048036038101906100a79190610455565b6101a9565b6040516100b9919061050b565b60405180910390f35b806000856040516100d39190610597565b9081526020016040518091039020846040516100ef9190610597565b90815260200160405180910390208360405161010b9190610597565b9081526020016040518091039020600082825461012891906105dd565b9250508190555050505050565b600083805160208101820180518482526020830160208501208183528095505050505050828051602081018201805184825260208301602085012081835280955050505050508180516020810182018051848252602083016020850120818352809550505050505060009250925050505481565b600080846040516101ba9190610597565b9081526020016040518091039020836040516101d69190610597565b9081526020016040518091039020826040516101f29190610597565b90815260200160405180910390205490509392505050565b6000604051905090565b600080fd5b600080fd5b600080fd5b600080fd5b6000601f19601f8301169050919050565b7f4e487b7100000000000000000000000000000000000000000000000000000000600052604160045260246000fd5b61027182610228565b810181811067ffffffffffffffff821117156102905761028f610239565b5b80604052505050565b60006102a361020a565b90506102af8282610268565b919050565b600067ffffffffffffffff8211156102cf576102ce610239565b5b6102d882610228565b9050602081019050919050565b82818337600083830152505050565b6000610307610302846102b4565b610299565b90508281526020810184848401111561032357610322610223565b5b61032e8482856102e5565b509392505050565b600082601f83011261034b5761034a61021e565b5b813561035b8482602086016102f4565b91505092915050565b6000819050919050565b61037781610364565b811461038257600080fd5b50565b6000813590506103948161036e565b92915050565b600080600080608085870312156103b4576103b3610214565b5b600085013567ffffffffffffffff8111156103d2576103d1610219565b5b6103de87828801610336565b945050602085013567ffffffffffffffff8111156103ff576103fe610219565b5b61040b87828801610336565b935050604085013567ffffffffffffffff81111561042c5761042b610219565b5b61043887828801610336565b925050606061044987828801610385565b91505092959194509250565b60008060006060848603121561046e5761046d610214565b5b600084013567ffffffffffffffff81111561048c5761048b610219565b5b61049886828701610336565b935050602084013567ffffffffffffffff8111156104b9576104b8610219565b5b6104c586828701610336565b925050604084013567ffffffffffffffff8111156104e6576104e5610219565b5b6104f286828701610336565b9150509250925092565b61050581610364565b82525050565b600060208201905061052060008301846104fc565b92915050565b600081519050919050565b600081905092915050565b60005b8381101561055a57808201518184015260208101905061053f565b60008484015250505050565b600061057182610526565b61057b8185610531565b935061058b81856020860161053c565b80840191505092915050565b60006105a38284610566565b915081905092915050565b7f4e487b7100000000000000000000000000000000000000000000000000000000600052601160045260246000fd5b60006105e882610364565b91506105f383610364565b92508282019050828112156000831216838212600084121516171561061b5761061a6105ae565b5b9291505056fea26469706673582212201220f4ee60ce891024aa338ebe165eb1e439c451528073209c1845a296cf555a64736f6c63430008120033",
					"opcodes": "PUSH1 0x80 PUSH1 0x40 MSTORE CALLVALUE DUP1 ISZERO PUSH2 0x10 JUMPI PUSH1 0x0 DUP1 REVERT JUMPDEST POP PUSH2 0x657 DUP1 PUSH2 0x20 PUSH1 0x0 CODECOPY PUSH1 0x0 RETURN INVALID PUSH1 0x80 PUSH1 0x40 MSTORE CALLVALUE DUP1 ISZERO PUSH2 0x10 JUMPI PUSH1 0x0 DUP1 REVERT JUMPDEST POP PUSH1 0x4 CALLDATASIZE LT PUSH2 0x41 JUMPI PUSH1 0x0 CALLDATALOAD PUSH1 0xE0 SHR DUP1 PUSH4 0x7A1A29FB EQ PUSH2 0x46 JUMPI DUP1 PUSH4 0xA81BFB33 EQ PUSH2 0x62 JUMPI DUP1 PUSH4 0xABA5F544 EQ PUSH2 0x92 JUMPI JUMPDEST PUSH1 0x0 DUP1 REVERT JUMPDEST PUSH2 0x60 PUSH1 0x4 DUP1 CALLDATASIZE SUB DUP2 ADD SWAP1 PUSH2 0x5B SWAP2 SWAP1 PUSH2 0x39A JUMP JUMPDEST PUSH2 0xC2 JUMP JUMPDEST STOP JUMPDEST PUSH2 0x7C PUSH1 0x4 DUP1 CALLDATASIZE SUB DUP2 ADD SWAP1 PUSH2 0x77 SWAP2 SWAP1 PUSH2 0x455 JUMP JUMPDEST PUSH2 0x135 JUMP JUMPDEST PUSH1 0x40 MLOAD PUSH2 0x89 SWAP2 SWAP1 PUSH2 0x50B JUMP JUMPDEST PUSH1 0x40 MLOAD DUP1 SWAP2 SUB SWAP1 RETURN JUMPDEST PUSH2 0xAC PUSH1 0x4 DUP1 CALLDATASIZE SUB DUP2 ADD SWAP1 PUSH2 0xA7 SWAP2 SWAP1 PUSH2 0x455 JUMP JUMPDEST PUSH2 0x1A9 JUMP JUMPDEST PUSH1 0x40 MLOAD PUSH2 0xB9 SWAP2 SWAP1 PUSH2 0x50B JUMP JUMPDEST PUSH1 0x40 MLOAD DUP1 SWAP2 SUB SWAP1 RETURN JUMPDEST DUP1 PUSH1 0x0 DUP6 PUSH1 0x40 MLOAD PUSH2 0xD3 SWAP2 SWAP1 PUSH2 0x597 JUMP JUMPDEST SWAP1 DUP2 MSTORE PUSH1 0x20 ADD PUSH1 0x40 MLOAD DUP1 SWAP2 SUB SWAP1 KECCAK256 DUP5 PUSH1 0x40 MLOAD PUSH2 0xEF SWAP2 SWAP1 PUSH2 0x597 JUMP JUMPDEST SWAP1 DUP2 MSTORE PUSH1 0x20 ADD PUSH1 0x40 MLOAD DUP1 SWAP2 SUB SWAP1 KECCAK256 DUP4 PUSH1 0x40 MLOAD PUSH2 0x10B SWAP2 SWAP1 PUSH2 0x597 JUMP JUMPDEST SWAP1 DUP2 MSTORE PUSH1 0x20 ADD PUSH1 0x40 MLOAD DUP1 SWAP2 SUB SWAP1 KECCAK256 PUSH1 0x0 DUP3 DUP3 SLOAD PUSH2 0x128 SWAP2 SWAP1 PUSH2 0x5DD JUMP JUMPDEST SWAP3 POP POP DUP2 SWAP1 SSTORE POP POP POP POP POP JUMP JUMPDEST PUSH1 0x0 DUP4 DUP1 MLOAD PUSH1 0x20 DUP2 ADD DUP3 ADD DUP1 MLOAD DUP5 DUP3 MSTORE PUSH1 0x20 DUP4 ADD PUSH1 0x20 DUP6 ADD KECCAK256 DUP2 DUP4 MSTORE DUP1 SWAP6 POP POP POP POP POP POP DUP3 DUP1 MLOAD PUSH1 0x20 DUP2 ADD DUP3 ADD DUP1 MLOAD DUP5 DUP3 MSTORE PUSH1 0x20 DUP4 ADD PUSH1 0x20 DUP6 ADD KECCAK256 DUP2 DUP4 MSTORE DUP1 SWAP6 POP POP POP POP POP POP DUP2 DUP1 MLOAD PUSH1 0x20 DUP2 ADD DUP3 ADD DUP1 MLOAD DUP5 DUP3 MSTORE PUSH1 0x20 DUP4 ADD PUSH1 0x20 DUP6 ADD KECCAK256 DUP2 DUP4 MSTORE DUP1 SWAP6 POP POP POP POP POP POP PUSH1 0x0 SWAP3 POP SWAP3 POP POP POP SLOAD DUP2 JUMP JUMPDEST PUSH1 0x0 DUP1 DUP5 PUSH1 0x40 MLOAD PUSH2 0x1BA SWAP2 SWAP1 PUSH2 0x597 JUMP JUMPDEST SWAP1 DUP2 MSTORE PUSH1 0x20 ADD PUSH1 0x40 MLOAD DUP1 SWAP2 SUB SWAP1 KECCAK256 DUP4 PUSH1 0x40 MLOAD PUSH2 0x1D6 SWAP2 SWAP1 PUSH2 0x597 JUMP JUMPDEST SWAP1 DUP2 MSTORE PUSH1 0x20 ADD PUSH1 0x40 MLOAD DUP1 SWAP2 SUB SWAP1 KECCAK256 DUP3 PUSH1 0x40 MLOAD PUSH2 0x1F2 SWAP2 SWAP1 PUSH2 0x597 JUMP JUMPDEST SWAP1 DUP2 MSTORE PUSH1 0x20 ADD PUSH1 0x40 MLOAD DUP1 SWAP2 SUB SWAP1 KECCAK256 SLOAD SWAP1 POP SWAP4 SWAP3 POP POP POP JUMP JUMPDEST PUSH1 0x0 PUSH1 0x40 MLOAD SWAP1 POP SWAP1 JUMP JUMPDEST PUSH1 0x0 DUP1 REVERT JUMPDEST PUSH1 0x0 DUP1 REVERT JUMPDEST PUSH1 0x0 DUP1 REVERT JUMPDEST PUSH1 0x0 DUP1 REVERT JUMPDEST PUSH1 0x0 PUSH1 0x1F NOT PUSH1 0x1F DUP4 ADD AND SWAP1 POP SWAP2 SWAP1 POP JUMP JUMPDEST PUSH32 0x4E487B7100000000000000000000000000000000000000000000000000000000 PUSH1 0x0 MSTORE PUSH1 0x41 PUSH1 0x4 MSTORE PUSH1 0x24 PUSH1 0x0 REVERT JUMPDEST PUSH2 0x271 DUP3 PUSH2 0x228 JUMP JUMPDEST DUP2 ADD DUP2 DUP2 LT PUSH8 0xFFFFFFFFFFFFFFFF DUP3 GT OR ISZERO PUSH2 0x290 JUMPI PUSH2 0x28F PUSH2 0x239 JUMP JUMPDEST JUMPDEST DUP1 PUSH1 0x40 MSTORE POP POP POP JUMP JUMPDEST PUSH1 0x0 PUSH2 0x2A3 PUSH2 0x20A JUMP JUMPDEST SWAP1 POP PUSH2 0x2AF DUP3 DUP3 PUSH2 0x268 JUMP JUMPDEST SWAP2 SWAP1 POP JUMP JUMPDEST PUSH1 0x0 PUSH8 0xFFFFFFFFFFFFFFFF DUP3 GT ISZERO PUSH2 0x2CF JUMPI PUSH2 0x2CE PUSH2 0x239 JUMP JUMPDEST JUMPDEST PUSH2 0x2D8 DUP3 PUSH2 0x228 JUMP JUMPDEST SWAP1 POP PUSH1 0x20 DUP2 ADD SWAP1 POP SWAP2 SWAP1 POP JUMP JUMPDEST DUP3 DUP2 DUP4 CALLDATACOPY PUSH1 0x0 DUP4 DUP4 ADD MSTORE POP POP POP JUMP JUMPDEST PUSH1 0x0 PUSH2 0x307 PUSH2 0x302 DUP5 PUSH2 0x2B4 JUMP JUMPDEST PUSH2 0x299 JUMP JUMPDEST SWAP1 POP DUP3 DUP2 MSTORE PUSH1 0x20 DUP2 ADD DUP5 DUP5 DUP5 ADD GT ISZERO PUSH2 0x323 JUMPI PUSH2 0x322 PUSH2 0x223 JUMP JUMPDEST JUMPDEST PUSH2 0x32E DUP5 DUP3 DUP6 PUSH2 0x2E5 JUMP JUMPDEST POP SWAP4 SWAP3 POP POP POP JUMP JUMPDEST PUSH1 0x0 DUP3 PUSH1 0x1F DUP4 ADD SLT PUSH2 0x34B JUMPI PUSH2 0x34A PUSH2 0x21E JUMP JUMPDEST JUMPDEST DUP2 CALLDATALOAD PUSH2 0x35B DUP5 DUP3 PUSH1 0x20 DUP7 ADD PUSH2 0x2F4 JUMP JUMPDEST SWAP2 POP POP SWAP3 SWAP2 POP POP JUMP JUMPDEST PUSH1 0x0 DUP2 SWAP1 POP SWAP2 SWAP1 POP JUMP JUMPDEST PUSH2 0x377 DUP2 PUSH2 0x364 JUMP JUMPDEST DUP2 EQ PUSH2 0x382 JUMPI PUSH1 0x0 DUP1 REVERT JUMPDEST POP JUMP JUMPDEST PUSH1 0x0 DUP2 CALLDATALOAD SWAP1 POP PUSH2 0x394 DUP2 PUSH2 0x36E JUMP JUMPDEST SWAP3 SWAP2 POP POP JUMP JUMPDEST PUSH1 0x0 DUP1 PUSH1 0x0 DUP1 PUSH1 0x80 DUP6 DUP8 SUB SLT ISZERO PUSH2 0x3B4 JUMPI PUSH2 0x3B3 PUSH2 0x214 JUMP JUMPDEST JUMPDEST PUSH1 0x0 DUP6 ADD CALLDATALOAD PUSH8 0xFFFFFFFFFFFFFFFF DUP2 GT ISZERO PUSH2 0x3D2 JUMPI PUSH2 0x3D1 PUSH2 0x219 JUMP JUMPDEST JUMPDEST PUSH2 0x3DE DUP8 DUP3 DUP9 ADD PUSH2 0x336 JUMP JUMPDEST SWAP5 POP POP PUSH1 0x20 DUP6 ADD CALLDATALOAD PUSH8 0xFFFFFFFFFFFFFFFF DUP2 GT ISZERO PUSH2 0x3FF JUMPI PUSH2 0x3FE PUSH2 0x219 JUMP JUMPDEST JUMPDEST PUSH2 0x40B DUP8 DUP3 DUP9 ADD PUSH2 0x336 JUMP JUMPDEST SWAP4 POP POP PUSH1 0x40 DUP6 ADD CALLDATALOAD PUSH8 0xFFFFFFFFFFFFFFFF DUP2 GT ISZERO PUSH2 0x42C JUMPI PUSH2 0x42B PUSH2 0x219 JUMP JUMPDEST JUMPDEST PUSH2 0x438 DUP8 DUP3 DUP9 ADD PUSH2 0x336 JUMP JUMPDEST SWAP3 POP POP PUSH1 0x60 PUSH2 0x449 DUP8 DUP3 DUP9 ADD PUSH2 0x385 JUMP JUMPDEST SWAP2 POP POP SWAP3 SWAP6 SWAP2 SWAP5 POP SWAP3 POP JUMP JUMPDEST PUSH1 0x0 DUP1 PUSH1 0x0 PUSH1 0x60 DUP5 DUP7 SUB SLT ISZERO PUSH2 0x46E JUMPI PUSH2 0x46D PUSH2 0x214 JUMP JUMPDEST JUMPDEST PUSH1 0x0 DUP5 ADD CALLDATALOAD PUSH8 0xFFFFFFFFFFFFFFFF DUP2 GT ISZERO PUSH2 0x48C JUMPI PUSH2 0x48B PUSH2 0x219 JUMP JUMPDEST JUMPDEST PUSH2 0x498 DUP7 DUP3 DUP8 ADD PUSH2 0x336 JUMP JUMPDEST SWAP4 POP POP PUSH1 0x20 DUP5 ADD CALLDATALOAD PUSH8 0xFFFFFFFFFFFFFFFF DUP2 GT ISZERO PUSH2 0x4B9 JUMPI PUSH2 0x4B8 PUSH2 0x219 JUMP JUMPDEST JUMPDEST PUSH2 0x4C5 DUP7 DUP3 DUP8 ADD PUSH2 0x336 JUMP JUMPDEST SWAP3 POP POP PUSH1 0x40 DUP5 ADD CALLDATALOAD PUSH8 0xFFFFFFFFFFFFFFFF DUP2 GT ISZERO PUSH2 0x4E6 JUMPI PUSH2 0x4E5 PUSH2 0x219 JUMP JUMPDEST JUMPDEST PUSH2 0x4F2 DUP7 DUP3 DUP8 ADD PUSH2 0x336 JUMP JUMPDEST SWAP2 POP POP SWAP3 POP SWAP3 POP SWAP3 JUMP JUMPDEST PUSH2 0x505 DUP2 PUSH2 0x364 JUMP JUMPDEST DUP3 MSTORE POP POP JUMP JUMPDEST PUSH1 0x0 PUSH1 0x20 DUP3 ADD SWAP1 POP PUSH2 0x520 PUSH1 0x0 DUP4 ADD DUP5 PUSH2 0x4FC JUMP JUMPDEST SWAP3 SWAP2 POP POP JUMP JUMPDEST PUSH1 0x0 DUP2 MLOAD SWAP1 POP SWAP2 SWAP1 POP JUMP JUMPDEST PUSH1 0x0 DUP2 SWAP1 POP SWAP3 SWAP2 POP POP JUMP JUMPDEST PUSH1 0x0 JUMPDEST DUP4 DUP2 LT ISZERO PUSH2 0x55A JUMPI DUP1 DUP3 ADD MLOAD DUP2 DUP5 ADD MSTORE PUSH1 0x20 DUP2 ADD SWAP1 POP PUSH2 0x53F JUMP JUMPDEST PUSH1 0x0 DUP5 DUP5 ADD MSTORE POP POP POP POP JUMP JUMPDEST PUSH1 0x0 PUSH2 0x571 DUP3 PUSH2 0x526 JUMP JUMPDEST PUSH2 0x57B DUP2 DUP6 PUSH2 0x531 JUMP JUMPDEST SWAP4 POP PUSH2 0x58B DUP2 DUP6 PUSH1 0x20 DUP7 ADD PUSH2 0x53C JUMP JUMPDEST DUP1 DUP5 ADD SWAP2 POP POP SWAP3 SWAP2 POP POP JUMP JUMPDEST PUSH1 0x0 PUSH2 0x5A3 DUP3 DUP5 PUSH2 0x566 JUMP JUMPDEST SWAP2 POP DUP2 SWAP1 POP SWAP3 SWAP2 POP POP JUMP JUMPDEST PUSH32 0x4E487B7100000000000000000000000000000000000000000000000000000000 PUSH1 0x0 MSTORE PUSH1 0x11 PUSH1 0x4 MSTORE PUSH1 0x24 PUSH1 0x0 REVERT JUMPDEST PUSH1 0x0 PUSH2 0x5E8 DUP3 PUSH2 0x364 JUMP JUMPDEST SWAP2 POP PUSH2 0x5F3 DUP4 PUSH2 0x364 JUMP JUMPDEST SWAP3 POP DUP3 DUP3 ADD SWAP1 POP DUP3 DUP2 SLT ISZERO PUSH1 0x0 DUP4 SLT AND DUP4 DUP3 SLT PUSH1 0x0 DUP5 SLT ISZERO AND OR ISZERO PUSH2 0x61B JUMPI PUSH2 0x61A PUSH2 0x5AE JUMP JUMPDEST JUMPDEST SWAP3 SWAP2 POP POP JUMP INVALID LOG2 PUSH5 0x6970667358 0x22 SLT KECCAK256 SLT KECCAK256 DELEGATECALL 0xEE PUSH1 0xCE DUP10 LT 0x24 0xAA CALLER DUP15 0xBE AND 0x5E 0xB1 0xE4 CODECOPY 0xC4 MLOAD MSTORE DUP1 PUSH20 0x209C1845A296CF555A64736F6C63430008120033 "
				},
				"gasEstimates": {
					"creation": {
						"codeDepositCost": "324600",
						"executionCost": "362",
						"totalCost": "324962"
					},
					"external": {
						"addValue(string,string,string,int256)": "infinite",
						"data(string,string,string)": "infinite",
						"getValue(string,string,string)": "infinite"
					}
				},
				"methodIdentifiers": {
					"addValue(string,string,string,int256)": "7a1a29fb",
					"data(string,string,string)": "a81bfb33",
					"getValue(string,string,string)": "aba5f544"
				}
			},
			"storageLayout": {
				"storage": [
					{
						"astId": 9,
						"contract": "reports.sol:Reports",
						"label": "data",
						"offset": 0,
						"slot": "0",
						"type": "t_mapping(t_string_memory_ptr,t_mapping(t_string_memory_ptr,t_mapping(t_string_memory_ptr,t_int256)))"
					}
				],
				"types": {
					"t_int256": {
						"encoding": "inplace",
						"label": "int256",
						"numberOfBytes": "32"
					},
					"t_mapping(t_string_memory_ptr,t_int256)": {
						"encoding": "mapping",
						"key": "t_string_memory_ptr",
						"label": "mapping(string => int256)",
						"numberOfBytes": "32",
						"value": "t_int256"
					},
					"t_mapping(t_string_memory_ptr,t_mapping(t_string_memory_ptr,t_int256))": {
						"encoding": "mapping",
						"key": "t_string_memory_ptr",
						"label": "mapping(string => mapping(string => int256))",
						"numberOfBytes": "32",
						"value": "t_mapping(t_string_memory_ptr,t_int256)"
					},
					"t_mapping(t_string_memory_ptr,t_mapping(t_string_memory_ptr,t_mapping(t_string_memory_ptr,t_int256)))": {
						"encoding": "mapping",
						"key": "t_string_memory_ptr",
						"label": "mapping(string => mapping(string => mapping(string => int256)))",
						"numberOfBytes": "32",
						"value": "t_mapping(t_string_memory_ptr,t_mapping(t_string_memory_ptr,t_int256))"
					},
					"t_string_memory_ptr": {
						"encoding": "bytes",
						"label": "string",
						"numberOfBytes": "32"
					}
				}
			},
			"userdoc": {
				"kind": "user",
				"methods": {},
				"version": 1
			}
		}
	}
}