{
  "_format": "hh-sol-artifact-1",
  "contractName": "E00030001Handler",
  "sourceName": "src/services/blockchain/contracts/e00030001Handler.sol",
  "abi": [
    {
      "inputs": [
        {
          "internalType": "address",
          "name": "_transactionContractAddress",
          "type": "address"
        },
        {
          "internalType": "address",
          "name": "_Parser",
          "type": "address"
        },
        {
          "internalType": "address",
          "name": "_reportAddress",
          "type": "address"
        }
      ],
      "stateMutability": "nonpayable",
      "type": "constructor"
    },
    {
      "anonymous": false,
      "inputs": [
        {
          "indexed": false,
          "internalType": "string",
          "name": "eventId",
          "type": "string"
        },
        {
          "indexed": false,
          "internalType": "int256",
          "name": "EP001",
          "type": "int256"
        },
        {
          "indexed": false,
          "internalType": "int256",
          "name": "EP002",
          "type": "int256"
        },
        {
          "indexed": false,
          "internalType": "int256",
          "name": "EP003",
          "type": "int256"
        },
        {
          "indexed": false,
          "internalType": "int256",
          "name": "EP004",
          "type": "int256"
        },
        {
          "indexed": false,
          "internalType": "int256",
          "name": "EP006",
          "type": "int256"
        },
        {
          "indexed": false,
          "internalType": "int256",
          "name": "EP007",
          "type": "int256"
        },
        {
          "indexed": false,
          "internalType": "int256",
          "name": "EP008",
          "type": "int256"
        },
        {
          "indexed": false,
          "internalType": "int256",
          "name": "EP009",
          "type": "int256"
        }
      ],
      "name": "EventEP001",
      "type": "event"
    },
    {
      "anonymous": false,
      "inputs": [
        {
          "indexed": false,
          "internalType": "string",
          "name": "eventId",
          "type": "string"
        },
        {
          "indexed": false,
          "internalType": "int256",
          "name": "SP002",
          "type": "int256"
        },
        {
          "indexed": false,
          "internalType": "int256",
          "name": "SP003",
          "type": "int256"
        },
        {
          "indexed": false,
          "internalType": "int256",
          "name": "SP004",
          "type": "int256"
        }
      ],
      "name": "EventIdAndRateReceived",
      "type": "event"
    },
    {
      "inputs": [],
      "name": "Iparser",
      "outputs": [
        {
          "internalType": "contract IParser",
          "name": "",
          "type": "address"
        }
      ],
      "stateMutability": "view",
      "type": "function"
    },
    {
      "inputs": [
        {
          "internalType": "bytes32",
          "name": "_eventId",
          "type": "bytes32"
        },
        {
          "internalType": "bytes32",
          "name": "_reportID",
          "type": "bytes32"
        },
        {
          "internalType": "bytes32",
          "name": "_SP002",
          "type": "bytes32"
        },
        {
          "internalType": "bytes32",
          "name": "_SP003",
          "type": "bytes32"
        },
        {
          "internalType": "bytes32",
          "name": "_SP004",
          "type": "bytes32"
        }
      ],
      "name": "getEventIdAndRate",
      "outputs": [],
      "stateMutability": "nonpayable",
      "type": "function"
    },
    {
      "inputs": [
        {
          "internalType": "bytes32[]",
          "name": "data",
          "type": "bytes32[]"
        },
        {
          "internalType": "address",
          "name": "recorder",
          "type": "address"
        }
      ],
      "name": "processTransaction",
      "outputs": [],
      "stateMutability": "nonpayable",
      "type": "function"
    },
    {
      "inputs": [],
      "name": "report",
      "outputs": [
        {
          "internalType": "contract Reports",
          "name": "",
          "type": "address"
        }
      ],
      "stateMutability": "view",
      "type": "function"
    }
  ],
  "bytecode": "0x60806040523480156200001157600080fd5b506040516200637638038062006376833981810160405281019062000037919062000119565b82600260006101000a81548173ffffffffffffffffffffffffffffffffffffffff021916908373ffffffffffffffffffffffffffffffffffffffff16021790555081600160006101000a81548173ffffffffffffffffffffffffffffffffffffffff021916908373ffffffffffffffffffffffffffffffffffffffff160217905550806000806101000a81548173ffffffffffffffffffffffffffffffffffffffff021916908373ffffffffffffffffffffffffffffffffffffffff160217905550505050620001bd565b6000815190506200011381620001a3565b92915050565b6000806000606084860312156200012f57600080fd5b60006200013f8682870162000102565b9350506020620001528682870162000102565b9250506040620001658682870162000102565b9150509250925092565b60006200017c8262000183565b9050919050565b600073ffffffffffffffffffffffffffffffffffffffff82169050919050565b620001ae816200016f565b8114620001ba57600080fd5b50565b6161a980620001cd6000396000f3fe608060405234801561001057600080fd5b506004361061004c5760003560e01c80631d4fd87f146100515780632606a10b1461006d578063e064d1991461008b578063e91046a9146100a9575b600080fd5b61006b6004803603810190610066919061398e565b6100c5565b005b610075610ea8565b6040516100829190614de3565b60405180910390f35b610093610ecc565b6040516100a09190614dc8565b60405180910390f35b6100c360048036038101906100be9190613911565b610ef2565b005b8260001c6003819055508160001c6004819055508060001c600581905550600160009054906101000a900473ffffffffffffffffffffffffffffffffffffffff1673ffffffffffffffffffffffffffffffffffffffff16639201de55866040518263ffffffff1660e01b815260040161013e9190614d23565b60006040518083038186803b15801561015657600080fd5b505afa15801561016a573d6000803e3d6000fd5b505050506040513d6000823e3d601f19601f820116820180604052508101906101939190613a2e565b600e90805190602001906101a892919061371c565b50600160009054906101000a900473ffffffffffffffffffffffffffffffffffffffff1673ffffffffffffffffffffffffffffffffffffffff16639201de55856040518263ffffffff1660e01b81526004016102049190614d23565b60006040518083038186803b15801561021c57600080fd5b505afa158015610230573d6000803e3d6000fd5b505050506040513d6000823e3d601f19601f820116820180604052508101906102599190613a2e565b600f908051906020019061026e92919061371c565b507fb620de9f970909d721ffb707c84b4e17fdfd5f2e77d42c78b5b3e72219b4c001600e6003546004546005546040516102ab9493929190614e92565b60405180910390a1600260009054906101000a900473ffffffffffffffffffffffffffffffffffffffff1673ffffffffffffffffffffffffffffffffffffffff1663419e413886600160009054906101000a900473ffffffffffffffffffffffffffffffffffffffff1673ffffffffffffffffffffffffffffffffffffffff1663cfb519286040518163ffffffff1660e01b815260040161034b90615ba0565b60206040518083038186803b15801561036357600080fd5b505afa158015610377573d6000803e3d6000fd5b505050506040513d601f19601f8201168201806040525081019061039b9190613965565b6040518363ffffffff1660e01b81526004016103b8929190614d3e565b60206040518083038186803b1580156103d057600080fd5b505afa1580156103e4573d6000803e3d6000fd5b505050506040513d601f19601f820116820180604052508101906104089190613a05565b600681905550600260009054906101000a900473ffffffffffffffffffffffffffffffffffffffff1673ffffffffffffffffffffffffffffffffffffffff1663419e413886600160009054906101000a900473ffffffffffffffffffffffffffffffffffffffff1673ffffffffffffffffffffffffffffffffffffffff1663cfb519286040518163ffffffff1660e01b81526004016104a690615ac0565b60206040518083038186803b1580156104be57600080fd5b505afa1580156104d2573d6000803e3d6000fd5b505050506040513d601f19601f820116820180604052508101906104f69190613965565b6040518363ffffffff1660e01b8152600401610513929190614d3e565b60206040518083038186803b15801561052b57600080fd5b505afa15801561053f573d6000803e3d6000fd5b505050506040513d601f19601f820116820180604052508101906105639190613a05565b600781905550600260009054906101000a900473ffffffffffffffffffffffffffffffffffffffff1673ffffffffffffffffffffffffffffffffffffffff1663419e413886600160009054906101000a900473ffffffffffffffffffffffffffffffffffffffff1673ffffffffffffffffffffffffffffffffffffffff1663cfb519286040518163ffffffff1660e01b815260040161060190615b40565b60206040518083038186803b15801561061957600080fd5b505afa15801561062d573d6000803e3d6000fd5b505050506040513d601f19601f820116820180604052508101906106519190613965565b6040518363ffffffff1660e01b815260040161066e929190614d3e565b60206040518083038186803b15801561068657600080fd5b505afa15801561069a573d6000803e3d6000fd5b505050506040513d601f19601f820116820180604052508101906106be9190613a05565b600881905550600260009054906101000a900473ffffffffffffffffffffffffffffffffffffffff1673ffffffffffffffffffffffffffffffffffffffff1663419e413886600160009054906101000a900473ffffffffffffffffffffffffffffffffffffffff1673ffffffffffffffffffffffffffffffffffffffff1663cfb519286040518163ffffffff1660e01b815260040161075c90615b80565b60206040518083038186803b15801561077457600080fd5b505afa158015610788573d6000803e3d6000fd5b505050506040513d601f19601f820116820180604052508101906107ac9190613965565b6040518363ffffffff1660e01b81526004016107c9929190614d3e565b60206040518083038186803b1580156107e157600080fd5b505afa1580156107f5573d6000803e3d6000fd5b505050506040513d601f19601f820116820180604052508101906108199190613a05565b600981905550600260009054906101000a900473ffffffffffffffffffffffffffffffffffffffff1673ffffffffffffffffffffffffffffffffffffffff1663419e413886600160009054906101000a900473ffffffffffffffffffffffffffffffffffffffff1673ffffffffffffffffffffffffffffffffffffffff1663cfb519286040518163ffffffff1660e01b81526004016108b790615bc0565b60206040518083038186803b1580156108cf57600080fd5b505afa1580156108e3573d6000803e3d6000fd5b505050506040513d601f19601f820116820180604052508101906109079190613965565b6040518363ffffffff1660e01b8152600401610924929190614d3e565b60206040518083038186803b15801561093c57600080fd5b505afa158015610950573d6000803e3d6000fd5b505050506040513d601f19601f820116820180604052508101906109749190613a05565b600a81905550600260009054906101000a900473ffffffffffffffffffffffffffffffffffffffff1673ffffffffffffffffffffffffffffffffffffffff1663419e413886600160009054906101000a900473ffffffffffffffffffffffffffffffffffffffff1673ffffffffffffffffffffffffffffffffffffffff1663cfb519286040518163ffffffff1660e01b8152600401610a1290615aa0565b60206040518083038186803b158015610a2a57600080fd5b505afa158015610a3e573d6000803e3d6000fd5b505050506040513d601f19601f82011682018060405250810190610a629190613965565b6040518363ffffffff1660e01b8152600401610a7f929190614d3e565b60206040518083038186803b158015610a9757600080fd5b505afa158015610aab573d6000803e3d6000fd5b505050506040513d601f19601f82011682018060405250810190610acf9190613a05565b600b81905550600260009054906101000a900473ffffffffffffffffffffffffffffffffffffffff1673ffffffffffffffffffffffffffffffffffffffff1663419e413886600160009054906101000a900473ffffffffffffffffffffffffffffffffffffffff1673ffffffffffffffffffffffffffffffffffffffff1663cfb519286040518163ffffffff1660e01b8152600401610b6d90615ae0565b60206040518083038186803b158015610b8557600080fd5b505afa158015610b99573d6000803e3d6000fd5b505050506040513d601f19601f82011682018060405250810190610bbd9190613965565b6040518363ffffffff1660e01b8152600401610bda929190614d3e565b60206040518083038186803b158015610bf257600080fd5b505afa158015610c06573d6000803e3d6000fd5b505050506040513d601f19601f82011682018060405250810190610c2a9190613a05565b600c81905550600260009054906101000a900473ffffffffffffffffffffffffffffffffffffffff1673ffffffffffffffffffffffffffffffffffffffff1663419e413886600160009054906101000a900473ffffffffffffffffffffffffffffffffffffffff1673ffffffffffffffffffffffffffffffffffffffff1663cfb519286040518163ffffffff1660e01b8152600401610cc890615b60565b60206040518083038186803b158015610ce057600080fd5b505afa158015610cf4573d6000803e3d6000fd5b505050506040513d601f19601f82011682018060405250810190610d189190613965565b6040518363ffffffff1660e01b8152600401610d35929190614d3e565b60206040518083038186803b158015610d4d57600080fd5b505afa158015610d61573d6000803e3d6000fd5b505050506040513d601f19601f82011682018060405250810190610d859190613a05565b600d819055507f8f3977fd3a0e48df4d5f08f7391f09827132f5d676dcea893785c224b14b77da600160009054906101000a900473ffffffffffffffffffffffffffffffffffffffff1673ffffffffffffffffffffffffffffffffffffffff16639201de55876040518263ffffffff1660e01b8152600401610e079190614d23565b60006040518083038186803b158015610e1f57600080fd5b505afa158015610e33573d6000803e3d6000fd5b505050506040513d6000823e3d601f19601f82011682018060405250810190610e5c9190613a2e565b600654600754600854600954600a54600b54600c54600d54604051610e8999989796959493929190614dfe565b60405180910390a1610e99611e41565b610ea16131c7565b5050505050565b60008054906101000a900473ffffffffffffffffffffffffffffffffffffffff1681565b600160009054906101000a900473ffffffffffffffffffffffffffffffffffffffff1681565b600a825114610f36576040517f08c379a0000000000000000000000000000000000000000000000000000000008152600401610f2d90615b00565b60405180910390fd5b6000600967ffffffffffffffff811115610f79577f4e487b7100000000000000000000000000000000000000000000000000000000600052604160045260246000fd5b604051908082528060200260200182016040528015610fa75781602001602082028036833780820191505090505b5090506000600967ffffffffffffffff811115610fed577f4e487b7100000000000000000000000000000000000000000000000000000000600052604160045260246000fd5b60405190808252806020026020018201604052801561101b5781602001602082028036833780820191505090505b509050600160009054906101000a900473ffffffffffffffffffffffffffffffffffffffff1673ffffffffffffffffffffffffffffffffffffffff1663cfb519286040518163ffffffff1660e01b815260040161107790615ba0565b60206040518083038186803b15801561108f57600080fd5b505afa1580156110a3573d6000803e3d6000fd5b505050506040513d601f19601f820116820180604052508101906110c79190613965565b82600081518110611101577f4e487b7100000000000000000000000000000000000000000000000000000000600052603260045260246000fd5b60200260200101818152505083600281518110611147577f4e487b7100000000000000000000000000000000000000000000000000000000600052603260045260246000fd5b602002602001015160001c8160008151811061118c577f4e487b7100000000000000000000000000000000000000000000000000000000600052603260045260246000fd5b602002602001018181525050600160009054906101000a900473ffffffffffffffffffffffffffffffffffffffff1673ffffffffffffffffffffffffffffffffffffffff1663cfb519286040518163ffffffff1660e01b81526004016111f190615ac0565b60206040518083038186803b15801561120957600080fd5b505afa15801561121d573d6000803e3d6000fd5b505050506040513d601f19601f820116820180604052508101906112419190613965565b8260018151811061127b577f4e487b7100000000000000000000000000000000000000000000000000000000600052603260045260246000fd5b602002602001018181525050836003815181106112c1577f4e487b7100000000000000000000000000000000000000000000000000000000600052603260045260246000fd5b602002602001015160001c81600181518110611306577f4e487b7100000000000000000000000000000000000000000000000000000000600052603260045260246000fd5b602002602001018181525050600160009054906101000a900473ffffffffffffffffffffffffffffffffffffffff1673ffffffffffffffffffffffffffffffffffffffff1663cfb519286040518163ffffffff1660e01b815260040161136b90615b40565b60206040518083038186803b15801561138357600080fd5b505afa158015611397573d6000803e3d6000fd5b505050506040513d601f19601f820116820180604052508101906113bb9190613965565b826002815181106113f5577f4e487b7100000000000000000000000000000000000000000000000000000000600052603260045260246000fd5b6020026020010181815250508360048151811061143b577f4e487b7100000000000000000000000000000000000000000000000000000000600052603260045260246000fd5b602002602001015160001c81600281518110611480577f4e487b7100000000000000000000000000000000000000000000000000000000600052603260045260246000fd5b602002602001018181525050600160009054906101000a900473ffffffffffffffffffffffffffffffffffffffff1673ffffffffffffffffffffffffffffffffffffffff1663cfb519286040518163ffffffff1660e01b81526004016114e590615b80565b60206040518083038186803b1580156114fd57600080fd5b505afa158015611511573d6000803e3d6000fd5b505050506040513d601f19601f820116820180604052508101906115359190613965565b8260038151811061156f577f4e487b7100000000000000000000000000000000000000000000000000000000600052603260045260246000fd5b60200260200101818152505042816003815181106115b6577f4e487b7100000000000000000000000000000000000000000000000000000000600052603260045260246000fd5b602002602001018181525050600160009054906101000a900473ffffffffffffffffffffffffffffffffffffffff1673ffffffffffffffffffffffffffffffffffffffff1663cfb519286040518163ffffffff1660e01b815260040161161b90615b20565b60206040518083038186803b15801561163357600080fd5b505afa158015611647573d6000803e3d6000fd5b505050506040513d601f19601f8201168201806040525081019061166b9190613965565b826004815181106116a5577f4e487b7100000000000000000000000000000000000000000000000000000000600052603260045260246000fd5b602002602001018181525050836005815181106116eb577f4e487b7100000000000000000000000000000000000000000000000000000000600052603260045260246000fd5b602002602001015160001c81600481518110611730577f4e487b7100000000000000000000000000000000000000000000000000000000600052603260045260246000fd5b602002602001018181525050600160009054906101000a900473ffffffffffffffffffffffffffffffffffffffff1673ffffffffffffffffffffffffffffffffffffffff1663cfb519286040518163ffffffff1660e01b815260040161179590615bc0565b60206040518083038186803b1580156117ad57600080fd5b505afa1580156117c1573d6000803e3d6000fd5b505050506040513d601f19601f820116820180604052508101906117e59190613965565b8260058151811061181f577f4e487b7100000000000000000000000000000000000000000000000000000000600052603260045260246000fd5b60200260200101818152505083600681518110611865577f4e487b7100000000000000000000000000000000000000000000000000000000600052603260045260246000fd5b602002602001015160001c816005815181106118aa577f4e487b7100000000000000000000000000000000000000000000000000000000600052603260045260246000fd5b602002602001018181525050600160009054906101000a900473ffffffffffffffffffffffffffffffffffffffff1673ffffffffffffffffffffffffffffffffffffffff1663cfb519286040518163ffffffff1660e01b815260040161190f90615aa0565b60206040518083038186803b15801561192757600080fd5b505afa15801561193b573d6000803e3d6000fd5b505050506040513d601f19601f8201168201806040525081019061195f9190613965565b82600681518110611999577f4e487b7100000000000000000000000000000000000000000000000000000000600052603260045260246000fd5b602002602001018181525050836007815181106119df577f4e487b7100000000000000000000000000000000000000000000000000000000600052603260045260246000fd5b602002602001015160001c81600681518110611a24577f4e487b7100000000000000000000000000000000000000000000000000000000600052603260045260246000fd5b602002602001018181525050600160009054906101000a900473ffffffffffffffffffffffffffffffffffffffff1673ffffffffffffffffffffffffffffffffffffffff1663cfb519286040518163ffffffff1660e01b8152600401611a8990615ae0565b60206040518083038186803b158015611aa157600080fd5b505afa158015611ab5573d6000803e3d6000fd5b505050506040513d601f19601f82011682018060405250810190611ad99190613965565b82600781518110611b13577f4e487b7100000000000000000000000000000000000000000000000000000000600052603260045260246000fd5b60200260200101818152505083600881518110611b59577f4e487b7100000000000000000000000000000000000000000000000000000000600052603260045260246000fd5b602002602001015160001c81600781518110611b9e577f4e487b7100000000000000000000000000000000000000000000000000000000600052603260045260246000fd5b602002602001018181525050600160009054906101000a900473ffffffffffffffffffffffffffffffffffffffff1673ffffffffffffffffffffffffffffffffffffffff1663cfb519286040518163ffffffff1660e01b8152600401611c0390615b60565b60206040518083038186803b158015611c1b57600080fd5b505afa158015611c2f573d6000803e3d6000fd5b505050506040513d601f19601f82011682018060405250810190611c539190613965565b82600881518110611c8d577f4e487b7100000000000000000000000000000000000000000000000000000000600052603260045260246000fd5b60200260200101818152505083600981518110611cd3577f4e487b7100000000000000000000000000000000000000000000000000000000600052603260045260246000fd5b602002602001015160001c81600881518110611d18577f4e487b7100000000000000000000000000000000000000000000000000000000600052603260045260246000fd5b602002602001018181525050600260009054906101000a900473ffffffffffffffffffffffffffffffffffffffff1673ffffffffffffffffffffffffffffffffffffffff1663ed40bbd585600081518110611d9c577f4e487b7100000000000000000000000000000000000000000000000000000000600052603260045260246000fd5b602002602001015186600181518110611dde577f4e487b7100000000000000000000000000000000000000000000000000000000600052603260045260246000fd5b60200260200101518686866040518663ffffffff1660e01b8152600401611e09959493929190614d67565b600060405180830381600087803b158015611e2357600080fd5b505af1158015611e37573d6000803e3d6000fd5b5050505050505050565b6000670de0b6b3a7640000600354600954611e5c9190615e0e565b611e669190615da4565b905060008054906101000a900473ffffffffffffffffffffffffffffffffffffffff1673ffffffffffffffffffffffffffffffffffffffff16637a1a29fb600f836040518363ffffffff1660e01b8152600401611ec4929190614f8a565b600060405180830381600087803b158015611ede57600080fd5b505af1158015611ef2573d6000803e3d6000fd5b5050505060008054906101000a900473ffffffffffffffffffffffffffffffffffffffff1673ffffffffffffffffffffffffffffffffffffffff16637a1a29fb600f836040518363ffffffff1660e01b8152600401611f529291906153e8565b600060405180830381600087803b158015611f6c57600080fd5b505af1158015611f80573d6000803e3d6000fd5b505050506000600954905060008054906101000a900473ffffffffffffffffffffffffffffffffffffffff1673ffffffffffffffffffffffffffffffffffffffff16637a1a29fb600f836040518363ffffffff1660e01b8152600401611fe792919061523a565b600060405180830381600087803b15801561200157600080fd5b505af1158015612015573d6000803e3d6000fd5b505050506000670de0b6b3a7640000600354600d546120349190615e0e565b6003546006546120449190615e0e565b61204e9190615d10565b6120589190615da4565b905060008054906101000a900473ffffffffffffffffffffffffffffffffffffffff1673ffffffffffffffffffffffffffffffffffffffff16637a1a29fb600f836040518363ffffffff1660e01b81526004016120b69291906156ee565b600060405180830381600087803b1580156120d057600080fd5b505af11580156120e4573d6000803e3d6000fd5b5050505060008054906101000a900473ffffffffffffffffffffffffffffffffffffffff1673ffffffffffffffffffffffffffffffffffffffff16637a1a29fb600f836040518363ffffffff1660e01b81526004016121449291906151e4565b600060405180830381600087803b15801561215e57600080fd5b505af1158015612172573d6000803e3d6000fd5b505050506000600d546006546121889190615d10565b905060008054906101000a900473ffffffffffffffffffffffffffffffffffffffff1673ffffffffffffffffffffffffffffffffffffffff16637a1a29fb600f836040518363ffffffff1660e01b81526004016121e6929190615540565b600060405180830381600087803b15801561220057600080fd5b505af1158015612214573d6000803e3d6000fd5b505050506000670de0b6b3a7640000600354600d546122339190615e0e565b6003546009546006546122469190615d10565b6122509190615e0e565b61225a9190615d10565b6122649190615da4565b905060008054906101000a900473ffffffffffffffffffffffffffffffffffffffff1673ffffffffffffffffffffffffffffffffffffffff16637a1a29fb600f836040518363ffffffff1660e01b81526004016122c292919061518e565b600060405180830381600087803b1580156122dc57600080fd5b505af11580156122f0573d6000803e3d6000fd5b5050505060008054906101000a900473ffffffffffffffffffffffffffffffffffffffff1673ffffffffffffffffffffffffffffffffffffffff16637a1a29fb600f836040518363ffffffff1660e01b8152600401612350929190615036565b600060405180830381600087803b15801561236a57600080fd5b505af115801561237e573d6000803e3d6000fd5b50505050600060035460085461239390616018565b61239d9190615e0e565b905060008054906101000a900473ffffffffffffffffffffffffffffffffffffffff1673ffffffffffffffffffffffffffffffffffffffff16637a1a29fb600f836040518363ffffffff1660e01b81526004016123fb9291906154ea565b600060405180830381600087803b15801561241557600080fd5b505af1158015612429573d6000803e3d6000fd5b5050505060008054906101000a900473ffffffffffffffffffffffffffffffffffffffff1673ffffffffffffffffffffffffffffffffffffffff16637a1a29fb600f836040518363ffffffff1660e01b8152600401612489929190615744565b600060405180830381600087803b1580156124a357600080fd5b505af11580156124b7573d6000803e3d6000fd5b5050505060006008546124c990616018565b905060008054906101000a900473ffffffffffffffffffffffffffffffffffffffff1673ffffffffffffffffffffffffffffffffffffffff16637a1a29fb600f836040518363ffffffff1660e01b81526004016125279291906155ec565b600060405180830381600087803b15801561254157600080fd5b505af1158015612555573d6000803e3d6000fd5b505050506000670de0b6b3a7640000600354600c5461257390616018565b61257d9190615e0e565b60035460085461258d9190615e0e565b60055460075461259d9190615e0e565b6125a79190615d10565b6125b19190615d10565b6125bb9190615da4565b905060008054906101000a900473ffffffffffffffffffffffffffffffffffffffff1673ffffffffffffffffffffffffffffffffffffffff16637a1a29fb600f836040518363ffffffff1660e01b81526004016126199291906150e2565b600060405180830381600087803b15801561263357600080fd5b505af1158015612647573d6000803e3d6000fd5b505050506000600c5461265990616018565b6007546126669190615d10565b905060008054906101000a900473ffffffffffffffffffffffffffffffffffffffff1673ffffffffffffffffffffffffffffffffffffffff16637a1a29fb600f836040518363ffffffff1660e01b81526004016126c4929190614ede565b600060405180830381600087803b1580156126de57600080fd5b505af11580156126f2573d6000803e3d6000fd5b505050506000670de0b6b3a7640000600354600c5461271090616018565b61271a9190615e0e565b60055460075461272a9190615e0e565b6127349190615d10565b61273e9190615da4565b905060008054906101000a900473ffffffffffffffffffffffffffffffffffffffff1673ffffffffffffffffffffffffffffffffffffffff16637a1a29fb600f836040518363ffffffff1660e01b815260040161279c9291906152e6565b600060405180830381600087803b1580156127b657600080fd5b505af11580156127ca573d6000803e3d6000fd5b505050506000600854905060008054906101000a900473ffffffffffffffffffffffffffffffffffffffff1673ffffffffffffffffffffffffffffffffffffffff16637a1a29fb600f836040518363ffffffff1660e01b815260040161283192919061579a565b600060405180830381600087803b15801561284b57600080fd5b505af115801561285f573d6000803e3d6000fd5b505050506000670de0b6b3a764000060035460085461287e9190615e0e565b6128889190615da4565b905060008054906101000a900473ffffffffffffffffffffffffffffffffffffffff1673ffffffffffffffffffffffffffffffffffffffff16637a1a29fb600f836040518363ffffffff1660e01b81526004016128e6929190614f34565b600060405180830381600087803b15801561290057600080fd5b505af1158015612914573d6000803e3d6000fd5b505050506000670de0b6b3a7640000600354600c5461293290616018565b61293c9190615e0e565b60055460075461294c9190615e0e565b60035460085461295c9190615e0e565b60035460085461296b90616018565b6129759190615e0e565b61297f9190615d10565b6129899190615d10565b6129939190615d10565b61299d9190615da4565b905060008054906101000a900473ffffffffffffffffffffffffffffffffffffffff1673ffffffffffffffffffffffffffffffffffffffff16637a1a29fb600f836040518363ffffffff1660e01b81526004016129fb929190614fe0565b600060405180830381600087803b158015612a1557600080fd5b505af1158015612a29573d6000803e3d6000fd5b505050506000670de0b6b3a7640000600354600d54612a489190615e0e565b600354600954612a589190615e0e565b600354600c54612a6790616018565b612a719190615e0e565b600554600754612a819190615e0e565b600354600854612a919190615e0e565b600354600854612aa090616018565b612aaa9190615e0e565b612ab49190615d10565b612abe9190615d10565b612ac89190615d10565b612ad29190615d10565b612adc9190615d10565b612ae69190615da4565b905060008054906101000a900473ffffffffffffffffffffffffffffffffffffffff1673ffffffffffffffffffffffffffffffffffffffff16637a1a29fb600f836040518363ffffffff1660e01b8152600401612b4492919061533c565b600060405180830381600087803b158015612b5e57600080fd5b505af1158015612b72573d6000803e3d6000fd5b505050506000670de0b6b3a7640000600354600d54612b919190615e0e565b600354600954612ba19190615e0e565b612bab9190615d10565b612bb59190615da4565b905060008054906101000a900473ffffffffffffffffffffffffffffffffffffffff1673ffffffffffffffffffffffffffffffffffffffff16637a1a29fb600f836040518363ffffffff1660e01b8152600401612c13929190615642565b600060405180830381600087803b158015612c2d57600080fd5b505af1158015612c41573d6000803e3d6000fd5b5050505060008054906101000a900473ffffffffffffffffffffffffffffffffffffffff1673ffffffffffffffffffffffffffffffffffffffff16637a1a29fb600f836040518363ffffffff1660e01b8152600401612ca192919061508c565b600060405180830381600087803b158015612cbb57600080fd5b505af1158015612ccf573d6000803e3d6000fd5b505050506000600d54600954612ce59190615d10565b905060008054906101000a900473ffffffffffffffffffffffffffffffffffffffff1673ffffffffffffffffffffffffffffffffffffffff16637a1a29fb600f836040518363ffffffff1660e01b8152600401612d43929190615698565b600060405180830381600087803b158015612d5d57600080fd5b505af1158015612d71573d6000803e3d6000fd5b505050506000670de0b6b3a7640000600354600754612d8f90616018565b612d999190615e0e565b600354600654612da99190615e0e565b612db39190615d10565b612dbd9190615da4565b905060008054906101000a900473ffffffffffffffffffffffffffffffffffffffff1673ffffffffffffffffffffffffffffffffffffffff16637a1a29fb600f836040518363ffffffff1660e01b8152600401612e1b929190615290565b600060405180830381600087803b158015612e3557600080fd5b505af1158015612e49573d6000803e3d6000fd5b505050506000600654905060008054906101000a900473ffffffffffffffffffffffffffffffffffffffff1673ffffffffffffffffffffffffffffffffffffffff16637a1a29fb600f836040518363ffffffff1660e01b8152600401612eb0929190615392565b600060405180830381600087803b158015612eca57600080fd5b505af1158015612ede573d6000803e3d6000fd5b505050506000600354600654612ef49190615e0e565b905060008054906101000a900473ffffffffffffffffffffffffffffffffffffffff1673ffffffffffffffffffffffffffffffffffffffff16637a1a29fb600f836040518363ffffffff1660e01b8152600401612f52929190615494565b600060405180830381600087803b158015612f6c57600080fd5b505af1158015612f80573d6000803e3d6000fd5b505050506000600754612f9290616018565b905060008054906101000a900473ffffffffffffffffffffffffffffffffffffffff1673ffffffffffffffffffffffffffffffffffffffff16637a1a29fb600f836040518363ffffffff1660e01b8152600401612ff092919061543e565b600060405180830381600087803b15801561300a57600080fd5b505af115801561301e573d6000803e3d6000fd5b505050506000670de0b6b3a764000060055460075461303c90616018565b6130469190615e0e565b6130509190615da4565b905060008054906101000a900473ffffffffffffffffffffffffffffffffffffffff1673ffffffffffffffffffffffffffffffffffffffff16637a1a29fb600f836040518363ffffffff1660e01b81526004016130ae929190615596565b600060405180830381600087803b1580156130c857600080fd5b505af11580156130dc573d6000803e3d6000fd5b505050506000670de0b6b3a7640000600354600d546130fb9190615e0e565b60035460095461310b9190615e0e565b6131159190615d10565b61311f9190615da4565b905060008054906101000a900473ffffffffffffffffffffffffffffffffffffffff1673ffffffffffffffffffffffffffffffffffffffff16637a1a29fb600f836040518363ffffffff1660e01b815260040161317d929190615138565b600060405180830381600087803b15801561319757600080fd5b505af11580156131ab573d6000803e3d6000fd5b5050505050505050505050505050505050505050505050505050565b6000670de0b6b3a7640000600a54600d546131e29190615e0e565b600a54600c546131f29190615e0e565b600a546009546132029190615e0e565b61320c9190615d10565b6132169190615d10565b6132209190615da4565b905060008054906101000a900473ffffffffffffffffffffffffffffffffffffffff1673ffffffffffffffffffffffffffffffffffffffff16637a1a29fb600f836040518363ffffffff1660e01b815260040161327e929190615948565b600060405180830381600087803b15801561329857600080fd5b505af11580156132ac573d6000803e3d6000fd5b5050505060008054906101000a900473ffffffffffffffffffffffffffffffffffffffff1673ffffffffffffffffffffffffffffffffffffffff16637a1a29fb600f836040518363ffffffff1660e01b815260040161330c9291906158f2565b600060405180830381600087803b15801561332657600080fd5b505af115801561333a573d6000803e3d6000fd5b505050506000670de0b6b3a7640000600a54600d546133599190615e0e565b600a54600c546133699190615e0e565b6133739190615d10565b61337d9190615da4565b905060008054906101000a900473ffffffffffffffffffffffffffffffffffffffff1673ffffffffffffffffffffffffffffffffffffffff16637a1a29fb600f836040518363ffffffff1660e01b81526004016133db9291906159f4565b600060405180830381600087803b1580156133f557600080fd5b505af1158015613409573d6000803e3d6000fd5b5050505060008054906101000a900473ffffffffffffffffffffffffffffffffffffffff1673ffffffffffffffffffffffffffffffffffffffff16637a1a29fb600f836040518363ffffffff1660e01b815260040161346992919061589c565b600060405180830381600087803b15801561348357600080fd5b505af1158015613497573d6000803e3d6000fd5b505050506000600d54600c546134ad9190615d10565b905060008054906101000a900473ffffffffffffffffffffffffffffffffffffffff1673ffffffffffffffffffffffffffffffffffffffff16637a1a29fb600f836040518363ffffffff1660e01b815260040161350b929190615846565b600060405180830381600087803b15801561352557600080fd5b505af1158015613539573d6000803e3d6000fd5b505050506000670de0b6b3a7640000600a546009546135589190615e0e565b6135629190615da4565b905060008054906101000a900473ffffffffffffffffffffffffffffffffffffffff1673ffffffffffffffffffffffffffffffffffffffff16637a1a29fb600f836040518363ffffffff1660e01b81526004016135c092919061599e565b600060405180830381600087803b1580156135da57600080fd5b505af11580156135ee573d6000803e3d6000fd5b5050505060008054906101000a900473ffffffffffffffffffffffffffffffffffffffff1673ffffffffffffffffffffffffffffffffffffffff16637a1a29fb600f836040518363ffffffff1660e01b815260040161364e929190615a4a565b600060405180830381600087803b15801561366857600080fd5b505af115801561367c573d6000803e3d6000fd5b505050506000600954905060008054906101000a900473ffffffffffffffffffffffffffffffffffffffff1673ffffffffffffffffffffffffffffffffffffffff16637a1a29fb600f836040518363ffffffff1660e01b81526004016136e39291906157f0565b600060405180830381600087803b1580156136fd57600080fd5b505af1158015613711573d6000803e3d6000fd5b505050505050505050565b82805461372890615fe6565b90600052602060002090601f01602090048101928261374a5760008555613791565b82601f1061376357805160ff1916838001178555613791565b82800160010185558215613791579182015b82811115613790578251825591602001919060010190613775565b5b50905061379e91906137a2565b5090565b5b808211156137bb5760008160009055506001016137a3565b5090565b60006137d26137cd84615c11565b615be0565b905080838252602082019050828560208602820111156137f157600080fd5b60005b85811015613821578161380788826138a8565b8452602084019350602083019250506001810190506137f4565b5050509392505050565b600061383e61383984615c3d565b615be0565b90508281526020810184848401111561385657600080fd5b613861848285615fb3565b509392505050565b6000813590506138788161612e565b92915050565b600082601f83011261388f57600080fd5b813561389f8482602086016137bf565b91505092915050565b6000813590506138b781616145565b92915050565b6000815190506138cc81616145565b92915050565b6000815190506138e18161615c565b92915050565b600082601f8301126138f857600080fd5b815161390884826020860161382b565b91505092915050565b6000806040838503121561392457600080fd5b600083013567ffffffffffffffff81111561393e57600080fd5b61394a8582860161387e565b925050602061395b85828601613869565b9150509250929050565b60006020828403121561397757600080fd5b6000613985848285016138bd565b91505092915050565b600080600080600060a086880312156139a657600080fd5b60006139b4888289016138a8565b95505060206139c5888289016138a8565b94505060406139d6888289016138a8565b93505060606139e7888289016138a8565b92505060806139f8888289016138a8565b9150509295509295909350565b600060208284031215613a1757600080fd5b6000613a25848285016138d2565b91505092915050565b600060208284031215613a4057600080fd5b600082015167ffffffffffffffff811115613a5a57600080fd5b613a66848285016138e7565b91505092915050565b6000613a7b8383613b6a565b60208301905092915050565b6000613a938383613ba6565b60208301905092915050565b613aa881615f25565b82525050565b6000613ab982615ca2565b613ac38185615cdd565b9350613ace83615c6d565b8060005b83811015613aff578151613ae68882613a6f565b9750613af183615cc3565b925050600181019050613ad2565b5085935050505092915050565b6000613b1782615cad565b613b218185615cee565b9350613b2c83615c7d565b8060005b83811015613b5d578151613b448882613a87565b9750613b4f83615cd0565b925050600181019050613b30565b5085935050505092915050565b613b7381615f37565b82525050565b613b8281615f37565b82525050565b613b9181615f6b565b82525050565b613ba081615f8f565b82525050565b613baf81615f41565b82525050565b613bbe81615f41565b82525050565b6000613bcf82615cb8565b613bd98185615cff565b9350613be9818560208601615fb3565b613bf28161611d565b840191505092915050565b60008154613c0a81615fe6565b613c148186615cff565b94506001821660008114613c2f5760018114613c4157613c74565b60ff1983168652602086019350613c74565b613c4a85615c8d565b60005b83811015613c6c57815481890152600182019150602081019050613c4d565b808801955050505b50505092915050565b6000613c8a603883615cff565b91507f6c696162696c69746965732e64657461696c732e6163636f756e74735061796160008301527f626c652e627265616b646f776e2e4254432e616d6f756e7400000000000000006020830152604082019050919050565b6000613cf0603c83615cff565b91507f6c696162696c69746965732e64657461696c732e6163636f756e74735061796160008301527f626c652e627265616b646f776e2e555344542e6661697256616c7565000000006020830152604082019050919050565b6000613d56603283615cff565b91507f6173736574732e64657461696c732e63727970746f63757272656e63792e746f60008301527f74616c416d6f756e744661697256616c756500000000000000000000000000006020830152604082019050919050565b6000613dbc603683615cff565b91507f696e636f6d652e64657461696c732e67756172616e7465656453746f7046656560008301527f2e627265616b646f776e2e555344542e616d6f756e74000000000000000000006020830152604082019050919050565b6000613e22602183615cff565b91507f6c696162696c69746965732e746f74616c416d6f756e744661697256616c756560008301527f20000000000000000000000000000000000000000000000000000000000000006020830152604082019050919050565b6000613e88601483615cff565b91507f746f74616c4173736574734661697256616c75650000000000000000000000006000830152602082019050919050565b6000613ec8600583615cff565b91507f45503030370000000000000000000000000000000000000000000000000000006000830152602082019050919050565b6000613f08603383615cff565b91507f696e636f6d652e64657461696c732e7472616e73616374696f6e4665652e627260008301527f65616b646f776e2e555344542e616d6f756e74000000000000000000000000006020830152604082019050919050565b6000613f6e600583615cff565b91507f45503030320000000000000000000000000000000000000000000000000000006000830152602082019050919050565b6000613fae603883615cff565b91507f6571756974792e64657461696c732e72657461696e65644561726e696e67732e60008301527f627265616b646f776e2e555344542e6661697256616c756500000000000000006020830152604082019050919050565b6000614014604183615cff565b91507f20696e636f6d652e64657461696c732e7472616e73616374696f6e4665652e6260008301527f7265616b646f776e2e555344542e776569676874656441766572616765436f7360208301527f74000000000000000000000000000000000000000000000000000000000000006040830152606082019050919050565b60006140a0600583615cff565b91507f45503030380000000000000000000000000000000000000000000000000000006000830152602082019050919050565b60006140e0603883615cff565b91507f6c696162696c69746965732e64657461696c732e6163636f756e74735061796160008301527f626c652e746f74616c416d6f756e744661697256616c756500000000000000006020830152604082019050919050565b6000614146601b83615cff565b91507f6571756974792e746f74616c416d6f756e744661697256616c756500000000006000830152602082019050919050565b6000614186601b83615cff565b91507f6173736574732e746f74616c416d6f756e744661697256616c756500000000006000830152602082019050919050565b60006141c6600983615cff565b91507f6e657450726f66697400000000000000000000000000000000000000000000006000830152602082019050919050565b6000614206602483615cff565b91507f44617461206c656e67746820666f7220453030303330303031206d757374206260008301527f65203130000000000000000000000000000000000000000000000000000000006020830152604082019050919050565b600061426c601a83615cff565b91507f696e636f6d652e776569676874656441766572616765436f73740000000000006000830152602082019050919050565b60006142ac603a83615cff565b91507f6173736574732e64657461696c732e6163636f756e747352656365697661626c60008301527f652e627265616b646f776e2e555344542e6661697256616c75650000000000006020830152604082019050919050565b6000614312603383615cff565b91507f6173736574732e64657461696c732e63727970746f63757272656e63792e627260008301527f65616b646f776e2e555344542e616d6f756e74000000000000000000000000006020830152604082019050919050565b6000614378602c83615cff565b91507f6571756974792e64657461696c732e6f746865724361706974616c526573657260008301527f76652e6661697256616c756500000000000000000000000000000000000000006020830152604082019050919050565b60006143de603483615cff565b91507f696e636f6d652e64657461696c732e67756172616e7465656453746f7046656560008301527f2e776569676874656441766572616765436f73740000000000000000000000006020830152604082019050919050565b6000614444603b83615cff565b91507f6c696162696c69746965732e64657461696c732e6163636f756e74735061796160008301527f626c652e627265616b646f776e2e4254432e6661697256616c756500000000006020830152604082019050919050565b60006144aa602283615cff565b91507f746f74616c4c696162696c6974696573416e644571756974794661697256616c60008301527f75650000000000000000000000000000000000000000000000000000000000006020830152604082019050919050565b6000614510603883615cff565b91507f6571756974792e64657461696c732e6f746865724361706974616c526573657260008301527f76652e627265616b646f776e2e555344542e616d6f756e7400000000000000006020830152604082019050919050565b6000614576603683615cff565b91507f6173736574732e64657461696c732e63727970746f63757272656e63792e627260008301527f65616b646f776e2e555344542e6661697256616c7565000000000000000000006020830152604082019050919050565b60006145dc603783615cff565b91507f6571756974792e64657461696c732e6f746865724361706974616c526573657260008301527f76652e627265616b646f776e2e4254432e616d6f756e740000000000000000006020830152604082019050919050565b6000614642603b83615cff565b91507f6571756974792e64657461696c732e6f746865724361706974616c526573657260008301527f76652e627265616b646f776e2e555344542e6661697256616c756500000000006020830152604082019050919050565b60006146a8603483615cff565b91507f6c696162696c69746965732e64657461696c732e757365724465706f7369742e60008301527f746f74616c416d6f756e744661697256616c75650000000000000000000000006020830152604082019050919050565b600061470e603783615cff565b91507f6173736574732e64657461696c732e6163636f756e747352656365697661626c60008301527f652e627265616b646f776e2e555344542e616d6f756e740000000000000000006020830152604082019050919050565b6000614774603a83615cff565b91507f6571756974792e64657461696c732e6f746865724361706974616c526573657260008301527f76652e627265616b646f776e2e4254432e6661697256616c75650000000000006020830152604082019050919050565b60006147da603583615cff565b91507f6c696162696c69746965732e64657461696c732e757365724465706f7369742e60008301527f627265616b646f776e2e555344542e616d6f756e7400000000000000000000006020830152604082019050919050565b6000614840600a83615cff565b91507f7472616e735f74696d65000000000000000000000000000000000000000000006000830152602082019050919050565b6000614880600583615cff565b91507f45503030330000000000000000000000000000000000000000000000000000006000830152602082019050919050565b60006148c0603483615cff565b91507f6571756974792e64657461696c732e72657461696e65644561726e696e67732e60008301527f746f74616c416d6f756e744661697256616c75650000000000000000000000006020830152604082019050919050565b6000614926600c83615cff565b91507f62616c616e6365536865657400000000000000000000000000000000000000006000830152602082019050919050565b6000614966600583615cff565b91507f45503030390000000000000000000000000000000000000000000000000000006000830152602082019050919050565b60006149a6600583615cff565b91507f45503030340000000000000000000000000000000000000000000000000000006000830152602082019050919050565b60006149e6603583615cff565b91507f6571756974792e64657461696c732e72657461696e65644561726e696e67732e60008301527f627265616b646f776e2e555344542e616d6f756e7400000000000000000000006020830152604082019050919050565b6000614a4c603683615cff565b91507f6173736574732e64657461696c732e6163636f756e747352656365697661626c60008301527f652e746f74616c416d6f756e744661697256616c7565000000000000000000006020830152604082019050919050565b6000614ab2603183615cff565b91507f696e636f6d652e64657461696c732e7472616e73616374696f6e4665652e776560008301527f69676874656441766572616765436f73740000000000000000000000000000006020830152604082019050919050565b6000614b18600583615cff565b91507f45503030310000000000000000000000000000000000000000000000000000006000830152602082019050919050565b6000614b58603883615cff565b91507f6c696162696c69746965732e64657461696c732e757365724465706f7369742e60008301527f627265616b646f776e2e555344542e6661697256616c756500000000000000006020830152604082019050919050565b6000614bbe604383615cff565b91507f696e636f6d652e64657461696c732e67756172616e7465656453746f7046656560008301527f2e627265616b646f776e2e555344542e7765696768746564417665726167654360208301527f6f737400000000000000000000000000000000000000000000000000000000006040830152606082019050919050565b6000614c4a600583615cff565b91507f45503030360000000000000000000000000000000000000000000000000000006000830152602082019050919050565b6000614c8a601383615cff565b91507f636f6d70726568656e73697665496e636f6d65000000000000000000000000006000830152602082019050919050565b6000614cca603983615cff565b91507f6c696162696c69746965732e64657461696c732e6163636f756e74735061796160008301527f626c652e627265616b646f776e2e555344542e616d6f756e74000000000000006020830152604082019050919050565b6000602082019050614d386000830184613b79565b92915050565b6000604082019050614d536000830185613b79565b614d606020830184613b79565b9392505050565b600060a082019050614d7c6000830188613b79565b614d896020830187613b79565b614d966040830186613a9f565b8181036060830152614da88185613aae565b90508181036080830152614dbc8184613b0c565b90509695505050505050565b6000602082019050614ddd6000830184613b88565b92915050565b6000602082019050614df86000830184613b97565b92915050565b6000610120820190508181036000830152614e19818c613bc4565b9050614e28602083018b613bb5565b614e35604083018a613bb5565b614e426060830189613bb5565b614e4f6080830188613bb5565b614e5c60a0830187613bb5565b614e6960c0830186613bb5565b614e7660e0830185613bb5565b614e84610100830184613bb5565b9a9950505050505050505050565b60006080820190508181036000830152614eac8187613bfd565b9050614ebb6020830186613bb5565b614ec86040830185613bb5565b614ed56060830184613bb5565b95945050505050565b60006080820190508181036000830152614ef88185613bfd565b90508181036020830152614f0b81614919565b90508181036040830152614f1e81613c7d565b9050614f2d6060830184613bb5565b9392505050565b60006080820190508181036000830152614f4e8185613bfd565b90508181036020830152614f6181614919565b90508181036040830152614f7481613ce3565b9050614f836060830184613bb5565b9392505050565b60006080820190508181036000830152614fa48185613bfd565b90508181036020830152614fb781614919565b90508181036040830152614fca81613d49565b9050614fd96060830184613bb5565b9392505050565b60006080820190508181036000830152614ffa8185613bfd565b9050818103602083015261500d81614919565b9050818103604083015261502081613e15565b905061502f6060830184613bb5565b9392505050565b600060808201905081810360008301526150508185613bfd565b9050818103602083015261506381614919565b9050818103604083015261507681613e7b565b90506150856060830184613bb5565b9392505050565b600060808201905081810360008301526150a68185613bfd565b905081810360208301526150b981614919565b905081810360408301526150cc81613fa1565b90506150db6060830184613bb5565b9392505050565b600060808201905081810360008301526150fc8185613bfd565b9050818103602083015261510f81614919565b90508181036040830152615122816140d3565b90506151316060830184613bb5565b9392505050565b600060808201905081810360008301526151528185613bfd565b9050818103602083015261516581614919565b9050818103604083015261517881614139565b90506151876060830184613bb5565b9392505050565b600060808201905081810360008301526151a88185613bfd565b905081810360208301526151bb81614919565b905081810360408301526151ce81614179565b90506151dd6060830184613bb5565b9392505050565b600060808201905081810360008301526151fe8185613bfd565b9050818103602083015261521181614919565b905081810360408301526152248161429f565b90506152336060830184613bb5565b9392505050565b600060808201905081810360008301526152548185613bfd565b9050818103602083015261526781614919565b9050818103604083015261527a81614305565b90506152896060830184613bb5565b9392505050565b600060808201905081810360008301526152aa8185613bfd565b905081810360208301526152bd81614919565b905081810360408301526152d08161436b565b90506152df6060830184613bb5565b9392505050565b600060808201905081810360008301526153008185613bfd565b9050818103602083015261531381614919565b9050818103604083015261532681614437565b90506153356060830184613bb5565b9392505050565b600060808201905081810360008301526153568185613bfd565b9050818103602083015261536981614919565b9050818103604083015261537c8161449d565b905061538b6060830184613bb5565b9392505050565b600060808201905081810360008301526153ac8185613bfd565b905081810360208301526153bf81614919565b905081810360408301526153d281614503565b90506153e16060830184613bb5565b9392505050565b600060808201905081810360008301526154028185613bfd565b9050818103602083015261541581614919565b9050818103604083015261542881614569565b90506154376060830184613bb5565b9392505050565b600060808201905081810360008301526154588185613bfd565b9050818103602083015261546b81614919565b9050818103604083015261547e816145cf565b905061548d6060830184613bb5565b9392505050565b600060808201905081810360008301526154ae8185613bfd565b905081810360208301526154c181614919565b905081810360408301526154d481614635565b90506154e36060830184613bb5565b9392505050565b600060808201905081810360008301526155048185613bfd565b9050818103602083015261551781614919565b9050818103604083015261552a8161469b565b90506155396060830184613bb5565b9392505050565b6000608082019050818103600083015261555a8185613bfd565b9050818103602083015261556d81614919565b9050818103604083015261558081614701565b905061558f6060830184613bb5565b9392505050565b600060808201905081810360008301526155b08185613bfd565b905081810360208301526155c381614919565b905081810360408301526155d681614767565b90506155e56060830184613bb5565b9392505050565b600060808201905081810360008301526156068185613bfd565b9050818103602083015261561981614919565b9050818103604083015261562c816147cd565b905061563b6060830184613bb5565b9392505050565b6000608082019050818103600083015261565c8185613bfd565b9050818103602083015261566f81614919565b90508181036040830152615682816148b3565b90506156916060830184613bb5565b9392505050565b600060808201905081810360008301526156b28185613bfd565b905081810360208301526156c581614919565b905081810360408301526156d8816149d9565b90506156e76060830184613bb5565b9392505050565b600060808201905081810360008301526157088185613bfd565b9050818103602083015261571b81614919565b9050818103604083015261572e81614a3f565b905061573d6060830184613bb5565b9392505050565b6000608082019050818103600083015261575e8185613bfd565b9050818103602083015261577181614919565b9050818103604083015261578481614b4b565b90506157936060830184613bb5565b9392505050565b600060808201905081810360008301526157b48185613bfd565b905081810360208301526157c781614919565b905081810360408301526157da81614cbd565b90506157e96060830184613bb5565b9392505050565b6000608082019050818103600083015261580a8185613bfd565b9050818103602083015261581d81614c7d565b9050818103604083015261583081613daf565b905061583f6060830184613bb5565b9392505050565b600060808201905081810360008301526158608185613bfd565b9050818103602083015261587381614c7d565b9050818103604083015261588681613efb565b90506158956060830184613bb5565b9392505050565b600060808201905081810360008301526158b68185613bfd565b905081810360208301526158c981614c7d565b905081810360408301526158dc81614007565b90506158eb6060830184613bb5565b9392505050565b6000608082019050818103600083015261590c8185613bfd565b9050818103602083015261591f81614c7d565b90508181036040830152615932816141b9565b90506159416060830184613bb5565b9392505050565b600060808201905081810360008301526159628185613bfd565b9050818103602083015261597581614c7d565b905081810360408301526159888161425f565b90506159976060830184613bb5565b9392505050565b600060808201905081810360008301526159b88185613bfd565b905081810360208301526159cb81614c7d565b905081810360408301526159de816143d1565b90506159ed6060830184613bb5565b9392505050565b60006080820190508181036000830152615a0e8185613bfd565b90508181036020830152615a2181614c7d565b90508181036040830152615a3481614aa5565b9050615a436060830184613bb5565b9392505050565b60006080820190508181036000830152615a648185613bfd565b90508181036020830152615a7781614c7d565b90508181036040830152615a8a81614bb1565b9050615a996060830184613bb5565b9392505050565b60006020820190508181036000830152615ab981613ebb565b9050919050565b60006020820190508181036000830152615ad981613f61565b9050919050565b60006020820190508181036000830152615af981614093565b9050919050565b60006020820190508181036000830152615b19816141f9565b9050919050565b60006020820190508181036000830152615b3981614833565b9050919050565b60006020820190508181036000830152615b5981614873565b9050919050565b60006020820190508181036000830152615b7981614959565b9050919050565b60006020820190508181036000830152615b9981614999565b9050919050565b60006020820190508181036000830152615bb981614b0b565b9050919050565b60006020820190508181036000830152615bd981614c3d565b9050919050565b6000604051905081810181811067ffffffffffffffff82111715615c0757615c066160ee565b5b8060405250919050565b600067ffffffffffffffff821115615c2c57615c2b6160ee565b5b602082029050602081019050919050565b600067ffffffffffffffff821115615c5857615c576160ee565b5b601f19601f8301169050602081019050919050565b6000819050602082019050919050565b6000819050602082019050919050565b60008190508160005260206000209050919050565b600081519050919050565b600081519050919050565b600081519050919050565b6000602082019050919050565b6000602082019050919050565b600082825260208201905092915050565b600082825260208201905092915050565b600082825260208201905092915050565b6000615d1b82615f41565b9150615d2683615f41565b9250817f7fffffffffffffffffffffffffffffffffffffffffffffffffffffffffffffff03831360008312151615615d6157615d60616061565b5b817f8000000000000000000000000000000000000000000000000000000000000000038312600083121615615d9957615d98616061565b5b828201905092915050565b6000615daf82615f41565b9150615dba83615f41565b925082615dca57615dc9616090565b5b600160000383147f800000000000000000000000000000000000000000000000000000000000000083141615615e0357615e02616061565b5b828205905092915050565b6000615e1982615f41565b9150615e2483615f41565b9250827f7fffffffffffffffffffffffffffffffffffffffffffffffffffffffffffffff0482116000841360008413161615615e6357615e62616061565b5b817f80000000000000000000000000000000000000000000000000000000000000000583126000841260008413161615615ea057615e9f616061565b5b827f80000000000000000000000000000000000000000000000000000000000000000582126000841360008412161615615edd57615edc616061565b5b827f7fffffffffffffffffffffffffffffffffffffffffffffffffffffffffffffff0582126000841260008412161615615f1a57615f19616061565b5b828202905092915050565b6000615f3082615f4b565b9050919050565b6000819050919050565b6000819050919050565b600073ffffffffffffffffffffffffffffffffffffffff82169050919050565b6000615f7682615f7d565b9050919050565b6000615f8882615f4b565b9050919050565b6000615f9a82615fa1565b9050919050565b6000615fac82615f4b565b9050919050565b60005b83811015615fd1578082015181840152602081019050615fb6565b83811115615fe0576000848401525b50505050565b60006002820490506001821680615ffe57607f821691505b60208210811415616012576160116160bf565b5b50919050565b600061602382615f41565b91507f800000000000000000000000000000000000000000000000000000000000000082141561605657616055616061565b5b816000039050919050565b7f4e487b7100000000000000000000000000000000000000000000000000000000600052601160045260246000fd5b7f4e487b7100000000000000000000000000000000000000000000000000000000600052601260045260246000fd5b7f4e487b7100000000000000000000000000000000000000000000000000000000600052602260045260246000fd5b7f4e487b7100000000000000000000000000000000000000000000000000000000600052604160045260246000fd5b6000601f19601f8301169050919050565b61613781615f25565b811461614257600080fd5b50565b61614e81615f37565b811461615957600080fd5b50565b61616581615f41565b811461617057600080fd5b5056fea2646970667358221220d1b1fa9afda532cd01d0bdceeedc56dedced689e3063505fe0b8b31fd6fefb4364736f6c63430008000033",
  "linkReferences": {},
  "deployedLinkReferences": {}
}