{
  "_format": "hh-sol-artifact-1",
  "contractName": "E00010001_2_3_7_Handler",
  "sourceName": "src/services/blockchain/contracts/e00010001_2_3_7_Handler.sol",
  "abi": [
    {
      "inputs": [
        {
          "internalType": "contract TransactionContract",
          "name": "_transactionContract",
          "type": "address"
        },
        {
          "internalType": "address",
          "name": "_parser",
          "type": "address"
        }
      ],
      "stateMutability": "nonpayable",
      "type": "constructor"
    },
    {
      "inputs": [],
      "name": "Iparser",
      "outputs": [
        {
          "internalType": "contract IParser",
          "name": "",
          "type": "address"
        }
      ],
      "stateMutability": "view",
      "type": "function"
    },
    {
      "inputs": [
        {
          "internalType": "bytes32[]",
          "name": "data",
          "type": "bytes32[]"
        },
        {
          "internalType": "address",
          "name": "recorder",
          "type": "address"
        }
      ],
      "name": "processTransaction",
      "outputs": [],
      "stateMutability": "nonpayable",
      "type": "function"
    }
  ],
  "bytecode": "0x60806040523480156200001157600080fd5b50604051620012f9380380620012f98339818101604052810190620000379190620000ee565b81600160006101000a81548173ffffffffffffffffffffffffffffffffffffffff021916908373ffffffffffffffffffffffffffffffffffffffff160217905550806000806101000a81548173ffffffffffffffffffffffffffffffffffffffff021916908373ffffffffffffffffffffffffffffffffffffffff1602179055505050620001ab565b600081519050620000d18162000177565b92915050565b600081519050620000e88162000191565b92915050565b600080604083850312156200010257600080fd5b60006200011285828601620000d7565b92505060206200012585828601620000c0565b9150509250929050565b60006200013c8262000157565b9050919050565b600062000150826200012f565b9050919050565b600073ffffffffffffffffffffffffffffffffffffffff82169050919050565b62000182816200012f565b81146200018e57600080fd5b50565b6200019c8162000143565b8114620001a857600080fd5b50565b61113e80620001bb6000396000f3fe608060405234801561001057600080fd5b50600436106100365760003560e01c8063e064d1991461003b578063e91046a914610059575b600080fd5b610043610075565b6040516100509190610e86565b60405180910390f35b610073600480360381019061006e9190610acb565b610099565b005b60008054906101000a900473ffffffffffffffffffffffffffffffffffffffff1681565b60068251146100dd576040517f08c379a00000000000000000000000000000000000000000000000000000000081526004016100d490610f21565b60405180910390fd5b6000600567ffffffffffffffff811115610120577f4e487b7100000000000000000000000000000000000000000000000000000000600052604160045260246000fd5b60405190808252806020026020018201604052801561014e5781602001602082028036833780820191505090505b5090506000600567ffffffffffffffff811115610194577f4e487b7100000000000000000000000000000000000000000000000000000000600052604160045260246000fd5b6040519080825280602002602001820160405280156101c25781602001602082028036833780820191505090505b50905060008054906101000a900473ffffffffffffffffffffffffffffffffffffffff1673ffffffffffffffffffffffffffffffffffffffff1663cfb519286040518163ffffffff1660e01b815260040161021c90610f41565b60206040518083038186803b15801561023457600080fd5b505afa158015610248573d6000803e3d6000fd5b505050506040513d601f19601f8201168201806040525081019061026c9190610b1f565b826000815181106102a6577f4e487b7100000000000000000000000000000000000000000000000000000000600052603260045260246000fd5b602002602001018181525050836002815181106102ec577f4e487b7100000000000000000000000000000000000000000000000000000000600052603260045260246000fd5b602002602001015160001c81600081518110610331577f4e487b7100000000000000000000000000000000000000000000000000000000600052603260045260246000fd5b60200260200101818152505060008054906101000a900473ffffffffffffffffffffffffffffffffffffffff1673ffffffffffffffffffffffffffffffffffffffff1663cfb519286040518163ffffffff1660e01b815260040161039490610ea1565b60206040518083038186803b1580156103ac57600080fd5b505afa1580156103c0573d6000803e3d6000fd5b505050506040513d601f19601f820116820180604052508101906103e49190610b1f565b8260018151811061041e577f4e487b7100000000000000000000000000000000000000000000000000000000600052603260045260246000fd5b60200260200101818152505083600381518110610464577f4e487b7100000000000000000000000000000000000000000000000000000000600052603260045260246000fd5b602002602001015160001c816001815181106104a9577f4e487b7100000000000000000000000000000000000000000000000000000000600052603260045260246000fd5b60200260200101818152505060008054906101000a900473ffffffffffffffffffffffffffffffffffffffff1673ffffffffffffffffffffffffffffffffffffffff1663cfb519286040518163ffffffff1660e01b815260040161050c90610f01565b60206040518083038186803b15801561052457600080fd5b505afa158015610538573d6000803e3d6000fd5b505050506040513d601f19601f8201168201806040525081019061055c9190610b1f565b82600281518110610596577f4e487b7100000000000000000000000000000000000000000000000000000000600052603260045260246000fd5b602002602001018181525050836004815181106105dc577f4e487b7100000000000000000000000000000000000000000000000000000000600052603260045260246000fd5b602002602001015160001c81600281518110610621577f4e487b7100000000000000000000000000000000000000000000000000000000600052603260045260246000fd5b60200260200101818152505060008054906101000a900473ffffffffffffffffffffffffffffffffffffffff1673ffffffffffffffffffffffffffffffffffffffff1663cfb519286040518163ffffffff1660e01b815260040161068490610ee1565b60206040518083038186803b15801561069c57600080fd5b505afa1580156106b0573d6000803e3d6000fd5b505050506040513d601f19601f820116820180604052508101906106d49190610b1f565b8260038151811061070e577f4e487b7100000000000000000000000000000000000000000000000000000000600052603260045260246000fd5b6020026020010181815250504281600381518110610755577f4e487b7100000000000000000000000000000000000000000000000000000000600052603260045260246000fd5b60200260200101818152505060008054906101000a900473ffffffffffffffffffffffffffffffffffffffff1673ffffffffffffffffffffffffffffffffffffffff1663cfb519286040518163ffffffff1660e01b81526004016107b890610ec1565b60206040518083038186803b1580156107d057600080fd5b505afa1580156107e4573d6000803e3d6000fd5b505050506040513d601f19601f820116820180604052508101906108089190610b1f565b82600481518110610842577f4e487b7100000000000000000000000000000000000000000000000000000000600052603260045260246000fd5b60200260200101818152505083600581518110610888577f4e487b7100000000000000000000000000000000000000000000000000000000600052603260045260246000fd5b602002602001015160001c816004815181106108cd577f4e487b7100000000000000000000000000000000000000000000000000000000600052603260045260246000fd5b602002602001018181525050600160009054906101000a900473ffffffffffffffffffffffffffffffffffffffff1673ffffffffffffffffffffffffffffffffffffffff1663ed40bbd585600081518110610951577f4e487b7100000000000000000000000000000000000000000000000000000000600052603260045260246000fd5b602002602001015186600181518110610993577f4e487b7100000000000000000000000000000000000000000000000000000000600052603260045260246000fd5b60200260200101518686866040518663ffffffff1660e01b81526004016109be959493929190610e25565b600060405180830381600087803b1580156109d857600080fd5b505af11580156109ec573d6000803e3d6000fd5b5050505050505050565b6000610a09610a0484610f92565b610f61565b90508083825260208201905082856020860282011115610a2857600080fd5b60005b85811015610a585781610a3e8882610aa1565b845260208401935060208301925050600181019050610a2b565b5050509392505050565b600081359050610a71816110da565b92915050565b600082601f830112610a8857600080fd5b8135610a988482602086016109f6565b91505092915050565b600081359050610ab0816110f1565b92915050565b600081519050610ac5816110f1565b92915050565b60008060408385031215610ade57600080fd5b600083013567ffffffffffffffff811115610af857600080fd5b610b0485828601610a77565b9250506020610b1585828601610a62565b9150509250929050565b600060208284031215610b3157600080fd5b6000610b3f84828501610ab6565b91505092915050565b6000610b548383610c43565b60208301905092915050565b6000610b6c8383610c70565b60208301905092915050565b610b8181611041565b82525050565b6000610b9282610fde565b610b9c818561100e565b9350610ba783610fbe565b8060005b83811015610bd8578151610bbf8882610b48565b9750610bca83610ff4565b925050600181019050610bab565b5085935050505092915050565b6000610bf082610fe9565b610bfa818561101f565b9350610c0583610fce565b8060005b83811015610c36578151610c1d8882610b60565b9750610c2883611001565b925050600181019050610c09565b5085935050505092915050565b610c4c81611053565b82525050565b610c5b81611053565b82525050565b610c6a81611087565b82525050565b610c798161105d565b82525050565b6000610c8c600583611030565b91507f45503030320000000000000000000000000000000000000000000000000000006000830152602082019050919050565b6000610ccc600583611030565b91507f45503030350000000000000000000000000000000000000000000000000000006000830152602082019050919050565b6000610d0c600a83611030565b91507f7472616e735f74696d65000000000000000000000000000000000000000000006000830152602082019050919050565b6000610d4c600583611030565b91507f45503030330000000000000000000000000000000000000000000000000000006000830152602082019050919050565b6000610d8c602983611030565b91507f44617461206c656e67746820666f72204530303031303030315f325f335f372060008301527f6d757374206265203600000000000000000000000000000000000000000000006020830152604082019050919050565b6000610df2600583611030565b91507f45503030310000000000000000000000000000000000000000000000000000006000830152602082019050919050565b600060a082019050610e3a6000830188610c52565b610e476020830187610c52565b610e546040830186610b78565b8181036060830152610e668185610b87565b90508181036080830152610e7a8184610be5565b90509695505050505050565b6000602082019050610e9b6000830184610c61565b92915050565b60006020820190508181036000830152610eba81610c7f565b9050919050565b60006020820190508181036000830152610eda81610cbf565b9050919050565b60006020820190508181036000830152610efa81610cff565b9050919050565b60006020820190508181036000830152610f1a81610d3f565b9050919050565b60006020820190508181036000830152610f3a81610d7f565b9050919050565b60006020820190508181036000830152610f5a81610de5565b9050919050565b6000604051905081810181811067ffffffffffffffff82111715610f8857610f876110ab565b5b8060405250919050565b600067ffffffffffffffff821115610fad57610fac6110ab565b5b602082029050602081019050919050565b6000819050602082019050919050565b6000819050602082019050919050565b600081519050919050565b600081519050919050565b6000602082019050919050565b6000602082019050919050565b600082825260208201905092915050565b600082825260208201905092915050565b600082825260208201905092915050565b600061104c82611067565b9050919050565b6000819050919050565b6000819050919050565b600073ffffffffffffffffffffffffffffffffffffffff82169050919050565b600061109282611099565b9050919050565b60006110a482611067565b9050919050565b7f4e487b7100000000000000000000000000000000000000000000000000000000600052604160045260246000fd5b6110e381611041565b81146110ee57600080fd5b50565b6110fa81611053565b811461110557600080fd5b5056fea26469706673582212203e0d97dabba09ac6d3e113279ef70445eeec8d766166b05ee7577ddb030a5ef264736f6c63430008000033",
  "linkReferences": {},
  "deployedLinkReferences": {}
}