{
  "_format": "hh-sol-artifact-1",
  "contractName": "GetTransactionTimeSpan",
  "sourceName": "src/services/blockchain/contracts/getTransactionTimeSpan.sol",
  "abi": [
    {
      "inputs": [
        {
          "internalType": "address",
          "name": "_transactionContractAddress",
          "type": "address"
        },
        {
          "internalType": "address",
          "name": "_parser",
          "type": "address"
        },
        {
          "internalType": "address",
          "name": "_E00010001",
          "type": "address"
        },
        {
          "internalType": "address",
          "name": "_E00010002",
          "type": "address"
        },
        {
          "internalType": "address",
          "name": "_E00010003",
          "type": "address"
        },
        {
          "internalType": "address",
          "name": "_E00010004",
          "type": "address"
        },
        {
          "internalType": "address",
          "name": "_E00010005",
          "type": "address"
        },
        {
          "internalType": "address",
          "name": "_E00010006",
          "type": "address"
        },
        {
          "internalType": "address",
          "name": "_E00010007",
          "type": "address"
        },
        {
          "internalType": "address",
          "name": "_E00010008",
          "type": "address"
        }
      ],
      "stateMutability": "nonpayable",
      "type": "constructor"
    },
    {
      "anonymous": false,
      "inputs": [
        {
          "indexed": true,
          "internalType": "bytes32",
          "name": "reportID",
          "type": "bytes32"
        },
        {
          "indexed": false,
          "internalType": "bytes32",
          "name": "eventType",
          "type": "bytes32"
        }
      ],
      "name": "TransactionProcessed",
      "type": "event"
    },
    {
      "anonymous": false,
      "inputs": [
        {
          "indexed": false,
          "internalType": "bytes32",
          "name": "datatypes",
          "type": "bytes32"
        },
        {
          "indexed": false,
          "internalType": "bytes32",
          "name": "keccak",
          "type": "bytes32"
        }
      ],
      "name": "itshere",
      "type": "event"
    },
    {
      "inputs": [],
      "name": "Iparser",
      "outputs": [
        {
          "internalType": "contract IParser",
          "name": "",
          "type": "address"
        }
      ],
      "stateMutability": "view",
      "type": "function"
    },
    {
      "inputs": [],
      "name": "e00010001",
      "outputs": [
        {
          "internalType": "contract E00010001",
          "name": "",
          "type": "address"
        }
      ],
      "stateMutability": "view",
      "type": "function"
    },
    {
      "inputs": [],
      "name": "e00010002",
      "outputs": [
        {
          "internalType": "contract E00010002",
          "name": "",
          "type": "address"
        }
      ],
      "stateMutability": "view",
      "type": "function"
    },
    {
      "inputs": [],
      "name": "e00010003",
      "outputs": [
        {
          "internalType": "contract E00010003",
          "name": "",
          "type": "address"
        }
      ],
      "stateMutability": "view",
      "type": "function"
    },
    {
      "inputs": [],
      "name": "e00010004",
      "outputs": [
        {
          "internalType": "contract E00010004",
          "name": "",
          "type": "address"
        }
      ],
      "stateMutability": "view",
      "type": "function"
    },
    {
      "inputs": [],
      "name": "e00010005",
      "outputs": [
        {
          "internalType": "contract E00010005",
          "name": "",
          "type": "address"
        }
      ],
      "stateMutability": "view",
      "type": "function"
    },
    {
      "inputs": [],
      "name": "e00010006",
      "outputs": [
        {
          "internalType": "contract E00010006",
          "name": "",
          "type": "address"
        }
      ],
      "stateMutability": "view",
      "type": "function"
    },
    {
      "inputs": [],
      "name": "e00010007",
      "outputs": [
        {
          "internalType": "contract E00010007",
          "name": "",
          "type": "address"
        }
      ],
      "stateMutability": "view",
      "type": "function"
    },
    {
      "inputs": [],
      "name": "e00010008",
      "outputs": [
        {
          "internalType": "contract E00010008",
          "name": "",
          "type": "address"
        }
      ],
      "stateMutability": "view",
      "type": "function"
    },
    {
      "inputs": [
        {
          "internalType": "int256",
          "name": "startTime",
          "type": "int256"
        },
        {
          "internalType": "int256",
          "name": "endTime",
          "type": "int256"
        },
        {
          "internalType": "bytes32",
          "name": "_reportID",
          "type": "bytes32"
        }
      ],
      "name": "filterTransactionsInRange",
      "outputs": [
        {
          "components": [
            {
              "internalType": "bytes32[]",
              "name": "types",
              "type": "bytes32[]"
            },
            {
              "internalType": "bytes32[]",
              "name": "eventIds",
              "type": "bytes32[]"
            },
            {
              "internalType": "int256[]",
              "name": "transTimes",
              "type": "int256[]"
            },
            {
              "internalType": "address",
              "name": "reportCreater",
              "type": "address"
            },
            {
              "internalType": "bytes32",
              "name": "reportID",
              "type": "bytes32"
            }
          ],
          "internalType": "struct GetTransactionTimeSpan.FilteredData",
          "name": "",
          "type": "tuple"
        }
      ],
      "stateMutability": "nonpayable",
      "type": "function"
    },
    {
      "inputs": [
        {
          "internalType": "uint256",
          "name": "",
          "type": "uint256"
        }
      ],
      "name": "rateHistory",
      "outputs": [
        {
          "internalType": "int256",
          "name": "SP001",
          "type": "int256"
        },
        {
          "internalType": "bytes32",
          "name": "SP002",
          "type": "bytes32"
        },
        {
          "internalType": "bytes32",
          "name": "SP003",
          "type": "bytes32"
        },
        {
          "internalType": "bytes32",
          "name": "SP004",
          "type": "bytes32"
        },
        {
          "internalType": "bytes32",
          "name": "reportID",
          "type": "bytes32"
        }
      ],
      "stateMutability": "view",
      "type": "function"
    },
    {
      "inputs": [
        {
          "internalType": "bytes32",
          "name": "_SP002",
          "type": "bytes32"
        },
        {
          "internalType": "bytes32",
          "name": "_SP003",
          "type": "bytes32"
        },
        {
          "internalType": "bytes32",
          "name": "_SP004",
          "type": "bytes32"
        },
        {
          "internalType": "bytes32",
          "name": "_reportID",
          "type": "bytes32"
        }
      ],
      "name": "setRate",
      "outputs": [],
      "stateMutability": "nonpayable",
      "type": "function"
    },
    {
      "inputs": [
        {
          "internalType": "int256",
          "name": "_SP002",
          "type": "int256"
        },
        {
          "internalType": "int256",
          "name": "_SP003",
          "type": "int256"
        },
        {
          "internalType": "int256",
          "name": "_SP004",
          "type": "int256"
        }
      ],
      "name": "setRateDecimal",
      "outputs": [],
      "stateMutability": "nonpayable",
      "type": "function"
    },
    {
      "inputs": [],
      "name": "transactionContract",
      "outputs": [
        {
          "internalType": "contract TransactionContract",
          "name": "",
          "type": "address"
        }
      ],
      "stateMutability": "view",
      "type": "function"
    }
  ],
  "bytecode": "0x60806040523480156200001157600080fd5b5060405162003818380380620038188339818101604052810190620000379190620002e8565b89600160006101000a81548173ffffffffffffffffffffffffffffffffffffffff021916908373ffffffffffffffffffffffffffffffffffffffff16021790555088600260006101000a81548173ffffffffffffffffffffffffffffffffffffffff021916908373ffffffffffffffffffffffffffffffffffffffff16021790555087600360006101000a81548173ffffffffffffffffffffffffffffffffffffffff021916908373ffffffffffffffffffffffffffffffffffffffff16021790555086600460006101000a81548173ffffffffffffffffffffffffffffffffffffffff021916908373ffffffffffffffffffffffffffffffffffffffff16021790555085600560006101000a81548173ffffffffffffffffffffffffffffffffffffffff021916908373ffffffffffffffffffffffffffffffffffffffff16021790555084600660006101000a81548173ffffffffffffffffffffffffffffffffffffffff021916908373ffffffffffffffffffffffffffffffffffffffff16021790555083600760006101000a81548173ffffffffffffffffffffffffffffffffffffffff021916908373ffffffffffffffffffffffffffffffffffffffff16021790555082600860006101000a81548173ffffffffffffffffffffffffffffffffffffffff021916908373ffffffffffffffffffffffffffffffffffffffff16021790555081600960006101000a81548173ffffffffffffffffffffffffffffffffffffffff021916908373ffffffffffffffffffffffffffffffffffffffff16021790555080600a60006101000a81548173ffffffffffffffffffffffffffffffffffffffff021916908373ffffffffffffffffffffffffffffffffffffffff1602179055505050505050505050505062000426565b600081519050620002e2816200040c565b92915050565b6000806000806000806000806000806101408b8d0312156200030957600080fd5b6000620003198d828e01620002d1565b9a505060206200032c8d828e01620002d1565b99505060406200033f8d828e01620002d1565b9850506060620003528d828e01620002d1565b9750506080620003658d828e01620002d1565b96505060a0620003788d828e01620002d1565b95505060c06200038b8d828e01620002d1565b94505060e06200039e8d828e01620002d1565b935050610100620003b28d828e01620002d1565b925050610120620003c68d828e01620002d1565b9150509295989b9194979a5092959850565b6000620003e582620003ec565b9050919050565b600073ffffffffffffffffffffffffffffffffffffffff82169050919050565b6200041781620003d8565b81146200042357600080fd5b50565b6133e280620004366000396000f3fe608060405234801561001057600080fd5b50600436106100ea5760003560e01c80636d762e7b1161008c578063a511b07711610066578063a511b0771461023f578063a6a1d0c51461025d578063e064d1991461027b578063fb9c260614610299576100ea565b80636d762e7b146101e757806380cbba5b1461020557806399eb0dbc14610223576100ea565b80633df81812116100c85780633df81812146101495780634a6943ab1461017d5780635a14fa8b1461019b57806361c6e151146101cb576100ea565b806301f74982146100ef5780631f45275b1461010d57806324250b161461012b575b600080fd5b6100f76102b7565b6040516101049190612e3f565b60405180910390f35b6101156102dd565b6040516101229190612eab565b60405180910390f35b610133610303565b6040516101409190612e24565b60405180910390f35b610163600480360381019061015e91906127fd565b610329565b604051610174959493929190612ec6565b60405180910390f35b61018561036f565b6040516101929190612e5a565b60405180910390f35b6101b560048036038101906101b0919061275f565b610395565b6040516101c29190613039565b60405180910390f35b6101e560048036038101906101e091906126d3565b610c21565b005b6101ef610cb3565b6040516101fc9190612e75565b60405180910390f35b61020d610cd9565b60405161021a9190612dee565b60405180910390f35b61023d600480360381019061023891906127ae565b610cff565b005b610247610dc1565b6040516102549190612e09565b60405180910390f35b610265610de7565b6040516102729190612dd3565b60405180910390f35b610283610e0d565b6040516102909190612e90565b60405180910390f35b6102a1610e33565b6040516102ae9190612db8565b60405180910390f35b600860009054906101000a900473ffffffffffffffffffffffffffffffffffffffff1681565b600160009054906101000a900473ffffffffffffffffffffffffffffffffffffffff1681565b600760009054906101000a900473ffffffffffffffffffffffffffffffffffffffff1681565b6000818154811061033957600080fd5b90600052602060002090600502016000915090508060000154908060010154908060020154908060030154908060040154905085565b600960009054906101000a900473ffffffffffffffffffffffffffffffffffffffff1681565b61039d6125e4565b6000600160009054906101000a900473ffffffffffffffffffffffffffffffffffffffff1673ffffffffffffffffffffffffffffffffffffffff1663578cb8f96040518163ffffffff1660e01b815260040160206040518083038186803b15801561040757600080fd5b505afa15801561041b573d6000803e3d6000fd5b505050506040513d601f19601f8201168201806040525081019061043f9190612826565b905060008167ffffffffffffffff811115610483577f4e487b7100000000000000000000000000000000000000000000000000000000600052604160045260246000fd5b6040519080825280602002602001820160405280156104b15781602001602082028036833780820191505090505b50905060008267ffffffffffffffff8111156104f6577f4e487b7100000000000000000000000000000000000000000000000000000000600052604160045260246000fd5b6040519080825280602002602001820160405280156105245781602001602082028036833780820191505090505b50905060008367ffffffffffffffff811115610569577f4e487b7100000000000000000000000000000000000000000000000000000000600052604160045260246000fd5b6040519080825280602002602001820160405280156105975781602001602082028036833780820191505090505b50905060003390506000805b868110156108b8576000600160009054906101000a900473ffffffffffffffffffffffffffffffffffffffff1673ffffffffffffffffffffffffffffffffffffffff1663fadc6bc6836040518263ffffffff1660e01b8152600401610608919061305b565b60206040518083038186803b15801561062057600080fd5b505afa158015610634573d6000803e3d6000fd5b505050506040513d601f19601f820116820180604052508101906106589190612736565b90508b811215801561066a57508a8113155b156108a457600160009054906101000a900473ffffffffffffffffffffffffffffffffffffffff1673ffffffffffffffffffffffffffffffffffffffff1663e09576f0836040518263ffffffff1660e01b81526004016106ca919061305b565b60206040518083038186803b1580156106e257600080fd5b505afa1580156106f6573d6000803e3d6000fd5b505050506040513d601f19601f8201168201806040525081019061071a91906126aa565b878481518110610753577f4e487b7100000000000000000000000000000000000000000000000000000000600052603260045260246000fd5b602002602001018181525050600160009054906101000a900473ffffffffffffffffffffffffffffffffffffffff1673ffffffffffffffffffffffffffffffffffffffff16639b4e3420836040518263ffffffff1660e01b81526004016107ba919061305b565b60206040518083038186803b1580156107d257600080fd5b505afa1580156107e6573d6000803e3d6000fd5b505050506040513d601f19601f8201168201806040525081019061080a91906126aa565b868481518110610843577f4e487b7100000000000000000000000000000000000000000000000000000000600052603260045260246000fd5b60200260200101818152505080858481518110610889577f4e487b7100000000000000000000000000000000000000000000000000000000600052603260045260246000fd5b60200260200101818152505082806108a0906132e5565b9350505b5080806108b0906132e5565b9150506105a3565b5060008167ffffffffffffffff8111156108fb577f4e487b7100000000000000000000000000000000000000000000000000000000600052604160045260246000fd5b6040519080825280602002602001820160405280156109295781602001602082028036833780820191505090505b50905060008267ffffffffffffffff81111561096e577f4e487b7100000000000000000000000000000000000000000000000000000000600052604160045260246000fd5b60405190808252806020026020018201604052801561099c5781602001602082028036833780820191505090505b50905060008367ffffffffffffffff8111156109e1577f4e487b7100000000000000000000000000000000000000000000000000000000600052604160045260246000fd5b604051908082528060200260200182016040528015610a0f5781602001602082028036833780820191505090505b50905060005b84811015610bc257888181518110610a56577f4e487b7100000000000000000000000000000000000000000000000000000000600052603260045260246000fd5b6020026020010151848281518110610a97577f4e487b7100000000000000000000000000000000000000000000000000000000600052603260045260246000fd5b602002602001018181525050878181518110610adc577f4e487b7100000000000000000000000000000000000000000000000000000000600052603260045260246000fd5b6020026020010151838281518110610b1d577f4e487b7100000000000000000000000000000000000000000000000000000000600052603260045260246000fd5b602002602001018181525050868181518110610b62577f4e487b7100000000000000000000000000000000000000000000000000000000600052603260045260246000fd5b6020026020010151828281518110610ba3577f4e487b7100000000000000000000000000000000000000000000000000000000600052603260045260246000fd5b6020026020010181815250508080610bba906132e5565b915050610a15565b5060006040518060a001604052808581526020018481526020018381526020018773ffffffffffffffffffffffffffffffffffffffff1681526020018d8152509050610c0d81610e59565b809a50505050505050505050509392505050565b60006040518060a001604052804281526020018681526020018581526020018481526020018381525090506000819080600181540180825580915050600190039060005260206000209060050201600090919091909150600082015181600001556020820151816001015560408201518160020155606082015181600301556080820151816004015550505050505050565b600a60009054906101000a900473ffffffffffffffffffffffffffffffffffffffff1681565b600560009054906101000a900473ffffffffffffffffffffffffffffffffffffffff1681565b610dbc8360001b8360001b8360001b600260009054906101000a900473ffffffffffffffffffffffffffffffffffffffff1673ffffffffffffffffffffffffffffffffffffffff1663cfb519286040518163ffffffff1660e01b8152600401610d6790612f79565b60206040518083038186803b158015610d7f57600080fd5b505afa158015610d93573d6000803e3d6000fd5b505050506040513d601f19601f82011682018060405250810190610db791906126aa565b610c21565b505050565b600660009054906101000a900473ffffffffffffffffffffffffffffffffffffffff1681565b600460009054906101000a900473ffffffffffffffffffffffffffffffffffffffff1681565b600260009054906101000a900473ffffffffffffffffffffffffffffffffffffffff1681565b600360009054906101000a900473ffffffffffffffffffffffffffffffffffffffff1681565b6000806001600080549050610e6e91906130f9565b81548110610ea5577f4e487b7100000000000000000000000000000000000000000000000000000000600052603260045260246000fd5b90600052602060002090600502016040518060a00160405290816000820154815260200160018201548152602001600282015481526020016003820154815260200160048201548152505090507f1acb9ccf50487f4a2cc6f4c3d7744e1a71460282f21a1471a160eae671ed79fa8260000151600081518110610f51577f4e487b7100000000000000000000000000000000000000000000000000000000600052603260045260246000fd5b6020026020010151604051602001610f699190612d06565b60405160208183030381529060405280519060200120600260009054906101000a900473ffffffffffffffffffffffffffffffffffffffff1673ffffffffffffffffffffffffffffffffffffffff1663cfb519286040518163ffffffff1660e01b8152600401610fd890612fd9565b60206040518083038186803b158015610ff057600080fd5b505afa158015611004573d6000803e3d6000fd5b505050506040513d601f19601f8201168201806040525081019061102891906126aa565b6040516020016110389190612d06565b6040516020818303038152906040528051906020012060405161105c929190612d3c565b60405180910390a160005b8260000151518110156125df57600260009054906101000a900473ffffffffffffffffffffffffffffffffffffffff1673ffffffffffffffffffffffffffffffffffffffff1663cfb519286040518163ffffffff1660e01b81526004016110cd90612fd9565b60206040518083038186803b1580156110e557600080fd5b505afa1580156110f9573d6000803e3d6000fd5b505050506040513d601f19601f8201168201806040525081019061111d91906126aa565b60405160200161112d9190612d06565b604051602081830303815290604052805190602001208360000151600081518110611181577f4e487b7100000000000000000000000000000000000000000000000000000000600052603260045260246000fd5b60200260200101516040516020016111999190612d06565b60405160208183030381529060405280519060200120141561131f57600360009054906101000a900473ffffffffffffffffffffffffffffffffffffffff1673ffffffffffffffffffffffffffffffffffffffff16631d4fd87f84602001518381518110611230577f4e487b7100000000000000000000000000000000000000000000000000000000600052603260045260246000fd5b602002602001015185608001518560200151866040015187606001516040518663ffffffff1660e01b815260040161126c959493929190612d65565b600060405180830381600087803b15801561128657600080fd5b505af115801561129a573d6000803e3d6000fd5b5050505082608001517f3b2e84a32c06c8109fd0e4fa81235d7fc35b9b4015dd48d09e3f297f69b935dc84600001518381518110611301577f4e487b7100000000000000000000000000000000000000000000000000000000600052603260045260246000fd5b60200260200101516040516113169190612d21565b60405180910390a25b600260009054906101000a900473ffffffffffffffffffffffffffffffffffffffff1673ffffffffffffffffffffffffffffffffffffffff1663cfb519286040518163ffffffff1660e01b815260040161137890612f39565b60206040518083038186803b15801561139057600080fd5b505afa1580156113a4573d6000803e3d6000fd5b505050506040513d601f19601f820116820180604052508101906113c891906126aa565b6040516020016113d89190612d06565b60405160208183030381529060405280519060200120836000015160008151811061142c577f4e487b7100000000000000000000000000000000000000000000000000000000600052603260045260246000fd5b60200260200101516040516020016114449190612d06565b6040516020818303038152906040528051906020012014156115ca57600460009054906101000a900473ffffffffffffffffffffffffffffffffffffffff1673ffffffffffffffffffffffffffffffffffffffff16631d4fd87f846020015183815181106114db577f4e487b7100000000000000000000000000000000000000000000000000000000600052603260045260246000fd5b602002602001015185608001518560200151866040015187606001516040518663ffffffff1660e01b8152600401611517959493929190612d65565b600060405180830381600087803b15801561153157600080fd5b505af1158015611545573d6000803e3d6000fd5b5050505082608001517f3b2e84a32c06c8109fd0e4fa81235d7fc35b9b4015dd48d09e3f297f69b935dc846000015183815181106115ac577f4e487b7100000000000000000000000000000000000000000000000000000000600052603260045260246000fd5b60200260200101516040516115c19190612d21565b60405180910390a25b600260009054906101000a900473ffffffffffffffffffffffffffffffffffffffff1673ffffffffffffffffffffffffffffffffffffffff1663cfb519286040518163ffffffff1660e01b815260040161162390612f99565b60206040518083038186803b15801561163b57600080fd5b505afa15801561164f573d6000803e3d6000fd5b505050506040513d601f19601f8201168201806040525081019061167391906126aa565b6040516020016116839190612d06565b6040516020818303038152906040528051906020012083600001516000815181106116d7577f4e487b7100000000000000000000000000000000000000000000000000000000600052603260045260246000fd5b60200260200101516040516020016116ef9190612d06565b60405160208183030381529060405280519060200120141561187557600560009054906101000a900473ffffffffffffffffffffffffffffffffffffffff1673ffffffffffffffffffffffffffffffffffffffff16631d4fd87f84602001518381518110611786577f4e487b7100000000000000000000000000000000000000000000000000000000600052603260045260246000fd5b602002602001015185608001518560200151866040015187606001516040518663ffffffff1660e01b81526004016117c2959493929190612d65565b600060405180830381600087803b1580156117dc57600080fd5b505af11580156117f0573d6000803e3d6000fd5b5050505082608001517f3b2e84a32c06c8109fd0e4fa81235d7fc35b9b4015dd48d09e3f297f69b935dc84600001518381518110611857577f4e487b7100000000000000000000000000000000000000000000000000000000600052603260045260246000fd5b602002602001015160405161186c9190612d21565b60405180910390a25b600260009054906101000a900473ffffffffffffffffffffffffffffffffffffffff1673ffffffffffffffffffffffffffffffffffffffff1663cfb519286040518163ffffffff1660e01b81526004016118ce90612f19565b60206040518083038186803b1580156118e657600080fd5b505afa1580156118fa573d6000803e3d6000fd5b505050506040513d601f19601f8201168201806040525081019061191e91906126aa565b60405160200161192e9190612d06565b604051602081830303815290604052805190602001208360000151600081518110611982577f4e487b7100000000000000000000000000000000000000000000000000000000600052603260045260246000fd5b602002602001015160405160200161199a9190612d06565b604051602081830303815290604052805190602001201415611b2057600660009054906101000a900473ffffffffffffffffffffffffffffffffffffffff1673ffffffffffffffffffffffffffffffffffffffff16631d4fd87f84602001518381518110611a31577f4e487b7100000000000000000000000000000000000000000000000000000000600052603260045260246000fd5b602002602001015185608001518560200151866040015187606001516040518663ffffffff1660e01b8152600401611a6d959493929190612d65565b600060405180830381600087803b158015611a8757600080fd5b505af1158015611a9b573d6000803e3d6000fd5b5050505082608001517f3b2e84a32c06c8109fd0e4fa81235d7fc35b9b4015dd48d09e3f297f69b935dc84600001518381518110611b02577f4e487b7100000000000000000000000000000000000000000000000000000000600052603260045260246000fd5b6020026020010151604051611b179190612d21565b60405180910390a25b600260009054906101000a900473ffffffffffffffffffffffffffffffffffffffff1673ffffffffffffffffffffffffffffffffffffffff1663cfb519286040518163ffffffff1660e01b8152600401611b7990612f59565b60206040518083038186803b158015611b9157600080fd5b505afa158015611ba5573d6000803e3d6000fd5b505050506040513d601f19601f82011682018060405250810190611bc991906126aa565b604051602001611bd99190612d06565b604051602081830303815290604052805190602001208360000151600081518110611c2d577f4e487b7100000000000000000000000000000000000000000000000000000000600052603260045260246000fd5b6020026020010151604051602001611c459190612d06565b604051602081830303815290604052805190602001201415611dcb57600760009054906101000a900473ffffffffffffffffffffffffffffffffffffffff1673ffffffffffffffffffffffffffffffffffffffff16631d4fd87f84602001518381518110611cdc577f4e487b7100000000000000000000000000000000000000000000000000000000600052603260045260246000fd5b602002602001015185608001518560200151866040015187606001516040518663ffffffff1660e01b8152600401611d18959493929190612d65565b600060405180830381600087803b158015611d3257600080fd5b505af1158015611d46573d6000803e3d6000fd5b5050505082608001517f3b2e84a32c06c8109fd0e4fa81235d7fc35b9b4015dd48d09e3f297f69b935dc84600001518381518110611dad577f4e487b7100000000000000000000000000000000000000000000000000000000600052603260045260246000fd5b6020026020010151604051611dc29190612d21565b60405180910390a25b600260009054906101000a900473ffffffffffffffffffffffffffffffffffffffff1673ffffffffffffffffffffffffffffffffffffffff1663cfb519286040518163ffffffff1660e01b8152600401611e2490612fb9565b60206040518083038186803b158015611e3c57600080fd5b505afa158015611e50573d6000803e3d6000fd5b505050506040513d601f19601f82011682018060405250810190611e7491906126aa565b604051602001611e849190612d06565b604051602081830303815290604052805190602001208360000151600081518110611ed8577f4e487b7100000000000000000000000000000000000000000000000000000000600052603260045260246000fd5b6020026020010151604051602001611ef09190612d06565b60405160208183030381529060405280519060200120141561207657600860009054906101000a900473ffffffffffffffffffffffffffffffffffffffff1673ffffffffffffffffffffffffffffffffffffffff16631d4fd87f84602001518381518110611f87577f4e487b7100000000000000000000000000000000000000000000000000000000600052603260045260246000fd5b602002602001015185608001518560200151866040015187606001516040518663ffffffff1660e01b8152600401611fc3959493929190612d65565b600060405180830381600087803b158015611fdd57600080fd5b505af1158015611ff1573d6000803e3d6000fd5b5050505082608001517f3b2e84a32c06c8109fd0e4fa81235d7fc35b9b4015dd48d09e3f297f69b935dc84600001518381518110612058577f4e487b7100000000000000000000000000000000000000000000000000000000600052603260045260246000fd5b602002602001015160405161206d9190612d21565b60405180910390a25b600260009054906101000a900473ffffffffffffffffffffffffffffffffffffffff1673ffffffffffffffffffffffffffffffffffffffff1663cfb519286040518163ffffffff1660e01b81526004016120cf90613019565b60206040518083038186803b1580156120e757600080fd5b505afa1580156120fb573d6000803e3d6000fd5b505050506040513d601f19601f8201168201806040525081019061211f91906126aa565b60405160200161212f9190612d06565b604051602081830303815290604052805190602001208360000151600081518110612183577f4e487b7100000000000000000000000000000000000000000000000000000000600052603260045260246000fd5b602002602001015160405160200161219b9190612d06565b60405160208183030381529060405280519060200120141561232157600960009054906101000a900473ffffffffffffffffffffffffffffffffffffffff1673ffffffffffffffffffffffffffffffffffffffff16631d4fd87f84602001518381518110612232577f4e487b7100000000000000000000000000000000000000000000000000000000600052603260045260246000fd5b602002602001015185608001518560200151866040015187606001516040518663ffffffff1660e01b815260040161226e959493929190612d65565b600060405180830381600087803b15801561228857600080fd5b505af115801561229c573d6000803e3d6000fd5b5050505082608001517f3b2e84a32c06c8109fd0e4fa81235d7fc35b9b4015dd48d09e3f297f69b935dc84600001518381518110612303577f4e487b7100000000000000000000000000000000000000000000000000000000600052603260045260246000fd5b60200260200101516040516123189190612d21565b60405180910390a25b600260009054906101000a900473ffffffffffffffffffffffffffffffffffffffff1673ffffffffffffffffffffffffffffffffffffffff1663cfb519286040518163ffffffff1660e01b815260040161237a90612ff9565b60206040518083038186803b15801561239257600080fd5b505afa1580156123a6573d6000803e3d6000fd5b505050506040513d601f19601f820116820180604052508101906123ca91906126aa565b6040516020016123da9190612d06565b60405160208183030381529060405280519060200120836000015160008151811061242e577f4e487b7100000000000000000000000000000000000000000000000000000000600052603260045260246000fd5b60200260200101516040516020016124469190612d06565b6040516020818303038152906040528051906020012014156125cc57600a60009054906101000a900473ffffffffffffffffffffffffffffffffffffffff1673ffffffffffffffffffffffffffffffffffffffff16631d4fd87f846020015183815181106124dd577f4e487b7100000000000000000000000000000000000000000000000000000000600052603260045260246000fd5b602002602001015185608001518560200151866040015187606001516040518663ffffffff1660e01b8152600401612519959493929190612d65565b600060405180830381600087803b15801561253357600080fd5b505af1158015612547573d6000803e3d6000fd5b5050505082608001517f3b2e84a32c06c8109fd0e4fa81235d7fc35b9b4015dd48d09e3f297f69b935dc846000015183815181106125ae577f4e487b7100000000000000000000000000000000000000000000000000000000600052603260045260246000fd5b60200260200101516040516125c39190612d21565b60405180910390a25b80806125d7906132e5565b915050611067565b505050565b6040518060a00160405280606081526020016060815260200160608152602001600073ffffffffffffffffffffffffffffffffffffffff168152602001600080191681525090565b60008135905061263b81613367565b92915050565b60008151905061265081613367565b92915050565b6000813590506126658161337e565b92915050565b60008151905061267a8161337e565b92915050565b60008135905061268f81613395565b92915050565b6000815190506126a481613395565b92915050565b6000602082840312156126bc57600080fd5b60006126ca84828501612641565b91505092915050565b600080600080608085870312156126e957600080fd5b60006126f78782880161262c565b94505060206127088782880161262c565b93505060406127198782880161262c565b925050606061272a8782880161262c565b91505092959194509250565b60006020828403121561274857600080fd5b60006127568482850161266b565b91505092915050565b60008060006060848603121561277457600080fd5b600061278286828701612656565b935050602061279386828701612656565b92505060406127a48682870161262c565b9150509250925092565b6000806000606084860312156127c357600080fd5b60006127d186828701612656565b93505060206127e286828701612656565b92505060406127f386828701612656565b9150509250925092565b60006020828403121561280f57600080fd5b600061281d84828501612680565b91505092915050565b60006020828403121561283857600080fd5b600061284684828501612695565b91505092915050565b600061285b838361294a565b60208301905092915050565b60006128738383612a15565b60208301905092915050565b6128888161312d565b82525050565b600061289982613096565b6128a381856130c6565b93506128ae83613076565b8060005b838110156128df5781516128c6888261284f565b97506128d1836130ac565b9250506001810190506128b2565b5085935050505092915050565b60006128f7826130a1565b61290181856130d7565b935061290c83613086565b8060005b8381101561293d5781516129248882612867565b975061292f836130b9565b925050600181019050612910565b5085935050505092915050565b6129538161313f565b82525050565b6129628161313f565b82525050565b6129796129748261313f565b61332e565b82525050565b6129888161317d565b82525050565b612997816131a1565b82525050565b6129a6816131c5565b82525050565b6129b5816131e9565b82525050565b6129c48161320d565b82525050565b6129d381613231565b82525050565b6129e281613255565b82525050565b6129f181613279565b82525050565b612a008161329d565b82525050565b612a0f816132c1565b82525050565b612a1e81613149565b82525050565b612a2d81613149565b82525050565b6000612a406009836130e8565b91507f45303030313030303400000000000000000000000000000000000000000000006000830152602082019050919050565b6000612a806009836130e8565b91507f45303030313030303200000000000000000000000000000000000000000000006000830152602082019050919050565b6000612ac06009836130e8565b91507f45303030313030303500000000000000000000000000000000000000000000006000830152602082019050919050565b6000612b00600c836130e8565b91507f66697273745f7265706f727400000000000000000000000000000000000000006000830152602082019050919050565b6000612b406009836130e8565b91507f45303030313030303300000000000000000000000000000000000000000000006000830152602082019050919050565b6000612b806009836130e8565b91507f45303030313030303600000000000000000000000000000000000000000000006000830152602082019050919050565b6000612bc06009836130e8565b91507f45303030313030303100000000000000000000000000000000000000000000006000830152602082019050919050565b6000612c006009836130e8565b91507f45303030313030303800000000000000000000000000000000000000000000006000830152602082019050919050565b6000612c406009836130e8565b91507f45303030313030303700000000000000000000000000000000000000000000006000830152602082019050919050565b600060a0830160008301518482036000860152612c90828261288e565b91505060208301518482036020860152612caa828261288e565b91505060408301518482036040860152612cc482826128ec565b9150506060830151612cd9606086018261287f565b506080830151612cec608086018261294a565b508091505092915050565b612d0081613173565b82525050565b6000612d128284612968565b60208201915081905092915050565b6000602082019050612d366000830184612959565b92915050565b6000604082019050612d516000830185612959565b612d5e6020830184612959565b9392505050565b600060a082019050612d7a6000830188612959565b612d876020830187612959565b612d946040830186612959565b612da16060830185612959565b612dae6080830184612959565b9695505050505050565b6000602082019050612dcd600083018461297f565b92915050565b6000602082019050612de8600083018461298e565b92915050565b6000602082019050612e03600083018461299d565b92915050565b6000602082019050612e1e60008301846129ac565b92915050565b6000602082019050612e3960008301846129bb565b92915050565b6000602082019050612e5460008301846129ca565b92915050565b6000602082019050612e6f60008301846129d9565b92915050565b6000602082019050612e8a60008301846129e8565b92915050565b6000602082019050612ea560008301846129f7565b92915050565b6000602082019050612ec06000830184612a06565b92915050565b600060a082019050612edb6000830188612a24565b612ee86020830187612959565b612ef56040830186612959565b612f026060830185612959565b612f0f6080830184612959565b9695505050505050565b60006020820190508181036000830152612f3281612a33565b9050919050565b60006020820190508181036000830152612f5281612a73565b9050919050565b60006020820190508181036000830152612f7281612ab3565b9050919050565b60006020820190508181036000830152612f9281612af3565b9050919050565b60006020820190508181036000830152612fb281612b33565b9050919050565b60006020820190508181036000830152612fd281612b73565b9050919050565b60006020820190508181036000830152612ff281612bb3565b9050919050565b6000602082019050818103600083015261301281612bf3565b9050919050565b6000602082019050818103600083015261303281612c33565b9050919050565b600060208201905081810360008301526130538184612c73565b905092915050565b60006020820190506130706000830184612cf7565b92915050565b6000819050602082019050919050565b6000819050602082019050919050565b600081519050919050565b600081519050919050565b6000602082019050919050565b6000602082019050919050565b600082825260208201905092915050565b600082825260208201905092915050565b600082825260208201905092915050565b600061310482613173565b915061310f83613173565b92508282101561312257613121613338565b5b828203905092915050565b600061313882613153565b9050919050565b6000819050919050565b6000819050919050565b600073ffffffffffffffffffffffffffffffffffffffff82169050919050565b6000819050919050565b60006131888261318f565b9050919050565b600061319a82613153565b9050919050565b60006131ac826131b3565b9050919050565b60006131be82613153565b9050919050565b60006131d0826131d7565b9050919050565b60006131e282613153565b9050919050565b60006131f4826131fb565b9050919050565b600061320682613153565b9050919050565b60006132188261321f565b9050919050565b600061322a82613153565b9050919050565b600061323c82613243565b9050919050565b600061324e82613153565b9050919050565b600061326082613267565b9050919050565b600061327282613153565b9050919050565b60006132848261328b565b9050919050565b600061329682613153565b9050919050565b60006132a8826132af565b9050919050565b60006132ba82613153565b9050919050565b60006132cc826132d3565b9050919050565b60006132de82613153565b9050919050565b60006132f082613173565b91507fffffffffffffffffffffffffffffffffffffffffffffffffffffffffffffffff82141561332357613322613338565b5b600182019050919050565b6000819050919050565b7f4e487b7100000000000000000000000000000000000000000000000000000000600052601160045260246000fd5b6133708161313f565b811461337b57600080fd5b50565b61338781613149565b811461339257600080fd5b50565b61339e81613173565b81146133a957600080fd5b5056fea26469706673582212209793621339abc634e643444d6f9a6be743122b939d8acce2270aa85f49d7c29164736f6c63430008000033",
  "linkReferences": {},
  "deployedLinkReferences": {}
}