{
	"contracts/TransactionContract.sol": {
		"TransactionContract": {
			"abi": [
				{
					"inputs": [
						{
							"internalType": "address",
							"name": "_parser",
							"type": "address"
						}
					],
					"stateMutability": "nonpayable",
					"type": "constructor"
				},
				{
					"anonymous": false,
					"inputs": [
						{
							"indexed": false,
							"internalType": "bytes32",
							"name": "transactionType",
							"type": "bytes32"
						}
					],
					"name": "transactionAdded",
					"type": "event"
				},
				{
					"inputs": [],
					"name": "Iparser",
					"outputs": [
						{
							"internalType": "contract IParser",
							"name": "",
							"type": "address"
						}
					],
					"stateMutability": "view",
					"type": "function"
				},
				{
					"inputs": [
						{
							"internalType": "bytes32",
							"name": "eventId",
							"type": "bytes32"
						},
						{
							"internalType": "bytes32",
							"name": "transactionType",
							"type": "bytes32"
						},
						{
							"internalType": "address",
							"name": "recorder",
							"type": "address"
						},
						{
							"internalType": "bytes32[]",
							"name": "paramKeys",
							"type": "bytes32[]"
						},
						{
							"internalType": "int256[]",
							"name": "paramValues",
							"type": "int256[]"
						}
					],
					"name": "addProcessedTransaction",
					"outputs": [],
					"stateMutability": "nonpayable",
					"type": "function"
				},
				{
					"inputs": [
						{
							"internalType": "bytes32[]",
							"name": "data",
							"type": "bytes32[]"
						}
					],
					"name": "addRecord",
					"outputs": [],
					"stateMutability": "nonpayable",
					"type": "function"
				},
				{
					"inputs": [
						{
							"internalType": "bytes32",
							"name": "_eventId",
							"type": "bytes32"
						}
					],
					"name": "getTransaction",
					"outputs": [
						{
							"internalType": "bytes32",
							"name": "",
							"type": "bytes32"
						},
						{
							"internalType": "bytes32",
							"name": "",
							"type": "bytes32"
						},
						{
							"internalType": "address",
							"name": "",
							"type": "address"
						}
					],
					"stateMutability": "view",
					"type": "function"
				},
				{
					"inputs": [
						{
							"internalType": "uint256",
							"name": "index",
							"type": "uint256"
						}
					],
					"name": "getTransactionEventId",
					"outputs": [
						{
							"internalType": "bytes32",
							"name": "",
							"type": "bytes32"
						}
					],
					"stateMutability": "view",
					"type": "function"
				},
				{
					"inputs": [
						{
							"internalType": "uint256",
							"name": "index",
							"type": "uint256"
						},
						{
							"internalType": "bytes32",
							"name": "paramKey",
							"type": "bytes32"
						}
					],
					"name": "getTransactionParam",
					"outputs": [
						{
							"internalType": "int256",
							"name": "",
							"type": "int256"
						}
					],
					"stateMutability": "view",
					"type": "function"
				},
				{
					"inputs": [
						{
							"internalType": "bytes32",
							"name": "_eventId",
							"type": "bytes32"
						},
						{
							"internalType": "bytes32",
							"name": "_paramKey",
							"type": "bytes32"
						}
					],
					"name": "getTransactionParamByEventId",
					"outputs": [
						{
							"internalType": "int256",
							"name": "",
							"type": "int256"
						}
					],
					"stateMutability": "view",
					"type": "function"
				},
				{
					"inputs": [
						{
							"internalType": "uint256",
							"name": "index",
							"type": "uint256"
						}
					],
					"name": "getTransactionTime",
					"outputs": [
						{
							"internalType": "int256",
							"name": "",
							"type": "int256"
						}
					],
					"stateMutability": "view",
					"type": "function"
				},
				{
					"inputs": [
						{
							"internalType": "uint256",
							"name": "index",
							"type": "uint256"
						}
					],
					"name": "getTransactionType",
					"outputs": [
						{
							"internalType": "bytes32",
							"name": "",
							"type": "bytes32"
						}
					],
					"stateMutability": "view",
					"type": "function"
				},
				{
					"inputs": [],
					"name": "getTransactionsCount",
					"outputs": [
						{
							"internalType": "uint256",
							"name": "",
							"type": "uint256"
						}
					],
					"stateMutability": "view",
					"type": "function"
				},
				{
					"inputs": [
						{
							"internalType": "string",
							"name": "_str1",
							"type": "string"
						},
						{
							"internalType": "string",
							"name": "_str2",
							"type": "string"
						},
						{
							"internalType": "int256",
							"name": "_int1",
							"type": "int256"
						},
						{
							"internalType": "int256",
							"name": "_int2",
							"type": "int256"
						},
						{
							"internalType": "int256",
							"name": "_int3",
							"type": "int256"
						},
						{
							"internalType": "int256",
							"name": "_int4",
							"type": "int256"
						}
					],
					"name": "inputWithDecimal",
					"outputs": [
						{
							"internalType": "bytes32[]",
							"name": "",
							"type": "bytes32[]"
						}
					],
					"stateMutability": "nonpayable",
					"type": "function"
				},
				{
					"inputs": [
						{
							"internalType": "bytes32",
							"name": "transactionType",
							"type": "bytes32"
						},
						{
							"internalType": "contract TransactionHandler",
							"name": "handler",
							"type": "address"
						}
					],
					"name": "registerHanlder",
					"outputs": [],
					"stateMutability": "nonpayable",
					"type": "function"
				},
				{
					"inputs": [
						{
							"internalType": "uint256",
							"name": "",
							"type": "uint256"
						}
					],
					"name": "transactions",
					"outputs": [
						{
							"internalType": "bytes32",
							"name": "eventId",
							"type": "bytes32"
						},
						{
							"internalType": "bytes32",
							"name": "transactionType",
							"type": "bytes32"
						},
						{
							"internalType": "address",
							"name": "recorder",
							"type": "address"
						}
					],
					"stateMutability": "view",
					"type": "function"
				}
			],
			"devdoc": {
				"kind": "dev",
				"methods": {},
				"version": 1
			},
			"evm": {
				"assembly": "    /* \"contracts/TransactionContract.sol\":143:4434  contract TransactionContract {... */\n  mstore(0x40, 0x80)\n    /* \"contracts/TransactionContract.sol\":1305:1377  constructor(address _parser) {... */\n  callvalue\n  dup1\n  iszero\n  tag_1\n  jumpi\n  0x00\n  dup1\n  revert\ntag_1:\n  pop\n  mload(0x40)\n  sub(codesize, bytecodeSize)\n  dup1\n  bytecodeSize\n  dup4\n  codecopy\n  dup2\n  dup2\n  add\n  0x40\n  mstore\n  dup2\n  add\n  swap1\n  tag_2\n  swap2\n  swap1\n  tag_3\n  jump\t// in\ntag_2:\n    /* \"contracts/TransactionContract.sol\":1362:1369  _parser */\n  dup1\n    /* \"contracts/TransactionContract.sol\":1344:1351  Iparser */\n  0x00\n  dup1\n    /* \"contracts/TransactionContract.sol\":1344:1370  Iparser = IParser(_parser) */\n  0x0100\n  exp\n  dup2\n  sload\n  dup2\n  0xffffffffffffffffffffffffffffffffffffffff\n  mul\n  not\n  and\n  swap1\n  dup4\n  0xffffffffffffffffffffffffffffffffffffffff\n  and\n  mul\n  or\n  swap1\n  sstore\n  pop\n    /* \"contracts/TransactionContract.sol\":1305:1377  constructor(address _parser) {... */\n  pop\n    /* \"contracts/TransactionContract.sol\":143:4434  contract TransactionContract {... */\n  jump(tag_6)\n    /* \"#utility.yul\":88:205   */\ntag_8:\n    /* \"#utility.yul\":197:198   */\n  0x00\n    /* \"#utility.yul\":194:195   */\n  dup1\n    /* \"#utility.yul\":187:199   */\n  revert\n    /* \"#utility.yul\":334:460   */\ntag_10:\n    /* \"#utility.yul\":371:378   */\n  0x00\n    /* \"#utility.yul\":411:453   */\n  0xffffffffffffffffffffffffffffffffffffffff\n    /* \"#utility.yul\":404:409   */\n  dup3\n    /* \"#utility.yul\":400:454   */\n  and\n    /* \"#utility.yul\":389:454   */\n  swap1\n  pop\n    /* \"#utility.yul\":334:460   */\n  swap2\n  swap1\n  pop\n  jump\t// out\n    /* \"#utility.yul\":466:562   */\ntag_11:\n    /* \"#utility.yul\":503:510   */\n  0x00\n    /* \"#utility.yul\":532:556   */\n  tag_20\n    /* \"#utility.yul\":550:555   */\n  dup3\n    /* \"#utility.yul\":532:556   */\n  tag_10\n  jump\t// in\ntag_20:\n    /* \"#utility.yul\":521:556   */\n  swap1\n  pop\n    /* \"#utility.yul\":466:562   */\n  swap2\n  swap1\n  pop\n  jump\t// out\n    /* \"#utility.yul\":568:690   */\ntag_12:\n    /* \"#utility.yul\":641:665   */\n  tag_22\n    /* \"#utility.yul\":659:664   */\n  dup2\n    /* \"#utility.yul\":641:665   */\n  tag_11\n  jump\t// in\ntag_22:\n    /* \"#utility.yul\":634:639   */\n  dup2\n    /* \"#utility.yul\":631:666   */\n  eq\n    /* \"#utility.yul\":621:684   */\n  tag_23\n  jumpi\n    /* \"#utility.yul\":680:681   */\n  0x00\n    /* \"#utility.yul\":677:678   */\n  dup1\n    /* \"#utility.yul\":670:682   */\n  revert\n    /* \"#utility.yul\":621:684   */\ntag_23:\n    /* \"#utility.yul\":568:690   */\n  pop\n  jump\t// out\n    /* \"#utility.yul\":696:839   */\ntag_13:\n    /* \"#utility.yul\":753:758   */\n  0x00\n    /* \"#utility.yul\":784:790   */\n  dup2\n    /* \"#utility.yul\":778:791   */\n  mload\n    /* \"#utility.yul\":769:791   */\n  swap1\n  pop\n    /* \"#utility.yul\":800:833   */\n  tag_25\n    /* \"#utility.yul\":827:832   */\n  dup2\n    /* \"#utility.yul\":800:833   */\n  tag_12\n  jump\t// in\ntag_25:\n    /* \"#utility.yul\":696:839   */\n  swap3\n  swap2\n  pop\n  pop\n  jump\t// out\n    /* \"#utility.yul\":845:1196   */\ntag_3:\n    /* \"#utility.yul\":915:921   */\n  0x00\n    /* \"#utility.yul\":964:966   */\n  0x20\n    /* \"#utility.yul\":952:961   */\n  dup3\n    /* \"#utility.yul\":943:950   */\n  dup5\n    /* \"#utility.yul\":939:962   */\n  sub\n    /* \"#utility.yul\":935:967   */\n  slt\n    /* \"#utility.yul\":932:1051   */\n  iszero\n  tag_27\n  jumpi\n    /* \"#utility.yul\":970:1049   */\n  tag_28\n  tag_8\n  jump\t// in\ntag_28:\n    /* \"#utility.yul\":932:1051   */\ntag_27:\n    /* \"#utility.yul\":1090:1091   */\n  0x00\n    /* \"#utility.yul\":1115:1179   */\n  tag_29\n    /* \"#utility.yul\":1171:1178   */\n  dup5\n    /* \"#utility.yul\":1162:1168   */\n  dup3\n    /* \"#utility.yul\":1151:1160   */\n  dup6\n    /* \"#utility.yul\":1147:1169   */\n  add\n    /* \"#utility.yul\":1115:1179   */\n  tag_13\n  jump\t// in\ntag_29:\n    /* \"#utility.yul\":1105:1179   */\n  swap2\n  pop\n    /* \"#utility.yul\":1061:1189   */\n  pop\n    /* \"#utility.yul\":845:1196   */\n  swap3\n  swap2\n  pop\n  pop\n  jump\t// out\n    /* \"contracts/TransactionContract.sol\":143:4434  contract TransactionContract {... */\ntag_6:\n  dataSize(sub_0)\n  dup1\n  dataOffset(sub_0)\n  0x00\n  codecopy\n  0x00\n  return\nstop\n\nsub_0: assembly {\n        /* \"contracts/TransactionContract.sol\":143:4434  contract TransactionContract {... */\n      mstore(0x40, 0x80)\n      callvalue\n      dup1\n      iszero\n      tag_1\n      jumpi\n      0x00\n      dup1\n      revert\n    tag_1:\n      pop\n      jumpi(tag_2, lt(calldatasize, 0x04))\n      shr(0xe0, calldataload(0x00))\n      dup1\n      0xa3edf3e1\n      gt\n      tag_16\n      jumpi\n      dup1\n      0xe064d199\n      gt\n      tag_17\n      jumpi\n      dup1\n      0xe064d199\n      eq\n      tag_12\n      jumpi\n      dup1\n      0xe09576f0\n      eq\n      tag_13\n      jumpi\n      dup1\n      0xed40bbd5\n      eq\n      tag_14\n      jumpi\n      dup1\n      0xfadc6bc6\n      eq\n      tag_15\n      jumpi\n      jump(tag_2)\n    tag_17:\n      dup1\n      0xa3edf3e1\n      eq\n      tag_9\n      jumpi\n      dup1\n      0xc4af6548\n      eq\n      tag_10\n      jumpi\n      dup1\n      0xdf4ecf42\n      eq\n      tag_11\n      jumpi\n      jump(tag_2)\n    tag_16:\n      dup1\n      0x1afc42b6\n      eq\n      tag_3\n      jumpi\n      dup1\n      0x419e4138\n      eq\n      tag_4\n      jumpi\n      dup1\n      0x4aae13ca\n      eq\n      tag_5\n      jumpi\n      dup1\n      0x578cb8f9\n      eq\n      tag_6\n      jumpi\n      dup1\n      0x9ace38c2\n      eq\n      tag_7\n      jumpi\n      dup1\n      0x9b4e3420\n      eq\n      tag_8\n      jumpi\n    tag_2:\n      0x00\n      dup1\n      revert\n        /* \"contracts/TransactionContract.sol\":3878:4029  function getTransactionParam(uint256 index, bytes32 paramKey) public view returns (int256) {... */\n    tag_3:\n      tag_18\n      0x04\n      dup1\n      calldatasize\n      sub\n      dup2\n      add\n      swap1\n      tag_19\n      swap2\n      swap1\n      tag_20\n      jump\t// in\n    tag_19:\n      tag_21\n      jump\t// in\n    tag_18:\n      mload(0x40)\n      tag_22\n      swap2\n      swap1\n      tag_23\n      jump\t// in\n    tag_22:\n      mload(0x40)\n      dup1\n      swap2\n      sub\n      swap1\n      return\n        /* \"contracts/TransactionContract.sol\":4206:4432  function getTransactionParamByEventId(bytes32 _eventId, bytes32 _paramKey) public view returns (int256) {... */\n    tag_4:\n      tag_24\n      0x04\n      dup1\n      calldatasize\n      sub\n      dup2\n      add\n      swap1\n      tag_25\n      swap2\n      swap1\n      tag_26\n      jump\t// in\n    tag_25:\n      tag_27\n      jump\t// in\n    tag_24:\n      mload(0x40)\n      tag_28\n      swap2\n      swap1\n      tag_23\n      jump\t// in\n    tag_28:\n      mload(0x40)\n      dup1\n      swap2\n      sub\n      swap1\n      return\n        /* \"contracts/TransactionContract.sol\":2849:3150  function getTransaction(bytes32 _eventId) public view returns (bytes32, bytes32, address) {... */\n    tag_5:\n      tag_29\n      0x04\n      dup1\n      calldatasize\n      sub\n      dup2\n      add\n      swap1\n      tag_30\n      swap2\n      swap1\n      tag_31\n      jump\t// in\n    tag_30:\n      tag_32\n      jump\t// in\n    tag_29:\n      mload(0x40)\n      tag_33\n      swap4\n      swap3\n      swap2\n      swap1\n      tag_34\n      jump\t// in\n    tag_33:\n      mload(0x40)\n      dup1\n      swap2\n      sub\n      swap1\n      return\n        /* \"contracts/TransactionContract.sol\":3496:3601  function getTransactionsCount() public view returns (uint256) {... */\n    tag_6:\n      tag_35\n      tag_36\n      jump\t// in\n    tag_35:\n      mload(0x40)\n      tag_37\n      swap2\n      swap1\n      tag_38\n      jump\t// in\n    tag_37:\n      mload(0x40)\n      dup1\n      swap2\n      sub\n      swap1\n      return\n        /* \"contracts/TransactionContract.sol\":426:459  Transaction[] public transactions */\n    tag_7:\n      tag_39\n      0x04\n      dup1\n      calldatasize\n      sub\n      dup2\n      add\n      swap1\n      tag_40\n      swap2\n      swap1\n      tag_41\n      jump\t// in\n    tag_40:\n      tag_42\n      jump\t// in\n    tag_39:\n      mload(0x40)\n      tag_43\n      swap4\n      swap3\n      swap2\n      swap1\n      tag_34\n      jump\t// in\n    tag_43:\n      mload(0x40)\n      dup1\n      swap2\n      sub\n      swap1\n      return\n        /* \"contracts/TransactionContract.sol\":3745:3872  function getTransactionEventId(uint256 index) public view returns (bytes32) {... */\n    tag_8:\n      tag_44\n      0x04\n      dup1\n      calldatasize\n      sub\n      dup2\n      add\n      swap1\n      tag_45\n      swap2\n      swap1\n      tag_41\n      jump\t// in\n    tag_45:\n      tag_46\n      jump\t// in\n    tag_44:\n      mload(0x40)\n      tag_47\n      swap2\n      swap1\n      tag_48\n      jump\t// in\n    tag_47:\n      mload(0x40)\n      dup1\n      swap2\n      sub\n      swap1\n      return\n        /* \"contracts/TransactionContract.sol\":1421:1560  function registerHanlder(bytes32 transactionType, TransactionHandler handler) external {... */\n    tag_9:\n      tag_49\n      0x04\n      dup1\n      calldatasize\n      sub\n      dup2\n      add\n      swap1\n      tag_50\n      swap2\n      swap1\n      tag_51\n      jump\t// in\n    tag_50:\n      tag_52\n      jump\t// in\n    tag_49:\n      stop\n        /* \"contracts/TransactionContract.sol\":1566:2072  function addRecord(bytes32[] memory data) public {... */\n    tag_10:\n      tag_53\n      0x04\n      dup1\n      calldatasize\n      sub\n      dup2\n      add\n      swap1\n      tag_54\n      swap2\n      swap1\n      tag_55\n      jump\t// in\n    tag_54:\n      tag_56\n      jump\t// in\n    tag_53:\n      stop\n        /* \"contracts/TransactionContract.sol\":661:1282  function inputWithDecimal(... */\n    tag_11:\n      tag_57\n      0x04\n      dup1\n      calldatasize\n      sub\n      dup2\n      add\n      swap1\n      tag_58\n      swap2\n      swap1\n      tag_59\n      jump\t// in\n    tag_58:\n      tag_60\n      jump\t// in\n    tag_57:\n      mload(0x40)\n      tag_61\n      swap2\n      swap1\n      tag_62\n      jump\t// in\n    tag_61:\n      mload(0x40)\n      dup1\n      swap2\n      sub\n      swap1\n      return\n        /* \"contracts/TransactionContract.sol\":398:420  IParser public Iparser */\n    tag_12:\n      tag_63\n      tag_64\n      jump\t// in\n    tag_63:\n      mload(0x40)\n      tag_65\n      swap2\n      swap1\n      tag_66\n      jump\t// in\n    tag_65:\n      mload(0x40)\n      dup1\n      swap2\n      sub\n      swap1\n      return\n        /* \"contracts/TransactionContract.sol\":3607:3739  function getTransactionType(uint256 index) public view returns (bytes32) {... */\n    tag_13:\n      tag_67\n      0x04\n      dup1\n      calldatasize\n      sub\n      dup2\n      add\n      swap1\n      tag_68\n      swap2\n      swap1\n      tag_41\n      jump\t// in\n    tag_68:\n      tag_69\n      jump\t// in\n    tag_67:\n      mload(0x40)\n      tag_70\n      swap2\n      swap1\n      tag_48\n      jump\t// in\n    tag_70:\n      mload(0x40)\n      dup1\n      swap2\n      sub\n      swap1\n      return\n        /* \"contracts/TransactionContract.sol\":2079:2843  function addProcessedTransaction(... */\n    tag_14:\n      tag_71\n      0x04\n      dup1\n      calldatasize\n      sub\n      dup2\n      add\n      swap1\n      tag_72\n      swap2\n      swap1\n      tag_73\n      jump\t// in\n    tag_72:\n      tag_74\n      jump\t// in\n    tag_71:\n      stop\n        /* \"contracts/TransactionContract.sol\":4035:4196  function getTransactionTime(uint256 index) public view returns (int256) {... */\n    tag_15:\n      tag_75\n      0x04\n      dup1\n      calldatasize\n      sub\n      dup2\n      add\n      swap1\n      tag_76\n      swap2\n      swap1\n      tag_41\n      jump\t// in\n    tag_76:\n      tag_77\n      jump\t// in\n    tag_75:\n      mload(0x40)\n      tag_78\n      swap2\n      swap1\n      tag_23\n      jump\t// in\n    tag_78:\n      mload(0x40)\n      dup1\n      swap2\n      sub\n      swap1\n      return\n        /* \"contracts/TransactionContract.sol\":3878:4029  function getTransactionParam(uint256 index, bytes32 paramKey) public view returns (int256) {... */\n    tag_21:\n        /* \"contracts/TransactionContract.sol\":3961:3967  int256 */\n      0x00\n        /* \"contracts/TransactionContract.sol\":3986:3998  transactions */\n      0x01\n        /* \"contracts/TransactionContract.sol\":3999:4004  index */\n      dup4\n        /* \"contracts/TransactionContract.sol\":3986:4005  transactions[index] */\n      dup2\n      sload\n      dup2\n      lt\n      tag_80\n      jumpi\n      tag_81\n      tag_82\n      jump\t// in\n    tag_81:\n    tag_80:\n      swap1\n      0x00\n      mstore\n      keccak256(0x00, 0x20)\n      swap1\n      0x04\n      mul\n      add\n        /* \"contracts/TransactionContract.sol\":3986:4012  transactions[index].params */\n      0x03\n      add\n        /* \"contracts/TransactionContract.sol\":3986:4022  transactions[index].params[paramKey] */\n      0x00\n        /* \"contracts/TransactionContract.sol\":4013:4021  paramKey */\n      dup4\n        /* \"contracts/TransactionContract.sol\":3986:4022  transactions[index].params[paramKey] */\n      dup2\n      mstore\n      0x20\n      add\n      swap1\n      dup2\n      mstore\n      0x20\n      add\n      0x00\n      keccak256\n      sload\n        /* \"contracts/TransactionContract.sol\":3979:4022  return transactions[index].params[paramKey] */\n      swap1\n      pop\n        /* \"contracts/TransactionContract.sol\":3878:4029  function getTransactionParam(uint256 index, bytes32 paramKey) public view returns (int256) {... */\n      swap3\n      swap2\n      pop\n      pop\n      jump\t// out\n        /* \"contracts/TransactionContract.sol\":4206:4432  function getTransactionParamByEventId(bytes32 _eventId, bytes32 _paramKey) public view returns (int256) {... */\n    tag_27:\n        /* \"contracts/TransactionContract.sol\":4302:4308  int256 */\n      0x00\n        /* \"contracts/TransactionContract.sol\":4320:4351  Transaction storage transaction */\n      dup1\n        /* \"contracts/TransactionContract.sol\":4354:4379  findTransaction(_eventId) */\n      tag_85\n        /* \"contracts/TransactionContract.sol\":4370:4378  _eventId */\n      dup5\n        /* \"contracts/TransactionContract.sol\":4354:4369  findTransaction */\n      tag_86\n        /* \"contracts/TransactionContract.sol\":4354:4379  findTransaction(_eventId) */\n      jump\t// in\n    tag_85:\n        /* \"contracts/TransactionContract.sol\":4320:4379  Transaction storage transaction = findTransaction(_eventId) */\n      swap1\n      pop\n        /* \"contracts/TransactionContract.sol\":4396:4407  transaction */\n      dup1\n        /* \"contracts/TransactionContract.sol\":4396:4414  transaction.params */\n      0x03\n      add\n        /* \"contracts/TransactionContract.sol\":4396:4425  transaction.params[_paramKey] */\n      0x00\n        /* \"contracts/TransactionContract.sol\":4415:4424  _paramKey */\n      dup5\n        /* \"contracts/TransactionContract.sol\":4396:4425  transaction.params[_paramKey] */\n      dup2\n      mstore\n      0x20\n      add\n      swap1\n      dup2\n      mstore\n      0x20\n      add\n      0x00\n      keccak256\n      sload\n        /* \"contracts/TransactionContract.sol\":4389:4425  return transaction.params[_paramKey] */\n      swap2\n      pop\n      pop\n        /* \"contracts/TransactionContract.sol\":4206:4432  function getTransactionParamByEventId(bytes32 _eventId, bytes32 _paramKey) public view returns (int256) {... */\n      swap3\n      swap2\n      pop\n      pop\n      jump\t// out\n        /* \"contracts/TransactionContract.sol\":2849:3150  function getTransaction(bytes32 _eventId) public view returns (bytes32, bytes32, address) {... */\n    tag_32:\n        /* \"contracts/TransactionContract.sol\":2912:2919  bytes32 */\n      0x00\n        /* \"contracts/TransactionContract.sol\":2921:2928  bytes32 */\n      dup1\n        /* \"contracts/TransactionContract.sol\":2930:2937  address */\n      0x00\n        /* \"contracts/TransactionContract.sol\":2949:2980  Transaction storage transaction */\n      dup1\n        /* \"contracts/TransactionContract.sol\":2983:3008  findTransaction(_eventId) */\n      tag_88\n        /* \"contracts/TransactionContract.sol\":2999:3007  _eventId */\n      dup6\n        /* \"contracts/TransactionContract.sol\":2983:2998  findTransaction */\n      tag_86\n        /* \"contracts/TransactionContract.sol\":2983:3008  findTransaction(_eventId) */\n      jump\t// in\n    tag_88:\n        /* \"contracts/TransactionContract.sol\":2949:3008  Transaction storage transaction = findTransaction(_eventId) */\n      swap1\n      pop\n        /* \"contracts/TransactionContract.sol\":3039:3050  transaction */\n      dup1\n        /* \"contracts/TransactionContract.sol\":3039:3066  transaction.transactionType */\n      0x01\n      add\n      sload\n        /* \"contracts/TransactionContract.sol\":3080:3091  transaction */\n      dup2\n        /* \"contracts/TransactionContract.sol\":3080:3099  transaction.eventId */\n      0x00\n      add\n      sload\n        /* \"contracts/TransactionContract.sol\":3113:3124  transaction */\n      dup3\n        /* \"contracts/TransactionContract.sol\":3113:3133  transaction.recorder */\n      0x02\n      add\n      0x00\n      swap1\n      sload\n      swap1\n      0x0100\n      exp\n      swap1\n      div\n      0xffffffffffffffffffffffffffffffffffffffff\n      and\n        /* \"contracts/TransactionContract.sol\":3018:3143  return (... */\n      swap4\n      pop\n      swap4\n      pop\n      swap4\n      pop\n      pop\n        /* \"contracts/TransactionContract.sol\":2849:3150  function getTransaction(bytes32 _eventId) public view returns (bytes32, bytes32, address) {... */\n      swap2\n      swap4\n      swap1\n      swap3\n      pop\n      jump\t// out\n        /* \"contracts/TransactionContract.sol\":3496:3601  function getTransactionsCount() public view returns (uint256) {... */\n    tag_36:\n        /* \"contracts/TransactionContract.sol\":3549:3556  uint256 */\n      0x00\n        /* \"contracts/TransactionContract.sol\":3575:3587  transactions */\n      0x01\n        /* \"contracts/TransactionContract.sol\":3575:3594  transactions.length */\n      dup1\n      sload\n      swap1\n      pop\n        /* \"contracts/TransactionContract.sol\":3568:3594  return transactions.length */\n      swap1\n      pop\n        /* \"contracts/TransactionContract.sol\":3496:3601  function getTransactionsCount() public view returns (uint256) {... */\n      swap1\n      jump\t// out\n        /* \"contracts/TransactionContract.sol\":426:459  Transaction[] public transactions */\n    tag_42:\n      0x01\n      dup2\n      dup2\n      sload\n      dup2\n      lt\n      tag_90\n      jumpi\n      0x00\n      dup1\n      revert\n    tag_90:\n      swap1\n      0x00\n      mstore\n      keccak256(0x00, 0x20)\n      swap1\n      0x04\n      mul\n      add\n      0x00\n      swap2\n      pop\n      swap1\n      pop\n      dup1\n      0x00\n      add\n      sload\n      swap1\n      dup1\n      0x01\n      add\n      sload\n      swap1\n      dup1\n      0x02\n      add\n      0x00\n      swap1\n      sload\n      swap1\n      0x0100\n      exp\n      swap1\n      div\n      0xffffffffffffffffffffffffffffffffffffffff\n      and\n      swap1\n      pop\n      dup4\n      jump\t// out\n        /* \"contracts/TransactionContract.sol\":3745:3872  function getTransactionEventId(uint256 index) public view returns (bytes32) {... */\n    tag_46:\n        /* \"contracts/TransactionContract.sol\":3812:3819  bytes32 */\n      0x00\n        /* \"contracts/TransactionContract.sol\":3838:3850  transactions */\n      0x01\n        /* \"contracts/TransactionContract.sol\":3851:3856  index */\n      dup3\n        /* \"contracts/TransactionContract.sol\":3838:3857  transactions[index] */\n      dup2\n      sload\n      dup2\n      lt\n      tag_93\n      jumpi\n      tag_94\n      tag_82\n      jump\t// in\n    tag_94:\n    tag_93:\n      swap1\n      0x00\n      mstore\n      keccak256(0x00, 0x20)\n      swap1\n      0x04\n      mul\n      add\n        /* \"contracts/TransactionContract.sol\":3838:3865  transactions[index].eventId */\n      0x00\n      add\n      sload\n        /* \"contracts/TransactionContract.sol\":3831:3865  return transactions[index].eventId */\n      swap1\n      pop\n        /* \"contracts/TransactionContract.sol\":3745:3872  function getTransactionEventId(uint256 index) public view returns (bytes32) {... */\n      swap2\n      swap1\n      pop\n      jump\t// out\n        /* \"contracts/TransactionContract.sol\":1421:1560  function registerHanlder(bytes32 transactionType, TransactionHandler handler) external {... */\n    tag_52:\n        /* \"contracts/TransactionContract.sol\":1546:1553  handler */\n      dup1\n        /* \"contracts/TransactionContract.sol\":1518:1526  handlers */\n      0x02\n        /* \"contracts/TransactionContract.sol\":1518:1543  handlers[transactionType] */\n      0x00\n        /* \"contracts/TransactionContract.sol\":1527:1542  transactionType */\n      dup5\n        /* \"contracts/TransactionContract.sol\":1518:1543  handlers[transactionType] */\n      dup2\n      mstore\n      0x20\n      add\n      swap1\n      dup2\n      mstore\n      0x20\n      add\n      0x00\n      keccak256\n      0x00\n        /* \"contracts/TransactionContract.sol\":1518:1553  handlers[transactionType] = handler */\n      0x0100\n      exp\n      dup2\n      sload\n      dup2\n      0xffffffffffffffffffffffffffffffffffffffff\n      mul\n      not\n      and\n      swap1\n      dup4\n      0xffffffffffffffffffffffffffffffffffffffff\n      and\n      mul\n      or\n      swap1\n      sstore\n      pop\n        /* \"contracts/TransactionContract.sol\":1421:1560  function registerHanlder(bytes32 transactionType, TransactionHandler handler) external {... */\n      pop\n      pop\n      jump\t// out\n        /* \"contracts/TransactionContract.sol\":1566:2072  function addRecord(bytes32[] memory data) public {... */\n    tag_56:\n        /* \"contracts/TransactionContract.sol\":1648:1649  3 */\n      0x03\n        /* \"contracts/TransactionContract.sol\":1633:1637  data */\n      dup2\n        /* \"contracts/TransactionContract.sol\":1633:1644  data.length */\n      mload\n        /* \"contracts/TransactionContract.sol\":1633:1649  data.length >= 3 */\n      lt\n      iszero\n        /* \"contracts/TransactionContract.sol\":1625:1692  require(data.length >= 3, \"Data must have at least three elements\") */\n      tag_98\n      jumpi\n      mload(0x40)\n      0x08c379a000000000000000000000000000000000000000000000000000000000\n      dup2\n      mstore\n      0x04\n      add\n      tag_99\n      swap1\n      tag_100\n      jump\t// in\n    tag_99:\n      mload(0x40)\n      dup1\n      swap2\n      sub\n      swap1\n      revert\n    tag_98:\n        /* \"contracts/TransactionContract.sol\":1702:1725  bytes32 transactionType */\n      0x00\n        /* \"contracts/TransactionContract.sol\":1728:1732  data */\n      dup2\n        /* \"contracts/TransactionContract.sol\":1733:1734  1 */\n      0x01\n        /* \"contracts/TransactionContract.sol\":1728:1735  data[1] */\n      dup2\n      mload\n      dup2\n      lt\n      tag_101\n      jumpi\n      tag_102\n      tag_82\n      jump\t// in\n    tag_102:\n    tag_101:\n      0x20\n      mul\n      0x20\n      add\n      add\n      mload\n        /* \"contracts/TransactionContract.sol\":1702:1735  bytes32 transactionType = data[1] */\n      swap1\n      pop\n        /* \"contracts/TransactionContract.sol\":1810:1836  TransactionHandler handler */\n      0x00\n        /* \"contracts/TransactionContract.sol\":1839:1847  handlers */\n      0x02\n        /* \"contracts/TransactionContract.sol\":1839:1864  handlers[transactionType] */\n      0x00\n        /* \"contracts/TransactionContract.sol\":1848:1863  transactionType */\n      dup4\n        /* \"contracts/TransactionContract.sol\":1839:1864  handlers[transactionType] */\n      dup2\n      mstore\n      0x20\n      add\n      swap1\n      dup2\n      mstore\n      0x20\n      add\n      0x00\n      keccak256\n      0x00\n      swap1\n      sload\n      swap1\n      0x0100\n      exp\n      swap1\n      div\n      0xffffffffffffffffffffffffffffffffffffffff\n      and\n        /* \"contracts/TransactionContract.sol\":1810:1864  TransactionHandler handler = handlers[transactionType] */\n      swap1\n      pop\n        /* \"contracts/TransactionContract.sol\":1910:1911  0 */\n      0x00\n        /* \"contracts/TransactionContract.sol\":1882:1912  address(handler) != address(0) */\n      0xffffffffffffffffffffffffffffffffffffffff\n      and\n        /* \"contracts/TransactionContract.sol\":1890:1897  handler */\n      dup2\n        /* \"contracts/TransactionContract.sol\":1882:1912  address(handler) != address(0) */\n      0xffffffffffffffffffffffffffffffffffffffff\n      and\n      sub\n        /* \"contracts/TransactionContract.sol\":1874:1962  require(address(handler) != address(0), \"Processor for transaction type not registered\") */\n      tag_103\n      jumpi\n      mload(0x40)\n      0x08c379a000000000000000000000000000000000000000000000000000000000\n      dup2\n      mstore\n      0x04\n      add\n      tag_104\n      swap1\n      tag_105\n      jump\t// in\n    tag_104:\n      mload(0x40)\n      dup1\n      swap2\n      sub\n      swap1\n      revert\n    tag_103:\n        /* \"contracts/TransactionContract.sol\":1973:1980  handler */\n      dup1\n        /* \"contracts/TransactionContract.sol\":1973:1999  handler.processTransaction */\n      0xffffffffffffffffffffffffffffffffffffffff\n      and\n      0xe91046a9\n        /* \"contracts/TransactionContract.sol\":2000:2004  data */\n      dup5\n        /* \"contracts/TransactionContract.sol\":2006:2016  msg.sender */\n      caller\n        /* \"contracts/TransactionContract.sol\":1973:2017  handler.processTransaction(data, msg.sender) */\n      mload(0x40)\n      dup4\n      0xffffffff\n      and\n      0xe0\n      shl\n      dup2\n      mstore\n      0x04\n      add\n      tag_106\n      swap3\n      swap2\n      swap1\n      tag_107\n      jump\t// in\n    tag_106:\n      0x00\n      mload(0x40)\n      dup1\n      dup4\n      sub\n      dup2\n      0x00\n      dup8\n      dup1\n      extcodesize\n      iszero\n      dup1\n      iszero\n      tag_108\n      jumpi\n      0x00\n      dup1\n      revert\n    tag_108:\n      pop\n      gas\n      call\n      iszero\n      dup1\n      iszero\n      tag_110\n      jumpi\n      returndatasize\n      0x00\n      dup1\n      returndatacopy\n      revert(0x00, returndatasize)\n    tag_110:\n      pop\n      pop\n      pop\n      pop\n        /* \"contracts/TransactionContract.sol\":2032:2065  transactionAdded(transactionType) */\n      0x72570b7d88e67bddfce79348887be0460047ae7c5690788e67dc3e81457c6cc5\n        /* \"contracts/TransactionContract.sol\":2049:2064  transactionType */\n      dup3\n        /* \"contracts/TransactionContract.sol\":2032:2065  transactionAdded(transactionType) */\n      mload(0x40)\n      tag_111\n      swap2\n      swap1\n      tag_48\n      jump\t// in\n    tag_111:\n      mload(0x40)\n      dup1\n      swap2\n      sub\n      swap1\n      log1\n        /* \"contracts/TransactionContract.sol\":1615:2072  {... */\n      pop\n      pop\n        /* \"contracts/TransactionContract.sol\":1566:2072  function addRecord(bytes32[] memory data) public {... */\n      pop\n      jump\t// out\n        /* \"contracts/TransactionContract.sol\":661:1282  function inputWithDecimal(... */\n    tag_60:\n        /* \"contracts/TransactionContract.sol\":855:871  bytes32[] memory */\n      0x60\n        /* \"contracts/TransactionContract.sol\":883:906  bytes32[] memory result */\n      0x00\n        /* \"contracts/TransactionContract.sol\":923:924  6 */\n      0x06\n        /* \"contracts/TransactionContract.sol\":909:925  new bytes32[](6) */\n      0xffffffffffffffff\n      dup2\n      gt\n      iszero\n      tag_113\n      jumpi\n      tag_114\n      tag_115\n      jump\t// in\n    tag_114:\n    tag_113:\n      mload(0x40)\n      swap1\n      dup1\n      dup3\n      mstore\n      dup1\n      0x20\n      mul\n      0x20\n      add\n      dup3\n      add\n      0x40\n      mstore\n      dup1\n      iszero\n      tag_116\n      jumpi\n      dup2\n      0x20\n      add\n      0x20\n      dup3\n      mul\n      dup1\n      calldatasize\n      dup4\n      calldatacopy\n      dup1\n      dup3\n      add\n      swap2\n      pop\n      pop\n      swap1\n      pop\n    tag_116:\n      pop\n        /* \"contracts/TransactionContract.sol\":883:925  bytes32[] memory result = new bytes32[](6) */\n      swap1\n      pop\n        /* \"contracts/TransactionContract.sol\":947:954  Iparser */\n      0x00\n      dup1\n      sload\n      swap1\n      0x0100\n      exp\n      swap1\n      div\n      0xffffffffffffffffffffffffffffffffffffffff\n      and\n        /* \"contracts/TransactionContract.sol\":947:970  Iparser.stringToBytes32 */\n      0xffffffffffffffffffffffffffffffffffffffff\n      and\n      0xcfb51928\n        /* \"contracts/TransactionContract.sol\":971:976  _str1 */\n      dup10\n        /* \"contracts/TransactionContract.sol\":947:977  Iparser.stringToBytes32(_str1) */\n      mload(0x40)\n      dup3\n      0xffffffff\n      and\n      0xe0\n      shl\n      dup2\n      mstore\n      0x04\n      add\n      tag_117\n      swap2\n      swap1\n      tag_118\n      jump\t// in\n    tag_117:\n      0x20\n      mload(0x40)\n      dup1\n      dup4\n      sub\n      dup2\n      dup7\n      gas\n      staticcall\n      iszero\n      dup1\n      iszero\n      tag_120\n      jumpi\n      returndatasize\n      0x00\n      dup1\n      returndatacopy\n      revert(0x00, returndatasize)\n    tag_120:\n      pop\n      pop\n      pop\n      pop\n      mload(0x40)\n      returndatasize\n      not(0x1f)\n      0x1f\n      dup3\n      add\n      and\n      dup3\n      add\n      dup1\n      0x40\n      mstore\n      pop\n      dup2\n      add\n      swap1\n      tag_121\n      swap2\n      swap1\n      tag_122\n      jump\t// in\n    tag_121:\n        /* \"contracts/TransactionContract.sol\":935:941  result */\n      dup2\n        /* \"contracts/TransactionContract.sol\":942:943  0 */\n      0x00\n        /* \"contracts/TransactionContract.sol\":935:944  result[0] */\n      dup2\n      mload\n      dup2\n      lt\n      tag_123\n      jumpi\n      tag_124\n      tag_82\n      jump\t// in\n    tag_124:\n    tag_123:\n      0x20\n      mul\n      0x20\n      add\n      add\n        /* \"contracts/TransactionContract.sol\":935:977  result[0] = Iparser.stringToBytes32(_str1) */\n      dup2\n      dup2\n      mstore\n      pop\n      pop\n        /* \"contracts/TransactionContract.sol\":999:1006  Iparser */\n      0x00\n      dup1\n      sload\n      swap1\n      0x0100\n      exp\n      swap1\n      div\n      0xffffffffffffffffffffffffffffffffffffffff\n      and\n        /* \"contracts/TransactionContract.sol\":999:1022  Iparser.stringToBytes32 */\n      0xffffffffffffffffffffffffffffffffffffffff\n      and\n      0xcfb51928\n        /* \"contracts/TransactionContract.sol\":1023:1028  _str2 */\n      dup9\n        /* \"contracts/TransactionContract.sol\":999:1029  Iparser.stringToBytes32(_str2) */\n      mload(0x40)\n      dup3\n      0xffffffff\n      and\n      0xe0\n      shl\n      dup2\n      mstore\n      0x04\n      add\n      tag_125\n      swap2\n      swap1\n      tag_118\n      jump\t// in\n    tag_125:\n      0x20\n      mload(0x40)\n      dup1\n      dup4\n      sub\n      dup2\n      dup7\n      gas\n      staticcall\n      iszero\n      dup1\n      iszero\n      tag_127\n      jumpi\n      returndatasize\n      0x00\n      dup1\n      returndatacopy\n      revert(0x00, returndatasize)\n    tag_127:\n      pop\n      pop\n      pop\n      pop\n      mload(0x40)\n      returndatasize\n      not(0x1f)\n      0x1f\n      dup3\n      add\n      and\n      dup3\n      add\n      dup1\n      0x40\n      mstore\n      pop\n      dup2\n      add\n      swap1\n      tag_128\n      swap2\n      swap1\n      tag_122\n      jump\t// in\n    tag_128:\n        /* \"contracts/TransactionContract.sol\":987:993  result */\n      dup2\n        /* \"contracts/TransactionContract.sol\":994:995  1 */\n      0x01\n        /* \"contracts/TransactionContract.sol\":987:996  result[1] */\n      dup2\n      mload\n      dup2\n      lt\n      tag_129\n      jumpi\n      tag_130\n      tag_82\n      jump\t// in\n    tag_130:\n    tag_129:\n      0x20\n      mul\n      0x20\n      add\n      add\n        /* \"contracts/TransactionContract.sol\":987:1029  result[1] = Iparser.stringToBytes32(_str2) */\n      dup2\n      dup2\n      mstore\n      pop\n      pop\n        /* \"contracts/TransactionContract.sol\":1051:1058  Iparser */\n      0x00\n      dup1\n      sload\n      swap1\n      0x0100\n      exp\n      swap1\n      div\n      0xffffffffffffffffffffffffffffffffffffffff\n      and\n        /* \"contracts/TransactionContract.sol\":1051:1071  Iparser.intToBytes32 */\n      0xffffffffffffffffffffffffffffffffffffffff\n      and\n      0x8e4a01bd\n        /* \"contracts/TransactionContract.sol\":1072:1077  _int1 */\n      dup8\n        /* \"contracts/TransactionContract.sol\":1051:1078  Iparser.intToBytes32(_int1) */\n      mload(0x40)\n      dup3\n      0xffffffff\n      and\n      0xe0\n      shl\n      dup2\n      mstore\n      0x04\n      add\n      tag_131\n      swap2\n      swap1\n      tag_23\n      jump\t// in\n    tag_131:\n      0x20\n      mload(0x40)\n      dup1\n      dup4\n      sub\n      dup2\n      dup7\n      gas\n      staticcall\n      iszero\n      dup1\n      iszero\n      tag_133\n      jumpi\n      returndatasize\n      0x00\n      dup1\n      returndatacopy\n      revert(0x00, returndatasize)\n    tag_133:\n      pop\n      pop\n      pop\n      pop\n      mload(0x40)\n      returndatasize\n      not(0x1f)\n      0x1f\n      dup3\n      add\n      and\n      dup3\n      add\n      dup1\n      0x40\n      mstore\n      pop\n      dup2\n      add\n      swap1\n      tag_134\n      swap2\n      swap1\n      tag_122\n      jump\t// in\n    tag_134:\n        /* \"contracts/TransactionContract.sol\":1039:1045  result */\n      dup2\n        /* \"contracts/TransactionContract.sol\":1046:1047  2 */\n      0x02\n        /* \"contracts/TransactionContract.sol\":1039:1048  result[2] */\n      dup2\n      mload\n      dup2\n      lt\n      tag_135\n      jumpi\n      tag_136\n      tag_82\n      jump\t// in\n    tag_136:\n    tag_135:\n      0x20\n      mul\n      0x20\n      add\n      add\n        /* \"contracts/TransactionContract.sol\":1039:1078  result[2] = Iparser.intToBytes32(_int1) */\n      dup2\n      dup2\n      mstore\n      pop\n      pop\n        /* \"contracts/TransactionContract.sol\":1100:1107  Iparser */\n      0x00\n      dup1\n      sload\n      swap1\n      0x0100\n      exp\n      swap1\n      div\n      0xffffffffffffffffffffffffffffffffffffffff\n      and\n        /* \"contracts/TransactionContract.sol\":1100:1120  Iparser.intToBytes32 */\n      0xffffffffffffffffffffffffffffffffffffffff\n      and\n      0x8e4a01bd\n        /* \"contracts/TransactionContract.sol\":1121:1126  _int2 */\n      dup7\n        /* \"contracts/TransactionContract.sol\":1100:1127  Iparser.intToBytes32(_int2) */\n      mload(0x40)\n      dup3\n      0xffffffff\n      and\n      0xe0\n      shl\n      dup2\n      mstore\n      0x04\n      add\n      tag_137\n      swap2\n      swap1\n      tag_23\n      jump\t// in\n    tag_137:\n      0x20\n      mload(0x40)\n      dup1\n      dup4\n      sub\n      dup2\n      dup7\n      gas\n      staticcall\n      iszero\n      dup1\n      iszero\n      tag_139\n      jumpi\n      returndatasize\n      0x00\n      dup1\n      returndatacopy\n      revert(0x00, returndatasize)\n    tag_139:\n      pop\n      pop\n      pop\n      pop\n      mload(0x40)\n      returndatasize\n      not(0x1f)\n      0x1f\n      dup3\n      add\n      and\n      dup3\n      add\n      dup1\n      0x40\n      mstore\n      pop\n      dup2\n      add\n      swap1\n      tag_140\n      swap2\n      swap1\n      tag_122\n      jump\t// in\n    tag_140:\n        /* \"contracts/TransactionContract.sol\":1088:1094  result */\n      dup2\n        /* \"contracts/TransactionContract.sol\":1095:1096  3 */\n      0x03\n        /* \"contracts/TransactionContract.sol\":1088:1097  result[3] */\n      dup2\n      mload\n      dup2\n      lt\n      tag_141\n      jumpi\n      tag_142\n      tag_82\n      jump\t// in\n    tag_142:\n    tag_141:\n      0x20\n      mul\n      0x20\n      add\n      add\n        /* \"contracts/TransactionContract.sol\":1088:1127  result[3] = Iparser.intToBytes32(_int2) */\n      dup2\n      dup2\n      mstore\n      pop\n      pop\n        /* \"contracts/TransactionContract.sol\":1149:1156  Iparser */\n      0x00\n      dup1\n      sload\n      swap1\n      0x0100\n      exp\n      swap1\n      div\n      0xffffffffffffffffffffffffffffffffffffffff\n      and\n        /* \"contracts/TransactionContract.sol\":1149:1169  Iparser.intToBytes32 */\n      0xffffffffffffffffffffffffffffffffffffffff\n      and\n      0x8e4a01bd\n        /* \"contracts/TransactionContract.sol\":1170:1175  _int3 */\n      dup6\n        /* \"contracts/TransactionContract.sol\":1149:1176  Iparser.intToBytes32(_int3) */\n      mload(0x40)\n      dup3\n      0xffffffff\n      and\n      0xe0\n      shl\n      dup2\n      mstore\n      0x04\n      add\n      tag_143\n      swap2\n      swap1\n      tag_23\n      jump\t// in\n    tag_143:\n      0x20\n      mload(0x40)\n      dup1\n      dup4\n      sub\n      dup2\n      dup7\n      gas\n      staticcall\n      iszero\n      dup1\n      iszero\n      tag_145\n      jumpi\n      returndatasize\n      0x00\n      dup1\n      returndatacopy\n      revert(0x00, returndatasize)\n    tag_145:\n      pop\n      pop\n      pop\n      pop\n      mload(0x40)\n      returndatasize\n      not(0x1f)\n      0x1f\n      dup3\n      add\n      and\n      dup3\n      add\n      dup1\n      0x40\n      mstore\n      pop\n      dup2\n      add\n      swap1\n      tag_146\n      swap2\n      swap1\n      tag_122\n      jump\t// in\n    tag_146:\n        /* \"contracts/TransactionContract.sol\":1137:1143  result */\n      dup2\n        /* \"contracts/TransactionContract.sol\":1144:1145  4 */\n      0x04\n        /* \"contracts/TransactionContract.sol\":1137:1146  result[4] */\n      dup2\n      mload\n      dup2\n      lt\n      tag_147\n      jumpi\n      tag_148\n      tag_82\n      jump\t// in\n    tag_148:\n    tag_147:\n      0x20\n      mul\n      0x20\n      add\n      add\n        /* \"contracts/TransactionContract.sol\":1137:1176  result[4] = Iparser.intToBytes32(_int3) */\n      dup2\n      dup2\n      mstore\n      pop\n      pop\n        /* \"contracts/TransactionContract.sol\":1198:1205  Iparser */\n      0x00\n      dup1\n      sload\n      swap1\n      0x0100\n      exp\n      swap1\n      div\n      0xffffffffffffffffffffffffffffffffffffffff\n      and\n        /* \"contracts/TransactionContract.sol\":1198:1218  Iparser.intToBytes32 */\n      0xffffffffffffffffffffffffffffffffffffffff\n      and\n      0x8e4a01bd\n        /* \"contracts/TransactionContract.sol\":1219:1224  _int4 */\n      dup5\n        /* \"contracts/TransactionContract.sol\":1198:1225  Iparser.intToBytes32(_int4) */\n      mload(0x40)\n      dup3\n      0xffffffff\n      and\n      0xe0\n      shl\n      dup2\n      mstore\n      0x04\n      add\n      tag_149\n      swap2\n      swap1\n      tag_23\n      jump\t// in\n    tag_149:\n      0x20\n      mload(0x40)\n      dup1\n      dup4\n      sub\n      dup2\n      dup7\n      gas\n      staticcall\n      iszero\n      dup1\n      iszero\n      tag_151\n      jumpi\n      returndatasize\n      0x00\n      dup1\n      returndatacopy\n      revert(0x00, returndatasize)\n    tag_151:\n      pop\n      pop\n      pop\n      pop\n      mload(0x40)\n      returndatasize\n      not(0x1f)\n      0x1f\n      dup3\n      add\n      and\n      dup3\n      add\n      dup1\n      0x40\n      mstore\n      pop\n      dup2\n      add\n      swap1\n      tag_152\n      swap2\n      swap1\n      tag_122\n      jump\t// in\n    tag_152:\n        /* \"contracts/TransactionContract.sol\":1186:1192  result */\n      dup2\n        /* \"contracts/TransactionContract.sol\":1193:1194  5 */\n      0x05\n        /* \"contracts/TransactionContract.sol\":1186:1195  result[5] */\n      dup2\n      mload\n      dup2\n      lt\n      tag_153\n      jumpi\n      tag_154\n      tag_82\n      jump\t// in\n    tag_154:\n    tag_153:\n      0x20\n      mul\n      0x20\n      add\n      add\n        /* \"contracts/TransactionContract.sol\":1186:1225  result[5] = Iparser.intToBytes32(_int4) */\n      dup2\n      dup2\n      mstore\n      pop\n      pop\n        /* \"contracts/TransactionContract.sol\":1235:1252  addRecord(result) */\n      tag_155\n        /* \"contracts/TransactionContract.sol\":1245:1251  result */\n      dup2\n        /* \"contracts/TransactionContract.sol\":1235:1244  addRecord */\n      tag_56\n        /* \"contracts/TransactionContract.sol\":1235:1252  addRecord(result) */\n      jump\t// in\n    tag_155:\n        /* \"contracts/TransactionContract.sol\":1269:1275  result */\n      dup1\n        /* \"contracts/TransactionContract.sol\":1262:1275  return result */\n      swap2\n      pop\n      pop\n        /* \"contracts/TransactionContract.sol\":661:1282  function inputWithDecimal(... */\n      swap7\n      swap6\n      pop\n      pop\n      pop\n      pop\n      pop\n      pop\n      jump\t// out\n        /* \"contracts/TransactionContract.sol\":398:420  IParser public Iparser */\n    tag_64:\n      0x00\n      dup1\n      sload\n      swap1\n      0x0100\n      exp\n      swap1\n      div\n      0xffffffffffffffffffffffffffffffffffffffff\n      and\n      dup2\n      jump\t// out\n        /* \"contracts/TransactionContract.sol\":3607:3739  function getTransactionType(uint256 index) public view returns (bytes32) {... */\n    tag_69:\n        /* \"contracts/TransactionContract.sol\":3671:3678  bytes32 */\n      0x00\n        /* \"contracts/TransactionContract.sol\":3697:3709  transactions */\n      0x01\n        /* \"contracts/TransactionContract.sol\":3710:3715  index */\n      dup3\n        /* \"contracts/TransactionContract.sol\":3697:3716  transactions[index] */\n      dup2\n      sload\n      dup2\n      lt\n      tag_157\n      jumpi\n      tag_158\n      tag_82\n      jump\t// in\n    tag_158:\n    tag_157:\n      swap1\n      0x00\n      mstore\n      keccak256(0x00, 0x20)\n      swap1\n      0x04\n      mul\n      add\n        /* \"contracts/TransactionContract.sol\":3697:3732  transactions[index].transactionType */\n      0x01\n      add\n      sload\n        /* \"contracts/TransactionContract.sol\":3690:3732  return transactions[index].transactionType */\n      swap1\n      pop\n        /* \"contracts/TransactionContract.sol\":3607:3739  function getTransactionType(uint256 index) public view returns (bytes32) {... */\n      swap2\n      swap1\n      pop\n      jump\t// out\n        /* \"contracts/TransactionContract.sol\":2079:2843  function addProcessedTransaction(... */\n    tag_74:\n        /* \"contracts/TransactionContract.sol\":2320:2331  paramValues */\n      dup1\n        /* \"contracts/TransactionContract.sol\":2320:2338  paramValues.length */\n      mload\n        /* \"contracts/TransactionContract.sol\":2300:2309  paramKeys */\n      dup3\n        /* \"contracts/TransactionContract.sol\":2300:2316  paramKeys.length */\n      mload\n        /* \"contracts/TransactionContract.sol\":2300:2338  paramKeys.length == paramValues.length */\n      eq\n        /* \"contracts/TransactionContract.sol\":2292:2385  require(paramKeys.length == paramValues.length, \"Param keys and values must match in length\") */\n      tag_161\n      jumpi\n      mload(0x40)\n      0x08c379a000000000000000000000000000000000000000000000000000000000\n      dup2\n      mstore\n      0x04\n      add\n      tag_162\n      swap1\n      tag_163\n      jump\t// in\n    tag_162:\n      mload(0x40)\n      dup1\n      swap2\n      sub\n      swap1\n      revert\n    tag_161:\n        /* \"contracts/TransactionContract.sol\":2396:2409  uint256 index */\n      0x00\n        /* \"contracts/TransactionContract.sol\":2412:2424  transactions */\n      0x01\n        /* \"contracts/TransactionContract.sol\":2412:2431  transactions.length */\n      dup1\n      sload\n      swap1\n      pop\n        /* \"contracts/TransactionContract.sol\":2396:2431  uint256 index = transactions.length */\n      swap1\n      pop\n        /* \"contracts/TransactionContract.sol\":2441:2453  transactions */\n      0x01\n        /* \"contracts/TransactionContract.sol\":2441:2460  transactions.push() */\n      dup1\n      dup2\n      0x01\n      dup2\n      sload\n      add\n      dup1\n      dup3\n      sstore\n      dup1\n      swap2\n      pop\n      pop\n      sub\n      swap1\n      0x00\n      mstore\n      keccak256(0x00, 0x20)\n      swap1\n      pop\n      pop\n        /* \"contracts/TransactionContract.sol\":2470:2501  Transaction storage transaction */\n      0x00\n        /* \"contracts/TransactionContract.sol\":2504:2516  transactions */\n      0x01\n        /* \"contracts/TransactionContract.sol\":2517:2522  index */\n      dup3\n        /* \"contracts/TransactionContract.sol\":2504:2523  transactions[index] */\n      dup2\n      sload\n      dup2\n      lt\n      tag_165\n      jumpi\n      tag_166\n      tag_82\n      jump\t// in\n    tag_166:\n    tag_165:\n      swap1\n      0x00\n      mstore\n      keccak256(0x00, 0x20)\n      swap1\n      0x04\n      mul\n      add\n        /* \"contracts/TransactionContract.sol\":2470:2523  Transaction storage transaction = transactions[index] */\n      swap1\n      pop\n        /* \"contracts/TransactionContract.sol\":2556:2563  eventId */\n      dup7\n        /* \"contracts/TransactionContract.sol\":2534:2545  transaction */\n      dup2\n        /* \"contracts/TransactionContract.sol\":2534:2553  transaction.eventId */\n      0x00\n      add\n        /* \"contracts/TransactionContract.sol\":2534:2563  transaction.eventId = eventId */\n      dup2\n      swap1\n      sstore\n      pop\n        /* \"contracts/TransactionContract.sol\":2603:2618  transactionType */\n      dup6\n        /* \"contracts/TransactionContract.sol\":2573:2584  transaction */\n      dup2\n        /* \"contracts/TransactionContract.sol\":2573:2600  transaction.transactionType */\n      0x01\n      add\n        /* \"contracts/TransactionContract.sol\":2573:2618  transaction.transactionType = transactionType */\n      dup2\n      swap1\n      sstore\n      pop\n        /* \"contracts/TransactionContract.sol\":2651:2659  recorder */\n      dup5\n        /* \"contracts/TransactionContract.sol\":2628:2639  transaction */\n      dup2\n        /* \"contracts/TransactionContract.sol\":2628:2648  transaction.recorder */\n      0x02\n      add\n      0x00\n        /* \"contracts/TransactionContract.sol\":2628:2659  transaction.recorder = recorder */\n      0x0100\n      exp\n      dup2\n      sload\n      dup2\n      0xffffffffffffffffffffffffffffffffffffffff\n      mul\n      not\n      and\n      swap1\n      dup4\n      0xffffffffffffffffffffffffffffffffffffffff\n      and\n      mul\n      or\n      swap1\n      sstore\n      pop\n        /* \"contracts/TransactionContract.sol\":2675:2681  uint i */\n      0x00\n        /* \"contracts/TransactionContract.sol\":2670:2788  for (uint i = 0; i < paramKeys.length; i++) {... */\n    tag_168:\n        /* \"contracts/TransactionContract.sol\":2691:2700  paramKeys */\n      dup5\n        /* \"contracts/TransactionContract.sol\":2691:2707  paramKeys.length */\n      mload\n        /* \"contracts/TransactionContract.sol\":2687:2688  i */\n      dup2\n        /* \"contracts/TransactionContract.sol\":2687:2707  i < paramKeys.length */\n      lt\n        /* \"contracts/TransactionContract.sol\":2670:2788  for (uint i = 0; i < paramKeys.length; i++) {... */\n      iszero\n      tag_169\n      jumpi\n        /* \"contracts/TransactionContract.sol\":2763:2774  paramValues */\n      dup4\n        /* \"contracts/TransactionContract.sol\":2775:2776  i */\n      dup2\n        /* \"contracts/TransactionContract.sol\":2763:2777  paramValues[i] */\n      dup2\n      mload\n      dup2\n      lt\n      tag_171\n      jumpi\n      tag_172\n      tag_82\n      jump\t// in\n    tag_172:\n    tag_171:\n      0x20\n      mul\n      0x20\n      add\n      add\n      mload\n        /* \"contracts/TransactionContract.sol\":2728:2739  transaction */\n      dup3\n        /* \"contracts/TransactionContract.sol\":2728:2746  transaction.params */\n      0x03\n      add\n        /* \"contracts/TransactionContract.sol\":2728:2760  transaction.params[paramKeys[i]] */\n      0x00\n        /* \"contracts/TransactionContract.sol\":2747:2756  paramKeys */\n      dup8\n        /* \"contracts/TransactionContract.sol\":2757:2758  i */\n      dup5\n        /* \"contracts/TransactionContract.sol\":2747:2759  paramKeys[i] */\n      dup2\n      mload\n      dup2\n      lt\n      tag_173\n      jumpi\n      tag_174\n      tag_82\n      jump\t// in\n    tag_174:\n    tag_173:\n      0x20\n      mul\n      0x20\n      add\n      add\n      mload\n        /* \"contracts/TransactionContract.sol\":2728:2760  transaction.params[paramKeys[i]] */\n      dup2\n      mstore\n      0x20\n      add\n      swap1\n      dup2\n      mstore\n      0x20\n      add\n      0x00\n      keccak256\n        /* \"contracts/TransactionContract.sol\":2728:2777  transaction.params[paramKeys[i]] = paramValues[i] */\n      dup2\n      swap1\n      sstore\n      pop\n        /* \"contracts/TransactionContract.sol\":2709:2712  i++ */\n      dup1\n      dup1\n      tag_175\n      swap1\n      tag_176\n      jump\t// in\n    tag_175:\n      swap2\n      pop\n      pop\n        /* \"contracts/TransactionContract.sol\":2670:2788  for (uint i = 0; i < paramKeys.length; i++) {... */\n      jump(tag_168)\n    tag_169:\n      pop\n        /* \"contracts/TransactionContract.sol\":2803:2836  transactionAdded(transactionType) */\n      0x72570b7d88e67bddfce79348887be0460047ae7c5690788e67dc3e81457c6cc5\n        /* \"contracts/TransactionContract.sol\":2820:2835  transactionType */\n      dup7\n        /* \"contracts/TransactionContract.sol\":2803:2836  transactionAdded(transactionType) */\n      mload(0x40)\n      tag_177\n      swap2\n      swap1\n      tag_48\n      jump\t// in\n    tag_177:\n      mload(0x40)\n      dup1\n      swap2\n      sub\n      swap1\n      log1\n        /* \"contracts/TransactionContract.sol\":2282:2843  {... */\n      pop\n      pop\n        /* \"contracts/TransactionContract.sol\":2079:2843  function addProcessedTransaction(... */\n      pop\n      pop\n      pop\n      pop\n      pop\n      jump\t// out\n        /* \"contracts/TransactionContract.sol\":4035:4196  function getTransactionTime(uint256 index) public view returns (int256) {... */\n    tag_77:\n        /* \"contracts/TransactionContract.sol\":4099:4105  int256 */\n      0x00\n        /* \"contracts/TransactionContract.sol\":4124:4136  transactions */\n      0x01\n        /* \"contracts/TransactionContract.sol\":4137:4142  index */\n      dup3\n        /* \"contracts/TransactionContract.sol\":4124:4143  transactions[index] */\n      dup2\n      sload\n      dup2\n      lt\n      tag_179\n      jumpi\n      tag_180\n      tag_82\n      jump\t// in\n    tag_180:\n    tag_179:\n      swap1\n      0x00\n      mstore\n      keccak256(0x00, 0x20)\n      swap1\n      0x04\n      mul\n      add\n        /* \"contracts/TransactionContract.sol\":4124:4150  transactions[index].params */\n      0x03\n      add\n        /* \"contracts/TransactionContract.sol\":4124:4189  transactions[index].params[Iparser.stringToBytes32(\"trans_time\")] */\n      0x00\n        /* \"contracts/TransactionContract.sol\":4151:4158  Iparser */\n      dup1\n      0x00\n      swap1\n      sload\n      swap1\n      0x0100\n      exp\n      swap1\n      div\n      0xffffffffffffffffffffffffffffffffffffffff\n      and\n        /* \"contracts/TransactionContract.sol\":4151:4174  Iparser.stringToBytes32 */\n      0xffffffffffffffffffffffffffffffffffffffff\n      and\n      0xcfb51928\n        /* \"contracts/TransactionContract.sol\":4151:4188  Iparser.stringToBytes32(\"trans_time\") */\n      mload(0x40)\n      dup2\n      0xffffffff\n      and\n      0xe0\n      shl\n      dup2\n      mstore\n      0x04\n      add\n      tag_182\n      swap1\n      tag_183\n      jump\t// in\n    tag_182:\n      0x20\n      mload(0x40)\n      dup1\n      dup4\n      sub\n      dup2\n      dup7\n      gas\n      staticcall\n      iszero\n      dup1\n      iszero\n      tag_185\n      jumpi\n      returndatasize\n      0x00\n      dup1\n      returndatacopy\n      revert(0x00, returndatasize)\n    tag_185:\n      pop\n      pop\n      pop\n      pop\n      mload(0x40)\n      returndatasize\n      not(0x1f)\n      0x1f\n      dup3\n      add\n      and\n      dup3\n      add\n      dup1\n      0x40\n      mstore\n      pop\n      dup2\n      add\n      swap1\n      tag_186\n      swap2\n      swap1\n      tag_122\n      jump\t// in\n    tag_186:\n        /* \"contracts/TransactionContract.sol\":4124:4189  transactions[index].params[Iparser.stringToBytes32(\"trans_time\")] */\n      dup2\n      mstore\n      0x20\n      add\n      swap1\n      dup2\n      mstore\n      0x20\n      add\n      0x00\n      keccak256\n      sload\n        /* \"contracts/TransactionContract.sol\":4117:4189  return transactions[index].params[Iparser.stringToBytes32(\"trans_time\")] */\n      swap1\n      pop\n        /* \"contracts/TransactionContract.sol\":4035:4196  function getTransactionTime(uint256 index) public view returns (int256) {... */\n      swap2\n      swap1\n      pop\n      jump\t// out\n        /* \"contracts/TransactionContract.sol\":3160:3490  function findTransaction(bytes32 _eventId) internal view returns (Transaction storage) {... */\n    tag_86:\n        /* \"contracts/TransactionContract.sol\":3226:3245  Transaction storage */\n      0x00\n        /* \"contracts/TransactionContract.sol\":3262:3268  uint i */\n      dup1\n        /* \"contracts/TransactionContract.sol\":3271:3272  0 */\n      0x00\n        /* \"contracts/TransactionContract.sol\":3262:3272  uint i = 0 */\n      swap1\n      pop\n        /* \"contracts/TransactionContract.sol\":3257:3424  for (uint i = 0; i < transactions.length; i++) {... */\n    tag_188:\n        /* \"contracts/TransactionContract.sol\":3278:3290  transactions */\n      0x01\n        /* \"contracts/TransactionContract.sol\":3278:3297  transactions.length */\n      dup1\n      sload\n      swap1\n      pop\n        /* \"contracts/TransactionContract.sol\":3274:3275  i */\n      dup2\n        /* \"contracts/TransactionContract.sol\":3274:3297  i < transactions.length */\n      lt\n        /* \"contracts/TransactionContract.sol\":3257:3424  for (uint i = 0; i < transactions.length; i++) {... */\n      iszero\n      tag_189\n      jumpi\n        /* \"contracts/TransactionContract.sol\":3349:3357  _eventId */\n      dup3\n        /* \"contracts/TransactionContract.sol\":3322:3334  transactions */\n      0x01\n        /* \"contracts/TransactionContract.sol\":3335:3336  i */\n      dup3\n        /* \"contracts/TransactionContract.sol\":3322:3337  transactions[i] */\n      dup2\n      sload\n      dup2\n      lt\n      tag_191\n      jumpi\n      tag_192\n      tag_82\n      jump\t// in\n    tag_192:\n    tag_191:\n      swap1\n      0x00\n      mstore\n      keccak256(0x00, 0x20)\n      swap1\n      0x04\n      mul\n      add\n        /* \"contracts/TransactionContract.sol\":3322:3345  transactions[i].eventId */\n      0x00\n      add\n      sload\n        /* \"contracts/TransactionContract.sol\":3322:3357  transactions[i].eventId == _eventId */\n      sub\n        /* \"contracts/TransactionContract.sol\":3318:3414  if (transactions[i].eventId == _eventId) {... */\n      tag_194\n      jumpi\n        /* \"contracts/TransactionContract.sol\":3384:3396  transactions */\n      0x01\n        /* \"contracts/TransactionContract.sol\":3397:3398  i */\n      dup2\n        /* \"contracts/TransactionContract.sol\":3384:3399  transactions[i] */\n      dup2\n      sload\n      dup2\n      lt\n      tag_195\n      jumpi\n      tag_196\n      tag_82\n      jump\t// in\n    tag_196:\n    tag_195:\n      swap1\n      0x00\n      mstore\n      keccak256(0x00, 0x20)\n      swap1\n      0x04\n      mul\n      add\n        /* \"contracts/TransactionContract.sol\":3377:3399  return transactions[i] */\n      swap2\n      pop\n      pop\n      jump(tag_187)\n        /* \"contracts/TransactionContract.sol\":3318:3414  if (transactions[i].eventId == _eventId) {... */\n    tag_194:\n        /* \"contracts/TransactionContract.sol\":3299:3302  i++ */\n      dup1\n      dup1\n      tag_198\n      swap1\n      tag_176\n      jump\t// in\n    tag_198:\n      swap2\n      pop\n      pop\n        /* \"contracts/TransactionContract.sol\":3257:3424  for (uint i = 0; i < transactions.length; i++) {... */\n      jump(tag_188)\n    tag_189:\n      pop\n        /* \"contracts/TransactionContract.sol\":3433:3483  revert(\"Transaction with given eventId not found\") */\n      mload(0x40)\n      0x08c379a000000000000000000000000000000000000000000000000000000000\n      dup2\n      mstore\n      0x04\n      add\n      tag_199\n      swap1\n      tag_200\n      jump\t// in\n    tag_199:\n      mload(0x40)\n      dup1\n      swap2\n      sub\n      swap1\n      revert\n        /* \"contracts/TransactionContract.sol\":3160:3490  function findTransaction(bytes32 _eventId) internal view returns (Transaction storage) {... */\n    tag_187:\n      swap2\n      swap1\n      pop\n      jump\t// out\n        /* \"#utility.yul\":7:82   */\n    tag_201:\n        /* \"#utility.yul\":40:46   */\n      0x00\n        /* \"#utility.yul\":73:75   */\n      0x40\n        /* \"#utility.yul\":67:76   */\n      mload\n        /* \"#utility.yul\":57:76   */\n      swap1\n      pop\n        /* \"#utility.yul\":7:82   */\n      swap1\n      jump\t// out\n        /* \"#utility.yul\":88:205   */\n    tag_202:\n        /* \"#utility.yul\":197:198   */\n      0x00\n        /* \"#utility.yul\":194:195   */\n      dup1\n        /* \"#utility.yul\":187:199   */\n      revert\n        /* \"#utility.yul\":211:328   */\n    tag_203:\n        /* \"#utility.yul\":320:321   */\n      0x00\n        /* \"#utility.yul\":317:318   */\n      dup1\n        /* \"#utility.yul\":310:322   */\n      revert\n        /* \"#utility.yul\":334:411   */\n    tag_204:\n        /* \"#utility.yul\":371:378   */\n      0x00\n        /* \"#utility.yul\":400:405   */\n      dup2\n        /* \"#utility.yul\":389:405   */\n      swap1\n      pop\n        /* \"#utility.yul\":334:411   */\n      swap2\n      swap1\n      pop\n      jump\t// out\n        /* \"#utility.yul\":417:539   */\n    tag_205:\n        /* \"#utility.yul\":490:514   */\n      tag_274\n        /* \"#utility.yul\":508:513   */\n      dup2\n        /* \"#utility.yul\":490:514   */\n      tag_204\n      jump\t// in\n    tag_274:\n        /* \"#utility.yul\":483:488   */\n      dup2\n        /* \"#utility.yul\":480:515   */\n      eq\n        /* \"#utility.yul\":470:533   */\n      tag_275\n      jumpi\n        /* \"#utility.yul\":529:530   */\n      0x00\n        /* \"#utility.yul\":526:527   */\n      dup1\n        /* \"#utility.yul\":519:531   */\n      revert\n        /* \"#utility.yul\":470:533   */\n    tag_275:\n        /* \"#utility.yul\":417:539   */\n      pop\n      jump\t// out\n        /* \"#utility.yul\":545:684   */\n    tag_206:\n        /* \"#utility.yul\":591:596   */\n      0x00\n        /* \"#utility.yul\":629:635   */\n      dup2\n        /* \"#utility.yul\":616:636   */\n      calldataload\n        /* \"#utility.yul\":607:636   */\n      swap1\n      pop\n        /* \"#utility.yul\":645:678   */\n      tag_277\n        /* \"#utility.yul\":672:677   */\n      dup2\n        /* \"#utility.yul\":645:678   */\n      tag_205\n      jump\t// in\n    tag_277:\n        /* \"#utility.yul\":545:684   */\n      swap3\n      swap2\n      pop\n      pop\n      jump\t// out\n        /* \"#utility.yul\":690:767   */\n    tag_207:\n        /* \"#utility.yul\":727:734   */\n      0x00\n        /* \"#utility.yul\":756:761   */\n      dup2\n        /* \"#utility.yul\":745:761   */\n      swap1\n      pop\n        /* \"#utility.yul\":690:767   */\n      swap2\n      swap1\n      pop\n      jump\t// out\n        /* \"#utility.yul\":773:895   */\n    tag_208:\n        /* \"#utility.yul\":846:870   */\n      tag_280\n        /* \"#utility.yul\":864:869   */\n      dup2\n        /* \"#utility.yul\":846:870   */\n      tag_207\n      jump\t// in\n    tag_280:\n        /* \"#utility.yul\":839:844   */\n      dup2\n        /* \"#utility.yul\":836:871   */\n      eq\n        /* \"#utility.yul\":826:889   */\n      tag_281\n      jumpi\n        /* \"#utility.yul\":885:886   */\n      0x00\n        /* \"#utility.yul\":882:883   */\n      dup1\n        /* \"#utility.yul\":875:887   */\n      revert\n        /* \"#utility.yul\":826:889   */\n    tag_281:\n        /* \"#utility.yul\":773:895   */\n      pop\n      jump\t// out\n        /* \"#utility.yul\":901:1040   */\n    tag_209:\n        /* \"#utility.yul\":947:952   */\n      0x00\n        /* \"#utility.yul\":985:991   */\n      dup2\n        /* \"#utility.yul\":972:992   */\n      calldataload\n        /* \"#utility.yul\":963:992   */\n      swap1\n      pop\n        /* \"#utility.yul\":1001:1034   */\n      tag_283\n        /* \"#utility.yul\":1028:1033   */\n      dup2\n        /* \"#utility.yul\":1001:1034   */\n      tag_208\n      jump\t// in\n    tag_283:\n        /* \"#utility.yul\":901:1040   */\n      swap3\n      swap2\n      pop\n      pop\n      jump\t// out\n        /* \"#utility.yul\":1046:1520   */\n    tag_20:\n        /* \"#utility.yul\":1114:1120   */\n      0x00\n        /* \"#utility.yul\":1122:1128   */\n      dup1\n        /* \"#utility.yul\":1171:1173   */\n      0x40\n        /* \"#utility.yul\":1159:1168   */\n      dup4\n        /* \"#utility.yul\":1150:1157   */\n      dup6\n        /* \"#utility.yul\":1146:1169   */\n      sub\n        /* \"#utility.yul\":1142:1174   */\n      slt\n        /* \"#utility.yul\":1139:1258   */\n      iszero\n      tag_285\n      jumpi\n        /* \"#utility.yul\":1177:1256   */\n      tag_286\n      tag_202\n      jump\t// in\n    tag_286:\n        /* \"#utility.yul\":1139:1258   */\n    tag_285:\n        /* \"#utility.yul\":1297:1298   */\n      0x00\n        /* \"#utility.yul\":1322:1375   */\n      tag_287\n        /* \"#utility.yul\":1367:1374   */\n      dup6\n        /* \"#utility.yul\":1358:1364   */\n      dup3\n        /* \"#utility.yul\":1347:1356   */\n      dup7\n        /* \"#utility.yul\":1343:1365   */\n      add\n        /* \"#utility.yul\":1322:1375   */\n      tag_206\n      jump\t// in\n    tag_287:\n        /* \"#utility.yul\":1312:1375   */\n      swap3\n      pop\n        /* \"#utility.yul\":1268:1385   */\n      pop\n        /* \"#utility.yul\":1424:1426   */\n      0x20\n        /* \"#utility.yul\":1450:1503   */\n      tag_288\n        /* \"#utility.yul\":1495:1502   */\n      dup6\n        /* \"#utility.yul\":1486:1492   */\n      dup3\n        /* \"#utility.yul\":1475:1484   */\n      dup7\n        /* \"#utility.yul\":1471:1493   */\n      add\n        /* \"#utility.yul\":1450:1503   */\n      tag_209\n      jump\t// in\n    tag_288:\n        /* \"#utility.yul\":1440:1503   */\n      swap2\n      pop\n        /* \"#utility.yul\":1395:1513   */\n      pop\n        /* \"#utility.yul\":1046:1520   */\n      swap3\n      pop\n      swap3\n      swap1\n      pop\n      jump\t// out\n        /* \"#utility.yul\":1526:1602   */\n    tag_210:\n        /* \"#utility.yul\":1562:1569   */\n      0x00\n        /* \"#utility.yul\":1591:1596   */\n      dup2\n        /* \"#utility.yul\":1580:1596   */\n      swap1\n      pop\n        /* \"#utility.yul\":1526:1602   */\n      swap2\n      swap1\n      pop\n      jump\t// out\n        /* \"#utility.yul\":1608:1723   */\n    tag_211:\n        /* \"#utility.yul\":1693:1716   */\n      tag_291\n        /* \"#utility.yul\":1710:1715   */\n      dup2\n        /* \"#utility.yul\":1693:1716   */\n      tag_210\n      jump\t// in\n    tag_291:\n        /* \"#utility.yul\":1688:1691   */\n      dup3\n        /* \"#utility.yul\":1681:1717   */\n      mstore\n        /* \"#utility.yul\":1608:1723   */\n      pop\n      pop\n      jump\t// out\n        /* \"#utility.yul\":1729:1947   */\n    tag_23:\n        /* \"#utility.yul\":1820:1824   */\n      0x00\n        /* \"#utility.yul\":1858:1860   */\n      0x20\n        /* \"#utility.yul\":1847:1856   */\n      dup3\n        /* \"#utility.yul\":1843:1861   */\n      add\n        /* \"#utility.yul\":1835:1861   */\n      swap1\n      pop\n        /* \"#utility.yul\":1871:1940   */\n      tag_293\n        /* \"#utility.yul\":1937:1938   */\n      0x00\n        /* \"#utility.yul\":1926:1935   */\n      dup4\n        /* \"#utility.yul\":1922:1939   */\n      add\n        /* \"#utility.yul\":1913:1919   */\n      dup5\n        /* \"#utility.yul\":1871:1940   */\n      tag_211\n      jump\t// in\n    tag_293:\n        /* \"#utility.yul\":1729:1947   */\n      swap3\n      swap2\n      pop\n      pop\n      jump\t// out\n        /* \"#utility.yul\":1953:2427   */\n    tag_26:\n        /* \"#utility.yul\":2021:2027   */\n      0x00\n        /* \"#utility.yul\":2029:2035   */\n      dup1\n        /* \"#utility.yul\":2078:2080   */\n      0x40\n        /* \"#utility.yul\":2066:2075   */\n      dup4\n        /* \"#utility.yul\":2057:2064   */\n      dup6\n        /* \"#utility.yul\":2053:2076   */\n      sub\n        /* \"#utility.yul\":2049:2081   */\n      slt\n        /* \"#utility.yul\":2046:2165   */\n      iszero\n      tag_295\n      jumpi\n        /* \"#utility.yul\":2084:2163   */\n      tag_296\n      tag_202\n      jump\t// in\n    tag_296:\n        /* \"#utility.yul\":2046:2165   */\n    tag_295:\n        /* \"#utility.yul\":2204:2205   */\n      0x00\n        /* \"#utility.yul\":2229:2282   */\n      tag_297\n        /* \"#utility.yul\":2274:2281   */\n      dup6\n        /* \"#utility.yul\":2265:2271   */\n      dup3\n        /* \"#utility.yul\":2254:2263   */\n      dup7\n        /* \"#utility.yul\":2250:2272   */\n      add\n        /* \"#utility.yul\":2229:2282   */\n      tag_209\n      jump\t// in\n    tag_297:\n        /* \"#utility.yul\":2219:2282   */\n      swap3\n      pop\n        /* \"#utility.yul\":2175:2292   */\n      pop\n        /* \"#utility.yul\":2331:2333   */\n      0x20\n        /* \"#utility.yul\":2357:2410   */\n      tag_298\n        /* \"#utility.yul\":2402:2409   */\n      dup6\n        /* \"#utility.yul\":2393:2399   */\n      dup3\n        /* \"#utility.yul\":2382:2391   */\n      dup7\n        /* \"#utility.yul\":2378:2400   */\n      add\n        /* \"#utility.yul\":2357:2410   */\n      tag_209\n      jump\t// in\n    tag_298:\n        /* \"#utility.yul\":2347:2410   */\n      swap2\n      pop\n        /* \"#utility.yul\":2302:2420   */\n      pop\n        /* \"#utility.yul\":1953:2427   */\n      swap3\n      pop\n      swap3\n      swap1\n      pop\n      jump\t// out\n        /* \"#utility.yul\":2433:2762   */\n    tag_31:\n        /* \"#utility.yul\":2492:2498   */\n      0x00\n        /* \"#utility.yul\":2541:2543   */\n      0x20\n        /* \"#utility.yul\":2529:2538   */\n      dup3\n        /* \"#utility.yul\":2520:2527   */\n      dup5\n        /* \"#utility.yul\":2516:2539   */\n      sub\n        /* \"#utility.yul\":2512:2544   */\n      slt\n        /* \"#utility.yul\":2509:2628   */\n      iszero\n      tag_300\n      jumpi\n        /* \"#utility.yul\":2547:2626   */\n      tag_301\n      tag_202\n      jump\t// in\n    tag_301:\n        /* \"#utility.yul\":2509:2628   */\n    tag_300:\n        /* \"#utility.yul\":2667:2668   */\n      0x00\n        /* \"#utility.yul\":2692:2745   */\n      tag_302\n        /* \"#utility.yul\":2737:2744   */\n      dup5\n        /* \"#utility.yul\":2728:2734   */\n      dup3\n        /* \"#utility.yul\":2717:2726   */\n      dup6\n        /* \"#utility.yul\":2713:2735   */\n      add\n        /* \"#utility.yul\":2692:2745   */\n      tag_209\n      jump\t// in\n    tag_302:\n        /* \"#utility.yul\":2682:2745   */\n      swap2\n      pop\n        /* \"#utility.yul\":2638:2755   */\n      pop\n        /* \"#utility.yul\":2433:2762   */\n      swap3\n      swap2\n      pop\n      pop\n      jump\t// out\n        /* \"#utility.yul\":2768:2886   */\n    tag_212:\n        /* \"#utility.yul\":2855:2879   */\n      tag_304\n        /* \"#utility.yul\":2873:2878   */\n      dup2\n        /* \"#utility.yul\":2855:2879   */\n      tag_207\n      jump\t// in\n    tag_304:\n        /* \"#utility.yul\":2850:2853   */\n      dup3\n        /* \"#utility.yul\":2843:2880   */\n      mstore\n        /* \"#utility.yul\":2768:2886   */\n      pop\n      pop\n      jump\t// out\n        /* \"#utility.yul\":2892:3018   */\n    tag_213:\n        /* \"#utility.yul\":2929:2936   */\n      0x00\n        /* \"#utility.yul\":2969:3011   */\n      0xffffffffffffffffffffffffffffffffffffffff\n        /* \"#utility.yul\":2962:2967   */\n      dup3\n        /* \"#utility.yul\":2958:3012   */\n      and\n        /* \"#utility.yul\":2947:3012   */\n      swap1\n      pop\n        /* \"#utility.yul\":2892:3018   */\n      swap2\n      swap1\n      pop\n      jump\t// out\n        /* \"#utility.yul\":3024:3120   */\n    tag_214:\n        /* \"#utility.yul\":3061:3068   */\n      0x00\n        /* \"#utility.yul\":3090:3114   */\n      tag_307\n        /* \"#utility.yul\":3108:3113   */\n      dup3\n        /* \"#utility.yul\":3090:3114   */\n      tag_213\n      jump\t// in\n    tag_307:\n        /* \"#utility.yul\":3079:3114   */\n      swap1\n      pop\n        /* \"#utility.yul\":3024:3120   */\n      swap2\n      swap1\n      pop\n      jump\t// out\n        /* \"#utility.yul\":3126:3244   */\n    tag_215:\n        /* \"#utility.yul\":3213:3237   */\n      tag_309\n        /* \"#utility.yul\":3231:3236   */\n      dup2\n        /* \"#utility.yul\":3213:3237   */\n      tag_214\n      jump\t// in\n    tag_309:\n        /* \"#utility.yul\":3208:3211   */\n      dup3\n        /* \"#utility.yul\":3201:3238   */\n      mstore\n        /* \"#utility.yul\":3126:3244   */\n      pop\n      pop\n      jump\t// out\n        /* \"#utility.yul\":3250:3692   */\n    tag_34:\n        /* \"#utility.yul\":3399:3403   */\n      0x00\n        /* \"#utility.yul\":3437:3439   */\n      0x60\n        /* \"#utility.yul\":3426:3435   */\n      dup3\n        /* \"#utility.yul\":3422:3440   */\n      add\n        /* \"#utility.yul\":3414:3440   */\n      swap1\n      pop\n        /* \"#utility.yul\":3450:3521   */\n      tag_311\n        /* \"#utility.yul\":3518:3519   */\n      0x00\n        /* \"#utility.yul\":3507:3516   */\n      dup4\n        /* \"#utility.yul\":3503:3520   */\n      add\n        /* \"#utility.yul\":3494:3500   */\n      dup7\n        /* \"#utility.yul\":3450:3521   */\n      tag_212\n      jump\t// in\n    tag_311:\n        /* \"#utility.yul\":3531:3603   */\n      tag_312\n        /* \"#utility.yul\":3599:3601   */\n      0x20\n        /* \"#utility.yul\":3588:3597   */\n      dup4\n        /* \"#utility.yul\":3584:3602   */\n      add\n        /* \"#utility.yul\":3575:3581   */\n      dup6\n        /* \"#utility.yul\":3531:3603   */\n      tag_212\n      jump\t// in\n    tag_312:\n        /* \"#utility.yul\":3613:3685   */\n      tag_313\n        /* \"#utility.yul\":3681:3683   */\n      0x40\n        /* \"#utility.yul\":3670:3679   */\n      dup4\n        /* \"#utility.yul\":3666:3684   */\n      add\n        /* \"#utility.yul\":3657:3663   */\n      dup5\n        /* \"#utility.yul\":3613:3685   */\n      tag_215\n      jump\t// in\n    tag_313:\n        /* \"#utility.yul\":3250:3692   */\n      swap5\n      swap4\n      pop\n      pop\n      pop\n      pop\n      jump\t// out\n        /* \"#utility.yul\":3698:3816   */\n    tag_216:\n        /* \"#utility.yul\":3785:3809   */\n      tag_315\n        /* \"#utility.yul\":3803:3808   */\n      dup2\n        /* \"#utility.yul\":3785:3809   */\n      tag_204\n      jump\t// in\n    tag_315:\n        /* \"#utility.yul\":3780:3783   */\n      dup3\n        /* \"#utility.yul\":3773:3810   */\n      mstore\n        /* \"#utility.yul\":3698:3816   */\n      pop\n      pop\n      jump\t// out\n        /* \"#utility.yul\":3822:4044   */\n    tag_38:\n        /* \"#utility.yul\":3915:3919   */\n      0x00\n        /* \"#utility.yul\":3953:3955   */\n      0x20\n        /* \"#utility.yul\":3942:3951   */\n      dup3\n        /* \"#utility.yul\":3938:3956   */\n      add\n        /* \"#utility.yul\":3930:3956   */\n      swap1\n      pop\n        /* \"#utility.yul\":3966:4037   */\n      tag_317\n        /* \"#utility.yul\":4034:4035   */\n      0x00\n        /* \"#utility.yul\":4023:4032   */\n      dup4\n        /* \"#utility.yul\":4019:4036   */\n      add\n        /* \"#utility.yul\":4010:4016   */\n      dup5\n        /* \"#utility.yul\":3966:4037   */\n      tag_216\n      jump\t// in\n    tag_317:\n        /* \"#utility.yul\":3822:4044   */\n      swap3\n      swap2\n      pop\n      pop\n      jump\t// out\n        /* \"#utility.yul\":4050:4379   */\n    tag_41:\n        /* \"#utility.yul\":4109:4115   */\n      0x00\n        /* \"#utility.yul\":4158:4160   */\n      0x20\n        /* \"#utility.yul\":4146:4155   */\n      dup3\n        /* \"#utility.yul\":4137:4144   */\n      dup5\n        /* \"#utility.yul\":4133:4156   */\n      sub\n        /* \"#utility.yul\":4129:4161   */\n      slt\n        /* \"#utility.yul\":4126:4245   */\n      iszero\n      tag_319\n      jumpi\n        /* \"#utility.yul\":4164:4243   */\n      tag_320\n      tag_202\n      jump\t// in\n    tag_320:\n        /* \"#utility.yul\":4126:4245   */\n    tag_319:\n        /* \"#utility.yul\":4284:4285   */\n      0x00\n        /* \"#utility.yul\":4309:4362   */\n      tag_321\n        /* \"#utility.yul\":4354:4361   */\n      dup5\n        /* \"#utility.yul\":4345:4351   */\n      dup3\n        /* \"#utility.yul\":4334:4343   */\n      dup6\n        /* \"#utility.yul\":4330:4352   */\n      add\n        /* \"#utility.yul\":4309:4362   */\n      tag_206\n      jump\t// in\n    tag_321:\n        /* \"#utility.yul\":4299:4362   */\n      swap2\n      pop\n        /* \"#utility.yul\":4255:4372   */\n      pop\n        /* \"#utility.yul\":4050:4379   */\n      swap3\n      swap2\n      pop\n      pop\n      jump\t// out\n        /* \"#utility.yul\":4385:4607   */\n    tag_48:\n        /* \"#utility.yul\":4478:4482   */\n      0x00\n        /* \"#utility.yul\":4516:4518   */\n      0x20\n        /* \"#utility.yul\":4505:4514   */\n      dup3\n        /* \"#utility.yul\":4501:4519   */\n      add\n        /* \"#utility.yul\":4493:4519   */\n      swap1\n      pop\n        /* \"#utility.yul\":4529:4600   */\n      tag_323\n        /* \"#utility.yul\":4597:4598   */\n      0x00\n        /* \"#utility.yul\":4586:4595   */\n      dup4\n        /* \"#utility.yul\":4582:4599   */\n      add\n        /* \"#utility.yul\":4573:4579   */\n      dup5\n        /* \"#utility.yul\":4529:4600   */\n      tag_212\n      jump\t// in\n    tag_323:\n        /* \"#utility.yul\":4385:4607   */\n      swap3\n      swap2\n      pop\n      pop\n      jump\t// out\n        /* \"#utility.yul\":4613:4735   */\n    tag_217:\n        /* \"#utility.yul\":4676:4683   */\n      0x00\n        /* \"#utility.yul\":4705:4729   */\n      tag_325\n        /* \"#utility.yul\":4723:4728   */\n      dup3\n        /* \"#utility.yul\":4705:4729   */\n      tag_214\n      jump\t// in\n    tag_325:\n        /* \"#utility.yul\":4694:4729   */\n      swap1\n      pop\n        /* \"#utility.yul\":4613:4735   */\n      swap2\n      swap1\n      pop\n      jump\t// out\n        /* \"#utility.yul\":4741:4915   */\n    tag_218:\n        /* \"#utility.yul\":4840:4890   */\n      tag_327\n        /* \"#utility.yul\":4884:4889   */\n      dup2\n        /* \"#utility.yul\":4840:4890   */\n      tag_217\n      jump\t// in\n    tag_327:\n        /* \"#utility.yul\":4833:4838   */\n      dup2\n        /* \"#utility.yul\":4830:4891   */\n      eq\n        /* \"#utility.yul\":4820:4909   */\n      tag_328\n      jumpi\n        /* \"#utility.yul\":4905:4906   */\n      0x00\n        /* \"#utility.yul\":4902:4903   */\n      dup1\n        /* \"#utility.yul\":4895:4907   */\n      revert\n        /* \"#utility.yul\":4820:4909   */\n    tag_328:\n        /* \"#utility.yul\":4741:4915   */\n      pop\n      jump\t// out\n        /* \"#utility.yul\":4921:5112   */\n    tag_219:\n        /* \"#utility.yul\":4993:4998   */\n      0x00\n        /* \"#utility.yul\":5031:5037   */\n      dup2\n        /* \"#utility.yul\":5018:5038   */\n      calldataload\n        /* \"#utility.yul\":5009:5038   */\n      swap1\n      pop\n        /* \"#utility.yul\":5047:5106   */\n      tag_330\n        /* \"#utility.yul\":5100:5105   */\n      dup2\n        /* \"#utility.yul\":5047:5106   */\n      tag_218\n      jump\t// in\n    tag_330:\n        /* \"#utility.yul\":4921:5112   */\n      swap3\n      swap2\n      pop\n      pop\n      jump\t// out\n        /* \"#utility.yul\":5118:5644   */\n    tag_51:\n        /* \"#utility.yul\":5212:5218   */\n      0x00\n        /* \"#utility.yul\":5220:5226   */\n      dup1\n        /* \"#utility.yul\":5269:5271   */\n      0x40\n        /* \"#utility.yul\":5257:5266   */\n      dup4\n        /* \"#utility.yul\":5248:5255   */\n      dup6\n        /* \"#utility.yul\":5244:5267   */\n      sub\n        /* \"#utility.yul\":5240:5272   */\n      slt\n        /* \"#utility.yul\":5237:5356   */\n      iszero\n      tag_332\n      jumpi\n        /* \"#utility.yul\":5275:5354   */\n      tag_333\n      tag_202\n      jump\t// in\n    tag_333:\n        /* \"#utility.yul\":5237:5356   */\n    tag_332:\n        /* \"#utility.yul\":5395:5396   */\n      0x00\n        /* \"#utility.yul\":5420:5473   */\n      tag_334\n        /* \"#utility.yul\":5465:5472   */\n      dup6\n        /* \"#utility.yul\":5456:5462   */\n      dup3\n        /* \"#utility.yul\":5445:5454   */\n      dup7\n        /* \"#utility.yul\":5441:5463   */\n      add\n        /* \"#utility.yul\":5420:5473   */\n      tag_209\n      jump\t// in\n    tag_334:\n        /* \"#utility.yul\":5410:5473   */\n      swap3\n      pop\n        /* \"#utility.yul\":5366:5483   */\n      pop\n        /* \"#utility.yul\":5522:5524   */\n      0x20\n        /* \"#utility.yul\":5548:5627   */\n      tag_335\n        /* \"#utility.yul\":5619:5626   */\n      dup6\n        /* \"#utility.yul\":5610:5616   */\n      dup3\n        /* \"#utility.yul\":5599:5608   */\n      dup7\n        /* \"#utility.yul\":5595:5617   */\n      add\n        /* \"#utility.yul\":5548:5627   */\n      tag_219\n      jump\t// in\n    tag_335:\n        /* \"#utility.yul\":5538:5627   */\n      swap2\n      pop\n        /* \"#utility.yul\":5493:5637   */\n      pop\n        /* \"#utility.yul\":5118:5644   */\n      swap3\n      pop\n      swap3\n      swap1\n      pop\n      jump\t// out\n        /* \"#utility.yul\":5650:5767   */\n    tag_220:\n        /* \"#utility.yul\":5759:5760   */\n      0x00\n        /* \"#utility.yul\":5756:5757   */\n      dup1\n        /* \"#utility.yul\":5749:5761   */\n      revert\n        /* \"#utility.yul\":5773:5875   */\n    tag_221:\n        /* \"#utility.yul\":5814:5820   */\n      0x00\n        /* \"#utility.yul\":5865:5867   */\n      0x1f\n        /* \"#utility.yul\":5861:5868   */\n      not\n        /* \"#utility.yul\":5856:5858   */\n      0x1f\n        /* \"#utility.yul\":5849:5854   */\n      dup4\n        /* \"#utility.yul\":5845:5859   */\n      add\n        /* \"#utility.yul\":5841:5869   */\n      and\n        /* \"#utility.yul\":5831:5869   */\n      swap1\n      pop\n        /* \"#utility.yul\":5773:5875   */\n      swap2\n      swap1\n      pop\n      jump\t// out\n        /* \"#utility.yul\":5881:6061   */\n    tag_115:\n        /* \"#utility.yul\":5929:6006   */\n      0x4e487b7100000000000000000000000000000000000000000000000000000000\n        /* \"#utility.yul\":5926:5927   */\n      0x00\n        /* \"#utility.yul\":5919:6007   */\n      mstore\n        /* \"#utility.yul\":6026:6030   */\n      0x41\n        /* \"#utility.yul\":6023:6024   */\n      0x04\n        /* \"#utility.yul\":6016:6031   */\n      mstore\n        /* \"#utility.yul\":6050:6054   */\n      0x24\n        /* \"#utility.yul\":6047:6048   */\n      0x00\n        /* \"#utility.yul\":6040:6055   */\n      revert\n        /* \"#utility.yul\":6067:6348   */\n    tag_222:\n        /* \"#utility.yul\":6150:6177   */\n      tag_340\n        /* \"#utility.yul\":6172:6176   */\n      dup3\n        /* \"#utility.yul\":6150:6177   */\n      tag_221\n      jump\t// in\n    tag_340:\n        /* \"#utility.yul\":6142:6148   */\n      dup2\n        /* \"#utility.yul\":6138:6178   */\n      add\n        /* \"#utility.yul\":6280:6286   */\n      dup2\n        /* \"#utility.yul\":6268:6278   */\n      dup2\n        /* \"#utility.yul\":6265:6287   */\n      lt\n        /* \"#utility.yul\":6244:6262   */\n      0xffffffffffffffff\n        /* \"#utility.yul\":6232:6242   */\n      dup3\n        /* \"#utility.yul\":6229:6263   */\n      gt\n        /* \"#utility.yul\":6226:6288   */\n      or\n        /* \"#utility.yul\":6223:6311   */\n      iszero\n      tag_341\n      jumpi\n        /* \"#utility.yul\":6291:6309   */\n      tag_342\n      tag_115\n      jump\t// in\n    tag_342:\n        /* \"#utility.yul\":6223:6311   */\n    tag_341:\n        /* \"#utility.yul\":6331:6341   */\n      dup1\n        /* \"#utility.yul\":6327:6329   */\n      0x40\n        /* \"#utility.yul\":6320:6342   */\n      mstore\n        /* \"#utility.yul\":6110:6348   */\n      pop\n        /* \"#utility.yul\":6067:6348   */\n      pop\n      pop\n      jump\t// out\n        /* \"#utility.yul\":6354:6483   */\n    tag_223:\n        /* \"#utility.yul\":6388:6394   */\n      0x00\n        /* \"#utility.yul\":6415:6435   */\n      tag_344\n      tag_201\n      jump\t// in\n    tag_344:\n        /* \"#utility.yul\":6405:6435   */\n      swap1\n      pop\n        /* \"#utility.yul\":6444:6477   */\n      tag_345\n        /* \"#utility.yul\":6472:6476   */\n      dup3\n        /* \"#utility.yul\":6464:6470   */\n      dup3\n        /* \"#utility.yul\":6444:6477   */\n      tag_222\n      jump\t// in\n    tag_345:\n        /* \"#utility.yul\":6354:6483   */\n      swap2\n      swap1\n      pop\n      jump\t// out\n        /* \"#utility.yul\":6489:6800   */\n    tag_224:\n        /* \"#utility.yul\":6566:6570   */\n      0x00\n        /* \"#utility.yul\":6656:6674   */\n      0xffffffffffffffff\n        /* \"#utility.yul\":6648:6654   */\n      dup3\n        /* \"#utility.yul\":6645:6675   */\n      gt\n        /* \"#utility.yul\":6642:6698   */\n      iszero\n      tag_347\n      jumpi\n        /* \"#utility.yul\":6678:6696   */\n      tag_348\n      tag_115\n      jump\t// in\n    tag_348:\n        /* \"#utility.yul\":6642:6698   */\n    tag_347:\n        /* \"#utility.yul\":6728:6732   */\n      0x20\n        /* \"#utility.yul\":6720:6726   */\n      dup3\n        /* \"#utility.yul\":6716:6733   */\n      mul\n        /* \"#utility.yul\":6708:6733   */\n      swap1\n      pop\n        /* \"#utility.yul\":6788:6792   */\n      0x20\n        /* \"#utility.yul\":6782:6786   */\n      dup2\n        /* \"#utility.yul\":6778:6793   */\n      add\n        /* \"#utility.yul\":6770:6793   */\n      swap1\n      pop\n        /* \"#utility.yul\":6489:6800   */\n      swap2\n      swap1\n      pop\n      jump\t// out\n        /* \"#utility.yul\":6806:6923   */\n    tag_225:\n        /* \"#utility.yul\":6915:6916   */\n      0x00\n        /* \"#utility.yul\":6912:6913   */\n      dup1\n        /* \"#utility.yul\":6905:6917   */\n      revert\n        /* \"#utility.yul\":6946:7656   */\n    tag_226:\n        /* \"#utility.yul\":7042:7047   */\n      0x00\n        /* \"#utility.yul\":7067:7148   */\n      tag_351\n        /* \"#utility.yul\":7083:7147   */\n      tag_352\n        /* \"#utility.yul\":7140:7146   */\n      dup5\n        /* \"#utility.yul\":7083:7147   */\n      tag_224\n      jump\t// in\n    tag_352:\n        /* \"#utility.yul\":7067:7148   */\n      tag_223\n      jump\t// in\n    tag_351:\n        /* \"#utility.yul\":7058:7148   */\n      swap1\n      pop\n        /* \"#utility.yul\":7168:7173   */\n      dup1\n        /* \"#utility.yul\":7197:7203   */\n      dup4\n        /* \"#utility.yul\":7190:7195   */\n      dup3\n        /* \"#utility.yul\":7183:7204   */\n      mstore\n        /* \"#utility.yul\":7231:7235   */\n      0x20\n        /* \"#utility.yul\":7224:7229   */\n      dup3\n        /* \"#utility.yul\":7220:7236   */\n      add\n        /* \"#utility.yul\":7213:7236   */\n      swap1\n      pop\n        /* \"#utility.yul\":7284:7288   */\n      0x20\n        /* \"#utility.yul\":7276:7282   */\n      dup5\n        /* \"#utility.yul\":7272:7289   */\n      mul\n        /* \"#utility.yul\":7264:7270   */\n      dup4\n        /* \"#utility.yul\":7260:7290   */\n      add\n        /* \"#utility.yul\":7313:7316   */\n      dup6\n        /* \"#utility.yul\":7305:7311   */\n      dup2\n        /* \"#utility.yul\":7302:7317   */\n      gt\n        /* \"#utility.yul\":7299:7421   */\n      iszero\n      tag_353\n      jumpi\n        /* \"#utility.yul\":7332:7411   */\n      tag_354\n      tag_225\n      jump\t// in\n    tag_354:\n        /* \"#utility.yul\":7299:7421   */\n    tag_353:\n        /* \"#utility.yul\":7447:7453   */\n      dup4\n        /* \"#utility.yul\":7430:7650   */\n    tag_355:\n        /* \"#utility.yul\":7464:7470   */\n      dup2\n        /* \"#utility.yul\":7459:7462   */\n      dup2\n        /* \"#utility.yul\":7456:7471   */\n      lt\n        /* \"#utility.yul\":7430:7650   */\n      iszero\n      tag_357\n      jumpi\n        /* \"#utility.yul\":7539:7542   */\n      dup1\n        /* \"#utility.yul\":7568:7605   */\n      tag_358\n        /* \"#utility.yul\":7601:7604   */\n      dup9\n        /* \"#utility.yul\":7589:7599   */\n      dup3\n        /* \"#utility.yul\":7568:7605   */\n      tag_209\n      jump\t// in\n    tag_358:\n        /* \"#utility.yul\":7563:7566   */\n      dup5\n        /* \"#utility.yul\":7556:7606   */\n      mstore\n        /* \"#utility.yul\":7635:7639   */\n      0x20\n        /* \"#utility.yul\":7630:7633   */\n      dup5\n        /* \"#utility.yul\":7626:7640   */\n      add\n        /* \"#utility.yul\":7619:7640   */\n      swap4\n      pop\n        /* \"#utility.yul\":7506:7650   */\n      pop\n        /* \"#utility.yul\":7490:7494   */\n      0x20\n        /* \"#utility.yul\":7485:7488   */\n      dup2\n        /* \"#utility.yul\":7481:7495   */\n      add\n        /* \"#utility.yul\":7474:7495   */\n      swap1\n      pop\n        /* \"#utility.yul\":7430:7650   */\n      jump(tag_355)\n    tag_357:\n        /* \"#utility.yul\":7434:7455   */\n      pop\n        /* \"#utility.yul\":7048:7656   */\n      pop\n      pop\n        /* \"#utility.yul\":6946:7656   */\n      swap4\n      swap3\n      pop\n      pop\n      pop\n      jump\t// out\n        /* \"#utility.yul\":7679:8049   */\n    tag_227:\n        /* \"#utility.yul\":7750:7755   */\n      0x00\n        /* \"#utility.yul\":7799:7802   */\n      dup3\n        /* \"#utility.yul\":7792:7796   */\n      0x1f\n        /* \"#utility.yul\":7784:7790   */\n      dup4\n        /* \"#utility.yul\":7780:7797   */\n      add\n        /* \"#utility.yul\":7776:7803   */\n      slt\n        /* \"#utility.yul\":7766:7888   */\n      tag_360\n      jumpi\n        /* \"#utility.yul\":7807:7886   */\n      tag_361\n      tag_220\n      jump\t// in\n    tag_361:\n        /* \"#utility.yul\":7766:7888   */\n    tag_360:\n        /* \"#utility.yul\":7924:7930   */\n      dup2\n        /* \"#utility.yul\":7911:7931   */\n      calldataload\n        /* \"#utility.yul\":7949:8043   */\n      tag_362\n        /* \"#utility.yul\":8039:8042   */\n      dup5\n        /* \"#utility.yul\":8031:8037   */\n      dup3\n        /* \"#utility.yul\":8024:8028   */\n      0x20\n        /* \"#utility.yul\":8016:8022   */\n      dup7\n        /* \"#utility.yul\":8012:8029   */\n      add\n        /* \"#utility.yul\":7949:8043   */\n      tag_226\n      jump\t// in\n    tag_362:\n        /* \"#utility.yul\":7940:8043   */\n      swap2\n      pop\n        /* \"#utility.yul\":7756:8049   */\n      pop\n        /* \"#utility.yul\":7679:8049   */\n      swap3\n      swap2\n      pop\n      pop\n      jump\t// out\n        /* \"#utility.yul\":8055:8594   */\n    tag_55:\n        /* \"#utility.yul\":8139:8145   */\n      0x00\n        /* \"#utility.yul\":8188:8190   */\n      0x20\n        /* \"#utility.yul\":8176:8185   */\n      dup3\n        /* \"#utility.yul\":8167:8174   */\n      dup5\n        /* \"#utility.yul\":8163:8186   */\n      sub\n        /* \"#utility.yul\":8159:8191   */\n      slt\n        /* \"#utility.yul\":8156:8275   */\n      iszero\n      tag_364\n      jumpi\n        /* \"#utility.yul\":8194:8273   */\n      tag_365\n      tag_202\n      jump\t// in\n    tag_365:\n        /* \"#utility.yul\":8156:8275   */\n    tag_364:\n        /* \"#utility.yul\":8342:8343   */\n      0x00\n        /* \"#utility.yul\":8331:8340   */\n      dup3\n        /* \"#utility.yul\":8327:8344   */\n      add\n        /* \"#utility.yul\":8314:8345   */\n      calldataload\n        /* \"#utility.yul\":8372:8390   */\n      0xffffffffffffffff\n        /* \"#utility.yul\":8364:8370   */\n      dup2\n        /* \"#utility.yul\":8361:8391   */\n      gt\n        /* \"#utility.yul\":8358:8475   */\n      iszero\n      tag_366\n      jumpi\n        /* \"#utility.yul\":8394:8473   */\n      tag_367\n      tag_203\n      jump\t// in\n    tag_367:\n        /* \"#utility.yul\":8358:8475   */\n    tag_366:\n        /* \"#utility.yul\":8499:8577   */\n      tag_368\n        /* \"#utility.yul\":8569:8576   */\n      dup5\n        /* \"#utility.yul\":8560:8566   */\n      dup3\n        /* \"#utility.yul\":8549:8558   */\n      dup6\n        /* \"#utility.yul\":8545:8567   */\n      add\n        /* \"#utility.yul\":8499:8577   */\n      tag_227\n      jump\t// in\n    tag_368:\n        /* \"#utility.yul\":8489:8577   */\n      swap2\n      pop\n        /* \"#utility.yul\":8285:8587   */\n      pop\n        /* \"#utility.yul\":8055:8594   */\n      swap3\n      swap2\n      pop\n      pop\n      jump\t// out\n        /* \"#utility.yul\":8600:8717   */\n    tag_228:\n        /* \"#utility.yul\":8709:8710   */\n      0x00\n        /* \"#utility.yul\":8706:8707   */\n      dup1\n        /* \"#utility.yul\":8699:8711   */\n      revert\n        /* \"#utility.yul\":8723:9031   */\n    tag_229:\n        /* \"#utility.yul\":8785:8789   */\n      0x00\n        /* \"#utility.yul\":8875:8893   */\n      0xffffffffffffffff\n        /* \"#utility.yul\":8867:8873   */\n      dup3\n        /* \"#utility.yul\":8864:8894   */\n      gt\n        /* \"#utility.yul\":8861:8917   */\n      iszero\n      tag_371\n      jumpi\n        /* \"#utility.yul\":8897:8915   */\n      tag_372\n      tag_115\n      jump\t// in\n    tag_372:\n        /* \"#utility.yul\":8861:8917   */\n    tag_371:\n        /* \"#utility.yul\":8935:8964   */\n      tag_373\n        /* \"#utility.yul\":8957:8963   */\n      dup3\n        /* \"#utility.yul\":8935:8964   */\n      tag_221\n      jump\t// in\n    tag_373:\n        /* \"#utility.yul\":8927:8964   */\n      swap1\n      pop\n        /* \"#utility.yul\":9019:9023   */\n      0x20\n        /* \"#utility.yul\":9013:9017   */\n      dup2\n        /* \"#utility.yul\":9009:9024   */\n      add\n        /* \"#utility.yul\":9001:9024   */\n      swap1\n      pop\n        /* \"#utility.yul\":8723:9031   */\n      swap2\n      swap1\n      pop\n      jump\t// out\n        /* \"#utility.yul\":9037:9183   */\n    tag_230:\n        /* \"#utility.yul\":9134:9140   */\n      dup3\n        /* \"#utility.yul\":9129:9132   */\n      dup2\n        /* \"#utility.yul\":9124:9127   */\n      dup4\n        /* \"#utility.yul\":9111:9141   */\n      calldatacopy\n        /* \"#utility.yul\":9175:9176   */\n      0x00\n        /* \"#utility.yul\":9166:9172   */\n      dup4\n        /* \"#utility.yul\":9161:9164   */\n      dup4\n        /* \"#utility.yul\":9157:9173   */\n      add\n        /* \"#utility.yul\":9150:9177   */\n      mstore\n        /* \"#utility.yul\":9037:9183   */\n      pop\n      pop\n      pop\n      jump\t// out\n        /* \"#utility.yul\":9189:9614   */\n    tag_231:\n        /* \"#utility.yul\":9267:9272   */\n      0x00\n        /* \"#utility.yul\":9292:9358   */\n      tag_376\n        /* \"#utility.yul\":9308:9357   */\n      tag_377\n        /* \"#utility.yul\":9350:9356   */\n      dup5\n        /* \"#utility.yul\":9308:9357   */\n      tag_229\n      jump\t// in\n    tag_377:\n        /* \"#utility.yul\":9292:9358   */\n      tag_223\n      jump\t// in\n    tag_376:\n        /* \"#utility.yul\":9283:9358   */\n      swap1\n      pop\n        /* \"#utility.yul\":9381:9387   */\n      dup3\n        /* \"#utility.yul\":9374:9379   */\n      dup2\n        /* \"#utility.yul\":9367:9388   */\n      mstore\n        /* \"#utility.yul\":9419:9423   */\n      0x20\n        /* \"#utility.yul\":9412:9417   */\n      dup2\n        /* \"#utility.yul\":9408:9424   */\n      add\n        /* \"#utility.yul\":9457:9460   */\n      dup5\n        /* \"#utility.yul\":9448:9454   */\n      dup5\n        /* \"#utility.yul\":9443:9446   */\n      dup5\n        /* \"#utility.yul\":9439:9455   */\n      add\n        /* \"#utility.yul\":9436:9461   */\n      gt\n        /* \"#utility.yul\":9433:9545   */\n      iszero\n      tag_378\n      jumpi\n        /* \"#utility.yul\":9464:9543   */\n      tag_379\n      tag_228\n      jump\t// in\n    tag_379:\n        /* \"#utility.yul\":9433:9545   */\n    tag_378:\n        /* \"#utility.yul\":9554:9608   */\n      tag_380\n        /* \"#utility.yul\":9601:9607   */\n      dup5\n        /* \"#utility.yul\":9596:9599   */\n      dup3\n        /* \"#utility.yul\":9591:9594   */\n      dup6\n        /* \"#utility.yul\":9554:9608   */\n      tag_230\n      jump\t// in\n    tag_380:\n        /* \"#utility.yul\":9273:9614   */\n      pop\n        /* \"#utility.yul\":9189:9614   */\n      swap4\n      swap3\n      pop\n      pop\n      pop\n      jump\t// out\n        /* \"#utility.yul\":9634:9974   */\n    tag_232:\n        /* \"#utility.yul\":9690:9695   */\n      0x00\n        /* \"#utility.yul\":9739:9742   */\n      dup3\n        /* \"#utility.yul\":9732:9736   */\n      0x1f\n        /* \"#utility.yul\":9724:9730   */\n      dup4\n        /* \"#utility.yul\":9720:9737   */\n      add\n        /* \"#utility.yul\":9716:9743   */\n      slt\n        /* \"#utility.yul\":9706:9828   */\n      tag_382\n      jumpi\n        /* \"#utility.yul\":9747:9826   */\n      tag_383\n      tag_220\n      jump\t// in\n    tag_383:\n        /* \"#utility.yul\":9706:9828   */\n    tag_382:\n        /* \"#utility.yul\":9864:9870   */\n      dup2\n        /* \"#utility.yul\":9851:9871   */\n      calldataload\n        /* \"#utility.yul\":9889:9968   */\n      tag_384\n        /* \"#utility.yul\":9964:9967   */\n      dup5\n        /* \"#utility.yul\":9956:9962   */\n      dup3\n        /* \"#utility.yul\":9949:9953   */\n      0x20\n        /* \"#utility.yul\":9941:9947   */\n      dup7\n        /* \"#utility.yul\":9937:9954   */\n      add\n        /* \"#utility.yul\":9889:9968   */\n      tag_231\n      jump\t// in\n    tag_384:\n        /* \"#utility.yul\":9880:9968   */\n      swap2\n      pop\n        /* \"#utility.yul\":9696:9974   */\n      pop\n        /* \"#utility.yul\":9634:9974   */\n      swap3\n      swap2\n      pop\n      pop\n      jump\t// out\n        /* \"#utility.yul\":9980:10100   */\n    tag_233:\n        /* \"#utility.yul\":10052:10075   */\n      tag_386\n        /* \"#utility.yul\":10069:10074   */\n      dup2\n        /* \"#utility.yul\":10052:10075   */\n      tag_210\n      jump\t// in\n    tag_386:\n        /* \"#utility.yul\":10045:10050   */\n      dup2\n        /* \"#utility.yul\":10042:10076   */\n      eq\n        /* \"#utility.yul\":10032:10094   */\n      tag_387\n      jumpi\n        /* \"#utility.yul\":10090:10091   */\n      0x00\n        /* \"#utility.yul\":10087:10088   */\n      dup1\n        /* \"#utility.yul\":10080:10092   */\n      revert\n        /* \"#utility.yul\":10032:10094   */\n    tag_387:\n        /* \"#utility.yul\":9980:10100   */\n      pop\n      jump\t// out\n        /* \"#utility.yul\":10106:10243   */\n    tag_234:\n        /* \"#utility.yul\":10151:10156   */\n      0x00\n        /* \"#utility.yul\":10189:10195   */\n      dup2\n        /* \"#utility.yul\":10176:10196   */\n      calldataload\n        /* \"#utility.yul\":10167:10196   */\n      swap1\n      pop\n        /* \"#utility.yul\":10205:10237   */\n      tag_389\n        /* \"#utility.yul\":10231:10236   */\n      dup2\n        /* \"#utility.yul\":10205:10237   */\n      tag_233\n      jump\t// in\n    tag_389:\n        /* \"#utility.yul\":10106:10243   */\n      swap3\n      swap2\n      pop\n      pop\n      jump\t// out\n        /* \"#utility.yul\":10249:11658   */\n    tag_59:\n        /* \"#utility.yul\":10369:10375   */\n      0x00\n        /* \"#utility.yul\":10377:10383   */\n      dup1\n        /* \"#utility.yul\":10385:10391   */\n      0x00\n        /* \"#utility.yul\":10393:10399   */\n      dup1\n        /* \"#utility.yul\":10401:10407   */\n      0x00\n        /* \"#utility.yul\":10409:10415   */\n      dup1\n        /* \"#utility.yul\":10458:10461   */\n      0xc0\n        /* \"#utility.yul\":10446:10455   */\n      dup8\n        /* \"#utility.yul\":10437:10444   */\n      dup10\n        /* \"#utility.yul\":10433:10456   */\n      sub\n        /* \"#utility.yul\":10429:10462   */\n      slt\n        /* \"#utility.yul\":10426:10546   */\n      iszero\n      tag_391\n      jumpi\n        /* \"#utility.yul\":10465:10544   */\n      tag_392\n      tag_202\n      jump\t// in\n    tag_392:\n        /* \"#utility.yul\":10426:10546   */\n    tag_391:\n        /* \"#utility.yul\":10613:10614   */\n      0x00\n        /* \"#utility.yul\":10602:10611   */\n      dup8\n        /* \"#utility.yul\":10598:10615   */\n      add\n        /* \"#utility.yul\":10585:10616   */\n      calldataload\n        /* \"#utility.yul\":10643:10661   */\n      0xffffffffffffffff\n        /* \"#utility.yul\":10635:10641   */\n      dup2\n        /* \"#utility.yul\":10632:10662   */\n      gt\n        /* \"#utility.yul\":10629:10746   */\n      iszero\n      tag_393\n      jumpi\n        /* \"#utility.yul\":10665:10744   */\n      tag_394\n      tag_203\n      jump\t// in\n    tag_394:\n        /* \"#utility.yul\":10629:10746   */\n    tag_393:\n        /* \"#utility.yul\":10770:10833   */\n      tag_395\n        /* \"#utility.yul\":10825:10832   */\n      dup10\n        /* \"#utility.yul\":10816:10822   */\n      dup3\n        /* \"#utility.yul\":10805:10814   */\n      dup11\n        /* \"#utility.yul\":10801:10823   */\n      add\n        /* \"#utility.yul\":10770:10833   */\n      tag_232\n      jump\t// in\n    tag_395:\n        /* \"#utility.yul\":10760:10833   */\n      swap7\n      pop\n        /* \"#utility.yul\":10556:10843   */\n      pop\n        /* \"#utility.yul\":10910:10912   */\n      0x20\n        /* \"#utility.yul\":10899:10908   */\n      dup8\n        /* \"#utility.yul\":10895:10913   */\n      add\n        /* \"#utility.yul\":10882:10914   */\n      calldataload\n        /* \"#utility.yul\":10941:10959   */\n      0xffffffffffffffff\n        /* \"#utility.yul\":10933:10939   */\n      dup2\n        /* \"#utility.yul\":10930:10960   */\n      gt\n        /* \"#utility.yul\":10927:11044   */\n      iszero\n      tag_396\n      jumpi\n        /* \"#utility.yul\":10963:11042   */\n      tag_397\n      tag_203\n      jump\t// in\n    tag_397:\n        /* \"#utility.yul\":10927:11044   */\n    tag_396:\n        /* \"#utility.yul\":11068:11131   */\n      tag_398\n        /* \"#utility.yul\":11123:11130   */\n      dup10\n        /* \"#utility.yul\":11114:11120   */\n      dup3\n        /* \"#utility.yul\":11103:11112   */\n      dup11\n        /* \"#utility.yul\":11099:11121   */\n      add\n        /* \"#utility.yul\":11068:11131   */\n      tag_232\n      jump\t// in\n    tag_398:\n        /* \"#utility.yul\":11058:11131   */\n      swap6\n      pop\n        /* \"#utility.yul\":10853:11141   */\n      pop\n        /* \"#utility.yul\":11180:11182   */\n      0x40\n        /* \"#utility.yul\":11206:11258   */\n      tag_399\n        /* \"#utility.yul\":11250:11257   */\n      dup10\n        /* \"#utility.yul\":11241:11247   */\n      dup3\n        /* \"#utility.yul\":11230:11239   */\n      dup11\n        /* \"#utility.yul\":11226:11248   */\n      add\n        /* \"#utility.yul\":11206:11258   */\n      tag_234\n      jump\t// in\n    tag_399:\n        /* \"#utility.yul\":11196:11258   */\n      swap5\n      pop\n        /* \"#utility.yul\":11151:11268   */\n      pop\n        /* \"#utility.yul\":11307:11309   */\n      0x60\n        /* \"#utility.yul\":11333:11385   */\n      tag_400\n        /* \"#utility.yul\":11377:11384   */\n      dup10\n        /* \"#utility.yul\":11368:11374   */\n      dup3\n        /* \"#utility.yul\":11357:11366   */\n      dup11\n        /* \"#utility.yul\":11353:11375   */\n      add\n        /* \"#utility.yul\":11333:11385   */\n      tag_234\n      jump\t// in\n    tag_400:\n        /* \"#utility.yul\":11323:11385   */\n      swap4\n      pop\n        /* \"#utility.yul\":11278:11395   */\n      pop\n        /* \"#utility.yul\":11434:11437   */\n      0x80\n        /* \"#utility.yul\":11461:11513   */\n      tag_401\n        /* \"#utility.yul\":11505:11512   */\n      dup10\n        /* \"#utility.yul\":11496:11502   */\n      dup3\n        /* \"#utility.yul\":11485:11494   */\n      dup11\n        /* \"#utility.yul\":11481:11503   */\n      add\n        /* \"#utility.yul\":11461:11513   */\n      tag_234\n      jump\t// in\n    tag_401:\n        /* \"#utility.yul\":11451:11513   */\n      swap3\n      pop\n        /* \"#utility.yul\":11405:11523   */\n      pop\n        /* \"#utility.yul\":11562:11565   */\n      0xa0\n        /* \"#utility.yul\":11589:11641   */\n      tag_402\n        /* \"#utility.yul\":11633:11640   */\n      dup10\n        /* \"#utility.yul\":11624:11630   */\n      dup3\n        /* \"#utility.yul\":11613:11622   */\n      dup11\n        /* \"#utility.yul\":11609:11631   */\n      add\n        /* \"#utility.yul\":11589:11641   */\n      tag_234\n      jump\t// in\n    tag_402:\n        /* \"#utility.yul\":11579:11641   */\n      swap2\n      pop\n        /* \"#utility.yul\":11533:11651   */\n      pop\n        /* \"#utility.yul\":10249:11658   */\n      swap3\n      swap6\n      pop\n      swap3\n      swap6\n      pop\n      swap3\n      swap6\n      jump\t// out\n        /* \"#utility.yul\":11664:11778   */\n    tag_235:\n        /* \"#utility.yul\":11731:11737   */\n      0x00\n        /* \"#utility.yul\":11765:11770   */\n      dup2\n        /* \"#utility.yul\":11759:11771   */\n      mload\n        /* \"#utility.yul\":11749:11771   */\n      swap1\n      pop\n        /* \"#utility.yul\":11664:11778   */\n      swap2\n      swap1\n      pop\n      jump\t// out\n        /* \"#utility.yul\":11784:11968   */\n    tag_236:\n        /* \"#utility.yul\":11883:11894   */\n      0x00\n        /* \"#utility.yul\":11917:11923   */\n      dup3\n        /* \"#utility.yul\":11912:11915   */\n      dup3\n        /* \"#utility.yul\":11905:11924   */\n      mstore\n        /* \"#utility.yul\":11957:11961   */\n      0x20\n        /* \"#utility.yul\":11952:11955   */\n      dup3\n        /* \"#utility.yul\":11948:11962   */\n      add\n        /* \"#utility.yul\":11933:11962   */\n      swap1\n      pop\n        /* \"#utility.yul\":11784:11968   */\n      swap3\n      swap2\n      pop\n      pop\n      jump\t// out\n        /* \"#utility.yul\":11974:12106   */\n    tag_237:\n        /* \"#utility.yul\":12041:12045   */\n      0x00\n        /* \"#utility.yul\":12064:12067   */\n      dup2\n        /* \"#utility.yul\":12056:12067   */\n      swap1\n      pop\n        /* \"#utility.yul\":12094:12098   */\n      0x20\n        /* \"#utility.yul\":12089:12092   */\n      dup3\n        /* \"#utility.yul\":12085:12099   */\n      add\n        /* \"#utility.yul\":12077:12099   */\n      swap1\n      pop\n        /* \"#utility.yul\":11974:12106   */\n      swap2\n      swap1\n      pop\n      jump\t// out\n        /* \"#utility.yul\":12112:12220   */\n    tag_238:\n        /* \"#utility.yul\":12189:12213   */\n      tag_407\n        /* \"#utility.yul\":12207:12212   */\n      dup2\n        /* \"#utility.yul\":12189:12213   */\n      tag_207\n      jump\t// in\n    tag_407:\n        /* \"#utility.yul\":12184:12187   */\n      dup3\n        /* \"#utility.yul\":12177:12214   */\n      mstore\n        /* \"#utility.yul\":12112:12220   */\n      pop\n      pop\n      jump\t// out\n        /* \"#utility.yul\":12226:12405   */\n    tag_239:\n        /* \"#utility.yul\":12295:12305   */\n      0x00\n        /* \"#utility.yul\":12316:12362   */\n      tag_409\n        /* \"#utility.yul\":12358:12361   */\n      dup4\n        /* \"#utility.yul\":12350:12356   */\n      dup4\n        /* \"#utility.yul\":12316:12362   */\n      tag_238\n      jump\t// in\n    tag_409:\n        /* \"#utility.yul\":12394:12398   */\n      0x20\n        /* \"#utility.yul\":12389:12392   */\n      dup4\n        /* \"#utility.yul\":12385:12399   */\n      add\n        /* \"#utility.yul\":12371:12399   */\n      swap1\n      pop\n        /* \"#utility.yul\":12226:12405   */\n      swap3\n      swap2\n      pop\n      pop\n      jump\t// out\n        /* \"#utility.yul\":12411:12524   */\n    tag_240:\n        /* \"#utility.yul\":12481:12485   */\n      0x00\n        /* \"#utility.yul\":12513:12517   */\n      0x20\n        /* \"#utility.yul\":12508:12511   */\n      dup3\n        /* \"#utility.yul\":12504:12518   */\n      add\n        /* \"#utility.yul\":12496:12518   */\n      swap1\n      pop\n        /* \"#utility.yul\":12411:12524   */\n      swap2\n      swap1\n      pop\n      jump\t// out\n        /* \"#utility.yul\":12560:13292   */\n    tag_241:\n        /* \"#utility.yul\":12679:12682   */\n      0x00\n        /* \"#utility.yul\":12708:12762   */\n      tag_412\n        /* \"#utility.yul\":12756:12761   */\n      dup3\n        /* \"#utility.yul\":12708:12762   */\n      tag_235\n      jump\t// in\n    tag_412:\n        /* \"#utility.yul\":12778:12864   */\n      tag_413\n        /* \"#utility.yul\":12857:12863   */\n      dup2\n        /* \"#utility.yul\":12852:12855   */\n      dup6\n        /* \"#utility.yul\":12778:12864   */\n      tag_236\n      jump\t// in\n    tag_413:\n        /* \"#utility.yul\":12771:12864   */\n      swap4\n      pop\n        /* \"#utility.yul\":12888:12944   */\n      tag_414\n        /* \"#utility.yul\":12938:12943   */\n      dup4\n        /* \"#utility.yul\":12888:12944   */\n      tag_237\n      jump\t// in\n    tag_414:\n        /* \"#utility.yul\":12967:12974   */\n      dup1\n        /* \"#utility.yul\":12998:12999   */\n      0x00\n        /* \"#utility.yul\":12983:13267   */\n    tag_415:\n        /* \"#utility.yul\":13008:13014   */\n      dup4\n        /* \"#utility.yul\":13005:13006   */\n      dup2\n        /* \"#utility.yul\":13002:13015   */\n      lt\n        /* \"#utility.yul\":12983:13267   */\n      iszero\n      tag_417\n      jumpi\n        /* \"#utility.yul\":13084:13090   */\n      dup2\n        /* \"#utility.yul\":13078:13091   */\n      mload\n        /* \"#utility.yul\":13111:13174   */\n      tag_418\n        /* \"#utility.yul\":13170:13173   */\n      dup9\n        /* \"#utility.yul\":13155:13168   */\n      dup3\n        /* \"#utility.yul\":13111:13174   */\n      tag_239\n      jump\t// in\n    tag_418:\n        /* \"#utility.yul\":13104:13174   */\n      swap8\n      pop\n        /* \"#utility.yul\":13197:13257   */\n      tag_419\n        /* \"#utility.yul\":13250:13256   */\n      dup4\n        /* \"#utility.yul\":13197:13257   */\n      tag_240\n      jump\t// in\n    tag_419:\n        /* \"#utility.yul\":13187:13257   */\n      swap3\n      pop\n        /* \"#utility.yul\":13043:13267   */\n      pop\n        /* \"#utility.yul\":13030:13031   */\n      0x01\n        /* \"#utility.yul\":13027:13028   */\n      dup2\n        /* \"#utility.yul\":13023:13032   */\n      add\n        /* \"#utility.yul\":13018:13032   */\n      swap1\n      pop\n        /* \"#utility.yul\":12983:13267   */\n      jump(tag_415)\n    tag_417:\n        /* \"#utility.yul\":12987:13001   */\n      pop\n        /* \"#utility.yul\":13283:13286   */\n      dup6\n        /* \"#utility.yul\":13276:13286   */\n      swap4\n      pop\n        /* \"#utility.yul\":12684:13292   */\n      pop\n      pop\n      pop\n        /* \"#utility.yul\":12560:13292   */\n      swap3\n      swap2\n      pop\n      pop\n      jump\t// out\n        /* \"#utility.yul\":13298:13671   */\n    tag_62:\n        /* \"#utility.yul\":13441:13445   */\n      0x00\n        /* \"#utility.yul\":13479:13481   */\n      0x20\n        /* \"#utility.yul\":13468:13477   */\n      dup3\n        /* \"#utility.yul\":13464:13482   */\n      add\n        /* \"#utility.yul\":13456:13482   */\n      swap1\n      pop\n        /* \"#utility.yul\":13528:13537   */\n      dup2\n        /* \"#utility.yul\":13522:13526   */\n      dup2\n        /* \"#utility.yul\":13518:13538   */\n      sub\n        /* \"#utility.yul\":13514:13515   */\n      0x00\n        /* \"#utility.yul\":13503:13512   */\n      dup4\n        /* \"#utility.yul\":13499:13516   */\n      add\n        /* \"#utility.yul\":13492:13539   */\n      mstore\n        /* \"#utility.yul\":13556:13664   */\n      tag_421\n        /* \"#utility.yul\":13659:13663   */\n      dup2\n        /* \"#utility.yul\":13650:13656   */\n      dup5\n        /* \"#utility.yul\":13556:13664   */\n      tag_241\n      jump\t// in\n    tag_421:\n        /* \"#utility.yul\":13548:13664   */\n      swap1\n      pop\n        /* \"#utility.yul\":13298:13671   */\n      swap3\n      swap2\n      pop\n      pop\n      jump\t// out\n        /* \"#utility.yul\":13677:13737   */\n    tag_242:\n        /* \"#utility.yul\":13705:13708   */\n      0x00\n        /* \"#utility.yul\":13726:13731   */\n      dup2\n        /* \"#utility.yul\":13719:13731   */\n      swap1\n      pop\n        /* \"#utility.yul\":13677:13737   */\n      swap2\n      swap1\n      pop\n      jump\t// out\n        /* \"#utility.yul\":13743:13885   */\n    tag_243:\n        /* \"#utility.yul\":13793:13802   */\n      0x00\n        /* \"#utility.yul\":13826:13879   */\n      tag_424\n        /* \"#utility.yul\":13844:13878   */\n      tag_425\n        /* \"#utility.yul\":13853:13877   */\n      tag_426\n        /* \"#utility.yul\":13871:13876   */\n      dup5\n        /* \"#utility.yul\":13853:13877   */\n      tag_213\n      jump\t// in\n    tag_426:\n        /* \"#utility.yul\":13844:13878   */\n      tag_242\n      jump\t// in\n    tag_425:\n        /* \"#utility.yul\":13826:13879   */\n      tag_213\n      jump\t// in\n    tag_424:\n        /* \"#utility.yul\":13813:13879   */\n      swap1\n      pop\n        /* \"#utility.yul\":13743:13885   */\n      swap2\n      swap1\n      pop\n      jump\t// out\n        /* \"#utility.yul\":13891:14017   */\n    tag_244:\n        /* \"#utility.yul\":13941:13950   */\n      0x00\n        /* \"#utility.yul\":13974:14011   */\n      tag_428\n        /* \"#utility.yul\":14005:14010   */\n      dup3\n        /* \"#utility.yul\":13974:14011   */\n      tag_243\n      jump\t// in\n    tag_428:\n        /* \"#utility.yul\":13961:14011   */\n      swap1\n      pop\n        /* \"#utility.yul\":13891:14017   */\n      swap2\n      swap1\n      pop\n      jump\t// out\n        /* \"#utility.yul\":14023:14164   */\n    tag_245:\n        /* \"#utility.yul\":14088:14097   */\n      0x00\n        /* \"#utility.yul\":14121:14158   */\n      tag_430\n        /* \"#utility.yul\":14152:14157   */\n      dup3\n        /* \"#utility.yul\":14121:14158   */\n      tag_244\n      jump\t// in\n    tag_430:\n        /* \"#utility.yul\":14108:14158   */\n      swap1\n      pop\n        /* \"#utility.yul\":14023:14164   */\n      swap2\n      swap1\n      pop\n      jump\t// out\n        /* \"#utility.yul\":14170:14331   */\n    tag_246:\n        /* \"#utility.yul\":14272:14324   */\n      tag_432\n        /* \"#utility.yul\":14318:14323   */\n      dup2\n        /* \"#utility.yul\":14272:14324   */\n      tag_245\n      jump\t// in\n    tag_432:\n        /* \"#utility.yul\":14267:14270   */\n      dup3\n        /* \"#utility.yul\":14260:14325   */\n      mstore\n        /* \"#utility.yul\":14170:14331   */\n      pop\n      pop\n      jump\t// out\n        /* \"#utility.yul\":14337:14589   */\n    tag_66:\n        /* \"#utility.yul\":14445:14449   */\n      0x00\n        /* \"#utility.yul\":14483:14485   */\n      0x20\n        /* \"#utility.yul\":14472:14481   */\n      dup3\n        /* \"#utility.yul\":14468:14486   */\n      add\n        /* \"#utility.yul\":14460:14486   */\n      swap1\n      pop\n        /* \"#utility.yul\":14496:14582   */\n      tag_434\n        /* \"#utility.yul\":14579:14580   */\n      0x00\n        /* \"#utility.yul\":14568:14577   */\n      dup4\n        /* \"#utility.yul\":14564:14581   */\n      add\n        /* \"#utility.yul\":14555:14561   */\n      dup5\n        /* \"#utility.yul\":14496:14582   */\n      tag_246\n      jump\t// in\n    tag_434:\n        /* \"#utility.yul\":14337:14589   */\n      swap3\n      swap2\n      pop\n      pop\n      jump\t// out\n        /* \"#utility.yul\":14595:14717   */\n    tag_247:\n        /* \"#utility.yul\":14668:14692   */\n      tag_436\n        /* \"#utility.yul\":14686:14691   */\n      dup2\n        /* \"#utility.yul\":14668:14692   */\n      tag_214\n      jump\t// in\n    tag_436:\n        /* \"#utility.yul\":14661:14666   */\n      dup2\n        /* \"#utility.yul\":14658:14693   */\n      eq\n        /* \"#utility.yul\":14648:14711   */\n      tag_437\n      jumpi\n        /* \"#utility.yul\":14707:14708   */\n      0x00\n        /* \"#utility.yul\":14704:14705   */\n      dup1\n        /* \"#utility.yul\":14697:14709   */\n      revert\n        /* \"#utility.yul\":14648:14711   */\n    tag_437:\n        /* \"#utility.yul\":14595:14717   */\n      pop\n      jump\t// out\n        /* \"#utility.yul\":14723:14862   */\n    tag_248:\n        /* \"#utility.yul\":14769:14774   */\n      0x00\n        /* \"#utility.yul\":14807:14813   */\n      dup2\n        /* \"#utility.yul\":14794:14814   */\n      calldataload\n        /* \"#utility.yul\":14785:14814   */\n      swap1\n      pop\n        /* \"#utility.yul\":14823:14856   */\n      tag_439\n        /* \"#utility.yul\":14850:14855   */\n      dup2\n        /* \"#utility.yul\":14823:14856   */\n      tag_247\n      jump\t// in\n    tag_439:\n        /* \"#utility.yul\":14723:14862   */\n      swap3\n      swap2\n      pop\n      pop\n      jump\t// out\n        /* \"#utility.yul\":14868:15178   */\n    tag_249:\n        /* \"#utility.yul\":14944:14948   */\n      0x00\n        /* \"#utility.yul\":15034:15052   */\n      0xffffffffffffffff\n        /* \"#utility.yul\":15026:15032   */\n      dup3\n        /* \"#utility.yul\":15023:15053   */\n      gt\n        /* \"#utility.yul\":15020:15076   */\n      iszero\n      tag_441\n      jumpi\n        /* \"#utility.yul\":15056:15074   */\n      tag_442\n      tag_115\n      jump\t// in\n    tag_442:\n        /* \"#utility.yul\":15020:15076   */\n    tag_441:\n        /* \"#utility.yul\":15106:15110   */\n      0x20\n        /* \"#utility.yul\":15098:15104   */\n      dup3\n        /* \"#utility.yul\":15094:15111   */\n      mul\n        /* \"#utility.yul\":15086:15111   */\n      swap1\n      pop\n        /* \"#utility.yul\":15166:15170   */\n      0x20\n        /* \"#utility.yul\":15160:15164   */\n      dup2\n        /* \"#utility.yul\":15156:15171   */\n      add\n        /* \"#utility.yul\":15148:15171   */\n      swap1\n      pop\n        /* \"#utility.yul\":14868:15178   */\n      swap2\n      swap1\n      pop\n      jump\t// out\n        /* \"#utility.yul\":15200:15907   */\n    tag_250:\n        /* \"#utility.yul\":15295:15300   */\n      0x00\n        /* \"#utility.yul\":15320:15400   */\n      tag_444\n        /* \"#utility.yul\":15336:15399   */\n      tag_445\n        /* \"#utility.yul\":15392:15398   */\n      dup5\n        /* \"#utility.yul\":15336:15399   */\n      tag_249\n      jump\t// in\n    tag_445:\n        /* \"#utility.yul\":15320:15400   */\n      tag_223\n      jump\t// in\n    tag_444:\n        /* \"#utility.yul\":15311:15400   */\n      swap1\n      pop\n        /* \"#utility.yul\":15420:15425   */\n      dup1\n        /* \"#utility.yul\":15449:15455   */\n      dup4\n        /* \"#utility.yul\":15442:15447   */\n      dup3\n        /* \"#utility.yul\":15435:15456   */\n      mstore\n        /* \"#utility.yul\":15483:15487   */\n      0x20\n        /* \"#utility.yul\":15476:15481   */\n      dup3\n        /* \"#utility.yul\":15472:15488   */\n      add\n        /* \"#utility.yul\":15465:15488   */\n      swap1\n      pop\n        /* \"#utility.yul\":15536:15540   */\n      0x20\n        /* \"#utility.yul\":15528:15534   */\n      dup5\n        /* \"#utility.yul\":15524:15541   */\n      mul\n        /* \"#utility.yul\":15516:15522   */\n      dup4\n        /* \"#utility.yul\":15512:15542   */\n      add\n        /* \"#utility.yul\":15565:15568   */\n      dup6\n        /* \"#utility.yul\":15557:15563   */\n      dup2\n        /* \"#utility.yul\":15554:15569   */\n      gt\n        /* \"#utility.yul\":15551:15673   */\n      iszero\n      tag_446\n      jumpi\n        /* \"#utility.yul\":15584:15663   */\n      tag_447\n      tag_225\n      jump\t// in\n    tag_447:\n        /* \"#utility.yul\":15551:15673   */\n    tag_446:\n        /* \"#utility.yul\":15699:15705   */\n      dup4\n        /* \"#utility.yul\":15682:15901   */\n    tag_448:\n        /* \"#utility.yul\":15716:15722   */\n      dup2\n        /* \"#utility.yul\":15711:15714   */\n      dup2\n        /* \"#utility.yul\":15708:15723   */\n      lt\n        /* \"#utility.yul\":15682:15901   */\n      iszero\n      tag_450\n      jumpi\n        /* \"#utility.yul\":15791:15794   */\n      dup1\n        /* \"#utility.yul\":15820:15856   */\n      tag_451\n        /* \"#utility.yul\":15852:15855   */\n      dup9\n        /* \"#utility.yul\":15840:15850   */\n      dup3\n        /* \"#utility.yul\":15820:15856   */\n      tag_234\n      jump\t// in\n    tag_451:\n        /* \"#utility.yul\":15815:15818   */\n      dup5\n        /* \"#utility.yul\":15808:15857   */\n      mstore\n        /* \"#utility.yul\":15886:15890   */\n      0x20\n        /* \"#utility.yul\":15881:15884   */\n      dup5\n        /* \"#utility.yul\":15877:15891   */\n      add\n        /* \"#utility.yul\":15870:15891   */\n      swap4\n      pop\n        /* \"#utility.yul\":15758:15901   */\n      pop\n        /* \"#utility.yul\":15742:15746   */\n      0x20\n        /* \"#utility.yul\":15737:15740   */\n      dup2\n        /* \"#utility.yul\":15733:15747   */\n      add\n        /* \"#utility.yul\":15726:15747   */\n      swap1\n      pop\n        /* \"#utility.yul\":15682:15901   */\n      jump(tag_448)\n    tag_450:\n        /* \"#utility.yul\":15686:15707   */\n      pop\n        /* \"#utility.yul\":15301:15907   */\n      pop\n      pop\n        /* \"#utility.yul\":15200:15907   */\n      swap4\n      swap3\n      pop\n      pop\n      pop\n      jump\t// out\n        /* \"#utility.yul\":15929:16297   */\n    tag_251:\n        /* \"#utility.yul\":15999:16004   */\n      0x00\n        /* \"#utility.yul\":16048:16051   */\n      dup3\n        /* \"#utility.yul\":16041:16045   */\n      0x1f\n        /* \"#utility.yul\":16033:16039   */\n      dup4\n        /* \"#utility.yul\":16029:16046   */\n      add\n        /* \"#utility.yul\":16025:16052   */\n      slt\n        /* \"#utility.yul\":16015:16137   */\n      tag_453\n      jumpi\n        /* \"#utility.yul\":16056:16135   */\n      tag_454\n      tag_220\n      jump\t// in\n    tag_454:\n        /* \"#utility.yul\":16015:16137   */\n    tag_453:\n        /* \"#utility.yul\":16173:16179   */\n      dup2\n        /* \"#utility.yul\":16160:16180   */\n      calldataload\n        /* \"#utility.yul\":16198:16291   */\n      tag_455\n        /* \"#utility.yul\":16287:16290   */\n      dup5\n        /* \"#utility.yul\":16279:16285   */\n      dup3\n        /* \"#utility.yul\":16272:16276   */\n      0x20\n        /* \"#utility.yul\":16264:16270   */\n      dup7\n        /* \"#utility.yul\":16260:16277   */\n      add\n        /* \"#utility.yul\":16198:16291   */\n      tag_250\n      jump\t// in\n    tag_455:\n        /* \"#utility.yul\":16189:16291   */\n      swap2\n      pop\n        /* \"#utility.yul\":16005:16297   */\n      pop\n        /* \"#utility.yul\":15929:16297   */\n      swap3\n      swap2\n      pop\n      pop\n      jump\t// out\n        /* \"#utility.yul\":16303:17632   */\n    tag_73:\n        /* \"#utility.yul\":16447:16453   */\n      0x00\n        /* \"#utility.yul\":16455:16461   */\n      dup1\n        /* \"#utility.yul\":16463:16469   */\n      0x00\n        /* \"#utility.yul\":16471:16477   */\n      dup1\n        /* \"#utility.yul\":16479:16485   */\n      0x00\n        /* \"#utility.yul\":16528:16531   */\n      0xa0\n        /* \"#utility.yul\":16516:16525   */\n      dup7\n        /* \"#utility.yul\":16507:16514   */\n      dup9\n        /* \"#utility.yul\":16503:16526   */\n      sub\n        /* \"#utility.yul\":16499:16532   */\n      slt\n        /* \"#utility.yul\":16496:16616   */\n      iszero\n      tag_457\n      jumpi\n        /* \"#utility.yul\":16535:16614   */\n      tag_458\n      tag_202\n      jump\t// in\n    tag_458:\n        /* \"#utility.yul\":16496:16616   */\n    tag_457:\n        /* \"#utility.yul\":16655:16656   */\n      0x00\n        /* \"#utility.yul\":16680:16733   */\n      tag_459\n        /* \"#utility.yul\":16725:16732   */\n      dup9\n        /* \"#utility.yul\":16716:16722   */\n      dup3\n        /* \"#utility.yul\":16705:16714   */\n      dup10\n        /* \"#utility.yul\":16701:16723   */\n      add\n        /* \"#utility.yul\":16680:16733   */\n      tag_209\n      jump\t// in\n    tag_459:\n        /* \"#utility.yul\":16670:16733   */\n      swap6\n      pop\n        /* \"#utility.yul\":16626:16743   */\n      pop\n        /* \"#utility.yul\":16782:16784   */\n      0x20\n        /* \"#utility.yul\":16808:16861   */\n      tag_460\n        /* \"#utility.yul\":16853:16860   */\n      dup9\n        /* \"#utility.yul\":16844:16850   */\n      dup3\n        /* \"#utility.yul\":16833:16842   */\n      dup10\n        /* \"#utility.yul\":16829:16851   */\n      add\n        /* \"#utility.yul\":16808:16861   */\n      tag_209\n      jump\t// in\n    tag_460:\n        /* \"#utility.yul\":16798:16861   */\n      swap5\n      pop\n        /* \"#utility.yul\":16753:16871   */\n      pop\n        /* \"#utility.yul\":16910:16912   */\n      0x40\n        /* \"#utility.yul\":16936:16989   */\n      tag_461\n        /* \"#utility.yul\":16981:16988   */\n      dup9\n        /* \"#utility.yul\":16972:16978   */\n      dup3\n        /* \"#utility.yul\":16961:16970   */\n      dup10\n        /* \"#utility.yul\":16957:16979   */\n      add\n        /* \"#utility.yul\":16936:16989   */\n      tag_248\n      jump\t// in\n    tag_461:\n        /* \"#utility.yul\":16926:16989   */\n      swap4\n      pop\n        /* \"#utility.yul\":16881:16999   */\n      pop\n        /* \"#utility.yul\":17066:17068   */\n      0x60\n        /* \"#utility.yul\":17055:17064   */\n      dup7\n        /* \"#utility.yul\":17051:17069   */\n      add\n        /* \"#utility.yul\":17038:17070   */\n      calldataload\n        /* \"#utility.yul\":17097:17115   */\n      0xffffffffffffffff\n        /* \"#utility.yul\":17089:17095   */\n      dup2\n        /* \"#utility.yul\":17086:17116   */\n      gt\n        /* \"#utility.yul\":17083:17200   */\n      iszero\n      tag_462\n      jumpi\n        /* \"#utility.yul\":17119:17198   */\n      tag_463\n      tag_203\n      jump\t// in\n    tag_463:\n        /* \"#utility.yul\":17083:17200   */\n    tag_462:\n        /* \"#utility.yul\":17224:17302   */\n      tag_464\n        /* \"#utility.yul\":17294:17301   */\n      dup9\n        /* \"#utility.yul\":17285:17291   */\n      dup3\n        /* \"#utility.yul\":17274:17283   */\n      dup10\n        /* \"#utility.yul\":17270:17292   */\n      add\n        /* \"#utility.yul\":17224:17302   */\n      tag_227\n      jump\t// in\n    tag_464:\n        /* \"#utility.yul\":17214:17302   */\n      swap3\n      pop\n        /* \"#utility.yul\":17009:17312   */\n      pop\n        /* \"#utility.yul\":17379:17382   */\n      0x80\n        /* \"#utility.yul\":17368:17377   */\n      dup7\n        /* \"#utility.yul\":17364:17383   */\n      add\n        /* \"#utility.yul\":17351:17384   */\n      calldataload\n        /* \"#utility.yul\":17411:17429   */\n      0xffffffffffffffff\n        /* \"#utility.yul\":17403:17409   */\n      dup2\n        /* \"#utility.yul\":17400:17430   */\n      gt\n        /* \"#utility.yul\":17397:17514   */\n      iszero\n      tag_465\n      jumpi\n        /* \"#utility.yul\":17433:17512   */\n      tag_466\n      tag_203\n      jump\t// in\n    tag_466:\n        /* \"#utility.yul\":17397:17514   */\n    tag_465:\n        /* \"#utility.yul\":17538:17615   */\n      tag_467\n        /* \"#utility.yul\":17607:17614   */\n      dup9\n        /* \"#utility.yul\":17598:17604   */\n      dup3\n        /* \"#utility.yul\":17587:17596   */\n      dup10\n        /* \"#utility.yul\":17583:17605   */\n      add\n        /* \"#utility.yul\":17538:17615   */\n      tag_251\n      jump\t// in\n    tag_467:\n        /* \"#utility.yul\":17528:17615   */\n      swap2\n      pop\n        /* \"#utility.yul\":17322:17625   */\n      pop\n        /* \"#utility.yul\":16303:17632   */\n      swap3\n      swap6\n      pop\n      swap3\n      swap6\n      swap1\n      swap4\n      pop\n      jump\t// out\n        /* \"#utility.yul\":17638:17818   */\n    tag_82:\n        /* \"#utility.yul\":17686:17763   */\n      0x4e487b7100000000000000000000000000000000000000000000000000000000\n        /* \"#utility.yul\":17683:17684   */\n      0x00\n        /* \"#utility.yul\":17676:17764   */\n      mstore\n        /* \"#utility.yul\":17783:17787   */\n      0x32\n        /* \"#utility.yul\":17780:17781   */\n      0x04\n        /* \"#utility.yul\":17773:17788   */\n      mstore\n        /* \"#utility.yul\":17807:17811   */\n      0x24\n        /* \"#utility.yul\":17804:17805   */\n      0x00\n        /* \"#utility.yul\":17797:17812   */\n      revert\n        /* \"#utility.yul\":17824:17993   */\n    tag_252:\n        /* \"#utility.yul\":17908:17919   */\n      0x00\n        /* \"#utility.yul\":17942:17948   */\n      dup3\n        /* \"#utility.yul\":17937:17940   */\n      dup3\n        /* \"#utility.yul\":17930:17949   */\n      mstore\n        /* \"#utility.yul\":17982:17986   */\n      0x20\n        /* \"#utility.yul\":17977:17980   */\n      dup3\n        /* \"#utility.yul\":17973:17987   */\n      add\n        /* \"#utility.yul\":17958:17987   */\n      swap1\n      pop\n        /* \"#utility.yul\":17824:17993   */\n      swap3\n      swap2\n      pop\n      pop\n      jump\t// out\n        /* \"#utility.yul\":17999:18224   */\n    tag_253:\n        /* \"#utility.yul\":18139:18173   */\n      0x44617461206d7573742068617665206174206c6561737420746872656520656c\n        /* \"#utility.yul\":18135:18136   */\n      0x00\n        /* \"#utility.yul\":18127:18133   */\n      dup3\n        /* \"#utility.yul\":18123:18137   */\n      add\n        /* \"#utility.yul\":18116:18174   */\n      mstore\n        /* \"#utility.yul\":18208:18216   */\n      0x656d656e74730000000000000000000000000000000000000000000000000000\n        /* \"#utility.yul\":18203:18205   */\n      0x20\n        /* \"#utility.yul\":18195:18201   */\n      dup3\n        /* \"#utility.yul\":18191:18206   */\n      add\n        /* \"#utility.yul\":18184:18217   */\n      mstore\n        /* \"#utility.yul\":17999:18224   */\n      pop\n      jump\t// out\n        /* \"#utility.yul\":18230:18596   */\n    tag_254:\n        /* \"#utility.yul\":18372:18375   */\n      0x00\n        /* \"#utility.yul\":18393:18460   */\n      tag_472\n        /* \"#utility.yul\":18457:18459   */\n      0x26\n        /* \"#utility.yul\":18452:18455   */\n      dup4\n        /* \"#utility.yul\":18393:18460   */\n      tag_252\n      jump\t// in\n    tag_472:\n        /* \"#utility.yul\":18386:18460   */\n      swap2\n      pop\n        /* \"#utility.yul\":18469:18562   */\n      tag_473\n        /* \"#utility.yul\":18558:18561   */\n      dup3\n        /* \"#utility.yul\":18469:18562   */\n      tag_253\n      jump\t// in\n    tag_473:\n        /* \"#utility.yul\":18587:18589   */\n      0x40\n        /* \"#utility.yul\":18582:18585   */\n      dup3\n        /* \"#utility.yul\":18578:18590   */\n      add\n        /* \"#utility.yul\":18571:18590   */\n      swap1\n      pop\n        /* \"#utility.yul\":18230:18596   */\n      swap2\n      swap1\n      pop\n      jump\t// out\n        /* \"#utility.yul\":18602:19021   */\n    tag_100:\n        /* \"#utility.yul\":18768:18772   */\n      0x00\n        /* \"#utility.yul\":18806:18808   */\n      0x20\n        /* \"#utility.yul\":18795:18804   */\n      dup3\n        /* \"#utility.yul\":18791:18809   */\n      add\n        /* \"#utility.yul\":18783:18809   */\n      swap1\n      pop\n        /* \"#utility.yul\":18855:18864   */\n      dup2\n        /* \"#utility.yul\":18849:18853   */\n      dup2\n        /* \"#utility.yul\":18845:18865   */\n      sub\n        /* \"#utility.yul\":18841:18842   */\n      0x00\n        /* \"#utility.yul\":18830:18839   */\n      dup4\n        /* \"#utility.yul\":18826:18843   */\n      add\n        /* \"#utility.yul\":18819:18866   */\n      mstore\n        /* \"#utility.yul\":18883:19014   */\n      tag_475\n        /* \"#utility.yul\":19009:19013   */\n      dup2\n        /* \"#utility.yul\":18883:19014   */\n      tag_254\n      jump\t// in\n    tag_475:\n        /* \"#utility.yul\":18875:19014   */\n      swap1\n      pop\n        /* \"#utility.yul\":18602:19021   */\n      swap2\n      swap1\n      pop\n      jump\t// out\n        /* \"#utility.yul\":19027:19259   */\n    tag_255:\n        /* \"#utility.yul\":19167:19201   */\n      0x50726f636573736f7220666f72207472616e73616374696f6e2074797065206e\n        /* \"#utility.yul\":19163:19164   */\n      0x00\n        /* \"#utility.yul\":19155:19161   */\n      dup3\n        /* \"#utility.yul\":19151:19165   */\n      add\n        /* \"#utility.yul\":19144:19202   */\n      mstore\n        /* \"#utility.yul\":19236:19251   */\n      0x6f74207265676973746572656400000000000000000000000000000000000000\n        /* \"#utility.yul\":19231:19233   */\n      0x20\n        /* \"#utility.yul\":19223:19229   */\n      dup3\n        /* \"#utility.yul\":19219:19234   */\n      add\n        /* \"#utility.yul\":19212:19252   */\n      mstore\n        /* \"#utility.yul\":19027:19259   */\n      pop\n      jump\t// out\n        /* \"#utility.yul\":19265:19631   */\n    tag_256:\n        /* \"#utility.yul\":19407:19410   */\n      0x00\n        /* \"#utility.yul\":19428:19495   */\n      tag_478\n        /* \"#utility.yul\":19492:19494   */\n      0x2d\n        /* \"#utility.yul\":19487:19490   */\n      dup4\n        /* \"#utility.yul\":19428:19495   */\n      tag_252\n      jump\t// in\n    tag_478:\n        /* \"#utility.yul\":19421:19495   */\n      swap2\n      pop\n        /* \"#utility.yul\":19504:19597   */\n      tag_479\n        /* \"#utility.yul\":19593:19596   */\n      dup3\n        /* \"#utility.yul\":19504:19597   */\n      tag_255\n      jump\t// in\n    tag_479:\n        /* \"#utility.yul\":19622:19624   */\n      0x40\n        /* \"#utility.yul\":19617:19620   */\n      dup3\n        /* \"#utility.yul\":19613:19625   */\n      add\n        /* \"#utility.yul\":19606:19625   */\n      swap1\n      pop\n        /* \"#utility.yul\":19265:19631   */\n      swap2\n      swap1\n      pop\n      jump\t// out\n        /* \"#utility.yul\":19637:20056   */\n    tag_105:\n        /* \"#utility.yul\":19803:19807   */\n      0x00\n        /* \"#utility.yul\":19841:19843   */\n      0x20\n        /* \"#utility.yul\":19830:19839   */\n      dup3\n        /* \"#utility.yul\":19826:19844   */\n      add\n        /* \"#utility.yul\":19818:19844   */\n      swap1\n      pop\n        /* \"#utility.yul\":19890:19899   */\n      dup2\n        /* \"#utility.yul\":19884:19888   */\n      dup2\n        /* \"#utility.yul\":19880:19900   */\n      sub\n        /* \"#utility.yul\":19876:19877   */\n      0x00\n        /* \"#utility.yul\":19865:19874   */\n      dup4\n        /* \"#utility.yul\":19861:19878   */\n      add\n        /* \"#utility.yul\":19854:19901   */\n      mstore\n        /* \"#utility.yul\":19918:20049   */\n      tag_481\n        /* \"#utility.yul\":20044:20048   */\n      dup2\n        /* \"#utility.yul\":19918:20049   */\n      tag_256\n      jump\t// in\n    tag_481:\n        /* \"#utility.yul\":19910:20049   */\n      swap1\n      pop\n        /* \"#utility.yul\":19637:20056   */\n      swap2\n      swap1\n      pop\n      jump\t// out\n        /* \"#utility.yul\":20062:20545   */\n    tag_107:\n        /* \"#utility.yul\":20233:20237   */\n      0x00\n        /* \"#utility.yul\":20271:20273   */\n      0x40\n        /* \"#utility.yul\":20260:20269   */\n      dup3\n        /* \"#utility.yul\":20256:20274   */\n      add\n        /* \"#utility.yul\":20248:20274   */\n      swap1\n      pop\n        /* \"#utility.yul\":20320:20329   */\n      dup2\n        /* \"#utility.yul\":20314:20318   */\n      dup2\n        /* \"#utility.yul\":20310:20330   */\n      sub\n        /* \"#utility.yul\":20306:20307   */\n      0x00\n        /* \"#utility.yul\":20295:20304   */\n      dup4\n        /* \"#utility.yul\":20291:20308   */\n      add\n        /* \"#utility.yul\":20284:20331   */\n      mstore\n        /* \"#utility.yul\":20348:20456   */\n      tag_483\n        /* \"#utility.yul\":20451:20455   */\n      dup2\n        /* \"#utility.yul\":20442:20448   */\n      dup6\n        /* \"#utility.yul\":20348:20456   */\n      tag_241\n      jump\t// in\n    tag_483:\n        /* \"#utility.yul\":20340:20456   */\n      swap1\n      pop\n        /* \"#utility.yul\":20466:20538   */\n      tag_484\n        /* \"#utility.yul\":20534:20536   */\n      0x20\n        /* \"#utility.yul\":20523:20532   */\n      dup4\n        /* \"#utility.yul\":20519:20537   */\n      add\n        /* \"#utility.yul\":20510:20516   */\n      dup5\n        /* \"#utility.yul\":20466:20538   */\n      tag_215\n      jump\t// in\n    tag_484:\n        /* \"#utility.yul\":20062:20545   */\n      swap4\n      swap3\n      pop\n      pop\n      pop\n      jump\t// out\n        /* \"#utility.yul\":20551:20650   */\n    tag_257:\n        /* \"#utility.yul\":20603:20609   */\n      0x00\n        /* \"#utility.yul\":20637:20642   */\n      dup2\n        /* \"#utility.yul\":20631:20643   */\n      mload\n        /* \"#utility.yul\":20621:20643   */\n      swap1\n      pop\n        /* \"#utility.yul\":20551:20650   */\n      swap2\n      swap1\n      pop\n      jump\t// out\n        /* \"#utility.yul\":20656:20902   */\n    tag_258:\n        /* \"#utility.yul\":20737:20738   */\n      0x00\n        /* \"#utility.yul\":20747:20860   */\n    tag_487:\n        /* \"#utility.yul\":20761:20767   */\n      dup4\n        /* \"#utility.yul\":20758:20759   */\n      dup2\n        /* \"#utility.yul\":20755:20768   */\n      lt\n        /* \"#utility.yul\":20747:20860   */\n      iszero\n      tag_489\n      jumpi\n        /* \"#utility.yul\":20846:20847   */\n      dup1\n        /* \"#utility.yul\":20841:20844   */\n      dup3\n        /* \"#utility.yul\":20837:20848   */\n      add\n        /* \"#utility.yul\":20831:20849   */\n      mload\n        /* \"#utility.yul\":20827:20828   */\n      dup2\n        /* \"#utility.yul\":20822:20825   */\n      dup5\n        /* \"#utility.yul\":20818:20829   */\n      add\n        /* \"#utility.yul\":20811:20850   */\n      mstore\n        /* \"#utility.yul\":20783:20785   */\n      0x20\n        /* \"#utility.yul\":20780:20781   */\n      dup2\n        /* \"#utility.yul\":20776:20786   */\n      add\n        /* \"#utility.yul\":20771:20786   */\n      swap1\n      pop\n        /* \"#utility.yul\":20747:20860   */\n      jump(tag_487)\n    tag_489:\n        /* \"#utility.yul\":20894:20895   */\n      0x00\n        /* \"#utility.yul\":20885:20891   */\n      dup5\n        /* \"#utility.yul\":20880:20883   */\n      dup5\n        /* \"#utility.yul\":20876:20892   */\n      add\n        /* \"#utility.yul\":20869:20896   */\n      mstore\n        /* \"#utility.yul\":20718:20902   */\n      pop\n        /* \"#utility.yul\":20656:20902   */\n      pop\n      pop\n      pop\n      jump\t// out\n        /* \"#utility.yul\":20908:21285   */\n    tag_259:\n        /* \"#utility.yul\":20996:20999   */\n      0x00\n        /* \"#utility.yul\":21024:21063   */\n      tag_491\n        /* \"#utility.yul\":21057:21062   */\n      dup3\n        /* \"#utility.yul\":21024:21063   */\n      tag_257\n      jump\t// in\n    tag_491:\n        /* \"#utility.yul\":21079:21150   */\n      tag_492\n        /* \"#utility.yul\":21143:21149   */\n      dup2\n        /* \"#utility.yul\":21138:21141   */\n      dup6\n        /* \"#utility.yul\":21079:21150   */\n      tag_252\n      jump\t// in\n    tag_492:\n        /* \"#utility.yul\":21072:21150   */\n      swap4\n      pop\n        /* \"#utility.yul\":21159:21224   */\n      tag_493\n        /* \"#utility.yul\":21217:21223   */\n      dup2\n        /* \"#utility.yul\":21212:21215   */\n      dup6\n        /* \"#utility.yul\":21205:21209   */\n      0x20\n        /* \"#utility.yul\":21198:21203   */\n      dup7\n        /* \"#utility.yul\":21194:21210   */\n      add\n        /* \"#utility.yul\":21159:21224   */\n      tag_258\n      jump\t// in\n    tag_493:\n        /* \"#utility.yul\":21249:21278   */\n      tag_494\n        /* \"#utility.yul\":21271:21277   */\n      dup2\n        /* \"#utility.yul\":21249:21278   */\n      tag_221\n      jump\t// in\n    tag_494:\n        /* \"#utility.yul\":21244:21247   */\n      dup5\n        /* \"#utility.yul\":21240:21279   */\n      add\n        /* \"#utility.yul\":21233:21279   */\n      swap2\n      pop\n        /* \"#utility.yul\":21000:21285   */\n      pop\n        /* \"#utility.yul\":20908:21285   */\n      swap3\n      swap2\n      pop\n      pop\n      jump\t// out\n        /* \"#utility.yul\":21291:21604   */\n    tag_118:\n        /* \"#utility.yul\":21404:21408   */\n      0x00\n        /* \"#utility.yul\":21442:21444   */\n      0x20\n        /* \"#utility.yul\":21431:21440   */\n      dup3\n        /* \"#utility.yul\":21427:21445   */\n      add\n        /* \"#utility.yul\":21419:21445   */\n      swap1\n      pop\n        /* \"#utility.yul\":21491:21500   */\n      dup2\n        /* \"#utility.yul\":21485:21489   */\n      dup2\n        /* \"#utility.yul\":21481:21501   */\n      sub\n        /* \"#utility.yul\":21477:21478   */\n      0x00\n        /* \"#utility.yul\":21466:21475   */\n      dup4\n        /* \"#utility.yul\":21462:21479   */\n      add\n        /* \"#utility.yul\":21455:21502   */\n      mstore\n        /* \"#utility.yul\":21519:21597   */\n      tag_496\n        /* \"#utility.yul\":21592:21596   */\n      dup2\n        /* \"#utility.yul\":21583:21589   */\n      dup5\n        /* \"#utility.yul\":21519:21597   */\n      tag_259\n      jump\t// in\n    tag_496:\n        /* \"#utility.yul\":21511:21597   */\n      swap1\n      pop\n        /* \"#utility.yul\":21291:21604   */\n      swap3\n      swap2\n      pop\n      pop\n      jump\t// out\n        /* \"#utility.yul\":21610:21753   */\n    tag_260:\n        /* \"#utility.yul\":21667:21672   */\n      0x00\n        /* \"#utility.yul\":21698:21704   */\n      dup2\n        /* \"#utility.yul\":21692:21705   */\n      mload\n        /* \"#utility.yul\":21683:21705   */\n      swap1\n      pop\n        /* \"#utility.yul\":21714:21747   */\n      tag_498\n        /* \"#utility.yul\":21741:21746   */\n      dup2\n        /* \"#utility.yul\":21714:21747   */\n      tag_208\n      jump\t// in\n    tag_498:\n        /* \"#utility.yul\":21610:21753   */\n      swap3\n      swap2\n      pop\n      pop\n      jump\t// out\n        /* \"#utility.yul\":21759:22110   */\n    tag_122:\n        /* \"#utility.yul\":21829:21835   */\n      0x00\n        /* \"#utility.yul\":21878:21880   */\n      0x20\n        /* \"#utility.yul\":21866:21875   */\n      dup3\n        /* \"#utility.yul\":21857:21864   */\n      dup5\n        /* \"#utility.yul\":21853:21876   */\n      sub\n        /* \"#utility.yul\":21849:21881   */\n      slt\n        /* \"#utility.yul\":21846:21965   */\n      iszero\n      tag_500\n      jumpi\n        /* \"#utility.yul\":21884:21963   */\n      tag_501\n      tag_202\n      jump\t// in\n    tag_501:\n        /* \"#utility.yul\":21846:21965   */\n    tag_500:\n        /* \"#utility.yul\":22004:22005   */\n      0x00\n        /* \"#utility.yul\":22029:22093   */\n      tag_502\n        /* \"#utility.yul\":22085:22092   */\n      dup5\n        /* \"#utility.yul\":22076:22082   */\n      dup3\n        /* \"#utility.yul\":22065:22074   */\n      dup6\n        /* \"#utility.yul\":22061:22083   */\n      add\n        /* \"#utility.yul\":22029:22093   */\n      tag_260\n      jump\t// in\n    tag_502:\n        /* \"#utility.yul\":22019:22093   */\n      swap2\n      pop\n        /* \"#utility.yul\":21975:22103   */\n      pop\n        /* \"#utility.yul\":21759:22110   */\n      swap3\n      swap2\n      pop\n      pop\n      jump\t// out\n        /* \"#utility.yul\":22116:22345   */\n    tag_261:\n        /* \"#utility.yul\":22256:22290   */\n      0x506172616d206b65797320616e642076616c756573206d757374206d61746368\n        /* \"#utility.yul\":22252:22253   */\n      0x00\n        /* \"#utility.yul\":22244:22250   */\n      dup3\n        /* \"#utility.yul\":22240:22254   */\n      add\n        /* \"#utility.yul\":22233:22291   */\n      mstore\n        /* \"#utility.yul\":22325:22337   */\n      0x20696e206c656e67746800000000000000000000000000000000000000000000\n        /* \"#utility.yul\":22320:22322   */\n      0x20\n        /* \"#utility.yul\":22312:22318   */\n      dup3\n        /* \"#utility.yul\":22308:22323   */\n      add\n        /* \"#utility.yul\":22301:22338   */\n      mstore\n        /* \"#utility.yul\":22116:22345   */\n      pop\n      jump\t// out\n        /* \"#utility.yul\":22351:22717   */\n    tag_262:\n        /* \"#utility.yul\":22493:22496   */\n      0x00\n        /* \"#utility.yul\":22514:22581   */\n      tag_505\n        /* \"#utility.yul\":22578:22580   */\n      0x2a\n        /* \"#utility.yul\":22573:22576   */\n      dup4\n        /* \"#utility.yul\":22514:22581   */\n      tag_252\n      jump\t// in\n    tag_505:\n        /* \"#utility.yul\":22507:22581   */\n      swap2\n      pop\n        /* \"#utility.yul\":22590:22683   */\n      tag_506\n        /* \"#utility.yul\":22679:22682   */\n      dup3\n        /* \"#utility.yul\":22590:22683   */\n      tag_261\n      jump\t// in\n    tag_506:\n        /* \"#utility.yul\":22708:22710   */\n      0x40\n        /* \"#utility.yul\":22703:22706   */\n      dup3\n        /* \"#utility.yul\":22699:22711   */\n      add\n        /* \"#utility.yul\":22692:22711   */\n      swap1\n      pop\n        /* \"#utility.yul\":22351:22717   */\n      swap2\n      swap1\n      pop\n      jump\t// out\n        /* \"#utility.yul\":22723:23142   */\n    tag_163:\n        /* \"#utility.yul\":22889:22893   */\n      0x00\n        /* \"#utility.yul\":22927:22929   */\n      0x20\n        /* \"#utility.yul\":22916:22925   */\n      dup3\n        /* \"#utility.yul\":22912:22930   */\n      add\n        /* \"#utility.yul\":22904:22930   */\n      swap1\n      pop\n        /* \"#utility.yul\":22976:22985   */\n      dup2\n        /* \"#utility.yul\":22970:22974   */\n      dup2\n        /* \"#utility.yul\":22966:22986   */\n      sub\n        /* \"#utility.yul\":22962:22963   */\n      0x00\n        /* \"#utility.yul\":22951:22960   */\n      dup4\n        /* \"#utility.yul\":22947:22964   */\n      add\n        /* \"#utility.yul\":22940:22987   */\n      mstore\n        /* \"#utility.yul\":23004:23135   */\n      tag_508\n        /* \"#utility.yul\":23130:23134   */\n      dup2\n        /* \"#utility.yul\":23004:23135   */\n      tag_262\n      jump\t// in\n    tag_508:\n        /* \"#utility.yul\":22996:23135   */\n      swap1\n      pop\n        /* \"#utility.yul\":22723:23142   */\n      swap2\n      swap1\n      pop\n      jump\t// out\n        /* \"#utility.yul\":23148:23328   */\n    tag_263:\n        /* \"#utility.yul\":23196:23273   */\n      0x4e487b7100000000000000000000000000000000000000000000000000000000\n        /* \"#utility.yul\":23193:23194   */\n      0x00\n        /* \"#utility.yul\":23186:23274   */\n      mstore\n        /* \"#utility.yul\":23293:23297   */\n      0x11\n        /* \"#utility.yul\":23290:23291   */\n      0x04\n        /* \"#utility.yul\":23283:23298   */\n      mstore\n        /* \"#utility.yul\":23317:23321   */\n      0x24\n        /* \"#utility.yul\":23314:23315   */\n      0x00\n        /* \"#utility.yul\":23307:23322   */\n      revert\n        /* \"#utility.yul\":23334:23567   */\n    tag_176:\n        /* \"#utility.yul\":23373:23376   */\n      0x00\n        /* \"#utility.yul\":23396:23420   */\n      tag_511\n        /* \"#utility.yul\":23414:23419   */\n      dup3\n        /* \"#utility.yul\":23396:23420   */\n      tag_204\n      jump\t// in\n    tag_511:\n        /* \"#utility.yul\":23387:23420   */\n      swap2\n      pop\n        /* \"#utility.yul\":23442:23508   */\n      0xffffffffffffffffffffffffffffffffffffffffffffffffffffffffffffffff\n        /* \"#utility.yul\":23435:23440   */\n      dup3\n        /* \"#utility.yul\":23432:23509   */\n      sub\n        /* \"#utility.yul\":23429:23532   */\n      tag_512\n      jumpi\n        /* \"#utility.yul\":23512:23530   */\n      tag_513\n      tag_263\n      jump\t// in\n    tag_513:\n        /* \"#utility.yul\":23429:23532   */\n    tag_512:\n        /* \"#utility.yul\":23559:23560   */\n      0x01\n        /* \"#utility.yul\":23552:23557   */\n      dup3\n        /* \"#utility.yul\":23548:23561   */\n      add\n        /* \"#utility.yul\":23541:23561   */\n      swap1\n      pop\n        /* \"#utility.yul\":23334:23567   */\n      swap2\n      swap1\n      pop\n      jump\t// out\n        /* \"#utility.yul\":23573:23733   */\n    tag_264:\n        /* \"#utility.yul\":23713:23725   */\n      0x7472616e735f74696d6500000000000000000000000000000000000000000000\n        /* \"#utility.yul\":23709:23710   */\n      0x00\n        /* \"#utility.yul\":23701:23707   */\n      dup3\n        /* \"#utility.yul\":23697:23711   */\n      add\n        /* \"#utility.yul\":23690:23726   */\n      mstore\n        /* \"#utility.yul\":23573:23733   */\n      pop\n      jump\t// out\n        /* \"#utility.yul\":23739:24105   */\n    tag_265:\n        /* \"#utility.yul\":23881:23884   */\n      0x00\n        /* \"#utility.yul\":23902:23969   */\n      tag_516\n        /* \"#utility.yul\":23966:23968   */\n      0x0a\n        /* \"#utility.yul\":23961:23964   */\n      dup4\n        /* \"#utility.yul\":23902:23969   */\n      tag_252\n      jump\t// in\n    tag_516:\n        /* \"#utility.yul\":23895:23969   */\n      swap2\n      pop\n        /* \"#utility.yul\":23978:24071   */\n      tag_517\n        /* \"#utility.yul\":24067:24070   */\n      dup3\n        /* \"#utility.yul\":23978:24071   */\n      tag_264\n      jump\t// in\n    tag_517:\n        /* \"#utility.yul\":24096:24098   */\n      0x20\n        /* \"#utility.yul\":24091:24094   */\n      dup3\n        /* \"#utility.yul\":24087:24099   */\n      add\n        /* \"#utility.yul\":24080:24099   */\n      swap1\n      pop\n        /* \"#utility.yul\":23739:24105   */\n      swap2\n      swap1\n      pop\n      jump\t// out\n        /* \"#utility.yul\":24111:24530   */\n    tag_183:\n        /* \"#utility.yul\":24277:24281   */\n      0x00\n        /* \"#utility.yul\":24315:24317   */\n      0x20\n        /* \"#utility.yul\":24304:24313   */\n      dup3\n        /* \"#utility.yul\":24300:24318   */\n      add\n        /* \"#utility.yul\":24292:24318   */\n      swap1\n      pop\n        /* \"#utility.yul\":24364:24373   */\n      dup2\n        /* \"#utility.yul\":24358:24362   */\n      dup2\n        /* \"#utility.yul\":24354:24374   */\n      sub\n        /* \"#utility.yul\":24350:24351   */\n      0x00\n        /* \"#utility.yul\":24339:24348   */\n      dup4\n        /* \"#utility.yul\":24335:24352   */\n      add\n        /* \"#utility.yul\":24328:24375   */\n      mstore\n        /* \"#utility.yul\":24392:24523   */\n      tag_519\n        /* \"#utility.yul\":24518:24522   */\n      dup2\n        /* \"#utility.yul\":24392:24523   */\n      tag_265\n      jump\t// in\n    tag_519:\n        /* \"#utility.yul\":24384:24523   */\n      swap1\n      pop\n        /* \"#utility.yul\":24111:24530   */\n      swap2\n      swap1\n      pop\n      jump\t// out\n        /* \"#utility.yul\":24536:24763   */\n    tag_266:\n        /* \"#utility.yul\":24676:24710   */\n      0x5472616e73616374696f6e207769746820676976656e206576656e744964206e\n        /* \"#utility.yul\":24672:24673   */\n      0x00\n        /* \"#utility.yul\":24664:24670   */\n      dup3\n        /* \"#utility.yul\":24660:24674   */\n      add\n        /* \"#utility.yul\":24653:24711   */\n      mstore\n        /* \"#utility.yul\":24745:24755   */\n      0x6f7420666f756e64000000000000000000000000000000000000000000000000\n        /* \"#utility.yul\":24740:24742   */\n      0x20\n        /* \"#utility.yul\":24732:24738   */\n      dup3\n        /* \"#utility.yul\":24728:24743   */\n      add\n        /* \"#utility.yul\":24721:24756   */\n      mstore\n        /* \"#utility.yul\":24536:24763   */\n      pop\n      jump\t// out\n        /* \"#utility.yul\":24769:25135   */\n    tag_267:\n        /* \"#utility.yul\":24911:24914   */\n      0x00\n        /* \"#utility.yul\":24932:24999   */\n      tag_522\n        /* \"#utility.yul\":24996:24998   */\n      0x28\n        /* \"#utility.yul\":24991:24994   */\n      dup4\n        /* \"#utility.yul\":24932:24999   */\n      tag_252\n      jump\t// in\n    tag_522:\n        /* \"#utility.yul\":24925:24999   */\n      swap2\n      pop\n        /* \"#utility.yul\":25008:25101   */\n      tag_523\n        /* \"#utility.yul\":25097:25100   */\n      dup3\n        /* \"#utility.yul\":25008:25101   */\n      tag_266\n      jump\t// in\n    tag_523:\n        /* \"#utility.yul\":25126:25128   */\n      0x40\n        /* \"#utility.yul\":25121:25124   */\n      dup3\n        /* \"#utility.yul\":25117:25129   */\n      add\n        /* \"#utility.yul\":25110:25129   */\n      swap1\n      pop\n        /* \"#utility.yul\":24769:25135   */\n      swap2\n      swap1\n      pop\n      jump\t// out\n        /* \"#utility.yul\":25141:25560   */\n    tag_200:\n        /* \"#utility.yul\":25307:25311   */\n      0x00\n        /* \"#utility.yul\":25345:25347   */\n      0x20\n        /* \"#utility.yul\":25334:25343   */\n      dup3\n        /* \"#utility.yul\":25330:25348   */\n      add\n        /* \"#utility.yul\":25322:25348   */\n      swap1\n      pop\n        /* \"#utility.yul\":25394:25403   */\n      dup2\n        /* \"#utility.yul\":25388:25392   */\n      dup2\n        /* \"#utility.yul\":25384:25404   */\n      sub\n        /* \"#utility.yul\":25380:25381   */\n      0x00\n        /* \"#utility.yul\":25369:25378   */\n      dup4\n        /* \"#utility.yul\":25365:25382   */\n      add\n        /* \"#utility.yul\":25358:25405   */\n      mstore\n        /* \"#utility.yul\":25422:25553   */\n      tag_525\n        /* \"#utility.yul\":25548:25552   */\n      dup2\n        /* \"#utility.yul\":25422:25553   */\n      tag_267\n      jump\t// in\n    tag_525:\n        /* \"#utility.yul\":25414:25553   */\n      swap1\n      pop\n        /* \"#utility.yul\":25141:25560   */\n      swap2\n      swap1\n      pop\n      jump\t// out\n\n    auxdata: 0xa2646970667358221220373de4509b1aa0f42f539e9ffe4ba10bf6bac955e85c0d68d6d916ad7f1155e264736f6c63430008120033\n}\n",
				"bytecode": {
					"linkReferences": {},
					"object": "60806040523480156200001157600080fd5b5060405162001d6f38038062001d6f8339818101604052810190620000379190620000e8565b806000806101000a81548173ffffffffffffffffffffffffffffffffffffffff021916908373ffffffffffffffffffffffffffffffffffffffff160217905550506200011a565b600080fd5b600073ffffffffffffffffffffffffffffffffffffffff82169050919050565b6000620000b08262000083565b9050919050565b620000c281620000a3565b8114620000ce57600080fd5b50565b600081519050620000e281620000b7565b92915050565b6000602082840312156200010157620001006200007e565b5b60006200011184828501620000d1565b91505092915050565b611c45806200012a6000396000f3fe608060405234801561001057600080fd5b50600436106100cf5760003560e01c8063a3edf3e11161008c578063e064d19911610066578063e064d1991461024e578063e09576f01461026c578063ed40bbd51461029c578063fadc6bc6146102b8576100cf565b8063a3edf3e1146101e6578063c4af654814610202578063df4ecf421461021e576100cf565b80631afc42b6146100d4578063419e4138146101045780634aae13ca14610134578063578cb8f9146101665780639ace38c2146101845780639b4e3420146101b6575b600080fd5b6100ee60048036038101906100e99190610f06565b6102e8565b6040516100fb9190610f5f565b60405180910390f35b61011e60048036038101906101199190610f7a565b610329565b60405161012b9190610f5f565b60405180910390f35b61014e60048036038101906101499190610fba565b610356565b60405161015d93929190611037565b60405180910390f35b61016e6103a4565b60405161017b919061107d565b60405180910390f35b61019e60048036038101906101999190611098565b6103b1565b6040516101ad93929190611037565b60405180910390f35b6101d060048036038101906101cb9190611098565b61040b565b6040516101dd91906110c5565b60405180910390f35b61020060048036038101906101fb919061111e565b61043a565b005b61021c600480360381019061021791906112b7565b610490565b005b610238600480360381019061023391906113e1565b610645565b6040516102459190611564565b60405180910390f35b610256610b08565b60405161026391906115e5565b60405180910390f35b61028660048036038101906102819190611098565b610b2c565b60405161029391906110c5565b60405180910390f35b6102b660048036038101906102b191906116ef565b610b5b565b005b6102d260048036038101906102cd9190611098565b610cef565b6040516102df9190610f5f565b60405180910390f35b6000600183815481106102fe576102fd6117a2565b5b9060005260206000209060040201600301600083815260200190815260200160002054905092915050565b60008061033584610dc7565b90508060030160008481526020019081526020016000205491505092915050565b60008060008061036585610dc7565b9050806001015481600001548260020160009054906101000a900473ffffffffffffffffffffffffffffffffffffffff16935093509350509193909250565b6000600180549050905090565b600181815481106103c157600080fd5b90600052602060002090600402016000915090508060000154908060010154908060020160009054906101000a900473ffffffffffffffffffffffffffffffffffffffff16905083565b600060018281548110610421576104206117a2565b5b9060005260206000209060040201600001549050919050565b806002600084815260200190815260200160002060006101000a81548173ffffffffffffffffffffffffffffffffffffffff021916908373ffffffffffffffffffffffffffffffffffffffff1602179055505050565b6003815110156104d5576040517f08c379a00000000000000000000000000000000000000000000000000000000081526004016104cc90611854565b60405180910390fd5b6000816001815181106104eb576104ea6117a2565b5b6020026020010151905060006002600083815260200190815260200160002060009054906101000a900473ffffffffffffffffffffffffffffffffffffffff169050600073ffffffffffffffffffffffffffffffffffffffff168173ffffffffffffffffffffffffffffffffffffffff160361059c576040517f08c379a0000000000000000000000000000000000000000000000000000000008152600401610593906118e6565b60405180910390fd5b8073ffffffffffffffffffffffffffffffffffffffff1663e91046a984336040518363ffffffff1660e01b81526004016105d7929190611906565b600060405180830381600087803b1580156105f157600080fd5b505af1158015610605573d6000803e3d6000fd5b505050507f72570b7d88e67bddfce79348887be0460047ae7c5690788e67dc3e81457c6cc58260405161063891906110c5565b60405180910390a1505050565b60606000600667ffffffffffffffff81111561066457610663611174565b5b6040519080825280602002602001820160405280156106925781602001602082028036833780820191505090505b50905060008054906101000a900473ffffffffffffffffffffffffffffffffffffffff1673ffffffffffffffffffffffffffffffffffffffff1663cfb51928896040518263ffffffff1660e01b81526004016106ee91906119a4565b602060405180830381865afa15801561070b573d6000803e3d6000fd5b505050506040513d601f19601f8201168201806040525081019061072f91906119db565b81600081518110610743576107426117a2565b5b60200260200101818152505060008054906101000a900473ffffffffffffffffffffffffffffffffffffffff1673ffffffffffffffffffffffffffffffffffffffff1663cfb51928886040518263ffffffff1660e01b81526004016107a891906119a4565b602060405180830381865afa1580156107c5573d6000803e3d6000fd5b505050506040513d601f19601f820116820180604052508101906107e991906119db565b816001815181106107fd576107fc6117a2565b5b60200260200101818152505060008054906101000a900473ffffffffffffffffffffffffffffffffffffffff1673ffffffffffffffffffffffffffffffffffffffff16638e4a01bd876040518263ffffffff1660e01b81526004016108629190610f5f565b602060405180830381865afa15801561087f573d6000803e3d6000fd5b505050506040513d601f19601f820116820180604052508101906108a391906119db565b816002815181106108b7576108b66117a2565b5b60200260200101818152505060008054906101000a900473ffffffffffffffffffffffffffffffffffffffff1673ffffffffffffffffffffffffffffffffffffffff16638e4a01bd866040518263ffffffff1660e01b815260040161091c9190610f5f565b602060405180830381865afa158015610939573d6000803e3d6000fd5b505050506040513d601f19601f8201168201806040525081019061095d91906119db565b81600381518110610971576109706117a2565b5b60200260200101818152505060008054906101000a900473ffffffffffffffffffffffffffffffffffffffff1673ffffffffffffffffffffffffffffffffffffffff16638e4a01bd856040518263ffffffff1660e01b81526004016109d69190610f5f565b602060405180830381865afa1580156109f3573d6000803e3d6000fd5b505050506040513d601f19601f82011682018060405250810190610a1791906119db565b81600481518110610a2b57610a2a6117a2565b5b60200260200101818152505060008054906101000a900473ffffffffffffffffffffffffffffffffffffffff1673ffffffffffffffffffffffffffffffffffffffff16638e4a01bd846040518263ffffffff1660e01b8152600401610a909190610f5f565b602060405180830381865afa158015610aad573d6000803e3d6000fd5b505050506040513d601f19601f82011682018060405250810190610ad191906119db565b81600581518110610ae557610ae46117a2565b5b602002602001018181525050610afa81610490565b809150509695505050505050565b60008054906101000a900473ffffffffffffffffffffffffffffffffffffffff1681565b600060018281548110610b4257610b416117a2565b5b9060005260206000209060040201600101549050919050565b8051825114610b9f576040517f08c379a0000000000000000000000000000000000000000000000000000000008152600401610b9690611a7a565b60405180910390fd5b600060018054905090506001808160018154018082558091505003906000526020600020905050600060018281548110610bdc57610bdb6117a2565b5b90600052602060002090600402019050868160000181905550858160010181905550848160020160006101000a81548173ffffffffffffffffffffffffffffffffffffffff021916908373ffffffffffffffffffffffffffffffffffffffff16021790555060005b8451811015610cae57838181518110610c6057610c5f6117a2565b5b6020026020010151826003016000878481518110610c8157610c806117a2565b5b60200260200101518152602001908152602001600020819055508080610ca690611ac9565b915050610c44565b507f72570b7d88e67bddfce79348887be0460047ae7c5690788e67dc3e81457c6cc586604051610cde91906110c5565b60405180910390a150505050505050565b600060018281548110610d0557610d046117a2565b5b906000526020600020906004020160030160008060009054906101000a900473ffffffffffffffffffffffffffffffffffffffff1673ffffffffffffffffffffffffffffffffffffffff1663cfb519286040518163ffffffff1660e01b8152600401610d7090611b5d565b602060405180830381865afa158015610d8d573d6000803e3d6000fd5b505050506040513d601f19601f82011682018060405250810190610db191906119db565b8152602001908152602001600020549050919050565b600080600090505b600180549050811015610e45578260018281548110610df157610df06117a2565b5b90600052602060002090600402016000015403610e325760018181548110610e1c57610e1b6117a2565b5b9060005260206000209060040201915050610e81565b8080610e3d90611ac9565b915050610dcf565b506040517f08c379a0000000000000000000000000000000000000000000000000000000008152600401610e7890611bef565b60405180910390fd5b919050565b6000604051905090565b600080fd5b600080fd5b6000819050919050565b610ead81610e9a565b8114610eb857600080fd5b50565b600081359050610eca81610ea4565b92915050565b6000819050919050565b610ee381610ed0565b8114610eee57600080fd5b50565b600081359050610f0081610eda565b92915050565b60008060408385031215610f1d57610f1c610e90565b5b6000610f2b85828601610ebb565b9250506020610f3c85828601610ef1565b9150509250929050565b6000819050919050565b610f5981610f46565b82525050565b6000602082019050610f746000830184610f50565b92915050565b60008060408385031215610f9157610f90610e90565b5b6000610f9f85828601610ef1565b9250506020610fb085828601610ef1565b9150509250929050565b600060208284031215610fd057610fcf610e90565b5b6000610fde84828501610ef1565b91505092915050565b610ff081610ed0565b82525050565b600073ffffffffffffffffffffffffffffffffffffffff82169050919050565b600061102182610ff6565b9050919050565b61103181611016565b82525050565b600060608201905061104c6000830186610fe7565b6110596020830185610fe7565b6110666040830184611028565b949350505050565b61107781610e9a565b82525050565b6000602082019050611092600083018461106e565b92915050565b6000602082840312156110ae576110ad610e90565b5b60006110bc84828501610ebb565b91505092915050565b60006020820190506110da6000830184610fe7565b92915050565b60006110eb82611016565b9050919050565b6110fb816110e0565b811461110657600080fd5b50565b600081359050611118816110f2565b92915050565b6000806040838503121561113557611134610e90565b5b600061114385828601610ef1565b925050602061115485828601611109565b9150509250929050565b600080fd5b6000601f19601f8301169050919050565b7f4e487b7100000000000000000000000000000000000000000000000000000000600052604160045260246000fd5b6111ac82611163565b810181811067ffffffffffffffff821117156111cb576111ca611174565b5b80604052505050565b60006111de610e86565b90506111ea82826111a3565b919050565b600067ffffffffffffffff82111561120a57611209611174565b5b602082029050602081019050919050565b600080fd5b600061123361122e846111ef565b6111d4565b905080838252602082019050602084028301858111156112565761125561121b565b5b835b8181101561127f578061126b8882610ef1565b845260208401935050602081019050611258565b5050509392505050565b600082601f83011261129e5761129d61115e565b5b81356112ae848260208601611220565b91505092915050565b6000602082840312156112cd576112cc610e90565b5b600082013567ffffffffffffffff8111156112eb576112ea610e95565b5b6112f784828501611289565b91505092915050565b600080fd5b600067ffffffffffffffff8211156113205761131f611174565b5b61132982611163565b9050602081019050919050565b82818337600083830152505050565b600061135861135384611305565b6111d4565b90508281526020810184848401111561137457611373611300565b5b61137f848285611336565b509392505050565b600082601f83011261139c5761139b61115e565b5b81356113ac848260208601611345565b91505092915050565b6113be81610f46565b81146113c957600080fd5b50565b6000813590506113db816113b5565b92915050565b60008060008060008060c087890312156113fe576113fd610e90565b5b600087013567ffffffffffffffff81111561141c5761141b610e95565b5b61142889828a01611387565b965050602087013567ffffffffffffffff81111561144957611448610e95565b5b61145589828a01611387565b955050604061146689828a016113cc565b945050606061147789828a016113cc565b935050608061148889828a016113cc565b92505060a061149989828a016113cc565b9150509295509295509295565b600081519050919050565b600082825260208201905092915050565b6000819050602082019050919050565b6114db81610ed0565b82525050565b60006114ed83836114d2565b60208301905092915050565b6000602082019050919050565b6000611511826114a6565b61151b81856114b1565b9350611526836114c2565b8060005b8381101561155757815161153e88826114e1565b9750611549836114f9565b92505060018101905061152a565b5085935050505092915050565b6000602082019050818103600083015261157e8184611506565b905092915050565b6000819050919050565b60006115ab6115a66115a184610ff6565b611586565b610ff6565b9050919050565b60006115bd82611590565b9050919050565b60006115cf826115b2565b9050919050565b6115df816115c4565b82525050565b60006020820190506115fa60008301846115d6565b92915050565b61160981611016565b811461161457600080fd5b50565b60008135905061162681611600565b92915050565b600067ffffffffffffffff82111561164757611646611174565b5b602082029050602081019050919050565b600061166b6116668461162c565b6111d4565b9050808382526020820190506020840283018581111561168e5761168d61121b565b5b835b818110156116b757806116a388826113cc565b845260208401935050602081019050611690565b5050509392505050565b600082601f8301126116d6576116d561115e565b5b81356116e6848260208601611658565b91505092915050565b600080600080600060a0868803121561170b5761170a610e90565b5b600061171988828901610ef1565b955050602061172a88828901610ef1565b945050604061173b88828901611617565b935050606086013567ffffffffffffffff81111561175c5761175b610e95565b5b61176888828901611289565b925050608086013567ffffffffffffffff81111561178957611788610e95565b5b611795888289016116c1565b9150509295509295909350565b7f4e487b7100000000000000000000000000000000000000000000000000000000600052603260045260246000fd5b600082825260208201905092915050565b7f44617461206d7573742068617665206174206c6561737420746872656520656c60008201527f656d656e74730000000000000000000000000000000000000000000000000000602082015250565b600061183e6026836117d1565b9150611849826117e2565b604082019050919050565b6000602082019050818103600083015261186d81611831565b9050919050565b7f50726f636573736f7220666f72207472616e73616374696f6e2074797065206e60008201527f6f74207265676973746572656400000000000000000000000000000000000000602082015250565b60006118d0602d836117d1565b91506118db82611874565b604082019050919050565b600060208201905081810360008301526118ff816118c3565b9050919050565b600060408201905081810360008301526119208185611506565b905061192f6020830184611028565b9392505050565b600081519050919050565b60005b8381101561195f578082015181840152602081019050611944565b60008484015250505050565b600061197682611936565b61198081856117d1565b9350611990818560208601611941565b61199981611163565b840191505092915050565b600060208201905081810360008301526119be818461196b565b905092915050565b6000815190506119d581610eda565b92915050565b6000602082840312156119f1576119f0610e90565b5b60006119ff848285016119c6565b91505092915050565b7f506172616d206b65797320616e642076616c756573206d757374206d6174636860008201527f20696e206c656e67746800000000000000000000000000000000000000000000602082015250565b6000611a64602a836117d1565b9150611a6f82611a08565b604082019050919050565b60006020820190508181036000830152611a9381611a57565b9050919050565b7f4e487b7100000000000000000000000000000000000000000000000000000000600052601160045260246000fd5b6000611ad482610e9a565b91507fffffffffffffffffffffffffffffffffffffffffffffffffffffffffffffffff8203611b0657611b05611a9a565b5b600182019050919050565b7f7472616e735f74696d6500000000000000000000000000000000000000000000600082015250565b6000611b47600a836117d1565b9150611b5282611b11565b602082019050919050565b60006020820190508181036000830152611b7681611b3a565b9050919050565b7f5472616e73616374696f6e207769746820676976656e206576656e744964206e60008201527f6f7420666f756e64000000000000000000000000000000000000000000000000602082015250565b6000611bd96028836117d1565b9150611be482611b7d565b604082019050919050565b60006020820190508181036000830152611c0881611bcc565b905091905056fea2646970667358221220373de4509b1aa0f42f539e9ffe4ba10bf6bac955e85c0d68d6d916ad7f1155e264736f6c63430008120033",
					"opcodes": "PUSH1 0x80 PUSH1 0x40 MSTORE CALLVALUE DUP1 ISZERO PUSH3 0x11 JUMPI PUSH1 0x0 DUP1 REVERT JUMPDEST POP PUSH1 0x40 MLOAD PUSH3 0x1D6F CODESIZE SUB DUP1 PUSH3 0x1D6F DUP4 CODECOPY DUP2 DUP2 ADD PUSH1 0x40 MSTORE DUP2 ADD SWAP1 PUSH3 0x37 SWAP2 SWAP1 PUSH3 0xE8 JUMP JUMPDEST DUP1 PUSH1 0x0 DUP1 PUSH2 0x100 EXP DUP2 SLOAD DUP2 PUSH20 0xFFFFFFFFFFFFFFFFFFFFFFFFFFFFFFFFFFFFFFFF MUL NOT AND SWAP1 DUP4 PUSH20 0xFFFFFFFFFFFFFFFFFFFFFFFFFFFFFFFFFFFFFFFF AND MUL OR SWAP1 SSTORE POP POP PUSH3 0x11A JUMP JUMPDEST PUSH1 0x0 DUP1 REVERT JUMPDEST PUSH1 0x0 PUSH20 0xFFFFFFFFFFFFFFFFFFFFFFFFFFFFFFFFFFFFFFFF DUP3 AND SWAP1 POP SWAP2 SWAP1 POP JUMP JUMPDEST PUSH1 0x0 PUSH3 0xB0 DUP3 PUSH3 0x83 JUMP JUMPDEST SWAP1 POP SWAP2 SWAP1 POP JUMP JUMPDEST PUSH3 0xC2 DUP2 PUSH3 0xA3 JUMP JUMPDEST DUP2 EQ PUSH3 0xCE JUMPI PUSH1 0x0 DUP1 REVERT JUMPDEST POP JUMP JUMPDEST PUSH1 0x0 DUP2 MLOAD SWAP1 POP PUSH3 0xE2 DUP2 PUSH3 0xB7 JUMP JUMPDEST SWAP3 SWAP2 POP POP JUMP JUMPDEST PUSH1 0x0 PUSH1 0x20 DUP3 DUP5 SUB SLT ISZERO PUSH3 0x101 JUMPI PUSH3 0x100 PUSH3 0x7E JUMP JUMPDEST JUMPDEST PUSH1 0x0 PUSH3 0x111 DUP5 DUP3 DUP6 ADD PUSH3 0xD1 JUMP JUMPDEST SWAP2 POP POP SWAP3 SWAP2 POP POP JUMP JUMPDEST PUSH2 0x1C45 DUP1 PUSH3 0x12A PUSH1 0x0 CODECOPY PUSH1 0x0 RETURN INVALID PUSH1 0x80 PUSH1 0x40 MSTORE CALLVALUE DUP1 ISZERO PUSH2 0x10 JUMPI PUSH1 0x0 DUP1 REVERT JUMPDEST POP PUSH1 0x4 CALLDATASIZE LT PUSH2 0xCF JUMPI PUSH1 0x0 CALLDATALOAD PUSH1 0xE0 SHR DUP1 PUSH4 0xA3EDF3E1 GT PUSH2 0x8C JUMPI DUP1 PUSH4 0xE064D199 GT PUSH2 0x66 JUMPI DUP1 PUSH4 0xE064D199 EQ PUSH2 0x24E JUMPI DUP1 PUSH4 0xE09576F0 EQ PUSH2 0x26C JUMPI DUP1 PUSH4 0xED40BBD5 EQ PUSH2 0x29C JUMPI DUP1 PUSH4 0xFADC6BC6 EQ PUSH2 0x2B8 JUMPI PUSH2 0xCF JUMP JUMPDEST DUP1 PUSH4 0xA3EDF3E1 EQ PUSH2 0x1E6 JUMPI DUP1 PUSH4 0xC4AF6548 EQ PUSH2 0x202 JUMPI DUP1 PUSH4 0xDF4ECF42 EQ PUSH2 0x21E JUMPI PUSH2 0xCF JUMP JUMPDEST DUP1 PUSH4 0x1AFC42B6 EQ PUSH2 0xD4 JUMPI DUP1 PUSH4 0x419E4138 EQ PUSH2 0x104 JUMPI DUP1 PUSH4 0x4AAE13CA EQ PUSH2 0x134 JUMPI DUP1 PUSH4 0x578CB8F9 EQ PUSH2 0x166 JUMPI DUP1 PUSH4 0x9ACE38C2 EQ PUSH2 0x184 JUMPI DUP1 PUSH4 0x9B4E3420 EQ PUSH2 0x1B6 JUMPI JUMPDEST PUSH1 0x0 DUP1 REVERT JUMPDEST PUSH2 0xEE PUSH1 0x4 DUP1 CALLDATASIZE SUB DUP2 ADD SWAP1 PUSH2 0xE9 SWAP2 SWAP1 PUSH2 0xF06 JUMP JUMPDEST PUSH2 0x2E8 JUMP JUMPDEST PUSH1 0x40 MLOAD PUSH2 0xFB SWAP2 SWAP1 PUSH2 0xF5F JUMP JUMPDEST PUSH1 0x40 MLOAD DUP1 SWAP2 SUB SWAP1 RETURN JUMPDEST PUSH2 0x11E PUSH1 0x4 DUP1 CALLDATASIZE SUB DUP2 ADD SWAP1 PUSH2 0x119 SWAP2 SWAP1 PUSH2 0xF7A JUMP JUMPDEST PUSH2 0x329 JUMP JUMPDEST PUSH1 0x40 MLOAD PUSH2 0x12B SWAP2 SWAP1 PUSH2 0xF5F JUMP JUMPDEST PUSH1 0x40 MLOAD DUP1 SWAP2 SUB SWAP1 RETURN JUMPDEST PUSH2 0x14E PUSH1 0x4 DUP1 CALLDATASIZE SUB DUP2 ADD SWAP1 PUSH2 0x149 SWAP2 SWAP1 PUSH2 0xFBA JUMP JUMPDEST PUSH2 0x356 JUMP JUMPDEST PUSH1 0x40 MLOAD PUSH2 0x15D SWAP4 SWAP3 SWAP2 SWAP1 PUSH2 0x1037 JUMP JUMPDEST PUSH1 0x40 MLOAD DUP1 SWAP2 SUB SWAP1 RETURN JUMPDEST PUSH2 0x16E PUSH2 0x3A4 JUMP JUMPDEST PUSH1 0x40 MLOAD PUSH2 0x17B SWAP2 SWAP1 PUSH2 0x107D JUMP JUMPDEST PUSH1 0x40 MLOAD DUP1 SWAP2 SUB SWAP1 RETURN JUMPDEST PUSH2 0x19E PUSH1 0x4 DUP1 CALLDATASIZE SUB DUP2 ADD SWAP1 PUSH2 0x199 SWAP2 SWAP1 PUSH2 0x1098 JUMP JUMPDEST PUSH2 0x3B1 JUMP JUMPDEST PUSH1 0x40 MLOAD PUSH2 0x1AD SWAP4 SWAP3 SWAP2 SWAP1 PUSH2 0x1037 JUMP JUMPDEST PUSH1 0x40 MLOAD DUP1 SWAP2 SUB SWAP1 RETURN JUMPDEST PUSH2 0x1D0 PUSH1 0x4 DUP1 CALLDATASIZE SUB DUP2 ADD SWAP1 PUSH2 0x1CB SWAP2 SWAP1 PUSH2 0x1098 JUMP JUMPDEST PUSH2 0x40B JUMP JUMPDEST PUSH1 0x40 MLOAD PUSH2 0x1DD SWAP2 SWAP1 PUSH2 0x10C5 JUMP JUMPDEST PUSH1 0x40 MLOAD DUP1 SWAP2 SUB SWAP1 RETURN JUMPDEST PUSH2 0x200 PUSH1 0x4 DUP1 CALLDATASIZE SUB DUP2 ADD SWAP1 PUSH2 0x1FB SWAP2 SWAP1 PUSH2 0x111E JUMP JUMPDEST PUSH2 0x43A JUMP JUMPDEST STOP JUMPDEST PUSH2 0x21C PUSH1 0x4 DUP1 CALLDATASIZE SUB DUP2 ADD SWAP1 PUSH2 0x217 SWAP2 SWAP1 PUSH2 0x12B7 JUMP JUMPDEST PUSH2 0x490 JUMP JUMPDEST STOP JUMPDEST PUSH2 0x238 PUSH1 0x4 DUP1 CALLDATASIZE SUB DUP2 ADD SWAP1 PUSH2 0x233 SWAP2 SWAP1 PUSH2 0x13E1 JUMP JUMPDEST PUSH2 0x645 JUMP JUMPDEST PUSH1 0x40 MLOAD PUSH2 0x245 SWAP2 SWAP1 PUSH2 0x1564 JUMP JUMPDEST PUSH1 0x40 MLOAD DUP1 SWAP2 SUB SWAP1 RETURN JUMPDEST PUSH2 0x256 PUSH2 0xB08 JUMP JUMPDEST PUSH1 0x40 MLOAD PUSH2 0x263 SWAP2 SWAP1 PUSH2 0x15E5 JUMP JUMPDEST PUSH1 0x40 MLOAD DUP1 SWAP2 SUB SWAP1 RETURN JUMPDEST PUSH2 0x286 PUSH1 0x4 DUP1 CALLDATASIZE SUB DUP2 ADD SWAP1 PUSH2 0x281 SWAP2 SWAP1 PUSH2 0x1098 JUMP JUMPDEST PUSH2 0xB2C JUMP JUMPDEST PUSH1 0x40 MLOAD PUSH2 0x293 SWAP2 SWAP1 PUSH2 0x10C5 JUMP JUMPDEST PUSH1 0x40 MLOAD DUP1 SWAP2 SUB SWAP1 RETURN JUMPDEST PUSH2 0x2B6 PUSH1 0x4 DUP1 CALLDATASIZE SUB DUP2 ADD SWAP1 PUSH2 0x2B1 SWAP2 SWAP1 PUSH2 0x16EF JUMP JUMPDEST PUSH2 0xB5B JUMP JUMPDEST STOP JUMPDEST PUSH2 0x2D2 PUSH1 0x4 DUP1 CALLDATASIZE SUB DUP2 ADD SWAP1 PUSH2 0x2CD SWAP2 SWAP1 PUSH2 0x1098 JUMP JUMPDEST PUSH2 0xCEF JUMP JUMPDEST PUSH1 0x40 MLOAD PUSH2 0x2DF SWAP2 SWAP1 PUSH2 0xF5F JUMP JUMPDEST PUSH1 0x40 MLOAD DUP1 SWAP2 SUB SWAP1 RETURN JUMPDEST PUSH1 0x0 PUSH1 0x1 DUP4 DUP2 SLOAD DUP2 LT PUSH2 0x2FE JUMPI PUSH2 0x2FD PUSH2 0x17A2 JUMP JUMPDEST JUMPDEST SWAP1 PUSH1 0x0 MSTORE PUSH1 0x20 PUSH1 0x0 KECCAK256 SWAP1 PUSH1 0x4 MUL ADD PUSH1 0x3 ADD PUSH1 0x0 DUP4 DUP2 MSTORE PUSH1 0x20 ADD SWAP1 DUP2 MSTORE PUSH1 0x20 ADD PUSH1 0x0 KECCAK256 SLOAD SWAP1 POP SWAP3 SWAP2 POP POP JUMP JUMPDEST PUSH1 0x0 DUP1 PUSH2 0x335 DUP5 PUSH2 0xDC7 JUMP JUMPDEST SWAP1 POP DUP1 PUSH1 0x3 ADD PUSH1 0x0 DUP5 DUP2 MSTORE PUSH1 0x20 ADD SWAP1 DUP2 MSTORE PUSH1 0x20 ADD PUSH1 0x0 KECCAK256 SLOAD SWAP2 POP POP SWAP3 SWAP2 POP POP JUMP JUMPDEST PUSH1 0x0 DUP1 PUSH1 0x0 DUP1 PUSH2 0x365 DUP6 PUSH2 0xDC7 JUMP JUMPDEST SWAP1 POP DUP1 PUSH1 0x1 ADD SLOAD DUP2 PUSH1 0x0 ADD SLOAD DUP3 PUSH1 0x2 ADD PUSH1 0x0 SWAP1 SLOAD SWAP1 PUSH2 0x100 EXP SWAP1 DIV PUSH20 0xFFFFFFFFFFFFFFFFFFFFFFFFFFFFFFFFFFFFFFFF AND SWAP4 POP SWAP4 POP SWAP4 POP POP SWAP2 SWAP4 SWAP1 SWAP3 POP JUMP JUMPDEST PUSH1 0x0 PUSH1 0x1 DUP1 SLOAD SWAP1 POP SWAP1 POP SWAP1 JUMP JUMPDEST PUSH1 0x1 DUP2 DUP2 SLOAD DUP2 LT PUSH2 0x3C1 JUMPI PUSH1 0x0 DUP1 REVERT JUMPDEST SWAP1 PUSH1 0x0 MSTORE PUSH1 0x20 PUSH1 0x0 KECCAK256 SWAP1 PUSH1 0x4 MUL ADD PUSH1 0x0 SWAP2 POP SWAP1 POP DUP1 PUSH1 0x0 ADD SLOAD SWAP1 DUP1 PUSH1 0x1 ADD SLOAD SWAP1 DUP1 PUSH1 0x2 ADD PUSH1 0x0 SWAP1 SLOAD SWAP1 PUSH2 0x100 EXP SWAP1 DIV PUSH20 0xFFFFFFFFFFFFFFFFFFFFFFFFFFFFFFFFFFFFFFFF AND SWAP1 POP DUP4 JUMP JUMPDEST PUSH1 0x0 PUSH1 0x1 DUP3 DUP2 SLOAD DUP2 LT PUSH2 0x421 JUMPI PUSH2 0x420 PUSH2 0x17A2 JUMP JUMPDEST JUMPDEST SWAP1 PUSH1 0x0 MSTORE PUSH1 0x20 PUSH1 0x0 KECCAK256 SWAP1 PUSH1 0x4 MUL ADD PUSH1 0x0 ADD SLOAD SWAP1 POP SWAP2 SWAP1 POP JUMP JUMPDEST DUP1 PUSH1 0x2 PUSH1 0x0 DUP5 DUP2 MSTORE PUSH1 0x20 ADD SWAP1 DUP2 MSTORE PUSH1 0x20 ADD PUSH1 0x0 KECCAK256 PUSH1 0x0 PUSH2 0x100 EXP DUP2 SLOAD DUP2 PUSH20 0xFFFFFFFFFFFFFFFFFFFFFFFFFFFFFFFFFFFFFFFF MUL NOT AND SWAP1 DUP4 PUSH20 0xFFFFFFFFFFFFFFFFFFFFFFFFFFFFFFFFFFFFFFFF AND MUL OR SWAP1 SSTORE POP POP POP JUMP JUMPDEST PUSH1 0x3 DUP2 MLOAD LT ISZERO PUSH2 0x4D5 JUMPI PUSH1 0x40 MLOAD PUSH32 0x8C379A000000000000000000000000000000000000000000000000000000000 DUP2 MSTORE PUSH1 0x4 ADD PUSH2 0x4CC SWAP1 PUSH2 0x1854 JUMP JUMPDEST PUSH1 0x40 MLOAD DUP1 SWAP2 SUB SWAP1 REVERT JUMPDEST PUSH1 0x0 DUP2 PUSH1 0x1 DUP2 MLOAD DUP2 LT PUSH2 0x4EB JUMPI PUSH2 0x4EA PUSH2 0x17A2 JUMP JUMPDEST JUMPDEST PUSH1 0x20 MUL PUSH1 0x20 ADD ADD MLOAD SWAP1 POP PUSH1 0x0 PUSH1 0x2 PUSH1 0x0 DUP4 DUP2 MSTORE PUSH1 0x20 ADD SWAP1 DUP2 MSTORE PUSH1 0x20 ADD PUSH1 0x0 KECCAK256 PUSH1 0x0 SWAP1 SLOAD SWAP1 PUSH2 0x100 EXP SWAP1 DIV PUSH20 0xFFFFFFFFFFFFFFFFFFFFFFFFFFFFFFFFFFFFFFFF AND SWAP1 POP PUSH1 0x0 PUSH20 0xFFFFFFFFFFFFFFFFFFFFFFFFFFFFFFFFFFFFFFFF AND DUP2 PUSH20 0xFFFFFFFFFFFFFFFFFFFFFFFFFFFFFFFFFFFFFFFF AND SUB PUSH2 0x59C JUMPI PUSH1 0x40 MLOAD PUSH32 0x8C379A000000000000000000000000000000000000000000000000000000000 DUP2 MSTORE PUSH1 0x4 ADD PUSH2 0x593 SWAP1 PUSH2 0x18E6 JUMP JUMPDEST PUSH1 0x40 MLOAD DUP1 SWAP2 SUB SWAP1 REVERT JUMPDEST DUP1 PUSH20 0xFFFFFFFFFFFFFFFFFFFFFFFFFFFFFFFFFFFFFFFF AND PUSH4 0xE91046A9 DUP5 CALLER PUSH1 0x40 MLOAD DUP4 PUSH4 0xFFFFFFFF AND PUSH1 0xE0 SHL DUP2 MSTORE PUSH1 0x4 ADD PUSH2 0x5D7 SWAP3 SWAP2 SWAP1 PUSH2 0x1906 JUMP JUMPDEST PUSH1 0x0 PUSH1 0x40 MLOAD DUP1 DUP4 SUB DUP2 PUSH1 0x0 DUP8 DUP1 EXTCODESIZE ISZERO DUP1 ISZERO PUSH2 0x5F1 JUMPI PUSH1 0x0 DUP1 REVERT JUMPDEST POP GAS CALL ISZERO DUP1 ISZERO PUSH2 0x605 JUMPI RETURNDATASIZE PUSH1 0x0 DUP1 RETURNDATACOPY RETURNDATASIZE PUSH1 0x0 REVERT JUMPDEST POP POP POP POP PUSH32 0x72570B7D88E67BDDFCE79348887BE0460047AE7C5690788E67DC3E81457C6CC5 DUP3 PUSH1 0x40 MLOAD PUSH2 0x638 SWAP2 SWAP1 PUSH2 0x10C5 JUMP JUMPDEST PUSH1 0x40 MLOAD DUP1 SWAP2 SUB SWAP1 LOG1 POP POP POP JUMP JUMPDEST PUSH1 0x60 PUSH1 0x0 PUSH1 0x6 PUSH8 0xFFFFFFFFFFFFFFFF DUP2 GT ISZERO PUSH2 0x664 JUMPI PUSH2 0x663 PUSH2 0x1174 JUMP JUMPDEST JUMPDEST PUSH1 0x40 MLOAD SWAP1 DUP1 DUP3 MSTORE DUP1 PUSH1 0x20 MUL PUSH1 0x20 ADD DUP3 ADD PUSH1 0x40 MSTORE DUP1 ISZERO PUSH2 0x692 JUMPI DUP2 PUSH1 0x20 ADD PUSH1 0x20 DUP3 MUL DUP1 CALLDATASIZE DUP4 CALLDATACOPY DUP1 DUP3 ADD SWAP2 POP POP SWAP1 POP JUMPDEST POP SWAP1 POP PUSH1 0x0 DUP1 SLOAD SWAP1 PUSH2 0x100 EXP SWAP1 DIV PUSH20 0xFFFFFFFFFFFFFFFFFFFFFFFFFFFFFFFFFFFFFFFF AND PUSH20 0xFFFFFFFFFFFFFFFFFFFFFFFFFFFFFFFFFFFFFFFF AND PUSH4 0xCFB51928 DUP10 PUSH1 0x40 MLOAD DUP3 PUSH4 0xFFFFFFFF AND PUSH1 0xE0 SHL DUP2 MSTORE PUSH1 0x4 ADD PUSH2 0x6EE SWAP2 SWAP1 PUSH2 0x19A4 JUMP JUMPDEST PUSH1 0x20 PUSH1 0x40 MLOAD DUP1 DUP4 SUB DUP2 DUP7 GAS STATICCALL ISZERO DUP1 ISZERO PUSH2 0x70B JUMPI RETURNDATASIZE PUSH1 0x0 DUP1 RETURNDATACOPY RETURNDATASIZE PUSH1 0x0 REVERT JUMPDEST POP POP POP POP PUSH1 0x40 MLOAD RETURNDATASIZE PUSH1 0x1F NOT PUSH1 0x1F DUP3 ADD AND DUP3 ADD DUP1 PUSH1 0x40 MSTORE POP DUP2 ADD SWAP1 PUSH2 0x72F SWAP2 SWAP1 PUSH2 0x19DB JUMP JUMPDEST DUP2 PUSH1 0x0 DUP2 MLOAD DUP2 LT PUSH2 0x743 JUMPI PUSH2 0x742 PUSH2 0x17A2 JUMP JUMPDEST JUMPDEST PUSH1 0x20 MUL PUSH1 0x20 ADD ADD DUP2 DUP2 MSTORE POP POP PUSH1 0x0 DUP1 SLOAD SWAP1 PUSH2 0x100 EXP SWAP1 DIV PUSH20 0xFFFFFFFFFFFFFFFFFFFFFFFFFFFFFFFFFFFFFFFF AND PUSH20 0xFFFFFFFFFFFFFFFFFFFFFFFFFFFFFFFFFFFFFFFF AND PUSH4 0xCFB51928 DUP9 PUSH1 0x40 MLOAD DUP3 PUSH4 0xFFFFFFFF AND PUSH1 0xE0 SHL DUP2 MSTORE PUSH1 0x4 ADD PUSH2 0x7A8 SWAP2 SWAP1 PUSH2 0x19A4 JUMP JUMPDEST PUSH1 0x20 PUSH1 0x40 MLOAD DUP1 DUP4 SUB DUP2 DUP7 GAS STATICCALL ISZERO DUP1 ISZERO PUSH2 0x7C5 JUMPI RETURNDATASIZE PUSH1 0x0 DUP1 RETURNDATACOPY RETURNDATASIZE PUSH1 0x0 REVERT JUMPDEST POP POP POP POP PUSH1 0x40 MLOAD RETURNDATASIZE PUSH1 0x1F NOT PUSH1 0x1F DUP3 ADD AND DUP3 ADD DUP1 PUSH1 0x40 MSTORE POP DUP2 ADD SWAP1 PUSH2 0x7E9 SWAP2 SWAP1 PUSH2 0x19DB JUMP JUMPDEST DUP2 PUSH1 0x1 DUP2 MLOAD DUP2 LT PUSH2 0x7FD JUMPI PUSH2 0x7FC PUSH2 0x17A2 JUMP JUMPDEST JUMPDEST PUSH1 0x20 MUL PUSH1 0x20 ADD ADD DUP2 DUP2 MSTORE POP POP PUSH1 0x0 DUP1 SLOAD SWAP1 PUSH2 0x100 EXP SWAP1 DIV PUSH20 0xFFFFFFFFFFFFFFFFFFFFFFFFFFFFFFFFFFFFFFFF AND PUSH20 0xFFFFFFFFFFFFFFFFFFFFFFFFFFFFFFFFFFFFFFFF AND PUSH4 0x8E4A01BD DUP8 PUSH1 0x40 MLOAD DUP3 PUSH4 0xFFFFFFFF AND PUSH1 0xE0 SHL DUP2 MSTORE PUSH1 0x4 ADD PUSH2 0x862 SWAP2 SWAP1 PUSH2 0xF5F JUMP JUMPDEST PUSH1 0x20 PUSH1 0x40 MLOAD DUP1 DUP4 SUB DUP2 DUP7 GAS STATICCALL ISZERO DUP1 ISZERO PUSH2 0x87F JUMPI RETURNDATASIZE PUSH1 0x0 DUP1 RETURNDATACOPY RETURNDATASIZE PUSH1 0x0 REVERT JUMPDEST POP POP POP POP PUSH1 0x40 MLOAD RETURNDATASIZE PUSH1 0x1F NOT PUSH1 0x1F DUP3 ADD AND DUP3 ADD DUP1 PUSH1 0x40 MSTORE POP DUP2 ADD SWAP1 PUSH2 0x8A3 SWAP2 SWAP1 PUSH2 0x19DB JUMP JUMPDEST DUP2 PUSH1 0x2 DUP2 MLOAD DUP2 LT PUSH2 0x8B7 JUMPI PUSH2 0x8B6 PUSH2 0x17A2 JUMP JUMPDEST JUMPDEST PUSH1 0x20 MUL PUSH1 0x20 ADD ADD DUP2 DUP2 MSTORE POP POP PUSH1 0x0 DUP1 SLOAD SWAP1 PUSH2 0x100 EXP SWAP1 DIV PUSH20 0xFFFFFFFFFFFFFFFFFFFFFFFFFFFFFFFFFFFFFFFF AND PUSH20 0xFFFFFFFFFFFFFFFFFFFFFFFFFFFFFFFFFFFFFFFF AND PUSH4 0x8E4A01BD DUP7 PUSH1 0x40 MLOAD DUP3 PUSH4 0xFFFFFFFF AND PUSH1 0xE0 SHL DUP2 MSTORE PUSH1 0x4 ADD PUSH2 0x91C SWAP2 SWAP1 PUSH2 0xF5F JUMP JUMPDEST PUSH1 0x20 PUSH1 0x40 MLOAD DUP1 DUP4 SUB DUP2 DUP7 GAS STATICCALL ISZERO DUP1 ISZERO PUSH2 0x939 JUMPI RETURNDATASIZE PUSH1 0x0 DUP1 RETURNDATACOPY RETURNDATASIZE PUSH1 0x0 REVERT JUMPDEST POP POP POP POP PUSH1 0x40 MLOAD RETURNDATASIZE PUSH1 0x1F NOT PUSH1 0x1F DUP3 ADD AND DUP3 ADD DUP1 PUSH1 0x40 MSTORE POP DUP2 ADD SWAP1 PUSH2 0x95D SWAP2 SWAP1 PUSH2 0x19DB JUMP JUMPDEST DUP2 PUSH1 0x3 DUP2 MLOAD DUP2 LT PUSH2 0x971 JUMPI PUSH2 0x970 PUSH2 0x17A2 JUMP JUMPDEST JUMPDEST PUSH1 0x20 MUL PUSH1 0x20 ADD ADD DUP2 DUP2 MSTORE POP POP PUSH1 0x0 DUP1 SLOAD SWAP1 PUSH2 0x100 EXP SWAP1 DIV PUSH20 0xFFFFFFFFFFFFFFFFFFFFFFFFFFFFFFFFFFFFFFFF AND PUSH20 0xFFFFFFFFFFFFFFFFFFFFFFFFFFFFFFFFFFFFFFFF AND PUSH4 0x8E4A01BD DUP6 PUSH1 0x40 MLOAD DUP3 PUSH4 0xFFFFFFFF AND PUSH1 0xE0 SHL DUP2 MSTORE PUSH1 0x4 ADD PUSH2 0x9D6 SWAP2 SWAP1 PUSH2 0xF5F JUMP JUMPDEST PUSH1 0x20 PUSH1 0x40 MLOAD DUP1 DUP4 SUB DUP2 DUP7 GAS STATICCALL ISZERO DUP1 ISZERO PUSH2 0x9F3 JUMPI RETURNDATASIZE PUSH1 0x0 DUP1 RETURNDATACOPY RETURNDATASIZE PUSH1 0x0 REVERT JUMPDEST POP POP POP POP PUSH1 0x40 MLOAD RETURNDATASIZE PUSH1 0x1F NOT PUSH1 0x1F DUP3 ADD AND DUP3 ADD DUP1 PUSH1 0x40 MSTORE POP DUP2 ADD SWAP1 PUSH2 0xA17 SWAP2 SWAP1 PUSH2 0x19DB JUMP JUMPDEST DUP2 PUSH1 0x4 DUP2 MLOAD DUP2 LT PUSH2 0xA2B JUMPI PUSH2 0xA2A PUSH2 0x17A2 JUMP JUMPDEST JUMPDEST PUSH1 0x20 MUL PUSH1 0x20 ADD ADD DUP2 DUP2 MSTORE POP POP PUSH1 0x0 DUP1 SLOAD SWAP1 PUSH2 0x100 EXP SWAP1 DIV PUSH20 0xFFFFFFFFFFFFFFFFFFFFFFFFFFFFFFFFFFFFFFFF AND PUSH20 0xFFFFFFFFFFFFFFFFFFFFFFFFFFFFFFFFFFFFFFFF AND PUSH4 0x8E4A01BD DUP5 PUSH1 0x40 MLOAD DUP3 PUSH4 0xFFFFFFFF AND PUSH1 0xE0 SHL DUP2 MSTORE PUSH1 0x4 ADD PUSH2 0xA90 SWAP2 SWAP1 PUSH2 0xF5F JUMP JUMPDEST PUSH1 0x20 PUSH1 0x40 MLOAD DUP1 DUP4 SUB DUP2 DUP7 GAS STATICCALL ISZERO DUP1 ISZERO PUSH2 0xAAD JUMPI RETURNDATASIZE PUSH1 0x0 DUP1 RETURNDATACOPY RETURNDATASIZE PUSH1 0x0 REVERT JUMPDEST POP POP POP POP PUSH1 0x40 MLOAD RETURNDATASIZE PUSH1 0x1F NOT PUSH1 0x1F DUP3 ADD AND DUP3 ADD DUP1 PUSH1 0x40 MSTORE POP DUP2 ADD SWAP1 PUSH2 0xAD1 SWAP2 SWAP1 PUSH2 0x19DB JUMP JUMPDEST DUP2 PUSH1 0x5 DUP2 MLOAD DUP2 LT PUSH2 0xAE5 JUMPI PUSH2 0xAE4 PUSH2 0x17A2 JUMP JUMPDEST JUMPDEST PUSH1 0x20 MUL PUSH1 0x20 ADD ADD DUP2 DUP2 MSTORE POP POP PUSH2 0xAFA DUP2 PUSH2 0x490 JUMP JUMPDEST DUP1 SWAP2 POP POP SWAP7 SWAP6 POP POP POP POP POP POP JUMP JUMPDEST PUSH1 0x0 DUP1 SLOAD SWAP1 PUSH2 0x100 EXP SWAP1 DIV PUSH20 0xFFFFFFFFFFFFFFFFFFFFFFFFFFFFFFFFFFFFFFFF AND DUP2 JUMP JUMPDEST PUSH1 0x0 PUSH1 0x1 DUP3 DUP2 SLOAD DUP2 LT PUSH2 0xB42 JUMPI PUSH2 0xB41 PUSH2 0x17A2 JUMP JUMPDEST JUMPDEST SWAP1 PUSH1 0x0 MSTORE PUSH1 0x20 PUSH1 0x0 KECCAK256 SWAP1 PUSH1 0x4 MUL ADD PUSH1 0x1 ADD SLOAD SWAP1 POP SWAP2 SWAP1 POP JUMP JUMPDEST DUP1 MLOAD DUP3 MLOAD EQ PUSH2 0xB9F JUMPI PUSH1 0x40 MLOAD PUSH32 0x8C379A000000000000000000000000000000000000000000000000000000000 DUP2 MSTORE PUSH1 0x4 ADD PUSH2 0xB96 SWAP1 PUSH2 0x1A7A JUMP JUMPDEST PUSH1 0x40 MLOAD DUP1 SWAP2 SUB SWAP1 REVERT JUMPDEST PUSH1 0x0 PUSH1 0x1 DUP1 SLOAD SWAP1 POP SWAP1 POP PUSH1 0x1 DUP1 DUP2 PUSH1 0x1 DUP2 SLOAD ADD DUP1 DUP3 SSTORE DUP1 SWAP2 POP POP SUB SWAP1 PUSH1 0x0 MSTORE PUSH1 0x20 PUSH1 0x0 KECCAK256 SWAP1 POP POP PUSH1 0x0 PUSH1 0x1 DUP3 DUP2 SLOAD DUP2 LT PUSH2 0xBDC JUMPI PUSH2 0xBDB PUSH2 0x17A2 JUMP JUMPDEST JUMPDEST SWAP1 PUSH1 0x0 MSTORE PUSH1 0x20 PUSH1 0x0 KECCAK256 SWAP1 PUSH1 0x4 MUL ADD SWAP1 POP DUP7 DUP2 PUSH1 0x0 ADD DUP2 SWAP1 SSTORE POP DUP6 DUP2 PUSH1 0x1 ADD DUP2 SWAP1 SSTORE POP DUP5 DUP2 PUSH1 0x2 ADD PUSH1 0x0 PUSH2 0x100 EXP DUP2 SLOAD DUP2 PUSH20 0xFFFFFFFFFFFFFFFFFFFFFFFFFFFFFFFFFFFFFFFF MUL NOT AND SWAP1 DUP4 PUSH20 0xFFFFFFFFFFFFFFFFFFFFFFFFFFFFFFFFFFFFFFFF AND MUL OR SWAP1 SSTORE POP PUSH1 0x0 JUMPDEST DUP5 MLOAD DUP2 LT ISZERO PUSH2 0xCAE JUMPI DUP4 DUP2 DUP2 MLOAD DUP2 LT PUSH2 0xC60 JUMPI PUSH2 0xC5F PUSH2 0x17A2 JUMP JUMPDEST JUMPDEST PUSH1 0x20 MUL PUSH1 0x20 ADD ADD MLOAD DUP3 PUSH1 0x3 ADD PUSH1 0x0 DUP8 DUP5 DUP2 MLOAD DUP2 LT PUSH2 0xC81 JUMPI PUSH2 0xC80 PUSH2 0x17A2 JUMP JUMPDEST JUMPDEST PUSH1 0x20 MUL PUSH1 0x20 ADD ADD MLOAD DUP2 MSTORE PUSH1 0x20 ADD SWAP1 DUP2 MSTORE PUSH1 0x20 ADD PUSH1 0x0 KECCAK256 DUP2 SWAP1 SSTORE POP DUP1 DUP1 PUSH2 0xCA6 SWAP1 PUSH2 0x1AC9 JUMP JUMPDEST SWAP2 POP POP PUSH2 0xC44 JUMP JUMPDEST POP PUSH32 0x72570B7D88E67BDDFCE79348887BE0460047AE7C5690788E67DC3E81457C6CC5 DUP7 PUSH1 0x40 MLOAD PUSH2 0xCDE SWAP2 SWAP1 PUSH2 0x10C5 JUMP JUMPDEST PUSH1 0x40 MLOAD DUP1 SWAP2 SUB SWAP1 LOG1 POP POP POP POP POP POP POP JUMP JUMPDEST PUSH1 0x0 PUSH1 0x1 DUP3 DUP2 SLOAD DUP2 LT PUSH2 0xD05 JUMPI PUSH2 0xD04 PUSH2 0x17A2 JUMP JUMPDEST JUMPDEST SWAP1 PUSH1 0x0 MSTORE PUSH1 0x20 PUSH1 0x0 KECCAK256 SWAP1 PUSH1 0x4 MUL ADD PUSH1 0x3 ADD PUSH1 0x0 DUP1 PUSH1 0x0 SWAP1 SLOAD SWAP1 PUSH2 0x100 EXP SWAP1 DIV PUSH20 0xFFFFFFFFFFFFFFFFFFFFFFFFFFFFFFFFFFFFFFFF AND PUSH20 0xFFFFFFFFFFFFFFFFFFFFFFFFFFFFFFFFFFFFFFFF AND PUSH4 0xCFB51928 PUSH1 0x40 MLOAD DUP2 PUSH4 0xFFFFFFFF AND PUSH1 0xE0 SHL DUP2 MSTORE PUSH1 0x4 ADD PUSH2 0xD70 SWAP1 PUSH2 0x1B5D JUMP JUMPDEST PUSH1 0x20 PUSH1 0x40 MLOAD DUP1 DUP4 SUB DUP2 DUP7 GAS STATICCALL ISZERO DUP1 ISZERO PUSH2 0xD8D JUMPI RETURNDATASIZE PUSH1 0x0 DUP1 RETURNDATACOPY RETURNDATASIZE PUSH1 0x0 REVERT JUMPDEST POP POP POP POP PUSH1 0x40 MLOAD RETURNDATASIZE PUSH1 0x1F NOT PUSH1 0x1F DUP3 ADD AND DUP3 ADD DUP1 PUSH1 0x40 MSTORE POP DUP2 ADD SWAP1 PUSH2 0xDB1 SWAP2 SWAP1 PUSH2 0x19DB JUMP JUMPDEST DUP2 MSTORE PUSH1 0x20 ADD SWAP1 DUP2 MSTORE PUSH1 0x20 ADD PUSH1 0x0 KECCAK256 SLOAD SWAP1 POP SWAP2 SWAP1 POP JUMP JUMPDEST PUSH1 0x0 DUP1 PUSH1 0x0 SWAP1 POP JUMPDEST PUSH1 0x1 DUP1 SLOAD SWAP1 POP DUP2 LT ISZERO PUSH2 0xE45 JUMPI DUP3 PUSH1 0x1 DUP3 DUP2 SLOAD DUP2 LT PUSH2 0xDF1 JUMPI PUSH2 0xDF0 PUSH2 0x17A2 JUMP JUMPDEST JUMPDEST SWAP1 PUSH1 0x0 MSTORE PUSH1 0x20 PUSH1 0x0 KECCAK256 SWAP1 PUSH1 0x4 MUL ADD PUSH1 0x0 ADD SLOAD SUB PUSH2 0xE32 JUMPI PUSH1 0x1 DUP2 DUP2 SLOAD DUP2 LT PUSH2 0xE1C JUMPI PUSH2 0xE1B PUSH2 0x17A2 JUMP JUMPDEST JUMPDEST SWAP1 PUSH1 0x0 MSTORE PUSH1 0x20 PUSH1 0x0 KECCAK256 SWAP1 PUSH1 0x4 MUL ADD SWAP2 POP POP PUSH2 0xE81 JUMP JUMPDEST DUP1 DUP1 PUSH2 0xE3D SWAP1 PUSH2 0x1AC9 JUMP JUMPDEST SWAP2 POP POP PUSH2 0xDCF JUMP JUMPDEST POP PUSH1 0x40 MLOAD PUSH32 0x8C379A000000000000000000000000000000000000000000000000000000000 DUP2 MSTORE PUSH1 0x4 ADD PUSH2 0xE78 SWAP1 PUSH2 0x1BEF JUMP JUMPDEST PUSH1 0x40 MLOAD DUP1 SWAP2 SUB SWAP1 REVERT JUMPDEST SWAP2 SWAP1 POP JUMP JUMPDEST PUSH1 0x0 PUSH1 0x40 MLOAD SWAP1 POP SWAP1 JUMP JUMPDEST PUSH1 0x0 DUP1 REVERT JUMPDEST PUSH1 0x0 DUP1 REVERT JUMPDEST PUSH1 0x0 DUP2 SWAP1 POP SWAP2 SWAP1 POP JUMP JUMPDEST PUSH2 0xEAD DUP2 PUSH2 0xE9A JUMP JUMPDEST DUP2 EQ PUSH2 0xEB8 JUMPI PUSH1 0x0 DUP1 REVERT JUMPDEST POP JUMP JUMPDEST PUSH1 0x0 DUP2 CALLDATALOAD SWAP1 POP PUSH2 0xECA DUP2 PUSH2 0xEA4 JUMP JUMPDEST SWAP3 SWAP2 POP POP JUMP JUMPDEST PUSH1 0x0 DUP2 SWAP1 POP SWAP2 SWAP1 POP JUMP JUMPDEST PUSH2 0xEE3 DUP2 PUSH2 0xED0 JUMP JUMPDEST DUP2 EQ PUSH2 0xEEE JUMPI PUSH1 0x0 DUP1 REVERT JUMPDEST POP JUMP JUMPDEST PUSH1 0x0 DUP2 CALLDATALOAD SWAP1 POP PUSH2 0xF00 DUP2 PUSH2 0xEDA JUMP JUMPDEST SWAP3 SWAP2 POP POP JUMP JUMPDEST PUSH1 0x0 DUP1 PUSH1 0x40 DUP4 DUP6 SUB SLT ISZERO PUSH2 0xF1D JUMPI PUSH2 0xF1C PUSH2 0xE90 JUMP JUMPDEST JUMPDEST PUSH1 0x0 PUSH2 0xF2B DUP6 DUP3 DUP7 ADD PUSH2 0xEBB JUMP JUMPDEST SWAP3 POP POP PUSH1 0x20 PUSH2 0xF3C DUP6 DUP3 DUP7 ADD PUSH2 0xEF1 JUMP JUMPDEST SWAP2 POP POP SWAP3 POP SWAP3 SWAP1 POP JUMP JUMPDEST PUSH1 0x0 DUP2 SWAP1 POP SWAP2 SWAP1 POP JUMP JUMPDEST PUSH2 0xF59 DUP2 PUSH2 0xF46 JUMP JUMPDEST DUP3 MSTORE POP POP JUMP JUMPDEST PUSH1 0x0 PUSH1 0x20 DUP3 ADD SWAP1 POP PUSH2 0xF74 PUSH1 0x0 DUP4 ADD DUP5 PUSH2 0xF50 JUMP JUMPDEST SWAP3 SWAP2 POP POP JUMP JUMPDEST PUSH1 0x0 DUP1 PUSH1 0x40 DUP4 DUP6 SUB SLT ISZERO PUSH2 0xF91 JUMPI PUSH2 0xF90 PUSH2 0xE90 JUMP JUMPDEST JUMPDEST PUSH1 0x0 PUSH2 0xF9F DUP6 DUP3 DUP7 ADD PUSH2 0xEF1 JUMP JUMPDEST SWAP3 POP POP PUSH1 0x20 PUSH2 0xFB0 DUP6 DUP3 DUP7 ADD PUSH2 0xEF1 JUMP JUMPDEST SWAP2 POP POP SWAP3 POP SWAP3 SWAP1 POP JUMP JUMPDEST PUSH1 0x0 PUSH1 0x20 DUP3 DUP5 SUB SLT ISZERO PUSH2 0xFD0 JUMPI PUSH2 0xFCF PUSH2 0xE90 JUMP JUMPDEST JUMPDEST PUSH1 0x0 PUSH2 0xFDE DUP5 DUP3 DUP6 ADD PUSH2 0xEF1 JUMP JUMPDEST SWAP2 POP POP SWAP3 SWAP2 POP POP JUMP JUMPDEST PUSH2 0xFF0 DUP2 PUSH2 0xED0 JUMP JUMPDEST DUP3 MSTORE POP POP JUMP JUMPDEST PUSH1 0x0 PUSH20 0xFFFFFFFFFFFFFFFFFFFFFFFFFFFFFFFFFFFFFFFF DUP3 AND SWAP1 POP SWAP2 SWAP1 POP JUMP JUMPDEST PUSH1 0x0 PUSH2 0x1021 DUP3 PUSH2 0xFF6 JUMP JUMPDEST SWAP1 POP SWAP2 SWAP1 POP JUMP JUMPDEST PUSH2 0x1031 DUP2 PUSH2 0x1016 JUMP JUMPDEST DUP3 MSTORE POP POP JUMP JUMPDEST PUSH1 0x0 PUSH1 0x60 DUP3 ADD SWAP1 POP PUSH2 0x104C PUSH1 0x0 DUP4 ADD DUP7 PUSH2 0xFE7 JUMP JUMPDEST PUSH2 0x1059 PUSH1 0x20 DUP4 ADD DUP6 PUSH2 0xFE7 JUMP JUMPDEST PUSH2 0x1066 PUSH1 0x40 DUP4 ADD DUP5 PUSH2 0x1028 JUMP JUMPDEST SWAP5 SWAP4 POP POP POP POP JUMP JUMPDEST PUSH2 0x1077 DUP2 PUSH2 0xE9A JUMP JUMPDEST DUP3 MSTORE POP POP JUMP JUMPDEST PUSH1 0x0 PUSH1 0x20 DUP3 ADD SWAP1 POP PUSH2 0x1092 PUSH1 0x0 DUP4 ADD DUP5 PUSH2 0x106E JUMP JUMPDEST SWAP3 SWAP2 POP POP JUMP JUMPDEST PUSH1 0x0 PUSH1 0x20 DUP3 DUP5 SUB SLT ISZERO PUSH2 0x10AE JUMPI PUSH2 0x10AD PUSH2 0xE90 JUMP JUMPDEST JUMPDEST PUSH1 0x0 PUSH2 0x10BC DUP5 DUP3 DUP6 ADD PUSH2 0xEBB JUMP JUMPDEST SWAP2 POP POP SWAP3 SWAP2 POP POP JUMP JUMPDEST PUSH1 0x0 PUSH1 0x20 DUP3 ADD SWAP1 POP PUSH2 0x10DA PUSH1 0x0 DUP4 ADD DUP5 PUSH2 0xFE7 JUMP JUMPDEST SWAP3 SWAP2 POP POP JUMP JUMPDEST PUSH1 0x0 PUSH2 0x10EB DUP3 PUSH2 0x1016 JUMP JUMPDEST SWAP1 POP SWAP2 SWAP1 POP JUMP JUMPDEST PUSH2 0x10FB DUP2 PUSH2 0x10E0 JUMP JUMPDEST DUP2 EQ PUSH2 0x1106 JUMPI PUSH1 0x0 DUP1 REVERT JUMPDEST POP JUMP JUMPDEST PUSH1 0x0 DUP2 CALLDATALOAD SWAP1 POP PUSH2 0x1118 DUP2 PUSH2 0x10F2 JUMP JUMPDEST SWAP3 SWAP2 POP POP JUMP JUMPDEST PUSH1 0x0 DUP1 PUSH1 0x40 DUP4 DUP6 SUB SLT ISZERO PUSH2 0x1135 JUMPI PUSH2 0x1134 PUSH2 0xE90 JUMP JUMPDEST JUMPDEST PUSH1 0x0 PUSH2 0x1143 DUP6 DUP3 DUP7 ADD PUSH2 0xEF1 JUMP JUMPDEST SWAP3 POP POP PUSH1 0x20 PUSH2 0x1154 DUP6 DUP3 DUP7 ADD PUSH2 0x1109 JUMP JUMPDEST SWAP2 POP POP SWAP3 POP SWAP3 SWAP1 POP JUMP JUMPDEST PUSH1 0x0 DUP1 REVERT JUMPDEST PUSH1 0x0 PUSH1 0x1F NOT PUSH1 0x1F DUP4 ADD AND SWAP1 POP SWAP2 SWAP1 POP JUMP JUMPDEST PUSH32 0x4E487B7100000000000000000000000000000000000000000000000000000000 PUSH1 0x0 MSTORE PUSH1 0x41 PUSH1 0x4 MSTORE PUSH1 0x24 PUSH1 0x0 REVERT JUMPDEST PUSH2 0x11AC DUP3 PUSH2 0x1163 JUMP JUMPDEST DUP2 ADD DUP2 DUP2 LT PUSH8 0xFFFFFFFFFFFFFFFF DUP3 GT OR ISZERO PUSH2 0x11CB JUMPI PUSH2 0x11CA PUSH2 0x1174 JUMP JUMPDEST JUMPDEST DUP1 PUSH1 0x40 MSTORE POP POP POP JUMP JUMPDEST PUSH1 0x0 PUSH2 0x11DE PUSH2 0xE86 JUMP JUMPDEST SWAP1 POP PUSH2 0x11EA DUP3 DUP3 PUSH2 0x11A3 JUMP JUMPDEST SWAP2 SWAP1 POP JUMP JUMPDEST PUSH1 0x0 PUSH8 0xFFFFFFFFFFFFFFFF DUP3 GT ISZERO PUSH2 0x120A JUMPI PUSH2 0x1209 PUSH2 0x1174 JUMP JUMPDEST JUMPDEST PUSH1 0x20 DUP3 MUL SWAP1 POP PUSH1 0x20 DUP2 ADD SWAP1 POP SWAP2 SWAP1 POP JUMP JUMPDEST PUSH1 0x0 DUP1 REVERT JUMPDEST PUSH1 0x0 PUSH2 0x1233 PUSH2 0x122E DUP5 PUSH2 0x11EF JUMP JUMPDEST PUSH2 0x11D4 JUMP JUMPDEST SWAP1 POP DUP1 DUP4 DUP3 MSTORE PUSH1 0x20 DUP3 ADD SWAP1 POP PUSH1 0x20 DUP5 MUL DUP4 ADD DUP6 DUP2 GT ISZERO PUSH2 0x1256 JUMPI PUSH2 0x1255 PUSH2 0x121B JUMP JUMPDEST JUMPDEST DUP4 JUMPDEST DUP2 DUP2 LT ISZERO PUSH2 0x127F JUMPI DUP1 PUSH2 0x126B DUP9 DUP3 PUSH2 0xEF1 JUMP JUMPDEST DUP5 MSTORE PUSH1 0x20 DUP5 ADD SWAP4 POP POP PUSH1 0x20 DUP2 ADD SWAP1 POP PUSH2 0x1258 JUMP JUMPDEST POP POP POP SWAP4 SWAP3 POP POP POP JUMP JUMPDEST PUSH1 0x0 DUP3 PUSH1 0x1F DUP4 ADD SLT PUSH2 0x129E JUMPI PUSH2 0x129D PUSH2 0x115E JUMP JUMPDEST JUMPDEST DUP2 CALLDATALOAD PUSH2 0x12AE DUP5 DUP3 PUSH1 0x20 DUP7 ADD PUSH2 0x1220 JUMP JUMPDEST SWAP2 POP POP SWAP3 SWAP2 POP POP JUMP JUMPDEST PUSH1 0x0 PUSH1 0x20 DUP3 DUP5 SUB SLT ISZERO PUSH2 0x12CD JUMPI PUSH2 0x12CC PUSH2 0xE90 JUMP JUMPDEST JUMPDEST PUSH1 0x0 DUP3 ADD CALLDATALOAD PUSH8 0xFFFFFFFFFFFFFFFF DUP2 GT ISZERO PUSH2 0x12EB JUMPI PUSH2 0x12EA PUSH2 0xE95 JUMP JUMPDEST JUMPDEST PUSH2 0x12F7 DUP5 DUP3 DUP6 ADD PUSH2 0x1289 JUMP JUMPDEST SWAP2 POP POP SWAP3 SWAP2 POP POP JUMP JUMPDEST PUSH1 0x0 DUP1 REVERT JUMPDEST PUSH1 0x0 PUSH8 0xFFFFFFFFFFFFFFFF DUP3 GT ISZERO PUSH2 0x1320 JUMPI PUSH2 0x131F PUSH2 0x1174 JUMP JUMPDEST JUMPDEST PUSH2 0x1329 DUP3 PUSH2 0x1163 JUMP JUMPDEST SWAP1 POP PUSH1 0x20 DUP2 ADD SWAP1 POP SWAP2 SWAP1 POP JUMP JUMPDEST DUP3 DUP2 DUP4 CALLDATACOPY PUSH1 0x0 DUP4 DUP4 ADD MSTORE POP POP POP JUMP JUMPDEST PUSH1 0x0 PUSH2 0x1358 PUSH2 0x1353 DUP5 PUSH2 0x1305 JUMP JUMPDEST PUSH2 0x11D4 JUMP JUMPDEST SWAP1 POP DUP3 DUP2 MSTORE PUSH1 0x20 DUP2 ADD DUP5 DUP5 DUP5 ADD GT ISZERO PUSH2 0x1374 JUMPI PUSH2 0x1373 PUSH2 0x1300 JUMP JUMPDEST JUMPDEST PUSH2 0x137F DUP5 DUP3 DUP6 PUSH2 0x1336 JUMP JUMPDEST POP SWAP4 SWAP3 POP POP POP JUMP JUMPDEST PUSH1 0x0 DUP3 PUSH1 0x1F DUP4 ADD SLT PUSH2 0x139C JUMPI PUSH2 0x139B PUSH2 0x115E JUMP JUMPDEST JUMPDEST DUP2 CALLDATALOAD PUSH2 0x13AC DUP5 DUP3 PUSH1 0x20 DUP7 ADD PUSH2 0x1345 JUMP JUMPDEST SWAP2 POP POP SWAP3 SWAP2 POP POP JUMP JUMPDEST PUSH2 0x13BE DUP2 PUSH2 0xF46 JUMP JUMPDEST DUP2 EQ PUSH2 0x13C9 JUMPI PUSH1 0x0 DUP1 REVERT JUMPDEST POP JUMP JUMPDEST PUSH1 0x0 DUP2 CALLDATALOAD SWAP1 POP PUSH2 0x13DB DUP2 PUSH2 0x13B5 JUMP JUMPDEST SWAP3 SWAP2 POP POP JUMP JUMPDEST PUSH1 0x0 DUP1 PUSH1 0x0 DUP1 PUSH1 0x0 DUP1 PUSH1 0xC0 DUP8 DUP10 SUB SLT ISZERO PUSH2 0x13FE JUMPI PUSH2 0x13FD PUSH2 0xE90 JUMP JUMPDEST JUMPDEST PUSH1 0x0 DUP8 ADD CALLDATALOAD PUSH8 0xFFFFFFFFFFFFFFFF DUP2 GT ISZERO PUSH2 0x141C JUMPI PUSH2 0x141B PUSH2 0xE95 JUMP JUMPDEST JUMPDEST PUSH2 0x1428 DUP10 DUP3 DUP11 ADD PUSH2 0x1387 JUMP JUMPDEST SWAP7 POP POP PUSH1 0x20 DUP8 ADD CALLDATALOAD PUSH8 0xFFFFFFFFFFFFFFFF DUP2 GT ISZERO PUSH2 0x1449 JUMPI PUSH2 0x1448 PUSH2 0xE95 JUMP JUMPDEST JUMPDEST PUSH2 0x1455 DUP10 DUP3 DUP11 ADD PUSH2 0x1387 JUMP JUMPDEST SWAP6 POP POP PUSH1 0x40 PUSH2 0x1466 DUP10 DUP3 DUP11 ADD PUSH2 0x13CC JUMP JUMPDEST SWAP5 POP POP PUSH1 0x60 PUSH2 0x1477 DUP10 DUP3 DUP11 ADD PUSH2 0x13CC JUMP JUMPDEST SWAP4 POP POP PUSH1 0x80 PUSH2 0x1488 DUP10 DUP3 DUP11 ADD PUSH2 0x13CC JUMP JUMPDEST SWAP3 POP POP PUSH1 0xA0 PUSH2 0x1499 DUP10 DUP3 DUP11 ADD PUSH2 0x13CC JUMP JUMPDEST SWAP2 POP POP SWAP3 SWAP6 POP SWAP3 SWAP6 POP SWAP3 SWAP6 JUMP JUMPDEST PUSH1 0x0 DUP2 MLOAD SWAP1 POP SWAP2 SWAP1 POP JUMP JUMPDEST PUSH1 0x0 DUP3 DUP3 MSTORE PUSH1 0x20 DUP3 ADD SWAP1 POP SWAP3 SWAP2 POP POP JUMP JUMPDEST PUSH1 0x0 DUP2 SWAP1 POP PUSH1 0x20 DUP3 ADD SWAP1 POP SWAP2 SWAP1 POP JUMP JUMPDEST PUSH2 0x14DB DUP2 PUSH2 0xED0 JUMP JUMPDEST DUP3 MSTORE POP POP JUMP JUMPDEST PUSH1 0x0 PUSH2 0x14ED DUP4 DUP4 PUSH2 0x14D2 JUMP JUMPDEST PUSH1 0x20 DUP4 ADD SWAP1 POP SWAP3 SWAP2 POP POP JUMP JUMPDEST PUSH1 0x0 PUSH1 0x20 DUP3 ADD SWAP1 POP SWAP2 SWAP1 POP JUMP JUMPDEST PUSH1 0x0 PUSH2 0x1511 DUP3 PUSH2 0x14A6 JUMP JUMPDEST PUSH2 0x151B DUP2 DUP6 PUSH2 0x14B1 JUMP JUMPDEST SWAP4 POP PUSH2 0x1526 DUP4 PUSH2 0x14C2 JUMP JUMPDEST DUP1 PUSH1 0x0 JUMPDEST DUP4 DUP2 LT ISZERO PUSH2 0x1557 JUMPI DUP2 MLOAD PUSH2 0x153E DUP9 DUP3 PUSH2 0x14E1 JUMP JUMPDEST SWAP8 POP PUSH2 0x1549 DUP4 PUSH2 0x14F9 JUMP JUMPDEST SWAP3 POP POP PUSH1 0x1 DUP2 ADD SWAP1 POP PUSH2 0x152A JUMP JUMPDEST POP DUP6 SWAP4 POP POP POP POP SWAP3 SWAP2 POP POP JUMP JUMPDEST PUSH1 0x0 PUSH1 0x20 DUP3 ADD SWAP1 POP DUP2 DUP2 SUB PUSH1 0x0 DUP4 ADD MSTORE PUSH2 0x157E DUP2 DUP5 PUSH2 0x1506 JUMP JUMPDEST SWAP1 POP SWAP3 SWAP2 POP POP JUMP JUMPDEST PUSH1 0x0 DUP2 SWAP1 POP SWAP2 SWAP1 POP JUMP JUMPDEST PUSH1 0x0 PUSH2 0x15AB PUSH2 0x15A6 PUSH2 0x15A1 DUP5 PUSH2 0xFF6 JUMP JUMPDEST PUSH2 0x1586 JUMP JUMPDEST PUSH2 0xFF6 JUMP JUMPDEST SWAP1 POP SWAP2 SWAP1 POP JUMP JUMPDEST PUSH1 0x0 PUSH2 0x15BD DUP3 PUSH2 0x1590 JUMP JUMPDEST SWAP1 POP SWAP2 SWAP1 POP JUMP JUMPDEST PUSH1 0x0 PUSH2 0x15CF DUP3 PUSH2 0x15B2 JUMP JUMPDEST SWAP1 POP SWAP2 SWAP1 POP JUMP JUMPDEST PUSH2 0x15DF DUP2 PUSH2 0x15C4 JUMP JUMPDEST DUP3 MSTORE POP POP JUMP JUMPDEST PUSH1 0x0 PUSH1 0x20 DUP3 ADD SWAP1 POP PUSH2 0x15FA PUSH1 0x0 DUP4 ADD DUP5 PUSH2 0x15D6 JUMP JUMPDEST SWAP3 SWAP2 POP POP JUMP JUMPDEST PUSH2 0x1609 DUP2 PUSH2 0x1016 JUMP JUMPDEST DUP2 EQ PUSH2 0x1614 JUMPI PUSH1 0x0 DUP1 REVERT JUMPDEST POP JUMP JUMPDEST PUSH1 0x0 DUP2 CALLDATALOAD SWAP1 POP PUSH2 0x1626 DUP2 PUSH2 0x1600 JUMP JUMPDEST SWAP3 SWAP2 POP POP JUMP JUMPDEST PUSH1 0x0 PUSH8 0xFFFFFFFFFFFFFFFF DUP3 GT ISZERO PUSH2 0x1647 JUMPI PUSH2 0x1646 PUSH2 0x1174 JUMP JUMPDEST JUMPDEST PUSH1 0x20 DUP3 MUL SWAP1 POP PUSH1 0x20 DUP2 ADD SWAP1 POP SWAP2 SWAP1 POP JUMP JUMPDEST PUSH1 0x0 PUSH2 0x166B PUSH2 0x1666 DUP5 PUSH2 0x162C JUMP JUMPDEST PUSH2 0x11D4 JUMP JUMPDEST SWAP1 POP DUP1 DUP4 DUP3 MSTORE PUSH1 0x20 DUP3 ADD SWAP1 POP PUSH1 0x20 DUP5 MUL DUP4 ADD DUP6 DUP2 GT ISZERO PUSH2 0x168E JUMPI PUSH2 0x168D PUSH2 0x121B JUMP JUMPDEST JUMPDEST DUP4 JUMPDEST DUP2 DUP2 LT ISZERO PUSH2 0x16B7 JUMPI DUP1 PUSH2 0x16A3 DUP9 DUP3 PUSH2 0x13CC JUMP JUMPDEST DUP5 MSTORE PUSH1 0x20 DUP5 ADD SWAP4 POP POP PUSH1 0x20 DUP2 ADD SWAP1 POP PUSH2 0x1690 JUMP JUMPDEST POP POP POP SWAP4 SWAP3 POP POP POP JUMP JUMPDEST PUSH1 0x0 DUP3 PUSH1 0x1F DUP4 ADD SLT PUSH2 0x16D6 JUMPI PUSH2 0x16D5 PUSH2 0x115E JUMP JUMPDEST JUMPDEST DUP2 CALLDATALOAD PUSH2 0x16E6 DUP5 DUP3 PUSH1 0x20 DUP7 ADD PUSH2 0x1658 JUMP JUMPDEST SWAP2 POP POP SWAP3 SWAP2 POP POP JUMP JUMPDEST PUSH1 0x0 DUP1 PUSH1 0x0 DUP1 PUSH1 0x0 PUSH1 0xA0 DUP7 DUP9 SUB SLT ISZERO PUSH2 0x170B JUMPI PUSH2 0x170A PUSH2 0xE90 JUMP JUMPDEST JUMPDEST PUSH1 0x0 PUSH2 0x1719 DUP9 DUP3 DUP10 ADD PUSH2 0xEF1 JUMP JUMPDEST SWAP6 POP POP PUSH1 0x20 PUSH2 0x172A DUP9 DUP3 DUP10 ADD PUSH2 0xEF1 JUMP JUMPDEST SWAP5 POP POP PUSH1 0x40 PUSH2 0x173B DUP9 DUP3 DUP10 ADD PUSH2 0x1617 JUMP JUMPDEST SWAP4 POP POP PUSH1 0x60 DUP7 ADD CALLDATALOAD PUSH8 0xFFFFFFFFFFFFFFFF DUP2 GT ISZERO PUSH2 0x175C JUMPI PUSH2 0x175B PUSH2 0xE95 JUMP JUMPDEST JUMPDEST PUSH2 0x1768 DUP9 DUP3 DUP10 ADD PUSH2 0x1289 JUMP JUMPDEST SWAP3 POP POP PUSH1 0x80 DUP7 ADD CALLDATALOAD PUSH8 0xFFFFFFFFFFFFFFFF DUP2 GT ISZERO PUSH2 0x1789 JUMPI PUSH2 0x1788 PUSH2 0xE95 JUMP JUMPDEST JUMPDEST PUSH2 0x1795 DUP9 DUP3 DUP10 ADD PUSH2 0x16C1 JUMP JUMPDEST SWAP2 POP POP SWAP3 SWAP6 POP SWAP3 SWAP6 SWAP1 SWAP4 POP JUMP JUMPDEST PUSH32 0x4E487B7100000000000000000000000000000000000000000000000000000000 PUSH1 0x0 MSTORE PUSH1 0x32 PUSH1 0x4 MSTORE PUSH1 0x24 PUSH1 0x0 REVERT JUMPDEST PUSH1 0x0 DUP3 DUP3 MSTORE PUSH1 0x20 DUP3 ADD SWAP1 POP SWAP3 SWAP2 POP POP JUMP JUMPDEST PUSH32 0x44617461206D7573742068617665206174206C6561737420746872656520656C PUSH1 0x0 DUP3 ADD MSTORE PUSH32 0x656D656E74730000000000000000000000000000000000000000000000000000 PUSH1 0x20 DUP3 ADD MSTORE POP JUMP JUMPDEST PUSH1 0x0 PUSH2 0x183E PUSH1 0x26 DUP4 PUSH2 0x17D1 JUMP JUMPDEST SWAP2 POP PUSH2 0x1849 DUP3 PUSH2 0x17E2 JUMP JUMPDEST PUSH1 0x40 DUP3 ADD SWAP1 POP SWAP2 SWAP1 POP JUMP JUMPDEST PUSH1 0x0 PUSH1 0x20 DUP3 ADD SWAP1 POP DUP2 DUP2 SUB PUSH1 0x0 DUP4 ADD MSTORE PUSH2 0x186D DUP2 PUSH2 0x1831 JUMP JUMPDEST SWAP1 POP SWAP2 SWAP1 POP JUMP JUMPDEST PUSH32 0x50726F636573736F7220666F72207472616E73616374696F6E2074797065206E PUSH1 0x0 DUP3 ADD MSTORE PUSH32 0x6F74207265676973746572656400000000000000000000000000000000000000 PUSH1 0x20 DUP3 ADD MSTORE POP JUMP JUMPDEST PUSH1 0x0 PUSH2 0x18D0 PUSH1 0x2D DUP4 PUSH2 0x17D1 JUMP JUMPDEST SWAP2 POP PUSH2 0x18DB DUP3 PUSH2 0x1874 JUMP JUMPDEST PUSH1 0x40 DUP3 ADD SWAP1 POP SWAP2 SWAP1 POP JUMP JUMPDEST PUSH1 0x0 PUSH1 0x20 DUP3 ADD SWAP1 POP DUP2 DUP2 SUB PUSH1 0x0 DUP4 ADD MSTORE PUSH2 0x18FF DUP2 PUSH2 0x18C3 JUMP JUMPDEST SWAP1 POP SWAP2 SWAP1 POP JUMP JUMPDEST PUSH1 0x0 PUSH1 0x40 DUP3 ADD SWAP1 POP DUP2 DUP2 SUB PUSH1 0x0 DUP4 ADD MSTORE PUSH2 0x1920 DUP2 DUP6 PUSH2 0x1506 JUMP JUMPDEST SWAP1 POP PUSH2 0x192F PUSH1 0x20 DUP4 ADD DUP5 PUSH2 0x1028 JUMP JUMPDEST SWAP4 SWAP3 POP POP POP JUMP JUMPDEST PUSH1 0x0 DUP2 MLOAD SWAP1 POP SWAP2 SWAP1 POP JUMP JUMPDEST PUSH1 0x0 JUMPDEST DUP4 DUP2 LT ISZERO PUSH2 0x195F JUMPI DUP1 DUP3 ADD MLOAD DUP2 DUP5 ADD MSTORE PUSH1 0x20 DUP2 ADD SWAP1 POP PUSH2 0x1944 JUMP JUMPDEST PUSH1 0x0 DUP5 DUP5 ADD MSTORE POP POP POP POP JUMP JUMPDEST PUSH1 0x0 PUSH2 0x1976 DUP3 PUSH2 0x1936 JUMP JUMPDEST PUSH2 0x1980 DUP2 DUP6 PUSH2 0x17D1 JUMP JUMPDEST SWAP4 POP PUSH2 0x1990 DUP2 DUP6 PUSH1 0x20 DUP7 ADD PUSH2 0x1941 JUMP JUMPDEST PUSH2 0x1999 DUP2 PUSH2 0x1163 JUMP JUMPDEST DUP5 ADD SWAP2 POP POP SWAP3 SWAP2 POP POP JUMP JUMPDEST PUSH1 0x0 PUSH1 0x20 DUP3 ADD SWAP1 POP DUP2 DUP2 SUB PUSH1 0x0 DUP4 ADD MSTORE PUSH2 0x19BE DUP2 DUP5 PUSH2 0x196B JUMP JUMPDEST SWAP1 POP SWAP3 SWAP2 POP POP JUMP JUMPDEST PUSH1 0x0 DUP2 MLOAD SWAP1 POP PUSH2 0x19D5 DUP2 PUSH2 0xEDA JUMP JUMPDEST SWAP3 SWAP2 POP POP JUMP JUMPDEST PUSH1 0x0 PUSH1 0x20 DUP3 DUP5 SUB SLT ISZERO PUSH2 0x19F1 JUMPI PUSH2 0x19F0 PUSH2 0xE90 JUMP JUMPDEST JUMPDEST PUSH1 0x0 PUSH2 0x19FF DUP5 DUP3 DUP6 ADD PUSH2 0x19C6 JUMP JUMPDEST SWAP2 POP POP SWAP3 SWAP2 POP POP JUMP JUMPDEST PUSH32 0x506172616D206B65797320616E642076616C756573206D757374206D61746368 PUSH1 0x0 DUP3 ADD MSTORE PUSH32 0x20696E206C656E67746800000000000000000000000000000000000000000000 PUSH1 0x20 DUP3 ADD MSTORE POP JUMP JUMPDEST PUSH1 0x0 PUSH2 0x1A64 PUSH1 0x2A DUP4 PUSH2 0x17D1 JUMP JUMPDEST SWAP2 POP PUSH2 0x1A6F DUP3 PUSH2 0x1A08 JUMP JUMPDEST PUSH1 0x40 DUP3 ADD SWAP1 POP SWAP2 SWAP1 POP JUMP JUMPDEST PUSH1 0x0 PUSH1 0x20 DUP3 ADD SWAP1 POP DUP2 DUP2 SUB PUSH1 0x0 DUP4 ADD MSTORE PUSH2 0x1A93 DUP2 PUSH2 0x1A57 JUMP JUMPDEST SWAP1 POP SWAP2 SWAP1 POP JUMP JUMPDEST PUSH32 0x4E487B7100000000000000000000000000000000000000000000000000000000 PUSH1 0x0 MSTORE PUSH1 0x11 PUSH1 0x4 MSTORE PUSH1 0x24 PUSH1 0x0 REVERT JUMPDEST PUSH1 0x0 PUSH2 0x1AD4 DUP3 PUSH2 0xE9A JUMP JUMPDEST SWAP2 POP PUSH32 0xFFFFFFFFFFFFFFFFFFFFFFFFFFFFFFFFFFFFFFFFFFFFFFFFFFFFFFFFFFFFFFFF DUP3 SUB PUSH2 0x1B06 JUMPI PUSH2 0x1B05 PUSH2 0x1A9A JUMP JUMPDEST JUMPDEST PUSH1 0x1 DUP3 ADD SWAP1 POP SWAP2 SWAP1 POP JUMP JUMPDEST PUSH32 0x7472616E735F74696D6500000000000000000000000000000000000000000000 PUSH1 0x0 DUP3 ADD MSTORE POP JUMP JUMPDEST PUSH1 0x0 PUSH2 0x1B47 PUSH1 0xA DUP4 PUSH2 0x17D1 JUMP JUMPDEST SWAP2 POP PUSH2 0x1B52 DUP3 PUSH2 0x1B11 JUMP JUMPDEST PUSH1 0x20 DUP3 ADD SWAP1 POP SWAP2 SWAP1 POP JUMP JUMPDEST PUSH1 0x0 PUSH1 0x20 DUP3 ADD SWAP1 POP DUP2 DUP2 SUB PUSH1 0x0 DUP4 ADD MSTORE PUSH2 0x1B76 DUP2 PUSH2 0x1B3A JUMP JUMPDEST SWAP1 POP SWAP2 SWAP1 POP JUMP JUMPDEST PUSH32 0x5472616E73616374696F6E207769746820676976656E206576656E744964206E PUSH1 0x0 DUP3 ADD MSTORE PUSH32 0x6F7420666F756E64000000000000000000000000000000000000000000000000 PUSH1 0x20 DUP3 ADD MSTORE POP JUMP JUMPDEST PUSH1 0x0 PUSH2 0x1BD9 PUSH1 0x28 DUP4 PUSH2 0x17D1 JUMP JUMPDEST SWAP2 POP PUSH2 0x1BE4 DUP3 PUSH2 0x1B7D JUMP JUMPDEST PUSH1 0x40 DUP3 ADD SWAP1 POP SWAP2 SWAP1 POP JUMP JUMPDEST PUSH1 0x0 PUSH1 0x20 DUP3 ADD SWAP1 POP DUP2 DUP2 SUB PUSH1 0x0 DUP4 ADD MSTORE PUSH2 0x1C08 DUP2 PUSH2 0x1BCC JUMP JUMPDEST SWAP1 POP SWAP2 SWAP1 POP JUMP INVALID LOG2 PUSH5 0x6970667358 0x22 SLT KECCAK256 CALLDATACOPY RETURNDATASIZE 0xE4 POP SWAP12 BYTE LOG0 DELEGATECALL 0x2F MSTORE8 SWAP15 SWAP16 INVALID 0x4B LOG1 SIGNEXTEND 0xF6 0xBA 0xC9 SSTORE 0xE8 0x5C 0xD PUSH9 0xD6D916AD7F1155E264 PUSH20 0x6F6C634300081200330000000000000000000000 "
				},
				"gasEstimates": {
					"creation": {
						"codeDepositCost": "1447400",
						"executionCost": "infinite",
						"totalCost": "infinite"
					},
					"external": {
						"Iparser()": "infinite",
						"addProcessedTransaction(bytes32,bytes32,address,bytes32[],int256[])": "infinite",
						"addRecord(bytes32[])": "infinite",
						"getTransaction(bytes32)": "infinite",
						"getTransactionEventId(uint256)": "5010",
						"getTransactionParam(uint256,bytes32)": "5151",
						"getTransactionParamByEventId(bytes32,bytes32)": "infinite",
						"getTransactionTime(uint256)": "infinite",
						"getTransactionType(uint256)": "4943",
						"getTransactionsCount()": "2512",
						"inputWithDecimal(string,string,int256,int256,int256,int256)": "infinite",
						"registerHanlder(bytes32,address)": "25039",
						"transactions(uint256)": "infinite"
					},
					"internal": {
						"findTransaction(bytes32)": "infinite"
					}
				},
				"methodIdentifiers": {
					"Iparser()": "e064d199",
					"addProcessedTransaction(bytes32,bytes32,address,bytes32[],int256[])": "ed40bbd5",
					"addRecord(bytes32[])": "c4af6548",
					"getTransaction(bytes32)": "4aae13ca",
					"getTransactionEventId(uint256)": "9b4e3420",
					"getTransactionParam(uint256,bytes32)": "1afc42b6",
					"getTransactionParamByEventId(bytes32,bytes32)": "419e4138",
					"getTransactionTime(uint256)": "fadc6bc6",
					"getTransactionType(uint256)": "e09576f0",
					"getTransactionsCount()": "578cb8f9",
					"inputWithDecimal(string,string,int256,int256,int256,int256)": "df4ecf42",
					"registerHanlder(bytes32,address)": "a3edf3e1",
					"transactions(uint256)": "9ace38c2"
				}
			},
			"storageLayout": {
				"storage": [
					{
						"astId": 264,
						"contract": "contracts/TransactionContract.sol:TransactionContract",
						"label": "Iparser",
						"offset": 0,
						"slot": "0",
						"type": "t_contract(IParser)725"
					},
					{
						"astId": 268,
						"contract": "contracts/TransactionContract.sol:TransactionContract",
						"label": "transactions",
						"offset": 0,
						"slot": "1",
						"type": "t_array(t_struct(Transaction)257_storage)dyn_storage"
					},
					{
						"astId": 273,
						"contract": "contracts/TransactionContract.sol:TransactionContract",
						"label": "handlers",
						"offset": 0,
						"slot": "2",
						"type": "t_mapping(t_bytes32,t_contract(TransactionHandler)701)"
					}
				],
				"types": {
					"t_address": {
						"encoding": "inplace",
						"label": "address",
						"numberOfBytes": "20"
					},
					"t_array(t_struct(Transaction)257_storage)dyn_storage": {
						"base": "t_struct(Transaction)257_storage",
						"encoding": "dynamic_array",
						"label": "struct TransactionContract.Transaction[]",
						"numberOfBytes": "32"
					},
					"t_bytes32": {
						"encoding": "inplace",
						"label": "bytes32",
						"numberOfBytes": "32"
					},
					"t_contract(IParser)725": {
						"encoding": "inplace",
						"label": "contract IParser",
						"numberOfBytes": "20"
					},
					"t_contract(TransactionHandler)701": {
						"encoding": "inplace",
						"label": "contract TransactionHandler",
						"numberOfBytes": "20"
					},
					"t_int256": {
						"encoding": "inplace",
						"label": "int256",
						"numberOfBytes": "32"
					},
					"t_mapping(t_bytes32,t_contract(TransactionHandler)701)": {
						"encoding": "mapping",
						"key": "t_bytes32",
						"label": "mapping(bytes32 => contract TransactionHandler)",
						"numberOfBytes": "32",
						"value": "t_contract(TransactionHandler)701"
					},
					"t_mapping(t_bytes32,t_int256)": {
						"encoding": "mapping",
						"key": "t_bytes32",
						"label": "mapping(bytes32 => int256)",
						"numberOfBytes": "32",
						"value": "t_int256"
					},
					"t_struct(Transaction)257_storage": {
						"encoding": "inplace",
						"label": "struct TransactionContract.Transaction",
						"members": [
							{
								"astId": 248,
								"contract": "contracts/TransactionContract.sol:TransactionContract",
								"label": "eventId",
								"offset": 0,
								"slot": "0",
								"type": "t_bytes32"
							},
							{
								"astId": 250,
								"contract": "contracts/TransactionContract.sol:TransactionContract",
								"label": "transactionType",
								"offset": 0,
								"slot": "1",
								"type": "t_bytes32"
							},
							{
								"astId": 252,
								"contract": "contracts/TransactionContract.sol:TransactionContract",
								"label": "recorder",
								"offset": 0,
								"slot": "2",
								"type": "t_address"
							},
							{
								"astId": 256,
								"contract": "contracts/TransactionContract.sol:TransactionContract",
								"label": "params",
								"offset": 0,
								"slot": "3",
								"type": "t_mapping(t_bytes32,t_int256)"
							}
						],
						"numberOfBytes": "128"
					}
				}
			},
			"userdoc": {
				"kind": "user",
				"methods": {},
				"version": 1
			}
		}
	}
}