{
	"contracts/E00010004_8_Handler.sol": {
		"E00010004_8_Processor": {
			"abi": [
				{
					"inputs": [
						{
							"internalType": "contract TransactionContract",
							"name": "_transactionContract",
							"type": "address"
						},
						{
							"internalType": "address",
							"name": "_parser",
							"type": "address"
						}
					],
					"stateMutability": "nonpayable",
					"type": "constructor"
				},
				{
					"inputs": [],
					"name": "Iparser",
					"outputs": [
						{
							"internalType": "contract IParser",
							"name": "",
							"type": "address"
						}
					],
					"stateMutability": "view",
					"type": "function"
				},
				{
					"inputs": [
						{
							"internalType": "bytes32[]",
							"name": "data",
							"type": "bytes32[]"
						},
						{
							"internalType": "address",
							"name": "recorder",
							"type": "address"
						}
					],
					"name": "processTransaction",
					"outputs": [],
					"stateMutability": "nonpayable",
					"type": "function"
				}
			],
			"devdoc": {
				"kind": "dev",
				"methods": {},
				"version": 1
			},
			"evm": {
				"assembly": "    /* \"contracts/E00010004_8_Handler.sol\":142:1645  contract E00010004_8_Processor is TransactionHandler {... */\n  mstore(0x40, 0x80)\n    /* \"contracts/E00010004_8_Handler.sol\":284:450  constructor(TransactionContract _transactionContract, address _parser) {... */\n  callvalue\n  dup1\n  iszero\n  tag_1\n  jumpi\n  0x00\n  dup1\n  revert\ntag_1:\n  pop\n  mload(0x40)\n  sub(codesize, bytecodeSize)\n  dup1\n  bytecodeSize\n  dup4\n  codecopy\n  dup2\n  dup2\n  add\n  0x40\n  mstore\n  dup2\n  add\n  swap1\n  tag_2\n  swap2\n  swap1\n  tag_3\n  jump\t// in\ntag_2:\n    /* \"contracts/E00010004_8_Handler.sol\":387:407  _transactionContract */\n  dup2\n    /* \"contracts/E00010004_8_Handler.sol\":365:384  transactionContract */\n  0x01\n  0x00\n    /* \"contracts/E00010004_8_Handler.sol\":365:407  transactionContract = _transactionContract */\n  0x0100\n  exp\n  dup2\n  sload\n  dup2\n  0xffffffffffffffffffffffffffffffffffffffff\n  mul\n  not\n  and\n  swap1\n  dup4\n  0xffffffffffffffffffffffffffffffffffffffff\n  and\n  mul\n  or\n  swap1\n  sstore\n  pop\n    /* \"contracts/E00010004_8_Handler.sol\":435:442  _parser */\n  dup1\n    /* \"contracts/E00010004_8_Handler.sol\":417:424  Iparser */\n  0x00\n  dup1\n    /* \"contracts/E00010004_8_Handler.sol\":417:443  Iparser = IParser(_parser) */\n  0x0100\n  exp\n  dup2\n  sload\n  dup2\n  0xffffffffffffffffffffffffffffffffffffffff\n  mul\n  not\n  and\n  swap1\n  dup4\n  0xffffffffffffffffffffffffffffffffffffffff\n  and\n  mul\n  or\n  swap1\n  sstore\n  pop\n    /* \"contracts/E00010004_8_Handler.sol\":284:450  constructor(TransactionContract _transactionContract, address _parser) {... */\n  pop\n  pop\n    /* \"contracts/E00010004_8_Handler.sol\":142:1645  contract E00010004_8_Processor is TransactionHandler {... */\n  jump(tag_6)\n    /* \"#utility.yul\":88:205   */\ntag_8:\n    /* \"#utility.yul\":197:198   */\n  0x00\n    /* \"#utility.yul\":194:195   */\n  dup1\n    /* \"#utility.yul\":187:199   */\n  revert\n    /* \"#utility.yul\":334:460   */\ntag_10:\n    /* \"#utility.yul\":371:378   */\n  0x00\n    /* \"#utility.yul\":411:453   */\n  0xffffffffffffffffffffffffffffffffffffffff\n    /* \"#utility.yul\":404:409   */\n  dup3\n    /* \"#utility.yul\":400:454   */\n  and\n    /* \"#utility.yul\":389:454   */\n  swap1\n  pop\n    /* \"#utility.yul\":334:460   */\n  swap2\n  swap1\n  pop\n  jump\t// out\n    /* \"#utility.yul\":466:562   */\ntag_11:\n    /* \"#utility.yul\":503:510   */\n  0x00\n    /* \"#utility.yul\":532:556   */\n  tag_23\n    /* \"#utility.yul\":550:555   */\n  dup3\n    /* \"#utility.yul\":532:556   */\n  tag_10\n  jump\t// in\ntag_23:\n    /* \"#utility.yul\":521:556   */\n  swap1\n  pop\n    /* \"#utility.yul\":466:562   */\n  swap2\n  swap1\n  pop\n  jump\t// out\n    /* \"#utility.yul\":568:691   */\ntag_12:\n    /* \"#utility.yul\":632:639   */\n  0x00\n    /* \"#utility.yul\":661:685   */\n  tag_25\n    /* \"#utility.yul\":679:684   */\n  dup3\n    /* \"#utility.yul\":661:685   */\n  tag_11\n  jump\t// in\ntag_25:\n    /* \"#utility.yul\":650:685   */\n  swap1\n  pop\n    /* \"#utility.yul\":568:691   */\n  swap2\n  swap1\n  pop\n  jump\t// out\n    /* \"#utility.yul\":697:873   */\ntag_13:\n    /* \"#utility.yul\":797:848   */\n  tag_27\n    /* \"#utility.yul\":842:847   */\n  dup2\n    /* \"#utility.yul\":797:848   */\n  tag_12\n  jump\t// in\ntag_27:\n    /* \"#utility.yul\":790:795   */\n  dup2\n    /* \"#utility.yul\":787:849   */\n  eq\n    /* \"#utility.yul\":777:867   */\n  tag_28\n  jumpi\n    /* \"#utility.yul\":863:864   */\n  0x00\n    /* \"#utility.yul\":860:861   */\n  dup1\n    /* \"#utility.yul\":853:865   */\n  revert\n    /* \"#utility.yul\":777:867   */\ntag_28:\n    /* \"#utility.yul\":697:873   */\n  pop\n  jump\t// out\n    /* \"#utility.yul\":879:1076   */\ntag_14:\n    /* \"#utility.yul\":963:968   */\n  0x00\n    /* \"#utility.yul\":994:1000   */\n  dup2\n    /* \"#utility.yul\":988:1001   */\n  mload\n    /* \"#utility.yul\":979:1001   */\n  swap1\n  pop\n    /* \"#utility.yul\":1010:1070   */\n  tag_30\n    /* \"#utility.yul\":1064:1069   */\n  dup2\n    /* \"#utility.yul\":1010:1070   */\n  tag_13\n  jump\t// in\ntag_30:\n    /* \"#utility.yul\":879:1076   */\n  swap3\n  swap2\n  pop\n  pop\n  jump\t// out\n    /* \"#utility.yul\":1082:1204   */\ntag_15:\n    /* \"#utility.yul\":1155:1179   */\n  tag_32\n    /* \"#utility.yul\":1173:1178   */\n  dup2\n    /* \"#utility.yul\":1155:1179   */\n  tag_11\n  jump\t// in\ntag_32:\n    /* \"#utility.yul\":1148:1153   */\n  dup2\n    /* \"#utility.yul\":1145:1180   */\n  eq\n    /* \"#utility.yul\":1135:1198   */\n  tag_33\n  jumpi\n    /* \"#utility.yul\":1194:1195   */\n  0x00\n    /* \"#utility.yul\":1191:1192   */\n  dup1\n    /* \"#utility.yul\":1184:1196   */\n  revert\n    /* \"#utility.yul\":1135:1198   */\ntag_33:\n    /* \"#utility.yul\":1082:1204   */\n  pop\n  jump\t// out\n    /* \"#utility.yul\":1210:1353   */\ntag_16:\n    /* \"#utility.yul\":1267:1272   */\n  0x00\n    /* \"#utility.yul\":1298:1304   */\n  dup2\n    /* \"#utility.yul\":1292:1305   */\n  mload\n    /* \"#utility.yul\":1283:1305   */\n  swap1\n  pop\n    /* \"#utility.yul\":1314:1347   */\n  tag_35\n    /* \"#utility.yul\":1341:1346   */\n  dup2\n    /* \"#utility.yul\":1314:1347   */\n  tag_15\n  jump\t// in\ntag_35:\n    /* \"#utility.yul\":1210:1353   */\n  swap3\n  swap2\n  pop\n  pop\n  jump\t// out\n    /* \"#utility.yul\":1359:1920   */\ntag_3:\n    /* \"#utility.yul\":1465:1471   */\n  0x00\n    /* \"#utility.yul\":1473:1479   */\n  dup1\n    /* \"#utility.yul\":1522:1524   */\n  0x40\n    /* \"#utility.yul\":1510:1519   */\n  dup4\n    /* \"#utility.yul\":1501:1508   */\n  dup6\n    /* \"#utility.yul\":1497:1520   */\n  sub\n    /* \"#utility.yul\":1493:1525   */\n  slt\n    /* \"#utility.yul\":1490:1609   */\n  iszero\n  tag_37\n  jumpi\n    /* \"#utility.yul\":1528:1607   */\n  tag_38\n  tag_8\n  jump\t// in\ntag_38:\n    /* \"#utility.yul\":1490:1609   */\ntag_37:\n    /* \"#utility.yul\":1648:1649   */\n  0x00\n    /* \"#utility.yul\":1673:1764   */\n  tag_39\n    /* \"#utility.yul\":1756:1763   */\n  dup6\n    /* \"#utility.yul\":1747:1753   */\n  dup3\n    /* \"#utility.yul\":1736:1745   */\n  dup7\n    /* \"#utility.yul\":1732:1754   */\n  add\n    /* \"#utility.yul\":1673:1764   */\n  tag_14\n  jump\t// in\ntag_39:\n    /* \"#utility.yul\":1663:1764   */\n  swap3\n  pop\n    /* \"#utility.yul\":1619:1774   */\n  pop\n    /* \"#utility.yul\":1813:1815   */\n  0x20\n    /* \"#utility.yul\":1839:1903   */\n  tag_40\n    /* \"#utility.yul\":1895:1902   */\n  dup6\n    /* \"#utility.yul\":1886:1892   */\n  dup3\n    /* \"#utility.yul\":1875:1884   */\n  dup7\n    /* \"#utility.yul\":1871:1893   */\n  add\n    /* \"#utility.yul\":1839:1903   */\n  tag_16\n  jump\t// in\ntag_40:\n    /* \"#utility.yul\":1829:1903   */\n  swap2\n  pop\n    /* \"#utility.yul\":1784:1913   */\n  pop\n    /* \"#utility.yul\":1359:1920   */\n  swap3\n  pop\n  swap3\n  swap1\n  pop\n  jump\t// out\n    /* \"contracts/E00010004_8_Handler.sol\":142:1645  contract E00010004_8_Processor is TransactionHandler {... */\ntag_6:\n  dataSize(sub_0)\n  dup1\n  dataOffset(sub_0)\n  0x00\n  codecopy\n  0x00\n  return\nstop\n\nsub_0: assembly {\n        /* \"contracts/E00010004_8_Handler.sol\":142:1645  contract E00010004_8_Processor is TransactionHandler {... */\n      mstore(0x40, 0x80)\n      callvalue\n      dup1\n      iszero\n      tag_1\n      jumpi\n      0x00\n      dup1\n      revert\n    tag_1:\n      pop\n      jumpi(tag_2, lt(calldatasize, 0x04))\n      shr(0xe0, calldataload(0x00))\n      dup1\n      0xe064d199\n      eq\n      tag_3\n      jumpi\n      dup1\n      0xe91046a9\n      eq\n      tag_4\n      jumpi\n    tag_2:\n      0x00\n      dup1\n      revert\n        /* \"contracts/E00010004_8_Handler.sol\":202:224  IParser public Iparser */\n    tag_3:\n      tag_5\n      tag_6\n      jump\t// in\n    tag_5:\n      mload(0x40)\n      tag_7\n      swap2\n      swap1\n      tag_8\n      jump\t// in\n    tag_7:\n      mload(0x40)\n      dup1\n      swap2\n      sub\n      swap1\n      return\n        /* \"contracts/E00010004_8_Handler.sol\":456:1643  function processTransaction(bytes32[] memory data, address recorder) public override {... */\n    tag_4:\n      tag_9\n      0x04\n      dup1\n      calldatasize\n      sub\n      dup2\n      add\n      swap1\n      tag_10\n      swap2\n      swap1\n      tag_11\n      jump\t// in\n    tag_10:\n      tag_12\n      jump\t// in\n    tag_9:\n      stop\n        /* \"contracts/E00010004_8_Handler.sol\":202:224  IParser public Iparser */\n    tag_6:\n      0x00\n      dup1\n      sload\n      swap1\n      0x0100\n      exp\n      swap1\n      div\n      0xffffffffffffffffffffffffffffffffffffffff\n      and\n      dup2\n      jump\t// out\n        /* \"contracts/E00010004_8_Handler.sol\":456:1643  function processTransaction(bytes32[] memory data, address recorder) public override {... */\n    tag_12:\n        /* \"contracts/E00010004_8_Handler.sol\":578:579  7 */\n      0x07\n        /* \"contracts/E00010004_8_Handler.sol\":563:567  data */\n      dup3\n        /* \"contracts/E00010004_8_Handler.sol\":563:574  data.length */\n      mload\n        /* \"contracts/E00010004_8_Handler.sol\":563:579  data.length == 7 */\n      eq\n        /* \"contracts/E00010004_8_Handler.sol\":555:625  require(data.length == 7, \"Data length for E00010001_2_3_7 must be 7\") */\n      tag_14\n      jumpi\n      mload(0x40)\n      0x08c379a000000000000000000000000000000000000000000000000000000000\n      dup2\n      mstore\n      0x04\n      add\n      tag_15\n      swap1\n      tag_16\n      jump\t// in\n    tag_15:\n      mload(0x40)\n      dup1\n      swap2\n      sub\n      swap1\n      revert\n    tag_14:\n        /* \"contracts/E00010004_8_Handler.sol\":644:670  bytes32[] memory paramKeys */\n      0x00\n        /* \"contracts/E00010004_8_Handler.sol\":687:688  7 */\n      0x07\n        /* \"contracts/E00010004_8_Handler.sol\":673:689  new bytes32[](7) */\n      0xffffffffffffffff\n      dup2\n      gt\n      iszero\n      tag_17\n      jumpi\n      tag_18\n      tag_19\n      jump\t// in\n    tag_18:\n    tag_17:\n      mload(0x40)\n      swap1\n      dup1\n      dup3\n      mstore\n      dup1\n      0x20\n      mul\n      0x20\n      add\n      dup3\n      add\n      0x40\n      mstore\n      dup1\n      iszero\n      tag_20\n      jumpi\n      dup2\n      0x20\n      add\n      0x20\n      dup3\n      mul\n      dup1\n      calldatasize\n      dup4\n      calldatacopy\n      dup1\n      dup3\n      add\n      swap2\n      pop\n      pop\n      swap1\n      pop\n    tag_20:\n      pop\n        /* \"contracts/E00010004_8_Handler.sol\":644:689  bytes32[] memory paramKeys = new bytes32[](7) */\n      swap1\n      pop\n        /* \"contracts/E00010004_8_Handler.sol\":699:726  int256[] memory paramValues */\n      0x00\n        /* \"contracts/E00010004_8_Handler.sol\":742:743  7 */\n      0x07\n        /* \"contracts/E00010004_8_Handler.sol\":729:744  new int256[](7) */\n      0xffffffffffffffff\n      dup2\n      gt\n      iszero\n      tag_21\n      jumpi\n      tag_22\n      tag_19\n      jump\t// in\n    tag_22:\n    tag_21:\n      mload(0x40)\n      swap1\n      dup1\n      dup3\n      mstore\n      dup1\n      0x20\n      mul\n      0x20\n      add\n      dup3\n      add\n      0x40\n      mstore\n      dup1\n      iszero\n      tag_23\n      jumpi\n      dup2\n      0x20\n      add\n      0x20\n      dup3\n      mul\n      dup1\n      calldatasize\n      dup4\n      calldatacopy\n      dup1\n      dup3\n      add\n      swap2\n      pop\n      pop\n      swap1\n      pop\n    tag_23:\n      pop\n        /* \"contracts/E00010004_8_Handler.sol\":699:744  int256[] memory paramValues = new int256[](7) */\n      swap1\n      pop\n        /* \"contracts/E00010004_8_Handler.sol\":778:785  Iparser */\n      0x00\n      dup1\n      sload\n      swap1\n      0x0100\n      exp\n      swap1\n      div\n      0xffffffffffffffffffffffffffffffffffffffff\n      and\n        /* \"contracts/E00010004_8_Handler.sol\":778:801  Iparser.stringToBytes32 */\n      0xffffffffffffffffffffffffffffffffffffffff\n      and\n      0xcfb51928\n        /* \"contracts/E00010004_8_Handler.sol\":778:810  Iparser.stringToBytes32(\"EP001\") */\n      mload(0x40)\n      dup2\n      0xffffffff\n      and\n      0xe0\n      shl\n      dup2\n      mstore\n      0x04\n      add\n      tag_24\n      swap1\n      tag_25\n      jump\t// in\n    tag_24:\n      0x20\n      mload(0x40)\n      dup1\n      dup4\n      sub\n      dup2\n      dup7\n      gas\n      staticcall\n      iszero\n      dup1\n      iszero\n      tag_27\n      jumpi\n      returndatasize\n      0x00\n      dup1\n      returndatacopy\n      revert(0x00, returndatasize)\n    tag_27:\n      pop\n      pop\n      pop\n      pop\n      mload(0x40)\n      returndatasize\n      not(0x1f)\n      0x1f\n      dup3\n      add\n      and\n      dup3\n      add\n      dup1\n      0x40\n      mstore\n      pop\n      dup2\n      add\n      swap1\n      tag_28\n      swap2\n      swap1\n      tag_29\n      jump\t// in\n    tag_28:\n        /* \"contracts/E00010004_8_Handler.sol\":763:772  paramKeys */\n      dup3\n        /* \"contracts/E00010004_8_Handler.sol\":773:774  0 */\n      0x00\n        /* \"contracts/E00010004_8_Handler.sol\":763:775  paramKeys[0] */\n      dup2\n      mload\n      dup2\n      lt\n      tag_30\n      jumpi\n      tag_31\n      tag_32\n      jump\t// in\n    tag_31:\n    tag_30:\n      0x20\n      mul\n      0x20\n      add\n      add\n        /* \"contracts/E00010004_8_Handler.sol\":763:810  paramKeys[0] = Iparser.stringToBytes32(\"EP001\") */\n      dup2\n      dup2\n      mstore\n      pop\n      pop\n        /* \"contracts/E00010004_8_Handler.sol\":852:856  data */\n      dup4\n        /* \"contracts/E00010004_8_Handler.sol\":857:858  2 */\n      0x02\n        /* \"contracts/E00010004_8_Handler.sol\":852:859  data[2] */\n      dup2\n      mload\n      dup2\n      lt\n      tag_33\n      jumpi\n      tag_34\n      tag_32\n      jump\t// in\n    tag_34:\n    tag_33:\n      0x20\n      mul\n      0x20\n      add\n      add\n      mload\n        /* \"contracts/E00010004_8_Handler.sol\":844:860  uint256(data[2]) */\n      0x00\n      shr\n        /* \"contracts/E00010004_8_Handler.sol\":820:831  paramValues */\n      dup2\n        /* \"contracts/E00010004_8_Handler.sol\":832:833  0 */\n      0x00\n        /* \"contracts/E00010004_8_Handler.sol\":820:834  paramValues[0] */\n      dup2\n      mload\n      dup2\n      lt\n      tag_35\n      jumpi\n      tag_36\n      tag_32\n      jump\t// in\n    tag_36:\n    tag_35:\n      0x20\n      mul\n      0x20\n      add\n      add\n        /* \"contracts/E00010004_8_Handler.sol\":820:863  paramValues[0] = int256(uint256(data[2])  ) */\n      dup2\n      dup2\n      mstore\n      pop\n      pop\n        /* \"contracts/E00010004_8_Handler.sol\":888:895  Iparser */\n      0x00\n      dup1\n      sload\n      swap1\n      0x0100\n      exp\n      swap1\n      div\n      0xffffffffffffffffffffffffffffffffffffffff\n      and\n        /* \"contracts/E00010004_8_Handler.sol\":888:911  Iparser.stringToBytes32 */\n      0xffffffffffffffffffffffffffffffffffffffff\n      and\n      0xcfb51928\n        /* \"contracts/E00010004_8_Handler.sol\":888:920  Iparser.stringToBytes32(\"EP002\") */\n      mload(0x40)\n      dup2\n      0xffffffff\n      and\n      0xe0\n      shl\n      dup2\n      mstore\n      0x04\n      add\n      tag_37\n      swap1\n      tag_38\n      jump\t// in\n    tag_37:\n      0x20\n      mload(0x40)\n      dup1\n      dup4\n      sub\n      dup2\n      dup7\n      gas\n      staticcall\n      iszero\n      dup1\n      iszero\n      tag_40\n      jumpi\n      returndatasize\n      0x00\n      dup1\n      returndatacopy\n      revert(0x00, returndatasize)\n    tag_40:\n      pop\n      pop\n      pop\n      pop\n      mload(0x40)\n      returndatasize\n      not(0x1f)\n      0x1f\n      dup3\n      add\n      and\n      dup3\n      add\n      dup1\n      0x40\n      mstore\n      pop\n      dup2\n      add\n      swap1\n      tag_41\n      swap2\n      swap1\n      tag_29\n      jump\t// in\n    tag_41:\n        /* \"contracts/E00010004_8_Handler.sol\":873:882  paramKeys */\n      dup3\n        /* \"contracts/E00010004_8_Handler.sol\":883:884  1 */\n      0x01\n        /* \"contracts/E00010004_8_Handler.sol\":873:885  paramKeys[1] */\n      dup2\n      mload\n      dup2\n      lt\n      tag_42\n      jumpi\n      tag_43\n      tag_32\n      jump\t// in\n    tag_43:\n    tag_42:\n      0x20\n      mul\n      0x20\n      add\n      add\n        /* \"contracts/E00010004_8_Handler.sol\":873:920  paramKeys[1] = Iparser.stringToBytes32(\"EP002\") */\n      dup2\n      dup2\n      mstore\n      pop\n      pop\n        /* \"contracts/E00010004_8_Handler.sol\":962:966  data */\n      dup4\n        /* \"contracts/E00010004_8_Handler.sol\":967:968  3 */\n      0x03\n        /* \"contracts/E00010004_8_Handler.sol\":962:969  data[3] */\n      dup2\n      mload\n      dup2\n      lt\n      tag_44\n      jumpi\n      tag_45\n      tag_32\n      jump\t// in\n    tag_45:\n    tag_44:\n      0x20\n      mul\n      0x20\n      add\n      add\n      mload\n        /* \"contracts/E00010004_8_Handler.sol\":954:970  uint256(data[3]) */\n      0x00\n      shr\n        /* \"contracts/E00010004_8_Handler.sol\":930:941  paramValues */\n      dup2\n        /* \"contracts/E00010004_8_Handler.sol\":942:943  1 */\n      0x01\n        /* \"contracts/E00010004_8_Handler.sol\":930:944  paramValues[1] */\n      dup2\n      mload\n      dup2\n      lt\n      tag_46\n      jumpi\n      tag_47\n      tag_32\n      jump\t// in\n    tag_47:\n    tag_46:\n      0x20\n      mul\n      0x20\n      add\n      add\n        /* \"contracts/E00010004_8_Handler.sol\":930:973  paramValues[1] = int256(uint256(data[3])  ) */\n      dup2\n      dup2\n      mstore\n      pop\n      pop\n        /* \"contracts/E00010004_8_Handler.sol\":998:1005  Iparser */\n      0x00\n      dup1\n      sload\n      swap1\n      0x0100\n      exp\n      swap1\n      div\n      0xffffffffffffffffffffffffffffffffffffffff\n      and\n        /* \"contracts/E00010004_8_Handler.sol\":998:1021  Iparser.stringToBytes32 */\n      0xffffffffffffffffffffffffffffffffffffffff\n      and\n      0xcfb51928\n        /* \"contracts/E00010004_8_Handler.sol\":998:1030  Iparser.stringToBytes32(\"EP003\") */\n      mload(0x40)\n      dup2\n      0xffffffff\n      and\n      0xe0\n      shl\n      dup2\n      mstore\n      0x04\n      add\n      tag_48\n      swap1\n      tag_49\n      jump\t// in\n    tag_48:\n      0x20\n      mload(0x40)\n      dup1\n      dup4\n      sub\n      dup2\n      dup7\n      gas\n      staticcall\n      iszero\n      dup1\n      iszero\n      tag_51\n      jumpi\n      returndatasize\n      0x00\n      dup1\n      returndatacopy\n      revert(0x00, returndatasize)\n    tag_51:\n      pop\n      pop\n      pop\n      pop\n      mload(0x40)\n      returndatasize\n      not(0x1f)\n      0x1f\n      dup3\n      add\n      and\n      dup3\n      add\n      dup1\n      0x40\n      mstore\n      pop\n      dup2\n      add\n      swap1\n      tag_52\n      swap2\n      swap1\n      tag_29\n      jump\t// in\n    tag_52:\n        /* \"contracts/E00010004_8_Handler.sol\":983:992  paramKeys */\n      dup3\n        /* \"contracts/E00010004_8_Handler.sol\":993:994  2 */\n      0x02\n        /* \"contracts/E00010004_8_Handler.sol\":983:995  paramKeys[2] */\n      dup2\n      mload\n      dup2\n      lt\n      tag_53\n      jumpi\n      tag_54\n      tag_32\n      jump\t// in\n    tag_54:\n    tag_53:\n      0x20\n      mul\n      0x20\n      add\n      add\n        /* \"contracts/E00010004_8_Handler.sol\":983:1030  paramKeys[2] = Iparser.stringToBytes32(\"EP003\") */\n      dup2\n      dup2\n      mstore\n      pop\n      pop\n        /* \"contracts/E00010004_8_Handler.sol\":1072:1076  data */\n      dup4\n        /* \"contracts/E00010004_8_Handler.sol\":1077:1078  4 */\n      0x04\n        /* \"contracts/E00010004_8_Handler.sol\":1072:1079  data[4] */\n      dup2\n      mload\n      dup2\n      lt\n      tag_55\n      jumpi\n      tag_56\n      tag_32\n      jump\t// in\n    tag_56:\n    tag_55:\n      0x20\n      mul\n      0x20\n      add\n      add\n      mload\n        /* \"contracts/E00010004_8_Handler.sol\":1064:1080  uint256(data[4]) */\n      0x00\n      shr\n        /* \"contracts/E00010004_8_Handler.sol\":1040:1051  paramValues */\n      dup2\n        /* \"contracts/E00010004_8_Handler.sol\":1052:1053  2 */\n      0x02\n        /* \"contracts/E00010004_8_Handler.sol\":1040:1054  paramValues[2] */\n      dup2\n      mload\n      dup2\n      lt\n      tag_57\n      jumpi\n      tag_58\n      tag_32\n      jump\t// in\n    tag_58:\n    tag_57:\n      0x20\n      mul\n      0x20\n      add\n      add\n        /* \"contracts/E00010004_8_Handler.sol\":1040:1083  paramValues[2] = int256(uint256(data[4])  ) */\n      dup2\n      dup2\n      mstore\n      pop\n      pop\n        /* \"contracts/E00010004_8_Handler.sol\":1108:1115  Iparser */\n      0x00\n      dup1\n      sload\n      swap1\n      0x0100\n      exp\n      swap1\n      div\n      0xffffffffffffffffffffffffffffffffffffffff\n      and\n        /* \"contracts/E00010004_8_Handler.sol\":1108:1131  Iparser.stringToBytes32 */\n      0xffffffffffffffffffffffffffffffffffffffff\n      and\n      0xcfb51928\n        /* \"contracts/E00010004_8_Handler.sol\":1108:1140  Iparser.stringToBytes32(\"EP004\") */\n      mload(0x40)\n      dup2\n      0xffffffff\n      and\n      0xe0\n      shl\n      dup2\n      mstore\n      0x04\n      add\n      tag_59\n      swap1\n      tag_60\n      jump\t// in\n    tag_59:\n      0x20\n      mload(0x40)\n      dup1\n      dup4\n      sub\n      dup2\n      dup7\n      gas\n      staticcall\n      iszero\n      dup1\n      iszero\n      tag_62\n      jumpi\n      returndatasize\n      0x00\n      dup1\n      returndatacopy\n      revert(0x00, returndatasize)\n    tag_62:\n      pop\n      pop\n      pop\n      pop\n      mload(0x40)\n      returndatasize\n      not(0x1f)\n      0x1f\n      dup3\n      add\n      and\n      dup3\n      add\n      dup1\n      0x40\n      mstore\n      pop\n      dup2\n      add\n      swap1\n      tag_63\n      swap2\n      swap1\n      tag_29\n      jump\t// in\n    tag_63:\n        /* \"contracts/E00010004_8_Handler.sol\":1093:1102  paramKeys */\n      dup3\n        /* \"contracts/E00010004_8_Handler.sol\":1103:1104  3 */\n      0x03\n        /* \"contracts/E00010004_8_Handler.sol\":1093:1105  paramKeys[3] */\n      dup2\n      mload\n      dup2\n      lt\n      tag_64\n      jumpi\n      tag_65\n      tag_32\n      jump\t// in\n    tag_65:\n    tag_64:\n      0x20\n      mul\n      0x20\n      add\n      add\n        /* \"contracts/E00010004_8_Handler.sol\":1093:1140  paramKeys[3] = Iparser.stringToBytes32(\"EP004\") */\n      dup2\n      dup2\n      mstore\n      pop\n      pop\n        /* \"contracts/E00010004_8_Handler.sol\":1182:1186  data */\n      dup4\n        /* \"contracts/E00010004_8_Handler.sol\":1187:1188  5 */\n      0x05\n        /* \"contracts/E00010004_8_Handler.sol\":1182:1189  data[5] */\n      dup2\n      mload\n      dup2\n      lt\n      tag_66\n      jumpi\n      tag_67\n      tag_32\n      jump\t// in\n    tag_67:\n    tag_66:\n      0x20\n      mul\n      0x20\n      add\n      add\n      mload\n        /* \"contracts/E00010004_8_Handler.sol\":1174:1190  uint256(data[5]) */\n      0x00\n      shr\n        /* \"contracts/E00010004_8_Handler.sol\":1150:1161  paramValues */\n      dup2\n        /* \"contracts/E00010004_8_Handler.sol\":1162:1163  3 */\n      0x03\n        /* \"contracts/E00010004_8_Handler.sol\":1150:1164  paramValues[3] */\n      dup2\n      mload\n      dup2\n      lt\n      tag_68\n      jumpi\n      tag_69\n      tag_32\n      jump\t// in\n    tag_69:\n    tag_68:\n      0x20\n      mul\n      0x20\n      add\n      add\n        /* \"contracts/E00010004_8_Handler.sol\":1150:1193  paramValues[3] = int256(uint256(data[5])  ) */\n      dup2\n      dup2\n      mstore\n      pop\n      pop\n        /* \"contracts/E00010004_8_Handler.sol\":1218:1225  Iparser */\n      0x00\n      dup1\n      sload\n      swap1\n      0x0100\n      exp\n      swap1\n      div\n      0xffffffffffffffffffffffffffffffffffffffff\n      and\n        /* \"contracts/E00010004_8_Handler.sol\":1218:1241  Iparser.stringToBytes32 */\n      0xffffffffffffffffffffffffffffffffffffffff\n      and\n      0xcfb51928\n        /* \"contracts/E00010004_8_Handler.sol\":1218:1255  Iparser.stringToBytes32(\"trans_time\") */\n      mload(0x40)\n      dup2\n      0xffffffff\n      and\n      0xe0\n      shl\n      dup2\n      mstore\n      0x04\n      add\n      tag_70\n      swap1\n      tag_71\n      jump\t// in\n    tag_70:\n      0x20\n      mload(0x40)\n      dup1\n      dup4\n      sub\n      dup2\n      dup7\n      gas\n      staticcall\n      iszero\n      dup1\n      iszero\n      tag_73\n      jumpi\n      returndatasize\n      0x00\n      dup1\n      returndatacopy\n      revert(0x00, returndatasize)\n    tag_73:\n      pop\n      pop\n      pop\n      pop\n      mload(0x40)\n      returndatasize\n      not(0x1f)\n      0x1f\n      dup3\n      add\n      and\n      dup3\n      add\n      dup1\n      0x40\n      mstore\n      pop\n      dup2\n      add\n      swap1\n      tag_74\n      swap2\n      swap1\n      tag_29\n      jump\t// in\n    tag_74:\n        /* \"contracts/E00010004_8_Handler.sol\":1203:1212  paramKeys */\n      dup3\n        /* \"contracts/E00010004_8_Handler.sol\":1213:1214  4 */\n      0x04\n        /* \"contracts/E00010004_8_Handler.sol\":1203:1215  paramKeys[4] */\n      dup2\n      mload\n      dup2\n      lt\n      tag_75\n      jumpi\n      tag_76\n      tag_32\n      jump\t// in\n    tag_76:\n    tag_75:\n      0x20\n      mul\n      0x20\n      add\n      add\n        /* \"contracts/E00010004_8_Handler.sol\":1203:1255  paramKeys[4] = Iparser.stringToBytes32(\"trans_time\") */\n      dup2\n      dup2\n      mstore\n      pop\n      pop\n        /* \"contracts/E00010004_8_Handler.sol\":1289:1304  block.timestamp */\n      timestamp\n        /* \"contracts/E00010004_8_Handler.sol\":1265:1276  paramValues */\n      dup2\n        /* \"contracts/E00010004_8_Handler.sol\":1277:1278  4 */\n      0x04\n        /* \"contracts/E00010004_8_Handler.sol\":1265:1279  paramValues[4] */\n      dup2\n      mload\n      dup2\n      lt\n      tag_77\n      jumpi\n      tag_78\n      tag_32\n      jump\t// in\n    tag_78:\n    tag_77:\n      0x20\n      mul\n      0x20\n      add\n      add\n        /* \"contracts/E00010004_8_Handler.sol\":1265:1305  paramValues[4] = int256(block.timestamp) */\n      dup2\n      dup2\n      mstore\n      pop\n      pop\n        /* \"contracts/E00010004_8_Handler.sol\":1330:1337  Iparser */\n      0x00\n      dup1\n      sload\n      swap1\n      0x0100\n      exp\n      swap1\n      div\n      0xffffffffffffffffffffffffffffffffffffffff\n      and\n        /* \"contracts/E00010004_8_Handler.sol\":1330:1353  Iparser.stringToBytes32 */\n      0xffffffffffffffffffffffffffffffffffffffff\n      and\n      0xcfb51928\n        /* \"contracts/E00010004_8_Handler.sol\":1330:1362  Iparser.stringToBytes32(\"EP006\") */\n      mload(0x40)\n      dup2\n      0xffffffff\n      and\n      0xe0\n      shl\n      dup2\n      mstore\n      0x04\n      add\n      tag_79\n      swap1\n      tag_80\n      jump\t// in\n    tag_79:\n      0x20\n      mload(0x40)\n      dup1\n      dup4\n      sub\n      dup2\n      dup7\n      gas\n      staticcall\n      iszero\n      dup1\n      iszero\n      tag_82\n      jumpi\n      returndatasize\n      0x00\n      dup1\n      returndatacopy\n      revert(0x00, returndatasize)\n    tag_82:\n      pop\n      pop\n      pop\n      pop\n      mload(0x40)\n      returndatasize\n      not(0x1f)\n      0x1f\n      dup3\n      add\n      and\n      dup3\n      add\n      dup1\n      0x40\n      mstore\n      pop\n      dup2\n      add\n      swap1\n      tag_83\n      swap2\n      swap1\n      tag_29\n      jump\t// in\n    tag_83:\n        /* \"contracts/E00010004_8_Handler.sol\":1315:1324  paramKeys */\n      dup3\n        /* \"contracts/E00010004_8_Handler.sol\":1325:1326  5 */\n      0x05\n        /* \"contracts/E00010004_8_Handler.sol\":1315:1327  paramKeys[5] */\n      dup2\n      mload\n      dup2\n      lt\n      tag_84\n      jumpi\n      tag_85\n      tag_32\n      jump\t// in\n    tag_85:\n    tag_84:\n      0x20\n      mul\n      0x20\n      add\n      add\n        /* \"contracts/E00010004_8_Handler.sol\":1315:1362  paramKeys[5] = Iparser.stringToBytes32(\"EP006\") */\n      dup2\n      dup2\n      mstore\n      pop\n      pop\n        /* \"contracts/E00010004_8_Handler.sol\":1404:1408  data */\n      dup4\n        /* \"contracts/E00010004_8_Handler.sol\":1409:1410  6 */\n      0x06\n        /* \"contracts/E00010004_8_Handler.sol\":1404:1411  data[6] */\n      dup2\n      mload\n      dup2\n      lt\n      tag_86\n      jumpi\n      tag_87\n      tag_32\n      jump\t// in\n    tag_87:\n    tag_86:\n      0x20\n      mul\n      0x20\n      add\n      add\n      mload\n        /* \"contracts/E00010004_8_Handler.sol\":1396:1412  uint256(data[6]) */\n      0x00\n      shr\n        /* \"contracts/E00010004_8_Handler.sol\":1372:1383  paramValues */\n      dup2\n        /* \"contracts/E00010004_8_Handler.sol\":1384:1385  5 */\n      0x05\n        /* \"contracts/E00010004_8_Handler.sol\":1372:1386  paramValues[5] */\n      dup2\n      mload\n      dup2\n      lt\n      tag_88\n      jumpi\n      tag_89\n      tag_32\n      jump\t// in\n    tag_89:\n    tag_88:\n      0x20\n      mul\n      0x20\n      add\n      add\n        /* \"contracts/E00010004_8_Handler.sol\":1372:1415  paramValues[5] = int256(uint256(data[6])  ) */\n      dup2\n      dup2\n      mstore\n      pop\n      pop\n        /* \"contracts/E00010004_8_Handler.sol\":1440:1447  Iparser */\n      0x00\n      dup1\n      sload\n      swap1\n      0x0100\n      exp\n      swap1\n      div\n      0xffffffffffffffffffffffffffffffffffffffff\n      and\n        /* \"contracts/E00010004_8_Handler.sol\":1440:1463  Iparser.stringToBytes32 */\n      0xffffffffffffffffffffffffffffffffffffffff\n      and\n      0xcfb51928\n        /* \"contracts/E00010004_8_Handler.sol\":1440:1472  Iparser.stringToBytes32(\"EP007\") */\n      mload(0x40)\n      dup2\n      0xffffffff\n      and\n      0xe0\n      shl\n      dup2\n      mstore\n      0x04\n      add\n      tag_90\n      swap1\n      tag_91\n      jump\t// in\n    tag_90:\n      0x20\n      mload(0x40)\n      dup1\n      dup4\n      sub\n      dup2\n      dup7\n      gas\n      staticcall\n      iszero\n      dup1\n      iszero\n      tag_93\n      jumpi\n      returndatasize\n      0x00\n      dup1\n      returndatacopy\n      revert(0x00, returndatasize)\n    tag_93:\n      pop\n      pop\n      pop\n      pop\n      mload(0x40)\n      returndatasize\n      not(0x1f)\n      0x1f\n      dup3\n      add\n      and\n      dup3\n      add\n      dup1\n      0x40\n      mstore\n      pop\n      dup2\n      add\n      swap1\n      tag_94\n      swap2\n      swap1\n      tag_29\n      jump\t// in\n    tag_94:\n        /* \"contracts/E00010004_8_Handler.sol\":1425:1434  paramKeys */\n      dup3\n        /* \"contracts/E00010004_8_Handler.sol\":1435:1436  6 */\n      0x06\n        /* \"contracts/E00010004_8_Handler.sol\":1425:1437  paramKeys[6] */\n      dup2\n      mload\n      dup2\n      lt\n      tag_95\n      jumpi\n      tag_96\n      tag_32\n      jump\t// in\n    tag_96:\n    tag_95:\n      0x20\n      mul\n      0x20\n      add\n      add\n        /* \"contracts/E00010004_8_Handler.sol\":1425:1472  paramKeys[6] = Iparser.stringToBytes32(\"EP007\") */\n      dup2\n      dup2\n      mstore\n      pop\n      pop\n        /* \"contracts/E00010004_8_Handler.sol\":1514:1518  data */\n      dup4\n        /* \"contracts/E00010004_8_Handler.sol\":1519:1520  7 */\n      0x07\n        /* \"contracts/E00010004_8_Handler.sol\":1514:1521  data[7] */\n      dup2\n      mload\n      dup2\n      lt\n      tag_97\n      jumpi\n      tag_98\n      tag_32\n      jump\t// in\n    tag_98:\n    tag_97:\n      0x20\n      mul\n      0x20\n      add\n      add\n      mload\n        /* \"contracts/E00010004_8_Handler.sol\":1506:1522  uint256(data[7]) */\n      0x00\n      shr\n        /* \"contracts/E00010004_8_Handler.sol\":1482:1493  paramValues */\n      dup2\n        /* \"contracts/E00010004_8_Handler.sol\":1494:1495  6 */\n      0x06\n        /* \"contracts/E00010004_8_Handler.sol\":1482:1496  paramValues[6] */\n      dup2\n      mload\n      dup2\n      lt\n      tag_99\n      jumpi\n      tag_100\n      tag_32\n      jump\t// in\n    tag_100:\n    tag_99:\n      0x20\n      mul\n      0x20\n      add\n      add\n        /* \"contracts/E00010004_8_Handler.sol\":1482:1525  paramValues[6] = int256(uint256(data[7])  ) */\n      dup2\n      dup2\n      mstore\n      pop\n      pop\n        /* \"contracts/E00010004_8_Handler.sol\":1541:1560  transactionContract */\n      0x01\n      0x00\n      swap1\n      sload\n      swap1\n      0x0100\n      exp\n      swap1\n      div\n      0xffffffffffffffffffffffffffffffffffffffff\n      and\n        /* \"contracts/E00010004_8_Handler.sol\":1541:1584  transactionContract.addProcessedTransaction */\n      0xffffffffffffffffffffffffffffffffffffffff\n      and\n      0xed40bbd5\n        /* \"contracts/E00010004_8_Handler.sol\":1585:1589  data */\n      dup6\n        /* \"contracts/E00010004_8_Handler.sol\":1590:1591  0 */\n      0x00\n        /* \"contracts/E00010004_8_Handler.sol\":1585:1592  data[0] */\n      dup2\n      mload\n      dup2\n      lt\n      tag_101\n      jumpi\n      tag_102\n      tag_32\n      jump\t// in\n    tag_102:\n    tag_101:\n      0x20\n      mul\n      0x20\n      add\n      add\n      mload\n        /* \"contracts/E00010004_8_Handler.sol\":1594:1598  data */\n      dup7\n        /* \"contracts/E00010004_8_Handler.sol\":1599:1600  1 */\n      0x01\n        /* \"contracts/E00010004_8_Handler.sol\":1594:1601  data[1] */\n      dup2\n      mload\n      dup2\n      lt\n      tag_103\n      jumpi\n      tag_104\n      tag_32\n      jump\t// in\n    tag_104:\n    tag_103:\n      0x20\n      mul\n      0x20\n      add\n      add\n      mload\n        /* \"contracts/E00010004_8_Handler.sol\":1603:1611  recorder */\n      dup7\n        /* \"contracts/E00010004_8_Handler.sol\":1613:1622  paramKeys */\n      dup7\n        /* \"contracts/E00010004_8_Handler.sol\":1624:1635  paramValues */\n      dup7\n        /* \"contracts/E00010004_8_Handler.sol\":1541:1636  transactionContract.addProcessedTransaction(data[0], data[1], recorder, paramKeys, paramValues) */\n      mload(0x40)\n      dup7\n      0xffffffff\n      and\n      0xe0\n      shl\n      dup2\n      mstore\n      0x04\n      add\n      tag_105\n      swap6\n      swap5\n      swap4\n      swap3\n      swap2\n      swap1\n      tag_106\n      jump\t// in\n    tag_105:\n      0x00\n      mload(0x40)\n      dup1\n      dup4\n      sub\n      dup2\n      0x00\n      dup8\n      dup1\n      extcodesize\n      iszero\n      dup1\n      iszero\n      tag_107\n      jumpi\n      0x00\n      dup1\n      revert\n    tag_107:\n      pop\n      gas\n      call\n      iszero\n      dup1\n      iszero\n      tag_109\n      jumpi\n      returndatasize\n      0x00\n      dup1\n      returndatacopy\n      revert(0x00, returndatasize)\n    tag_109:\n      pop\n      pop\n      pop\n      pop\n        /* \"contracts/E00010004_8_Handler.sol\":541:1643  {... */\n      pop\n      pop\n        /* \"contracts/E00010004_8_Handler.sol\":456:1643  function processTransaction(bytes32[] memory data, address recorder) public override {... */\n      pop\n      pop\n      jump\t// out\n        /* \"#utility.yul\":7:133   */\n    tag_110:\n        /* \"#utility.yul\":44:51   */\n      0x00\n        /* \"#utility.yul\":84:126   */\n      0xffffffffffffffffffffffffffffffffffffffff\n        /* \"#utility.yul\":77:82   */\n      dup3\n        /* \"#utility.yul\":73:127   */\n      and\n        /* \"#utility.yul\":62:127   */\n      swap1\n      pop\n        /* \"#utility.yul\":7:133   */\n      swap2\n      swap1\n      pop\n      jump\t// out\n        /* \"#utility.yul\":139:199   */\n    tag_111:\n        /* \"#utility.yul\":167:170   */\n      0x00\n        /* \"#utility.yul\":188:193   */\n      dup2\n        /* \"#utility.yul\":181:193   */\n      swap1\n      pop\n        /* \"#utility.yul\":139:199   */\n      swap2\n      swap1\n      pop\n      jump\t// out\n        /* \"#utility.yul\":205:347   */\n    tag_112:\n        /* \"#utility.yul\":255:264   */\n      0x00\n        /* \"#utility.yul\":288:341   */\n      tag_172\n        /* \"#utility.yul\":306:340   */\n      tag_173\n        /* \"#utility.yul\":315:339   */\n      tag_174\n        /* \"#utility.yul\":333:338   */\n      dup5\n        /* \"#utility.yul\":315:339   */\n      tag_110\n      jump\t// in\n    tag_174:\n        /* \"#utility.yul\":306:340   */\n      tag_111\n      jump\t// in\n    tag_173:\n        /* \"#utility.yul\":288:341   */\n      tag_110\n      jump\t// in\n    tag_172:\n        /* \"#utility.yul\":275:341   */\n      swap1\n      pop\n        /* \"#utility.yul\":205:347   */\n      swap2\n      swap1\n      pop\n      jump\t// out\n        /* \"#utility.yul\":353:479   */\n    tag_113:\n        /* \"#utility.yul\":403:412   */\n      0x00\n        /* \"#utility.yul\":436:473   */\n      tag_176\n        /* \"#utility.yul\":467:472   */\n      dup3\n        /* \"#utility.yul\":436:473   */\n      tag_112\n      jump\t// in\n    tag_176:\n        /* \"#utility.yul\":423:473   */\n      swap1\n      pop\n        /* \"#utility.yul\":353:479   */\n      swap2\n      swap1\n      pop\n      jump\t// out\n        /* \"#utility.yul\":485:626   */\n    tag_114:\n        /* \"#utility.yul\":550:559   */\n      0x00\n        /* \"#utility.yul\":583:620   */\n      tag_178\n        /* \"#utility.yul\":614:619   */\n      dup3\n        /* \"#utility.yul\":583:620   */\n      tag_113\n      jump\t// in\n    tag_178:\n        /* \"#utility.yul\":570:620   */\n      swap1\n      pop\n        /* \"#utility.yul\":485:626   */\n      swap2\n      swap1\n      pop\n      jump\t// out\n        /* \"#utility.yul\":632:793   */\n    tag_115:\n        /* \"#utility.yul\":734:786   */\n      tag_180\n        /* \"#utility.yul\":780:785   */\n      dup2\n        /* \"#utility.yul\":734:786   */\n      tag_114\n      jump\t// in\n    tag_180:\n        /* \"#utility.yul\":729:732   */\n      dup3\n        /* \"#utility.yul\":722:787   */\n      mstore\n        /* \"#utility.yul\":632:793   */\n      pop\n      pop\n      jump\t// out\n        /* \"#utility.yul\":799:1051   */\n    tag_8:\n        /* \"#utility.yul\":907:911   */\n      0x00\n        /* \"#utility.yul\":945:947   */\n      0x20\n        /* \"#utility.yul\":934:943   */\n      dup3\n        /* \"#utility.yul\":930:948   */\n      add\n        /* \"#utility.yul\":922:948   */\n      swap1\n      pop\n        /* \"#utility.yul\":958:1044   */\n      tag_182\n        /* \"#utility.yul\":1041:1042   */\n      0x00\n        /* \"#utility.yul\":1030:1039   */\n      dup4\n        /* \"#utility.yul\":1026:1043   */\n      add\n        /* \"#utility.yul\":1017:1023   */\n      dup5\n        /* \"#utility.yul\":958:1044   */\n      tag_115\n      jump\t// in\n    tag_182:\n        /* \"#utility.yul\":799:1051   */\n      swap3\n      swap2\n      pop\n      pop\n      jump\t// out\n        /* \"#utility.yul\":1057:1132   */\n    tag_116:\n        /* \"#utility.yul\":1090:1096   */\n      0x00\n        /* \"#utility.yul\":1123:1125   */\n      0x40\n        /* \"#utility.yul\":1117:1126   */\n      mload\n        /* \"#utility.yul\":1107:1126   */\n      swap1\n      pop\n        /* \"#utility.yul\":1057:1132   */\n      swap1\n      jump\t// out\n        /* \"#utility.yul\":1138:1255   */\n    tag_117:\n        /* \"#utility.yul\":1247:1248   */\n      0x00\n        /* \"#utility.yul\":1244:1245   */\n      dup1\n        /* \"#utility.yul\":1237:1249   */\n      revert\n        /* \"#utility.yul\":1261:1378   */\n    tag_118:\n        /* \"#utility.yul\":1370:1371   */\n      0x00\n        /* \"#utility.yul\":1367:1368   */\n      dup1\n        /* \"#utility.yul\":1360:1372   */\n      revert\n        /* \"#utility.yul\":1384:1501   */\n    tag_119:\n        /* \"#utility.yul\":1493:1494   */\n      0x00\n        /* \"#utility.yul\":1490:1491   */\n      dup1\n        /* \"#utility.yul\":1483:1495   */\n      revert\n        /* \"#utility.yul\":1507:1609   */\n    tag_120:\n        /* \"#utility.yul\":1548:1554   */\n      0x00\n        /* \"#utility.yul\":1599:1601   */\n      0x1f\n        /* \"#utility.yul\":1595:1602   */\n      not\n        /* \"#utility.yul\":1590:1592   */\n      0x1f\n        /* \"#utility.yul\":1583:1588   */\n      dup4\n        /* \"#utility.yul\":1579:1593   */\n      add\n        /* \"#utility.yul\":1575:1603   */\n      and\n        /* \"#utility.yul\":1565:1603   */\n      swap1\n      pop\n        /* \"#utility.yul\":1507:1609   */\n      swap2\n      swap1\n      pop\n      jump\t// out\n        /* \"#utility.yul\":1615:1795   */\n    tag_19:\n        /* \"#utility.yul\":1663:1740   */\n      0x4e487b7100000000000000000000000000000000000000000000000000000000\n        /* \"#utility.yul\":1660:1661   */\n      0x00\n        /* \"#utility.yul\":1653:1741   */\n      mstore\n        /* \"#utility.yul\":1760:1764   */\n      0x41\n        /* \"#utility.yul\":1757:1758   */\n      0x04\n        /* \"#utility.yul\":1750:1765   */\n      mstore\n        /* \"#utility.yul\":1784:1788   */\n      0x24\n        /* \"#utility.yul\":1781:1782   */\n      0x00\n        /* \"#utility.yul\":1774:1789   */\n      revert\n        /* \"#utility.yul\":1801:2082   */\n    tag_121:\n        /* \"#utility.yul\":1884:1911   */\n      tag_190\n        /* \"#utility.yul\":1906:1910   */\n      dup3\n        /* \"#utility.yul\":1884:1911   */\n      tag_120\n      jump\t// in\n    tag_190:\n        /* \"#utility.yul\":1876:1882   */\n      dup2\n        /* \"#utility.yul\":1872:1912   */\n      add\n        /* \"#utility.yul\":2014:2020   */\n      dup2\n        /* \"#utility.yul\":2002:2012   */\n      dup2\n        /* \"#utility.yul\":1999:2021   */\n      lt\n        /* \"#utility.yul\":1978:1996   */\n      0xffffffffffffffff\n        /* \"#utility.yul\":1966:1976   */\n      dup3\n        /* \"#utility.yul\":1963:1997   */\n      gt\n        /* \"#utility.yul\":1960:2022   */\n      or\n        /* \"#utility.yul\":1957:2045   */\n      iszero\n      tag_191\n      jumpi\n        /* \"#utility.yul\":2025:2043   */\n      tag_192\n      tag_19\n      jump\t// in\n    tag_192:\n        /* \"#utility.yul\":1957:2045   */\n    tag_191:\n        /* \"#utility.yul\":2065:2075   */\n      dup1\n        /* \"#utility.yul\":2061:2063   */\n      0x40\n        /* \"#utility.yul\":2054:2076   */\n      mstore\n        /* \"#utility.yul\":1844:2082   */\n      pop\n        /* \"#utility.yul\":1801:2082   */\n      pop\n      pop\n      jump\t// out\n        /* \"#utility.yul\":2088:2217   */\n    tag_122:\n        /* \"#utility.yul\":2122:2128   */\n      0x00\n        /* \"#utility.yul\":2149:2169   */\n      tag_194\n      tag_116\n      jump\t// in\n    tag_194:\n        /* \"#utility.yul\":2139:2169   */\n      swap1\n      pop\n        /* \"#utility.yul\":2178:2211   */\n      tag_195\n        /* \"#utility.yul\":2206:2210   */\n      dup3\n        /* \"#utility.yul\":2198:2204   */\n      dup3\n        /* \"#utility.yul\":2178:2211   */\n      tag_121\n      jump\t// in\n    tag_195:\n        /* \"#utility.yul\":2088:2217   */\n      swap2\n      swap1\n      pop\n      jump\t// out\n        /* \"#utility.yul\":2223:2534   */\n    tag_123:\n        /* \"#utility.yul\":2300:2304   */\n      0x00\n        /* \"#utility.yul\":2390:2408   */\n      0xffffffffffffffff\n        /* \"#utility.yul\":2382:2388   */\n      dup3\n        /* \"#utility.yul\":2379:2409   */\n      gt\n        /* \"#utility.yul\":2376:2432   */\n      iszero\n      tag_197\n      jumpi\n        /* \"#utility.yul\":2412:2430   */\n      tag_198\n      tag_19\n      jump\t// in\n    tag_198:\n        /* \"#utility.yul\":2376:2432   */\n    tag_197:\n        /* \"#utility.yul\":2462:2466   */\n      0x20\n        /* \"#utility.yul\":2454:2460   */\n      dup3\n        /* \"#utility.yul\":2450:2467   */\n      mul\n        /* \"#utility.yul\":2442:2467   */\n      swap1\n      pop\n        /* \"#utility.yul\":2522:2526   */\n      0x20\n        /* \"#utility.yul\":2516:2520   */\n      dup2\n        /* \"#utility.yul\":2512:2527   */\n      add\n        /* \"#utility.yul\":2504:2527   */\n      swap1\n      pop\n        /* \"#utility.yul\":2223:2534   */\n      swap2\n      swap1\n      pop\n      jump\t// out\n        /* \"#utility.yul\":2540:2657   */\n    tag_124:\n        /* \"#utility.yul\":2649:2650   */\n      0x00\n        /* \"#utility.yul\":2646:2647   */\n      dup1\n        /* \"#utility.yul\":2639:2651   */\n      revert\n        /* \"#utility.yul\":2663:2740   */\n    tag_125:\n        /* \"#utility.yul\":2700:2707   */\n      0x00\n        /* \"#utility.yul\":2729:2734   */\n      dup2\n        /* \"#utility.yul\":2718:2734   */\n      swap1\n      pop\n        /* \"#utility.yul\":2663:2740   */\n      swap2\n      swap1\n      pop\n      jump\t// out\n        /* \"#utility.yul\":2746:2868   */\n    tag_126:\n        /* \"#utility.yul\":2819:2843   */\n      tag_202\n        /* \"#utility.yul\":2837:2842   */\n      dup2\n        /* \"#utility.yul\":2819:2843   */\n      tag_125\n      jump\t// in\n    tag_202:\n        /* \"#utility.yul\":2812:2817   */\n      dup2\n        /* \"#utility.yul\":2809:2844   */\n      eq\n        /* \"#utility.yul\":2799:2862   */\n      tag_203\n      jumpi\n        /* \"#utility.yul\":2858:2859   */\n      0x00\n        /* \"#utility.yul\":2855:2856   */\n      dup1\n        /* \"#utility.yul\":2848:2860   */\n      revert\n        /* \"#utility.yul\":2799:2862   */\n    tag_203:\n        /* \"#utility.yul\":2746:2868   */\n      pop\n      jump\t// out\n        /* \"#utility.yul\":2874:3013   */\n    tag_127:\n        /* \"#utility.yul\":2920:2925   */\n      0x00\n        /* \"#utility.yul\":2958:2964   */\n      dup2\n        /* \"#utility.yul\":2945:2965   */\n      calldataload\n        /* \"#utility.yul\":2936:2965   */\n      swap1\n      pop\n        /* \"#utility.yul\":2974:3007   */\n      tag_205\n        /* \"#utility.yul\":3001:3006   */\n      dup2\n        /* \"#utility.yul\":2974:3007   */\n      tag_126\n      jump\t// in\n    tag_205:\n        /* \"#utility.yul\":2874:3013   */\n      swap3\n      swap2\n      pop\n      pop\n      jump\t// out\n        /* \"#utility.yul\":3036:3746   */\n    tag_128:\n        /* \"#utility.yul\":3132:3137   */\n      0x00\n        /* \"#utility.yul\":3157:3238   */\n      tag_207\n        /* \"#utility.yul\":3173:3237   */\n      tag_208\n        /* \"#utility.yul\":3230:3236   */\n      dup5\n        /* \"#utility.yul\":3173:3237   */\n      tag_123\n      jump\t// in\n    tag_208:\n        /* \"#utility.yul\":3157:3238   */\n      tag_122\n      jump\t// in\n    tag_207:\n        /* \"#utility.yul\":3148:3238   */\n      swap1\n      pop\n        /* \"#utility.yul\":3258:3263   */\n      dup1\n        /* \"#utility.yul\":3287:3293   */\n      dup4\n        /* \"#utility.yul\":3280:3285   */\n      dup3\n        /* \"#utility.yul\":3273:3294   */\n      mstore\n        /* \"#utility.yul\":3321:3325   */\n      0x20\n        /* \"#utility.yul\":3314:3319   */\n      dup3\n        /* \"#utility.yul\":3310:3326   */\n      add\n        /* \"#utility.yul\":3303:3326   */\n      swap1\n      pop\n        /* \"#utility.yul\":3374:3378   */\n      0x20\n        /* \"#utility.yul\":3366:3372   */\n      dup5\n        /* \"#utility.yul\":3362:3379   */\n      mul\n        /* \"#utility.yul\":3354:3360   */\n      dup4\n        /* \"#utility.yul\":3350:3380   */\n      add\n        /* \"#utility.yul\":3403:3406   */\n      dup6\n        /* \"#utility.yul\":3395:3401   */\n      dup2\n        /* \"#utility.yul\":3392:3407   */\n      gt\n        /* \"#utility.yul\":3389:3511   */\n      iszero\n      tag_209\n      jumpi\n        /* \"#utility.yul\":3422:3501   */\n      tag_210\n      tag_124\n      jump\t// in\n    tag_210:\n        /* \"#utility.yul\":3389:3511   */\n    tag_209:\n        /* \"#utility.yul\":3537:3543   */\n      dup4\n        /* \"#utility.yul\":3520:3740   */\n    tag_211:\n        /* \"#utility.yul\":3554:3560   */\n      dup2\n        /* \"#utility.yul\":3549:3552   */\n      dup2\n        /* \"#utility.yul\":3546:3561   */\n      lt\n        /* \"#utility.yul\":3520:3740   */\n      iszero\n      tag_213\n      jumpi\n        /* \"#utility.yul\":3629:3632   */\n      dup1\n        /* \"#utility.yul\":3658:3695   */\n      tag_214\n        /* \"#utility.yul\":3691:3694   */\n      dup9\n        /* \"#utility.yul\":3679:3689   */\n      dup3\n        /* \"#utility.yul\":3658:3695   */\n      tag_127\n      jump\t// in\n    tag_214:\n        /* \"#utility.yul\":3653:3656   */\n      dup5\n        /* \"#utility.yul\":3646:3696   */\n      mstore\n        /* \"#utility.yul\":3725:3729   */\n      0x20\n        /* \"#utility.yul\":3720:3723   */\n      dup5\n        /* \"#utility.yul\":3716:3730   */\n      add\n        /* \"#utility.yul\":3709:3730   */\n      swap4\n      pop\n        /* \"#utility.yul\":3596:3740   */\n      pop\n        /* \"#utility.yul\":3580:3584   */\n      0x20\n        /* \"#utility.yul\":3575:3578   */\n      dup2\n        /* \"#utility.yul\":3571:3585   */\n      add\n        /* \"#utility.yul\":3564:3585   */\n      swap1\n      pop\n        /* \"#utility.yul\":3520:3740   */\n      jump(tag_211)\n    tag_213:\n        /* \"#utility.yul\":3524:3545   */\n      pop\n        /* \"#utility.yul\":3138:3746   */\n      pop\n      pop\n        /* \"#utility.yul\":3036:3746   */\n      swap4\n      swap3\n      pop\n      pop\n      pop\n      jump\t// out\n        /* \"#utility.yul\":3769:4139   */\n    tag_129:\n        /* \"#utility.yul\":3840:3845   */\n      0x00\n        /* \"#utility.yul\":3889:3892   */\n      dup3\n        /* \"#utility.yul\":3882:3886   */\n      0x1f\n        /* \"#utility.yul\":3874:3880   */\n      dup4\n        /* \"#utility.yul\":3870:3887   */\n      add\n        /* \"#utility.yul\":3866:3893   */\n      slt\n        /* \"#utility.yul\":3856:3978   */\n      tag_216\n      jumpi\n        /* \"#utility.yul\":3897:3976   */\n      tag_217\n      tag_119\n      jump\t// in\n    tag_217:\n        /* \"#utility.yul\":3856:3978   */\n    tag_216:\n        /* \"#utility.yul\":4014:4020   */\n      dup2\n        /* \"#utility.yul\":4001:4021   */\n      calldataload\n        /* \"#utility.yul\":4039:4133   */\n      tag_218\n        /* \"#utility.yul\":4129:4132   */\n      dup5\n        /* \"#utility.yul\":4121:4127   */\n      dup3\n        /* \"#utility.yul\":4114:4118   */\n      0x20\n        /* \"#utility.yul\":4106:4112   */\n      dup7\n        /* \"#utility.yul\":4102:4119   */\n      add\n        /* \"#utility.yul\":4039:4133   */\n      tag_128\n      jump\t// in\n    tag_218:\n        /* \"#utility.yul\":4030:4133   */\n      swap2\n      pop\n        /* \"#utility.yul\":3846:4139   */\n      pop\n        /* \"#utility.yul\":3769:4139   */\n      swap3\n      swap2\n      pop\n      pop\n      jump\t// out\n        /* \"#utility.yul\":4145:4241   */\n    tag_130:\n        /* \"#utility.yul\":4182:4189   */\n      0x00\n        /* \"#utility.yul\":4211:4235   */\n      tag_220\n        /* \"#utility.yul\":4229:4234   */\n      dup3\n        /* \"#utility.yul\":4211:4235   */\n      tag_110\n      jump\t// in\n    tag_220:\n        /* \"#utility.yul\":4200:4235   */\n      swap1\n      pop\n        /* \"#utility.yul\":4145:4241   */\n      swap2\n      swap1\n      pop\n      jump\t// out\n        /* \"#utility.yul\":4247:4369   */\n    tag_131:\n        /* \"#utility.yul\":4320:4344   */\n      tag_222\n        /* \"#utility.yul\":4338:4343   */\n      dup2\n        /* \"#utility.yul\":4320:4344   */\n      tag_130\n      jump\t// in\n    tag_222:\n        /* \"#utility.yul\":4313:4318   */\n      dup2\n        /* \"#utility.yul\":4310:4345   */\n      eq\n        /* \"#utility.yul\":4300:4363   */\n      tag_223\n      jumpi\n        /* \"#utility.yul\":4359:4360   */\n      0x00\n        /* \"#utility.yul\":4356:4357   */\n      dup1\n        /* \"#utility.yul\":4349:4361   */\n      revert\n        /* \"#utility.yul\":4300:4363   */\n    tag_223:\n        /* \"#utility.yul\":4247:4369   */\n      pop\n      jump\t// out\n        /* \"#utility.yul\":4375:4514   */\n    tag_132:\n        /* \"#utility.yul\":4421:4426   */\n      0x00\n        /* \"#utility.yul\":4459:4465   */\n      dup2\n        /* \"#utility.yul\":4446:4466   */\n      calldataload\n        /* \"#utility.yul\":4437:4466   */\n      swap1\n      pop\n        /* \"#utility.yul\":4475:4508   */\n      tag_225\n        /* \"#utility.yul\":4502:4507   */\n      dup2\n        /* \"#utility.yul\":4475:4508   */\n      tag_131\n      jump\t// in\n    tag_225:\n        /* \"#utility.yul\":4375:4514   */\n      swap3\n      swap2\n      pop\n      pop\n      jump\t// out\n        /* \"#utility.yul\":4520:5204   */\n    tag_11:\n        /* \"#utility.yul\":4613:4619   */\n      0x00\n        /* \"#utility.yul\":4621:4627   */\n      dup1\n        /* \"#utility.yul\":4670:4672   */\n      0x40\n        /* \"#utility.yul\":4658:4667   */\n      dup4\n        /* \"#utility.yul\":4649:4656   */\n      dup6\n        /* \"#utility.yul\":4645:4668   */\n      sub\n        /* \"#utility.yul\":4641:4673   */\n      slt\n        /* \"#utility.yul\":4638:4757   */\n      iszero\n      tag_227\n      jumpi\n        /* \"#utility.yul\":4676:4755   */\n      tag_228\n      tag_117\n      jump\t// in\n    tag_228:\n        /* \"#utility.yul\":4638:4757   */\n    tag_227:\n        /* \"#utility.yul\":4824:4825   */\n      0x00\n        /* \"#utility.yul\":4813:4822   */\n      dup4\n        /* \"#utility.yul\":4809:4826   */\n      add\n        /* \"#utility.yul\":4796:4827   */\n      calldataload\n        /* \"#utility.yul\":4854:4872   */\n      0xffffffffffffffff\n        /* \"#utility.yul\":4846:4852   */\n      dup2\n        /* \"#utility.yul\":4843:4873   */\n      gt\n        /* \"#utility.yul\":4840:4957   */\n      iszero\n      tag_229\n      jumpi\n        /* \"#utility.yul\":4876:4955   */\n      tag_230\n      tag_118\n      jump\t// in\n    tag_230:\n        /* \"#utility.yul\":4840:4957   */\n    tag_229:\n        /* \"#utility.yul\":4981:5059   */\n      tag_231\n        /* \"#utility.yul\":5051:5058   */\n      dup6\n        /* \"#utility.yul\":5042:5048   */\n      dup3\n        /* \"#utility.yul\":5031:5040   */\n      dup7\n        /* \"#utility.yul\":5027:5049   */\n      add\n        /* \"#utility.yul\":4981:5059   */\n      tag_129\n      jump\t// in\n    tag_231:\n        /* \"#utility.yul\":4971:5059   */\n      swap3\n      pop\n        /* \"#utility.yul\":4767:5069   */\n      pop\n        /* \"#utility.yul\":5108:5110   */\n      0x20\n        /* \"#utility.yul\":5134:5187   */\n      tag_232\n        /* \"#utility.yul\":5179:5186   */\n      dup6\n        /* \"#utility.yul\":5170:5176   */\n      dup3\n        /* \"#utility.yul\":5159:5168   */\n      dup7\n        /* \"#utility.yul\":5155:5177   */\n      add\n        /* \"#utility.yul\":5134:5187   */\n      tag_132\n      jump\t// in\n    tag_232:\n        /* \"#utility.yul\":5124:5187   */\n      swap2\n      pop\n        /* \"#utility.yul\":5079:5197   */\n      pop\n        /* \"#utility.yul\":4520:5204   */\n      swap3\n      pop\n      swap3\n      swap1\n      pop\n      jump\t// out\n        /* \"#utility.yul\":5210:5379   */\n    tag_133:\n        /* \"#utility.yul\":5294:5305   */\n      0x00\n        /* \"#utility.yul\":5328:5334   */\n      dup3\n        /* \"#utility.yul\":5323:5326   */\n      dup3\n        /* \"#utility.yul\":5316:5335   */\n      mstore\n        /* \"#utility.yul\":5368:5372   */\n      0x20\n        /* \"#utility.yul\":5363:5366   */\n      dup3\n        /* \"#utility.yul\":5359:5373   */\n      add\n        /* \"#utility.yul\":5344:5373   */\n      swap1\n      pop\n        /* \"#utility.yul\":5210:5379   */\n      swap3\n      swap2\n      pop\n      pop\n      jump\t// out\n        /* \"#utility.yul\":5385:5613   */\n    tag_134:\n        /* \"#utility.yul\":5525:5559   */\n      0x44617461206c656e67746820666f72204530303031303030315f325f335f3720\n        /* \"#utility.yul\":5521:5522   */\n      0x00\n        /* \"#utility.yul\":5513:5519   */\n      dup3\n        /* \"#utility.yul\":5509:5523   */\n      add\n        /* \"#utility.yul\":5502:5560   */\n      mstore\n        /* \"#utility.yul\":5594:5605   */\n      0x6d75737420626520370000000000000000000000000000000000000000000000\n        /* \"#utility.yul\":5589:5591   */\n      0x20\n        /* \"#utility.yul\":5581:5587   */\n      dup3\n        /* \"#utility.yul\":5577:5592   */\n      add\n        /* \"#utility.yul\":5570:5606   */\n      mstore\n        /* \"#utility.yul\":5385:5613   */\n      pop\n      jump\t// out\n        /* \"#utility.yul\":5619:5985   */\n    tag_135:\n        /* \"#utility.yul\":5761:5764   */\n      0x00\n        /* \"#utility.yul\":5782:5849   */\n      tag_236\n        /* \"#utility.yul\":5846:5848   */\n      0x29\n        /* \"#utility.yul\":5841:5844   */\n      dup4\n        /* \"#utility.yul\":5782:5849   */\n      tag_133\n      jump\t// in\n    tag_236:\n        /* \"#utility.yul\":5775:5849   */\n      swap2\n      pop\n        /* \"#utility.yul\":5858:5951   */\n      tag_237\n        /* \"#utility.yul\":5947:5950   */\n      dup3\n        /* \"#utility.yul\":5858:5951   */\n      tag_134\n      jump\t// in\n    tag_237:\n        /* \"#utility.yul\":5976:5978   */\n      0x40\n        /* \"#utility.yul\":5971:5974   */\n      dup3\n        /* \"#utility.yul\":5967:5979   */\n      add\n        /* \"#utility.yul\":5960:5979   */\n      swap1\n      pop\n        /* \"#utility.yul\":5619:5985   */\n      swap2\n      swap1\n      pop\n      jump\t// out\n        /* \"#utility.yul\":5991:6410   */\n    tag_16:\n        /* \"#utility.yul\":6157:6161   */\n      0x00\n        /* \"#utility.yul\":6195:6197   */\n      0x20\n        /* \"#utility.yul\":6184:6193   */\n      dup3\n        /* \"#utility.yul\":6180:6198   */\n      add\n        /* \"#utility.yul\":6172:6198   */\n      swap1\n      pop\n        /* \"#utility.yul\":6244:6253   */\n      dup2\n        /* \"#utility.yul\":6238:6242   */\n      dup2\n        /* \"#utility.yul\":6234:6254   */\n      sub\n        /* \"#utility.yul\":6230:6231   */\n      0x00\n        /* \"#utility.yul\":6219:6228   */\n      dup4\n        /* \"#utility.yul\":6215:6232   */\n      add\n        /* \"#utility.yul\":6208:6255   */\n      mstore\n        /* \"#utility.yul\":6272:6403   */\n      tag_239\n        /* \"#utility.yul\":6398:6402   */\n      dup2\n        /* \"#utility.yul\":6272:6403   */\n      tag_135\n      jump\t// in\n    tag_239:\n        /* \"#utility.yul\":6264:6403   */\n      swap1\n      pop\n        /* \"#utility.yul\":5991:6410   */\n      swap2\n      swap1\n      pop\n      jump\t// out\n        /* \"#utility.yul\":6416:6571   */\n    tag_136:\n        /* \"#utility.yul\":6556:6563   */\n      0x4550303031000000000000000000000000000000000000000000000000000000\n        /* \"#utility.yul\":6552:6553   */\n      0x00\n        /* \"#utility.yul\":6544:6550   */\n      dup3\n        /* \"#utility.yul\":6540:6554   */\n      add\n        /* \"#utility.yul\":6533:6564   */\n      mstore\n        /* \"#utility.yul\":6416:6571   */\n      pop\n      jump\t// out\n        /* \"#utility.yul\":6577:6942   */\n    tag_137:\n        /* \"#utility.yul\":6719:6722   */\n      0x00\n        /* \"#utility.yul\":6740:6806   */\n      tag_242\n        /* \"#utility.yul\":6804:6805   */\n      0x05\n        /* \"#utility.yul\":6799:6802   */\n      dup4\n        /* \"#utility.yul\":6740:6806   */\n      tag_133\n      jump\t// in\n    tag_242:\n        /* \"#utility.yul\":6733:6806   */\n      swap2\n      pop\n        /* \"#utility.yul\":6815:6908   */\n      tag_243\n        /* \"#utility.yul\":6904:6907   */\n      dup3\n        /* \"#utility.yul\":6815:6908   */\n      tag_136\n      jump\t// in\n    tag_243:\n        /* \"#utility.yul\":6933:6935   */\n      0x20\n        /* \"#utility.yul\":6928:6931   */\n      dup3\n        /* \"#utility.yul\":6924:6936   */\n      add\n        /* \"#utility.yul\":6917:6936   */\n      swap1\n      pop\n        /* \"#utility.yul\":6577:6942   */\n      swap2\n      swap1\n      pop\n      jump\t// out\n        /* \"#utility.yul\":6948:7367   */\n    tag_25:\n        /* \"#utility.yul\":7114:7118   */\n      0x00\n        /* \"#utility.yul\":7152:7154   */\n      0x20\n        /* \"#utility.yul\":7141:7150   */\n      dup3\n        /* \"#utility.yul\":7137:7155   */\n      add\n        /* \"#utility.yul\":7129:7155   */\n      swap1\n      pop\n        /* \"#utility.yul\":7201:7210   */\n      dup2\n        /* \"#utility.yul\":7195:7199   */\n      dup2\n        /* \"#utility.yul\":7191:7211   */\n      sub\n        /* \"#utility.yul\":7187:7188   */\n      0x00\n        /* \"#utility.yul\":7176:7185   */\n      dup4\n        /* \"#utility.yul\":7172:7189   */\n      add\n        /* \"#utility.yul\":7165:7212   */\n      mstore\n        /* \"#utility.yul\":7229:7360   */\n      tag_245\n        /* \"#utility.yul\":7355:7359   */\n      dup2\n        /* \"#utility.yul\":7229:7360   */\n      tag_137\n      jump\t// in\n    tag_245:\n        /* \"#utility.yul\":7221:7360   */\n      swap1\n      pop\n        /* \"#utility.yul\":6948:7367   */\n      swap2\n      swap1\n      pop\n      jump\t// out\n        /* \"#utility.yul\":7373:7516   */\n    tag_138:\n        /* \"#utility.yul\":7430:7435   */\n      0x00\n        /* \"#utility.yul\":7461:7467   */\n      dup2\n        /* \"#utility.yul\":7455:7468   */\n      mload\n        /* \"#utility.yul\":7446:7468   */\n      swap1\n      pop\n        /* \"#utility.yul\":7477:7510   */\n      tag_247\n        /* \"#utility.yul\":7504:7509   */\n      dup2\n        /* \"#utility.yul\":7477:7510   */\n      tag_126\n      jump\t// in\n    tag_247:\n        /* \"#utility.yul\":7373:7516   */\n      swap3\n      swap2\n      pop\n      pop\n      jump\t// out\n        /* \"#utility.yul\":7522:7873   */\n    tag_29:\n        /* \"#utility.yul\":7592:7598   */\n      0x00\n        /* \"#utility.yul\":7641:7643   */\n      0x20\n        /* \"#utility.yul\":7629:7638   */\n      dup3\n        /* \"#utility.yul\":7620:7627   */\n      dup5\n        /* \"#utility.yul\":7616:7639   */\n      sub\n        /* \"#utility.yul\":7612:7644   */\n      slt\n        /* \"#utility.yul\":7609:7728   */\n      iszero\n      tag_249\n      jumpi\n        /* \"#utility.yul\":7647:7726   */\n      tag_250\n      tag_117\n      jump\t// in\n    tag_250:\n        /* \"#utility.yul\":7609:7728   */\n    tag_249:\n        /* \"#utility.yul\":7767:7768   */\n      0x00\n        /* \"#utility.yul\":7792:7856   */\n      tag_251\n        /* \"#utility.yul\":7848:7855   */\n      dup5\n        /* \"#utility.yul\":7839:7845   */\n      dup3\n        /* \"#utility.yul\":7828:7837   */\n      dup6\n        /* \"#utility.yul\":7824:7846   */\n      add\n        /* \"#utility.yul\":7792:7856   */\n      tag_138\n      jump\t// in\n    tag_251:\n        /* \"#utility.yul\":7782:7856   */\n      swap2\n      pop\n        /* \"#utility.yul\":7738:7866   */\n      pop\n        /* \"#utility.yul\":7522:7873   */\n      swap3\n      swap2\n      pop\n      pop\n      jump\t// out\n        /* \"#utility.yul\":7879:8059   */\n    tag_32:\n        /* \"#utility.yul\":7927:8004   */\n      0x4e487b7100000000000000000000000000000000000000000000000000000000\n        /* \"#utility.yul\":7924:7925   */\n      0x00\n        /* \"#utility.yul\":7917:8005   */\n      mstore\n        /* \"#utility.yul\":8024:8028   */\n      0x32\n        /* \"#utility.yul\":8021:8022   */\n      0x04\n        /* \"#utility.yul\":8014:8029   */\n      mstore\n        /* \"#utility.yul\":8048:8052   */\n      0x24\n        /* \"#utility.yul\":8045:8046   */\n      0x00\n        /* \"#utility.yul\":8038:8053   */\n      revert\n        /* \"#utility.yul\":8065:8220   */\n    tag_139:\n        /* \"#utility.yul\":8205:8212   */\n      0x4550303032000000000000000000000000000000000000000000000000000000\n        /* \"#utility.yul\":8201:8202   */\n      0x00\n        /* \"#utility.yul\":8193:8199   */\n      dup3\n        /* \"#utility.yul\":8189:8203   */\n      add\n        /* \"#utility.yul\":8182:8213   */\n      mstore\n        /* \"#utility.yul\":8065:8220   */\n      pop\n      jump\t// out\n        /* \"#utility.yul\":8226:8591   */\n    tag_140:\n        /* \"#utility.yul\":8368:8371   */\n      0x00\n        /* \"#utility.yul\":8389:8455   */\n      tag_255\n        /* \"#utility.yul\":8453:8454   */\n      0x05\n        /* \"#utility.yul\":8448:8451   */\n      dup4\n        /* \"#utility.yul\":8389:8455   */\n      tag_133\n      jump\t// in\n    tag_255:\n        /* \"#utility.yul\":8382:8455   */\n      swap2\n      pop\n        /* \"#utility.yul\":8464:8557   */\n      tag_256\n        /* \"#utility.yul\":8553:8556   */\n      dup3\n        /* \"#utility.yul\":8464:8557   */\n      tag_139\n      jump\t// in\n    tag_256:\n        /* \"#utility.yul\":8582:8584   */\n      0x20\n        /* \"#utility.yul\":8577:8580   */\n      dup3\n        /* \"#utility.yul\":8573:8585   */\n      add\n        /* \"#utility.yul\":8566:8585   */\n      swap1\n      pop\n        /* \"#utility.yul\":8226:8591   */\n      swap2\n      swap1\n      pop\n      jump\t// out\n        /* \"#utility.yul\":8597:9016   */\n    tag_38:\n        /* \"#utility.yul\":8763:8767   */\n      0x00\n        /* \"#utility.yul\":8801:8803   */\n      0x20\n        /* \"#utility.yul\":8790:8799   */\n      dup3\n        /* \"#utility.yul\":8786:8804   */\n      add\n        /* \"#utility.yul\":8778:8804   */\n      swap1\n      pop\n        /* \"#utility.yul\":8850:8859   */\n      dup2\n        /* \"#utility.yul\":8844:8848   */\n      dup2\n        /* \"#utility.yul\":8840:8860   */\n      sub\n        /* \"#utility.yul\":8836:8837   */\n      0x00\n        /* \"#utility.yul\":8825:8834   */\n      dup4\n        /* \"#utility.yul\":8821:8838   */\n      add\n        /* \"#utility.yul\":8814:8861   */\n      mstore\n        /* \"#utility.yul\":8878:9009   */\n      tag_258\n        /* \"#utility.yul\":9004:9008   */\n      dup2\n        /* \"#utility.yul\":8878:9009   */\n      tag_140\n      jump\t// in\n    tag_258:\n        /* \"#utility.yul\":8870:9009   */\n      swap1\n      pop\n        /* \"#utility.yul\":8597:9016   */\n      swap2\n      swap1\n      pop\n      jump\t// out\n        /* \"#utility.yul\":9022:9177   */\n    tag_141:\n        /* \"#utility.yul\":9162:9169   */\n      0x4550303033000000000000000000000000000000000000000000000000000000\n        /* \"#utility.yul\":9158:9159   */\n      0x00\n        /* \"#utility.yul\":9150:9156   */\n      dup3\n        /* \"#utility.yul\":9146:9160   */\n      add\n        /* \"#utility.yul\":9139:9170   */\n      mstore\n        /* \"#utility.yul\":9022:9177   */\n      pop\n      jump\t// out\n        /* \"#utility.yul\":9183:9548   */\n    tag_142:\n        /* \"#utility.yul\":9325:9328   */\n      0x00\n        /* \"#utility.yul\":9346:9412   */\n      tag_261\n        /* \"#utility.yul\":9410:9411   */\n      0x05\n        /* \"#utility.yul\":9405:9408   */\n      dup4\n        /* \"#utility.yul\":9346:9412   */\n      tag_133\n      jump\t// in\n    tag_261:\n        /* \"#utility.yul\":9339:9412   */\n      swap2\n      pop\n        /* \"#utility.yul\":9421:9514   */\n      tag_262\n        /* \"#utility.yul\":9510:9513   */\n      dup3\n        /* \"#utility.yul\":9421:9514   */\n      tag_141\n      jump\t// in\n    tag_262:\n        /* \"#utility.yul\":9539:9541   */\n      0x20\n        /* \"#utility.yul\":9534:9537   */\n      dup3\n        /* \"#utility.yul\":9530:9542   */\n      add\n        /* \"#utility.yul\":9523:9542   */\n      swap1\n      pop\n        /* \"#utility.yul\":9183:9548   */\n      swap2\n      swap1\n      pop\n      jump\t// out\n        /* \"#utility.yul\":9554:9973   */\n    tag_49:\n        /* \"#utility.yul\":9720:9724   */\n      0x00\n        /* \"#utility.yul\":9758:9760   */\n      0x20\n        /* \"#utility.yul\":9747:9756   */\n      dup3\n        /* \"#utility.yul\":9743:9761   */\n      add\n        /* \"#utility.yul\":9735:9761   */\n      swap1\n      pop\n        /* \"#utility.yul\":9807:9816   */\n      dup2\n        /* \"#utility.yul\":9801:9805   */\n      dup2\n        /* \"#utility.yul\":9797:9817   */\n      sub\n        /* \"#utility.yul\":9793:9794   */\n      0x00\n        /* \"#utility.yul\":9782:9791   */\n      dup4\n        /* \"#utility.yul\":9778:9795   */\n      add\n        /* \"#utility.yul\":9771:9818   */\n      mstore\n        /* \"#utility.yul\":9835:9966   */\n      tag_264\n        /* \"#utility.yul\":9961:9965   */\n      dup2\n        /* \"#utility.yul\":9835:9966   */\n      tag_142\n      jump\t// in\n    tag_264:\n        /* \"#utility.yul\":9827:9966   */\n      swap1\n      pop\n        /* \"#utility.yul\":9554:9973   */\n      swap2\n      swap1\n      pop\n      jump\t// out\n        /* \"#utility.yul\":9979:10134   */\n    tag_143:\n        /* \"#utility.yul\":10119:10126   */\n      0x4550303034000000000000000000000000000000000000000000000000000000\n        /* \"#utility.yul\":10115:10116   */\n      0x00\n        /* \"#utility.yul\":10107:10113   */\n      dup3\n        /* \"#utility.yul\":10103:10117   */\n      add\n        /* \"#utility.yul\":10096:10127   */\n      mstore\n        /* \"#utility.yul\":9979:10134   */\n      pop\n      jump\t// out\n        /* \"#utility.yul\":10140:10505   */\n    tag_144:\n        /* \"#utility.yul\":10282:10285   */\n      0x00\n        /* \"#utility.yul\":10303:10369   */\n      tag_267\n        /* \"#utility.yul\":10367:10368   */\n      0x05\n        /* \"#utility.yul\":10362:10365   */\n      dup4\n        /* \"#utility.yul\":10303:10369   */\n      tag_133\n      jump\t// in\n    tag_267:\n        /* \"#utility.yul\":10296:10369   */\n      swap2\n      pop\n        /* \"#utility.yul\":10378:10471   */\n      tag_268\n        /* \"#utility.yul\":10467:10470   */\n      dup3\n        /* \"#utility.yul\":10378:10471   */\n      tag_143\n      jump\t// in\n    tag_268:\n        /* \"#utility.yul\":10496:10498   */\n      0x20\n        /* \"#utility.yul\":10491:10494   */\n      dup3\n        /* \"#utility.yul\":10487:10499   */\n      add\n        /* \"#utility.yul\":10480:10499   */\n      swap1\n      pop\n        /* \"#utility.yul\":10140:10505   */\n      swap2\n      swap1\n      pop\n      jump\t// out\n        /* \"#utility.yul\":10511:10930   */\n    tag_60:\n        /* \"#utility.yul\":10677:10681   */\n      0x00\n        /* \"#utility.yul\":10715:10717   */\n      0x20\n        /* \"#utility.yul\":10704:10713   */\n      dup3\n        /* \"#utility.yul\":10700:10718   */\n      add\n        /* \"#utility.yul\":10692:10718   */\n      swap1\n      pop\n        /* \"#utility.yul\":10764:10773   */\n      dup2\n        /* \"#utility.yul\":10758:10762   */\n      dup2\n        /* \"#utility.yul\":10754:10774   */\n      sub\n        /* \"#utility.yul\":10750:10751   */\n      0x00\n        /* \"#utility.yul\":10739:10748   */\n      dup4\n        /* \"#utility.yul\":10735:10752   */\n      add\n        /* \"#utility.yul\":10728:10775   */\n      mstore\n        /* \"#utility.yul\":10792:10923   */\n      tag_270\n        /* \"#utility.yul\":10918:10922   */\n      dup2\n        /* \"#utility.yul\":10792:10923   */\n      tag_144\n      jump\t// in\n    tag_270:\n        /* \"#utility.yul\":10784:10923   */\n      swap1\n      pop\n        /* \"#utility.yul\":10511:10930   */\n      swap2\n      swap1\n      pop\n      jump\t// out\n        /* \"#utility.yul\":10936:11096   */\n    tag_145:\n        /* \"#utility.yul\":11076:11088   */\n      0x7472616e735f74696d6500000000000000000000000000000000000000000000\n        /* \"#utility.yul\":11072:11073   */\n      0x00\n        /* \"#utility.yul\":11064:11070   */\n      dup3\n        /* \"#utility.yul\":11060:11074   */\n      add\n        /* \"#utility.yul\":11053:11089   */\n      mstore\n        /* \"#utility.yul\":10936:11096   */\n      pop\n      jump\t// out\n        /* \"#utility.yul\":11102:11468   */\n    tag_146:\n        /* \"#utility.yul\":11244:11247   */\n      0x00\n        /* \"#utility.yul\":11265:11332   */\n      tag_273\n        /* \"#utility.yul\":11329:11331   */\n      0x0a\n        /* \"#utility.yul\":11324:11327   */\n      dup4\n        /* \"#utility.yul\":11265:11332   */\n      tag_133\n      jump\t// in\n    tag_273:\n        /* \"#utility.yul\":11258:11332   */\n      swap2\n      pop\n        /* \"#utility.yul\":11341:11434   */\n      tag_274\n        /* \"#utility.yul\":11430:11433   */\n      dup3\n        /* \"#utility.yul\":11341:11434   */\n      tag_145\n      jump\t// in\n    tag_274:\n        /* \"#utility.yul\":11459:11461   */\n      0x20\n        /* \"#utility.yul\":11454:11457   */\n      dup3\n        /* \"#utility.yul\":11450:11462   */\n      add\n        /* \"#utility.yul\":11443:11462   */\n      swap1\n      pop\n        /* \"#utility.yul\":11102:11468   */\n      swap2\n      swap1\n      pop\n      jump\t// out\n        /* \"#utility.yul\":11474:11893   */\n    tag_71:\n        /* \"#utility.yul\":11640:11644   */\n      0x00\n        /* \"#utility.yul\":11678:11680   */\n      0x20\n        /* \"#utility.yul\":11667:11676   */\n      dup3\n        /* \"#utility.yul\":11663:11681   */\n      add\n        /* \"#utility.yul\":11655:11681   */\n      swap1\n      pop\n        /* \"#utility.yul\":11727:11736   */\n      dup2\n        /* \"#utility.yul\":11721:11725   */\n      dup2\n        /* \"#utility.yul\":11717:11737   */\n      sub\n        /* \"#utility.yul\":11713:11714   */\n      0x00\n        /* \"#utility.yul\":11702:11711   */\n      dup4\n        /* \"#utility.yul\":11698:11715   */\n      add\n        /* \"#utility.yul\":11691:11738   */\n      mstore\n        /* \"#utility.yul\":11755:11886   */\n      tag_276\n        /* \"#utility.yul\":11881:11885   */\n      dup2\n        /* \"#utility.yul\":11755:11886   */\n      tag_146\n      jump\t// in\n    tag_276:\n        /* \"#utility.yul\":11747:11886   */\n      swap1\n      pop\n        /* \"#utility.yul\":11474:11893   */\n      swap2\n      swap1\n      pop\n      jump\t// out\n        /* \"#utility.yul\":11899:12054   */\n    tag_147:\n        /* \"#utility.yul\":12039:12046   */\n      0x4550303036000000000000000000000000000000000000000000000000000000\n        /* \"#utility.yul\":12035:12036   */\n      0x00\n        /* \"#utility.yul\":12027:12033   */\n      dup3\n        /* \"#utility.yul\":12023:12037   */\n      add\n        /* \"#utility.yul\":12016:12047   */\n      mstore\n        /* \"#utility.yul\":11899:12054   */\n      pop\n      jump\t// out\n        /* \"#utility.yul\":12060:12425   */\n    tag_148:\n        /* \"#utility.yul\":12202:12205   */\n      0x00\n        /* \"#utility.yul\":12223:12289   */\n      tag_279\n        /* \"#utility.yul\":12287:12288   */\n      0x05\n        /* \"#utility.yul\":12282:12285   */\n      dup4\n        /* \"#utility.yul\":12223:12289   */\n      tag_133\n      jump\t// in\n    tag_279:\n        /* \"#utility.yul\":12216:12289   */\n      swap2\n      pop\n        /* \"#utility.yul\":12298:12391   */\n      tag_280\n        /* \"#utility.yul\":12387:12390   */\n      dup3\n        /* \"#utility.yul\":12298:12391   */\n      tag_147\n      jump\t// in\n    tag_280:\n        /* \"#utility.yul\":12416:12418   */\n      0x20\n        /* \"#utility.yul\":12411:12414   */\n      dup3\n        /* \"#utility.yul\":12407:12419   */\n      add\n        /* \"#utility.yul\":12400:12419   */\n      swap1\n      pop\n        /* \"#utility.yul\":12060:12425   */\n      swap2\n      swap1\n      pop\n      jump\t// out\n        /* \"#utility.yul\":12431:12850   */\n    tag_80:\n        /* \"#utility.yul\":12597:12601   */\n      0x00\n        /* \"#utility.yul\":12635:12637   */\n      0x20\n        /* \"#utility.yul\":12624:12633   */\n      dup3\n        /* \"#utility.yul\":12620:12638   */\n      add\n        /* \"#utility.yul\":12612:12638   */\n      swap1\n      pop\n        /* \"#utility.yul\":12684:12693   */\n      dup2\n        /* \"#utility.yul\":12678:12682   */\n      dup2\n        /* \"#utility.yul\":12674:12694   */\n      sub\n        /* \"#utility.yul\":12670:12671   */\n      0x00\n        /* \"#utility.yul\":12659:12668   */\n      dup4\n        /* \"#utility.yul\":12655:12672   */\n      add\n        /* \"#utility.yul\":12648:12695   */\n      mstore\n        /* \"#utility.yul\":12712:12843   */\n      tag_282\n        /* \"#utility.yul\":12838:12842   */\n      dup2\n        /* \"#utility.yul\":12712:12843   */\n      tag_148\n      jump\t// in\n    tag_282:\n        /* \"#utility.yul\":12704:12843   */\n      swap1\n      pop\n        /* \"#utility.yul\":12431:12850   */\n      swap2\n      swap1\n      pop\n      jump\t// out\n        /* \"#utility.yul\":12856:13011   */\n    tag_149:\n        /* \"#utility.yul\":12996:13003   */\n      0x4550303037000000000000000000000000000000000000000000000000000000\n        /* \"#utility.yul\":12992:12993   */\n      0x00\n        /* \"#utility.yul\":12984:12990   */\n      dup3\n        /* \"#utility.yul\":12980:12994   */\n      add\n        /* \"#utility.yul\":12973:13004   */\n      mstore\n        /* \"#utility.yul\":12856:13011   */\n      pop\n      jump\t// out\n        /* \"#utility.yul\":13017:13382   */\n    tag_150:\n        /* \"#utility.yul\":13159:13162   */\n      0x00\n        /* \"#utility.yul\":13180:13246   */\n      tag_285\n        /* \"#utility.yul\":13244:13245   */\n      0x05\n        /* \"#utility.yul\":13239:13242   */\n      dup4\n        /* \"#utility.yul\":13180:13246   */\n      tag_133\n      jump\t// in\n    tag_285:\n        /* \"#utility.yul\":13173:13246   */\n      swap2\n      pop\n        /* \"#utility.yul\":13255:13348   */\n      tag_286\n        /* \"#utility.yul\":13344:13347   */\n      dup3\n        /* \"#utility.yul\":13255:13348   */\n      tag_149\n      jump\t// in\n    tag_286:\n        /* \"#utility.yul\":13373:13375   */\n      0x20\n        /* \"#utility.yul\":13368:13371   */\n      dup3\n        /* \"#utility.yul\":13364:13376   */\n      add\n        /* \"#utility.yul\":13357:13376   */\n      swap1\n      pop\n        /* \"#utility.yul\":13017:13382   */\n      swap2\n      swap1\n      pop\n      jump\t// out\n        /* \"#utility.yul\":13388:13807   */\n    tag_91:\n        /* \"#utility.yul\":13554:13558   */\n      0x00\n        /* \"#utility.yul\":13592:13594   */\n      0x20\n        /* \"#utility.yul\":13581:13590   */\n      dup3\n        /* \"#utility.yul\":13577:13595   */\n      add\n        /* \"#utility.yul\":13569:13595   */\n      swap1\n      pop\n        /* \"#utility.yul\":13641:13650   */\n      dup2\n        /* \"#utility.yul\":13635:13639   */\n      dup2\n        /* \"#utility.yul\":13631:13651   */\n      sub\n        /* \"#utility.yul\":13627:13628   */\n      0x00\n        /* \"#utility.yul\":13616:13625   */\n      dup4\n        /* \"#utility.yul\":13612:13629   */\n      add\n        /* \"#utility.yul\":13605:13652   */\n      mstore\n        /* \"#utility.yul\":13669:13800   */\n      tag_288\n        /* \"#utility.yul\":13795:13799   */\n      dup2\n        /* \"#utility.yul\":13669:13800   */\n      tag_150\n      jump\t// in\n    tag_288:\n        /* \"#utility.yul\":13661:13800   */\n      swap1\n      pop\n        /* \"#utility.yul\":13388:13807   */\n      swap2\n      swap1\n      pop\n      jump\t// out\n        /* \"#utility.yul\":13813:13931   */\n    tag_151:\n        /* \"#utility.yul\":13900:13924   */\n      tag_290\n        /* \"#utility.yul\":13918:13923   */\n      dup2\n        /* \"#utility.yul\":13900:13924   */\n      tag_125\n      jump\t// in\n    tag_290:\n        /* \"#utility.yul\":13895:13898   */\n      dup3\n        /* \"#utility.yul\":13888:13925   */\n      mstore\n        /* \"#utility.yul\":13813:13931   */\n      pop\n      pop\n      jump\t// out\n        /* \"#utility.yul\":13937:14055   */\n    tag_152:\n        /* \"#utility.yul\":14024:14048   */\n      tag_292\n        /* \"#utility.yul\":14042:14047   */\n      dup2\n        /* \"#utility.yul\":14024:14048   */\n      tag_130\n      jump\t// in\n    tag_292:\n        /* \"#utility.yul\":14019:14022   */\n      dup3\n        /* \"#utility.yul\":14012:14049   */\n      mstore\n        /* \"#utility.yul\":13937:14055   */\n      pop\n      pop\n      jump\t// out\n        /* \"#utility.yul\":14061:14175   */\n    tag_153:\n        /* \"#utility.yul\":14128:14134   */\n      0x00\n        /* \"#utility.yul\":14162:14167   */\n      dup2\n        /* \"#utility.yul\":14156:14168   */\n      mload\n        /* \"#utility.yul\":14146:14168   */\n      swap1\n      pop\n        /* \"#utility.yul\":14061:14175   */\n      swap2\n      swap1\n      pop\n      jump\t// out\n        /* \"#utility.yul\":14181:14365   */\n    tag_154:\n        /* \"#utility.yul\":14280:14291   */\n      0x00\n        /* \"#utility.yul\":14314:14320   */\n      dup3\n        /* \"#utility.yul\":14309:14312   */\n      dup3\n        /* \"#utility.yul\":14302:14321   */\n      mstore\n        /* \"#utility.yul\":14354:14358   */\n      0x20\n        /* \"#utility.yul\":14349:14352   */\n      dup3\n        /* \"#utility.yul\":14345:14359   */\n      add\n        /* \"#utility.yul\":14330:14359   */\n      swap1\n      pop\n        /* \"#utility.yul\":14181:14365   */\n      swap3\n      swap2\n      pop\n      pop\n      jump\t// out\n        /* \"#utility.yul\":14371:14503   */\n    tag_155:\n        /* \"#utility.yul\":14438:14442   */\n      0x00\n        /* \"#utility.yul\":14461:14464   */\n      dup2\n        /* \"#utility.yul\":14453:14464   */\n      swap1\n      pop\n        /* \"#utility.yul\":14491:14495   */\n      0x20\n        /* \"#utility.yul\":14486:14489   */\n      dup3\n        /* \"#utility.yul\":14482:14496   */\n      add\n        /* \"#utility.yul\":14474:14496   */\n      swap1\n      pop\n        /* \"#utility.yul\":14371:14503   */\n      swap2\n      swap1\n      pop\n      jump\t// out\n        /* \"#utility.yul\":14509:14617   */\n    tag_156:\n        /* \"#utility.yul\":14586:14610   */\n      tag_297\n        /* \"#utility.yul\":14604:14609   */\n      dup2\n        /* \"#utility.yul\":14586:14610   */\n      tag_125\n      jump\t// in\n    tag_297:\n        /* \"#utility.yul\":14581:14584   */\n      dup3\n        /* \"#utility.yul\":14574:14611   */\n      mstore\n        /* \"#utility.yul\":14509:14617   */\n      pop\n      pop\n      jump\t// out\n        /* \"#utility.yul\":14623:14802   */\n    tag_157:\n        /* \"#utility.yul\":14692:14702   */\n      0x00\n        /* \"#utility.yul\":14713:14759   */\n      tag_299\n        /* \"#utility.yul\":14755:14758   */\n      dup4\n        /* \"#utility.yul\":14747:14753   */\n      dup4\n        /* \"#utility.yul\":14713:14759   */\n      tag_156\n      jump\t// in\n    tag_299:\n        /* \"#utility.yul\":14791:14795   */\n      0x20\n        /* \"#utility.yul\":14786:14789   */\n      dup4\n        /* \"#utility.yul\":14782:14796   */\n      add\n        /* \"#utility.yul\":14768:14796   */\n      swap1\n      pop\n        /* \"#utility.yul\":14623:14802   */\n      swap3\n      swap2\n      pop\n      pop\n      jump\t// out\n        /* \"#utility.yul\":14808:14921   */\n    tag_158:\n        /* \"#utility.yul\":14878:14882   */\n      0x00\n        /* \"#utility.yul\":14910:14914   */\n      0x20\n        /* \"#utility.yul\":14905:14908   */\n      dup3\n        /* \"#utility.yul\":14901:14915   */\n      add\n        /* \"#utility.yul\":14893:14915   */\n      swap1\n      pop\n        /* \"#utility.yul\":14808:14921   */\n      swap2\n      swap1\n      pop\n      jump\t// out\n        /* \"#utility.yul\":14957:15689   */\n    tag_159:\n        /* \"#utility.yul\":15076:15079   */\n      0x00\n        /* \"#utility.yul\":15105:15159   */\n      tag_302\n        /* \"#utility.yul\":15153:15158   */\n      dup3\n        /* \"#utility.yul\":15105:15159   */\n      tag_153\n      jump\t// in\n    tag_302:\n        /* \"#utility.yul\":15175:15261   */\n      tag_303\n        /* \"#utility.yul\":15254:15260   */\n      dup2\n        /* \"#utility.yul\":15249:15252   */\n      dup6\n        /* \"#utility.yul\":15175:15261   */\n      tag_154\n      jump\t// in\n    tag_303:\n        /* \"#utility.yul\":15168:15261   */\n      swap4\n      pop\n        /* \"#utility.yul\":15285:15341   */\n      tag_304\n        /* \"#utility.yul\":15335:15340   */\n      dup4\n        /* \"#utility.yul\":15285:15341   */\n      tag_155\n      jump\t// in\n    tag_304:\n        /* \"#utility.yul\":15364:15371   */\n      dup1\n        /* \"#utility.yul\":15395:15396   */\n      0x00\n        /* \"#utility.yul\":15380:15664   */\n    tag_305:\n        /* \"#utility.yul\":15405:15411   */\n      dup4\n        /* \"#utility.yul\":15402:15403   */\n      dup2\n        /* \"#utility.yul\":15399:15412   */\n      lt\n        /* \"#utility.yul\":15380:15664   */\n      iszero\n      tag_307\n      jumpi\n        /* \"#utility.yul\":15481:15487   */\n      dup2\n        /* \"#utility.yul\":15475:15488   */\n      mload\n        /* \"#utility.yul\":15508:15571   */\n      tag_308\n        /* \"#utility.yul\":15567:15570   */\n      dup9\n        /* \"#utility.yul\":15552:15565   */\n      dup3\n        /* \"#utility.yul\":15508:15571   */\n      tag_157\n      jump\t// in\n    tag_308:\n        /* \"#utility.yul\":15501:15571   */\n      swap8\n      pop\n        /* \"#utility.yul\":15594:15654   */\n      tag_309\n        /* \"#utility.yul\":15647:15653   */\n      dup4\n        /* \"#utility.yul\":15594:15654   */\n      tag_158\n      jump\t// in\n    tag_309:\n        /* \"#utility.yul\":15584:15654   */\n      swap3\n      pop\n        /* \"#utility.yul\":15440:15664   */\n      pop\n        /* \"#utility.yul\":15427:15428   */\n      0x01\n        /* \"#utility.yul\":15424:15425   */\n      dup2\n        /* \"#utility.yul\":15420:15429   */\n      add\n        /* \"#utility.yul\":15415:15429   */\n      swap1\n      pop\n        /* \"#utility.yul\":15380:15664   */\n      jump(tag_305)\n    tag_307:\n        /* \"#utility.yul\":15384:15398   */\n      pop\n        /* \"#utility.yul\":15680:15683   */\n      dup6\n        /* \"#utility.yul\":15673:15683   */\n      swap4\n      pop\n        /* \"#utility.yul\":15081:15689   */\n      pop\n      pop\n      pop\n        /* \"#utility.yul\":14957:15689   */\n      swap3\n      swap2\n      pop\n      pop\n      jump\t// out\n        /* \"#utility.yul\":15695:15808   */\n    tag_160:\n        /* \"#utility.yul\":15761:15767   */\n      0x00\n        /* \"#utility.yul\":15795:15800   */\n      dup2\n        /* \"#utility.yul\":15789:15801   */\n      mload\n        /* \"#utility.yul\":15779:15801   */\n      swap1\n      pop\n        /* \"#utility.yul\":15695:15808   */\n      swap2\n      swap1\n      pop\n      jump\t// out\n        /* \"#utility.yul\":15814:15997   */\n    tag_161:\n        /* \"#utility.yul\":15912:15923   */\n      0x00\n        /* \"#utility.yul\":15946:15952   */\n      dup3\n        /* \"#utility.yul\":15941:15944   */\n      dup3\n        /* \"#utility.yul\":15934:15953   */\n      mstore\n        /* \"#utility.yul\":15986:15990   */\n      0x20\n        /* \"#utility.yul\":15981:15984   */\n      dup3\n        /* \"#utility.yul\":15977:15991   */\n      add\n        /* \"#utility.yul\":15962:15991   */\n      swap1\n      pop\n        /* \"#utility.yul\":15814:15997   */\n      swap3\n      swap2\n      pop\n      pop\n      jump\t// out\n        /* \"#utility.yul\":16003:16134   */\n    tag_162:\n        /* \"#utility.yul\":16069:16073   */\n      0x00\n        /* \"#utility.yul\":16092:16095   */\n      dup2\n        /* \"#utility.yul\":16084:16095   */\n      swap1\n      pop\n        /* \"#utility.yul\":16122:16126   */\n      0x20\n        /* \"#utility.yul\":16117:16120   */\n      dup3\n        /* \"#utility.yul\":16113:16127   */\n      add\n        /* \"#utility.yul\":16105:16127   */\n      swap1\n      pop\n        /* \"#utility.yul\":16003:16134   */\n      swap2\n      swap1\n      pop\n      jump\t// out\n        /* \"#utility.yul\":16140:16216   */\n    tag_163:\n        /* \"#utility.yul\":16176:16183   */\n      0x00\n        /* \"#utility.yul\":16205:16210   */\n      dup2\n        /* \"#utility.yul\":16194:16210   */\n      swap1\n      pop\n        /* \"#utility.yul\":16140:16216   */\n      swap2\n      swap1\n      pop\n      jump\t// out\n        /* \"#utility.yul\":16222:16327   */\n    tag_164:\n        /* \"#utility.yul\":16297:16320   */\n      tag_315\n        /* \"#utility.yul\":16314:16319   */\n      dup2\n        /* \"#utility.yul\":16297:16320   */\n      tag_163\n      jump\t// in\n    tag_315:\n        /* \"#utility.yul\":16292:16295   */\n      dup3\n        /* \"#utility.yul\":16285:16321   */\n      mstore\n        /* \"#utility.yul\":16222:16327   */\n      pop\n      pop\n      jump\t// out\n        /* \"#utility.yul\":16333:16508   */\n    tag_165:\n        /* \"#utility.yul\":16400:16410   */\n      0x00\n        /* \"#utility.yul\":16421:16465   */\n      tag_317\n        /* \"#utility.yul\":16461:16464   */\n      dup4\n        /* \"#utility.yul\":16453:16459   */\n      dup4\n        /* \"#utility.yul\":16421:16465   */\n      tag_164\n      jump\t// in\n    tag_317:\n        /* \"#utility.yul\":16497:16501   */\n      0x20\n        /* \"#utility.yul\":16492:16495   */\n      dup4\n        /* \"#utility.yul\":16488:16502   */\n      add\n        /* \"#utility.yul\":16474:16502   */\n      swap1\n      pop\n        /* \"#utility.yul\":16333:16508   */\n      swap3\n      swap2\n      pop\n      pop\n      jump\t// out\n        /* \"#utility.yul\":16514:16626   */\n    tag_166:\n        /* \"#utility.yul\":16583:16587   */\n      0x00\n        /* \"#utility.yul\":16615:16619   */\n      0x20\n        /* \"#utility.yul\":16610:16613   */\n      dup3\n        /* \"#utility.yul\":16606:16620   */\n      add\n        /* \"#utility.yul\":16598:16620   */\n      swap1\n      pop\n        /* \"#utility.yul\":16514:16626   */\n      swap2\n      swap1\n      pop\n      jump\t// out\n        /* \"#utility.yul\":16660:17384   */\n    tag_167:\n        /* \"#utility.yul\":16777:16780   */\n      0x00\n        /* \"#utility.yul\":16806:16859   */\n      tag_320\n        /* \"#utility.yul\":16853:16858   */\n      dup3\n        /* \"#utility.yul\":16806:16859   */\n      tag_160\n      jump\t// in\n    tag_320:\n        /* \"#utility.yul\":16875:16960   */\n      tag_321\n        /* \"#utility.yul\":16953:16959   */\n      dup2\n        /* \"#utility.yul\":16948:16951   */\n      dup6\n        /* \"#utility.yul\":16875:16960   */\n      tag_161\n      jump\t// in\n    tag_321:\n        /* \"#utility.yul\":16868:16960   */\n      swap4\n      pop\n        /* \"#utility.yul\":16984:17039   */\n      tag_322\n        /* \"#utility.yul\":17033:17038   */\n      dup4\n        /* \"#utility.yul\":16984:17039   */\n      tag_162\n      jump\t// in\n    tag_322:\n        /* \"#utility.yul\":17062:17069   */\n      dup1\n        /* \"#utility.yul\":17093:17094   */\n      0x00\n        /* \"#utility.yul\":17078:17359   */\n    tag_323:\n        /* \"#utility.yul\":17103:17109   */\n      dup4\n        /* \"#utility.yul\":17100:17101   */\n      dup2\n        /* \"#utility.yul\":17097:17110   */\n      lt\n        /* \"#utility.yul\":17078:17359   */\n      iszero\n      tag_325\n      jumpi\n        /* \"#utility.yul\":17179:17185   */\n      dup2\n        /* \"#utility.yul\":17173:17186   */\n      mload\n        /* \"#utility.yul\":17206:17267   */\n      tag_326\n        /* \"#utility.yul\":17263:17266   */\n      dup9\n        /* \"#utility.yul\":17248:17261   */\n      dup3\n        /* \"#utility.yul\":17206:17267   */\n      tag_165\n      jump\t// in\n    tag_326:\n        /* \"#utility.yul\":17199:17267   */\n      swap8\n      pop\n        /* \"#utility.yul\":17290:17349   */\n      tag_327\n        /* \"#utility.yul\":17342:17348   */\n      dup4\n        /* \"#utility.yul\":17290:17349   */\n      tag_166\n      jump\t// in\n    tag_327:\n        /* \"#utility.yul\":17280:17349   */\n      swap3\n      pop\n        /* \"#utility.yul\":17138:17359   */\n      pop\n        /* \"#utility.yul\":17125:17126   */\n      0x01\n        /* \"#utility.yul\":17122:17123   */\n      dup2\n        /* \"#utility.yul\":17118:17127   */\n      add\n        /* \"#utility.yul\":17113:17127   */\n      swap1\n      pop\n        /* \"#utility.yul\":17078:17359   */\n      jump(tag_323)\n    tag_325:\n        /* \"#utility.yul\":17082:17096   */\n      pop\n        /* \"#utility.yul\":17375:17378   */\n      dup6\n        /* \"#utility.yul\":17368:17378   */\n      swap4\n      pop\n        /* \"#utility.yul\":16782:17384   */\n      pop\n      pop\n      pop\n        /* \"#utility.yul\":16660:17384   */\n      swap3\n      swap2\n      pop\n      pop\n      jump\t// out\n        /* \"#utility.yul\":17390:18352   */\n    tag_106:\n        /* \"#utility.yul\":17693:17697   */\n      0x00\n        /* \"#utility.yul\":17731:17734   */\n      0xa0\n        /* \"#utility.yul\":17720:17729   */\n      dup3\n        /* \"#utility.yul\":17716:17735   */\n      add\n        /* \"#utility.yul\":17708:17735   */\n      swap1\n      pop\n        /* \"#utility.yul\":17745:17816   */\n      tag_329\n        /* \"#utility.yul\":17813:17814   */\n      0x00\n        /* \"#utility.yul\":17802:17811   */\n      dup4\n        /* \"#utility.yul\":17798:17815   */\n      add\n        /* \"#utility.yul\":17789:17795   */\n      dup9\n        /* \"#utility.yul\":17745:17816   */\n      tag_151\n      jump\t// in\n    tag_329:\n        /* \"#utility.yul\":17826:17898   */\n      tag_330\n        /* \"#utility.yul\":17894:17896   */\n      0x20\n        /* \"#utility.yul\":17883:17892   */\n      dup4\n        /* \"#utility.yul\":17879:17897   */\n      add\n        /* \"#utility.yul\":17870:17876   */\n      dup8\n        /* \"#utility.yul\":17826:17898   */\n      tag_151\n      jump\t// in\n    tag_330:\n        /* \"#utility.yul\":17908:17980   */\n      tag_331\n        /* \"#utility.yul\":17976:17978   */\n      0x40\n        /* \"#utility.yul\":17965:17974   */\n      dup4\n        /* \"#utility.yul\":17961:17979   */\n      add\n        /* \"#utility.yul\":17952:17958   */\n      dup7\n        /* \"#utility.yul\":17908:17980   */\n      tag_152\n      jump\t// in\n    tag_331:\n        /* \"#utility.yul\":18027:18036   */\n      dup2\n        /* \"#utility.yul\":18021:18025   */\n      dup2\n        /* \"#utility.yul\":18017:18037   */\n      sub\n        /* \"#utility.yul\":18012:18014   */\n      0x60\n        /* \"#utility.yul\":18001:18010   */\n      dup4\n        /* \"#utility.yul\":17997:18015   */\n      add\n        /* \"#utility.yul\":17990:18038   */\n      mstore\n        /* \"#utility.yul\":18055:18163   */\n      tag_332\n        /* \"#utility.yul\":18158:18162   */\n      dup2\n        /* \"#utility.yul\":18149:18155   */\n      dup6\n        /* \"#utility.yul\":18055:18163   */\n      tag_159\n      jump\t// in\n    tag_332:\n        /* \"#utility.yul\":18047:18163   */\n      swap1\n      pop\n        /* \"#utility.yul\":18211:18220   */\n      dup2\n        /* \"#utility.yul\":18205:18209   */\n      dup2\n        /* \"#utility.yul\":18201:18221   */\n      sub\n        /* \"#utility.yul\":18195:18198   */\n      0x80\n        /* \"#utility.yul\":18184:18193   */\n      dup4\n        /* \"#utility.yul\":18180:18199   */\n      add\n        /* \"#utility.yul\":18173:18222   */\n      mstore\n        /* \"#utility.yul\":18239:18345   */\n      tag_333\n        /* \"#utility.yul\":18340:18344   */\n      dup2\n        /* \"#utility.yul\":18331:18337   */\n      dup5\n        /* \"#utility.yul\":18239:18345   */\n      tag_167\n      jump\t// in\n    tag_333:\n        /* \"#utility.yul\":18231:18345   */\n      swap1\n      pop\n        /* \"#utility.yul\":17390:18352   */\n      swap7\n      swap6\n      pop\n      pop\n      pop\n      pop\n      pop\n      pop\n      jump\t// out\n\n    auxdata: 0xa2646970667358221220678a0cc9189adc11e94d9528700a6f25a7fd6fd328efa33c516ec18ce35addb564736f6c63430008120033\n}\n",
				"bytecode": {
					"linkReferences": {},
					"object": "60806040523480156200001157600080fd5b50604051620013cd380380620013cd83398181016040528101906200003791906200016f565b81600160006101000a81548173ffffffffffffffffffffffffffffffffffffffff021916908373ffffffffffffffffffffffffffffffffffffffff160217905550806000806101000a81548173ffffffffffffffffffffffffffffffffffffffff021916908373ffffffffffffffffffffffffffffffffffffffff1602179055505050620001b6565b600080fd5b600073ffffffffffffffffffffffffffffffffffffffff82169050919050565b6000620000f282620000c5565b9050919050565b60006200010682620000e5565b9050919050565b6200011881620000f9565b81146200012457600080fd5b50565b60008151905062000138816200010d565b92915050565b6200014981620000e5565b81146200015557600080fd5b50565b60008151905062000169816200013e565b92915050565b60008060408385031215620001895762000188620000c0565b5b6000620001998582860162000127565b9250506020620001ac8582860162000158565b9150509250929050565b61120780620001c66000396000f3fe608060405234801561001057600080fd5b50600436106100365760003560e01c8063e064d1991461003b578063e91046a914610059575b600080fd5b610043610075565b604051610050919061096c565b60405180910390f35b610073600480360381019061006e9190610b68565b610099565b005b60008054906101000a900473ffffffffffffffffffffffffffffffffffffffff1681565b60078251146100dd576040517f08c379a00000000000000000000000000000000000000000000000000000000081526004016100d490610c47565b60405180910390fd5b6000600767ffffffffffffffff8111156100fa576100f96109b1565b5b6040519080825280602002602001820160405280156101285781602001602082028036833780820191505090505b5090506000600767ffffffffffffffff811115610148576101476109b1565b5b6040519080825280602002602001820160405280156101765781602001602082028036833780820191505090505b50905060008054906101000a900473ffffffffffffffffffffffffffffffffffffffff1673ffffffffffffffffffffffffffffffffffffffff1663cfb519286040518163ffffffff1660e01b81526004016101d090610cb3565b602060405180830381865afa1580156101ed573d6000803e3d6000fd5b505050506040513d601f19601f820116820180604052508101906102119190610ce8565b8260008151811061022557610224610d15565b5b6020026020010181815250508360028151811061024557610244610d15565b5b602002602001015160001c8160008151811061026457610263610d15565b5b60200260200101818152505060008054906101000a900473ffffffffffffffffffffffffffffffffffffffff1673ffffffffffffffffffffffffffffffffffffffff1663cfb519286040518163ffffffff1660e01b81526004016102c790610d90565b602060405180830381865afa1580156102e4573d6000803e3d6000fd5b505050506040513d601f19601f820116820180604052508101906103089190610ce8565b8260018151811061031c5761031b610d15565b5b6020026020010181815250508360038151811061033c5761033b610d15565b5b602002602001015160001c8160018151811061035b5761035a610d15565b5b60200260200101818152505060008054906101000a900473ffffffffffffffffffffffffffffffffffffffff1673ffffffffffffffffffffffffffffffffffffffff1663cfb519286040518163ffffffff1660e01b81526004016103be90610dfc565b602060405180830381865afa1580156103db573d6000803e3d6000fd5b505050506040513d601f19601f820116820180604052508101906103ff9190610ce8565b8260028151811061041357610412610d15565b5b6020026020010181815250508360048151811061043357610432610d15565b5b602002602001015160001c8160028151811061045257610451610d15565b5b60200260200101818152505060008054906101000a900473ffffffffffffffffffffffffffffffffffffffff1673ffffffffffffffffffffffffffffffffffffffff1663cfb519286040518163ffffffff1660e01b81526004016104b590610e68565b602060405180830381865afa1580156104d2573d6000803e3d6000fd5b505050506040513d601f19601f820116820180604052508101906104f69190610ce8565b8260038151811061050a57610509610d15565b5b6020026020010181815250508360058151811061052a57610529610d15565b5b602002602001015160001c8160038151811061054957610548610d15565b5b60200260200101818152505060008054906101000a900473ffffffffffffffffffffffffffffffffffffffff1673ffffffffffffffffffffffffffffffffffffffff1663cfb519286040518163ffffffff1660e01b81526004016105ac90610ed4565b602060405180830381865afa1580156105c9573d6000803e3d6000fd5b505050506040513d601f19601f820116820180604052508101906105ed9190610ce8565b8260048151811061060157610600610d15565b5b602002602001018181525050428160048151811061062257610621610d15565b5b60200260200101818152505060008054906101000a900473ffffffffffffffffffffffffffffffffffffffff1673ffffffffffffffffffffffffffffffffffffffff1663cfb519286040518163ffffffff1660e01b815260040161068590610f40565b602060405180830381865afa1580156106a2573d6000803e3d6000fd5b505050506040513d601f19601f820116820180604052508101906106c69190610ce8565b826005815181106106da576106d9610d15565b5b602002602001018181525050836006815181106106fa576106f9610d15565b5b602002602001015160001c8160058151811061071957610718610d15565b5b60200260200101818152505060008054906101000a900473ffffffffffffffffffffffffffffffffffffffff1673ffffffffffffffffffffffffffffffffffffffff1663cfb519286040518163ffffffff1660e01b815260040161077c90610fac565b602060405180830381865afa158015610799573d6000803e3d6000fd5b505050506040513d601f19601f820116820180604052508101906107bd9190610ce8565b826006815181106107d1576107d0610d15565b5b602002602001018181525050836007815181106107f1576107f0610d15565b5b602002602001015160001c816006815181106108105761080f610d15565b5b602002602001018181525050600160009054906101000a900473ffffffffffffffffffffffffffffffffffffffff1673ffffffffffffffffffffffffffffffffffffffff1663ed40bbd58560008151811061086e5761086d610d15565b5b60200260200101518660018151811061088a57610889610d15565b5b60200260200101518686866040518663ffffffff1660e01b81526004016108b5959493929190611170565b600060405180830381600087803b1580156108cf57600080fd5b505af11580156108e3573d6000803e3d6000fd5b5050505050505050565b600073ffffffffffffffffffffffffffffffffffffffff82169050919050565b6000819050919050565b600061093261092d610928846108ed565b61090d565b6108ed565b9050919050565b600061094482610917565b9050919050565b600061095682610939565b9050919050565b6109668161094b565b82525050565b6000602082019050610981600083018461095d565b92915050565b6000604051905090565b600080fd5b600080fd5b600080fd5b6000601f19601f8301169050919050565b7f4e487b7100000000000000000000000000000000000000000000000000000000600052604160045260246000fd5b6109e9826109a0565b810181811067ffffffffffffffff82111715610a0857610a076109b1565b5b80604052505050565b6000610a1b610987565b9050610a2782826109e0565b919050565b600067ffffffffffffffff821115610a4757610a466109b1565b5b602082029050602081019050919050565b600080fd5b6000819050919050565b610a7081610a5d565b8114610a7b57600080fd5b50565b600081359050610a8d81610a67565b92915050565b6000610aa6610aa184610a2c565b610a11565b90508083825260208201905060208402830185811115610ac957610ac8610a58565b5b835b81811015610af25780610ade8882610a7e565b845260208401935050602081019050610acb565b5050509392505050565b600082601f830112610b1157610b1061099b565b5b8135610b21848260208601610a93565b91505092915050565b6000610b35826108ed565b9050919050565b610b4581610b2a565b8114610b5057600080fd5b50565b600081359050610b6281610b3c565b92915050565b60008060408385031215610b7f57610b7e610991565b5b600083013567ffffffffffffffff811115610b9d57610b9c610996565b5b610ba985828601610afc565b9250506020610bba85828601610b53565b9150509250929050565b600082825260208201905092915050565b7f44617461206c656e67746820666f72204530303031303030315f325f335f372060008201527f6d75737420626520370000000000000000000000000000000000000000000000602082015250565b6000610c31602983610bc4565b9150610c3c82610bd5565b604082019050919050565b60006020820190508181036000830152610c6081610c24565b9050919050565b7f4550303031000000000000000000000000000000000000000000000000000000600082015250565b6000610c9d600583610bc4565b9150610ca882610c67565b602082019050919050565b60006020820190508181036000830152610ccc81610c90565b9050919050565b600081519050610ce281610a67565b92915050565b600060208284031215610cfe57610cfd610991565b5b6000610d0c84828501610cd3565b91505092915050565b7f4e487b7100000000000000000000000000000000000000000000000000000000600052603260045260246000fd5b7f4550303032000000000000000000000000000000000000000000000000000000600082015250565b6000610d7a600583610bc4565b9150610d8582610d44565b602082019050919050565b60006020820190508181036000830152610da981610d6d565b9050919050565b7f4550303033000000000000000000000000000000000000000000000000000000600082015250565b6000610de6600583610bc4565b9150610df182610db0565b602082019050919050565b60006020820190508181036000830152610e1581610dd9565b9050919050565b7f4550303034000000000000000000000000000000000000000000000000000000600082015250565b6000610e52600583610bc4565b9150610e5d82610e1c565b602082019050919050565b60006020820190508181036000830152610e8181610e45565b9050919050565b7f7472616e735f74696d6500000000000000000000000000000000000000000000600082015250565b6000610ebe600a83610bc4565b9150610ec982610e88565b602082019050919050565b60006020820190508181036000830152610eed81610eb1565b9050919050565b7f4550303036000000000000000000000000000000000000000000000000000000600082015250565b6000610f2a600583610bc4565b9150610f3582610ef4565b602082019050919050565b60006020820190508181036000830152610f5981610f1d565b9050919050565b7f4550303037000000000000000000000000000000000000000000000000000000600082015250565b6000610f96600583610bc4565b9150610fa182610f60565b602082019050919050565b60006020820190508181036000830152610fc581610f89565b9050919050565b610fd581610a5d565b82525050565b610fe481610b2a565b82525050565b600081519050919050565b600082825260208201905092915050565b6000819050602082019050919050565b61101f81610a5d565b82525050565b60006110318383611016565b60208301905092915050565b6000602082019050919050565b600061105582610fea565b61105f8185610ff5565b935061106a83611006565b8060005b8381101561109b5781516110828882611025565b975061108d8361103d565b92505060018101905061106e565b5085935050505092915050565b600081519050919050565b600082825260208201905092915050565b6000819050602082019050919050565b6000819050919050565b6110e7816110d4565b82525050565b60006110f983836110de565b60208301905092915050565b6000602082019050919050565b600061111d826110a8565b61112781856110b3565b9350611132836110c4565b8060005b8381101561116357815161114a88826110ed565b975061115583611105565b925050600181019050611136565b5085935050505092915050565b600060a0820190506111856000830188610fcc565b6111926020830187610fcc565b61119f6040830186610fdb565b81810360608301526111b1818561104a565b905081810360808301526111c58184611112565b9050969550505050505056fea2646970667358221220678a0cc9189adc11e94d9528700a6f25a7fd6fd328efa33c516ec18ce35addb564736f6c63430008120033",
					"opcodes": "PUSH1 0x80 PUSH1 0x40 MSTORE CALLVALUE DUP1 ISZERO PUSH3 0x11 JUMPI PUSH1 0x0 DUP1 REVERT JUMPDEST POP PUSH1 0x40 MLOAD PUSH3 0x13CD CODESIZE SUB DUP1 PUSH3 0x13CD DUP4 CODECOPY DUP2 DUP2 ADD PUSH1 0x40 MSTORE DUP2 ADD SWAP1 PUSH3 0x37 SWAP2 SWAP1 PUSH3 0x16F JUMP JUMPDEST DUP2 PUSH1 0x1 PUSH1 0x0 PUSH2 0x100 EXP DUP2 SLOAD DUP2 PUSH20 0xFFFFFFFFFFFFFFFFFFFFFFFFFFFFFFFFFFFFFFFF MUL NOT AND SWAP1 DUP4 PUSH20 0xFFFFFFFFFFFFFFFFFFFFFFFFFFFFFFFFFFFFFFFF AND MUL OR SWAP1 SSTORE POP DUP1 PUSH1 0x0 DUP1 PUSH2 0x100 EXP DUP2 SLOAD DUP2 PUSH20 0xFFFFFFFFFFFFFFFFFFFFFFFFFFFFFFFFFFFFFFFF MUL NOT AND SWAP1 DUP4 PUSH20 0xFFFFFFFFFFFFFFFFFFFFFFFFFFFFFFFFFFFFFFFF AND MUL OR SWAP1 SSTORE POP POP POP PUSH3 0x1B6 JUMP JUMPDEST PUSH1 0x0 DUP1 REVERT JUMPDEST PUSH1 0x0 PUSH20 0xFFFFFFFFFFFFFFFFFFFFFFFFFFFFFFFFFFFFFFFF DUP3 AND SWAP1 POP SWAP2 SWAP1 POP JUMP JUMPDEST PUSH1 0x0 PUSH3 0xF2 DUP3 PUSH3 0xC5 JUMP JUMPDEST SWAP1 POP SWAP2 SWAP1 POP JUMP JUMPDEST PUSH1 0x0 PUSH3 0x106 DUP3 PUSH3 0xE5 JUMP JUMPDEST SWAP1 POP SWAP2 SWAP1 POP JUMP JUMPDEST PUSH3 0x118 DUP2 PUSH3 0xF9 JUMP JUMPDEST DUP2 EQ PUSH3 0x124 JUMPI PUSH1 0x0 DUP1 REVERT JUMPDEST POP JUMP JUMPDEST PUSH1 0x0 DUP2 MLOAD SWAP1 POP PUSH3 0x138 DUP2 PUSH3 0x10D JUMP JUMPDEST SWAP3 SWAP2 POP POP JUMP JUMPDEST PUSH3 0x149 DUP2 PUSH3 0xE5 JUMP JUMPDEST DUP2 EQ PUSH3 0x155 JUMPI PUSH1 0x0 DUP1 REVERT JUMPDEST POP JUMP JUMPDEST PUSH1 0x0 DUP2 MLOAD SWAP1 POP PUSH3 0x169 DUP2 PUSH3 0x13E JUMP JUMPDEST SWAP3 SWAP2 POP POP JUMP JUMPDEST PUSH1 0x0 DUP1 PUSH1 0x40 DUP4 DUP6 SUB SLT ISZERO PUSH3 0x189 JUMPI PUSH3 0x188 PUSH3 0xC0 JUMP JUMPDEST JUMPDEST PUSH1 0x0 PUSH3 0x199 DUP6 DUP3 DUP7 ADD PUSH3 0x127 JUMP JUMPDEST SWAP3 POP POP PUSH1 0x20 PUSH3 0x1AC DUP6 DUP3 DUP7 ADD PUSH3 0x158 JUMP JUMPDEST SWAP2 POP POP SWAP3 POP SWAP3 SWAP1 POP JUMP JUMPDEST PUSH2 0x1207 DUP1 PUSH3 0x1C6 PUSH1 0x0 CODECOPY PUSH1 0x0 RETURN INVALID PUSH1 0x80 PUSH1 0x40 MSTORE CALLVALUE DUP1 ISZERO PUSH2 0x10 JUMPI PUSH1 0x0 DUP1 REVERT JUMPDEST POP PUSH1 0x4 CALLDATASIZE LT PUSH2 0x36 JUMPI PUSH1 0x0 CALLDATALOAD PUSH1 0xE0 SHR DUP1 PUSH4 0xE064D199 EQ PUSH2 0x3B JUMPI DUP1 PUSH4 0xE91046A9 EQ PUSH2 0x59 JUMPI JUMPDEST PUSH1 0x0 DUP1 REVERT JUMPDEST PUSH2 0x43 PUSH2 0x75 JUMP JUMPDEST PUSH1 0x40 MLOAD PUSH2 0x50 SWAP2 SWAP1 PUSH2 0x96C JUMP JUMPDEST PUSH1 0x40 MLOAD DUP1 SWAP2 SUB SWAP1 RETURN JUMPDEST PUSH2 0x73 PUSH1 0x4 DUP1 CALLDATASIZE SUB DUP2 ADD SWAP1 PUSH2 0x6E SWAP2 SWAP1 PUSH2 0xB68 JUMP JUMPDEST PUSH2 0x99 JUMP JUMPDEST STOP JUMPDEST PUSH1 0x0 DUP1 SLOAD SWAP1 PUSH2 0x100 EXP SWAP1 DIV PUSH20 0xFFFFFFFFFFFFFFFFFFFFFFFFFFFFFFFFFFFFFFFF AND DUP2 JUMP JUMPDEST PUSH1 0x7 DUP3 MLOAD EQ PUSH2 0xDD JUMPI PUSH1 0x40 MLOAD PUSH32 0x8C379A000000000000000000000000000000000000000000000000000000000 DUP2 MSTORE PUSH1 0x4 ADD PUSH2 0xD4 SWAP1 PUSH2 0xC47 JUMP JUMPDEST PUSH1 0x40 MLOAD DUP1 SWAP2 SUB SWAP1 REVERT JUMPDEST PUSH1 0x0 PUSH1 0x7 PUSH8 0xFFFFFFFFFFFFFFFF DUP2 GT ISZERO PUSH2 0xFA JUMPI PUSH2 0xF9 PUSH2 0x9B1 JUMP JUMPDEST JUMPDEST PUSH1 0x40 MLOAD SWAP1 DUP1 DUP3 MSTORE DUP1 PUSH1 0x20 MUL PUSH1 0x20 ADD DUP3 ADD PUSH1 0x40 MSTORE DUP1 ISZERO PUSH2 0x128 JUMPI DUP2 PUSH1 0x20 ADD PUSH1 0x20 DUP3 MUL DUP1 CALLDATASIZE DUP4 CALLDATACOPY DUP1 DUP3 ADD SWAP2 POP POP SWAP1 POP JUMPDEST POP SWAP1 POP PUSH1 0x0 PUSH1 0x7 PUSH8 0xFFFFFFFFFFFFFFFF DUP2 GT ISZERO PUSH2 0x148 JUMPI PUSH2 0x147 PUSH2 0x9B1 JUMP JUMPDEST JUMPDEST PUSH1 0x40 MLOAD SWAP1 DUP1 DUP3 MSTORE DUP1 PUSH1 0x20 MUL PUSH1 0x20 ADD DUP3 ADD PUSH1 0x40 MSTORE DUP1 ISZERO PUSH2 0x176 JUMPI DUP2 PUSH1 0x20 ADD PUSH1 0x20 DUP3 MUL DUP1 CALLDATASIZE DUP4 CALLDATACOPY DUP1 DUP3 ADD SWAP2 POP POP SWAP1 POP JUMPDEST POP SWAP1 POP PUSH1 0x0 DUP1 SLOAD SWAP1 PUSH2 0x100 EXP SWAP1 DIV PUSH20 0xFFFFFFFFFFFFFFFFFFFFFFFFFFFFFFFFFFFFFFFF AND PUSH20 0xFFFFFFFFFFFFFFFFFFFFFFFFFFFFFFFFFFFFFFFF AND PUSH4 0xCFB51928 PUSH1 0x40 MLOAD DUP2 PUSH4 0xFFFFFFFF AND PUSH1 0xE0 SHL DUP2 MSTORE PUSH1 0x4 ADD PUSH2 0x1D0 SWAP1 PUSH2 0xCB3 JUMP JUMPDEST PUSH1 0x20 PUSH1 0x40 MLOAD DUP1 DUP4 SUB DUP2 DUP7 GAS STATICCALL ISZERO DUP1 ISZERO PUSH2 0x1ED JUMPI RETURNDATASIZE PUSH1 0x0 DUP1 RETURNDATACOPY RETURNDATASIZE PUSH1 0x0 REVERT JUMPDEST POP POP POP POP PUSH1 0x40 MLOAD RETURNDATASIZE PUSH1 0x1F NOT PUSH1 0x1F DUP3 ADD AND DUP3 ADD DUP1 PUSH1 0x40 MSTORE POP DUP2 ADD SWAP1 PUSH2 0x211 SWAP2 SWAP1 PUSH2 0xCE8 JUMP JUMPDEST DUP3 PUSH1 0x0 DUP2 MLOAD DUP2 LT PUSH2 0x225 JUMPI PUSH2 0x224 PUSH2 0xD15 JUMP JUMPDEST JUMPDEST PUSH1 0x20 MUL PUSH1 0x20 ADD ADD DUP2 DUP2 MSTORE POP POP DUP4 PUSH1 0x2 DUP2 MLOAD DUP2 LT PUSH2 0x245 JUMPI PUSH2 0x244 PUSH2 0xD15 JUMP JUMPDEST JUMPDEST PUSH1 0x20 MUL PUSH1 0x20 ADD ADD MLOAD PUSH1 0x0 SHR DUP2 PUSH1 0x0 DUP2 MLOAD DUP2 LT PUSH2 0x264 JUMPI PUSH2 0x263 PUSH2 0xD15 JUMP JUMPDEST JUMPDEST PUSH1 0x20 MUL PUSH1 0x20 ADD ADD DUP2 DUP2 MSTORE POP POP PUSH1 0x0 DUP1 SLOAD SWAP1 PUSH2 0x100 EXP SWAP1 DIV PUSH20 0xFFFFFFFFFFFFFFFFFFFFFFFFFFFFFFFFFFFFFFFF AND PUSH20 0xFFFFFFFFFFFFFFFFFFFFFFFFFFFFFFFFFFFFFFFF AND PUSH4 0xCFB51928 PUSH1 0x40 MLOAD DUP2 PUSH4 0xFFFFFFFF AND PUSH1 0xE0 SHL DUP2 MSTORE PUSH1 0x4 ADD PUSH2 0x2C7 SWAP1 PUSH2 0xD90 JUMP JUMPDEST PUSH1 0x20 PUSH1 0x40 MLOAD DUP1 DUP4 SUB DUP2 DUP7 GAS STATICCALL ISZERO DUP1 ISZERO PUSH2 0x2E4 JUMPI RETURNDATASIZE PUSH1 0x0 DUP1 RETURNDATACOPY RETURNDATASIZE PUSH1 0x0 REVERT JUMPDEST POP POP POP POP PUSH1 0x40 MLOAD RETURNDATASIZE PUSH1 0x1F NOT PUSH1 0x1F DUP3 ADD AND DUP3 ADD DUP1 PUSH1 0x40 MSTORE POP DUP2 ADD SWAP1 PUSH2 0x308 SWAP2 SWAP1 PUSH2 0xCE8 JUMP JUMPDEST DUP3 PUSH1 0x1 DUP2 MLOAD DUP2 LT PUSH2 0x31C JUMPI PUSH2 0x31B PUSH2 0xD15 JUMP JUMPDEST JUMPDEST PUSH1 0x20 MUL PUSH1 0x20 ADD ADD DUP2 DUP2 MSTORE POP POP DUP4 PUSH1 0x3 DUP2 MLOAD DUP2 LT PUSH2 0x33C JUMPI PUSH2 0x33B PUSH2 0xD15 JUMP JUMPDEST JUMPDEST PUSH1 0x20 MUL PUSH1 0x20 ADD ADD MLOAD PUSH1 0x0 SHR DUP2 PUSH1 0x1 DUP2 MLOAD DUP2 LT PUSH2 0x35B JUMPI PUSH2 0x35A PUSH2 0xD15 JUMP JUMPDEST JUMPDEST PUSH1 0x20 MUL PUSH1 0x20 ADD ADD DUP2 DUP2 MSTORE POP POP PUSH1 0x0 DUP1 SLOAD SWAP1 PUSH2 0x100 EXP SWAP1 DIV PUSH20 0xFFFFFFFFFFFFFFFFFFFFFFFFFFFFFFFFFFFFFFFF AND PUSH20 0xFFFFFFFFFFFFFFFFFFFFFFFFFFFFFFFFFFFFFFFF AND PUSH4 0xCFB51928 PUSH1 0x40 MLOAD DUP2 PUSH4 0xFFFFFFFF AND PUSH1 0xE0 SHL DUP2 MSTORE PUSH1 0x4 ADD PUSH2 0x3BE SWAP1 PUSH2 0xDFC JUMP JUMPDEST PUSH1 0x20 PUSH1 0x40 MLOAD DUP1 DUP4 SUB DUP2 DUP7 GAS STATICCALL ISZERO DUP1 ISZERO PUSH2 0x3DB JUMPI RETURNDATASIZE PUSH1 0x0 DUP1 RETURNDATACOPY RETURNDATASIZE PUSH1 0x0 REVERT JUMPDEST POP POP POP POP PUSH1 0x40 MLOAD RETURNDATASIZE PUSH1 0x1F NOT PUSH1 0x1F DUP3 ADD AND DUP3 ADD DUP1 PUSH1 0x40 MSTORE POP DUP2 ADD SWAP1 PUSH2 0x3FF SWAP2 SWAP1 PUSH2 0xCE8 JUMP JUMPDEST DUP3 PUSH1 0x2 DUP2 MLOAD DUP2 LT PUSH2 0x413 JUMPI PUSH2 0x412 PUSH2 0xD15 JUMP JUMPDEST JUMPDEST PUSH1 0x20 MUL PUSH1 0x20 ADD ADD DUP2 DUP2 MSTORE POP POP DUP4 PUSH1 0x4 DUP2 MLOAD DUP2 LT PUSH2 0x433 JUMPI PUSH2 0x432 PUSH2 0xD15 JUMP JUMPDEST JUMPDEST PUSH1 0x20 MUL PUSH1 0x20 ADD ADD MLOAD PUSH1 0x0 SHR DUP2 PUSH1 0x2 DUP2 MLOAD DUP2 LT PUSH2 0x452 JUMPI PUSH2 0x451 PUSH2 0xD15 JUMP JUMPDEST JUMPDEST PUSH1 0x20 MUL PUSH1 0x20 ADD ADD DUP2 DUP2 MSTORE POP POP PUSH1 0x0 DUP1 SLOAD SWAP1 PUSH2 0x100 EXP SWAP1 DIV PUSH20 0xFFFFFFFFFFFFFFFFFFFFFFFFFFFFFFFFFFFFFFFF AND PUSH20 0xFFFFFFFFFFFFFFFFFFFFFFFFFFFFFFFFFFFFFFFF AND PUSH4 0xCFB51928 PUSH1 0x40 MLOAD DUP2 PUSH4 0xFFFFFFFF AND PUSH1 0xE0 SHL DUP2 MSTORE PUSH1 0x4 ADD PUSH2 0x4B5 SWAP1 PUSH2 0xE68 JUMP JUMPDEST PUSH1 0x20 PUSH1 0x40 MLOAD DUP1 DUP4 SUB DUP2 DUP7 GAS STATICCALL ISZERO DUP1 ISZERO PUSH2 0x4D2 JUMPI RETURNDATASIZE PUSH1 0x0 DUP1 RETURNDATACOPY RETURNDATASIZE PUSH1 0x0 REVERT JUMPDEST POP POP POP POP PUSH1 0x40 MLOAD RETURNDATASIZE PUSH1 0x1F NOT PUSH1 0x1F DUP3 ADD AND DUP3 ADD DUP1 PUSH1 0x40 MSTORE POP DUP2 ADD SWAP1 PUSH2 0x4F6 SWAP2 SWAP1 PUSH2 0xCE8 JUMP JUMPDEST DUP3 PUSH1 0x3 DUP2 MLOAD DUP2 LT PUSH2 0x50A JUMPI PUSH2 0x509 PUSH2 0xD15 JUMP JUMPDEST JUMPDEST PUSH1 0x20 MUL PUSH1 0x20 ADD ADD DUP2 DUP2 MSTORE POP POP DUP4 PUSH1 0x5 DUP2 MLOAD DUP2 LT PUSH2 0x52A JUMPI PUSH2 0x529 PUSH2 0xD15 JUMP JUMPDEST JUMPDEST PUSH1 0x20 MUL PUSH1 0x20 ADD ADD MLOAD PUSH1 0x0 SHR DUP2 PUSH1 0x3 DUP2 MLOAD DUP2 LT PUSH2 0x549 JUMPI PUSH2 0x548 PUSH2 0xD15 JUMP JUMPDEST JUMPDEST PUSH1 0x20 MUL PUSH1 0x20 ADD ADD DUP2 DUP2 MSTORE POP POP PUSH1 0x0 DUP1 SLOAD SWAP1 PUSH2 0x100 EXP SWAP1 DIV PUSH20 0xFFFFFFFFFFFFFFFFFFFFFFFFFFFFFFFFFFFFFFFF AND PUSH20 0xFFFFFFFFFFFFFFFFFFFFFFFFFFFFFFFFFFFFFFFF AND PUSH4 0xCFB51928 PUSH1 0x40 MLOAD DUP2 PUSH4 0xFFFFFFFF AND PUSH1 0xE0 SHL DUP2 MSTORE PUSH1 0x4 ADD PUSH2 0x5AC SWAP1 PUSH2 0xED4 JUMP JUMPDEST PUSH1 0x20 PUSH1 0x40 MLOAD DUP1 DUP4 SUB DUP2 DUP7 GAS STATICCALL ISZERO DUP1 ISZERO PUSH2 0x5C9 JUMPI RETURNDATASIZE PUSH1 0x0 DUP1 RETURNDATACOPY RETURNDATASIZE PUSH1 0x0 REVERT JUMPDEST POP POP POP POP PUSH1 0x40 MLOAD RETURNDATASIZE PUSH1 0x1F NOT PUSH1 0x1F DUP3 ADD AND DUP3 ADD DUP1 PUSH1 0x40 MSTORE POP DUP2 ADD SWAP1 PUSH2 0x5ED SWAP2 SWAP1 PUSH2 0xCE8 JUMP JUMPDEST DUP3 PUSH1 0x4 DUP2 MLOAD DUP2 LT PUSH2 0x601 JUMPI PUSH2 0x600 PUSH2 0xD15 JUMP JUMPDEST JUMPDEST PUSH1 0x20 MUL PUSH1 0x20 ADD ADD DUP2 DUP2 MSTORE POP POP TIMESTAMP DUP2 PUSH1 0x4 DUP2 MLOAD DUP2 LT PUSH2 0x622 JUMPI PUSH2 0x621 PUSH2 0xD15 JUMP JUMPDEST JUMPDEST PUSH1 0x20 MUL PUSH1 0x20 ADD ADD DUP2 DUP2 MSTORE POP POP PUSH1 0x0 DUP1 SLOAD SWAP1 PUSH2 0x100 EXP SWAP1 DIV PUSH20 0xFFFFFFFFFFFFFFFFFFFFFFFFFFFFFFFFFFFFFFFF AND PUSH20 0xFFFFFFFFFFFFFFFFFFFFFFFFFFFFFFFFFFFFFFFF AND PUSH4 0xCFB51928 PUSH1 0x40 MLOAD DUP2 PUSH4 0xFFFFFFFF AND PUSH1 0xE0 SHL DUP2 MSTORE PUSH1 0x4 ADD PUSH2 0x685 SWAP1 PUSH2 0xF40 JUMP JUMPDEST PUSH1 0x20 PUSH1 0x40 MLOAD DUP1 DUP4 SUB DUP2 DUP7 GAS STATICCALL ISZERO DUP1 ISZERO PUSH2 0x6A2 JUMPI RETURNDATASIZE PUSH1 0x0 DUP1 RETURNDATACOPY RETURNDATASIZE PUSH1 0x0 REVERT JUMPDEST POP POP POP POP PUSH1 0x40 MLOAD RETURNDATASIZE PUSH1 0x1F NOT PUSH1 0x1F DUP3 ADD AND DUP3 ADD DUP1 PUSH1 0x40 MSTORE POP DUP2 ADD SWAP1 PUSH2 0x6C6 SWAP2 SWAP1 PUSH2 0xCE8 JUMP JUMPDEST DUP3 PUSH1 0x5 DUP2 MLOAD DUP2 LT PUSH2 0x6DA JUMPI PUSH2 0x6D9 PUSH2 0xD15 JUMP JUMPDEST JUMPDEST PUSH1 0x20 MUL PUSH1 0x20 ADD ADD DUP2 DUP2 MSTORE POP POP DUP4 PUSH1 0x6 DUP2 MLOAD DUP2 LT PUSH2 0x6FA JUMPI PUSH2 0x6F9 PUSH2 0xD15 JUMP JUMPDEST JUMPDEST PUSH1 0x20 MUL PUSH1 0x20 ADD ADD MLOAD PUSH1 0x0 SHR DUP2 PUSH1 0x5 DUP2 MLOAD DUP2 LT PUSH2 0x719 JUMPI PUSH2 0x718 PUSH2 0xD15 JUMP JUMPDEST JUMPDEST PUSH1 0x20 MUL PUSH1 0x20 ADD ADD DUP2 DUP2 MSTORE POP POP PUSH1 0x0 DUP1 SLOAD SWAP1 PUSH2 0x100 EXP SWAP1 DIV PUSH20 0xFFFFFFFFFFFFFFFFFFFFFFFFFFFFFFFFFFFFFFFF AND PUSH20 0xFFFFFFFFFFFFFFFFFFFFFFFFFFFFFFFFFFFFFFFF AND PUSH4 0xCFB51928 PUSH1 0x40 MLOAD DUP2 PUSH4 0xFFFFFFFF AND PUSH1 0xE0 SHL DUP2 MSTORE PUSH1 0x4 ADD PUSH2 0x77C SWAP1 PUSH2 0xFAC JUMP JUMPDEST PUSH1 0x20 PUSH1 0x40 MLOAD DUP1 DUP4 SUB DUP2 DUP7 GAS STATICCALL ISZERO DUP1 ISZERO PUSH2 0x799 JUMPI RETURNDATASIZE PUSH1 0x0 DUP1 RETURNDATACOPY RETURNDATASIZE PUSH1 0x0 REVERT JUMPDEST POP POP POP POP PUSH1 0x40 MLOAD RETURNDATASIZE PUSH1 0x1F NOT PUSH1 0x1F DUP3 ADD AND DUP3 ADD DUP1 PUSH1 0x40 MSTORE POP DUP2 ADD SWAP1 PUSH2 0x7BD SWAP2 SWAP1 PUSH2 0xCE8 JUMP JUMPDEST DUP3 PUSH1 0x6 DUP2 MLOAD DUP2 LT PUSH2 0x7D1 JUMPI PUSH2 0x7D0 PUSH2 0xD15 JUMP JUMPDEST JUMPDEST PUSH1 0x20 MUL PUSH1 0x20 ADD ADD DUP2 DUP2 MSTORE POP POP DUP4 PUSH1 0x7 DUP2 MLOAD DUP2 LT PUSH2 0x7F1 JUMPI PUSH2 0x7F0 PUSH2 0xD15 JUMP JUMPDEST JUMPDEST PUSH1 0x20 MUL PUSH1 0x20 ADD ADD MLOAD PUSH1 0x0 SHR DUP2 PUSH1 0x6 DUP2 MLOAD DUP2 LT PUSH2 0x810 JUMPI PUSH2 0x80F PUSH2 0xD15 JUMP JUMPDEST JUMPDEST PUSH1 0x20 MUL PUSH1 0x20 ADD ADD DUP2 DUP2 MSTORE POP POP PUSH1 0x1 PUSH1 0x0 SWAP1 SLOAD SWAP1 PUSH2 0x100 EXP SWAP1 DIV PUSH20 0xFFFFFFFFFFFFFFFFFFFFFFFFFFFFFFFFFFFFFFFF AND PUSH20 0xFFFFFFFFFFFFFFFFFFFFFFFFFFFFFFFFFFFFFFFF AND PUSH4 0xED40BBD5 DUP6 PUSH1 0x0 DUP2 MLOAD DUP2 LT PUSH2 0x86E JUMPI PUSH2 0x86D PUSH2 0xD15 JUMP JUMPDEST JUMPDEST PUSH1 0x20 MUL PUSH1 0x20 ADD ADD MLOAD DUP7 PUSH1 0x1 DUP2 MLOAD DUP2 LT PUSH2 0x88A JUMPI PUSH2 0x889 PUSH2 0xD15 JUMP JUMPDEST JUMPDEST PUSH1 0x20 MUL PUSH1 0x20 ADD ADD MLOAD DUP7 DUP7 DUP7 PUSH1 0x40 MLOAD DUP7 PUSH4 0xFFFFFFFF AND PUSH1 0xE0 SHL DUP2 MSTORE PUSH1 0x4 ADD PUSH2 0x8B5 SWAP6 SWAP5 SWAP4 SWAP3 SWAP2 SWAP1 PUSH2 0x1170 JUMP JUMPDEST PUSH1 0x0 PUSH1 0x40 MLOAD DUP1 DUP4 SUB DUP2 PUSH1 0x0 DUP8 DUP1 EXTCODESIZE ISZERO DUP1 ISZERO PUSH2 0x8CF JUMPI PUSH1 0x0 DUP1 REVERT JUMPDEST POP GAS CALL ISZERO DUP1 ISZERO PUSH2 0x8E3 JUMPI RETURNDATASIZE PUSH1 0x0 DUP1 RETURNDATACOPY RETURNDATASIZE PUSH1 0x0 REVERT JUMPDEST POP POP POP POP POP POP POP POP JUMP JUMPDEST PUSH1 0x0 PUSH20 0xFFFFFFFFFFFFFFFFFFFFFFFFFFFFFFFFFFFFFFFF DUP3 AND SWAP1 POP SWAP2 SWAP1 POP JUMP JUMPDEST PUSH1 0x0 DUP2 SWAP1 POP SWAP2 SWAP1 POP JUMP JUMPDEST PUSH1 0x0 PUSH2 0x932 PUSH2 0x92D PUSH2 0x928 DUP5 PUSH2 0x8ED JUMP JUMPDEST PUSH2 0x90D JUMP JUMPDEST PUSH2 0x8ED JUMP JUMPDEST SWAP1 POP SWAP2 SWAP1 POP JUMP JUMPDEST PUSH1 0x0 PUSH2 0x944 DUP3 PUSH2 0x917 JUMP JUMPDEST SWAP1 POP SWAP2 SWAP1 POP JUMP JUMPDEST PUSH1 0x0 PUSH2 0x956 DUP3 PUSH2 0x939 JUMP JUMPDEST SWAP1 POP SWAP2 SWAP1 POP JUMP JUMPDEST PUSH2 0x966 DUP2 PUSH2 0x94B JUMP JUMPDEST DUP3 MSTORE POP POP JUMP JUMPDEST PUSH1 0x0 PUSH1 0x20 DUP3 ADD SWAP1 POP PUSH2 0x981 PUSH1 0x0 DUP4 ADD DUP5 PUSH2 0x95D JUMP JUMPDEST SWAP3 SWAP2 POP POP JUMP JUMPDEST PUSH1 0x0 PUSH1 0x40 MLOAD SWAP1 POP SWAP1 JUMP JUMPDEST PUSH1 0x0 DUP1 REVERT JUMPDEST PUSH1 0x0 DUP1 REVERT JUMPDEST PUSH1 0x0 DUP1 REVERT JUMPDEST PUSH1 0x0 PUSH1 0x1F NOT PUSH1 0x1F DUP4 ADD AND SWAP1 POP SWAP2 SWAP1 POP JUMP JUMPDEST PUSH32 0x4E487B7100000000000000000000000000000000000000000000000000000000 PUSH1 0x0 MSTORE PUSH1 0x41 PUSH1 0x4 MSTORE PUSH1 0x24 PUSH1 0x0 REVERT JUMPDEST PUSH2 0x9E9 DUP3 PUSH2 0x9A0 JUMP JUMPDEST DUP2 ADD DUP2 DUP2 LT PUSH8 0xFFFFFFFFFFFFFFFF DUP3 GT OR ISZERO PUSH2 0xA08 JUMPI PUSH2 0xA07 PUSH2 0x9B1 JUMP JUMPDEST JUMPDEST DUP1 PUSH1 0x40 MSTORE POP POP POP JUMP JUMPDEST PUSH1 0x0 PUSH2 0xA1B PUSH2 0x987 JUMP JUMPDEST SWAP1 POP PUSH2 0xA27 DUP3 DUP3 PUSH2 0x9E0 JUMP JUMPDEST SWAP2 SWAP1 POP JUMP JUMPDEST PUSH1 0x0 PUSH8 0xFFFFFFFFFFFFFFFF DUP3 GT ISZERO PUSH2 0xA47 JUMPI PUSH2 0xA46 PUSH2 0x9B1 JUMP JUMPDEST JUMPDEST PUSH1 0x20 DUP3 MUL SWAP1 POP PUSH1 0x20 DUP2 ADD SWAP1 POP SWAP2 SWAP1 POP JUMP JUMPDEST PUSH1 0x0 DUP1 REVERT JUMPDEST PUSH1 0x0 DUP2 SWAP1 POP SWAP2 SWAP1 POP JUMP JUMPDEST PUSH2 0xA70 DUP2 PUSH2 0xA5D JUMP JUMPDEST DUP2 EQ PUSH2 0xA7B JUMPI PUSH1 0x0 DUP1 REVERT JUMPDEST POP JUMP JUMPDEST PUSH1 0x0 DUP2 CALLDATALOAD SWAP1 POP PUSH2 0xA8D DUP2 PUSH2 0xA67 JUMP JUMPDEST SWAP3 SWAP2 POP POP JUMP JUMPDEST PUSH1 0x0 PUSH2 0xAA6 PUSH2 0xAA1 DUP5 PUSH2 0xA2C JUMP JUMPDEST PUSH2 0xA11 JUMP JUMPDEST SWAP1 POP DUP1 DUP4 DUP3 MSTORE PUSH1 0x20 DUP3 ADD SWAP1 POP PUSH1 0x20 DUP5 MUL DUP4 ADD DUP6 DUP2 GT ISZERO PUSH2 0xAC9 JUMPI PUSH2 0xAC8 PUSH2 0xA58 JUMP JUMPDEST JUMPDEST DUP4 JUMPDEST DUP2 DUP2 LT ISZERO PUSH2 0xAF2 JUMPI DUP1 PUSH2 0xADE DUP9 DUP3 PUSH2 0xA7E JUMP JUMPDEST DUP5 MSTORE PUSH1 0x20 DUP5 ADD SWAP4 POP POP PUSH1 0x20 DUP2 ADD SWAP1 POP PUSH2 0xACB JUMP JUMPDEST POP POP POP SWAP4 SWAP3 POP POP POP JUMP JUMPDEST PUSH1 0x0 DUP3 PUSH1 0x1F DUP4 ADD SLT PUSH2 0xB11 JUMPI PUSH2 0xB10 PUSH2 0x99B JUMP JUMPDEST JUMPDEST DUP2 CALLDATALOAD PUSH2 0xB21 DUP5 DUP3 PUSH1 0x20 DUP7 ADD PUSH2 0xA93 JUMP JUMPDEST SWAP2 POP POP SWAP3 SWAP2 POP POP JUMP JUMPDEST PUSH1 0x0 PUSH2 0xB35 DUP3 PUSH2 0x8ED JUMP JUMPDEST SWAP1 POP SWAP2 SWAP1 POP JUMP JUMPDEST PUSH2 0xB45 DUP2 PUSH2 0xB2A JUMP JUMPDEST DUP2 EQ PUSH2 0xB50 JUMPI PUSH1 0x0 DUP1 REVERT JUMPDEST POP JUMP JUMPDEST PUSH1 0x0 DUP2 CALLDATALOAD SWAP1 POP PUSH2 0xB62 DUP2 PUSH2 0xB3C JUMP JUMPDEST SWAP3 SWAP2 POP POP JUMP JUMPDEST PUSH1 0x0 DUP1 PUSH1 0x40 DUP4 DUP6 SUB SLT ISZERO PUSH2 0xB7F JUMPI PUSH2 0xB7E PUSH2 0x991 JUMP JUMPDEST JUMPDEST PUSH1 0x0 DUP4 ADD CALLDATALOAD PUSH8 0xFFFFFFFFFFFFFFFF DUP2 GT ISZERO PUSH2 0xB9D JUMPI PUSH2 0xB9C PUSH2 0x996 JUMP JUMPDEST JUMPDEST PUSH2 0xBA9 DUP6 DUP3 DUP7 ADD PUSH2 0xAFC JUMP JUMPDEST SWAP3 POP POP PUSH1 0x20 PUSH2 0xBBA DUP6 DUP3 DUP7 ADD PUSH2 0xB53 JUMP JUMPDEST SWAP2 POP POP SWAP3 POP SWAP3 SWAP1 POP JUMP JUMPDEST PUSH1 0x0 DUP3 DUP3 MSTORE PUSH1 0x20 DUP3 ADD SWAP1 POP SWAP3 SWAP2 POP POP JUMP JUMPDEST PUSH32 0x44617461206C656E67746820666F72204530303031303030315F325F335F3720 PUSH1 0x0 DUP3 ADD MSTORE PUSH32 0x6D75737420626520370000000000000000000000000000000000000000000000 PUSH1 0x20 DUP3 ADD MSTORE POP JUMP JUMPDEST PUSH1 0x0 PUSH2 0xC31 PUSH1 0x29 DUP4 PUSH2 0xBC4 JUMP JUMPDEST SWAP2 POP PUSH2 0xC3C DUP3 PUSH2 0xBD5 JUMP JUMPDEST PUSH1 0x40 DUP3 ADD SWAP1 POP SWAP2 SWAP1 POP JUMP JUMPDEST PUSH1 0x0 PUSH1 0x20 DUP3 ADD SWAP1 POP DUP2 DUP2 SUB PUSH1 0x0 DUP4 ADD MSTORE PUSH2 0xC60 DUP2 PUSH2 0xC24 JUMP JUMPDEST SWAP1 POP SWAP2 SWAP1 POP JUMP JUMPDEST PUSH32 0x4550303031000000000000000000000000000000000000000000000000000000 PUSH1 0x0 DUP3 ADD MSTORE POP JUMP JUMPDEST PUSH1 0x0 PUSH2 0xC9D PUSH1 0x5 DUP4 PUSH2 0xBC4 JUMP JUMPDEST SWAP2 POP PUSH2 0xCA8 DUP3 PUSH2 0xC67 JUMP JUMPDEST PUSH1 0x20 DUP3 ADD SWAP1 POP SWAP2 SWAP1 POP JUMP JUMPDEST PUSH1 0x0 PUSH1 0x20 DUP3 ADD SWAP1 POP DUP2 DUP2 SUB PUSH1 0x0 DUP4 ADD MSTORE PUSH2 0xCCC DUP2 PUSH2 0xC90 JUMP JUMPDEST SWAP1 POP SWAP2 SWAP1 POP JUMP JUMPDEST PUSH1 0x0 DUP2 MLOAD SWAP1 POP PUSH2 0xCE2 DUP2 PUSH2 0xA67 JUMP JUMPDEST SWAP3 SWAP2 POP POP JUMP JUMPDEST PUSH1 0x0 PUSH1 0x20 DUP3 DUP5 SUB SLT ISZERO PUSH2 0xCFE JUMPI PUSH2 0xCFD PUSH2 0x991 JUMP JUMPDEST JUMPDEST PUSH1 0x0 PUSH2 0xD0C DUP5 DUP3 DUP6 ADD PUSH2 0xCD3 JUMP JUMPDEST SWAP2 POP POP SWAP3 SWAP2 POP POP JUMP JUMPDEST PUSH32 0x4E487B7100000000000000000000000000000000000000000000000000000000 PUSH1 0x0 MSTORE PUSH1 0x32 PUSH1 0x4 MSTORE PUSH1 0x24 PUSH1 0x0 REVERT JUMPDEST PUSH32 0x4550303032000000000000000000000000000000000000000000000000000000 PUSH1 0x0 DUP3 ADD MSTORE POP JUMP JUMPDEST PUSH1 0x0 PUSH2 0xD7A PUSH1 0x5 DUP4 PUSH2 0xBC4 JUMP JUMPDEST SWAP2 POP PUSH2 0xD85 DUP3 PUSH2 0xD44 JUMP JUMPDEST PUSH1 0x20 DUP3 ADD SWAP1 POP SWAP2 SWAP1 POP JUMP JUMPDEST PUSH1 0x0 PUSH1 0x20 DUP3 ADD SWAP1 POP DUP2 DUP2 SUB PUSH1 0x0 DUP4 ADD MSTORE PUSH2 0xDA9 DUP2 PUSH2 0xD6D JUMP JUMPDEST SWAP1 POP SWAP2 SWAP1 POP JUMP JUMPDEST PUSH32 0x4550303033000000000000000000000000000000000000000000000000000000 PUSH1 0x0 DUP3 ADD MSTORE POP JUMP JUMPDEST PUSH1 0x0 PUSH2 0xDE6 PUSH1 0x5 DUP4 PUSH2 0xBC4 JUMP JUMPDEST SWAP2 POP PUSH2 0xDF1 DUP3 PUSH2 0xDB0 JUMP JUMPDEST PUSH1 0x20 DUP3 ADD SWAP1 POP SWAP2 SWAP1 POP JUMP JUMPDEST PUSH1 0x0 PUSH1 0x20 DUP3 ADD SWAP1 POP DUP2 DUP2 SUB PUSH1 0x0 DUP4 ADD MSTORE PUSH2 0xE15 DUP2 PUSH2 0xDD9 JUMP JUMPDEST SWAP1 POP SWAP2 SWAP1 POP JUMP JUMPDEST PUSH32 0x4550303034000000000000000000000000000000000000000000000000000000 PUSH1 0x0 DUP3 ADD MSTORE POP JUMP JUMPDEST PUSH1 0x0 PUSH2 0xE52 PUSH1 0x5 DUP4 PUSH2 0xBC4 JUMP JUMPDEST SWAP2 POP PUSH2 0xE5D DUP3 PUSH2 0xE1C JUMP JUMPDEST PUSH1 0x20 DUP3 ADD SWAP1 POP SWAP2 SWAP1 POP JUMP JUMPDEST PUSH1 0x0 PUSH1 0x20 DUP3 ADD SWAP1 POP DUP2 DUP2 SUB PUSH1 0x0 DUP4 ADD MSTORE PUSH2 0xE81 DUP2 PUSH2 0xE45 JUMP JUMPDEST SWAP1 POP SWAP2 SWAP1 POP JUMP JUMPDEST PUSH32 0x7472616E735F74696D6500000000000000000000000000000000000000000000 PUSH1 0x0 DUP3 ADD MSTORE POP JUMP JUMPDEST PUSH1 0x0 PUSH2 0xEBE PUSH1 0xA DUP4 PUSH2 0xBC4 JUMP JUMPDEST SWAP2 POP PUSH2 0xEC9 DUP3 PUSH2 0xE88 JUMP JUMPDEST PUSH1 0x20 DUP3 ADD SWAP1 POP SWAP2 SWAP1 POP JUMP JUMPDEST PUSH1 0x0 PUSH1 0x20 DUP3 ADD SWAP1 POP DUP2 DUP2 SUB PUSH1 0x0 DUP4 ADD MSTORE PUSH2 0xEED DUP2 PUSH2 0xEB1 JUMP JUMPDEST SWAP1 POP SWAP2 SWAP1 POP JUMP JUMPDEST PUSH32 0x4550303036000000000000000000000000000000000000000000000000000000 PUSH1 0x0 DUP3 ADD MSTORE POP JUMP JUMPDEST PUSH1 0x0 PUSH2 0xF2A PUSH1 0x5 DUP4 PUSH2 0xBC4 JUMP JUMPDEST SWAP2 POP PUSH2 0xF35 DUP3 PUSH2 0xEF4 JUMP JUMPDEST PUSH1 0x20 DUP3 ADD SWAP1 POP SWAP2 SWAP1 POP JUMP JUMPDEST PUSH1 0x0 PUSH1 0x20 DUP3 ADD SWAP1 POP DUP2 DUP2 SUB PUSH1 0x0 DUP4 ADD MSTORE PUSH2 0xF59 DUP2 PUSH2 0xF1D JUMP JUMPDEST SWAP1 POP SWAP2 SWAP1 POP JUMP JUMPDEST PUSH32 0x4550303037000000000000000000000000000000000000000000000000000000 PUSH1 0x0 DUP3 ADD MSTORE POP JUMP JUMPDEST PUSH1 0x0 PUSH2 0xF96 PUSH1 0x5 DUP4 PUSH2 0xBC4 JUMP JUMPDEST SWAP2 POP PUSH2 0xFA1 DUP3 PUSH2 0xF60 JUMP JUMPDEST PUSH1 0x20 DUP3 ADD SWAP1 POP SWAP2 SWAP1 POP JUMP JUMPDEST PUSH1 0x0 PUSH1 0x20 DUP3 ADD SWAP1 POP DUP2 DUP2 SUB PUSH1 0x0 DUP4 ADD MSTORE PUSH2 0xFC5 DUP2 PUSH2 0xF89 JUMP JUMPDEST SWAP1 POP SWAP2 SWAP1 POP JUMP JUMPDEST PUSH2 0xFD5 DUP2 PUSH2 0xA5D JUMP JUMPDEST DUP3 MSTORE POP POP JUMP JUMPDEST PUSH2 0xFE4 DUP2 PUSH2 0xB2A JUMP JUMPDEST DUP3 MSTORE POP POP JUMP JUMPDEST PUSH1 0x0 DUP2 MLOAD SWAP1 POP SWAP2 SWAP1 POP JUMP JUMPDEST PUSH1 0x0 DUP3 DUP3 MSTORE PUSH1 0x20 DUP3 ADD SWAP1 POP SWAP3 SWAP2 POP POP JUMP JUMPDEST PUSH1 0x0 DUP2 SWAP1 POP PUSH1 0x20 DUP3 ADD SWAP1 POP SWAP2 SWAP1 POP JUMP JUMPDEST PUSH2 0x101F DUP2 PUSH2 0xA5D JUMP JUMPDEST DUP3 MSTORE POP POP JUMP JUMPDEST PUSH1 0x0 PUSH2 0x1031 DUP4 DUP4 PUSH2 0x1016 JUMP JUMPDEST PUSH1 0x20 DUP4 ADD SWAP1 POP SWAP3 SWAP2 POP POP JUMP JUMPDEST PUSH1 0x0 PUSH1 0x20 DUP3 ADD SWAP1 POP SWAP2 SWAP1 POP JUMP JUMPDEST PUSH1 0x0 PUSH2 0x1055 DUP3 PUSH2 0xFEA JUMP JUMPDEST PUSH2 0x105F DUP2 DUP6 PUSH2 0xFF5 JUMP JUMPDEST SWAP4 POP PUSH2 0x106A DUP4 PUSH2 0x1006 JUMP JUMPDEST DUP1 PUSH1 0x0 JUMPDEST DUP4 DUP2 LT ISZERO PUSH2 0x109B JUMPI DUP2 MLOAD PUSH2 0x1082 DUP9 DUP3 PUSH2 0x1025 JUMP JUMPDEST SWAP8 POP PUSH2 0x108D DUP4 PUSH2 0x103D JUMP JUMPDEST SWAP3 POP POP PUSH1 0x1 DUP2 ADD SWAP1 POP PUSH2 0x106E JUMP JUMPDEST POP DUP6 SWAP4 POP POP POP POP SWAP3 SWAP2 POP POP JUMP JUMPDEST PUSH1 0x0 DUP2 MLOAD SWAP1 POP SWAP2 SWAP1 POP JUMP JUMPDEST PUSH1 0x0 DUP3 DUP3 MSTORE PUSH1 0x20 DUP3 ADD SWAP1 POP SWAP3 SWAP2 POP POP JUMP JUMPDEST PUSH1 0x0 DUP2 SWAP1 POP PUSH1 0x20 DUP3 ADD SWAP1 POP SWAP2 SWAP1 POP JUMP JUMPDEST PUSH1 0x0 DUP2 SWAP1 POP SWAP2 SWAP1 POP JUMP JUMPDEST PUSH2 0x10E7 DUP2 PUSH2 0x10D4 JUMP JUMPDEST DUP3 MSTORE POP POP JUMP JUMPDEST PUSH1 0x0 PUSH2 0x10F9 DUP4 DUP4 PUSH2 0x10DE JUMP JUMPDEST PUSH1 0x20 DUP4 ADD SWAP1 POP SWAP3 SWAP2 POP POP JUMP JUMPDEST PUSH1 0x0 PUSH1 0x20 DUP3 ADD SWAP1 POP SWAP2 SWAP1 POP JUMP JUMPDEST PUSH1 0x0 PUSH2 0x111D DUP3 PUSH2 0x10A8 JUMP JUMPDEST PUSH2 0x1127 DUP2 DUP6 PUSH2 0x10B3 JUMP JUMPDEST SWAP4 POP PUSH2 0x1132 DUP4 PUSH2 0x10C4 JUMP JUMPDEST DUP1 PUSH1 0x0 JUMPDEST DUP4 DUP2 LT ISZERO PUSH2 0x1163 JUMPI DUP2 MLOAD PUSH2 0x114A DUP9 DUP3 PUSH2 0x10ED JUMP JUMPDEST SWAP8 POP PUSH2 0x1155 DUP4 PUSH2 0x1105 JUMP JUMPDEST SWAP3 POP POP PUSH1 0x1 DUP2 ADD SWAP1 POP PUSH2 0x1136 JUMP JUMPDEST POP DUP6 SWAP4 POP POP POP POP SWAP3 SWAP2 POP POP JUMP JUMPDEST PUSH1 0x0 PUSH1 0xA0 DUP3 ADD SWAP1 POP PUSH2 0x1185 PUSH1 0x0 DUP4 ADD DUP9 PUSH2 0xFCC JUMP JUMPDEST PUSH2 0x1192 PUSH1 0x20 DUP4 ADD DUP8 PUSH2 0xFCC JUMP JUMPDEST PUSH2 0x119F PUSH1 0x40 DUP4 ADD DUP7 PUSH2 0xFDB JUMP JUMPDEST DUP2 DUP2 SUB PUSH1 0x60 DUP4 ADD MSTORE PUSH2 0x11B1 DUP2 DUP6 PUSH2 0x104A JUMP JUMPDEST SWAP1 POP DUP2 DUP2 SUB PUSH1 0x80 DUP4 ADD MSTORE PUSH2 0x11C5 DUP2 DUP5 PUSH2 0x1112 JUMP JUMPDEST SWAP1 POP SWAP7 SWAP6 POP POP POP POP POP POP JUMP INVALID LOG2 PUSH5 0x6970667358 0x22 SLT KECCAK256 PUSH8 0x8A0CC9189ADC11E9 0x4D SWAP6 0x28 PUSH17 0xA6F25A7FD6FD328EFA33C516EC18CE35A 0xDD 0xB5 PUSH5 0x736F6C6343 STOP ADDMOD SLT STOP CALLER "
				},
				"gasEstimates": {
					"creation": {
						"codeDepositCost": "923000",
						"executionCost": "infinite",
						"totalCost": "infinite"
					},
					"external": {
						"Iparser()": "infinite",
						"processTransaction(bytes32[],address)": "infinite"
					}
				},
				"methodIdentifiers": {
					"Iparser()": "e064d199",
					"processTransaction(bytes32[],address)": "e91046a9"
				}
			},
			"storageLayout": {
				"storage": [
					{
						"astId": 8,
						"contract": "contracts/E00010004_8_Handler.sol:E00010004_8_Processor",
						"label": "Iparser",
						"offset": 0,
						"slot": "0",
						"type": "t_contract(IParser)725"
					},
					{
						"astId": 11,
						"contract": "contracts/E00010004_8_Handler.sol:E00010004_8_Processor",
						"label": "transactionContract",
						"offset": 0,
						"slot": "1",
						"type": "t_contract(TransactionContract)690"
					}
				],
				"types": {
					"t_contract(IParser)725": {
						"encoding": "inplace",
						"label": "contract IParser",
						"numberOfBytes": "20"
					},
					"t_contract(TransactionContract)690": {
						"encoding": "inplace",
						"label": "contract TransactionContract",
						"numberOfBytes": "20"
					}
				}
			},
			"userdoc": {
				"kind": "user",
				"methods": {},
				"version": 1
			}
		}
	}
}