{
	"contracts/transactionHandlers.sol": {
		"E00010001Processor": {
			"abi": [
				{
					"inputs": [
						{
							"internalType": "address",
							"name": "_parser",
							"type": "address"
						}
					],
					"stateMutability": "nonpayable",
					"type": "constructor"
				},
				{
					"inputs": [],
					"name": "Iparser",
					"outputs": [
						{
							"internalType": "contract IParser",
							"name": "",
							"type": "address"
						}
					],
					"stateMutability": "view",
					"type": "function"
				},
				{
					"inputs": [
						{
							"internalType": "bytes32[]",
							"name": "data",
							"type": "bytes32[]"
						}
					],
					"name": "processTransaction",
					"outputs": [],
					"stateMutability": "nonpayable",
					"type": "function"
				},
				{
					"inputs": [
						{
							"internalType": "uint256",
							"name": "",
							"type": "uint256"
						}
					],
					"name": "transactions",
					"outputs": [
						{
							"internalType": "bytes32",
							"name": "eventId",
							"type": "bytes32"
						},
						{
							"internalType": "bytes32",
							"name": "transactionType",
							"type": "bytes32"
						},
						{
							"internalType": "address",
							"name": "Recorder",
							"type": "address"
						}
					],
					"stateMutability": "view",
					"type": "function"
				}
			],
			"devdoc": {
				"kind": "dev",
				"methods": {},
				"version": 1
			},
			"evm": {
				"assembly": "    /* \"contracts/transactionHandlers.sol\":244:1290  contract E00010001Processor{... */\n  mstore(0x40, 0x80)\n    /* \"contracts/transactionHandlers.sol\":344:416  constructor(address _parser) {... */\n  callvalue\n  dup1\n  iszero\n  tag_1\n  jumpi\n  0x00\n  dup1\n  revert\ntag_1:\n  pop\n  mload(0x40)\n  sub(codesize, bytecodeSize)\n  dup1\n  bytecodeSize\n  dup4\n  codecopy\n  dup2\n  dup2\n  add\n  0x40\n  mstore\n  dup2\n  add\n  swap1\n  tag_2\n  swap2\n  swap1\n  tag_3\n  jump\t// in\ntag_2:\n    /* \"contracts/transactionHandlers.sol\":401:408  _parser */\n  dup1\n    /* \"contracts/transactionHandlers.sol\":383:390  Iparser */\n  0x01\n  0x00\n    /* \"contracts/transactionHandlers.sol\":383:409  Iparser = IParser(_parser) */\n  0x0100\n  exp\n  dup2\n  sload\n  dup2\n  0xffffffffffffffffffffffffffffffffffffffff\n  mul\n  not\n  and\n  swap1\n  dup4\n  0xffffffffffffffffffffffffffffffffffffffff\n  and\n  mul\n  or\n  swap1\n  sstore\n  pop\n    /* \"contracts/transactionHandlers.sol\":344:416  constructor(address _parser) {... */\n  pop\n    /* \"contracts/transactionHandlers.sol\":244:1290  contract E00010001Processor{... */\n  jump(tag_6)\n    /* \"#utility.yul\":88:205   */\ntag_8:\n    /* \"#utility.yul\":197:198   */\n  0x00\n    /* \"#utility.yul\":194:195   */\n  dup1\n    /* \"#utility.yul\":187:199   */\n  revert\n    /* \"#utility.yul\":334:460   */\ntag_10:\n    /* \"#utility.yul\":371:378   */\n  0x00\n    /* \"#utility.yul\":411:453   */\n  0xffffffffffffffffffffffffffffffffffffffff\n    /* \"#utility.yul\":404:409   */\n  dup3\n    /* \"#utility.yul\":400:454   */\n  and\n    /* \"#utility.yul\":389:454   */\n  swap1\n  pop\n    /* \"#utility.yul\":334:460   */\n  swap2\n  swap1\n  pop\n  jump\t// out\n    /* \"#utility.yul\":466:562   */\ntag_11:\n    /* \"#utility.yul\":503:510   */\n  0x00\n    /* \"#utility.yul\":532:556   */\n  tag_20\n    /* \"#utility.yul\":550:555   */\n  dup3\n    /* \"#utility.yul\":532:556   */\n  tag_10\n  jump\t// in\ntag_20:\n    /* \"#utility.yul\":521:556   */\n  swap1\n  pop\n    /* \"#utility.yul\":466:562   */\n  swap2\n  swap1\n  pop\n  jump\t// out\n    /* \"#utility.yul\":568:690   */\ntag_12:\n    /* \"#utility.yul\":641:665   */\n  tag_22\n    /* \"#utility.yul\":659:664   */\n  dup2\n    /* \"#utility.yul\":641:665   */\n  tag_11\n  jump\t// in\ntag_22:\n    /* \"#utility.yul\":634:639   */\n  dup2\n    /* \"#utility.yul\":631:666   */\n  eq\n    /* \"#utility.yul\":621:684   */\n  tag_23\n  jumpi\n    /* \"#utility.yul\":680:681   */\n  0x00\n    /* \"#utility.yul\":677:678   */\n  dup1\n    /* \"#utility.yul\":670:682   */\n  revert\n    /* \"#utility.yul\":621:684   */\ntag_23:\n    /* \"#utility.yul\":568:690   */\n  pop\n  jump\t// out\n    /* \"#utility.yul\":696:839   */\ntag_13:\n    /* \"#utility.yul\":753:758   */\n  0x00\n    /* \"#utility.yul\":784:790   */\n  dup2\n    /* \"#utility.yul\":778:791   */\n  mload\n    /* \"#utility.yul\":769:791   */\n  swap1\n  pop\n    /* \"#utility.yul\":800:833   */\n  tag_25\n    /* \"#utility.yul\":827:832   */\n  dup2\n    /* \"#utility.yul\":800:833   */\n  tag_12\n  jump\t// in\ntag_25:\n    /* \"#utility.yul\":696:839   */\n  swap3\n  swap2\n  pop\n  pop\n  jump\t// out\n    /* \"#utility.yul\":845:1196   */\ntag_3:\n    /* \"#utility.yul\":915:921   */\n  0x00\n    /* \"#utility.yul\":964:966   */\n  0x20\n    /* \"#utility.yul\":952:961   */\n  dup3\n    /* \"#utility.yul\":943:950   */\n  dup5\n    /* \"#utility.yul\":939:962   */\n  sub\n    /* \"#utility.yul\":935:967   */\n  slt\n    /* \"#utility.yul\":932:1051   */\n  iszero\n  tag_27\n  jumpi\n    /* \"#utility.yul\":970:1049   */\n  tag_28\n  tag_8\n  jump\t// in\ntag_28:\n    /* \"#utility.yul\":932:1051   */\ntag_27:\n    /* \"#utility.yul\":1090:1091   */\n  0x00\n    /* \"#utility.yul\":1115:1179   */\n  tag_29\n    /* \"#utility.yul\":1171:1178   */\n  dup5\n    /* \"#utility.yul\":1162:1168   */\n  dup3\n    /* \"#utility.yul\":1151:1160   */\n  dup6\n    /* \"#utility.yul\":1147:1169   */\n  add\n    /* \"#utility.yul\":1115:1179   */\n  tag_13\n  jump\t// in\ntag_29:\n    /* \"#utility.yul\":1105:1179   */\n  swap2\n  pop\n    /* \"#utility.yul\":1061:1189   */\n  pop\n    /* \"#utility.yul\":845:1196   */\n  swap3\n  swap2\n  pop\n  pop\n  jump\t// out\n    /* \"contracts/transactionHandlers.sol\":244:1290  contract E00010001Processor{... */\ntag_6:\n  dataSize(sub_0)\n  dup1\n  dataOffset(sub_0)\n  0x00\n  codecopy\n  0x00\n  return\nstop\n\nsub_0: assembly {\n        /* \"contracts/transactionHandlers.sol\":244:1290  contract E00010001Processor{... */\n      mstore(0x40, 0x80)\n      callvalue\n      dup1\n      iszero\n      tag_1\n      jumpi\n      0x00\n      dup1\n      revert\n    tag_1:\n      pop\n      jumpi(tag_2, lt(calldatasize, 0x04))\n      shr(0xe0, calldataload(0x00))\n      dup1\n      0x9ace38c2\n      eq\n      tag_3\n      jumpi\n      dup1\n      0xcfbcab23\n      eq\n      tag_4\n      jumpi\n      dup1\n      0xe064d199\n      eq\n      tag_5\n      jumpi\n    tag_2:\n      0x00\n      dup1\n      revert\n        /* \"contracts/transactionHandlers.sol\":277:310  Transaction[] public transactions */\n    tag_3:\n      tag_6\n      0x04\n      dup1\n      calldatasize\n      sub\n      dup2\n      add\n      swap1\n      tag_7\n      swap2\n      swap1\n      tag_8\n      jump\t// in\n    tag_7:\n      tag_9\n      jump\t// in\n    tag_6:\n      mload(0x40)\n      tag_10\n      swap4\n      swap3\n      swap2\n      swap1\n      tag_11\n      jump\t// in\n    tag_10:\n      mload(0x40)\n      dup1\n      swap2\n      sub\n      swap1\n      return\n        /* \"contracts/transactionHandlers.sol\":421:1288  function processTransaction(bytes32[] calldata data) external {... */\n    tag_4:\n      tag_12\n      0x04\n      dup1\n      calldatasize\n      sub\n      dup2\n      add\n      swap1\n      tag_13\n      swap2\n      swap1\n      tag_14\n      jump\t// in\n    tag_13:\n      tag_15\n      jump\t// in\n    tag_12:\n      stop\n        /* \"contracts/transactionHandlers.sol\":316:338  IParser public Iparser */\n    tag_5:\n      tag_16\n      tag_17\n      jump\t// in\n    tag_16:\n      mload(0x40)\n      tag_18\n      swap2\n      swap1\n      tag_19\n      jump\t// in\n    tag_18:\n      mload(0x40)\n      dup1\n      swap2\n      sub\n      swap1\n      return\n        /* \"contracts/transactionHandlers.sol\":277:310  Transaction[] public transactions */\n    tag_9:\n      0x00\n      dup2\n      dup2\n      sload\n      dup2\n      lt\n      tag_20\n      jumpi\n      0x00\n      dup1\n      revert\n    tag_20:\n      swap1\n      0x00\n      mstore\n      keccak256(0x00, 0x20)\n      swap1\n      0x04\n      mul\n      add\n      0x00\n      swap2\n      pop\n      swap1\n      pop\n      dup1\n      0x00\n      add\n      sload\n      swap1\n      dup1\n      0x01\n      add\n      sload\n      swap1\n      dup1\n      0x02\n      add\n      0x00\n      swap1\n      sload\n      swap1\n      0x0100\n      exp\n      swap1\n      div\n      0xffffffffffffffffffffffffffffffffffffffff\n      and\n      swap1\n      pop\n      dup4\n      jump\t// out\n        /* \"contracts/transactionHandlers.sol\":421:1288  function processTransaction(bytes32[] calldata data) external {... */\n    tag_15:\n        /* \"contracts/transactionHandlers.sol\":516:517  6 */\n      0x06\n        /* \"contracts/transactionHandlers.sol\":501:505  data */\n      dup3\n      dup3\n        /* \"contracts/transactionHandlers.sol\":501:512  data.length */\n      swap1\n      pop\n        /* \"contracts/transactionHandlers.sol\":501:517  data.length == 6 */\n      eq\n        /* \"contracts/transactionHandlers.sol\":493:563  require(data.length == 6, \"Data length for E00010001_2_3_7 must be 6\") */\n      tag_23\n      jumpi\n      mload(0x40)\n      0x08c379a000000000000000000000000000000000000000000000000000000000\n      dup2\n      mstore\n      0x04\n      add\n      tag_24\n      swap1\n      tag_25\n      jump\t// in\n    tag_24:\n      mload(0x40)\n      dup1\n      swap2\n      sub\n      swap1\n      revert\n    tag_23:\n        /* \"contracts/transactionHandlers.sol\":574:587  uint256 index */\n      0x00\n        /* \"contracts/transactionHandlers.sol\":590:602  transactions */\n      dup1\n        /* \"contracts/transactionHandlers.sol\":590:609  transactions.length */\n      dup1\n      sload\n      swap1\n      pop\n        /* \"contracts/transactionHandlers.sol\":574:609  uint256 index = transactions.length */\n      swap1\n      pop\n        /* \"contracts/transactionHandlers.sol\":619:631  transactions */\n      0x00\n        /* \"contracts/transactionHandlers.sol\":619:638  transactions.push() */\n      0x01\n      dup2\n      0x01\n      dup2\n      sload\n      add\n      dup1\n      dup3\n      sstore\n      dup1\n      swap2\n      pop\n      pop\n      sub\n      swap1\n      0x00\n      mstore\n      keccak256(0x00, 0x20)\n      swap1\n      pop\n      pop\n        /* \"contracts/transactionHandlers.sol\":648:679  Transaction storage transaction */\n      0x00\n        /* \"contracts/transactionHandlers.sol\":682:694  transactions */\n      dup1\n        /* \"contracts/transactionHandlers.sol\":695:700  index */\n      dup3\n        /* \"contracts/transactionHandlers.sol\":682:701  transactions[index] */\n      dup2\n      sload\n      dup2\n      lt\n      tag_27\n      jumpi\n      tag_28\n      tag_29\n      jump\t// in\n    tag_28:\n    tag_27:\n      swap1\n      0x00\n      mstore\n      keccak256(0x00, 0x20)\n      swap1\n      0x04\n      mul\n      add\n        /* \"contracts/transactionHandlers.sol\":648:701  Transaction storage transaction = transactions[index] */\n      swap1\n      pop\n        /* \"contracts/transactionHandlers.sol\":734:738  data */\n      dup4\n      dup4\n        /* \"contracts/transactionHandlers.sol\":739:740  0 */\n      0x00\n        /* \"contracts/transactionHandlers.sol\":734:741  data[0] */\n      dup2\n      dup2\n      lt\n      tag_31\n      jumpi\n      tag_32\n      tag_29\n      jump\t// in\n    tag_32:\n    tag_31:\n      swap1\n      pop\n      0x20\n      mul\n      add\n      calldataload\n        /* \"contracts/transactionHandlers.sol\":712:723  transaction */\n      dup2\n        /* \"contracts/transactionHandlers.sol\":712:731  transaction.eventId */\n      0x00\n      add\n        /* \"contracts/transactionHandlers.sol\":712:741  transaction.eventId = data[0] */\n      dup2\n      swap1\n      sstore\n      pop\n        /* \"contracts/transactionHandlers.sol\":781:785  data */\n      dup4\n      dup4\n        /* \"contracts/transactionHandlers.sol\":786:787  1 */\n      0x01\n        /* \"contracts/transactionHandlers.sol\":781:788  data[1] */\n      dup2\n      dup2\n      lt\n      tag_33\n      jumpi\n      tag_34\n      tag_29\n      jump\t// in\n    tag_34:\n    tag_33:\n      swap1\n      pop\n      0x20\n      mul\n      add\n      calldataload\n        /* \"contracts/transactionHandlers.sol\":751:762  transaction */\n      dup2\n        /* \"contracts/transactionHandlers.sol\":751:778  transaction.transactionType */\n      0x01\n      add\n        /* \"contracts/transactionHandlers.sol\":751:788  transaction.transactionType = data[1] */\n      dup2\n      swap1\n      sstore\n      pop\n        /* \"contracts/transactionHandlers.sol\":821:831  msg.sender */\n      caller\n        /* \"contracts/transactionHandlers.sol\":798:809  transaction */\n      dup2\n        /* \"contracts/transactionHandlers.sol\":798:818  transaction.Recorder */\n      0x02\n      add\n      0x00\n        /* \"contracts/transactionHandlers.sol\":798:831  transaction.Recorder = msg.sender */\n      0x0100\n      exp\n      dup2\n      sload\n      dup2\n      0xffffffffffffffffffffffffffffffffffffffff\n      mul\n      not\n      and\n      swap1\n      dup4\n      0xffffffffffffffffffffffffffffffffffffffff\n      and\n      mul\n      or\n      swap1\n      sstore\n      pop\n        /* \"contracts/transactionHandlers.sol\":912:916  data */\n      dup4\n      dup4\n        /* \"contracts/transactionHandlers.sol\":917:918  2 */\n      0x02\n        /* \"contracts/transactionHandlers.sol\":912:919  data[2] */\n      dup2\n      dup2\n      lt\n      tag_35\n      jumpi\n      tag_36\n      tag_29\n      jump\t// in\n    tag_36:\n    tag_35:\n      swap1\n      pop\n      0x20\n      mul\n      add\n      calldataload\n        /* \"contracts/transactionHandlers.sol\":904:920  uint256(data[2]) */\n      0x00\n      shr\n        /* \"contracts/transactionHandlers.sol\":842:853  transaction */\n      dup2\n        /* \"contracts/transactionHandlers.sol\":842:860  transaction.params */\n      0x03\n      add\n        /* \"contracts/transactionHandlers.sol\":842:894  transaction.params[Iparser.stringToBytes32(\"EP001\")] */\n      0x00\n        /* \"contracts/transactionHandlers.sol\":861:868  Iparser */\n      0x01\n      0x00\n      swap1\n      sload\n      swap1\n      0x0100\n      exp\n      swap1\n      div\n      0xffffffffffffffffffffffffffffffffffffffff\n      and\n        /* \"contracts/transactionHandlers.sol\":861:884  Iparser.stringToBytes32 */\n      0xffffffffffffffffffffffffffffffffffffffff\n      and\n      0xcfb51928\n        /* \"contracts/transactionHandlers.sol\":861:893  Iparser.stringToBytes32(\"EP001\") */\n      mload(0x40)\n      dup2\n      0xffffffff\n      and\n      0xe0\n      shl\n      dup2\n      mstore\n      0x04\n      add\n      tag_37\n      swap1\n      tag_38\n      jump\t// in\n    tag_37:\n      0x20\n      mload(0x40)\n      dup1\n      dup4\n      sub\n      dup2\n      dup7\n      gas\n      staticcall\n      iszero\n      dup1\n      iszero\n      tag_40\n      jumpi\n      returndatasize\n      0x00\n      dup1\n      returndatacopy\n      revert(0x00, returndatasize)\n    tag_40:\n      pop\n      pop\n      pop\n      pop\n      mload(0x40)\n      returndatasize\n      not(0x1f)\n      0x1f\n      dup3\n      add\n      and\n      dup3\n      add\n      dup1\n      0x40\n      mstore\n      pop\n      dup2\n      add\n      swap1\n      tag_41\n      swap2\n      swap1\n      tag_42\n      jump\t// in\n    tag_41:\n        /* \"contracts/transactionHandlers.sol\":842:894  transaction.params[Iparser.stringToBytes32(\"EP001\")] */\n      dup2\n      mstore\n      0x20\n      add\n      swap1\n      dup2\n      mstore\n      0x20\n      add\n      0x00\n      keccak256\n        /* \"contracts/transactionHandlers.sol\":842:921  transaction.params[Iparser.stringToBytes32(\"EP001\")] = int256(uint256(data[2])) */\n      dup2\n      swap1\n      sstore\n      pop\n        /* \"contracts/transactionHandlers.sol\":1001:1005  data */\n      dup4\n      dup4\n        /* \"contracts/transactionHandlers.sol\":1006:1007  3 */\n      0x03\n        /* \"contracts/transactionHandlers.sol\":1001:1008  data[3] */\n      dup2\n      dup2\n      lt\n      tag_43\n      jumpi\n      tag_44\n      tag_29\n      jump\t// in\n    tag_44:\n    tag_43:\n      swap1\n      pop\n      0x20\n      mul\n      add\n      calldataload\n        /* \"contracts/transactionHandlers.sol\":993:1009  uint256(data[3]) */\n      0x00\n      shr\n        /* \"contracts/transactionHandlers.sol\":931:942  transaction */\n      dup2\n        /* \"contracts/transactionHandlers.sol\":931:949  transaction.params */\n      0x03\n      add\n        /* \"contracts/transactionHandlers.sol\":931:983  transaction.params[Iparser.stringToBytes32(\"EP002\")] */\n      0x00\n        /* \"contracts/transactionHandlers.sol\":950:957  Iparser */\n      0x01\n      0x00\n      swap1\n      sload\n      swap1\n      0x0100\n      exp\n      swap1\n      div\n      0xffffffffffffffffffffffffffffffffffffffff\n      and\n        /* \"contracts/transactionHandlers.sol\":950:973  Iparser.stringToBytes32 */\n      0xffffffffffffffffffffffffffffffffffffffff\n      and\n      0xcfb51928\n        /* \"contracts/transactionHandlers.sol\":950:982  Iparser.stringToBytes32(\"EP002\") */\n      mload(0x40)\n      dup2\n      0xffffffff\n      and\n      0xe0\n      shl\n      dup2\n      mstore\n      0x04\n      add\n      tag_45\n      swap1\n      tag_46\n      jump\t// in\n    tag_45:\n      0x20\n      mload(0x40)\n      dup1\n      dup4\n      sub\n      dup2\n      dup7\n      gas\n      staticcall\n      iszero\n      dup1\n      iszero\n      tag_48\n      jumpi\n      returndatasize\n      0x00\n      dup1\n      returndatacopy\n      revert(0x00, returndatasize)\n    tag_48:\n      pop\n      pop\n      pop\n      pop\n      mload(0x40)\n      returndatasize\n      not(0x1f)\n      0x1f\n      dup3\n      add\n      and\n      dup3\n      add\n      dup1\n      0x40\n      mstore\n      pop\n      dup2\n      add\n      swap1\n      tag_49\n      swap2\n      swap1\n      tag_42\n      jump\t// in\n    tag_49:\n        /* \"contracts/transactionHandlers.sol\":931:983  transaction.params[Iparser.stringToBytes32(\"EP002\")] */\n      dup2\n      mstore\n      0x20\n      add\n      swap1\n      dup2\n      mstore\n      0x20\n      add\n      0x00\n      keccak256\n        /* \"contracts/transactionHandlers.sol\":931:1010  transaction.params[Iparser.stringToBytes32(\"EP002\")] = int256(uint256(data[3])) */\n      dup2\n      swap1\n      sstore\n      pop\n        /* \"contracts/transactionHandlers.sol\":1090:1094  data */\n      dup4\n      dup4\n        /* \"contracts/transactionHandlers.sol\":1095:1096  4 */\n      0x04\n        /* \"contracts/transactionHandlers.sol\":1090:1097  data[4] */\n      dup2\n      dup2\n      lt\n      tag_50\n      jumpi\n      tag_51\n      tag_29\n      jump\t// in\n    tag_51:\n    tag_50:\n      swap1\n      pop\n      0x20\n      mul\n      add\n      calldataload\n        /* \"contracts/transactionHandlers.sol\":1082:1098  uint256(data[4]) */\n      0x00\n      shr\n        /* \"contracts/transactionHandlers.sol\":1020:1031  transaction */\n      dup2\n        /* \"contracts/transactionHandlers.sol\":1020:1038  transaction.params */\n      0x03\n      add\n        /* \"contracts/transactionHandlers.sol\":1020:1072  transaction.params[Iparser.stringToBytes32(\"EP003\")] */\n      0x00\n        /* \"contracts/transactionHandlers.sol\":1039:1046  Iparser */\n      0x01\n      0x00\n      swap1\n      sload\n      swap1\n      0x0100\n      exp\n      swap1\n      div\n      0xffffffffffffffffffffffffffffffffffffffff\n      and\n        /* \"contracts/transactionHandlers.sol\":1039:1062  Iparser.stringToBytes32 */\n      0xffffffffffffffffffffffffffffffffffffffff\n      and\n      0xcfb51928\n        /* \"contracts/transactionHandlers.sol\":1039:1071  Iparser.stringToBytes32(\"EP003\") */\n      mload(0x40)\n      dup2\n      0xffffffff\n      and\n      0xe0\n      shl\n      dup2\n      mstore\n      0x04\n      add\n      tag_52\n      swap1\n      tag_53\n      jump\t// in\n    tag_52:\n      0x20\n      mload(0x40)\n      dup1\n      dup4\n      sub\n      dup2\n      dup7\n      gas\n      staticcall\n      iszero\n      dup1\n      iszero\n      tag_55\n      jumpi\n      returndatasize\n      0x00\n      dup1\n      returndatacopy\n      revert(0x00, returndatasize)\n    tag_55:\n      pop\n      pop\n      pop\n      pop\n      mload(0x40)\n      returndatasize\n      not(0x1f)\n      0x1f\n      dup3\n      add\n      and\n      dup3\n      add\n      dup1\n      0x40\n      mstore\n      pop\n      dup2\n      add\n      swap1\n      tag_56\n      swap2\n      swap1\n      tag_42\n      jump\t// in\n    tag_56:\n        /* \"contracts/transactionHandlers.sol\":1020:1072  transaction.params[Iparser.stringToBytes32(\"EP003\")] */\n      dup2\n      mstore\n      0x20\n      add\n      swap1\n      dup2\n      mstore\n      0x20\n      add\n      0x00\n      keccak256\n        /* \"contracts/transactionHandlers.sol\":1020:1099  transaction.params[Iparser.stringToBytes32(\"EP003\")] = int256(uint256(data[4])) */\n      dup2\n      swap1\n      sstore\n      pop\n        /* \"contracts/transactionHandlers.sol\":1176:1191  block.timestamp */\n      timestamp\n        /* \"contracts/transactionHandlers.sol\":1109:1120  transaction */\n      dup2\n        /* \"contracts/transactionHandlers.sol\":1109:1127  transaction.params */\n      0x03\n      add\n        /* \"contracts/transactionHandlers.sol\":1109:1166  transaction.params[Iparser.stringToBytes32(\"trans_time\")] */\n      0x00\n        /* \"contracts/transactionHandlers.sol\":1128:1135  Iparser */\n      0x01\n      0x00\n      swap1\n      sload\n      swap1\n      0x0100\n      exp\n      swap1\n      div\n      0xffffffffffffffffffffffffffffffffffffffff\n      and\n        /* \"contracts/transactionHandlers.sol\":1128:1151  Iparser.stringToBytes32 */\n      0xffffffffffffffffffffffffffffffffffffffff\n      and\n      0xcfb51928\n        /* \"contracts/transactionHandlers.sol\":1128:1165  Iparser.stringToBytes32(\"trans_time\") */\n      mload(0x40)\n      dup2\n      0xffffffff\n      and\n      0xe0\n      shl\n      dup2\n      mstore\n      0x04\n      add\n      tag_57\n      swap1\n      tag_58\n      jump\t// in\n    tag_57:\n      0x20\n      mload(0x40)\n      dup1\n      dup4\n      sub\n      dup2\n      dup7\n      gas\n      staticcall\n      iszero\n      dup1\n      iszero\n      tag_60\n      jumpi\n      returndatasize\n      0x00\n      dup1\n      returndatacopy\n      revert(0x00, returndatasize)\n    tag_60:\n      pop\n      pop\n      pop\n      pop\n      mload(0x40)\n      returndatasize\n      not(0x1f)\n      0x1f\n      dup3\n      add\n      and\n      dup3\n      add\n      dup1\n      0x40\n      mstore\n      pop\n      dup2\n      add\n      swap1\n      tag_61\n      swap2\n      swap1\n      tag_42\n      jump\t// in\n    tag_61:\n        /* \"contracts/transactionHandlers.sol\":1109:1166  transaction.params[Iparser.stringToBytes32(\"trans_time\")] */\n      dup2\n      mstore\n      0x20\n      add\n      swap1\n      dup2\n      mstore\n      0x20\n      add\n      0x00\n      keccak256\n        /* \"contracts/transactionHandlers.sol\":1109:1192  transaction.params[Iparser.stringToBytes32(\"trans_time\")] = int256(block.timestamp) */\n      dup2\n      swap1\n      sstore\n      pop\n        /* \"contracts/transactionHandlers.sol\":1272:1276  data */\n      dup4\n      dup4\n        /* \"contracts/transactionHandlers.sol\":1277:1278  5 */\n      0x05\n        /* \"contracts/transactionHandlers.sol\":1272:1279  data[5] */\n      dup2\n      dup2\n      lt\n      tag_62\n      jumpi\n      tag_63\n      tag_29\n      jump\t// in\n    tag_63:\n    tag_62:\n      swap1\n      pop\n      0x20\n      mul\n      add\n      calldataload\n        /* \"contracts/transactionHandlers.sol\":1264:1280  uint256(data[5]) */\n      0x00\n      shr\n        /* \"contracts/transactionHandlers.sol\":1202:1213  transaction */\n      dup2\n        /* \"contracts/transactionHandlers.sol\":1202:1220  transaction.params */\n      0x03\n      add\n        /* \"contracts/transactionHandlers.sol\":1202:1254  transaction.params[Iparser.stringToBytes32(\"EP005\")] */\n      0x00\n        /* \"contracts/transactionHandlers.sol\":1221:1228  Iparser */\n      0x01\n      0x00\n      swap1\n      sload\n      swap1\n      0x0100\n      exp\n      swap1\n      div\n      0xffffffffffffffffffffffffffffffffffffffff\n      and\n        /* \"contracts/transactionHandlers.sol\":1221:1244  Iparser.stringToBytes32 */\n      0xffffffffffffffffffffffffffffffffffffffff\n      and\n      0xcfb51928\n        /* \"contracts/transactionHandlers.sol\":1221:1253  Iparser.stringToBytes32(\"EP005\") */\n      mload(0x40)\n      dup2\n      0xffffffff\n      and\n      0xe0\n      shl\n      dup2\n      mstore\n      0x04\n      add\n      tag_64\n      swap1\n      tag_65\n      jump\t// in\n    tag_64:\n      0x20\n      mload(0x40)\n      dup1\n      dup4\n      sub\n      dup2\n      dup7\n      gas\n      staticcall\n      iszero\n      dup1\n      iszero\n      tag_67\n      jumpi\n      returndatasize\n      0x00\n      dup1\n      returndatacopy\n      revert(0x00, returndatasize)\n    tag_67:\n      pop\n      pop\n      pop\n      pop\n      mload(0x40)\n      returndatasize\n      not(0x1f)\n      0x1f\n      dup3\n      add\n      and\n      dup3\n      add\n      dup1\n      0x40\n      mstore\n      pop\n      dup2\n      add\n      swap1\n      tag_68\n      swap2\n      swap1\n      tag_42\n      jump\t// in\n    tag_68:\n        /* \"contracts/transactionHandlers.sol\":1202:1254  transaction.params[Iparser.stringToBytes32(\"EP005\")] */\n      dup2\n      mstore\n      0x20\n      add\n      swap1\n      dup2\n      mstore\n      0x20\n      add\n      0x00\n      keccak256\n        /* \"contracts/transactionHandlers.sol\":1202:1281  transaction.params[Iparser.stringToBytes32(\"EP005\")] = int256(uint256(data[5])) */\n      dup2\n      swap1\n      sstore\n      pop\n        /* \"contracts/transactionHandlers.sol\":483:1288  {... */\n      pop\n      pop\n        /* \"contracts/transactionHandlers.sol\":421:1288  function processTransaction(bytes32[] calldata data) external {... */\n      pop\n      pop\n      jump\t// out\n        /* \"contracts/transactionHandlers.sol\":316:338  IParser public Iparser */\n    tag_17:\n      0x01\n      0x00\n      swap1\n      sload\n      swap1\n      0x0100\n      exp\n      swap1\n      div\n      0xffffffffffffffffffffffffffffffffffffffff\n      and\n      dup2\n      jump\t// out\n        /* \"#utility.yul\":88:205   */\n    tag_70:\n        /* \"#utility.yul\":197:198   */\n      0x00\n        /* \"#utility.yul\":194:195   */\n      dup1\n        /* \"#utility.yul\":187:199   */\n      revert\n        /* \"#utility.yul\":211:328   */\n    tag_71:\n        /* \"#utility.yul\":320:321   */\n      0x00\n        /* \"#utility.yul\":317:318   */\n      dup1\n        /* \"#utility.yul\":310:322   */\n      revert\n        /* \"#utility.yul\":334:411   */\n    tag_72:\n        /* \"#utility.yul\":371:378   */\n      0x00\n        /* \"#utility.yul\":400:405   */\n      dup2\n        /* \"#utility.yul\":389:405   */\n      swap1\n      pop\n        /* \"#utility.yul\":334:411   */\n      swap2\n      swap1\n      pop\n      jump\t// out\n        /* \"#utility.yul\":417:539   */\n    tag_73:\n        /* \"#utility.yul\":490:514   */\n      tag_110\n        /* \"#utility.yul\":508:513   */\n      dup2\n        /* \"#utility.yul\":490:514   */\n      tag_72\n      jump\t// in\n    tag_110:\n        /* \"#utility.yul\":483:488   */\n      dup2\n        /* \"#utility.yul\":480:515   */\n      eq\n        /* \"#utility.yul\":470:533   */\n      tag_111\n      jumpi\n        /* \"#utility.yul\":529:530   */\n      0x00\n        /* \"#utility.yul\":526:527   */\n      dup1\n        /* \"#utility.yul\":519:531   */\n      revert\n        /* \"#utility.yul\":470:533   */\n    tag_111:\n        /* \"#utility.yul\":417:539   */\n      pop\n      jump\t// out\n        /* \"#utility.yul\":545:684   */\n    tag_74:\n        /* \"#utility.yul\":591:596   */\n      0x00\n        /* \"#utility.yul\":629:635   */\n      dup2\n        /* \"#utility.yul\":616:636   */\n      calldataload\n        /* \"#utility.yul\":607:636   */\n      swap1\n      pop\n        /* \"#utility.yul\":645:678   */\n      tag_113\n        /* \"#utility.yul\":672:677   */\n      dup2\n        /* \"#utility.yul\":645:678   */\n      tag_73\n      jump\t// in\n    tag_113:\n        /* \"#utility.yul\":545:684   */\n      swap3\n      swap2\n      pop\n      pop\n      jump\t// out\n        /* \"#utility.yul\":690:1019   */\n    tag_8:\n        /* \"#utility.yul\":749:755   */\n      0x00\n        /* \"#utility.yul\":798:800   */\n      0x20\n        /* \"#utility.yul\":786:795   */\n      dup3\n        /* \"#utility.yul\":777:784   */\n      dup5\n        /* \"#utility.yul\":773:796   */\n      sub\n        /* \"#utility.yul\":769:801   */\n      slt\n        /* \"#utility.yul\":766:885   */\n      iszero\n      tag_115\n      jumpi\n        /* \"#utility.yul\":804:883   */\n      tag_116\n      tag_70\n      jump\t// in\n    tag_116:\n        /* \"#utility.yul\":766:885   */\n    tag_115:\n        /* \"#utility.yul\":924:925   */\n      0x00\n        /* \"#utility.yul\":949:1002   */\n      tag_117\n        /* \"#utility.yul\":994:1001   */\n      dup5\n        /* \"#utility.yul\":985:991   */\n      dup3\n        /* \"#utility.yul\":974:983   */\n      dup6\n        /* \"#utility.yul\":970:992   */\n      add\n        /* \"#utility.yul\":949:1002   */\n      tag_74\n      jump\t// in\n    tag_117:\n        /* \"#utility.yul\":939:1002   */\n      swap2\n      pop\n        /* \"#utility.yul\":895:1012   */\n      pop\n        /* \"#utility.yul\":690:1019   */\n      swap3\n      swap2\n      pop\n      pop\n      jump\t// out\n        /* \"#utility.yul\":1025:1102   */\n    tag_75:\n        /* \"#utility.yul\":1062:1069   */\n      0x00\n        /* \"#utility.yul\":1091:1096   */\n      dup2\n        /* \"#utility.yul\":1080:1096   */\n      swap1\n      pop\n        /* \"#utility.yul\":1025:1102   */\n      swap2\n      swap1\n      pop\n      jump\t// out\n        /* \"#utility.yul\":1108:1226   */\n    tag_76:\n        /* \"#utility.yul\":1195:1219   */\n      tag_120\n        /* \"#utility.yul\":1213:1218   */\n      dup2\n        /* \"#utility.yul\":1195:1219   */\n      tag_75\n      jump\t// in\n    tag_120:\n        /* \"#utility.yul\":1190:1193   */\n      dup3\n        /* \"#utility.yul\":1183:1220   */\n      mstore\n        /* \"#utility.yul\":1108:1226   */\n      pop\n      pop\n      jump\t// out\n        /* \"#utility.yul\":1232:1358   */\n    tag_77:\n        /* \"#utility.yul\":1269:1276   */\n      0x00\n        /* \"#utility.yul\":1309:1351   */\n      0xffffffffffffffffffffffffffffffffffffffff\n        /* \"#utility.yul\":1302:1307   */\n      dup3\n        /* \"#utility.yul\":1298:1352   */\n      and\n        /* \"#utility.yul\":1287:1352   */\n      swap1\n      pop\n        /* \"#utility.yul\":1232:1358   */\n      swap2\n      swap1\n      pop\n      jump\t// out\n        /* \"#utility.yul\":1364:1460   */\n    tag_78:\n        /* \"#utility.yul\":1401:1408   */\n      0x00\n        /* \"#utility.yul\":1430:1454   */\n      tag_123\n        /* \"#utility.yul\":1448:1453   */\n      dup3\n        /* \"#utility.yul\":1430:1454   */\n      tag_77\n      jump\t// in\n    tag_123:\n        /* \"#utility.yul\":1419:1454   */\n      swap1\n      pop\n        /* \"#utility.yul\":1364:1460   */\n      swap2\n      swap1\n      pop\n      jump\t// out\n        /* \"#utility.yul\":1466:1584   */\n    tag_79:\n        /* \"#utility.yul\":1553:1577   */\n      tag_125\n        /* \"#utility.yul\":1571:1576   */\n      dup2\n        /* \"#utility.yul\":1553:1577   */\n      tag_78\n      jump\t// in\n    tag_125:\n        /* \"#utility.yul\":1548:1551   */\n      dup3\n        /* \"#utility.yul\":1541:1578   */\n      mstore\n        /* \"#utility.yul\":1466:1584   */\n      pop\n      pop\n      jump\t// out\n        /* \"#utility.yul\":1590:2032   */\n    tag_11:\n        /* \"#utility.yul\":1739:1743   */\n      0x00\n        /* \"#utility.yul\":1777:1779   */\n      0x60\n        /* \"#utility.yul\":1766:1775   */\n      dup3\n        /* \"#utility.yul\":1762:1780   */\n      add\n        /* \"#utility.yul\":1754:1780   */\n      swap1\n      pop\n        /* \"#utility.yul\":1790:1861   */\n      tag_127\n        /* \"#utility.yul\":1858:1859   */\n      0x00\n        /* \"#utility.yul\":1847:1856   */\n      dup4\n        /* \"#utility.yul\":1843:1860   */\n      add\n        /* \"#utility.yul\":1834:1840   */\n      dup7\n        /* \"#utility.yul\":1790:1861   */\n      tag_76\n      jump\t// in\n    tag_127:\n        /* \"#utility.yul\":1871:1943   */\n      tag_128\n        /* \"#utility.yul\":1939:1941   */\n      0x20\n        /* \"#utility.yul\":1928:1937   */\n      dup4\n        /* \"#utility.yul\":1924:1942   */\n      add\n        /* \"#utility.yul\":1915:1921   */\n      dup6\n        /* \"#utility.yul\":1871:1943   */\n      tag_76\n      jump\t// in\n    tag_128:\n        /* \"#utility.yul\":1953:2025   */\n      tag_129\n        /* \"#utility.yul\":2021:2023   */\n      0x40\n        /* \"#utility.yul\":2010:2019   */\n      dup4\n        /* \"#utility.yul\":2006:2024   */\n      add\n        /* \"#utility.yul\":1997:2003   */\n      dup5\n        /* \"#utility.yul\":1953:2025   */\n      tag_79\n      jump\t// in\n    tag_129:\n        /* \"#utility.yul\":1590:2032   */\n      swap5\n      swap4\n      pop\n      pop\n      pop\n      pop\n      jump\t// out\n        /* \"#utility.yul\":2038:2155   */\n    tag_80:\n        /* \"#utility.yul\":2147:2148   */\n      0x00\n        /* \"#utility.yul\":2144:2145   */\n      dup1\n        /* \"#utility.yul\":2137:2149   */\n      revert\n        /* \"#utility.yul\":2161:2278   */\n    tag_81:\n        /* \"#utility.yul\":2270:2271   */\n      0x00\n        /* \"#utility.yul\":2267:2268   */\n      dup1\n        /* \"#utility.yul\":2260:2272   */\n      revert\n        /* \"#utility.yul\":2284:2401   */\n    tag_82:\n        /* \"#utility.yul\":2393:2394   */\n      0x00\n        /* \"#utility.yul\":2390:2391   */\n      dup1\n        /* \"#utility.yul\":2383:2395   */\n      revert\n        /* \"#utility.yul\":2424:2992   */\n    tag_83:\n        /* \"#utility.yul\":2497:2505   */\n      0x00\n        /* \"#utility.yul\":2507:2513   */\n      dup1\n        /* \"#utility.yul\":2557:2560   */\n      dup4\n        /* \"#utility.yul\":2550:2554   */\n      0x1f\n        /* \"#utility.yul\":2542:2548   */\n      dup5\n        /* \"#utility.yul\":2538:2555   */\n      add\n        /* \"#utility.yul\":2534:2561   */\n      slt\n        /* \"#utility.yul\":2524:2646   */\n      tag_134\n      jumpi\n        /* \"#utility.yul\":2565:2644   */\n      tag_135\n      tag_80\n      jump\t// in\n    tag_135:\n        /* \"#utility.yul\":2524:2646   */\n    tag_134:\n        /* \"#utility.yul\":2678:2684   */\n      dup3\n        /* \"#utility.yul\":2665:2685   */\n      calldataload\n        /* \"#utility.yul\":2655:2685   */\n      swap1\n      pop\n        /* \"#utility.yul\":2708:2726   */\n      0xffffffffffffffff\n        /* \"#utility.yul\":2700:2706   */\n      dup2\n        /* \"#utility.yul\":2697:2727   */\n      gt\n        /* \"#utility.yul\":2694:2811   */\n      iszero\n      tag_136\n      jumpi\n        /* \"#utility.yul\":2730:2809   */\n      tag_137\n      tag_81\n      jump\t// in\n    tag_137:\n        /* \"#utility.yul\":2694:2811   */\n    tag_136:\n        /* \"#utility.yul\":2844:2848   */\n      0x20\n        /* \"#utility.yul\":2836:2842   */\n      dup4\n        /* \"#utility.yul\":2832:2849   */\n      add\n        /* \"#utility.yul\":2820:2849   */\n      swap2\n      pop\n        /* \"#utility.yul\":2898:2901   */\n      dup4\n        /* \"#utility.yul\":2890:2894   */\n      0x20\n        /* \"#utility.yul\":2882:2888   */\n      dup3\n        /* \"#utility.yul\":2878:2895   */\n      mul\n        /* \"#utility.yul\":2868:2876   */\n      dup4\n        /* \"#utility.yul\":2864:2896   */\n      add\n        /* \"#utility.yul\":2861:2902   */\n      gt\n        /* \"#utility.yul\":2858:2986   */\n      iszero\n      tag_138\n      jumpi\n        /* \"#utility.yul\":2905:2984   */\n      tag_139\n      tag_82\n      jump\t// in\n    tag_139:\n        /* \"#utility.yul\":2858:2986   */\n    tag_138:\n        /* \"#utility.yul\":2424:2992   */\n      swap3\n      pop\n      swap3\n      swap1\n      pop\n      jump\t// out\n        /* \"#utility.yul\":2998:3557   */\n    tag_14:\n        /* \"#utility.yul\":3084:3090   */\n      0x00\n        /* \"#utility.yul\":3092:3098   */\n      dup1\n        /* \"#utility.yul\":3141:3143   */\n      0x20\n        /* \"#utility.yul\":3129:3138   */\n      dup4\n        /* \"#utility.yul\":3120:3127   */\n      dup6\n        /* \"#utility.yul\":3116:3139   */\n      sub\n        /* \"#utility.yul\":3112:3144   */\n      slt\n        /* \"#utility.yul\":3109:3228   */\n      iszero\n      tag_141\n      jumpi\n        /* \"#utility.yul\":3147:3226   */\n      tag_142\n      tag_70\n      jump\t// in\n    tag_142:\n        /* \"#utility.yul\":3109:3228   */\n    tag_141:\n        /* \"#utility.yul\":3295:3296   */\n      0x00\n        /* \"#utility.yul\":3284:3293   */\n      dup4\n        /* \"#utility.yul\":3280:3297   */\n      add\n        /* \"#utility.yul\":3267:3298   */\n      calldataload\n        /* \"#utility.yul\":3325:3343   */\n      0xffffffffffffffff\n        /* \"#utility.yul\":3317:3323   */\n      dup2\n        /* \"#utility.yul\":3314:3344   */\n      gt\n        /* \"#utility.yul\":3311:3428   */\n      iszero\n      tag_143\n      jumpi\n        /* \"#utility.yul\":3347:3426   */\n      tag_144\n      tag_71\n      jump\t// in\n    tag_144:\n        /* \"#utility.yul\":3311:3428   */\n    tag_143:\n        /* \"#utility.yul\":3460:3540   */\n      tag_145\n        /* \"#utility.yul\":3532:3539   */\n      dup6\n        /* \"#utility.yul\":3523:3529   */\n      dup3\n        /* \"#utility.yul\":3512:3521   */\n      dup7\n        /* \"#utility.yul\":3508:3530   */\n      add\n        /* \"#utility.yul\":3460:3540   */\n      tag_83\n      jump\t// in\n    tag_145:\n        /* \"#utility.yul\":3442:3540   */\n      swap3\n      pop\n      swap3\n      pop\n        /* \"#utility.yul\":3238:3550   */\n      pop\n        /* \"#utility.yul\":2998:3557   */\n      swap3\n      pop\n      swap3\n      swap1\n      pop\n      jump\t// out\n        /* \"#utility.yul\":3563:3623   */\n    tag_84:\n        /* \"#utility.yul\":3591:3594   */\n      0x00\n        /* \"#utility.yul\":3612:3617   */\n      dup2\n        /* \"#utility.yul\":3605:3617   */\n      swap1\n      pop\n        /* \"#utility.yul\":3563:3623   */\n      swap2\n      swap1\n      pop\n      jump\t// out\n        /* \"#utility.yul\":3629:3771   */\n    tag_85:\n        /* \"#utility.yul\":3679:3688   */\n      0x00\n        /* \"#utility.yul\":3712:3765   */\n      tag_148\n        /* \"#utility.yul\":3730:3764   */\n      tag_149\n        /* \"#utility.yul\":3739:3763   */\n      tag_150\n        /* \"#utility.yul\":3757:3762   */\n      dup5\n        /* \"#utility.yul\":3739:3763   */\n      tag_77\n      jump\t// in\n    tag_150:\n        /* \"#utility.yul\":3730:3764   */\n      tag_84\n      jump\t// in\n    tag_149:\n        /* \"#utility.yul\":3712:3765   */\n      tag_77\n      jump\t// in\n    tag_148:\n        /* \"#utility.yul\":3699:3765   */\n      swap1\n      pop\n        /* \"#utility.yul\":3629:3771   */\n      swap2\n      swap1\n      pop\n      jump\t// out\n        /* \"#utility.yul\":3777:3903   */\n    tag_86:\n        /* \"#utility.yul\":3827:3836   */\n      0x00\n        /* \"#utility.yul\":3860:3897   */\n      tag_152\n        /* \"#utility.yul\":3891:3896   */\n      dup3\n        /* \"#utility.yul\":3860:3897   */\n      tag_85\n      jump\t// in\n    tag_152:\n        /* \"#utility.yul\":3847:3897   */\n      swap1\n      pop\n        /* \"#utility.yul\":3777:3903   */\n      swap2\n      swap1\n      pop\n      jump\t// out\n        /* \"#utility.yul\":3909:4050   */\n    tag_87:\n        /* \"#utility.yul\":3974:3983   */\n      0x00\n        /* \"#utility.yul\":4007:4044   */\n      tag_154\n        /* \"#utility.yul\":4038:4043   */\n      dup3\n        /* \"#utility.yul\":4007:4044   */\n      tag_86\n      jump\t// in\n    tag_154:\n        /* \"#utility.yul\":3994:4044   */\n      swap1\n      pop\n        /* \"#utility.yul\":3909:4050   */\n      swap2\n      swap1\n      pop\n      jump\t// out\n        /* \"#utility.yul\":4056:4217   */\n    tag_88:\n        /* \"#utility.yul\":4158:4210   */\n      tag_156\n        /* \"#utility.yul\":4204:4209   */\n      dup2\n        /* \"#utility.yul\":4158:4210   */\n      tag_87\n      jump\t// in\n    tag_156:\n        /* \"#utility.yul\":4153:4156   */\n      dup3\n        /* \"#utility.yul\":4146:4211   */\n      mstore\n        /* \"#utility.yul\":4056:4217   */\n      pop\n      pop\n      jump\t// out\n        /* \"#utility.yul\":4223:4475   */\n    tag_19:\n        /* \"#utility.yul\":4331:4335   */\n      0x00\n        /* \"#utility.yul\":4369:4371   */\n      0x20\n        /* \"#utility.yul\":4358:4367   */\n      dup3\n        /* \"#utility.yul\":4354:4372   */\n      add\n        /* \"#utility.yul\":4346:4372   */\n      swap1\n      pop\n        /* \"#utility.yul\":4382:4468   */\n      tag_158\n        /* \"#utility.yul\":4465:4466   */\n      0x00\n        /* \"#utility.yul\":4454:4463   */\n      dup4\n        /* \"#utility.yul\":4450:4467   */\n      add\n        /* \"#utility.yul\":4441:4447   */\n      dup5\n        /* \"#utility.yul\":4382:4468   */\n      tag_88\n      jump\t// in\n    tag_158:\n        /* \"#utility.yul\":4223:4475   */\n      swap3\n      swap2\n      pop\n      pop\n      jump\t// out\n        /* \"#utility.yul\":4481:4650   */\n    tag_89:\n        /* \"#utility.yul\":4565:4576   */\n      0x00\n        /* \"#utility.yul\":4599:4605   */\n      dup3\n        /* \"#utility.yul\":4594:4597   */\n      dup3\n        /* \"#utility.yul\":4587:4606   */\n      mstore\n        /* \"#utility.yul\":4639:4643   */\n      0x20\n        /* \"#utility.yul\":4634:4637   */\n      dup3\n        /* \"#utility.yul\":4630:4644   */\n      add\n        /* \"#utility.yul\":4615:4644   */\n      swap1\n      pop\n        /* \"#utility.yul\":4481:4650   */\n      swap3\n      swap2\n      pop\n      pop\n      jump\t// out\n        /* \"#utility.yul\":4656:4884   */\n    tag_90:\n        /* \"#utility.yul\":4796:4830   */\n      0x44617461206c656e67746820666f72204530303031303030315f325f335f3720\n        /* \"#utility.yul\":4792:4793   */\n      0x00\n        /* \"#utility.yul\":4784:4790   */\n      dup3\n        /* \"#utility.yul\":4780:4794   */\n      add\n        /* \"#utility.yul\":4773:4831   */\n      mstore\n        /* \"#utility.yul\":4865:4876   */\n      0x6d75737420626520360000000000000000000000000000000000000000000000\n        /* \"#utility.yul\":4860:4862   */\n      0x20\n        /* \"#utility.yul\":4852:4858   */\n      dup3\n        /* \"#utility.yul\":4848:4863   */\n      add\n        /* \"#utility.yul\":4841:4877   */\n      mstore\n        /* \"#utility.yul\":4656:4884   */\n      pop\n      jump\t// out\n        /* \"#utility.yul\":4890:5256   */\n    tag_91:\n        /* \"#utility.yul\":5032:5035   */\n      0x00\n        /* \"#utility.yul\":5053:5120   */\n      tag_162\n        /* \"#utility.yul\":5117:5119   */\n      0x29\n        /* \"#utility.yul\":5112:5115   */\n      dup4\n        /* \"#utility.yul\":5053:5120   */\n      tag_89\n      jump\t// in\n    tag_162:\n        /* \"#utility.yul\":5046:5120   */\n      swap2\n      pop\n        /* \"#utility.yul\":5129:5222   */\n      tag_163\n        /* \"#utility.yul\":5218:5221   */\n      dup3\n        /* \"#utility.yul\":5129:5222   */\n      tag_90\n      jump\t// in\n    tag_163:\n        /* \"#utility.yul\":5247:5249   */\n      0x40\n        /* \"#utility.yul\":5242:5245   */\n      dup3\n        /* \"#utility.yul\":5238:5250   */\n      add\n        /* \"#utility.yul\":5231:5250   */\n      swap1\n      pop\n        /* \"#utility.yul\":4890:5256   */\n      swap2\n      swap1\n      pop\n      jump\t// out\n        /* \"#utility.yul\":5262:5681   */\n    tag_25:\n        /* \"#utility.yul\":5428:5432   */\n      0x00\n        /* \"#utility.yul\":5466:5468   */\n      0x20\n        /* \"#utility.yul\":5455:5464   */\n      dup3\n        /* \"#utility.yul\":5451:5469   */\n      add\n        /* \"#utility.yul\":5443:5469   */\n      swap1\n      pop\n        /* \"#utility.yul\":5515:5524   */\n      dup2\n        /* \"#utility.yul\":5509:5513   */\n      dup2\n        /* \"#utility.yul\":5505:5525   */\n      sub\n        /* \"#utility.yul\":5501:5502   */\n      0x00\n        /* \"#utility.yul\":5490:5499   */\n      dup4\n        /* \"#utility.yul\":5486:5503   */\n      add\n        /* \"#utility.yul\":5479:5526   */\n      mstore\n        /* \"#utility.yul\":5543:5674   */\n      tag_165\n        /* \"#utility.yul\":5669:5673   */\n      dup2\n        /* \"#utility.yul\":5543:5674   */\n      tag_91\n      jump\t// in\n    tag_165:\n        /* \"#utility.yul\":5535:5674   */\n      swap1\n      pop\n        /* \"#utility.yul\":5262:5681   */\n      swap2\n      swap1\n      pop\n      jump\t// out\n        /* \"#utility.yul\":5687:5867   */\n    tag_29:\n        /* \"#utility.yul\":5735:5812   */\n      0x4e487b7100000000000000000000000000000000000000000000000000000000\n        /* \"#utility.yul\":5732:5733   */\n      0x00\n        /* \"#utility.yul\":5725:5813   */\n      mstore\n        /* \"#utility.yul\":5832:5836   */\n      0x32\n        /* \"#utility.yul\":5829:5830   */\n      0x04\n        /* \"#utility.yul\":5822:5837   */\n      mstore\n        /* \"#utility.yul\":5856:5860   */\n      0x24\n        /* \"#utility.yul\":5853:5854   */\n      0x00\n        /* \"#utility.yul\":5846:5861   */\n      revert\n        /* \"#utility.yul\":5873:6028   */\n    tag_92:\n        /* \"#utility.yul\":6013:6020   */\n      0x4550303031000000000000000000000000000000000000000000000000000000\n        /* \"#utility.yul\":6009:6010   */\n      0x00\n        /* \"#utility.yul\":6001:6007   */\n      dup3\n        /* \"#utility.yul\":5997:6011   */\n      add\n        /* \"#utility.yul\":5990:6021   */\n      mstore\n        /* \"#utility.yul\":5873:6028   */\n      pop\n      jump\t// out\n        /* \"#utility.yul\":6034:6399   */\n    tag_93:\n        /* \"#utility.yul\":6176:6179   */\n      0x00\n        /* \"#utility.yul\":6197:6263   */\n      tag_169\n        /* \"#utility.yul\":6261:6262   */\n      0x05\n        /* \"#utility.yul\":6256:6259   */\n      dup4\n        /* \"#utility.yul\":6197:6263   */\n      tag_89\n      jump\t// in\n    tag_169:\n        /* \"#utility.yul\":6190:6263   */\n      swap2\n      pop\n        /* \"#utility.yul\":6272:6365   */\n      tag_170\n        /* \"#utility.yul\":6361:6364   */\n      dup3\n        /* \"#utility.yul\":6272:6365   */\n      tag_92\n      jump\t// in\n    tag_170:\n        /* \"#utility.yul\":6390:6392   */\n      0x20\n        /* \"#utility.yul\":6385:6388   */\n      dup3\n        /* \"#utility.yul\":6381:6393   */\n      add\n        /* \"#utility.yul\":6374:6393   */\n      swap1\n      pop\n        /* \"#utility.yul\":6034:6399   */\n      swap2\n      swap1\n      pop\n      jump\t// out\n        /* \"#utility.yul\":6405:6824   */\n    tag_38:\n        /* \"#utility.yul\":6571:6575   */\n      0x00\n        /* \"#utility.yul\":6609:6611   */\n      0x20\n        /* \"#utility.yul\":6598:6607   */\n      dup3\n        /* \"#utility.yul\":6594:6612   */\n      add\n        /* \"#utility.yul\":6586:6612   */\n      swap1\n      pop\n        /* \"#utility.yul\":6658:6667   */\n      dup2\n        /* \"#utility.yul\":6652:6656   */\n      dup2\n        /* \"#utility.yul\":6648:6668   */\n      sub\n        /* \"#utility.yul\":6644:6645   */\n      0x00\n        /* \"#utility.yul\":6633:6642   */\n      dup4\n        /* \"#utility.yul\":6629:6646   */\n      add\n        /* \"#utility.yul\":6622:6669   */\n      mstore\n        /* \"#utility.yul\":6686:6817   */\n      tag_172\n        /* \"#utility.yul\":6812:6816   */\n      dup2\n        /* \"#utility.yul\":6686:6817   */\n      tag_93\n      jump\t// in\n    tag_172:\n        /* \"#utility.yul\":6678:6817   */\n      swap1\n      pop\n        /* \"#utility.yul\":6405:6824   */\n      swap2\n      swap1\n      pop\n      jump\t// out\n        /* \"#utility.yul\":6830:6952   */\n    tag_94:\n        /* \"#utility.yul\":6903:6927   */\n      tag_174\n        /* \"#utility.yul\":6921:6926   */\n      dup2\n        /* \"#utility.yul\":6903:6927   */\n      tag_75\n      jump\t// in\n    tag_174:\n        /* \"#utility.yul\":6896:6901   */\n      dup2\n        /* \"#utility.yul\":6893:6928   */\n      eq\n        /* \"#utility.yul\":6883:6946   */\n      tag_175\n      jumpi\n        /* \"#utility.yul\":6942:6943   */\n      0x00\n        /* \"#utility.yul\":6939:6940   */\n      dup1\n        /* \"#utility.yul\":6932:6944   */\n      revert\n        /* \"#utility.yul\":6883:6946   */\n    tag_175:\n        /* \"#utility.yul\":6830:6952   */\n      pop\n      jump\t// out\n        /* \"#utility.yul\":6958:7101   */\n    tag_95:\n        /* \"#utility.yul\":7015:7020   */\n      0x00\n        /* \"#utility.yul\":7046:7052   */\n      dup2\n        /* \"#utility.yul\":7040:7053   */\n      mload\n        /* \"#utility.yul\":7031:7053   */\n      swap1\n      pop\n        /* \"#utility.yul\":7062:7095   */\n      tag_177\n        /* \"#utility.yul\":7089:7094   */\n      dup2\n        /* \"#utility.yul\":7062:7095   */\n      tag_94\n      jump\t// in\n    tag_177:\n        /* \"#utility.yul\":6958:7101   */\n      swap3\n      swap2\n      pop\n      pop\n      jump\t// out\n        /* \"#utility.yul\":7107:7458   */\n    tag_42:\n        /* \"#utility.yul\":7177:7183   */\n      0x00\n        /* \"#utility.yul\":7226:7228   */\n      0x20\n        /* \"#utility.yul\":7214:7223   */\n      dup3\n        /* \"#utility.yul\":7205:7212   */\n      dup5\n        /* \"#utility.yul\":7201:7224   */\n      sub\n        /* \"#utility.yul\":7197:7229   */\n      slt\n        /* \"#utility.yul\":7194:7313   */\n      iszero\n      tag_179\n      jumpi\n        /* \"#utility.yul\":7232:7311   */\n      tag_180\n      tag_70\n      jump\t// in\n    tag_180:\n        /* \"#utility.yul\":7194:7313   */\n    tag_179:\n        /* \"#utility.yul\":7352:7353   */\n      0x00\n        /* \"#utility.yul\":7377:7441   */\n      tag_181\n        /* \"#utility.yul\":7433:7440   */\n      dup5\n        /* \"#utility.yul\":7424:7430   */\n      dup3\n        /* \"#utility.yul\":7413:7422   */\n      dup6\n        /* \"#utility.yul\":7409:7431   */\n      add\n        /* \"#utility.yul\":7377:7441   */\n      tag_95\n      jump\t// in\n    tag_181:\n        /* \"#utility.yul\":7367:7441   */\n      swap2\n      pop\n        /* \"#utility.yul\":7323:7451   */\n      pop\n        /* \"#utility.yul\":7107:7458   */\n      swap3\n      swap2\n      pop\n      pop\n      jump\t// out\n        /* \"#utility.yul\":7464:7619   */\n    tag_96:\n        /* \"#utility.yul\":7604:7611   */\n      0x4550303032000000000000000000000000000000000000000000000000000000\n        /* \"#utility.yul\":7600:7601   */\n      0x00\n        /* \"#utility.yul\":7592:7598   */\n      dup3\n        /* \"#utility.yul\":7588:7602   */\n      add\n        /* \"#utility.yul\":7581:7612   */\n      mstore\n        /* \"#utility.yul\":7464:7619   */\n      pop\n      jump\t// out\n        /* \"#utility.yul\":7625:7990   */\n    tag_97:\n        /* \"#utility.yul\":7767:7770   */\n      0x00\n        /* \"#utility.yul\":7788:7854   */\n      tag_184\n        /* \"#utility.yul\":7852:7853   */\n      0x05\n        /* \"#utility.yul\":7847:7850   */\n      dup4\n        /* \"#utility.yul\":7788:7854   */\n      tag_89\n      jump\t// in\n    tag_184:\n        /* \"#utility.yul\":7781:7854   */\n      swap2\n      pop\n        /* \"#utility.yul\":7863:7956   */\n      tag_185\n        /* \"#utility.yul\":7952:7955   */\n      dup3\n        /* \"#utility.yul\":7863:7956   */\n      tag_96\n      jump\t// in\n    tag_185:\n        /* \"#utility.yul\":7981:7983   */\n      0x20\n        /* \"#utility.yul\":7976:7979   */\n      dup3\n        /* \"#utility.yul\":7972:7984   */\n      add\n        /* \"#utility.yul\":7965:7984   */\n      swap1\n      pop\n        /* \"#utility.yul\":7625:7990   */\n      swap2\n      swap1\n      pop\n      jump\t// out\n        /* \"#utility.yul\":7996:8415   */\n    tag_46:\n        /* \"#utility.yul\":8162:8166   */\n      0x00\n        /* \"#utility.yul\":8200:8202   */\n      0x20\n        /* \"#utility.yul\":8189:8198   */\n      dup3\n        /* \"#utility.yul\":8185:8203   */\n      add\n        /* \"#utility.yul\":8177:8203   */\n      swap1\n      pop\n        /* \"#utility.yul\":8249:8258   */\n      dup2\n        /* \"#utility.yul\":8243:8247   */\n      dup2\n        /* \"#utility.yul\":8239:8259   */\n      sub\n        /* \"#utility.yul\":8235:8236   */\n      0x00\n        /* \"#utility.yul\":8224:8233   */\n      dup4\n        /* \"#utility.yul\":8220:8237   */\n      add\n        /* \"#utility.yul\":8213:8260   */\n      mstore\n        /* \"#utility.yul\":8277:8408   */\n      tag_187\n        /* \"#utility.yul\":8403:8407   */\n      dup2\n        /* \"#utility.yul\":8277:8408   */\n      tag_97\n      jump\t// in\n    tag_187:\n        /* \"#utility.yul\":8269:8408   */\n      swap1\n      pop\n        /* \"#utility.yul\":7996:8415   */\n      swap2\n      swap1\n      pop\n      jump\t// out\n        /* \"#utility.yul\":8421:8576   */\n    tag_98:\n        /* \"#utility.yul\":8561:8568   */\n      0x4550303033000000000000000000000000000000000000000000000000000000\n        /* \"#utility.yul\":8557:8558   */\n      0x00\n        /* \"#utility.yul\":8549:8555   */\n      dup3\n        /* \"#utility.yul\":8545:8559   */\n      add\n        /* \"#utility.yul\":8538:8569   */\n      mstore\n        /* \"#utility.yul\":8421:8576   */\n      pop\n      jump\t// out\n        /* \"#utility.yul\":8582:8947   */\n    tag_99:\n        /* \"#utility.yul\":8724:8727   */\n      0x00\n        /* \"#utility.yul\":8745:8811   */\n      tag_190\n        /* \"#utility.yul\":8809:8810   */\n      0x05\n        /* \"#utility.yul\":8804:8807   */\n      dup4\n        /* \"#utility.yul\":8745:8811   */\n      tag_89\n      jump\t// in\n    tag_190:\n        /* \"#utility.yul\":8738:8811   */\n      swap2\n      pop\n        /* \"#utility.yul\":8820:8913   */\n      tag_191\n        /* \"#utility.yul\":8909:8912   */\n      dup3\n        /* \"#utility.yul\":8820:8913   */\n      tag_98\n      jump\t// in\n    tag_191:\n        /* \"#utility.yul\":8938:8940   */\n      0x20\n        /* \"#utility.yul\":8933:8936   */\n      dup3\n        /* \"#utility.yul\":8929:8941   */\n      add\n        /* \"#utility.yul\":8922:8941   */\n      swap1\n      pop\n        /* \"#utility.yul\":8582:8947   */\n      swap2\n      swap1\n      pop\n      jump\t// out\n        /* \"#utility.yul\":8953:9372   */\n    tag_53:\n        /* \"#utility.yul\":9119:9123   */\n      0x00\n        /* \"#utility.yul\":9157:9159   */\n      0x20\n        /* \"#utility.yul\":9146:9155   */\n      dup3\n        /* \"#utility.yul\":9142:9160   */\n      add\n        /* \"#utility.yul\":9134:9160   */\n      swap1\n      pop\n        /* \"#utility.yul\":9206:9215   */\n      dup2\n        /* \"#utility.yul\":9200:9204   */\n      dup2\n        /* \"#utility.yul\":9196:9216   */\n      sub\n        /* \"#utility.yul\":9192:9193   */\n      0x00\n        /* \"#utility.yul\":9181:9190   */\n      dup4\n        /* \"#utility.yul\":9177:9194   */\n      add\n        /* \"#utility.yul\":9170:9217   */\n      mstore\n        /* \"#utility.yul\":9234:9365   */\n      tag_193\n        /* \"#utility.yul\":9360:9364   */\n      dup2\n        /* \"#utility.yul\":9234:9365   */\n      tag_99\n      jump\t// in\n    tag_193:\n        /* \"#utility.yul\":9226:9365   */\n      swap1\n      pop\n        /* \"#utility.yul\":8953:9372   */\n      swap2\n      swap1\n      pop\n      jump\t// out\n        /* \"#utility.yul\":9378:9538   */\n    tag_100:\n        /* \"#utility.yul\":9518:9530   */\n      0x7472616e735f74696d6500000000000000000000000000000000000000000000\n        /* \"#utility.yul\":9514:9515   */\n      0x00\n        /* \"#utility.yul\":9506:9512   */\n      dup3\n        /* \"#utility.yul\":9502:9516   */\n      add\n        /* \"#utility.yul\":9495:9531   */\n      mstore\n        /* \"#utility.yul\":9378:9538   */\n      pop\n      jump\t// out\n        /* \"#utility.yul\":9544:9910   */\n    tag_101:\n        /* \"#utility.yul\":9686:9689   */\n      0x00\n        /* \"#utility.yul\":9707:9774   */\n      tag_196\n        /* \"#utility.yul\":9771:9773   */\n      0x0a\n        /* \"#utility.yul\":9766:9769   */\n      dup4\n        /* \"#utility.yul\":9707:9774   */\n      tag_89\n      jump\t// in\n    tag_196:\n        /* \"#utility.yul\":9700:9774   */\n      swap2\n      pop\n        /* \"#utility.yul\":9783:9876   */\n      tag_197\n        /* \"#utility.yul\":9872:9875   */\n      dup3\n        /* \"#utility.yul\":9783:9876   */\n      tag_100\n      jump\t// in\n    tag_197:\n        /* \"#utility.yul\":9901:9903   */\n      0x20\n        /* \"#utility.yul\":9896:9899   */\n      dup3\n        /* \"#utility.yul\":9892:9904   */\n      add\n        /* \"#utility.yul\":9885:9904   */\n      swap1\n      pop\n        /* \"#utility.yul\":9544:9910   */\n      swap2\n      swap1\n      pop\n      jump\t// out\n        /* \"#utility.yul\":9916:10335   */\n    tag_58:\n        /* \"#utility.yul\":10082:10086   */\n      0x00\n        /* \"#utility.yul\":10120:10122   */\n      0x20\n        /* \"#utility.yul\":10109:10118   */\n      dup3\n        /* \"#utility.yul\":10105:10123   */\n      add\n        /* \"#utility.yul\":10097:10123   */\n      swap1\n      pop\n        /* \"#utility.yul\":10169:10178   */\n      dup2\n        /* \"#utility.yul\":10163:10167   */\n      dup2\n        /* \"#utility.yul\":10159:10179   */\n      sub\n        /* \"#utility.yul\":10155:10156   */\n      0x00\n        /* \"#utility.yul\":10144:10153   */\n      dup4\n        /* \"#utility.yul\":10140:10157   */\n      add\n        /* \"#utility.yul\":10133:10180   */\n      mstore\n        /* \"#utility.yul\":10197:10328   */\n      tag_199\n        /* \"#utility.yul\":10323:10327   */\n      dup2\n        /* \"#utility.yul\":10197:10328   */\n      tag_101\n      jump\t// in\n    tag_199:\n        /* \"#utility.yul\":10189:10328   */\n      swap1\n      pop\n        /* \"#utility.yul\":9916:10335   */\n      swap2\n      swap1\n      pop\n      jump\t// out\n        /* \"#utility.yul\":10341:10496   */\n    tag_102:\n        /* \"#utility.yul\":10481:10488   */\n      0x4550303035000000000000000000000000000000000000000000000000000000\n        /* \"#utility.yul\":10477:10478   */\n      0x00\n        /* \"#utility.yul\":10469:10475   */\n      dup3\n        /* \"#utility.yul\":10465:10479   */\n      add\n        /* \"#utility.yul\":10458:10489   */\n      mstore\n        /* \"#utility.yul\":10341:10496   */\n      pop\n      jump\t// out\n        /* \"#utility.yul\":10502:10867   */\n    tag_103:\n        /* \"#utility.yul\":10644:10647   */\n      0x00\n        /* \"#utility.yul\":10665:10731   */\n      tag_202\n        /* \"#utility.yul\":10729:10730   */\n      0x05\n        /* \"#utility.yul\":10724:10727   */\n      dup4\n        /* \"#utility.yul\":10665:10731   */\n      tag_89\n      jump\t// in\n    tag_202:\n        /* \"#utility.yul\":10658:10731   */\n      swap2\n      pop\n        /* \"#utility.yul\":10740:10833   */\n      tag_203\n        /* \"#utility.yul\":10829:10832   */\n      dup3\n        /* \"#utility.yul\":10740:10833   */\n      tag_102\n      jump\t// in\n    tag_203:\n        /* \"#utility.yul\":10858:10860   */\n      0x20\n        /* \"#utility.yul\":10853:10856   */\n      dup3\n        /* \"#utility.yul\":10849:10861   */\n      add\n        /* \"#utility.yul\":10842:10861   */\n      swap1\n      pop\n        /* \"#utility.yul\":10502:10867   */\n      swap2\n      swap1\n      pop\n      jump\t// out\n        /* \"#utility.yul\":10873:11292   */\n    tag_65:\n        /* \"#utility.yul\":11039:11043   */\n      0x00\n        /* \"#utility.yul\":11077:11079   */\n      0x20\n        /* \"#utility.yul\":11066:11075   */\n      dup3\n        /* \"#utility.yul\":11062:11080   */\n      add\n        /* \"#utility.yul\":11054:11080   */\n      swap1\n      pop\n        /* \"#utility.yul\":11126:11135   */\n      dup2\n        /* \"#utility.yul\":11120:11124   */\n      dup2\n        /* \"#utility.yul\":11116:11136   */\n      sub\n        /* \"#utility.yul\":11112:11113   */\n      0x00\n        /* \"#utility.yul\":11101:11110   */\n      dup4\n        /* \"#utility.yul\":11097:11114   */\n      add\n        /* \"#utility.yul\":11090:11137   */\n      mstore\n        /* \"#utility.yul\":11154:11285   */\n      tag_205\n        /* \"#utility.yul\":11280:11284   */\n      dup2\n        /* \"#utility.yul\":11154:11285   */\n      tag_103\n      jump\t// in\n    tag_205:\n        /* \"#utility.yul\":11146:11285   */\n      swap1\n      pop\n        /* \"#utility.yul\":10873:11292   */\n      swap2\n      swap1\n      pop\n      jump\t// out\n\n    auxdata: 0xa2646970667358221220aa7e6b1cd2a1f2068237d72579b5c3a25074ccd401ad14af19665f22e3cd561f64736f6c63430008160033\n}\n",
				"bytecode": {
					"linkReferences": {},
					"object": "608060405234801561000f575f80fd5b50604051610c91380380610c91833981810160405281019061003191906100d5565b8060015f6101000a81548173ffffffffffffffffffffffffffffffffffffffff021916908373ffffffffffffffffffffffffffffffffffffffff16021790555050610100565b5f80fd5b5f73ffffffffffffffffffffffffffffffffffffffff82169050919050565b5f6100a48261007b565b9050919050565b6100b48161009a565b81146100be575f80fd5b50565b5f815190506100cf816100ab565b92915050565b5f602082840312156100ea576100e9610077565b5b5f6100f7848285016100c1565b91505092915050565b610b848061010d5f395ff3fe608060405234801561000f575f80fd5b506004361061003f575f3560e01c80639ace38c214610043578063cfbcab2314610075578063e064d19914610091575b5f80fd5b61005d6004803603810190610058919061064f565b6100af565b60405161006c939291906106d1565b60405180910390f35b61008f600480360381019061008a9190610767565b610102565b005b6100996105ef565b6040516100a6919061080d565b60405180910390f35b5f81815481106100bd575f80fd5b905f5260205f2090600402015f91509050805f015490806001015490806002015f9054906101000a900473ffffffffffffffffffffffffffffffffffffffff16905083565b60068282905014610148576040517f08c379a000000000000000000000000000000000000000000000000000000000815260040161013f906108a6565b60405180910390fd5b5f808054905090505f60018160018154018082558091505003905f5260205f209050505f80828154811061017f5761017e6108c4565b5b905f5260205f209060040201905083835f8181106101a05761019f6108c4565b5b90506020020135815f0181905550838360018181106101c2576101c16108c4565b5b90506020020135816001018190555033816002015f6101000a81548173ffffffffffffffffffffffffffffffffffffffff021916908373ffffffffffffffffffffffffffffffffffffffff16021790555083836002818110610227576102266108c4565b5b905060200201355f1c816003015f60015f9054906101000a900473ffffffffffffffffffffffffffffffffffffffff1673ffffffffffffffffffffffffffffffffffffffff1663cfb519286040518163ffffffff1660e01b815260040161028d9061093b565b602060405180830381865afa1580156102a8573d5f803e3d5ffd5b505050506040513d601f19601f820116820180604052508101906102cc9190610983565b81526020019081526020015f2081905550838360038181106102f1576102f06108c4565b5b905060200201355f1c816003015f60015f9054906101000a900473ffffffffffffffffffffffffffffffffffffffff1673ffffffffffffffffffffffffffffffffffffffff1663cfb519286040518163ffffffff1660e01b8152600401610357906109f8565b602060405180830381865afa158015610372573d5f803e3d5ffd5b505050506040513d601f19601f820116820180604052508101906103969190610983565b81526020019081526020015f2081905550838360048181106103bb576103ba6108c4565b5b905060200201355f1c816003015f60015f9054906101000a900473ffffffffffffffffffffffffffffffffffffffff1673ffffffffffffffffffffffffffffffffffffffff1663cfb519286040518163ffffffff1660e01b815260040161042190610a60565b602060405180830381865afa15801561043c573d5f803e3d5ffd5b505050506040513d601f19601f820116820180604052508101906104609190610983565b81526020019081526020015f208190555042816003015f60015f9054906101000a900473ffffffffffffffffffffffffffffffffffffffff1673ffffffffffffffffffffffffffffffffffffffff1663cfb519286040518163ffffffff1660e01b81526004016104cf90610ac8565b602060405180830381865afa1580156104ea573d5f803e3d5ffd5b505050506040513d601f19601f8201168201806040525081019061050e9190610983565b81526020019081526020015f208190555083836005818110610533576105326108c4565b5b905060200201355f1c816003015f60015f9054906101000a900473ffffffffffffffffffffffffffffffffffffffff1673ffffffffffffffffffffffffffffffffffffffff1663cfb519286040518163ffffffff1660e01b815260040161059990610b30565b602060405180830381865afa1580156105b4573d5f803e3d5ffd5b505050506040513d601f19601f820116820180604052508101906105d89190610983565b81526020019081526020015f208190555050505050565b60015f9054906101000a900473ffffffffffffffffffffffffffffffffffffffff1681565b5f80fd5b5f80fd5b5f819050919050565b61062e8161061c565b8114610638575f80fd5b50565b5f8135905061064981610625565b92915050565b5f6020828403121561066457610663610614565b5b5f6106718482850161063b565b91505092915050565b5f819050919050565b61068c8161067a565b82525050565b5f73ffffffffffffffffffffffffffffffffffffffff82169050919050565b5f6106bb82610692565b9050919050565b6106cb816106b1565b82525050565b5f6060820190506106e45f830186610683565b6106f16020830185610683565b6106fe60408301846106c2565b949350505050565b5f80fd5b5f80fd5b5f80fd5b5f8083601f84011261072757610726610706565b5b8235905067ffffffffffffffff8111156107445761074361070a565b5b6020830191508360208202830111156107605761075f61070e565b5b9250929050565b5f806020838503121561077d5761077c610614565b5b5f83013567ffffffffffffffff81111561079a57610799610618565b5b6107a685828601610712565b92509250509250929050565b5f819050919050565b5f6107d56107d06107cb84610692565b6107b2565b610692565b9050919050565b5f6107e6826107bb565b9050919050565b5f6107f7826107dc565b9050919050565b610807816107ed565b82525050565b5f6020820190506108205f8301846107fe565b92915050565b5f82825260208201905092915050565b7f44617461206c656e67746820666f72204530303031303030315f325f335f37205f8201527f6d75737420626520360000000000000000000000000000000000000000000000602082015250565b5f610890602983610826565b915061089b82610836565b604082019050919050565b5f6020820190508181035f8301526108bd81610884565b9050919050565b7f4e487b71000000000000000000000000000000000000000000000000000000005f52603260045260245ffd5b7f45503030310000000000000000000000000000000000000000000000000000005f82015250565b5f610925600583610826565b9150610930826108f1565b602082019050919050565b5f6020820190508181035f83015261095281610919565b9050919050565b6109628161067a565b811461096c575f80fd5b50565b5f8151905061097d81610959565b92915050565b5f6020828403121561099857610997610614565b5b5f6109a58482850161096f565b91505092915050565b7f45503030320000000000000000000000000000000000000000000000000000005f82015250565b5f6109e2600583610826565b91506109ed826109ae565b602082019050919050565b5f6020820190508181035f830152610a0f816109d6565b9050919050565b7f45503030330000000000000000000000000000000000000000000000000000005f82015250565b5f610a4a600583610826565b9150610a5582610a16565b602082019050919050565b5f6020820190508181035f830152610a7781610a3e565b9050919050565b7f7472616e735f74696d65000000000000000000000000000000000000000000005f82015250565b5f610ab2600a83610826565b9150610abd82610a7e565b602082019050919050565b5f6020820190508181035f830152610adf81610aa6565b9050919050565b7f45503030350000000000000000000000000000000000000000000000000000005f82015250565b5f610b1a600583610826565b9150610b2582610ae6565b602082019050919050565b5f6020820190508181035f830152610b4781610b0e565b905091905056fea2646970667358221220aa7e6b1cd2a1f2068237d72579b5c3a25074ccd401ad14af19665f22e3cd561f64736f6c63430008160033",
					"opcodes": "PUSH1 0x80 PUSH1 0x40 MSTORE CALLVALUE DUP1 ISZERO PUSH2 0xF JUMPI PUSH0 DUP1 REVERT JUMPDEST POP PUSH1 0x40 MLOAD PUSH2 0xC91 CODESIZE SUB DUP1 PUSH2 0xC91 DUP4 CODECOPY DUP2 DUP2 ADD PUSH1 0x40 MSTORE DUP2 ADD SWAP1 PUSH2 0x31 SWAP2 SWAP1 PUSH2 0xD5 JUMP JUMPDEST DUP1 PUSH1 0x1 PUSH0 PUSH2 0x100 EXP DUP2 SLOAD DUP2 PUSH20 0xFFFFFFFFFFFFFFFFFFFFFFFFFFFFFFFFFFFFFFFF MUL NOT AND SWAP1 DUP4 PUSH20 0xFFFFFFFFFFFFFFFFFFFFFFFFFFFFFFFFFFFFFFFF AND MUL OR SWAP1 SSTORE POP POP PUSH2 0x100 JUMP JUMPDEST PUSH0 DUP1 REVERT JUMPDEST PUSH0 PUSH20 0xFFFFFFFFFFFFFFFFFFFFFFFFFFFFFFFFFFFFFFFF DUP3 AND SWAP1 POP SWAP2 SWAP1 POP JUMP JUMPDEST PUSH0 PUSH2 0xA4 DUP3 PUSH2 0x7B JUMP JUMPDEST SWAP1 POP SWAP2 SWAP1 POP JUMP JUMPDEST PUSH2 0xB4 DUP2 PUSH2 0x9A JUMP JUMPDEST DUP2 EQ PUSH2 0xBE JUMPI PUSH0 DUP1 REVERT JUMPDEST POP JUMP JUMPDEST PUSH0 DUP2 MLOAD SWAP1 POP PUSH2 0xCF DUP2 PUSH2 0xAB JUMP JUMPDEST SWAP3 SWAP2 POP POP JUMP JUMPDEST PUSH0 PUSH1 0x20 DUP3 DUP5 SUB SLT ISZERO PUSH2 0xEA JUMPI PUSH2 0xE9 PUSH2 0x77 JUMP JUMPDEST JUMPDEST PUSH0 PUSH2 0xF7 DUP5 DUP3 DUP6 ADD PUSH2 0xC1 JUMP JUMPDEST SWAP2 POP POP SWAP3 SWAP2 POP POP JUMP JUMPDEST PUSH2 0xB84 DUP1 PUSH2 0x10D PUSH0 CODECOPY PUSH0 RETURN INVALID PUSH1 0x80 PUSH1 0x40 MSTORE CALLVALUE DUP1 ISZERO PUSH2 0xF JUMPI PUSH0 DUP1 REVERT JUMPDEST POP PUSH1 0x4 CALLDATASIZE LT PUSH2 0x3F JUMPI PUSH0 CALLDATALOAD PUSH1 0xE0 SHR DUP1 PUSH4 0x9ACE38C2 EQ PUSH2 0x43 JUMPI DUP1 PUSH4 0xCFBCAB23 EQ PUSH2 0x75 JUMPI DUP1 PUSH4 0xE064D199 EQ PUSH2 0x91 JUMPI JUMPDEST PUSH0 DUP1 REVERT JUMPDEST PUSH2 0x5D PUSH1 0x4 DUP1 CALLDATASIZE SUB DUP2 ADD SWAP1 PUSH2 0x58 SWAP2 SWAP1 PUSH2 0x64F JUMP JUMPDEST PUSH2 0xAF JUMP JUMPDEST PUSH1 0x40 MLOAD PUSH2 0x6C SWAP4 SWAP3 SWAP2 SWAP1 PUSH2 0x6D1 JUMP JUMPDEST PUSH1 0x40 MLOAD DUP1 SWAP2 SUB SWAP1 RETURN JUMPDEST PUSH2 0x8F PUSH1 0x4 DUP1 CALLDATASIZE SUB DUP2 ADD SWAP1 PUSH2 0x8A SWAP2 SWAP1 PUSH2 0x767 JUMP JUMPDEST PUSH2 0x102 JUMP JUMPDEST STOP JUMPDEST PUSH2 0x99 PUSH2 0x5EF JUMP JUMPDEST PUSH1 0x40 MLOAD PUSH2 0xA6 SWAP2 SWAP1 PUSH2 0x80D JUMP JUMPDEST PUSH1 0x40 MLOAD DUP1 SWAP2 SUB SWAP1 RETURN JUMPDEST PUSH0 DUP2 DUP2 SLOAD DUP2 LT PUSH2 0xBD JUMPI PUSH0 DUP1 REVERT JUMPDEST SWAP1 PUSH0 MSTORE PUSH1 0x20 PUSH0 KECCAK256 SWAP1 PUSH1 0x4 MUL ADD PUSH0 SWAP2 POP SWAP1 POP DUP1 PUSH0 ADD SLOAD SWAP1 DUP1 PUSH1 0x1 ADD SLOAD SWAP1 DUP1 PUSH1 0x2 ADD PUSH0 SWAP1 SLOAD SWAP1 PUSH2 0x100 EXP SWAP1 DIV PUSH20 0xFFFFFFFFFFFFFFFFFFFFFFFFFFFFFFFFFFFFFFFF AND SWAP1 POP DUP4 JUMP JUMPDEST PUSH1 0x6 DUP3 DUP3 SWAP1 POP EQ PUSH2 0x148 JUMPI PUSH1 0x40 MLOAD PUSH32 0x8C379A000000000000000000000000000000000000000000000000000000000 DUP2 MSTORE PUSH1 0x4 ADD PUSH2 0x13F SWAP1 PUSH2 0x8A6 JUMP JUMPDEST PUSH1 0x40 MLOAD DUP1 SWAP2 SUB SWAP1 REVERT JUMPDEST PUSH0 DUP1 DUP1 SLOAD SWAP1 POP SWAP1 POP PUSH0 PUSH1 0x1 DUP2 PUSH1 0x1 DUP2 SLOAD ADD DUP1 DUP3 SSTORE DUP1 SWAP2 POP POP SUB SWAP1 PUSH0 MSTORE PUSH1 0x20 PUSH0 KECCAK256 SWAP1 POP POP PUSH0 DUP1 DUP3 DUP2 SLOAD DUP2 LT PUSH2 0x17F JUMPI PUSH2 0x17E PUSH2 0x8C4 JUMP JUMPDEST JUMPDEST SWAP1 PUSH0 MSTORE PUSH1 0x20 PUSH0 KECCAK256 SWAP1 PUSH1 0x4 MUL ADD SWAP1 POP DUP4 DUP4 PUSH0 DUP2 DUP2 LT PUSH2 0x1A0 JUMPI PUSH2 0x19F PUSH2 0x8C4 JUMP JUMPDEST JUMPDEST SWAP1 POP PUSH1 0x20 MUL ADD CALLDATALOAD DUP2 PUSH0 ADD DUP2 SWAP1 SSTORE POP DUP4 DUP4 PUSH1 0x1 DUP2 DUP2 LT PUSH2 0x1C2 JUMPI PUSH2 0x1C1 PUSH2 0x8C4 JUMP JUMPDEST JUMPDEST SWAP1 POP PUSH1 0x20 MUL ADD CALLDATALOAD DUP2 PUSH1 0x1 ADD DUP2 SWAP1 SSTORE POP CALLER DUP2 PUSH1 0x2 ADD PUSH0 PUSH2 0x100 EXP DUP2 SLOAD DUP2 PUSH20 0xFFFFFFFFFFFFFFFFFFFFFFFFFFFFFFFFFFFFFFFF MUL NOT AND SWAP1 DUP4 PUSH20 0xFFFFFFFFFFFFFFFFFFFFFFFFFFFFFFFFFFFFFFFF AND MUL OR SWAP1 SSTORE POP DUP4 DUP4 PUSH1 0x2 DUP2 DUP2 LT PUSH2 0x227 JUMPI PUSH2 0x226 PUSH2 0x8C4 JUMP JUMPDEST JUMPDEST SWAP1 POP PUSH1 0x20 MUL ADD CALLDATALOAD PUSH0 SHR DUP2 PUSH1 0x3 ADD PUSH0 PUSH1 0x1 PUSH0 SWAP1 SLOAD SWAP1 PUSH2 0x100 EXP SWAP1 DIV PUSH20 0xFFFFFFFFFFFFFFFFFFFFFFFFFFFFFFFFFFFFFFFF AND PUSH20 0xFFFFFFFFFFFFFFFFFFFFFFFFFFFFFFFFFFFFFFFF AND PUSH4 0xCFB51928 PUSH1 0x40 MLOAD DUP2 PUSH4 0xFFFFFFFF AND PUSH1 0xE0 SHL DUP2 MSTORE PUSH1 0x4 ADD PUSH2 0x28D SWAP1 PUSH2 0x93B JUMP JUMPDEST PUSH1 0x20 PUSH1 0x40 MLOAD DUP1 DUP4 SUB DUP2 DUP7 GAS STATICCALL ISZERO DUP1 ISZERO PUSH2 0x2A8 JUMPI RETURNDATASIZE PUSH0 DUP1 RETURNDATACOPY RETURNDATASIZE PUSH0 REVERT JUMPDEST POP POP POP POP PUSH1 0x40 MLOAD RETURNDATASIZE PUSH1 0x1F NOT PUSH1 0x1F DUP3 ADD AND DUP3 ADD DUP1 PUSH1 0x40 MSTORE POP DUP2 ADD SWAP1 PUSH2 0x2CC SWAP2 SWAP1 PUSH2 0x983 JUMP JUMPDEST DUP2 MSTORE PUSH1 0x20 ADD SWAP1 DUP2 MSTORE PUSH1 0x20 ADD PUSH0 KECCAK256 DUP2 SWAP1 SSTORE POP DUP4 DUP4 PUSH1 0x3 DUP2 DUP2 LT PUSH2 0x2F1 JUMPI PUSH2 0x2F0 PUSH2 0x8C4 JUMP JUMPDEST JUMPDEST SWAP1 POP PUSH1 0x20 MUL ADD CALLDATALOAD PUSH0 SHR DUP2 PUSH1 0x3 ADD PUSH0 PUSH1 0x1 PUSH0 SWAP1 SLOAD SWAP1 PUSH2 0x100 EXP SWAP1 DIV PUSH20 0xFFFFFFFFFFFFFFFFFFFFFFFFFFFFFFFFFFFFFFFF AND PUSH20 0xFFFFFFFFFFFFFFFFFFFFFFFFFFFFFFFFFFFFFFFF AND PUSH4 0xCFB51928 PUSH1 0x40 MLOAD DUP2 PUSH4 0xFFFFFFFF AND PUSH1 0xE0 SHL DUP2 MSTORE PUSH1 0x4 ADD PUSH2 0x357 SWAP1 PUSH2 0x9F8 JUMP JUMPDEST PUSH1 0x20 PUSH1 0x40 MLOAD DUP1 DUP4 SUB DUP2 DUP7 GAS STATICCALL ISZERO DUP1 ISZERO PUSH2 0x372 JUMPI RETURNDATASIZE PUSH0 DUP1 RETURNDATACOPY RETURNDATASIZE PUSH0 REVERT JUMPDEST POP POP POP POP PUSH1 0x40 MLOAD RETURNDATASIZE PUSH1 0x1F NOT PUSH1 0x1F DUP3 ADD AND DUP3 ADD DUP1 PUSH1 0x40 MSTORE POP DUP2 ADD SWAP1 PUSH2 0x396 SWAP2 SWAP1 PUSH2 0x983 JUMP JUMPDEST DUP2 MSTORE PUSH1 0x20 ADD SWAP1 DUP2 MSTORE PUSH1 0x20 ADD PUSH0 KECCAK256 DUP2 SWAP1 SSTORE POP DUP4 DUP4 PUSH1 0x4 DUP2 DUP2 LT PUSH2 0x3BB JUMPI PUSH2 0x3BA PUSH2 0x8C4 JUMP JUMPDEST JUMPDEST SWAP1 POP PUSH1 0x20 MUL ADD CALLDATALOAD PUSH0 SHR DUP2 PUSH1 0x3 ADD PUSH0 PUSH1 0x1 PUSH0 SWAP1 SLOAD SWAP1 PUSH2 0x100 EXP SWAP1 DIV PUSH20 0xFFFFFFFFFFFFFFFFFFFFFFFFFFFFFFFFFFFFFFFF AND PUSH20 0xFFFFFFFFFFFFFFFFFFFFFFFFFFFFFFFFFFFFFFFF AND PUSH4 0xCFB51928 PUSH1 0x40 MLOAD DUP2 PUSH4 0xFFFFFFFF AND PUSH1 0xE0 SHL DUP2 MSTORE PUSH1 0x4 ADD PUSH2 0x421 SWAP1 PUSH2 0xA60 JUMP JUMPDEST PUSH1 0x20 PUSH1 0x40 MLOAD DUP1 DUP4 SUB DUP2 DUP7 GAS STATICCALL ISZERO DUP1 ISZERO PUSH2 0x43C JUMPI RETURNDATASIZE PUSH0 DUP1 RETURNDATACOPY RETURNDATASIZE PUSH0 REVERT JUMPDEST POP POP POP POP PUSH1 0x40 MLOAD RETURNDATASIZE PUSH1 0x1F NOT PUSH1 0x1F DUP3 ADD AND DUP3 ADD DUP1 PUSH1 0x40 MSTORE POP DUP2 ADD SWAP1 PUSH2 0x460 SWAP2 SWAP1 PUSH2 0x983 JUMP JUMPDEST DUP2 MSTORE PUSH1 0x20 ADD SWAP1 DUP2 MSTORE PUSH1 0x20 ADD PUSH0 KECCAK256 DUP2 SWAP1 SSTORE POP TIMESTAMP DUP2 PUSH1 0x3 ADD PUSH0 PUSH1 0x1 PUSH0 SWAP1 SLOAD SWAP1 PUSH2 0x100 EXP SWAP1 DIV PUSH20 0xFFFFFFFFFFFFFFFFFFFFFFFFFFFFFFFFFFFFFFFF AND PUSH20 0xFFFFFFFFFFFFFFFFFFFFFFFFFFFFFFFFFFFFFFFF AND PUSH4 0xCFB51928 PUSH1 0x40 MLOAD DUP2 PUSH4 0xFFFFFFFF AND PUSH1 0xE0 SHL DUP2 MSTORE PUSH1 0x4 ADD PUSH2 0x4CF SWAP1 PUSH2 0xAC8 JUMP JUMPDEST PUSH1 0x20 PUSH1 0x40 MLOAD DUP1 DUP4 SUB DUP2 DUP7 GAS STATICCALL ISZERO DUP1 ISZERO PUSH2 0x4EA JUMPI RETURNDATASIZE PUSH0 DUP1 RETURNDATACOPY RETURNDATASIZE PUSH0 REVERT JUMPDEST POP POP POP POP PUSH1 0x40 MLOAD RETURNDATASIZE PUSH1 0x1F NOT PUSH1 0x1F DUP3 ADD AND DUP3 ADD DUP1 PUSH1 0x40 MSTORE POP DUP2 ADD SWAP1 PUSH2 0x50E SWAP2 SWAP1 PUSH2 0x983 JUMP JUMPDEST DUP2 MSTORE PUSH1 0x20 ADD SWAP1 DUP2 MSTORE PUSH1 0x20 ADD PUSH0 KECCAK256 DUP2 SWAP1 SSTORE POP DUP4 DUP4 PUSH1 0x5 DUP2 DUP2 LT PUSH2 0x533 JUMPI PUSH2 0x532 PUSH2 0x8C4 JUMP JUMPDEST JUMPDEST SWAP1 POP PUSH1 0x20 MUL ADD CALLDATALOAD PUSH0 SHR DUP2 PUSH1 0x3 ADD PUSH0 PUSH1 0x1 PUSH0 SWAP1 SLOAD SWAP1 PUSH2 0x100 EXP SWAP1 DIV PUSH20 0xFFFFFFFFFFFFFFFFFFFFFFFFFFFFFFFFFFFFFFFF AND PUSH20 0xFFFFFFFFFFFFFFFFFFFFFFFFFFFFFFFFFFFFFFFF AND PUSH4 0xCFB51928 PUSH1 0x40 MLOAD DUP2 PUSH4 0xFFFFFFFF AND PUSH1 0xE0 SHL DUP2 MSTORE PUSH1 0x4 ADD PUSH2 0x599 SWAP1 PUSH2 0xB30 JUMP JUMPDEST PUSH1 0x20 PUSH1 0x40 MLOAD DUP1 DUP4 SUB DUP2 DUP7 GAS STATICCALL ISZERO DUP1 ISZERO PUSH2 0x5B4 JUMPI RETURNDATASIZE PUSH0 DUP1 RETURNDATACOPY RETURNDATASIZE PUSH0 REVERT JUMPDEST POP POP POP POP PUSH1 0x40 MLOAD RETURNDATASIZE PUSH1 0x1F NOT PUSH1 0x1F DUP3 ADD AND DUP3 ADD DUP1 PUSH1 0x40 MSTORE POP DUP2 ADD SWAP1 PUSH2 0x5D8 SWAP2 SWAP1 PUSH2 0x983 JUMP JUMPDEST DUP2 MSTORE PUSH1 0x20 ADD SWAP1 DUP2 MSTORE PUSH1 0x20 ADD PUSH0 KECCAK256 DUP2 SWAP1 SSTORE POP POP POP POP POP JUMP JUMPDEST PUSH1 0x1 PUSH0 SWAP1 SLOAD SWAP1 PUSH2 0x100 EXP SWAP1 DIV PUSH20 0xFFFFFFFFFFFFFFFFFFFFFFFFFFFFFFFFFFFFFFFF AND DUP2 JUMP JUMPDEST PUSH0 DUP1 REVERT JUMPDEST PUSH0 DUP1 REVERT JUMPDEST PUSH0 DUP2 SWAP1 POP SWAP2 SWAP1 POP JUMP JUMPDEST PUSH2 0x62E DUP2 PUSH2 0x61C JUMP JUMPDEST DUP2 EQ PUSH2 0x638 JUMPI PUSH0 DUP1 REVERT JUMPDEST POP JUMP JUMPDEST PUSH0 DUP2 CALLDATALOAD SWAP1 POP PUSH2 0x649 DUP2 PUSH2 0x625 JUMP JUMPDEST SWAP3 SWAP2 POP POP JUMP JUMPDEST PUSH0 PUSH1 0x20 DUP3 DUP5 SUB SLT ISZERO PUSH2 0x664 JUMPI PUSH2 0x663 PUSH2 0x614 JUMP JUMPDEST JUMPDEST PUSH0 PUSH2 0x671 DUP5 DUP3 DUP6 ADD PUSH2 0x63B JUMP JUMPDEST SWAP2 POP POP SWAP3 SWAP2 POP POP JUMP JUMPDEST PUSH0 DUP2 SWAP1 POP SWAP2 SWAP1 POP JUMP JUMPDEST PUSH2 0x68C DUP2 PUSH2 0x67A JUMP JUMPDEST DUP3 MSTORE POP POP JUMP JUMPDEST PUSH0 PUSH20 0xFFFFFFFFFFFFFFFFFFFFFFFFFFFFFFFFFFFFFFFF DUP3 AND SWAP1 POP SWAP2 SWAP1 POP JUMP JUMPDEST PUSH0 PUSH2 0x6BB DUP3 PUSH2 0x692 JUMP JUMPDEST SWAP1 POP SWAP2 SWAP1 POP JUMP JUMPDEST PUSH2 0x6CB DUP2 PUSH2 0x6B1 JUMP JUMPDEST DUP3 MSTORE POP POP JUMP JUMPDEST PUSH0 PUSH1 0x60 DUP3 ADD SWAP1 POP PUSH2 0x6E4 PUSH0 DUP4 ADD DUP7 PUSH2 0x683 JUMP JUMPDEST PUSH2 0x6F1 PUSH1 0x20 DUP4 ADD DUP6 PUSH2 0x683 JUMP JUMPDEST PUSH2 0x6FE PUSH1 0x40 DUP4 ADD DUP5 PUSH2 0x6C2 JUMP JUMPDEST SWAP5 SWAP4 POP POP POP POP JUMP JUMPDEST PUSH0 DUP1 REVERT JUMPDEST PUSH0 DUP1 REVERT JUMPDEST PUSH0 DUP1 REVERT JUMPDEST PUSH0 DUP1 DUP4 PUSH1 0x1F DUP5 ADD SLT PUSH2 0x727 JUMPI PUSH2 0x726 PUSH2 0x706 JUMP JUMPDEST JUMPDEST DUP3 CALLDATALOAD SWAP1 POP PUSH8 0xFFFFFFFFFFFFFFFF DUP2 GT ISZERO PUSH2 0x744 JUMPI PUSH2 0x743 PUSH2 0x70A JUMP JUMPDEST JUMPDEST PUSH1 0x20 DUP4 ADD SWAP2 POP DUP4 PUSH1 0x20 DUP3 MUL DUP4 ADD GT ISZERO PUSH2 0x760 JUMPI PUSH2 0x75F PUSH2 0x70E JUMP JUMPDEST JUMPDEST SWAP3 POP SWAP3 SWAP1 POP JUMP JUMPDEST PUSH0 DUP1 PUSH1 0x20 DUP4 DUP6 SUB SLT ISZERO PUSH2 0x77D JUMPI PUSH2 0x77C PUSH2 0x614 JUMP JUMPDEST JUMPDEST PUSH0 DUP4 ADD CALLDATALOAD PUSH8 0xFFFFFFFFFFFFFFFF DUP2 GT ISZERO PUSH2 0x79A JUMPI PUSH2 0x799 PUSH2 0x618 JUMP JUMPDEST JUMPDEST PUSH2 0x7A6 DUP6 DUP3 DUP7 ADD PUSH2 0x712 JUMP JUMPDEST SWAP3 POP SWAP3 POP POP SWAP3 POP SWAP3 SWAP1 POP JUMP JUMPDEST PUSH0 DUP2 SWAP1 POP SWAP2 SWAP1 POP JUMP JUMPDEST PUSH0 PUSH2 0x7D5 PUSH2 0x7D0 PUSH2 0x7CB DUP5 PUSH2 0x692 JUMP JUMPDEST PUSH2 0x7B2 JUMP JUMPDEST PUSH2 0x692 JUMP JUMPDEST SWAP1 POP SWAP2 SWAP1 POP JUMP JUMPDEST PUSH0 PUSH2 0x7E6 DUP3 PUSH2 0x7BB JUMP JUMPDEST SWAP1 POP SWAP2 SWAP1 POP JUMP JUMPDEST PUSH0 PUSH2 0x7F7 DUP3 PUSH2 0x7DC JUMP JUMPDEST SWAP1 POP SWAP2 SWAP1 POP JUMP JUMPDEST PUSH2 0x807 DUP2 PUSH2 0x7ED JUMP JUMPDEST DUP3 MSTORE POP POP JUMP JUMPDEST PUSH0 PUSH1 0x20 DUP3 ADD SWAP1 POP PUSH2 0x820 PUSH0 DUP4 ADD DUP5 PUSH2 0x7FE JUMP JUMPDEST SWAP3 SWAP2 POP POP JUMP JUMPDEST PUSH0 DUP3 DUP3 MSTORE PUSH1 0x20 DUP3 ADD SWAP1 POP SWAP3 SWAP2 POP POP JUMP JUMPDEST PUSH32 0x44617461206C656E67746820666F72204530303031303030315F325F335F3720 PUSH0 DUP3 ADD MSTORE PUSH32 0x6D75737420626520360000000000000000000000000000000000000000000000 PUSH1 0x20 DUP3 ADD MSTORE POP JUMP JUMPDEST PUSH0 PUSH2 0x890 PUSH1 0x29 DUP4 PUSH2 0x826 JUMP JUMPDEST SWAP2 POP PUSH2 0x89B DUP3 PUSH2 0x836 JUMP JUMPDEST PUSH1 0x40 DUP3 ADD SWAP1 POP SWAP2 SWAP1 POP JUMP JUMPDEST PUSH0 PUSH1 0x20 DUP3 ADD SWAP1 POP DUP2 DUP2 SUB PUSH0 DUP4 ADD MSTORE PUSH2 0x8BD DUP2 PUSH2 0x884 JUMP JUMPDEST SWAP1 POP SWAP2 SWAP1 POP JUMP JUMPDEST PUSH32 0x4E487B7100000000000000000000000000000000000000000000000000000000 PUSH0 MSTORE PUSH1 0x32 PUSH1 0x4 MSTORE PUSH1 0x24 PUSH0 REVERT JUMPDEST PUSH32 0x4550303031000000000000000000000000000000000000000000000000000000 PUSH0 DUP3 ADD MSTORE POP JUMP JUMPDEST PUSH0 PUSH2 0x925 PUSH1 0x5 DUP4 PUSH2 0x826 JUMP JUMPDEST SWAP2 POP PUSH2 0x930 DUP3 PUSH2 0x8F1 JUMP JUMPDEST PUSH1 0x20 DUP3 ADD SWAP1 POP SWAP2 SWAP1 POP JUMP JUMPDEST PUSH0 PUSH1 0x20 DUP3 ADD SWAP1 POP DUP2 DUP2 SUB PUSH0 DUP4 ADD MSTORE PUSH2 0x952 DUP2 PUSH2 0x919 JUMP JUMPDEST SWAP1 POP SWAP2 SWAP1 POP JUMP JUMPDEST PUSH2 0x962 DUP2 PUSH2 0x67A JUMP JUMPDEST DUP2 EQ PUSH2 0x96C JUMPI PUSH0 DUP1 REVERT JUMPDEST POP JUMP JUMPDEST PUSH0 DUP2 MLOAD SWAP1 POP PUSH2 0x97D DUP2 PUSH2 0x959 JUMP JUMPDEST SWAP3 SWAP2 POP POP JUMP JUMPDEST PUSH0 PUSH1 0x20 DUP3 DUP5 SUB SLT ISZERO PUSH2 0x998 JUMPI PUSH2 0x997 PUSH2 0x614 JUMP JUMPDEST JUMPDEST PUSH0 PUSH2 0x9A5 DUP5 DUP3 DUP6 ADD PUSH2 0x96F JUMP JUMPDEST SWAP2 POP POP SWAP3 SWAP2 POP POP JUMP JUMPDEST PUSH32 0x4550303032000000000000000000000000000000000000000000000000000000 PUSH0 DUP3 ADD MSTORE POP JUMP JUMPDEST PUSH0 PUSH2 0x9E2 PUSH1 0x5 DUP4 PUSH2 0x826 JUMP JUMPDEST SWAP2 POP PUSH2 0x9ED DUP3 PUSH2 0x9AE JUMP JUMPDEST PUSH1 0x20 DUP3 ADD SWAP1 POP SWAP2 SWAP1 POP JUMP JUMPDEST PUSH0 PUSH1 0x20 DUP3 ADD SWAP1 POP DUP2 DUP2 SUB PUSH0 DUP4 ADD MSTORE PUSH2 0xA0F DUP2 PUSH2 0x9D6 JUMP JUMPDEST SWAP1 POP SWAP2 SWAP1 POP JUMP JUMPDEST PUSH32 0x4550303033000000000000000000000000000000000000000000000000000000 PUSH0 DUP3 ADD MSTORE POP JUMP JUMPDEST PUSH0 PUSH2 0xA4A PUSH1 0x5 DUP4 PUSH2 0x826 JUMP JUMPDEST SWAP2 POP PUSH2 0xA55 DUP3 PUSH2 0xA16 JUMP JUMPDEST PUSH1 0x20 DUP3 ADD SWAP1 POP SWAP2 SWAP1 POP JUMP JUMPDEST PUSH0 PUSH1 0x20 DUP3 ADD SWAP1 POP DUP2 DUP2 SUB PUSH0 DUP4 ADD MSTORE PUSH2 0xA77 DUP2 PUSH2 0xA3E JUMP JUMPDEST SWAP1 POP SWAP2 SWAP1 POP JUMP JUMPDEST PUSH32 0x7472616E735F74696D6500000000000000000000000000000000000000000000 PUSH0 DUP3 ADD MSTORE POP JUMP JUMPDEST PUSH0 PUSH2 0xAB2 PUSH1 0xA DUP4 PUSH2 0x826 JUMP JUMPDEST SWAP2 POP PUSH2 0xABD DUP3 PUSH2 0xA7E JUMP JUMPDEST PUSH1 0x20 DUP3 ADD SWAP1 POP SWAP2 SWAP1 POP JUMP JUMPDEST PUSH0 PUSH1 0x20 DUP3 ADD SWAP1 POP DUP2 DUP2 SUB PUSH0 DUP4 ADD MSTORE PUSH2 0xADF DUP2 PUSH2 0xAA6 JUMP JUMPDEST SWAP1 POP SWAP2 SWAP1 POP JUMP JUMPDEST PUSH32 0x4550303035000000000000000000000000000000000000000000000000000000 PUSH0 DUP3 ADD MSTORE POP JUMP JUMPDEST PUSH0 PUSH2 0xB1A PUSH1 0x5 DUP4 PUSH2 0x826 JUMP JUMPDEST SWAP2 POP PUSH2 0xB25 DUP3 PUSH2 0xAE6 JUMP JUMPDEST PUSH1 0x20 DUP3 ADD SWAP1 POP SWAP2 SWAP1 POP JUMP JUMPDEST PUSH0 PUSH1 0x20 DUP3 ADD SWAP1 POP DUP2 DUP2 SUB PUSH0 DUP4 ADD MSTORE PUSH2 0xB47 DUP2 PUSH2 0xB0E JUMP JUMPDEST SWAP1 POP SWAP2 SWAP1 POP JUMP INVALID LOG2 PUSH5 0x6970667358 0x22 SLT KECCAK256 0xAA PUSH31 0x6B1CD2A1F2068237D72579B5C3A25074CCD401AD14AF19665F22E3CD561F64 PUSH20 0x6F6C634300081600330000000000000000000000 "
				},
				"gasEstimates": {
					"creation": {
						"codeDepositCost": "589600",
						"executionCost": "infinite",
						"totalCost": "infinite"
					},
					"external": {
						"Iparser()": "infinite",
						"processTransaction(bytes32[])": "infinite",
						"transactions(uint256)": "infinite"
					}
				},
				"methodIdentifiers": {
					"Iparser()": "e064d199",
					"processTransaction(bytes32[])": "cfbcab23",
					"transactions(uint256)": "9ace38c2"
				}
			},
			"storageLayout": {
				"storage": [
					{
						"astId": 17,
						"contract": "contracts/transactionHandlers.sol:E00010001Processor",
						"label": "transactions",
						"offset": 0,
						"slot": "0",
						"type": "t_array(t_struct(Transaction)13_storage)dyn_storage"
					},
					{
						"astId": 20,
						"contract": "contracts/transactionHandlers.sol:E00010001Processor",
						"label": "Iparser",
						"offset": 0,
						"slot": "1",
						"type": "t_contract(IParser)203"
					}
				],
				"types": {
					"t_address": {
						"encoding": "inplace",
						"label": "address",
						"numberOfBytes": "20"
					},
					"t_array(t_struct(Transaction)13_storage)dyn_storage": {
						"base": "t_struct(Transaction)13_storage",
						"encoding": "dynamic_array",
						"label": "struct Transaction[]",
						"numberOfBytes": "32"
					},
					"t_bytes32": {
						"encoding": "inplace",
						"label": "bytes32",
						"numberOfBytes": "32"
					},
					"t_contract(IParser)203": {
						"encoding": "inplace",
						"label": "contract IParser",
						"numberOfBytes": "20"
					},
					"t_int256": {
						"encoding": "inplace",
						"label": "int256",
						"numberOfBytes": "32"
					},
					"t_mapping(t_bytes32,t_int256)": {
						"encoding": "mapping",
						"key": "t_bytes32",
						"label": "mapping(bytes32 => int256)",
						"numberOfBytes": "32",
						"value": "t_int256"
					},
					"t_struct(Transaction)13_storage": {
						"encoding": "inplace",
						"label": "struct Transaction",
						"members": [
							{
								"astId": 4,
								"contract": "contracts/transactionHandlers.sol:E00010001Processor",
								"label": "eventId",
								"offset": 0,
								"slot": "0",
								"type": "t_bytes32"
							},
							{
								"astId": 6,
								"contract": "contracts/transactionHandlers.sol:E00010001Processor",
								"label": "transactionType",
								"offset": 0,
								"slot": "1",
								"type": "t_bytes32"
							},
							{
								"astId": 8,
								"contract": "contracts/transactionHandlers.sol:E00010001Processor",
								"label": "Recorder",
								"offset": 0,
								"slot": "2",
								"type": "t_address"
							},
							{
								"astId": 12,
								"contract": "contracts/transactionHandlers.sol:E00010001Processor",
								"label": "params",
								"offset": 0,
								"slot": "3",
								"type": "t_mapping(t_bytes32,t_int256)"
							}
						],
						"numberOfBytes": "128"
					}
				}
			},
			"userdoc": {
				"kind": "user",
				"methods": {},
				"version": 1
			}
		}
	}
}