{
	"contracts/eventTransactionBytes32.sol": {
		"TransactionContract": {
			"abi": [
				{
					"inputs": [
						{
							"internalType": "bytes32[]",
							"name": "data",
							"type": "bytes32[]"
						}
					],
					"name": "addRecord",
					"outputs": [],
					"stateMutability": "nonpayable",
					"type": "function"
				},
				{
					"inputs": [
						{
							"internalType": "bytes32",
							"name": "_eventId",
							"type": "bytes32"
						}
					],
					"name": "getTransaction",
					"outputs": [
						{
							"internalType": "bytes32",
							"name": "",
							"type": "bytes32"
						},
						{
							"internalType": "bytes32",
							"name": "",
							"type": "bytes32"
						},
						{
							"internalType": "address",
							"name": "",
							"type": "address"
						}
					],
					"stateMutability": "view",
					"type": "function"
				},
				{
					"inputs": [
						{
							"internalType": "uint256",
							"name": "index",
							"type": "uint256"
						}
					],
					"name": "getTransactionEventId",
					"outputs": [
						{
							"internalType": "bytes32",
							"name": "",
							"type": "bytes32"
						}
					],
					"stateMutability": "view",
					"type": "function"
				},
				{
					"inputs": [
						{
							"internalType": "uint256",
							"name": "index",
							"type": "uint256"
						},
						{
							"internalType": "bytes32",
							"name": "paramKey",
							"type": "bytes32"
						}
					],
					"name": "getTransactionParam",
					"outputs": [
						{
							"internalType": "int256",
							"name": "",
							"type": "int256"
						}
					],
					"stateMutability": "view",
					"type": "function"
				},
				{
					"inputs": [
						{
							"internalType": "bytes32",
							"name": "_eventId",
							"type": "bytes32"
						},
						{
							"internalType": "bytes32",
							"name": "_paramKey",
							"type": "bytes32"
						}
					],
					"name": "getTransactionParamByEventId",
					"outputs": [
						{
							"internalType": "int256",
							"name": "",
							"type": "int256"
						}
					],
					"stateMutability": "view",
					"type": "function"
				},
				{
					"inputs": [
						{
							"internalType": "uint256",
							"name": "index",
							"type": "uint256"
						}
					],
					"name": "getTransactionTime",
					"outputs": [
						{
							"internalType": "int256",
							"name": "",
							"type": "int256"
						}
					],
					"stateMutability": "view",
					"type": "function"
				},
				{
					"inputs": [
						{
							"internalType": "uint256",
							"name": "index",
							"type": "uint256"
						}
					],
					"name": "getTransactionType",
					"outputs": [
						{
							"internalType": "bytes32",
							"name": "",
							"type": "bytes32"
						}
					],
					"stateMutability": "view",
					"type": "function"
				},
				{
					"inputs": [],
					"name": "getTransactionsCount",
					"outputs": [
						{
							"internalType": "uint256",
							"name": "",
							"type": "uint256"
						}
					],
					"stateMutability": "view",
					"type": "function"
				},
				{
					"inputs": [
						{
							"internalType": "string",
							"name": "_str1",
							"type": "string"
						},
						{
							"internalType": "string",
							"name": "_str2",
							"type": "string"
						},
						{
							"internalType": "int256",
							"name": "_int1",
							"type": "int256"
						},
						{
							"internalType": "int256",
							"name": "_int2",
							"type": "int256"
						},
						{
							"internalType": "int256",
							"name": "_int3",
							"type": "int256"
						},
						{
							"internalType": "int256",
							"name": "_int4",
							"type": "int256"
						}
					],
					"name": "inputWithDecimal",
					"outputs": [
						{
							"internalType": "bytes32[]",
							"name": "",
							"type": "bytes32[]"
						}
					],
					"stateMutability": "nonpayable",
					"type": "function"
				},
				{
					"inputs": [
						{
							"internalType": "uint256",
							"name": "",
							"type": "uint256"
						}
					],
					"name": "transactions",
					"outputs": [
						{
							"internalType": "bytes32",
							"name": "eventId",
							"type": "bytes32"
						},
						{
							"internalType": "bytes32",
							"name": "transactionType",
							"type": "bytes32"
						},
						{
							"internalType": "address",
							"name": "Recorder",
							"type": "address"
						}
					],
					"stateMutability": "view",
					"type": "function"
				}
			],
			"devdoc": {
				"kind": "dev",
				"methods": {},
				"version": 1
			},
			"evm": {
				"assembly": "    /* \"contracts/eventTransactionBytes32.sol\":58:6405  contract TransactionContract {... */\n  mstore(0x40, 0x80)\n  callvalue\n  dup1\n  iszero\n  tag_1\n  jumpi\n  0x00\n  dup1\n  revert\ntag_1:\n  pop\n  dataSize(sub_0)\n  dup1\n  dataOffset(sub_0)\n  0x00\n  codecopy\n  0x00\n  return\nstop\n\nsub_0: assembly {\n        /* \"contracts/eventTransactionBytes32.sol\":58:6405  contract TransactionContract {... */\n      mstore(0x40, 0x80)\n      callvalue\n      dup1\n      iszero\n      tag_1\n      jumpi\n      0x00\n      dup1\n      revert\n    tag_1:\n      pop\n      jumpi(tag_2, lt(calldatasize, 0x04))\n      shr(0xe0, calldataload(0x00))\n      dup1\n      0x9b4e3420\n      gt\n      tag_13\n      jumpi\n      dup1\n      0x9b4e3420\n      eq\n      tag_8\n      jumpi\n      dup1\n      0xc4af6548\n      eq\n      tag_9\n      jumpi\n      dup1\n      0xdf4ecf42\n      eq\n      tag_10\n      jumpi\n      dup1\n      0xe09576f0\n      eq\n      tag_11\n      jumpi\n      dup1\n      0xfadc6bc6\n      eq\n      tag_12\n      jumpi\n      jump(tag_2)\n    tag_13:\n      dup1\n      0x1afc42b6\n      eq\n      tag_3\n      jumpi\n      dup1\n      0x419e4138\n      eq\n      tag_4\n      jumpi\n      dup1\n      0x4aae13ca\n      eq\n      tag_5\n      jumpi\n      dup1\n      0x578cb8f9\n      eq\n      tag_6\n      jumpi\n      dup1\n      0x9ace38c2\n      eq\n      tag_7\n      jumpi\n    tag_2:\n      0x00\n      dup1\n      revert\n        /* \"contracts/eventTransactionBytes32.sol\":5857:6008  function getTransactionParam(uint256 index, bytes32 paramKey) public view returns (int256) {... */\n    tag_3:\n      tag_14\n      0x04\n      dup1\n      calldatasize\n      sub\n      dup2\n      add\n      swap1\n      tag_15\n      swap2\n      swap1\n      tag_16\n      jump\t// in\n    tag_15:\n      tag_17\n      jump\t// in\n    tag_14:\n      mload(0x40)\n      tag_18\n      swap2\n      swap1\n      tag_19\n      jump\t// in\n    tag_18:\n      mload(0x40)\n      dup1\n      swap2\n      sub\n      swap1\n      return\n        /* \"contracts/eventTransactionBytes32.sol\":6177:6403  function getTransactionParamByEventId(bytes32 _eventId, bytes32 _paramKey) public view returns (int256) {... */\n    tag_4:\n      tag_20\n      0x04\n      dup1\n      calldatasize\n      sub\n      dup2\n      add\n      swap1\n      tag_21\n      swap2\n      swap1\n      tag_22\n      jump\t// in\n    tag_21:\n      tag_23\n      jump\t// in\n    tag_20:\n      mload(0x40)\n      tag_24\n      swap2\n      swap1\n      tag_19\n      jump\t// in\n    tag_24:\n      mload(0x40)\n      dup1\n      swap2\n      sub\n      swap1\n      return\n        /* \"contracts/eventTransactionBytes32.sol\":4828:5129  function getTransaction(bytes32 _eventId) public view returns (bytes32, bytes32, address) {... */\n    tag_5:\n      tag_25\n      0x04\n      dup1\n      calldatasize\n      sub\n      dup2\n      add\n      swap1\n      tag_26\n      swap2\n      swap1\n      tag_27\n      jump\t// in\n    tag_26:\n      tag_28\n      jump\t// in\n    tag_25:\n      mload(0x40)\n      tag_29\n      swap4\n      swap3\n      swap2\n      swap1\n      tag_30\n      jump\t// in\n    tag_29:\n      mload(0x40)\n      dup1\n      swap2\n      sub\n      swap1\n      return\n        /* \"contracts/eventTransactionBytes32.sol\":5475:5580  function getTransactionsCount() public view returns (uint256) {... */\n    tag_6:\n      tag_31\n      tag_32\n      jump\t// in\n    tag_31:\n      mload(0x40)\n      tag_33\n      swap2\n      swap1\n      tag_34\n      jump\t// in\n    tag_33:\n      mload(0x40)\n      dup1\n      swap2\n      sub\n      swap1\n      return\n        /* \"contracts/eventTransactionBytes32.sol\":260:293  Transaction[] public transactions */\n    tag_7:\n      tag_35\n      0x04\n      dup1\n      calldatasize\n      sub\n      dup2\n      add\n      swap1\n      tag_36\n      swap2\n      swap1\n      tag_37\n      jump\t// in\n    tag_36:\n      tag_38\n      jump\t// in\n    tag_35:\n      mload(0x40)\n      tag_39\n      swap4\n      swap3\n      swap2\n      swap1\n      tag_30\n      jump\t// in\n    tag_39:\n      mload(0x40)\n      dup1\n      swap2\n      sub\n      swap1\n      return\n        /* \"contracts/eventTransactionBytes32.sol\":5724:5851  function getTransactionEventId(uint256 index) public view returns (bytes32) {... */\n    tag_8:\n      tag_40\n      0x04\n      dup1\n      calldatasize\n      sub\n      dup2\n      add\n      swap1\n      tag_41\n      swap2\n      swap1\n      tag_37\n      jump\t// in\n    tag_41:\n      tag_42\n      jump\t// in\n    tag_40:\n      mload(0x40)\n      tag_43\n      swap2\n      swap1\n      tag_44\n      jump\t// in\n    tag_43:\n      mload(0x40)\n      dup1\n      swap2\n      sub\n      swap1\n      return\n        /* \"contracts/eventTransactionBytes32.sol\":1456:2122  function addRecord(bytes32[] memory data) public {... */\n    tag_9:\n      tag_45\n      0x04\n      dup1\n      calldatasize\n      sub\n      dup2\n      add\n      swap1\n      tag_46\n      swap2\n      swap1\n      tag_47\n      jump\t// in\n    tag_46:\n      tag_48\n      jump\t// in\n    tag_45:\n      stop\n        /* \"contracts/eventTransactionBytes32.sol\":434:1007  function inputWithDecimal(... */\n    tag_10:\n      tag_49\n      0x04\n      dup1\n      calldatasize\n      sub\n      dup2\n      add\n      swap1\n      tag_50\n      swap2\n      swap1\n      tag_51\n      jump\t// in\n    tag_50:\n      tag_52\n      jump\t// in\n    tag_49:\n      mload(0x40)\n      tag_53\n      swap2\n      swap1\n      tag_54\n      jump\t// in\n    tag_53:\n      mload(0x40)\n      dup1\n      swap2\n      sub\n      swap1\n      return\n        /* \"contracts/eventTransactionBytes32.sol\":5586:5718  function getTransactionType(uint256 index) public view returns (bytes32) {... */\n    tag_11:\n      tag_55\n      0x04\n      dup1\n      calldatasize\n      sub\n      dup2\n      add\n      swap1\n      tag_56\n      swap2\n      swap1\n      tag_37\n      jump\t// in\n    tag_56:\n      tag_57\n      jump\t// in\n    tag_55:\n      mload(0x40)\n      tag_58\n      swap2\n      swap1\n      tag_44\n      jump\t// in\n    tag_58:\n      mload(0x40)\n      dup1\n      swap2\n      sub\n      swap1\n      return\n        /* \"contracts/eventTransactionBytes32.sol\":6014:6167  function getTransactionTime(uint256 index) public view returns (int256) {... */\n    tag_12:\n      tag_59\n      0x04\n      dup1\n      calldatasize\n      sub\n      dup2\n      add\n      swap1\n      tag_60\n      swap2\n      swap1\n      tag_37\n      jump\t// in\n    tag_60:\n      tag_61\n      jump\t// in\n    tag_59:\n      mload(0x40)\n      tag_62\n      swap2\n      swap1\n      tag_19\n      jump\t// in\n    tag_62:\n      mload(0x40)\n      dup1\n      swap2\n      sub\n      swap1\n      return\n        /* \"contracts/eventTransactionBytes32.sol\":5857:6008  function getTransactionParam(uint256 index, bytes32 paramKey) public view returns (int256) {... */\n    tag_17:\n        /* \"contracts/eventTransactionBytes32.sol\":5940:5946  int256 */\n      0x00\n        /* \"contracts/eventTransactionBytes32.sol\":5965:5977  transactions */\n      dup1\n        /* \"contracts/eventTransactionBytes32.sol\":5978:5983  index */\n      dup4\n        /* \"contracts/eventTransactionBytes32.sol\":5965:5984  transactions[index] */\n      dup2\n      sload\n      dup2\n      lt\n      tag_64\n      jumpi\n      tag_65\n      tag_66\n      jump\t// in\n    tag_65:\n    tag_64:\n      swap1\n      0x00\n      mstore\n      keccak256(0x00, 0x20)\n      swap1\n      0x04\n      mul\n      add\n        /* \"contracts/eventTransactionBytes32.sol\":5965:5991  transactions[index].params */\n      0x03\n      add\n        /* \"contracts/eventTransactionBytes32.sol\":5965:6001  transactions[index].params[paramKey] */\n      0x00\n        /* \"contracts/eventTransactionBytes32.sol\":5992:6000  paramKey */\n      dup4\n        /* \"contracts/eventTransactionBytes32.sol\":5965:6001  transactions[index].params[paramKey] */\n      dup2\n      mstore\n      0x20\n      add\n      swap1\n      dup2\n      mstore\n      0x20\n      add\n      0x00\n      keccak256\n      sload\n        /* \"contracts/eventTransactionBytes32.sol\":5958:6001  return transactions[index].params[paramKey] */\n      swap1\n      pop\n        /* \"contracts/eventTransactionBytes32.sol\":5857:6008  function getTransactionParam(uint256 index, bytes32 paramKey) public view returns (int256) {... */\n      swap3\n      swap2\n      pop\n      pop\n      jump\t// out\n        /* \"contracts/eventTransactionBytes32.sol\":6177:6403  function getTransactionParamByEventId(bytes32 _eventId, bytes32 _paramKey) public view returns (int256) {... */\n    tag_23:\n        /* \"contracts/eventTransactionBytes32.sol\":6273:6279  int256 */\n      0x00\n        /* \"contracts/eventTransactionBytes32.sol\":6291:6322  Transaction storage transaction */\n      dup1\n        /* \"contracts/eventTransactionBytes32.sol\":6325:6350  findTransaction(_eventId) */\n      tag_69\n        /* \"contracts/eventTransactionBytes32.sol\":6341:6349  _eventId */\n      dup5\n        /* \"contracts/eventTransactionBytes32.sol\":6325:6340  findTransaction */\n      tag_70\n        /* \"contracts/eventTransactionBytes32.sol\":6325:6350  findTransaction(_eventId) */\n      jump\t// in\n    tag_69:\n        /* \"contracts/eventTransactionBytes32.sol\":6291:6350  Transaction storage transaction = findTransaction(_eventId) */\n      swap1\n      pop\n        /* \"contracts/eventTransactionBytes32.sol\":6367:6378  transaction */\n      dup1\n        /* \"contracts/eventTransactionBytes32.sol\":6367:6385  transaction.params */\n      0x03\n      add\n        /* \"contracts/eventTransactionBytes32.sol\":6367:6396  transaction.params[_paramKey] */\n      0x00\n        /* \"contracts/eventTransactionBytes32.sol\":6386:6395  _paramKey */\n      dup5\n        /* \"contracts/eventTransactionBytes32.sol\":6367:6396  transaction.params[_paramKey] */\n      dup2\n      mstore\n      0x20\n      add\n      swap1\n      dup2\n      mstore\n      0x20\n      add\n      0x00\n      keccak256\n      sload\n        /* \"contracts/eventTransactionBytes32.sol\":6360:6396  return transaction.params[_paramKey] */\n      swap2\n      pop\n      pop\n        /* \"contracts/eventTransactionBytes32.sol\":6177:6403  function getTransactionParamByEventId(bytes32 _eventId, bytes32 _paramKey) public view returns (int256) {... */\n      swap3\n      swap2\n      pop\n      pop\n      jump\t// out\n        /* \"contracts/eventTransactionBytes32.sol\":4828:5129  function getTransaction(bytes32 _eventId) public view returns (bytes32, bytes32, address) {... */\n    tag_28:\n        /* \"contracts/eventTransactionBytes32.sol\":4891:4898  bytes32 */\n      0x00\n        /* \"contracts/eventTransactionBytes32.sol\":4900:4907  bytes32 */\n      dup1\n        /* \"contracts/eventTransactionBytes32.sol\":4909:4916  address */\n      0x00\n        /* \"contracts/eventTransactionBytes32.sol\":4928:4959  Transaction storage transaction */\n      dup1\n        /* \"contracts/eventTransactionBytes32.sol\":4962:4987  findTransaction(_eventId) */\n      tag_72\n        /* \"contracts/eventTransactionBytes32.sol\":4978:4986  _eventId */\n      dup6\n        /* \"contracts/eventTransactionBytes32.sol\":4962:4977  findTransaction */\n      tag_70\n        /* \"contracts/eventTransactionBytes32.sol\":4962:4987  findTransaction(_eventId) */\n      jump\t// in\n    tag_72:\n        /* \"contracts/eventTransactionBytes32.sol\":4928:4987  Transaction storage transaction = findTransaction(_eventId) */\n      swap1\n      pop\n        /* \"contracts/eventTransactionBytes32.sol\":5018:5029  transaction */\n      dup1\n        /* \"contracts/eventTransactionBytes32.sol\":5018:5045  transaction.transactionType */\n      0x01\n      add\n      sload\n        /* \"contracts/eventTransactionBytes32.sol\":5059:5070  transaction */\n      dup2\n        /* \"contracts/eventTransactionBytes32.sol\":5059:5078  transaction.eventId */\n      0x00\n      add\n      sload\n        /* \"contracts/eventTransactionBytes32.sol\":5092:5103  transaction */\n      dup3\n        /* \"contracts/eventTransactionBytes32.sol\":5092:5112  transaction.Recorder */\n      0x02\n      add\n      0x00\n      swap1\n      sload\n      swap1\n      0x0100\n      exp\n      swap1\n      div\n      0xffffffffffffffffffffffffffffffffffffffff\n      and\n        /* \"contracts/eventTransactionBytes32.sol\":4997:5122  return (... */\n      swap4\n      pop\n      swap4\n      pop\n      swap4\n      pop\n      pop\n        /* \"contracts/eventTransactionBytes32.sol\":4828:5129  function getTransaction(bytes32 _eventId) public view returns (bytes32, bytes32, address) {... */\n      swap2\n      swap4\n      swap1\n      swap3\n      pop\n      jump\t// out\n        /* \"contracts/eventTransactionBytes32.sol\":5475:5580  function getTransactionsCount() public view returns (uint256) {... */\n    tag_32:\n        /* \"contracts/eventTransactionBytes32.sol\":5528:5535  uint256 */\n      0x00\n        /* \"contracts/eventTransactionBytes32.sol\":5554:5566  transactions */\n      dup1\n        /* \"contracts/eventTransactionBytes32.sol\":5554:5573  transactions.length */\n      dup1\n      sload\n      swap1\n      pop\n        /* \"contracts/eventTransactionBytes32.sol\":5547:5573  return transactions.length */\n      swap1\n      pop\n        /* \"contracts/eventTransactionBytes32.sol\":5475:5580  function getTransactionsCount() public view returns (uint256) {... */\n      swap1\n      jump\t// out\n        /* \"contracts/eventTransactionBytes32.sol\":260:293  Transaction[] public transactions */\n    tag_38:\n      0x00\n      dup2\n      dup2\n      sload\n      dup2\n      lt\n      tag_74\n      jumpi\n      0x00\n      dup1\n      revert\n    tag_74:\n      swap1\n      0x00\n      mstore\n      keccak256(0x00, 0x20)\n      swap1\n      0x04\n      mul\n      add\n      0x00\n      swap2\n      pop\n      swap1\n      pop\n      dup1\n      0x00\n      add\n      sload\n      swap1\n      dup1\n      0x01\n      add\n      sload\n      swap1\n      dup1\n      0x02\n      add\n      0x00\n      swap1\n      sload\n      swap1\n      0x0100\n      exp\n      swap1\n      div\n      0xffffffffffffffffffffffffffffffffffffffff\n      and\n      swap1\n      pop\n      dup4\n      jump\t// out\n        /* \"contracts/eventTransactionBytes32.sol\":5724:5851  function getTransactionEventId(uint256 index) public view returns (bytes32) {... */\n    tag_42:\n        /* \"contracts/eventTransactionBytes32.sol\":5791:5798  bytes32 */\n      0x00\n        /* \"contracts/eventTransactionBytes32.sol\":5817:5829  transactions */\n      dup1\n        /* \"contracts/eventTransactionBytes32.sol\":5830:5835  index */\n      dup3\n        /* \"contracts/eventTransactionBytes32.sol\":5817:5836  transactions[index] */\n      dup2\n      sload\n      dup2\n      lt\n      tag_77\n      jumpi\n      tag_78\n      tag_66\n      jump\t// in\n    tag_78:\n    tag_77:\n      swap1\n      0x00\n      mstore\n      keccak256(0x00, 0x20)\n      swap1\n      0x04\n      mul\n      add\n        /* \"contracts/eventTransactionBytes32.sol\":5817:5844  transactions[index].eventId */\n      0x00\n      add\n      sload\n        /* \"contracts/eventTransactionBytes32.sol\":5810:5844  return transactions[index].eventId */\n      swap1\n      pop\n        /* \"contracts/eventTransactionBytes32.sol\":5724:5851  function getTransactionEventId(uint256 index) public view returns (bytes32) {... */\n      swap2\n      swap1\n      pop\n      jump\t// out\n        /* \"contracts/eventTransactionBytes32.sol\":1456:2122  function addRecord(bytes32[] memory data) public {... */\n    tag_48:\n        /* \"contracts/eventTransactionBytes32.sol\":1538:1539  3 */\n      0x03\n        /* \"contracts/eventTransactionBytes32.sol\":1523:1527  data */\n      dup2\n        /* \"contracts/eventTransactionBytes32.sol\":1523:1534  data.length */\n      mload\n        /* \"contracts/eventTransactionBytes32.sol\":1523:1539  data.length >= 3 */\n      lt\n      iszero\n        /* \"contracts/eventTransactionBytes32.sol\":1515:1582  require(data.length >= 3, \"Data must have at least three elements\") */\n      tag_81\n      jumpi\n      mload(0x40)\n      0x08c379a000000000000000000000000000000000000000000000000000000000\n      dup2\n      mstore\n      0x04\n      add\n      tag_82\n      swap1\n      tag_83\n      jump\t// in\n    tag_82:\n      mload(0x40)\n      dup1\n      swap2\n      sub\n      swap1\n      revert\n    tag_81:\n        /* \"contracts/eventTransactionBytes32.sol\":1592:1615  bytes32 transactionType */\n      0x00\n        /* \"contracts/eventTransactionBytes32.sol\":1618:1622  data */\n      dup2\n        /* \"contracts/eventTransactionBytes32.sol\":1623:1624  1 */\n      0x01\n        /* \"contracts/eventTransactionBytes32.sol\":1618:1625  data[1] */\n      dup2\n      mload\n      dup2\n      lt\n      tag_84\n      jumpi\n      tag_85\n      tag_66\n      jump\t// in\n    tag_85:\n    tag_84:\n      0x20\n      mul\n      0x20\n      add\n      add\n      mload\n        /* \"contracts/eventTransactionBytes32.sol\":1592:1625  bytes32 transactionType = data[1] */\n      swap1\n      pop\n        /* \"contracts/eventTransactionBytes32.sol\":1658:1678  bytes32(\"E00010001\") */\n      0x4530303031303030310000000000000000000000000000000000000000000000\n        /* \"contracts/eventTransactionBytes32.sol\":1639:1654  transactionType */\n      dup2\n        /* \"contracts/eventTransactionBytes32.sol\":1639:1678  transactionType == bytes32(\"E00010001\") */\n      eq\n        /* \"contracts/eventTransactionBytes32.sol\":1639:1719  transactionType == bytes32(\"E00010001\")||transactionType == bytes32(\"E00010002\") */\n      dup1\n      tag_86\n      jumpi\n      pop\n        /* \"contracts/eventTransactionBytes32.sol\":1699:1719  bytes32(\"E00010002\") */\n      0x4530303031303030320000000000000000000000000000000000000000000000\n        /* \"contracts/eventTransactionBytes32.sol\":1680:1695  transactionType */\n      dup2\n        /* \"contracts/eventTransactionBytes32.sol\":1680:1719  transactionType == bytes32(\"E00010002\") */\n      eq\n        /* \"contracts/eventTransactionBytes32.sol\":1639:1719  transactionType == bytes32(\"E00010001\")||transactionType == bytes32(\"E00010002\") */\n    tag_86:\n        /* \"contracts/eventTransactionBytes32.sol\":1639:1760  transactionType == bytes32(\"E00010001\")||transactionType == bytes32(\"E00010002\")||transactionType == bytes32(\"E00010003\") */\n      dup1\n      tag_87\n      jumpi\n      pop\n        /* \"contracts/eventTransactionBytes32.sol\":1740:1760  bytes32(\"E00010003\") */\n      0x4530303031303030330000000000000000000000000000000000000000000000\n        /* \"contracts/eventTransactionBytes32.sol\":1721:1736  transactionType */\n      dup2\n        /* \"contracts/eventTransactionBytes32.sol\":1721:1760  transactionType == bytes32(\"E00010003\") */\n      eq\n        /* \"contracts/eventTransactionBytes32.sol\":1639:1760  transactionType == bytes32(\"E00010001\")||transactionType == bytes32(\"E00010002\")||transactionType == bytes32(\"E00010003\") */\n    tag_87:\n        /* \"contracts/eventTransactionBytes32.sol\":1635:2116  if (transactionType == bytes32(\"E00010001\")||transactionType == bytes32(\"E00010002\")||transactionType == bytes32(\"E00010003\")) {... */\n      iszero\n      tag_88\n      jumpi\n        /* \"contracts/eventTransactionBytes32.sol\":1776:1797  E00010001_2_3_7(data) */\n      tag_89\n        /* \"contracts/eventTransactionBytes32.sol\":1792:1796  data */\n      dup3\n        /* \"contracts/eventTransactionBytes32.sol\":1776:1791  E00010001_2_3_7 */\n      tag_90\n        /* \"contracts/eventTransactionBytes32.sol\":1776:1797  E00010001_2_3_7(data) */\n      jump\t// in\n    tag_89:\n        /* \"contracts/eventTransactionBytes32.sol\":1635:2116  if (transactionType == bytes32(\"E00010001\")||transactionType == bytes32(\"E00010002\")||transactionType == bytes32(\"E00010003\")) {... */\n      jump(tag_91)\n    tag_88:\n        /* \"contracts/eventTransactionBytes32.sol\":1845:1865  bytes32(\"E00010004\") */\n      0x4530303031303030340000000000000000000000000000000000000000000000\n        /* \"contracts/eventTransactionBytes32.sol\":1826:1841  transactionType */\n      dup2\n        /* \"contracts/eventTransactionBytes32.sol\":1826:1865  transactionType == bytes32(\"E00010004\") */\n      sub\n        /* \"contracts/eventTransactionBytes32.sol\":1823:2116  if(transactionType == bytes32(\"E00010004\")){... */\n      tag_92\n      jumpi\n        /* \"contracts/eventTransactionBytes32.sol\":1880:1897  E00010004_8(data) */\n      tag_93\n        /* \"contracts/eventTransactionBytes32.sol\":1892:1896  data */\n      dup3\n        /* \"contracts/eventTransactionBytes32.sol\":1880:1891  E00010004_8 */\n      tag_94\n        /* \"contracts/eventTransactionBytes32.sol\":1880:1897  E00010004_8(data) */\n      jump\t// in\n    tag_93:\n        /* \"contracts/eventTransactionBytes32.sol\":1823:2116  if(transactionType == bytes32(\"E00010004\")){... */\n      jump(tag_95)\n    tag_92:\n        /* \"contracts/eventTransactionBytes32.sol\":1944:1964  bytes32(\"E00010005\") */\n      0x4530303031303030350000000000000000000000000000000000000000000000\n        /* \"contracts/eventTransactionBytes32.sol\":1925:1940  transactionType */\n      dup2\n        /* \"contracts/eventTransactionBytes32.sol\":1925:1964  transactionType == bytes32(\"E00010005\") */\n      eq\n        /* \"contracts/eventTransactionBytes32.sol\":1925:2005  transactionType == bytes32(\"E00010005\")||transactionType == bytes32(\"E00010006\") */\n      dup1\n      tag_96\n      jumpi\n      pop\n        /* \"contracts/eventTransactionBytes32.sol\":1985:2005  bytes32(\"E00010006\") */\n      0x4530303031303030360000000000000000000000000000000000000000000000\n        /* \"contracts/eventTransactionBytes32.sol\":1966:1981  transactionType */\n      dup2\n        /* \"contracts/eventTransactionBytes32.sol\":1966:2005  transactionType == bytes32(\"E00010006\") */\n      eq\n        /* \"contracts/eventTransactionBytes32.sol\":1925:2005  transactionType == bytes32(\"E00010005\")||transactionType == bytes32(\"E00010006\") */\n    tag_96:\n        /* \"contracts/eventTransactionBytes32.sol\":1922:2116  if(transactionType == bytes32(\"E00010005\")||transactionType == bytes32(\"E00010006\")){... */\n      iszero\n      tag_97\n      jumpi\n        /* \"contracts/eventTransactionBytes32.sol\":2020:2037  E00010005_6(data) */\n      tag_98\n        /* \"contracts/eventTransactionBytes32.sol\":2032:2036  data */\n      dup3\n        /* \"contracts/eventTransactionBytes32.sol\":2020:2031  E00010005_6 */\n      tag_99\n        /* \"contracts/eventTransactionBytes32.sol\":2020:2037  E00010005_6(data) */\n      jump\t// in\n    tag_98:\n        /* \"contracts/eventTransactionBytes32.sol\":1922:2116  if(transactionType == bytes32(\"E00010005\")||transactionType == bytes32(\"E00010006\")){... */\n      jump(tag_100)\n    tag_97:\n        /* \"contracts/eventTransactionBytes32.sol\":2067:2105  revert(\"Unsupported transaction type\") */\n      mload(0x40)\n      0x08c379a000000000000000000000000000000000000000000000000000000000\n      dup2\n      mstore\n      0x04\n      add\n      tag_101\n      swap1\n      tag_102\n      jump\t// in\n    tag_101:\n      mload(0x40)\n      dup1\n      swap2\n      sub\n      swap1\n      revert\n        /* \"contracts/eventTransactionBytes32.sol\":1922:2116  if(transactionType == bytes32(\"E00010005\")||transactionType == bytes32(\"E00010006\")){... */\n    tag_100:\n        /* \"contracts/eventTransactionBytes32.sol\":1823:2116  if(transactionType == bytes32(\"E00010004\")){... */\n    tag_95:\n        /* \"contracts/eventTransactionBytes32.sol\":1635:2116  if (transactionType == bytes32(\"E00010001\")||transactionType == bytes32(\"E00010002\")||transactionType == bytes32(\"E00010003\")) {... */\n    tag_91:\n        /* \"contracts/eventTransactionBytes32.sol\":1505:2122  {... */\n      pop\n        /* \"contracts/eventTransactionBytes32.sol\":1456:2122  function addRecord(bytes32[] memory data) public {... */\n      pop\n      jump\t// out\n        /* \"contracts/eventTransactionBytes32.sol\":434:1007  function inputWithDecimal(... */\n    tag_52:\n        /* \"contracts/eventTransactionBytes32.sol\":628:644  bytes32[] memory */\n      0x60\n        /* \"contracts/eventTransactionBytes32.sol\":656:679  bytes32[] memory result */\n      0x00\n        /* \"contracts/eventTransactionBytes32.sol\":696:697  6 */\n      0x06\n        /* \"contracts/eventTransactionBytes32.sol\":682:698  new bytes32[](6) */\n      0xffffffffffffffff\n      dup2\n      gt\n      iszero\n      tag_104\n      jumpi\n      tag_105\n      tag_106\n      jump\t// in\n    tag_105:\n    tag_104:\n      mload(0x40)\n      swap1\n      dup1\n      dup3\n      mstore\n      dup1\n      0x20\n      mul\n      0x20\n      add\n      dup3\n      add\n      0x40\n      mstore\n      dup1\n      iszero\n      tag_107\n      jumpi\n      dup2\n      0x20\n      add\n      0x20\n      dup3\n      mul\n      dup1\n      calldatasize\n      dup4\n      calldatacopy\n      dup1\n      dup3\n      add\n      swap2\n      pop\n      pop\n      swap1\n      pop\n    tag_107:\n      pop\n        /* \"contracts/eventTransactionBytes32.sol\":656:698  bytes32[] memory result = new bytes32[](6) */\n      swap1\n      pop\n        /* \"contracts/eventTransactionBytes32.sol\":720:742  stringToBytes32(_str1) */\n      tag_108\n        /* \"contracts/eventTransactionBytes32.sol\":736:741  _str1 */\n      dup9\n        /* \"contracts/eventTransactionBytes32.sol\":720:735  stringToBytes32 */\n      tag_109\n        /* \"contracts/eventTransactionBytes32.sol\":720:742  stringToBytes32(_str1) */\n      jump\t// in\n    tag_108:\n        /* \"contracts/eventTransactionBytes32.sol\":708:714  result */\n      dup2\n        /* \"contracts/eventTransactionBytes32.sol\":715:716  0 */\n      0x00\n        /* \"contracts/eventTransactionBytes32.sol\":708:717  result[0] */\n      dup2\n      mload\n      dup2\n      lt\n      tag_110\n      jumpi\n      tag_111\n      tag_66\n      jump\t// in\n    tag_111:\n    tag_110:\n      0x20\n      mul\n      0x20\n      add\n      add\n        /* \"contracts/eventTransactionBytes32.sol\":708:742  result[0] = stringToBytes32(_str1) */\n      dup2\n      dup2\n      mstore\n      pop\n      pop\n        /* \"contracts/eventTransactionBytes32.sol\":764:786  stringToBytes32(_str2) */\n      tag_112\n        /* \"contracts/eventTransactionBytes32.sol\":780:785  _str2 */\n      dup8\n        /* \"contracts/eventTransactionBytes32.sol\":764:779  stringToBytes32 */\n      tag_109\n        /* \"contracts/eventTransactionBytes32.sol\":764:786  stringToBytes32(_str2) */\n      jump\t// in\n    tag_112:\n        /* \"contracts/eventTransactionBytes32.sol\":752:758  result */\n      dup2\n        /* \"contracts/eventTransactionBytes32.sol\":759:760  1 */\n      0x01\n        /* \"contracts/eventTransactionBytes32.sol\":752:761  result[1] */\n      dup2\n      mload\n      dup2\n      lt\n      tag_113\n      jumpi\n      tag_114\n      tag_66\n      jump\t// in\n    tag_114:\n    tag_113:\n      0x20\n      mul\n      0x20\n      add\n      add\n        /* \"contracts/eventTransactionBytes32.sol\":752:786  result[1] = stringToBytes32(_str2) */\n      dup2\n      dup2\n      mstore\n      pop\n      pop\n        /* \"contracts/eventTransactionBytes32.sol\":808:827  intToBytes32(_int1) */\n      tag_115\n        /* \"contracts/eventTransactionBytes32.sol\":821:826  _int1 */\n      dup7\n        /* \"contracts/eventTransactionBytes32.sol\":808:820  intToBytes32 */\n      tag_116\n        /* \"contracts/eventTransactionBytes32.sol\":808:827  intToBytes32(_int1) */\n      jump\t// in\n    tag_115:\n        /* \"contracts/eventTransactionBytes32.sol\":796:802  result */\n      dup2\n        /* \"contracts/eventTransactionBytes32.sol\":803:804  2 */\n      0x02\n        /* \"contracts/eventTransactionBytes32.sol\":796:805  result[2] */\n      dup2\n      mload\n      dup2\n      lt\n      tag_117\n      jumpi\n      tag_118\n      tag_66\n      jump\t// in\n    tag_118:\n    tag_117:\n      0x20\n      mul\n      0x20\n      add\n      add\n        /* \"contracts/eventTransactionBytes32.sol\":796:827  result[2] = intToBytes32(_int1) */\n      dup2\n      dup2\n      mstore\n      pop\n      pop\n        /* \"contracts/eventTransactionBytes32.sol\":849:868  intToBytes32(_int2) */\n      tag_119\n        /* \"contracts/eventTransactionBytes32.sol\":862:867  _int2 */\n      dup6\n        /* \"contracts/eventTransactionBytes32.sol\":849:861  intToBytes32 */\n      tag_116\n        /* \"contracts/eventTransactionBytes32.sol\":849:868  intToBytes32(_int2) */\n      jump\t// in\n    tag_119:\n        /* \"contracts/eventTransactionBytes32.sol\":837:843  result */\n      dup2\n        /* \"contracts/eventTransactionBytes32.sol\":844:845  3 */\n      0x03\n        /* \"contracts/eventTransactionBytes32.sol\":837:846  result[3] */\n      dup2\n      mload\n      dup2\n      lt\n      tag_120\n      jumpi\n      tag_121\n      tag_66\n      jump\t// in\n    tag_121:\n    tag_120:\n      0x20\n      mul\n      0x20\n      add\n      add\n        /* \"contracts/eventTransactionBytes32.sol\":837:868  result[3] = intToBytes32(_int2) */\n      dup2\n      dup2\n      mstore\n      pop\n      pop\n        /* \"contracts/eventTransactionBytes32.sol\":890:909  intToBytes32(_int3) */\n      tag_122\n        /* \"contracts/eventTransactionBytes32.sol\":903:908  _int3 */\n      dup5\n        /* \"contracts/eventTransactionBytes32.sol\":890:902  intToBytes32 */\n      tag_116\n        /* \"contracts/eventTransactionBytes32.sol\":890:909  intToBytes32(_int3) */\n      jump\t// in\n    tag_122:\n        /* \"contracts/eventTransactionBytes32.sol\":878:884  result */\n      dup2\n        /* \"contracts/eventTransactionBytes32.sol\":885:886  4 */\n      0x04\n        /* \"contracts/eventTransactionBytes32.sol\":878:887  result[4] */\n      dup2\n      mload\n      dup2\n      lt\n      tag_123\n      jumpi\n      tag_124\n      tag_66\n      jump\t// in\n    tag_124:\n    tag_123:\n      0x20\n      mul\n      0x20\n      add\n      add\n        /* \"contracts/eventTransactionBytes32.sol\":878:909  result[4] = intToBytes32(_int3) */\n      dup2\n      dup2\n      mstore\n      pop\n      pop\n        /* \"contracts/eventTransactionBytes32.sol\":931:950  intToBytes32(_int4) */\n      tag_125\n        /* \"contracts/eventTransactionBytes32.sol\":944:949  _int4 */\n      dup4\n        /* \"contracts/eventTransactionBytes32.sol\":931:943  intToBytes32 */\n      tag_116\n        /* \"contracts/eventTransactionBytes32.sol\":931:950  intToBytes32(_int4) */\n      jump\t// in\n    tag_125:\n        /* \"contracts/eventTransactionBytes32.sol\":919:925  result */\n      dup2\n        /* \"contracts/eventTransactionBytes32.sol\":926:927  5 */\n      0x05\n        /* \"contracts/eventTransactionBytes32.sol\":919:928  result[5] */\n      dup2\n      mload\n      dup2\n      lt\n      tag_126\n      jumpi\n      tag_127\n      tag_66\n      jump\t// in\n    tag_127:\n    tag_126:\n      0x20\n      mul\n      0x20\n      add\n      add\n        /* \"contracts/eventTransactionBytes32.sol\":919:950  result[5] = intToBytes32(_int4) */\n      dup2\n      dup2\n      mstore\n      pop\n      pop\n        /* \"contracts/eventTransactionBytes32.sol\":960:977  addRecord(result) */\n      tag_128\n        /* \"contracts/eventTransactionBytes32.sol\":970:976  result */\n      dup2\n        /* \"contracts/eventTransactionBytes32.sol\":960:969  addRecord */\n      tag_48\n        /* \"contracts/eventTransactionBytes32.sol\":960:977  addRecord(result) */\n      jump\t// in\n    tag_128:\n        /* \"contracts/eventTransactionBytes32.sol\":994:1000  result */\n      dup1\n        /* \"contracts/eventTransactionBytes32.sol\":987:1000  return result */\n      swap2\n      pop\n      pop\n        /* \"contracts/eventTransactionBytes32.sol\":434:1007  function inputWithDecimal(... */\n      swap7\n      swap6\n      pop\n      pop\n      pop\n      pop\n      pop\n      pop\n      jump\t// out\n        /* \"contracts/eventTransactionBytes32.sol\":5586:5718  function getTransactionType(uint256 index) public view returns (bytes32) {... */\n    tag_57:\n        /* \"contracts/eventTransactionBytes32.sol\":5650:5657  bytes32 */\n      0x00\n        /* \"contracts/eventTransactionBytes32.sol\":5676:5688  transactions */\n      dup1\n        /* \"contracts/eventTransactionBytes32.sol\":5689:5694  index */\n      dup3\n        /* \"contracts/eventTransactionBytes32.sol\":5676:5695  transactions[index] */\n      dup2\n      sload\n      dup2\n      lt\n      tag_130\n      jumpi\n      tag_131\n      tag_66\n      jump\t// in\n    tag_131:\n    tag_130:\n      swap1\n      0x00\n      mstore\n      keccak256(0x00, 0x20)\n      swap1\n      0x04\n      mul\n      add\n        /* \"contracts/eventTransactionBytes32.sol\":5676:5711  transactions[index].transactionType */\n      0x01\n      add\n      sload\n        /* \"contracts/eventTransactionBytes32.sol\":5669:5711  return transactions[index].transactionType */\n      swap1\n      pop\n        /* \"contracts/eventTransactionBytes32.sol\":5586:5718  function getTransactionType(uint256 index) public view returns (bytes32) {... */\n      swap2\n      swap1\n      pop\n      jump\t// out\n        /* \"contracts/eventTransactionBytes32.sol\":6014:6167  function getTransactionTime(uint256 index) public view returns (int256) {... */\n    tag_61:\n        /* \"contracts/eventTransactionBytes32.sol\":6078:6084  int256 */\n      0x00\n        /* \"contracts/eventTransactionBytes32.sol\":6103:6115  transactions */\n      dup1\n        /* \"contracts/eventTransactionBytes32.sol\":6116:6121  index */\n      dup3\n        /* \"contracts/eventTransactionBytes32.sol\":6103:6122  transactions[index] */\n      dup2\n      sload\n      dup2\n      lt\n      tag_134\n      jumpi\n      tag_135\n      tag_66\n      jump\t// in\n    tag_135:\n    tag_134:\n      swap1\n      0x00\n      mstore\n      keccak256(0x00, 0x20)\n      swap1\n      0x04\n      mul\n      add\n        /* \"contracts/eventTransactionBytes32.sol\":6103:6129  transactions[index].params */\n      0x03\n      add\n        /* \"contracts/eventTransactionBytes32.sol\":6103:6160  transactions[index].params[stringToBytes32(\"trans_time\")] */\n      0x00\n        /* \"contracts/eventTransactionBytes32.sol\":6130:6159  stringToBytes32(\"trans_time\") */\n      tag_137\n      mload(0x40)\n      dup1\n      0x40\n      add\n      0x40\n      mstore\n      dup1\n      0x0a\n      dup2\n      mstore\n      0x20\n      add\n      0x7472616e735f74696d6500000000000000000000000000000000000000000000\n      dup2\n      mstore\n      pop\n        /* \"contracts/eventTransactionBytes32.sol\":6130:6145  stringToBytes32 */\n      tag_109\n        /* \"contracts/eventTransactionBytes32.sol\":6130:6159  stringToBytes32(\"trans_time\") */\n      jump\t// in\n    tag_137:\n        /* \"contracts/eventTransactionBytes32.sol\":6103:6160  transactions[index].params[stringToBytes32(\"trans_time\")] */\n      dup2\n      mstore\n      0x20\n      add\n      swap1\n      dup2\n      mstore\n      0x20\n      add\n      0x00\n      keccak256\n      sload\n        /* \"contracts/eventTransactionBytes32.sol\":6096:6160  return transactions[index].params[stringToBytes32(\"trans_time\")] */\n      swap1\n      pop\n        /* \"contracts/eventTransactionBytes32.sol\":6014:6167  function getTransactionTime(uint256 index) public view returns (int256) {... */\n      swap2\n      swap1\n      pop\n      jump\t// out\n        /* \"contracts/eventTransactionBytes32.sol\":5139:5469  function findTransaction(bytes32 _eventId) internal view returns (Transaction storage) {... */\n    tag_70:\n        /* \"contracts/eventTransactionBytes32.sol\":5205:5224  Transaction storage */\n      0x00\n        /* \"contracts/eventTransactionBytes32.sol\":5241:5247  uint i */\n      dup1\n        /* \"contracts/eventTransactionBytes32.sol\":5250:5251  0 */\n      0x00\n        /* \"contracts/eventTransactionBytes32.sol\":5241:5251  uint i = 0 */\n      swap1\n      pop\n        /* \"contracts/eventTransactionBytes32.sol\":5236:5403  for (uint i = 0; i < transactions.length; i++) {... */\n    tag_139:\n        /* \"contracts/eventTransactionBytes32.sol\":5257:5269  transactions */\n      0x00\n        /* \"contracts/eventTransactionBytes32.sol\":5257:5276  transactions.length */\n      dup1\n      sload\n      swap1\n      pop\n        /* \"contracts/eventTransactionBytes32.sol\":5253:5254  i */\n      dup2\n        /* \"contracts/eventTransactionBytes32.sol\":5253:5276  i < transactions.length */\n      lt\n        /* \"contracts/eventTransactionBytes32.sol\":5236:5403  for (uint i = 0; i < transactions.length; i++) {... */\n      iszero\n      tag_140\n      jumpi\n        /* \"contracts/eventTransactionBytes32.sol\":5328:5336  _eventId */\n      dup3\n        /* \"contracts/eventTransactionBytes32.sol\":5301:5313  transactions */\n      0x00\n        /* \"contracts/eventTransactionBytes32.sol\":5314:5315  i */\n      dup3\n        /* \"contracts/eventTransactionBytes32.sol\":5301:5316  transactions[i] */\n      dup2\n      sload\n      dup2\n      lt\n      tag_142\n      jumpi\n      tag_143\n      tag_66\n      jump\t// in\n    tag_143:\n    tag_142:\n      swap1\n      0x00\n      mstore\n      keccak256(0x00, 0x20)\n      swap1\n      0x04\n      mul\n      add\n        /* \"contracts/eventTransactionBytes32.sol\":5301:5324  transactions[i].eventId */\n      0x00\n      add\n      sload\n        /* \"contracts/eventTransactionBytes32.sol\":5301:5336  transactions[i].eventId == _eventId */\n      sub\n        /* \"contracts/eventTransactionBytes32.sol\":5297:5393  if (transactions[i].eventId == _eventId) {... */\n      tag_145\n      jumpi\n        /* \"contracts/eventTransactionBytes32.sol\":5363:5375  transactions */\n      0x00\n        /* \"contracts/eventTransactionBytes32.sol\":5376:5377  i */\n      dup2\n        /* \"contracts/eventTransactionBytes32.sol\":5363:5378  transactions[i] */\n      dup2\n      sload\n      dup2\n      lt\n      tag_146\n      jumpi\n      tag_147\n      tag_66\n      jump\t// in\n    tag_147:\n    tag_146:\n      swap1\n      0x00\n      mstore\n      keccak256(0x00, 0x20)\n      swap1\n      0x04\n      mul\n      add\n        /* \"contracts/eventTransactionBytes32.sol\":5356:5378  return transactions[i] */\n      swap2\n      pop\n      pop\n      jump(tag_138)\n        /* \"contracts/eventTransactionBytes32.sol\":5297:5393  if (transactions[i].eventId == _eventId) {... */\n    tag_145:\n        /* \"contracts/eventTransactionBytes32.sol\":5278:5281  i++ */\n      dup1\n      dup1\n      tag_149\n      swap1\n      tag_150\n      jump\t// in\n    tag_149:\n      swap2\n      pop\n      pop\n        /* \"contracts/eventTransactionBytes32.sol\":5236:5403  for (uint i = 0; i < transactions.length; i++) {... */\n      jump(tag_139)\n    tag_140:\n      pop\n        /* \"contracts/eventTransactionBytes32.sol\":5412:5462  revert(\"Transaction with given eventId not found\") */\n      mload(0x40)\n      0x08c379a000000000000000000000000000000000000000000000000000000000\n      dup2\n      mstore\n      0x04\n      add\n      tag_151\n      swap1\n      tag_152\n      jump\t// in\n    tag_151:\n      mload(0x40)\n      dup1\n      swap2\n      sub\n      swap1\n      revert\n        /* \"contracts/eventTransactionBytes32.sol\":5139:5469  function findTransaction(bytes32 _eventId) internal view returns (Transaction storage) {... */\n    tag_138:\n      swap2\n      swap1\n      pop\n      jump\t// out\n        /* \"contracts/eventTransactionBytes32.sol\":2128:2943  function E00010001_2_3_7(bytes32[] memory data) internal {... */\n    tag_90:\n        /* \"contracts/eventTransactionBytes32.sol\":2218:2219  6 */\n      0x06\n        /* \"contracts/eventTransactionBytes32.sol\":2203:2207  data */\n      dup2\n        /* \"contracts/eventTransactionBytes32.sol\":2203:2214  data.length */\n      mload\n        /* \"contracts/eventTransactionBytes32.sol\":2203:2219  data.length == 6 */\n      eq\n        /* \"contracts/eventTransactionBytes32.sol\":2195:2259  require(data.length == 6, \"Data length for E00010001 must be 6\") */\n      tag_154\n      jumpi\n      mload(0x40)\n      0x08c379a000000000000000000000000000000000000000000000000000000000\n      dup2\n      mstore\n      0x04\n      add\n      tag_155\n      swap1\n      tag_156\n      jump\t// in\n    tag_155:\n      mload(0x40)\n      dup1\n      swap2\n      sub\n      swap1\n      revert\n    tag_154:\n        /* \"contracts/eventTransactionBytes32.sol\":2269:2282  uint256 index */\n      0x00\n        /* \"contracts/eventTransactionBytes32.sol\":2285:2297  transactions */\n      dup1\n        /* \"contracts/eventTransactionBytes32.sol\":2285:2304  transactions.length */\n      dup1\n      sload\n      swap1\n      pop\n        /* \"contracts/eventTransactionBytes32.sol\":2269:2304  uint256 index = transactions.length */\n      swap1\n      pop\n        /* \"contracts/eventTransactionBytes32.sol\":2314:2326  transactions */\n      0x00\n        /* \"contracts/eventTransactionBytes32.sol\":2314:2333  transactions.push() */\n      0x01\n      dup2\n      0x01\n      dup2\n      sload\n      add\n      dup1\n      dup3\n      sstore\n      dup1\n      swap2\n      pop\n      pop\n      sub\n      swap1\n      0x00\n      mstore\n      keccak256(0x00, 0x20)\n      swap1\n      pop\n      pop\n        /* \"contracts/eventTransactionBytes32.sol\":2343:2374  Transaction storage transaction */\n      0x00\n        /* \"contracts/eventTransactionBytes32.sol\":2377:2389  transactions */\n      dup1\n        /* \"contracts/eventTransactionBytes32.sol\":2390:2395  index */\n      dup3\n        /* \"contracts/eventTransactionBytes32.sol\":2377:2396  transactions[index] */\n      dup2\n      sload\n      dup2\n      lt\n      tag_158\n      jumpi\n      tag_159\n      tag_66\n      jump\t// in\n    tag_159:\n    tag_158:\n      swap1\n      0x00\n      mstore\n      keccak256(0x00, 0x20)\n      swap1\n      0x04\n      mul\n      add\n        /* \"contracts/eventTransactionBytes32.sol\":2343:2396  Transaction storage transaction = transactions[index] */\n      swap1\n      pop\n        /* \"contracts/eventTransactionBytes32.sol\":2429:2433  data */\n      dup3\n        /* \"contracts/eventTransactionBytes32.sol\":2434:2435  0 */\n      0x00\n        /* \"contracts/eventTransactionBytes32.sol\":2429:2436  data[0] */\n      dup2\n      mload\n      dup2\n      lt\n      tag_161\n      jumpi\n      tag_162\n      tag_66\n      jump\t// in\n    tag_162:\n    tag_161:\n      0x20\n      mul\n      0x20\n      add\n      add\n      mload\n        /* \"contracts/eventTransactionBytes32.sol\":2407:2418  transaction */\n      dup2\n        /* \"contracts/eventTransactionBytes32.sol\":2407:2426  transaction.eventId */\n      0x00\n      add\n        /* \"contracts/eventTransactionBytes32.sol\":2407:2436  transaction.eventId = data[0] */\n      dup2\n      swap1\n      sstore\n      pop\n        /* \"contracts/eventTransactionBytes32.sol\":2476:2480  data */\n      dup3\n        /* \"contracts/eventTransactionBytes32.sol\":2481:2482  1 */\n      0x01\n        /* \"contracts/eventTransactionBytes32.sol\":2476:2483  data[1] */\n      dup2\n      mload\n      dup2\n      lt\n      tag_163\n      jumpi\n      tag_164\n      tag_66\n      jump\t// in\n    tag_164:\n    tag_163:\n      0x20\n      mul\n      0x20\n      add\n      add\n      mload\n        /* \"contracts/eventTransactionBytes32.sol\":2446:2457  transaction */\n      dup2\n        /* \"contracts/eventTransactionBytes32.sol\":2446:2473  transaction.transactionType */\n      0x01\n      add\n        /* \"contracts/eventTransactionBytes32.sol\":2446:2483  transaction.transactionType = data[1] */\n      dup2\n      swap1\n      sstore\n      pop\n        /* \"contracts/eventTransactionBytes32.sol\":2516:2526  msg.sender */\n      caller\n        /* \"contracts/eventTransactionBytes32.sol\":2493:2504  transaction */\n      dup2\n        /* \"contracts/eventTransactionBytes32.sol\":2493:2513  transaction.Recorder */\n      0x02\n      add\n      0x00\n        /* \"contracts/eventTransactionBytes32.sol\":2493:2526  transaction.Recorder = msg.sender */\n      0x0100\n      exp\n      dup2\n      sload\n      dup2\n      0xffffffffffffffffffffffffffffffffffffffff\n      mul\n      not\n      and\n      swap1\n      dup4\n      0xffffffffffffffffffffffffffffffffffffffff\n      and\n      mul\n      or\n      swap1\n      sstore\n      pop\n        /* \"contracts/eventTransactionBytes32.sol\":2599:2603  data */\n      dup3\n        /* \"contracts/eventTransactionBytes32.sol\":2604:2605  2 */\n      0x02\n        /* \"contracts/eventTransactionBytes32.sol\":2599:2606  data[2] */\n      dup2\n      mload\n      dup2\n      lt\n      tag_165\n      jumpi\n      tag_166\n      tag_66\n      jump\t// in\n    tag_166:\n    tag_165:\n      0x20\n      mul\n      0x20\n      add\n      add\n      mload\n        /* \"contracts/eventTransactionBytes32.sol\":2591:2607  uint256(data[2]) */\n      0x00\n      shr\n        /* \"contracts/eventTransactionBytes32.sol\":2537:2548  transaction */\n      dup2\n        /* \"contracts/eventTransactionBytes32.sol\":2537:2555  transaction.params */\n      0x03\n      add\n        /* \"contracts/eventTransactionBytes32.sol\":2537:2581  transaction.params[stringToBytes32(\"EP001\")] */\n      0x00\n        /* \"contracts/eventTransactionBytes32.sol\":2556:2580  stringToBytes32(\"EP001\") */\n      tag_167\n      mload(0x40)\n      dup1\n      0x40\n      add\n      0x40\n      mstore\n      dup1\n      0x05\n      dup2\n      mstore\n      0x20\n      add\n      0x4550303031000000000000000000000000000000000000000000000000000000\n      dup2\n      mstore\n      pop\n        /* \"contracts/eventTransactionBytes32.sol\":2556:2571  stringToBytes32 */\n      tag_109\n        /* \"contracts/eventTransactionBytes32.sol\":2556:2580  stringToBytes32(\"EP001\") */\n      jump\t// in\n    tag_167:\n        /* \"contracts/eventTransactionBytes32.sol\":2537:2581  transaction.params[stringToBytes32(\"EP001\")] */\n      dup2\n      mstore\n      0x20\n      add\n      swap1\n      dup2\n      mstore\n      0x20\n      add\n      0x00\n      keccak256\n        /* \"contracts/eventTransactionBytes32.sol\":2537:2608  transaction.params[stringToBytes32(\"EP001\")] = int256(uint256(data[2])) */\n      dup2\n      swap1\n      sstore\n      pop\n        /* \"contracts/eventTransactionBytes32.sol\":2680:2684  data */\n      dup3\n        /* \"contracts/eventTransactionBytes32.sol\":2685:2686  3 */\n      0x03\n        /* \"contracts/eventTransactionBytes32.sol\":2680:2687  data[3] */\n      dup2\n      mload\n      dup2\n      lt\n      tag_168\n      jumpi\n      tag_169\n      tag_66\n      jump\t// in\n    tag_169:\n    tag_168:\n      0x20\n      mul\n      0x20\n      add\n      add\n      mload\n        /* \"contracts/eventTransactionBytes32.sol\":2672:2688  uint256(data[3]) */\n      0x00\n      shr\n        /* \"contracts/eventTransactionBytes32.sol\":2618:2629  transaction */\n      dup2\n        /* \"contracts/eventTransactionBytes32.sol\":2618:2636  transaction.params */\n      0x03\n      add\n        /* \"contracts/eventTransactionBytes32.sol\":2618:2662  transaction.params[stringToBytes32(\"EP002\")] */\n      0x00\n        /* \"contracts/eventTransactionBytes32.sol\":2637:2661  stringToBytes32(\"EP002\") */\n      tag_170\n      mload(0x40)\n      dup1\n      0x40\n      add\n      0x40\n      mstore\n      dup1\n      0x05\n      dup2\n      mstore\n      0x20\n      add\n      0x4550303032000000000000000000000000000000000000000000000000000000\n      dup2\n      mstore\n      pop\n        /* \"contracts/eventTransactionBytes32.sol\":2637:2652  stringToBytes32 */\n      tag_109\n        /* \"contracts/eventTransactionBytes32.sol\":2637:2661  stringToBytes32(\"EP002\") */\n      jump\t// in\n    tag_170:\n        /* \"contracts/eventTransactionBytes32.sol\":2618:2662  transaction.params[stringToBytes32(\"EP002\")] */\n      dup2\n      mstore\n      0x20\n      add\n      swap1\n      dup2\n      mstore\n      0x20\n      add\n      0x00\n      keccak256\n        /* \"contracts/eventTransactionBytes32.sol\":2618:2689  transaction.params[stringToBytes32(\"EP002\")] = int256(uint256(data[3])) */\n      dup2\n      swap1\n      sstore\n      pop\n        /* \"contracts/eventTransactionBytes32.sol\":2761:2765  data */\n      dup3\n        /* \"contracts/eventTransactionBytes32.sol\":2766:2767  4 */\n      0x04\n        /* \"contracts/eventTransactionBytes32.sol\":2761:2768  data[4] */\n      dup2\n      mload\n      dup2\n      lt\n      tag_171\n      jumpi\n      tag_172\n      tag_66\n      jump\t// in\n    tag_172:\n    tag_171:\n      0x20\n      mul\n      0x20\n      add\n      add\n      mload\n        /* \"contracts/eventTransactionBytes32.sol\":2753:2769  uint256(data[4]) */\n      0x00\n      shr\n        /* \"contracts/eventTransactionBytes32.sol\":2699:2710  transaction */\n      dup2\n        /* \"contracts/eventTransactionBytes32.sol\":2699:2717  transaction.params */\n      0x03\n      add\n        /* \"contracts/eventTransactionBytes32.sol\":2699:2743  transaction.params[stringToBytes32(\"EP003\")] */\n      0x00\n        /* \"contracts/eventTransactionBytes32.sol\":2718:2742  stringToBytes32(\"EP003\") */\n      tag_173\n      mload(0x40)\n      dup1\n      0x40\n      add\n      0x40\n      mstore\n      dup1\n      0x05\n      dup2\n      mstore\n      0x20\n      add\n      0x4550303033000000000000000000000000000000000000000000000000000000\n      dup2\n      mstore\n      pop\n        /* \"contracts/eventTransactionBytes32.sol\":2718:2733  stringToBytes32 */\n      tag_109\n        /* \"contracts/eventTransactionBytes32.sol\":2718:2742  stringToBytes32(\"EP003\") */\n      jump\t// in\n    tag_173:\n        /* \"contracts/eventTransactionBytes32.sol\":2699:2743  transaction.params[stringToBytes32(\"EP003\")] */\n      dup2\n      mstore\n      0x20\n      add\n      swap1\n      dup2\n      mstore\n      0x20\n      add\n      0x00\n      keccak256\n        /* \"contracts/eventTransactionBytes32.sol\":2699:2770  transaction.params[stringToBytes32(\"EP003\")] = int256(uint256(data[4])) */\n      dup2\n      swap1\n      sstore\n      pop\n        /* \"contracts/eventTransactionBytes32.sol\":2839:2854  block.timestamp */\n      timestamp\n        /* \"contracts/eventTransactionBytes32.sol\":2780:2791  transaction */\n      dup2\n        /* \"contracts/eventTransactionBytes32.sol\":2780:2798  transaction.params */\n      0x03\n      add\n        /* \"contracts/eventTransactionBytes32.sol\":2780:2829  transaction.params[stringToBytes32(\"trans_time\")] */\n      0x00\n        /* \"contracts/eventTransactionBytes32.sol\":2799:2828  stringToBytes32(\"trans_time\") */\n      tag_174\n      mload(0x40)\n      dup1\n      0x40\n      add\n      0x40\n      mstore\n      dup1\n      0x0a\n      dup2\n      mstore\n      0x20\n      add\n      0x7472616e735f74696d6500000000000000000000000000000000000000000000\n      dup2\n      mstore\n      pop\n        /* \"contracts/eventTransactionBytes32.sol\":2799:2814  stringToBytes32 */\n      tag_109\n        /* \"contracts/eventTransactionBytes32.sol\":2799:2828  stringToBytes32(\"trans_time\") */\n      jump\t// in\n    tag_174:\n        /* \"contracts/eventTransactionBytes32.sol\":2780:2829  transaction.params[stringToBytes32(\"trans_time\")] */\n      dup2\n      mstore\n      0x20\n      add\n      swap1\n      dup2\n      mstore\n      0x20\n      add\n      0x00\n      keccak256\n        /* \"contracts/eventTransactionBytes32.sol\":2780:2855  transaction.params[stringToBytes32(\"trans_time\")] = int256(block.timestamp) */\n      dup2\n      swap1\n      sstore\n      pop\n        /* \"contracts/eventTransactionBytes32.sol\":2927:2931  data */\n      dup3\n        /* \"contracts/eventTransactionBytes32.sol\":2932:2933  5 */\n      0x05\n        /* \"contracts/eventTransactionBytes32.sol\":2927:2934  data[5] */\n      dup2\n      mload\n      dup2\n      lt\n      tag_175\n      jumpi\n      tag_176\n      tag_66\n      jump\t// in\n    tag_176:\n    tag_175:\n      0x20\n      mul\n      0x20\n      add\n      add\n      mload\n        /* \"contracts/eventTransactionBytes32.sol\":2919:2935  uint256(data[5]) */\n      0x00\n      shr\n        /* \"contracts/eventTransactionBytes32.sol\":2865:2876  transaction */\n      dup2\n        /* \"contracts/eventTransactionBytes32.sol\":2865:2883  transaction.params */\n      0x03\n      add\n        /* \"contracts/eventTransactionBytes32.sol\":2865:2909  transaction.params[stringToBytes32(\"EP005\")] */\n      0x00\n        /* \"contracts/eventTransactionBytes32.sol\":2884:2908  stringToBytes32(\"EP005\") */\n      tag_177\n      mload(0x40)\n      dup1\n      0x40\n      add\n      0x40\n      mstore\n      dup1\n      0x05\n      dup2\n      mstore\n      0x20\n      add\n      0x4550303035000000000000000000000000000000000000000000000000000000\n      dup2\n      mstore\n      pop\n        /* \"contracts/eventTransactionBytes32.sol\":2884:2899  stringToBytes32 */\n      tag_109\n        /* \"contracts/eventTransactionBytes32.sol\":2884:2908  stringToBytes32(\"EP005\") */\n      jump\t// in\n    tag_177:\n        /* \"contracts/eventTransactionBytes32.sol\":2865:2909  transaction.params[stringToBytes32(\"EP005\")] */\n      dup2\n      mstore\n      0x20\n      add\n      swap1\n      dup2\n      mstore\n      0x20\n      add\n      0x00\n      keccak256\n        /* \"contracts/eventTransactionBytes32.sol\":2865:2936  transaction.params[stringToBytes32(\"EP005\")] = int256(uint256(data[5])) */\n      dup2\n      swap1\n      sstore\n      pop\n        /* \"contracts/eventTransactionBytes32.sol\":2185:2943  {... */\n      pop\n      pop\n        /* \"contracts/eventTransactionBytes32.sol\":2128:2943  function E00010001_2_3_7(bytes32[] memory data) internal {... */\n      pop\n      jump\t// out\n        /* \"contracts/eventTransactionBytes32.sol\":2949:3922  function E00010004_8(bytes32[] memory data) internal {... */\n    tag_94:\n        /* \"contracts/eventTransactionBytes32.sol\":3035:3036  8 */\n      0x08\n        /* \"contracts/eventTransactionBytes32.sol\":3020:3024  data */\n      dup2\n        /* \"contracts/eventTransactionBytes32.sol\":3020:3031  data.length */\n      mload\n        /* \"contracts/eventTransactionBytes32.sol\":3020:3036  data.length == 8 */\n      eq\n        /* \"contracts/eventTransactionBytes32.sol\":3012:3076  require(data.length == 8, \"Data length for E00010001 must be 8\") */\n      tag_179\n      jumpi\n      mload(0x40)\n      0x08c379a000000000000000000000000000000000000000000000000000000000\n      dup2\n      mstore\n      0x04\n      add\n      tag_180\n      swap1\n      tag_181\n      jump\t// in\n    tag_180:\n      mload(0x40)\n      dup1\n      swap2\n      sub\n      swap1\n      revert\n    tag_179:\n        /* \"contracts/eventTransactionBytes32.sol\":3086:3099  uint256 index */\n      0x00\n        /* \"contracts/eventTransactionBytes32.sol\":3102:3114  transactions */\n      dup1\n        /* \"contracts/eventTransactionBytes32.sol\":3102:3121  transactions.length */\n      dup1\n      sload\n      swap1\n      pop\n        /* \"contracts/eventTransactionBytes32.sol\":3086:3121  uint256 index = transactions.length */\n      swap1\n      pop\n        /* \"contracts/eventTransactionBytes32.sol\":3131:3143  transactions */\n      0x00\n        /* \"contracts/eventTransactionBytes32.sol\":3131:3150  transactions.push() */\n      0x01\n      dup2\n      0x01\n      dup2\n      sload\n      add\n      dup1\n      dup3\n      sstore\n      dup1\n      swap2\n      pop\n      pop\n      sub\n      swap1\n      0x00\n      mstore\n      keccak256(0x00, 0x20)\n      swap1\n      pop\n      pop\n        /* \"contracts/eventTransactionBytes32.sol\":3160:3191  Transaction storage transaction */\n      0x00\n        /* \"contracts/eventTransactionBytes32.sol\":3194:3206  transactions */\n      dup1\n        /* \"contracts/eventTransactionBytes32.sol\":3207:3212  index */\n      dup3\n        /* \"contracts/eventTransactionBytes32.sol\":3194:3213  transactions[index] */\n      dup2\n      sload\n      dup2\n      lt\n      tag_183\n      jumpi\n      tag_184\n      tag_66\n      jump\t// in\n    tag_184:\n    tag_183:\n      swap1\n      0x00\n      mstore\n      keccak256(0x00, 0x20)\n      swap1\n      0x04\n      mul\n      add\n        /* \"contracts/eventTransactionBytes32.sol\":3160:3213  Transaction storage transaction = transactions[index] */\n      swap1\n      pop\n        /* \"contracts/eventTransactionBytes32.sol\":3246:3250  data */\n      dup3\n        /* \"contracts/eventTransactionBytes32.sol\":3251:3252  0 */\n      0x00\n        /* \"contracts/eventTransactionBytes32.sol\":3246:3253  data[0] */\n      dup2\n      mload\n      dup2\n      lt\n      tag_186\n      jumpi\n      tag_187\n      tag_66\n      jump\t// in\n    tag_187:\n    tag_186:\n      0x20\n      mul\n      0x20\n      add\n      add\n      mload\n        /* \"contracts/eventTransactionBytes32.sol\":3224:3235  transaction */\n      dup2\n        /* \"contracts/eventTransactionBytes32.sol\":3224:3243  transaction.eventId */\n      0x00\n      add\n        /* \"contracts/eventTransactionBytes32.sol\":3224:3253  transaction.eventId = data[0] */\n      dup2\n      swap1\n      sstore\n      pop\n        /* \"contracts/eventTransactionBytes32.sol\":3293:3297  data */\n      dup3\n        /* \"contracts/eventTransactionBytes32.sol\":3298:3299  1 */\n      0x01\n        /* \"contracts/eventTransactionBytes32.sol\":3293:3300  data[1] */\n      dup2\n      mload\n      dup2\n      lt\n      tag_188\n      jumpi\n      tag_189\n      tag_66\n      jump\t// in\n    tag_189:\n    tag_188:\n      0x20\n      mul\n      0x20\n      add\n      add\n      mload\n        /* \"contracts/eventTransactionBytes32.sol\":3263:3274  transaction */\n      dup2\n        /* \"contracts/eventTransactionBytes32.sol\":3263:3290  transaction.transactionType */\n      0x01\n      add\n        /* \"contracts/eventTransactionBytes32.sol\":3263:3300  transaction.transactionType = data[1] */\n      dup2\n      swap1\n      sstore\n      pop\n        /* \"contracts/eventTransactionBytes32.sol\":3333:3343  msg.sender */\n      caller\n        /* \"contracts/eventTransactionBytes32.sol\":3310:3321  transaction */\n      dup2\n        /* \"contracts/eventTransactionBytes32.sol\":3310:3330  transaction.Recorder */\n      0x02\n      add\n      0x00\n        /* \"contracts/eventTransactionBytes32.sol\":3310:3343  transaction.Recorder = msg.sender */\n      0x0100\n      exp\n      dup2\n      sload\n      dup2\n      0xffffffffffffffffffffffffffffffffffffffff\n      mul\n      not\n      and\n      swap1\n      dup4\n      0xffffffffffffffffffffffffffffffffffffffff\n      and\n      mul\n      or\n      swap1\n      sstore\n      pop\n        /* \"contracts/eventTransactionBytes32.sol\":3416:3420  data */\n      dup3\n        /* \"contracts/eventTransactionBytes32.sol\":3421:3422  2 */\n      0x02\n        /* \"contracts/eventTransactionBytes32.sol\":3416:3423  data[2] */\n      dup2\n      mload\n      dup2\n      lt\n      tag_190\n      jumpi\n      tag_191\n      tag_66\n      jump\t// in\n    tag_191:\n    tag_190:\n      0x20\n      mul\n      0x20\n      add\n      add\n      mload\n        /* \"contracts/eventTransactionBytes32.sol\":3408:3424  uint256(data[2]) */\n      0x00\n      shr\n        /* \"contracts/eventTransactionBytes32.sol\":3354:3365  transaction */\n      dup2\n        /* \"contracts/eventTransactionBytes32.sol\":3354:3372  transaction.params */\n      0x03\n      add\n        /* \"contracts/eventTransactionBytes32.sol\":3354:3398  transaction.params[stringToBytes32(\"EP001\")] */\n      0x00\n        /* \"contracts/eventTransactionBytes32.sol\":3373:3397  stringToBytes32(\"EP001\") */\n      tag_192\n      mload(0x40)\n      dup1\n      0x40\n      add\n      0x40\n      mstore\n      dup1\n      0x05\n      dup2\n      mstore\n      0x20\n      add\n      0x4550303031000000000000000000000000000000000000000000000000000000\n      dup2\n      mstore\n      pop\n        /* \"contracts/eventTransactionBytes32.sol\":3373:3388  stringToBytes32 */\n      tag_109\n        /* \"contracts/eventTransactionBytes32.sol\":3373:3397  stringToBytes32(\"EP001\") */\n      jump\t// in\n    tag_192:\n        /* \"contracts/eventTransactionBytes32.sol\":3354:3398  transaction.params[stringToBytes32(\"EP001\")] */\n      dup2\n      mstore\n      0x20\n      add\n      swap1\n      dup2\n      mstore\n      0x20\n      add\n      0x00\n      keccak256\n        /* \"contracts/eventTransactionBytes32.sol\":3354:3425  transaction.params[stringToBytes32(\"EP001\")] = int256(uint256(data[2])) */\n      dup2\n      swap1\n      sstore\n      pop\n        /* \"contracts/eventTransactionBytes32.sol\":3497:3501  data */\n      dup3\n        /* \"contracts/eventTransactionBytes32.sol\":3502:3503  3 */\n      0x03\n        /* \"contracts/eventTransactionBytes32.sol\":3497:3504  data[3] */\n      dup2\n      mload\n      dup2\n      lt\n      tag_193\n      jumpi\n      tag_194\n      tag_66\n      jump\t// in\n    tag_194:\n    tag_193:\n      0x20\n      mul\n      0x20\n      add\n      add\n      mload\n        /* \"contracts/eventTransactionBytes32.sol\":3489:3505  uint256(data[3]) */\n      0x00\n      shr\n        /* \"contracts/eventTransactionBytes32.sol\":3435:3446  transaction */\n      dup2\n        /* \"contracts/eventTransactionBytes32.sol\":3435:3453  transaction.params */\n      0x03\n      add\n        /* \"contracts/eventTransactionBytes32.sol\":3435:3479  transaction.params[stringToBytes32(\"EP002\")] */\n      0x00\n        /* \"contracts/eventTransactionBytes32.sol\":3454:3478  stringToBytes32(\"EP002\") */\n      tag_195\n      mload(0x40)\n      dup1\n      0x40\n      add\n      0x40\n      mstore\n      dup1\n      0x05\n      dup2\n      mstore\n      0x20\n      add\n      0x4550303032000000000000000000000000000000000000000000000000000000\n      dup2\n      mstore\n      pop\n        /* \"contracts/eventTransactionBytes32.sol\":3454:3469  stringToBytes32 */\n      tag_109\n        /* \"contracts/eventTransactionBytes32.sol\":3454:3478  stringToBytes32(\"EP002\") */\n      jump\t// in\n    tag_195:\n        /* \"contracts/eventTransactionBytes32.sol\":3435:3479  transaction.params[stringToBytes32(\"EP002\")] */\n      dup2\n      mstore\n      0x20\n      add\n      swap1\n      dup2\n      mstore\n      0x20\n      add\n      0x00\n      keccak256\n        /* \"contracts/eventTransactionBytes32.sol\":3435:3506  transaction.params[stringToBytes32(\"EP002\")] = int256(uint256(data[3])) */\n      dup2\n      swap1\n      sstore\n      pop\n        /* \"contracts/eventTransactionBytes32.sol\":3578:3582  data */\n      dup3\n        /* \"contracts/eventTransactionBytes32.sol\":3583:3584  4 */\n      0x04\n        /* \"contracts/eventTransactionBytes32.sol\":3578:3585  data[4] */\n      dup2\n      mload\n      dup2\n      lt\n      tag_196\n      jumpi\n      tag_197\n      tag_66\n      jump\t// in\n    tag_197:\n    tag_196:\n      0x20\n      mul\n      0x20\n      add\n      add\n      mload\n        /* \"contracts/eventTransactionBytes32.sol\":3570:3586  uint256(data[4]) */\n      0x00\n      shr\n        /* \"contracts/eventTransactionBytes32.sol\":3516:3527  transaction */\n      dup2\n        /* \"contracts/eventTransactionBytes32.sol\":3516:3534  transaction.params */\n      0x03\n      add\n        /* \"contracts/eventTransactionBytes32.sol\":3516:3560  transaction.params[stringToBytes32(\"EP003\")] */\n      0x00\n        /* \"contracts/eventTransactionBytes32.sol\":3535:3559  stringToBytes32(\"EP003\") */\n      tag_198\n      mload(0x40)\n      dup1\n      0x40\n      add\n      0x40\n      mstore\n      dup1\n      0x05\n      dup2\n      mstore\n      0x20\n      add\n      0x4550303033000000000000000000000000000000000000000000000000000000\n      dup2\n      mstore\n      pop\n        /* \"contracts/eventTransactionBytes32.sol\":3535:3550  stringToBytes32 */\n      tag_109\n        /* \"contracts/eventTransactionBytes32.sol\":3535:3559  stringToBytes32(\"EP003\") */\n      jump\t// in\n    tag_198:\n        /* \"contracts/eventTransactionBytes32.sol\":3516:3560  transaction.params[stringToBytes32(\"EP003\")] */\n      dup2\n      mstore\n      0x20\n      add\n      swap1\n      dup2\n      mstore\n      0x20\n      add\n      0x00\n      keccak256\n        /* \"contracts/eventTransactionBytes32.sol\":3516:3587  transaction.params[stringToBytes32(\"EP003\")] = int256(uint256(data[4])) */\n      dup2\n      swap1\n      sstore\n      pop\n        /* \"contracts/eventTransactionBytes32.sol\":3659:3663  data */\n      dup3\n        /* \"contracts/eventTransactionBytes32.sol\":3664:3665  5 */\n      0x05\n        /* \"contracts/eventTransactionBytes32.sol\":3659:3666  data[5] */\n      dup2\n      mload\n      dup2\n      lt\n      tag_199\n      jumpi\n      tag_200\n      tag_66\n      jump\t// in\n    tag_200:\n    tag_199:\n      0x20\n      mul\n      0x20\n      add\n      add\n      mload\n        /* \"contracts/eventTransactionBytes32.sol\":3651:3667  uint256(data[5]) */\n      0x00\n      shr\n        /* \"contracts/eventTransactionBytes32.sol\":3597:3608  transaction */\n      dup2\n        /* \"contracts/eventTransactionBytes32.sol\":3597:3615  transaction.params */\n      0x03\n      add\n        /* \"contracts/eventTransactionBytes32.sol\":3597:3641  transaction.params[stringToBytes32(\"EP004\")] */\n      0x00\n        /* \"contracts/eventTransactionBytes32.sol\":3616:3640  stringToBytes32(\"EP004\") */\n      tag_201\n      mload(0x40)\n      dup1\n      0x40\n      add\n      0x40\n      mstore\n      dup1\n      0x05\n      dup2\n      mstore\n      0x20\n      add\n      0x4550303034000000000000000000000000000000000000000000000000000000\n      dup2\n      mstore\n      pop\n        /* \"contracts/eventTransactionBytes32.sol\":3616:3631  stringToBytes32 */\n      tag_109\n        /* \"contracts/eventTransactionBytes32.sol\":3616:3640  stringToBytes32(\"EP004\") */\n      jump\t// in\n    tag_201:\n        /* \"contracts/eventTransactionBytes32.sol\":3597:3641  transaction.params[stringToBytes32(\"EP004\")] */\n      dup2\n      mstore\n      0x20\n      add\n      swap1\n      dup2\n      mstore\n      0x20\n      add\n      0x00\n      keccak256\n        /* \"contracts/eventTransactionBytes32.sol\":3597:3668  transaction.params[stringToBytes32(\"EP004\")] = int256(uint256(data[5])) */\n      dup2\n      swap1\n      sstore\n      pop\n        /* \"contracts/eventTransactionBytes32.sol\":3737:3752  block.timestamp */\n      timestamp\n        /* \"contracts/eventTransactionBytes32.sol\":3678:3689  transaction */\n      dup2\n        /* \"contracts/eventTransactionBytes32.sol\":3678:3696  transaction.params */\n      0x03\n      add\n        /* \"contracts/eventTransactionBytes32.sol\":3678:3727  transaction.params[stringToBytes32(\"trans_time\")] */\n      0x00\n        /* \"contracts/eventTransactionBytes32.sol\":3697:3726  stringToBytes32(\"trans_time\") */\n      tag_202\n      mload(0x40)\n      dup1\n      0x40\n      add\n      0x40\n      mstore\n      dup1\n      0x0a\n      dup2\n      mstore\n      0x20\n      add\n      0x7472616e735f74696d6500000000000000000000000000000000000000000000\n      dup2\n      mstore\n      pop\n        /* \"contracts/eventTransactionBytes32.sol\":3697:3712  stringToBytes32 */\n      tag_109\n        /* \"contracts/eventTransactionBytes32.sol\":3697:3726  stringToBytes32(\"trans_time\") */\n      jump\t// in\n    tag_202:\n        /* \"contracts/eventTransactionBytes32.sol\":3678:3727  transaction.params[stringToBytes32(\"trans_time\")] */\n      dup2\n      mstore\n      0x20\n      add\n      swap1\n      dup2\n      mstore\n      0x20\n      add\n      0x00\n      keccak256\n        /* \"contracts/eventTransactionBytes32.sol\":3678:3753  transaction.params[stringToBytes32(\"trans_time\")] = int256(block.timestamp) */\n      dup2\n      swap1\n      sstore\n      pop\n        /* \"contracts/eventTransactionBytes32.sol\":3825:3829  data */\n      dup3\n        /* \"contracts/eventTransactionBytes32.sol\":3830:3831  6 */\n      0x06\n        /* \"contracts/eventTransactionBytes32.sol\":3825:3832  data[6] */\n      dup2\n      mload\n      dup2\n      lt\n      tag_203\n      jumpi\n      tag_204\n      tag_66\n      jump\t// in\n    tag_204:\n    tag_203:\n      0x20\n      mul\n      0x20\n      add\n      add\n      mload\n        /* \"contracts/eventTransactionBytes32.sol\":3817:3833  uint256(data[6]) */\n      0x00\n      shr\n        /* \"contracts/eventTransactionBytes32.sol\":3763:3774  transaction */\n      dup2\n        /* \"contracts/eventTransactionBytes32.sol\":3763:3781  transaction.params */\n      0x03\n      add\n        /* \"contracts/eventTransactionBytes32.sol\":3763:3807  transaction.params[stringToBytes32(\"EP006\")] */\n      0x00\n        /* \"contracts/eventTransactionBytes32.sol\":3782:3806  stringToBytes32(\"EP006\") */\n      tag_205\n      mload(0x40)\n      dup1\n      0x40\n      add\n      0x40\n      mstore\n      dup1\n      0x05\n      dup2\n      mstore\n      0x20\n      add\n      0x4550303036000000000000000000000000000000000000000000000000000000\n      dup2\n      mstore\n      pop\n        /* \"contracts/eventTransactionBytes32.sol\":3782:3797  stringToBytes32 */\n      tag_109\n        /* \"contracts/eventTransactionBytes32.sol\":3782:3806  stringToBytes32(\"EP006\") */\n      jump\t// in\n    tag_205:\n        /* \"contracts/eventTransactionBytes32.sol\":3763:3807  transaction.params[stringToBytes32(\"EP006\")] */\n      dup2\n      mstore\n      0x20\n      add\n      swap1\n      dup2\n      mstore\n      0x20\n      add\n      0x00\n      keccak256\n        /* \"contracts/eventTransactionBytes32.sol\":3763:3834  transaction.params[stringToBytes32(\"EP006\")] = int256(uint256(data[6])) */\n      dup2\n      swap1\n      sstore\n      pop\n        /* \"contracts/eventTransactionBytes32.sol\":3906:3910  data */\n      dup3\n        /* \"contracts/eventTransactionBytes32.sol\":3911:3912  7 */\n      0x07\n        /* \"contracts/eventTransactionBytes32.sol\":3906:3913  data[7] */\n      dup2\n      mload\n      dup2\n      lt\n      tag_206\n      jumpi\n      tag_207\n      tag_66\n      jump\t// in\n    tag_207:\n    tag_206:\n      0x20\n      mul\n      0x20\n      add\n      add\n      mload\n        /* \"contracts/eventTransactionBytes32.sol\":3898:3914  uint256(data[7]) */\n      0x00\n      shr\n        /* \"contracts/eventTransactionBytes32.sol\":3844:3855  transaction */\n      dup2\n        /* \"contracts/eventTransactionBytes32.sol\":3844:3862  transaction.params */\n      0x03\n      add\n        /* \"contracts/eventTransactionBytes32.sol\":3844:3888  transaction.params[stringToBytes32(\"EP007\")] */\n      0x00\n        /* \"contracts/eventTransactionBytes32.sol\":3863:3887  stringToBytes32(\"EP007\") */\n      tag_208\n      mload(0x40)\n      dup1\n      0x40\n      add\n      0x40\n      mstore\n      dup1\n      0x05\n      dup2\n      mstore\n      0x20\n      add\n      0x4550303037000000000000000000000000000000000000000000000000000000\n      dup2\n      mstore\n      pop\n        /* \"contracts/eventTransactionBytes32.sol\":3863:3878  stringToBytes32 */\n      tag_109\n        /* \"contracts/eventTransactionBytes32.sol\":3863:3887  stringToBytes32(\"EP007\") */\n      jump\t// in\n    tag_208:\n        /* \"contracts/eventTransactionBytes32.sol\":3844:3888  transaction.params[stringToBytes32(\"EP007\")] */\n      dup2\n      mstore\n      0x20\n      add\n      swap1\n      dup2\n      mstore\n      0x20\n      add\n      0x00\n      keccak256\n        /* \"contracts/eventTransactionBytes32.sol\":3844:3915  transaction.params[stringToBytes32(\"EP007\")] = int256(uint256(data[7])) */\n      dup2\n      swap1\n      sstore\n      pop\n        /* \"contracts/eventTransactionBytes32.sol\":3002:3922  {... */\n      pop\n      pop\n        /* \"contracts/eventTransactionBytes32.sol\":2949:3922  function E00010004_8(bytes32[] memory data) internal {... */\n      pop\n      jump\t// out\n        /* \"contracts/eventTransactionBytes32.sol\":3928:4820  function E00010005_6(bytes32[] memory data) internal {... */\n    tag_99:\n        /* \"contracts/eventTransactionBytes32.sol\":4014:4015  7 */\n      0x07\n        /* \"contracts/eventTransactionBytes32.sol\":3999:4003  data */\n      dup2\n        /* \"contracts/eventTransactionBytes32.sol\":3999:4010  data.length */\n      mload\n        /* \"contracts/eventTransactionBytes32.sol\":3999:4015  data.length == 7 */\n      eq\n        /* \"contracts/eventTransactionBytes32.sol\":3991:4055  require(data.length == 7, \"Data length for E00010001 must be 7\") */\n      tag_210\n      jumpi\n      mload(0x40)\n      0x08c379a000000000000000000000000000000000000000000000000000000000\n      dup2\n      mstore\n      0x04\n      add\n      tag_211\n      swap1\n      tag_212\n      jump\t// in\n    tag_211:\n      mload(0x40)\n      dup1\n      swap2\n      sub\n      swap1\n      revert\n    tag_210:\n        /* \"contracts/eventTransactionBytes32.sol\":4065:4078  uint256 index */\n      0x00\n        /* \"contracts/eventTransactionBytes32.sol\":4081:4093  transactions */\n      dup1\n        /* \"contracts/eventTransactionBytes32.sol\":4081:4100  transactions.length */\n      dup1\n      sload\n      swap1\n      pop\n        /* \"contracts/eventTransactionBytes32.sol\":4065:4100  uint256 index = transactions.length */\n      swap1\n      pop\n        /* \"contracts/eventTransactionBytes32.sol\":4110:4122  transactions */\n      0x00\n        /* \"contracts/eventTransactionBytes32.sol\":4110:4129  transactions.push() */\n      0x01\n      dup2\n      0x01\n      dup2\n      sload\n      add\n      dup1\n      dup3\n      sstore\n      dup1\n      swap2\n      pop\n      pop\n      sub\n      swap1\n      0x00\n      mstore\n      keccak256(0x00, 0x20)\n      swap1\n      pop\n      pop\n        /* \"contracts/eventTransactionBytes32.sol\":4139:4170  Transaction storage transaction */\n      0x00\n        /* \"contracts/eventTransactionBytes32.sol\":4173:4185  transactions */\n      dup1\n        /* \"contracts/eventTransactionBytes32.sol\":4186:4191  index */\n      dup3\n        /* \"contracts/eventTransactionBytes32.sol\":4173:4192  transactions[index] */\n      dup2\n      sload\n      dup2\n      lt\n      tag_214\n      jumpi\n      tag_215\n      tag_66\n      jump\t// in\n    tag_215:\n    tag_214:\n      swap1\n      0x00\n      mstore\n      keccak256(0x00, 0x20)\n      swap1\n      0x04\n      mul\n      add\n        /* \"contracts/eventTransactionBytes32.sol\":4139:4192  Transaction storage transaction = transactions[index] */\n      swap1\n      pop\n        /* \"contracts/eventTransactionBytes32.sol\":4225:4229  data */\n      dup3\n        /* \"contracts/eventTransactionBytes32.sol\":4230:4231  0 */\n      0x00\n        /* \"contracts/eventTransactionBytes32.sol\":4225:4232  data[0] */\n      dup2\n      mload\n      dup2\n      lt\n      tag_217\n      jumpi\n      tag_218\n      tag_66\n      jump\t// in\n    tag_218:\n    tag_217:\n      0x20\n      mul\n      0x20\n      add\n      add\n      mload\n        /* \"contracts/eventTransactionBytes32.sol\":4203:4214  transaction */\n      dup2\n        /* \"contracts/eventTransactionBytes32.sol\":4203:4222  transaction.eventId */\n      0x00\n      add\n        /* \"contracts/eventTransactionBytes32.sol\":4203:4232  transaction.eventId = data[0] */\n      dup2\n      swap1\n      sstore\n      pop\n        /* \"contracts/eventTransactionBytes32.sol\":4272:4276  data */\n      dup3\n        /* \"contracts/eventTransactionBytes32.sol\":4277:4278  1 */\n      0x01\n        /* \"contracts/eventTransactionBytes32.sol\":4272:4279  data[1] */\n      dup2\n      mload\n      dup2\n      lt\n      tag_219\n      jumpi\n      tag_220\n      tag_66\n      jump\t// in\n    tag_220:\n    tag_219:\n      0x20\n      mul\n      0x20\n      add\n      add\n      mload\n        /* \"contracts/eventTransactionBytes32.sol\":4242:4253  transaction */\n      dup2\n        /* \"contracts/eventTransactionBytes32.sol\":4242:4269  transaction.transactionType */\n      0x01\n      add\n        /* \"contracts/eventTransactionBytes32.sol\":4242:4279  transaction.transactionType = data[1] */\n      dup2\n      swap1\n      sstore\n      pop\n        /* \"contracts/eventTransactionBytes32.sol\":4312:4322  msg.sender */\n      caller\n        /* \"contracts/eventTransactionBytes32.sol\":4289:4300  transaction */\n      dup2\n        /* \"contracts/eventTransactionBytes32.sol\":4289:4309  transaction.Recorder */\n      0x02\n      add\n      0x00\n        /* \"contracts/eventTransactionBytes32.sol\":4289:4322  transaction.Recorder = msg.sender */\n      0x0100\n      exp\n      dup2\n      sload\n      dup2\n      0xffffffffffffffffffffffffffffffffffffffff\n      mul\n      not\n      and\n      swap1\n      dup4\n      0xffffffffffffffffffffffffffffffffffffffff\n      and\n      mul\n      or\n      swap1\n      sstore\n      pop\n        /* \"contracts/eventTransactionBytes32.sol\":4395:4399  data */\n      dup3\n        /* \"contracts/eventTransactionBytes32.sol\":4400:4401  2 */\n      0x02\n        /* \"contracts/eventTransactionBytes32.sol\":4395:4402  data[2] */\n      dup2\n      mload\n      dup2\n      lt\n      tag_221\n      jumpi\n      tag_222\n      tag_66\n      jump\t// in\n    tag_222:\n    tag_221:\n      0x20\n      mul\n      0x20\n      add\n      add\n      mload\n        /* \"contracts/eventTransactionBytes32.sol\":4387:4403  uint256(data[2]) */\n      0x00\n      shr\n        /* \"contracts/eventTransactionBytes32.sol\":4333:4344  transaction */\n      dup2\n        /* \"contracts/eventTransactionBytes32.sol\":4333:4351  transaction.params */\n      0x03\n      add\n        /* \"contracts/eventTransactionBytes32.sol\":4333:4377  transaction.params[stringToBytes32(\"EP001\")] */\n      0x00\n        /* \"contracts/eventTransactionBytes32.sol\":4352:4376  stringToBytes32(\"EP001\") */\n      tag_223\n      mload(0x40)\n      dup1\n      0x40\n      add\n      0x40\n      mstore\n      dup1\n      0x05\n      dup2\n      mstore\n      0x20\n      add\n      0x4550303031000000000000000000000000000000000000000000000000000000\n      dup2\n      mstore\n      pop\n        /* \"contracts/eventTransactionBytes32.sol\":4352:4367  stringToBytes32 */\n      tag_109\n        /* \"contracts/eventTransactionBytes32.sol\":4352:4376  stringToBytes32(\"EP001\") */\n      jump\t// in\n    tag_223:\n        /* \"contracts/eventTransactionBytes32.sol\":4333:4377  transaction.params[stringToBytes32(\"EP001\")] */\n      dup2\n      mstore\n      0x20\n      add\n      swap1\n      dup2\n      mstore\n      0x20\n      add\n      0x00\n      keccak256\n        /* \"contracts/eventTransactionBytes32.sol\":4333:4404  transaction.params[stringToBytes32(\"EP001\")] = int256(uint256(data[2])) */\n      dup2\n      swap1\n      sstore\n      pop\n        /* \"contracts/eventTransactionBytes32.sol\":4476:4480  data */\n      dup3\n        /* \"contracts/eventTransactionBytes32.sol\":4481:4482  3 */\n      0x03\n        /* \"contracts/eventTransactionBytes32.sol\":4476:4483  data[3] */\n      dup2\n      mload\n      dup2\n      lt\n      tag_224\n      jumpi\n      tag_225\n      tag_66\n      jump\t// in\n    tag_225:\n    tag_224:\n      0x20\n      mul\n      0x20\n      add\n      add\n      mload\n        /* \"contracts/eventTransactionBytes32.sol\":4468:4484  uint256(data[3]) */\n      0x00\n      shr\n        /* \"contracts/eventTransactionBytes32.sol\":4414:4425  transaction */\n      dup2\n        /* \"contracts/eventTransactionBytes32.sol\":4414:4432  transaction.params */\n      0x03\n      add\n        /* \"contracts/eventTransactionBytes32.sol\":4414:4458  transaction.params[stringToBytes32(\"EP002\")] */\n      0x00\n        /* \"contracts/eventTransactionBytes32.sol\":4433:4457  stringToBytes32(\"EP002\") */\n      tag_226\n      mload(0x40)\n      dup1\n      0x40\n      add\n      0x40\n      mstore\n      dup1\n      0x05\n      dup2\n      mstore\n      0x20\n      add\n      0x4550303032000000000000000000000000000000000000000000000000000000\n      dup2\n      mstore\n      pop\n        /* \"contracts/eventTransactionBytes32.sol\":4433:4448  stringToBytes32 */\n      tag_109\n        /* \"contracts/eventTransactionBytes32.sol\":4433:4457  stringToBytes32(\"EP002\") */\n      jump\t// in\n    tag_226:\n        /* \"contracts/eventTransactionBytes32.sol\":4414:4458  transaction.params[stringToBytes32(\"EP002\")] */\n      dup2\n      mstore\n      0x20\n      add\n      swap1\n      dup2\n      mstore\n      0x20\n      add\n      0x00\n      keccak256\n        /* \"contracts/eventTransactionBytes32.sol\":4414:4485  transaction.params[stringToBytes32(\"EP002\")] = int256(uint256(data[3])) */\n      dup2\n      swap1\n      sstore\n      pop\n        /* \"contracts/eventTransactionBytes32.sol\":4557:4561  data */\n      dup3\n        /* \"contracts/eventTransactionBytes32.sol\":4562:4563  4 */\n      0x04\n        /* \"contracts/eventTransactionBytes32.sol\":4557:4564  data[4] */\n      dup2\n      mload\n      dup2\n      lt\n      tag_227\n      jumpi\n      tag_228\n      tag_66\n      jump\t// in\n    tag_228:\n    tag_227:\n      0x20\n      mul\n      0x20\n      add\n      add\n      mload\n        /* \"contracts/eventTransactionBytes32.sol\":4549:4565  uint256(data[4]) */\n      0x00\n      shr\n        /* \"contracts/eventTransactionBytes32.sol\":4495:4506  transaction */\n      dup2\n        /* \"contracts/eventTransactionBytes32.sol\":4495:4513  transaction.params */\n      0x03\n      add\n        /* \"contracts/eventTransactionBytes32.sol\":4495:4539  transaction.params[stringToBytes32(\"EP003\")] */\n      0x00\n        /* \"contracts/eventTransactionBytes32.sol\":4514:4538  stringToBytes32(\"EP003\") */\n      tag_229\n      mload(0x40)\n      dup1\n      0x40\n      add\n      0x40\n      mstore\n      dup1\n      0x05\n      dup2\n      mstore\n      0x20\n      add\n      0x4550303033000000000000000000000000000000000000000000000000000000\n      dup2\n      mstore\n      pop\n        /* \"contracts/eventTransactionBytes32.sol\":4514:4529  stringToBytes32 */\n      tag_109\n        /* \"contracts/eventTransactionBytes32.sol\":4514:4538  stringToBytes32(\"EP003\") */\n      jump\t// in\n    tag_229:\n        /* \"contracts/eventTransactionBytes32.sol\":4495:4539  transaction.params[stringToBytes32(\"EP003\")] */\n      dup2\n      mstore\n      0x20\n      add\n      swap1\n      dup2\n      mstore\n      0x20\n      add\n      0x00\n      keccak256\n        /* \"contracts/eventTransactionBytes32.sol\":4495:4566  transaction.params[stringToBytes32(\"EP003\")] = int256(uint256(data[4])) */\n      dup2\n      swap1\n      sstore\n      pop\n        /* \"contracts/eventTransactionBytes32.sol\":4638:4642  data */\n      dup3\n        /* \"contracts/eventTransactionBytes32.sol\":4643:4644  5 */\n      0x05\n        /* \"contracts/eventTransactionBytes32.sol\":4638:4645  data[5] */\n      dup2\n      mload\n      dup2\n      lt\n      tag_230\n      jumpi\n      tag_231\n      tag_66\n      jump\t// in\n    tag_231:\n    tag_230:\n      0x20\n      mul\n      0x20\n      add\n      add\n      mload\n        /* \"contracts/eventTransactionBytes32.sol\":4630:4646  uint256(data[5]) */\n      0x00\n      shr\n        /* \"contracts/eventTransactionBytes32.sol\":4576:4587  transaction */\n      dup2\n        /* \"contracts/eventTransactionBytes32.sol\":4576:4594  transaction.params */\n      0x03\n      add\n        /* \"contracts/eventTransactionBytes32.sol\":4576:4620  transaction.params[stringToBytes32(\"EP004\")] */\n      0x00\n        /* \"contracts/eventTransactionBytes32.sol\":4595:4619  stringToBytes32(\"EP004\") */\n      tag_232\n      mload(0x40)\n      dup1\n      0x40\n      add\n      0x40\n      mstore\n      dup1\n      0x05\n      dup2\n      mstore\n      0x20\n      add\n      0x4550303034000000000000000000000000000000000000000000000000000000\n      dup2\n      mstore\n      pop\n        /* \"contracts/eventTransactionBytes32.sol\":4595:4610  stringToBytes32 */\n      tag_109\n        /* \"contracts/eventTransactionBytes32.sol\":4595:4619  stringToBytes32(\"EP004\") */\n      jump\t// in\n    tag_232:\n        /* \"contracts/eventTransactionBytes32.sol\":4576:4620  transaction.params[stringToBytes32(\"EP004\")] */\n      dup2\n      mstore\n      0x20\n      add\n      swap1\n      dup2\n      mstore\n      0x20\n      add\n      0x00\n      keccak256\n        /* \"contracts/eventTransactionBytes32.sol\":4576:4647  transaction.params[stringToBytes32(\"EP004\")] = int256(uint256(data[5])) */\n      dup2\n      swap1\n      sstore\n      pop\n        /* \"contracts/eventTransactionBytes32.sol\":4716:4731  block.timestamp */\n      timestamp\n        /* \"contracts/eventTransactionBytes32.sol\":4657:4668  transaction */\n      dup2\n        /* \"contracts/eventTransactionBytes32.sol\":4657:4675  transaction.params */\n      0x03\n      add\n        /* \"contracts/eventTransactionBytes32.sol\":4657:4706  transaction.params[stringToBytes32(\"trans_time\")] */\n      0x00\n        /* \"contracts/eventTransactionBytes32.sol\":4676:4705  stringToBytes32(\"trans_time\") */\n      tag_233\n      mload(0x40)\n      dup1\n      0x40\n      add\n      0x40\n      mstore\n      dup1\n      0x0a\n      dup2\n      mstore\n      0x20\n      add\n      0x7472616e735f74696d6500000000000000000000000000000000000000000000\n      dup2\n      mstore\n      pop\n        /* \"contracts/eventTransactionBytes32.sol\":4676:4691  stringToBytes32 */\n      tag_109\n        /* \"contracts/eventTransactionBytes32.sol\":4676:4705  stringToBytes32(\"trans_time\") */\n      jump\t// in\n    tag_233:\n        /* \"contracts/eventTransactionBytes32.sol\":4657:4706  transaction.params[stringToBytes32(\"trans_time\")] */\n      dup2\n      mstore\n      0x20\n      add\n      swap1\n      dup2\n      mstore\n      0x20\n      add\n      0x00\n      keccak256\n        /* \"contracts/eventTransactionBytes32.sol\":4657:4732  transaction.params[stringToBytes32(\"trans_time\")] = int256(block.timestamp) */\n      dup2\n      swap1\n      sstore\n      pop\n        /* \"contracts/eventTransactionBytes32.sol\":4804:4808  data */\n      dup3\n        /* \"contracts/eventTransactionBytes32.sol\":4809:4810  6 */\n      0x06\n        /* \"contracts/eventTransactionBytes32.sol\":4804:4811  data[6] */\n      dup2\n      mload\n      dup2\n      lt\n      tag_234\n      jumpi\n      tag_235\n      tag_66\n      jump\t// in\n    tag_235:\n    tag_234:\n      0x20\n      mul\n      0x20\n      add\n      add\n      mload\n        /* \"contracts/eventTransactionBytes32.sol\":4796:4812  uint256(data[6]) */\n      0x00\n      shr\n        /* \"contracts/eventTransactionBytes32.sol\":4742:4753  transaction */\n      dup2\n        /* \"contracts/eventTransactionBytes32.sol\":4742:4760  transaction.params */\n      0x03\n      add\n        /* \"contracts/eventTransactionBytes32.sol\":4742:4786  transaction.params[stringToBytes32(\"EP006\")] */\n      0x00\n        /* \"contracts/eventTransactionBytes32.sol\":4761:4785  stringToBytes32(\"EP006\") */\n      tag_236\n      mload(0x40)\n      dup1\n      0x40\n      add\n      0x40\n      mstore\n      dup1\n      0x05\n      dup2\n      mstore\n      0x20\n      add\n      0x4550303036000000000000000000000000000000000000000000000000000000\n      dup2\n      mstore\n      pop\n        /* \"contracts/eventTransactionBytes32.sol\":4761:4776  stringToBytes32 */\n      tag_109\n        /* \"contracts/eventTransactionBytes32.sol\":4761:4785  stringToBytes32(\"EP006\") */\n      jump\t// in\n    tag_236:\n        /* \"contracts/eventTransactionBytes32.sol\":4742:4786  transaction.params[stringToBytes32(\"EP006\")] */\n      dup2\n      mstore\n      0x20\n      add\n      swap1\n      dup2\n      mstore\n      0x20\n      add\n      0x00\n      keccak256\n        /* \"contracts/eventTransactionBytes32.sol\":4742:4813  transaction.params[stringToBytes32(\"EP006\")] = int256(uint256(data[6])) */\n      dup2\n      swap1\n      sstore\n      pop\n        /* \"contracts/eventTransactionBytes32.sol\":3981:4820  {... */\n      pop\n      pop\n        /* \"contracts/eventTransactionBytes32.sol\":3928:4820  function E00010005_6(bytes32[] memory data) internal {... */\n      pop\n      jump\t// out\n        /* \"contracts/eventTransactionBytes32.sol\":1030:1336  function stringToBytes32(string memory source) internal pure returns (bytes32 result) {... */\n    tag_109:\n        /* \"contracts/eventTransactionBytes32.sol\":1100:1114  bytes32 result */\n      0x00\n        /* \"contracts/eventTransactionBytes32.sol\":1126:1158  bytes memory tempEmptyStringTest */\n      dup1\n        /* \"contracts/eventTransactionBytes32.sol\":1167:1173  source */\n      dup3\n        /* \"contracts/eventTransactionBytes32.sol\":1126:1174  bytes memory tempEmptyStringTest = bytes(source) */\n      swap1\n      pop\n        /* \"contracts/eventTransactionBytes32.sol\":1218:1219  0 */\n      0x00\n        /* \"contracts/eventTransactionBytes32.sol\":1188:1207  tempEmptyStringTest */\n      dup2\n        /* \"contracts/eventTransactionBytes32.sol\":1188:1214  tempEmptyStringTest.length */\n      mload\n        /* \"contracts/eventTransactionBytes32.sol\":1188:1219  tempEmptyStringTest.length == 0 */\n      sub\n        /* \"contracts/eventTransactionBytes32.sol\":1184:1256  if (tempEmptyStringTest.length == 0) {... */\n      tag_238\n      jumpi\n        /* \"contracts/eventTransactionBytes32.sol\":1242:1245  0x0 */\n      0x00\n        /* \"contracts/eventTransactionBytes32.sol\":1235:1245  return 0x0 */\n      dup1\n      shl\n      swap2\n      pop\n      pop\n      jump(tag_237)\n        /* \"contracts/eventTransactionBytes32.sol\":1184:1256  if (tempEmptyStringTest.length == 0) {... */\n    tag_238:\n        /* \"contracts/eventTransactionBytes32.sol\":1316:1318  32 */\n      0x20\n        /* \"contracts/eventTransactionBytes32.sol\":1308:1314  source */\n      dup4\n        /* \"contracts/eventTransactionBytes32.sol\":1304:1319  add(source, 32) */\n      add\n        /* \"contracts/eventTransactionBytes32.sol\":1298:1320  mload(add(source, 32)) */\n      mload\n        /* \"contracts/eventTransactionBytes32.sol\":1288:1320  result := mload(add(source, 32)) */\n      swap2\n      pop\n        /* \"contracts/eventTransactionBytes32.sol\":1274:1330  {... */\n      pop\n        /* \"contracts/eventTransactionBytes32.sol\":1030:1336  function stringToBytes32(string memory source) internal pure returns (bytes32 result) {... */\n    tag_237:\n      swap2\n      swap1\n      pop\n      jump\t// out\n        /* \"contracts/eventTransactionBytes32.sol\":1342:1449  function intToBytes32(int256 x) internal pure returns (bytes32) {... */\n    tag_116:\n        /* \"contracts/eventTransactionBytes32.sol\":1397:1404  bytes32 */\n      0x00\n        /* \"contracts/eventTransactionBytes32.sol\":1439:1440  x */\n      dup2\n        /* \"contracts/eventTransactionBytes32.sol\":1423:1442  bytes32(uint256(x)) */\n      0x00\n      shl\n        /* \"contracts/eventTransactionBytes32.sol\":1416:1442  return bytes32(uint256(x)) */\n      swap1\n      pop\n        /* \"contracts/eventTransactionBytes32.sol\":1342:1449  function intToBytes32(int256 x) internal pure returns (bytes32) {... */\n      swap2\n      swap1\n      pop\n      jump\t// out\n        /* \"#utility.yul\":7:82   */\n    tag_240:\n        /* \"#utility.yul\":40:46   */\n      0x00\n        /* \"#utility.yul\":73:75   */\n      0x40\n        /* \"#utility.yul\":67:76   */\n      mload\n        /* \"#utility.yul\":57:76   */\n      swap1\n      pop\n        /* \"#utility.yul\":7:82   */\n      swap1\n      jump\t// out\n        /* \"#utility.yul\":88:205   */\n    tag_241:\n        /* \"#utility.yul\":197:198   */\n      0x00\n        /* \"#utility.yul\":194:195   */\n      dup1\n        /* \"#utility.yul\":187:199   */\n      revert\n        /* \"#utility.yul\":211:328   */\n    tag_242:\n        /* \"#utility.yul\":320:321   */\n      0x00\n        /* \"#utility.yul\":317:318   */\n      dup1\n        /* \"#utility.yul\":310:322   */\n      revert\n        /* \"#utility.yul\":334:411   */\n    tag_243:\n        /* \"#utility.yul\":371:378   */\n      0x00\n        /* \"#utility.yul\":400:405   */\n      dup2\n        /* \"#utility.yul\":389:405   */\n      swap1\n      pop\n        /* \"#utility.yul\":334:411   */\n      swap2\n      swap1\n      pop\n      jump\t// out\n        /* \"#utility.yul\":417:539   */\n    tag_244:\n        /* \"#utility.yul\":490:514   */\n      tag_298\n        /* \"#utility.yul\":508:513   */\n      dup2\n        /* \"#utility.yul\":490:514   */\n      tag_243\n      jump\t// in\n    tag_298:\n        /* \"#utility.yul\":483:488   */\n      dup2\n        /* \"#utility.yul\":480:515   */\n      eq\n        /* \"#utility.yul\":470:533   */\n      tag_299\n      jumpi\n        /* \"#utility.yul\":529:530   */\n      0x00\n        /* \"#utility.yul\":526:527   */\n      dup1\n        /* \"#utility.yul\":519:531   */\n      revert\n        /* \"#utility.yul\":470:533   */\n    tag_299:\n        /* \"#utility.yul\":417:539   */\n      pop\n      jump\t// out\n        /* \"#utility.yul\":545:684   */\n    tag_245:\n        /* \"#utility.yul\":591:596   */\n      0x00\n        /* \"#utility.yul\":629:635   */\n      dup2\n        /* \"#utility.yul\":616:636   */\n      calldataload\n        /* \"#utility.yul\":607:636   */\n      swap1\n      pop\n        /* \"#utility.yul\":645:678   */\n      tag_301\n        /* \"#utility.yul\":672:677   */\n      dup2\n        /* \"#utility.yul\":645:678   */\n      tag_244\n      jump\t// in\n    tag_301:\n        /* \"#utility.yul\":545:684   */\n      swap3\n      swap2\n      pop\n      pop\n      jump\t// out\n        /* \"#utility.yul\":690:767   */\n    tag_246:\n        /* \"#utility.yul\":727:734   */\n      0x00\n        /* \"#utility.yul\":756:761   */\n      dup2\n        /* \"#utility.yul\":745:761   */\n      swap1\n      pop\n        /* \"#utility.yul\":690:767   */\n      swap2\n      swap1\n      pop\n      jump\t// out\n        /* \"#utility.yul\":773:895   */\n    tag_247:\n        /* \"#utility.yul\":846:870   */\n      tag_304\n        /* \"#utility.yul\":864:869   */\n      dup2\n        /* \"#utility.yul\":846:870   */\n      tag_246\n      jump\t// in\n    tag_304:\n        /* \"#utility.yul\":839:844   */\n      dup2\n        /* \"#utility.yul\":836:871   */\n      eq\n        /* \"#utility.yul\":826:889   */\n      tag_305\n      jumpi\n        /* \"#utility.yul\":885:886   */\n      0x00\n        /* \"#utility.yul\":882:883   */\n      dup1\n        /* \"#utility.yul\":875:887   */\n      revert\n        /* \"#utility.yul\":826:889   */\n    tag_305:\n        /* \"#utility.yul\":773:895   */\n      pop\n      jump\t// out\n        /* \"#utility.yul\":901:1040   */\n    tag_248:\n        /* \"#utility.yul\":947:952   */\n      0x00\n        /* \"#utility.yul\":985:991   */\n      dup2\n        /* \"#utility.yul\":972:992   */\n      calldataload\n        /* \"#utility.yul\":963:992   */\n      swap1\n      pop\n        /* \"#utility.yul\":1001:1034   */\n      tag_307\n        /* \"#utility.yul\":1028:1033   */\n      dup2\n        /* \"#utility.yul\":1001:1034   */\n      tag_247\n      jump\t// in\n    tag_307:\n        /* \"#utility.yul\":901:1040   */\n      swap3\n      swap2\n      pop\n      pop\n      jump\t// out\n        /* \"#utility.yul\":1046:1520   */\n    tag_16:\n        /* \"#utility.yul\":1114:1120   */\n      0x00\n        /* \"#utility.yul\":1122:1128   */\n      dup1\n        /* \"#utility.yul\":1171:1173   */\n      0x40\n        /* \"#utility.yul\":1159:1168   */\n      dup4\n        /* \"#utility.yul\":1150:1157   */\n      dup6\n        /* \"#utility.yul\":1146:1169   */\n      sub\n        /* \"#utility.yul\":1142:1174   */\n      slt\n        /* \"#utility.yul\":1139:1258   */\n      iszero\n      tag_309\n      jumpi\n        /* \"#utility.yul\":1177:1256   */\n      tag_310\n      tag_241\n      jump\t// in\n    tag_310:\n        /* \"#utility.yul\":1139:1258   */\n    tag_309:\n        /* \"#utility.yul\":1297:1298   */\n      0x00\n        /* \"#utility.yul\":1322:1375   */\n      tag_311\n        /* \"#utility.yul\":1367:1374   */\n      dup6\n        /* \"#utility.yul\":1358:1364   */\n      dup3\n        /* \"#utility.yul\":1347:1356   */\n      dup7\n        /* \"#utility.yul\":1343:1365   */\n      add\n        /* \"#utility.yul\":1322:1375   */\n      tag_245\n      jump\t// in\n    tag_311:\n        /* \"#utility.yul\":1312:1375   */\n      swap3\n      pop\n        /* \"#utility.yul\":1268:1385   */\n      pop\n        /* \"#utility.yul\":1424:1426   */\n      0x20\n        /* \"#utility.yul\":1450:1503   */\n      tag_312\n        /* \"#utility.yul\":1495:1502   */\n      dup6\n        /* \"#utility.yul\":1486:1492   */\n      dup3\n        /* \"#utility.yul\":1475:1484   */\n      dup7\n        /* \"#utility.yul\":1471:1493   */\n      add\n        /* \"#utility.yul\":1450:1503   */\n      tag_248\n      jump\t// in\n    tag_312:\n        /* \"#utility.yul\":1440:1503   */\n      swap2\n      pop\n        /* \"#utility.yul\":1395:1513   */\n      pop\n        /* \"#utility.yul\":1046:1520   */\n      swap3\n      pop\n      swap3\n      swap1\n      pop\n      jump\t// out\n        /* \"#utility.yul\":1526:1602   */\n    tag_249:\n        /* \"#utility.yul\":1562:1569   */\n      0x00\n        /* \"#utility.yul\":1591:1596   */\n      dup2\n        /* \"#utility.yul\":1580:1596   */\n      swap1\n      pop\n        /* \"#utility.yul\":1526:1602   */\n      swap2\n      swap1\n      pop\n      jump\t// out\n        /* \"#utility.yul\":1608:1723   */\n    tag_250:\n        /* \"#utility.yul\":1693:1716   */\n      tag_315\n        /* \"#utility.yul\":1710:1715   */\n      dup2\n        /* \"#utility.yul\":1693:1716   */\n      tag_249\n      jump\t// in\n    tag_315:\n        /* \"#utility.yul\":1688:1691   */\n      dup3\n        /* \"#utility.yul\":1681:1717   */\n      mstore\n        /* \"#utility.yul\":1608:1723   */\n      pop\n      pop\n      jump\t// out\n        /* \"#utility.yul\":1729:1947   */\n    tag_19:\n        /* \"#utility.yul\":1820:1824   */\n      0x00\n        /* \"#utility.yul\":1858:1860   */\n      0x20\n        /* \"#utility.yul\":1847:1856   */\n      dup3\n        /* \"#utility.yul\":1843:1861   */\n      add\n        /* \"#utility.yul\":1835:1861   */\n      swap1\n      pop\n        /* \"#utility.yul\":1871:1940   */\n      tag_317\n        /* \"#utility.yul\":1937:1938   */\n      0x00\n        /* \"#utility.yul\":1926:1935   */\n      dup4\n        /* \"#utility.yul\":1922:1939   */\n      add\n        /* \"#utility.yul\":1913:1919   */\n      dup5\n        /* \"#utility.yul\":1871:1940   */\n      tag_250\n      jump\t// in\n    tag_317:\n        /* \"#utility.yul\":1729:1947   */\n      swap3\n      swap2\n      pop\n      pop\n      jump\t// out\n        /* \"#utility.yul\":1953:2427   */\n    tag_22:\n        /* \"#utility.yul\":2021:2027   */\n      0x00\n        /* \"#utility.yul\":2029:2035   */\n      dup1\n        /* \"#utility.yul\":2078:2080   */\n      0x40\n        /* \"#utility.yul\":2066:2075   */\n      dup4\n        /* \"#utility.yul\":2057:2064   */\n      dup6\n        /* \"#utility.yul\":2053:2076   */\n      sub\n        /* \"#utility.yul\":2049:2081   */\n      slt\n        /* \"#utility.yul\":2046:2165   */\n      iszero\n      tag_319\n      jumpi\n        /* \"#utility.yul\":2084:2163   */\n      tag_320\n      tag_241\n      jump\t// in\n    tag_320:\n        /* \"#utility.yul\":2046:2165   */\n    tag_319:\n        /* \"#utility.yul\":2204:2205   */\n      0x00\n        /* \"#utility.yul\":2229:2282   */\n      tag_321\n        /* \"#utility.yul\":2274:2281   */\n      dup6\n        /* \"#utility.yul\":2265:2271   */\n      dup3\n        /* \"#utility.yul\":2254:2263   */\n      dup7\n        /* \"#utility.yul\":2250:2272   */\n      add\n        /* \"#utility.yul\":2229:2282   */\n      tag_248\n      jump\t// in\n    tag_321:\n        /* \"#utility.yul\":2219:2282   */\n      swap3\n      pop\n        /* \"#utility.yul\":2175:2292   */\n      pop\n        /* \"#utility.yul\":2331:2333   */\n      0x20\n        /* \"#utility.yul\":2357:2410   */\n      tag_322\n        /* \"#utility.yul\":2402:2409   */\n      dup6\n        /* \"#utility.yul\":2393:2399   */\n      dup3\n        /* \"#utility.yul\":2382:2391   */\n      dup7\n        /* \"#utility.yul\":2378:2400   */\n      add\n        /* \"#utility.yul\":2357:2410   */\n      tag_248\n      jump\t// in\n    tag_322:\n        /* \"#utility.yul\":2347:2410   */\n      swap2\n      pop\n        /* \"#utility.yul\":2302:2420   */\n      pop\n        /* \"#utility.yul\":1953:2427   */\n      swap3\n      pop\n      swap3\n      swap1\n      pop\n      jump\t// out\n        /* \"#utility.yul\":2433:2762   */\n    tag_27:\n        /* \"#utility.yul\":2492:2498   */\n      0x00\n        /* \"#utility.yul\":2541:2543   */\n      0x20\n        /* \"#utility.yul\":2529:2538   */\n      dup3\n        /* \"#utility.yul\":2520:2527   */\n      dup5\n        /* \"#utility.yul\":2516:2539   */\n      sub\n        /* \"#utility.yul\":2512:2544   */\n      slt\n        /* \"#utility.yul\":2509:2628   */\n      iszero\n      tag_324\n      jumpi\n        /* \"#utility.yul\":2547:2626   */\n      tag_325\n      tag_241\n      jump\t// in\n    tag_325:\n        /* \"#utility.yul\":2509:2628   */\n    tag_324:\n        /* \"#utility.yul\":2667:2668   */\n      0x00\n        /* \"#utility.yul\":2692:2745   */\n      tag_326\n        /* \"#utility.yul\":2737:2744   */\n      dup5\n        /* \"#utility.yul\":2728:2734   */\n      dup3\n        /* \"#utility.yul\":2717:2726   */\n      dup6\n        /* \"#utility.yul\":2713:2735   */\n      add\n        /* \"#utility.yul\":2692:2745   */\n      tag_248\n      jump\t// in\n    tag_326:\n        /* \"#utility.yul\":2682:2745   */\n      swap2\n      pop\n        /* \"#utility.yul\":2638:2755   */\n      pop\n        /* \"#utility.yul\":2433:2762   */\n      swap3\n      swap2\n      pop\n      pop\n      jump\t// out\n        /* \"#utility.yul\":2768:2886   */\n    tag_251:\n        /* \"#utility.yul\":2855:2879   */\n      tag_328\n        /* \"#utility.yul\":2873:2878   */\n      dup2\n        /* \"#utility.yul\":2855:2879   */\n      tag_246\n      jump\t// in\n    tag_328:\n        /* \"#utility.yul\":2850:2853   */\n      dup3\n        /* \"#utility.yul\":2843:2880   */\n      mstore\n        /* \"#utility.yul\":2768:2886   */\n      pop\n      pop\n      jump\t// out\n        /* \"#utility.yul\":2892:3018   */\n    tag_252:\n        /* \"#utility.yul\":2929:2936   */\n      0x00\n        /* \"#utility.yul\":2969:3011   */\n      0xffffffffffffffffffffffffffffffffffffffff\n        /* \"#utility.yul\":2962:2967   */\n      dup3\n        /* \"#utility.yul\":2958:3012   */\n      and\n        /* \"#utility.yul\":2947:3012   */\n      swap1\n      pop\n        /* \"#utility.yul\":2892:3018   */\n      swap2\n      swap1\n      pop\n      jump\t// out\n        /* \"#utility.yul\":3024:3120   */\n    tag_253:\n        /* \"#utility.yul\":3061:3068   */\n      0x00\n        /* \"#utility.yul\":3090:3114   */\n      tag_331\n        /* \"#utility.yul\":3108:3113   */\n      dup3\n        /* \"#utility.yul\":3090:3114   */\n      tag_252\n      jump\t// in\n    tag_331:\n        /* \"#utility.yul\":3079:3114   */\n      swap1\n      pop\n        /* \"#utility.yul\":3024:3120   */\n      swap2\n      swap1\n      pop\n      jump\t// out\n        /* \"#utility.yul\":3126:3244   */\n    tag_254:\n        /* \"#utility.yul\":3213:3237   */\n      tag_333\n        /* \"#utility.yul\":3231:3236   */\n      dup2\n        /* \"#utility.yul\":3213:3237   */\n      tag_253\n      jump\t// in\n    tag_333:\n        /* \"#utility.yul\":3208:3211   */\n      dup3\n        /* \"#utility.yul\":3201:3238   */\n      mstore\n        /* \"#utility.yul\":3126:3244   */\n      pop\n      pop\n      jump\t// out\n        /* \"#utility.yul\":3250:3692   */\n    tag_30:\n        /* \"#utility.yul\":3399:3403   */\n      0x00\n        /* \"#utility.yul\":3437:3439   */\n      0x60\n        /* \"#utility.yul\":3426:3435   */\n      dup3\n        /* \"#utility.yul\":3422:3440   */\n      add\n        /* \"#utility.yul\":3414:3440   */\n      swap1\n      pop\n        /* \"#utility.yul\":3450:3521   */\n      tag_335\n        /* \"#utility.yul\":3518:3519   */\n      0x00\n        /* \"#utility.yul\":3507:3516   */\n      dup4\n        /* \"#utility.yul\":3503:3520   */\n      add\n        /* \"#utility.yul\":3494:3500   */\n      dup7\n        /* \"#utility.yul\":3450:3521   */\n      tag_251\n      jump\t// in\n    tag_335:\n        /* \"#utility.yul\":3531:3603   */\n      tag_336\n        /* \"#utility.yul\":3599:3601   */\n      0x20\n        /* \"#utility.yul\":3588:3597   */\n      dup4\n        /* \"#utility.yul\":3584:3602   */\n      add\n        /* \"#utility.yul\":3575:3581   */\n      dup6\n        /* \"#utility.yul\":3531:3603   */\n      tag_251\n      jump\t// in\n    tag_336:\n        /* \"#utility.yul\":3613:3685   */\n      tag_337\n        /* \"#utility.yul\":3681:3683   */\n      0x40\n        /* \"#utility.yul\":3670:3679   */\n      dup4\n        /* \"#utility.yul\":3666:3684   */\n      add\n        /* \"#utility.yul\":3657:3663   */\n      dup5\n        /* \"#utility.yul\":3613:3685   */\n      tag_254\n      jump\t// in\n    tag_337:\n        /* \"#utility.yul\":3250:3692   */\n      swap5\n      swap4\n      pop\n      pop\n      pop\n      pop\n      jump\t// out\n        /* \"#utility.yul\":3698:3816   */\n    tag_255:\n        /* \"#utility.yul\":3785:3809   */\n      tag_339\n        /* \"#utility.yul\":3803:3808   */\n      dup2\n        /* \"#utility.yul\":3785:3809   */\n      tag_243\n      jump\t// in\n    tag_339:\n        /* \"#utility.yul\":3780:3783   */\n      dup3\n        /* \"#utility.yul\":3773:3810   */\n      mstore\n        /* \"#utility.yul\":3698:3816   */\n      pop\n      pop\n      jump\t// out\n        /* \"#utility.yul\":3822:4044   */\n    tag_34:\n        /* \"#utility.yul\":3915:3919   */\n      0x00\n        /* \"#utility.yul\":3953:3955   */\n      0x20\n        /* \"#utility.yul\":3942:3951   */\n      dup3\n        /* \"#utility.yul\":3938:3956   */\n      add\n        /* \"#utility.yul\":3930:3956   */\n      swap1\n      pop\n        /* \"#utility.yul\":3966:4037   */\n      tag_341\n        /* \"#utility.yul\":4034:4035   */\n      0x00\n        /* \"#utility.yul\":4023:4032   */\n      dup4\n        /* \"#utility.yul\":4019:4036   */\n      add\n        /* \"#utility.yul\":4010:4016   */\n      dup5\n        /* \"#utility.yul\":3966:4037   */\n      tag_255\n      jump\t// in\n    tag_341:\n        /* \"#utility.yul\":3822:4044   */\n      swap3\n      swap2\n      pop\n      pop\n      jump\t// out\n        /* \"#utility.yul\":4050:4379   */\n    tag_37:\n        /* \"#utility.yul\":4109:4115   */\n      0x00\n        /* \"#utility.yul\":4158:4160   */\n      0x20\n        /* \"#utility.yul\":4146:4155   */\n      dup3\n        /* \"#utility.yul\":4137:4144   */\n      dup5\n        /* \"#utility.yul\":4133:4156   */\n      sub\n        /* \"#utility.yul\":4129:4161   */\n      slt\n        /* \"#utility.yul\":4126:4245   */\n      iszero\n      tag_343\n      jumpi\n        /* \"#utility.yul\":4164:4243   */\n      tag_344\n      tag_241\n      jump\t// in\n    tag_344:\n        /* \"#utility.yul\":4126:4245   */\n    tag_343:\n        /* \"#utility.yul\":4284:4285   */\n      0x00\n        /* \"#utility.yul\":4309:4362   */\n      tag_345\n        /* \"#utility.yul\":4354:4361   */\n      dup5\n        /* \"#utility.yul\":4345:4351   */\n      dup3\n        /* \"#utility.yul\":4334:4343   */\n      dup6\n        /* \"#utility.yul\":4330:4352   */\n      add\n        /* \"#utility.yul\":4309:4362   */\n      tag_245\n      jump\t// in\n    tag_345:\n        /* \"#utility.yul\":4299:4362   */\n      swap2\n      pop\n        /* \"#utility.yul\":4255:4372   */\n      pop\n        /* \"#utility.yul\":4050:4379   */\n      swap3\n      swap2\n      pop\n      pop\n      jump\t// out\n        /* \"#utility.yul\":4385:4607   */\n    tag_44:\n        /* \"#utility.yul\":4478:4482   */\n      0x00\n        /* \"#utility.yul\":4516:4518   */\n      0x20\n        /* \"#utility.yul\":4505:4514   */\n      dup3\n        /* \"#utility.yul\":4501:4519   */\n      add\n        /* \"#utility.yul\":4493:4519   */\n      swap1\n      pop\n        /* \"#utility.yul\":4529:4600   */\n      tag_347\n        /* \"#utility.yul\":4597:4598   */\n      0x00\n        /* \"#utility.yul\":4586:4595   */\n      dup4\n        /* \"#utility.yul\":4582:4599   */\n      add\n        /* \"#utility.yul\":4573:4579   */\n      dup5\n        /* \"#utility.yul\":4529:4600   */\n      tag_251\n      jump\t// in\n    tag_347:\n        /* \"#utility.yul\":4385:4607   */\n      swap3\n      swap2\n      pop\n      pop\n      jump\t// out\n        /* \"#utility.yul\":4613:4730   */\n    tag_256:\n        /* \"#utility.yul\":4722:4723   */\n      0x00\n        /* \"#utility.yul\":4719:4720   */\n      dup1\n        /* \"#utility.yul\":4712:4724   */\n      revert\n        /* \"#utility.yul\":4736:4838   */\n    tag_257:\n        /* \"#utility.yul\":4777:4783   */\n      0x00\n        /* \"#utility.yul\":4828:4830   */\n      0x1f\n        /* \"#utility.yul\":4824:4831   */\n      not\n        /* \"#utility.yul\":4819:4821   */\n      0x1f\n        /* \"#utility.yul\":4812:4817   */\n      dup4\n        /* \"#utility.yul\":4808:4822   */\n      add\n        /* \"#utility.yul\":4804:4832   */\n      and\n        /* \"#utility.yul\":4794:4832   */\n      swap1\n      pop\n        /* \"#utility.yul\":4736:4838   */\n      swap2\n      swap1\n      pop\n      jump\t// out\n        /* \"#utility.yul\":4844:5024   */\n    tag_106:\n        /* \"#utility.yul\":4892:4969   */\n      0x4e487b7100000000000000000000000000000000000000000000000000000000\n        /* \"#utility.yul\":4889:4890   */\n      0x00\n        /* \"#utility.yul\":4882:4970   */\n      mstore\n        /* \"#utility.yul\":4989:4993   */\n      0x41\n        /* \"#utility.yul\":4986:4987   */\n      0x04\n        /* \"#utility.yul\":4979:4994   */\n      mstore\n        /* \"#utility.yul\":5013:5017   */\n      0x24\n        /* \"#utility.yul\":5010:5011   */\n      0x00\n        /* \"#utility.yul\":5003:5018   */\n      revert\n        /* \"#utility.yul\":5030:5311   */\n    tag_258:\n        /* \"#utility.yul\":5113:5140   */\n      tag_352\n        /* \"#utility.yul\":5135:5139   */\n      dup3\n        /* \"#utility.yul\":5113:5140   */\n      tag_257\n      jump\t// in\n    tag_352:\n        /* \"#utility.yul\":5105:5111   */\n      dup2\n        /* \"#utility.yul\":5101:5141   */\n      add\n        /* \"#utility.yul\":5243:5249   */\n      dup2\n        /* \"#utility.yul\":5231:5241   */\n      dup2\n        /* \"#utility.yul\":5228:5250   */\n      lt\n        /* \"#utility.yul\":5207:5225   */\n      0xffffffffffffffff\n        /* \"#utility.yul\":5195:5205   */\n      dup3\n        /* \"#utility.yul\":5192:5226   */\n      gt\n        /* \"#utility.yul\":5189:5251   */\n      or\n        /* \"#utility.yul\":5186:5274   */\n      iszero\n      tag_353\n      jumpi\n        /* \"#utility.yul\":5254:5272   */\n      tag_354\n      tag_106\n      jump\t// in\n    tag_354:\n        /* \"#utility.yul\":5186:5274   */\n    tag_353:\n        /* \"#utility.yul\":5294:5304   */\n      dup1\n        /* \"#utility.yul\":5290:5292   */\n      0x40\n        /* \"#utility.yul\":5283:5305   */\n      mstore\n        /* \"#utility.yul\":5073:5311   */\n      pop\n        /* \"#utility.yul\":5030:5311   */\n      pop\n      pop\n      jump\t// out\n        /* \"#utility.yul\":5317:5446   */\n    tag_259:\n        /* \"#utility.yul\":5351:5357   */\n      0x00\n        /* \"#utility.yul\":5378:5398   */\n      tag_356\n      tag_240\n      jump\t// in\n    tag_356:\n        /* \"#utility.yul\":5368:5398   */\n      swap1\n      pop\n        /* \"#utility.yul\":5407:5440   */\n      tag_357\n        /* \"#utility.yul\":5435:5439   */\n      dup3\n        /* \"#utility.yul\":5427:5433   */\n      dup3\n        /* \"#utility.yul\":5407:5440   */\n      tag_258\n      jump\t// in\n    tag_357:\n        /* \"#utility.yul\":5317:5446   */\n      swap2\n      swap1\n      pop\n      jump\t// out\n        /* \"#utility.yul\":5452:5763   */\n    tag_260:\n        /* \"#utility.yul\":5529:5533   */\n      0x00\n        /* \"#utility.yul\":5619:5637   */\n      0xffffffffffffffff\n        /* \"#utility.yul\":5611:5617   */\n      dup3\n        /* \"#utility.yul\":5608:5638   */\n      gt\n        /* \"#utility.yul\":5605:5661   */\n      iszero\n      tag_359\n      jumpi\n        /* \"#utility.yul\":5641:5659   */\n      tag_360\n      tag_106\n      jump\t// in\n    tag_360:\n        /* \"#utility.yul\":5605:5661   */\n    tag_359:\n        /* \"#utility.yul\":5691:5695   */\n      0x20\n        /* \"#utility.yul\":5683:5689   */\n      dup3\n        /* \"#utility.yul\":5679:5696   */\n      mul\n        /* \"#utility.yul\":5671:5696   */\n      swap1\n      pop\n        /* \"#utility.yul\":5751:5755   */\n      0x20\n        /* \"#utility.yul\":5745:5749   */\n      dup2\n        /* \"#utility.yul\":5741:5756   */\n      add\n        /* \"#utility.yul\":5733:5756   */\n      swap1\n      pop\n        /* \"#utility.yul\":5452:5763   */\n      swap2\n      swap1\n      pop\n      jump\t// out\n        /* \"#utility.yul\":5769:5886   */\n    tag_261:\n        /* \"#utility.yul\":5878:5879   */\n      0x00\n        /* \"#utility.yul\":5875:5876   */\n      dup1\n        /* \"#utility.yul\":5868:5880   */\n      revert\n        /* \"#utility.yul\":5909:6619   */\n    tag_262:\n        /* \"#utility.yul\":6005:6010   */\n      0x00\n        /* \"#utility.yul\":6030:6111   */\n      tag_363\n        /* \"#utility.yul\":6046:6110   */\n      tag_364\n        /* \"#utility.yul\":6103:6109   */\n      dup5\n        /* \"#utility.yul\":6046:6110   */\n      tag_260\n      jump\t// in\n    tag_364:\n        /* \"#utility.yul\":6030:6111   */\n      tag_259\n      jump\t// in\n    tag_363:\n        /* \"#utility.yul\":6021:6111   */\n      swap1\n      pop\n        /* \"#utility.yul\":6131:6136   */\n      dup1\n        /* \"#utility.yul\":6160:6166   */\n      dup4\n        /* \"#utility.yul\":6153:6158   */\n      dup3\n        /* \"#utility.yul\":6146:6167   */\n      mstore\n        /* \"#utility.yul\":6194:6198   */\n      0x20\n        /* \"#utility.yul\":6187:6192   */\n      dup3\n        /* \"#utility.yul\":6183:6199   */\n      add\n        /* \"#utility.yul\":6176:6199   */\n      swap1\n      pop\n        /* \"#utility.yul\":6247:6251   */\n      0x20\n        /* \"#utility.yul\":6239:6245   */\n      dup5\n        /* \"#utility.yul\":6235:6252   */\n      mul\n        /* \"#utility.yul\":6227:6233   */\n      dup4\n        /* \"#utility.yul\":6223:6253   */\n      add\n        /* \"#utility.yul\":6276:6279   */\n      dup6\n        /* \"#utility.yul\":6268:6274   */\n      dup2\n        /* \"#utility.yul\":6265:6280   */\n      gt\n        /* \"#utility.yul\":6262:6384   */\n      iszero\n      tag_365\n      jumpi\n        /* \"#utility.yul\":6295:6374   */\n      tag_366\n      tag_261\n      jump\t// in\n    tag_366:\n        /* \"#utility.yul\":6262:6384   */\n    tag_365:\n        /* \"#utility.yul\":6410:6416   */\n      dup4\n        /* \"#utility.yul\":6393:6613   */\n    tag_367:\n        /* \"#utility.yul\":6427:6433   */\n      dup2\n        /* \"#utility.yul\":6422:6425   */\n      dup2\n        /* \"#utility.yul\":6419:6434   */\n      lt\n        /* \"#utility.yul\":6393:6613   */\n      iszero\n      tag_369\n      jumpi\n        /* \"#utility.yul\":6502:6505   */\n      dup1\n        /* \"#utility.yul\":6531:6568   */\n      tag_370\n        /* \"#utility.yul\":6564:6567   */\n      dup9\n        /* \"#utility.yul\":6552:6562   */\n      dup3\n        /* \"#utility.yul\":6531:6568   */\n      tag_248\n      jump\t// in\n    tag_370:\n        /* \"#utility.yul\":6526:6529   */\n      dup5\n        /* \"#utility.yul\":6519:6569   */\n      mstore\n        /* \"#utility.yul\":6598:6602   */\n      0x20\n        /* \"#utility.yul\":6593:6596   */\n      dup5\n        /* \"#utility.yul\":6589:6603   */\n      add\n        /* \"#utility.yul\":6582:6603   */\n      swap4\n      pop\n        /* \"#utility.yul\":6469:6613   */\n      pop\n        /* \"#utility.yul\":6453:6457   */\n      0x20\n        /* \"#utility.yul\":6448:6451   */\n      dup2\n        /* \"#utility.yul\":6444:6458   */\n      add\n        /* \"#utility.yul\":6437:6458   */\n      swap1\n      pop\n        /* \"#utility.yul\":6393:6613   */\n      jump(tag_367)\n    tag_369:\n        /* \"#utility.yul\":6397:6418   */\n      pop\n        /* \"#utility.yul\":6011:6619   */\n      pop\n      pop\n        /* \"#utility.yul\":5909:6619   */\n      swap4\n      swap3\n      pop\n      pop\n      pop\n      jump\t// out\n        /* \"#utility.yul\":6642:7012   */\n    tag_263:\n        /* \"#utility.yul\":6713:6718   */\n      0x00\n        /* \"#utility.yul\":6762:6765   */\n      dup3\n        /* \"#utility.yul\":6755:6759   */\n      0x1f\n        /* \"#utility.yul\":6747:6753   */\n      dup4\n        /* \"#utility.yul\":6743:6760   */\n      add\n        /* \"#utility.yul\":6739:6766   */\n      slt\n        /* \"#utility.yul\":6729:6851   */\n      tag_372\n      jumpi\n        /* \"#utility.yul\":6770:6849   */\n      tag_373\n      tag_256\n      jump\t// in\n    tag_373:\n        /* \"#utility.yul\":6729:6851   */\n    tag_372:\n        /* \"#utility.yul\":6887:6893   */\n      dup2\n        /* \"#utility.yul\":6874:6894   */\n      calldataload\n        /* \"#utility.yul\":6912:7006   */\n      tag_374\n        /* \"#utility.yul\":7002:7005   */\n      dup5\n        /* \"#utility.yul\":6994:7000   */\n      dup3\n        /* \"#utility.yul\":6987:6991   */\n      0x20\n        /* \"#utility.yul\":6979:6985   */\n      dup7\n        /* \"#utility.yul\":6975:6992   */\n      add\n        /* \"#utility.yul\":6912:7006   */\n      tag_262\n      jump\t// in\n    tag_374:\n        /* \"#utility.yul\":6903:7006   */\n      swap2\n      pop\n        /* \"#utility.yul\":6719:7012   */\n      pop\n        /* \"#utility.yul\":6642:7012   */\n      swap3\n      swap2\n      pop\n      pop\n      jump\t// out\n        /* \"#utility.yul\":7018:7557   */\n    tag_47:\n        /* \"#utility.yul\":7102:7108   */\n      0x00\n        /* \"#utility.yul\":7151:7153   */\n      0x20\n        /* \"#utility.yul\":7139:7148   */\n      dup3\n        /* \"#utility.yul\":7130:7137   */\n      dup5\n        /* \"#utility.yul\":7126:7149   */\n      sub\n        /* \"#utility.yul\":7122:7154   */\n      slt\n        /* \"#utility.yul\":7119:7238   */\n      iszero\n      tag_376\n      jumpi\n        /* \"#utility.yul\":7157:7236   */\n      tag_377\n      tag_241\n      jump\t// in\n    tag_377:\n        /* \"#utility.yul\":7119:7238   */\n    tag_376:\n        /* \"#utility.yul\":7305:7306   */\n      0x00\n        /* \"#utility.yul\":7294:7303   */\n      dup3\n        /* \"#utility.yul\":7290:7307   */\n      add\n        /* \"#utility.yul\":7277:7308   */\n      calldataload\n        /* \"#utility.yul\":7335:7353   */\n      0xffffffffffffffff\n        /* \"#utility.yul\":7327:7333   */\n      dup2\n        /* \"#utility.yul\":7324:7354   */\n      gt\n        /* \"#utility.yul\":7321:7438   */\n      iszero\n      tag_378\n      jumpi\n        /* \"#utility.yul\":7357:7436   */\n      tag_379\n      tag_242\n      jump\t// in\n    tag_379:\n        /* \"#utility.yul\":7321:7438   */\n    tag_378:\n        /* \"#utility.yul\":7462:7540   */\n      tag_380\n        /* \"#utility.yul\":7532:7539   */\n      dup5\n        /* \"#utility.yul\":7523:7529   */\n      dup3\n        /* \"#utility.yul\":7512:7521   */\n      dup6\n        /* \"#utility.yul\":7508:7530   */\n      add\n        /* \"#utility.yul\":7462:7540   */\n      tag_263\n      jump\t// in\n    tag_380:\n        /* \"#utility.yul\":7452:7540   */\n      swap2\n      pop\n        /* \"#utility.yul\":7248:7550   */\n      pop\n        /* \"#utility.yul\":7018:7557   */\n      swap3\n      swap2\n      pop\n      pop\n      jump\t// out\n        /* \"#utility.yul\":7563:7680   */\n    tag_264:\n        /* \"#utility.yul\":7672:7673   */\n      0x00\n        /* \"#utility.yul\":7669:7670   */\n      dup1\n        /* \"#utility.yul\":7662:7674   */\n      revert\n        /* \"#utility.yul\":7686:7994   */\n    tag_265:\n        /* \"#utility.yul\":7748:7752   */\n      0x00\n        /* \"#utility.yul\":7838:7856   */\n      0xffffffffffffffff\n        /* \"#utility.yul\":7830:7836   */\n      dup3\n        /* \"#utility.yul\":7827:7857   */\n      gt\n        /* \"#utility.yul\":7824:7880   */\n      iszero\n      tag_383\n      jumpi\n        /* \"#utility.yul\":7860:7878   */\n      tag_384\n      tag_106\n      jump\t// in\n    tag_384:\n        /* \"#utility.yul\":7824:7880   */\n    tag_383:\n        /* \"#utility.yul\":7898:7927   */\n      tag_385\n        /* \"#utility.yul\":7920:7926   */\n      dup3\n        /* \"#utility.yul\":7898:7927   */\n      tag_257\n      jump\t// in\n    tag_385:\n        /* \"#utility.yul\":7890:7927   */\n      swap1\n      pop\n        /* \"#utility.yul\":7982:7986   */\n      0x20\n        /* \"#utility.yul\":7976:7980   */\n      dup2\n        /* \"#utility.yul\":7972:7987   */\n      add\n        /* \"#utility.yul\":7964:7987   */\n      swap1\n      pop\n        /* \"#utility.yul\":7686:7994   */\n      swap2\n      swap1\n      pop\n      jump\t// out\n        /* \"#utility.yul\":8000:8146   */\n    tag_266:\n        /* \"#utility.yul\":8097:8103   */\n      dup3\n        /* \"#utility.yul\":8092:8095   */\n      dup2\n        /* \"#utility.yul\":8087:8090   */\n      dup4\n        /* \"#utility.yul\":8074:8104   */\n      calldatacopy\n        /* \"#utility.yul\":8138:8139   */\n      0x00\n        /* \"#utility.yul\":8129:8135   */\n      dup4\n        /* \"#utility.yul\":8124:8127   */\n      dup4\n        /* \"#utility.yul\":8120:8136   */\n      add\n        /* \"#utility.yul\":8113:8140   */\n      mstore\n        /* \"#utility.yul\":8000:8146   */\n      pop\n      pop\n      pop\n      jump\t// out\n        /* \"#utility.yul\":8152:8577   */\n    tag_267:\n        /* \"#utility.yul\":8230:8235   */\n      0x00\n        /* \"#utility.yul\":8255:8321   */\n      tag_388\n        /* \"#utility.yul\":8271:8320   */\n      tag_389\n        /* \"#utility.yul\":8313:8319   */\n      dup5\n        /* \"#utility.yul\":8271:8320   */\n      tag_265\n      jump\t// in\n    tag_389:\n        /* \"#utility.yul\":8255:8321   */\n      tag_259\n      jump\t// in\n    tag_388:\n        /* \"#utility.yul\":8246:8321   */\n      swap1\n      pop\n        /* \"#utility.yul\":8344:8350   */\n      dup3\n        /* \"#utility.yul\":8337:8342   */\n      dup2\n        /* \"#utility.yul\":8330:8351   */\n      mstore\n        /* \"#utility.yul\":8382:8386   */\n      0x20\n        /* \"#utility.yul\":8375:8380   */\n      dup2\n        /* \"#utility.yul\":8371:8387   */\n      add\n        /* \"#utility.yul\":8420:8423   */\n      dup5\n        /* \"#utility.yul\":8411:8417   */\n      dup5\n        /* \"#utility.yul\":8406:8409   */\n      dup5\n        /* \"#utility.yul\":8402:8418   */\n      add\n        /* \"#utility.yul\":8399:8424   */\n      gt\n        /* \"#utility.yul\":8396:8508   */\n      iszero\n      tag_390\n      jumpi\n        /* \"#utility.yul\":8427:8506   */\n      tag_391\n      tag_264\n      jump\t// in\n    tag_391:\n        /* \"#utility.yul\":8396:8508   */\n    tag_390:\n        /* \"#utility.yul\":8517:8571   */\n      tag_392\n        /* \"#utility.yul\":8564:8570   */\n      dup5\n        /* \"#utility.yul\":8559:8562   */\n      dup3\n        /* \"#utility.yul\":8554:8557   */\n      dup6\n        /* \"#utility.yul\":8517:8571   */\n      tag_266\n      jump\t// in\n    tag_392:\n        /* \"#utility.yul\":8236:8577   */\n      pop\n        /* \"#utility.yul\":8152:8577   */\n      swap4\n      swap3\n      pop\n      pop\n      pop\n      jump\t// out\n        /* \"#utility.yul\":8597:8937   */\n    tag_268:\n        /* \"#utility.yul\":8653:8658   */\n      0x00\n        /* \"#utility.yul\":8702:8705   */\n      dup3\n        /* \"#utility.yul\":8695:8699   */\n      0x1f\n        /* \"#utility.yul\":8687:8693   */\n      dup4\n        /* \"#utility.yul\":8683:8700   */\n      add\n        /* \"#utility.yul\":8679:8706   */\n      slt\n        /* \"#utility.yul\":8669:8791   */\n      tag_394\n      jumpi\n        /* \"#utility.yul\":8710:8789   */\n      tag_395\n      tag_256\n      jump\t// in\n    tag_395:\n        /* \"#utility.yul\":8669:8791   */\n    tag_394:\n        /* \"#utility.yul\":8827:8833   */\n      dup2\n        /* \"#utility.yul\":8814:8834   */\n      calldataload\n        /* \"#utility.yul\":8852:8931   */\n      tag_396\n        /* \"#utility.yul\":8927:8930   */\n      dup5\n        /* \"#utility.yul\":8919:8925   */\n      dup3\n        /* \"#utility.yul\":8912:8916   */\n      0x20\n        /* \"#utility.yul\":8904:8910   */\n      dup7\n        /* \"#utility.yul\":8900:8917   */\n      add\n        /* \"#utility.yul\":8852:8931   */\n      tag_267\n      jump\t// in\n    tag_396:\n        /* \"#utility.yul\":8843:8931   */\n      swap2\n      pop\n        /* \"#utility.yul\":8659:8937   */\n      pop\n        /* \"#utility.yul\":8597:8937   */\n      swap3\n      swap2\n      pop\n      pop\n      jump\t// out\n        /* \"#utility.yul\":8943:9063   */\n    tag_269:\n        /* \"#utility.yul\":9015:9038   */\n      tag_398\n        /* \"#utility.yul\":9032:9037   */\n      dup2\n        /* \"#utility.yul\":9015:9038   */\n      tag_249\n      jump\t// in\n    tag_398:\n        /* \"#utility.yul\":9008:9013   */\n      dup2\n        /* \"#utility.yul\":9005:9039   */\n      eq\n        /* \"#utility.yul\":8995:9057   */\n      tag_399\n      jumpi\n        /* \"#utility.yul\":9053:9054   */\n      0x00\n        /* \"#utility.yul\":9050:9051   */\n      dup1\n        /* \"#utility.yul\":9043:9055   */\n      revert\n        /* \"#utility.yul\":8995:9057   */\n    tag_399:\n        /* \"#utility.yul\":8943:9063   */\n      pop\n      jump\t// out\n        /* \"#utility.yul\":9069:9206   */\n    tag_270:\n        /* \"#utility.yul\":9114:9119   */\n      0x00\n        /* \"#utility.yul\":9152:9158   */\n      dup2\n        /* \"#utility.yul\":9139:9159   */\n      calldataload\n        /* \"#utility.yul\":9130:9159   */\n      swap1\n      pop\n        /* \"#utility.yul\":9168:9200   */\n      tag_401\n        /* \"#utility.yul\":9194:9199   */\n      dup2\n        /* \"#utility.yul\":9168:9200   */\n      tag_269\n      jump\t// in\n    tag_401:\n        /* \"#utility.yul\":9069:9206   */\n      swap3\n      swap2\n      pop\n      pop\n      jump\t// out\n        /* \"#utility.yul\":9212:10621   */\n    tag_51:\n        /* \"#utility.yul\":9332:9338   */\n      0x00\n        /* \"#utility.yul\":9340:9346   */\n      dup1\n        /* \"#utility.yul\":9348:9354   */\n      0x00\n        /* \"#utility.yul\":9356:9362   */\n      dup1\n        /* \"#utility.yul\":9364:9370   */\n      0x00\n        /* \"#utility.yul\":9372:9378   */\n      dup1\n        /* \"#utility.yul\":9421:9424   */\n      0xc0\n        /* \"#utility.yul\":9409:9418   */\n      dup8\n        /* \"#utility.yul\":9400:9407   */\n      dup10\n        /* \"#utility.yul\":9396:9419   */\n      sub\n        /* \"#utility.yul\":9392:9425   */\n      slt\n        /* \"#utility.yul\":9389:9509   */\n      iszero\n      tag_403\n      jumpi\n        /* \"#utility.yul\":9428:9507   */\n      tag_404\n      tag_241\n      jump\t// in\n    tag_404:\n        /* \"#utility.yul\":9389:9509   */\n    tag_403:\n        /* \"#utility.yul\":9576:9577   */\n      0x00\n        /* \"#utility.yul\":9565:9574   */\n      dup8\n        /* \"#utility.yul\":9561:9578   */\n      add\n        /* \"#utility.yul\":9548:9579   */\n      calldataload\n        /* \"#utility.yul\":9606:9624   */\n      0xffffffffffffffff\n        /* \"#utility.yul\":9598:9604   */\n      dup2\n        /* \"#utility.yul\":9595:9625   */\n      gt\n        /* \"#utility.yul\":9592:9709   */\n      iszero\n      tag_405\n      jumpi\n        /* \"#utility.yul\":9628:9707   */\n      tag_406\n      tag_242\n      jump\t// in\n    tag_406:\n        /* \"#utility.yul\":9592:9709   */\n    tag_405:\n        /* \"#utility.yul\":9733:9796   */\n      tag_407\n        /* \"#utility.yul\":9788:9795   */\n      dup10\n        /* \"#utility.yul\":9779:9785   */\n      dup3\n        /* \"#utility.yul\":9768:9777   */\n      dup11\n        /* \"#utility.yul\":9764:9786   */\n      add\n        /* \"#utility.yul\":9733:9796   */\n      tag_268\n      jump\t// in\n    tag_407:\n        /* \"#utility.yul\":9723:9796   */\n      swap7\n      pop\n        /* \"#utility.yul\":9519:9806   */\n      pop\n        /* \"#utility.yul\":9873:9875   */\n      0x20\n        /* \"#utility.yul\":9862:9871   */\n      dup8\n        /* \"#utility.yul\":9858:9876   */\n      add\n        /* \"#utility.yul\":9845:9877   */\n      calldataload\n        /* \"#utility.yul\":9904:9922   */\n      0xffffffffffffffff\n        /* \"#utility.yul\":9896:9902   */\n      dup2\n        /* \"#utility.yul\":9893:9923   */\n      gt\n        /* \"#utility.yul\":9890:10007   */\n      iszero\n      tag_408\n      jumpi\n        /* \"#utility.yul\":9926:10005   */\n      tag_409\n      tag_242\n      jump\t// in\n    tag_409:\n        /* \"#utility.yul\":9890:10007   */\n    tag_408:\n        /* \"#utility.yul\":10031:10094   */\n      tag_410\n        /* \"#utility.yul\":10086:10093   */\n      dup10\n        /* \"#utility.yul\":10077:10083   */\n      dup3\n        /* \"#utility.yul\":10066:10075   */\n      dup11\n        /* \"#utility.yul\":10062:10084   */\n      add\n        /* \"#utility.yul\":10031:10094   */\n      tag_268\n      jump\t// in\n    tag_410:\n        /* \"#utility.yul\":10021:10094   */\n      swap6\n      pop\n        /* \"#utility.yul\":9816:10104   */\n      pop\n        /* \"#utility.yul\":10143:10145   */\n      0x40\n        /* \"#utility.yul\":10169:10221   */\n      tag_411\n        /* \"#utility.yul\":10213:10220   */\n      dup10\n        /* \"#utility.yul\":10204:10210   */\n      dup3\n        /* \"#utility.yul\":10193:10202   */\n      dup11\n        /* \"#utility.yul\":10189:10211   */\n      add\n        /* \"#utility.yul\":10169:10221   */\n      tag_270\n      jump\t// in\n    tag_411:\n        /* \"#utility.yul\":10159:10221   */\n      swap5\n      pop\n        /* \"#utility.yul\":10114:10231   */\n      pop\n        /* \"#utility.yul\":10270:10272   */\n      0x60\n        /* \"#utility.yul\":10296:10348   */\n      tag_412\n        /* \"#utility.yul\":10340:10347   */\n      dup10\n        /* \"#utility.yul\":10331:10337   */\n      dup3\n        /* \"#utility.yul\":10320:10329   */\n      dup11\n        /* \"#utility.yul\":10316:10338   */\n      add\n        /* \"#utility.yul\":10296:10348   */\n      tag_270\n      jump\t// in\n    tag_412:\n        /* \"#utility.yul\":10286:10348   */\n      swap4\n      pop\n        /* \"#utility.yul\":10241:10358   */\n      pop\n        /* \"#utility.yul\":10397:10400   */\n      0x80\n        /* \"#utility.yul\":10424:10476   */\n      tag_413\n        /* \"#utility.yul\":10468:10475   */\n      dup10\n        /* \"#utility.yul\":10459:10465   */\n      dup3\n        /* \"#utility.yul\":10448:10457   */\n      dup11\n        /* \"#utility.yul\":10444:10466   */\n      add\n        /* \"#utility.yul\":10424:10476   */\n      tag_270\n      jump\t// in\n    tag_413:\n        /* \"#utility.yul\":10414:10476   */\n      swap3\n      pop\n        /* \"#utility.yul\":10368:10486   */\n      pop\n        /* \"#utility.yul\":10525:10528   */\n      0xa0\n        /* \"#utility.yul\":10552:10604   */\n      tag_414\n        /* \"#utility.yul\":10596:10603   */\n      dup10\n        /* \"#utility.yul\":10587:10593   */\n      dup3\n        /* \"#utility.yul\":10576:10585   */\n      dup11\n        /* \"#utility.yul\":10572:10594   */\n      add\n        /* \"#utility.yul\":10552:10604   */\n      tag_270\n      jump\t// in\n    tag_414:\n        /* \"#utility.yul\":10542:10604   */\n      swap2\n      pop\n        /* \"#utility.yul\":10496:10614   */\n      pop\n        /* \"#utility.yul\":9212:10621   */\n      swap3\n      swap6\n      pop\n      swap3\n      swap6\n      pop\n      swap3\n      swap6\n      jump\t// out\n        /* \"#utility.yul\":10627:10741   */\n    tag_271:\n        /* \"#utility.yul\":10694:10700   */\n      0x00\n        /* \"#utility.yul\":10728:10733   */\n      dup2\n        /* \"#utility.yul\":10722:10734   */\n      mload\n        /* \"#utility.yul\":10712:10734   */\n      swap1\n      pop\n        /* \"#utility.yul\":10627:10741   */\n      swap2\n      swap1\n      pop\n      jump\t// out\n        /* \"#utility.yul\":10747:10931   */\n    tag_272:\n        /* \"#utility.yul\":10846:10857   */\n      0x00\n        /* \"#utility.yul\":10880:10886   */\n      dup3\n        /* \"#utility.yul\":10875:10878   */\n      dup3\n        /* \"#utility.yul\":10868:10887   */\n      mstore\n        /* \"#utility.yul\":10920:10924   */\n      0x20\n        /* \"#utility.yul\":10915:10918   */\n      dup3\n        /* \"#utility.yul\":10911:10925   */\n      add\n        /* \"#utility.yul\":10896:10925   */\n      swap1\n      pop\n        /* \"#utility.yul\":10747:10931   */\n      swap3\n      swap2\n      pop\n      pop\n      jump\t// out\n        /* \"#utility.yul\":10937:11069   */\n    tag_273:\n        /* \"#utility.yul\":11004:11008   */\n      0x00\n        /* \"#utility.yul\":11027:11030   */\n      dup2\n        /* \"#utility.yul\":11019:11030   */\n      swap1\n      pop\n        /* \"#utility.yul\":11057:11061   */\n      0x20\n        /* \"#utility.yul\":11052:11055   */\n      dup3\n        /* \"#utility.yul\":11048:11062   */\n      add\n        /* \"#utility.yul\":11040:11062   */\n      swap1\n      pop\n        /* \"#utility.yul\":10937:11069   */\n      swap2\n      swap1\n      pop\n      jump\t// out\n        /* \"#utility.yul\":11075:11183   */\n    tag_274:\n        /* \"#utility.yul\":11152:11176   */\n      tag_419\n        /* \"#utility.yul\":11170:11175   */\n      dup2\n        /* \"#utility.yul\":11152:11176   */\n      tag_246\n      jump\t// in\n    tag_419:\n        /* \"#utility.yul\":11147:11150   */\n      dup3\n        /* \"#utility.yul\":11140:11177   */\n      mstore\n        /* \"#utility.yul\":11075:11183   */\n      pop\n      pop\n      jump\t// out\n        /* \"#utility.yul\":11189:11368   */\n    tag_275:\n        /* \"#utility.yul\":11258:11268   */\n      0x00\n        /* \"#utility.yul\":11279:11325   */\n      tag_421\n        /* \"#utility.yul\":11321:11324   */\n      dup4\n        /* \"#utility.yul\":11313:11319   */\n      dup4\n        /* \"#utility.yul\":11279:11325   */\n      tag_274\n      jump\t// in\n    tag_421:\n        /* \"#utility.yul\":11357:11361   */\n      0x20\n        /* \"#utility.yul\":11352:11355   */\n      dup4\n        /* \"#utility.yul\":11348:11362   */\n      add\n        /* \"#utility.yul\":11334:11362   */\n      swap1\n      pop\n        /* \"#utility.yul\":11189:11368   */\n      swap3\n      swap2\n      pop\n      pop\n      jump\t// out\n        /* \"#utility.yul\":11374:11487   */\n    tag_276:\n        /* \"#utility.yul\":11444:11448   */\n      0x00\n        /* \"#utility.yul\":11476:11480   */\n      0x20\n        /* \"#utility.yul\":11471:11474   */\n      dup3\n        /* \"#utility.yul\":11467:11481   */\n      add\n        /* \"#utility.yul\":11459:11481   */\n      swap1\n      pop\n        /* \"#utility.yul\":11374:11487   */\n      swap2\n      swap1\n      pop\n      jump\t// out\n        /* \"#utility.yul\":11523:12255   */\n    tag_277:\n        /* \"#utility.yul\":11642:11645   */\n      0x00\n        /* \"#utility.yul\":11671:11725   */\n      tag_424\n        /* \"#utility.yul\":11719:11724   */\n      dup3\n        /* \"#utility.yul\":11671:11725   */\n      tag_271\n      jump\t// in\n    tag_424:\n        /* \"#utility.yul\":11741:11827   */\n      tag_425\n        /* \"#utility.yul\":11820:11826   */\n      dup2\n        /* \"#utility.yul\":11815:11818   */\n      dup6\n        /* \"#utility.yul\":11741:11827   */\n      tag_272\n      jump\t// in\n    tag_425:\n        /* \"#utility.yul\":11734:11827   */\n      swap4\n      pop\n        /* \"#utility.yul\":11851:11907   */\n      tag_426\n        /* \"#utility.yul\":11901:11906   */\n      dup4\n        /* \"#utility.yul\":11851:11907   */\n      tag_273\n      jump\t// in\n    tag_426:\n        /* \"#utility.yul\":11930:11937   */\n      dup1\n        /* \"#utility.yul\":11961:11962   */\n      0x00\n        /* \"#utility.yul\":11946:12230   */\n    tag_427:\n        /* \"#utility.yul\":11971:11977   */\n      dup4\n        /* \"#utility.yul\":11968:11969   */\n      dup2\n        /* \"#utility.yul\":11965:11978   */\n      lt\n        /* \"#utility.yul\":11946:12230   */\n      iszero\n      tag_429\n      jumpi\n        /* \"#utility.yul\":12047:12053   */\n      dup2\n        /* \"#utility.yul\":12041:12054   */\n      mload\n        /* \"#utility.yul\":12074:12137   */\n      tag_430\n        /* \"#utility.yul\":12133:12136   */\n      dup9\n        /* \"#utility.yul\":12118:12131   */\n      dup3\n        /* \"#utility.yul\":12074:12137   */\n      tag_275\n      jump\t// in\n    tag_430:\n        /* \"#utility.yul\":12067:12137   */\n      swap8\n      pop\n        /* \"#utility.yul\":12160:12220   */\n      tag_431\n        /* \"#utility.yul\":12213:12219   */\n      dup4\n        /* \"#utility.yul\":12160:12220   */\n      tag_276\n      jump\t// in\n    tag_431:\n        /* \"#utility.yul\":12150:12220   */\n      swap3\n      pop\n        /* \"#utility.yul\":12006:12230   */\n      pop\n        /* \"#utility.yul\":11993:11994   */\n      0x01\n        /* \"#utility.yul\":11990:11991   */\n      dup2\n        /* \"#utility.yul\":11986:11995   */\n      add\n        /* \"#utility.yul\":11981:11995   */\n      swap1\n      pop\n        /* \"#utility.yul\":11946:12230   */\n      jump(tag_427)\n    tag_429:\n        /* \"#utility.yul\":11950:11964   */\n      pop\n        /* \"#utility.yul\":12246:12249   */\n      dup6\n        /* \"#utility.yul\":12239:12249   */\n      swap4\n      pop\n        /* \"#utility.yul\":11647:12255   */\n      pop\n      pop\n      pop\n        /* \"#utility.yul\":11523:12255   */\n      swap3\n      swap2\n      pop\n      pop\n      jump\t// out\n        /* \"#utility.yul\":12261:12634   */\n    tag_54:\n        /* \"#utility.yul\":12404:12408   */\n      0x00\n        /* \"#utility.yul\":12442:12444   */\n      0x20\n        /* \"#utility.yul\":12431:12440   */\n      dup3\n        /* \"#utility.yul\":12427:12445   */\n      add\n        /* \"#utility.yul\":12419:12445   */\n      swap1\n      pop\n        /* \"#utility.yul\":12491:12500   */\n      dup2\n        /* \"#utility.yul\":12485:12489   */\n      dup2\n        /* \"#utility.yul\":12481:12501   */\n      sub\n        /* \"#utility.yul\":12477:12478   */\n      0x00\n        /* \"#utility.yul\":12466:12475   */\n      dup4\n        /* \"#utility.yul\":12462:12479   */\n      add\n        /* \"#utility.yul\":12455:12502   */\n      mstore\n        /* \"#utility.yul\":12519:12627   */\n      tag_433\n        /* \"#utility.yul\":12622:12626   */\n      dup2\n        /* \"#utility.yul\":12613:12619   */\n      dup5\n        /* \"#utility.yul\":12519:12627   */\n      tag_277\n      jump\t// in\n    tag_433:\n        /* \"#utility.yul\":12511:12627   */\n      swap1\n      pop\n        /* \"#utility.yul\":12261:12634   */\n      swap3\n      swap2\n      pop\n      pop\n      jump\t// out\n        /* \"#utility.yul\":12640:12820   */\n    tag_66:\n        /* \"#utility.yul\":12688:12765   */\n      0x4e487b7100000000000000000000000000000000000000000000000000000000\n        /* \"#utility.yul\":12685:12686   */\n      0x00\n        /* \"#utility.yul\":12678:12766   */\n      mstore\n        /* \"#utility.yul\":12785:12789   */\n      0x32\n        /* \"#utility.yul\":12782:12783   */\n      0x04\n        /* \"#utility.yul\":12775:12790   */\n      mstore\n        /* \"#utility.yul\":12809:12813   */\n      0x24\n        /* \"#utility.yul\":12806:12807   */\n      0x00\n        /* \"#utility.yul\":12799:12814   */\n      revert\n        /* \"#utility.yul\":12826:12995   */\n    tag_278:\n        /* \"#utility.yul\":12910:12921   */\n      0x00\n        /* \"#utility.yul\":12944:12950   */\n      dup3\n        /* \"#utility.yul\":12939:12942   */\n      dup3\n        /* \"#utility.yul\":12932:12951   */\n      mstore\n        /* \"#utility.yul\":12984:12988   */\n      0x20\n        /* \"#utility.yul\":12979:12982   */\n      dup3\n        /* \"#utility.yul\":12975:12989   */\n      add\n        /* \"#utility.yul\":12960:12989   */\n      swap1\n      pop\n        /* \"#utility.yul\":12826:12995   */\n      swap3\n      swap2\n      pop\n      pop\n      jump\t// out\n        /* \"#utility.yul\":13001:13226   */\n    tag_279:\n        /* \"#utility.yul\":13141:13175   */\n      0x44617461206d7573742068617665206174206c6561737420746872656520656c\n        /* \"#utility.yul\":13137:13138   */\n      0x00\n        /* \"#utility.yul\":13129:13135   */\n      dup3\n        /* \"#utility.yul\":13125:13139   */\n      add\n        /* \"#utility.yul\":13118:13176   */\n      mstore\n        /* \"#utility.yul\":13210:13218   */\n      0x656d656e74730000000000000000000000000000000000000000000000000000\n        /* \"#utility.yul\":13205:13207   */\n      0x20\n        /* \"#utility.yul\":13197:13203   */\n      dup3\n        /* \"#utility.yul\":13193:13208   */\n      add\n        /* \"#utility.yul\":13186:13219   */\n      mstore\n        /* \"#utility.yul\":13001:13226   */\n      pop\n      jump\t// out\n        /* \"#utility.yul\":13232:13598   */\n    tag_280:\n        /* \"#utility.yul\":13374:13377   */\n      0x00\n        /* \"#utility.yul\":13395:13462   */\n      tag_438\n        /* \"#utility.yul\":13459:13461   */\n      0x26\n        /* \"#utility.yul\":13454:13457   */\n      dup4\n        /* \"#utility.yul\":13395:13462   */\n      tag_278\n      jump\t// in\n    tag_438:\n        /* \"#utility.yul\":13388:13462   */\n      swap2\n      pop\n        /* \"#utility.yul\":13471:13564   */\n      tag_439\n        /* \"#utility.yul\":13560:13563   */\n      dup3\n        /* \"#utility.yul\":13471:13564   */\n      tag_279\n      jump\t// in\n    tag_439:\n        /* \"#utility.yul\":13589:13591   */\n      0x40\n        /* \"#utility.yul\":13584:13587   */\n      dup3\n        /* \"#utility.yul\":13580:13592   */\n      add\n        /* \"#utility.yul\":13573:13592   */\n      swap1\n      pop\n        /* \"#utility.yul\":13232:13598   */\n      swap2\n      swap1\n      pop\n      jump\t// out\n        /* \"#utility.yul\":13604:14023   */\n    tag_83:\n        /* \"#utility.yul\":13770:13774   */\n      0x00\n        /* \"#utility.yul\":13808:13810   */\n      0x20\n        /* \"#utility.yul\":13797:13806   */\n      dup3\n        /* \"#utility.yul\":13793:13811   */\n      add\n        /* \"#utility.yul\":13785:13811   */\n      swap1\n      pop\n        /* \"#utility.yul\":13857:13866   */\n      dup2\n        /* \"#utility.yul\":13851:13855   */\n      dup2\n        /* \"#utility.yul\":13847:13867   */\n      sub\n        /* \"#utility.yul\":13843:13844   */\n      0x00\n        /* \"#utility.yul\":13832:13841   */\n      dup4\n        /* \"#utility.yul\":13828:13845   */\n      add\n        /* \"#utility.yul\":13821:13868   */\n      mstore\n        /* \"#utility.yul\":13885:14016   */\n      tag_441\n        /* \"#utility.yul\":14011:14015   */\n      dup2\n        /* \"#utility.yul\":13885:14016   */\n      tag_280\n      jump\t// in\n    tag_441:\n        /* \"#utility.yul\":13877:14016   */\n      swap1\n      pop\n        /* \"#utility.yul\":13604:14023   */\n      swap2\n      swap1\n      pop\n      jump\t// out\n        /* \"#utility.yul\":14029:14207   */\n    tag_281:\n        /* \"#utility.yul\":14169:14199   */\n      0x556e737570706f72746564207472616e73616374696f6e207479706500000000\n        /* \"#utility.yul\":14165:14166   */\n      0x00\n        /* \"#utility.yul\":14157:14163   */\n      dup3\n        /* \"#utility.yul\":14153:14167   */\n      add\n        /* \"#utility.yul\":14146:14200   */\n      mstore\n        /* \"#utility.yul\":14029:14207   */\n      pop\n      jump\t// out\n        /* \"#utility.yul\":14213:14579   */\n    tag_282:\n        /* \"#utility.yul\":14355:14358   */\n      0x00\n        /* \"#utility.yul\":14376:14443   */\n      tag_444\n        /* \"#utility.yul\":14440:14442   */\n      0x1c\n        /* \"#utility.yul\":14435:14438   */\n      dup4\n        /* \"#utility.yul\":14376:14443   */\n      tag_278\n      jump\t// in\n    tag_444:\n        /* \"#utility.yul\":14369:14443   */\n      swap2\n      pop\n        /* \"#utility.yul\":14452:14545   */\n      tag_445\n        /* \"#utility.yul\":14541:14544   */\n      dup3\n        /* \"#utility.yul\":14452:14545   */\n      tag_281\n      jump\t// in\n    tag_445:\n        /* \"#utility.yul\":14570:14572   */\n      0x20\n        /* \"#utility.yul\":14565:14568   */\n      dup3\n        /* \"#utility.yul\":14561:14573   */\n      add\n        /* \"#utility.yul\":14554:14573   */\n      swap1\n      pop\n        /* \"#utility.yul\":14213:14579   */\n      swap2\n      swap1\n      pop\n      jump\t// out\n        /* \"#utility.yul\":14585:15004   */\n    tag_102:\n        /* \"#utility.yul\":14751:14755   */\n      0x00\n        /* \"#utility.yul\":14789:14791   */\n      0x20\n        /* \"#utility.yul\":14778:14787   */\n      dup3\n        /* \"#utility.yul\":14774:14792   */\n      add\n        /* \"#utility.yul\":14766:14792   */\n      swap1\n      pop\n        /* \"#utility.yul\":14838:14847   */\n      dup2\n        /* \"#utility.yul\":14832:14836   */\n      dup2\n        /* \"#utility.yul\":14828:14848   */\n      sub\n        /* \"#utility.yul\":14824:14825   */\n      0x00\n        /* \"#utility.yul\":14813:14822   */\n      dup4\n        /* \"#utility.yul\":14809:14826   */\n      add\n        /* \"#utility.yul\":14802:14849   */\n      mstore\n        /* \"#utility.yul\":14866:14997   */\n      tag_447\n        /* \"#utility.yul\":14992:14996   */\n      dup2\n        /* \"#utility.yul\":14866:14997   */\n      tag_282\n      jump\t// in\n    tag_447:\n        /* \"#utility.yul\":14858:14997   */\n      swap1\n      pop\n        /* \"#utility.yul\":14585:15004   */\n      swap2\n      swap1\n      pop\n      jump\t// out\n        /* \"#utility.yul\":15010:15190   */\n    tag_283:\n        /* \"#utility.yul\":15058:15135   */\n      0x4e487b7100000000000000000000000000000000000000000000000000000000\n        /* \"#utility.yul\":15055:15056   */\n      0x00\n        /* \"#utility.yul\":15048:15136   */\n      mstore\n        /* \"#utility.yul\":15155:15159   */\n      0x11\n        /* \"#utility.yul\":15152:15153   */\n      0x04\n        /* \"#utility.yul\":15145:15160   */\n      mstore\n        /* \"#utility.yul\":15179:15183   */\n      0x24\n        /* \"#utility.yul\":15176:15177   */\n      0x00\n        /* \"#utility.yul\":15169:15184   */\n      revert\n        /* \"#utility.yul\":15196:15429   */\n    tag_150:\n        /* \"#utility.yul\":15235:15238   */\n      0x00\n        /* \"#utility.yul\":15258:15282   */\n      tag_450\n        /* \"#utility.yul\":15276:15281   */\n      dup3\n        /* \"#utility.yul\":15258:15282   */\n      tag_243\n      jump\t// in\n    tag_450:\n        /* \"#utility.yul\":15249:15282   */\n      swap2\n      pop\n        /* \"#utility.yul\":15304:15370   */\n      0xffffffffffffffffffffffffffffffffffffffffffffffffffffffffffffffff\n        /* \"#utility.yul\":15297:15302   */\n      dup3\n        /* \"#utility.yul\":15294:15371   */\n      sub\n        /* \"#utility.yul\":15291:15394   */\n      tag_451\n      jumpi\n        /* \"#utility.yul\":15374:15392   */\n      tag_452\n      tag_283\n      jump\t// in\n    tag_452:\n        /* \"#utility.yul\":15291:15394   */\n    tag_451:\n        /* \"#utility.yul\":15421:15422   */\n      0x01\n        /* \"#utility.yul\":15414:15419   */\n      dup3\n        /* \"#utility.yul\":15410:15423   */\n      add\n        /* \"#utility.yul\":15403:15423   */\n      swap1\n      pop\n        /* \"#utility.yul\":15196:15429   */\n      swap2\n      swap1\n      pop\n      jump\t// out\n        /* \"#utility.yul\":15435:15662   */\n    tag_284:\n        /* \"#utility.yul\":15575:15609   */\n      0x5472616e73616374696f6e207769746820676976656e206576656e744964206e\n        /* \"#utility.yul\":15571:15572   */\n      0x00\n        /* \"#utility.yul\":15563:15569   */\n      dup3\n        /* \"#utility.yul\":15559:15573   */\n      add\n        /* \"#utility.yul\":15552:15610   */\n      mstore\n        /* \"#utility.yul\":15644:15654   */\n      0x6f7420666f756e64000000000000000000000000000000000000000000000000\n        /* \"#utility.yul\":15639:15641   */\n      0x20\n        /* \"#utility.yul\":15631:15637   */\n      dup3\n        /* \"#utility.yul\":15627:15642   */\n      add\n        /* \"#utility.yul\":15620:15655   */\n      mstore\n        /* \"#utility.yul\":15435:15662   */\n      pop\n      jump\t// out\n        /* \"#utility.yul\":15668:16034   */\n    tag_285:\n        /* \"#utility.yul\":15810:15813   */\n      0x00\n        /* \"#utility.yul\":15831:15898   */\n      tag_455\n        /* \"#utility.yul\":15895:15897   */\n      0x28\n        /* \"#utility.yul\":15890:15893   */\n      dup4\n        /* \"#utility.yul\":15831:15898   */\n      tag_278\n      jump\t// in\n    tag_455:\n        /* \"#utility.yul\":15824:15898   */\n      swap2\n      pop\n        /* \"#utility.yul\":15907:16000   */\n      tag_456\n        /* \"#utility.yul\":15996:15999   */\n      dup3\n        /* \"#utility.yul\":15907:16000   */\n      tag_284\n      jump\t// in\n    tag_456:\n        /* \"#utility.yul\":16025:16027   */\n      0x40\n        /* \"#utility.yul\":16020:16023   */\n      dup3\n        /* \"#utility.yul\":16016:16028   */\n      add\n        /* \"#utility.yul\":16009:16028   */\n      swap1\n      pop\n        /* \"#utility.yul\":15668:16034   */\n      swap2\n      swap1\n      pop\n      jump\t// out\n        /* \"#utility.yul\":16040:16459   */\n    tag_152:\n        /* \"#utility.yul\":16206:16210   */\n      0x00\n        /* \"#utility.yul\":16244:16246   */\n      0x20\n        /* \"#utility.yul\":16233:16242   */\n      dup3\n        /* \"#utility.yul\":16229:16247   */\n      add\n        /* \"#utility.yul\":16221:16247   */\n      swap1\n      pop\n        /* \"#utility.yul\":16293:16302   */\n      dup2\n        /* \"#utility.yul\":16287:16291   */\n      dup2\n        /* \"#utility.yul\":16283:16303   */\n      sub\n        /* \"#utility.yul\":16279:16280   */\n      0x00\n        /* \"#utility.yul\":16268:16277   */\n      dup4\n        /* \"#utility.yul\":16264:16281   */\n      add\n        /* \"#utility.yul\":16257:16304   */\n      mstore\n        /* \"#utility.yul\":16321:16452   */\n      tag_458\n        /* \"#utility.yul\":16447:16451   */\n      dup2\n        /* \"#utility.yul\":16321:16452   */\n      tag_285\n      jump\t// in\n    tag_458:\n        /* \"#utility.yul\":16313:16452   */\n      swap1\n      pop\n        /* \"#utility.yul\":16040:16459   */\n      swap2\n      swap1\n      pop\n      jump\t// out\n        /* \"#utility.yul\":16465:16687   */\n    tag_286:\n        /* \"#utility.yul\":16605:16639   */\n      0x44617461206c656e67746820666f7220453030303130303031206d7573742062\n        /* \"#utility.yul\":16601:16602   */\n      0x00\n        /* \"#utility.yul\":16593:16599   */\n      dup3\n        /* \"#utility.yul\":16589:16603   */\n      add\n        /* \"#utility.yul\":16582:16640   */\n      mstore\n        /* \"#utility.yul\":16674:16679   */\n      0x6520360000000000000000000000000000000000000000000000000000000000\n        /* \"#utility.yul\":16669:16671   */\n      0x20\n        /* \"#utility.yul\":16661:16667   */\n      dup3\n        /* \"#utility.yul\":16657:16672   */\n      add\n        /* \"#utility.yul\":16650:16680   */\n      mstore\n        /* \"#utility.yul\":16465:16687   */\n      pop\n      jump\t// out\n        /* \"#utility.yul\":16693:17059   */\n    tag_287:\n        /* \"#utility.yul\":16835:16838   */\n      0x00\n        /* \"#utility.yul\":16856:16923   */\n      tag_461\n        /* \"#utility.yul\":16920:16922   */\n      0x23\n        /* \"#utility.yul\":16915:16918   */\n      dup4\n        /* \"#utility.yul\":16856:16923   */\n      tag_278\n      jump\t// in\n    tag_461:\n        /* \"#utility.yul\":16849:16923   */\n      swap2\n      pop\n        /* \"#utility.yul\":16932:17025   */\n      tag_462\n        /* \"#utility.yul\":17021:17024   */\n      dup3\n        /* \"#utility.yul\":16932:17025   */\n      tag_286\n      jump\t// in\n    tag_462:\n        /* \"#utility.yul\":17050:17052   */\n      0x40\n        /* \"#utility.yul\":17045:17048   */\n      dup3\n        /* \"#utility.yul\":17041:17053   */\n      add\n        /* \"#utility.yul\":17034:17053   */\n      swap1\n      pop\n        /* \"#utility.yul\":16693:17059   */\n      swap2\n      swap1\n      pop\n      jump\t// out\n        /* \"#utility.yul\":17065:17484   */\n    tag_156:\n        /* \"#utility.yul\":17231:17235   */\n      0x00\n        /* \"#utility.yul\":17269:17271   */\n      0x20\n        /* \"#utility.yul\":17258:17267   */\n      dup3\n        /* \"#utility.yul\":17254:17272   */\n      add\n        /* \"#utility.yul\":17246:17272   */\n      swap1\n      pop\n        /* \"#utility.yul\":17318:17327   */\n      dup2\n        /* \"#utility.yul\":17312:17316   */\n      dup2\n        /* \"#utility.yul\":17308:17328   */\n      sub\n        /* \"#utility.yul\":17304:17305   */\n      0x00\n        /* \"#utility.yul\":17293:17302   */\n      dup4\n        /* \"#utility.yul\":17289:17306   */\n      add\n        /* \"#utility.yul\":17282:17329   */\n      mstore\n        /* \"#utility.yul\":17346:17477   */\n      tag_464\n        /* \"#utility.yul\":17472:17476   */\n      dup2\n        /* \"#utility.yul\":17346:17477   */\n      tag_287\n      jump\t// in\n    tag_464:\n        /* \"#utility.yul\":17338:17477   */\n      swap1\n      pop\n        /* \"#utility.yul\":17065:17484   */\n      swap2\n      swap1\n      pop\n      jump\t// out\n        /* \"#utility.yul\":17490:17712   */\n    tag_288:\n        /* \"#utility.yul\":17630:17664   */\n      0x44617461206c656e67746820666f7220453030303130303031206d7573742062\n        /* \"#utility.yul\":17626:17627   */\n      0x00\n        /* \"#utility.yul\":17618:17624   */\n      dup3\n        /* \"#utility.yul\":17614:17628   */\n      add\n        /* \"#utility.yul\":17607:17665   */\n      mstore\n        /* \"#utility.yul\":17699:17704   */\n      0x6520380000000000000000000000000000000000000000000000000000000000\n        /* \"#utility.yul\":17694:17696   */\n      0x20\n        /* \"#utility.yul\":17686:17692   */\n      dup3\n        /* \"#utility.yul\":17682:17697   */\n      add\n        /* \"#utility.yul\":17675:17705   */\n      mstore\n        /* \"#utility.yul\":17490:17712   */\n      pop\n      jump\t// out\n        /* \"#utility.yul\":17718:18084   */\n    tag_289:\n        /* \"#utility.yul\":17860:17863   */\n      0x00\n        /* \"#utility.yul\":17881:17948   */\n      tag_467\n        /* \"#utility.yul\":17945:17947   */\n      0x23\n        /* \"#utility.yul\":17940:17943   */\n      dup4\n        /* \"#utility.yul\":17881:17948   */\n      tag_278\n      jump\t// in\n    tag_467:\n        /* \"#utility.yul\":17874:17948   */\n      swap2\n      pop\n        /* \"#utility.yul\":17957:18050   */\n      tag_468\n        /* \"#utility.yul\":18046:18049   */\n      dup3\n        /* \"#utility.yul\":17957:18050   */\n      tag_288\n      jump\t// in\n    tag_468:\n        /* \"#utility.yul\":18075:18077   */\n      0x40\n        /* \"#utility.yul\":18070:18073   */\n      dup3\n        /* \"#utility.yul\":18066:18078   */\n      add\n        /* \"#utility.yul\":18059:18078   */\n      swap1\n      pop\n        /* \"#utility.yul\":17718:18084   */\n      swap2\n      swap1\n      pop\n      jump\t// out\n        /* \"#utility.yul\":18090:18509   */\n    tag_181:\n        /* \"#utility.yul\":18256:18260   */\n      0x00\n        /* \"#utility.yul\":18294:18296   */\n      0x20\n        /* \"#utility.yul\":18283:18292   */\n      dup3\n        /* \"#utility.yul\":18279:18297   */\n      add\n        /* \"#utility.yul\":18271:18297   */\n      swap1\n      pop\n        /* \"#utility.yul\":18343:18352   */\n      dup2\n        /* \"#utility.yul\":18337:18341   */\n      dup2\n        /* \"#utility.yul\":18333:18353   */\n      sub\n        /* \"#utility.yul\":18329:18330   */\n      0x00\n        /* \"#utility.yul\":18318:18327   */\n      dup4\n        /* \"#utility.yul\":18314:18331   */\n      add\n        /* \"#utility.yul\":18307:18354   */\n      mstore\n        /* \"#utility.yul\":18371:18502   */\n      tag_470\n        /* \"#utility.yul\":18497:18501   */\n      dup2\n        /* \"#utility.yul\":18371:18502   */\n      tag_289\n      jump\t// in\n    tag_470:\n        /* \"#utility.yul\":18363:18502   */\n      swap1\n      pop\n        /* \"#utility.yul\":18090:18509   */\n      swap2\n      swap1\n      pop\n      jump\t// out\n        /* \"#utility.yul\":18515:18737   */\n    tag_290:\n        /* \"#utility.yul\":18655:18689   */\n      0x44617461206c656e67746820666f7220453030303130303031206d7573742062\n        /* \"#utility.yul\":18651:18652   */\n      0x00\n        /* \"#utility.yul\":18643:18649   */\n      dup3\n        /* \"#utility.yul\":18639:18653   */\n      add\n        /* \"#utility.yul\":18632:18690   */\n      mstore\n        /* \"#utility.yul\":18724:18729   */\n      0x6520370000000000000000000000000000000000000000000000000000000000\n        /* \"#utility.yul\":18719:18721   */\n      0x20\n        /* \"#utility.yul\":18711:18717   */\n      dup3\n        /* \"#utility.yul\":18707:18722   */\n      add\n        /* \"#utility.yul\":18700:18730   */\n      mstore\n        /* \"#utility.yul\":18515:18737   */\n      pop\n      jump\t// out\n        /* \"#utility.yul\":18743:19109   */\n    tag_291:\n        /* \"#utility.yul\":18885:18888   */\n      0x00\n        /* \"#utility.yul\":18906:18973   */\n      tag_473\n        /* \"#utility.yul\":18970:18972   */\n      0x23\n        /* \"#utility.yul\":18965:18968   */\n      dup4\n        /* \"#utility.yul\":18906:18973   */\n      tag_278\n      jump\t// in\n    tag_473:\n        /* \"#utility.yul\":18899:18973   */\n      swap2\n      pop\n        /* \"#utility.yul\":18982:19075   */\n      tag_474\n        /* \"#utility.yul\":19071:19074   */\n      dup3\n        /* \"#utility.yul\":18982:19075   */\n      tag_290\n      jump\t// in\n    tag_474:\n        /* \"#utility.yul\":19100:19102   */\n      0x40\n        /* \"#utility.yul\":19095:19098   */\n      dup3\n        /* \"#utility.yul\":19091:19103   */\n      add\n        /* \"#utility.yul\":19084:19103   */\n      swap1\n      pop\n        /* \"#utility.yul\":18743:19109   */\n      swap2\n      swap1\n      pop\n      jump\t// out\n        /* \"#utility.yul\":19115:19534   */\n    tag_212:\n        /* \"#utility.yul\":19281:19285   */\n      0x00\n        /* \"#utility.yul\":19319:19321   */\n      0x20\n        /* \"#utility.yul\":19308:19317   */\n      dup3\n        /* \"#utility.yul\":19304:19322   */\n      add\n        /* \"#utility.yul\":19296:19322   */\n      swap1\n      pop\n        /* \"#utility.yul\":19368:19377   */\n      dup2\n        /* \"#utility.yul\":19362:19366   */\n      dup2\n        /* \"#utility.yul\":19358:19378   */\n      sub\n        /* \"#utility.yul\":19354:19355   */\n      0x00\n        /* \"#utility.yul\":19343:19352   */\n      dup4\n        /* \"#utility.yul\":19339:19356   */\n      add\n        /* \"#utility.yul\":19332:19379   */\n      mstore\n        /* \"#utility.yul\":19396:19527   */\n      tag_476\n        /* \"#utility.yul\":19522:19526   */\n      dup2\n        /* \"#utility.yul\":19396:19527   */\n      tag_291\n      jump\t// in\n    tag_476:\n        /* \"#utility.yul\":19388:19527   */\n      swap1\n      pop\n        /* \"#utility.yul\":19115:19534   */\n      swap2\n      swap1\n      pop\n      jump\t// out\n\n    auxdata: 0xa26469706673582212209eabfe70ffa0662af58e56b6468b96c1a1d531384074497fd7da5cdbf4a6a45464736f6c63430008120033\n}\n",
				"bytecode": {
					"linkReferences": {},
					"object": "608060405234801561001057600080fd5b50611e66806100206000396000f3fe608060405234801561001057600080fd5b506004361061009e5760003560e01c80639b4e3420116100665780639b4e342014610185578063c4af6548146101b5578063df4ecf42146101d1578063e09576f014610201578063fadc6bc6146102315761009e565b80631afc42b6146100a3578063419e4138146100d35780634aae13ca14610103578063578cb8f9146101355780639ace38c214610153575b600080fd5b6100bd60048036038101906100b89190611431565b610261565b6040516100ca919061148a565b60405180910390f35b6100ed60048036038101906100e891906114a5565b6102a1565b6040516100fa919061148a565b60405180910390f35b61011d600480360381019061011891906114e5565b6102ce565b60405161012c93929190611562565b60405180910390f35b61013d61031c565b60405161014a91906115a8565b60405180910390f35b61016d600480360381019061016891906115c3565b610328565b60405161017c93929190611562565b60405180910390f35b61019f600480360381019061019a91906115c3565b610382565b6040516101ac91906115f0565b60405180910390f35b6101cf60048036038101906101ca9190611764565b6103b0565b005b6101eb60048036038101906101e6919061188e565b610575565b6040516101f89190611a11565b60405180910390f35b61021b600480360381019061021691906115c3565b6106d2565b60405161022891906115f0565b60405180910390f35b61024b600480360381019061024691906115c3565b610700565b604051610258919061148a565b60405180910390f35b600080838154811061027657610275611a33565b5b9060005260206000209060040201600301600083815260200190815260200160002054905092915050565b6000806102ad8461077c565b90508060030160008481526020019081526020016000205491505092915050565b6000806000806102dd8561077c565b9050806001015481600001548260020160009054906101000a900473ffffffffffffffffffffffffffffffffffffffff16935093509350509193909250565b60008080549050905090565b6000818154811061033857600080fd5b90600052602060002090600402016000915090508060000154908060010154908060020160009054906101000a900473ffffffffffffffffffffffffffffffffffffffff16905083565b600080828154811061039757610396611a33565b5b9060005260206000209060040201600001549050919050565b6003815110156103f5576040517f08c379a00000000000000000000000000000000000000000000000000000000081526004016103ec90611ae5565b60405180910390fd5b60008160018151811061040b5761040a611a33565b5b602002602001015190507f453030303130303031000000000000000000000000000000000000000000000081148061046257507f453030303130303032000000000000000000000000000000000000000000000081145b8061048c57507f453030303130303033000000000000000000000000000000000000000000000081145b1561049f5761049a8261083b565b610571565b7f453030303130303034000000000000000000000000000000000000000000000081036104d4576104cf82610b86565b610570565b7f453030303130303035000000000000000000000000000000000000000000000081148061052157507f453030303130303036000000000000000000000000000000000000000000000081145b156105345761052f82610fbb565b61056f565b6040517f08c379a000000000000000000000000000000000000000000000000000000000815260040161056690611b51565b60405180910390fd5b5b5b5050565b60606000600667ffffffffffffffff81111561059457610593611621565b5b6040519080825280602002602001820160405280156105c25781602001602082028036833780820191505090505b5090506105ce8861137b565b816000815181106105e2576105e1611a33565b5b6020026020010181815250506105f78761137b565b8160018151811061060b5761060a611a33565b5b602002602001018181525050610620866113a4565b8160028151811061063457610633611a33565b5b602002602001018181525050610649856113a4565b8160038151811061065d5761065c611a33565b5b602002602001018181525050610672846113a4565b8160048151811061068657610685611a33565b5b60200260200101818152505061069b836113a4565b816005815181106106af576106ae611a33565b5b6020026020010181815250506106c4816103b0565b809150509695505050505050565b60008082815481106106e7576106e6611a33565b5b9060005260206000209060040201600101549050919050565b600080828154811061071557610714611a33565b5b906000526020600020906004020160030160006107666040518060400160405280600a81526020017f7472616e735f74696d650000000000000000000000000000000000000000000081525061137b565b8152602001908152602001600020549050919050565b600080600090505b6000805490508110156107fa5782600082815481106107a6576107a5611a33565b5b906000526020600020906004020160000154036107e757600081815481106107d1576107d0611a33565b5b9060005260206000209060040201915050610836565b80806107f290611ba0565b915050610784565b506040517f08c379a000000000000000000000000000000000000000000000000000000000815260040161082d90611c5a565b60405180910390fd5b919050565b600681511461087f576040517f08c379a000000000000000000000000000000000000000000000000000000000815260040161087690611cec565b60405180910390fd5b60008080549050905060006001816001815401808255809150500390600052602060002090505060008082815481106108bb576108ba611a33565b5b90600052602060002090600402019050826000815181106108df576108de611a33565b5b602002602001015181600001819055508260018151811061090357610902611a33565b5b60200260200101518160010181905550338160020160006101000a81548173ffffffffffffffffffffffffffffffffffffffff021916908373ffffffffffffffffffffffffffffffffffffffff1602179055508260028151811061096a57610969611a33565b5b602002602001015160001c8160030160006109b96040518060400160405280600581526020017f455030303100000000000000000000000000000000000000000000000000000081525061137b565b815260200190815260200160002081905550826003815181106109df576109de611a33565b5b602002602001015160001c816003016000610a2e6040518060400160405280600581526020017f455030303200000000000000000000000000000000000000000000000000000081525061137b565b81526020019081526020016000208190555082600481518110610a5457610a53611a33565b5b602002602001015160001c816003016000610aa36040518060400160405280600581526020017f455030303300000000000000000000000000000000000000000000000000000081525061137b565b81526020019081526020016000208190555042816003016000610afa6040518060400160405280600a81526020017f7472616e735f74696d650000000000000000000000000000000000000000000081525061137b565b81526020019081526020016000208190555082600581518110610b2057610b1f611a33565b5b602002602001015160001c816003016000610b6f6040518060400160405280600581526020017f455030303500000000000000000000000000000000000000000000000000000081525061137b565b815260200190815260200160002081905550505050565b6008815114610bca576040517f08c379a0000000000000000000000000000000000000000000000000000000008152600401610bc190611d7e565b60405180910390fd5b6000808054905090506000600181600181540180825580915050039060005260206000209050506000808281548110610c0657610c05611a33565b5b9060005260206000209060040201905082600081518110610c2a57610c29611a33565b5b6020026020010151816000018190555082600181518110610c4e57610c4d611a33565b5b60200260200101518160010181905550338160020160006101000a81548173ffffffffffffffffffffffffffffffffffffffff021916908373ffffffffffffffffffffffffffffffffffffffff16021790555082600281518110610cb557610cb4611a33565b5b602002602001015160001c816003016000610d046040518060400160405280600581526020017f455030303100000000000000000000000000000000000000000000000000000081525061137b565b81526020019081526020016000208190555082600381518110610d2a57610d29611a33565b5b602002602001015160001c816003016000610d796040518060400160405280600581526020017f455030303200000000000000000000000000000000000000000000000000000081525061137b565b81526020019081526020016000208190555082600481518110610d9f57610d9e611a33565b5b602002602001015160001c816003016000610dee6040518060400160405280600581526020017f455030303300000000000000000000000000000000000000000000000000000081525061137b565b81526020019081526020016000208190555082600581518110610e1457610e13611a33565b5b602002602001015160001c816003016000610e636040518060400160405280600581526020017f455030303400000000000000000000000000000000000000000000000000000081525061137b565b81526020019081526020016000208190555042816003016000610eba6040518060400160405280600a81526020017f7472616e735f74696d650000000000000000000000000000000000000000000081525061137b565b81526020019081526020016000208190555082600681518110610ee057610edf611a33565b5b602002602001015160001c816003016000610f2f6040518060400160405280600581526020017f455030303600000000000000000000000000000000000000000000000000000081525061137b565b81526020019081526020016000208190555082600781518110610f5557610f54611a33565b5b602002602001015160001c816003016000610fa46040518060400160405280600581526020017f455030303700000000000000000000000000000000000000000000000000000081525061137b565b815260200190815260200160002081905550505050565b6007815114610fff576040517f08c379a0000000000000000000000000000000000000000000000000000000008152600401610ff690611e10565b60405180910390fd5b600080805490509050600060018160018154018082558091505003906000526020600020905050600080828154811061103b5761103a611a33565b5b906000526020600020906004020190508260008151811061105f5761105e611a33565b5b602002602001015181600001819055508260018151811061108357611082611a33565b5b60200260200101518160010181905550338160020160006101000a81548173ffffffffffffffffffffffffffffffffffffffff021916908373ffffffffffffffffffffffffffffffffffffffff160217905550826002815181106110ea576110e9611a33565b5b602002602001015160001c8160030160006111396040518060400160405280600581526020017f455030303100000000000000000000000000000000000000000000000000000081525061137b565b8152602001908152602001600020819055508260038151811061115f5761115e611a33565b5b602002602001015160001c8160030160006111ae6040518060400160405280600581526020017f455030303200000000000000000000000000000000000000000000000000000081525061137b565b815260200190815260200160002081905550826004815181106111d4576111d3611a33565b5b602002602001015160001c8160030160006112236040518060400160405280600581526020017f455030303300000000000000000000000000000000000000000000000000000081525061137b565b8152602001908152602001600020819055508260058151811061124957611248611a33565b5b602002602001015160001c8160030160006112986040518060400160405280600581526020017f455030303400000000000000000000000000000000000000000000000000000081525061137b565b815260200190815260200160002081905550428160030160006112ef6040518060400160405280600a81526020017f7472616e735f74696d650000000000000000000000000000000000000000000081525061137b565b8152602001908152602001600020819055508260068151811061131557611314611a33565b5b602002602001015160001c8160030160006113646040518060400160405280600581526020017f455030303600000000000000000000000000000000000000000000000000000081525061137b565b815260200190815260200160002081905550505050565b6000808290506000815103611396576000801b91505061139f565b60208301519150505b919050565b60008160001b9050919050565b6000604051905090565b600080fd5b600080fd5b6000819050919050565b6113d8816113c5565b81146113e357600080fd5b50565b6000813590506113f5816113cf565b92915050565b6000819050919050565b61140e816113fb565b811461141957600080fd5b50565b60008135905061142b81611405565b92915050565b60008060408385031215611448576114476113bb565b5b6000611456858286016113e6565b92505060206114678582860161141c565b9150509250929050565b6000819050919050565b61148481611471565b82525050565b600060208201905061149f600083018461147b565b92915050565b600080604083850312156114bc576114bb6113bb565b5b60006114ca8582860161141c565b92505060206114db8582860161141c565b9150509250929050565b6000602082840312156114fb576114fa6113bb565b5b60006115098482850161141c565b91505092915050565b61151b816113fb565b82525050565b600073ffffffffffffffffffffffffffffffffffffffff82169050919050565b600061154c82611521565b9050919050565b61155c81611541565b82525050565b60006060820190506115776000830186611512565b6115846020830185611512565b6115916040830184611553565b949350505050565b6115a2816113c5565b82525050565b60006020820190506115bd6000830184611599565b92915050565b6000602082840312156115d9576115d86113bb565b5b60006115e7848285016113e6565b91505092915050565b60006020820190506116056000830184611512565b92915050565b600080fd5b6000601f19601f8301169050919050565b7f4e487b7100000000000000000000000000000000000000000000000000000000600052604160045260246000fd5b61165982611610565b810181811067ffffffffffffffff8211171561167857611677611621565b5b80604052505050565b600061168b6113b1565b90506116978282611650565b919050565b600067ffffffffffffffff8211156116b7576116b6611621565b5b602082029050602081019050919050565b600080fd5b60006116e06116db8461169c565b611681565b90508083825260208201905060208402830185811115611703576117026116c8565b5b835b8181101561172c5780611718888261141c565b845260208401935050602081019050611705565b5050509392505050565b600082601f83011261174b5761174a61160b565b5b813561175b8482602086016116cd565b91505092915050565b60006020828403121561177a576117796113bb565b5b600082013567ffffffffffffffff811115611798576117976113c0565b5b6117a484828501611736565b91505092915050565b600080fd5b600067ffffffffffffffff8211156117cd576117cc611621565b5b6117d682611610565b9050602081019050919050565b82818337600083830152505050565b6000611805611800846117b2565b611681565b905082815260208101848484011115611821576118206117ad565b5b61182c8482856117e3565b509392505050565b600082601f8301126118495761184861160b565b5b81356118598482602086016117f2565b91505092915050565b61186b81611471565b811461187657600080fd5b50565b60008135905061188881611862565b92915050565b60008060008060008060c087890312156118ab576118aa6113bb565b5b600087013567ffffffffffffffff8111156118c9576118c86113c0565b5b6118d589828a01611834565b965050602087013567ffffffffffffffff8111156118f6576118f56113c0565b5b61190289828a01611834565b955050604061191389828a01611879565b945050606061192489828a01611879565b935050608061193589828a01611879565b92505060a061194689828a01611879565b9150509295509295509295565b600081519050919050565b600082825260208201905092915050565b6000819050602082019050919050565b611988816113fb565b82525050565b600061199a838361197f565b60208301905092915050565b6000602082019050919050565b60006119be82611953565b6119c8818561195e565b93506119d38361196f565b8060005b83811015611a045781516119eb888261198e565b97506119f6836119a6565b9250506001810190506119d7565b5085935050505092915050565b60006020820190508181036000830152611a2b81846119b3565b905092915050565b7f4e487b7100000000000000000000000000000000000000000000000000000000600052603260045260246000fd5b600082825260208201905092915050565b7f44617461206d7573742068617665206174206c6561737420746872656520656c60008201527f656d656e74730000000000000000000000000000000000000000000000000000602082015250565b6000611acf602683611a62565b9150611ada82611a73565b604082019050919050565b60006020820190508181036000830152611afe81611ac2565b9050919050565b7f556e737570706f72746564207472616e73616374696f6e207479706500000000600082015250565b6000611b3b601c83611a62565b9150611b4682611b05565b602082019050919050565b60006020820190508181036000830152611b6a81611b2e565b9050919050565b7f4e487b7100000000000000000000000000000000000000000000000000000000600052601160045260246000fd5b6000611bab826113c5565b91507fffffffffffffffffffffffffffffffffffffffffffffffffffffffffffffffff8203611bdd57611bdc611b71565b5b600182019050919050565b7f5472616e73616374696f6e207769746820676976656e206576656e744964206e60008201527f6f7420666f756e64000000000000000000000000000000000000000000000000602082015250565b6000611c44602883611a62565b9150611c4f82611be8565b604082019050919050565b60006020820190508181036000830152611c7381611c37565b9050919050565b7f44617461206c656e67746820666f7220453030303130303031206d757374206260008201527f6520360000000000000000000000000000000000000000000000000000000000602082015250565b6000611cd6602383611a62565b9150611ce182611c7a565b604082019050919050565b60006020820190508181036000830152611d0581611cc9565b9050919050565b7f44617461206c656e67746820666f7220453030303130303031206d757374206260008201527f6520380000000000000000000000000000000000000000000000000000000000602082015250565b6000611d68602383611a62565b9150611d7382611d0c565b604082019050919050565b60006020820190508181036000830152611d9781611d5b565b9050919050565b7f44617461206c656e67746820666f7220453030303130303031206d757374206260008201527f6520370000000000000000000000000000000000000000000000000000000000602082015250565b6000611dfa602383611a62565b9150611e0582611d9e565b604082019050919050565b60006020820190508181036000830152611e2981611ded565b905091905056fea26469706673582212209eabfe70ffa0662af58e56b6468b96c1a1d531384074497fd7da5cdbf4a6a45464736f6c63430008120033",
					"opcodes": "PUSH1 0x80 PUSH1 0x40 MSTORE CALLVALUE DUP1 ISZERO PUSH2 0x10 JUMPI PUSH1 0x0 DUP1 REVERT JUMPDEST POP PUSH2 0x1E66 DUP1 PUSH2 0x20 PUSH1 0x0 CODECOPY PUSH1 0x0 RETURN INVALID PUSH1 0x80 PUSH1 0x40 MSTORE CALLVALUE DUP1 ISZERO PUSH2 0x10 JUMPI PUSH1 0x0 DUP1 REVERT JUMPDEST POP PUSH1 0x4 CALLDATASIZE LT PUSH2 0x9E JUMPI PUSH1 0x0 CALLDATALOAD PUSH1 0xE0 SHR DUP1 PUSH4 0x9B4E3420 GT PUSH2 0x66 JUMPI DUP1 PUSH4 0x9B4E3420 EQ PUSH2 0x185 JUMPI DUP1 PUSH4 0xC4AF6548 EQ PUSH2 0x1B5 JUMPI DUP1 PUSH4 0xDF4ECF42 EQ PUSH2 0x1D1 JUMPI DUP1 PUSH4 0xE09576F0 EQ PUSH2 0x201 JUMPI DUP1 PUSH4 0xFADC6BC6 EQ PUSH2 0x231 JUMPI PUSH2 0x9E JUMP JUMPDEST DUP1 PUSH4 0x1AFC42B6 EQ PUSH2 0xA3 JUMPI DUP1 PUSH4 0x419E4138 EQ PUSH2 0xD3 JUMPI DUP1 PUSH4 0x4AAE13CA EQ PUSH2 0x103 JUMPI DUP1 PUSH4 0x578CB8F9 EQ PUSH2 0x135 JUMPI DUP1 PUSH4 0x9ACE38C2 EQ PUSH2 0x153 JUMPI JUMPDEST PUSH1 0x0 DUP1 REVERT JUMPDEST PUSH2 0xBD PUSH1 0x4 DUP1 CALLDATASIZE SUB DUP2 ADD SWAP1 PUSH2 0xB8 SWAP2 SWAP1 PUSH2 0x1431 JUMP JUMPDEST PUSH2 0x261 JUMP JUMPDEST PUSH1 0x40 MLOAD PUSH2 0xCA SWAP2 SWAP1 PUSH2 0x148A JUMP JUMPDEST PUSH1 0x40 MLOAD DUP1 SWAP2 SUB SWAP1 RETURN JUMPDEST PUSH2 0xED PUSH1 0x4 DUP1 CALLDATASIZE SUB DUP2 ADD SWAP1 PUSH2 0xE8 SWAP2 SWAP1 PUSH2 0x14A5 JUMP JUMPDEST PUSH2 0x2A1 JUMP JUMPDEST PUSH1 0x40 MLOAD PUSH2 0xFA SWAP2 SWAP1 PUSH2 0x148A JUMP JUMPDEST PUSH1 0x40 MLOAD DUP1 SWAP2 SUB SWAP1 RETURN JUMPDEST PUSH2 0x11D PUSH1 0x4 DUP1 CALLDATASIZE SUB DUP2 ADD SWAP1 PUSH2 0x118 SWAP2 SWAP1 PUSH2 0x14E5 JUMP JUMPDEST PUSH2 0x2CE JUMP JUMPDEST PUSH1 0x40 MLOAD PUSH2 0x12C SWAP4 SWAP3 SWAP2 SWAP1 PUSH2 0x1562 JUMP JUMPDEST PUSH1 0x40 MLOAD DUP1 SWAP2 SUB SWAP1 RETURN JUMPDEST PUSH2 0x13D PUSH2 0x31C JUMP JUMPDEST PUSH1 0x40 MLOAD PUSH2 0x14A SWAP2 SWAP1 PUSH2 0x15A8 JUMP JUMPDEST PUSH1 0x40 MLOAD DUP1 SWAP2 SUB SWAP1 RETURN JUMPDEST PUSH2 0x16D PUSH1 0x4 DUP1 CALLDATASIZE SUB DUP2 ADD SWAP1 PUSH2 0x168 SWAP2 SWAP1 PUSH2 0x15C3 JUMP JUMPDEST PUSH2 0x328 JUMP JUMPDEST PUSH1 0x40 MLOAD PUSH2 0x17C SWAP4 SWAP3 SWAP2 SWAP1 PUSH2 0x1562 JUMP JUMPDEST PUSH1 0x40 MLOAD DUP1 SWAP2 SUB SWAP1 RETURN JUMPDEST PUSH2 0x19F PUSH1 0x4 DUP1 CALLDATASIZE SUB DUP2 ADD SWAP1 PUSH2 0x19A SWAP2 SWAP1 PUSH2 0x15C3 JUMP JUMPDEST PUSH2 0x382 JUMP JUMPDEST PUSH1 0x40 MLOAD PUSH2 0x1AC SWAP2 SWAP1 PUSH2 0x15F0 JUMP JUMPDEST PUSH1 0x40 MLOAD DUP1 SWAP2 SUB SWAP1 RETURN JUMPDEST PUSH2 0x1CF PUSH1 0x4 DUP1 CALLDATASIZE SUB DUP2 ADD SWAP1 PUSH2 0x1CA SWAP2 SWAP1 PUSH2 0x1764 JUMP JUMPDEST PUSH2 0x3B0 JUMP JUMPDEST STOP JUMPDEST PUSH2 0x1EB PUSH1 0x4 DUP1 CALLDATASIZE SUB DUP2 ADD SWAP1 PUSH2 0x1E6 SWAP2 SWAP1 PUSH2 0x188E JUMP JUMPDEST PUSH2 0x575 JUMP JUMPDEST PUSH1 0x40 MLOAD PUSH2 0x1F8 SWAP2 SWAP1 PUSH2 0x1A11 JUMP JUMPDEST PUSH1 0x40 MLOAD DUP1 SWAP2 SUB SWAP1 RETURN JUMPDEST PUSH2 0x21B PUSH1 0x4 DUP1 CALLDATASIZE SUB DUP2 ADD SWAP1 PUSH2 0x216 SWAP2 SWAP1 PUSH2 0x15C3 JUMP JUMPDEST PUSH2 0x6D2 JUMP JUMPDEST PUSH1 0x40 MLOAD PUSH2 0x228 SWAP2 SWAP1 PUSH2 0x15F0 JUMP JUMPDEST PUSH1 0x40 MLOAD DUP1 SWAP2 SUB SWAP1 RETURN JUMPDEST PUSH2 0x24B PUSH1 0x4 DUP1 CALLDATASIZE SUB DUP2 ADD SWAP1 PUSH2 0x246 SWAP2 SWAP1 PUSH2 0x15C3 JUMP JUMPDEST PUSH2 0x700 JUMP JUMPDEST PUSH1 0x40 MLOAD PUSH2 0x258 SWAP2 SWAP1 PUSH2 0x148A JUMP JUMPDEST PUSH1 0x40 MLOAD DUP1 SWAP2 SUB SWAP1 RETURN JUMPDEST PUSH1 0x0 DUP1 DUP4 DUP2 SLOAD DUP2 LT PUSH2 0x276 JUMPI PUSH2 0x275 PUSH2 0x1A33 JUMP JUMPDEST JUMPDEST SWAP1 PUSH1 0x0 MSTORE PUSH1 0x20 PUSH1 0x0 KECCAK256 SWAP1 PUSH1 0x4 MUL ADD PUSH1 0x3 ADD PUSH1 0x0 DUP4 DUP2 MSTORE PUSH1 0x20 ADD SWAP1 DUP2 MSTORE PUSH1 0x20 ADD PUSH1 0x0 KECCAK256 SLOAD SWAP1 POP SWAP3 SWAP2 POP POP JUMP JUMPDEST PUSH1 0x0 DUP1 PUSH2 0x2AD DUP5 PUSH2 0x77C JUMP JUMPDEST SWAP1 POP DUP1 PUSH1 0x3 ADD PUSH1 0x0 DUP5 DUP2 MSTORE PUSH1 0x20 ADD SWAP1 DUP2 MSTORE PUSH1 0x20 ADD PUSH1 0x0 KECCAK256 SLOAD SWAP2 POP POP SWAP3 SWAP2 POP POP JUMP JUMPDEST PUSH1 0x0 DUP1 PUSH1 0x0 DUP1 PUSH2 0x2DD DUP6 PUSH2 0x77C JUMP JUMPDEST SWAP1 POP DUP1 PUSH1 0x1 ADD SLOAD DUP2 PUSH1 0x0 ADD SLOAD DUP3 PUSH1 0x2 ADD PUSH1 0x0 SWAP1 SLOAD SWAP1 PUSH2 0x100 EXP SWAP1 DIV PUSH20 0xFFFFFFFFFFFFFFFFFFFFFFFFFFFFFFFFFFFFFFFF AND SWAP4 POP SWAP4 POP SWAP4 POP POP SWAP2 SWAP4 SWAP1 SWAP3 POP JUMP JUMPDEST PUSH1 0x0 DUP1 DUP1 SLOAD SWAP1 POP SWAP1 POP SWAP1 JUMP JUMPDEST PUSH1 0x0 DUP2 DUP2 SLOAD DUP2 LT PUSH2 0x338 JUMPI PUSH1 0x0 DUP1 REVERT JUMPDEST SWAP1 PUSH1 0x0 MSTORE PUSH1 0x20 PUSH1 0x0 KECCAK256 SWAP1 PUSH1 0x4 MUL ADD PUSH1 0x0 SWAP2 POP SWAP1 POP DUP1 PUSH1 0x0 ADD SLOAD SWAP1 DUP1 PUSH1 0x1 ADD SLOAD SWAP1 DUP1 PUSH1 0x2 ADD PUSH1 0x0 SWAP1 SLOAD SWAP1 PUSH2 0x100 EXP SWAP1 DIV PUSH20 0xFFFFFFFFFFFFFFFFFFFFFFFFFFFFFFFFFFFFFFFF AND SWAP1 POP DUP4 JUMP JUMPDEST PUSH1 0x0 DUP1 DUP3 DUP2 SLOAD DUP2 LT PUSH2 0x397 JUMPI PUSH2 0x396 PUSH2 0x1A33 JUMP JUMPDEST JUMPDEST SWAP1 PUSH1 0x0 MSTORE PUSH1 0x20 PUSH1 0x0 KECCAK256 SWAP1 PUSH1 0x4 MUL ADD PUSH1 0x0 ADD SLOAD SWAP1 POP SWAP2 SWAP1 POP JUMP JUMPDEST PUSH1 0x3 DUP2 MLOAD LT ISZERO PUSH2 0x3F5 JUMPI PUSH1 0x40 MLOAD PUSH32 0x8C379A000000000000000000000000000000000000000000000000000000000 DUP2 MSTORE PUSH1 0x4 ADD PUSH2 0x3EC SWAP1 PUSH2 0x1AE5 JUMP JUMPDEST PUSH1 0x40 MLOAD DUP1 SWAP2 SUB SWAP1 REVERT JUMPDEST PUSH1 0x0 DUP2 PUSH1 0x1 DUP2 MLOAD DUP2 LT PUSH2 0x40B JUMPI PUSH2 0x40A PUSH2 0x1A33 JUMP JUMPDEST JUMPDEST PUSH1 0x20 MUL PUSH1 0x20 ADD ADD MLOAD SWAP1 POP PUSH32 0x4530303031303030310000000000000000000000000000000000000000000000 DUP2 EQ DUP1 PUSH2 0x462 JUMPI POP PUSH32 0x4530303031303030320000000000000000000000000000000000000000000000 DUP2 EQ JUMPDEST DUP1 PUSH2 0x48C JUMPI POP PUSH32 0x4530303031303030330000000000000000000000000000000000000000000000 DUP2 EQ JUMPDEST ISZERO PUSH2 0x49F JUMPI PUSH2 0x49A DUP3 PUSH2 0x83B JUMP JUMPDEST PUSH2 0x571 JUMP JUMPDEST PUSH32 0x4530303031303030340000000000000000000000000000000000000000000000 DUP2 SUB PUSH2 0x4D4 JUMPI PUSH2 0x4CF DUP3 PUSH2 0xB86 JUMP JUMPDEST PUSH2 0x570 JUMP JUMPDEST PUSH32 0x4530303031303030350000000000000000000000000000000000000000000000 DUP2 EQ DUP1 PUSH2 0x521 JUMPI POP PUSH32 0x4530303031303030360000000000000000000000000000000000000000000000 DUP2 EQ JUMPDEST ISZERO PUSH2 0x534 JUMPI PUSH2 0x52F DUP3 PUSH2 0xFBB JUMP JUMPDEST PUSH2 0x56F JUMP JUMPDEST PUSH1 0x40 MLOAD PUSH32 0x8C379A000000000000000000000000000000000000000000000000000000000 DUP2 MSTORE PUSH1 0x4 ADD PUSH2 0x566 SWAP1 PUSH2 0x1B51 JUMP JUMPDEST PUSH1 0x40 MLOAD DUP1 SWAP2 SUB SWAP1 REVERT JUMPDEST JUMPDEST JUMPDEST POP POP JUMP JUMPDEST PUSH1 0x60 PUSH1 0x0 PUSH1 0x6 PUSH8 0xFFFFFFFFFFFFFFFF DUP2 GT ISZERO PUSH2 0x594 JUMPI PUSH2 0x593 PUSH2 0x1621 JUMP JUMPDEST JUMPDEST PUSH1 0x40 MLOAD SWAP1 DUP1 DUP3 MSTORE DUP1 PUSH1 0x20 MUL PUSH1 0x20 ADD DUP3 ADD PUSH1 0x40 MSTORE DUP1 ISZERO PUSH2 0x5C2 JUMPI DUP2 PUSH1 0x20 ADD PUSH1 0x20 DUP3 MUL DUP1 CALLDATASIZE DUP4 CALLDATACOPY DUP1 DUP3 ADD SWAP2 POP POP SWAP1 POP JUMPDEST POP SWAP1 POP PUSH2 0x5CE DUP9 PUSH2 0x137B JUMP JUMPDEST DUP2 PUSH1 0x0 DUP2 MLOAD DUP2 LT PUSH2 0x5E2 JUMPI PUSH2 0x5E1 PUSH2 0x1A33 JUMP JUMPDEST JUMPDEST PUSH1 0x20 MUL PUSH1 0x20 ADD ADD DUP2 DUP2 MSTORE POP POP PUSH2 0x5F7 DUP8 PUSH2 0x137B JUMP JUMPDEST DUP2 PUSH1 0x1 DUP2 MLOAD DUP2 LT PUSH2 0x60B JUMPI PUSH2 0x60A PUSH2 0x1A33 JUMP JUMPDEST JUMPDEST PUSH1 0x20 MUL PUSH1 0x20 ADD ADD DUP2 DUP2 MSTORE POP POP PUSH2 0x620 DUP7 PUSH2 0x13A4 JUMP JUMPDEST DUP2 PUSH1 0x2 DUP2 MLOAD DUP2 LT PUSH2 0x634 JUMPI PUSH2 0x633 PUSH2 0x1A33 JUMP JUMPDEST JUMPDEST PUSH1 0x20 MUL PUSH1 0x20 ADD ADD DUP2 DUP2 MSTORE POP POP PUSH2 0x649 DUP6 PUSH2 0x13A4 JUMP JUMPDEST DUP2 PUSH1 0x3 DUP2 MLOAD DUP2 LT PUSH2 0x65D JUMPI PUSH2 0x65C PUSH2 0x1A33 JUMP JUMPDEST JUMPDEST PUSH1 0x20 MUL PUSH1 0x20 ADD ADD DUP2 DUP2 MSTORE POP POP PUSH2 0x672 DUP5 PUSH2 0x13A4 JUMP JUMPDEST DUP2 PUSH1 0x4 DUP2 MLOAD DUP2 LT PUSH2 0x686 JUMPI PUSH2 0x685 PUSH2 0x1A33 JUMP JUMPDEST JUMPDEST PUSH1 0x20 MUL PUSH1 0x20 ADD ADD DUP2 DUP2 MSTORE POP POP PUSH2 0x69B DUP4 PUSH2 0x13A4 JUMP JUMPDEST DUP2 PUSH1 0x5 DUP2 MLOAD DUP2 LT PUSH2 0x6AF JUMPI PUSH2 0x6AE PUSH2 0x1A33 JUMP JUMPDEST JUMPDEST PUSH1 0x20 MUL PUSH1 0x20 ADD ADD DUP2 DUP2 MSTORE POP POP PUSH2 0x6C4 DUP2 PUSH2 0x3B0 JUMP JUMPDEST DUP1 SWAP2 POP POP SWAP7 SWAP6 POP POP POP POP POP POP JUMP JUMPDEST PUSH1 0x0 DUP1 DUP3 DUP2 SLOAD DUP2 LT PUSH2 0x6E7 JUMPI PUSH2 0x6E6 PUSH2 0x1A33 JUMP JUMPDEST JUMPDEST SWAP1 PUSH1 0x0 MSTORE PUSH1 0x20 PUSH1 0x0 KECCAK256 SWAP1 PUSH1 0x4 MUL ADD PUSH1 0x1 ADD SLOAD SWAP1 POP SWAP2 SWAP1 POP JUMP JUMPDEST PUSH1 0x0 DUP1 DUP3 DUP2 SLOAD DUP2 LT PUSH2 0x715 JUMPI PUSH2 0x714 PUSH2 0x1A33 JUMP JUMPDEST JUMPDEST SWAP1 PUSH1 0x0 MSTORE PUSH1 0x20 PUSH1 0x0 KECCAK256 SWAP1 PUSH1 0x4 MUL ADD PUSH1 0x3 ADD PUSH1 0x0 PUSH2 0x766 PUSH1 0x40 MLOAD DUP1 PUSH1 0x40 ADD PUSH1 0x40 MSTORE DUP1 PUSH1 0xA DUP2 MSTORE PUSH1 0x20 ADD PUSH32 0x7472616E735F74696D6500000000000000000000000000000000000000000000 DUP2 MSTORE POP PUSH2 0x137B JUMP JUMPDEST DUP2 MSTORE PUSH1 0x20 ADD SWAP1 DUP2 MSTORE PUSH1 0x20 ADD PUSH1 0x0 KECCAK256 SLOAD SWAP1 POP SWAP2 SWAP1 POP JUMP JUMPDEST PUSH1 0x0 DUP1 PUSH1 0x0 SWAP1 POP JUMPDEST PUSH1 0x0 DUP1 SLOAD SWAP1 POP DUP2 LT ISZERO PUSH2 0x7FA JUMPI DUP3 PUSH1 0x0 DUP3 DUP2 SLOAD DUP2 LT PUSH2 0x7A6 JUMPI PUSH2 0x7A5 PUSH2 0x1A33 JUMP JUMPDEST JUMPDEST SWAP1 PUSH1 0x0 MSTORE PUSH1 0x20 PUSH1 0x0 KECCAK256 SWAP1 PUSH1 0x4 MUL ADD PUSH1 0x0 ADD SLOAD SUB PUSH2 0x7E7 JUMPI PUSH1 0x0 DUP2 DUP2 SLOAD DUP2 LT PUSH2 0x7D1 JUMPI PUSH2 0x7D0 PUSH2 0x1A33 JUMP JUMPDEST JUMPDEST SWAP1 PUSH1 0x0 MSTORE PUSH1 0x20 PUSH1 0x0 KECCAK256 SWAP1 PUSH1 0x4 MUL ADD SWAP2 POP POP PUSH2 0x836 JUMP JUMPDEST DUP1 DUP1 PUSH2 0x7F2 SWAP1 PUSH2 0x1BA0 JUMP JUMPDEST SWAP2 POP POP PUSH2 0x784 JUMP JUMPDEST POP PUSH1 0x40 MLOAD PUSH32 0x8C379A000000000000000000000000000000000000000000000000000000000 DUP2 MSTORE PUSH1 0x4 ADD PUSH2 0x82D SWAP1 PUSH2 0x1C5A JUMP JUMPDEST PUSH1 0x40 MLOAD DUP1 SWAP2 SUB SWAP1 REVERT JUMPDEST SWAP2 SWAP1 POP JUMP JUMPDEST PUSH1 0x6 DUP2 MLOAD EQ PUSH2 0x87F JUMPI PUSH1 0x40 MLOAD PUSH32 0x8C379A000000000000000000000000000000000000000000000000000000000 DUP2 MSTORE PUSH1 0x4 ADD PUSH2 0x876 SWAP1 PUSH2 0x1CEC JUMP JUMPDEST PUSH1 0x40 MLOAD DUP1 SWAP2 SUB SWAP1 REVERT JUMPDEST PUSH1 0x0 DUP1 DUP1 SLOAD SWAP1 POP SWAP1 POP PUSH1 0x0 PUSH1 0x1 DUP2 PUSH1 0x1 DUP2 SLOAD ADD DUP1 DUP3 SSTORE DUP1 SWAP2 POP POP SUB SWAP1 PUSH1 0x0 MSTORE PUSH1 0x20 PUSH1 0x0 KECCAK256 SWAP1 POP POP PUSH1 0x0 DUP1 DUP3 DUP2 SLOAD DUP2 LT PUSH2 0x8BB JUMPI PUSH2 0x8BA PUSH2 0x1A33 JUMP JUMPDEST JUMPDEST SWAP1 PUSH1 0x0 MSTORE PUSH1 0x20 PUSH1 0x0 KECCAK256 SWAP1 PUSH1 0x4 MUL ADD SWAP1 POP DUP3 PUSH1 0x0 DUP2 MLOAD DUP2 LT PUSH2 0x8DF JUMPI PUSH2 0x8DE PUSH2 0x1A33 JUMP JUMPDEST JUMPDEST PUSH1 0x20 MUL PUSH1 0x20 ADD ADD MLOAD DUP2 PUSH1 0x0 ADD DUP2 SWAP1 SSTORE POP DUP3 PUSH1 0x1 DUP2 MLOAD DUP2 LT PUSH2 0x903 JUMPI PUSH2 0x902 PUSH2 0x1A33 JUMP JUMPDEST JUMPDEST PUSH1 0x20 MUL PUSH1 0x20 ADD ADD MLOAD DUP2 PUSH1 0x1 ADD DUP2 SWAP1 SSTORE POP CALLER DUP2 PUSH1 0x2 ADD PUSH1 0x0 PUSH2 0x100 EXP DUP2 SLOAD DUP2 PUSH20 0xFFFFFFFFFFFFFFFFFFFFFFFFFFFFFFFFFFFFFFFF MUL NOT AND SWAP1 DUP4 PUSH20 0xFFFFFFFFFFFFFFFFFFFFFFFFFFFFFFFFFFFFFFFF AND MUL OR SWAP1 SSTORE POP DUP3 PUSH1 0x2 DUP2 MLOAD DUP2 LT PUSH2 0x96A JUMPI PUSH2 0x969 PUSH2 0x1A33 JUMP JUMPDEST JUMPDEST PUSH1 0x20 MUL PUSH1 0x20 ADD ADD MLOAD PUSH1 0x0 SHR DUP2 PUSH1 0x3 ADD PUSH1 0x0 PUSH2 0x9B9 PUSH1 0x40 MLOAD DUP1 PUSH1 0x40 ADD PUSH1 0x40 MSTORE DUP1 PUSH1 0x5 DUP2 MSTORE PUSH1 0x20 ADD PUSH32 0x4550303031000000000000000000000000000000000000000000000000000000 DUP2 MSTORE POP PUSH2 0x137B JUMP JUMPDEST DUP2 MSTORE PUSH1 0x20 ADD SWAP1 DUP2 MSTORE PUSH1 0x20 ADD PUSH1 0x0 KECCAK256 DUP2 SWAP1 SSTORE POP DUP3 PUSH1 0x3 DUP2 MLOAD DUP2 LT PUSH2 0x9DF JUMPI PUSH2 0x9DE PUSH2 0x1A33 JUMP JUMPDEST JUMPDEST PUSH1 0x20 MUL PUSH1 0x20 ADD ADD MLOAD PUSH1 0x0 SHR DUP2 PUSH1 0x3 ADD PUSH1 0x0 PUSH2 0xA2E PUSH1 0x40 MLOAD DUP1 PUSH1 0x40 ADD PUSH1 0x40 MSTORE DUP1 PUSH1 0x5 DUP2 MSTORE PUSH1 0x20 ADD PUSH32 0x4550303032000000000000000000000000000000000000000000000000000000 DUP2 MSTORE POP PUSH2 0x137B JUMP JUMPDEST DUP2 MSTORE PUSH1 0x20 ADD SWAP1 DUP2 MSTORE PUSH1 0x20 ADD PUSH1 0x0 KECCAK256 DUP2 SWAP1 SSTORE POP DUP3 PUSH1 0x4 DUP2 MLOAD DUP2 LT PUSH2 0xA54 JUMPI PUSH2 0xA53 PUSH2 0x1A33 JUMP JUMPDEST JUMPDEST PUSH1 0x20 MUL PUSH1 0x20 ADD ADD MLOAD PUSH1 0x0 SHR DUP2 PUSH1 0x3 ADD PUSH1 0x0 PUSH2 0xAA3 PUSH1 0x40 MLOAD DUP1 PUSH1 0x40 ADD PUSH1 0x40 MSTORE DUP1 PUSH1 0x5 DUP2 MSTORE PUSH1 0x20 ADD PUSH32 0x4550303033000000000000000000000000000000000000000000000000000000 DUP2 MSTORE POP PUSH2 0x137B JUMP JUMPDEST DUP2 MSTORE PUSH1 0x20 ADD SWAP1 DUP2 MSTORE PUSH1 0x20 ADD PUSH1 0x0 KECCAK256 DUP2 SWAP1 SSTORE POP TIMESTAMP DUP2 PUSH1 0x3 ADD PUSH1 0x0 PUSH2 0xAFA PUSH1 0x40 MLOAD DUP1 PUSH1 0x40 ADD PUSH1 0x40 MSTORE DUP1 PUSH1 0xA DUP2 MSTORE PUSH1 0x20 ADD PUSH32 0x7472616E735F74696D6500000000000000000000000000000000000000000000 DUP2 MSTORE POP PUSH2 0x137B JUMP JUMPDEST DUP2 MSTORE PUSH1 0x20 ADD SWAP1 DUP2 MSTORE PUSH1 0x20 ADD PUSH1 0x0 KECCAK256 DUP2 SWAP1 SSTORE POP DUP3 PUSH1 0x5 DUP2 MLOAD DUP2 LT PUSH2 0xB20 JUMPI PUSH2 0xB1F PUSH2 0x1A33 JUMP JUMPDEST JUMPDEST PUSH1 0x20 MUL PUSH1 0x20 ADD ADD MLOAD PUSH1 0x0 SHR DUP2 PUSH1 0x3 ADD PUSH1 0x0 PUSH2 0xB6F PUSH1 0x40 MLOAD DUP1 PUSH1 0x40 ADD PUSH1 0x40 MSTORE DUP1 PUSH1 0x5 DUP2 MSTORE PUSH1 0x20 ADD PUSH32 0x4550303035000000000000000000000000000000000000000000000000000000 DUP2 MSTORE POP PUSH2 0x137B JUMP JUMPDEST DUP2 MSTORE PUSH1 0x20 ADD SWAP1 DUP2 MSTORE PUSH1 0x20 ADD PUSH1 0x0 KECCAK256 DUP2 SWAP1 SSTORE POP POP POP POP JUMP JUMPDEST PUSH1 0x8 DUP2 MLOAD EQ PUSH2 0xBCA JUMPI PUSH1 0x40 MLOAD PUSH32 0x8C379A000000000000000000000000000000000000000000000000000000000 DUP2 MSTORE PUSH1 0x4 ADD PUSH2 0xBC1 SWAP1 PUSH2 0x1D7E JUMP JUMPDEST PUSH1 0x40 MLOAD DUP1 SWAP2 SUB SWAP1 REVERT JUMPDEST PUSH1 0x0 DUP1 DUP1 SLOAD SWAP1 POP SWAP1 POP PUSH1 0x0 PUSH1 0x1 DUP2 PUSH1 0x1 DUP2 SLOAD ADD DUP1 DUP3 SSTORE DUP1 SWAP2 POP POP SUB SWAP1 PUSH1 0x0 MSTORE PUSH1 0x20 PUSH1 0x0 KECCAK256 SWAP1 POP POP PUSH1 0x0 DUP1 DUP3 DUP2 SLOAD DUP2 LT PUSH2 0xC06 JUMPI PUSH2 0xC05 PUSH2 0x1A33 JUMP JUMPDEST JUMPDEST SWAP1 PUSH1 0x0 MSTORE PUSH1 0x20 PUSH1 0x0 KECCAK256 SWAP1 PUSH1 0x4 MUL ADD SWAP1 POP DUP3 PUSH1 0x0 DUP2 MLOAD DUP2 LT PUSH2 0xC2A JUMPI PUSH2 0xC29 PUSH2 0x1A33 JUMP JUMPDEST JUMPDEST PUSH1 0x20 MUL PUSH1 0x20 ADD ADD MLOAD DUP2 PUSH1 0x0 ADD DUP2 SWAP1 SSTORE POP DUP3 PUSH1 0x1 DUP2 MLOAD DUP2 LT PUSH2 0xC4E JUMPI PUSH2 0xC4D PUSH2 0x1A33 JUMP JUMPDEST JUMPDEST PUSH1 0x20 MUL PUSH1 0x20 ADD ADD MLOAD DUP2 PUSH1 0x1 ADD DUP2 SWAP1 SSTORE POP CALLER DUP2 PUSH1 0x2 ADD PUSH1 0x0 PUSH2 0x100 EXP DUP2 SLOAD DUP2 PUSH20 0xFFFFFFFFFFFFFFFFFFFFFFFFFFFFFFFFFFFFFFFF MUL NOT AND SWAP1 DUP4 PUSH20 0xFFFFFFFFFFFFFFFFFFFFFFFFFFFFFFFFFFFFFFFF AND MUL OR SWAP1 SSTORE POP DUP3 PUSH1 0x2 DUP2 MLOAD DUP2 LT PUSH2 0xCB5 JUMPI PUSH2 0xCB4 PUSH2 0x1A33 JUMP JUMPDEST JUMPDEST PUSH1 0x20 MUL PUSH1 0x20 ADD ADD MLOAD PUSH1 0x0 SHR DUP2 PUSH1 0x3 ADD PUSH1 0x0 PUSH2 0xD04 PUSH1 0x40 MLOAD DUP1 PUSH1 0x40 ADD PUSH1 0x40 MSTORE DUP1 PUSH1 0x5 DUP2 MSTORE PUSH1 0x20 ADD PUSH32 0x4550303031000000000000000000000000000000000000000000000000000000 DUP2 MSTORE POP PUSH2 0x137B JUMP JUMPDEST DUP2 MSTORE PUSH1 0x20 ADD SWAP1 DUP2 MSTORE PUSH1 0x20 ADD PUSH1 0x0 KECCAK256 DUP2 SWAP1 SSTORE POP DUP3 PUSH1 0x3 DUP2 MLOAD DUP2 LT PUSH2 0xD2A JUMPI PUSH2 0xD29 PUSH2 0x1A33 JUMP JUMPDEST JUMPDEST PUSH1 0x20 MUL PUSH1 0x20 ADD ADD MLOAD PUSH1 0x0 SHR DUP2 PUSH1 0x3 ADD PUSH1 0x0 PUSH2 0xD79 PUSH1 0x40 MLOAD DUP1 PUSH1 0x40 ADD PUSH1 0x40 MSTORE DUP1 PUSH1 0x5 DUP2 MSTORE PUSH1 0x20 ADD PUSH32 0x4550303032000000000000000000000000000000000000000000000000000000 DUP2 MSTORE POP PUSH2 0x137B JUMP JUMPDEST DUP2 MSTORE PUSH1 0x20 ADD SWAP1 DUP2 MSTORE PUSH1 0x20 ADD PUSH1 0x0 KECCAK256 DUP2 SWAP1 SSTORE POP DUP3 PUSH1 0x4 DUP2 MLOAD DUP2 LT PUSH2 0xD9F JUMPI PUSH2 0xD9E PUSH2 0x1A33 JUMP JUMPDEST JUMPDEST PUSH1 0x20 MUL PUSH1 0x20 ADD ADD MLOAD PUSH1 0x0 SHR DUP2 PUSH1 0x3 ADD PUSH1 0x0 PUSH2 0xDEE PUSH1 0x40 MLOAD DUP1 PUSH1 0x40 ADD PUSH1 0x40 MSTORE DUP1 PUSH1 0x5 DUP2 MSTORE PUSH1 0x20 ADD PUSH32 0x4550303033000000000000000000000000000000000000000000000000000000 DUP2 MSTORE POP PUSH2 0x137B JUMP JUMPDEST DUP2 MSTORE PUSH1 0x20 ADD SWAP1 DUP2 MSTORE PUSH1 0x20 ADD PUSH1 0x0 KECCAK256 DUP2 SWAP1 SSTORE POP DUP3 PUSH1 0x5 DUP2 MLOAD DUP2 LT PUSH2 0xE14 JUMPI PUSH2 0xE13 PUSH2 0x1A33 JUMP JUMPDEST JUMPDEST PUSH1 0x20 MUL PUSH1 0x20 ADD ADD MLOAD PUSH1 0x0 SHR DUP2 PUSH1 0x3 ADD PUSH1 0x0 PUSH2 0xE63 PUSH1 0x40 MLOAD DUP1 PUSH1 0x40 ADD PUSH1 0x40 MSTORE DUP1 PUSH1 0x5 DUP2 MSTORE PUSH1 0x20 ADD PUSH32 0x4550303034000000000000000000000000000000000000000000000000000000 DUP2 MSTORE POP PUSH2 0x137B JUMP JUMPDEST DUP2 MSTORE PUSH1 0x20 ADD SWAP1 DUP2 MSTORE PUSH1 0x20 ADD PUSH1 0x0 KECCAK256 DUP2 SWAP1 SSTORE POP TIMESTAMP DUP2 PUSH1 0x3 ADD PUSH1 0x0 PUSH2 0xEBA PUSH1 0x40 MLOAD DUP1 PUSH1 0x40 ADD PUSH1 0x40 MSTORE DUP1 PUSH1 0xA DUP2 MSTORE PUSH1 0x20 ADD PUSH32 0x7472616E735F74696D6500000000000000000000000000000000000000000000 DUP2 MSTORE POP PUSH2 0x137B JUMP JUMPDEST DUP2 MSTORE PUSH1 0x20 ADD SWAP1 DUP2 MSTORE PUSH1 0x20 ADD PUSH1 0x0 KECCAK256 DUP2 SWAP1 SSTORE POP DUP3 PUSH1 0x6 DUP2 MLOAD DUP2 LT PUSH2 0xEE0 JUMPI PUSH2 0xEDF PUSH2 0x1A33 JUMP JUMPDEST JUMPDEST PUSH1 0x20 MUL PUSH1 0x20 ADD ADD MLOAD PUSH1 0x0 SHR DUP2 PUSH1 0x3 ADD PUSH1 0x0 PUSH2 0xF2F PUSH1 0x40 MLOAD DUP1 PUSH1 0x40 ADD PUSH1 0x40 MSTORE DUP1 PUSH1 0x5 DUP2 MSTORE PUSH1 0x20 ADD PUSH32 0x4550303036000000000000000000000000000000000000000000000000000000 DUP2 MSTORE POP PUSH2 0x137B JUMP JUMPDEST DUP2 MSTORE PUSH1 0x20 ADD SWAP1 DUP2 MSTORE PUSH1 0x20 ADD PUSH1 0x0 KECCAK256 DUP2 SWAP1 SSTORE POP DUP3 PUSH1 0x7 DUP2 MLOAD DUP2 LT PUSH2 0xF55 JUMPI PUSH2 0xF54 PUSH2 0x1A33 JUMP JUMPDEST JUMPDEST PUSH1 0x20 MUL PUSH1 0x20 ADD ADD MLOAD PUSH1 0x0 SHR DUP2 PUSH1 0x3 ADD PUSH1 0x0 PUSH2 0xFA4 PUSH1 0x40 MLOAD DUP1 PUSH1 0x40 ADD PUSH1 0x40 MSTORE DUP1 PUSH1 0x5 DUP2 MSTORE PUSH1 0x20 ADD PUSH32 0x4550303037000000000000000000000000000000000000000000000000000000 DUP2 MSTORE POP PUSH2 0x137B JUMP JUMPDEST DUP2 MSTORE PUSH1 0x20 ADD SWAP1 DUP2 MSTORE PUSH1 0x20 ADD PUSH1 0x0 KECCAK256 DUP2 SWAP1 SSTORE POP POP POP POP JUMP JUMPDEST PUSH1 0x7 DUP2 MLOAD EQ PUSH2 0xFFF JUMPI PUSH1 0x40 MLOAD PUSH32 0x8C379A000000000000000000000000000000000000000000000000000000000 DUP2 MSTORE PUSH1 0x4 ADD PUSH2 0xFF6 SWAP1 PUSH2 0x1E10 JUMP JUMPDEST PUSH1 0x40 MLOAD DUP1 SWAP2 SUB SWAP1 REVERT JUMPDEST PUSH1 0x0 DUP1 DUP1 SLOAD SWAP1 POP SWAP1 POP PUSH1 0x0 PUSH1 0x1 DUP2 PUSH1 0x1 DUP2 SLOAD ADD DUP1 DUP3 SSTORE DUP1 SWAP2 POP POP SUB SWAP1 PUSH1 0x0 MSTORE PUSH1 0x20 PUSH1 0x0 KECCAK256 SWAP1 POP POP PUSH1 0x0 DUP1 DUP3 DUP2 SLOAD DUP2 LT PUSH2 0x103B JUMPI PUSH2 0x103A PUSH2 0x1A33 JUMP JUMPDEST JUMPDEST SWAP1 PUSH1 0x0 MSTORE PUSH1 0x20 PUSH1 0x0 KECCAK256 SWAP1 PUSH1 0x4 MUL ADD SWAP1 POP DUP3 PUSH1 0x0 DUP2 MLOAD DUP2 LT PUSH2 0x105F JUMPI PUSH2 0x105E PUSH2 0x1A33 JUMP JUMPDEST JUMPDEST PUSH1 0x20 MUL PUSH1 0x20 ADD ADD MLOAD DUP2 PUSH1 0x0 ADD DUP2 SWAP1 SSTORE POP DUP3 PUSH1 0x1 DUP2 MLOAD DUP2 LT PUSH2 0x1083 JUMPI PUSH2 0x1082 PUSH2 0x1A33 JUMP JUMPDEST JUMPDEST PUSH1 0x20 MUL PUSH1 0x20 ADD ADD MLOAD DUP2 PUSH1 0x1 ADD DUP2 SWAP1 SSTORE POP CALLER DUP2 PUSH1 0x2 ADD PUSH1 0x0 PUSH2 0x100 EXP DUP2 SLOAD DUP2 PUSH20 0xFFFFFFFFFFFFFFFFFFFFFFFFFFFFFFFFFFFFFFFF MUL NOT AND SWAP1 DUP4 PUSH20 0xFFFFFFFFFFFFFFFFFFFFFFFFFFFFFFFFFFFFFFFF AND MUL OR SWAP1 SSTORE POP DUP3 PUSH1 0x2 DUP2 MLOAD DUP2 LT PUSH2 0x10EA JUMPI PUSH2 0x10E9 PUSH2 0x1A33 JUMP JUMPDEST JUMPDEST PUSH1 0x20 MUL PUSH1 0x20 ADD ADD MLOAD PUSH1 0x0 SHR DUP2 PUSH1 0x3 ADD PUSH1 0x0 PUSH2 0x1139 PUSH1 0x40 MLOAD DUP1 PUSH1 0x40 ADD PUSH1 0x40 MSTORE DUP1 PUSH1 0x5 DUP2 MSTORE PUSH1 0x20 ADD PUSH32 0x4550303031000000000000000000000000000000000000000000000000000000 DUP2 MSTORE POP PUSH2 0x137B JUMP JUMPDEST DUP2 MSTORE PUSH1 0x20 ADD SWAP1 DUP2 MSTORE PUSH1 0x20 ADD PUSH1 0x0 KECCAK256 DUP2 SWAP1 SSTORE POP DUP3 PUSH1 0x3 DUP2 MLOAD DUP2 LT PUSH2 0x115F JUMPI PUSH2 0x115E PUSH2 0x1A33 JUMP JUMPDEST JUMPDEST PUSH1 0x20 MUL PUSH1 0x20 ADD ADD MLOAD PUSH1 0x0 SHR DUP2 PUSH1 0x3 ADD PUSH1 0x0 PUSH2 0x11AE PUSH1 0x40 MLOAD DUP1 PUSH1 0x40 ADD PUSH1 0x40 MSTORE DUP1 PUSH1 0x5 DUP2 MSTORE PUSH1 0x20 ADD PUSH32 0x4550303032000000000000000000000000000000000000000000000000000000 DUP2 MSTORE POP PUSH2 0x137B JUMP JUMPDEST DUP2 MSTORE PUSH1 0x20 ADD SWAP1 DUP2 MSTORE PUSH1 0x20 ADD PUSH1 0x0 KECCAK256 DUP2 SWAP1 SSTORE POP DUP3 PUSH1 0x4 DUP2 MLOAD DUP2 LT PUSH2 0x11D4 JUMPI PUSH2 0x11D3 PUSH2 0x1A33 JUMP JUMPDEST JUMPDEST PUSH1 0x20 MUL PUSH1 0x20 ADD ADD MLOAD PUSH1 0x0 SHR DUP2 PUSH1 0x3 ADD PUSH1 0x0 PUSH2 0x1223 PUSH1 0x40 MLOAD DUP1 PUSH1 0x40 ADD PUSH1 0x40 MSTORE DUP1 PUSH1 0x5 DUP2 MSTORE PUSH1 0x20 ADD PUSH32 0x4550303033000000000000000000000000000000000000000000000000000000 DUP2 MSTORE POP PUSH2 0x137B JUMP JUMPDEST DUP2 MSTORE PUSH1 0x20 ADD SWAP1 DUP2 MSTORE PUSH1 0x20 ADD PUSH1 0x0 KECCAK256 DUP2 SWAP1 SSTORE POP DUP3 PUSH1 0x5 DUP2 MLOAD DUP2 LT PUSH2 0x1249 JUMPI PUSH2 0x1248 PUSH2 0x1A33 JUMP JUMPDEST JUMPDEST PUSH1 0x20 MUL PUSH1 0x20 ADD ADD MLOAD PUSH1 0x0 SHR DUP2 PUSH1 0x3 ADD PUSH1 0x0 PUSH2 0x1298 PUSH1 0x40 MLOAD DUP1 PUSH1 0x40 ADD PUSH1 0x40 MSTORE DUP1 PUSH1 0x5 DUP2 MSTORE PUSH1 0x20 ADD PUSH32 0x4550303034000000000000000000000000000000000000000000000000000000 DUP2 MSTORE POP PUSH2 0x137B JUMP JUMPDEST DUP2 MSTORE PUSH1 0x20 ADD SWAP1 DUP2 MSTORE PUSH1 0x20 ADD PUSH1 0x0 KECCAK256 DUP2 SWAP1 SSTORE POP TIMESTAMP DUP2 PUSH1 0x3 ADD PUSH1 0x0 PUSH2 0x12EF PUSH1 0x40 MLOAD DUP1 PUSH1 0x40 ADD PUSH1 0x40 MSTORE DUP1 PUSH1 0xA DUP2 MSTORE PUSH1 0x20 ADD PUSH32 0x7472616E735F74696D6500000000000000000000000000000000000000000000 DUP2 MSTORE POP PUSH2 0x137B JUMP JUMPDEST DUP2 MSTORE PUSH1 0x20 ADD SWAP1 DUP2 MSTORE PUSH1 0x20 ADD PUSH1 0x0 KECCAK256 DUP2 SWAP1 SSTORE POP DUP3 PUSH1 0x6 DUP2 MLOAD DUP2 LT PUSH2 0x1315 JUMPI PUSH2 0x1314 PUSH2 0x1A33 JUMP JUMPDEST JUMPDEST PUSH1 0x20 MUL PUSH1 0x20 ADD ADD MLOAD PUSH1 0x0 SHR DUP2 PUSH1 0x3 ADD PUSH1 0x0 PUSH2 0x1364 PUSH1 0x40 MLOAD DUP1 PUSH1 0x40 ADD PUSH1 0x40 MSTORE DUP1 PUSH1 0x5 DUP2 MSTORE PUSH1 0x20 ADD PUSH32 0x4550303036000000000000000000000000000000000000000000000000000000 DUP2 MSTORE POP PUSH2 0x137B JUMP JUMPDEST DUP2 MSTORE PUSH1 0x20 ADD SWAP1 DUP2 MSTORE PUSH1 0x20 ADD PUSH1 0x0 KECCAK256 DUP2 SWAP1 SSTORE POP POP POP POP JUMP JUMPDEST PUSH1 0x0 DUP1 DUP3 SWAP1 POP PUSH1 0x0 DUP2 MLOAD SUB PUSH2 0x1396 JUMPI PUSH1 0x0 DUP1 SHL SWAP2 POP POP PUSH2 0x139F JUMP JUMPDEST PUSH1 0x20 DUP4 ADD MLOAD SWAP2 POP POP JUMPDEST SWAP2 SWAP1 POP JUMP JUMPDEST PUSH1 0x0 DUP2 PUSH1 0x0 SHL SWAP1 POP SWAP2 SWAP1 POP JUMP JUMPDEST PUSH1 0x0 PUSH1 0x40 MLOAD SWAP1 POP SWAP1 JUMP JUMPDEST PUSH1 0x0 DUP1 REVERT JUMPDEST PUSH1 0x0 DUP1 REVERT JUMPDEST PUSH1 0x0 DUP2 SWAP1 POP SWAP2 SWAP1 POP JUMP JUMPDEST PUSH2 0x13D8 DUP2 PUSH2 0x13C5 JUMP JUMPDEST DUP2 EQ PUSH2 0x13E3 JUMPI PUSH1 0x0 DUP1 REVERT JUMPDEST POP JUMP JUMPDEST PUSH1 0x0 DUP2 CALLDATALOAD SWAP1 POP PUSH2 0x13F5 DUP2 PUSH2 0x13CF JUMP JUMPDEST SWAP3 SWAP2 POP POP JUMP JUMPDEST PUSH1 0x0 DUP2 SWAP1 POP SWAP2 SWAP1 POP JUMP JUMPDEST PUSH2 0x140E DUP2 PUSH2 0x13FB JUMP JUMPDEST DUP2 EQ PUSH2 0x1419 JUMPI PUSH1 0x0 DUP1 REVERT JUMPDEST POP JUMP JUMPDEST PUSH1 0x0 DUP2 CALLDATALOAD SWAP1 POP PUSH2 0x142B DUP2 PUSH2 0x1405 JUMP JUMPDEST SWAP3 SWAP2 POP POP JUMP JUMPDEST PUSH1 0x0 DUP1 PUSH1 0x40 DUP4 DUP6 SUB SLT ISZERO PUSH2 0x1448 JUMPI PUSH2 0x1447 PUSH2 0x13BB JUMP JUMPDEST JUMPDEST PUSH1 0x0 PUSH2 0x1456 DUP6 DUP3 DUP7 ADD PUSH2 0x13E6 JUMP JUMPDEST SWAP3 POP POP PUSH1 0x20 PUSH2 0x1467 DUP6 DUP3 DUP7 ADD PUSH2 0x141C JUMP JUMPDEST SWAP2 POP POP SWAP3 POP SWAP3 SWAP1 POP JUMP JUMPDEST PUSH1 0x0 DUP2 SWAP1 POP SWAP2 SWAP1 POP JUMP JUMPDEST PUSH2 0x1484 DUP2 PUSH2 0x1471 JUMP JUMPDEST DUP3 MSTORE POP POP JUMP JUMPDEST PUSH1 0x0 PUSH1 0x20 DUP3 ADD SWAP1 POP PUSH2 0x149F PUSH1 0x0 DUP4 ADD DUP5 PUSH2 0x147B JUMP JUMPDEST SWAP3 SWAP2 POP POP JUMP JUMPDEST PUSH1 0x0 DUP1 PUSH1 0x40 DUP4 DUP6 SUB SLT ISZERO PUSH2 0x14BC JUMPI PUSH2 0x14BB PUSH2 0x13BB JUMP JUMPDEST JUMPDEST PUSH1 0x0 PUSH2 0x14CA DUP6 DUP3 DUP7 ADD PUSH2 0x141C JUMP JUMPDEST SWAP3 POP POP PUSH1 0x20 PUSH2 0x14DB DUP6 DUP3 DUP7 ADD PUSH2 0x141C JUMP JUMPDEST SWAP2 POP POP SWAP3 POP SWAP3 SWAP1 POP JUMP JUMPDEST PUSH1 0x0 PUSH1 0x20 DUP3 DUP5 SUB SLT ISZERO PUSH2 0x14FB JUMPI PUSH2 0x14FA PUSH2 0x13BB JUMP JUMPDEST JUMPDEST PUSH1 0x0 PUSH2 0x1509 DUP5 DUP3 DUP6 ADD PUSH2 0x141C JUMP JUMPDEST SWAP2 POP POP SWAP3 SWAP2 POP POP JUMP JUMPDEST PUSH2 0x151B DUP2 PUSH2 0x13FB JUMP JUMPDEST DUP3 MSTORE POP POP JUMP JUMPDEST PUSH1 0x0 PUSH20 0xFFFFFFFFFFFFFFFFFFFFFFFFFFFFFFFFFFFFFFFF DUP3 AND SWAP1 POP SWAP2 SWAP1 POP JUMP JUMPDEST PUSH1 0x0 PUSH2 0x154C DUP3 PUSH2 0x1521 JUMP JUMPDEST SWAP1 POP SWAP2 SWAP1 POP JUMP JUMPDEST PUSH2 0x155C DUP2 PUSH2 0x1541 JUMP JUMPDEST DUP3 MSTORE POP POP JUMP JUMPDEST PUSH1 0x0 PUSH1 0x60 DUP3 ADD SWAP1 POP PUSH2 0x1577 PUSH1 0x0 DUP4 ADD DUP7 PUSH2 0x1512 JUMP JUMPDEST PUSH2 0x1584 PUSH1 0x20 DUP4 ADD DUP6 PUSH2 0x1512 JUMP JUMPDEST PUSH2 0x1591 PUSH1 0x40 DUP4 ADD DUP5 PUSH2 0x1553 JUMP JUMPDEST SWAP5 SWAP4 POP POP POP POP JUMP JUMPDEST PUSH2 0x15A2 DUP2 PUSH2 0x13C5 JUMP JUMPDEST DUP3 MSTORE POP POP JUMP JUMPDEST PUSH1 0x0 PUSH1 0x20 DUP3 ADD SWAP1 POP PUSH2 0x15BD PUSH1 0x0 DUP4 ADD DUP5 PUSH2 0x1599 JUMP JUMPDEST SWAP3 SWAP2 POP POP JUMP JUMPDEST PUSH1 0x0 PUSH1 0x20 DUP3 DUP5 SUB SLT ISZERO PUSH2 0x15D9 JUMPI PUSH2 0x15D8 PUSH2 0x13BB JUMP JUMPDEST JUMPDEST PUSH1 0x0 PUSH2 0x15E7 DUP5 DUP3 DUP6 ADD PUSH2 0x13E6 JUMP JUMPDEST SWAP2 POP POP SWAP3 SWAP2 POP POP JUMP JUMPDEST PUSH1 0x0 PUSH1 0x20 DUP3 ADD SWAP1 POP PUSH2 0x1605 PUSH1 0x0 DUP4 ADD DUP5 PUSH2 0x1512 JUMP JUMPDEST SWAP3 SWAP2 POP POP JUMP JUMPDEST PUSH1 0x0 DUP1 REVERT JUMPDEST PUSH1 0x0 PUSH1 0x1F NOT PUSH1 0x1F DUP4 ADD AND SWAP1 POP SWAP2 SWAP1 POP JUMP JUMPDEST PUSH32 0x4E487B7100000000000000000000000000000000000000000000000000000000 PUSH1 0x0 MSTORE PUSH1 0x41 PUSH1 0x4 MSTORE PUSH1 0x24 PUSH1 0x0 REVERT JUMPDEST PUSH2 0x1659 DUP3 PUSH2 0x1610 JUMP JUMPDEST DUP2 ADD DUP2 DUP2 LT PUSH8 0xFFFFFFFFFFFFFFFF DUP3 GT OR ISZERO PUSH2 0x1678 JUMPI PUSH2 0x1677 PUSH2 0x1621 JUMP JUMPDEST JUMPDEST DUP1 PUSH1 0x40 MSTORE POP POP POP JUMP JUMPDEST PUSH1 0x0 PUSH2 0x168B PUSH2 0x13B1 JUMP JUMPDEST SWAP1 POP PUSH2 0x1697 DUP3 DUP3 PUSH2 0x1650 JUMP JUMPDEST SWAP2 SWAP1 POP JUMP JUMPDEST PUSH1 0x0 PUSH8 0xFFFFFFFFFFFFFFFF DUP3 GT ISZERO PUSH2 0x16B7 JUMPI PUSH2 0x16B6 PUSH2 0x1621 JUMP JUMPDEST JUMPDEST PUSH1 0x20 DUP3 MUL SWAP1 POP PUSH1 0x20 DUP2 ADD SWAP1 POP SWAP2 SWAP1 POP JUMP JUMPDEST PUSH1 0x0 DUP1 REVERT JUMPDEST PUSH1 0x0 PUSH2 0x16E0 PUSH2 0x16DB DUP5 PUSH2 0x169C JUMP JUMPDEST PUSH2 0x1681 JUMP JUMPDEST SWAP1 POP DUP1 DUP4 DUP3 MSTORE PUSH1 0x20 DUP3 ADD SWAP1 POP PUSH1 0x20 DUP5 MUL DUP4 ADD DUP6 DUP2 GT ISZERO PUSH2 0x1703 JUMPI PUSH2 0x1702 PUSH2 0x16C8 JUMP JUMPDEST JUMPDEST DUP4 JUMPDEST DUP2 DUP2 LT ISZERO PUSH2 0x172C JUMPI DUP1 PUSH2 0x1718 DUP9 DUP3 PUSH2 0x141C JUMP JUMPDEST DUP5 MSTORE PUSH1 0x20 DUP5 ADD SWAP4 POP POP PUSH1 0x20 DUP2 ADD SWAP1 POP PUSH2 0x1705 JUMP JUMPDEST POP POP POP SWAP4 SWAP3 POP POP POP JUMP JUMPDEST PUSH1 0x0 DUP3 PUSH1 0x1F DUP4 ADD SLT PUSH2 0x174B JUMPI PUSH2 0x174A PUSH2 0x160B JUMP JUMPDEST JUMPDEST DUP2 CALLDATALOAD PUSH2 0x175B DUP5 DUP3 PUSH1 0x20 DUP7 ADD PUSH2 0x16CD JUMP JUMPDEST SWAP2 POP POP SWAP3 SWAP2 POP POP JUMP JUMPDEST PUSH1 0x0 PUSH1 0x20 DUP3 DUP5 SUB SLT ISZERO PUSH2 0x177A JUMPI PUSH2 0x1779 PUSH2 0x13BB JUMP JUMPDEST JUMPDEST PUSH1 0x0 DUP3 ADD CALLDATALOAD PUSH8 0xFFFFFFFFFFFFFFFF DUP2 GT ISZERO PUSH2 0x1798 JUMPI PUSH2 0x1797 PUSH2 0x13C0 JUMP JUMPDEST JUMPDEST PUSH2 0x17A4 DUP5 DUP3 DUP6 ADD PUSH2 0x1736 JUMP JUMPDEST SWAP2 POP POP SWAP3 SWAP2 POP POP JUMP JUMPDEST PUSH1 0x0 DUP1 REVERT JUMPDEST PUSH1 0x0 PUSH8 0xFFFFFFFFFFFFFFFF DUP3 GT ISZERO PUSH2 0x17CD JUMPI PUSH2 0x17CC PUSH2 0x1621 JUMP JUMPDEST JUMPDEST PUSH2 0x17D6 DUP3 PUSH2 0x1610 JUMP JUMPDEST SWAP1 POP PUSH1 0x20 DUP2 ADD SWAP1 POP SWAP2 SWAP1 POP JUMP JUMPDEST DUP3 DUP2 DUP4 CALLDATACOPY PUSH1 0x0 DUP4 DUP4 ADD MSTORE POP POP POP JUMP JUMPDEST PUSH1 0x0 PUSH2 0x1805 PUSH2 0x1800 DUP5 PUSH2 0x17B2 JUMP JUMPDEST PUSH2 0x1681 JUMP JUMPDEST SWAP1 POP DUP3 DUP2 MSTORE PUSH1 0x20 DUP2 ADD DUP5 DUP5 DUP5 ADD GT ISZERO PUSH2 0x1821 JUMPI PUSH2 0x1820 PUSH2 0x17AD JUMP JUMPDEST JUMPDEST PUSH2 0x182C DUP5 DUP3 DUP6 PUSH2 0x17E3 JUMP JUMPDEST POP SWAP4 SWAP3 POP POP POP JUMP JUMPDEST PUSH1 0x0 DUP3 PUSH1 0x1F DUP4 ADD SLT PUSH2 0x1849 JUMPI PUSH2 0x1848 PUSH2 0x160B JUMP JUMPDEST JUMPDEST DUP2 CALLDATALOAD PUSH2 0x1859 DUP5 DUP3 PUSH1 0x20 DUP7 ADD PUSH2 0x17F2 JUMP JUMPDEST SWAP2 POP POP SWAP3 SWAP2 POP POP JUMP JUMPDEST PUSH2 0x186B DUP2 PUSH2 0x1471 JUMP JUMPDEST DUP2 EQ PUSH2 0x1876 JUMPI PUSH1 0x0 DUP1 REVERT JUMPDEST POP JUMP JUMPDEST PUSH1 0x0 DUP2 CALLDATALOAD SWAP1 POP PUSH2 0x1888 DUP2 PUSH2 0x1862 JUMP JUMPDEST SWAP3 SWAP2 POP POP JUMP JUMPDEST PUSH1 0x0 DUP1 PUSH1 0x0 DUP1 PUSH1 0x0 DUP1 PUSH1 0xC0 DUP8 DUP10 SUB SLT ISZERO PUSH2 0x18AB JUMPI PUSH2 0x18AA PUSH2 0x13BB JUMP JUMPDEST JUMPDEST PUSH1 0x0 DUP8 ADD CALLDATALOAD PUSH8 0xFFFFFFFFFFFFFFFF DUP2 GT ISZERO PUSH2 0x18C9 JUMPI PUSH2 0x18C8 PUSH2 0x13C0 JUMP JUMPDEST JUMPDEST PUSH2 0x18D5 DUP10 DUP3 DUP11 ADD PUSH2 0x1834 JUMP JUMPDEST SWAP7 POP POP PUSH1 0x20 DUP8 ADD CALLDATALOAD PUSH8 0xFFFFFFFFFFFFFFFF DUP2 GT ISZERO PUSH2 0x18F6 JUMPI PUSH2 0x18F5 PUSH2 0x13C0 JUMP JUMPDEST JUMPDEST PUSH2 0x1902 DUP10 DUP3 DUP11 ADD PUSH2 0x1834 JUMP JUMPDEST SWAP6 POP POP PUSH1 0x40 PUSH2 0x1913 DUP10 DUP3 DUP11 ADD PUSH2 0x1879 JUMP JUMPDEST SWAP5 POP POP PUSH1 0x60 PUSH2 0x1924 DUP10 DUP3 DUP11 ADD PUSH2 0x1879 JUMP JUMPDEST SWAP4 POP POP PUSH1 0x80 PUSH2 0x1935 DUP10 DUP3 DUP11 ADD PUSH2 0x1879 JUMP JUMPDEST SWAP3 POP POP PUSH1 0xA0 PUSH2 0x1946 DUP10 DUP3 DUP11 ADD PUSH2 0x1879 JUMP JUMPDEST SWAP2 POP POP SWAP3 SWAP6 POP SWAP3 SWAP6 POP SWAP3 SWAP6 JUMP JUMPDEST PUSH1 0x0 DUP2 MLOAD SWAP1 POP SWAP2 SWAP1 POP JUMP JUMPDEST PUSH1 0x0 DUP3 DUP3 MSTORE PUSH1 0x20 DUP3 ADD SWAP1 POP SWAP3 SWAP2 POP POP JUMP JUMPDEST PUSH1 0x0 DUP2 SWAP1 POP PUSH1 0x20 DUP3 ADD SWAP1 POP SWAP2 SWAP1 POP JUMP JUMPDEST PUSH2 0x1988 DUP2 PUSH2 0x13FB JUMP JUMPDEST DUP3 MSTORE POP POP JUMP JUMPDEST PUSH1 0x0 PUSH2 0x199A DUP4 DUP4 PUSH2 0x197F JUMP JUMPDEST PUSH1 0x20 DUP4 ADD SWAP1 POP SWAP3 SWAP2 POP POP JUMP JUMPDEST PUSH1 0x0 PUSH1 0x20 DUP3 ADD SWAP1 POP SWAP2 SWAP1 POP JUMP JUMPDEST PUSH1 0x0 PUSH2 0x19BE DUP3 PUSH2 0x1953 JUMP JUMPDEST PUSH2 0x19C8 DUP2 DUP6 PUSH2 0x195E JUMP JUMPDEST SWAP4 POP PUSH2 0x19D3 DUP4 PUSH2 0x196F JUMP JUMPDEST DUP1 PUSH1 0x0 JUMPDEST DUP4 DUP2 LT ISZERO PUSH2 0x1A04 JUMPI DUP2 MLOAD PUSH2 0x19EB DUP9 DUP3 PUSH2 0x198E JUMP JUMPDEST SWAP8 POP PUSH2 0x19F6 DUP4 PUSH2 0x19A6 JUMP JUMPDEST SWAP3 POP POP PUSH1 0x1 DUP2 ADD SWAP1 POP PUSH2 0x19D7 JUMP JUMPDEST POP DUP6 SWAP4 POP POP POP POP SWAP3 SWAP2 POP POP JUMP JUMPDEST PUSH1 0x0 PUSH1 0x20 DUP3 ADD SWAP1 POP DUP2 DUP2 SUB PUSH1 0x0 DUP4 ADD MSTORE PUSH2 0x1A2B DUP2 DUP5 PUSH2 0x19B3 JUMP JUMPDEST SWAP1 POP SWAP3 SWAP2 POP POP JUMP JUMPDEST PUSH32 0x4E487B7100000000000000000000000000000000000000000000000000000000 PUSH1 0x0 MSTORE PUSH1 0x32 PUSH1 0x4 MSTORE PUSH1 0x24 PUSH1 0x0 REVERT JUMPDEST PUSH1 0x0 DUP3 DUP3 MSTORE PUSH1 0x20 DUP3 ADD SWAP1 POP SWAP3 SWAP2 POP POP JUMP JUMPDEST PUSH32 0x44617461206D7573742068617665206174206C6561737420746872656520656C PUSH1 0x0 DUP3 ADD MSTORE PUSH32 0x656D656E74730000000000000000000000000000000000000000000000000000 PUSH1 0x20 DUP3 ADD MSTORE POP JUMP JUMPDEST PUSH1 0x0 PUSH2 0x1ACF PUSH1 0x26 DUP4 PUSH2 0x1A62 JUMP JUMPDEST SWAP2 POP PUSH2 0x1ADA DUP3 PUSH2 0x1A73 JUMP JUMPDEST PUSH1 0x40 DUP3 ADD SWAP1 POP SWAP2 SWAP1 POP JUMP JUMPDEST PUSH1 0x0 PUSH1 0x20 DUP3 ADD SWAP1 POP DUP2 DUP2 SUB PUSH1 0x0 DUP4 ADD MSTORE PUSH2 0x1AFE DUP2 PUSH2 0x1AC2 JUMP JUMPDEST SWAP1 POP SWAP2 SWAP1 POP JUMP JUMPDEST PUSH32 0x556E737570706F72746564207472616E73616374696F6E207479706500000000 PUSH1 0x0 DUP3 ADD MSTORE POP JUMP JUMPDEST PUSH1 0x0 PUSH2 0x1B3B PUSH1 0x1C DUP4 PUSH2 0x1A62 JUMP JUMPDEST SWAP2 POP PUSH2 0x1B46 DUP3 PUSH2 0x1B05 JUMP JUMPDEST PUSH1 0x20 DUP3 ADD SWAP1 POP SWAP2 SWAP1 POP JUMP JUMPDEST PUSH1 0x0 PUSH1 0x20 DUP3 ADD SWAP1 POP DUP2 DUP2 SUB PUSH1 0x0 DUP4 ADD MSTORE PUSH2 0x1B6A DUP2 PUSH2 0x1B2E JUMP JUMPDEST SWAP1 POP SWAP2 SWAP1 POP JUMP JUMPDEST PUSH32 0x4E487B7100000000000000000000000000000000000000000000000000000000 PUSH1 0x0 MSTORE PUSH1 0x11 PUSH1 0x4 MSTORE PUSH1 0x24 PUSH1 0x0 REVERT JUMPDEST PUSH1 0x0 PUSH2 0x1BAB DUP3 PUSH2 0x13C5 JUMP JUMPDEST SWAP2 POP PUSH32 0xFFFFFFFFFFFFFFFFFFFFFFFFFFFFFFFFFFFFFFFFFFFFFFFFFFFFFFFFFFFFFFFF DUP3 SUB PUSH2 0x1BDD JUMPI PUSH2 0x1BDC PUSH2 0x1B71 JUMP JUMPDEST JUMPDEST PUSH1 0x1 DUP3 ADD SWAP1 POP SWAP2 SWAP1 POP JUMP JUMPDEST PUSH32 0x5472616E73616374696F6E207769746820676976656E206576656E744964206E PUSH1 0x0 DUP3 ADD MSTORE PUSH32 0x6F7420666F756E64000000000000000000000000000000000000000000000000 PUSH1 0x20 DUP3 ADD MSTORE POP JUMP JUMPDEST PUSH1 0x0 PUSH2 0x1C44 PUSH1 0x28 DUP4 PUSH2 0x1A62 JUMP JUMPDEST SWAP2 POP PUSH2 0x1C4F DUP3 PUSH2 0x1BE8 JUMP JUMPDEST PUSH1 0x40 DUP3 ADD SWAP1 POP SWAP2 SWAP1 POP JUMP JUMPDEST PUSH1 0x0 PUSH1 0x20 DUP3 ADD SWAP1 POP DUP2 DUP2 SUB PUSH1 0x0 DUP4 ADD MSTORE PUSH2 0x1C73 DUP2 PUSH2 0x1C37 JUMP JUMPDEST SWAP1 POP SWAP2 SWAP1 POP JUMP JUMPDEST PUSH32 0x44617461206C656E67746820666F7220453030303130303031206D7573742062 PUSH1 0x0 DUP3 ADD MSTORE PUSH32 0x6520360000000000000000000000000000000000000000000000000000000000 PUSH1 0x20 DUP3 ADD MSTORE POP JUMP JUMPDEST PUSH1 0x0 PUSH2 0x1CD6 PUSH1 0x23 DUP4 PUSH2 0x1A62 JUMP JUMPDEST SWAP2 POP PUSH2 0x1CE1 DUP3 PUSH2 0x1C7A JUMP JUMPDEST PUSH1 0x40 DUP3 ADD SWAP1 POP SWAP2 SWAP1 POP JUMP JUMPDEST PUSH1 0x0 PUSH1 0x20 DUP3 ADD SWAP1 POP DUP2 DUP2 SUB PUSH1 0x0 DUP4 ADD MSTORE PUSH2 0x1D05 DUP2 PUSH2 0x1CC9 JUMP JUMPDEST SWAP1 POP SWAP2 SWAP1 POP JUMP JUMPDEST PUSH32 0x44617461206C656E67746820666F7220453030303130303031206D7573742062 PUSH1 0x0 DUP3 ADD MSTORE PUSH32 0x6520380000000000000000000000000000000000000000000000000000000000 PUSH1 0x20 DUP3 ADD MSTORE POP JUMP JUMPDEST PUSH1 0x0 PUSH2 0x1D68 PUSH1 0x23 DUP4 PUSH2 0x1A62 JUMP JUMPDEST SWAP2 POP PUSH2 0x1D73 DUP3 PUSH2 0x1D0C JUMP JUMPDEST PUSH1 0x40 DUP3 ADD SWAP1 POP SWAP2 SWAP1 POP JUMP JUMPDEST PUSH1 0x0 PUSH1 0x20 DUP3 ADD SWAP1 POP DUP2 DUP2 SUB PUSH1 0x0 DUP4 ADD MSTORE PUSH2 0x1D97 DUP2 PUSH2 0x1D5B JUMP JUMPDEST SWAP1 POP SWAP2 SWAP1 POP JUMP JUMPDEST PUSH32 0x44617461206C656E67746820666F7220453030303130303031206D7573742062 PUSH1 0x0 DUP3 ADD MSTORE PUSH32 0x6520370000000000000000000000000000000000000000000000000000000000 PUSH1 0x20 DUP3 ADD MSTORE POP JUMP JUMPDEST PUSH1 0x0 PUSH2 0x1DFA PUSH1 0x23 DUP4 PUSH2 0x1A62 JUMP JUMPDEST SWAP2 POP PUSH2 0x1E05 DUP3 PUSH2 0x1D9E JUMP JUMPDEST PUSH1 0x40 DUP3 ADD SWAP1 POP SWAP2 SWAP1 POP JUMP JUMPDEST PUSH1 0x0 PUSH1 0x20 DUP3 ADD SWAP1 POP DUP2 DUP2 SUB PUSH1 0x0 DUP4 ADD MSTORE PUSH2 0x1E29 DUP2 PUSH2 0x1DED JUMP JUMPDEST SWAP1 POP SWAP2 SWAP1 POP JUMP INVALID LOG2 PUSH5 0x6970667358 0x22 SLT KECCAK256 SWAP15 0xAB INVALID PUSH17 0xFFA0662AF58E56B6468B96C1A1D5313840 PUSH21 0x497FD7DA5CDBF4A6A45464736F6C63430008120033 "
				},
				"gasEstimates": {
					"creation": {
						"codeDepositCost": "1556400",
						"executionCost": "1631",
						"totalCost": "1558031"
					},
					"external": {
						"addRecord(bytes32[])": "infinite",
						"getTransaction(bytes32)": "infinite",
						"getTransactionEventId(uint256)": "4899",
						"getTransactionParam(uint256,bytes32)": "5151",
						"getTransactionParamByEventId(bytes32,bytes32)": "infinite",
						"getTransactionTime(uint256)": "5210",
						"getTransactionType(uint256)": "4965",
						"getTransactionsCount()": "2512",
						"inputWithDecimal(string,string,int256,int256,int256,int256)": "infinite",
						"transactions(uint256)": "infinite"
					},
					"internal": {
						"E00010001_2_3_7(bytes32[] memory)": "infinite",
						"E00010004_8(bytes32[] memory)": "infinite",
						"E00010005_6(bytes32[] memory)": "infinite",
						"findTransaction(bytes32)": "infinite",
						"intToBytes32(int256)": "34",
						"stringToBytes32(string memory)": "infinite"
					}
				},
				"methodIdentifiers": {
					"addRecord(bytes32[])": "c4af6548",
					"getTransaction(bytes32)": "4aae13ca",
					"getTransactionEventId(uint256)": "9b4e3420",
					"getTransactionParam(uint256,bytes32)": "1afc42b6",
					"getTransactionParamByEventId(bytes32,bytes32)": "419e4138",
					"getTransactionTime(uint256)": "fadc6bc6",
					"getTransactionType(uint256)": "e09576f0",
					"getTransactionsCount()": "578cb8f9",
					"inputWithDecimal(string,string,int256,int256,int256,int256)": "df4ecf42",
					"transactions(uint256)": "9ace38c2"
				}
			},
			"storageLayout": {
				"storage": [
					{
						"astId": 16,
						"contract": "contracts/eventTransactionBytes32.sol:TransactionContract",
						"label": "transactions",
						"offset": 0,
						"slot": "0",
						"type": "t_array(t_struct(Transaction)12_storage)dyn_storage"
					}
				],
				"types": {
					"t_address": {
						"encoding": "inplace",
						"label": "address",
						"numberOfBytes": "20"
					},
					"t_array(t_struct(Transaction)12_storage)dyn_storage": {
						"base": "t_struct(Transaction)12_storage",
						"encoding": "dynamic_array",
						"label": "struct TransactionContract.Transaction[]",
						"numberOfBytes": "32"
					},
					"t_bytes32": {
						"encoding": "inplace",
						"label": "bytes32",
						"numberOfBytes": "32"
					},
					"t_int256": {
						"encoding": "inplace",
						"label": "int256",
						"numberOfBytes": "32"
					},
					"t_mapping(t_bytes32,t_int256)": {
						"encoding": "mapping",
						"key": "t_bytes32",
						"label": "mapping(bytes32 => int256)",
						"numberOfBytes": "32",
						"value": "t_int256"
					},
					"t_struct(Transaction)12_storage": {
						"encoding": "inplace",
						"label": "struct TransactionContract.Transaction",
						"members": [
							{
								"astId": 3,
								"contract": "contracts/eventTransactionBytes32.sol:TransactionContract",
								"label": "eventId",
								"offset": 0,
								"slot": "0",
								"type": "t_bytes32"
							},
							{
								"astId": 5,
								"contract": "contracts/eventTransactionBytes32.sol:TransactionContract",
								"label": "transactionType",
								"offset": 0,
								"slot": "1",
								"type": "t_bytes32"
							},
							{
								"astId": 7,
								"contract": "contracts/eventTransactionBytes32.sol:TransactionContract",
								"label": "Recorder",
								"offset": 0,
								"slot": "2",
								"type": "t_address"
							},
							{
								"astId": 11,
								"contract": "contracts/eventTransactionBytes32.sol:TransactionContract",
								"label": "params",
								"offset": 0,
								"slot": "3",
								"type": "t_mapping(t_bytes32,t_int256)"
							}
						],
						"numberOfBytes": "128"
					}
				}
			},
			"userdoc": {
				"kind": "user",
				"methods": {},
				"version": 1
			}
		}
	}
}