{
	"contracts/eventParser.sol": {
		"EventParser": {
			"abi": [
				{
					"inputs": [
						{
							"internalType": "bytes32[]",
							"name": "newEvents",
							"type": "bytes32[]"
						}
					],
					"name": "addEvent",
					"outputs": [],
					"stateMutability": "nonpayable",
					"type": "function"
				},
				{
					"inputs": [
						{
							"internalType": "enum EventParser.EventType",
							"name": "eventType",
							"type": "uint8"
						},
						{
							"internalType": "function (bytes32) external returns (bytes32)",
							"name": "parser",
							"type": "function"
						}
					],
					"name": "addParser",
					"outputs": [],
					"stateMutability": "nonpayable",
					"type": "function"
				},
				{
					"inputs": [
						{
							"internalType": "uint256",
							"name": "",
							"type": "uint256"
						}
					],
					"name": "events",
					"outputs": [
						{
							"internalType": "bytes32",
							"name": "",
							"type": "bytes32"
						}
					],
					"stateMutability": "view",
					"type": "function"
				},
				{
					"inputs": [
						{
							"internalType": "bytes32",
							"name": "eventBytes",
							"type": "bytes32"
						}
					],
					"name": "parseEvent",
					"outputs": [
						{
							"internalType": "bytes32",
							"name": "",
							"type": "bytes32"
						}
					],
					"stateMutability": "nonpayable",
					"type": "function"
				},
				{
					"inputs": [
						{
							"internalType": "enum EventParser.EventType",
							"name": "",
							"type": "uint8"
						}
					],
					"name": "parsers",
					"outputs": [
						{
							"internalType": "function (bytes32) external returns (bytes32)",
							"name": "",
							"type": "function"
						}
					],
					"stateMutability": "view",
					"type": "function"
				}
			],
			"devdoc": {
				"kind": "dev",
				"methods": {},
				"version": 1
			},
			"evm": {
				"assembly": "    /* \"contracts/eventParser.sol\":57:1022  contract EventParser {... */\n  mstore(0x40, 0x80)\n  callvalue\n  dup1\n  iszero\n  tag_1\n  jumpi\n  0x00\n  dup1\n  revert\ntag_1:\n  pop\n  dataSize(sub_0)\n  dup1\n  dataOffset(sub_0)\n  0x00\n  codecopy\n  0x00\n  return\nstop\n\nsub_0: assembly {\n        /* \"contracts/eventParser.sol\":57:1022  contract EventParser {... */\n      mstore(0x40, 0x80)\n      callvalue\n      dup1\n      iszero\n      tag_1\n      jumpi\n      0x00\n      dup1\n      revert\n    tag_1:\n      pop\n      jumpi(tag_2, lt(calldatasize, 0x04))\n      shr(0xe0, calldataload(0x00))\n      dup1\n      0x0b791430\n      eq\n      tag_3\n      jumpi\n      dup1\n      0x39ebfa17\n      eq\n      tag_4\n      jumpi\n      dup1\n      0x546477b6\n      eq\n      tag_5\n      jumpi\n      dup1\n      0xb0a3b693\n      eq\n      tag_6\n      jumpi\n      dup1\n      0xdbb32a27\n      eq\n      tag_7\n      jumpi\n    tag_2:\n      0x00\n      dup1\n      revert\n        /* \"contracts/eventParser.sol\":322:345  bytes32[] public events */\n    tag_3:\n      tag_8\n      0x04\n      dup1\n      calldatasize\n      sub\n      dup2\n      add\n      swap1\n      tag_9\n      swap2\n      swap1\n      tag_10\n      jump\t// in\n    tag_9:\n      tag_11\n      jump\t// in\n    tag_8:\n      mload(0x40)\n      tag_12\n      swap2\n      swap1\n      tag_13\n      jump\t// in\n    tag_12:\n      mload(0x40)\n      dup1\n      swap2\n      sub\n      swap1\n      return\n        /* \"contracts/eventParser.sol\":389:534  function addParser(EventType eventType, function(bytes32) external returns(bytes32) parser) external {... */\n    tag_4:\n      tag_14\n      0x04\n      dup1\n      calldatasize\n      sub\n      dup2\n      add\n      swap1\n      tag_15\n      swap2\n      swap1\n      tag_16\n      jump\t// in\n    tag_15:\n      tag_17\n      jump\t// in\n    tag_14:\n      stop\n        /* \"contracts/eventParser.sol\":736:1020  function parseEvent(bytes32 eventBytes) external returns(bytes32) {... */\n    tag_5:\n      tag_18\n      0x04\n      dup1\n      calldatasize\n      sub\n      dup2\n      add\n      swap1\n      tag_19\n      swap2\n      swap1\n      tag_20\n      jump\t// in\n    tag_19:\n      tag_21\n      jump\t// in\n    tag_18:\n      mload(0x40)\n      tag_22\n      swap2\n      swap1\n      tag_13\n      jump\t// in\n    tag_22:\n      mload(0x40)\n      dup1\n      swap2\n      sub\n      swap1\n      return\n        /* \"contracts/eventParser.sol\":236:316  mapping(EventType => function(bytes32) external returns(bytes32)) public parsers */\n    tag_6:\n      tag_23\n      0x04\n      dup1\n      calldatasize\n      sub\n      dup2\n      add\n      swap1\n      tag_24\n      swap2\n      swap1\n      tag_25\n      jump\t// in\n    tag_24:\n      tag_26\n      jump\t// in\n    tag_23:\n      mload(0x40)\n      tag_27\n      swap3\n      swap2\n      swap1\n      tag_28\n      jump\t// in\n    tag_27:\n      mload(0x40)\n      dup1\n      swap2\n      sub\n      swap1\n      return\n        /* \"contracts/eventParser.sol\":544:711  function addEvent(bytes32[] calldata newEvents) external {... */\n    tag_7:\n      tag_29\n      0x04\n      dup1\n      calldatasize\n      sub\n      dup2\n      add\n      swap1\n      tag_30\n      swap2\n      swap1\n      tag_31\n      jump\t// in\n    tag_30:\n      tag_32\n      jump\t// in\n    tag_29:\n      stop\n        /* \"contracts/eventParser.sol\":322:345  bytes32[] public events */\n    tag_11:\n      0x01\n      dup2\n      dup2\n      sload\n      dup2\n      lt\n      tag_33\n      jumpi\n      0x00\n      dup1\n      revert\n    tag_33:\n      swap1\n      0x00\n      mstore\n      keccak256(0x00, 0x20)\n      add\n      0x00\n      swap2\n      pop\n      swap1\n      pop\n      sload\n      dup2\n      jump\t// out\n        /* \"contracts/eventParser.sol\":389:534  function addParser(EventType eventType, function(bytes32) external returns(bytes32) parser) external {... */\n    tag_17:\n        /* \"contracts/eventParser.sol\":521:527  parser */\n      dup2\n      dup2\n        /* \"contracts/eventParser.sol\":500:507  parsers */\n      0x00\n        /* \"contracts/eventParser.sol\":500:518  parsers[eventType] */\n      dup1\n        /* \"contracts/eventParser.sol\":508:517  eventType */\n      dup7\n        /* \"contracts/eventParser.sol\":500:518  parsers[eventType] */\n      0x03\n      dup2\n      gt\n      iszero\n      tag_36\n      jumpi\n      tag_37\n      tag_38\n      jump\t// in\n    tag_37:\n    tag_36:\n      0x03\n      dup2\n      gt\n      iszero\n      tag_39\n      jumpi\n      tag_40\n      tag_38\n      jump\t// in\n    tag_40:\n    tag_39:\n      dup2\n      mstore\n      0x20\n      add\n      swap1\n      dup2\n      mstore\n      0x20\n      add\n      0x00\n      keccak256\n      0x00\n        /* \"contracts/eventParser.sol\":500:527  parsers[eventType] = parser */\n      0x0100\n      exp\n      dup2\n      sload\n      dup2\n      0xffffffffffffffffffffffffffffffffffffffffffffffff\n      mul\n      not\n      and\n      swap1\n      dup5\n      dup5\n      0xffffffff\n      and\n      swap1\n      0xffffffffffffffffffffffffffffffffffffffff\n      and\n      0x20\n      shl\n      or\n      mul\n      or\n      swap1\n      sstore\n      pop\n      pop\n        /* \"contracts/eventParser.sol\":389:534  function addParser(EventType eventType, function(bytes32) external returns(bytes32) parser) external {... */\n      pop\n      pop\n      pop\n      jump\t// out\n        /* \"contracts/eventParser.sol\":736:1020  function parseEvent(bytes32 eventBytes) external returns(bytes32) {... */\n    tag_21:\n        /* \"contracts/eventParser.sol\":793:800  bytes32 */\n      0x00\n        /* \"contracts/eventParser.sol\":812:831  EventType eventType */\n      dup1\n        /* \"contracts/eventParser.sol\":850:860  eventBytes */\n      dup3\n        /* \"contracts/eventParser.sol\":861:862  0 */\n      0x00\n        /* \"contracts/eventParser.sol\":850:863  eventBytes[0] */\n      0x20\n      dup2\n      lt\n      tag_42\n      jumpi\n      tag_43\n      tag_44\n      jump\t// in\n    tag_43:\n    tag_42:\n      byte\n      0xf8\n      shl\n        /* \"contracts/eventParser.sol\":844:864  uint8(eventBytes[0]) */\n      0xf8\n      shr\n        /* \"contracts/eventParser.sol\":834:865  EventType(uint8(eventBytes[0])) */\n      0xff\n      and\n      0x03\n      dup2\n      gt\n      iszero\n      tag_45\n      jumpi\n      tag_46\n      tag_38\n      jump\t// in\n    tag_46:\n    tag_45:\n        /* \"contracts/eventParser.sol\":812:865  EventType eventType = EventType(uint8(eventBytes[0])) */\n      swap1\n      pop\n        /* \"contracts/eventParser.sol\":907:957  function(bytes32) external returns(bytes32) parser */\n      0x00\n      dup1\n        /* \"contracts/eventParser.sol\":960:967  parsers */\n      0x00\n        /* \"contracts/eventParser.sol\":960:978  parsers[eventType] */\n      dup1\n        /* \"contracts/eventParser.sol\":968:977  eventType */\n      dup5\n        /* \"contracts/eventParser.sol\":960:978  parsers[eventType] */\n      0x03\n      dup2\n      gt\n      iszero\n      tag_47\n      jumpi\n      tag_48\n      tag_38\n      jump\t// in\n    tag_48:\n    tag_47:\n      0x03\n      dup2\n      gt\n      iszero\n      tag_49\n      jumpi\n      tag_50\n      tag_38\n      jump\t// in\n    tag_50:\n    tag_49:\n      dup2\n      mstore\n      0x20\n      add\n      swap1\n      dup2\n      mstore\n      0x20\n      add\n      0x00\n      keccak256\n      0x00\n      swap1\n      sload\n      swap1\n      0x0100\n      exp\n      swap1\n      div\n      dup1\n      0x20\n      shr\n      0xffffffffffffffffffffffffffffffffffffffff\n      and\n      swap1\n      0xffffffff\n      and\n        /* \"contracts/eventParser.sol\":907:978  function(bytes32) external returns(bytes32) parser = parsers[eventType] */\n      swap2\n      pop\n      swap2\n      pop\n        /* \"contracts/eventParser.sol\":995:1001  parser */\n      dup2\n      dup2\n        /* \"contracts/eventParser.sol\":1002:1012  eventBytes */\n      dup7\n        /* \"contracts/eventParser.sol\":995:1013  parser(eventBytes) */\n      mload(0x40)\n      dup3\n      0xffffffff\n      and\n      0xe0\n      shl\n      dup2\n      mstore\n      0x04\n      add\n      tag_51\n      swap2\n      swap1\n      tag_13\n      jump\t// in\n    tag_51:\n      0x20\n      mload(0x40)\n      dup1\n      dup4\n      sub\n      dup2\n      0x00\n      dup8\n      gas\n      call\n      iszero\n      dup1\n      iszero\n      tag_53\n      jumpi\n      returndatasize\n      0x00\n      dup1\n      returndatacopy\n      revert(0x00, returndatasize)\n    tag_53:\n      pop\n      pop\n      pop\n      pop\n      mload(0x40)\n      returndatasize\n      not(0x1f)\n      0x1f\n      dup3\n      add\n      and\n      dup3\n      add\n      dup1\n      0x40\n      mstore\n      pop\n      dup2\n      add\n      swap1\n      tag_54\n      swap2\n      swap1\n      tag_55\n      jump\t// in\n    tag_54:\n        /* \"contracts/eventParser.sol\":988:1013  return parser(eventBytes) */\n      swap4\n      pop\n      pop\n      pop\n      pop\n        /* \"contracts/eventParser.sol\":736:1020  function parseEvent(bytes32 eventBytes) external returns(bytes32) {... */\n      swap2\n      swap1\n      pop\n      jump\t// out\n        /* \"contracts/eventParser.sol\":236:316  mapping(EventType => function(bytes32) external returns(bytes32)) public parsers */\n    tag_26:\n      mstore(0x20, 0x00)\n      dup1\n      0x00\n      mstore\n      keccak256(0x00, 0x40)\n      0x00\n      swap2\n      pop\n      sload\n      swap1\n      0x0100\n      exp\n      swap1\n      div\n      dup1\n      0x20\n      shr\n      0xffffffffffffffffffffffffffffffffffffffff\n      and\n      swap1\n      0xffffffff\n      and\n      dup3\n      jump\t// out\n        /* \"contracts/eventParser.sol\":544:711  function addEvent(bytes32[] calldata newEvents) external {... */\n    tag_32:\n        /* \"contracts/eventParser.sol\":616:622  uint i */\n      0x00\n        /* \"contracts/eventParser.sol\":611:705  for (uint i = 0; i < newEvents.length; i++) {... */\n    tag_57:\n        /* \"contracts/eventParser.sol\":632:641  newEvents */\n      dup3\n      dup3\n        /* \"contracts/eventParser.sol\":632:648  newEvents.length */\n      swap1\n      pop\n        /* \"contracts/eventParser.sol\":628:629  i */\n      dup2\n        /* \"contracts/eventParser.sol\":628:648  i < newEvents.length */\n      lt\n        /* \"contracts/eventParser.sol\":611:705  for (uint i = 0; i < newEvents.length; i++) {... */\n      iszero\n      tag_58\n      jumpi\n        /* \"contracts/eventParser.sol\":669:675  events */\n      0x01\n        /* \"contracts/eventParser.sol\":681:690  newEvents */\n      dup4\n      dup4\n        /* \"contracts/eventParser.sol\":691:692  i */\n      dup4\n        /* \"contracts/eventParser.sol\":681:693  newEvents[i] */\n      dup2\n      dup2\n      lt\n      tag_60\n      jumpi\n      tag_61\n      tag_44\n      jump\t// in\n    tag_61:\n    tag_60:\n      swap1\n      pop\n      0x20\n      mul\n      add\n      calldataload\n        /* \"contracts/eventParser.sol\":669:694  events.push(newEvents[i]) */\n      swap1\n      dup1\n      0x01\n      dup2\n      sload\n      add\n      dup1\n      dup3\n      sstore\n      dup1\n      swap2\n      pop\n      pop\n      0x01\n      swap1\n      sub\n      swap1\n      0x00\n      mstore\n      keccak256(0x00, 0x20)\n      add\n      0x00\n      swap1\n      swap2\n      swap1\n      swap2\n      swap1\n      swap2\n      pop\n      sstore\n        /* \"contracts/eventParser.sol\":650:653  i++ */\n      dup1\n      dup1\n      tag_63\n      swap1\n      tag_64\n      jump\t// in\n    tag_63:\n      swap2\n      pop\n      pop\n        /* \"contracts/eventParser.sol\":611:705  for (uint i = 0; i < newEvents.length; i++) {... */\n      jump(tag_57)\n    tag_58:\n      pop\n        /* \"contracts/eventParser.sol\":544:711  function addEvent(bytes32[] calldata newEvents) external {... */\n      pop\n      pop\n      jump\t// out\n        /* \"#utility.yul\":88:205   */\n    tag_66:\n        /* \"#utility.yul\":197:198   */\n      0x00\n        /* \"#utility.yul\":194:195   */\n      dup1\n        /* \"#utility.yul\":187:199   */\n      revert\n        /* \"#utility.yul\":211:328   */\n    tag_67:\n        /* \"#utility.yul\":320:321   */\n      0x00\n        /* \"#utility.yul\":317:318   */\n      dup1\n        /* \"#utility.yul\":310:322   */\n      revert\n        /* \"#utility.yul\":334:411   */\n    tag_68:\n        /* \"#utility.yul\":371:378   */\n      0x00\n        /* \"#utility.yul\":400:405   */\n      dup2\n        /* \"#utility.yul\":389:405   */\n      swap1\n      pop\n        /* \"#utility.yul\":334:411   */\n      swap2\n      swap1\n      pop\n      jump\t// out\n        /* \"#utility.yul\":417:539   */\n    tag_69:\n        /* \"#utility.yul\":490:514   */\n      tag_102\n        /* \"#utility.yul\":508:513   */\n      dup2\n        /* \"#utility.yul\":490:514   */\n      tag_68\n      jump\t// in\n    tag_102:\n        /* \"#utility.yul\":483:488   */\n      dup2\n        /* \"#utility.yul\":480:515   */\n      eq\n        /* \"#utility.yul\":470:533   */\n      tag_103\n      jumpi\n        /* \"#utility.yul\":529:530   */\n      0x00\n        /* \"#utility.yul\":526:527   */\n      dup1\n        /* \"#utility.yul\":519:531   */\n      revert\n        /* \"#utility.yul\":470:533   */\n    tag_103:\n        /* \"#utility.yul\":417:539   */\n      pop\n      jump\t// out\n        /* \"#utility.yul\":545:684   */\n    tag_70:\n        /* \"#utility.yul\":591:596   */\n      0x00\n        /* \"#utility.yul\":629:635   */\n      dup2\n        /* \"#utility.yul\":616:636   */\n      calldataload\n        /* \"#utility.yul\":607:636   */\n      swap1\n      pop\n        /* \"#utility.yul\":645:678   */\n      tag_105\n        /* \"#utility.yul\":672:677   */\n      dup2\n        /* \"#utility.yul\":645:678   */\n      tag_69\n      jump\t// in\n    tag_105:\n        /* \"#utility.yul\":545:684   */\n      swap3\n      swap2\n      pop\n      pop\n      jump\t// out\n        /* \"#utility.yul\":690:1019   */\n    tag_10:\n        /* \"#utility.yul\":749:755   */\n      0x00\n        /* \"#utility.yul\":798:800   */\n      0x20\n        /* \"#utility.yul\":786:795   */\n      dup3\n        /* \"#utility.yul\":777:784   */\n      dup5\n        /* \"#utility.yul\":773:796   */\n      sub\n        /* \"#utility.yul\":769:801   */\n      slt\n        /* \"#utility.yul\":766:885   */\n      iszero\n      tag_107\n      jumpi\n        /* \"#utility.yul\":804:883   */\n      tag_108\n      tag_66\n      jump\t// in\n    tag_108:\n        /* \"#utility.yul\":766:885   */\n    tag_107:\n        /* \"#utility.yul\":924:925   */\n      0x00\n        /* \"#utility.yul\":949:1002   */\n      tag_109\n        /* \"#utility.yul\":994:1001   */\n      dup5\n        /* \"#utility.yul\":985:991   */\n      dup3\n        /* \"#utility.yul\":974:983   */\n      dup6\n        /* \"#utility.yul\":970:992   */\n      add\n        /* \"#utility.yul\":949:1002   */\n      tag_70\n      jump\t// in\n    tag_109:\n        /* \"#utility.yul\":939:1002   */\n      swap2\n      pop\n        /* \"#utility.yul\":895:1012   */\n      pop\n        /* \"#utility.yul\":690:1019   */\n      swap3\n      swap2\n      pop\n      pop\n      jump\t// out\n        /* \"#utility.yul\":1025:1102   */\n    tag_71:\n        /* \"#utility.yul\":1062:1069   */\n      0x00\n        /* \"#utility.yul\":1091:1096   */\n      dup2\n        /* \"#utility.yul\":1080:1096   */\n      swap1\n      pop\n        /* \"#utility.yul\":1025:1102   */\n      swap2\n      swap1\n      pop\n      jump\t// out\n        /* \"#utility.yul\":1108:1226   */\n    tag_72:\n        /* \"#utility.yul\":1195:1219   */\n      tag_112\n        /* \"#utility.yul\":1213:1218   */\n      dup2\n        /* \"#utility.yul\":1195:1219   */\n      tag_71\n      jump\t// in\n    tag_112:\n        /* \"#utility.yul\":1190:1193   */\n      dup3\n        /* \"#utility.yul\":1183:1220   */\n      mstore\n        /* \"#utility.yul\":1108:1226   */\n      pop\n      pop\n      jump\t// out\n        /* \"#utility.yul\":1232:1454   */\n    tag_13:\n        /* \"#utility.yul\":1325:1329   */\n      0x00\n        /* \"#utility.yul\":1363:1365   */\n      0x20\n        /* \"#utility.yul\":1352:1361   */\n      dup3\n        /* \"#utility.yul\":1348:1366   */\n      add\n        /* \"#utility.yul\":1340:1366   */\n      swap1\n      pop\n        /* \"#utility.yul\":1376:1447   */\n      tag_114\n        /* \"#utility.yul\":1444:1445   */\n      0x00\n        /* \"#utility.yul\":1433:1442   */\n      dup4\n        /* \"#utility.yul\":1429:1446   */\n      add\n        /* \"#utility.yul\":1420:1426   */\n      dup5\n        /* \"#utility.yul\":1376:1447   */\n      tag_72\n      jump\t// in\n    tag_114:\n        /* \"#utility.yul\":1232:1454   */\n      swap3\n      swap2\n      pop\n      pop\n      jump\t// out\n        /* \"#utility.yul\":1460:1570   */\n    tag_73:\n        /* \"#utility.yul\":1544:1545   */\n      0x04\n        /* \"#utility.yul\":1537:1542   */\n      dup2\n        /* \"#utility.yul\":1534:1546   */\n      lt\n        /* \"#utility.yul\":1524:1564   */\n      tag_116\n      jumpi\n        /* \"#utility.yul\":1560:1561   */\n      0x00\n        /* \"#utility.yul\":1557:1558   */\n      dup1\n        /* \"#utility.yul\":1550:1562   */\n      revert\n        /* \"#utility.yul\":1524:1564   */\n    tag_116:\n        /* \"#utility.yul\":1460:1570   */\n      pop\n      jump\t// out\n        /* \"#utility.yul\":1576:1737   */\n    tag_74:\n        /* \"#utility.yul\":1633:1638   */\n      0x00\n        /* \"#utility.yul\":1671:1677   */\n      dup2\n        /* \"#utility.yul\":1658:1678   */\n      calldataload\n        /* \"#utility.yul\":1649:1678   */\n      swap1\n      pop\n        /* \"#utility.yul\":1687:1731   */\n      tag_118\n        /* \"#utility.yul\":1725:1730   */\n      dup2\n        /* \"#utility.yul\":1687:1731   */\n      tag_73\n      jump\t// in\n    tag_118:\n        /* \"#utility.yul\":1576:1737   */\n      swap3\n      swap2\n      pop\n      pop\n      jump\t// out\n        /* \"#utility.yul\":1743:1893   */\n    tag_75:\n        /* \"#utility.yul\":1780:1787   */\n      0x00\n        /* \"#utility.yul\":1820:1886   */\n      0xffffffffffffffffffffffffffffffffffffffffffffffff0000000000000000\n        /* \"#utility.yul\":1813:1818   */\n      dup3\n        /* \"#utility.yul\":1809:1887   */\n      and\n        /* \"#utility.yul\":1798:1887   */\n      swap1\n      pop\n        /* \"#utility.yul\":1743:1893   */\n      swap2\n      swap1\n      pop\n      jump\t// out\n        /* \"#utility.yul\":1899:2049   */\n    tag_76:\n        /* \"#utility.yul\":1990:1997   */\n      0x00\n        /* \"#utility.yul\":2019:2043   */\n      tag_121\n        /* \"#utility.yul\":2037:2042   */\n      dup3\n        /* \"#utility.yul\":2019:2043   */\n      tag_75\n      jump\t// in\n    tag_121:\n        /* \"#utility.yul\":2008:2043   */\n      swap1\n      pop\n        /* \"#utility.yul\":1899:2049   */\n      swap2\n      swap1\n      pop\n      jump\t// out\n        /* \"#utility.yul\":2055:2285   */\n    tag_77:\n        /* \"#utility.yul\":2182:2260   */\n      tag_123\n        /* \"#utility.yul\":2254:2259   */\n      dup2\n        /* \"#utility.yul\":2182:2260   */\n      tag_76\n      jump\t// in\n    tag_123:\n        /* \"#utility.yul\":2175:2180   */\n      dup2\n        /* \"#utility.yul\":2172:2261   */\n      eq\n        /* \"#utility.yul\":2162:2279   */\n      tag_124\n      jumpi\n        /* \"#utility.yul\":2275:2276   */\n      0x00\n        /* \"#utility.yul\":2272:2273   */\n      dup1\n        /* \"#utility.yul\":2265:2277   */\n      revert\n        /* \"#utility.yul\":2162:2279   */\n    tag_124:\n        /* \"#utility.yul\":2055:2285   */\n      pop\n      jump\t// out\n        /* \"#utility.yul\":2291:2532   */\n    tag_78:\n        /* \"#utility.yul\":2391:2394   */\n      0x00\n        /* \"#utility.yul\":2425:2431   */\n      dup2\n        /* \"#utility.yul\":2412:2432   */\n      calldataload\n        /* \"#utility.yul\":2405:2432   */\n      swap1\n      pop\n        /* \"#utility.yul\":2441:2526   */\n      tag_126\n        /* \"#utility.yul\":2522:2525   */\n      dup2\n        /* \"#utility.yul\":2441:2526   */\n      tag_77\n      jump\t// in\n    tag_126:\n        /* \"#utility.yul\":2291:2532   */\n      swap3\n      swap2\n      pop\n      pop\n      jump\t// out\n        /* \"#utility.yul\":2538:2642   */\n    tag_79:\n        /* \"#utility.yul\":2581:2589   */\n      0x00\n        /* \"#utility.yul\":2629:2634   */\n      dup2\n        /* \"#utility.yul\":2625:2627   */\n      0x20\n        /* \"#utility.yul\":2621:2635   */\n      shr\n        /* \"#utility.yul\":2600:2635   */\n      swap1\n      pop\n        /* \"#utility.yul\":2538:2642   */\n      swap2\n      swap1\n      pop\n      jump\t// out\n        /* \"#utility.yul\":2648:2752   */\n    tag_80:\n        /* \"#utility.yul\":2691:2699   */\n      0x00\n        /* \"#utility.yul\":2739:2744   */\n      dup2\n        /* \"#utility.yul\":2735:2737   */\n      0x40\n        /* \"#utility.yul\":2731:2745   */\n      shr\n        /* \"#utility.yul\":2710:2745   */\n      swap1\n      pop\n        /* \"#utility.yul\":2648:2752   */\n      swap2\n      swap1\n      pop\n      jump\t// out\n        /* \"#utility.yul\":2758:2979   */\n    tag_81:\n        /* \"#utility.yul\":2807:2811   */\n      0x00\n        /* \"#utility.yul\":2813:2821   */\n      dup1\n        /* \"#utility.yul\":2844:2877   */\n      tag_130\n        /* \"#utility.yul\":2868:2876   */\n      dup4\n        /* \"#utility.yul\":2844:2877   */\n      tag_80\n      jump\t// in\n    tag_130:\n        /* \"#utility.yul\":2832:2877   */\n      swap3\n      pop\n        /* \"#utility.yul\":2912:2922   */\n      0xffffffff\n        /* \"#utility.yul\":2902:2910   */\n      dup4\n        /* \"#utility.yul\":2898:2923   */\n      and\n        /* \"#utility.yul\":2886:2923   */\n      swap1\n      pop\n        /* \"#utility.yul\":2940:2973   */\n      tag_131\n        /* \"#utility.yul\":2964:2972   */\n      dup4\n        /* \"#utility.yul\":2940:2973   */\n      tag_79\n      jump\t// in\n    tag_131:\n        /* \"#utility.yul\":2932:2973   */\n      swap2\n      pop\n        /* \"#utility.yul\":2758:2979   */\n      swap2\n      pop\n      swap2\n      jump\t// out\n        /* \"#utility.yul\":2985:3275   */\n    tag_82:\n        /* \"#utility.yul\":3093:3097   */\n      0x00\n        /* \"#utility.yul\":3099:3116   */\n      dup1\n        /* \"#utility.yul\":3154:3269   */\n      tag_133\n        /* \"#utility.yul\":3181:3268   */\n      tag_134\n        /* \"#utility.yul\":3264:3267   */\n      dup6\n        /* \"#utility.yul\":3256:3262   */\n      dup6\n        /* \"#utility.yul\":3181:3268   */\n      tag_78\n      jump\t// in\n    tag_134:\n        /* \"#utility.yul\":3154:3269   */\n      tag_81\n      jump\t// in\n    tag_133:\n        /* \"#utility.yul\":3127:3269   */\n      swap2\n      pop\n      swap2\n      pop\n        /* \"#utility.yul\":2985:3275   */\n      swap3\n      pop\n      swap3\n      swap1\n      pop\n      jump\t// out\n        /* \"#utility.yul\":3281:3909   */\n    tag_16:\n        /* \"#utility.yul\":3414:3420   */\n      0x00\n        /* \"#utility.yul\":3422:3428   */\n      dup1\n        /* \"#utility.yul\":3430:3436   */\n      0x00\n        /* \"#utility.yul\":3479:3481   */\n      0x40\n        /* \"#utility.yul\":3467:3476   */\n      dup5\n        /* \"#utility.yul\":3458:3465   */\n      dup7\n        /* \"#utility.yul\":3454:3477   */\n      sub\n        /* \"#utility.yul\":3450:3482   */\n      slt\n        /* \"#utility.yul\":3447:3566   */\n      iszero\n      tag_136\n      jumpi\n        /* \"#utility.yul\":3485:3564   */\n      tag_137\n      tag_66\n      jump\t// in\n    tag_137:\n        /* \"#utility.yul\":3447:3566   */\n    tag_136:\n        /* \"#utility.yul\":3605:3606   */\n      0x00\n        /* \"#utility.yul\":3630:3694   */\n      tag_138\n        /* \"#utility.yul\":3686:3693   */\n      dup7\n        /* \"#utility.yul\":3677:3683   */\n      dup3\n        /* \"#utility.yul\":3666:3675   */\n      dup8\n        /* \"#utility.yul\":3662:3684   */\n      add\n        /* \"#utility.yul\":3630:3694   */\n      tag_74\n      jump\t// in\n    tag_138:\n        /* \"#utility.yul\":3620:3694   */\n      swap4\n      pop\n        /* \"#utility.yul\":3576:3704   */\n      pop\n        /* \"#utility.yul\":3743:3745   */\n      0x20\n        /* \"#utility.yul\":3777:3892   */\n      tag_139\n        /* \"#utility.yul\":3884:3891   */\n      dup7\n        /* \"#utility.yul\":3875:3881   */\n      dup3\n        /* \"#utility.yul\":3864:3873   */\n      dup8\n        /* \"#utility.yul\":3860:3882   */\n      add\n        /* \"#utility.yul\":3777:3892   */\n      tag_82\n      jump\t// in\n    tag_139:\n        /* \"#utility.yul\":3759:3892   */\n      swap3\n      pop\n      swap3\n      pop\n        /* \"#utility.yul\":3714:3902   */\n      pop\n        /* \"#utility.yul\":3281:3909   */\n      swap3\n      pop\n      swap3\n      pop\n      swap3\n      jump\t// out\n        /* \"#utility.yul\":3915:4037   */\n    tag_83:\n        /* \"#utility.yul\":3988:4012   */\n      tag_141\n        /* \"#utility.yul\":4006:4011   */\n      dup2\n        /* \"#utility.yul\":3988:4012   */\n      tag_71\n      jump\t// in\n    tag_141:\n        /* \"#utility.yul\":3981:3986   */\n      dup2\n        /* \"#utility.yul\":3978:4013   */\n      eq\n        /* \"#utility.yul\":3968:4031   */\n      tag_142\n      jumpi\n        /* \"#utility.yul\":4027:4028   */\n      0x00\n        /* \"#utility.yul\":4024:4025   */\n      dup1\n        /* \"#utility.yul\":4017:4029   */\n      revert\n        /* \"#utility.yul\":3968:4031   */\n    tag_142:\n        /* \"#utility.yul\":3915:4037   */\n      pop\n      jump\t// out\n        /* \"#utility.yul\":4043:4182   */\n    tag_84:\n        /* \"#utility.yul\":4089:4094   */\n      0x00\n        /* \"#utility.yul\":4127:4133   */\n      dup2\n        /* \"#utility.yul\":4114:4134   */\n      calldataload\n        /* \"#utility.yul\":4105:4134   */\n      swap1\n      pop\n        /* \"#utility.yul\":4143:4176   */\n      tag_144\n        /* \"#utility.yul\":4170:4175   */\n      dup2\n        /* \"#utility.yul\":4143:4176   */\n      tag_83\n      jump\t// in\n    tag_144:\n        /* \"#utility.yul\":4043:4182   */\n      swap3\n      swap2\n      pop\n      pop\n      jump\t// out\n        /* \"#utility.yul\":4188:4517   */\n    tag_20:\n        /* \"#utility.yul\":4247:4253   */\n      0x00\n        /* \"#utility.yul\":4296:4298   */\n      0x20\n        /* \"#utility.yul\":4284:4293   */\n      dup3\n        /* \"#utility.yul\":4275:4282   */\n      dup5\n        /* \"#utility.yul\":4271:4294   */\n      sub\n        /* \"#utility.yul\":4267:4299   */\n      slt\n        /* \"#utility.yul\":4264:4383   */\n      iszero\n      tag_146\n      jumpi\n        /* \"#utility.yul\":4302:4381   */\n      tag_147\n      tag_66\n      jump\t// in\n    tag_147:\n        /* \"#utility.yul\":4264:4383   */\n    tag_146:\n        /* \"#utility.yul\":4422:4423   */\n      0x00\n        /* \"#utility.yul\":4447:4500   */\n      tag_148\n        /* \"#utility.yul\":4492:4499   */\n      dup5\n        /* \"#utility.yul\":4483:4489   */\n      dup3\n        /* \"#utility.yul\":4472:4481   */\n      dup6\n        /* \"#utility.yul\":4468:4490   */\n      add\n        /* \"#utility.yul\":4447:4500   */\n      tag_84\n      jump\t// in\n    tag_148:\n        /* \"#utility.yul\":4437:4500   */\n      swap2\n      pop\n        /* \"#utility.yul\":4393:4510   */\n      pop\n        /* \"#utility.yul\":4188:4517   */\n      swap3\n      swap2\n      pop\n      pop\n      jump\t// out\n        /* \"#utility.yul\":4523:4874   */\n    tag_25:\n        /* \"#utility.yul\":4593:4599   */\n      0x00\n        /* \"#utility.yul\":4642:4644   */\n      0x20\n        /* \"#utility.yul\":4630:4639   */\n      dup3\n        /* \"#utility.yul\":4621:4628   */\n      dup5\n        /* \"#utility.yul\":4617:4640   */\n      sub\n        /* \"#utility.yul\":4613:4645   */\n      slt\n        /* \"#utility.yul\":4610:4729   */\n      iszero\n      tag_150\n      jumpi\n        /* \"#utility.yul\":4648:4727   */\n      tag_151\n      tag_66\n      jump\t// in\n    tag_151:\n        /* \"#utility.yul\":4610:4729   */\n    tag_150:\n        /* \"#utility.yul\":4768:4769   */\n      0x00\n        /* \"#utility.yul\":4793:4857   */\n      tag_152\n        /* \"#utility.yul\":4849:4856   */\n      dup5\n        /* \"#utility.yul\":4840:4846   */\n      dup3\n        /* \"#utility.yul\":4829:4838   */\n      dup6\n        /* \"#utility.yul\":4825:4847   */\n      add\n        /* \"#utility.yul\":4793:4857   */\n      tag_74\n      jump\t// in\n    tag_152:\n        /* \"#utility.yul\":4783:4857   */\n      swap2\n      pop\n        /* \"#utility.yul\":4739:4867   */\n      pop\n        /* \"#utility.yul\":4523:4874   */\n      swap3\n      swap2\n      pop\n      pop\n      jump\t// out\n        /* \"#utility.yul\":4880:4974   */\n    tag_85:\n        /* \"#utility.yul\":4913:4921   */\n      0x00\n        /* \"#utility.yul\":4961:4966   */\n      dup2\n        /* \"#utility.yul\":4957:4959   */\n      0x20\n        /* \"#utility.yul\":4953:4967   */\n      shl\n        /* \"#utility.yul\":4932:4967   */\n      swap1\n      pop\n        /* \"#utility.yul\":4880:4974   */\n      swap2\n      swap1\n      pop\n      jump\t// out\n        /* \"#utility.yul\":4980:5074   */\n    tag_86:\n        /* \"#utility.yul\":5013:5021   */\n      0x00\n        /* \"#utility.yul\":5061:5066   */\n      dup2\n        /* \"#utility.yul\":5057:5059   */\n      0x40\n        /* \"#utility.yul\":5053:5067   */\n      shl\n        /* \"#utility.yul\":5032:5067   */\n      swap1\n      pop\n        /* \"#utility.yul\":4980:5074   */\n      swap2\n      swap1\n      pop\n      jump\t// out\n        /* \"#utility.yul\":5080:5239   */\n    tag_87:\n        /* \"#utility.yul\":5137:5145   */\n      0x00\n        /* \"#utility.yul\":5168:5233   */\n      tag_156\n        /* \"#utility.yul\":5220:5230   */\n      0xffffffff\n        /* \"#utility.yul\":5210:5218   */\n      dup5\n        /* \"#utility.yul\":5206:5231   */\n      and\n        /* \"#utility.yul\":5185:5204   */\n      tag_157\n        /* \"#utility.yul\":5199:5203   */\n      dup5\n        /* \"#utility.yul\":5185:5204   */\n      tag_85\n      jump\t// in\n    tag_157:\n        /* \"#utility.yul\":5182:5232   */\n      or\n        /* \"#utility.yul\":5168:5233   */\n      tag_86\n      jump\t// in\n    tag_156:\n        /* \"#utility.yul\":5156:5233   */\n      swap1\n      pop\n        /* \"#utility.yul\":5080:5239   */\n      swap3\n      swap2\n      pop\n      pop\n      jump\t// out\n        /* \"#utility.yul\":5245:5504   */\n    tag_88:\n        /* \"#utility.yul\":5414:5421   */\n      0x00\n        /* \"#utility.yul\":5423:5436   */\n      dup1\n        /* \"#utility.yul\":5458:5462   */\n      dup3\n        /* \"#utility.yul\":5447:5462   */\n      swap2\n      pop\n        /* \"#utility.yul\":5488:5498   */\n      dup4\n        /* \"#utility.yul\":5471:5498   */\n      swap1\n      pop\n        /* \"#utility.yul\":5245:5504   */\n      swap3\n      pop\n      swap3\n      swap1\n      pop\n      jump\t// out\n        /* \"#utility.yul\":5510:5958   */\n    tag_89:\n        /* \"#utility.yul\":5726:5883   */\n      tag_160\n        /* \"#utility.yul\":5871:5882   */\n      dup3\n        /* \"#utility.yul\":5865:5869   */\n      dup3\n        /* \"#utility.yul\":5726:5883   */\n      tag_88\n      jump\t// in\n    tag_160:\n        /* \"#utility.yul\":5705:5883   */\n      swap3\n      pop\n      swap1\n      pop\n        /* \"#utility.yul\":5904:5951   */\n      tag_161\n        /* \"#utility.yul\":5939:5950   */\n      dup3\n        /* \"#utility.yul\":5933:5937   */\n      dup3\n        /* \"#utility.yul\":5904:5951   */\n      tag_87\n      jump\t// in\n    tag_161:\n        /* \"#utility.yul\":5899:5902   */\n      dup4\n        /* \"#utility.yul\":5892:5952   */\n      mstore\n        /* \"#utility.yul\":5510:5958   */\n      pop\n      pop\n      pop\n      jump\t// out\n        /* \"#utility.yul\":5964:6418   */\n    tag_28:\n        /* \"#utility.yul\":6173:6177   */\n      0x00\n        /* \"#utility.yul\":6211:6213   */\n      0x20\n        /* \"#utility.yul\":6200:6209   */\n      dup3\n        /* \"#utility.yul\":6196:6214   */\n      add\n        /* \"#utility.yul\":6188:6214   */\n      swap1\n      pop\n        /* \"#utility.yul\":6224:6411   */\n      tag_163\n        /* \"#utility.yul\":6408:6409   */\n      0x00\n        /* \"#utility.yul\":6397:6406   */\n      dup4\n        /* \"#utility.yul\":6393:6410   */\n      add\n        /* \"#utility.yul\":6384:6390   */\n      dup5\n        /* \"#utility.yul\":6376:6382   */\n      dup7\n        /* \"#utility.yul\":6224:6411   */\n      tag_89\n      jump\t// in\n    tag_163:\n        /* \"#utility.yul\":5964:6418   */\n      swap4\n      swap3\n      pop\n      pop\n      pop\n      jump\t// out\n        /* \"#utility.yul\":6424:6541   */\n    tag_90:\n        /* \"#utility.yul\":6533:6534   */\n      0x00\n        /* \"#utility.yul\":6530:6531   */\n      dup1\n        /* \"#utility.yul\":6523:6535   */\n      revert\n        /* \"#utility.yul\":6547:6664   */\n    tag_91:\n        /* \"#utility.yul\":6656:6657   */\n      0x00\n        /* \"#utility.yul\":6653:6654   */\n      dup1\n        /* \"#utility.yul\":6646:6658   */\n      revert\n        /* \"#utility.yul\":6670:6787   */\n    tag_92:\n        /* \"#utility.yul\":6779:6780   */\n      0x00\n        /* \"#utility.yul\":6776:6777   */\n      dup1\n        /* \"#utility.yul\":6769:6781   */\n      revert\n        /* \"#utility.yul\":6810:7378   */\n    tag_93:\n        /* \"#utility.yul\":6883:6891   */\n      0x00\n        /* \"#utility.yul\":6893:6899   */\n      dup1\n        /* \"#utility.yul\":6943:6946   */\n      dup4\n        /* \"#utility.yul\":6936:6940   */\n      0x1f\n        /* \"#utility.yul\":6928:6934   */\n      dup5\n        /* \"#utility.yul\":6924:6941   */\n      add\n        /* \"#utility.yul\":6920:6947   */\n      slt\n        /* \"#utility.yul\":6910:7032   */\n      tag_168\n      jumpi\n        /* \"#utility.yul\":6951:7030   */\n      tag_169\n      tag_90\n      jump\t// in\n    tag_169:\n        /* \"#utility.yul\":6910:7032   */\n    tag_168:\n        /* \"#utility.yul\":7064:7070   */\n      dup3\n        /* \"#utility.yul\":7051:7071   */\n      calldataload\n        /* \"#utility.yul\":7041:7071   */\n      swap1\n      pop\n        /* \"#utility.yul\":7094:7112   */\n      0xffffffffffffffff\n        /* \"#utility.yul\":7086:7092   */\n      dup2\n        /* \"#utility.yul\":7083:7113   */\n      gt\n        /* \"#utility.yul\":7080:7197   */\n      iszero\n      tag_170\n      jumpi\n        /* \"#utility.yul\":7116:7195   */\n      tag_171\n      tag_91\n      jump\t// in\n    tag_171:\n        /* \"#utility.yul\":7080:7197   */\n    tag_170:\n        /* \"#utility.yul\":7230:7234   */\n      0x20\n        /* \"#utility.yul\":7222:7228   */\n      dup4\n        /* \"#utility.yul\":7218:7235   */\n      add\n        /* \"#utility.yul\":7206:7235   */\n      swap2\n      pop\n        /* \"#utility.yul\":7284:7287   */\n      dup4\n        /* \"#utility.yul\":7276:7280   */\n      0x20\n        /* \"#utility.yul\":7268:7274   */\n      dup3\n        /* \"#utility.yul\":7264:7281   */\n      mul\n        /* \"#utility.yul\":7254:7262   */\n      dup4\n        /* \"#utility.yul\":7250:7282   */\n      add\n        /* \"#utility.yul\":7247:7288   */\n      gt\n        /* \"#utility.yul\":7244:7372   */\n      iszero\n      tag_172\n      jumpi\n        /* \"#utility.yul\":7291:7370   */\n      tag_173\n      tag_92\n      jump\t// in\n    tag_173:\n        /* \"#utility.yul\":7244:7372   */\n    tag_172:\n        /* \"#utility.yul\":6810:7378   */\n      swap3\n      pop\n      swap3\n      swap1\n      pop\n      jump\t// out\n        /* \"#utility.yul\":7384:7943   */\n    tag_31:\n        /* \"#utility.yul\":7470:7476   */\n      0x00\n        /* \"#utility.yul\":7478:7484   */\n      dup1\n        /* \"#utility.yul\":7527:7529   */\n      0x20\n        /* \"#utility.yul\":7515:7524   */\n      dup4\n        /* \"#utility.yul\":7506:7513   */\n      dup6\n        /* \"#utility.yul\":7502:7525   */\n      sub\n        /* \"#utility.yul\":7498:7530   */\n      slt\n        /* \"#utility.yul\":7495:7614   */\n      iszero\n      tag_175\n      jumpi\n        /* \"#utility.yul\":7533:7612   */\n      tag_176\n      tag_66\n      jump\t// in\n    tag_176:\n        /* \"#utility.yul\":7495:7614   */\n    tag_175:\n        /* \"#utility.yul\":7681:7682   */\n      0x00\n        /* \"#utility.yul\":7670:7679   */\n      dup4\n        /* \"#utility.yul\":7666:7683   */\n      add\n        /* \"#utility.yul\":7653:7684   */\n      calldataload\n        /* \"#utility.yul\":7711:7729   */\n      0xffffffffffffffff\n        /* \"#utility.yul\":7703:7709   */\n      dup2\n        /* \"#utility.yul\":7700:7730   */\n      gt\n        /* \"#utility.yul\":7697:7814   */\n      iszero\n      tag_177\n      jumpi\n        /* \"#utility.yul\":7733:7812   */\n      tag_178\n      tag_67\n      jump\t// in\n    tag_178:\n        /* \"#utility.yul\":7697:7814   */\n    tag_177:\n        /* \"#utility.yul\":7846:7926   */\n      tag_179\n        /* \"#utility.yul\":7918:7925   */\n      dup6\n        /* \"#utility.yul\":7909:7915   */\n      dup3\n        /* \"#utility.yul\":7898:7907   */\n      dup7\n        /* \"#utility.yul\":7894:7916   */\n      add\n        /* \"#utility.yul\":7846:7926   */\n      tag_93\n      jump\t// in\n    tag_179:\n        /* \"#utility.yul\":7828:7926   */\n      swap3\n      pop\n      swap3\n      pop\n        /* \"#utility.yul\":7624:7936   */\n      pop\n        /* \"#utility.yul\":7384:7943   */\n      swap3\n      pop\n      swap3\n      swap1\n      pop\n      jump\t// out\n        /* \"#utility.yul\":7949:8129   */\n    tag_38:\n        /* \"#utility.yul\":7997:8074   */\n      0x4e487b7100000000000000000000000000000000000000000000000000000000\n        /* \"#utility.yul\":7994:7995   */\n      0x00\n        /* \"#utility.yul\":7987:8075   */\n      mstore\n        /* \"#utility.yul\":8094:8098   */\n      0x21\n        /* \"#utility.yul\":8091:8092   */\n      0x04\n        /* \"#utility.yul\":8084:8099   */\n      mstore\n        /* \"#utility.yul\":8118:8122   */\n      0x24\n        /* \"#utility.yul\":8115:8116   */\n      0x00\n        /* \"#utility.yul\":8108:8123   */\n      revert\n        /* \"#utility.yul\":8135:8315   */\n    tag_44:\n        /* \"#utility.yul\":8183:8260   */\n      0x4e487b7100000000000000000000000000000000000000000000000000000000\n        /* \"#utility.yul\":8180:8181   */\n      0x00\n        /* \"#utility.yul\":8173:8261   */\n      mstore\n        /* \"#utility.yul\":8280:8284   */\n      0x32\n        /* \"#utility.yul\":8277:8278   */\n      0x04\n        /* \"#utility.yul\":8270:8285   */\n      mstore\n        /* \"#utility.yul\":8304:8308   */\n      0x24\n        /* \"#utility.yul\":8301:8302   */\n      0x00\n        /* \"#utility.yul\":8294:8309   */\n      revert\n        /* \"#utility.yul\":8321:8464   */\n    tag_94:\n        /* \"#utility.yul\":8378:8383   */\n      0x00\n        /* \"#utility.yul\":8409:8415   */\n      dup2\n        /* \"#utility.yul\":8403:8416   */\n      mload\n        /* \"#utility.yul\":8394:8416   */\n      swap1\n      pop\n        /* \"#utility.yul\":8425:8458   */\n      tag_183\n        /* \"#utility.yul\":8452:8457   */\n      dup2\n        /* \"#utility.yul\":8425:8458   */\n      tag_83\n      jump\t// in\n    tag_183:\n        /* \"#utility.yul\":8321:8464   */\n      swap3\n      swap2\n      pop\n      pop\n      jump\t// out\n        /* \"#utility.yul\":8470:8821   */\n    tag_55:\n        /* \"#utility.yul\":8540:8546   */\n      0x00\n        /* \"#utility.yul\":8589:8591   */\n      0x20\n        /* \"#utility.yul\":8577:8586   */\n      dup3\n        /* \"#utility.yul\":8568:8575   */\n      dup5\n        /* \"#utility.yul\":8564:8587   */\n      sub\n        /* \"#utility.yul\":8560:8592   */\n      slt\n        /* \"#utility.yul\":8557:8676   */\n      iszero\n      tag_185\n      jumpi\n        /* \"#utility.yul\":8595:8674   */\n      tag_186\n      tag_66\n      jump\t// in\n    tag_186:\n        /* \"#utility.yul\":8557:8676   */\n    tag_185:\n        /* \"#utility.yul\":8715:8716   */\n      0x00\n        /* \"#utility.yul\":8740:8804   */\n      tag_187\n        /* \"#utility.yul\":8796:8803   */\n      dup5\n        /* \"#utility.yul\":8787:8793   */\n      dup3\n        /* \"#utility.yul\":8776:8785   */\n      dup6\n        /* \"#utility.yul\":8772:8794   */\n      add\n        /* \"#utility.yul\":8740:8804   */\n      tag_94\n      jump\t// in\n    tag_187:\n        /* \"#utility.yul\":8730:8804   */\n      swap2\n      pop\n        /* \"#utility.yul\":8686:8814   */\n      pop\n        /* \"#utility.yul\":8470:8821   */\n      swap3\n      swap2\n      pop\n      pop\n      jump\t// out\n        /* \"#utility.yul\":8827:9007   */\n    tag_95:\n        /* \"#utility.yul\":8875:8952   */\n      0x4e487b7100000000000000000000000000000000000000000000000000000000\n        /* \"#utility.yul\":8872:8873   */\n      0x00\n        /* \"#utility.yul\":8865:8953   */\n      mstore\n        /* \"#utility.yul\":8972:8976   */\n      0x11\n        /* \"#utility.yul\":8969:8970   */\n      0x04\n        /* \"#utility.yul\":8962:8977   */\n      mstore\n        /* \"#utility.yul\":8996:9000   */\n      0x24\n        /* \"#utility.yul\":8993:8994   */\n      0x00\n        /* \"#utility.yul\":8986:9001   */\n      revert\n        /* \"#utility.yul\":9013:9246   */\n    tag_64:\n        /* \"#utility.yul\":9052:9055   */\n      0x00\n        /* \"#utility.yul\":9075:9099   */\n      tag_190\n        /* \"#utility.yul\":9093:9098   */\n      dup3\n        /* \"#utility.yul\":9075:9099   */\n      tag_68\n      jump\t// in\n    tag_190:\n        /* \"#utility.yul\":9066:9099   */\n      swap2\n      pop\n        /* \"#utility.yul\":9121:9187   */\n      0xffffffffffffffffffffffffffffffffffffffffffffffffffffffffffffffff\n        /* \"#utility.yul\":9114:9119   */\n      dup3\n        /* \"#utility.yul\":9111:9188   */\n      sub\n        /* \"#utility.yul\":9108:9211   */\n      tag_191\n      jumpi\n        /* \"#utility.yul\":9191:9209   */\n      tag_192\n      tag_95\n      jump\t// in\n    tag_192:\n        /* \"#utility.yul\":9108:9211   */\n    tag_191:\n        /* \"#utility.yul\":9238:9239   */\n      0x01\n        /* \"#utility.yul\":9231:9236   */\n      dup3\n        /* \"#utility.yul\":9227:9240   */\n      add\n        /* \"#utility.yul\":9220:9240   */\n      swap1\n      pop\n        /* \"#utility.yul\":9013:9246   */\n      swap2\n      swap1\n      pop\n      jump\t// out\n\n    auxdata: 0xa264697066735822122011dc0a4d2104f135632ada85f1731592e89fae304794ffe41dc069eb5f76a1db64736f6c63430008120033\n}\n",
				"bytecode": {
					"linkReferences": {},
					"object": "608060405234801561001057600080fd5b50610868806100206000396000f3fe608060405234801561001057600080fd5b50600436106100575760003560e01c80630b7914301461005c57806339ebfa171461008c578063546477b6146100a8578063b0a3b693146100d8578063dbb32a2714610109575b600080fd5b610076600480360381019061007191906103c5565b610125565b604051610083919061040b565b60405180910390f35b6100a660048036038101906100a19190610516565b610149565b005b6100c260048036038101906100bd9190610586565b6101d5565b6040516100cf919061040b565b60405180910390f35b6100f260048036038101906100ed91906105b3565b6102df565b60405161010092919061064c565b60405180910390f35b610123600480360381019061011e91906106ce565b61031d565b005b6001818154811061013557600080fd5b906000526020600020016000915090505481565b81816000808660038111156101615761016061071b565b5b60038111156101735761017261071b565b5b815260200190815260200160002060006101000a81548177ffffffffffffffffffffffffffffffffffffffffffffffff02191690848463ffffffff169073ffffffffffffffffffffffffffffffffffffffff1660201b17021790555050505050565b600080826000602081106101ec576101eb61074a565b5b1a60f81b60f81c60ff1660038111156102085761020761071b565b5b90506000806000808460038111156102235761022261071b565b5b60038111156102355761023461071b565b5b815260200190815260200160002060009054906101000a90048060201c73ffffffffffffffffffffffffffffffffffffffff169063ffffffff16915091508181866040518263ffffffff1660e01b8152600401610292919061040b565b6020604051808303816000875af11580156102b1573d6000803e3d6000fd5b505050506040513d601f19601f820116820180604052508101906102d5919061078e565b9350505050919050565b60006020528060005260406000206000915054906101000a90048060201c73ffffffffffffffffffffffffffffffffffffffff169063ffffffff1682565b60005b828290508110156103805760018383838181106103405761033f61074a565b5b9050602002013590806001815401808255809150506001900390600052602060002001600090919091909150558080610378906107ea565b915050610320565b505050565b600080fd5b600080fd5b6000819050919050565b6103a28161038f565b81146103ad57600080fd5b50565b6000813590506103bf81610399565b92915050565b6000602082840312156103db576103da610385565b5b60006103e9848285016103b0565b91505092915050565b6000819050919050565b610405816103f2565b82525050565b600060208201905061042060008301846103fc565b92915050565b6004811061043357600080fd5b50565b60008135905061044581610426565b92915050565b60007fffffffffffffffffffffffffffffffffffffffffffffffff000000000000000082169050919050565b60006104828261044b565b9050919050565b61049281610477565b811461049d57600080fd5b50565b6000813590506104af81610489565b92915050565b60008160201c9050919050565b60008160401c9050919050565b6000806104db836104c2565b925063ffffffff831690506104ef836104b5565b9150915091565b60008061050b61050685856104a0565b6104cf565b915091509250929050565b60008060006040848603121561052f5761052e610385565b5b600061053d86828701610436565b935050602061054e868287016104f6565b92509250509250925092565b610563816103f2565b811461056e57600080fd5b50565b6000813590506105808161055a565b92915050565b60006020828403121561059c5761059b610385565b5b60006105aa84828501610571565b91505092915050565b6000602082840312156105c9576105c8610385565b5b60006105d784828501610436565b91505092915050565b60008160201b9050919050565b60008160401b9050919050565b600061061563ffffffff841661060f846105e0565b176105ed565b905092915050565b6000808291508390509250929050565b610637828261061d565b9250905061064582826105fa565b8352505050565b600060208201905061066260008301848661062d565b9392505050565b600080fd5b600080fd5b600080fd5b60008083601f84011261068e5761068d610669565b5b8235905067ffffffffffffffff8111156106ab576106aa61066e565b5b6020830191508360208202830111156106c7576106c6610673565b5b9250929050565b600080602083850312156106e5576106e4610385565b5b600083013567ffffffffffffffff8111156107035761070261038a565b5b61070f85828601610678565b92509250509250929050565b7f4e487b7100000000000000000000000000000000000000000000000000000000600052602160045260246000fd5b7f4e487b7100000000000000000000000000000000000000000000000000000000600052603260045260246000fd5b6000815190506107888161055a565b92915050565b6000602082840312156107a4576107a3610385565b5b60006107b284828501610779565b91505092915050565b7f4e487b7100000000000000000000000000000000000000000000000000000000600052601160045260246000fd5b60006107f58261038f565b91507fffffffffffffffffffffffffffffffffffffffffffffffffffffffffffffffff8203610827576108266107bb565b5b60018201905091905056fea264697066735822122011dc0a4d2104f135632ada85f1731592e89fae304794ffe41dc069eb5f76a1db64736f6c63430008120033",
					"opcodes": "PUSH1 0x80 PUSH1 0x40 MSTORE CALLVALUE DUP1 ISZERO PUSH2 0x10 JUMPI PUSH1 0x0 DUP1 REVERT JUMPDEST POP PUSH2 0x868 DUP1 PUSH2 0x20 PUSH1 0x0 CODECOPY PUSH1 0x0 RETURN INVALID PUSH1 0x80 PUSH1 0x40 MSTORE CALLVALUE DUP1 ISZERO PUSH2 0x10 JUMPI PUSH1 0x0 DUP1 REVERT JUMPDEST POP PUSH1 0x4 CALLDATASIZE LT PUSH2 0x57 JUMPI PUSH1 0x0 CALLDATALOAD PUSH1 0xE0 SHR DUP1 PUSH4 0xB791430 EQ PUSH2 0x5C JUMPI DUP1 PUSH4 0x39EBFA17 EQ PUSH2 0x8C JUMPI DUP1 PUSH4 0x546477B6 EQ PUSH2 0xA8 JUMPI DUP1 PUSH4 0xB0A3B693 EQ PUSH2 0xD8 JUMPI DUP1 PUSH4 0xDBB32A27 EQ PUSH2 0x109 JUMPI JUMPDEST PUSH1 0x0 DUP1 REVERT JUMPDEST PUSH2 0x76 PUSH1 0x4 DUP1 CALLDATASIZE SUB DUP2 ADD SWAP1 PUSH2 0x71 SWAP2 SWAP1 PUSH2 0x3C5 JUMP JUMPDEST PUSH2 0x125 JUMP JUMPDEST PUSH1 0x40 MLOAD PUSH2 0x83 SWAP2 SWAP1 PUSH2 0x40B JUMP JUMPDEST PUSH1 0x40 MLOAD DUP1 SWAP2 SUB SWAP1 RETURN JUMPDEST PUSH2 0xA6 PUSH1 0x4 DUP1 CALLDATASIZE SUB DUP2 ADD SWAP1 PUSH2 0xA1 SWAP2 SWAP1 PUSH2 0x516 JUMP JUMPDEST PUSH2 0x149 JUMP JUMPDEST STOP JUMPDEST PUSH2 0xC2 PUSH1 0x4 DUP1 CALLDATASIZE SUB DUP2 ADD SWAP1 PUSH2 0xBD SWAP2 SWAP1 PUSH2 0x586 JUMP JUMPDEST PUSH2 0x1D5 JUMP JUMPDEST PUSH1 0x40 MLOAD PUSH2 0xCF SWAP2 SWAP1 PUSH2 0x40B JUMP JUMPDEST PUSH1 0x40 MLOAD DUP1 SWAP2 SUB SWAP1 RETURN JUMPDEST PUSH2 0xF2 PUSH1 0x4 DUP1 CALLDATASIZE SUB DUP2 ADD SWAP1 PUSH2 0xED SWAP2 SWAP1 PUSH2 0x5B3 JUMP JUMPDEST PUSH2 0x2DF JUMP JUMPDEST PUSH1 0x40 MLOAD PUSH2 0x100 SWAP3 SWAP2 SWAP1 PUSH2 0x64C JUMP JUMPDEST PUSH1 0x40 MLOAD DUP1 SWAP2 SUB SWAP1 RETURN JUMPDEST PUSH2 0x123 PUSH1 0x4 DUP1 CALLDATASIZE SUB DUP2 ADD SWAP1 PUSH2 0x11E SWAP2 SWAP1 PUSH2 0x6CE JUMP JUMPDEST PUSH2 0x31D JUMP JUMPDEST STOP JUMPDEST PUSH1 0x1 DUP2 DUP2 SLOAD DUP2 LT PUSH2 0x135 JUMPI PUSH1 0x0 DUP1 REVERT JUMPDEST SWAP1 PUSH1 0x0 MSTORE PUSH1 0x20 PUSH1 0x0 KECCAK256 ADD PUSH1 0x0 SWAP2 POP SWAP1 POP SLOAD DUP2 JUMP JUMPDEST DUP2 DUP2 PUSH1 0x0 DUP1 DUP7 PUSH1 0x3 DUP2 GT ISZERO PUSH2 0x161 JUMPI PUSH2 0x160 PUSH2 0x71B JUMP JUMPDEST JUMPDEST PUSH1 0x3 DUP2 GT ISZERO PUSH2 0x173 JUMPI PUSH2 0x172 PUSH2 0x71B JUMP JUMPDEST JUMPDEST DUP2 MSTORE PUSH1 0x20 ADD SWAP1 DUP2 MSTORE PUSH1 0x20 ADD PUSH1 0x0 KECCAK256 PUSH1 0x0 PUSH2 0x100 EXP DUP2 SLOAD DUP2 PUSH24 0xFFFFFFFFFFFFFFFFFFFFFFFFFFFFFFFFFFFFFFFFFFFFFFFF MUL NOT AND SWAP1 DUP5 DUP5 PUSH4 0xFFFFFFFF AND SWAP1 PUSH20 0xFFFFFFFFFFFFFFFFFFFFFFFFFFFFFFFFFFFFFFFF AND PUSH1 0x20 SHL OR MUL OR SWAP1 SSTORE POP POP POP POP POP JUMP JUMPDEST PUSH1 0x0 DUP1 DUP3 PUSH1 0x0 PUSH1 0x20 DUP2 LT PUSH2 0x1EC JUMPI PUSH2 0x1EB PUSH2 0x74A JUMP JUMPDEST JUMPDEST BYTE PUSH1 0xF8 SHL PUSH1 0xF8 SHR PUSH1 0xFF AND PUSH1 0x3 DUP2 GT ISZERO PUSH2 0x208 JUMPI PUSH2 0x207 PUSH2 0x71B JUMP JUMPDEST JUMPDEST SWAP1 POP PUSH1 0x0 DUP1 PUSH1 0x0 DUP1 DUP5 PUSH1 0x3 DUP2 GT ISZERO PUSH2 0x223 JUMPI PUSH2 0x222 PUSH2 0x71B JUMP JUMPDEST JUMPDEST PUSH1 0x3 DUP2 GT ISZERO PUSH2 0x235 JUMPI PUSH2 0x234 PUSH2 0x71B JUMP JUMPDEST JUMPDEST DUP2 MSTORE PUSH1 0x20 ADD SWAP1 DUP2 MSTORE PUSH1 0x20 ADD PUSH1 0x0 KECCAK256 PUSH1 0x0 SWAP1 SLOAD SWAP1 PUSH2 0x100 EXP SWAP1 DIV DUP1 PUSH1 0x20 SHR PUSH20 0xFFFFFFFFFFFFFFFFFFFFFFFFFFFFFFFFFFFFFFFF AND SWAP1 PUSH4 0xFFFFFFFF AND SWAP2 POP SWAP2 POP DUP2 DUP2 DUP7 PUSH1 0x40 MLOAD DUP3 PUSH4 0xFFFFFFFF AND PUSH1 0xE0 SHL DUP2 MSTORE PUSH1 0x4 ADD PUSH2 0x292 SWAP2 SWAP1 PUSH2 0x40B JUMP JUMPDEST PUSH1 0x20 PUSH1 0x40 MLOAD DUP1 DUP4 SUB DUP2 PUSH1 0x0 DUP8 GAS CALL ISZERO DUP1 ISZERO PUSH2 0x2B1 JUMPI RETURNDATASIZE PUSH1 0x0 DUP1 RETURNDATACOPY RETURNDATASIZE PUSH1 0x0 REVERT JUMPDEST POP POP POP POP PUSH1 0x40 MLOAD RETURNDATASIZE PUSH1 0x1F NOT PUSH1 0x1F DUP3 ADD AND DUP3 ADD DUP1 PUSH1 0x40 MSTORE POP DUP2 ADD SWAP1 PUSH2 0x2D5 SWAP2 SWAP1 PUSH2 0x78E JUMP JUMPDEST SWAP4 POP POP POP POP SWAP2 SWAP1 POP JUMP JUMPDEST PUSH1 0x0 PUSH1 0x20 MSTORE DUP1 PUSH1 0x0 MSTORE PUSH1 0x40 PUSH1 0x0 KECCAK256 PUSH1 0x0 SWAP2 POP SLOAD SWAP1 PUSH2 0x100 EXP SWAP1 DIV DUP1 PUSH1 0x20 SHR PUSH20 0xFFFFFFFFFFFFFFFFFFFFFFFFFFFFFFFFFFFFFFFF AND SWAP1 PUSH4 0xFFFFFFFF AND DUP3 JUMP JUMPDEST PUSH1 0x0 JUMPDEST DUP3 DUP3 SWAP1 POP DUP2 LT ISZERO PUSH2 0x380 JUMPI PUSH1 0x1 DUP4 DUP4 DUP4 DUP2 DUP2 LT PUSH2 0x340 JUMPI PUSH2 0x33F PUSH2 0x74A JUMP JUMPDEST JUMPDEST SWAP1 POP PUSH1 0x20 MUL ADD CALLDATALOAD SWAP1 DUP1 PUSH1 0x1 DUP2 SLOAD ADD DUP1 DUP3 SSTORE DUP1 SWAP2 POP POP PUSH1 0x1 SWAP1 SUB SWAP1 PUSH1 0x0 MSTORE PUSH1 0x20 PUSH1 0x0 KECCAK256 ADD PUSH1 0x0 SWAP1 SWAP2 SWAP1 SWAP2 SWAP1 SWAP2 POP SSTORE DUP1 DUP1 PUSH2 0x378 SWAP1 PUSH2 0x7EA JUMP JUMPDEST SWAP2 POP POP PUSH2 0x320 JUMP JUMPDEST POP POP POP JUMP JUMPDEST PUSH1 0x0 DUP1 REVERT JUMPDEST PUSH1 0x0 DUP1 REVERT JUMPDEST PUSH1 0x0 DUP2 SWAP1 POP SWAP2 SWAP1 POP JUMP JUMPDEST PUSH2 0x3A2 DUP2 PUSH2 0x38F JUMP JUMPDEST DUP2 EQ PUSH2 0x3AD JUMPI PUSH1 0x0 DUP1 REVERT JUMPDEST POP JUMP JUMPDEST PUSH1 0x0 DUP2 CALLDATALOAD SWAP1 POP PUSH2 0x3BF DUP2 PUSH2 0x399 JUMP JUMPDEST SWAP3 SWAP2 POP POP JUMP JUMPDEST PUSH1 0x0 PUSH1 0x20 DUP3 DUP5 SUB SLT ISZERO PUSH2 0x3DB JUMPI PUSH2 0x3DA PUSH2 0x385 JUMP JUMPDEST JUMPDEST PUSH1 0x0 PUSH2 0x3E9 DUP5 DUP3 DUP6 ADD PUSH2 0x3B0 JUMP JUMPDEST SWAP2 POP POP SWAP3 SWAP2 POP POP JUMP JUMPDEST PUSH1 0x0 DUP2 SWAP1 POP SWAP2 SWAP1 POP JUMP JUMPDEST PUSH2 0x405 DUP2 PUSH2 0x3F2 JUMP JUMPDEST DUP3 MSTORE POP POP JUMP JUMPDEST PUSH1 0x0 PUSH1 0x20 DUP3 ADD SWAP1 POP PUSH2 0x420 PUSH1 0x0 DUP4 ADD DUP5 PUSH2 0x3FC JUMP JUMPDEST SWAP3 SWAP2 POP POP JUMP JUMPDEST PUSH1 0x4 DUP2 LT PUSH2 0x433 JUMPI PUSH1 0x0 DUP1 REVERT JUMPDEST POP JUMP JUMPDEST PUSH1 0x0 DUP2 CALLDATALOAD SWAP1 POP PUSH2 0x445 DUP2 PUSH2 0x426 JUMP JUMPDEST SWAP3 SWAP2 POP POP JUMP JUMPDEST PUSH1 0x0 PUSH32 0xFFFFFFFFFFFFFFFFFFFFFFFFFFFFFFFFFFFFFFFFFFFFFFFF0000000000000000 DUP3 AND SWAP1 POP SWAP2 SWAP1 POP JUMP JUMPDEST PUSH1 0x0 PUSH2 0x482 DUP3 PUSH2 0x44B JUMP JUMPDEST SWAP1 POP SWAP2 SWAP1 POP JUMP JUMPDEST PUSH2 0x492 DUP2 PUSH2 0x477 JUMP JUMPDEST DUP2 EQ PUSH2 0x49D JUMPI PUSH1 0x0 DUP1 REVERT JUMPDEST POP JUMP JUMPDEST PUSH1 0x0 DUP2 CALLDATALOAD SWAP1 POP PUSH2 0x4AF DUP2 PUSH2 0x489 JUMP JUMPDEST SWAP3 SWAP2 POP POP JUMP JUMPDEST PUSH1 0x0 DUP2 PUSH1 0x20 SHR SWAP1 POP SWAP2 SWAP1 POP JUMP JUMPDEST PUSH1 0x0 DUP2 PUSH1 0x40 SHR SWAP1 POP SWAP2 SWAP1 POP JUMP JUMPDEST PUSH1 0x0 DUP1 PUSH2 0x4DB DUP4 PUSH2 0x4C2 JUMP JUMPDEST SWAP3 POP PUSH4 0xFFFFFFFF DUP4 AND SWAP1 POP PUSH2 0x4EF DUP4 PUSH2 0x4B5 JUMP JUMPDEST SWAP2 POP SWAP2 POP SWAP2 JUMP JUMPDEST PUSH1 0x0 DUP1 PUSH2 0x50B PUSH2 0x506 DUP6 DUP6 PUSH2 0x4A0 JUMP JUMPDEST PUSH2 0x4CF JUMP JUMPDEST SWAP2 POP SWAP2 POP SWAP3 POP SWAP3 SWAP1 POP JUMP JUMPDEST PUSH1 0x0 DUP1 PUSH1 0x0 PUSH1 0x40 DUP5 DUP7 SUB SLT ISZERO PUSH2 0x52F JUMPI PUSH2 0x52E PUSH2 0x385 JUMP JUMPDEST JUMPDEST PUSH1 0x0 PUSH2 0x53D DUP7 DUP3 DUP8 ADD PUSH2 0x436 JUMP JUMPDEST SWAP4 POP POP PUSH1 0x20 PUSH2 0x54E DUP7 DUP3 DUP8 ADD PUSH2 0x4F6 JUMP JUMPDEST SWAP3 POP SWAP3 POP POP SWAP3 POP SWAP3 POP SWAP3 JUMP JUMPDEST PUSH2 0x563 DUP2 PUSH2 0x3F2 JUMP JUMPDEST DUP2 EQ PUSH2 0x56E JUMPI PUSH1 0x0 DUP1 REVERT JUMPDEST POP JUMP JUMPDEST PUSH1 0x0 DUP2 CALLDATALOAD SWAP1 POP PUSH2 0x580 DUP2 PUSH2 0x55A JUMP JUMPDEST SWAP3 SWAP2 POP POP JUMP JUMPDEST PUSH1 0x0 PUSH1 0x20 DUP3 DUP5 SUB SLT ISZERO PUSH2 0x59C JUMPI PUSH2 0x59B PUSH2 0x385 JUMP JUMPDEST JUMPDEST PUSH1 0x0 PUSH2 0x5AA DUP5 DUP3 DUP6 ADD PUSH2 0x571 JUMP JUMPDEST SWAP2 POP POP SWAP3 SWAP2 POP POP JUMP JUMPDEST PUSH1 0x0 PUSH1 0x20 DUP3 DUP5 SUB SLT ISZERO PUSH2 0x5C9 JUMPI PUSH2 0x5C8 PUSH2 0x385 JUMP JUMPDEST JUMPDEST PUSH1 0x0 PUSH2 0x5D7 DUP5 DUP3 DUP6 ADD PUSH2 0x436 JUMP JUMPDEST SWAP2 POP POP SWAP3 SWAP2 POP POP JUMP JUMPDEST PUSH1 0x0 DUP2 PUSH1 0x20 SHL SWAP1 POP SWAP2 SWAP1 POP JUMP JUMPDEST PUSH1 0x0 DUP2 PUSH1 0x40 SHL SWAP1 POP SWAP2 SWAP1 POP JUMP JUMPDEST PUSH1 0x0 PUSH2 0x615 PUSH4 0xFFFFFFFF DUP5 AND PUSH2 0x60F DUP5 PUSH2 0x5E0 JUMP JUMPDEST OR PUSH2 0x5ED JUMP JUMPDEST SWAP1 POP SWAP3 SWAP2 POP POP JUMP JUMPDEST PUSH1 0x0 DUP1 DUP3 SWAP2 POP DUP4 SWAP1 POP SWAP3 POP SWAP3 SWAP1 POP JUMP JUMPDEST PUSH2 0x637 DUP3 DUP3 PUSH2 0x61D JUMP JUMPDEST SWAP3 POP SWAP1 POP PUSH2 0x645 DUP3 DUP3 PUSH2 0x5FA JUMP JUMPDEST DUP4 MSTORE POP POP POP JUMP JUMPDEST PUSH1 0x0 PUSH1 0x20 DUP3 ADD SWAP1 POP PUSH2 0x662 PUSH1 0x0 DUP4 ADD DUP5 DUP7 PUSH2 0x62D JUMP JUMPDEST SWAP4 SWAP3 POP POP POP JUMP JUMPDEST PUSH1 0x0 DUP1 REVERT JUMPDEST PUSH1 0x0 DUP1 REVERT JUMPDEST PUSH1 0x0 DUP1 REVERT JUMPDEST PUSH1 0x0 DUP1 DUP4 PUSH1 0x1F DUP5 ADD SLT PUSH2 0x68E JUMPI PUSH2 0x68D PUSH2 0x669 JUMP JUMPDEST JUMPDEST DUP3 CALLDATALOAD SWAP1 POP PUSH8 0xFFFFFFFFFFFFFFFF DUP2 GT ISZERO PUSH2 0x6AB JUMPI PUSH2 0x6AA PUSH2 0x66E JUMP JUMPDEST JUMPDEST PUSH1 0x20 DUP4 ADD SWAP2 POP DUP4 PUSH1 0x20 DUP3 MUL DUP4 ADD GT ISZERO PUSH2 0x6C7 JUMPI PUSH2 0x6C6 PUSH2 0x673 JUMP JUMPDEST JUMPDEST SWAP3 POP SWAP3 SWAP1 POP JUMP JUMPDEST PUSH1 0x0 DUP1 PUSH1 0x20 DUP4 DUP6 SUB SLT ISZERO PUSH2 0x6E5 JUMPI PUSH2 0x6E4 PUSH2 0x385 JUMP JUMPDEST JUMPDEST PUSH1 0x0 DUP4 ADD CALLDATALOAD PUSH8 0xFFFFFFFFFFFFFFFF DUP2 GT ISZERO PUSH2 0x703 JUMPI PUSH2 0x702 PUSH2 0x38A JUMP JUMPDEST JUMPDEST PUSH2 0x70F DUP6 DUP3 DUP7 ADD PUSH2 0x678 JUMP JUMPDEST SWAP3 POP SWAP3 POP POP SWAP3 POP SWAP3 SWAP1 POP JUMP JUMPDEST PUSH32 0x4E487B7100000000000000000000000000000000000000000000000000000000 PUSH1 0x0 MSTORE PUSH1 0x21 PUSH1 0x4 MSTORE PUSH1 0x24 PUSH1 0x0 REVERT JUMPDEST PUSH32 0x4E487B7100000000000000000000000000000000000000000000000000000000 PUSH1 0x0 MSTORE PUSH1 0x32 PUSH1 0x4 MSTORE PUSH1 0x24 PUSH1 0x0 REVERT JUMPDEST PUSH1 0x0 DUP2 MLOAD SWAP1 POP PUSH2 0x788 DUP2 PUSH2 0x55A JUMP JUMPDEST SWAP3 SWAP2 POP POP JUMP JUMPDEST PUSH1 0x0 PUSH1 0x20 DUP3 DUP5 SUB SLT ISZERO PUSH2 0x7A4 JUMPI PUSH2 0x7A3 PUSH2 0x385 JUMP JUMPDEST JUMPDEST PUSH1 0x0 PUSH2 0x7B2 DUP5 DUP3 DUP6 ADD PUSH2 0x779 JUMP JUMPDEST SWAP2 POP POP SWAP3 SWAP2 POP POP JUMP JUMPDEST PUSH32 0x4E487B7100000000000000000000000000000000000000000000000000000000 PUSH1 0x0 MSTORE PUSH1 0x11 PUSH1 0x4 MSTORE PUSH1 0x24 PUSH1 0x0 REVERT JUMPDEST PUSH1 0x0 PUSH2 0x7F5 DUP3 PUSH2 0x38F JUMP JUMPDEST SWAP2 POP PUSH32 0xFFFFFFFFFFFFFFFFFFFFFFFFFFFFFFFFFFFFFFFFFFFFFFFFFFFFFFFFFFFFFFFF DUP3 SUB PUSH2 0x827 JUMPI PUSH2 0x826 PUSH2 0x7BB JUMP JUMPDEST JUMPDEST PUSH1 0x1 DUP3 ADD SWAP1 POP SWAP2 SWAP1 POP JUMP INVALID LOG2 PUSH5 0x6970667358 0x22 SLT KECCAK256 GT 0xDC EXP 0x4D 0x21 DIV CALL CALLDATALOAD PUSH4 0x2ADA85F1 PUSH20 0x1592E89FAE304794FFE41DC069EB5F76A1DB6473 PUSH16 0x6C634300081200330000000000000000 "
				},
				"gasEstimates": {
					"creation": {
						"codeDepositCost": "430400",
						"executionCost": "468",
						"totalCost": "430868"
					},
					"external": {
						"addEvent(bytes32[])": "infinite",
						"addParser(uint8,function)": "25243",
						"events(uint256)": "4860",
						"parseEvent(bytes32)": "infinite",
						"parsers(uint8)": "3009"
					}
				},
				"methodIdentifiers": {
					"addEvent(bytes32[])": "dbb32a27",
					"addParser(uint8,function)": "39ebfa17",
					"events(uint256)": "0b791430",
					"parseEvent(bytes32)": "546477b6",
					"parsers(uint8)": "b0a3b693"
				}
			},
			"storageLayout": {
				"storage": [
					{
						"astId": 17,
						"contract": "contracts/eventParser.sol:EventParser",
						"label": "parsers",
						"offset": 0,
						"slot": "0",
						"type": "t_mapping(t_enum(EventType)6,t_function_external_nonpayable(t_bytes32)returns(t_bytes32))"
					},
					{
						"astId": 20,
						"contract": "contracts/eventParser.sol:EventParser",
						"label": "events",
						"offset": 0,
						"slot": "1",
						"type": "t_array(t_bytes32)dyn_storage"
					}
				],
				"types": {
					"t_array(t_bytes32)dyn_storage": {
						"base": "t_bytes32",
						"encoding": "dynamic_array",
						"label": "bytes32[]",
						"numberOfBytes": "32"
					},
					"t_bytes32": {
						"encoding": "inplace",
						"label": "bytes32",
						"numberOfBytes": "32"
					},
					"t_enum(EventType)6": {
						"encoding": "inplace",
						"label": "enum EventParser.EventType",
						"numberOfBytes": "1"
					},
					"t_function_external_nonpayable(t_bytes32)returns(t_bytes32)": {
						"encoding": "inplace",
						"label": "function (bytes32) external returns (bytes32)",
						"numberOfBytes": "24"
					},
					"t_mapping(t_enum(EventType)6,t_function_external_nonpayable(t_bytes32)returns(t_bytes32))": {
						"encoding": "mapping",
						"key": "t_enum(EventType)6",
						"label": "mapping(enum EventParser.EventType => function (bytes32) external returns (bytes32))",
						"numberOfBytes": "32",
						"value": "t_function_external_nonpayable(t_bytes32)returns(t_bytes32)"
					}
				}
			},
			"userdoc": {
				"kind": "user",
				"methods": {},
				"version": 1
			}
		}
	}
}