{
	"contracts/eventTransactionRecord.sol": {
		"TransactionContract": {
			"abi": [
				{
					"inputs": [
						{
							"internalType": "string",
							"name": "_eventId",
							"type": "string"
						},
						{
							"internalType": "int256",
							"name": "_EP001",
							"type": "int256"
						},
						{
							"internalType": "int256",
							"name": "_EP002",
							"type": "int256"
						},
						{
							"internalType": "int256",
							"name": "_EP003",
							"type": "int256"
						},
						{
							"internalType": "int256",
							"name": "_EP005",
							"type": "int256"
						}
					],
					"name": "E00010001",
					"outputs": [],
					"stateMutability": "nonpayable",
					"type": "function"
				},
				{
					"inputs": [
						{
							"internalType": "string",
							"name": "_eventId",
							"type": "string"
						},
						{
							"internalType": "int256",
							"name": "_EP001",
							"type": "int256"
						},
						{
							"internalType": "int256",
							"name": "_EP002",
							"type": "int256"
						},
						{
							"internalType": "int256",
							"name": "_EP003",
							"type": "int256"
						},
						{
							"internalType": "int256",
							"name": "_EP005",
							"type": "int256"
						}
					],
					"name": "E00010002",
					"outputs": [],
					"stateMutability": "nonpayable",
					"type": "function"
				},
				{
					"inputs": [
						{
							"internalType": "string",
							"name": "_eventId",
							"type": "string"
						},
						{
							"internalType": "int256",
							"name": "_EP001",
							"type": "int256"
						},
						{
							"internalType": "int256",
							"name": "_EP002",
							"type": "int256"
						},
						{
							"internalType": "int256",
							"name": "_EP003",
							"type": "int256"
						},
						{
							"internalType": "int256",
							"name": "_EP005",
							"type": "int256"
						}
					],
					"name": "E00010003",
					"outputs": [],
					"stateMutability": "nonpayable",
					"type": "function"
				},
				{
					"inputs": [
						{
							"internalType": "string",
							"name": "_eventId",
							"type": "string"
						},
						{
							"internalType": "int256",
							"name": "_EP001",
							"type": "int256"
						},
						{
							"internalType": "int256",
							"name": "_EP002",
							"type": "int256"
						},
						{
							"internalType": "int256",
							"name": "_EP003",
							"type": "int256"
						},
						{
							"internalType": "int256",
							"name": "_EP004",
							"type": "int256"
						},
						{
							"internalType": "int256",
							"name": "_EP006",
							"type": "int256"
						},
						{
							"internalType": "int256",
							"name": "_EP007",
							"type": "int256"
						}
					],
					"name": "E00010004",
					"outputs": [],
					"stateMutability": "nonpayable",
					"type": "function"
				},
				{
					"inputs": [
						{
							"internalType": "string",
							"name": "_eventId",
							"type": "string"
						},
						{
							"internalType": "int256",
							"name": "_EP001",
							"type": "int256"
						},
						{
							"internalType": "int256",
							"name": "_EP002",
							"type": "int256"
						},
						{
							"internalType": "int256",
							"name": "_EP003",
							"type": "int256"
						},
						{
							"internalType": "int256",
							"name": "_EP004",
							"type": "int256"
						},
						{
							"internalType": "int256",
							"name": "_EP006",
							"type": "int256"
						}
					],
					"name": "E00010005",
					"outputs": [],
					"stateMutability": "nonpayable",
					"type": "function"
				},
				{
					"inputs": [
						{
							"internalType": "string",
							"name": "_eventId",
							"type": "string"
						},
						{
							"internalType": "int256",
							"name": "_EP001",
							"type": "int256"
						},
						{
							"internalType": "int256",
							"name": "_EP002",
							"type": "int256"
						},
						{
							"internalType": "int256",
							"name": "_EP003",
							"type": "int256"
						},
						{
							"internalType": "int256",
							"name": "_EP004",
							"type": "int256"
						},
						{
							"internalType": "int256",
							"name": "_EP006",
							"type": "int256"
						}
					],
					"name": "E00010006",
					"outputs": [],
					"stateMutability": "nonpayable",
					"type": "function"
				},
				{
					"inputs": [
						{
							"internalType": "string",
							"name": "_eventId",
							"type": "string"
						},
						{
							"internalType": "int256",
							"name": "_EP001",
							"type": "int256"
						},
						{
							"internalType": "int256",
							"name": "_EP002",
							"type": "int256"
						},
						{
							"internalType": "int256",
							"name": "_BTC",
							"type": "int256"
						},
						{
							"internalType": "int256",
							"name": "_USDT",
							"type": "int256"
						}
					],
					"name": "E00020001",
					"outputs": [],
					"stateMutability": "nonpayable",
					"type": "function"
				},
				{
					"inputs": [
						{
							"internalType": "string",
							"name": "_eventId",
							"type": "string"
						}
					],
					"name": "getTransaction",
					"outputs": [
						{
							"internalType": "string",
							"name": "",
							"type": "string"
						},
						{
							"internalType": "string",
							"name": "",
							"type": "string"
						},
						{
							"internalType": "address",
							"name": "",
							"type": "address"
						}
					],
					"stateMutability": "view",
					"type": "function"
				},
				{
					"inputs": [
						{
							"internalType": "uint256",
							"name": "index",
							"type": "uint256"
						}
					],
					"name": "getTransactionEventId",
					"outputs": [
						{
							"internalType": "string",
							"name": "",
							"type": "string"
						}
					],
					"stateMutability": "view",
					"type": "function"
				},
				{
					"inputs": [
						{
							"internalType": "uint256",
							"name": "index",
							"type": "uint256"
						},
						{
							"internalType": "string",
							"name": "paramKey",
							"type": "string"
						}
					],
					"name": "getTransactionParam",
					"outputs": [
						{
							"internalType": "int256",
							"name": "",
							"type": "int256"
						}
					],
					"stateMutability": "view",
					"type": "function"
				},
				{
					"inputs": [
						{
							"internalType": "string",
							"name": "_eventId",
							"type": "string"
						},
						{
							"internalType": "string",
							"name": "_paramKey",
							"type": "string"
						}
					],
					"name": "getTransactionParamByEventId",
					"outputs": [
						{
							"internalType": "int256",
							"name": "",
							"type": "int256"
						}
					],
					"stateMutability": "view",
					"type": "function"
				},
				{
					"inputs": [
						{
							"internalType": "uint256",
							"name": "index",
							"type": "uint256"
						}
					],
					"name": "getTransactionType",
					"outputs": [
						{
							"internalType": "string",
							"name": "",
							"type": "string"
						}
					],
					"stateMutability": "view",
					"type": "function"
				},
				{
					"inputs": [],
					"name": "getTransactionsCount",
					"outputs": [
						{
							"internalType": "uint256",
							"name": "",
							"type": "uint256"
						}
					],
					"stateMutability": "view",
					"type": "function"
				},
				{
					"inputs": [
						{
							"internalType": "uint256",
							"name": "",
							"type": "uint256"
						}
					],
					"name": "transactions",
					"outputs": [
						{
							"internalType": "string",
							"name": "transactionType",
							"type": "string"
						},
						{
							"internalType": "string",
							"name": "eventId",
							"type": "string"
						},
						{
							"internalType": "address",
							"name": "Recorder",
							"type": "address"
						}
					],
					"stateMutability": "view",
					"type": "function"
				}
			],
			"devdoc": {
				"kind": "dev",
				"methods": {},
				"version": 1
			},
			"evm": {
				"assembly": "    /* \"contracts/eventTransactionRecord.sol\":58:6604  contract TransactionContract {... */\n  mstore(0x40, 0x80)\n  callvalue\n  dup1\n  iszero\n  tag_1\n  jumpi\n  0x00\n  dup1\n  revert\ntag_1:\n  pop\n  dataSize(sub_0)\n  dup1\n  dataOffset(sub_0)\n  0x00\n  codecopy\n  0x00\n  return\nstop\n\nsub_0: assembly {\n        /* \"contracts/eventTransactionRecord.sol\":58:6604  contract TransactionContract {... */\n      mstore(0x40, 0x80)\n      callvalue\n      dup1\n      iszero\n      tag_1\n      jumpi\n      0x00\n      dup1\n      revert\n    tag_1:\n      pop\n      jumpi(tag_2, lt(calldatasize, 0x04))\n      shr(0xe0, calldataload(0x00))\n      dup1\n      0x9ace38c2\n      gt\n      tag_17\n      jumpi\n      dup1\n      0xb89da5ab\n      gt\n      tag_18\n      jumpi\n      dup1\n      0xb89da5ab\n      eq\n      tag_13\n      jumpi\n      dup1\n      0xc902284b\n      eq\n      tag_14\n      jumpi\n      dup1\n      0xd6fa22b9\n      eq\n      tag_15\n      jumpi\n      dup1\n      0xe09576f0\n      eq\n      tag_16\n      jumpi\n      jump(tag_2)\n    tag_18:\n      dup1\n      0x9ace38c2\n      eq\n      tag_10\n      jumpi\n      dup1\n      0x9b4e3420\n      eq\n      tag_11\n      jumpi\n      dup1\n      0xac2ccd07\n      eq\n      tag_12\n      jumpi\n      jump(tag_2)\n    tag_17:\n      dup1\n      0x5e97c344\n      gt\n      tag_19\n      jumpi\n      dup1\n      0x5e97c344\n      eq\n      tag_6\n      jumpi\n      dup1\n      0x67105efd\n      eq\n      tag_7\n      jumpi\n      dup1\n      0x8d187245\n      eq\n      tag_8\n      jumpi\n      dup1\n      0x9110293c\n      eq\n      tag_9\n      jumpi\n      jump(tag_2)\n    tag_19:\n      dup1\n      0x16a6054e\n      eq\n      tag_3\n      jumpi\n      dup1\n      0x578cb8f9\n      eq\n      tag_4\n      jumpi\n      dup1\n      0x57ac5e3c\n      eq\n      tag_5\n      jumpi\n    tag_2:\n      0x00\n      dup1\n      revert\n        /* \"contracts/eventTransactionRecord.sol\":3007:3709  function E00010005(string memory _eventId, int256 _EP001, int256 _EP002, int256 _EP003, int256 _EP004, int256 _EP006) public {... */\n    tag_3:\n      tag_20\n      0x04\n      dup1\n      calldatasize\n      sub\n      dup2\n      add\n      swap1\n      tag_21\n      swap2\n      swap1\n      tag_22\n      jump\t// in\n    tag_21:\n      tag_23\n      jump\t// in\n    tag_20:\n      stop\n        /* \"contracts/eventTransactionRecord.sol\":5791:5896  function getTransactionsCount() public view returns (uint256) {... */\n    tag_4:\n      tag_24\n      tag_25\n      jump\t// in\n    tag_24:\n      mload(0x40)\n      tag_26\n      swap2\n      swap1\n      tag_27\n      jump\t// in\n    tag_26:\n      mload(0x40)\n      dup1\n      swap2\n      sub\n      swap1\n      return\n        /* \"contracts/eventTransactionRecord.sol\":944:1585  function E00010002(string memory _eventId, int256 _EP001, int256 _EP002, int256 _EP003, int256 _EP005) public {... */\n    tag_5:\n      tag_28\n      0x04\n      dup1\n      calldatasize\n      sub\n      dup2\n      add\n      swap1\n      tag_29\n      swap2\n      swap1\n      tag_30\n      jump\t// in\n    tag_29:\n      tag_31\n      jump\t// in\n    tag_28:\n      stop\n        /* \"contracts/eventTransactionRecord.sol\":2238:3001  function E00010004(string memory _eventId, int256 _EP001, int256 _EP002, int256 _EP003, int256 _EP004, int256 _EP006, int256 _EP007) public {... */\n    tag_6:\n      tag_32\n      0x04\n      dup1\n      calldatasize\n      sub\n      dup2\n      add\n      swap1\n      tag_33\n      swap2\n      swap1\n      tag_34\n      jump\t// in\n    tag_33:\n      tag_35\n      jump\t// in\n    tag_32:\n      stop\n        /* \"contracts/eventTransactionRecord.sol\":3715:4415  function E00010006(string memory _eventId, int256 _EP001, int256 _EP002, int256 _EP003,int256 _EP004, int256 _EP006) public {... */\n    tag_7:\n      tag_36\n      0x04\n      dup1\n      calldatasize\n      sub\n      dup2\n      add\n      swap1\n      tag_37\n      swap2\n      swap1\n      tag_22\n      jump\t// in\n    tag_37:\n      tag_38\n      jump\t// in\n    tag_36:\n      stop\n        /* \"contracts/eventTransactionRecord.sol\":1591:2232  function E00010003(string memory _eventId, int256 _EP001, int256 _EP002, int256 _EP003, int256 _EP005) public {... */\n    tag_8:\n      tag_39\n      0x04\n      dup1\n      calldatasize\n      sub\n      dup2\n      add\n      swap1\n      tag_40\n      swap2\n      swap1\n      tag_30\n      jump\t// in\n    tag_40:\n      tag_41\n      jump\t// in\n    tag_39:\n      stop\n        /* \"contracts/eventTransactionRecord.sol\":4421:5052  function E00020001(string memory _eventId, int256 _EP001, int256 _EP002, int256 _BTC, int256 _USDT) public {... */\n    tag_9:\n      tag_42\n      0x04\n      dup1\n      calldatasize\n      sub\n      dup2\n      add\n      swap1\n      tag_43\n      swap2\n      swap1\n      tag_30\n      jump\t// in\n    tag_43:\n      tag_44\n      jump\t// in\n    tag_42:\n      stop\n        /* \"contracts/eventTransactionRecord.sol\":257:290  Transaction[] public transactions */\n    tag_10:\n      tag_45\n      0x04\n      dup1\n      calldatasize\n      sub\n      dup2\n      add\n      swap1\n      tag_46\n      swap2\n      swap1\n      tag_47\n      jump\t// in\n    tag_46:\n      tag_48\n      jump\t// in\n    tag_45:\n      mload(0x40)\n      tag_49\n      swap4\n      swap3\n      swap2\n      swap1\n      tag_50\n      jump\t// in\n    tag_49:\n      mload(0x40)\n      dup1\n      swap2\n      sub\n      swap1\n      return\n        /* \"contracts/eventTransactionRecord.sol\":6046:6179  function getTransactionEventId(uint256 index) public view returns (string memory) {... */\n    tag_11:\n      tag_51\n      0x04\n      dup1\n      calldatasize\n      sub\n      dup2\n      add\n      swap1\n      tag_52\n      swap2\n      swap1\n      tag_47\n      jump\t// in\n    tag_52:\n      tag_53\n      jump\t// in\n    tag_51:\n      mload(0x40)\n      tag_54\n      swap2\n      swap1\n      tag_55\n      jump\t// in\n    tag_54:\n      mload(0x40)\n      dup1\n      swap2\n      sub\n      swap1\n      return\n        /* \"contracts/eventTransactionRecord.sol\":5062:5381  function getTransaction(string memory _eventId) public view returns (string memory, string memory, address) {... */\n    tag_12:\n      tag_56\n      0x04\n      dup1\n      calldatasize\n      sub\n      dup2\n      add\n      swap1\n      tag_57\n      swap2\n      swap1\n      tag_58\n      jump\t// in\n    tag_57:\n      tag_59\n      jump\t// in\n    tag_56:\n      mload(0x40)\n      tag_60\n      swap4\n      swap3\n      swap2\n      swap1\n      tag_50\n      jump\t// in\n    tag_60:\n      mload(0x40)\n      dup1\n      swap2\n      sub\n      swap1\n      return\n        /* \"contracts/eventTransactionRecord.sol\":6185:6342  function getTransactionParam(uint256 index, string memory paramKey) public view returns (int256) {... */\n    tag_13:\n      tag_61\n      0x04\n      dup1\n      calldatasize\n      sub\n      dup2\n      add\n      swap1\n      tag_62\n      swap2\n      swap1\n      tag_63\n      jump\t// in\n    tag_62:\n      tag_64\n      jump\t// in\n    tag_61:\n      mload(0x40)\n      tag_65\n      swap2\n      swap1\n      tag_66\n      jump\t// in\n    tag_65:\n      mload(0x40)\n      dup1\n      swap2\n      sub\n      swap1\n      return\n        /* \"contracts/eventTransactionRecord.sol\":297:938  function E00010001(string memory _eventId, int256 _EP001, int256 _EP002, int256 _EP003, int256 _EP005) public {... */\n    tag_14:\n      tag_67\n      0x04\n      dup1\n      calldatasize\n      sub\n      dup2\n      add\n      swap1\n      tag_68\n      swap2\n      swap1\n      tag_30\n      jump\t// in\n    tag_68:\n      tag_69\n      jump\t// in\n    tag_67:\n      stop\n        /* \"contracts/eventTransactionRecord.sol\":6347:6585  function getTransactionParamByEventId(string memory _eventId, string memory _paramKey) public view returns (int256) {... */\n    tag_15:\n      tag_70\n      0x04\n      dup1\n      calldatasize\n      sub\n      dup2\n      add\n      swap1\n      tag_71\n      swap2\n      swap1\n      tag_72\n      jump\t// in\n    tag_71:\n      tag_73\n      jump\t// in\n    tag_70:\n      mload(0x40)\n      tag_74\n      swap2\n      swap1\n      tag_66\n      jump\t// in\n    tag_74:\n      mload(0x40)\n      dup1\n      swap2\n      sub\n      swap1\n      return\n        /* \"contracts/eventTransactionRecord.sol\":5902:6040  function getTransactionType(uint256 index) public view returns (string memory) {... */\n    tag_16:\n      tag_75\n      0x04\n      dup1\n      calldatasize\n      sub\n      dup2\n      add\n      swap1\n      tag_76\n      swap2\n      swap1\n      tag_47\n      jump\t// in\n    tag_76:\n      tag_77\n      jump\t// in\n    tag_75:\n      mload(0x40)\n      tag_78\n      swap2\n      swap1\n      tag_55\n      jump\t// in\n    tag_78:\n      mload(0x40)\n      dup1\n      swap2\n      sub\n      swap1\n      return\n        /* \"contracts/eventTransactionRecord.sol\":3007:3709  function E00010005(string memory _eventId, int256 _EP001, int256 _EP002, int256 _EP003, int256 _EP004, int256 _EP006) public {... */\n    tag_23:\n        /* \"contracts/eventTransactionRecord.sol\":3142:3155  uint256 index */\n      0x00\n        /* \"contracts/eventTransactionRecord.sol\":3158:3170  transactions */\n      dup1\n        /* \"contracts/eventTransactionRecord.sol\":3158:3177  transactions.length */\n      dup1\n      sload\n      swap1\n      pop\n        /* \"contracts/eventTransactionRecord.sol\":3142:3177  uint256 index = transactions.length */\n      swap1\n      pop\n        /* \"contracts/eventTransactionRecord.sol\":3187:3199  transactions */\n      0x00\n        /* \"contracts/eventTransactionRecord.sol\":3187:3206  transactions.push() */\n      0x01\n      dup2\n      0x01\n      dup2\n      sload\n      add\n      dup1\n      dup3\n      sstore\n      dup1\n      swap2\n      pop\n      pop\n      sub\n      swap1\n      0x00\n      mstore\n      keccak256(0x00, 0x20)\n      swap1\n      pop\n      pop\n        /* \"contracts/eventTransactionRecord.sol\":3216:3247  Transaction storage transaction */\n      0x00\n        /* \"contracts/eventTransactionRecord.sol\":3250:3262  transactions */\n      dup1\n        /* \"contracts/eventTransactionRecord.sol\":3263:3268  index */\n      dup3\n        /* \"contracts/eventTransactionRecord.sol\":3250:3269  transactions[index] */\n      dup2\n      sload\n      dup2\n      lt\n      tag_81\n      jumpi\n      tag_82\n      tag_83\n      jump\t// in\n    tag_82:\n    tag_81:\n      swap1\n      0x00\n      mstore\n      keccak256(0x00, 0x20)\n      swap1\n      0x04\n      mul\n      add\n        /* \"contracts/eventTransactionRecord.sol\":3216:3269  Transaction storage transaction = transactions[index] */\n      swap1\n      pop\n        /* \"contracts/eventTransactionRecord.sol\":3280:3321  transaction.transactionType = \"E00010005\" */\n      mload(0x40)\n      dup1\n      0x40\n      add\n      0x40\n      mstore\n      dup1\n      0x09\n      dup2\n      mstore\n      0x20\n      add\n      0x4530303031303030350000000000000000000000000000000000000000000000\n      dup2\n      mstore\n      pop\n        /* \"contracts/eventTransactionRecord.sol\":3280:3291  transaction */\n      dup2\n        /* \"contracts/eventTransactionRecord.sol\":3280:3307  transaction.transactionType */\n      0x00\n      add\n        /* \"contracts/eventTransactionRecord.sol\":3280:3321  transaction.transactionType = \"E00010005\" */\n      swap1\n      dup2\n      tag_85\n      swap2\n      swap1\n      tag_86\n      jump\t// in\n    tag_85:\n      pop\n        /* \"contracts/eventTransactionRecord.sol\":3353:3361  _eventId */\n      dup8\n        /* \"contracts/eventTransactionRecord.sol\":3331:3342  transaction */\n      dup2\n        /* \"contracts/eventTransactionRecord.sol\":3331:3350  transaction.eventId */\n      0x01\n      add\n        /* \"contracts/eventTransactionRecord.sol\":3331:3361  transaction.eventId = _eventId */\n      swap1\n      dup2\n      tag_87\n      swap2\n      swap1\n      tag_86\n      jump\t// in\n    tag_87:\n      pop\n        /* \"contracts/eventTransactionRecord.sol\":3394:3404  msg.sender */\n      caller\n        /* \"contracts/eventTransactionRecord.sol\":3371:3382  transaction */\n      dup2\n        /* \"contracts/eventTransactionRecord.sol\":3371:3391  transaction.Recorder */\n      0x02\n      add\n      0x00\n        /* \"contracts/eventTransactionRecord.sol\":3371:3404  transaction.Recorder = msg.sender */\n      0x0100\n      exp\n      dup2\n      sload\n      dup2\n      0xffffffffffffffffffffffffffffffffffffffff\n      mul\n      not\n      and\n      swap1\n      dup4\n      0xffffffffffffffffffffffffffffffffffffffff\n      and\n      mul\n      or\n      swap1\n      sstore\n      pop\n        /* \"contracts/eventTransactionRecord.sol\":3444:3450  _EP001 */\n      dup7\n        /* \"contracts/eventTransactionRecord.sol\":3414:3425  transaction */\n      dup2\n        /* \"contracts/eventTransactionRecord.sol\":3414:3432  transaction.params */\n      0x03\n      add\n        /* \"contracts/eventTransactionRecord.sol\":3414:3441  transaction.params[\"EP001\"] */\n      mload(0x40)\n      tag_88\n      swap1\n      tag_89\n      jump\t// in\n    tag_88:\n      swap1\n      dup2\n      mstore\n      0x20\n      add\n      mload(0x40)\n      dup1\n      swap2\n      sub\n      swap1\n      keccak256\n        /* \"contracts/eventTransactionRecord.sol\":3414:3450  transaction.params[\"EP001\"] = _EP001 */\n      dup2\n      swap1\n      sstore\n      pop\n        /* \"contracts/eventTransactionRecord.sol\":3490:3496  _EP002 */\n      dup6\n        /* \"contracts/eventTransactionRecord.sol\":3460:3471  transaction */\n      dup2\n        /* \"contracts/eventTransactionRecord.sol\":3460:3478  transaction.params */\n      0x03\n      add\n        /* \"contracts/eventTransactionRecord.sol\":3460:3487  transaction.params[\"EP002\"] */\n      mload(0x40)\n      tag_90\n      swap1\n      tag_91\n      jump\t// in\n    tag_90:\n      swap1\n      dup2\n      mstore\n      0x20\n      add\n      mload(0x40)\n      dup1\n      swap2\n      sub\n      swap1\n      keccak256\n        /* \"contracts/eventTransactionRecord.sol\":3460:3496  transaction.params[\"EP002\"] = _EP002 */\n      dup2\n      swap1\n      sstore\n      pop\n        /* \"contracts/eventTransactionRecord.sol\":3536:3542  _EP003 */\n      dup5\n        /* \"contracts/eventTransactionRecord.sol\":3506:3517  transaction */\n      dup2\n        /* \"contracts/eventTransactionRecord.sol\":3506:3524  transaction.params */\n      0x03\n      add\n        /* \"contracts/eventTransactionRecord.sol\":3506:3533  transaction.params[\"EP003\"] */\n      mload(0x40)\n      tag_92\n      swap1\n      tag_93\n      jump\t// in\n    tag_92:\n      swap1\n      dup2\n      mstore\n      0x20\n      add\n      mload(0x40)\n      dup1\n      swap2\n      sub\n      swap1\n      keccak256\n        /* \"contracts/eventTransactionRecord.sol\":3506:3542  transaction.params[\"EP003\"] = _EP003 */\n      dup2\n      swap1\n      sstore\n      pop\n        /* \"contracts/eventTransactionRecord.sol\":3582:3588  _EP004 */\n      dup4\n        /* \"contracts/eventTransactionRecord.sol\":3552:3563  transaction */\n      dup2\n        /* \"contracts/eventTransactionRecord.sol\":3552:3570  transaction.params */\n      0x03\n      add\n        /* \"contracts/eventTransactionRecord.sol\":3552:3579  transaction.params[\"EP004\"] */\n      mload(0x40)\n      tag_94\n      swap1\n      tag_95\n      jump\t// in\n    tag_94:\n      swap1\n      dup2\n      mstore\n      0x20\n      add\n      mload(0x40)\n      dup1\n      swap2\n      sub\n      swap1\n      keccak256\n        /* \"contracts/eventTransactionRecord.sol\":3552:3588  transaction.params[\"EP004\"] = _EP004 */\n      dup2\n      swap1\n      sstore\n      pop\n        /* \"contracts/eventTransactionRecord.sol\":3640:3655  block.timestamp */\n      timestamp\n        /* \"contracts/eventTransactionRecord.sol\":3598:3609  transaction */\n      dup2\n        /* \"contracts/eventTransactionRecord.sol\":3598:3616  transaction.params */\n      0x03\n      add\n        /* \"contracts/eventTransactionRecord.sol\":3598:3630  transaction.params[\"trans_time\"] */\n      mload(0x40)\n      tag_96\n      swap1\n      tag_97\n      jump\t// in\n    tag_96:\n      swap1\n      dup2\n      mstore\n      0x20\n      add\n      mload(0x40)\n      dup1\n      swap2\n      sub\n      swap1\n      keccak256\n        /* \"contracts/eventTransactionRecord.sol\":3598:3656  transaction.params[\"trans_time\"] = int256(block.timestamp) */\n      dup2\n      swap1\n      sstore\n      pop\n        /* \"contracts/eventTransactionRecord.sol\":3696:3702  _EP006 */\n      dup3\n        /* \"contracts/eventTransactionRecord.sol\":3666:3677  transaction */\n      dup2\n        /* \"contracts/eventTransactionRecord.sol\":3666:3684  transaction.params */\n      0x03\n      add\n        /* \"contracts/eventTransactionRecord.sol\":3666:3693  transaction.params[\"EP006\"] */\n      mload(0x40)\n      tag_98\n      swap1\n      tag_99\n      jump\t// in\n    tag_98:\n      swap1\n      dup2\n      mstore\n      0x20\n      add\n      mload(0x40)\n      dup1\n      swap2\n      sub\n      swap1\n      keccak256\n        /* \"contracts/eventTransactionRecord.sol\":3666:3702  transaction.params[\"EP006\"] = _EP006 */\n      dup2\n      swap1\n      sstore\n      pop\n        /* \"contracts/eventTransactionRecord.sol\":3132:3709  {... */\n      pop\n      pop\n        /* \"contracts/eventTransactionRecord.sol\":3007:3709  function E00010005(string memory _eventId, int256 _EP001, int256 _EP002, int256 _EP003, int256 _EP004, int256 _EP006) public {... */\n      pop\n      pop\n      pop\n      pop\n      pop\n      pop\n      jump\t// out\n        /* \"contracts/eventTransactionRecord.sol\":5791:5896  function getTransactionsCount() public view returns (uint256) {... */\n    tag_25:\n        /* \"contracts/eventTransactionRecord.sol\":5844:5851  uint256 */\n      0x00\n        /* \"contracts/eventTransactionRecord.sol\":5870:5882  transactions */\n      dup1\n        /* \"contracts/eventTransactionRecord.sol\":5870:5889  transactions.length */\n      dup1\n      sload\n      swap1\n      pop\n        /* \"contracts/eventTransactionRecord.sol\":5863:5889  return transactions.length */\n      swap1\n      pop\n        /* \"contracts/eventTransactionRecord.sol\":5791:5896  function getTransactionsCount() public view returns (uint256) {... */\n      swap1\n      jump\t// out\n        /* \"contracts/eventTransactionRecord.sol\":944:1585  function E00010002(string memory _eventId, int256 _EP001, int256 _EP002, int256 _EP003, int256 _EP005) public {... */\n    tag_31:\n        /* \"contracts/eventTransactionRecord.sol\":1064:1077  uint256 index */\n      0x00\n        /* \"contracts/eventTransactionRecord.sol\":1080:1092  transactions */\n      dup1\n        /* \"contracts/eventTransactionRecord.sol\":1080:1099  transactions.length */\n      dup1\n      sload\n      swap1\n      pop\n        /* \"contracts/eventTransactionRecord.sol\":1064:1099  uint256 index = transactions.length */\n      swap1\n      pop\n        /* \"contracts/eventTransactionRecord.sol\":1109:1121  transactions */\n      0x00\n        /* \"contracts/eventTransactionRecord.sol\":1109:1128  transactions.push() */\n      0x01\n      dup2\n      0x01\n      dup2\n      sload\n      add\n      dup1\n      dup3\n      sstore\n      dup1\n      swap2\n      pop\n      pop\n      sub\n      swap1\n      0x00\n      mstore\n      keccak256(0x00, 0x20)\n      swap1\n      pop\n      pop\n        /* \"contracts/eventTransactionRecord.sol\":1138:1169  Transaction storage transaction */\n      0x00\n        /* \"contracts/eventTransactionRecord.sol\":1172:1184  transactions */\n      dup1\n        /* \"contracts/eventTransactionRecord.sol\":1185:1190  index */\n      dup3\n        /* \"contracts/eventTransactionRecord.sol\":1172:1191  transactions[index] */\n      dup2\n      sload\n      dup2\n      lt\n      tag_103\n      jumpi\n      tag_104\n      tag_83\n      jump\t// in\n    tag_104:\n    tag_103:\n      swap1\n      0x00\n      mstore\n      keccak256(0x00, 0x20)\n      swap1\n      0x04\n      mul\n      add\n        /* \"contracts/eventTransactionRecord.sol\":1138:1191  Transaction storage transaction = transactions[index] */\n      swap1\n      pop\n        /* \"contracts/eventTransactionRecord.sol\":1202:1243  transaction.transactionType = \"E00010002\" */\n      mload(0x40)\n      dup1\n      0x40\n      add\n      0x40\n      mstore\n      dup1\n      0x09\n      dup2\n      mstore\n      0x20\n      add\n      0x4530303031303030320000000000000000000000000000000000000000000000\n      dup2\n      mstore\n      pop\n        /* \"contracts/eventTransactionRecord.sol\":1202:1213  transaction */\n      dup2\n        /* \"contracts/eventTransactionRecord.sol\":1202:1229  transaction.transactionType */\n      0x00\n      add\n        /* \"contracts/eventTransactionRecord.sol\":1202:1243  transaction.transactionType = \"E00010002\" */\n      swap1\n      dup2\n      tag_106\n      swap2\n      swap1\n      tag_86\n      jump\t// in\n    tag_106:\n      pop\n        /* \"contracts/eventTransactionRecord.sol\":1275:1283  _eventId */\n      dup7\n        /* \"contracts/eventTransactionRecord.sol\":1253:1264  transaction */\n      dup2\n        /* \"contracts/eventTransactionRecord.sol\":1253:1272  transaction.eventId */\n      0x01\n      add\n        /* \"contracts/eventTransactionRecord.sol\":1253:1283  transaction.eventId = _eventId */\n      swap1\n      dup2\n      tag_107\n      swap2\n      swap1\n      tag_86\n      jump\t// in\n    tag_107:\n      pop\n        /* \"contracts/eventTransactionRecord.sol\":1316:1326  msg.sender */\n      caller\n        /* \"contracts/eventTransactionRecord.sol\":1293:1304  transaction */\n      dup2\n        /* \"contracts/eventTransactionRecord.sol\":1293:1313  transaction.Recorder */\n      0x02\n      add\n      0x00\n        /* \"contracts/eventTransactionRecord.sol\":1293:1326  transaction.Recorder = msg.sender */\n      0x0100\n      exp\n      dup2\n      sload\n      dup2\n      0xffffffffffffffffffffffffffffffffffffffff\n      mul\n      not\n      and\n      swap1\n      dup4\n      0xffffffffffffffffffffffffffffffffffffffff\n      and\n      mul\n      or\n      swap1\n      sstore\n      pop\n        /* \"contracts/eventTransactionRecord.sol\":1366:1372  _EP001 */\n      dup6\n        /* \"contracts/eventTransactionRecord.sol\":1336:1347  transaction */\n      dup2\n        /* \"contracts/eventTransactionRecord.sol\":1336:1354  transaction.params */\n      0x03\n      add\n        /* \"contracts/eventTransactionRecord.sol\":1336:1363  transaction.params[\"EP001\"] */\n      mload(0x40)\n      tag_108\n      swap1\n      tag_89\n      jump\t// in\n    tag_108:\n      swap1\n      dup2\n      mstore\n      0x20\n      add\n      mload(0x40)\n      dup1\n      swap2\n      sub\n      swap1\n      keccak256\n        /* \"contracts/eventTransactionRecord.sol\":1336:1372  transaction.params[\"EP001\"] = _EP001 */\n      dup2\n      swap1\n      sstore\n      pop\n        /* \"contracts/eventTransactionRecord.sol\":1412:1418  _EP002 */\n      dup5\n        /* \"contracts/eventTransactionRecord.sol\":1382:1393  transaction */\n      dup2\n        /* \"contracts/eventTransactionRecord.sol\":1382:1400  transaction.params */\n      0x03\n      add\n        /* \"contracts/eventTransactionRecord.sol\":1382:1409  transaction.params[\"EP002\"] */\n      mload(0x40)\n      tag_109\n      swap1\n      tag_91\n      jump\t// in\n    tag_109:\n      swap1\n      dup2\n      mstore\n      0x20\n      add\n      mload(0x40)\n      dup1\n      swap2\n      sub\n      swap1\n      keccak256\n        /* \"contracts/eventTransactionRecord.sol\":1382:1418  transaction.params[\"EP002\"] = _EP002 */\n      dup2\n      swap1\n      sstore\n      pop\n        /* \"contracts/eventTransactionRecord.sol\":1458:1464  _EP003 */\n      dup4\n        /* \"contracts/eventTransactionRecord.sol\":1428:1439  transaction */\n      dup2\n        /* \"contracts/eventTransactionRecord.sol\":1428:1446  transaction.params */\n      0x03\n      add\n        /* \"contracts/eventTransactionRecord.sol\":1428:1455  transaction.params[\"EP003\"] */\n      mload(0x40)\n      tag_110\n      swap1\n      tag_93\n      jump\t// in\n    tag_110:\n      swap1\n      dup2\n      mstore\n      0x20\n      add\n      mload(0x40)\n      dup1\n      swap2\n      sub\n      swap1\n      keccak256\n        /* \"contracts/eventTransactionRecord.sol\":1428:1464  transaction.params[\"EP003\"] = _EP003 */\n      dup2\n      swap1\n      sstore\n      pop\n        /* \"contracts/eventTransactionRecord.sol\":1516:1531  block.timestamp */\n      timestamp\n        /* \"contracts/eventTransactionRecord.sol\":1474:1485  transaction */\n      dup2\n        /* \"contracts/eventTransactionRecord.sol\":1474:1492  transaction.params */\n      0x03\n      add\n        /* \"contracts/eventTransactionRecord.sol\":1474:1506  transaction.params[\"trans_time\"] */\n      mload(0x40)\n      tag_111\n      swap1\n      tag_97\n      jump\t// in\n    tag_111:\n      swap1\n      dup2\n      mstore\n      0x20\n      add\n      mload(0x40)\n      dup1\n      swap2\n      sub\n      swap1\n      keccak256\n        /* \"contracts/eventTransactionRecord.sol\":1474:1532  transaction.params[\"trans_time\"] = int256(block.timestamp) */\n      dup2\n      swap1\n      sstore\n      pop\n        /* \"contracts/eventTransactionRecord.sol\":1572:1578  _EP005 */\n      dup3\n        /* \"contracts/eventTransactionRecord.sol\":1542:1553  transaction */\n      dup2\n        /* \"contracts/eventTransactionRecord.sol\":1542:1560  transaction.params */\n      0x03\n      add\n        /* \"contracts/eventTransactionRecord.sol\":1542:1569  transaction.params[\"EP005\"] */\n      mload(0x40)\n      tag_112\n      swap1\n      tag_113\n      jump\t// in\n    tag_112:\n      swap1\n      dup2\n      mstore\n      0x20\n      add\n      mload(0x40)\n      dup1\n      swap2\n      sub\n      swap1\n      keccak256\n        /* \"contracts/eventTransactionRecord.sol\":1542:1578  transaction.params[\"EP005\"] = _EP005 */\n      dup2\n      swap1\n      sstore\n      pop\n        /* \"contracts/eventTransactionRecord.sol\":1054:1585  {... */\n      pop\n      pop\n        /* \"contracts/eventTransactionRecord.sol\":944:1585  function E00010002(string memory _eventId, int256 _EP001, int256 _EP002, int256 _EP003, int256 _EP005) public {... */\n      pop\n      pop\n      pop\n      pop\n      pop\n      jump\t// out\n        /* \"contracts/eventTransactionRecord.sol\":2238:3001  function E00010004(string memory _eventId, int256 _EP001, int256 _EP002, int256 _EP003, int256 _EP004, int256 _EP006, int256 _EP007) public {... */\n    tag_35:\n        /* \"contracts/eventTransactionRecord.sol\":2388:2401  uint256 index */\n      0x00\n        /* \"contracts/eventTransactionRecord.sol\":2404:2416  transactions */\n      dup1\n        /* \"contracts/eventTransactionRecord.sol\":2404:2423  transactions.length */\n      dup1\n      sload\n      swap1\n      pop\n        /* \"contracts/eventTransactionRecord.sol\":2388:2423  uint256 index = transactions.length */\n      swap1\n      pop\n        /* \"contracts/eventTransactionRecord.sol\":2433:2445  transactions */\n      0x00\n        /* \"contracts/eventTransactionRecord.sol\":2433:2452  transactions.push() */\n      0x01\n      dup2\n      0x01\n      dup2\n      sload\n      add\n      dup1\n      dup3\n      sstore\n      dup1\n      swap2\n      pop\n      pop\n      sub\n      swap1\n      0x00\n      mstore\n      keccak256(0x00, 0x20)\n      swap1\n      pop\n      pop\n        /* \"contracts/eventTransactionRecord.sol\":2462:2493  Transaction storage transaction */\n      0x00\n        /* \"contracts/eventTransactionRecord.sol\":2496:2508  transactions */\n      dup1\n        /* \"contracts/eventTransactionRecord.sol\":2509:2514  index */\n      dup3\n        /* \"contracts/eventTransactionRecord.sol\":2496:2515  transactions[index] */\n      dup2\n      sload\n      dup2\n      lt\n      tag_116\n      jumpi\n      tag_117\n      tag_83\n      jump\t// in\n    tag_117:\n    tag_116:\n      swap1\n      0x00\n      mstore\n      keccak256(0x00, 0x20)\n      swap1\n      0x04\n      mul\n      add\n        /* \"contracts/eventTransactionRecord.sol\":2462:2515  Transaction storage transaction = transactions[index] */\n      swap1\n      pop\n        /* \"contracts/eventTransactionRecord.sol\":2526:2567  transaction.transactionType = \"E00010004\" */\n      mload(0x40)\n      dup1\n      0x40\n      add\n      0x40\n      mstore\n      dup1\n      0x09\n      dup2\n      mstore\n      0x20\n      add\n      0x4530303031303030340000000000000000000000000000000000000000000000\n      dup2\n      mstore\n      pop\n        /* \"contracts/eventTransactionRecord.sol\":2526:2537  transaction */\n      dup2\n        /* \"contracts/eventTransactionRecord.sol\":2526:2553  transaction.transactionType */\n      0x00\n      add\n        /* \"contracts/eventTransactionRecord.sol\":2526:2567  transaction.transactionType = \"E00010004\" */\n      swap1\n      dup2\n      tag_119\n      swap2\n      swap1\n      tag_86\n      jump\t// in\n    tag_119:\n      pop\n        /* \"contracts/eventTransactionRecord.sol\":2599:2607  _eventId */\n      dup9\n        /* \"contracts/eventTransactionRecord.sol\":2577:2588  transaction */\n      dup2\n        /* \"contracts/eventTransactionRecord.sol\":2577:2596  transaction.eventId */\n      0x01\n      add\n        /* \"contracts/eventTransactionRecord.sol\":2577:2607  transaction.eventId = _eventId */\n      swap1\n      dup2\n      tag_120\n      swap2\n      swap1\n      tag_86\n      jump\t// in\n    tag_120:\n      pop\n        /* \"contracts/eventTransactionRecord.sol\":2640:2650  msg.sender */\n      caller\n        /* \"contracts/eventTransactionRecord.sol\":2617:2628  transaction */\n      dup2\n        /* \"contracts/eventTransactionRecord.sol\":2617:2637  transaction.Recorder */\n      0x02\n      add\n      0x00\n        /* \"contracts/eventTransactionRecord.sol\":2617:2650  transaction.Recorder = msg.sender */\n      0x0100\n      exp\n      dup2\n      sload\n      dup2\n      0xffffffffffffffffffffffffffffffffffffffff\n      mul\n      not\n      and\n      swap1\n      dup4\n      0xffffffffffffffffffffffffffffffffffffffff\n      and\n      mul\n      or\n      swap1\n      sstore\n      pop\n        /* \"contracts/eventTransactionRecord.sol\":2690:2696  _EP001 */\n      dup8\n        /* \"contracts/eventTransactionRecord.sol\":2660:2671  transaction */\n      dup2\n        /* \"contracts/eventTransactionRecord.sol\":2660:2678  transaction.params */\n      0x03\n      add\n        /* \"contracts/eventTransactionRecord.sol\":2660:2687  transaction.params[\"EP001\"] */\n      mload(0x40)\n      tag_121\n      swap1\n      tag_89\n      jump\t// in\n    tag_121:\n      swap1\n      dup2\n      mstore\n      0x20\n      add\n      mload(0x40)\n      dup1\n      swap2\n      sub\n      swap1\n      keccak256\n        /* \"contracts/eventTransactionRecord.sol\":2660:2696  transaction.params[\"EP001\"] = _EP001 */\n      dup2\n      swap1\n      sstore\n      pop\n        /* \"contracts/eventTransactionRecord.sol\":2736:2742  _EP002 */\n      dup7\n        /* \"contracts/eventTransactionRecord.sol\":2706:2717  transaction */\n      dup2\n        /* \"contracts/eventTransactionRecord.sol\":2706:2724  transaction.params */\n      0x03\n      add\n        /* \"contracts/eventTransactionRecord.sol\":2706:2733  transaction.params[\"EP002\"] */\n      mload(0x40)\n      tag_122\n      swap1\n      tag_91\n      jump\t// in\n    tag_122:\n      swap1\n      dup2\n      mstore\n      0x20\n      add\n      mload(0x40)\n      dup1\n      swap2\n      sub\n      swap1\n      keccak256\n        /* \"contracts/eventTransactionRecord.sol\":2706:2742  transaction.params[\"EP002\"] = _EP002 */\n      dup2\n      swap1\n      sstore\n      pop\n        /* \"contracts/eventTransactionRecord.sol\":2782:2788  _EP003 */\n      dup6\n        /* \"contracts/eventTransactionRecord.sol\":2752:2763  transaction */\n      dup2\n        /* \"contracts/eventTransactionRecord.sol\":2752:2770  transaction.params */\n      0x03\n      add\n        /* \"contracts/eventTransactionRecord.sol\":2752:2779  transaction.params[\"EP003\"] */\n      mload(0x40)\n      tag_123\n      swap1\n      tag_93\n      jump\t// in\n    tag_123:\n      swap1\n      dup2\n      mstore\n      0x20\n      add\n      mload(0x40)\n      dup1\n      swap2\n      sub\n      swap1\n      keccak256\n        /* \"contracts/eventTransactionRecord.sol\":2752:2788  transaction.params[\"EP003\"] = _EP003 */\n      dup2\n      swap1\n      sstore\n      pop\n        /* \"contracts/eventTransactionRecord.sol\":2828:2834  _EP004 */\n      dup5\n        /* \"contracts/eventTransactionRecord.sol\":2798:2809  transaction */\n      dup2\n        /* \"contracts/eventTransactionRecord.sol\":2798:2816  transaction.params */\n      0x03\n      add\n        /* \"contracts/eventTransactionRecord.sol\":2798:2825  transaction.params[\"EP004\"] */\n      mload(0x40)\n      tag_124\n      swap1\n      tag_95\n      jump\t// in\n    tag_124:\n      swap1\n      dup2\n      mstore\n      0x20\n      add\n      mload(0x40)\n      dup1\n      swap2\n      sub\n      swap1\n      keccak256\n        /* \"contracts/eventTransactionRecord.sol\":2798:2834  transaction.params[\"EP004\"] = _EP004 */\n      dup2\n      swap1\n      sstore\n      pop\n        /* \"contracts/eventTransactionRecord.sol\":2886:2901  block.timestamp */\n      timestamp\n        /* \"contracts/eventTransactionRecord.sol\":2844:2855  transaction */\n      dup2\n        /* \"contracts/eventTransactionRecord.sol\":2844:2862  transaction.params */\n      0x03\n      add\n        /* \"contracts/eventTransactionRecord.sol\":2844:2876  transaction.params[\"trans_time\"] */\n      mload(0x40)\n      tag_125\n      swap1\n      tag_97\n      jump\t// in\n    tag_125:\n      swap1\n      dup2\n      mstore\n      0x20\n      add\n      mload(0x40)\n      dup1\n      swap2\n      sub\n      swap1\n      keccak256\n        /* \"contracts/eventTransactionRecord.sol\":2844:2902  transaction.params[\"trans_time\"] = int256(block.timestamp) */\n      dup2\n      swap1\n      sstore\n      pop\n        /* \"contracts/eventTransactionRecord.sol\":2942:2948  _EP006 */\n      dup4\n        /* \"contracts/eventTransactionRecord.sol\":2912:2923  transaction */\n      dup2\n        /* \"contracts/eventTransactionRecord.sol\":2912:2930  transaction.params */\n      0x03\n      add\n        /* \"contracts/eventTransactionRecord.sol\":2912:2939  transaction.params[\"EP006\"] */\n      mload(0x40)\n      tag_126\n      swap1\n      tag_99\n      jump\t// in\n    tag_126:\n      swap1\n      dup2\n      mstore\n      0x20\n      add\n      mload(0x40)\n      dup1\n      swap2\n      sub\n      swap1\n      keccak256\n        /* \"contracts/eventTransactionRecord.sol\":2912:2948  transaction.params[\"EP006\"] = _EP006 */\n      dup2\n      swap1\n      sstore\n      pop\n        /* \"contracts/eventTransactionRecord.sol\":2988:2994  _EP007 */\n      dup3\n        /* \"contracts/eventTransactionRecord.sol\":2958:2969  transaction */\n      dup2\n        /* \"contracts/eventTransactionRecord.sol\":2958:2976  transaction.params */\n      0x03\n      add\n        /* \"contracts/eventTransactionRecord.sol\":2958:2985  transaction.params[\"EP007\"] */\n      mload(0x40)\n      tag_127\n      swap1\n      tag_128\n      jump\t// in\n    tag_127:\n      swap1\n      dup2\n      mstore\n      0x20\n      add\n      mload(0x40)\n      dup1\n      swap2\n      sub\n      swap1\n      keccak256\n        /* \"contracts/eventTransactionRecord.sol\":2958:2994  transaction.params[\"EP007\"] = _EP007 */\n      dup2\n      swap1\n      sstore\n      pop\n        /* \"contracts/eventTransactionRecord.sol\":2378:3001  {... */\n      pop\n      pop\n        /* \"contracts/eventTransactionRecord.sol\":2238:3001  function E00010004(string memory _eventId, int256 _EP001, int256 _EP002, int256 _EP003, int256 _EP004, int256 _EP006, int256 _EP007) public {... */\n      pop\n      pop\n      pop\n      pop\n      pop\n      pop\n      pop\n      jump\t// out\n        /* \"contracts/eventTransactionRecord.sol\":3715:4415  function E00010006(string memory _eventId, int256 _EP001, int256 _EP002, int256 _EP003,int256 _EP004, int256 _EP006) public {... */\n    tag_38:\n        /* \"contracts/eventTransactionRecord.sol\":3848:3861  uint256 index */\n      0x00\n        /* \"contracts/eventTransactionRecord.sol\":3864:3876  transactions */\n      dup1\n        /* \"contracts/eventTransactionRecord.sol\":3864:3883  transactions.length */\n      dup1\n      sload\n      swap1\n      pop\n        /* \"contracts/eventTransactionRecord.sol\":3848:3883  uint256 index = transactions.length */\n      swap1\n      pop\n        /* \"contracts/eventTransactionRecord.sol\":3893:3905  transactions */\n      0x00\n        /* \"contracts/eventTransactionRecord.sol\":3893:3912  transactions.push() */\n      0x01\n      dup2\n      0x01\n      dup2\n      sload\n      add\n      dup1\n      dup3\n      sstore\n      dup1\n      swap2\n      pop\n      pop\n      sub\n      swap1\n      0x00\n      mstore\n      keccak256(0x00, 0x20)\n      swap1\n      pop\n      pop\n        /* \"contracts/eventTransactionRecord.sol\":3922:3953  Transaction storage transaction */\n      0x00\n        /* \"contracts/eventTransactionRecord.sol\":3956:3968  transactions */\n      dup1\n        /* \"contracts/eventTransactionRecord.sol\":3969:3974  index */\n      dup3\n        /* \"contracts/eventTransactionRecord.sol\":3956:3975  transactions[index] */\n      dup2\n      sload\n      dup2\n      lt\n      tag_131\n      jumpi\n      tag_132\n      tag_83\n      jump\t// in\n    tag_132:\n    tag_131:\n      swap1\n      0x00\n      mstore\n      keccak256(0x00, 0x20)\n      swap1\n      0x04\n      mul\n      add\n        /* \"contracts/eventTransactionRecord.sol\":3922:3975  Transaction storage transaction = transactions[index] */\n      swap1\n      pop\n        /* \"contracts/eventTransactionRecord.sol\":3986:4027  transaction.transactionType = \"E00010005\" */\n      mload(0x40)\n      dup1\n      0x40\n      add\n      0x40\n      mstore\n      dup1\n      0x09\n      dup2\n      mstore\n      0x20\n      add\n      0x4530303031303030350000000000000000000000000000000000000000000000\n      dup2\n      mstore\n      pop\n        /* \"contracts/eventTransactionRecord.sol\":3986:3997  transaction */\n      dup2\n        /* \"contracts/eventTransactionRecord.sol\":3986:4013  transaction.transactionType */\n      0x00\n      add\n        /* \"contracts/eventTransactionRecord.sol\":3986:4027  transaction.transactionType = \"E00010005\" */\n      swap1\n      dup2\n      tag_134\n      swap2\n      swap1\n      tag_86\n      jump\t// in\n    tag_134:\n      pop\n        /* \"contracts/eventTransactionRecord.sol\":4059:4067  _eventId */\n      dup8\n        /* \"contracts/eventTransactionRecord.sol\":4037:4048  transaction */\n      dup2\n        /* \"contracts/eventTransactionRecord.sol\":4037:4056  transaction.eventId */\n      0x01\n      add\n        /* \"contracts/eventTransactionRecord.sol\":4037:4067  transaction.eventId = _eventId */\n      swap1\n      dup2\n      tag_135\n      swap2\n      swap1\n      tag_86\n      jump\t// in\n    tag_135:\n      pop\n        /* \"contracts/eventTransactionRecord.sol\":4100:4110  msg.sender */\n      caller\n        /* \"contracts/eventTransactionRecord.sol\":4077:4088  transaction */\n      dup2\n        /* \"contracts/eventTransactionRecord.sol\":4077:4097  transaction.Recorder */\n      0x02\n      add\n      0x00\n        /* \"contracts/eventTransactionRecord.sol\":4077:4110  transaction.Recorder = msg.sender */\n      0x0100\n      exp\n      dup2\n      sload\n      dup2\n      0xffffffffffffffffffffffffffffffffffffffff\n      mul\n      not\n      and\n      swap1\n      dup4\n      0xffffffffffffffffffffffffffffffffffffffff\n      and\n      mul\n      or\n      swap1\n      sstore\n      pop\n        /* \"contracts/eventTransactionRecord.sol\":4150:4156  _EP001 */\n      dup7\n        /* \"contracts/eventTransactionRecord.sol\":4120:4131  transaction */\n      dup2\n        /* \"contracts/eventTransactionRecord.sol\":4120:4138  transaction.params */\n      0x03\n      add\n        /* \"contracts/eventTransactionRecord.sol\":4120:4147  transaction.params[\"EP001\"] */\n      mload(0x40)\n      tag_136\n      swap1\n      tag_89\n      jump\t// in\n    tag_136:\n      swap1\n      dup2\n      mstore\n      0x20\n      add\n      mload(0x40)\n      dup1\n      swap2\n      sub\n      swap1\n      keccak256\n        /* \"contracts/eventTransactionRecord.sol\":4120:4156  transaction.params[\"EP001\"] = _EP001 */\n      dup2\n      swap1\n      sstore\n      pop\n        /* \"contracts/eventTransactionRecord.sol\":4196:4202  _EP002 */\n      dup6\n        /* \"contracts/eventTransactionRecord.sol\":4166:4177  transaction */\n      dup2\n        /* \"contracts/eventTransactionRecord.sol\":4166:4184  transaction.params */\n      0x03\n      add\n        /* \"contracts/eventTransactionRecord.sol\":4166:4193  transaction.params[\"EP002\"] */\n      mload(0x40)\n      tag_137\n      swap1\n      tag_91\n      jump\t// in\n    tag_137:\n      swap1\n      dup2\n      mstore\n      0x20\n      add\n      mload(0x40)\n      dup1\n      swap2\n      sub\n      swap1\n      keccak256\n        /* \"contracts/eventTransactionRecord.sol\":4166:4202  transaction.params[\"EP002\"] = _EP002 */\n      dup2\n      swap1\n      sstore\n      pop\n        /* \"contracts/eventTransactionRecord.sol\":4242:4248  _EP003 */\n      dup5\n        /* \"contracts/eventTransactionRecord.sol\":4212:4223  transaction */\n      dup2\n        /* \"contracts/eventTransactionRecord.sol\":4212:4230  transaction.params */\n      0x03\n      add\n        /* \"contracts/eventTransactionRecord.sol\":4212:4239  transaction.params[\"EP003\"] */\n      mload(0x40)\n      tag_138\n      swap1\n      tag_93\n      jump\t// in\n    tag_138:\n      swap1\n      dup2\n      mstore\n      0x20\n      add\n      mload(0x40)\n      dup1\n      swap2\n      sub\n      swap1\n      keccak256\n        /* \"contracts/eventTransactionRecord.sol\":4212:4248  transaction.params[\"EP003\"] = _EP003 */\n      dup2\n      swap1\n      sstore\n      pop\n        /* \"contracts/eventTransactionRecord.sol\":4288:4294  _EP004 */\n      dup4\n        /* \"contracts/eventTransactionRecord.sol\":4258:4269  transaction */\n      dup2\n        /* \"contracts/eventTransactionRecord.sol\":4258:4276  transaction.params */\n      0x03\n      add\n        /* \"contracts/eventTransactionRecord.sol\":4258:4285  transaction.params[\"EP004\"] */\n      mload(0x40)\n      tag_139\n      swap1\n      tag_95\n      jump\t// in\n    tag_139:\n      swap1\n      dup2\n      mstore\n      0x20\n      add\n      mload(0x40)\n      dup1\n      swap2\n      sub\n      swap1\n      keccak256\n        /* \"contracts/eventTransactionRecord.sol\":4258:4294  transaction.params[\"EP004\"] = _EP004 */\n      dup2\n      swap1\n      sstore\n      pop\n        /* \"contracts/eventTransactionRecord.sol\":4346:4361  block.timestamp */\n      timestamp\n        /* \"contracts/eventTransactionRecord.sol\":4304:4315  transaction */\n      dup2\n        /* \"contracts/eventTransactionRecord.sol\":4304:4322  transaction.params */\n      0x03\n      add\n        /* \"contracts/eventTransactionRecord.sol\":4304:4336  transaction.params[\"trans_time\"] */\n      mload(0x40)\n      tag_140\n      swap1\n      tag_97\n      jump\t// in\n    tag_140:\n      swap1\n      dup2\n      mstore\n      0x20\n      add\n      mload(0x40)\n      dup1\n      swap2\n      sub\n      swap1\n      keccak256\n        /* \"contracts/eventTransactionRecord.sol\":4304:4362  transaction.params[\"trans_time\"] = int256(block.timestamp) */\n      dup2\n      swap1\n      sstore\n      pop\n        /* \"contracts/eventTransactionRecord.sol\":4402:4408  _EP006 */\n      dup3\n        /* \"contracts/eventTransactionRecord.sol\":4372:4383  transaction */\n      dup2\n        /* \"contracts/eventTransactionRecord.sol\":4372:4390  transaction.params */\n      0x03\n      add\n        /* \"contracts/eventTransactionRecord.sol\":4372:4399  transaction.params[\"EP006\"] */\n      mload(0x40)\n      tag_141\n      swap1\n      tag_99\n      jump\t// in\n    tag_141:\n      swap1\n      dup2\n      mstore\n      0x20\n      add\n      mload(0x40)\n      dup1\n      swap2\n      sub\n      swap1\n      keccak256\n        /* \"contracts/eventTransactionRecord.sol\":4372:4408  transaction.params[\"EP006\"] = _EP006 */\n      dup2\n      swap1\n      sstore\n      pop\n        /* \"contracts/eventTransactionRecord.sol\":3839:4415  {... */\n      pop\n      pop\n        /* \"contracts/eventTransactionRecord.sol\":3715:4415  function E00010006(string memory _eventId, int256 _EP001, int256 _EP002, int256 _EP003,int256 _EP004, int256 _EP006) public {... */\n      pop\n      pop\n      pop\n      pop\n      pop\n      pop\n      jump\t// out\n        /* \"contracts/eventTransactionRecord.sol\":1591:2232  function E00010003(string memory _eventId, int256 _EP001, int256 _EP002, int256 _EP003, int256 _EP005) public {... */\n    tag_41:\n        /* \"contracts/eventTransactionRecord.sol\":1711:1724  uint256 index */\n      0x00\n        /* \"contracts/eventTransactionRecord.sol\":1727:1739  transactions */\n      dup1\n        /* \"contracts/eventTransactionRecord.sol\":1727:1746  transactions.length */\n      dup1\n      sload\n      swap1\n      pop\n        /* \"contracts/eventTransactionRecord.sol\":1711:1746  uint256 index = transactions.length */\n      swap1\n      pop\n        /* \"contracts/eventTransactionRecord.sol\":1756:1768  transactions */\n      0x00\n        /* \"contracts/eventTransactionRecord.sol\":1756:1775  transactions.push() */\n      0x01\n      dup2\n      0x01\n      dup2\n      sload\n      add\n      dup1\n      dup3\n      sstore\n      dup1\n      swap2\n      pop\n      pop\n      sub\n      swap1\n      0x00\n      mstore\n      keccak256(0x00, 0x20)\n      swap1\n      pop\n      pop\n        /* \"contracts/eventTransactionRecord.sol\":1785:1816  Transaction storage transaction */\n      0x00\n        /* \"contracts/eventTransactionRecord.sol\":1819:1831  transactions */\n      dup1\n        /* \"contracts/eventTransactionRecord.sol\":1832:1837  index */\n      dup3\n        /* \"contracts/eventTransactionRecord.sol\":1819:1838  transactions[index] */\n      dup2\n      sload\n      dup2\n      lt\n      tag_144\n      jumpi\n      tag_145\n      tag_83\n      jump\t// in\n    tag_145:\n    tag_144:\n      swap1\n      0x00\n      mstore\n      keccak256(0x00, 0x20)\n      swap1\n      0x04\n      mul\n      add\n        /* \"contracts/eventTransactionRecord.sol\":1785:1838  Transaction storage transaction = transactions[index] */\n      swap1\n      pop\n        /* \"contracts/eventTransactionRecord.sol\":1849:1890  transaction.transactionType = \"E00010003\" */\n      mload(0x40)\n      dup1\n      0x40\n      add\n      0x40\n      mstore\n      dup1\n      0x09\n      dup2\n      mstore\n      0x20\n      add\n      0x4530303031303030330000000000000000000000000000000000000000000000\n      dup2\n      mstore\n      pop\n        /* \"contracts/eventTransactionRecord.sol\":1849:1860  transaction */\n      dup2\n        /* \"contracts/eventTransactionRecord.sol\":1849:1876  transaction.transactionType */\n      0x00\n      add\n        /* \"contracts/eventTransactionRecord.sol\":1849:1890  transaction.transactionType = \"E00010003\" */\n      swap1\n      dup2\n      tag_147\n      swap2\n      swap1\n      tag_86\n      jump\t// in\n    tag_147:\n      pop\n        /* \"contracts/eventTransactionRecord.sol\":1922:1930  _eventId */\n      dup7\n        /* \"contracts/eventTransactionRecord.sol\":1900:1911  transaction */\n      dup2\n        /* \"contracts/eventTransactionRecord.sol\":1900:1919  transaction.eventId */\n      0x01\n      add\n        /* \"contracts/eventTransactionRecord.sol\":1900:1930  transaction.eventId = _eventId */\n      swap1\n      dup2\n      tag_148\n      swap2\n      swap1\n      tag_86\n      jump\t// in\n    tag_148:\n      pop\n        /* \"contracts/eventTransactionRecord.sol\":1963:1973  msg.sender */\n      caller\n        /* \"contracts/eventTransactionRecord.sol\":1940:1951  transaction */\n      dup2\n        /* \"contracts/eventTransactionRecord.sol\":1940:1960  transaction.Recorder */\n      0x02\n      add\n      0x00\n        /* \"contracts/eventTransactionRecord.sol\":1940:1973  transaction.Recorder = msg.sender */\n      0x0100\n      exp\n      dup2\n      sload\n      dup2\n      0xffffffffffffffffffffffffffffffffffffffff\n      mul\n      not\n      and\n      swap1\n      dup4\n      0xffffffffffffffffffffffffffffffffffffffff\n      and\n      mul\n      or\n      swap1\n      sstore\n      pop\n        /* \"contracts/eventTransactionRecord.sol\":2013:2019  _EP001 */\n      dup6\n        /* \"contracts/eventTransactionRecord.sol\":1983:1994  transaction */\n      dup2\n        /* \"contracts/eventTransactionRecord.sol\":1983:2001  transaction.params */\n      0x03\n      add\n        /* \"contracts/eventTransactionRecord.sol\":1983:2010  transaction.params[\"EP001\"] */\n      mload(0x40)\n      tag_149\n      swap1\n      tag_89\n      jump\t// in\n    tag_149:\n      swap1\n      dup2\n      mstore\n      0x20\n      add\n      mload(0x40)\n      dup1\n      swap2\n      sub\n      swap1\n      keccak256\n        /* \"contracts/eventTransactionRecord.sol\":1983:2019  transaction.params[\"EP001\"] = _EP001 */\n      dup2\n      swap1\n      sstore\n      pop\n        /* \"contracts/eventTransactionRecord.sol\":2059:2065  _EP002 */\n      dup5\n        /* \"contracts/eventTransactionRecord.sol\":2029:2040  transaction */\n      dup2\n        /* \"contracts/eventTransactionRecord.sol\":2029:2047  transaction.params */\n      0x03\n      add\n        /* \"contracts/eventTransactionRecord.sol\":2029:2056  transaction.params[\"EP002\"] */\n      mload(0x40)\n      tag_150\n      swap1\n      tag_91\n      jump\t// in\n    tag_150:\n      swap1\n      dup2\n      mstore\n      0x20\n      add\n      mload(0x40)\n      dup1\n      swap2\n      sub\n      swap1\n      keccak256\n        /* \"contracts/eventTransactionRecord.sol\":2029:2065  transaction.params[\"EP002\"] = _EP002 */\n      dup2\n      swap1\n      sstore\n      pop\n        /* \"contracts/eventTransactionRecord.sol\":2105:2111  _EP003 */\n      dup4\n        /* \"contracts/eventTransactionRecord.sol\":2075:2086  transaction */\n      dup2\n        /* \"contracts/eventTransactionRecord.sol\":2075:2093  transaction.params */\n      0x03\n      add\n        /* \"contracts/eventTransactionRecord.sol\":2075:2102  transaction.params[\"EP003\"] */\n      mload(0x40)\n      tag_151\n      swap1\n      tag_93\n      jump\t// in\n    tag_151:\n      swap1\n      dup2\n      mstore\n      0x20\n      add\n      mload(0x40)\n      dup1\n      swap2\n      sub\n      swap1\n      keccak256\n        /* \"contracts/eventTransactionRecord.sol\":2075:2111  transaction.params[\"EP003\"] = _EP003 */\n      dup2\n      swap1\n      sstore\n      pop\n        /* \"contracts/eventTransactionRecord.sol\":2163:2178  block.timestamp */\n      timestamp\n        /* \"contracts/eventTransactionRecord.sol\":2121:2132  transaction */\n      dup2\n        /* \"contracts/eventTransactionRecord.sol\":2121:2139  transaction.params */\n      0x03\n      add\n        /* \"contracts/eventTransactionRecord.sol\":2121:2153  transaction.params[\"trans_time\"] */\n      mload(0x40)\n      tag_152\n      swap1\n      tag_97\n      jump\t// in\n    tag_152:\n      swap1\n      dup2\n      mstore\n      0x20\n      add\n      mload(0x40)\n      dup1\n      swap2\n      sub\n      swap1\n      keccak256\n        /* \"contracts/eventTransactionRecord.sol\":2121:2179  transaction.params[\"trans_time\"] = int256(block.timestamp) */\n      dup2\n      swap1\n      sstore\n      pop\n        /* \"contracts/eventTransactionRecord.sol\":2219:2225  _EP005 */\n      dup3\n        /* \"contracts/eventTransactionRecord.sol\":2189:2200  transaction */\n      dup2\n        /* \"contracts/eventTransactionRecord.sol\":2189:2207  transaction.params */\n      0x03\n      add\n        /* \"contracts/eventTransactionRecord.sol\":2189:2216  transaction.params[\"EP005\"] */\n      mload(0x40)\n      tag_153\n      swap1\n      tag_113\n      jump\t// in\n    tag_153:\n      swap1\n      dup2\n      mstore\n      0x20\n      add\n      mload(0x40)\n      dup1\n      swap2\n      sub\n      swap1\n      keccak256\n        /* \"contracts/eventTransactionRecord.sol\":2189:2225  transaction.params[\"EP005\"] = _EP005 */\n      dup2\n      swap1\n      sstore\n      pop\n        /* \"contracts/eventTransactionRecord.sol\":1701:2232  {... */\n      pop\n      pop\n        /* \"contracts/eventTransactionRecord.sol\":1591:2232  function E00010003(string memory _eventId, int256 _EP001, int256 _EP002, int256 _EP003, int256 _EP005) public {... */\n      pop\n      pop\n      pop\n      pop\n      pop\n      jump\t// out\n        /* \"contracts/eventTransactionRecord.sol\":4421:5052  function E00020001(string memory _eventId, int256 _EP001, int256 _EP002, int256 _BTC, int256 _USDT) public {... */\n    tag_44:\n        /* \"contracts/eventTransactionRecord.sol\":4537:4550  uint256 index */\n      0x00\n        /* \"contracts/eventTransactionRecord.sol\":4553:4565  transactions */\n      dup1\n        /* \"contracts/eventTransactionRecord.sol\":4553:4572  transactions.length */\n      dup1\n      sload\n      swap1\n      pop\n        /* \"contracts/eventTransactionRecord.sol\":4537:4572  uint256 index = transactions.length */\n      swap1\n      pop\n        /* \"contracts/eventTransactionRecord.sol\":4582:4594  transactions */\n      0x00\n        /* \"contracts/eventTransactionRecord.sol\":4582:4601  transactions.push() */\n      0x01\n      dup2\n      0x01\n      dup2\n      sload\n      add\n      dup1\n      dup3\n      sstore\n      dup1\n      swap2\n      pop\n      pop\n      sub\n      swap1\n      0x00\n      mstore\n      keccak256(0x00, 0x20)\n      swap1\n      pop\n      pop\n        /* \"contracts/eventTransactionRecord.sol\":4611:4642  Transaction storage transaction */\n      0x00\n        /* \"contracts/eventTransactionRecord.sol\":4645:4657  transactions */\n      dup1\n        /* \"contracts/eventTransactionRecord.sol\":4658:4663  index */\n      dup3\n        /* \"contracts/eventTransactionRecord.sol\":4645:4664  transactions[index] */\n      dup2\n      sload\n      dup2\n      lt\n      tag_156\n      jumpi\n      tag_157\n      tag_83\n      jump\t// in\n    tag_157:\n    tag_156:\n      swap1\n      0x00\n      mstore\n      keccak256(0x00, 0x20)\n      swap1\n      0x04\n      mul\n      add\n        /* \"contracts/eventTransactionRecord.sol\":4611:4664  Transaction storage transaction = transactions[index] */\n      swap1\n      pop\n        /* \"contracts/eventTransactionRecord.sol\":4675:4716  transaction.transactionType = \"E00020001\" */\n      mload(0x40)\n      dup1\n      0x40\n      add\n      0x40\n      mstore\n      dup1\n      0x09\n      dup2\n      mstore\n      0x20\n      add\n      0x4530303032303030310000000000000000000000000000000000000000000000\n      dup2\n      mstore\n      pop\n        /* \"contracts/eventTransactionRecord.sol\":4675:4686  transaction */\n      dup2\n        /* \"contracts/eventTransactionRecord.sol\":4675:4702  transaction.transactionType */\n      0x00\n      add\n        /* \"contracts/eventTransactionRecord.sol\":4675:4716  transaction.transactionType = \"E00020001\" */\n      swap1\n      dup2\n      tag_159\n      swap2\n      swap1\n      tag_86\n      jump\t// in\n    tag_159:\n      pop\n        /* \"contracts/eventTransactionRecord.sol\":4748:4756  _eventId */\n      dup7\n        /* \"contracts/eventTransactionRecord.sol\":4726:4737  transaction */\n      dup2\n        /* \"contracts/eventTransactionRecord.sol\":4726:4745  transaction.eventId */\n      0x01\n      add\n        /* \"contracts/eventTransactionRecord.sol\":4726:4756  transaction.eventId = _eventId */\n      swap1\n      dup2\n      tag_160\n      swap2\n      swap1\n      tag_86\n      jump\t// in\n    tag_160:\n      pop\n        /* \"contracts/eventTransactionRecord.sol\":4789:4799  msg.sender */\n      caller\n        /* \"contracts/eventTransactionRecord.sol\":4766:4777  transaction */\n      dup2\n        /* \"contracts/eventTransactionRecord.sol\":4766:4786  transaction.Recorder */\n      0x02\n      add\n      0x00\n        /* \"contracts/eventTransactionRecord.sol\":4766:4799  transaction.Recorder = msg.sender */\n      0x0100\n      exp\n      dup2\n      sload\n      dup2\n      0xffffffffffffffffffffffffffffffffffffffff\n      mul\n      not\n      and\n      swap1\n      dup4\n      0xffffffffffffffffffffffffffffffffffffffff\n      and\n      mul\n      or\n      swap1\n      sstore\n      pop\n        /* \"contracts/eventTransactionRecord.sol\":4839:4845  _EP001 */\n      dup6\n        /* \"contracts/eventTransactionRecord.sol\":4809:4820  transaction */\n      dup2\n        /* \"contracts/eventTransactionRecord.sol\":4809:4827  transaction.params */\n      0x03\n      add\n        /* \"contracts/eventTransactionRecord.sol\":4809:4836  transaction.params[\"EP001\"] */\n      mload(0x40)\n      tag_161\n      swap1\n      tag_89\n      jump\t// in\n    tag_161:\n      swap1\n      dup2\n      mstore\n      0x20\n      add\n      mload(0x40)\n      dup1\n      swap2\n      sub\n      swap1\n      keccak256\n        /* \"contracts/eventTransactionRecord.sol\":4809:4845  transaction.params[\"EP001\"] = _EP001 */\n      dup2\n      swap1\n      sstore\n      pop\n        /* \"contracts/eventTransactionRecord.sol\":4885:4891  _EP002 */\n      dup5\n        /* \"contracts/eventTransactionRecord.sol\":4855:4866  transaction */\n      dup2\n        /* \"contracts/eventTransactionRecord.sol\":4855:4873  transaction.params */\n      0x03\n      add\n        /* \"contracts/eventTransactionRecord.sol\":4855:4882  transaction.params[\"EP002\"] */\n      mload(0x40)\n      tag_162\n      swap1\n      tag_91\n      jump\t// in\n    tag_162:\n      swap1\n      dup2\n      mstore\n      0x20\n      add\n      mload(0x40)\n      dup1\n      swap2\n      sub\n      swap1\n      keccak256\n        /* \"contracts/eventTransactionRecord.sol\":4855:4891  transaction.params[\"EP002\"] = _EP002 */\n      dup2\n      swap1\n      sstore\n      pop\n        /* \"contracts/eventTransactionRecord.sol\":4929:4933  _BTC */\n      dup4\n        /* \"contracts/eventTransactionRecord.sol\":4901:4912  transaction */\n      dup2\n        /* \"contracts/eventTransactionRecord.sol\":4901:4919  transaction.params */\n      0x03\n      add\n        /* \"contracts/eventTransactionRecord.sol\":4901:4926  transaction.params[\"BTC\"] */\n      mload(0x40)\n      tag_163\n      swap1\n      tag_164\n      jump\t// in\n    tag_163:\n      swap1\n      dup2\n      mstore\n      0x20\n      add\n      mload(0x40)\n      dup1\n      swap2\n      sub\n      swap1\n      keccak256\n        /* \"contracts/eventTransactionRecord.sol\":4901:4933  transaction.params[\"BTC\"] = _BTC */\n      dup2\n      swap1\n      sstore\n      pop\n        /* \"contracts/eventTransactionRecord.sol\":4972:4977  _USDT */\n      dup3\n        /* \"contracts/eventTransactionRecord.sol\":4943:4954  transaction */\n      dup2\n        /* \"contracts/eventTransactionRecord.sol\":4943:4961  transaction.params */\n      0x03\n      add\n        /* \"contracts/eventTransactionRecord.sol\":4943:4969  transaction.params[\"USDT\"] */\n      mload(0x40)\n      tag_165\n      swap1\n      tag_166\n      jump\t// in\n    tag_165:\n      swap1\n      dup2\n      mstore\n      0x20\n      add\n      mload(0x40)\n      dup1\n      swap2\n      sub\n      swap1\n      keccak256\n        /* \"contracts/eventTransactionRecord.sol\":4943:4977  transaction.params[\"USDT\"] = _USDT */\n      dup2\n      swap1\n      sstore\n      pop\n        /* \"contracts/eventTransactionRecord.sol\":5029:5044  block.timestamp */\n      timestamp\n        /* \"contracts/eventTransactionRecord.sol\":4987:4998  transaction */\n      dup2\n        /* \"contracts/eventTransactionRecord.sol\":4987:5005  transaction.params */\n      0x03\n      add\n        /* \"contracts/eventTransactionRecord.sol\":4987:5019  transaction.params[\"trans_time\"] */\n      mload(0x40)\n      tag_167\n      swap1\n      tag_97\n      jump\t// in\n    tag_167:\n      swap1\n      dup2\n      mstore\n      0x20\n      add\n      mload(0x40)\n      dup1\n      swap2\n      sub\n      swap1\n      keccak256\n        /* \"contracts/eventTransactionRecord.sol\":4987:5045  transaction.params[\"trans_time\"] = int256(block.timestamp) */\n      dup2\n      swap1\n      sstore\n      pop\n        /* \"contracts/eventTransactionRecord.sol\":4528:5052  {... */\n      pop\n      pop\n        /* \"contracts/eventTransactionRecord.sol\":4421:5052  function E00020001(string memory _eventId, int256 _EP001, int256 _EP002, int256 _BTC, int256 _USDT) public {... */\n      pop\n      pop\n      pop\n      pop\n      pop\n      jump\t// out\n        /* \"contracts/eventTransactionRecord.sol\":257:290  Transaction[] public transactions */\n    tag_48:\n      0x00\n      dup2\n      dup2\n      sload\n      dup2\n      lt\n      tag_168\n      jumpi\n      0x00\n      dup1\n      revert\n    tag_168:\n      swap1\n      0x00\n      mstore\n      keccak256(0x00, 0x20)\n      swap1\n      0x04\n      mul\n      add\n      0x00\n      swap2\n      pop\n      swap1\n      pop\n      dup1\n      0x00\n      add\n      dup1\n      sload\n      tag_170\n      swap1\n      tag_171\n      jump\t// in\n    tag_170:\n      dup1\n      0x1f\n      add\n      0x20\n      dup1\n      swap2\n      div\n      mul\n      0x20\n      add\n      mload(0x40)\n      swap1\n      dup2\n      add\n      0x40\n      mstore\n      dup1\n      swap3\n      swap2\n      swap1\n      dup2\n      dup2\n      mstore\n      0x20\n      add\n      dup3\n      dup1\n      sload\n      tag_172\n      swap1\n      tag_171\n      jump\t// in\n    tag_172:\n      dup1\n      iszero\n      tag_173\n      jumpi\n      dup1\n      0x1f\n      lt\n      tag_174\n      jumpi\n      0x0100\n      dup1\n      dup4\n      sload\n      div\n      mul\n      dup4\n      mstore\n      swap2\n      0x20\n      add\n      swap2\n      jump(tag_173)\n    tag_174:\n      dup3\n      add\n      swap2\n      swap1\n      0x00\n      mstore\n      keccak256(0x00, 0x20)\n      swap1\n    tag_175:\n      dup2\n      sload\n      dup2\n      mstore\n      swap1\n      0x01\n      add\n      swap1\n      0x20\n      add\n      dup1\n      dup4\n      gt\n      tag_175\n      jumpi\n      dup3\n      swap1\n      sub\n      0x1f\n      and\n      dup3\n      add\n      swap2\n    tag_173:\n      pop\n      pop\n      pop\n      pop\n      pop\n      swap1\n      dup1\n      0x01\n      add\n      dup1\n      sload\n      tag_176\n      swap1\n      tag_171\n      jump\t// in\n    tag_176:\n      dup1\n      0x1f\n      add\n      0x20\n      dup1\n      swap2\n      div\n      mul\n      0x20\n      add\n      mload(0x40)\n      swap1\n      dup2\n      add\n      0x40\n      mstore\n      dup1\n      swap3\n      swap2\n      swap1\n      dup2\n      dup2\n      mstore\n      0x20\n      add\n      dup3\n      dup1\n      sload\n      tag_177\n      swap1\n      tag_171\n      jump\t// in\n    tag_177:\n      dup1\n      iszero\n      tag_178\n      jumpi\n      dup1\n      0x1f\n      lt\n      tag_179\n      jumpi\n      0x0100\n      dup1\n      dup4\n      sload\n      div\n      mul\n      dup4\n      mstore\n      swap2\n      0x20\n      add\n      swap2\n      jump(tag_178)\n    tag_179:\n      dup3\n      add\n      swap2\n      swap1\n      0x00\n      mstore\n      keccak256(0x00, 0x20)\n      swap1\n    tag_180:\n      dup2\n      sload\n      dup2\n      mstore\n      swap1\n      0x01\n      add\n      swap1\n      0x20\n      add\n      dup1\n      dup4\n      gt\n      tag_180\n      jumpi\n      dup3\n      swap1\n      sub\n      0x1f\n      and\n      dup3\n      add\n      swap2\n    tag_178:\n      pop\n      pop\n      pop\n      pop\n      pop\n      swap1\n      dup1\n      0x02\n      add\n      0x00\n      swap1\n      sload\n      swap1\n      0x0100\n      exp\n      swap1\n      div\n      0xffffffffffffffffffffffffffffffffffffffff\n      and\n      swap1\n      pop\n      dup4\n      jump\t// out\n        /* \"contracts/eventTransactionRecord.sol\":6046:6179  function getTransactionEventId(uint256 index) public view returns (string memory) {... */\n    tag_53:\n        /* \"contracts/eventTransactionRecord.sol\":6113:6126  string memory */\n      0x60\n        /* \"contracts/eventTransactionRecord.sol\":6145:6157  transactions */\n      0x00\n        /* \"contracts/eventTransactionRecord.sol\":6158:6163  index */\n      dup3\n        /* \"contracts/eventTransactionRecord.sol\":6145:6164  transactions[index] */\n      dup2\n      sload\n      dup2\n      lt\n      tag_182\n      jumpi\n      tag_183\n      tag_83\n      jump\t// in\n    tag_183:\n    tag_182:\n      swap1\n      0x00\n      mstore\n      keccak256(0x00, 0x20)\n      swap1\n      0x04\n      mul\n      add\n        /* \"contracts/eventTransactionRecord.sol\":6145:6172  transactions[index].eventId */\n      0x01\n      add\n        /* \"contracts/eventTransactionRecord.sol\":6138:6172  return transactions[index].eventId */\n      dup1\n      sload\n      tag_185\n      swap1\n      tag_171\n      jump\t// in\n    tag_185:\n      dup1\n      0x1f\n      add\n      0x20\n      dup1\n      swap2\n      div\n      mul\n      0x20\n      add\n      mload(0x40)\n      swap1\n      dup2\n      add\n      0x40\n      mstore\n      dup1\n      swap3\n      swap2\n      swap1\n      dup2\n      dup2\n      mstore\n      0x20\n      add\n      dup3\n      dup1\n      sload\n      tag_186\n      swap1\n      tag_171\n      jump\t// in\n    tag_186:\n      dup1\n      iszero\n      tag_187\n      jumpi\n      dup1\n      0x1f\n      lt\n      tag_188\n      jumpi\n      0x0100\n      dup1\n      dup4\n      sload\n      div\n      mul\n      dup4\n      mstore\n      swap2\n      0x20\n      add\n      swap2\n      jump(tag_187)\n    tag_188:\n      dup3\n      add\n      swap2\n      swap1\n      0x00\n      mstore\n      keccak256(0x00, 0x20)\n      swap1\n    tag_189:\n      dup2\n      sload\n      dup2\n      mstore\n      swap1\n      0x01\n      add\n      swap1\n      0x20\n      add\n      dup1\n      dup4\n      gt\n      tag_189\n      jumpi\n      dup3\n      swap1\n      sub\n      0x1f\n      and\n      dup3\n      add\n      swap2\n    tag_187:\n      pop\n      pop\n      pop\n      pop\n      pop\n      swap1\n      pop\n        /* \"contracts/eventTransactionRecord.sol\":6046:6179  function getTransactionEventId(uint256 index) public view returns (string memory) {... */\n      swap2\n      swap1\n      pop\n      jump\t// out\n        /* \"contracts/eventTransactionRecord.sol\":5062:5381  function getTransaction(string memory _eventId) public view returns (string memory, string memory, address) {... */\n    tag_59:\n        /* \"contracts/eventTransactionRecord.sol\":5131:5144  string memory */\n      0x60\n        /* \"contracts/eventTransactionRecord.sol\":5146:5159  string memory */\n      dup1\n        /* \"contracts/eventTransactionRecord.sol\":5161:5168  address */\n      0x00\n        /* \"contracts/eventTransactionRecord.sol\":5180:5211  Transaction storage transaction */\n      dup1\n        /* \"contracts/eventTransactionRecord.sol\":5214:5239  findTransaction(_eventId) */\n      tag_191\n        /* \"contracts/eventTransactionRecord.sol\":5230:5238  _eventId */\n      dup6\n        /* \"contracts/eventTransactionRecord.sol\":5214:5229  findTransaction */\n      tag_192\n        /* \"contracts/eventTransactionRecord.sol\":5214:5239  findTransaction(_eventId) */\n      jump\t// in\n    tag_191:\n        /* \"contracts/eventTransactionRecord.sol\":5180:5239  Transaction storage transaction = findTransaction(_eventId) */\n      swap1\n      pop\n        /* \"contracts/eventTransactionRecord.sol\":5270:5281  transaction */\n      dup1\n        /* \"contracts/eventTransactionRecord.sol\":5270:5297  transaction.transactionType */\n      0x00\n      add\n        /* \"contracts/eventTransactionRecord.sol\":5311:5322  transaction */\n      dup2\n        /* \"contracts/eventTransactionRecord.sol\":5311:5330  transaction.eventId */\n      0x01\n      add\n        /* \"contracts/eventTransactionRecord.sol\":5344:5355  transaction */\n      dup3\n        /* \"contracts/eventTransactionRecord.sol\":5344:5364  transaction.Recorder */\n      0x02\n      add\n      0x00\n      swap1\n      sload\n      swap1\n      0x0100\n      exp\n      swap1\n      div\n      0xffffffffffffffffffffffffffffffffffffffff\n      and\n        /* \"contracts/eventTransactionRecord.sol\":5249:5374  return (... */\n      dup3\n      dup1\n      sload\n      tag_193\n      swap1\n      tag_171\n      jump\t// in\n    tag_193:\n      dup1\n      0x1f\n      add\n      0x20\n      dup1\n      swap2\n      div\n      mul\n      0x20\n      add\n      mload(0x40)\n      swap1\n      dup2\n      add\n      0x40\n      mstore\n      dup1\n      swap3\n      swap2\n      swap1\n      dup2\n      dup2\n      mstore\n      0x20\n      add\n      dup3\n      dup1\n      sload\n      tag_194\n      swap1\n      tag_171\n      jump\t// in\n    tag_194:\n      dup1\n      iszero\n      tag_195\n      jumpi\n      dup1\n      0x1f\n      lt\n      tag_196\n      jumpi\n      0x0100\n      dup1\n      dup4\n      sload\n      div\n      mul\n      dup4\n      mstore\n      swap2\n      0x20\n      add\n      swap2\n      jump(tag_195)\n    tag_196:\n      dup3\n      add\n      swap2\n      swap1\n      0x00\n      mstore\n      keccak256(0x00, 0x20)\n      swap1\n    tag_197:\n      dup2\n      sload\n      dup2\n      mstore\n      swap1\n      0x01\n      add\n      swap1\n      0x20\n      add\n      dup1\n      dup4\n      gt\n      tag_197\n      jumpi\n      dup3\n      swap1\n      sub\n      0x1f\n      and\n      dup3\n      add\n      swap2\n    tag_195:\n      pop\n      pop\n      pop\n      pop\n      pop\n      swap3\n      pop\n      dup2\n      dup1\n      sload\n      tag_198\n      swap1\n      tag_171\n      jump\t// in\n    tag_198:\n      dup1\n      0x1f\n      add\n      0x20\n      dup1\n      swap2\n      div\n      mul\n      0x20\n      add\n      mload(0x40)\n      swap1\n      dup2\n      add\n      0x40\n      mstore\n      dup1\n      swap3\n      swap2\n      swap1\n      dup2\n      dup2\n      mstore\n      0x20\n      add\n      dup3\n      dup1\n      sload\n      tag_199\n      swap1\n      tag_171\n      jump\t// in\n    tag_199:\n      dup1\n      iszero\n      tag_200\n      jumpi\n      dup1\n      0x1f\n      lt\n      tag_201\n      jumpi\n      0x0100\n      dup1\n      dup4\n      sload\n      div\n      mul\n      dup4\n      mstore\n      swap2\n      0x20\n      add\n      swap2\n      jump(tag_200)\n    tag_201:\n      dup3\n      add\n      swap2\n      swap1\n      0x00\n      mstore\n      keccak256(0x00, 0x20)\n      swap1\n    tag_202:\n      dup2\n      sload\n      dup2\n      mstore\n      swap1\n      0x01\n      add\n      swap1\n      0x20\n      add\n      dup1\n      dup4\n      gt\n      tag_202\n      jumpi\n      dup3\n      swap1\n      sub\n      0x1f\n      and\n      dup3\n      add\n      swap2\n    tag_200:\n      pop\n      pop\n      pop\n      pop\n      pop\n      swap2\n      pop\n      swap4\n      pop\n      swap4\n      pop\n      swap4\n      pop\n      pop\n        /* \"contracts/eventTransactionRecord.sol\":5062:5381  function getTransaction(string memory _eventId) public view returns (string memory, string memory, address) {... */\n      swap2\n      swap4\n      swap1\n      swap3\n      pop\n      jump\t// out\n        /* \"contracts/eventTransactionRecord.sol\":6185:6342  function getTransactionParam(uint256 index, string memory paramKey) public view returns (int256) {... */\n    tag_64:\n        /* \"contracts/eventTransactionRecord.sol\":6274:6280  int256 */\n      0x00\n        /* \"contracts/eventTransactionRecord.sol\":6299:6311  transactions */\n      dup1\n        /* \"contracts/eventTransactionRecord.sol\":6312:6317  index */\n      dup4\n        /* \"contracts/eventTransactionRecord.sol\":6299:6318  transactions[index] */\n      dup2\n      sload\n      dup2\n      lt\n      tag_204\n      jumpi\n      tag_205\n      tag_83\n      jump\t// in\n    tag_205:\n    tag_204:\n      swap1\n      0x00\n      mstore\n      keccak256(0x00, 0x20)\n      swap1\n      0x04\n      mul\n      add\n        /* \"contracts/eventTransactionRecord.sol\":6299:6325  transactions[index].params */\n      0x03\n      add\n        /* \"contracts/eventTransactionRecord.sol\":6326:6334  paramKey */\n      dup3\n        /* \"contracts/eventTransactionRecord.sol\":6299:6335  transactions[index].params[paramKey] */\n      mload(0x40)\n      tag_207\n      swap2\n      swap1\n      tag_208\n      jump\t// in\n    tag_207:\n      swap1\n      dup2\n      mstore\n      0x20\n      add\n      mload(0x40)\n      dup1\n      swap2\n      sub\n      swap1\n      keccak256\n      sload\n        /* \"contracts/eventTransactionRecord.sol\":6292:6335  return transactions[index].params[paramKey] */\n      swap1\n      pop\n        /* \"contracts/eventTransactionRecord.sol\":6185:6342  function getTransactionParam(uint256 index, string memory paramKey) public view returns (int256) {... */\n      swap3\n      swap2\n      pop\n      pop\n      jump\t// out\n        /* \"contracts/eventTransactionRecord.sol\":297:938  function E00010001(string memory _eventId, int256 _EP001, int256 _EP002, int256 _EP003, int256 _EP005) public {... */\n    tag_69:\n        /* \"contracts/eventTransactionRecord.sol\":417:430  uint256 index */\n      0x00\n        /* \"contracts/eventTransactionRecord.sol\":433:445  transactions */\n      dup1\n        /* \"contracts/eventTransactionRecord.sol\":433:452  transactions.length */\n      dup1\n      sload\n      swap1\n      pop\n        /* \"contracts/eventTransactionRecord.sol\":417:452  uint256 index = transactions.length */\n      swap1\n      pop\n        /* \"contracts/eventTransactionRecord.sol\":462:474  transactions */\n      0x00\n        /* \"contracts/eventTransactionRecord.sol\":462:481  transactions.push() */\n      0x01\n      dup2\n      0x01\n      dup2\n      sload\n      add\n      dup1\n      dup3\n      sstore\n      dup1\n      swap2\n      pop\n      pop\n      sub\n      swap1\n      0x00\n      mstore\n      keccak256(0x00, 0x20)\n      swap1\n      pop\n      pop\n        /* \"contracts/eventTransactionRecord.sol\":491:522  Transaction storage transaction */\n      0x00\n        /* \"contracts/eventTransactionRecord.sol\":525:537  transactions */\n      dup1\n        /* \"contracts/eventTransactionRecord.sol\":538:543  index */\n      dup3\n        /* \"contracts/eventTransactionRecord.sol\":525:544  transactions[index] */\n      dup2\n      sload\n      dup2\n      lt\n      tag_211\n      jumpi\n      tag_212\n      tag_83\n      jump\t// in\n    tag_212:\n    tag_211:\n      swap1\n      0x00\n      mstore\n      keccak256(0x00, 0x20)\n      swap1\n      0x04\n      mul\n      add\n        /* \"contracts/eventTransactionRecord.sol\":491:544  Transaction storage transaction = transactions[index] */\n      swap1\n      pop\n        /* \"contracts/eventTransactionRecord.sol\":555:596  transaction.transactionType = \"E00010001\" */\n      mload(0x40)\n      dup1\n      0x40\n      add\n      0x40\n      mstore\n      dup1\n      0x09\n      dup2\n      mstore\n      0x20\n      add\n      0x4530303031303030310000000000000000000000000000000000000000000000\n      dup2\n      mstore\n      pop\n        /* \"contracts/eventTransactionRecord.sol\":555:566  transaction */\n      dup2\n        /* \"contracts/eventTransactionRecord.sol\":555:582  transaction.transactionType */\n      0x00\n      add\n        /* \"contracts/eventTransactionRecord.sol\":555:596  transaction.transactionType = \"E00010001\" */\n      swap1\n      dup2\n      tag_214\n      swap2\n      swap1\n      tag_86\n      jump\t// in\n    tag_214:\n      pop\n        /* \"contracts/eventTransactionRecord.sol\":628:636  _eventId */\n      dup7\n        /* \"contracts/eventTransactionRecord.sol\":606:617  transaction */\n      dup2\n        /* \"contracts/eventTransactionRecord.sol\":606:625  transaction.eventId */\n      0x01\n      add\n        /* \"contracts/eventTransactionRecord.sol\":606:636  transaction.eventId = _eventId */\n      swap1\n      dup2\n      tag_215\n      swap2\n      swap1\n      tag_86\n      jump\t// in\n    tag_215:\n      pop\n        /* \"contracts/eventTransactionRecord.sol\":669:679  msg.sender */\n      caller\n        /* \"contracts/eventTransactionRecord.sol\":646:657  transaction */\n      dup2\n        /* \"contracts/eventTransactionRecord.sol\":646:666  transaction.Recorder */\n      0x02\n      add\n      0x00\n        /* \"contracts/eventTransactionRecord.sol\":646:679  transaction.Recorder = msg.sender */\n      0x0100\n      exp\n      dup2\n      sload\n      dup2\n      0xffffffffffffffffffffffffffffffffffffffff\n      mul\n      not\n      and\n      swap1\n      dup4\n      0xffffffffffffffffffffffffffffffffffffffff\n      and\n      mul\n      or\n      swap1\n      sstore\n      pop\n        /* \"contracts/eventTransactionRecord.sol\":719:725  _EP001 */\n      dup6\n        /* \"contracts/eventTransactionRecord.sol\":689:700  transaction */\n      dup2\n        /* \"contracts/eventTransactionRecord.sol\":689:707  transaction.params */\n      0x03\n      add\n        /* \"contracts/eventTransactionRecord.sol\":689:716  transaction.params[\"EP001\"] */\n      mload(0x40)\n      tag_216\n      swap1\n      tag_89\n      jump\t// in\n    tag_216:\n      swap1\n      dup2\n      mstore\n      0x20\n      add\n      mload(0x40)\n      dup1\n      swap2\n      sub\n      swap1\n      keccak256\n        /* \"contracts/eventTransactionRecord.sol\":689:725  transaction.params[\"EP001\"] = _EP001 */\n      dup2\n      swap1\n      sstore\n      pop\n        /* \"contracts/eventTransactionRecord.sol\":765:771  _EP002 */\n      dup5\n        /* \"contracts/eventTransactionRecord.sol\":735:746  transaction */\n      dup2\n        /* \"contracts/eventTransactionRecord.sol\":735:753  transaction.params */\n      0x03\n      add\n        /* \"contracts/eventTransactionRecord.sol\":735:762  transaction.params[\"EP002\"] */\n      mload(0x40)\n      tag_217\n      swap1\n      tag_91\n      jump\t// in\n    tag_217:\n      swap1\n      dup2\n      mstore\n      0x20\n      add\n      mload(0x40)\n      dup1\n      swap2\n      sub\n      swap1\n      keccak256\n        /* \"contracts/eventTransactionRecord.sol\":735:771  transaction.params[\"EP002\"] = _EP002 */\n      dup2\n      swap1\n      sstore\n      pop\n        /* \"contracts/eventTransactionRecord.sol\":811:817  _EP003 */\n      dup4\n        /* \"contracts/eventTransactionRecord.sol\":781:792  transaction */\n      dup2\n        /* \"contracts/eventTransactionRecord.sol\":781:799  transaction.params */\n      0x03\n      add\n        /* \"contracts/eventTransactionRecord.sol\":781:808  transaction.params[\"EP003\"] */\n      mload(0x40)\n      tag_218\n      swap1\n      tag_93\n      jump\t// in\n    tag_218:\n      swap1\n      dup2\n      mstore\n      0x20\n      add\n      mload(0x40)\n      dup1\n      swap2\n      sub\n      swap1\n      keccak256\n        /* \"contracts/eventTransactionRecord.sol\":781:817  transaction.params[\"EP003\"] = _EP003 */\n      dup2\n      swap1\n      sstore\n      pop\n        /* \"contracts/eventTransactionRecord.sol\":869:884  block.timestamp */\n      timestamp\n        /* \"contracts/eventTransactionRecord.sol\":827:838  transaction */\n      dup2\n        /* \"contracts/eventTransactionRecord.sol\":827:845  transaction.params */\n      0x03\n      add\n        /* \"contracts/eventTransactionRecord.sol\":827:859  transaction.params[\"trans_time\"] */\n      mload(0x40)\n      tag_219\n      swap1\n      tag_97\n      jump\t// in\n    tag_219:\n      swap1\n      dup2\n      mstore\n      0x20\n      add\n      mload(0x40)\n      dup1\n      swap2\n      sub\n      swap1\n      keccak256\n        /* \"contracts/eventTransactionRecord.sol\":827:885  transaction.params[\"trans_time\"] = int256(block.timestamp) */\n      dup2\n      swap1\n      sstore\n      pop\n        /* \"contracts/eventTransactionRecord.sol\":925:931  _EP005 */\n      dup3\n        /* \"contracts/eventTransactionRecord.sol\":895:906  transaction */\n      dup2\n        /* \"contracts/eventTransactionRecord.sol\":895:913  transaction.params */\n      0x03\n      add\n        /* \"contracts/eventTransactionRecord.sol\":895:922  transaction.params[\"EP005\"] */\n      mload(0x40)\n      tag_220\n      swap1\n      tag_113\n      jump\t// in\n    tag_220:\n      swap1\n      dup2\n      mstore\n      0x20\n      add\n      mload(0x40)\n      dup1\n      swap2\n      sub\n      swap1\n      keccak256\n        /* \"contracts/eventTransactionRecord.sol\":895:931  transaction.params[\"EP005\"] = _EP005 */\n      dup2\n      swap1\n      sstore\n      pop\n        /* \"contracts/eventTransactionRecord.sol\":407:938  {... */\n      pop\n      pop\n        /* \"contracts/eventTransactionRecord.sol\":297:938  function E00010001(string memory _eventId, int256 _EP001, int256 _EP002, int256 _EP003, int256 _EP005) public {... */\n      pop\n      pop\n      pop\n      pop\n      pop\n      jump\t// out\n        /* \"contracts/eventTransactionRecord.sol\":6347:6585  function getTransactionParamByEventId(string memory _eventId, string memory _paramKey) public view returns (int256) {... */\n    tag_73:\n        /* \"contracts/eventTransactionRecord.sol\":6455:6461  int256 */\n      0x00\n        /* \"contracts/eventTransactionRecord.sol\":6473:6504  Transaction storage transaction */\n      dup1\n        /* \"contracts/eventTransactionRecord.sol\":6507:6532  findTransaction(_eventId) */\n      tag_222\n        /* \"contracts/eventTransactionRecord.sol\":6523:6531  _eventId */\n      dup5\n        /* \"contracts/eventTransactionRecord.sol\":6507:6522  findTransaction */\n      tag_192\n        /* \"contracts/eventTransactionRecord.sol\":6507:6532  findTransaction(_eventId) */\n      jump\t// in\n    tag_222:\n        /* \"contracts/eventTransactionRecord.sol\":6473:6532  Transaction storage transaction = findTransaction(_eventId) */\n      swap1\n      pop\n        /* \"contracts/eventTransactionRecord.sol\":6549:6560  transaction */\n      dup1\n        /* \"contracts/eventTransactionRecord.sol\":6549:6567  transaction.params */\n      0x03\n      add\n        /* \"contracts/eventTransactionRecord.sol\":6568:6577  _paramKey */\n      dup4\n        /* \"contracts/eventTransactionRecord.sol\":6549:6578  transaction.params[_paramKey] */\n      mload(0x40)\n      tag_223\n      swap2\n      swap1\n      tag_208\n      jump\t// in\n    tag_223:\n      swap1\n      dup2\n      mstore\n      0x20\n      add\n      mload(0x40)\n      dup1\n      swap2\n      sub\n      swap1\n      keccak256\n      sload\n        /* \"contracts/eventTransactionRecord.sol\":6542:6578  return transaction.params[_paramKey] */\n      swap2\n      pop\n      pop\n        /* \"contracts/eventTransactionRecord.sol\":6347:6585  function getTransactionParamByEventId(string memory _eventId, string memory _paramKey) public view returns (int256) {... */\n      swap3\n      swap2\n      pop\n      pop\n      jump\t// out\n        /* \"contracts/eventTransactionRecord.sol\":5902:6040  function getTransactionType(uint256 index) public view returns (string memory) {... */\n    tag_77:\n        /* \"contracts/eventTransactionRecord.sol\":5966:5979  string memory */\n      0x60\n        /* \"contracts/eventTransactionRecord.sol\":5998:6010  transactions */\n      0x00\n        /* \"contracts/eventTransactionRecord.sol\":6011:6016  index */\n      dup3\n        /* \"contracts/eventTransactionRecord.sol\":5998:6017  transactions[index] */\n      dup2\n      sload\n      dup2\n      lt\n      tag_225\n      jumpi\n      tag_226\n      tag_83\n      jump\t// in\n    tag_226:\n    tag_225:\n      swap1\n      0x00\n      mstore\n      keccak256(0x00, 0x20)\n      swap1\n      0x04\n      mul\n      add\n        /* \"contracts/eventTransactionRecord.sol\":5998:6033  transactions[index].transactionType */\n      0x00\n      add\n        /* \"contracts/eventTransactionRecord.sol\":5991:6033  return transactions[index].transactionType */\n      dup1\n      sload\n      tag_228\n      swap1\n      tag_171\n      jump\t// in\n    tag_228:\n      dup1\n      0x1f\n      add\n      0x20\n      dup1\n      swap2\n      div\n      mul\n      0x20\n      add\n      mload(0x40)\n      swap1\n      dup2\n      add\n      0x40\n      mstore\n      dup1\n      swap3\n      swap2\n      swap1\n      dup2\n      dup2\n      mstore\n      0x20\n      add\n      dup3\n      dup1\n      sload\n      tag_229\n      swap1\n      tag_171\n      jump\t// in\n    tag_229:\n      dup1\n      iszero\n      tag_230\n      jumpi\n      dup1\n      0x1f\n      lt\n      tag_231\n      jumpi\n      0x0100\n      dup1\n      dup4\n      sload\n      div\n      mul\n      dup4\n      mstore\n      swap2\n      0x20\n      add\n      swap2\n      jump(tag_230)\n    tag_231:\n      dup3\n      add\n      swap2\n      swap1\n      0x00\n      mstore\n      keccak256(0x00, 0x20)\n      swap1\n    tag_232:\n      dup2\n      sload\n      dup2\n      mstore\n      swap1\n      0x01\n      add\n      swap1\n      0x20\n      add\n      dup1\n      dup4\n      gt\n      tag_232\n      jumpi\n      dup3\n      swap1\n      sub\n      0x1f\n      and\n      dup3\n      add\n      swap2\n    tag_230:\n      pop\n      pop\n      pop\n      pop\n      pop\n      swap1\n      pop\n        /* \"contracts/eventTransactionRecord.sol\":5902:6040  function getTransactionType(uint256 index) public view returns (string memory) {... */\n      swap2\n      swap1\n      pop\n      jump\t// out\n        /* \"contracts/eventTransactionRecord.sol\":5391:5785  function findTransaction(string memory _eventId) internal view returns (Transaction storage) {... */\n    tag_192:\n        /* \"contracts/eventTransactionRecord.sol\":5463:5482  Transaction storage */\n      0x00\n        /* \"contracts/eventTransactionRecord.sol\":5499:5505  uint i */\n      dup1\n        /* \"contracts/eventTransactionRecord.sol\":5508:5509  0 */\n      0x00\n        /* \"contracts/eventTransactionRecord.sol\":5499:5509  uint i = 0 */\n      swap1\n      pop\n        /* \"contracts/eventTransactionRecord.sol\":5494:5719  for (uint i = 0; i < transactions.length; i++) {... */\n    tag_234:\n        /* \"contracts/eventTransactionRecord.sol\":5515:5527  transactions */\n      0x00\n        /* \"contracts/eventTransactionRecord.sol\":5515:5534  transactions.length */\n      dup1\n      sload\n      swap1\n      pop\n        /* \"contracts/eventTransactionRecord.sol\":5511:5512  i */\n      dup2\n        /* \"contracts/eventTransactionRecord.sol\":5511:5534  i < transactions.length */\n      lt\n        /* \"contracts/eventTransactionRecord.sol\":5494:5719  for (uint i = 0; i < transactions.length; i++) {... */\n      iszero\n      tag_235\n      jumpi\n        /* \"contracts/eventTransactionRecord.sol\":5642:5650  _eventId */\n      dup3\n        /* \"contracts/eventTransactionRecord.sol\":5625:5651  abi.encodePacked(_eventId) */\n      add(0x20, mload(0x40))\n      tag_237\n      swap2\n      swap1\n      tag_208\n      jump\t// in\n    tag_237:\n      mload(0x40)\n      0x20\n      dup2\n      dup4\n      sub\n      sub\n      dup2\n      mstore\n      swap1\n      0x40\n      mstore\n        /* \"contracts/eventTransactionRecord.sol\":5615:5652  keccak256(abi.encodePacked(_eventId)) */\n      dup1\n      mload\n      swap1\n      0x20\n      add\n      keccak256\n        /* \"contracts/eventTransactionRecord.sol\":5586:5598  transactions */\n      0x00\n        /* \"contracts/eventTransactionRecord.sol\":5599:5600  i */\n      dup3\n        /* \"contracts/eventTransactionRecord.sol\":5586:5601  transactions[i] */\n      dup2\n      sload\n      dup2\n      lt\n      tag_238\n      jumpi\n      tag_239\n      tag_83\n      jump\t// in\n    tag_239:\n    tag_238:\n      swap1\n      0x00\n      mstore\n      keccak256(0x00, 0x20)\n      swap1\n      0x04\n      mul\n      add\n        /* \"contracts/eventTransactionRecord.sol\":5586:5609  transactions[i].eventId */\n      0x01\n      add\n        /* \"contracts/eventTransactionRecord.sol\":5569:5610  abi.encodePacked(transactions[i].eventId) */\n      add(0x20, mload(0x40))\n      tag_241\n      swap2\n      swap1\n      tag_242\n      jump\t// in\n    tag_241:\n      mload(0x40)\n      0x20\n      dup2\n      dup4\n      sub\n      sub\n      dup2\n      mstore\n      swap1\n      0x40\n      mstore\n        /* \"contracts/eventTransactionRecord.sol\":5559:5611  keccak256(abi.encodePacked(transactions[i].eventId)) */\n      dup1\n      mload\n      swap1\n      0x20\n      add\n      keccak256\n        /* \"contracts/eventTransactionRecord.sol\":5559:5652  keccak256(abi.encodePacked(transactions[i].eventId)) == keccak256(abi.encodePacked(_eventId)) */\n      sub\n        /* \"contracts/eventTransactionRecord.sol\":5555:5709  if (keccak256(abi.encodePacked(transactions[i].eventId)) == keccak256(abi.encodePacked(_eventId))) {... */\n      tag_243\n      jumpi\n        /* \"contracts/eventTransactionRecord.sol\":5679:5691  transactions */\n      0x00\n        /* \"contracts/eventTransactionRecord.sol\":5692:5693  i */\n      dup2\n        /* \"contracts/eventTransactionRecord.sol\":5679:5694  transactions[i] */\n      dup2\n      sload\n      dup2\n      lt\n      tag_244\n      jumpi\n      tag_245\n      tag_83\n      jump\t// in\n    tag_245:\n    tag_244:\n      swap1\n      0x00\n      mstore\n      keccak256(0x00, 0x20)\n      swap1\n      0x04\n      mul\n      add\n        /* \"contracts/eventTransactionRecord.sol\":5672:5694  return transactions[i] */\n      swap2\n      pop\n      pop\n      jump(tag_233)\n        /* \"contracts/eventTransactionRecord.sol\":5555:5709  if (keccak256(abi.encodePacked(transactions[i].eventId)) == keccak256(abi.encodePacked(_eventId))) {... */\n    tag_243:\n        /* \"contracts/eventTransactionRecord.sol\":5536:5539  i++ */\n      dup1\n      dup1\n      tag_247\n      swap1\n      tag_248\n      jump\t// in\n    tag_247:\n      swap2\n      pop\n      pop\n        /* \"contracts/eventTransactionRecord.sol\":5494:5719  for (uint i = 0; i < transactions.length; i++) {... */\n      jump(tag_234)\n    tag_235:\n      pop\n        /* \"contracts/eventTransactionRecord.sol\":5728:5778  revert(\"Transaction with given eventId not found\") */\n      mload(0x40)\n      0x08c379a000000000000000000000000000000000000000000000000000000000\n      dup2\n      mstore\n      0x04\n      add\n      tag_249\n      swap1\n      tag_250\n      jump\t// in\n    tag_249:\n      mload(0x40)\n      dup1\n      swap2\n      sub\n      swap1\n      revert\n        /* \"contracts/eventTransactionRecord.sol\":5391:5785  function findTransaction(string memory _eventId) internal view returns (Transaction storage) {... */\n    tag_233:\n      swap2\n      swap1\n      pop\n      jump\t// out\n        /* \"#utility.yul\":7:82   */\n    tag_251:\n        /* \"#utility.yul\":40:46   */\n      0x00\n        /* \"#utility.yul\":73:75   */\n      0x40\n        /* \"#utility.yul\":67:76   */\n      mload\n        /* \"#utility.yul\":57:76   */\n      swap1\n      pop\n        /* \"#utility.yul\":7:82   */\n      swap1\n      jump\t// out\n        /* \"#utility.yul\":88:205   */\n    tag_252:\n        /* \"#utility.yul\":197:198   */\n      0x00\n        /* \"#utility.yul\":194:195   */\n      dup1\n        /* \"#utility.yul\":187:199   */\n      revert\n        /* \"#utility.yul\":211:328   */\n    tag_253:\n        /* \"#utility.yul\":320:321   */\n      0x00\n        /* \"#utility.yul\":317:318   */\n      dup1\n        /* \"#utility.yul\":310:322   */\n      revert\n        /* \"#utility.yul\":334:451   */\n    tag_254:\n        /* \"#utility.yul\":443:444   */\n      0x00\n        /* \"#utility.yul\":440:441   */\n      dup1\n        /* \"#utility.yul\":433:445   */\n      revert\n        /* \"#utility.yul\":457:574   */\n    tag_255:\n        /* \"#utility.yul\":566:567   */\n      0x00\n        /* \"#utility.yul\":563:564   */\n      dup1\n        /* \"#utility.yul\":556:568   */\n      revert\n        /* \"#utility.yul\":580:682   */\n    tag_256:\n        /* \"#utility.yul\":621:627   */\n      0x00\n        /* \"#utility.yul\":672:674   */\n      0x1f\n        /* \"#utility.yul\":668:675   */\n      not\n        /* \"#utility.yul\":663:665   */\n      0x1f\n        /* \"#utility.yul\":656:661   */\n      dup4\n        /* \"#utility.yul\":652:666   */\n      add\n        /* \"#utility.yul\":648:676   */\n      and\n        /* \"#utility.yul\":638:676   */\n      swap1\n      pop\n        /* \"#utility.yul\":580:682   */\n      swap2\n      swap1\n      pop\n      jump\t// out\n        /* \"#utility.yul\":688:868   */\n    tag_257:\n        /* \"#utility.yul\":736:813   */\n      0x4e487b7100000000000000000000000000000000000000000000000000000000\n        /* \"#utility.yul\":733:734   */\n      0x00\n        /* \"#utility.yul\":726:814   */\n      mstore\n        /* \"#utility.yul\":833:837   */\n      0x41\n        /* \"#utility.yul\":830:831   */\n      0x04\n        /* \"#utility.yul\":823:838   */\n      mstore\n        /* \"#utility.yul\":857:861   */\n      0x24\n        /* \"#utility.yul\":854:855   */\n      0x00\n        /* \"#utility.yul\":847:862   */\n      revert\n        /* \"#utility.yul\":874:1155   */\n    tag_258:\n        /* \"#utility.yul\":957:984   */\n      tag_330\n        /* \"#utility.yul\":979:983   */\n      dup3\n        /* \"#utility.yul\":957:984   */\n      tag_256\n      jump\t// in\n    tag_330:\n        /* \"#utility.yul\":949:955   */\n      dup2\n        /* \"#utility.yul\":945:985   */\n      add\n        /* \"#utility.yul\":1087:1093   */\n      dup2\n        /* \"#utility.yul\":1075:1085   */\n      dup2\n        /* \"#utility.yul\":1072:1094   */\n      lt\n        /* \"#utility.yul\":1051:1069   */\n      0xffffffffffffffff\n        /* \"#utility.yul\":1039:1049   */\n      dup3\n        /* \"#utility.yul\":1036:1070   */\n      gt\n        /* \"#utility.yul\":1033:1095   */\n      or\n        /* \"#utility.yul\":1030:1118   */\n      iszero\n      tag_331\n      jumpi\n        /* \"#utility.yul\":1098:1116   */\n      tag_332\n      tag_257\n      jump\t// in\n    tag_332:\n        /* \"#utility.yul\":1030:1118   */\n    tag_331:\n        /* \"#utility.yul\":1138:1148   */\n      dup1\n        /* \"#utility.yul\":1134:1136   */\n      0x40\n        /* \"#utility.yul\":1127:1149   */\n      mstore\n        /* \"#utility.yul\":917:1155   */\n      pop\n        /* \"#utility.yul\":874:1155   */\n      pop\n      pop\n      jump\t// out\n        /* \"#utility.yul\":1161:1290   */\n    tag_259:\n        /* \"#utility.yul\":1195:1201   */\n      0x00\n        /* \"#utility.yul\":1222:1242   */\n      tag_334\n      tag_251\n      jump\t// in\n    tag_334:\n        /* \"#utility.yul\":1212:1242   */\n      swap1\n      pop\n        /* \"#utility.yul\":1251:1284   */\n      tag_335\n        /* \"#utility.yul\":1279:1283   */\n      dup3\n        /* \"#utility.yul\":1271:1277   */\n      dup3\n        /* \"#utility.yul\":1251:1284   */\n      tag_258\n      jump\t// in\n    tag_335:\n        /* \"#utility.yul\":1161:1290   */\n      swap2\n      swap1\n      pop\n      jump\t// out\n        /* \"#utility.yul\":1296:1604   */\n    tag_260:\n        /* \"#utility.yul\":1358:1362   */\n      0x00\n        /* \"#utility.yul\":1448:1466   */\n      0xffffffffffffffff\n        /* \"#utility.yul\":1440:1446   */\n      dup3\n        /* \"#utility.yul\":1437:1467   */\n      gt\n        /* \"#utility.yul\":1434:1490   */\n      iszero\n      tag_337\n      jumpi\n        /* \"#utility.yul\":1470:1488   */\n      tag_338\n      tag_257\n      jump\t// in\n    tag_338:\n        /* \"#utility.yul\":1434:1490   */\n    tag_337:\n        /* \"#utility.yul\":1508:1537   */\n      tag_339\n        /* \"#utility.yul\":1530:1536   */\n      dup3\n        /* \"#utility.yul\":1508:1537   */\n      tag_256\n      jump\t// in\n    tag_339:\n        /* \"#utility.yul\":1500:1537   */\n      swap1\n      pop\n        /* \"#utility.yul\":1592:1596   */\n      0x20\n        /* \"#utility.yul\":1586:1590   */\n      dup2\n        /* \"#utility.yul\":1582:1597   */\n      add\n        /* \"#utility.yul\":1574:1597   */\n      swap1\n      pop\n        /* \"#utility.yul\":1296:1604   */\n      swap2\n      swap1\n      pop\n      jump\t// out\n        /* \"#utility.yul\":1610:1756   */\n    tag_261:\n        /* \"#utility.yul\":1707:1713   */\n      dup3\n        /* \"#utility.yul\":1702:1705   */\n      dup2\n        /* \"#utility.yul\":1697:1700   */\n      dup4\n        /* \"#utility.yul\":1684:1714   */\n      calldatacopy\n        /* \"#utility.yul\":1748:1749   */\n      0x00\n        /* \"#utility.yul\":1739:1745   */\n      dup4\n        /* \"#utility.yul\":1734:1737   */\n      dup4\n        /* \"#utility.yul\":1730:1746   */\n      add\n        /* \"#utility.yul\":1723:1750   */\n      mstore\n        /* \"#utility.yul\":1610:1756   */\n      pop\n      pop\n      pop\n      jump\t// out\n        /* \"#utility.yul\":1762:2187   */\n    tag_262:\n        /* \"#utility.yul\":1840:1845   */\n      0x00\n        /* \"#utility.yul\":1865:1931   */\n      tag_342\n        /* \"#utility.yul\":1881:1930   */\n      tag_343\n        /* \"#utility.yul\":1923:1929   */\n      dup5\n        /* \"#utility.yul\":1881:1930   */\n      tag_260\n      jump\t// in\n    tag_343:\n        /* \"#utility.yul\":1865:1931   */\n      tag_259\n      jump\t// in\n    tag_342:\n        /* \"#utility.yul\":1856:1931   */\n      swap1\n      pop\n        /* \"#utility.yul\":1954:1960   */\n      dup3\n        /* \"#utility.yul\":1947:1952   */\n      dup2\n        /* \"#utility.yul\":1940:1961   */\n      mstore\n        /* \"#utility.yul\":1992:1996   */\n      0x20\n        /* \"#utility.yul\":1985:1990   */\n      dup2\n        /* \"#utility.yul\":1981:1997   */\n      add\n        /* \"#utility.yul\":2030:2033   */\n      dup5\n        /* \"#utility.yul\":2021:2027   */\n      dup5\n        /* \"#utility.yul\":2016:2019   */\n      dup5\n        /* \"#utility.yul\":2012:2028   */\n      add\n        /* \"#utility.yul\":2009:2034   */\n      gt\n        /* \"#utility.yul\":2006:2118   */\n      iszero\n      tag_344\n      jumpi\n        /* \"#utility.yul\":2037:2116   */\n      tag_345\n      tag_255\n      jump\t// in\n    tag_345:\n        /* \"#utility.yul\":2006:2118   */\n    tag_344:\n        /* \"#utility.yul\":2127:2181   */\n      tag_346\n        /* \"#utility.yul\":2174:2180   */\n      dup5\n        /* \"#utility.yul\":2169:2172   */\n      dup3\n        /* \"#utility.yul\":2164:2167   */\n      dup6\n        /* \"#utility.yul\":2127:2181   */\n      tag_261\n      jump\t// in\n    tag_346:\n        /* \"#utility.yul\":1846:2187   */\n      pop\n        /* \"#utility.yul\":1762:2187   */\n      swap4\n      swap3\n      pop\n      pop\n      pop\n      jump\t// out\n        /* \"#utility.yul\":2207:2547   */\n    tag_263:\n        /* \"#utility.yul\":2263:2268   */\n      0x00\n        /* \"#utility.yul\":2312:2315   */\n      dup3\n        /* \"#utility.yul\":2305:2309   */\n      0x1f\n        /* \"#utility.yul\":2297:2303   */\n      dup4\n        /* \"#utility.yul\":2293:2310   */\n      add\n        /* \"#utility.yul\":2289:2316   */\n      slt\n        /* \"#utility.yul\":2279:2401   */\n      tag_348\n      jumpi\n        /* \"#utility.yul\":2320:2399   */\n      tag_349\n      tag_254\n      jump\t// in\n    tag_349:\n        /* \"#utility.yul\":2279:2401   */\n    tag_348:\n        /* \"#utility.yul\":2437:2443   */\n      dup2\n        /* \"#utility.yul\":2424:2444   */\n      calldataload\n        /* \"#utility.yul\":2462:2541   */\n      tag_350\n        /* \"#utility.yul\":2537:2540   */\n      dup5\n        /* \"#utility.yul\":2529:2535   */\n      dup3\n        /* \"#utility.yul\":2522:2526   */\n      0x20\n        /* \"#utility.yul\":2514:2520   */\n      dup7\n        /* \"#utility.yul\":2510:2527   */\n      add\n        /* \"#utility.yul\":2462:2541   */\n      tag_262\n      jump\t// in\n    tag_350:\n        /* \"#utility.yul\":2453:2541   */\n      swap2\n      pop\n        /* \"#utility.yul\":2269:2547   */\n      pop\n        /* \"#utility.yul\":2207:2547   */\n      swap3\n      swap2\n      pop\n      pop\n      jump\t// out\n        /* \"#utility.yul\":2553:2629   */\n    tag_264:\n        /* \"#utility.yul\":2589:2596   */\n      0x00\n        /* \"#utility.yul\":2618:2623   */\n      dup2\n        /* \"#utility.yul\":2607:2623   */\n      swap1\n      pop\n        /* \"#utility.yul\":2553:2629   */\n      swap2\n      swap1\n      pop\n      jump\t// out\n        /* \"#utility.yul\":2635:2755   */\n    tag_265:\n        /* \"#utility.yul\":2707:2730   */\n      tag_353\n        /* \"#utility.yul\":2724:2729   */\n      dup2\n        /* \"#utility.yul\":2707:2730   */\n      tag_264\n      jump\t// in\n    tag_353:\n        /* \"#utility.yul\":2700:2705   */\n      dup2\n        /* \"#utility.yul\":2697:2731   */\n      eq\n        /* \"#utility.yul\":2687:2749   */\n      tag_354\n      jumpi\n        /* \"#utility.yul\":2745:2746   */\n      0x00\n        /* \"#utility.yul\":2742:2743   */\n      dup1\n        /* \"#utility.yul\":2735:2747   */\n      revert\n        /* \"#utility.yul\":2687:2749   */\n    tag_354:\n        /* \"#utility.yul\":2635:2755   */\n      pop\n      jump\t// out\n        /* \"#utility.yul\":2761:2898   */\n    tag_266:\n        /* \"#utility.yul\":2806:2811   */\n      0x00\n        /* \"#utility.yul\":2844:2850   */\n      dup2\n        /* \"#utility.yul\":2831:2851   */\n      calldataload\n        /* \"#utility.yul\":2822:2851   */\n      swap1\n      pop\n        /* \"#utility.yul\":2860:2892   */\n      tag_356\n        /* \"#utility.yul\":2886:2891   */\n      dup2\n        /* \"#utility.yul\":2860:2892   */\n      tag_265\n      jump\t// in\n    tag_356:\n        /* \"#utility.yul\":2761:2898   */\n      swap3\n      swap2\n      pop\n      pop\n      jump\t// out\n        /* \"#utility.yul\":2904:4131   */\n    tag_22:\n        /* \"#utility.yul\":3013:3019   */\n      0x00\n        /* \"#utility.yul\":3021:3027   */\n      dup1\n        /* \"#utility.yul\":3029:3035   */\n      0x00\n        /* \"#utility.yul\":3037:3043   */\n      dup1\n        /* \"#utility.yul\":3045:3051   */\n      0x00\n        /* \"#utility.yul\":3053:3059   */\n      dup1\n        /* \"#utility.yul\":3102:3105   */\n      0xc0\n        /* \"#utility.yul\":3090:3099   */\n      dup8\n        /* \"#utility.yul\":3081:3088   */\n      dup10\n        /* \"#utility.yul\":3077:3100   */\n      sub\n        /* \"#utility.yul\":3073:3106   */\n      slt\n        /* \"#utility.yul\":3070:3190   */\n      iszero\n      tag_358\n      jumpi\n        /* \"#utility.yul\":3109:3188   */\n      tag_359\n      tag_252\n      jump\t// in\n    tag_359:\n        /* \"#utility.yul\":3070:3190   */\n    tag_358:\n        /* \"#utility.yul\":3257:3258   */\n      0x00\n        /* \"#utility.yul\":3246:3255   */\n      dup8\n        /* \"#utility.yul\":3242:3259   */\n      add\n        /* \"#utility.yul\":3229:3260   */\n      calldataload\n        /* \"#utility.yul\":3287:3305   */\n      0xffffffffffffffff\n        /* \"#utility.yul\":3279:3285   */\n      dup2\n        /* \"#utility.yul\":3276:3306   */\n      gt\n        /* \"#utility.yul\":3273:3390   */\n      iszero\n      tag_360\n      jumpi\n        /* \"#utility.yul\":3309:3388   */\n      tag_361\n      tag_253\n      jump\t// in\n    tag_361:\n        /* \"#utility.yul\":3273:3390   */\n    tag_360:\n        /* \"#utility.yul\":3414:3477   */\n      tag_362\n        /* \"#utility.yul\":3469:3476   */\n      dup10\n        /* \"#utility.yul\":3460:3466   */\n      dup3\n        /* \"#utility.yul\":3449:3458   */\n      dup11\n        /* \"#utility.yul\":3445:3467   */\n      add\n        /* \"#utility.yul\":3414:3477   */\n      tag_263\n      jump\t// in\n    tag_362:\n        /* \"#utility.yul\":3404:3477   */\n      swap7\n      pop\n        /* \"#utility.yul\":3200:3487   */\n      pop\n        /* \"#utility.yul\":3526:3528   */\n      0x20\n        /* \"#utility.yul\":3552:3604   */\n      tag_363\n        /* \"#utility.yul\":3596:3603   */\n      dup10\n        /* \"#utility.yul\":3587:3593   */\n      dup3\n        /* \"#utility.yul\":3576:3585   */\n      dup11\n        /* \"#utility.yul\":3572:3594   */\n      add\n        /* \"#utility.yul\":3552:3604   */\n      tag_266\n      jump\t// in\n    tag_363:\n        /* \"#utility.yul\":3542:3604   */\n      swap6\n      pop\n        /* \"#utility.yul\":3497:3614   */\n      pop\n        /* \"#utility.yul\":3653:3655   */\n      0x40\n        /* \"#utility.yul\":3679:3731   */\n      tag_364\n        /* \"#utility.yul\":3723:3730   */\n      dup10\n        /* \"#utility.yul\":3714:3720   */\n      dup3\n        /* \"#utility.yul\":3703:3712   */\n      dup11\n        /* \"#utility.yul\":3699:3721   */\n      add\n        /* \"#utility.yul\":3679:3731   */\n      tag_266\n      jump\t// in\n    tag_364:\n        /* \"#utility.yul\":3669:3731   */\n      swap5\n      pop\n        /* \"#utility.yul\":3624:3741   */\n      pop\n        /* \"#utility.yul\":3780:3782   */\n      0x60\n        /* \"#utility.yul\":3806:3858   */\n      tag_365\n        /* \"#utility.yul\":3850:3857   */\n      dup10\n        /* \"#utility.yul\":3841:3847   */\n      dup3\n        /* \"#utility.yul\":3830:3839   */\n      dup11\n        /* \"#utility.yul\":3826:3848   */\n      add\n        /* \"#utility.yul\":3806:3858   */\n      tag_266\n      jump\t// in\n    tag_365:\n        /* \"#utility.yul\":3796:3858   */\n      swap4\n      pop\n        /* \"#utility.yul\":3751:3868   */\n      pop\n        /* \"#utility.yul\":3907:3910   */\n      0x80\n        /* \"#utility.yul\":3934:3986   */\n      tag_366\n        /* \"#utility.yul\":3978:3985   */\n      dup10\n        /* \"#utility.yul\":3969:3975   */\n      dup3\n        /* \"#utility.yul\":3958:3967   */\n      dup11\n        /* \"#utility.yul\":3954:3976   */\n      add\n        /* \"#utility.yul\":3934:3986   */\n      tag_266\n      jump\t// in\n    tag_366:\n        /* \"#utility.yul\":3924:3986   */\n      swap3\n      pop\n        /* \"#utility.yul\":3878:3996   */\n      pop\n        /* \"#utility.yul\":4035:4038   */\n      0xa0\n        /* \"#utility.yul\":4062:4114   */\n      tag_367\n        /* \"#utility.yul\":4106:4113   */\n      dup10\n        /* \"#utility.yul\":4097:4103   */\n      dup3\n        /* \"#utility.yul\":4086:4095   */\n      dup11\n        /* \"#utility.yul\":4082:4104   */\n      add\n        /* \"#utility.yul\":4062:4114   */\n      tag_266\n      jump\t// in\n    tag_367:\n        /* \"#utility.yul\":4052:4114   */\n      swap2\n      pop\n        /* \"#utility.yul\":4006:4124   */\n      pop\n        /* \"#utility.yul\":2904:4131   */\n      swap3\n      swap6\n      pop\n      swap3\n      swap6\n      pop\n      swap3\n      swap6\n      jump\t// out\n        /* \"#utility.yul\":4137:4214   */\n    tag_267:\n        /* \"#utility.yul\":4174:4181   */\n      0x00\n        /* \"#utility.yul\":4203:4208   */\n      dup2\n        /* \"#utility.yul\":4192:4208   */\n      swap1\n      pop\n        /* \"#utility.yul\":4137:4214   */\n      swap2\n      swap1\n      pop\n      jump\t// out\n        /* \"#utility.yul\":4220:4338   */\n    tag_268:\n        /* \"#utility.yul\":4307:4331   */\n      tag_370\n        /* \"#utility.yul\":4325:4330   */\n      dup2\n        /* \"#utility.yul\":4307:4331   */\n      tag_267\n      jump\t// in\n    tag_370:\n        /* \"#utility.yul\":4302:4305   */\n      dup3\n        /* \"#utility.yul\":4295:4332   */\n      mstore\n        /* \"#utility.yul\":4220:4338   */\n      pop\n      pop\n      jump\t// out\n        /* \"#utility.yul\":4344:4566   */\n    tag_27:\n        /* \"#utility.yul\":4437:4441   */\n      0x00\n        /* \"#utility.yul\":4475:4477   */\n      0x20\n        /* \"#utility.yul\":4464:4473   */\n      dup3\n        /* \"#utility.yul\":4460:4478   */\n      add\n        /* \"#utility.yul\":4452:4478   */\n      swap1\n      pop\n        /* \"#utility.yul\":4488:4559   */\n      tag_372\n        /* \"#utility.yul\":4556:4557   */\n      0x00\n        /* \"#utility.yul\":4545:4554   */\n      dup4\n        /* \"#utility.yul\":4541:4558   */\n      add\n        /* \"#utility.yul\":4532:4538   */\n      dup5\n        /* \"#utility.yul\":4488:4559   */\n      tag_268\n      jump\t// in\n    tag_372:\n        /* \"#utility.yul\":4344:4566   */\n      swap3\n      swap2\n      pop\n      pop\n      jump\t// out\n        /* \"#utility.yul\":4572:5655   */\n    tag_30:\n        /* \"#utility.yul\":4673:4679   */\n      0x00\n        /* \"#utility.yul\":4681:4687   */\n      dup1\n        /* \"#utility.yul\":4689:4695   */\n      0x00\n        /* \"#utility.yul\":4697:4703   */\n      dup1\n        /* \"#utility.yul\":4705:4711   */\n      0x00\n        /* \"#utility.yul\":4754:4757   */\n      0xa0\n        /* \"#utility.yul\":4742:4751   */\n      dup7\n        /* \"#utility.yul\":4733:4740   */\n      dup9\n        /* \"#utility.yul\":4729:4752   */\n      sub\n        /* \"#utility.yul\":4725:4758   */\n      slt\n        /* \"#utility.yul\":4722:4842   */\n      iszero\n      tag_374\n      jumpi\n        /* \"#utility.yul\":4761:4840   */\n      tag_375\n      tag_252\n      jump\t// in\n    tag_375:\n        /* \"#utility.yul\":4722:4842   */\n    tag_374:\n        /* \"#utility.yul\":4909:4910   */\n      0x00\n        /* \"#utility.yul\":4898:4907   */\n      dup7\n        /* \"#utility.yul\":4894:4911   */\n      add\n        /* \"#utility.yul\":4881:4912   */\n      calldataload\n        /* \"#utility.yul\":4939:4957   */\n      0xffffffffffffffff\n        /* \"#utility.yul\":4931:4937   */\n      dup2\n        /* \"#utility.yul\":4928:4958   */\n      gt\n        /* \"#utility.yul\":4925:5042   */\n      iszero\n      tag_376\n      jumpi\n        /* \"#utility.yul\":4961:5040   */\n      tag_377\n      tag_253\n      jump\t// in\n    tag_377:\n        /* \"#utility.yul\":4925:5042   */\n    tag_376:\n        /* \"#utility.yul\":5066:5129   */\n      tag_378\n        /* \"#utility.yul\":5121:5128   */\n      dup9\n        /* \"#utility.yul\":5112:5118   */\n      dup3\n        /* \"#utility.yul\":5101:5110   */\n      dup10\n        /* \"#utility.yul\":5097:5119   */\n      add\n        /* \"#utility.yul\":5066:5129   */\n      tag_263\n      jump\t// in\n    tag_378:\n        /* \"#utility.yul\":5056:5129   */\n      swap6\n      pop\n        /* \"#utility.yul\":4852:5139   */\n      pop\n        /* \"#utility.yul\":5178:5180   */\n      0x20\n        /* \"#utility.yul\":5204:5256   */\n      tag_379\n        /* \"#utility.yul\":5248:5255   */\n      dup9\n        /* \"#utility.yul\":5239:5245   */\n      dup3\n        /* \"#utility.yul\":5228:5237   */\n      dup10\n        /* \"#utility.yul\":5224:5246   */\n      add\n        /* \"#utility.yul\":5204:5256   */\n      tag_266\n      jump\t// in\n    tag_379:\n        /* \"#utility.yul\":5194:5256   */\n      swap5\n      pop\n        /* \"#utility.yul\":5149:5266   */\n      pop\n        /* \"#utility.yul\":5305:5307   */\n      0x40\n        /* \"#utility.yul\":5331:5383   */\n      tag_380\n        /* \"#utility.yul\":5375:5382   */\n      dup9\n        /* \"#utility.yul\":5366:5372   */\n      dup3\n        /* \"#utility.yul\":5355:5364   */\n      dup10\n        /* \"#utility.yul\":5351:5373   */\n      add\n        /* \"#utility.yul\":5331:5383   */\n      tag_266\n      jump\t// in\n    tag_380:\n        /* \"#utility.yul\":5321:5383   */\n      swap4\n      pop\n        /* \"#utility.yul\":5276:5393   */\n      pop\n        /* \"#utility.yul\":5432:5434   */\n      0x60\n        /* \"#utility.yul\":5458:5510   */\n      tag_381\n        /* \"#utility.yul\":5502:5509   */\n      dup9\n        /* \"#utility.yul\":5493:5499   */\n      dup3\n        /* \"#utility.yul\":5482:5491   */\n      dup10\n        /* \"#utility.yul\":5478:5500   */\n      add\n        /* \"#utility.yul\":5458:5510   */\n      tag_266\n      jump\t// in\n    tag_381:\n        /* \"#utility.yul\":5448:5510   */\n      swap3\n      pop\n        /* \"#utility.yul\":5403:5520   */\n      pop\n        /* \"#utility.yul\":5559:5562   */\n      0x80\n        /* \"#utility.yul\":5586:5638   */\n      tag_382\n        /* \"#utility.yul\":5630:5637   */\n      dup9\n        /* \"#utility.yul\":5621:5627   */\n      dup3\n        /* \"#utility.yul\":5610:5619   */\n      dup10\n        /* \"#utility.yul\":5606:5628   */\n      add\n        /* \"#utility.yul\":5586:5638   */\n      tag_266\n      jump\t// in\n    tag_382:\n        /* \"#utility.yul\":5576:5638   */\n      swap2\n      pop\n        /* \"#utility.yul\":5530:5648   */\n      pop\n        /* \"#utility.yul\":4572:5655   */\n      swap3\n      swap6\n      pop\n      swap3\n      swap6\n      swap1\n      swap4\n      pop\n      jump\t// out\n        /* \"#utility.yul\":5661:7032   */\n    tag_34:\n        /* \"#utility.yul\":5778:5784   */\n      0x00\n        /* \"#utility.yul\":5786:5792   */\n      dup1\n        /* \"#utility.yul\":5794:5800   */\n      0x00\n        /* \"#utility.yul\":5802:5808   */\n      dup1\n        /* \"#utility.yul\":5810:5816   */\n      0x00\n        /* \"#utility.yul\":5818:5824   */\n      dup1\n        /* \"#utility.yul\":5826:5832   */\n      0x00\n        /* \"#utility.yul\":5875:5878   */\n      0xe0\n        /* \"#utility.yul\":5863:5872   */\n      dup9\n        /* \"#utility.yul\":5854:5861   */\n      dup11\n        /* \"#utility.yul\":5850:5873   */\n      sub\n        /* \"#utility.yul\":5846:5879   */\n      slt\n        /* \"#utility.yul\":5843:5963   */\n      iszero\n      tag_384\n      jumpi\n        /* \"#utility.yul\":5882:5961   */\n      tag_385\n      tag_252\n      jump\t// in\n    tag_385:\n        /* \"#utility.yul\":5843:5963   */\n    tag_384:\n        /* \"#utility.yul\":6030:6031   */\n      0x00\n        /* \"#utility.yul\":6019:6028   */\n      dup9\n        /* \"#utility.yul\":6015:6032   */\n      add\n        /* \"#utility.yul\":6002:6033   */\n      calldataload\n        /* \"#utility.yul\":6060:6078   */\n      0xffffffffffffffff\n        /* \"#utility.yul\":6052:6058   */\n      dup2\n        /* \"#utility.yul\":6049:6079   */\n      gt\n        /* \"#utility.yul\":6046:6163   */\n      iszero\n      tag_386\n      jumpi\n        /* \"#utility.yul\":6082:6161   */\n      tag_387\n      tag_253\n      jump\t// in\n    tag_387:\n        /* \"#utility.yul\":6046:6163   */\n    tag_386:\n        /* \"#utility.yul\":6187:6250   */\n      tag_388\n        /* \"#utility.yul\":6242:6249   */\n      dup11\n        /* \"#utility.yul\":6233:6239   */\n      dup3\n        /* \"#utility.yul\":6222:6231   */\n      dup12\n        /* \"#utility.yul\":6218:6240   */\n      add\n        /* \"#utility.yul\":6187:6250   */\n      tag_263\n      jump\t// in\n    tag_388:\n        /* \"#utility.yul\":6177:6250   */\n      swap8\n      pop\n        /* \"#utility.yul\":5973:6260   */\n      pop\n        /* \"#utility.yul\":6299:6301   */\n      0x20\n        /* \"#utility.yul\":6325:6377   */\n      tag_389\n        /* \"#utility.yul\":6369:6376   */\n      dup11\n        /* \"#utility.yul\":6360:6366   */\n      dup3\n        /* \"#utility.yul\":6349:6358   */\n      dup12\n        /* \"#utility.yul\":6345:6367   */\n      add\n        /* \"#utility.yul\":6325:6377   */\n      tag_266\n      jump\t// in\n    tag_389:\n        /* \"#utility.yul\":6315:6377   */\n      swap7\n      pop\n        /* \"#utility.yul\":6270:6387   */\n      pop\n        /* \"#utility.yul\":6426:6428   */\n      0x40\n        /* \"#utility.yul\":6452:6504   */\n      tag_390\n        /* \"#utility.yul\":6496:6503   */\n      dup11\n        /* \"#utility.yul\":6487:6493   */\n      dup3\n        /* \"#utility.yul\":6476:6485   */\n      dup12\n        /* \"#utility.yul\":6472:6494   */\n      add\n        /* \"#utility.yul\":6452:6504   */\n      tag_266\n      jump\t// in\n    tag_390:\n        /* \"#utility.yul\":6442:6504   */\n      swap6\n      pop\n        /* \"#utility.yul\":6397:6514   */\n      pop\n        /* \"#utility.yul\":6553:6555   */\n      0x60\n        /* \"#utility.yul\":6579:6631   */\n      tag_391\n        /* \"#utility.yul\":6623:6630   */\n      dup11\n        /* \"#utility.yul\":6614:6620   */\n      dup3\n        /* \"#utility.yul\":6603:6612   */\n      dup12\n        /* \"#utility.yul\":6599:6621   */\n      add\n        /* \"#utility.yul\":6579:6631   */\n      tag_266\n      jump\t// in\n    tag_391:\n        /* \"#utility.yul\":6569:6631   */\n      swap5\n      pop\n        /* \"#utility.yul\":6524:6641   */\n      pop\n        /* \"#utility.yul\":6680:6683   */\n      0x80\n        /* \"#utility.yul\":6707:6759   */\n      tag_392\n        /* \"#utility.yul\":6751:6758   */\n      dup11\n        /* \"#utility.yul\":6742:6748   */\n      dup3\n        /* \"#utility.yul\":6731:6740   */\n      dup12\n        /* \"#utility.yul\":6727:6749   */\n      add\n        /* \"#utility.yul\":6707:6759   */\n      tag_266\n      jump\t// in\n    tag_392:\n        /* \"#utility.yul\":6697:6759   */\n      swap4\n      pop\n        /* \"#utility.yul\":6651:6769   */\n      pop\n        /* \"#utility.yul\":6808:6811   */\n      0xa0\n        /* \"#utility.yul\":6835:6887   */\n      tag_393\n        /* \"#utility.yul\":6879:6886   */\n      dup11\n        /* \"#utility.yul\":6870:6876   */\n      dup3\n        /* \"#utility.yul\":6859:6868   */\n      dup12\n        /* \"#utility.yul\":6855:6877   */\n      add\n        /* \"#utility.yul\":6835:6887   */\n      tag_266\n      jump\t// in\n    tag_393:\n        /* \"#utility.yul\":6825:6887   */\n      swap3\n      pop\n        /* \"#utility.yul\":6779:6897   */\n      pop\n        /* \"#utility.yul\":6936:6939   */\n      0xc0\n        /* \"#utility.yul\":6963:7015   */\n      tag_394\n        /* \"#utility.yul\":7007:7014   */\n      dup11\n        /* \"#utility.yul\":6998:7004   */\n      dup3\n        /* \"#utility.yul\":6987:6996   */\n      dup12\n        /* \"#utility.yul\":6983:7005   */\n      add\n        /* \"#utility.yul\":6963:7015   */\n      tag_266\n      jump\t// in\n    tag_394:\n        /* \"#utility.yul\":6953:7015   */\n      swap2\n      pop\n        /* \"#utility.yul\":6907:7025   */\n      pop\n        /* \"#utility.yul\":5661:7032   */\n      swap3\n      swap6\n      swap9\n      swap2\n      swap5\n      swap8\n      pop\n      swap3\n      swap6\n      pop\n      jump\t// out\n        /* \"#utility.yul\":7038:7160   */\n    tag_269:\n        /* \"#utility.yul\":7111:7135   */\n      tag_396\n        /* \"#utility.yul\":7129:7134   */\n      dup2\n        /* \"#utility.yul\":7111:7135   */\n      tag_267\n      jump\t// in\n    tag_396:\n        /* \"#utility.yul\":7104:7109   */\n      dup2\n        /* \"#utility.yul\":7101:7136   */\n      eq\n        /* \"#utility.yul\":7091:7154   */\n      tag_397\n      jumpi\n        /* \"#utility.yul\":7150:7151   */\n      0x00\n        /* \"#utility.yul\":7147:7148   */\n      dup1\n        /* \"#utility.yul\":7140:7152   */\n      revert\n        /* \"#utility.yul\":7091:7154   */\n    tag_397:\n        /* \"#utility.yul\":7038:7160   */\n      pop\n      jump\t// out\n        /* \"#utility.yul\":7166:7305   */\n    tag_270:\n        /* \"#utility.yul\":7212:7217   */\n      0x00\n        /* \"#utility.yul\":7250:7256   */\n      dup2\n        /* \"#utility.yul\":7237:7257   */\n      calldataload\n        /* \"#utility.yul\":7228:7257   */\n      swap1\n      pop\n        /* \"#utility.yul\":7266:7299   */\n      tag_399\n        /* \"#utility.yul\":7293:7298   */\n      dup2\n        /* \"#utility.yul\":7266:7299   */\n      tag_269\n      jump\t// in\n    tag_399:\n        /* \"#utility.yul\":7166:7305   */\n      swap3\n      swap2\n      pop\n      pop\n      jump\t// out\n        /* \"#utility.yul\":7311:7640   */\n    tag_47:\n        /* \"#utility.yul\":7370:7376   */\n      0x00\n        /* \"#utility.yul\":7419:7421   */\n      0x20\n        /* \"#utility.yul\":7407:7416   */\n      dup3\n        /* \"#utility.yul\":7398:7405   */\n      dup5\n        /* \"#utility.yul\":7394:7417   */\n      sub\n        /* \"#utility.yul\":7390:7422   */\n      slt\n        /* \"#utility.yul\":7387:7506   */\n      iszero\n      tag_401\n      jumpi\n        /* \"#utility.yul\":7425:7504   */\n      tag_402\n      tag_252\n      jump\t// in\n    tag_402:\n        /* \"#utility.yul\":7387:7506   */\n    tag_401:\n        /* \"#utility.yul\":7545:7546   */\n      0x00\n        /* \"#utility.yul\":7570:7623   */\n      tag_403\n        /* \"#utility.yul\":7615:7622   */\n      dup5\n        /* \"#utility.yul\":7606:7612   */\n      dup3\n        /* \"#utility.yul\":7595:7604   */\n      dup6\n        /* \"#utility.yul\":7591:7613   */\n      add\n        /* \"#utility.yul\":7570:7623   */\n      tag_270\n      jump\t// in\n    tag_403:\n        /* \"#utility.yul\":7560:7623   */\n      swap2\n      pop\n        /* \"#utility.yul\":7516:7633   */\n      pop\n        /* \"#utility.yul\":7311:7640   */\n      swap3\n      swap2\n      pop\n      pop\n      jump\t// out\n        /* \"#utility.yul\":7646:7745   */\n    tag_271:\n        /* \"#utility.yul\":7698:7704   */\n      0x00\n        /* \"#utility.yul\":7732:7737   */\n      dup2\n        /* \"#utility.yul\":7726:7738   */\n      mload\n        /* \"#utility.yul\":7716:7738   */\n      swap1\n      pop\n        /* \"#utility.yul\":7646:7745   */\n      swap2\n      swap1\n      pop\n      jump\t// out\n        /* \"#utility.yul\":7751:7920   */\n    tag_272:\n        /* \"#utility.yul\":7835:7846   */\n      0x00\n        /* \"#utility.yul\":7869:7875   */\n      dup3\n        /* \"#utility.yul\":7864:7867   */\n      dup3\n        /* \"#utility.yul\":7857:7876   */\n      mstore\n        /* \"#utility.yul\":7909:7913   */\n      0x20\n        /* \"#utility.yul\":7904:7907   */\n      dup3\n        /* \"#utility.yul\":7900:7914   */\n      add\n        /* \"#utility.yul\":7885:7914   */\n      swap1\n      pop\n        /* \"#utility.yul\":7751:7920   */\n      swap3\n      swap2\n      pop\n      pop\n      jump\t// out\n        /* \"#utility.yul\":7926:8172   */\n    tag_273:\n        /* \"#utility.yul\":8007:8008   */\n      0x00\n        /* \"#utility.yul\":8017:8130   */\n    tag_407:\n        /* \"#utility.yul\":8031:8037   */\n      dup4\n        /* \"#utility.yul\":8028:8029   */\n      dup2\n        /* \"#utility.yul\":8025:8038   */\n      lt\n        /* \"#utility.yul\":8017:8130   */\n      iszero\n      tag_409\n      jumpi\n        /* \"#utility.yul\":8116:8117   */\n      dup1\n        /* \"#utility.yul\":8111:8114   */\n      dup3\n        /* \"#utility.yul\":8107:8118   */\n      add\n        /* \"#utility.yul\":8101:8119   */\n      mload\n        /* \"#utility.yul\":8097:8098   */\n      dup2\n        /* \"#utility.yul\":8092:8095   */\n      dup5\n        /* \"#utility.yul\":8088:8099   */\n      add\n        /* \"#utility.yul\":8081:8120   */\n      mstore\n        /* \"#utility.yul\":8053:8055   */\n      0x20\n        /* \"#utility.yul\":8050:8051   */\n      dup2\n        /* \"#utility.yul\":8046:8056   */\n      add\n        /* \"#utility.yul\":8041:8056   */\n      swap1\n      pop\n        /* \"#utility.yul\":8017:8130   */\n      jump(tag_407)\n    tag_409:\n        /* \"#utility.yul\":8164:8165   */\n      0x00\n        /* \"#utility.yul\":8155:8161   */\n      dup5\n        /* \"#utility.yul\":8150:8153   */\n      dup5\n        /* \"#utility.yul\":8146:8162   */\n      add\n        /* \"#utility.yul\":8139:8166   */\n      mstore\n        /* \"#utility.yul\":7988:8172   */\n      pop\n        /* \"#utility.yul\":7926:8172   */\n      pop\n      pop\n      pop\n      jump\t// out\n        /* \"#utility.yul\":8178:8555   */\n    tag_274:\n        /* \"#utility.yul\":8266:8269   */\n      0x00\n        /* \"#utility.yul\":8294:8333   */\n      tag_411\n        /* \"#utility.yul\":8327:8332   */\n      dup3\n        /* \"#utility.yul\":8294:8333   */\n      tag_271\n      jump\t// in\n    tag_411:\n        /* \"#utility.yul\":8349:8420   */\n      tag_412\n        /* \"#utility.yul\":8413:8419   */\n      dup2\n        /* \"#utility.yul\":8408:8411   */\n      dup6\n        /* \"#utility.yul\":8349:8420   */\n      tag_272\n      jump\t// in\n    tag_412:\n        /* \"#utility.yul\":8342:8420   */\n      swap4\n      pop\n        /* \"#utility.yul\":8429:8494   */\n      tag_413\n        /* \"#utility.yul\":8487:8493   */\n      dup2\n        /* \"#utility.yul\":8482:8485   */\n      dup6\n        /* \"#utility.yul\":8475:8479   */\n      0x20\n        /* \"#utility.yul\":8468:8473   */\n      dup7\n        /* \"#utility.yul\":8464:8480   */\n      add\n        /* \"#utility.yul\":8429:8494   */\n      tag_273\n      jump\t// in\n    tag_413:\n        /* \"#utility.yul\":8519:8548   */\n      tag_414\n        /* \"#utility.yul\":8541:8547   */\n      dup2\n        /* \"#utility.yul\":8519:8548   */\n      tag_256\n      jump\t// in\n    tag_414:\n        /* \"#utility.yul\":8514:8517   */\n      dup5\n        /* \"#utility.yul\":8510:8549   */\n      add\n        /* \"#utility.yul\":8503:8549   */\n      swap2\n      pop\n        /* \"#utility.yul\":8270:8555   */\n      pop\n        /* \"#utility.yul\":8178:8555   */\n      swap3\n      swap2\n      pop\n      pop\n      jump\t// out\n        /* \"#utility.yul\":8561:8687   */\n    tag_275:\n        /* \"#utility.yul\":8598:8605   */\n      0x00\n        /* \"#utility.yul\":8638:8680   */\n      0xffffffffffffffffffffffffffffffffffffffff\n        /* \"#utility.yul\":8631:8636   */\n      dup3\n        /* \"#utility.yul\":8627:8681   */\n      and\n        /* \"#utility.yul\":8616:8681   */\n      swap1\n      pop\n        /* \"#utility.yul\":8561:8687   */\n      swap2\n      swap1\n      pop\n      jump\t// out\n        /* \"#utility.yul\":8693:8789   */\n    tag_276:\n        /* \"#utility.yul\":8730:8737   */\n      0x00\n        /* \"#utility.yul\":8759:8783   */\n      tag_417\n        /* \"#utility.yul\":8777:8782   */\n      dup3\n        /* \"#utility.yul\":8759:8783   */\n      tag_275\n      jump\t// in\n    tag_417:\n        /* \"#utility.yul\":8748:8783   */\n      swap1\n      pop\n        /* \"#utility.yul\":8693:8789   */\n      swap2\n      swap1\n      pop\n      jump\t// out\n        /* \"#utility.yul\":8795:8913   */\n    tag_277:\n        /* \"#utility.yul\":8882:8906   */\n      tag_419\n        /* \"#utility.yul\":8900:8905   */\n      dup2\n        /* \"#utility.yul\":8882:8906   */\n      tag_276\n      jump\t// in\n    tag_419:\n        /* \"#utility.yul\":8877:8880   */\n      dup3\n        /* \"#utility.yul\":8870:8907   */\n      mstore\n        /* \"#utility.yul\":8795:8913   */\n      pop\n      pop\n      jump\t// out\n        /* \"#utility.yul\":8919:9543   */\n    tag_50:\n        /* \"#utility.yul\":9108:9112   */\n      0x00\n        /* \"#utility.yul\":9146:9148   */\n      0x60\n        /* \"#utility.yul\":9135:9144   */\n      dup3\n        /* \"#utility.yul\":9131:9149   */\n      add\n        /* \"#utility.yul\":9123:9149   */\n      swap1\n      pop\n        /* \"#utility.yul\":9195:9204   */\n      dup2\n        /* \"#utility.yul\":9189:9193   */\n      dup2\n        /* \"#utility.yul\":9185:9205   */\n      sub\n        /* \"#utility.yul\":9181:9182   */\n      0x00\n        /* \"#utility.yul\":9170:9179   */\n      dup4\n        /* \"#utility.yul\":9166:9183   */\n      add\n        /* \"#utility.yul\":9159:9206   */\n      mstore\n        /* \"#utility.yul\":9223:9301   */\n      tag_421\n        /* \"#utility.yul\":9296:9300   */\n      dup2\n        /* \"#utility.yul\":9287:9293   */\n      dup7\n        /* \"#utility.yul\":9223:9301   */\n      tag_274\n      jump\t// in\n    tag_421:\n        /* \"#utility.yul\":9215:9301   */\n      swap1\n      pop\n        /* \"#utility.yul\":9348:9357   */\n      dup2\n        /* \"#utility.yul\":9342:9346   */\n      dup2\n        /* \"#utility.yul\":9338:9358   */\n      sub\n        /* \"#utility.yul\":9333:9335   */\n      0x20\n        /* \"#utility.yul\":9322:9331   */\n      dup4\n        /* \"#utility.yul\":9318:9336   */\n      add\n        /* \"#utility.yul\":9311:9359   */\n      mstore\n        /* \"#utility.yul\":9376:9454   */\n      tag_422\n        /* \"#utility.yul\":9449:9453   */\n      dup2\n        /* \"#utility.yul\":9440:9446   */\n      dup6\n        /* \"#utility.yul\":9376:9454   */\n      tag_274\n      jump\t// in\n    tag_422:\n        /* \"#utility.yul\":9368:9454   */\n      swap1\n      pop\n        /* \"#utility.yul\":9464:9536   */\n      tag_423\n        /* \"#utility.yul\":9532:9534   */\n      0x40\n        /* \"#utility.yul\":9521:9530   */\n      dup4\n        /* \"#utility.yul\":9517:9535   */\n      add\n        /* \"#utility.yul\":9508:9514   */\n      dup5\n        /* \"#utility.yul\":9464:9536   */\n      tag_277\n      jump\t// in\n    tag_423:\n        /* \"#utility.yul\":8919:9543   */\n      swap5\n      swap4\n      pop\n      pop\n      pop\n      pop\n      jump\t// out\n        /* \"#utility.yul\":9549:9862   */\n    tag_55:\n        /* \"#utility.yul\":9662:9666   */\n      0x00\n        /* \"#utility.yul\":9700:9702   */\n      0x20\n        /* \"#utility.yul\":9689:9698   */\n      dup3\n        /* \"#utility.yul\":9685:9703   */\n      add\n        /* \"#utility.yul\":9677:9703   */\n      swap1\n      pop\n        /* \"#utility.yul\":9749:9758   */\n      dup2\n        /* \"#utility.yul\":9743:9747   */\n      dup2\n        /* \"#utility.yul\":9739:9759   */\n      sub\n        /* \"#utility.yul\":9735:9736   */\n      0x00\n        /* \"#utility.yul\":9724:9733   */\n      dup4\n        /* \"#utility.yul\":9720:9737   */\n      add\n        /* \"#utility.yul\":9713:9760   */\n      mstore\n        /* \"#utility.yul\":9777:9855   */\n      tag_425\n        /* \"#utility.yul\":9850:9854   */\n      dup2\n        /* \"#utility.yul\":9841:9847   */\n      dup5\n        /* \"#utility.yul\":9777:9855   */\n      tag_274\n      jump\t// in\n    tag_425:\n        /* \"#utility.yul\":9769:9855   */\n      swap1\n      pop\n        /* \"#utility.yul\":9549:9862   */\n      swap3\n      swap2\n      pop\n      pop\n      jump\t// out\n        /* \"#utility.yul\":9868:10377   */\n    tag_58:\n        /* \"#utility.yul\":9937:9943   */\n      0x00\n        /* \"#utility.yul\":9986:9988   */\n      0x20\n        /* \"#utility.yul\":9974:9983   */\n      dup3\n        /* \"#utility.yul\":9965:9972   */\n      dup5\n        /* \"#utility.yul\":9961:9984   */\n      sub\n        /* \"#utility.yul\":9957:9989   */\n      slt\n        /* \"#utility.yul\":9954:10073   */\n      iszero\n      tag_427\n      jumpi\n        /* \"#utility.yul\":9992:10071   */\n      tag_428\n      tag_252\n      jump\t// in\n    tag_428:\n        /* \"#utility.yul\":9954:10073   */\n    tag_427:\n        /* \"#utility.yul\":10140:10141   */\n      0x00\n        /* \"#utility.yul\":10129:10138   */\n      dup3\n        /* \"#utility.yul\":10125:10142   */\n      add\n        /* \"#utility.yul\":10112:10143   */\n      calldataload\n        /* \"#utility.yul\":10170:10188   */\n      0xffffffffffffffff\n        /* \"#utility.yul\":10162:10168   */\n      dup2\n        /* \"#utility.yul\":10159:10189   */\n      gt\n        /* \"#utility.yul\":10156:10273   */\n      iszero\n      tag_429\n      jumpi\n        /* \"#utility.yul\":10192:10271   */\n      tag_430\n      tag_253\n      jump\t// in\n    tag_430:\n        /* \"#utility.yul\":10156:10273   */\n    tag_429:\n        /* \"#utility.yul\":10297:10360   */\n      tag_431\n        /* \"#utility.yul\":10352:10359   */\n      dup5\n        /* \"#utility.yul\":10343:10349   */\n      dup3\n        /* \"#utility.yul\":10332:10341   */\n      dup6\n        /* \"#utility.yul\":10328:10350   */\n      add\n        /* \"#utility.yul\":10297:10360   */\n      tag_263\n      jump\t// in\n    tag_431:\n        /* \"#utility.yul\":10287:10360   */\n      swap2\n      pop\n        /* \"#utility.yul\":10083:10370   */\n      pop\n        /* \"#utility.yul\":9868:10377   */\n      swap3\n      swap2\n      pop\n      pop\n      jump\t// out\n        /* \"#utility.yul\":10383:11037   */\n    tag_63:\n        /* \"#utility.yul\":10461:10467   */\n      0x00\n        /* \"#utility.yul\":10469:10475   */\n      dup1\n        /* \"#utility.yul\":10518:10520   */\n      0x40\n        /* \"#utility.yul\":10506:10515   */\n      dup4\n        /* \"#utility.yul\":10497:10504   */\n      dup6\n        /* \"#utility.yul\":10493:10516   */\n      sub\n        /* \"#utility.yul\":10489:10521   */\n      slt\n        /* \"#utility.yul\":10486:10605   */\n      iszero\n      tag_433\n      jumpi\n        /* \"#utility.yul\":10524:10603   */\n      tag_434\n      tag_252\n      jump\t// in\n    tag_434:\n        /* \"#utility.yul\":10486:10605   */\n    tag_433:\n        /* \"#utility.yul\":10644:10645   */\n      0x00\n        /* \"#utility.yul\":10669:10722   */\n      tag_435\n        /* \"#utility.yul\":10714:10721   */\n      dup6\n        /* \"#utility.yul\":10705:10711   */\n      dup3\n        /* \"#utility.yul\":10694:10703   */\n      dup7\n        /* \"#utility.yul\":10690:10712   */\n      add\n        /* \"#utility.yul\":10669:10722   */\n      tag_270\n      jump\t// in\n    tag_435:\n        /* \"#utility.yul\":10659:10722   */\n      swap3\n      pop\n        /* \"#utility.yul\":10615:10732   */\n      pop\n        /* \"#utility.yul\":10799:10801   */\n      0x20\n        /* \"#utility.yul\":10788:10797   */\n      dup4\n        /* \"#utility.yul\":10784:10802   */\n      add\n        /* \"#utility.yul\":10771:10803   */\n      calldataload\n        /* \"#utility.yul\":10830:10848   */\n      0xffffffffffffffff\n        /* \"#utility.yul\":10822:10828   */\n      dup2\n        /* \"#utility.yul\":10819:10849   */\n      gt\n        /* \"#utility.yul\":10816:10933   */\n      iszero\n      tag_436\n      jumpi\n        /* \"#utility.yul\":10852:10931   */\n      tag_437\n      tag_253\n      jump\t// in\n    tag_437:\n        /* \"#utility.yul\":10816:10933   */\n    tag_436:\n        /* \"#utility.yul\":10957:11020   */\n      tag_438\n        /* \"#utility.yul\":11012:11019   */\n      dup6\n        /* \"#utility.yul\":11003:11009   */\n      dup3\n        /* \"#utility.yul\":10992:11001   */\n      dup7\n        /* \"#utility.yul\":10988:11010   */\n      add\n        /* \"#utility.yul\":10957:11020   */\n      tag_263\n      jump\t// in\n    tag_438:\n        /* \"#utility.yul\":10947:11020   */\n      swap2\n      pop\n        /* \"#utility.yul\":10742:11030   */\n      pop\n        /* \"#utility.yul\":10383:11037   */\n      swap3\n      pop\n      swap3\n      swap1\n      pop\n      jump\t// out\n        /* \"#utility.yul\":11043:11158   */\n    tag_278:\n        /* \"#utility.yul\":11128:11151   */\n      tag_440\n        /* \"#utility.yul\":11145:11150   */\n      dup2\n        /* \"#utility.yul\":11128:11151   */\n      tag_264\n      jump\t// in\n    tag_440:\n        /* \"#utility.yul\":11123:11126   */\n      dup3\n        /* \"#utility.yul\":11116:11152   */\n      mstore\n        /* \"#utility.yul\":11043:11158   */\n      pop\n      pop\n      jump\t// out\n        /* \"#utility.yul\":11164:11382   */\n    tag_66:\n        /* \"#utility.yul\":11255:11259   */\n      0x00\n        /* \"#utility.yul\":11293:11295   */\n      0x20\n        /* \"#utility.yul\":11282:11291   */\n      dup3\n        /* \"#utility.yul\":11278:11296   */\n      add\n        /* \"#utility.yul\":11270:11296   */\n      swap1\n      pop\n        /* \"#utility.yul\":11306:11375   */\n      tag_442\n        /* \"#utility.yul\":11372:11373   */\n      0x00\n        /* \"#utility.yul\":11361:11370   */\n      dup4\n        /* \"#utility.yul\":11357:11374   */\n      add\n        /* \"#utility.yul\":11348:11354   */\n      dup5\n        /* \"#utility.yul\":11306:11375   */\n      tag_278\n      jump\t// in\n    tag_442:\n        /* \"#utility.yul\":11164:11382   */\n      swap3\n      swap2\n      pop\n      pop\n      jump\t// out\n        /* \"#utility.yul\":11388:12222   */\n    tag_72:\n        /* \"#utility.yul\":11476:11482   */\n      0x00\n        /* \"#utility.yul\":11484:11490   */\n      dup1\n        /* \"#utility.yul\":11533:11535   */\n      0x40\n        /* \"#utility.yul\":11521:11530   */\n      dup4\n        /* \"#utility.yul\":11512:11519   */\n      dup6\n        /* \"#utility.yul\":11508:11531   */\n      sub\n        /* \"#utility.yul\":11504:11536   */\n      slt\n        /* \"#utility.yul\":11501:11620   */\n      iszero\n      tag_444\n      jumpi\n        /* \"#utility.yul\":11539:11618   */\n      tag_445\n      tag_252\n      jump\t// in\n    tag_445:\n        /* \"#utility.yul\":11501:11620   */\n    tag_444:\n        /* \"#utility.yul\":11687:11688   */\n      0x00\n        /* \"#utility.yul\":11676:11685   */\n      dup4\n        /* \"#utility.yul\":11672:11689   */\n      add\n        /* \"#utility.yul\":11659:11690   */\n      calldataload\n        /* \"#utility.yul\":11717:11735   */\n      0xffffffffffffffff\n        /* \"#utility.yul\":11709:11715   */\n      dup2\n        /* \"#utility.yul\":11706:11736   */\n      gt\n        /* \"#utility.yul\":11703:11820   */\n      iszero\n      tag_446\n      jumpi\n        /* \"#utility.yul\":11739:11818   */\n      tag_447\n      tag_253\n      jump\t// in\n    tag_447:\n        /* \"#utility.yul\":11703:11820   */\n    tag_446:\n        /* \"#utility.yul\":11844:11907   */\n      tag_448\n        /* \"#utility.yul\":11899:11906   */\n      dup6\n        /* \"#utility.yul\":11890:11896   */\n      dup3\n        /* \"#utility.yul\":11879:11888   */\n      dup7\n        /* \"#utility.yul\":11875:11897   */\n      add\n        /* \"#utility.yul\":11844:11907   */\n      tag_263\n      jump\t// in\n    tag_448:\n        /* \"#utility.yul\":11834:11907   */\n      swap3\n      pop\n        /* \"#utility.yul\":11630:11917   */\n      pop\n        /* \"#utility.yul\":11984:11986   */\n      0x20\n        /* \"#utility.yul\":11973:11982   */\n      dup4\n        /* \"#utility.yul\":11969:11987   */\n      add\n        /* \"#utility.yul\":11956:11988   */\n      calldataload\n        /* \"#utility.yul\":12015:12033   */\n      0xffffffffffffffff\n        /* \"#utility.yul\":12007:12013   */\n      dup2\n        /* \"#utility.yul\":12004:12034   */\n      gt\n        /* \"#utility.yul\":12001:12118   */\n      iszero\n      tag_449\n      jumpi\n        /* \"#utility.yul\":12037:12116   */\n      tag_450\n      tag_253\n      jump\t// in\n    tag_450:\n        /* \"#utility.yul\":12001:12118   */\n    tag_449:\n        /* \"#utility.yul\":12142:12205   */\n      tag_451\n        /* \"#utility.yul\":12197:12204   */\n      dup6\n        /* \"#utility.yul\":12188:12194   */\n      dup3\n        /* \"#utility.yul\":12177:12186   */\n      dup7\n        /* \"#utility.yul\":12173:12195   */\n      add\n        /* \"#utility.yul\":12142:12205   */\n      tag_263\n      jump\t// in\n    tag_451:\n        /* \"#utility.yul\":12132:12205   */\n      swap2\n      pop\n        /* \"#utility.yul\":11927:12215   */\n      pop\n        /* \"#utility.yul\":11388:12222   */\n      swap3\n      pop\n      swap3\n      swap1\n      pop\n      jump\t// out\n        /* \"#utility.yul\":12228:12408   */\n    tag_83:\n        /* \"#utility.yul\":12276:12353   */\n      0x4e487b7100000000000000000000000000000000000000000000000000000000\n        /* \"#utility.yul\":12273:12274   */\n      0x00\n        /* \"#utility.yul\":12266:12354   */\n      mstore\n        /* \"#utility.yul\":12373:12377   */\n      0x32\n        /* \"#utility.yul\":12370:12371   */\n      0x04\n        /* \"#utility.yul\":12363:12378   */\n      mstore\n        /* \"#utility.yul\":12397:12401   */\n      0x24\n        /* \"#utility.yul\":12394:12395   */\n      0x00\n        /* \"#utility.yul\":12387:12402   */\n      revert\n        /* \"#utility.yul\":12414:12594   */\n    tag_279:\n        /* \"#utility.yul\":12462:12539   */\n      0x4e487b7100000000000000000000000000000000000000000000000000000000\n        /* \"#utility.yul\":12459:12460   */\n      0x00\n        /* \"#utility.yul\":12452:12540   */\n      mstore\n        /* \"#utility.yul\":12559:12563   */\n      0x22\n        /* \"#utility.yul\":12556:12557   */\n      0x04\n        /* \"#utility.yul\":12549:12564   */\n      mstore\n        /* \"#utility.yul\":12583:12587   */\n      0x24\n        /* \"#utility.yul\":12580:12581   */\n      0x00\n        /* \"#utility.yul\":12573:12588   */\n      revert\n        /* \"#utility.yul\":12600:12920   */\n    tag_171:\n        /* \"#utility.yul\":12644:12650   */\n      0x00\n        /* \"#utility.yul\":12681:12682   */\n      0x02\n        /* \"#utility.yul\":12675:12679   */\n      dup3\n        /* \"#utility.yul\":12671:12683   */\n      div\n        /* \"#utility.yul\":12661:12683   */\n      swap1\n      pop\n        /* \"#utility.yul\":12728:12729   */\n      0x01\n        /* \"#utility.yul\":12722:12726   */\n      dup3\n        /* \"#utility.yul\":12718:12730   */\n      and\n        /* \"#utility.yul\":12749:12767   */\n      dup1\n        /* \"#utility.yul\":12739:12820   */\n      tag_455\n      jumpi\n        /* \"#utility.yul\":12805:12809   */\n      0x7f\n        /* \"#utility.yul\":12797:12803   */\n      dup3\n        /* \"#utility.yul\":12793:12810   */\n      and\n        /* \"#utility.yul\":12783:12810   */\n      swap2\n      pop\n        /* \"#utility.yul\":12739:12820   */\n    tag_455:\n        /* \"#utility.yul\":12867:12869   */\n      0x20\n        /* \"#utility.yul\":12859:12865   */\n      dup3\n        /* \"#utility.yul\":12856:12870   */\n      lt\n        /* \"#utility.yul\":12836:12854   */\n      dup2\n        /* \"#utility.yul\":12833:12871   */\n      sub\n        /* \"#utility.yul\":12830:12914   */\n      tag_456\n      jumpi\n        /* \"#utility.yul\":12886:12904   */\n      tag_457\n      tag_279\n      jump\t// in\n    tag_457:\n        /* \"#utility.yul\":12830:12914   */\n    tag_456:\n        /* \"#utility.yul\":12651:12920   */\n      pop\n        /* \"#utility.yul\":12600:12920   */\n      swap2\n      swap1\n      pop\n      jump\t// out\n        /* \"#utility.yul\":12926:13067   */\n    tag_280:\n        /* \"#utility.yul\":12975:12979   */\n      0x00\n        /* \"#utility.yul\":12998:13001   */\n      dup2\n        /* \"#utility.yul\":12990:13001   */\n      swap1\n      pop\n        /* \"#utility.yul\":13021:13024   */\n      dup2\n        /* \"#utility.yul\":13018:13019   */\n      0x00\n        /* \"#utility.yul\":13011:13025   */\n      mstore\n        /* \"#utility.yul\":13055:13059   */\n      0x20\n        /* \"#utility.yul\":13052:13053   */\n      0x00\n        /* \"#utility.yul\":13042:13060   */\n      keccak256\n        /* \"#utility.yul\":13034:13060   */\n      swap1\n      pop\n        /* \"#utility.yul\":12926:13067   */\n      swap2\n      swap1\n      pop\n      jump\t// out\n        /* \"#utility.yul\":13073:13166   */\n    tag_281:\n        /* \"#utility.yul\":13110:13116   */\n      0x00\n        /* \"#utility.yul\":13157:13159   */\n      0x20\n        /* \"#utility.yul\":13152:13154   */\n      0x1f\n        /* \"#utility.yul\":13145:13150   */\n      dup4\n        /* \"#utility.yul\":13141:13155   */\n      add\n        /* \"#utility.yul\":13137:13160   */\n      div\n        /* \"#utility.yul\":13127:13160   */\n      swap1\n      pop\n        /* \"#utility.yul\":13073:13166   */\n      swap2\n      swap1\n      pop\n      jump\t// out\n        /* \"#utility.yul\":13172:13279   */\n    tag_282:\n        /* \"#utility.yul\":13216:13224   */\n      0x00\n        /* \"#utility.yul\":13266:13271   */\n      dup3\n        /* \"#utility.yul\":13260:13264   */\n      dup3\n        /* \"#utility.yul\":13256:13272   */\n      shl\n        /* \"#utility.yul\":13235:13272   */\n      swap1\n      pop\n        /* \"#utility.yul\":13172:13279   */\n      swap3\n      swap2\n      pop\n      pop\n      jump\t// out\n        /* \"#utility.yul\":13285:13678   */\n    tag_283:\n        /* \"#utility.yul\":13354:13360   */\n      0x00\n        /* \"#utility.yul\":13404:13405   */\n      0x08\n        /* \"#utility.yul\":13392:13402   */\n      dup4\n        /* \"#utility.yul\":13388:13406   */\n      mul\n        /* \"#utility.yul\":13427:13524   */\n      tag_462\n        /* \"#utility.yul\":13457:13523   */\n      0xffffffffffffffffffffffffffffffffffffffffffffffffffffffffffffffff\n        /* \"#utility.yul\":13446:13455   */\n      dup3\n        /* \"#utility.yul\":13427:13524   */\n      tag_282\n      jump\t// in\n    tag_462:\n        /* \"#utility.yul\":13545:13584   */\n      tag_463\n        /* \"#utility.yul\":13575:13583   */\n      dup7\n        /* \"#utility.yul\":13564:13573   */\n      dup4\n        /* \"#utility.yul\":13545:13584   */\n      tag_282\n      jump\t// in\n    tag_463:\n        /* \"#utility.yul\":13533:13584   */\n      swap6\n      pop\n        /* \"#utility.yul\":13617:13621   */\n      dup1\n        /* \"#utility.yul\":13613:13622   */\n      not\n        /* \"#utility.yul\":13606:13611   */\n      dup5\n        /* \"#utility.yul\":13602:13623   */\n      and\n        /* \"#utility.yul\":13593:13623   */\n      swap4\n      pop\n        /* \"#utility.yul\":13666:13670   */\n      dup1\n        /* \"#utility.yul\":13656:13664   */\n      dup7\n        /* \"#utility.yul\":13652:13671   */\n      and\n        /* \"#utility.yul\":13645:13650   */\n      dup5\n        /* \"#utility.yul\":13642:13672   */\n      or\n        /* \"#utility.yul\":13632:13672   */\n      swap3\n      pop\n        /* \"#utility.yul\":13361:13678   */\n      pop\n      pop\n        /* \"#utility.yul\":13285:13678   */\n      swap4\n      swap3\n      pop\n      pop\n      pop\n      jump\t// out\n        /* \"#utility.yul\":13684:13744   */\n    tag_284:\n        /* \"#utility.yul\":13712:13715   */\n      0x00\n        /* \"#utility.yul\":13733:13738   */\n      dup2\n        /* \"#utility.yul\":13726:13738   */\n      swap1\n      pop\n        /* \"#utility.yul\":13684:13744   */\n      swap2\n      swap1\n      pop\n      jump\t// out\n        /* \"#utility.yul\":13750:13892   */\n    tag_285:\n        /* \"#utility.yul\":13800:13809   */\n      0x00\n        /* \"#utility.yul\":13833:13886   */\n      tag_466\n        /* \"#utility.yul\":13851:13885   */\n      tag_467\n        /* \"#utility.yul\":13860:13884   */\n      tag_468\n        /* \"#utility.yul\":13878:13883   */\n      dup5\n        /* \"#utility.yul\":13860:13884   */\n      tag_267\n      jump\t// in\n    tag_468:\n        /* \"#utility.yul\":13851:13885   */\n      tag_284\n      jump\t// in\n    tag_467:\n        /* \"#utility.yul\":13833:13886   */\n      tag_267\n      jump\t// in\n    tag_466:\n        /* \"#utility.yul\":13820:13886   */\n      swap1\n      pop\n        /* \"#utility.yul\":13750:13892   */\n      swap2\n      swap1\n      pop\n      jump\t// out\n        /* \"#utility.yul\":13898:13973   */\n    tag_286:\n        /* \"#utility.yul\":13941:13944   */\n      0x00\n        /* \"#utility.yul\":13962:13967   */\n      dup2\n        /* \"#utility.yul\":13955:13967   */\n      swap1\n      pop\n        /* \"#utility.yul\":13898:13973   */\n      swap2\n      swap1\n      pop\n      jump\t// out\n        /* \"#utility.yul\":13979:14248   */\n    tag_287:\n        /* \"#utility.yul\":14089:14128   */\n      tag_471\n        /* \"#utility.yul\":14120:14127   */\n      dup4\n        /* \"#utility.yul\":14089:14128   */\n      tag_285\n      jump\t// in\n    tag_471:\n        /* \"#utility.yul\":14150:14241   */\n      tag_472\n        /* \"#utility.yul\":14199:14240   */\n      tag_473\n        /* \"#utility.yul\":14223:14239   */\n      dup3\n        /* \"#utility.yul\":14199:14240   */\n      tag_286\n      jump\t// in\n    tag_473:\n        /* \"#utility.yul\":14191:14197   */\n      dup5\n        /* \"#utility.yul\":14184:14188   */\n      dup5\n        /* \"#utility.yul\":14178:14189   */\n      sload\n        /* \"#utility.yul\":14150:14241   */\n      tag_283\n      jump\t// in\n    tag_472:\n        /* \"#utility.yul\":14144:14148   */\n      dup3\n        /* \"#utility.yul\":14137:14242   */\n      sstore\n        /* \"#utility.yul\":14055:14248   */\n      pop\n        /* \"#utility.yul\":13979:14248   */\n      pop\n      pop\n      pop\n      jump\t// out\n        /* \"#utility.yul\":14254:14327   */\n    tag_288:\n        /* \"#utility.yul\":14299:14302   */\n      0x00\n        /* \"#utility.yul\":14254:14327   */\n      swap1\n      jump\t// out\n        /* \"#utility.yul\":14333:14522   */\n    tag_289:\n        /* \"#utility.yul\":14410:14442   */\n      tag_476\n      tag_288\n      jump\t// in\n    tag_476:\n        /* \"#utility.yul\":14451:14516   */\n      tag_477\n        /* \"#utility.yul\":14509:14515   */\n      dup2\n        /* \"#utility.yul\":14501:14507   */\n      dup5\n        /* \"#utility.yul\":14495:14499   */\n      dup5\n        /* \"#utility.yul\":14451:14516   */\n      tag_287\n      jump\t// in\n    tag_477:\n        /* \"#utility.yul\":14386:14522   */\n      pop\n        /* \"#utility.yul\":14333:14522   */\n      pop\n      pop\n      jump\t// out\n        /* \"#utility.yul\":14528:14714   */\n    tag_290:\n        /* \"#utility.yul\":14588:14708   */\n    tag_479:\n        /* \"#utility.yul\":14605:14608   */\n      dup2\n        /* \"#utility.yul\":14598:14603   */\n      dup2\n        /* \"#utility.yul\":14595:14609   */\n      lt\n        /* \"#utility.yul\":14588:14708   */\n      iszero\n      tag_481\n      jumpi\n        /* \"#utility.yul\":14659:14698   */\n      tag_482\n        /* \"#utility.yul\":14696:14697   */\n      0x00\n        /* \"#utility.yul\":14689:14694   */\n      dup3\n        /* \"#utility.yul\":14659:14698   */\n      tag_289\n      jump\t// in\n    tag_482:\n        /* \"#utility.yul\":14632:14633   */\n      0x01\n        /* \"#utility.yul\":14625:14630   */\n      dup2\n        /* \"#utility.yul\":14621:14634   */\n      add\n        /* \"#utility.yul\":14612:14634   */\n      swap1\n      pop\n        /* \"#utility.yul\":14588:14708   */\n      jump(tag_479)\n    tag_481:\n        /* \"#utility.yul\":14528:14714   */\n      pop\n      pop\n      jump\t// out\n        /* \"#utility.yul\":14720:15263   */\n    tag_291:\n        /* \"#utility.yul\":14821:14823   */\n      0x1f\n        /* \"#utility.yul\":14816:14819   */\n      dup3\n        /* \"#utility.yul\":14813:14824   */\n      gt\n        /* \"#utility.yul\":14810:15256   */\n      iszero\n      tag_484\n      jumpi\n        /* \"#utility.yul\":14855:14893   */\n      tag_485\n        /* \"#utility.yul\":14887:14892   */\n      dup2\n        /* \"#utility.yul\":14855:14893   */\n      tag_280\n      jump\t// in\n    tag_485:\n        /* \"#utility.yul\":14939:14968   */\n      tag_486\n        /* \"#utility.yul\":14957:14967   */\n      dup5\n        /* \"#utility.yul\":14939:14968   */\n      tag_281\n      jump\t// in\n    tag_486:\n        /* \"#utility.yul\":14929:14937   */\n      dup2\n        /* \"#utility.yul\":14925:14969   */\n      add\n        /* \"#utility.yul\":15122:15124   */\n      0x20\n        /* \"#utility.yul\":15110:15120   */\n      dup6\n        /* \"#utility.yul\":15107:15125   */\n      lt\n        /* \"#utility.yul\":15104:15153   */\n      iszero\n      tag_487\n      jumpi\n        /* \"#utility.yul\":15143:15151   */\n      dup2\n        /* \"#utility.yul\":15128:15151   */\n      swap1\n      pop\n        /* \"#utility.yul\":15104:15153   */\n    tag_487:\n        /* \"#utility.yul\":15166:15246   */\n      tag_488\n        /* \"#utility.yul\":15222:15244   */\n      tag_489\n        /* \"#utility.yul\":15240:15243   */\n      dup6\n        /* \"#utility.yul\":15222:15244   */\n      tag_281\n      jump\t// in\n    tag_489:\n        /* \"#utility.yul\":15212:15220   */\n      dup4\n        /* \"#utility.yul\":15208:15245   */\n      add\n        /* \"#utility.yul\":15195:15206   */\n      dup3\n        /* \"#utility.yul\":15166:15246   */\n      tag_290\n      jump\t// in\n    tag_488:\n        /* \"#utility.yul\":14825:15256   */\n      pop\n      pop\n        /* \"#utility.yul\":14810:15256   */\n    tag_484:\n        /* \"#utility.yul\":14720:15263   */\n      pop\n      pop\n      pop\n      jump\t// out\n        /* \"#utility.yul\":15269:15386   */\n    tag_292:\n        /* \"#utility.yul\":15323:15331   */\n      0x00\n        /* \"#utility.yul\":15373:15378   */\n      dup3\n        /* \"#utility.yul\":15367:15371   */\n      dup3\n        /* \"#utility.yul\":15363:15379   */\n      shr\n        /* \"#utility.yul\":15342:15379   */\n      swap1\n      pop\n        /* \"#utility.yul\":15269:15386   */\n      swap3\n      swap2\n      pop\n      pop\n      jump\t// out\n        /* \"#utility.yul\":15392:15561   */\n    tag_293:\n        /* \"#utility.yul\":15436:15442   */\n      0x00\n        /* \"#utility.yul\":15469:15520   */\n      tag_492\n        /* \"#utility.yul\":15517:15518   */\n      0x00\n        /* \"#utility.yul\":15513:15519   */\n      not\n        /* \"#utility.yul\":15505:15510   */\n      dup5\n        /* \"#utility.yul\":15502:15503   */\n      0x08\n        /* \"#utility.yul\":15498:15511   */\n      mul\n        /* \"#utility.yul\":15469:15520   */\n      tag_292\n      jump\t// in\n    tag_492:\n        /* \"#utility.yul\":15465:15521   */\n      not\n        /* \"#utility.yul\":15550:15554   */\n      dup1\n        /* \"#utility.yul\":15544:15548   */\n      dup4\n        /* \"#utility.yul\":15540:15555   */\n      and\n        /* \"#utility.yul\":15530:15555   */\n      swap2\n      pop\n        /* \"#utility.yul\":15443:15561   */\n      pop\n        /* \"#utility.yul\":15392:15561   */\n      swap3\n      swap2\n      pop\n      pop\n      jump\t// out\n        /* \"#utility.yul\":15566:15861   */\n    tag_294:\n        /* \"#utility.yul\":15642:15646   */\n      0x00\n        /* \"#utility.yul\":15788:15817   */\n      tag_494\n        /* \"#utility.yul\":15813:15816   */\n      dup4\n        /* \"#utility.yul\":15807:15811   */\n      dup4\n        /* \"#utility.yul\":15788:15817   */\n      tag_293\n      jump\t// in\n    tag_494:\n        /* \"#utility.yul\":15780:15817   */\n      swap2\n      pop\n        /* \"#utility.yul\":15850:15853   */\n      dup3\n        /* \"#utility.yul\":15847:15848   */\n      0x02\n        /* \"#utility.yul\":15843:15854   */\n      mul\n        /* \"#utility.yul\":15837:15841   */\n      dup3\n        /* \"#utility.yul\":15834:15855   */\n      or\n        /* \"#utility.yul\":15826:15855   */\n      swap1\n      pop\n        /* \"#utility.yul\":15566:15861   */\n      swap3\n      swap2\n      pop\n      pop\n      jump\t// out\n        /* \"#utility.yul\":15866:17261   */\n    tag_86:\n        /* \"#utility.yul\":15983:16020   */\n      tag_496\n        /* \"#utility.yul\":16016:16019   */\n      dup3\n        /* \"#utility.yul\":15983:16020   */\n      tag_271\n      jump\t// in\n    tag_496:\n        /* \"#utility.yul\":16085:16103   */\n      0xffffffffffffffff\n        /* \"#utility.yul\":16077:16083   */\n      dup2\n        /* \"#utility.yul\":16074:16104   */\n      gt\n        /* \"#utility.yul\":16071:16127   */\n      iszero\n      tag_497\n      jumpi\n        /* \"#utility.yul\":16107:16125   */\n      tag_498\n      tag_257\n      jump\t// in\n    tag_498:\n        /* \"#utility.yul\":16071:16127   */\n    tag_497:\n        /* \"#utility.yul\":16151:16189   */\n      tag_499\n        /* \"#utility.yul\":16183:16187   */\n      dup3\n        /* \"#utility.yul\":16177:16188   */\n      sload\n        /* \"#utility.yul\":16151:16189   */\n      tag_171\n      jump\t// in\n    tag_499:\n        /* \"#utility.yul\":16236:16303   */\n      tag_500\n        /* \"#utility.yul\":16296:16302   */\n      dup3\n        /* \"#utility.yul\":16288:16294   */\n      dup3\n        /* \"#utility.yul\":16282:16286   */\n      dup6\n        /* \"#utility.yul\":16236:16303   */\n      tag_291\n      jump\t// in\n    tag_500:\n        /* \"#utility.yul\":16330:16331   */\n      0x00\n        /* \"#utility.yul\":16354:16358   */\n      0x20\n        /* \"#utility.yul\":16341:16358   */\n      swap1\n      pop\n        /* \"#utility.yul\":16386:16388   */\n      0x1f\n        /* \"#utility.yul\":16378:16384   */\n      dup4\n        /* \"#utility.yul\":16375:16389   */\n      gt\n        /* \"#utility.yul\":16403:16404   */\n      0x01\n        /* \"#utility.yul\":16398:17016   */\n      dup2\n      eq\n      tag_502\n      jumpi\n        /* \"#utility.yul\":17060:17061   */\n      0x00\n        /* \"#utility.yul\":17077:17083   */\n      dup5\n        /* \"#utility.yul\":17074:17151   */\n      iszero\n      tag_503\n      jumpi\n        /* \"#utility.yul\":17126:17135   */\n      dup3\n        /* \"#utility.yul\":17121:17124   */\n      dup8\n        /* \"#utility.yul\":17117:17136   */\n      add\n        /* \"#utility.yul\":17111:17137   */\n      mload\n        /* \"#utility.yul\":17102:17137   */\n      swap1\n      pop\n        /* \"#utility.yul\":17074:17151   */\n    tag_503:\n        /* \"#utility.yul\":17177:17244   */\n      tag_504\n        /* \"#utility.yul\":17237:17243   */\n      dup6\n        /* \"#utility.yul\":17230:17235   */\n      dup3\n        /* \"#utility.yul\":17177:17244   */\n      tag_294\n      jump\t// in\n    tag_504:\n        /* \"#utility.yul\":17171:17175   */\n      dup7\n        /* \"#utility.yul\":17164:17245   */\n      sstore\n        /* \"#utility.yul\":17033:17255   */\n      pop\n        /* \"#utility.yul\":16368:17255   */\n      jump(tag_501)\n        /* \"#utility.yul\":16398:17016   */\n    tag_502:\n        /* \"#utility.yul\":16450:16454   */\n      0x1f\n        /* \"#utility.yul\":16446:16455   */\n      not\n        /* \"#utility.yul\":16438:16444   */\n      dup5\n        /* \"#utility.yul\":16434:16456   */\n      and\n        /* \"#utility.yul\":16484:16521   */\n      tag_505\n        /* \"#utility.yul\":16516:16520   */\n      dup7\n        /* \"#utility.yul\":16484:16521   */\n      tag_280\n      jump\t// in\n    tag_505:\n        /* \"#utility.yul\":16543:16544   */\n      0x00\n        /* \"#utility.yul\":16557:16765   */\n    tag_506:\n        /* \"#utility.yul\":16571:16578   */\n      dup3\n        /* \"#utility.yul\":16568:16569   */\n      dup2\n        /* \"#utility.yul\":16565:16579   */\n      lt\n        /* \"#utility.yul\":16557:16765   */\n      iszero\n      tag_508\n      jumpi\n        /* \"#utility.yul\":16650:16659   */\n      dup5\n        /* \"#utility.yul\":16645:16648   */\n      dup10\n        /* \"#utility.yul\":16641:16660   */\n      add\n        /* \"#utility.yul\":16635:16661   */\n      mload\n        /* \"#utility.yul\":16627:16633   */\n      dup3\n        /* \"#utility.yul\":16620:16662   */\n      sstore\n        /* \"#utility.yul\":16701:16702   */\n      0x01\n        /* \"#utility.yul\":16693:16699   */\n      dup3\n        /* \"#utility.yul\":16689:16703   */\n      add\n        /* \"#utility.yul\":16679:16703   */\n      swap2\n      pop\n        /* \"#utility.yul\":16748:16750   */\n      0x20\n        /* \"#utility.yul\":16737:16746   */\n      dup6\n        /* \"#utility.yul\":16733:16751   */\n      add\n        /* \"#utility.yul\":16720:16751   */\n      swap5\n      pop\n        /* \"#utility.yul\":16594:16598   */\n      0x20\n        /* \"#utility.yul\":16591:16592   */\n      dup2\n        /* \"#utility.yul\":16587:16599   */\n      add\n        /* \"#utility.yul\":16582:16599   */\n      swap1\n      pop\n        /* \"#utility.yul\":16557:16765   */\n      jump(tag_506)\n    tag_508:\n        /* \"#utility.yul\":16793:16799   */\n      dup7\n        /* \"#utility.yul\":16784:16791   */\n      dup4\n        /* \"#utility.yul\":16781:16800   */\n      lt\n        /* \"#utility.yul\":16778:16957   */\n      iszero\n      tag_509\n      jumpi\n        /* \"#utility.yul\":16851:16860   */\n      dup5\n        /* \"#utility.yul\":16846:16849   */\n      dup10\n        /* \"#utility.yul\":16842:16861   */\n      add\n        /* \"#utility.yul\":16836:16862   */\n      mload\n        /* \"#utility.yul\":16894:16942   */\n      tag_510\n        /* \"#utility.yul\":16936:16940   */\n      0x1f\n        /* \"#utility.yul\":16928:16934   */\n      dup10\n        /* \"#utility.yul\":16924:16941   */\n      and\n        /* \"#utility.yul\":16913:16922   */\n      dup3\n        /* \"#utility.yul\":16894:16942   */\n      tag_293\n      jump\t// in\n    tag_510:\n        /* \"#utility.yul\":16886:16892   */\n      dup4\n        /* \"#utility.yul\":16879:16943   */\n      sstore\n        /* \"#utility.yul\":16801:16957   */\n      pop\n        /* \"#utility.yul\":16778:16957   */\n    tag_509:\n        /* \"#utility.yul\":17003:17004   */\n      0x01\n        /* \"#utility.yul\":16999:17000   */\n      0x02\n        /* \"#utility.yul\":16991:16997   */\n      dup9\n        /* \"#utility.yul\":16987:17001   */\n      mul\n        /* \"#utility.yul\":16983:17005   */\n      add\n        /* \"#utility.yul\":16977:16981   */\n      dup9\n        /* \"#utility.yul\":16970:17006   */\n      sstore\n        /* \"#utility.yul\":16405:17016   */\n      pop\n      pop\n      pop\n        /* \"#utility.yul\":16368:17255   */\n    tag_501:\n      pop\n        /* \"#utility.yul\":15958:17261   */\n      pop\n      pop\n      pop\n        /* \"#utility.yul\":15866:17261   */\n      pop\n      pop\n      jump\t// out\n        /* \"#utility.yul\":17267:17415   */\n    tag_295:\n        /* \"#utility.yul\":17369:17380   */\n      0x00\n        /* \"#utility.yul\":17406:17409   */\n      dup2\n        /* \"#utility.yul\":17391:17409   */\n      swap1\n      pop\n        /* \"#utility.yul\":17267:17415   */\n      swap3\n      swap2\n      pop\n      pop\n      jump\t// out\n        /* \"#utility.yul\":17421:17576   */\n    tag_296:\n        /* \"#utility.yul\":17561:17568   */\n      0x4550303031000000000000000000000000000000000000000000000000000000\n        /* \"#utility.yul\":17557:17558   */\n      0x00\n        /* \"#utility.yul\":17549:17555   */\n      dup3\n        /* \"#utility.yul\":17545:17559   */\n      add\n        /* \"#utility.yul\":17538:17569   */\n      mstore\n        /* \"#utility.yul\":17421:17576   */\n      pop\n      jump\t// out\n        /* \"#utility.yul\":17582:17982   */\n    tag_297:\n        /* \"#utility.yul\":17742:17745   */\n      0x00\n        /* \"#utility.yul\":17763:17847   */\n      tag_514\n        /* \"#utility.yul\":17845:17846   */\n      0x05\n        /* \"#utility.yul\":17840:17843   */\n      dup4\n        /* \"#utility.yul\":17763:17847   */\n      tag_295\n      jump\t// in\n    tag_514:\n        /* \"#utility.yul\":17756:17847   */\n      swap2\n      pop\n        /* \"#utility.yul\":17856:17949   */\n      tag_515\n        /* \"#utility.yul\":17945:17948   */\n      dup3\n        /* \"#utility.yul\":17856:17949   */\n      tag_296\n      jump\t// in\n    tag_515:\n        /* \"#utility.yul\":17974:17975   */\n      0x05\n        /* \"#utility.yul\":17969:17972   */\n      dup3\n        /* \"#utility.yul\":17965:17976   */\n      add\n        /* \"#utility.yul\":17958:17976   */\n      swap1\n      pop\n        /* \"#utility.yul\":17582:17982   */\n      swap2\n      swap1\n      pop\n      jump\t// out\n        /* \"#utility.yul\":17988:18369   */\n    tag_89:\n        /* \"#utility.yul\":18173:18176   */\n      0x00\n        /* \"#utility.yul\":18195:18343   */\n      tag_517\n        /* \"#utility.yul\":18339:18342   */\n      dup3\n        /* \"#utility.yul\":18195:18343   */\n      tag_297\n      jump\t// in\n    tag_517:\n        /* \"#utility.yul\":18188:18343   */\n      swap2\n      pop\n        /* \"#utility.yul\":18360:18363   */\n      dup2\n        /* \"#utility.yul\":18353:18363   */\n      swap1\n      pop\n        /* \"#utility.yul\":17988:18369   */\n      swap2\n      swap1\n      pop\n      jump\t// out\n        /* \"#utility.yul\":18375:18530   */\n    tag_298:\n        /* \"#utility.yul\":18515:18522   */\n      0x4550303032000000000000000000000000000000000000000000000000000000\n        /* \"#utility.yul\":18511:18512   */\n      0x00\n        /* \"#utility.yul\":18503:18509   */\n      dup3\n        /* \"#utility.yul\":18499:18513   */\n      add\n        /* \"#utility.yul\":18492:18523   */\n      mstore\n        /* \"#utility.yul\":18375:18530   */\n      pop\n      jump\t// out\n        /* \"#utility.yul\":18536:18936   */\n    tag_299:\n        /* \"#utility.yul\":18696:18699   */\n      0x00\n        /* \"#utility.yul\":18717:18801   */\n      tag_520\n        /* \"#utility.yul\":18799:18800   */\n      0x05\n        /* \"#utility.yul\":18794:18797   */\n      dup4\n        /* \"#utility.yul\":18717:18801   */\n      tag_295\n      jump\t// in\n    tag_520:\n        /* \"#utility.yul\":18710:18801   */\n      swap2\n      pop\n        /* \"#utility.yul\":18810:18903   */\n      tag_521\n        /* \"#utility.yul\":18899:18902   */\n      dup3\n        /* \"#utility.yul\":18810:18903   */\n      tag_298\n      jump\t// in\n    tag_521:\n        /* \"#utility.yul\":18928:18929   */\n      0x05\n        /* \"#utility.yul\":18923:18926   */\n      dup3\n        /* \"#utility.yul\":18919:18930   */\n      add\n        /* \"#utility.yul\":18912:18930   */\n      swap1\n      pop\n        /* \"#utility.yul\":18536:18936   */\n      swap2\n      swap1\n      pop\n      jump\t// out\n        /* \"#utility.yul\":18942:19323   */\n    tag_91:\n        /* \"#utility.yul\":19127:19130   */\n      0x00\n        /* \"#utility.yul\":19149:19297   */\n      tag_523\n        /* \"#utility.yul\":19293:19296   */\n      dup3\n        /* \"#utility.yul\":19149:19297   */\n      tag_299\n      jump\t// in\n    tag_523:\n        /* \"#utility.yul\":19142:19297   */\n      swap2\n      pop\n        /* \"#utility.yul\":19314:19317   */\n      dup2\n        /* \"#utility.yul\":19307:19317   */\n      swap1\n      pop\n        /* \"#utility.yul\":18942:19323   */\n      swap2\n      swap1\n      pop\n      jump\t// out\n        /* \"#utility.yul\":19329:19484   */\n    tag_300:\n        /* \"#utility.yul\":19469:19476   */\n      0x4550303033000000000000000000000000000000000000000000000000000000\n        /* \"#utility.yul\":19465:19466   */\n      0x00\n        /* \"#utility.yul\":19457:19463   */\n      dup3\n        /* \"#utility.yul\":19453:19467   */\n      add\n        /* \"#utility.yul\":19446:19477   */\n      mstore\n        /* \"#utility.yul\":19329:19484   */\n      pop\n      jump\t// out\n        /* \"#utility.yul\":19490:19890   */\n    tag_301:\n        /* \"#utility.yul\":19650:19653   */\n      0x00\n        /* \"#utility.yul\":19671:19755   */\n      tag_526\n        /* \"#utility.yul\":19753:19754   */\n      0x05\n        /* \"#utility.yul\":19748:19751   */\n      dup4\n        /* \"#utility.yul\":19671:19755   */\n      tag_295\n      jump\t// in\n    tag_526:\n        /* \"#utility.yul\":19664:19755   */\n      swap2\n      pop\n        /* \"#utility.yul\":19764:19857   */\n      tag_527\n        /* \"#utility.yul\":19853:19856   */\n      dup3\n        /* \"#utility.yul\":19764:19857   */\n      tag_300\n      jump\t// in\n    tag_527:\n        /* \"#utility.yul\":19882:19883   */\n      0x05\n        /* \"#utility.yul\":19877:19880   */\n      dup3\n        /* \"#utility.yul\":19873:19884   */\n      add\n        /* \"#utility.yul\":19866:19884   */\n      swap1\n      pop\n        /* \"#utility.yul\":19490:19890   */\n      swap2\n      swap1\n      pop\n      jump\t// out\n        /* \"#utility.yul\":19896:20277   */\n    tag_93:\n        /* \"#utility.yul\":20081:20084   */\n      0x00\n        /* \"#utility.yul\":20103:20251   */\n      tag_529\n        /* \"#utility.yul\":20247:20250   */\n      dup3\n        /* \"#utility.yul\":20103:20251   */\n      tag_301\n      jump\t// in\n    tag_529:\n        /* \"#utility.yul\":20096:20251   */\n      swap2\n      pop\n        /* \"#utility.yul\":20268:20271   */\n      dup2\n        /* \"#utility.yul\":20261:20271   */\n      swap1\n      pop\n        /* \"#utility.yul\":19896:20277   */\n      swap2\n      swap1\n      pop\n      jump\t// out\n        /* \"#utility.yul\":20283:20438   */\n    tag_302:\n        /* \"#utility.yul\":20423:20430   */\n      0x4550303034000000000000000000000000000000000000000000000000000000\n        /* \"#utility.yul\":20419:20420   */\n      0x00\n        /* \"#utility.yul\":20411:20417   */\n      dup3\n        /* \"#utility.yul\":20407:20421   */\n      add\n        /* \"#utility.yul\":20400:20431   */\n      mstore\n        /* \"#utility.yul\":20283:20438   */\n      pop\n      jump\t// out\n        /* \"#utility.yul\":20444:20844   */\n    tag_303:\n        /* \"#utility.yul\":20604:20607   */\n      0x00\n        /* \"#utility.yul\":20625:20709   */\n      tag_532\n        /* \"#utility.yul\":20707:20708   */\n      0x05\n        /* \"#utility.yul\":20702:20705   */\n      dup4\n        /* \"#utility.yul\":20625:20709   */\n      tag_295\n      jump\t// in\n    tag_532:\n        /* \"#utility.yul\":20618:20709   */\n      swap2\n      pop\n        /* \"#utility.yul\":20718:20811   */\n      tag_533\n        /* \"#utility.yul\":20807:20810   */\n      dup3\n        /* \"#utility.yul\":20718:20811   */\n      tag_302\n      jump\t// in\n    tag_533:\n        /* \"#utility.yul\":20836:20837   */\n      0x05\n        /* \"#utility.yul\":20831:20834   */\n      dup3\n        /* \"#utility.yul\":20827:20838   */\n      add\n        /* \"#utility.yul\":20820:20838   */\n      swap1\n      pop\n        /* \"#utility.yul\":20444:20844   */\n      swap2\n      swap1\n      pop\n      jump\t// out\n        /* \"#utility.yul\":20850:21231   */\n    tag_95:\n        /* \"#utility.yul\":21035:21038   */\n      0x00\n        /* \"#utility.yul\":21057:21205   */\n      tag_535\n        /* \"#utility.yul\":21201:21204   */\n      dup3\n        /* \"#utility.yul\":21057:21205   */\n      tag_303\n      jump\t// in\n    tag_535:\n        /* \"#utility.yul\":21050:21205   */\n      swap2\n      pop\n        /* \"#utility.yul\":21222:21225   */\n      dup2\n        /* \"#utility.yul\":21215:21225   */\n      swap1\n      pop\n        /* \"#utility.yul\":20850:21231   */\n      swap2\n      swap1\n      pop\n      jump\t// out\n        /* \"#utility.yul\":21237:21397   */\n    tag_304:\n        /* \"#utility.yul\":21377:21389   */\n      0x7472616e735f74696d6500000000000000000000000000000000000000000000\n        /* \"#utility.yul\":21373:21374   */\n      0x00\n        /* \"#utility.yul\":21365:21371   */\n      dup3\n        /* \"#utility.yul\":21361:21375   */\n      add\n        /* \"#utility.yul\":21354:21390   */\n      mstore\n        /* \"#utility.yul\":21237:21397   */\n      pop\n      jump\t// out\n        /* \"#utility.yul\":21403:21805   */\n    tag_305:\n        /* \"#utility.yul\":21563:21566   */\n      0x00\n        /* \"#utility.yul\":21584:21669   */\n      tag_538\n        /* \"#utility.yul\":21666:21668   */\n      0x0a\n        /* \"#utility.yul\":21661:21664   */\n      dup4\n        /* \"#utility.yul\":21584:21669   */\n      tag_295\n      jump\t// in\n    tag_538:\n        /* \"#utility.yul\":21577:21669   */\n      swap2\n      pop\n        /* \"#utility.yul\":21678:21771   */\n      tag_539\n        /* \"#utility.yul\":21767:21770   */\n      dup3\n        /* \"#utility.yul\":21678:21771   */\n      tag_304\n      jump\t// in\n    tag_539:\n        /* \"#utility.yul\":21796:21798   */\n      0x0a\n        /* \"#utility.yul\":21791:21794   */\n      dup3\n        /* \"#utility.yul\":21787:21799   */\n      add\n        /* \"#utility.yul\":21780:21799   */\n      swap1\n      pop\n        /* \"#utility.yul\":21403:21805   */\n      swap2\n      swap1\n      pop\n      jump\t// out\n        /* \"#utility.yul\":21811:22192   */\n    tag_97:\n        /* \"#utility.yul\":21996:21999   */\n      0x00\n        /* \"#utility.yul\":22018:22166   */\n      tag_541\n        /* \"#utility.yul\":22162:22165   */\n      dup3\n        /* \"#utility.yul\":22018:22166   */\n      tag_305\n      jump\t// in\n    tag_541:\n        /* \"#utility.yul\":22011:22166   */\n      swap2\n      pop\n        /* \"#utility.yul\":22183:22186   */\n      dup2\n        /* \"#utility.yul\":22176:22186   */\n      swap1\n      pop\n        /* \"#utility.yul\":21811:22192   */\n      swap2\n      swap1\n      pop\n      jump\t// out\n        /* \"#utility.yul\":22198:22353   */\n    tag_306:\n        /* \"#utility.yul\":22338:22345   */\n      0x4550303036000000000000000000000000000000000000000000000000000000\n        /* \"#utility.yul\":22334:22335   */\n      0x00\n        /* \"#utility.yul\":22326:22332   */\n      dup3\n        /* \"#utility.yul\":22322:22336   */\n      add\n        /* \"#utility.yul\":22315:22346   */\n      mstore\n        /* \"#utility.yul\":22198:22353   */\n      pop\n      jump\t// out\n        /* \"#utility.yul\":22359:22759   */\n    tag_307:\n        /* \"#utility.yul\":22519:22522   */\n      0x00\n        /* \"#utility.yul\":22540:22624   */\n      tag_544\n        /* \"#utility.yul\":22622:22623   */\n      0x05\n        /* \"#utility.yul\":22617:22620   */\n      dup4\n        /* \"#utility.yul\":22540:22624   */\n      tag_295\n      jump\t// in\n    tag_544:\n        /* \"#utility.yul\":22533:22624   */\n      swap2\n      pop\n        /* \"#utility.yul\":22633:22726   */\n      tag_545\n        /* \"#utility.yul\":22722:22725   */\n      dup3\n        /* \"#utility.yul\":22633:22726   */\n      tag_306\n      jump\t// in\n    tag_545:\n        /* \"#utility.yul\":22751:22752   */\n      0x05\n        /* \"#utility.yul\":22746:22749   */\n      dup3\n        /* \"#utility.yul\":22742:22753   */\n      add\n        /* \"#utility.yul\":22735:22753   */\n      swap1\n      pop\n        /* \"#utility.yul\":22359:22759   */\n      swap2\n      swap1\n      pop\n      jump\t// out\n        /* \"#utility.yul\":22765:23146   */\n    tag_99:\n        /* \"#utility.yul\":22950:22953   */\n      0x00\n        /* \"#utility.yul\":22972:23120   */\n      tag_547\n        /* \"#utility.yul\":23116:23119   */\n      dup3\n        /* \"#utility.yul\":22972:23120   */\n      tag_307\n      jump\t// in\n    tag_547:\n        /* \"#utility.yul\":22965:23120   */\n      swap2\n      pop\n        /* \"#utility.yul\":23137:23140   */\n      dup2\n        /* \"#utility.yul\":23130:23140   */\n      swap1\n      pop\n        /* \"#utility.yul\":22765:23146   */\n      swap2\n      swap1\n      pop\n      jump\t// out\n        /* \"#utility.yul\":23152:23307   */\n    tag_308:\n        /* \"#utility.yul\":23292:23299   */\n      0x4550303035000000000000000000000000000000000000000000000000000000\n        /* \"#utility.yul\":23288:23289   */\n      0x00\n        /* \"#utility.yul\":23280:23286   */\n      dup3\n        /* \"#utility.yul\":23276:23290   */\n      add\n        /* \"#utility.yul\":23269:23300   */\n      mstore\n        /* \"#utility.yul\":23152:23307   */\n      pop\n      jump\t// out\n        /* \"#utility.yul\":23313:23713   */\n    tag_309:\n        /* \"#utility.yul\":23473:23476   */\n      0x00\n        /* \"#utility.yul\":23494:23578   */\n      tag_550\n        /* \"#utility.yul\":23576:23577   */\n      0x05\n        /* \"#utility.yul\":23571:23574   */\n      dup4\n        /* \"#utility.yul\":23494:23578   */\n      tag_295\n      jump\t// in\n    tag_550:\n        /* \"#utility.yul\":23487:23578   */\n      swap2\n      pop\n        /* \"#utility.yul\":23587:23680   */\n      tag_551\n        /* \"#utility.yul\":23676:23679   */\n      dup3\n        /* \"#utility.yul\":23587:23680   */\n      tag_308\n      jump\t// in\n    tag_551:\n        /* \"#utility.yul\":23705:23706   */\n      0x05\n        /* \"#utility.yul\":23700:23703   */\n      dup3\n        /* \"#utility.yul\":23696:23707   */\n      add\n        /* \"#utility.yul\":23689:23707   */\n      swap1\n      pop\n        /* \"#utility.yul\":23313:23713   */\n      swap2\n      swap1\n      pop\n      jump\t// out\n        /* \"#utility.yul\":23719:24100   */\n    tag_113:\n        /* \"#utility.yul\":23904:23907   */\n      0x00\n        /* \"#utility.yul\":23926:24074   */\n      tag_553\n        /* \"#utility.yul\":24070:24073   */\n      dup3\n        /* \"#utility.yul\":23926:24074   */\n      tag_309\n      jump\t// in\n    tag_553:\n        /* \"#utility.yul\":23919:24074   */\n      swap2\n      pop\n        /* \"#utility.yul\":24091:24094   */\n      dup2\n        /* \"#utility.yul\":24084:24094   */\n      swap1\n      pop\n        /* \"#utility.yul\":23719:24100   */\n      swap2\n      swap1\n      pop\n      jump\t// out\n        /* \"#utility.yul\":24106:24261   */\n    tag_310:\n        /* \"#utility.yul\":24246:24253   */\n      0x4550303037000000000000000000000000000000000000000000000000000000\n        /* \"#utility.yul\":24242:24243   */\n      0x00\n        /* \"#utility.yul\":24234:24240   */\n      dup3\n        /* \"#utility.yul\":24230:24244   */\n      add\n        /* \"#utility.yul\":24223:24254   */\n      mstore\n        /* \"#utility.yul\":24106:24261   */\n      pop\n      jump\t// out\n        /* \"#utility.yul\":24267:24667   */\n    tag_311:\n        /* \"#utility.yul\":24427:24430   */\n      0x00\n        /* \"#utility.yul\":24448:24532   */\n      tag_556\n        /* \"#utility.yul\":24530:24531   */\n      0x05\n        /* \"#utility.yul\":24525:24528   */\n      dup4\n        /* \"#utility.yul\":24448:24532   */\n      tag_295\n      jump\t// in\n    tag_556:\n        /* \"#utility.yul\":24441:24532   */\n      swap2\n      pop\n        /* \"#utility.yul\":24541:24634   */\n      tag_557\n        /* \"#utility.yul\":24630:24633   */\n      dup3\n        /* \"#utility.yul\":24541:24634   */\n      tag_310\n      jump\t// in\n    tag_557:\n        /* \"#utility.yul\":24659:24660   */\n      0x05\n        /* \"#utility.yul\":24654:24657   */\n      dup3\n        /* \"#utility.yul\":24650:24661   */\n      add\n        /* \"#utility.yul\":24643:24661   */\n      swap1\n      pop\n        /* \"#utility.yul\":24267:24667   */\n      swap2\n      swap1\n      pop\n      jump\t// out\n        /* \"#utility.yul\":24673:25054   */\n    tag_128:\n        /* \"#utility.yul\":24858:24861   */\n      0x00\n        /* \"#utility.yul\":24880:25028   */\n      tag_559\n        /* \"#utility.yul\":25024:25027   */\n      dup3\n        /* \"#utility.yul\":24880:25028   */\n      tag_311\n      jump\t// in\n    tag_559:\n        /* \"#utility.yul\":24873:25028   */\n      swap2\n      pop\n        /* \"#utility.yul\":25045:25048   */\n      dup2\n        /* \"#utility.yul\":25038:25048   */\n      swap1\n      pop\n        /* \"#utility.yul\":24673:25054   */\n      swap2\n      swap1\n      pop\n      jump\t// out\n        /* \"#utility.yul\":25060:25213   */\n    tag_312:\n        /* \"#utility.yul\":25200:25205   */\n      0x4254430000000000000000000000000000000000000000000000000000000000\n        /* \"#utility.yul\":25196:25197   */\n      0x00\n        /* \"#utility.yul\":25188:25194   */\n      dup3\n        /* \"#utility.yul\":25184:25198   */\n      add\n        /* \"#utility.yul\":25177:25206   */\n      mstore\n        /* \"#utility.yul\":25060:25213   */\n      pop\n      jump\t// out\n        /* \"#utility.yul\":25219:25619   */\n    tag_313:\n        /* \"#utility.yul\":25379:25382   */\n      0x00\n        /* \"#utility.yul\":25400:25484   */\n      tag_562\n        /* \"#utility.yul\":25482:25483   */\n      0x03\n        /* \"#utility.yul\":25477:25480   */\n      dup4\n        /* \"#utility.yul\":25400:25484   */\n      tag_295\n      jump\t// in\n    tag_562:\n        /* \"#utility.yul\":25393:25484   */\n      swap2\n      pop\n        /* \"#utility.yul\":25493:25586   */\n      tag_563\n        /* \"#utility.yul\":25582:25585   */\n      dup3\n        /* \"#utility.yul\":25493:25586   */\n      tag_312\n      jump\t// in\n    tag_563:\n        /* \"#utility.yul\":25611:25612   */\n      0x03\n        /* \"#utility.yul\":25606:25609   */\n      dup3\n        /* \"#utility.yul\":25602:25613   */\n      add\n        /* \"#utility.yul\":25595:25613   */\n      swap1\n      pop\n        /* \"#utility.yul\":25219:25619   */\n      swap2\n      swap1\n      pop\n      jump\t// out\n        /* \"#utility.yul\":25625:26006   */\n    tag_164:\n        /* \"#utility.yul\":25810:25813   */\n      0x00\n        /* \"#utility.yul\":25832:25980   */\n      tag_565\n        /* \"#utility.yul\":25976:25979   */\n      dup3\n        /* \"#utility.yul\":25832:25980   */\n      tag_313\n      jump\t// in\n    tag_565:\n        /* \"#utility.yul\":25825:25980   */\n      swap2\n      pop\n        /* \"#utility.yul\":25997:26000   */\n      dup2\n        /* \"#utility.yul\":25990:26000   */\n      swap1\n      pop\n        /* \"#utility.yul\":25625:26006   */\n      swap2\n      swap1\n      pop\n      jump\t// out\n        /* \"#utility.yul\":26012:26166   */\n    tag_314:\n        /* \"#utility.yul\":26152:26158   */\n      0x5553445400000000000000000000000000000000000000000000000000000000\n        /* \"#utility.yul\":26148:26149   */\n      0x00\n        /* \"#utility.yul\":26140:26146   */\n      dup3\n        /* \"#utility.yul\":26136:26150   */\n      add\n        /* \"#utility.yul\":26129:26159   */\n      mstore\n        /* \"#utility.yul\":26012:26166   */\n      pop\n      jump\t// out\n        /* \"#utility.yul\":26172:26572   */\n    tag_315:\n        /* \"#utility.yul\":26332:26335   */\n      0x00\n        /* \"#utility.yul\":26353:26437   */\n      tag_568\n        /* \"#utility.yul\":26435:26436   */\n      0x04\n        /* \"#utility.yul\":26430:26433   */\n      dup4\n        /* \"#utility.yul\":26353:26437   */\n      tag_295\n      jump\t// in\n    tag_568:\n        /* \"#utility.yul\":26346:26437   */\n      swap2\n      pop\n        /* \"#utility.yul\":26446:26539   */\n      tag_569\n        /* \"#utility.yul\":26535:26538   */\n      dup3\n        /* \"#utility.yul\":26446:26539   */\n      tag_314\n      jump\t// in\n    tag_569:\n        /* \"#utility.yul\":26564:26565   */\n      0x04\n        /* \"#utility.yul\":26559:26562   */\n      dup3\n        /* \"#utility.yul\":26555:26566   */\n      add\n        /* \"#utility.yul\":26548:26566   */\n      swap1\n      pop\n        /* \"#utility.yul\":26172:26572   */\n      swap2\n      swap1\n      pop\n      jump\t// out\n        /* \"#utility.yul\":26578:26959   */\n    tag_166:\n        /* \"#utility.yul\":26763:26766   */\n      0x00\n        /* \"#utility.yul\":26785:26933   */\n      tag_571\n        /* \"#utility.yul\":26929:26932   */\n      dup3\n        /* \"#utility.yul\":26785:26933   */\n      tag_315\n      jump\t// in\n    tag_571:\n        /* \"#utility.yul\":26778:26933   */\n      swap2\n      pop\n        /* \"#utility.yul\":26950:26953   */\n      dup2\n        /* \"#utility.yul\":26943:26953   */\n      swap1\n      pop\n        /* \"#utility.yul\":26578:26959   */\n      swap2\n      swap1\n      pop\n      jump\t// out\n        /* \"#utility.yul\":26965:27355   */\n    tag_316:\n        /* \"#utility.yul\":27071:27074   */\n      0x00\n        /* \"#utility.yul\":27099:27138   */\n      tag_573\n        /* \"#utility.yul\":27132:27137   */\n      dup3\n        /* \"#utility.yul\":27099:27138   */\n      tag_271\n      jump\t// in\n    tag_573:\n        /* \"#utility.yul\":27154:27243   */\n      tag_574\n        /* \"#utility.yul\":27236:27242   */\n      dup2\n        /* \"#utility.yul\":27231:27234   */\n      dup6\n        /* \"#utility.yul\":27154:27243   */\n      tag_295\n      jump\t// in\n    tag_574:\n        /* \"#utility.yul\":27147:27243   */\n      swap4\n      pop\n        /* \"#utility.yul\":27252:27317   */\n      tag_575\n        /* \"#utility.yul\":27310:27316   */\n      dup2\n        /* \"#utility.yul\":27305:27308   */\n      dup6\n        /* \"#utility.yul\":27298:27302   */\n      0x20\n        /* \"#utility.yul\":27291:27296   */\n      dup7\n        /* \"#utility.yul\":27287:27303   */\n      add\n        /* \"#utility.yul\":27252:27317   */\n      tag_273\n      jump\t// in\n    tag_575:\n        /* \"#utility.yul\":27342:27348   */\n      dup1\n        /* \"#utility.yul\":27337:27340   */\n      dup5\n        /* \"#utility.yul\":27333:27349   */\n      add\n        /* \"#utility.yul\":27326:27349   */\n      swap2\n      pop\n        /* \"#utility.yul\":27075:27355   */\n      pop\n        /* \"#utility.yul\":26965:27355   */\n      swap3\n      swap2\n      pop\n      pop\n      jump\t// out\n        /* \"#utility.yul\":27361:27636   */\n    tag_208:\n        /* \"#utility.yul\":27493:27496   */\n      0x00\n        /* \"#utility.yul\":27515:27610   */\n      tag_577\n        /* \"#utility.yul\":27606:27609   */\n      dup3\n        /* \"#utility.yul\":27597:27603   */\n      dup5\n        /* \"#utility.yul\":27515:27610   */\n      tag_316\n      jump\t// in\n    tag_577:\n        /* \"#utility.yul\":27508:27610   */\n      swap2\n      pop\n        /* \"#utility.yul\":27627:27630   */\n      dup2\n        /* \"#utility.yul\":27620:27630   */\n      swap1\n      pop\n        /* \"#utility.yul\":27361:27636   */\n      swap3\n      swap2\n      pop\n      pop\n      jump\t// out\n        /* \"#utility.yul\":27666:28540   */\n    tag_317:\n        /* \"#utility.yul\":27769:27772   */\n      0x00\n        /* \"#utility.yul\":27806:27811   */\n      dup2\n        /* \"#utility.yul\":27800:27812   */\n      sload\n        /* \"#utility.yul\":27835:27871   */\n      tag_579\n        /* \"#utility.yul\":27861:27870   */\n      dup2\n        /* \"#utility.yul\":27835:27871   */\n      tag_171\n      jump\t// in\n    tag_579:\n        /* \"#utility.yul\":27887:27976   */\n      tag_580\n        /* \"#utility.yul\":27969:27975   */\n      dup2\n        /* \"#utility.yul\":27964:27967   */\n      dup7\n        /* \"#utility.yul\":27887:27976   */\n      tag_295\n      jump\t// in\n    tag_580:\n        /* \"#utility.yul\":27880:27976   */\n      swap5\n      pop\n        /* \"#utility.yul\":28007:28008   */\n      0x01\n        /* \"#utility.yul\":27996:28005   */\n      dup3\n        /* \"#utility.yul\":27992:28009   */\n      and\n        /* \"#utility.yul\":28023:28024   */\n      0x00\n        /* \"#utility.yul\":28018:28184   */\n      dup2\n      eq\n      tag_582\n      jumpi\n        /* \"#utility.yul\":28198:28199   */\n      0x01\n        /* \"#utility.yul\":28193:28534   */\n      dup2\n      eq\n      tag_583\n      jumpi\n        /* \"#utility.yul\":27985:28534   */\n      jump(tag_581)\n        /* \"#utility.yul\":28018:28184   */\n    tag_582:\n        /* \"#utility.yul\":28102:28106   */\n      0xff\n        /* \"#utility.yul\":28098:28107   */\n      not\n        /* \"#utility.yul\":28087:28096   */\n      dup4\n        /* \"#utility.yul\":28083:28108   */\n      and\n        /* \"#utility.yul\":28078:28081   */\n      dup7\n        /* \"#utility.yul\":28071:28109   */\n      mstore\n        /* \"#utility.yul\":28164:28170   */\n      dup2\n        /* \"#utility.yul\":28157:28171   */\n      iszero\n        /* \"#utility.yul\":28150:28172   */\n      iszero\n        /* \"#utility.yul\":28142:28148   */\n      dup3\n        /* \"#utility.yul\":28138:28173   */\n      mul\n        /* \"#utility.yul\":28133:28136   */\n      dup7\n        /* \"#utility.yul\":28129:28174   */\n      add\n        /* \"#utility.yul\":28122:28174   */\n      swap4\n      pop\n        /* \"#utility.yul\":28018:28184   */\n      jump(tag_581)\n        /* \"#utility.yul\":28193:28534   */\n    tag_583:\n        /* \"#utility.yul\":28260:28298   */\n      tag_584\n        /* \"#utility.yul\":28292:28297   */\n      dup6\n        /* \"#utility.yul\":28260:28298   */\n      tag_280\n      jump\t// in\n    tag_584:\n        /* \"#utility.yul\":28320:28321   */\n      0x00\n        /* \"#utility.yul\":28334:28488   */\n    tag_585:\n        /* \"#utility.yul\":28348:28354   */\n      dup4\n        /* \"#utility.yul\":28345:28346   */\n      dup2\n        /* \"#utility.yul\":28342:28355   */\n      lt\n        /* \"#utility.yul\":28334:28488   */\n      iszero\n      tag_587\n      jumpi\n        /* \"#utility.yul\":28422:28429   */\n      dup2\n        /* \"#utility.yul\":28416:28430   */\n      sload\n        /* \"#utility.yul\":28412:28413   */\n      dup2\n        /* \"#utility.yul\":28407:28410   */\n      dup10\n        /* \"#utility.yul\":28403:28414   */\n      add\n        /* \"#utility.yul\":28396:28431   */\n      mstore\n        /* \"#utility.yul\":28472:28473   */\n      0x01\n        /* \"#utility.yul\":28463:28470   */\n      dup3\n        /* \"#utility.yul\":28459:28474   */\n      add\n        /* \"#utility.yul\":28448:28474   */\n      swap2\n      pop\n        /* \"#utility.yul\":28370:28374   */\n      0x20\n        /* \"#utility.yul\":28367:28368   */\n      dup2\n        /* \"#utility.yul\":28363:28375   */\n      add\n        /* \"#utility.yul\":28358:28375   */\n      swap1\n      pop\n        /* \"#utility.yul\":28334:28488   */\n      jump(tag_585)\n    tag_587:\n        /* \"#utility.yul\":28517:28523   */\n      dup4\n        /* \"#utility.yul\":28512:28515   */\n      dup9\n        /* \"#utility.yul\":28508:28524   */\n      add\n        /* \"#utility.yul\":28501:28524   */\n      swap6\n      pop\n        /* \"#utility.yul\":28200:28534   */\n      pop\n      pop\n        /* \"#utility.yul\":27985:28534   */\n    tag_581:\n      pop\n        /* \"#utility.yul\":27773:28540   */\n      pop\n      pop\n        /* \"#utility.yul\":27666:28540   */\n      swap3\n      swap2\n      pop\n      pop\n      jump\t// out\n        /* \"#utility.yul\":28546:28815   */\n    tag_242:\n        /* \"#utility.yul\":28675:28678   */\n      0x00\n        /* \"#utility.yul\":28697:28789   */\n      tag_589\n        /* \"#utility.yul\":28785:28788   */\n      dup3\n        /* \"#utility.yul\":28776:28782   */\n      dup5\n        /* \"#utility.yul\":28697:28789   */\n      tag_317\n      jump\t// in\n    tag_589:\n        /* \"#utility.yul\":28690:28789   */\n      swap2\n      pop\n        /* \"#utility.yul\":28806:28809   */\n      dup2\n        /* \"#utility.yul\":28799:28809   */\n      swap1\n      pop\n        /* \"#utility.yul\":28546:28815   */\n      swap3\n      swap2\n      pop\n      pop\n      jump\t// out\n        /* \"#utility.yul\":28821:29001   */\n    tag_318:\n        /* \"#utility.yul\":28869:28946   */\n      0x4e487b7100000000000000000000000000000000000000000000000000000000\n        /* \"#utility.yul\":28866:28867   */\n      0x00\n        /* \"#utility.yul\":28859:28947   */\n      mstore\n        /* \"#utility.yul\":28966:28970   */\n      0x11\n        /* \"#utility.yul\":28963:28964   */\n      0x04\n        /* \"#utility.yul\":28956:28971   */\n      mstore\n        /* \"#utility.yul\":28990:28994   */\n      0x24\n        /* \"#utility.yul\":28987:28988   */\n      0x00\n        /* \"#utility.yul\":28980:28995   */\n      revert\n        /* \"#utility.yul\":29007:29240   */\n    tag_248:\n        /* \"#utility.yul\":29046:29049   */\n      0x00\n        /* \"#utility.yul\":29069:29093   */\n      tag_592\n        /* \"#utility.yul\":29087:29092   */\n      dup3\n        /* \"#utility.yul\":29069:29093   */\n      tag_267\n      jump\t// in\n    tag_592:\n        /* \"#utility.yul\":29060:29093   */\n      swap2\n      pop\n        /* \"#utility.yul\":29115:29181   */\n      0xffffffffffffffffffffffffffffffffffffffffffffffffffffffffffffffff\n        /* \"#utility.yul\":29108:29113   */\n      dup3\n        /* \"#utility.yul\":29105:29182   */\n      sub\n        /* \"#utility.yul\":29102:29205   */\n      tag_593\n      jumpi\n        /* \"#utility.yul\":29185:29203   */\n      tag_594\n      tag_318\n      jump\t// in\n    tag_594:\n        /* \"#utility.yul\":29102:29205   */\n    tag_593:\n        /* \"#utility.yul\":29232:29233   */\n      0x01\n        /* \"#utility.yul\":29225:29230   */\n      dup3\n        /* \"#utility.yul\":29221:29234   */\n      add\n        /* \"#utility.yul\":29214:29234   */\n      swap1\n      pop\n        /* \"#utility.yul\":29007:29240   */\n      swap2\n      swap1\n      pop\n      jump\t// out\n        /* \"#utility.yul\":29246:29473   */\n    tag_319:\n        /* \"#utility.yul\":29386:29420   */\n      0x5472616e73616374696f6e207769746820676976656e206576656e744964206e\n        /* \"#utility.yul\":29382:29383   */\n      0x00\n        /* \"#utility.yul\":29374:29380   */\n      dup3\n        /* \"#utility.yul\":29370:29384   */\n      add\n        /* \"#utility.yul\":29363:29421   */\n      mstore\n        /* \"#utility.yul\":29455:29465   */\n      0x6f7420666f756e64000000000000000000000000000000000000000000000000\n        /* \"#utility.yul\":29450:29452   */\n      0x20\n        /* \"#utility.yul\":29442:29448   */\n      dup3\n        /* \"#utility.yul\":29438:29453   */\n      add\n        /* \"#utility.yul\":29431:29466   */\n      mstore\n        /* \"#utility.yul\":29246:29473   */\n      pop\n      jump\t// out\n        /* \"#utility.yul\":29479:29845   */\n    tag_320:\n        /* \"#utility.yul\":29621:29624   */\n      0x00\n        /* \"#utility.yul\":29642:29709   */\n      tag_597\n        /* \"#utility.yul\":29706:29708   */\n      0x28\n        /* \"#utility.yul\":29701:29704   */\n      dup4\n        /* \"#utility.yul\":29642:29709   */\n      tag_272\n      jump\t// in\n    tag_597:\n        /* \"#utility.yul\":29635:29709   */\n      swap2\n      pop\n        /* \"#utility.yul\":29718:29811   */\n      tag_598\n        /* \"#utility.yul\":29807:29810   */\n      dup3\n        /* \"#utility.yul\":29718:29811   */\n      tag_319\n      jump\t// in\n    tag_598:\n        /* \"#utility.yul\":29836:29838   */\n      0x40\n        /* \"#utility.yul\":29831:29834   */\n      dup3\n        /* \"#utility.yul\":29827:29839   */\n      add\n        /* \"#utility.yul\":29820:29839   */\n      swap1\n      pop\n        /* \"#utility.yul\":29479:29845   */\n      swap2\n      swap1\n      pop\n      jump\t// out\n        /* \"#utility.yul\":29851:30270   */\n    tag_250:\n        /* \"#utility.yul\":30017:30021   */\n      0x00\n        /* \"#utility.yul\":30055:30057   */\n      0x20\n        /* \"#utility.yul\":30044:30053   */\n      dup3\n        /* \"#utility.yul\":30040:30058   */\n      add\n        /* \"#utility.yul\":30032:30058   */\n      swap1\n      pop\n        /* \"#utility.yul\":30104:30113   */\n      dup2\n        /* \"#utility.yul\":30098:30102   */\n      dup2\n        /* \"#utility.yul\":30094:30114   */\n      sub\n        /* \"#utility.yul\":30090:30091   */\n      0x00\n        /* \"#utility.yul\":30079:30088   */\n      dup4\n        /* \"#utility.yul\":30075:30092   */\n      add\n        /* \"#utility.yul\":30068:30115   */\n      mstore\n        /* \"#utility.yul\":30132:30263   */\n      tag_600\n        /* \"#utility.yul\":30258:30262   */\n      dup2\n        /* \"#utility.yul\":30132:30263   */\n      tag_320\n      jump\t// in\n    tag_600:\n        /* \"#utility.yul\":30124:30263   */\n      swap1\n      pop\n        /* \"#utility.yul\":29851:30270   */\n      swap2\n      swap1\n      pop\n      jump\t// out\n\n    auxdata: 0xa2646970667358221220f61233c5191a68155839b4d8d953753d90240fe5600d96a1c0f3b0a6c3925c5c64736f6c63430008120033\n}\n",
				"bytecode": {
					"linkReferences": {},
					"object": "608060405234801561001057600080fd5b50612446806100206000396000f3fe608060405234801561001057600080fd5b50600436106100ea5760003560e01c80639ace38c21161008c578063b89da5ab11610066578063b89da5ab14610249578063c902284b14610279578063d6fa22b914610295578063e09576f0146102c5576100ea565b80639ace38c2146101b55780639b4e3420146101e7578063ac2ccd0714610217576100ea565b80635e97c344116100c85780635e97c3441461014557806367105efd146101615780638d1872451461017d5780639110293c14610199576100ea565b806316a6054e146100ef578063578cb8f91461010b57806357ac5e3c14610129575b600080fd5b6101096004803603810190610104919061164a565b6102f5565b005b6101136104b9565b604051610120919061170c565b60405180910390f35b610143600480360381019061013e9190611727565b6104c5565b005b61015f600480360381019061015a91906117be565b610665565b005b61017b6004803603810190610176919061164a565b61084d565b005b61019760048036038101906101929190611727565b610a11565b005b6101b360048036038101906101ae9190611727565b610bb1565b005b6101cf60048036038101906101ca91906118a8565b610d51565b6040516101de93929190611995565b60405180910390f35b61020160048036038101906101fc91906118a8565b610ebb565b60405161020e91906119da565b60405180910390f35b610231600480360381019061022c91906119fc565b610f72565b60405161024093929190611995565b60405180910390f35b610263600480360381019061025e9190611a45565b6110d6565b6040516102709190611ab0565b60405180910390f35b610293600480360381019061028e9190611727565b611121565b005b6102af60048036038101906102aa9190611acb565b6112c1565b6040516102bc9190611ab0565b60405180910390f35b6102df60048036038101906102da91906118a8565b6112f9565b6040516102ec91906119da565b60405180910390f35b600080805490509050600060018160018154018082558091505003906000526020600020905050600080828154811061033157610330611b43565b5b906000526020600020906004020190506040518060400160405280600981526020017f45303030313030303500000000000000000000000000000000000000000000008152508160000190816103879190611d7e565b50878160010190816103999190611d7e565b50338160020160006101000a81548173ffffffffffffffffffffffffffffffffffffffff021916908373ffffffffffffffffffffffffffffffffffffffff16021790555086816003016040516103ee90611ea7565b908152602001604051809103902081905550858160030160405161041190611f08565b908152602001604051809103902081905550848160030160405161043490611f69565b908152602001604051809103902081905550838160030160405161045790611fca565b908152602001604051809103902081905550428160030160405161047a9061202b565b908152602001604051809103902081905550828160030160405161049d9061208c565b9081526020016040518091039020819055505050505050505050565b60008080549050905090565b600080805490509050600060018160018154018082558091505003906000526020600020905050600080828154811061050157610500611b43565b5b906000526020600020906004020190506040518060400160405280600981526020017f45303030313030303200000000000000000000000000000000000000000000008152508160000190816105579190611d7e565b50868160010190816105699190611d7e565b50338160020160006101000a81548173ffffffffffffffffffffffffffffffffffffffff021916908373ffffffffffffffffffffffffffffffffffffffff16021790555085816003016040516105be90611ea7565b90815260200160405180910390208190555084816003016040516105e190611f08565b908152602001604051809103902081905550838160030160405161060490611f69565b90815260200160405180910390208190555042816003016040516106279061202b565b908152602001604051809103902081905550828160030160405161064a906120ed565b90815260200160405180910390208190555050505050505050565b60008080549050905060006001816001815401808255809150500390600052602060002090505060008082815481106106a1576106a0611b43565b5b906000526020600020906004020190506040518060400160405280600981526020017f45303030313030303400000000000000000000000000000000000000000000008152508160000190816106f79190611d7e565b50888160010190816107099190611d7e565b50338160020160006101000a81548173ffffffffffffffffffffffffffffffffffffffff021916908373ffffffffffffffffffffffffffffffffffffffff160217905550878160030160405161075e90611ea7565b908152602001604051809103902081905550868160030160405161078190611f08565b90815260200160405180910390208190555085816003016040516107a490611f69565b90815260200160405180910390208190555084816003016040516107c790611fca565b90815260200160405180910390208190555042816003016040516107ea9061202b565b908152602001604051809103902081905550838160030160405161080d9061208c565b90815260200160405180910390208190555082816003016040516108309061214e565b908152602001604051809103902081905550505050505050505050565b600080805490509050600060018160018154018082558091505003906000526020600020905050600080828154811061088957610888611b43565b5b906000526020600020906004020190506040518060400160405280600981526020017f45303030313030303500000000000000000000000000000000000000000000008152508160000190816108df9190611d7e565b50878160010190816108f19190611d7e565b50338160020160006101000a81548173ffffffffffffffffffffffffffffffffffffffff021916908373ffffffffffffffffffffffffffffffffffffffff160217905550868160030160405161094690611ea7565b908152602001604051809103902081905550858160030160405161096990611f08565b908152602001604051809103902081905550848160030160405161098c90611f69565b90815260200160405180910390208190555083816003016040516109af90611fca565b90815260200160405180910390208190555042816003016040516109d29061202b565b90815260200160405180910390208190555082816003016040516109f59061208c565b9081526020016040518091039020819055505050505050505050565b6000808054905090506000600181600181540180825580915050039060005260206000209050506000808281548110610a4d57610a4c611b43565b5b906000526020600020906004020190506040518060400160405280600981526020017f4530303031303030330000000000000000000000000000000000000000000000815250816000019081610aa39190611d7e565b5086816001019081610ab59190611d7e565b50338160020160006101000a81548173ffffffffffffffffffffffffffffffffffffffff021916908373ffffffffffffffffffffffffffffffffffffffff1602179055508581600301604051610b0a90611ea7565b9081526020016040518091039020819055508481600301604051610b2d90611f08565b9081526020016040518091039020819055508381600301604051610b5090611f69565b9081526020016040518091039020819055504281600301604051610b739061202b565b9081526020016040518091039020819055508281600301604051610b96906120ed565b90815260200160405180910390208190555050505050505050565b6000808054905090506000600181600181540180825580915050039060005260206000209050506000808281548110610bed57610bec611b43565b5b906000526020600020906004020190506040518060400160405280600981526020017f4530303032303030310000000000000000000000000000000000000000000000815250816000019081610c439190611d7e565b5086816001019081610c559190611d7e565b50338160020160006101000a81548173ffffffffffffffffffffffffffffffffffffffff021916908373ffffffffffffffffffffffffffffffffffffffff1602179055508581600301604051610caa90611ea7565b9081526020016040518091039020819055508481600301604051610ccd90611f08565b9081526020016040518091039020819055508381600301604051610cf0906121af565b9081526020016040518091039020819055508281600301604051610d1390612210565b9081526020016040518091039020819055504281600301604051610d369061202b565b90815260200160405180910390208190555050505050505050565b60008181548110610d6157600080fd5b9060005260206000209060040201600091509050806000018054610d8490611ba1565b80601f0160208091040260200160405190810160405280929190818152602001828054610db090611ba1565b8015610dfd5780601f10610dd257610100808354040283529160200191610dfd565b820191906000526020600020905b815481529060010190602001808311610de057829003601f168201915b505050505090806001018054610e1290611ba1565b80601f0160208091040260200160405190810160405280929190818152602001828054610e3e90611ba1565b8015610e8b5780601f10610e6057610100808354040283529160200191610e8b565b820191906000526020600020905b815481529060010190602001808311610e6e57829003601f168201915b5050505050908060020160009054906101000a900473ffffffffffffffffffffffffffffffffffffffff16905083565b606060008281548110610ed157610ed0611b43565b5b90600052602060002090600402016001018054610eed90611ba1565b80601f0160208091040260200160405190810160405280929190818152602001828054610f1990611ba1565b8015610f665780601f10610f3b57610100808354040283529160200191610f66565b820191906000526020600020905b815481529060010190602001808311610f4957829003601f168201915b50505050509050919050565b606080600080610f81856113b0565b905080600001816001018260020160009054906101000a900473ffffffffffffffffffffffffffffffffffffffff16828054610fbc90611ba1565b80601f0160208091040260200160405190810160405280929190818152602001828054610fe890611ba1565b80156110355780601f1061100a57610100808354040283529160200191611035565b820191906000526020600020905b81548152906001019060200180831161101857829003601f168201915b5050505050925081805461104890611ba1565b80601f016020809104026020016040519081016040528092919081815260200182805461107490611ba1565b80156110c15780601f10611096576101008083540402835291602001916110c1565b820191906000526020600020905b8154815290600101906020018083116110a457829003601f168201915b50505050509150935093509350509193909250565b60008083815481106110eb576110ea611b43565b5b90600052602060002090600402016003018260405161110a9190612256565b908152602001604051809103902054905092915050565b600080805490509050600060018160018154018082558091505003906000526020600020905050600080828154811061115d5761115c611b43565b5b906000526020600020906004020190506040518060400160405280600981526020017f45303030313030303100000000000000000000000000000000000000000000008152508160000190816111b39190611d7e565b50868160010190816111c59190611d7e565b50338160020160006101000a81548173ffffffffffffffffffffffffffffffffffffffff021916908373ffffffffffffffffffffffffffffffffffffffff160217905550858160030160405161121a90611ea7565b908152602001604051809103902081905550848160030160405161123d90611f08565b908152602001604051809103902081905550838160030160405161126090611f69565b90815260200160405180910390208190555042816003016040516112839061202b565b90815260200160405180910390208190555082816003016040516112a6906120ed565b90815260200160405180910390208190555050505050505050565b6000806112cd846113b0565b905080600301836040516112e19190612256565b90815260200160405180910390205491505092915050565b60606000828154811061130f5761130e611b43565b5b9060005260206000209060040201600001805461132b90611ba1565b80601f016020809104026020016040519081016040528092919081815260200182805461135790611ba1565b80156113a45780601f10611379576101008083540402835291602001916113a4565b820191906000526020600020905b81548152906001019060200180831161138757829003601f168201915b50505050509050919050565b600080600090505b60008054905081101561147957826040516020016113d69190612256565b6040516020818303038152906040528051906020012060008281548110611400576113ff611b43565b5b906000526020600020906004020160010160405160200161142191906122f0565b604051602081830303815290604052805190602001200361146657600081815481106114505761144f611b43565b5b90600052602060002090600402019150506114b5565b808061147190612336565b9150506113b8565b506040517f08c379a00000000000000000000000000000000000000000000000000000000081526004016114ac906123f0565b60405180910390fd5b919050565b6000604051905090565b600080fd5b600080fd5b600080fd5b600080fd5b6000601f19601f8301169050919050565b7f4e487b7100000000000000000000000000000000000000000000000000000000600052604160045260246000fd5b611521826114d8565b810181811067ffffffffffffffff821117156115405761153f6114e9565b5b80604052505050565b60006115536114ba565b905061155f8282611518565b919050565b600067ffffffffffffffff82111561157f5761157e6114e9565b5b611588826114d8565b9050602081019050919050565b82818337600083830152505050565b60006115b76115b284611564565b611549565b9050828152602081018484840111156115d3576115d26114d3565b5b6115de848285611595565b509392505050565b600082601f8301126115fb576115fa6114ce565b5b813561160b8482602086016115a4565b91505092915050565b6000819050919050565b61162781611614565b811461163257600080fd5b50565b6000813590506116448161161e565b92915050565b60008060008060008060c08789031215611667576116666114c4565b5b600087013567ffffffffffffffff811115611685576116846114c9565b5b61169189828a016115e6565b96505060206116a289828a01611635565b95505060406116b389828a01611635565b94505060606116c489828a01611635565b93505060806116d589828a01611635565b92505060a06116e689828a01611635565b9150509295509295509295565b6000819050919050565b611706816116f3565b82525050565b600060208201905061172160008301846116fd565b92915050565b600080600080600060a08688031215611743576117426114c4565b5b600086013567ffffffffffffffff811115611761576117606114c9565b5b61176d888289016115e6565b955050602061177e88828901611635565b945050604061178f88828901611635565b93505060606117a088828901611635565b92505060806117b188828901611635565b9150509295509295909350565b600080600080600080600060e0888a0312156117dd576117dc6114c4565b5b600088013567ffffffffffffffff8111156117fb576117fa6114c9565b5b6118078a828b016115e6565b97505060206118188a828b01611635565b96505060406118298a828b01611635565b955050606061183a8a828b01611635565b945050608061184b8a828b01611635565b93505060a061185c8a828b01611635565b92505060c061186d8a828b01611635565b91505092959891949750929550565b611885816116f3565b811461189057600080fd5b50565b6000813590506118a28161187c565b92915050565b6000602082840312156118be576118bd6114c4565b5b60006118cc84828501611893565b91505092915050565b600081519050919050565b600082825260208201905092915050565b60005b8381101561190f5780820151818401526020810190506118f4565b60008484015250505050565b6000611926826118d5565b61193081856118e0565b93506119408185602086016118f1565b611949816114d8565b840191505092915050565b600073ffffffffffffffffffffffffffffffffffffffff82169050919050565b600061197f82611954565b9050919050565b61198f81611974565b82525050565b600060608201905081810360008301526119af818661191b565b905081810360208301526119c3818561191b565b90506119d26040830184611986565b949350505050565b600060208201905081810360008301526119f4818461191b565b905092915050565b600060208284031215611a1257611a116114c4565b5b600082013567ffffffffffffffff811115611a3057611a2f6114c9565b5b611a3c848285016115e6565b91505092915050565b60008060408385031215611a5c57611a5b6114c4565b5b6000611a6a85828601611893565b925050602083013567ffffffffffffffff811115611a8b57611a8a6114c9565b5b611a97858286016115e6565b9150509250929050565b611aaa81611614565b82525050565b6000602082019050611ac56000830184611aa1565b92915050565b60008060408385031215611ae257611ae16114c4565b5b600083013567ffffffffffffffff811115611b0057611aff6114c9565b5b611b0c858286016115e6565b925050602083013567ffffffffffffffff811115611b2d57611b2c6114c9565b5b611b39858286016115e6565b9150509250929050565b7f4e487b7100000000000000000000000000000000000000000000000000000000600052603260045260246000fd5b7f4e487b7100000000000000000000000000000000000000000000000000000000600052602260045260246000fd5b60006002820490506001821680611bb957607f821691505b602082108103611bcc57611bcb611b72565b5b50919050565b60008190508160005260206000209050919050565b60006020601f8301049050919050565b600082821b905092915050565b600060088302611c347fffffffffffffffffffffffffffffffffffffffffffffffffffffffffffffffff82611bf7565b611c3e8683611bf7565b95508019841693508086168417925050509392505050565b6000819050919050565b6000611c7b611c76611c71846116f3565b611c56565b6116f3565b9050919050565b6000819050919050565b611c9583611c60565b611ca9611ca182611c82565b848454611c04565b825550505050565b600090565b611cbe611cb1565b611cc9818484611c8c565b505050565b5b81811015611ced57611ce2600082611cb6565b600181019050611ccf565b5050565b601f821115611d3257611d0381611bd2565b611d0c84611be7565b81016020851015611d1b578190505b611d2f611d2785611be7565b830182611cce565b50505b505050565b600082821c905092915050565b6000611d5560001984600802611d37565b1980831691505092915050565b6000611d6e8383611d44565b9150826002028217905092915050565b611d87826118d5565b67ffffffffffffffff811115611da057611d9f6114e9565b5b611daa8254611ba1565b611db5828285611cf1565b600060209050601f831160018114611de85760008415611dd6578287015190505b611de08582611d62565b865550611e48565b601f198416611df686611bd2565b60005b82811015611e1e57848901518255600182019150602085019450602081019050611df9565b86831015611e3b5784890151611e37601f891682611d44565b8355505b6001600288020188555050505b505050505050565b600081905092915050565b7f4550303031000000000000000000000000000000000000000000000000000000600082015250565b6000611e91600583611e50565b9150611e9c82611e5b565b600582019050919050565b6000611eb282611e84565b9150819050919050565b7f4550303032000000000000000000000000000000000000000000000000000000600082015250565b6000611ef2600583611e50565b9150611efd82611ebc565b600582019050919050565b6000611f1382611ee5565b9150819050919050565b7f4550303033000000000000000000000000000000000000000000000000000000600082015250565b6000611f53600583611e50565b9150611f5e82611f1d565b600582019050919050565b6000611f7482611f46565b9150819050919050565b7f4550303034000000000000000000000000000000000000000000000000000000600082015250565b6000611fb4600583611e50565b9150611fbf82611f7e565b600582019050919050565b6000611fd582611fa7565b9150819050919050565b7f7472616e735f74696d6500000000000000000000000000000000000000000000600082015250565b6000612015600a83611e50565b915061202082611fdf565b600a82019050919050565b600061203682612008565b9150819050919050565b7f4550303036000000000000000000000000000000000000000000000000000000600082015250565b6000612076600583611e50565b915061208182612040565b600582019050919050565b600061209782612069565b9150819050919050565b7f4550303035000000000000000000000000000000000000000000000000000000600082015250565b60006120d7600583611e50565b91506120e2826120a1565b600582019050919050565b60006120f8826120ca565b9150819050919050565b7f4550303037000000000000000000000000000000000000000000000000000000600082015250565b6000612138600583611e50565b915061214382612102565b600582019050919050565b60006121598261212b565b9150819050919050565b7f4254430000000000000000000000000000000000000000000000000000000000600082015250565b6000612199600383611e50565b91506121a482612163565b600382019050919050565b60006121ba8261218c565b9150819050919050565b7f5553445400000000000000000000000000000000000000000000000000000000600082015250565b60006121fa600483611e50565b9150612205826121c4565b600482019050919050565b600061221b826121ed565b9150819050919050565b6000612230826118d5565b61223a8185611e50565b935061224a8185602086016118f1565b80840191505092915050565b60006122628284612225565b915081905092915050565b6000815461227a81611ba1565b6122848186611e50565b9450600182166000811461229f57600181146122b4576122e7565b60ff19831686528115158202860193506122e7565b6122bd85611bd2565b60005b838110156122df578154818901526001820191506020810190506122c0565b838801955050505b50505092915050565b60006122fc828461226d565b915081905092915050565b7f4e487b7100000000000000000000000000000000000000000000000000000000600052601160045260246000fd5b6000612341826116f3565b91507fffffffffffffffffffffffffffffffffffffffffffffffffffffffffffffffff820361237357612372612307565b5b600182019050919050565b7f5472616e73616374696f6e207769746820676976656e206576656e744964206e60008201527f6f7420666f756e64000000000000000000000000000000000000000000000000602082015250565b60006123da6028836118e0565b91506123e58261237e565b604082019050919050565b60006020820190508181036000830152612409816123cd565b905091905056fea2646970667358221220f61233c5191a68155839b4d8d953753d90240fe5600d96a1c0f3b0a6c3925c5c64736f6c63430008120033",
					"opcodes": "PUSH1 0x80 PUSH1 0x40 MSTORE CALLVALUE DUP1 ISZERO PUSH2 0x10 JUMPI PUSH1 0x0 DUP1 REVERT JUMPDEST POP PUSH2 0x2446 DUP1 PUSH2 0x20 PUSH1 0x0 CODECOPY PUSH1 0x0 RETURN INVALID PUSH1 0x80 PUSH1 0x40 MSTORE CALLVALUE DUP1 ISZERO PUSH2 0x10 JUMPI PUSH1 0x0 DUP1 REVERT JUMPDEST POP PUSH1 0x4 CALLDATASIZE LT PUSH2 0xEA JUMPI PUSH1 0x0 CALLDATALOAD PUSH1 0xE0 SHR DUP1 PUSH4 0x9ACE38C2 GT PUSH2 0x8C JUMPI DUP1 PUSH4 0xB89DA5AB GT PUSH2 0x66 JUMPI DUP1 PUSH4 0xB89DA5AB EQ PUSH2 0x249 JUMPI DUP1 PUSH4 0xC902284B EQ PUSH2 0x279 JUMPI DUP1 PUSH4 0xD6FA22B9 EQ PUSH2 0x295 JUMPI DUP1 PUSH4 0xE09576F0 EQ PUSH2 0x2C5 JUMPI PUSH2 0xEA JUMP JUMPDEST DUP1 PUSH4 0x9ACE38C2 EQ PUSH2 0x1B5 JUMPI DUP1 PUSH4 0x9B4E3420 EQ PUSH2 0x1E7 JUMPI DUP1 PUSH4 0xAC2CCD07 EQ PUSH2 0x217 JUMPI PUSH2 0xEA JUMP JUMPDEST DUP1 PUSH4 0x5E97C344 GT PUSH2 0xC8 JUMPI DUP1 PUSH4 0x5E97C344 EQ PUSH2 0x145 JUMPI DUP1 PUSH4 0x67105EFD EQ PUSH2 0x161 JUMPI DUP1 PUSH4 0x8D187245 EQ PUSH2 0x17D JUMPI DUP1 PUSH4 0x9110293C EQ PUSH2 0x199 JUMPI PUSH2 0xEA JUMP JUMPDEST DUP1 PUSH4 0x16A6054E EQ PUSH2 0xEF JUMPI DUP1 PUSH4 0x578CB8F9 EQ PUSH2 0x10B JUMPI DUP1 PUSH4 0x57AC5E3C EQ PUSH2 0x129 JUMPI JUMPDEST PUSH1 0x0 DUP1 REVERT JUMPDEST PUSH2 0x109 PUSH1 0x4 DUP1 CALLDATASIZE SUB DUP2 ADD SWAP1 PUSH2 0x104 SWAP2 SWAP1 PUSH2 0x164A JUMP JUMPDEST PUSH2 0x2F5 JUMP JUMPDEST STOP JUMPDEST PUSH2 0x113 PUSH2 0x4B9 JUMP JUMPDEST PUSH1 0x40 MLOAD PUSH2 0x120 SWAP2 SWAP1 PUSH2 0x170C JUMP JUMPDEST PUSH1 0x40 MLOAD DUP1 SWAP2 SUB SWAP1 RETURN JUMPDEST PUSH2 0x143 PUSH1 0x4 DUP1 CALLDATASIZE SUB DUP2 ADD SWAP1 PUSH2 0x13E SWAP2 SWAP1 PUSH2 0x1727 JUMP JUMPDEST PUSH2 0x4C5 JUMP JUMPDEST STOP JUMPDEST PUSH2 0x15F PUSH1 0x4 DUP1 CALLDATASIZE SUB DUP2 ADD SWAP1 PUSH2 0x15A SWAP2 SWAP1 PUSH2 0x17BE JUMP JUMPDEST PUSH2 0x665 JUMP JUMPDEST STOP JUMPDEST PUSH2 0x17B PUSH1 0x4 DUP1 CALLDATASIZE SUB DUP2 ADD SWAP1 PUSH2 0x176 SWAP2 SWAP1 PUSH2 0x164A JUMP JUMPDEST PUSH2 0x84D JUMP JUMPDEST STOP JUMPDEST PUSH2 0x197 PUSH1 0x4 DUP1 CALLDATASIZE SUB DUP2 ADD SWAP1 PUSH2 0x192 SWAP2 SWAP1 PUSH2 0x1727 JUMP JUMPDEST PUSH2 0xA11 JUMP JUMPDEST STOP JUMPDEST PUSH2 0x1B3 PUSH1 0x4 DUP1 CALLDATASIZE SUB DUP2 ADD SWAP1 PUSH2 0x1AE SWAP2 SWAP1 PUSH2 0x1727 JUMP JUMPDEST PUSH2 0xBB1 JUMP JUMPDEST STOP JUMPDEST PUSH2 0x1CF PUSH1 0x4 DUP1 CALLDATASIZE SUB DUP2 ADD SWAP1 PUSH2 0x1CA SWAP2 SWAP1 PUSH2 0x18A8 JUMP JUMPDEST PUSH2 0xD51 JUMP JUMPDEST PUSH1 0x40 MLOAD PUSH2 0x1DE SWAP4 SWAP3 SWAP2 SWAP1 PUSH2 0x1995 JUMP JUMPDEST PUSH1 0x40 MLOAD DUP1 SWAP2 SUB SWAP1 RETURN JUMPDEST PUSH2 0x201 PUSH1 0x4 DUP1 CALLDATASIZE SUB DUP2 ADD SWAP1 PUSH2 0x1FC SWAP2 SWAP1 PUSH2 0x18A8 JUMP JUMPDEST PUSH2 0xEBB JUMP JUMPDEST PUSH1 0x40 MLOAD PUSH2 0x20E SWAP2 SWAP1 PUSH2 0x19DA JUMP JUMPDEST PUSH1 0x40 MLOAD DUP1 SWAP2 SUB SWAP1 RETURN JUMPDEST PUSH2 0x231 PUSH1 0x4 DUP1 CALLDATASIZE SUB DUP2 ADD SWAP1 PUSH2 0x22C SWAP2 SWAP1 PUSH2 0x19FC JUMP JUMPDEST PUSH2 0xF72 JUMP JUMPDEST PUSH1 0x40 MLOAD PUSH2 0x240 SWAP4 SWAP3 SWAP2 SWAP1 PUSH2 0x1995 JUMP JUMPDEST PUSH1 0x40 MLOAD DUP1 SWAP2 SUB SWAP1 RETURN JUMPDEST PUSH2 0x263 PUSH1 0x4 DUP1 CALLDATASIZE SUB DUP2 ADD SWAP1 PUSH2 0x25E SWAP2 SWAP1 PUSH2 0x1A45 JUMP JUMPDEST PUSH2 0x10D6 JUMP JUMPDEST PUSH1 0x40 MLOAD PUSH2 0x270 SWAP2 SWAP1 PUSH2 0x1AB0 JUMP JUMPDEST PUSH1 0x40 MLOAD DUP1 SWAP2 SUB SWAP1 RETURN JUMPDEST PUSH2 0x293 PUSH1 0x4 DUP1 CALLDATASIZE SUB DUP2 ADD SWAP1 PUSH2 0x28E SWAP2 SWAP1 PUSH2 0x1727 JUMP JUMPDEST PUSH2 0x1121 JUMP JUMPDEST STOP JUMPDEST PUSH2 0x2AF PUSH1 0x4 DUP1 CALLDATASIZE SUB DUP2 ADD SWAP1 PUSH2 0x2AA SWAP2 SWAP1 PUSH2 0x1ACB JUMP JUMPDEST PUSH2 0x12C1 JUMP JUMPDEST PUSH1 0x40 MLOAD PUSH2 0x2BC SWAP2 SWAP1 PUSH2 0x1AB0 JUMP JUMPDEST PUSH1 0x40 MLOAD DUP1 SWAP2 SUB SWAP1 RETURN JUMPDEST PUSH2 0x2DF PUSH1 0x4 DUP1 CALLDATASIZE SUB DUP2 ADD SWAP1 PUSH2 0x2DA SWAP2 SWAP1 PUSH2 0x18A8 JUMP JUMPDEST PUSH2 0x12F9 JUMP JUMPDEST PUSH1 0x40 MLOAD PUSH2 0x2EC SWAP2 SWAP1 PUSH2 0x19DA JUMP JUMPDEST PUSH1 0x40 MLOAD DUP1 SWAP2 SUB SWAP1 RETURN JUMPDEST PUSH1 0x0 DUP1 DUP1 SLOAD SWAP1 POP SWAP1 POP PUSH1 0x0 PUSH1 0x1 DUP2 PUSH1 0x1 DUP2 SLOAD ADD DUP1 DUP3 SSTORE DUP1 SWAP2 POP POP SUB SWAP1 PUSH1 0x0 MSTORE PUSH1 0x20 PUSH1 0x0 KECCAK256 SWAP1 POP POP PUSH1 0x0 DUP1 DUP3 DUP2 SLOAD DUP2 LT PUSH2 0x331 JUMPI PUSH2 0x330 PUSH2 0x1B43 JUMP JUMPDEST JUMPDEST SWAP1 PUSH1 0x0 MSTORE PUSH1 0x20 PUSH1 0x0 KECCAK256 SWAP1 PUSH1 0x4 MUL ADD SWAP1 POP PUSH1 0x40 MLOAD DUP1 PUSH1 0x40 ADD PUSH1 0x40 MSTORE DUP1 PUSH1 0x9 DUP2 MSTORE PUSH1 0x20 ADD PUSH32 0x4530303031303030350000000000000000000000000000000000000000000000 DUP2 MSTORE POP DUP2 PUSH1 0x0 ADD SWAP1 DUP2 PUSH2 0x387 SWAP2 SWAP1 PUSH2 0x1D7E JUMP JUMPDEST POP DUP8 DUP2 PUSH1 0x1 ADD SWAP1 DUP2 PUSH2 0x399 SWAP2 SWAP1 PUSH2 0x1D7E JUMP JUMPDEST POP CALLER DUP2 PUSH1 0x2 ADD PUSH1 0x0 PUSH2 0x100 EXP DUP2 SLOAD DUP2 PUSH20 0xFFFFFFFFFFFFFFFFFFFFFFFFFFFFFFFFFFFFFFFF MUL NOT AND SWAP1 DUP4 PUSH20 0xFFFFFFFFFFFFFFFFFFFFFFFFFFFFFFFFFFFFFFFF AND MUL OR SWAP1 SSTORE POP DUP7 DUP2 PUSH1 0x3 ADD PUSH1 0x40 MLOAD PUSH2 0x3EE SWAP1 PUSH2 0x1EA7 JUMP JUMPDEST SWAP1 DUP2 MSTORE PUSH1 0x20 ADD PUSH1 0x40 MLOAD DUP1 SWAP2 SUB SWAP1 KECCAK256 DUP2 SWAP1 SSTORE POP DUP6 DUP2 PUSH1 0x3 ADD PUSH1 0x40 MLOAD PUSH2 0x411 SWAP1 PUSH2 0x1F08 JUMP JUMPDEST SWAP1 DUP2 MSTORE PUSH1 0x20 ADD PUSH1 0x40 MLOAD DUP1 SWAP2 SUB SWAP1 KECCAK256 DUP2 SWAP1 SSTORE POP DUP5 DUP2 PUSH1 0x3 ADD PUSH1 0x40 MLOAD PUSH2 0x434 SWAP1 PUSH2 0x1F69 JUMP JUMPDEST SWAP1 DUP2 MSTORE PUSH1 0x20 ADD PUSH1 0x40 MLOAD DUP1 SWAP2 SUB SWAP1 KECCAK256 DUP2 SWAP1 SSTORE POP DUP4 DUP2 PUSH1 0x3 ADD PUSH1 0x40 MLOAD PUSH2 0x457 SWAP1 PUSH2 0x1FCA JUMP JUMPDEST SWAP1 DUP2 MSTORE PUSH1 0x20 ADD PUSH1 0x40 MLOAD DUP1 SWAP2 SUB SWAP1 KECCAK256 DUP2 SWAP1 SSTORE POP TIMESTAMP DUP2 PUSH1 0x3 ADD PUSH1 0x40 MLOAD PUSH2 0x47A SWAP1 PUSH2 0x202B JUMP JUMPDEST SWAP1 DUP2 MSTORE PUSH1 0x20 ADD PUSH1 0x40 MLOAD DUP1 SWAP2 SUB SWAP1 KECCAK256 DUP2 SWAP1 SSTORE POP DUP3 DUP2 PUSH1 0x3 ADD PUSH1 0x40 MLOAD PUSH2 0x49D SWAP1 PUSH2 0x208C JUMP JUMPDEST SWAP1 DUP2 MSTORE PUSH1 0x20 ADD PUSH1 0x40 MLOAD DUP1 SWAP2 SUB SWAP1 KECCAK256 DUP2 SWAP1 SSTORE POP POP POP POP POP POP POP POP POP JUMP JUMPDEST PUSH1 0x0 DUP1 DUP1 SLOAD SWAP1 POP SWAP1 POP SWAP1 JUMP JUMPDEST PUSH1 0x0 DUP1 DUP1 SLOAD SWAP1 POP SWAP1 POP PUSH1 0x0 PUSH1 0x1 DUP2 PUSH1 0x1 DUP2 SLOAD ADD DUP1 DUP3 SSTORE DUP1 SWAP2 POP POP SUB SWAP1 PUSH1 0x0 MSTORE PUSH1 0x20 PUSH1 0x0 KECCAK256 SWAP1 POP POP PUSH1 0x0 DUP1 DUP3 DUP2 SLOAD DUP2 LT PUSH2 0x501 JUMPI PUSH2 0x500 PUSH2 0x1B43 JUMP JUMPDEST JUMPDEST SWAP1 PUSH1 0x0 MSTORE PUSH1 0x20 PUSH1 0x0 KECCAK256 SWAP1 PUSH1 0x4 MUL ADD SWAP1 POP PUSH1 0x40 MLOAD DUP1 PUSH1 0x40 ADD PUSH1 0x40 MSTORE DUP1 PUSH1 0x9 DUP2 MSTORE PUSH1 0x20 ADD PUSH32 0x4530303031303030320000000000000000000000000000000000000000000000 DUP2 MSTORE POP DUP2 PUSH1 0x0 ADD SWAP1 DUP2 PUSH2 0x557 SWAP2 SWAP1 PUSH2 0x1D7E JUMP JUMPDEST POP DUP7 DUP2 PUSH1 0x1 ADD SWAP1 DUP2 PUSH2 0x569 SWAP2 SWAP1 PUSH2 0x1D7E JUMP JUMPDEST POP CALLER DUP2 PUSH1 0x2 ADD PUSH1 0x0 PUSH2 0x100 EXP DUP2 SLOAD DUP2 PUSH20 0xFFFFFFFFFFFFFFFFFFFFFFFFFFFFFFFFFFFFFFFF MUL NOT AND SWAP1 DUP4 PUSH20 0xFFFFFFFFFFFFFFFFFFFFFFFFFFFFFFFFFFFFFFFF AND MUL OR SWAP1 SSTORE POP DUP6 DUP2 PUSH1 0x3 ADD PUSH1 0x40 MLOAD PUSH2 0x5BE SWAP1 PUSH2 0x1EA7 JUMP JUMPDEST SWAP1 DUP2 MSTORE PUSH1 0x20 ADD PUSH1 0x40 MLOAD DUP1 SWAP2 SUB SWAP1 KECCAK256 DUP2 SWAP1 SSTORE POP DUP5 DUP2 PUSH1 0x3 ADD PUSH1 0x40 MLOAD PUSH2 0x5E1 SWAP1 PUSH2 0x1F08 JUMP JUMPDEST SWAP1 DUP2 MSTORE PUSH1 0x20 ADD PUSH1 0x40 MLOAD DUP1 SWAP2 SUB SWAP1 KECCAK256 DUP2 SWAP1 SSTORE POP DUP4 DUP2 PUSH1 0x3 ADD PUSH1 0x40 MLOAD PUSH2 0x604 SWAP1 PUSH2 0x1F69 JUMP JUMPDEST SWAP1 DUP2 MSTORE PUSH1 0x20 ADD PUSH1 0x40 MLOAD DUP1 SWAP2 SUB SWAP1 KECCAK256 DUP2 SWAP1 SSTORE POP TIMESTAMP DUP2 PUSH1 0x3 ADD PUSH1 0x40 MLOAD PUSH2 0x627 SWAP1 PUSH2 0x202B JUMP JUMPDEST SWAP1 DUP2 MSTORE PUSH1 0x20 ADD PUSH1 0x40 MLOAD DUP1 SWAP2 SUB SWAP1 KECCAK256 DUP2 SWAP1 SSTORE POP DUP3 DUP2 PUSH1 0x3 ADD PUSH1 0x40 MLOAD PUSH2 0x64A SWAP1 PUSH2 0x20ED JUMP JUMPDEST SWAP1 DUP2 MSTORE PUSH1 0x20 ADD PUSH1 0x40 MLOAD DUP1 SWAP2 SUB SWAP1 KECCAK256 DUP2 SWAP1 SSTORE POP POP POP POP POP POP POP POP JUMP JUMPDEST PUSH1 0x0 DUP1 DUP1 SLOAD SWAP1 POP SWAP1 POP PUSH1 0x0 PUSH1 0x1 DUP2 PUSH1 0x1 DUP2 SLOAD ADD DUP1 DUP3 SSTORE DUP1 SWAP2 POP POP SUB SWAP1 PUSH1 0x0 MSTORE PUSH1 0x20 PUSH1 0x0 KECCAK256 SWAP1 POP POP PUSH1 0x0 DUP1 DUP3 DUP2 SLOAD DUP2 LT PUSH2 0x6A1 JUMPI PUSH2 0x6A0 PUSH2 0x1B43 JUMP JUMPDEST JUMPDEST SWAP1 PUSH1 0x0 MSTORE PUSH1 0x20 PUSH1 0x0 KECCAK256 SWAP1 PUSH1 0x4 MUL ADD SWAP1 POP PUSH1 0x40 MLOAD DUP1 PUSH1 0x40 ADD PUSH1 0x40 MSTORE DUP1 PUSH1 0x9 DUP2 MSTORE PUSH1 0x20 ADD PUSH32 0x4530303031303030340000000000000000000000000000000000000000000000 DUP2 MSTORE POP DUP2 PUSH1 0x0 ADD SWAP1 DUP2 PUSH2 0x6F7 SWAP2 SWAP1 PUSH2 0x1D7E JUMP JUMPDEST POP DUP9 DUP2 PUSH1 0x1 ADD SWAP1 DUP2 PUSH2 0x709 SWAP2 SWAP1 PUSH2 0x1D7E JUMP JUMPDEST POP CALLER DUP2 PUSH1 0x2 ADD PUSH1 0x0 PUSH2 0x100 EXP DUP2 SLOAD DUP2 PUSH20 0xFFFFFFFFFFFFFFFFFFFFFFFFFFFFFFFFFFFFFFFF MUL NOT AND SWAP1 DUP4 PUSH20 0xFFFFFFFFFFFFFFFFFFFFFFFFFFFFFFFFFFFFFFFF AND MUL OR SWAP1 SSTORE POP DUP8 DUP2 PUSH1 0x3 ADD PUSH1 0x40 MLOAD PUSH2 0x75E SWAP1 PUSH2 0x1EA7 JUMP JUMPDEST SWAP1 DUP2 MSTORE PUSH1 0x20 ADD PUSH1 0x40 MLOAD DUP1 SWAP2 SUB SWAP1 KECCAK256 DUP2 SWAP1 SSTORE POP DUP7 DUP2 PUSH1 0x3 ADD PUSH1 0x40 MLOAD PUSH2 0x781 SWAP1 PUSH2 0x1F08 JUMP JUMPDEST SWAP1 DUP2 MSTORE PUSH1 0x20 ADD PUSH1 0x40 MLOAD DUP1 SWAP2 SUB SWAP1 KECCAK256 DUP2 SWAP1 SSTORE POP DUP6 DUP2 PUSH1 0x3 ADD PUSH1 0x40 MLOAD PUSH2 0x7A4 SWAP1 PUSH2 0x1F69 JUMP JUMPDEST SWAP1 DUP2 MSTORE PUSH1 0x20 ADD PUSH1 0x40 MLOAD DUP1 SWAP2 SUB SWAP1 KECCAK256 DUP2 SWAP1 SSTORE POP DUP5 DUP2 PUSH1 0x3 ADD PUSH1 0x40 MLOAD PUSH2 0x7C7 SWAP1 PUSH2 0x1FCA JUMP JUMPDEST SWAP1 DUP2 MSTORE PUSH1 0x20 ADD PUSH1 0x40 MLOAD DUP1 SWAP2 SUB SWAP1 KECCAK256 DUP2 SWAP1 SSTORE POP TIMESTAMP DUP2 PUSH1 0x3 ADD PUSH1 0x40 MLOAD PUSH2 0x7EA SWAP1 PUSH2 0x202B JUMP JUMPDEST SWAP1 DUP2 MSTORE PUSH1 0x20 ADD PUSH1 0x40 MLOAD DUP1 SWAP2 SUB SWAP1 KECCAK256 DUP2 SWAP1 SSTORE POP DUP4 DUP2 PUSH1 0x3 ADD PUSH1 0x40 MLOAD PUSH2 0x80D SWAP1 PUSH2 0x208C JUMP JUMPDEST SWAP1 DUP2 MSTORE PUSH1 0x20 ADD PUSH1 0x40 MLOAD DUP1 SWAP2 SUB SWAP1 KECCAK256 DUP2 SWAP1 SSTORE POP DUP3 DUP2 PUSH1 0x3 ADD PUSH1 0x40 MLOAD PUSH2 0x830 SWAP1 PUSH2 0x214E JUMP JUMPDEST SWAP1 DUP2 MSTORE PUSH1 0x20 ADD PUSH1 0x40 MLOAD DUP1 SWAP2 SUB SWAP1 KECCAK256 DUP2 SWAP1 SSTORE POP POP POP POP POP POP POP POP POP POP JUMP JUMPDEST PUSH1 0x0 DUP1 DUP1 SLOAD SWAP1 POP SWAP1 POP PUSH1 0x0 PUSH1 0x1 DUP2 PUSH1 0x1 DUP2 SLOAD ADD DUP1 DUP3 SSTORE DUP1 SWAP2 POP POP SUB SWAP1 PUSH1 0x0 MSTORE PUSH1 0x20 PUSH1 0x0 KECCAK256 SWAP1 POP POP PUSH1 0x0 DUP1 DUP3 DUP2 SLOAD DUP2 LT PUSH2 0x889 JUMPI PUSH2 0x888 PUSH2 0x1B43 JUMP JUMPDEST JUMPDEST SWAP1 PUSH1 0x0 MSTORE PUSH1 0x20 PUSH1 0x0 KECCAK256 SWAP1 PUSH1 0x4 MUL ADD SWAP1 POP PUSH1 0x40 MLOAD DUP1 PUSH1 0x40 ADD PUSH1 0x40 MSTORE DUP1 PUSH1 0x9 DUP2 MSTORE PUSH1 0x20 ADD PUSH32 0x4530303031303030350000000000000000000000000000000000000000000000 DUP2 MSTORE POP DUP2 PUSH1 0x0 ADD SWAP1 DUP2 PUSH2 0x8DF SWAP2 SWAP1 PUSH2 0x1D7E JUMP JUMPDEST POP DUP8 DUP2 PUSH1 0x1 ADD SWAP1 DUP2 PUSH2 0x8F1 SWAP2 SWAP1 PUSH2 0x1D7E JUMP JUMPDEST POP CALLER DUP2 PUSH1 0x2 ADD PUSH1 0x0 PUSH2 0x100 EXP DUP2 SLOAD DUP2 PUSH20 0xFFFFFFFFFFFFFFFFFFFFFFFFFFFFFFFFFFFFFFFF MUL NOT AND SWAP1 DUP4 PUSH20 0xFFFFFFFFFFFFFFFFFFFFFFFFFFFFFFFFFFFFFFFF AND MUL OR SWAP1 SSTORE POP DUP7 DUP2 PUSH1 0x3 ADD PUSH1 0x40 MLOAD PUSH2 0x946 SWAP1 PUSH2 0x1EA7 JUMP JUMPDEST SWAP1 DUP2 MSTORE PUSH1 0x20 ADD PUSH1 0x40 MLOAD DUP1 SWAP2 SUB SWAP1 KECCAK256 DUP2 SWAP1 SSTORE POP DUP6 DUP2 PUSH1 0x3 ADD PUSH1 0x40 MLOAD PUSH2 0x969 SWAP1 PUSH2 0x1F08 JUMP JUMPDEST SWAP1 DUP2 MSTORE PUSH1 0x20 ADD PUSH1 0x40 MLOAD DUP1 SWAP2 SUB SWAP1 KECCAK256 DUP2 SWAP1 SSTORE POP DUP5 DUP2 PUSH1 0x3 ADD PUSH1 0x40 MLOAD PUSH2 0x98C SWAP1 PUSH2 0x1F69 JUMP JUMPDEST SWAP1 DUP2 MSTORE PUSH1 0x20 ADD PUSH1 0x40 MLOAD DUP1 SWAP2 SUB SWAP1 KECCAK256 DUP2 SWAP1 SSTORE POP DUP4 DUP2 PUSH1 0x3 ADD PUSH1 0x40 MLOAD PUSH2 0x9AF SWAP1 PUSH2 0x1FCA JUMP JUMPDEST SWAP1 DUP2 MSTORE PUSH1 0x20 ADD PUSH1 0x40 MLOAD DUP1 SWAP2 SUB SWAP1 KECCAK256 DUP2 SWAP1 SSTORE POP TIMESTAMP DUP2 PUSH1 0x3 ADD PUSH1 0x40 MLOAD PUSH2 0x9D2 SWAP1 PUSH2 0x202B JUMP JUMPDEST SWAP1 DUP2 MSTORE PUSH1 0x20 ADD PUSH1 0x40 MLOAD DUP1 SWAP2 SUB SWAP1 KECCAK256 DUP2 SWAP1 SSTORE POP DUP3 DUP2 PUSH1 0x3 ADD PUSH1 0x40 MLOAD PUSH2 0x9F5 SWAP1 PUSH2 0x208C JUMP JUMPDEST SWAP1 DUP2 MSTORE PUSH1 0x20 ADD PUSH1 0x40 MLOAD DUP1 SWAP2 SUB SWAP1 KECCAK256 DUP2 SWAP1 SSTORE POP POP POP POP POP POP POP POP POP JUMP JUMPDEST PUSH1 0x0 DUP1 DUP1 SLOAD SWAP1 POP SWAP1 POP PUSH1 0x0 PUSH1 0x1 DUP2 PUSH1 0x1 DUP2 SLOAD ADD DUP1 DUP3 SSTORE DUP1 SWAP2 POP POP SUB SWAP1 PUSH1 0x0 MSTORE PUSH1 0x20 PUSH1 0x0 KECCAK256 SWAP1 POP POP PUSH1 0x0 DUP1 DUP3 DUP2 SLOAD DUP2 LT PUSH2 0xA4D JUMPI PUSH2 0xA4C PUSH2 0x1B43 JUMP JUMPDEST JUMPDEST SWAP1 PUSH1 0x0 MSTORE PUSH1 0x20 PUSH1 0x0 KECCAK256 SWAP1 PUSH1 0x4 MUL ADD SWAP1 POP PUSH1 0x40 MLOAD DUP1 PUSH1 0x40 ADD PUSH1 0x40 MSTORE DUP1 PUSH1 0x9 DUP2 MSTORE PUSH1 0x20 ADD PUSH32 0x4530303031303030330000000000000000000000000000000000000000000000 DUP2 MSTORE POP DUP2 PUSH1 0x0 ADD SWAP1 DUP2 PUSH2 0xAA3 SWAP2 SWAP1 PUSH2 0x1D7E JUMP JUMPDEST POP DUP7 DUP2 PUSH1 0x1 ADD SWAP1 DUP2 PUSH2 0xAB5 SWAP2 SWAP1 PUSH2 0x1D7E JUMP JUMPDEST POP CALLER DUP2 PUSH1 0x2 ADD PUSH1 0x0 PUSH2 0x100 EXP DUP2 SLOAD DUP2 PUSH20 0xFFFFFFFFFFFFFFFFFFFFFFFFFFFFFFFFFFFFFFFF MUL NOT AND SWAP1 DUP4 PUSH20 0xFFFFFFFFFFFFFFFFFFFFFFFFFFFFFFFFFFFFFFFF AND MUL OR SWAP1 SSTORE POP DUP6 DUP2 PUSH1 0x3 ADD PUSH1 0x40 MLOAD PUSH2 0xB0A SWAP1 PUSH2 0x1EA7 JUMP JUMPDEST SWAP1 DUP2 MSTORE PUSH1 0x20 ADD PUSH1 0x40 MLOAD DUP1 SWAP2 SUB SWAP1 KECCAK256 DUP2 SWAP1 SSTORE POP DUP5 DUP2 PUSH1 0x3 ADD PUSH1 0x40 MLOAD PUSH2 0xB2D SWAP1 PUSH2 0x1F08 JUMP JUMPDEST SWAP1 DUP2 MSTORE PUSH1 0x20 ADD PUSH1 0x40 MLOAD DUP1 SWAP2 SUB SWAP1 KECCAK256 DUP2 SWAP1 SSTORE POP DUP4 DUP2 PUSH1 0x3 ADD PUSH1 0x40 MLOAD PUSH2 0xB50 SWAP1 PUSH2 0x1F69 JUMP JUMPDEST SWAP1 DUP2 MSTORE PUSH1 0x20 ADD PUSH1 0x40 MLOAD DUP1 SWAP2 SUB SWAP1 KECCAK256 DUP2 SWAP1 SSTORE POP TIMESTAMP DUP2 PUSH1 0x3 ADD PUSH1 0x40 MLOAD PUSH2 0xB73 SWAP1 PUSH2 0x202B JUMP JUMPDEST SWAP1 DUP2 MSTORE PUSH1 0x20 ADD PUSH1 0x40 MLOAD DUP1 SWAP2 SUB SWAP1 KECCAK256 DUP2 SWAP1 SSTORE POP DUP3 DUP2 PUSH1 0x3 ADD PUSH1 0x40 MLOAD PUSH2 0xB96 SWAP1 PUSH2 0x20ED JUMP JUMPDEST SWAP1 DUP2 MSTORE PUSH1 0x20 ADD PUSH1 0x40 MLOAD DUP1 SWAP2 SUB SWAP1 KECCAK256 DUP2 SWAP1 SSTORE POP POP POP POP POP POP POP POP JUMP JUMPDEST PUSH1 0x0 DUP1 DUP1 SLOAD SWAP1 POP SWAP1 POP PUSH1 0x0 PUSH1 0x1 DUP2 PUSH1 0x1 DUP2 SLOAD ADD DUP1 DUP3 SSTORE DUP1 SWAP2 POP POP SUB SWAP1 PUSH1 0x0 MSTORE PUSH1 0x20 PUSH1 0x0 KECCAK256 SWAP1 POP POP PUSH1 0x0 DUP1 DUP3 DUP2 SLOAD DUP2 LT PUSH2 0xBED JUMPI PUSH2 0xBEC PUSH2 0x1B43 JUMP JUMPDEST JUMPDEST SWAP1 PUSH1 0x0 MSTORE PUSH1 0x20 PUSH1 0x0 KECCAK256 SWAP1 PUSH1 0x4 MUL ADD SWAP1 POP PUSH1 0x40 MLOAD DUP1 PUSH1 0x40 ADD PUSH1 0x40 MSTORE DUP1 PUSH1 0x9 DUP2 MSTORE PUSH1 0x20 ADD PUSH32 0x4530303032303030310000000000000000000000000000000000000000000000 DUP2 MSTORE POP DUP2 PUSH1 0x0 ADD SWAP1 DUP2 PUSH2 0xC43 SWAP2 SWAP1 PUSH2 0x1D7E JUMP JUMPDEST POP DUP7 DUP2 PUSH1 0x1 ADD SWAP1 DUP2 PUSH2 0xC55 SWAP2 SWAP1 PUSH2 0x1D7E JUMP JUMPDEST POP CALLER DUP2 PUSH1 0x2 ADD PUSH1 0x0 PUSH2 0x100 EXP DUP2 SLOAD DUP2 PUSH20 0xFFFFFFFFFFFFFFFFFFFFFFFFFFFFFFFFFFFFFFFF MUL NOT AND SWAP1 DUP4 PUSH20 0xFFFFFFFFFFFFFFFFFFFFFFFFFFFFFFFFFFFFFFFF AND MUL OR SWAP1 SSTORE POP DUP6 DUP2 PUSH1 0x3 ADD PUSH1 0x40 MLOAD PUSH2 0xCAA SWAP1 PUSH2 0x1EA7 JUMP JUMPDEST SWAP1 DUP2 MSTORE PUSH1 0x20 ADD PUSH1 0x40 MLOAD DUP1 SWAP2 SUB SWAP1 KECCAK256 DUP2 SWAP1 SSTORE POP DUP5 DUP2 PUSH1 0x3 ADD PUSH1 0x40 MLOAD PUSH2 0xCCD SWAP1 PUSH2 0x1F08 JUMP JUMPDEST SWAP1 DUP2 MSTORE PUSH1 0x20 ADD PUSH1 0x40 MLOAD DUP1 SWAP2 SUB SWAP1 KECCAK256 DUP2 SWAP1 SSTORE POP DUP4 DUP2 PUSH1 0x3 ADD PUSH1 0x40 MLOAD PUSH2 0xCF0 SWAP1 PUSH2 0x21AF JUMP JUMPDEST SWAP1 DUP2 MSTORE PUSH1 0x20 ADD PUSH1 0x40 MLOAD DUP1 SWAP2 SUB SWAP1 KECCAK256 DUP2 SWAP1 SSTORE POP DUP3 DUP2 PUSH1 0x3 ADD PUSH1 0x40 MLOAD PUSH2 0xD13 SWAP1 PUSH2 0x2210 JUMP JUMPDEST SWAP1 DUP2 MSTORE PUSH1 0x20 ADD PUSH1 0x40 MLOAD DUP1 SWAP2 SUB SWAP1 KECCAK256 DUP2 SWAP1 SSTORE POP TIMESTAMP DUP2 PUSH1 0x3 ADD PUSH1 0x40 MLOAD PUSH2 0xD36 SWAP1 PUSH2 0x202B JUMP JUMPDEST SWAP1 DUP2 MSTORE PUSH1 0x20 ADD PUSH1 0x40 MLOAD DUP1 SWAP2 SUB SWAP1 KECCAK256 DUP2 SWAP1 SSTORE POP POP POP POP POP POP POP POP JUMP JUMPDEST PUSH1 0x0 DUP2 DUP2 SLOAD DUP2 LT PUSH2 0xD61 JUMPI PUSH1 0x0 DUP1 REVERT JUMPDEST SWAP1 PUSH1 0x0 MSTORE PUSH1 0x20 PUSH1 0x0 KECCAK256 SWAP1 PUSH1 0x4 MUL ADD PUSH1 0x0 SWAP2 POP SWAP1 POP DUP1 PUSH1 0x0 ADD DUP1 SLOAD PUSH2 0xD84 SWAP1 PUSH2 0x1BA1 JUMP JUMPDEST DUP1 PUSH1 0x1F ADD PUSH1 0x20 DUP1 SWAP2 DIV MUL PUSH1 0x20 ADD PUSH1 0x40 MLOAD SWAP1 DUP2 ADD PUSH1 0x40 MSTORE DUP1 SWAP3 SWAP2 SWAP1 DUP2 DUP2 MSTORE PUSH1 0x20 ADD DUP3 DUP1 SLOAD PUSH2 0xDB0 SWAP1 PUSH2 0x1BA1 JUMP JUMPDEST DUP1 ISZERO PUSH2 0xDFD JUMPI DUP1 PUSH1 0x1F LT PUSH2 0xDD2 JUMPI PUSH2 0x100 DUP1 DUP4 SLOAD DIV MUL DUP4 MSTORE SWAP2 PUSH1 0x20 ADD SWAP2 PUSH2 0xDFD JUMP JUMPDEST DUP3 ADD SWAP2 SWAP1 PUSH1 0x0 MSTORE PUSH1 0x20 PUSH1 0x0 KECCAK256 SWAP1 JUMPDEST DUP2 SLOAD DUP2 MSTORE SWAP1 PUSH1 0x1 ADD SWAP1 PUSH1 0x20 ADD DUP1 DUP4 GT PUSH2 0xDE0 JUMPI DUP3 SWAP1 SUB PUSH1 0x1F AND DUP3 ADD SWAP2 JUMPDEST POP POP POP POP POP SWAP1 DUP1 PUSH1 0x1 ADD DUP1 SLOAD PUSH2 0xE12 SWAP1 PUSH2 0x1BA1 JUMP JUMPDEST DUP1 PUSH1 0x1F ADD PUSH1 0x20 DUP1 SWAP2 DIV MUL PUSH1 0x20 ADD PUSH1 0x40 MLOAD SWAP1 DUP2 ADD PUSH1 0x40 MSTORE DUP1 SWAP3 SWAP2 SWAP1 DUP2 DUP2 MSTORE PUSH1 0x20 ADD DUP3 DUP1 SLOAD PUSH2 0xE3E SWAP1 PUSH2 0x1BA1 JUMP JUMPDEST DUP1 ISZERO PUSH2 0xE8B JUMPI DUP1 PUSH1 0x1F LT PUSH2 0xE60 JUMPI PUSH2 0x100 DUP1 DUP4 SLOAD DIV MUL DUP4 MSTORE SWAP2 PUSH1 0x20 ADD SWAP2 PUSH2 0xE8B JUMP JUMPDEST DUP3 ADD SWAP2 SWAP1 PUSH1 0x0 MSTORE PUSH1 0x20 PUSH1 0x0 KECCAK256 SWAP1 JUMPDEST DUP2 SLOAD DUP2 MSTORE SWAP1 PUSH1 0x1 ADD SWAP1 PUSH1 0x20 ADD DUP1 DUP4 GT PUSH2 0xE6E JUMPI DUP3 SWAP1 SUB PUSH1 0x1F AND DUP3 ADD SWAP2 JUMPDEST POP POP POP POP POP SWAP1 DUP1 PUSH1 0x2 ADD PUSH1 0x0 SWAP1 SLOAD SWAP1 PUSH2 0x100 EXP SWAP1 DIV PUSH20 0xFFFFFFFFFFFFFFFFFFFFFFFFFFFFFFFFFFFFFFFF AND SWAP1 POP DUP4 JUMP JUMPDEST PUSH1 0x60 PUSH1 0x0 DUP3 DUP2 SLOAD DUP2 LT PUSH2 0xED1 JUMPI PUSH2 0xED0 PUSH2 0x1B43 JUMP JUMPDEST JUMPDEST SWAP1 PUSH1 0x0 MSTORE PUSH1 0x20 PUSH1 0x0 KECCAK256 SWAP1 PUSH1 0x4 MUL ADD PUSH1 0x1 ADD DUP1 SLOAD PUSH2 0xEED SWAP1 PUSH2 0x1BA1 JUMP JUMPDEST DUP1 PUSH1 0x1F ADD PUSH1 0x20 DUP1 SWAP2 DIV MUL PUSH1 0x20 ADD PUSH1 0x40 MLOAD SWAP1 DUP2 ADD PUSH1 0x40 MSTORE DUP1 SWAP3 SWAP2 SWAP1 DUP2 DUP2 MSTORE PUSH1 0x20 ADD DUP3 DUP1 SLOAD PUSH2 0xF19 SWAP1 PUSH2 0x1BA1 JUMP JUMPDEST DUP1 ISZERO PUSH2 0xF66 JUMPI DUP1 PUSH1 0x1F LT PUSH2 0xF3B JUMPI PUSH2 0x100 DUP1 DUP4 SLOAD DIV MUL DUP4 MSTORE SWAP2 PUSH1 0x20 ADD SWAP2 PUSH2 0xF66 JUMP JUMPDEST DUP3 ADD SWAP2 SWAP1 PUSH1 0x0 MSTORE PUSH1 0x20 PUSH1 0x0 KECCAK256 SWAP1 JUMPDEST DUP2 SLOAD DUP2 MSTORE SWAP1 PUSH1 0x1 ADD SWAP1 PUSH1 0x20 ADD DUP1 DUP4 GT PUSH2 0xF49 JUMPI DUP3 SWAP1 SUB PUSH1 0x1F AND DUP3 ADD SWAP2 JUMPDEST POP POP POP POP POP SWAP1 POP SWAP2 SWAP1 POP JUMP JUMPDEST PUSH1 0x60 DUP1 PUSH1 0x0 DUP1 PUSH2 0xF81 DUP6 PUSH2 0x13B0 JUMP JUMPDEST SWAP1 POP DUP1 PUSH1 0x0 ADD DUP2 PUSH1 0x1 ADD DUP3 PUSH1 0x2 ADD PUSH1 0x0 SWAP1 SLOAD SWAP1 PUSH2 0x100 EXP SWAP1 DIV PUSH20 0xFFFFFFFFFFFFFFFFFFFFFFFFFFFFFFFFFFFFFFFF AND DUP3 DUP1 SLOAD PUSH2 0xFBC SWAP1 PUSH2 0x1BA1 JUMP JUMPDEST DUP1 PUSH1 0x1F ADD PUSH1 0x20 DUP1 SWAP2 DIV MUL PUSH1 0x20 ADD PUSH1 0x40 MLOAD SWAP1 DUP2 ADD PUSH1 0x40 MSTORE DUP1 SWAP3 SWAP2 SWAP1 DUP2 DUP2 MSTORE PUSH1 0x20 ADD DUP3 DUP1 SLOAD PUSH2 0xFE8 SWAP1 PUSH2 0x1BA1 JUMP JUMPDEST DUP1 ISZERO PUSH2 0x1035 JUMPI DUP1 PUSH1 0x1F LT PUSH2 0x100A JUMPI PUSH2 0x100 DUP1 DUP4 SLOAD DIV MUL DUP4 MSTORE SWAP2 PUSH1 0x20 ADD SWAP2 PUSH2 0x1035 JUMP JUMPDEST DUP3 ADD SWAP2 SWAP1 PUSH1 0x0 MSTORE PUSH1 0x20 PUSH1 0x0 KECCAK256 SWAP1 JUMPDEST DUP2 SLOAD DUP2 MSTORE SWAP1 PUSH1 0x1 ADD SWAP1 PUSH1 0x20 ADD DUP1 DUP4 GT PUSH2 0x1018 JUMPI DUP3 SWAP1 SUB PUSH1 0x1F AND DUP3 ADD SWAP2 JUMPDEST POP POP POP POP POP SWAP3 POP DUP2 DUP1 SLOAD PUSH2 0x1048 SWAP1 PUSH2 0x1BA1 JUMP JUMPDEST DUP1 PUSH1 0x1F ADD PUSH1 0x20 DUP1 SWAP2 DIV MUL PUSH1 0x20 ADD PUSH1 0x40 MLOAD SWAP1 DUP2 ADD PUSH1 0x40 MSTORE DUP1 SWAP3 SWAP2 SWAP1 DUP2 DUP2 MSTORE PUSH1 0x20 ADD DUP3 DUP1 SLOAD PUSH2 0x1074 SWAP1 PUSH2 0x1BA1 JUMP JUMPDEST DUP1 ISZERO PUSH2 0x10C1 JUMPI DUP1 PUSH1 0x1F LT PUSH2 0x1096 JUMPI PUSH2 0x100 DUP1 DUP4 SLOAD DIV MUL DUP4 MSTORE SWAP2 PUSH1 0x20 ADD SWAP2 PUSH2 0x10C1 JUMP JUMPDEST DUP3 ADD SWAP2 SWAP1 PUSH1 0x0 MSTORE PUSH1 0x20 PUSH1 0x0 KECCAK256 SWAP1 JUMPDEST DUP2 SLOAD DUP2 MSTORE SWAP1 PUSH1 0x1 ADD SWAP1 PUSH1 0x20 ADD DUP1 DUP4 GT PUSH2 0x10A4 JUMPI DUP3 SWAP1 SUB PUSH1 0x1F AND DUP3 ADD SWAP2 JUMPDEST POP POP POP POP POP SWAP2 POP SWAP4 POP SWAP4 POP SWAP4 POP POP SWAP2 SWAP4 SWAP1 SWAP3 POP JUMP JUMPDEST PUSH1 0x0 DUP1 DUP4 DUP2 SLOAD DUP2 LT PUSH2 0x10EB JUMPI PUSH2 0x10EA PUSH2 0x1B43 JUMP JUMPDEST JUMPDEST SWAP1 PUSH1 0x0 MSTORE PUSH1 0x20 PUSH1 0x0 KECCAK256 SWAP1 PUSH1 0x4 MUL ADD PUSH1 0x3 ADD DUP3 PUSH1 0x40 MLOAD PUSH2 0x110A SWAP2 SWAP1 PUSH2 0x2256 JUMP JUMPDEST SWAP1 DUP2 MSTORE PUSH1 0x20 ADD PUSH1 0x40 MLOAD DUP1 SWAP2 SUB SWAP1 KECCAK256 SLOAD SWAP1 POP SWAP3 SWAP2 POP POP JUMP JUMPDEST PUSH1 0x0 DUP1 DUP1 SLOAD SWAP1 POP SWAP1 POP PUSH1 0x0 PUSH1 0x1 DUP2 PUSH1 0x1 DUP2 SLOAD ADD DUP1 DUP3 SSTORE DUP1 SWAP2 POP POP SUB SWAP1 PUSH1 0x0 MSTORE PUSH1 0x20 PUSH1 0x0 KECCAK256 SWAP1 POP POP PUSH1 0x0 DUP1 DUP3 DUP2 SLOAD DUP2 LT PUSH2 0x115D JUMPI PUSH2 0x115C PUSH2 0x1B43 JUMP JUMPDEST JUMPDEST SWAP1 PUSH1 0x0 MSTORE PUSH1 0x20 PUSH1 0x0 KECCAK256 SWAP1 PUSH1 0x4 MUL ADD SWAP1 POP PUSH1 0x40 MLOAD DUP1 PUSH1 0x40 ADD PUSH1 0x40 MSTORE DUP1 PUSH1 0x9 DUP2 MSTORE PUSH1 0x20 ADD PUSH32 0x4530303031303030310000000000000000000000000000000000000000000000 DUP2 MSTORE POP DUP2 PUSH1 0x0 ADD SWAP1 DUP2 PUSH2 0x11B3 SWAP2 SWAP1 PUSH2 0x1D7E JUMP JUMPDEST POP DUP7 DUP2 PUSH1 0x1 ADD SWAP1 DUP2 PUSH2 0x11C5 SWAP2 SWAP1 PUSH2 0x1D7E JUMP JUMPDEST POP CALLER DUP2 PUSH1 0x2 ADD PUSH1 0x0 PUSH2 0x100 EXP DUP2 SLOAD DUP2 PUSH20 0xFFFFFFFFFFFFFFFFFFFFFFFFFFFFFFFFFFFFFFFF MUL NOT AND SWAP1 DUP4 PUSH20 0xFFFFFFFFFFFFFFFFFFFFFFFFFFFFFFFFFFFFFFFF AND MUL OR SWAP1 SSTORE POP DUP6 DUP2 PUSH1 0x3 ADD PUSH1 0x40 MLOAD PUSH2 0x121A SWAP1 PUSH2 0x1EA7 JUMP JUMPDEST SWAP1 DUP2 MSTORE PUSH1 0x20 ADD PUSH1 0x40 MLOAD DUP1 SWAP2 SUB SWAP1 KECCAK256 DUP2 SWAP1 SSTORE POP DUP5 DUP2 PUSH1 0x3 ADD PUSH1 0x40 MLOAD PUSH2 0x123D SWAP1 PUSH2 0x1F08 JUMP JUMPDEST SWAP1 DUP2 MSTORE PUSH1 0x20 ADD PUSH1 0x40 MLOAD DUP1 SWAP2 SUB SWAP1 KECCAK256 DUP2 SWAP1 SSTORE POP DUP4 DUP2 PUSH1 0x3 ADD PUSH1 0x40 MLOAD PUSH2 0x1260 SWAP1 PUSH2 0x1F69 JUMP JUMPDEST SWAP1 DUP2 MSTORE PUSH1 0x20 ADD PUSH1 0x40 MLOAD DUP1 SWAP2 SUB SWAP1 KECCAK256 DUP2 SWAP1 SSTORE POP TIMESTAMP DUP2 PUSH1 0x3 ADD PUSH1 0x40 MLOAD PUSH2 0x1283 SWAP1 PUSH2 0x202B JUMP JUMPDEST SWAP1 DUP2 MSTORE PUSH1 0x20 ADD PUSH1 0x40 MLOAD DUP1 SWAP2 SUB SWAP1 KECCAK256 DUP2 SWAP1 SSTORE POP DUP3 DUP2 PUSH1 0x3 ADD PUSH1 0x40 MLOAD PUSH2 0x12A6 SWAP1 PUSH2 0x20ED JUMP JUMPDEST SWAP1 DUP2 MSTORE PUSH1 0x20 ADD PUSH1 0x40 MLOAD DUP1 SWAP2 SUB SWAP1 KECCAK256 DUP2 SWAP1 SSTORE POP POP POP POP POP POP POP POP JUMP JUMPDEST PUSH1 0x0 DUP1 PUSH2 0x12CD DUP5 PUSH2 0x13B0 JUMP JUMPDEST SWAP1 POP DUP1 PUSH1 0x3 ADD DUP4 PUSH1 0x40 MLOAD PUSH2 0x12E1 SWAP2 SWAP1 PUSH2 0x2256 JUMP JUMPDEST SWAP1 DUP2 MSTORE PUSH1 0x20 ADD PUSH1 0x40 MLOAD DUP1 SWAP2 SUB SWAP1 KECCAK256 SLOAD SWAP2 POP POP SWAP3 SWAP2 POP POP JUMP JUMPDEST PUSH1 0x60 PUSH1 0x0 DUP3 DUP2 SLOAD DUP2 LT PUSH2 0x130F JUMPI PUSH2 0x130E PUSH2 0x1B43 JUMP JUMPDEST JUMPDEST SWAP1 PUSH1 0x0 MSTORE PUSH1 0x20 PUSH1 0x0 KECCAK256 SWAP1 PUSH1 0x4 MUL ADD PUSH1 0x0 ADD DUP1 SLOAD PUSH2 0x132B SWAP1 PUSH2 0x1BA1 JUMP JUMPDEST DUP1 PUSH1 0x1F ADD PUSH1 0x20 DUP1 SWAP2 DIV MUL PUSH1 0x20 ADD PUSH1 0x40 MLOAD SWAP1 DUP2 ADD PUSH1 0x40 MSTORE DUP1 SWAP3 SWAP2 SWAP1 DUP2 DUP2 MSTORE PUSH1 0x20 ADD DUP3 DUP1 SLOAD PUSH2 0x1357 SWAP1 PUSH2 0x1BA1 JUMP JUMPDEST DUP1 ISZERO PUSH2 0x13A4 JUMPI DUP1 PUSH1 0x1F LT PUSH2 0x1379 JUMPI PUSH2 0x100 DUP1 DUP4 SLOAD DIV MUL DUP4 MSTORE SWAP2 PUSH1 0x20 ADD SWAP2 PUSH2 0x13A4 JUMP JUMPDEST DUP3 ADD SWAP2 SWAP1 PUSH1 0x0 MSTORE PUSH1 0x20 PUSH1 0x0 KECCAK256 SWAP1 JUMPDEST DUP2 SLOAD DUP2 MSTORE SWAP1 PUSH1 0x1 ADD SWAP1 PUSH1 0x20 ADD DUP1 DUP4 GT PUSH2 0x1387 JUMPI DUP3 SWAP1 SUB PUSH1 0x1F AND DUP3 ADD SWAP2 JUMPDEST POP POP POP POP POP SWAP1 POP SWAP2 SWAP1 POP JUMP JUMPDEST PUSH1 0x0 DUP1 PUSH1 0x0 SWAP1 POP JUMPDEST PUSH1 0x0 DUP1 SLOAD SWAP1 POP DUP2 LT ISZERO PUSH2 0x1479 JUMPI DUP3 PUSH1 0x40 MLOAD PUSH1 0x20 ADD PUSH2 0x13D6 SWAP2 SWAP1 PUSH2 0x2256 JUMP JUMPDEST PUSH1 0x40 MLOAD PUSH1 0x20 DUP2 DUP4 SUB SUB DUP2 MSTORE SWAP1 PUSH1 0x40 MSTORE DUP1 MLOAD SWAP1 PUSH1 0x20 ADD KECCAK256 PUSH1 0x0 DUP3 DUP2 SLOAD DUP2 LT PUSH2 0x1400 JUMPI PUSH2 0x13FF PUSH2 0x1B43 JUMP JUMPDEST JUMPDEST SWAP1 PUSH1 0x0 MSTORE PUSH1 0x20 PUSH1 0x0 KECCAK256 SWAP1 PUSH1 0x4 MUL ADD PUSH1 0x1 ADD PUSH1 0x40 MLOAD PUSH1 0x20 ADD PUSH2 0x1421 SWAP2 SWAP1 PUSH2 0x22F0 JUMP JUMPDEST PUSH1 0x40 MLOAD PUSH1 0x20 DUP2 DUP4 SUB SUB DUP2 MSTORE SWAP1 PUSH1 0x40 MSTORE DUP1 MLOAD SWAP1 PUSH1 0x20 ADD KECCAK256 SUB PUSH2 0x1466 JUMPI PUSH1 0x0 DUP2 DUP2 SLOAD DUP2 LT PUSH2 0x1450 JUMPI PUSH2 0x144F PUSH2 0x1B43 JUMP JUMPDEST JUMPDEST SWAP1 PUSH1 0x0 MSTORE PUSH1 0x20 PUSH1 0x0 KECCAK256 SWAP1 PUSH1 0x4 MUL ADD SWAP2 POP POP PUSH2 0x14B5 JUMP JUMPDEST DUP1 DUP1 PUSH2 0x1471 SWAP1 PUSH2 0x2336 JUMP JUMPDEST SWAP2 POP POP PUSH2 0x13B8 JUMP JUMPDEST POP PUSH1 0x40 MLOAD PUSH32 0x8C379A000000000000000000000000000000000000000000000000000000000 DUP2 MSTORE PUSH1 0x4 ADD PUSH2 0x14AC SWAP1 PUSH2 0x23F0 JUMP JUMPDEST PUSH1 0x40 MLOAD DUP1 SWAP2 SUB SWAP1 REVERT JUMPDEST SWAP2 SWAP1 POP JUMP JUMPDEST PUSH1 0x0 PUSH1 0x40 MLOAD SWAP1 POP SWAP1 JUMP JUMPDEST PUSH1 0x0 DUP1 REVERT JUMPDEST PUSH1 0x0 DUP1 REVERT JUMPDEST PUSH1 0x0 DUP1 REVERT JUMPDEST PUSH1 0x0 DUP1 REVERT JUMPDEST PUSH1 0x0 PUSH1 0x1F NOT PUSH1 0x1F DUP4 ADD AND SWAP1 POP SWAP2 SWAP1 POP JUMP JUMPDEST PUSH32 0x4E487B7100000000000000000000000000000000000000000000000000000000 PUSH1 0x0 MSTORE PUSH1 0x41 PUSH1 0x4 MSTORE PUSH1 0x24 PUSH1 0x0 REVERT JUMPDEST PUSH2 0x1521 DUP3 PUSH2 0x14D8 JUMP JUMPDEST DUP2 ADD DUP2 DUP2 LT PUSH8 0xFFFFFFFFFFFFFFFF DUP3 GT OR ISZERO PUSH2 0x1540 JUMPI PUSH2 0x153F PUSH2 0x14E9 JUMP JUMPDEST JUMPDEST DUP1 PUSH1 0x40 MSTORE POP POP POP JUMP JUMPDEST PUSH1 0x0 PUSH2 0x1553 PUSH2 0x14BA JUMP JUMPDEST SWAP1 POP PUSH2 0x155F DUP3 DUP3 PUSH2 0x1518 JUMP JUMPDEST SWAP2 SWAP1 POP JUMP JUMPDEST PUSH1 0x0 PUSH8 0xFFFFFFFFFFFFFFFF DUP3 GT ISZERO PUSH2 0x157F JUMPI PUSH2 0x157E PUSH2 0x14E9 JUMP JUMPDEST JUMPDEST PUSH2 0x1588 DUP3 PUSH2 0x14D8 JUMP JUMPDEST SWAP1 POP PUSH1 0x20 DUP2 ADD SWAP1 POP SWAP2 SWAP1 POP JUMP JUMPDEST DUP3 DUP2 DUP4 CALLDATACOPY PUSH1 0x0 DUP4 DUP4 ADD MSTORE POP POP POP JUMP JUMPDEST PUSH1 0x0 PUSH2 0x15B7 PUSH2 0x15B2 DUP5 PUSH2 0x1564 JUMP JUMPDEST PUSH2 0x1549 JUMP JUMPDEST SWAP1 POP DUP3 DUP2 MSTORE PUSH1 0x20 DUP2 ADD DUP5 DUP5 DUP5 ADD GT ISZERO PUSH2 0x15D3 JUMPI PUSH2 0x15D2 PUSH2 0x14D3 JUMP JUMPDEST JUMPDEST PUSH2 0x15DE DUP5 DUP3 DUP6 PUSH2 0x1595 JUMP JUMPDEST POP SWAP4 SWAP3 POP POP POP JUMP JUMPDEST PUSH1 0x0 DUP3 PUSH1 0x1F DUP4 ADD SLT PUSH2 0x15FB JUMPI PUSH2 0x15FA PUSH2 0x14CE JUMP JUMPDEST JUMPDEST DUP2 CALLDATALOAD PUSH2 0x160B DUP5 DUP3 PUSH1 0x20 DUP7 ADD PUSH2 0x15A4 JUMP JUMPDEST SWAP2 POP POP SWAP3 SWAP2 POP POP JUMP JUMPDEST PUSH1 0x0 DUP2 SWAP1 POP SWAP2 SWAP1 POP JUMP JUMPDEST PUSH2 0x1627 DUP2 PUSH2 0x1614 JUMP JUMPDEST DUP2 EQ PUSH2 0x1632 JUMPI PUSH1 0x0 DUP1 REVERT JUMPDEST POP JUMP JUMPDEST PUSH1 0x0 DUP2 CALLDATALOAD SWAP1 POP PUSH2 0x1644 DUP2 PUSH2 0x161E JUMP JUMPDEST SWAP3 SWAP2 POP POP JUMP JUMPDEST PUSH1 0x0 DUP1 PUSH1 0x0 DUP1 PUSH1 0x0 DUP1 PUSH1 0xC0 DUP8 DUP10 SUB SLT ISZERO PUSH2 0x1667 JUMPI PUSH2 0x1666 PUSH2 0x14C4 JUMP JUMPDEST JUMPDEST PUSH1 0x0 DUP8 ADD CALLDATALOAD PUSH8 0xFFFFFFFFFFFFFFFF DUP2 GT ISZERO PUSH2 0x1685 JUMPI PUSH2 0x1684 PUSH2 0x14C9 JUMP JUMPDEST JUMPDEST PUSH2 0x1691 DUP10 DUP3 DUP11 ADD PUSH2 0x15E6 JUMP JUMPDEST SWAP7 POP POP PUSH1 0x20 PUSH2 0x16A2 DUP10 DUP3 DUP11 ADD PUSH2 0x1635 JUMP JUMPDEST SWAP6 POP POP PUSH1 0x40 PUSH2 0x16B3 DUP10 DUP3 DUP11 ADD PUSH2 0x1635 JUMP JUMPDEST SWAP5 POP POP PUSH1 0x60 PUSH2 0x16C4 DUP10 DUP3 DUP11 ADD PUSH2 0x1635 JUMP JUMPDEST SWAP4 POP POP PUSH1 0x80 PUSH2 0x16D5 DUP10 DUP3 DUP11 ADD PUSH2 0x1635 JUMP JUMPDEST SWAP3 POP POP PUSH1 0xA0 PUSH2 0x16E6 DUP10 DUP3 DUP11 ADD PUSH2 0x1635 JUMP JUMPDEST SWAP2 POP POP SWAP3 SWAP6 POP SWAP3 SWAP6 POP SWAP3 SWAP6 JUMP JUMPDEST PUSH1 0x0 DUP2 SWAP1 POP SWAP2 SWAP1 POP JUMP JUMPDEST PUSH2 0x1706 DUP2 PUSH2 0x16F3 JUMP JUMPDEST DUP3 MSTORE POP POP JUMP JUMPDEST PUSH1 0x0 PUSH1 0x20 DUP3 ADD SWAP1 POP PUSH2 0x1721 PUSH1 0x0 DUP4 ADD DUP5 PUSH2 0x16FD JUMP JUMPDEST SWAP3 SWAP2 POP POP JUMP JUMPDEST PUSH1 0x0 DUP1 PUSH1 0x0 DUP1 PUSH1 0x0 PUSH1 0xA0 DUP7 DUP9 SUB SLT ISZERO PUSH2 0x1743 JUMPI PUSH2 0x1742 PUSH2 0x14C4 JUMP JUMPDEST JUMPDEST PUSH1 0x0 DUP7 ADD CALLDATALOAD PUSH8 0xFFFFFFFFFFFFFFFF DUP2 GT ISZERO PUSH2 0x1761 JUMPI PUSH2 0x1760 PUSH2 0x14C9 JUMP JUMPDEST JUMPDEST PUSH2 0x176D DUP9 DUP3 DUP10 ADD PUSH2 0x15E6 JUMP JUMPDEST SWAP6 POP POP PUSH1 0x20 PUSH2 0x177E DUP9 DUP3 DUP10 ADD PUSH2 0x1635 JUMP JUMPDEST SWAP5 POP POP PUSH1 0x40 PUSH2 0x178F DUP9 DUP3 DUP10 ADD PUSH2 0x1635 JUMP JUMPDEST SWAP4 POP POP PUSH1 0x60 PUSH2 0x17A0 DUP9 DUP3 DUP10 ADD PUSH2 0x1635 JUMP JUMPDEST SWAP3 POP POP PUSH1 0x80 PUSH2 0x17B1 DUP9 DUP3 DUP10 ADD PUSH2 0x1635 JUMP JUMPDEST SWAP2 POP POP SWAP3 SWAP6 POP SWAP3 SWAP6 SWAP1 SWAP4 POP JUMP JUMPDEST PUSH1 0x0 DUP1 PUSH1 0x0 DUP1 PUSH1 0x0 DUP1 PUSH1 0x0 PUSH1 0xE0 DUP9 DUP11 SUB SLT ISZERO PUSH2 0x17DD JUMPI PUSH2 0x17DC PUSH2 0x14C4 JUMP JUMPDEST JUMPDEST PUSH1 0x0 DUP9 ADD CALLDATALOAD PUSH8 0xFFFFFFFFFFFFFFFF DUP2 GT ISZERO PUSH2 0x17FB JUMPI PUSH2 0x17FA PUSH2 0x14C9 JUMP JUMPDEST JUMPDEST PUSH2 0x1807 DUP11 DUP3 DUP12 ADD PUSH2 0x15E6 JUMP JUMPDEST SWAP8 POP POP PUSH1 0x20 PUSH2 0x1818 DUP11 DUP3 DUP12 ADD PUSH2 0x1635 JUMP JUMPDEST SWAP7 POP POP PUSH1 0x40 PUSH2 0x1829 DUP11 DUP3 DUP12 ADD PUSH2 0x1635 JUMP JUMPDEST SWAP6 POP POP PUSH1 0x60 PUSH2 0x183A DUP11 DUP3 DUP12 ADD PUSH2 0x1635 JUMP JUMPDEST SWAP5 POP POP PUSH1 0x80 PUSH2 0x184B DUP11 DUP3 DUP12 ADD PUSH2 0x1635 JUMP JUMPDEST SWAP4 POP POP PUSH1 0xA0 PUSH2 0x185C DUP11 DUP3 DUP12 ADD PUSH2 0x1635 JUMP JUMPDEST SWAP3 POP POP PUSH1 0xC0 PUSH2 0x186D DUP11 DUP3 DUP12 ADD PUSH2 0x1635 JUMP JUMPDEST SWAP2 POP POP SWAP3 SWAP6 SWAP9 SWAP2 SWAP5 SWAP8 POP SWAP3 SWAP6 POP JUMP JUMPDEST PUSH2 0x1885 DUP2 PUSH2 0x16F3 JUMP JUMPDEST DUP2 EQ PUSH2 0x1890 JUMPI PUSH1 0x0 DUP1 REVERT JUMPDEST POP JUMP JUMPDEST PUSH1 0x0 DUP2 CALLDATALOAD SWAP1 POP PUSH2 0x18A2 DUP2 PUSH2 0x187C JUMP JUMPDEST SWAP3 SWAP2 POP POP JUMP JUMPDEST PUSH1 0x0 PUSH1 0x20 DUP3 DUP5 SUB SLT ISZERO PUSH2 0x18BE JUMPI PUSH2 0x18BD PUSH2 0x14C4 JUMP JUMPDEST JUMPDEST PUSH1 0x0 PUSH2 0x18CC DUP5 DUP3 DUP6 ADD PUSH2 0x1893 JUMP JUMPDEST SWAP2 POP POP SWAP3 SWAP2 POP POP JUMP JUMPDEST PUSH1 0x0 DUP2 MLOAD SWAP1 POP SWAP2 SWAP1 POP JUMP JUMPDEST PUSH1 0x0 DUP3 DUP3 MSTORE PUSH1 0x20 DUP3 ADD SWAP1 POP SWAP3 SWAP2 POP POP JUMP JUMPDEST PUSH1 0x0 JUMPDEST DUP4 DUP2 LT ISZERO PUSH2 0x190F JUMPI DUP1 DUP3 ADD MLOAD DUP2 DUP5 ADD MSTORE PUSH1 0x20 DUP2 ADD SWAP1 POP PUSH2 0x18F4 JUMP JUMPDEST PUSH1 0x0 DUP5 DUP5 ADD MSTORE POP POP POP POP JUMP JUMPDEST PUSH1 0x0 PUSH2 0x1926 DUP3 PUSH2 0x18D5 JUMP JUMPDEST PUSH2 0x1930 DUP2 DUP6 PUSH2 0x18E0 JUMP JUMPDEST SWAP4 POP PUSH2 0x1940 DUP2 DUP6 PUSH1 0x20 DUP7 ADD PUSH2 0x18F1 JUMP JUMPDEST PUSH2 0x1949 DUP2 PUSH2 0x14D8 JUMP JUMPDEST DUP5 ADD SWAP2 POP POP SWAP3 SWAP2 POP POP JUMP JUMPDEST PUSH1 0x0 PUSH20 0xFFFFFFFFFFFFFFFFFFFFFFFFFFFFFFFFFFFFFFFF DUP3 AND SWAP1 POP SWAP2 SWAP1 POP JUMP JUMPDEST PUSH1 0x0 PUSH2 0x197F DUP3 PUSH2 0x1954 JUMP JUMPDEST SWAP1 POP SWAP2 SWAP1 POP JUMP JUMPDEST PUSH2 0x198F DUP2 PUSH2 0x1974 JUMP JUMPDEST DUP3 MSTORE POP POP JUMP JUMPDEST PUSH1 0x0 PUSH1 0x60 DUP3 ADD SWAP1 POP DUP2 DUP2 SUB PUSH1 0x0 DUP4 ADD MSTORE PUSH2 0x19AF DUP2 DUP7 PUSH2 0x191B JUMP JUMPDEST SWAP1 POP DUP2 DUP2 SUB PUSH1 0x20 DUP4 ADD MSTORE PUSH2 0x19C3 DUP2 DUP6 PUSH2 0x191B JUMP JUMPDEST SWAP1 POP PUSH2 0x19D2 PUSH1 0x40 DUP4 ADD DUP5 PUSH2 0x1986 JUMP JUMPDEST SWAP5 SWAP4 POP POP POP POP JUMP JUMPDEST PUSH1 0x0 PUSH1 0x20 DUP3 ADD SWAP1 POP DUP2 DUP2 SUB PUSH1 0x0 DUP4 ADD MSTORE PUSH2 0x19F4 DUP2 DUP5 PUSH2 0x191B JUMP JUMPDEST SWAP1 POP SWAP3 SWAP2 POP POP JUMP JUMPDEST PUSH1 0x0 PUSH1 0x20 DUP3 DUP5 SUB SLT ISZERO PUSH2 0x1A12 JUMPI PUSH2 0x1A11 PUSH2 0x14C4 JUMP JUMPDEST JUMPDEST PUSH1 0x0 DUP3 ADD CALLDATALOAD PUSH8 0xFFFFFFFFFFFFFFFF DUP2 GT ISZERO PUSH2 0x1A30 JUMPI PUSH2 0x1A2F PUSH2 0x14C9 JUMP JUMPDEST JUMPDEST PUSH2 0x1A3C DUP5 DUP3 DUP6 ADD PUSH2 0x15E6 JUMP JUMPDEST SWAP2 POP POP SWAP3 SWAP2 POP POP JUMP JUMPDEST PUSH1 0x0 DUP1 PUSH1 0x40 DUP4 DUP6 SUB SLT ISZERO PUSH2 0x1A5C JUMPI PUSH2 0x1A5B PUSH2 0x14C4 JUMP JUMPDEST JUMPDEST PUSH1 0x0 PUSH2 0x1A6A DUP6 DUP3 DUP7 ADD PUSH2 0x1893 JUMP JUMPDEST SWAP3 POP POP PUSH1 0x20 DUP4 ADD CALLDATALOAD PUSH8 0xFFFFFFFFFFFFFFFF DUP2 GT ISZERO PUSH2 0x1A8B JUMPI PUSH2 0x1A8A PUSH2 0x14C9 JUMP JUMPDEST JUMPDEST PUSH2 0x1A97 DUP6 DUP3 DUP7 ADD PUSH2 0x15E6 JUMP JUMPDEST SWAP2 POP POP SWAP3 POP SWAP3 SWAP1 POP JUMP JUMPDEST PUSH2 0x1AAA DUP2 PUSH2 0x1614 JUMP JUMPDEST DUP3 MSTORE POP POP JUMP JUMPDEST PUSH1 0x0 PUSH1 0x20 DUP3 ADD SWAP1 POP PUSH2 0x1AC5 PUSH1 0x0 DUP4 ADD DUP5 PUSH2 0x1AA1 JUMP JUMPDEST SWAP3 SWAP2 POP POP JUMP JUMPDEST PUSH1 0x0 DUP1 PUSH1 0x40 DUP4 DUP6 SUB SLT ISZERO PUSH2 0x1AE2 JUMPI PUSH2 0x1AE1 PUSH2 0x14C4 JUMP JUMPDEST JUMPDEST PUSH1 0x0 DUP4 ADD CALLDATALOAD PUSH8 0xFFFFFFFFFFFFFFFF DUP2 GT ISZERO PUSH2 0x1B00 JUMPI PUSH2 0x1AFF PUSH2 0x14C9 JUMP JUMPDEST JUMPDEST PUSH2 0x1B0C DUP6 DUP3 DUP7 ADD PUSH2 0x15E6 JUMP JUMPDEST SWAP3 POP POP PUSH1 0x20 DUP4 ADD CALLDATALOAD PUSH8 0xFFFFFFFFFFFFFFFF DUP2 GT ISZERO PUSH2 0x1B2D JUMPI PUSH2 0x1B2C PUSH2 0x14C9 JUMP JUMPDEST JUMPDEST PUSH2 0x1B39 DUP6 DUP3 DUP7 ADD PUSH2 0x15E6 JUMP JUMPDEST SWAP2 POP POP SWAP3 POP SWAP3 SWAP1 POP JUMP JUMPDEST PUSH32 0x4E487B7100000000000000000000000000000000000000000000000000000000 PUSH1 0x0 MSTORE PUSH1 0x32 PUSH1 0x4 MSTORE PUSH1 0x24 PUSH1 0x0 REVERT JUMPDEST PUSH32 0x4E487B7100000000000000000000000000000000000000000000000000000000 PUSH1 0x0 MSTORE PUSH1 0x22 PUSH1 0x4 MSTORE PUSH1 0x24 PUSH1 0x0 REVERT JUMPDEST PUSH1 0x0 PUSH1 0x2 DUP3 DIV SWAP1 POP PUSH1 0x1 DUP3 AND DUP1 PUSH2 0x1BB9 JUMPI PUSH1 0x7F DUP3 AND SWAP2 POP JUMPDEST PUSH1 0x20 DUP3 LT DUP2 SUB PUSH2 0x1BCC JUMPI PUSH2 0x1BCB PUSH2 0x1B72 JUMP JUMPDEST JUMPDEST POP SWAP2 SWAP1 POP JUMP JUMPDEST PUSH1 0x0 DUP2 SWAP1 POP DUP2 PUSH1 0x0 MSTORE PUSH1 0x20 PUSH1 0x0 KECCAK256 SWAP1 POP SWAP2 SWAP1 POP JUMP JUMPDEST PUSH1 0x0 PUSH1 0x20 PUSH1 0x1F DUP4 ADD DIV SWAP1 POP SWAP2 SWAP1 POP JUMP JUMPDEST PUSH1 0x0 DUP3 DUP3 SHL SWAP1 POP SWAP3 SWAP2 POP POP JUMP JUMPDEST PUSH1 0x0 PUSH1 0x8 DUP4 MUL PUSH2 0x1C34 PUSH32 0xFFFFFFFFFFFFFFFFFFFFFFFFFFFFFFFFFFFFFFFFFFFFFFFFFFFFFFFFFFFFFFFF DUP3 PUSH2 0x1BF7 JUMP JUMPDEST PUSH2 0x1C3E DUP7 DUP4 PUSH2 0x1BF7 JUMP JUMPDEST SWAP6 POP DUP1 NOT DUP5 AND SWAP4 POP DUP1 DUP7 AND DUP5 OR SWAP3 POP POP POP SWAP4 SWAP3 POP POP POP JUMP JUMPDEST PUSH1 0x0 DUP2 SWAP1 POP SWAP2 SWAP1 POP JUMP JUMPDEST PUSH1 0x0 PUSH2 0x1C7B PUSH2 0x1C76 PUSH2 0x1C71 DUP5 PUSH2 0x16F3 JUMP JUMPDEST PUSH2 0x1C56 JUMP JUMPDEST PUSH2 0x16F3 JUMP JUMPDEST SWAP1 POP SWAP2 SWAP1 POP JUMP JUMPDEST PUSH1 0x0 DUP2 SWAP1 POP SWAP2 SWAP1 POP JUMP JUMPDEST PUSH2 0x1C95 DUP4 PUSH2 0x1C60 JUMP JUMPDEST PUSH2 0x1CA9 PUSH2 0x1CA1 DUP3 PUSH2 0x1C82 JUMP JUMPDEST DUP5 DUP5 SLOAD PUSH2 0x1C04 JUMP JUMPDEST DUP3 SSTORE POP POP POP POP JUMP JUMPDEST PUSH1 0x0 SWAP1 JUMP JUMPDEST PUSH2 0x1CBE PUSH2 0x1CB1 JUMP JUMPDEST PUSH2 0x1CC9 DUP2 DUP5 DUP5 PUSH2 0x1C8C JUMP JUMPDEST POP POP POP JUMP JUMPDEST JUMPDEST DUP2 DUP2 LT ISZERO PUSH2 0x1CED JUMPI PUSH2 0x1CE2 PUSH1 0x0 DUP3 PUSH2 0x1CB6 JUMP JUMPDEST PUSH1 0x1 DUP2 ADD SWAP1 POP PUSH2 0x1CCF JUMP JUMPDEST POP POP JUMP JUMPDEST PUSH1 0x1F DUP3 GT ISZERO PUSH2 0x1D32 JUMPI PUSH2 0x1D03 DUP2 PUSH2 0x1BD2 JUMP JUMPDEST PUSH2 0x1D0C DUP5 PUSH2 0x1BE7 JUMP JUMPDEST DUP2 ADD PUSH1 0x20 DUP6 LT ISZERO PUSH2 0x1D1B JUMPI DUP2 SWAP1 POP JUMPDEST PUSH2 0x1D2F PUSH2 0x1D27 DUP6 PUSH2 0x1BE7 JUMP JUMPDEST DUP4 ADD DUP3 PUSH2 0x1CCE JUMP JUMPDEST POP POP JUMPDEST POP POP POP JUMP JUMPDEST PUSH1 0x0 DUP3 DUP3 SHR SWAP1 POP SWAP3 SWAP2 POP POP JUMP JUMPDEST PUSH1 0x0 PUSH2 0x1D55 PUSH1 0x0 NOT DUP5 PUSH1 0x8 MUL PUSH2 0x1D37 JUMP JUMPDEST NOT DUP1 DUP4 AND SWAP2 POP POP SWAP3 SWAP2 POP POP JUMP JUMPDEST PUSH1 0x0 PUSH2 0x1D6E DUP4 DUP4 PUSH2 0x1D44 JUMP JUMPDEST SWAP2 POP DUP3 PUSH1 0x2 MUL DUP3 OR SWAP1 POP SWAP3 SWAP2 POP POP JUMP JUMPDEST PUSH2 0x1D87 DUP3 PUSH2 0x18D5 JUMP JUMPDEST PUSH8 0xFFFFFFFFFFFFFFFF DUP2 GT ISZERO PUSH2 0x1DA0 JUMPI PUSH2 0x1D9F PUSH2 0x14E9 JUMP JUMPDEST JUMPDEST PUSH2 0x1DAA DUP3 SLOAD PUSH2 0x1BA1 JUMP JUMPDEST PUSH2 0x1DB5 DUP3 DUP3 DUP6 PUSH2 0x1CF1 JUMP JUMPDEST PUSH1 0x0 PUSH1 0x20 SWAP1 POP PUSH1 0x1F DUP4 GT PUSH1 0x1 DUP2 EQ PUSH2 0x1DE8 JUMPI PUSH1 0x0 DUP5 ISZERO PUSH2 0x1DD6 JUMPI DUP3 DUP8 ADD MLOAD SWAP1 POP JUMPDEST PUSH2 0x1DE0 DUP6 DUP3 PUSH2 0x1D62 JUMP JUMPDEST DUP7 SSTORE POP PUSH2 0x1E48 JUMP JUMPDEST PUSH1 0x1F NOT DUP5 AND PUSH2 0x1DF6 DUP7 PUSH2 0x1BD2 JUMP JUMPDEST PUSH1 0x0 JUMPDEST DUP3 DUP2 LT ISZERO PUSH2 0x1E1E JUMPI DUP5 DUP10 ADD MLOAD DUP3 SSTORE PUSH1 0x1 DUP3 ADD SWAP2 POP PUSH1 0x20 DUP6 ADD SWAP5 POP PUSH1 0x20 DUP2 ADD SWAP1 POP PUSH2 0x1DF9 JUMP JUMPDEST DUP7 DUP4 LT ISZERO PUSH2 0x1E3B JUMPI DUP5 DUP10 ADD MLOAD PUSH2 0x1E37 PUSH1 0x1F DUP10 AND DUP3 PUSH2 0x1D44 JUMP JUMPDEST DUP4 SSTORE POP JUMPDEST PUSH1 0x1 PUSH1 0x2 DUP9 MUL ADD DUP9 SSTORE POP POP POP JUMPDEST POP POP POP POP POP POP JUMP JUMPDEST PUSH1 0x0 DUP2 SWAP1 POP SWAP3 SWAP2 POP POP JUMP JUMPDEST PUSH32 0x4550303031000000000000000000000000000000000000000000000000000000 PUSH1 0x0 DUP3 ADD MSTORE POP JUMP JUMPDEST PUSH1 0x0 PUSH2 0x1E91 PUSH1 0x5 DUP4 PUSH2 0x1E50 JUMP JUMPDEST SWAP2 POP PUSH2 0x1E9C DUP3 PUSH2 0x1E5B JUMP JUMPDEST PUSH1 0x5 DUP3 ADD SWAP1 POP SWAP2 SWAP1 POP JUMP JUMPDEST PUSH1 0x0 PUSH2 0x1EB2 DUP3 PUSH2 0x1E84 JUMP JUMPDEST SWAP2 POP DUP2 SWAP1 POP SWAP2 SWAP1 POP JUMP JUMPDEST PUSH32 0x4550303032000000000000000000000000000000000000000000000000000000 PUSH1 0x0 DUP3 ADD MSTORE POP JUMP JUMPDEST PUSH1 0x0 PUSH2 0x1EF2 PUSH1 0x5 DUP4 PUSH2 0x1E50 JUMP JUMPDEST SWAP2 POP PUSH2 0x1EFD DUP3 PUSH2 0x1EBC JUMP JUMPDEST PUSH1 0x5 DUP3 ADD SWAP1 POP SWAP2 SWAP1 POP JUMP JUMPDEST PUSH1 0x0 PUSH2 0x1F13 DUP3 PUSH2 0x1EE5 JUMP JUMPDEST SWAP2 POP DUP2 SWAP1 POP SWAP2 SWAP1 POP JUMP JUMPDEST PUSH32 0x4550303033000000000000000000000000000000000000000000000000000000 PUSH1 0x0 DUP3 ADD MSTORE POP JUMP JUMPDEST PUSH1 0x0 PUSH2 0x1F53 PUSH1 0x5 DUP4 PUSH2 0x1E50 JUMP JUMPDEST SWAP2 POP PUSH2 0x1F5E DUP3 PUSH2 0x1F1D JUMP JUMPDEST PUSH1 0x5 DUP3 ADD SWAP1 POP SWAP2 SWAP1 POP JUMP JUMPDEST PUSH1 0x0 PUSH2 0x1F74 DUP3 PUSH2 0x1F46 JUMP JUMPDEST SWAP2 POP DUP2 SWAP1 POP SWAP2 SWAP1 POP JUMP JUMPDEST PUSH32 0x4550303034000000000000000000000000000000000000000000000000000000 PUSH1 0x0 DUP3 ADD MSTORE POP JUMP JUMPDEST PUSH1 0x0 PUSH2 0x1FB4 PUSH1 0x5 DUP4 PUSH2 0x1E50 JUMP JUMPDEST SWAP2 POP PUSH2 0x1FBF DUP3 PUSH2 0x1F7E JUMP JUMPDEST PUSH1 0x5 DUP3 ADD SWAP1 POP SWAP2 SWAP1 POP JUMP JUMPDEST PUSH1 0x0 PUSH2 0x1FD5 DUP3 PUSH2 0x1FA7 JUMP JUMPDEST SWAP2 POP DUP2 SWAP1 POP SWAP2 SWAP1 POP JUMP JUMPDEST PUSH32 0x7472616E735F74696D6500000000000000000000000000000000000000000000 PUSH1 0x0 DUP3 ADD MSTORE POP JUMP JUMPDEST PUSH1 0x0 PUSH2 0x2015 PUSH1 0xA DUP4 PUSH2 0x1E50 JUMP JUMPDEST SWAP2 POP PUSH2 0x2020 DUP3 PUSH2 0x1FDF JUMP JUMPDEST PUSH1 0xA DUP3 ADD SWAP1 POP SWAP2 SWAP1 POP JUMP JUMPDEST PUSH1 0x0 PUSH2 0x2036 DUP3 PUSH2 0x2008 JUMP JUMPDEST SWAP2 POP DUP2 SWAP1 POP SWAP2 SWAP1 POP JUMP JUMPDEST PUSH32 0x4550303036000000000000000000000000000000000000000000000000000000 PUSH1 0x0 DUP3 ADD MSTORE POP JUMP JUMPDEST PUSH1 0x0 PUSH2 0x2076 PUSH1 0x5 DUP4 PUSH2 0x1E50 JUMP JUMPDEST SWAP2 POP PUSH2 0x2081 DUP3 PUSH2 0x2040 JUMP JUMPDEST PUSH1 0x5 DUP3 ADD SWAP1 POP SWAP2 SWAP1 POP JUMP JUMPDEST PUSH1 0x0 PUSH2 0x2097 DUP3 PUSH2 0x2069 JUMP JUMPDEST SWAP2 POP DUP2 SWAP1 POP SWAP2 SWAP1 POP JUMP JUMPDEST PUSH32 0x4550303035000000000000000000000000000000000000000000000000000000 PUSH1 0x0 DUP3 ADD MSTORE POP JUMP JUMPDEST PUSH1 0x0 PUSH2 0x20D7 PUSH1 0x5 DUP4 PUSH2 0x1E50 JUMP JUMPDEST SWAP2 POP PUSH2 0x20E2 DUP3 PUSH2 0x20A1 JUMP JUMPDEST PUSH1 0x5 DUP3 ADD SWAP1 POP SWAP2 SWAP1 POP JUMP JUMPDEST PUSH1 0x0 PUSH2 0x20F8 DUP3 PUSH2 0x20CA JUMP JUMPDEST SWAP2 POP DUP2 SWAP1 POP SWAP2 SWAP1 POP JUMP JUMPDEST PUSH32 0x4550303037000000000000000000000000000000000000000000000000000000 PUSH1 0x0 DUP3 ADD MSTORE POP JUMP JUMPDEST PUSH1 0x0 PUSH2 0x2138 PUSH1 0x5 DUP4 PUSH2 0x1E50 JUMP JUMPDEST SWAP2 POP PUSH2 0x2143 DUP3 PUSH2 0x2102 JUMP JUMPDEST PUSH1 0x5 DUP3 ADD SWAP1 POP SWAP2 SWAP1 POP JUMP JUMPDEST PUSH1 0x0 PUSH2 0x2159 DUP3 PUSH2 0x212B JUMP JUMPDEST SWAP2 POP DUP2 SWAP1 POP SWAP2 SWAP1 POP JUMP JUMPDEST PUSH32 0x4254430000000000000000000000000000000000000000000000000000000000 PUSH1 0x0 DUP3 ADD MSTORE POP JUMP JUMPDEST PUSH1 0x0 PUSH2 0x2199 PUSH1 0x3 DUP4 PUSH2 0x1E50 JUMP JUMPDEST SWAP2 POP PUSH2 0x21A4 DUP3 PUSH2 0x2163 JUMP JUMPDEST PUSH1 0x3 DUP3 ADD SWAP1 POP SWAP2 SWAP1 POP JUMP JUMPDEST PUSH1 0x0 PUSH2 0x21BA DUP3 PUSH2 0x218C JUMP JUMPDEST SWAP2 POP DUP2 SWAP1 POP SWAP2 SWAP1 POP JUMP JUMPDEST PUSH32 0x5553445400000000000000000000000000000000000000000000000000000000 PUSH1 0x0 DUP3 ADD MSTORE POP JUMP JUMPDEST PUSH1 0x0 PUSH2 0x21FA PUSH1 0x4 DUP4 PUSH2 0x1E50 JUMP JUMPDEST SWAP2 POP PUSH2 0x2205 DUP3 PUSH2 0x21C4 JUMP JUMPDEST PUSH1 0x4 DUP3 ADD SWAP1 POP SWAP2 SWAP1 POP JUMP JUMPDEST PUSH1 0x0 PUSH2 0x221B DUP3 PUSH2 0x21ED JUMP JUMPDEST SWAP2 POP DUP2 SWAP1 POP SWAP2 SWAP1 POP JUMP JUMPDEST PUSH1 0x0 PUSH2 0x2230 DUP3 PUSH2 0x18D5 JUMP JUMPDEST PUSH2 0x223A DUP2 DUP6 PUSH2 0x1E50 JUMP JUMPDEST SWAP4 POP PUSH2 0x224A DUP2 DUP6 PUSH1 0x20 DUP7 ADD PUSH2 0x18F1 JUMP JUMPDEST DUP1 DUP5 ADD SWAP2 POP POP SWAP3 SWAP2 POP POP JUMP JUMPDEST PUSH1 0x0 PUSH2 0x2262 DUP3 DUP5 PUSH2 0x2225 JUMP JUMPDEST SWAP2 POP DUP2 SWAP1 POP SWAP3 SWAP2 POP POP JUMP JUMPDEST PUSH1 0x0 DUP2 SLOAD PUSH2 0x227A DUP2 PUSH2 0x1BA1 JUMP JUMPDEST PUSH2 0x2284 DUP2 DUP7 PUSH2 0x1E50 JUMP JUMPDEST SWAP5 POP PUSH1 0x1 DUP3 AND PUSH1 0x0 DUP2 EQ PUSH2 0x229F JUMPI PUSH1 0x1 DUP2 EQ PUSH2 0x22B4 JUMPI PUSH2 0x22E7 JUMP JUMPDEST PUSH1 0xFF NOT DUP4 AND DUP7 MSTORE DUP2 ISZERO ISZERO DUP3 MUL DUP7 ADD SWAP4 POP PUSH2 0x22E7 JUMP JUMPDEST PUSH2 0x22BD DUP6 PUSH2 0x1BD2 JUMP JUMPDEST PUSH1 0x0 JUMPDEST DUP4 DUP2 LT ISZERO PUSH2 0x22DF JUMPI DUP2 SLOAD DUP2 DUP10 ADD MSTORE PUSH1 0x1 DUP3 ADD SWAP2 POP PUSH1 0x20 DUP2 ADD SWAP1 POP PUSH2 0x22C0 JUMP JUMPDEST DUP4 DUP9 ADD SWAP6 POP POP POP JUMPDEST POP POP POP SWAP3 SWAP2 POP POP JUMP JUMPDEST PUSH1 0x0 PUSH2 0x22FC DUP3 DUP5 PUSH2 0x226D JUMP JUMPDEST SWAP2 POP DUP2 SWAP1 POP SWAP3 SWAP2 POP POP JUMP JUMPDEST PUSH32 0x4E487B7100000000000000000000000000000000000000000000000000000000 PUSH1 0x0 MSTORE PUSH1 0x11 PUSH1 0x4 MSTORE PUSH1 0x24 PUSH1 0x0 REVERT JUMPDEST PUSH1 0x0 PUSH2 0x2341 DUP3 PUSH2 0x16F3 JUMP JUMPDEST SWAP2 POP PUSH32 0xFFFFFFFFFFFFFFFFFFFFFFFFFFFFFFFFFFFFFFFFFFFFFFFFFFFFFFFFFFFFFFFF DUP3 SUB PUSH2 0x2373 JUMPI PUSH2 0x2372 PUSH2 0x2307 JUMP JUMPDEST JUMPDEST PUSH1 0x1 DUP3 ADD SWAP1 POP SWAP2 SWAP1 POP JUMP JUMPDEST PUSH32 0x5472616E73616374696F6E207769746820676976656E206576656E744964206E PUSH1 0x0 DUP3 ADD MSTORE PUSH32 0x6F7420666F756E64000000000000000000000000000000000000000000000000 PUSH1 0x20 DUP3 ADD MSTORE POP JUMP JUMPDEST PUSH1 0x0 PUSH2 0x23DA PUSH1 0x28 DUP4 PUSH2 0x18E0 JUMP JUMPDEST SWAP2 POP PUSH2 0x23E5 DUP3 PUSH2 0x237E JUMP JUMPDEST PUSH1 0x40 DUP3 ADD SWAP1 POP SWAP2 SWAP1 POP JUMP JUMPDEST PUSH1 0x0 PUSH1 0x20 DUP3 ADD SWAP1 POP DUP2 DUP2 SUB PUSH1 0x0 DUP4 ADD MSTORE PUSH2 0x2409 DUP2 PUSH2 0x23CD JUMP JUMPDEST SWAP1 POP SWAP2 SWAP1 POP JUMP INVALID LOG2 PUSH5 0x6970667358 0x22 SLT KECCAK256 0xF6 SLT CALLER 0xC5 NOT BYTE PUSH9 0x155839B4D8D953753D SWAP1 0x24 0xF 0xE5 PUSH1 0xD SWAP7 LOG1 0xC0 RETURN 0xB0 0xA6 0xC3 SWAP3 0x5C 0x5C PUSH5 0x736F6C6343 STOP ADDMOD SLT STOP CALLER "
				},
				"gasEstimates": {
					"creation": {
						"codeDepositCost": "1857200",
						"executionCost": "1962",
						"totalCost": "1859162"
					},
					"external": {
						"E00010001(string,int256,int256,int256,int256)": "infinite",
						"E00010002(string,int256,int256,int256,int256)": "infinite",
						"E00010003(string,int256,int256,int256,int256)": "infinite",
						"E00010004(string,int256,int256,int256,int256,int256,int256)": "infinite",
						"E00010005(string,int256,int256,int256,int256,int256)": "infinite",
						"E00010006(string,int256,int256,int256,int256,int256)": "infinite",
						"E00020001(string,int256,int256,int256,int256)": "infinite",
						"getTransaction(string)": "infinite",
						"getTransactionEventId(uint256)": "infinite",
						"getTransactionParam(uint256,string)": "infinite",
						"getTransactionParamByEventId(string,string)": "infinite",
						"getTransactionType(uint256)": "infinite",
						"getTransactionsCount()": "2491",
						"transactions(uint256)": "infinite"
					},
					"internal": {
						"findTransaction(string memory)": "infinite"
					}
				},
				"methodIdentifiers": {
					"E00010001(string,int256,int256,int256,int256)": "c902284b",
					"E00010002(string,int256,int256,int256,int256)": "57ac5e3c",
					"E00010003(string,int256,int256,int256,int256)": "8d187245",
					"E00010004(string,int256,int256,int256,int256,int256,int256)": "5e97c344",
					"E00010005(string,int256,int256,int256,int256,int256)": "16a6054e",
					"E00010006(string,int256,int256,int256,int256,int256)": "67105efd",
					"E00020001(string,int256,int256,int256,int256)": "9110293c",
					"getTransaction(string)": "ac2ccd07",
					"getTransactionEventId(uint256)": "9b4e3420",
					"getTransactionParam(uint256,string)": "b89da5ab",
					"getTransactionParamByEventId(string,string)": "d6fa22b9",
					"getTransactionType(uint256)": "e09576f0",
					"getTransactionsCount()": "578cb8f9",
					"transactions(uint256)": "9ace38c2"
				}
			},
			"storageLayout": {
				"storage": [
					{
						"astId": 16,
						"contract": "contracts/eventTransactionRecord.sol:TransactionContract",
						"label": "transactions",
						"offset": 0,
						"slot": "0",
						"type": "t_array(t_struct(Transaction)12_storage)dyn_storage"
					}
				],
				"types": {
					"t_address": {
						"encoding": "inplace",
						"label": "address",
						"numberOfBytes": "20"
					},
					"t_array(t_struct(Transaction)12_storage)dyn_storage": {
						"base": "t_struct(Transaction)12_storage",
						"encoding": "dynamic_array",
						"label": "struct TransactionContract.Transaction[]",
						"numberOfBytes": "32"
					},
					"t_int256": {
						"encoding": "inplace",
						"label": "int256",
						"numberOfBytes": "32"
					},
					"t_mapping(t_string_memory_ptr,t_int256)": {
						"encoding": "mapping",
						"key": "t_string_memory_ptr",
						"label": "mapping(string => int256)",
						"numberOfBytes": "32",
						"value": "t_int256"
					},
					"t_string_memory_ptr": {
						"encoding": "bytes",
						"label": "string",
						"numberOfBytes": "32"
					},
					"t_string_storage": {
						"encoding": "bytes",
						"label": "string",
						"numberOfBytes": "32"
					},
					"t_struct(Transaction)12_storage": {
						"encoding": "inplace",
						"label": "struct TransactionContract.Transaction",
						"members": [
							{
								"astId": 3,
								"contract": "contracts/eventTransactionRecord.sol:TransactionContract",
								"label": "transactionType",
								"offset": 0,
								"slot": "0",
								"type": "t_string_storage"
							},
							{
								"astId": 5,
								"contract": "contracts/eventTransactionRecord.sol:TransactionContract",
								"label": "eventId",
								"offset": 0,
								"slot": "1",
								"type": "t_string_storage"
							},
							{
								"astId": 7,
								"contract": "contracts/eventTransactionRecord.sol:TransactionContract",
								"label": "Recorder",
								"offset": 0,
								"slot": "2",
								"type": "t_address"
							},
							{
								"astId": 11,
								"contract": "contracts/eventTransactionRecord.sol:TransactionContract",
								"label": "params",
								"offset": 0,
								"slot": "3",
								"type": "t_mapping(t_string_memory_ptr,t_int256)"
							}
						],
						"numberOfBytes": "128"
					}
				}
			},
			"userdoc": {
				"kind": "user",
				"methods": {},
				"version": 1
			}
		}
	}
}