{
	"contracts/parser.sol": {
		"Parser": {
			"abi": [
				{
					"inputs": [
						{
							"internalType": "bytes32",
							"name": "_bytes32",
							"type": "bytes32"
						}
					],
					"name": "bytes32ToString",
					"outputs": [
						{
							"internalType": "string",
							"name": "",
							"type": "string"
						}
					],
					"stateMutability": "pure",
					"type": "function"
				},
				{
					"inputs": [
						{
							"internalType": "int256",
							"name": "x",
							"type": "int256"
						}
					],
					"name": "intToBytes32",
					"outputs": [
						{
							"internalType": "bytes32",
							"name": "",
							"type": "bytes32"
						}
					],
					"stateMutability": "pure",
					"type": "function"
				},
				{
					"inputs": [
						{
							"internalType": "string",
							"name": "source",
							"type": "string"
						}
					],
					"name": "stringToBytes32",
					"outputs": [
						{
							"internalType": "bytes32",
							"name": "result",
							"type": "bytes32"
						}
					],
					"stateMutability": "pure",
					"type": "function"
				}
			],
			"devdoc": {
				"kind": "dev",
				"methods": {},
				"version": 1
			},
			"evm": {
				"assembly": "    /* \"contracts/parser.sol\":93:905  contract Parser is IParser{... */\n  mstore(0x40, 0x80)\n  callvalue\n  dup1\n  iszero\n  tag_1\n  jumpi\n  0x00\n  dup1\n  revert\ntag_1:\n  pop\n  dataSize(sub_0)\n  dup1\n  dataOffset(sub_0)\n  0x00\n  codecopy\n  0x00\n  return\nstop\n\nsub_0: assembly {\n        /* \"contracts/parser.sol\":93:905  contract Parser is IParser{... */\n      mstore(0x40, 0x80)\n      callvalue\n      dup1\n      iszero\n      tag_1\n      jumpi\n      0x00\n      dup1\n      revert\n    tag_1:\n      pop\n      jumpi(tag_2, lt(calldatasize, 0x04))\n      shr(0xe0, calldataload(0x00))\n      dup1\n      0x8e4a01bd\n      eq\n      tag_3\n      jumpi\n      dup1\n      0x9201de55\n      eq\n      tag_4\n      jumpi\n      dup1\n      0xcfb51928\n      eq\n      tag_5\n      jumpi\n    tag_2:\n      0x00\n      dup1\n      revert\n        /* \"contracts/parser.sol\":483:588  function intToBytes32(int256 x) public pure returns (bytes32) {... */\n    tag_3:\n      tag_6\n      0x04\n      dup1\n      calldatasize\n      sub\n      dup2\n      add\n      swap1\n      tag_7\n      swap2\n      swap1\n      tag_8\n      jump\t// in\n    tag_7:\n      tag_9\n      jump\t// in\n    tag_6:\n      mload(0x40)\n      tag_10\n      swap2\n      swap1\n      tag_11\n      jump\t// in\n    tag_10:\n      mload(0x40)\n      dup1\n      swap2\n      sub\n      swap1\n      return\n        /* \"contracts/parser.sol\":125:477  function bytes32ToString(bytes32 _bytes32) public pure returns (string memory) {... */\n    tag_4:\n      tag_12\n      0x04\n      dup1\n      calldatasize\n      sub\n      dup2\n      add\n      swap1\n      tag_13\n      swap2\n      swap1\n      tag_14\n      jump\t// in\n    tag_13:\n      tag_15\n      jump\t// in\n    tag_12:\n      mload(0x40)\n      tag_16\n      swap2\n      swap1\n      tag_17\n      jump\t// in\n    tag_16:\n      mload(0x40)\n      dup1\n      swap2\n      sub\n      swap1\n      return\n        /* \"contracts/parser.sol\":598:903  function stringToBytes32(string memory source) public pure returns (bytes32 result) {... */\n    tag_5:\n      tag_18\n      0x04\n      dup1\n      calldatasize\n      sub\n      dup2\n      add\n      swap1\n      tag_19\n      swap2\n      swap1\n      tag_20\n      jump\t// in\n    tag_19:\n      tag_21\n      jump\t// in\n    tag_18:\n      mload(0x40)\n      tag_22\n      swap2\n      swap1\n      tag_11\n      jump\t// in\n    tag_22:\n      mload(0x40)\n      dup1\n      swap2\n      sub\n      swap1\n      return\n        /* \"contracts/parser.sol\":483:588  function intToBytes32(int256 x) public pure returns (bytes32) {... */\n    tag_9:\n        /* \"contracts/parser.sol\":536:543  bytes32 */\n      0x00\n        /* \"contracts/parser.sol\":578:579  x */\n      dup2\n        /* \"contracts/parser.sol\":562:581  bytes32(uint256(x)) */\n      0x00\n      shl\n        /* \"contracts/parser.sol\":555:581  return bytes32(uint256(x)) */\n      swap1\n      pop\n        /* \"contracts/parser.sol\":483:588  function intToBytes32(int256 x) public pure returns (bytes32) {... */\n      swap2\n      swap1\n      pop\n      jump\t// out\n        /* \"contracts/parser.sol\":125:477  function bytes32ToString(bytes32 _bytes32) public pure returns (string memory) {... */\n    tag_15:\n        /* \"contracts/parser.sol\":189:202  string memory */\n      0x60\n        /* \"contracts/parser.sol\":214:221  uint8 i */\n      0x00\n        /* \"contracts/parser.sol\":235:297  while(i < 32 && _bytes32[i] != 0) {... */\n    tag_25:\n        /* \"contracts/parser.sol\":245:247  32 */\n      0x20\n        /* \"contracts/parser.sol\":241:242  i */\n      dup2\n        /* \"contracts/parser.sol\":241:247  i < 32 */\n      0xff\n      and\n      lt\n        /* \"contracts/parser.sol\":241:267  i < 32 && _bytes32[i] != 0 */\n      dup1\n      iszero\n      tag_27\n      jumpi\n      pop\n        /* \"contracts/parser.sol\":266:267  0 */\n      0x00\n        /* \"contracts/parser.sol\":251:267  _bytes32[i] != 0 */\n      0xf8\n      shl\n        /* \"contracts/parser.sol\":251:259  _bytes32 */\n      dup4\n        /* \"contracts/parser.sol\":260:261  i */\n      dup3\n        /* \"contracts/parser.sol\":251:262  _bytes32[i] */\n      0xff\n      and\n      0x20\n      dup2\n      lt\n      tag_28\n      jumpi\n      tag_29\n      tag_30\n      jump\t// in\n    tag_29:\n    tag_28:\n      byte\n      0xf8\n      shl\n        /* \"contracts/parser.sol\":251:267  _bytes32[i] != 0 */\n      not(0xffffffffffffffffffffffffffffffffffffffffffffffffffffffffffffff)\n      and\n      eq\n      iszero\n        /* \"contracts/parser.sol\":241:267  i < 32 && _bytes32[i] != 0 */\n    tag_27:\n        /* \"contracts/parser.sol\":235:297  while(i < 32 && _bytes32[i] != 0) {... */\n      iszero\n      tag_26\n      jumpi\n        /* \"contracts/parser.sol\":283:286  i++ */\n      dup1\n      dup1\n      tag_31\n      swap1\n      tag_32\n      jump\t// in\n    tag_31:\n      swap2\n      pop\n      pop\n        /* \"contracts/parser.sol\":235:297  while(i < 32 && _bytes32[i] != 0) {... */\n      jump(tag_25)\n    tag_26:\n        /* \"contracts/parser.sol\":306:329  bytes memory bytesArray */\n      0x00\n        /* \"contracts/parser.sol\":342:343  i */\n      dup2\n        /* \"contracts/parser.sol\":332:344  new bytes(i) */\n      0xff\n      and\n      0xffffffffffffffff\n      dup2\n      gt\n      iszero\n      tag_33\n      jumpi\n      tag_34\n      tag_35\n      jump\t// in\n    tag_34:\n    tag_33:\n      mload(0x40)\n      swap1\n      dup1\n      dup3\n      mstore\n      dup1\n      0x1f\n      add\n      not(0x1f)\n      and\n      0x20\n      add\n      dup3\n      add\n      0x40\n      mstore\n      dup1\n      iszero\n      tag_36\n      jumpi\n      dup2\n      0x20\n      add\n      0x01\n      dup3\n      mul\n      dup1\n      calldatasize\n      dup4\n      calldatacopy\n      dup1\n      dup3\n      add\n      swap2\n      pop\n      pop\n      swap1\n      pop\n    tag_36:\n      pop\n        /* \"contracts/parser.sol\":306:344  bytes memory bytesArray = new bytes(i) */\n      swap1\n      pop\n        /* \"contracts/parser.sol\":359:366  uint8 j */\n      0x00\n        /* \"contracts/parser.sol\":354:436  for (uint8 j = 0; j < i; j++) {... */\n    tag_37:\n        /* \"contracts/parser.sol\":376:377  i */\n      dup3\n        /* \"contracts/parser.sol\":372:377  j < i */\n      0xff\n      and\n        /* \"contracts/parser.sol\":372:373  j */\n      dup2\n        /* \"contracts/parser.sol\":372:377  j < i */\n      0xff\n      and\n      lt\n        /* \"contracts/parser.sol\":354:436  for (uint8 j = 0; j < i; j++) {... */\n      iszero\n      tag_38\n      jumpi\n        /* \"contracts/parser.sol\":414:422  _bytes32 */\n      dup5\n        /* \"contracts/parser.sol\":423:424  j */\n      dup2\n        /* \"contracts/parser.sol\":414:425  _bytes32[j] */\n      0xff\n      and\n      0x20\n      dup2\n      lt\n      tag_40\n      jumpi\n      tag_41\n      tag_30\n      jump\t// in\n    tag_41:\n    tag_40:\n      byte\n      0xf8\n      shl\n        /* \"contracts/parser.sol\":398:408  bytesArray */\n      dup3\n        /* \"contracts/parser.sol\":409:410  j */\n      dup3\n        /* \"contracts/parser.sol\":398:411  bytesArray[j] */\n      0xff\n      and\n      dup2\n      mload\n      dup2\n      lt\n      tag_42\n      jumpi\n      tag_43\n      tag_30\n      jump\t// in\n    tag_43:\n    tag_42:\n      0x20\n      add\n      add\n        /* \"contracts/parser.sol\":398:425  bytesArray[j] = _bytes32[j] */\n      swap1\n      not(0xffffffffffffffffffffffffffffffffffffffffffffffffffffffffffffff)\n      and\n      swap1\n      dup2\n      0x00\n      byte\n      swap1\n      mstore8\n      pop\n        /* \"contracts/parser.sol\":379:382  j++ */\n      dup1\n      dup1\n      tag_44\n      swap1\n      tag_32\n      jump\t// in\n    tag_44:\n      swap2\n      pop\n      pop\n        /* \"contracts/parser.sol\":354:436  for (uint8 j = 0; j < i; j++) {... */\n      jump(tag_37)\n    tag_38:\n      pop\n        /* \"contracts/parser.sol\":459:469  bytesArray */\n      dup1\n        /* \"contracts/parser.sol\":445:470  return string(bytesArray) */\n      swap3\n      pop\n      pop\n      pop\n        /* \"contracts/parser.sol\":125:477  function bytes32ToString(bytes32 _bytes32) public pure returns (string memory) {... */\n      swap2\n      swap1\n      pop\n      jump\t// out\n        /* \"contracts/parser.sol\":598:903  function stringToBytes32(string memory source) public pure returns (bytes32 result) {... */\n    tag_21:\n        /* \"contracts/parser.sol\":666:680  bytes32 result */\n      0x00\n        /* \"contracts/parser.sol\":692:724  bytes memory tempEmptyStringTest */\n      dup1\n        /* \"contracts/parser.sol\":733:739  source */\n      dup3\n        /* \"contracts/parser.sol\":692:740  bytes memory tempEmptyStringTest = bytes(source) */\n      swap1\n      pop\n        /* \"contracts/parser.sol\":784:785  0 */\n      0x00\n        /* \"contracts/parser.sol\":754:773  tempEmptyStringTest */\n      dup2\n        /* \"contracts/parser.sol\":754:780  tempEmptyStringTest.length */\n      mload\n        /* \"contracts/parser.sol\":754:785  tempEmptyStringTest.length == 0 */\n      sub\n        /* \"contracts/parser.sol\":750:822  if (tempEmptyStringTest.length == 0) {... */\n      tag_46\n      jumpi\n        /* \"contracts/parser.sol\":808:811  0x0 */\n      0x00\n        /* \"contracts/parser.sol\":801:811  return 0x0 */\n      dup1\n      shl\n      swap2\n      pop\n      pop\n      jump(tag_45)\n        /* \"contracts/parser.sol\":750:822  if (tempEmptyStringTest.length == 0) {... */\n    tag_46:\n        /* \"contracts/parser.sol\":883:885  32 */\n      0x20\n        /* \"contracts/parser.sol\":875:881  source */\n      dup4\n        /* \"contracts/parser.sol\":871:886  add(source, 32) */\n      add\n        /* \"contracts/parser.sol\":865:887  mload(add(source, 32)) */\n      mload\n        /* \"contracts/parser.sol\":855:887  result := mload(add(source, 32)) */\n      swap2\n      pop\n        /* \"contracts/parser.sol\":841:897  {... */\n      pop\n        /* \"contracts/parser.sol\":598:903  function stringToBytes32(string memory source) public pure returns (bytes32 result) {... */\n    tag_45:\n      swap2\n      swap1\n      pop\n      jump\t// out\n        /* \"#utility.yul\":7:82   */\n    tag_47:\n        /* \"#utility.yul\":40:46   */\n      0x00\n        /* \"#utility.yul\":73:75   */\n      0x40\n        /* \"#utility.yul\":67:76   */\n      mload\n        /* \"#utility.yul\":57:76   */\n      swap1\n      pop\n        /* \"#utility.yul\":7:82   */\n      swap1\n      jump\t// out\n        /* \"#utility.yul\":88:205   */\n    tag_48:\n        /* \"#utility.yul\":197:198   */\n      0x00\n        /* \"#utility.yul\":194:195   */\n      dup1\n        /* \"#utility.yul\":187:199   */\n      revert\n        /* \"#utility.yul\":211:328   */\n    tag_49:\n        /* \"#utility.yul\":320:321   */\n      0x00\n        /* \"#utility.yul\":317:318   */\n      dup1\n        /* \"#utility.yul\":310:322   */\n      revert\n        /* \"#utility.yul\":334:410   */\n    tag_50:\n        /* \"#utility.yul\":370:377   */\n      0x00\n        /* \"#utility.yul\":399:404   */\n      dup2\n        /* \"#utility.yul\":388:404   */\n      swap1\n      pop\n        /* \"#utility.yul\":334:410   */\n      swap2\n      swap1\n      pop\n      jump\t// out\n        /* \"#utility.yul\":416:536   */\n    tag_51:\n        /* \"#utility.yul\":488:511   */\n      tag_78\n        /* \"#utility.yul\":505:510   */\n      dup2\n        /* \"#utility.yul\":488:511   */\n      tag_50\n      jump\t// in\n    tag_78:\n        /* \"#utility.yul\":481:486   */\n      dup2\n        /* \"#utility.yul\":478:512   */\n      eq\n        /* \"#utility.yul\":468:530   */\n      tag_79\n      jumpi\n        /* \"#utility.yul\":526:527   */\n      0x00\n        /* \"#utility.yul\":523:524   */\n      dup1\n        /* \"#utility.yul\":516:528   */\n      revert\n        /* \"#utility.yul\":468:530   */\n    tag_79:\n        /* \"#utility.yul\":416:536   */\n      pop\n      jump\t// out\n        /* \"#utility.yul\":542:679   */\n    tag_52:\n        /* \"#utility.yul\":587:592   */\n      0x00\n        /* \"#utility.yul\":625:631   */\n      dup2\n        /* \"#utility.yul\":612:632   */\n      calldataload\n        /* \"#utility.yul\":603:632   */\n      swap1\n      pop\n        /* \"#utility.yul\":641:673   */\n      tag_81\n        /* \"#utility.yul\":667:672   */\n      dup2\n        /* \"#utility.yul\":641:673   */\n      tag_51\n      jump\t// in\n    tag_81:\n        /* \"#utility.yul\":542:679   */\n      swap3\n      swap2\n      pop\n      pop\n      jump\t// out\n        /* \"#utility.yul\":685:1012   */\n    tag_8:\n        /* \"#utility.yul\":743:749   */\n      0x00\n        /* \"#utility.yul\":792:794   */\n      0x20\n        /* \"#utility.yul\":780:789   */\n      dup3\n        /* \"#utility.yul\":771:778   */\n      dup5\n        /* \"#utility.yul\":767:790   */\n      sub\n        /* \"#utility.yul\":763:795   */\n      slt\n        /* \"#utility.yul\":760:879   */\n      iszero\n      tag_83\n      jumpi\n        /* \"#utility.yul\":798:877   */\n      tag_84\n      tag_48\n      jump\t// in\n    tag_84:\n        /* \"#utility.yul\":760:879   */\n    tag_83:\n        /* \"#utility.yul\":918:919   */\n      0x00\n        /* \"#utility.yul\":943:995   */\n      tag_85\n        /* \"#utility.yul\":987:994   */\n      dup5\n        /* \"#utility.yul\":978:984   */\n      dup3\n        /* \"#utility.yul\":967:976   */\n      dup6\n        /* \"#utility.yul\":963:985   */\n      add\n        /* \"#utility.yul\":943:995   */\n      tag_52\n      jump\t// in\n    tag_85:\n        /* \"#utility.yul\":933:995   */\n      swap2\n      pop\n        /* \"#utility.yul\":889:1005   */\n      pop\n        /* \"#utility.yul\":685:1012   */\n      swap3\n      swap2\n      pop\n      pop\n      jump\t// out\n        /* \"#utility.yul\":1018:1095   */\n    tag_53:\n        /* \"#utility.yul\":1055:1062   */\n      0x00\n        /* \"#utility.yul\":1084:1089   */\n      dup2\n        /* \"#utility.yul\":1073:1089   */\n      swap1\n      pop\n        /* \"#utility.yul\":1018:1095   */\n      swap2\n      swap1\n      pop\n      jump\t// out\n        /* \"#utility.yul\":1101:1219   */\n    tag_54:\n        /* \"#utility.yul\":1188:1212   */\n      tag_88\n        /* \"#utility.yul\":1206:1211   */\n      dup2\n        /* \"#utility.yul\":1188:1212   */\n      tag_53\n      jump\t// in\n    tag_88:\n        /* \"#utility.yul\":1183:1186   */\n      dup3\n        /* \"#utility.yul\":1176:1213   */\n      mstore\n        /* \"#utility.yul\":1101:1219   */\n      pop\n      pop\n      jump\t// out\n        /* \"#utility.yul\":1225:1447   */\n    tag_11:\n        /* \"#utility.yul\":1318:1322   */\n      0x00\n        /* \"#utility.yul\":1356:1358   */\n      0x20\n        /* \"#utility.yul\":1345:1354   */\n      dup3\n        /* \"#utility.yul\":1341:1359   */\n      add\n        /* \"#utility.yul\":1333:1359   */\n      swap1\n      pop\n        /* \"#utility.yul\":1369:1440   */\n      tag_90\n        /* \"#utility.yul\":1437:1438   */\n      0x00\n        /* \"#utility.yul\":1426:1435   */\n      dup4\n        /* \"#utility.yul\":1422:1439   */\n      add\n        /* \"#utility.yul\":1413:1419   */\n      dup5\n        /* \"#utility.yul\":1369:1440   */\n      tag_54\n      jump\t// in\n    tag_90:\n        /* \"#utility.yul\":1225:1447   */\n      swap3\n      swap2\n      pop\n      pop\n      jump\t// out\n        /* \"#utility.yul\":1453:1575   */\n    tag_55:\n        /* \"#utility.yul\":1526:1550   */\n      tag_92\n        /* \"#utility.yul\":1544:1549   */\n      dup2\n        /* \"#utility.yul\":1526:1550   */\n      tag_53\n      jump\t// in\n    tag_92:\n        /* \"#utility.yul\":1519:1524   */\n      dup2\n        /* \"#utility.yul\":1516:1551   */\n      eq\n        /* \"#utility.yul\":1506:1569   */\n      tag_93\n      jumpi\n        /* \"#utility.yul\":1565:1566   */\n      0x00\n        /* \"#utility.yul\":1562:1563   */\n      dup1\n        /* \"#utility.yul\":1555:1567   */\n      revert\n        /* \"#utility.yul\":1506:1569   */\n    tag_93:\n        /* \"#utility.yul\":1453:1575   */\n      pop\n      jump\t// out\n        /* \"#utility.yul\":1581:1720   */\n    tag_56:\n        /* \"#utility.yul\":1627:1632   */\n      0x00\n        /* \"#utility.yul\":1665:1671   */\n      dup2\n        /* \"#utility.yul\":1652:1672   */\n      calldataload\n        /* \"#utility.yul\":1643:1672   */\n      swap1\n      pop\n        /* \"#utility.yul\":1681:1714   */\n      tag_95\n        /* \"#utility.yul\":1708:1713   */\n      dup2\n        /* \"#utility.yul\":1681:1714   */\n      tag_55\n      jump\t// in\n    tag_95:\n        /* \"#utility.yul\":1581:1720   */\n      swap3\n      swap2\n      pop\n      pop\n      jump\t// out\n        /* \"#utility.yul\":1726:2055   */\n    tag_14:\n        /* \"#utility.yul\":1785:1791   */\n      0x00\n        /* \"#utility.yul\":1834:1836   */\n      0x20\n        /* \"#utility.yul\":1822:1831   */\n      dup3\n        /* \"#utility.yul\":1813:1820   */\n      dup5\n        /* \"#utility.yul\":1809:1832   */\n      sub\n        /* \"#utility.yul\":1805:1837   */\n      slt\n        /* \"#utility.yul\":1802:1921   */\n      iszero\n      tag_97\n      jumpi\n        /* \"#utility.yul\":1840:1919   */\n      tag_98\n      tag_48\n      jump\t// in\n    tag_98:\n        /* \"#utility.yul\":1802:1921   */\n    tag_97:\n        /* \"#utility.yul\":1960:1961   */\n      0x00\n        /* \"#utility.yul\":1985:2038   */\n      tag_99\n        /* \"#utility.yul\":2030:2037   */\n      dup5\n        /* \"#utility.yul\":2021:2027   */\n      dup3\n        /* \"#utility.yul\":2010:2019   */\n      dup6\n        /* \"#utility.yul\":2006:2028   */\n      add\n        /* \"#utility.yul\":1985:2038   */\n      tag_56\n      jump\t// in\n    tag_99:\n        /* \"#utility.yul\":1975:2038   */\n      swap2\n      pop\n        /* \"#utility.yul\":1931:2048   */\n      pop\n        /* \"#utility.yul\":1726:2055   */\n      swap3\n      swap2\n      pop\n      pop\n      jump\t// out\n        /* \"#utility.yul\":2061:2160   */\n    tag_57:\n        /* \"#utility.yul\":2113:2119   */\n      0x00\n        /* \"#utility.yul\":2147:2152   */\n      dup2\n        /* \"#utility.yul\":2141:2153   */\n      mload\n        /* \"#utility.yul\":2131:2153   */\n      swap1\n      pop\n        /* \"#utility.yul\":2061:2160   */\n      swap2\n      swap1\n      pop\n      jump\t// out\n        /* \"#utility.yul\":2166:2335   */\n    tag_58:\n        /* \"#utility.yul\":2250:2261   */\n      0x00\n        /* \"#utility.yul\":2284:2290   */\n      dup3\n        /* \"#utility.yul\":2279:2282   */\n      dup3\n        /* \"#utility.yul\":2272:2291   */\n      mstore\n        /* \"#utility.yul\":2324:2328   */\n      0x20\n        /* \"#utility.yul\":2319:2322   */\n      dup3\n        /* \"#utility.yul\":2315:2329   */\n      add\n        /* \"#utility.yul\":2300:2329   */\n      swap1\n      pop\n        /* \"#utility.yul\":2166:2335   */\n      swap3\n      swap2\n      pop\n      pop\n      jump\t// out\n        /* \"#utility.yul\":2341:2587   */\n    tag_59:\n        /* \"#utility.yul\":2422:2423   */\n      0x00\n        /* \"#utility.yul\":2432:2545   */\n    tag_103:\n        /* \"#utility.yul\":2446:2452   */\n      dup4\n        /* \"#utility.yul\":2443:2444   */\n      dup2\n        /* \"#utility.yul\":2440:2453   */\n      lt\n        /* \"#utility.yul\":2432:2545   */\n      iszero\n      tag_105\n      jumpi\n        /* \"#utility.yul\":2531:2532   */\n      dup1\n        /* \"#utility.yul\":2526:2529   */\n      dup3\n        /* \"#utility.yul\":2522:2533   */\n      add\n        /* \"#utility.yul\":2516:2534   */\n      mload\n        /* \"#utility.yul\":2512:2513   */\n      dup2\n        /* \"#utility.yul\":2507:2510   */\n      dup5\n        /* \"#utility.yul\":2503:2514   */\n      add\n        /* \"#utility.yul\":2496:2535   */\n      mstore\n        /* \"#utility.yul\":2468:2470   */\n      0x20\n        /* \"#utility.yul\":2465:2466   */\n      dup2\n        /* \"#utility.yul\":2461:2471   */\n      add\n        /* \"#utility.yul\":2456:2471   */\n      swap1\n      pop\n        /* \"#utility.yul\":2432:2545   */\n      jump(tag_103)\n    tag_105:\n        /* \"#utility.yul\":2579:2580   */\n      0x00\n        /* \"#utility.yul\":2570:2576   */\n      dup5\n        /* \"#utility.yul\":2565:2568   */\n      dup5\n        /* \"#utility.yul\":2561:2577   */\n      add\n        /* \"#utility.yul\":2554:2581   */\n      mstore\n        /* \"#utility.yul\":2403:2587   */\n      pop\n        /* \"#utility.yul\":2341:2587   */\n      pop\n      pop\n      pop\n      jump\t// out\n        /* \"#utility.yul\":2593:2695   */\n    tag_60:\n        /* \"#utility.yul\":2634:2640   */\n      0x00\n        /* \"#utility.yul\":2685:2687   */\n      0x1f\n        /* \"#utility.yul\":2681:2688   */\n      not\n        /* \"#utility.yul\":2676:2678   */\n      0x1f\n        /* \"#utility.yul\":2669:2674   */\n      dup4\n        /* \"#utility.yul\":2665:2679   */\n      add\n        /* \"#utility.yul\":2661:2689   */\n      and\n        /* \"#utility.yul\":2651:2689   */\n      swap1\n      pop\n        /* \"#utility.yul\":2593:2695   */\n      swap2\n      swap1\n      pop\n      jump\t// out\n        /* \"#utility.yul\":2701:3078   */\n    tag_61:\n        /* \"#utility.yul\":2789:2792   */\n      0x00\n        /* \"#utility.yul\":2817:2856   */\n      tag_108\n        /* \"#utility.yul\":2850:2855   */\n      dup3\n        /* \"#utility.yul\":2817:2856   */\n      tag_57\n      jump\t// in\n    tag_108:\n        /* \"#utility.yul\":2872:2943   */\n      tag_109\n        /* \"#utility.yul\":2936:2942   */\n      dup2\n        /* \"#utility.yul\":2931:2934   */\n      dup6\n        /* \"#utility.yul\":2872:2943   */\n      tag_58\n      jump\t// in\n    tag_109:\n        /* \"#utility.yul\":2865:2943   */\n      swap4\n      pop\n        /* \"#utility.yul\":2952:3017   */\n      tag_110\n        /* \"#utility.yul\":3010:3016   */\n      dup2\n        /* \"#utility.yul\":3005:3008   */\n      dup6\n        /* \"#utility.yul\":2998:3002   */\n      0x20\n        /* \"#utility.yul\":2991:2996   */\n      dup7\n        /* \"#utility.yul\":2987:3003   */\n      add\n        /* \"#utility.yul\":2952:3017   */\n      tag_59\n      jump\t// in\n    tag_110:\n        /* \"#utility.yul\":3042:3071   */\n      tag_111\n        /* \"#utility.yul\":3064:3070   */\n      dup2\n        /* \"#utility.yul\":3042:3071   */\n      tag_60\n      jump\t// in\n    tag_111:\n        /* \"#utility.yul\":3037:3040   */\n      dup5\n        /* \"#utility.yul\":3033:3072   */\n      add\n        /* \"#utility.yul\":3026:3072   */\n      swap2\n      pop\n        /* \"#utility.yul\":2793:3078   */\n      pop\n        /* \"#utility.yul\":2701:3078   */\n      swap3\n      swap2\n      pop\n      pop\n      jump\t// out\n        /* \"#utility.yul\":3084:3397   */\n    tag_17:\n        /* \"#utility.yul\":3197:3201   */\n      0x00\n        /* \"#utility.yul\":3235:3237   */\n      0x20\n        /* \"#utility.yul\":3224:3233   */\n      dup3\n        /* \"#utility.yul\":3220:3238   */\n      add\n        /* \"#utility.yul\":3212:3238   */\n      swap1\n      pop\n        /* \"#utility.yul\":3284:3293   */\n      dup2\n        /* \"#utility.yul\":3278:3282   */\n      dup2\n        /* \"#utility.yul\":3274:3294   */\n      sub\n        /* \"#utility.yul\":3270:3271   */\n      0x00\n        /* \"#utility.yul\":3259:3268   */\n      dup4\n        /* \"#utility.yul\":3255:3272   */\n      add\n        /* \"#utility.yul\":3248:3295   */\n      mstore\n        /* \"#utility.yul\":3312:3390   */\n      tag_113\n        /* \"#utility.yul\":3385:3389   */\n      dup2\n        /* \"#utility.yul\":3376:3382   */\n      dup5\n        /* \"#utility.yul\":3312:3390   */\n      tag_61\n      jump\t// in\n    tag_113:\n        /* \"#utility.yul\":3304:3390   */\n      swap1\n      pop\n        /* \"#utility.yul\":3084:3397   */\n      swap3\n      swap2\n      pop\n      pop\n      jump\t// out\n        /* \"#utility.yul\":3403:3520   */\n    tag_62:\n        /* \"#utility.yul\":3512:3513   */\n      0x00\n        /* \"#utility.yul\":3509:3510   */\n      dup1\n        /* \"#utility.yul\":3502:3514   */\n      revert\n        /* \"#utility.yul\":3526:3643   */\n    tag_63:\n        /* \"#utility.yul\":3635:3636   */\n      0x00\n        /* \"#utility.yul\":3632:3633   */\n      dup1\n        /* \"#utility.yul\":3625:3637   */\n      revert\n        /* \"#utility.yul\":3649:3829   */\n    tag_35:\n        /* \"#utility.yul\":3697:3774   */\n      0x4e487b7100000000000000000000000000000000000000000000000000000000\n        /* \"#utility.yul\":3694:3695   */\n      0x00\n        /* \"#utility.yul\":3687:3775   */\n      mstore\n        /* \"#utility.yul\":3794:3798   */\n      0x41\n        /* \"#utility.yul\":3791:3792   */\n      0x04\n        /* \"#utility.yul\":3784:3799   */\n      mstore\n        /* \"#utility.yul\":3818:3822   */\n      0x24\n        /* \"#utility.yul\":3815:3816   */\n      0x00\n        /* \"#utility.yul\":3808:3823   */\n      revert\n        /* \"#utility.yul\":3835:4116   */\n    tag_64:\n        /* \"#utility.yul\":3918:3945   */\n      tag_118\n        /* \"#utility.yul\":3940:3944   */\n      dup3\n        /* \"#utility.yul\":3918:3945   */\n      tag_60\n      jump\t// in\n    tag_118:\n        /* \"#utility.yul\":3910:3916   */\n      dup2\n        /* \"#utility.yul\":3906:3946   */\n      add\n        /* \"#utility.yul\":4048:4054   */\n      dup2\n        /* \"#utility.yul\":4036:4046   */\n      dup2\n        /* \"#utility.yul\":4033:4055   */\n      lt\n        /* \"#utility.yul\":4012:4030   */\n      0xffffffffffffffff\n        /* \"#utility.yul\":4000:4010   */\n      dup3\n        /* \"#utility.yul\":3997:4031   */\n      gt\n        /* \"#utility.yul\":3994:4056   */\n      or\n        /* \"#utility.yul\":3991:4079   */\n      iszero\n      tag_119\n      jumpi\n        /* \"#utility.yul\":4059:4077   */\n      tag_120\n      tag_35\n      jump\t// in\n    tag_120:\n        /* \"#utility.yul\":3991:4079   */\n    tag_119:\n        /* \"#utility.yul\":4099:4109   */\n      dup1\n        /* \"#utility.yul\":4095:4097   */\n      0x40\n        /* \"#utility.yul\":4088:4110   */\n      mstore\n        /* \"#utility.yul\":3878:4116   */\n      pop\n        /* \"#utility.yul\":3835:4116   */\n      pop\n      pop\n      jump\t// out\n        /* \"#utility.yul\":4122:4251   */\n    tag_65:\n        /* \"#utility.yul\":4156:4162   */\n      0x00\n        /* \"#utility.yul\":4183:4203   */\n      tag_122\n      tag_47\n      jump\t// in\n    tag_122:\n        /* \"#utility.yul\":4173:4203   */\n      swap1\n      pop\n        /* \"#utility.yul\":4212:4245   */\n      tag_123\n        /* \"#utility.yul\":4240:4244   */\n      dup3\n        /* \"#utility.yul\":4232:4238   */\n      dup3\n        /* \"#utility.yul\":4212:4245   */\n      tag_64\n      jump\t// in\n    tag_123:\n        /* \"#utility.yul\":4122:4251   */\n      swap2\n      swap1\n      pop\n      jump\t// out\n        /* \"#utility.yul\":4257:4565   */\n    tag_66:\n        /* \"#utility.yul\":4319:4323   */\n      0x00\n        /* \"#utility.yul\":4409:4427   */\n      0xffffffffffffffff\n        /* \"#utility.yul\":4401:4407   */\n      dup3\n        /* \"#utility.yul\":4398:4428   */\n      gt\n        /* \"#utility.yul\":4395:4451   */\n      iszero\n      tag_125\n      jumpi\n        /* \"#utility.yul\":4431:4449   */\n      tag_126\n      tag_35\n      jump\t// in\n    tag_126:\n        /* \"#utility.yul\":4395:4451   */\n    tag_125:\n        /* \"#utility.yul\":4469:4498   */\n      tag_127\n        /* \"#utility.yul\":4491:4497   */\n      dup3\n        /* \"#utility.yul\":4469:4498   */\n      tag_60\n      jump\t// in\n    tag_127:\n        /* \"#utility.yul\":4461:4498   */\n      swap1\n      pop\n        /* \"#utility.yul\":4553:4557   */\n      0x20\n        /* \"#utility.yul\":4547:4551   */\n      dup2\n        /* \"#utility.yul\":4543:4558   */\n      add\n        /* \"#utility.yul\":4535:4558   */\n      swap1\n      pop\n        /* \"#utility.yul\":4257:4565   */\n      swap2\n      swap1\n      pop\n      jump\t// out\n        /* \"#utility.yul\":4571:4717   */\n    tag_67:\n        /* \"#utility.yul\":4668:4674   */\n      dup3\n        /* \"#utility.yul\":4663:4666   */\n      dup2\n        /* \"#utility.yul\":4658:4661   */\n      dup4\n        /* \"#utility.yul\":4645:4675   */\n      calldatacopy\n        /* \"#utility.yul\":4709:4710   */\n      0x00\n        /* \"#utility.yul\":4700:4706   */\n      dup4\n        /* \"#utility.yul\":4695:4698   */\n      dup4\n        /* \"#utility.yul\":4691:4707   */\n      add\n        /* \"#utility.yul\":4684:4711   */\n      mstore\n        /* \"#utility.yul\":4571:4717   */\n      pop\n      pop\n      pop\n      jump\t// out\n        /* \"#utility.yul\":4723:5148   */\n    tag_68:\n        /* \"#utility.yul\":4801:4806   */\n      0x00\n        /* \"#utility.yul\":4826:4892   */\n      tag_130\n        /* \"#utility.yul\":4842:4891   */\n      tag_131\n        /* \"#utility.yul\":4884:4890   */\n      dup5\n        /* \"#utility.yul\":4842:4891   */\n      tag_66\n      jump\t// in\n    tag_131:\n        /* \"#utility.yul\":4826:4892   */\n      tag_65\n      jump\t// in\n    tag_130:\n        /* \"#utility.yul\":4817:4892   */\n      swap1\n      pop\n        /* \"#utility.yul\":4915:4921   */\n      dup3\n        /* \"#utility.yul\":4908:4913   */\n      dup2\n        /* \"#utility.yul\":4901:4922   */\n      mstore\n        /* \"#utility.yul\":4953:4957   */\n      0x20\n        /* \"#utility.yul\":4946:4951   */\n      dup2\n        /* \"#utility.yul\":4942:4958   */\n      add\n        /* \"#utility.yul\":4991:4994   */\n      dup5\n        /* \"#utility.yul\":4982:4988   */\n      dup5\n        /* \"#utility.yul\":4977:4980   */\n      dup5\n        /* \"#utility.yul\":4973:4989   */\n      add\n        /* \"#utility.yul\":4970:4995   */\n      gt\n        /* \"#utility.yul\":4967:5079   */\n      iszero\n      tag_132\n      jumpi\n        /* \"#utility.yul\":4998:5077   */\n      tag_133\n      tag_63\n      jump\t// in\n    tag_133:\n        /* \"#utility.yul\":4967:5079   */\n    tag_132:\n        /* \"#utility.yul\":5088:5142   */\n      tag_134\n        /* \"#utility.yul\":5135:5141   */\n      dup5\n        /* \"#utility.yul\":5130:5133   */\n      dup3\n        /* \"#utility.yul\":5125:5128   */\n      dup6\n        /* \"#utility.yul\":5088:5142   */\n      tag_67\n      jump\t// in\n    tag_134:\n        /* \"#utility.yul\":4807:5148   */\n      pop\n        /* \"#utility.yul\":4723:5148   */\n      swap4\n      swap3\n      pop\n      pop\n      pop\n      jump\t// out\n        /* \"#utility.yul\":5168:5508   */\n    tag_69:\n        /* \"#utility.yul\":5224:5229   */\n      0x00\n        /* \"#utility.yul\":5273:5276   */\n      dup3\n        /* \"#utility.yul\":5266:5270   */\n      0x1f\n        /* \"#utility.yul\":5258:5264   */\n      dup4\n        /* \"#utility.yul\":5254:5271   */\n      add\n        /* \"#utility.yul\":5250:5277   */\n      slt\n        /* \"#utility.yul\":5240:5362   */\n      tag_136\n      jumpi\n        /* \"#utility.yul\":5281:5360   */\n      tag_137\n      tag_62\n      jump\t// in\n    tag_137:\n        /* \"#utility.yul\":5240:5362   */\n    tag_136:\n        /* \"#utility.yul\":5398:5404   */\n      dup2\n        /* \"#utility.yul\":5385:5405   */\n      calldataload\n        /* \"#utility.yul\":5423:5502   */\n      tag_138\n        /* \"#utility.yul\":5498:5501   */\n      dup5\n        /* \"#utility.yul\":5490:5496   */\n      dup3\n        /* \"#utility.yul\":5483:5487   */\n      0x20\n        /* \"#utility.yul\":5475:5481   */\n      dup7\n        /* \"#utility.yul\":5471:5488   */\n      add\n        /* \"#utility.yul\":5423:5502   */\n      tag_68\n      jump\t// in\n    tag_138:\n        /* \"#utility.yul\":5414:5502   */\n      swap2\n      pop\n        /* \"#utility.yul\":5230:5508   */\n      pop\n        /* \"#utility.yul\":5168:5508   */\n      swap3\n      swap2\n      pop\n      pop\n      jump\t// out\n        /* \"#utility.yul\":5514:6023   */\n    tag_20:\n        /* \"#utility.yul\":5583:5589   */\n      0x00\n        /* \"#utility.yul\":5632:5634   */\n      0x20\n        /* \"#utility.yul\":5620:5629   */\n      dup3\n        /* \"#utility.yul\":5611:5618   */\n      dup5\n        /* \"#utility.yul\":5607:5630   */\n      sub\n        /* \"#utility.yul\":5603:5635   */\n      slt\n        /* \"#utility.yul\":5600:5719   */\n      iszero\n      tag_140\n      jumpi\n        /* \"#utility.yul\":5638:5717   */\n      tag_141\n      tag_48\n      jump\t// in\n    tag_141:\n        /* \"#utility.yul\":5600:5719   */\n    tag_140:\n        /* \"#utility.yul\":5786:5787   */\n      0x00\n        /* \"#utility.yul\":5775:5784   */\n      dup3\n        /* \"#utility.yul\":5771:5788   */\n      add\n        /* \"#utility.yul\":5758:5789   */\n      calldataload\n        /* \"#utility.yul\":5816:5834   */\n      0xffffffffffffffff\n        /* \"#utility.yul\":5808:5814   */\n      dup2\n        /* \"#utility.yul\":5805:5835   */\n      gt\n        /* \"#utility.yul\":5802:5919   */\n      iszero\n      tag_142\n      jumpi\n        /* \"#utility.yul\":5838:5917   */\n      tag_143\n      tag_49\n      jump\t// in\n    tag_143:\n        /* \"#utility.yul\":5802:5919   */\n    tag_142:\n        /* \"#utility.yul\":5943:6006   */\n      tag_144\n        /* \"#utility.yul\":5998:6005   */\n      dup5\n        /* \"#utility.yul\":5989:5995   */\n      dup3\n        /* \"#utility.yul\":5978:5987   */\n      dup6\n        /* \"#utility.yul\":5974:5996   */\n      add\n        /* \"#utility.yul\":5943:6006   */\n      tag_69\n      jump\t// in\n    tag_144:\n        /* \"#utility.yul\":5933:6006   */\n      swap2\n      pop\n        /* \"#utility.yul\":5729:6016   */\n      pop\n        /* \"#utility.yul\":5514:6023   */\n      swap3\n      swap2\n      pop\n      pop\n      jump\t// out\n        /* \"#utility.yul\":6029:6209   */\n    tag_30:\n        /* \"#utility.yul\":6077:6154   */\n      0x4e487b7100000000000000000000000000000000000000000000000000000000\n        /* \"#utility.yul\":6074:6075   */\n      0x00\n        /* \"#utility.yul\":6067:6155   */\n      mstore\n        /* \"#utility.yul\":6174:6178   */\n      0x32\n        /* \"#utility.yul\":6171:6172   */\n      0x04\n        /* \"#utility.yul\":6164:6179   */\n      mstore\n        /* \"#utility.yul\":6198:6202   */\n      0x24\n        /* \"#utility.yul\":6195:6196   */\n      0x00\n        /* \"#utility.yul\":6188:6203   */\n      revert\n        /* \"#utility.yul\":6215:6395   */\n    tag_70:\n        /* \"#utility.yul\":6263:6340   */\n      0x4e487b7100000000000000000000000000000000000000000000000000000000\n        /* \"#utility.yul\":6260:6261   */\n      0x00\n        /* \"#utility.yul\":6253:6341   */\n      mstore\n        /* \"#utility.yul\":6360:6364   */\n      0x11\n        /* \"#utility.yul\":6357:6358   */\n      0x04\n        /* \"#utility.yul\":6350:6365   */\n      mstore\n        /* \"#utility.yul\":6384:6388   */\n      0x24\n        /* \"#utility.yul\":6381:6382   */\n      0x00\n        /* \"#utility.yul\":6374:6389   */\n      revert\n        /* \"#utility.yul\":6401:6487   */\n    tag_71:\n        /* \"#utility.yul\":6436:6443   */\n      0x00\n        /* \"#utility.yul\":6476:6480   */\n      0xff\n        /* \"#utility.yul\":6469:6474   */\n      dup3\n        /* \"#utility.yul\":6465:6481   */\n      and\n        /* \"#utility.yul\":6454:6481   */\n      swap1\n      pop\n        /* \"#utility.yul\":6401:6487   */\n      swap2\n      swap1\n      pop\n      jump\t// out\n        /* \"#utility.yul\":6493:6660   */\n    tag_32:\n        /* \"#utility.yul\":6530:6533   */\n      0x00\n        /* \"#utility.yul\":6553:6575   */\n      tag_149\n        /* \"#utility.yul\":6569:6574   */\n      dup3\n        /* \"#utility.yul\":6553:6575   */\n      tag_71\n      jump\t// in\n    tag_149:\n        /* \"#utility.yul\":6544:6575   */\n      swap2\n      pop\n        /* \"#utility.yul\":6597:6601   */\n      0xff\n        /* \"#utility.yul\":6590:6595   */\n      dup3\n        /* \"#utility.yul\":6587:6602   */\n      sub\n        /* \"#utility.yul\":6584:6625   */\n      tag_150\n      jumpi\n        /* \"#utility.yul\":6605:6623   */\n      tag_151\n      tag_70\n      jump\t// in\n    tag_151:\n        /* \"#utility.yul\":6584:6625   */\n    tag_150:\n        /* \"#utility.yul\":6652:6653   */\n      0x01\n        /* \"#utility.yul\":6645:6650   */\n      dup3\n        /* \"#utility.yul\":6641:6654   */\n      add\n        /* \"#utility.yul\":6634:6654   */\n      swap1\n      pop\n        /* \"#utility.yul\":6493:6660   */\n      swap2\n      swap1\n      pop\n      jump\t// out\n\n    auxdata: 0xa2646970667358221220542b1df60f1adbf208e371ea1b7018ac88b85cb55c889c96bb65f35f2473bf9864736f6c63430008120033\n}\n",
				"bytecode": {
					"linkReferences": {},
					"object": "608060405234801561001057600080fd5b5061065b806100206000396000f3fe608060405234801561001057600080fd5b50600436106100415760003560e01c80638e4a01bd146100465780639201de5514610076578063cfb51928146100a6575b600080fd5b610060600480360381019061005b91906102a7565b6100d6565b60405161006d91906102ed565b60405180910390f35b610090600480360381019061008b9190610334565b6100e3565b60405161009d91906103f1565b60405180910390f35b6100c060048036038101906100bb9190610548565b610234565b6040516100cd91906102ed565b60405180910390f35b60008160001b9050919050565b606060005b60208160ff1610801561013a5750600060f81b838260ff166020811061011157610110610591565b5b1a60f81b7effffffffffffffffffffffffffffffffffffffffffffffffffffffffffffff191614155b1561015257808061014a906105fc565b9150506100e8565b60008160ff1667ffffffffffffffff8111156101715761017061041d565b5b6040519080825280601f01601f1916602001820160405280156101a35781602001600182028036833780820191505090505b50905060005b8260ff168160ff16101561022957848160ff16602081106101cd576101cc610591565b5b1a60f81b828260ff16815181106101e7576101e6610591565b5b60200101907effffffffffffffffffffffffffffffffffffffffffffffffffffffffffffff1916908160001a9053508080610221906105fc565b9150506101a9565b508092505050919050565b600080829050600081510361024f576000801b915050610258565b60208301519150505b919050565b6000604051905090565b600080fd5b600080fd5b6000819050919050565b61028481610271565b811461028f57600080fd5b50565b6000813590506102a18161027b565b92915050565b6000602082840312156102bd576102bc610267565b5b60006102cb84828501610292565b91505092915050565b6000819050919050565b6102e7816102d4565b82525050565b600060208201905061030260008301846102de565b92915050565b610311816102d4565b811461031c57600080fd5b50565b60008135905061032e81610308565b92915050565b60006020828403121561034a57610349610267565b5b60006103588482850161031f565b91505092915050565b600081519050919050565b600082825260208201905092915050565b60005b8381101561039b578082015181840152602081019050610380565b60008484015250505050565b6000601f19601f8301169050919050565b60006103c382610361565b6103cd818561036c565b93506103dd81856020860161037d565b6103e6816103a7565b840191505092915050565b6000602082019050818103600083015261040b81846103b8565b905092915050565b600080fd5b600080fd5b7f4e487b7100000000000000000000000000000000000000000000000000000000600052604160045260246000fd5b610455826103a7565b810181811067ffffffffffffffff821117156104745761047361041d565b5b80604052505050565b600061048761025d565b9050610493828261044c565b919050565b600067ffffffffffffffff8211156104b3576104b261041d565b5b6104bc826103a7565b9050602081019050919050565b82818337600083830152505050565b60006104eb6104e684610498565b61047d565b90508281526020810184848401111561050757610506610418565b5b6105128482856104c9565b509392505050565b600082601f83011261052f5761052e610413565b5b813561053f8482602086016104d8565b91505092915050565b60006020828403121561055e5761055d610267565b5b600082013567ffffffffffffffff81111561057c5761057b61026c565b5b6105888482850161051a565b91505092915050565b7f4e487b7100000000000000000000000000000000000000000000000000000000600052603260045260246000fd5b7f4e487b7100000000000000000000000000000000000000000000000000000000600052601160045260246000fd5b600060ff82169050919050565b6000610607826105ef565b915060ff820361061a576106196105c0565b5b60018201905091905056fea2646970667358221220542b1df60f1adbf208e371ea1b7018ac88b85cb55c889c96bb65f35f2473bf9864736f6c63430008120033",
					"opcodes": "PUSH1 0x80 PUSH1 0x40 MSTORE CALLVALUE DUP1 ISZERO PUSH2 0x10 JUMPI PUSH1 0x0 DUP1 REVERT JUMPDEST POP PUSH2 0x65B DUP1 PUSH2 0x20 PUSH1 0x0 CODECOPY PUSH1 0x0 RETURN INVALID PUSH1 0x80 PUSH1 0x40 MSTORE CALLVALUE DUP1 ISZERO PUSH2 0x10 JUMPI PUSH1 0x0 DUP1 REVERT JUMPDEST POP PUSH1 0x4 CALLDATASIZE LT PUSH2 0x41 JUMPI PUSH1 0x0 CALLDATALOAD PUSH1 0xE0 SHR DUP1 PUSH4 0x8E4A01BD EQ PUSH2 0x46 JUMPI DUP1 PUSH4 0x9201DE55 EQ PUSH2 0x76 JUMPI DUP1 PUSH4 0xCFB51928 EQ PUSH2 0xA6 JUMPI JUMPDEST PUSH1 0x0 DUP1 REVERT JUMPDEST PUSH2 0x60 PUSH1 0x4 DUP1 CALLDATASIZE SUB DUP2 ADD SWAP1 PUSH2 0x5B SWAP2 SWAP1 PUSH2 0x2A7 JUMP JUMPDEST PUSH2 0xD6 JUMP JUMPDEST PUSH1 0x40 MLOAD PUSH2 0x6D SWAP2 SWAP1 PUSH2 0x2ED JUMP JUMPDEST PUSH1 0x40 MLOAD DUP1 SWAP2 SUB SWAP1 RETURN JUMPDEST PUSH2 0x90 PUSH1 0x4 DUP1 CALLDATASIZE SUB DUP2 ADD SWAP1 PUSH2 0x8B SWAP2 SWAP1 PUSH2 0x334 JUMP JUMPDEST PUSH2 0xE3 JUMP JUMPDEST PUSH1 0x40 MLOAD PUSH2 0x9D SWAP2 SWAP1 PUSH2 0x3F1 JUMP JUMPDEST PUSH1 0x40 MLOAD DUP1 SWAP2 SUB SWAP1 RETURN JUMPDEST PUSH2 0xC0 PUSH1 0x4 DUP1 CALLDATASIZE SUB DUP2 ADD SWAP1 PUSH2 0xBB SWAP2 SWAP1 PUSH2 0x548 JUMP JUMPDEST PUSH2 0x234 JUMP JUMPDEST PUSH1 0x40 MLOAD PUSH2 0xCD SWAP2 SWAP1 PUSH2 0x2ED JUMP JUMPDEST PUSH1 0x40 MLOAD DUP1 SWAP2 SUB SWAP1 RETURN JUMPDEST PUSH1 0x0 DUP2 PUSH1 0x0 SHL SWAP1 POP SWAP2 SWAP1 POP JUMP JUMPDEST PUSH1 0x60 PUSH1 0x0 JUMPDEST PUSH1 0x20 DUP2 PUSH1 0xFF AND LT DUP1 ISZERO PUSH2 0x13A JUMPI POP PUSH1 0x0 PUSH1 0xF8 SHL DUP4 DUP3 PUSH1 0xFF AND PUSH1 0x20 DUP2 LT PUSH2 0x111 JUMPI PUSH2 0x110 PUSH2 0x591 JUMP JUMPDEST JUMPDEST BYTE PUSH1 0xF8 SHL PUSH31 0xFFFFFFFFFFFFFFFFFFFFFFFFFFFFFFFFFFFFFFFFFFFFFFFFFFFFFFFFFFFFFF NOT AND EQ ISZERO JUMPDEST ISZERO PUSH2 0x152 JUMPI DUP1 DUP1 PUSH2 0x14A SWAP1 PUSH2 0x5FC JUMP JUMPDEST SWAP2 POP POP PUSH2 0xE8 JUMP JUMPDEST PUSH1 0x0 DUP2 PUSH1 0xFF AND PUSH8 0xFFFFFFFFFFFFFFFF DUP2 GT ISZERO PUSH2 0x171 JUMPI PUSH2 0x170 PUSH2 0x41D JUMP JUMPDEST JUMPDEST PUSH1 0x40 MLOAD SWAP1 DUP1 DUP3 MSTORE DUP1 PUSH1 0x1F ADD PUSH1 0x1F NOT AND PUSH1 0x20 ADD DUP3 ADD PUSH1 0x40 MSTORE DUP1 ISZERO PUSH2 0x1A3 JUMPI DUP2 PUSH1 0x20 ADD PUSH1 0x1 DUP3 MUL DUP1 CALLDATASIZE DUP4 CALLDATACOPY DUP1 DUP3 ADD SWAP2 POP POP SWAP1 POP JUMPDEST POP SWAP1 POP PUSH1 0x0 JUMPDEST DUP3 PUSH1 0xFF AND DUP2 PUSH1 0xFF AND LT ISZERO PUSH2 0x229 JUMPI DUP5 DUP2 PUSH1 0xFF AND PUSH1 0x20 DUP2 LT PUSH2 0x1CD JUMPI PUSH2 0x1CC PUSH2 0x591 JUMP JUMPDEST JUMPDEST BYTE PUSH1 0xF8 SHL DUP3 DUP3 PUSH1 0xFF AND DUP2 MLOAD DUP2 LT PUSH2 0x1E7 JUMPI PUSH2 0x1E6 PUSH2 0x591 JUMP JUMPDEST JUMPDEST PUSH1 0x20 ADD ADD SWAP1 PUSH31 0xFFFFFFFFFFFFFFFFFFFFFFFFFFFFFFFFFFFFFFFFFFFFFFFFFFFFFFFFFFFFFF NOT AND SWAP1 DUP2 PUSH1 0x0 BYTE SWAP1 MSTORE8 POP DUP1 DUP1 PUSH2 0x221 SWAP1 PUSH2 0x5FC JUMP JUMPDEST SWAP2 POP POP PUSH2 0x1A9 JUMP JUMPDEST POP DUP1 SWAP3 POP POP POP SWAP2 SWAP1 POP JUMP JUMPDEST PUSH1 0x0 DUP1 DUP3 SWAP1 POP PUSH1 0x0 DUP2 MLOAD SUB PUSH2 0x24F JUMPI PUSH1 0x0 DUP1 SHL SWAP2 POP POP PUSH2 0x258 JUMP JUMPDEST PUSH1 0x20 DUP4 ADD MLOAD SWAP2 POP POP JUMPDEST SWAP2 SWAP1 POP JUMP JUMPDEST PUSH1 0x0 PUSH1 0x40 MLOAD SWAP1 POP SWAP1 JUMP JUMPDEST PUSH1 0x0 DUP1 REVERT JUMPDEST PUSH1 0x0 DUP1 REVERT JUMPDEST PUSH1 0x0 DUP2 SWAP1 POP SWAP2 SWAP1 POP JUMP JUMPDEST PUSH2 0x284 DUP2 PUSH2 0x271 JUMP JUMPDEST DUP2 EQ PUSH2 0x28F JUMPI PUSH1 0x0 DUP1 REVERT JUMPDEST POP JUMP JUMPDEST PUSH1 0x0 DUP2 CALLDATALOAD SWAP1 POP PUSH2 0x2A1 DUP2 PUSH2 0x27B JUMP JUMPDEST SWAP3 SWAP2 POP POP JUMP JUMPDEST PUSH1 0x0 PUSH1 0x20 DUP3 DUP5 SUB SLT ISZERO PUSH2 0x2BD JUMPI PUSH2 0x2BC PUSH2 0x267 JUMP JUMPDEST JUMPDEST PUSH1 0x0 PUSH2 0x2CB DUP5 DUP3 DUP6 ADD PUSH2 0x292 JUMP JUMPDEST SWAP2 POP POP SWAP3 SWAP2 POP POP JUMP JUMPDEST PUSH1 0x0 DUP2 SWAP1 POP SWAP2 SWAP1 POP JUMP JUMPDEST PUSH2 0x2E7 DUP2 PUSH2 0x2D4 JUMP JUMPDEST DUP3 MSTORE POP POP JUMP JUMPDEST PUSH1 0x0 PUSH1 0x20 DUP3 ADD SWAP1 POP PUSH2 0x302 PUSH1 0x0 DUP4 ADD DUP5 PUSH2 0x2DE JUMP JUMPDEST SWAP3 SWAP2 POP POP JUMP JUMPDEST PUSH2 0x311 DUP2 PUSH2 0x2D4 JUMP JUMPDEST DUP2 EQ PUSH2 0x31C JUMPI PUSH1 0x0 DUP1 REVERT JUMPDEST POP JUMP JUMPDEST PUSH1 0x0 DUP2 CALLDATALOAD SWAP1 POP PUSH2 0x32E DUP2 PUSH2 0x308 JUMP JUMPDEST SWAP3 SWAP2 POP POP JUMP JUMPDEST PUSH1 0x0 PUSH1 0x20 DUP3 DUP5 SUB SLT ISZERO PUSH2 0x34A JUMPI PUSH2 0x349 PUSH2 0x267 JUMP JUMPDEST JUMPDEST PUSH1 0x0 PUSH2 0x358 DUP5 DUP3 DUP6 ADD PUSH2 0x31F JUMP JUMPDEST SWAP2 POP POP SWAP3 SWAP2 POP POP JUMP JUMPDEST PUSH1 0x0 DUP2 MLOAD SWAP1 POP SWAP2 SWAP1 POP JUMP JUMPDEST PUSH1 0x0 DUP3 DUP3 MSTORE PUSH1 0x20 DUP3 ADD SWAP1 POP SWAP3 SWAP2 POP POP JUMP JUMPDEST PUSH1 0x0 JUMPDEST DUP4 DUP2 LT ISZERO PUSH2 0x39B JUMPI DUP1 DUP3 ADD MLOAD DUP2 DUP5 ADD MSTORE PUSH1 0x20 DUP2 ADD SWAP1 POP PUSH2 0x380 JUMP JUMPDEST PUSH1 0x0 DUP5 DUP5 ADD MSTORE POP POP POP POP JUMP JUMPDEST PUSH1 0x0 PUSH1 0x1F NOT PUSH1 0x1F DUP4 ADD AND SWAP1 POP SWAP2 SWAP1 POP JUMP JUMPDEST PUSH1 0x0 PUSH2 0x3C3 DUP3 PUSH2 0x361 JUMP JUMPDEST PUSH2 0x3CD DUP2 DUP6 PUSH2 0x36C JUMP JUMPDEST SWAP4 POP PUSH2 0x3DD DUP2 DUP6 PUSH1 0x20 DUP7 ADD PUSH2 0x37D JUMP JUMPDEST PUSH2 0x3E6 DUP2 PUSH2 0x3A7 JUMP JUMPDEST DUP5 ADD SWAP2 POP POP SWAP3 SWAP2 POP POP JUMP JUMPDEST PUSH1 0x0 PUSH1 0x20 DUP3 ADD SWAP1 POP DUP2 DUP2 SUB PUSH1 0x0 DUP4 ADD MSTORE PUSH2 0x40B DUP2 DUP5 PUSH2 0x3B8 JUMP JUMPDEST SWAP1 POP SWAP3 SWAP2 POP POP JUMP JUMPDEST PUSH1 0x0 DUP1 REVERT JUMPDEST PUSH1 0x0 DUP1 REVERT JUMPDEST PUSH32 0x4E487B7100000000000000000000000000000000000000000000000000000000 PUSH1 0x0 MSTORE PUSH1 0x41 PUSH1 0x4 MSTORE PUSH1 0x24 PUSH1 0x0 REVERT JUMPDEST PUSH2 0x455 DUP3 PUSH2 0x3A7 JUMP JUMPDEST DUP2 ADD DUP2 DUP2 LT PUSH8 0xFFFFFFFFFFFFFFFF DUP3 GT OR ISZERO PUSH2 0x474 JUMPI PUSH2 0x473 PUSH2 0x41D JUMP JUMPDEST JUMPDEST DUP1 PUSH1 0x40 MSTORE POP POP POP JUMP JUMPDEST PUSH1 0x0 PUSH2 0x487 PUSH2 0x25D JUMP JUMPDEST SWAP1 POP PUSH2 0x493 DUP3 DUP3 PUSH2 0x44C JUMP JUMPDEST SWAP2 SWAP1 POP JUMP JUMPDEST PUSH1 0x0 PUSH8 0xFFFFFFFFFFFFFFFF DUP3 GT ISZERO PUSH2 0x4B3 JUMPI PUSH2 0x4B2 PUSH2 0x41D JUMP JUMPDEST JUMPDEST PUSH2 0x4BC DUP3 PUSH2 0x3A7 JUMP JUMPDEST SWAP1 POP PUSH1 0x20 DUP2 ADD SWAP1 POP SWAP2 SWAP1 POP JUMP JUMPDEST DUP3 DUP2 DUP4 CALLDATACOPY PUSH1 0x0 DUP4 DUP4 ADD MSTORE POP POP POP JUMP JUMPDEST PUSH1 0x0 PUSH2 0x4EB PUSH2 0x4E6 DUP5 PUSH2 0x498 JUMP JUMPDEST PUSH2 0x47D JUMP JUMPDEST SWAP1 POP DUP3 DUP2 MSTORE PUSH1 0x20 DUP2 ADD DUP5 DUP5 DUP5 ADD GT ISZERO PUSH2 0x507 JUMPI PUSH2 0x506 PUSH2 0x418 JUMP JUMPDEST JUMPDEST PUSH2 0x512 DUP5 DUP3 DUP6 PUSH2 0x4C9 JUMP JUMPDEST POP SWAP4 SWAP3 POP POP POP JUMP JUMPDEST PUSH1 0x0 DUP3 PUSH1 0x1F DUP4 ADD SLT PUSH2 0x52F JUMPI PUSH2 0x52E PUSH2 0x413 JUMP JUMPDEST JUMPDEST DUP2 CALLDATALOAD PUSH2 0x53F DUP5 DUP3 PUSH1 0x20 DUP7 ADD PUSH2 0x4D8 JUMP JUMPDEST SWAP2 POP POP SWAP3 SWAP2 POP POP JUMP JUMPDEST PUSH1 0x0 PUSH1 0x20 DUP3 DUP5 SUB SLT ISZERO PUSH2 0x55E JUMPI PUSH2 0x55D PUSH2 0x267 JUMP JUMPDEST JUMPDEST PUSH1 0x0 DUP3 ADD CALLDATALOAD PUSH8 0xFFFFFFFFFFFFFFFF DUP2 GT ISZERO PUSH2 0x57C JUMPI PUSH2 0x57B PUSH2 0x26C JUMP JUMPDEST JUMPDEST PUSH2 0x588 DUP5 DUP3 DUP6 ADD PUSH2 0x51A JUMP JUMPDEST SWAP2 POP POP SWAP3 SWAP2 POP POP JUMP JUMPDEST PUSH32 0x4E487B7100000000000000000000000000000000000000000000000000000000 PUSH1 0x0 MSTORE PUSH1 0x32 PUSH1 0x4 MSTORE PUSH1 0x24 PUSH1 0x0 REVERT JUMPDEST PUSH32 0x4E487B7100000000000000000000000000000000000000000000000000000000 PUSH1 0x0 MSTORE PUSH1 0x11 PUSH1 0x4 MSTORE PUSH1 0x24 PUSH1 0x0 REVERT JUMPDEST PUSH1 0x0 PUSH1 0xFF DUP3 AND SWAP1 POP SWAP2 SWAP1 POP JUMP JUMPDEST PUSH1 0x0 PUSH2 0x607 DUP3 PUSH2 0x5EF JUMP JUMPDEST SWAP2 POP PUSH1 0xFF DUP3 SUB PUSH2 0x61A JUMPI PUSH2 0x619 PUSH2 0x5C0 JUMP JUMPDEST JUMPDEST PUSH1 0x1 DUP3 ADD SWAP1 POP SWAP2 SWAP1 POP JUMP INVALID LOG2 PUSH5 0x6970667358 0x22 SLT KECCAK256 SLOAD 0x2B SAR 0xF6 0xF BYTE 0xDB CALLCODE ADDMOD 0xE3 PUSH18 0xEA1B7018AC88B85CB55C889C96BB65F35F24 PUSH20 0xBF9864736F6C6343000812003300000000000000 "
				},
				"gasEstimates": {
					"creation": {
						"codeDepositCost": "325400",
						"executionCost": "362",
						"totalCost": "325762"
					},
					"external": {
						"bytes32ToString(bytes32)": "infinite",
						"intToBytes32(int256)": "586",
						"stringToBytes32(string)": "infinite"
					}
				},
				"methodIdentifiers": {
					"bytes32ToString(bytes32)": "9201de55",
					"intToBytes32(int256)": "8e4a01bd",
					"stringToBytes32(string)": "cfb51928"
				}
			},
			"storageLayout": {
				"storage": [],
				"types": null
			},
			"userdoc": {
				"kind": "user",
				"methods": {},
				"version": 1
			}
		}
	}
}