{
	"data": {
		"bytecode": {
			"linkReferences": {},
			"object": "60806040523480156200001157600080fd5b50604051620031a7380380620031a783398181016040528101906200003791906200033b565b89600160006101000a81548173ffffffffffffffffffffffffffffffffffffffff021916908373ffffffffffffffffffffffffffffffffffffffff16021790555088600260006101000a81548173ffffffffffffffffffffffffffffffffffffffff021916908373ffffffffffffffffffffffffffffffffffffffff16021790555087600360006101000a81548173ffffffffffffffffffffffffffffffffffffffff021916908373ffffffffffffffffffffffffffffffffffffffff16021790555086600460006101000a81548173ffffffffffffffffffffffffffffffffffffffff021916908373ffffffffffffffffffffffffffffffffffffffff16021790555085600560006101000a81548173ffffffffffffffffffffffffffffffffffffffff021916908373ffffffffffffffffffffffffffffffffffffffff16021790555084600660006101000a81548173ffffffffffffffffffffffffffffffffffffffff021916908373ffffffffffffffffffffffffffffffffffffffff16021790555083600760006101000a81548173ffffffffffffffffffffffffffffffffffffffff021916908373ffffffffffffffffffffffffffffffffffffffff16021790555082600860006101000a81548173ffffffffffffffffffffffffffffffffffffffff021916908373ffffffffffffffffffffffffffffffffffffffff16021790555081600960006101000a81548173ffffffffffffffffffffffffffffffffffffffff021916908373ffffffffffffffffffffffffffffffffffffffff16021790555080600a60006101000a81548173ffffffffffffffffffffffffffffffffffffffff021916908373ffffffffffffffffffffffffffffffffffffffff1602179055505050505050505050505062000431565b600080fd5b600073ffffffffffffffffffffffffffffffffffffffff82169050919050565b60006200030382620002d6565b9050919050565b6200031581620002f6565b81146200032157600080fd5b50565b60008151905062000335816200030a565b92915050565b6000806000806000806000806000806101408b8d031215620003625762000361620002d1565b5b6000620003728d828e0162000324565b9a50506020620003858d828e0162000324565b9950506040620003988d828e0162000324565b9850506060620003ab8d828e0162000324565b9750506080620003be8d828e0162000324565b96505060a0620003d18d828e0162000324565b95505060c0620003e48d828e0162000324565b94505060e0620003f78d828e0162000324565b9350506101006200040b8d828e0162000324565b9250506101206200041f8d828e0162000324565b9150509295989b9194979a5092959850565b612d6680620004416000396000f3fe608060405234801561001057600080fd5b50600436106100ea5760003560e01c80636d762e7b1161008c578063a511b07711610066578063a511b0771461023f578063a6a1d0c51461025d578063e064d1991461027b578063fb9c260614610299576100ea565b80636d762e7b146101e757806380cbba5b1461020557806399eb0dbc14610223576100ea565b80633df81812116100c85780633df81812146101495780634a6943ab1461017d5780635a14fa8b1461019b57806361c6e151146101cb576100ea565b806301f74982146100ef5780631f45275b1461010d57806324250b161461012b575b600080fd5b6100f76102b7565b6040516101049190611fbb565b60405180910390f35b6101156102dd565b6040516101229190611ff7565b60405180910390f35b610133610303565b6040516101409190612033565b60405180910390f35b610163600480360381019061015e9190612089565b610329565b6040516101749594939291906120e8565b60405180910390f35b61018561036f565b604051610192919061215c565b60405180910390f35b6101b560048036038101906101b091906121cf565b610395565b6040516101c29190612443565b60405180910390f35b6101e560048036038101906101e09190612465565b6109ab565b005b6101ef610a3d565b6040516101fc91906124ed565b60405180910390f35b61020d610a63565b60405161021a9190612529565b60405180910390f35b61023d60048036038101906102389190612544565b610a89565b005b610247610b3c565b60405161025491906125b8565b60405180910390f35b610265610b62565b60405161027291906125f4565b60405180910390f35b610283610b88565b6040516102909190612630565b60405180910390f35b6102a1610bae565b6040516102ae919061266c565b60405180910390f35b600860009054906101000a900473ffffffffffffffffffffffffffffffffffffffff1681565b600160009054906101000a900473ffffffffffffffffffffffffffffffffffffffff1681565b600760009054906101000a900473ffffffffffffffffffffffffffffffffffffffff1681565b6000818154811061033957600080fd5b90600052602060002090600502016000915090508060000154908060010154908060020154908060030154908060040154905085565b600960009054906101000a900473ffffffffffffffffffffffffffffffffffffffff1681565b61039d611ef4565b6000600160009054906101000a900473ffffffffffffffffffffffffffffffffffffffff1673ffffffffffffffffffffffffffffffffffffffff1663578cb8f96040518163ffffffff1660e01b8152600401602060405180830381865afa15801561040c573d6000803e3d6000fd5b505050506040513d601f19601f82011682018060405250810190610430919061269c565b905060008167ffffffffffffffff81111561044e5761044d6126c9565b5b60405190808252806020026020018201604052801561047c5781602001602082028036833780820191505090505b50905060008267ffffffffffffffff81111561049b5761049a6126c9565b5b6040519080825280602002602001820160405280156104c95781602001602082028036833780820191505090505b50905060008367ffffffffffffffff8111156104e8576104e76126c9565b5b6040519080825280602002602001820160405280156105165781602001602082028036833780820191505090505b50905060003390506000805b86811015610798576000600160009054906101000a900473ffffffffffffffffffffffffffffffffffffffff1673ffffffffffffffffffffffffffffffffffffffff1663fadc6bc6836040518263ffffffff1660e01b81526004016105879190612707565b602060405180830381865afa1580156105a4573d6000803e3d6000fd5b505050506040513d601f19601f820116820180604052508101906105c89190612737565b90508b81121580156105da57508a8113155b1561078457600160009054906101000a900473ffffffffffffffffffffffffffffffffffffffff1673ffffffffffffffffffffffffffffffffffffffff1663e09576f0836040518263ffffffff1660e01b815260040161063a9190612707565b602060405180830381865afa158015610657573d6000803e3d6000fd5b505050506040513d601f19601f8201168201806040525081019061067b9190612779565b87848151811061068e5761068d6127a6565b5b602002602001018181525050600160009054906101000a900473ffffffffffffffffffffffffffffffffffffffff1673ffffffffffffffffffffffffffffffffffffffff16639b4e3420836040518263ffffffff1660e01b81526004016106f59190612707565b602060405180830381865afa158015610712573d6000803e3d6000fd5b505050506040513d601f19601f820116820180604052508101906107369190612779565b868481518110610749576107486127a6565b5b60200260200101818152505080858481518110610769576107686127a6565b5b602002602001018181525050828061078090612804565b9350505b50808061079090612804565b915050610522565b5060008167ffffffffffffffff8111156107b5576107b46126c9565b5b6040519080825280602002602001820160405280156107e35781602001602082028036833780820191505090505b50905060008267ffffffffffffffff811115610802576108016126c9565b5b6040519080825280602002602001820160405280156108305781602001602082028036833780820191505090505b50905060008367ffffffffffffffff81111561084f5761084e6126c9565b5b60405190808252806020026020018201604052801561087d5781602001602082028036833780820191505090505b50905060005b8481101561094c5788818151811061089e5761089d6127a6565b5b60200260200101518482815181106108b9576108b86127a6565b5b6020026020010181815250508781815181106108d8576108d76127a6565b5b60200260200101518382815181106108f3576108f26127a6565b5b602002602001018181525050868181518110610912576109116127a6565b5b602002602001015182828151811061092d5761092c6127a6565b5b602002602001018181525050808061094490612804565b915050610883565b5060006040518060a001604052808581526020018481526020018381526020018773ffffffffffffffffffffffffffffffffffffffff1681526020018d815250905061099781610bd4565b809a50505050505050505050509392505050565b60006040518060a001604052804281526020018681526020018581526020018481526020018381525090506000819080600181540180825580915050600190039060005260206000209060050201600090919091909150600082015181600001556020820151816001015560408201518160020155606082015181600301556080820151816004015550505050505050565b600a60009054906101000a900473ffffffffffffffffffffffffffffffffffffffff1681565b600560009054906101000a900473ffffffffffffffffffffffffffffffffffffffff1681565b610b378360001b8360001b8360001b600260009054906101000a900473ffffffffffffffffffffffffffffffffffffffff1673ffffffffffffffffffffffffffffffffffffffff1663cfb519286040518163ffffffff1660e01b8152600401610af1906128a9565b602060405180830381865afa158015610b0e573d6000803e3d6000fd5b505050506040513d601f19601f82011682018060405250810190610b329190612779565b6109ab565b505050565b600660009054906101000a900473ffffffffffffffffffffffffffffffffffffffff1681565b600460009054906101000a900473ffffffffffffffffffffffffffffffffffffffff1681565b600260009054906101000a900473ffffffffffffffffffffffffffffffffffffffff1681565b600360009054906101000a900473ffffffffffffffffffffffffffffffffffffffff1681565b6000806001600080549050610be991906128c9565b81548110610bfa57610bf96127a6565b5b90600052602060002090600502016040518060a00160405290816000820154815260200160018201548152602001600282015481526020016003820154815260200160048201548152505090507f1acb9ccf50487f4a2cc6f4c3d7744e1a71460282f21a1471a160eae671ed79fa8260000151600081518110610c8057610c7f6127a6565b5b6020026020010151604051602001610c98919061291e565b60405160208183030381529060405280519060200120600260009054906101000a900473ffffffffffffffffffffffffffffffffffffffff1673ffffffffffffffffffffffffffffffffffffffff1663cfb519286040518163ffffffff1660e01b8152600401610d0790612985565b602060405180830381865afa158015610d24573d6000803e3d6000fd5b505050506040513d601f19601f82011682018060405250810190610d489190612779565b604051602001610d58919061291e565b60405160208183030381529060405280519060200120604051610d7c9291906129a5565b60405180910390a160005b826000015151811015611eef57600260009054906101000a900473ffffffffffffffffffffffffffffffffffffffff1673ffffffffffffffffffffffffffffffffffffffff1663cfb519286040518163ffffffff1660e01b8152600401610ded90612985565b602060405180830381865afa158015610e0a573d6000803e3d6000fd5b505050506040513d601f19601f82011682018060405250810190610e2e9190612779565b604051602001610e3e919061291e565b604051602081830303815290604052805190602001208360000151600081518110610e6c57610e6b6127a6565b5b6020026020010151604051602001610e84919061291e565b6040516020818303038152906040528051906020012003610fbd57600360009054906101000a900473ffffffffffffffffffffffffffffffffffffffff1673ffffffffffffffffffffffffffffffffffffffff16631d4fd87f84602001518381518110610ef457610ef36127a6565b5b602002602001015185608001518560200151866040015187606001516040518663ffffffff1660e01b8152600401610f309594939291906129ce565b600060405180830381600087803b158015610f4a57600080fd5b505af1158015610f5e573d6000803e3d6000fd5b5050505082608001517f3b2e84a32c06c8109fd0e4fa81235d7fc35b9b4015dd48d09e3f297f69b935dc84600001518381518110610f9f57610f9e6127a6565b5b6020026020010151604051610fb49190612a21565b60405180910390a25b600260009054906101000a900473ffffffffffffffffffffffffffffffffffffffff1673ffffffffffffffffffffffffffffffffffffffff1663cfb519286040518163ffffffff1660e01b815260040161101690612a88565b602060405180830381865afa158015611033573d6000803e3d6000fd5b505050506040513d601f19601f820116820180604052508101906110579190612779565b604051602001611067919061291e565b604051602081830303815290604052805190602001208360000151600081518110611095576110946127a6565b5b60200260200101516040516020016110ad919061291e565b60405160208183030381529060405280519060200120036111e657600460009054906101000a900473ffffffffffffffffffffffffffffffffffffffff1673ffffffffffffffffffffffffffffffffffffffff16631d4fd87f8460200151838151811061111d5761111c6127a6565b5b602002602001015185608001518560200151866040015187606001516040518663ffffffff1660e01b81526004016111599594939291906129ce565b600060405180830381600087803b15801561117357600080fd5b505af1158015611187573d6000803e3d6000fd5b5050505082608001517f3b2e84a32c06c8109fd0e4fa81235d7fc35b9b4015dd48d09e3f297f69b935dc846000015183815181106111c8576111c76127a6565b5b60200260200101516040516111dd9190612a21565b60405180910390a25b600260009054906101000a900473ffffffffffffffffffffffffffffffffffffffff1673ffffffffffffffffffffffffffffffffffffffff1663cfb519286040518163ffffffff1660e01b815260040161123f90612af4565b602060405180830381865afa15801561125c573d6000803e3d6000fd5b505050506040513d601f19601f820116820180604052508101906112809190612779565b604051602001611290919061291e565b6040516020818303038152906040528051906020012083600001516000815181106112be576112bd6127a6565b5b60200260200101516040516020016112d6919061291e565b604051602081830303815290604052805190602001200361140f57600560009054906101000a900473ffffffffffffffffffffffffffffffffffffffff1673ffffffffffffffffffffffffffffffffffffffff16631d4fd87f84602001518381518110611346576113456127a6565b5b602002602001015185608001518560200151866040015187606001516040518663ffffffff1660e01b81526004016113829594939291906129ce565b600060405180830381600087803b15801561139c57600080fd5b505af11580156113b0573d6000803e3d6000fd5b5050505082608001517f3b2e84a32c06c8109fd0e4fa81235d7fc35b9b4015dd48d09e3f297f69b935dc846000015183815181106113f1576113f06127a6565b5b60200260200101516040516114069190612a21565b60405180910390a25b600260009054906101000a900473ffffffffffffffffffffffffffffffffffffffff1673ffffffffffffffffffffffffffffffffffffffff1663cfb519286040518163ffffffff1660e01b815260040161146890612b60565b602060405180830381865afa158015611485573d6000803e3d6000fd5b505050506040513d601f19601f820116820180604052508101906114a99190612779565b6040516020016114b9919061291e565b6040516020818303038152906040528051906020012083600001516000815181106114e7576114e66127a6565b5b60200260200101516040516020016114ff919061291e565b604051602081830303815290604052805190602001200361163857600660009054906101000a900473ffffffffffffffffffffffffffffffffffffffff1673ffffffffffffffffffffffffffffffffffffffff16631d4fd87f8460200151838151811061156f5761156e6127a6565b5b602002602001015185608001518560200151866040015187606001516040518663ffffffff1660e01b81526004016115ab9594939291906129ce565b600060405180830381600087803b1580156115c557600080fd5b505af11580156115d9573d6000803e3d6000fd5b5050505082608001517f3b2e84a32c06c8109fd0e4fa81235d7fc35b9b4015dd48d09e3f297f69b935dc8460000151838151811061161a576116196127a6565b5b602002602001015160405161162f9190612a21565b60405180910390a25b600260009054906101000a900473ffffffffffffffffffffffffffffffffffffffff1673ffffffffffffffffffffffffffffffffffffffff1663cfb519286040518163ffffffff1660e01b815260040161169190612bcc565b602060405180830381865afa1580156116ae573d6000803e3d6000fd5b505050506040513d601f19601f820116820180604052508101906116d29190612779565b6040516020016116e2919061291e565b6040516020818303038152906040528051906020012083600001516000815181106117105761170f6127a6565b5b6020026020010151604051602001611728919061291e565b604051602081830303815290604052805190602001200361186157600760009054906101000a900473ffffffffffffffffffffffffffffffffffffffff1673ffffffffffffffffffffffffffffffffffffffff16631d4fd87f84602001518381518110611798576117976127a6565b5b602002602001015185608001518560200151866040015187606001516040518663ffffffff1660e01b81526004016117d49594939291906129ce565b600060405180830381600087803b1580156117ee57600080fd5b505af1158015611802573d6000803e3d6000fd5b5050505082608001517f3b2e84a32c06c8109fd0e4fa81235d7fc35b9b4015dd48d09e3f297f69b935dc84600001518381518110611843576118426127a6565b5b60200260200101516040516118589190612a21565b60405180910390a25b600260009054906101000a900473ffffffffffffffffffffffffffffffffffffffff1673ffffffffffffffffffffffffffffffffffffffff1663cfb519286040518163ffffffff1660e01b81526004016118ba90612c38565b602060405180830381865afa1580156118d7573d6000803e3d6000fd5b505050506040513d601f19601f820116820180604052508101906118fb9190612779565b60405160200161190b919061291e565b604051602081830303815290604052805190602001208360000151600081518110611939576119386127a6565b5b6020026020010151604051602001611951919061291e565b6040516020818303038152906040528051906020012003611a8a57600860009054906101000a900473ffffffffffffffffffffffffffffffffffffffff1673ffffffffffffffffffffffffffffffffffffffff16631d4fd87f846020015183815181106119c1576119c06127a6565b5b602002602001015185608001518560200151866040015187606001516040518663ffffffff1660e01b81526004016119fd9594939291906129ce565b600060405180830381600087803b158015611a1757600080fd5b505af1158015611a2b573d6000803e3d6000fd5b5050505082608001517f3b2e84a32c06c8109fd0e4fa81235d7fc35b9b4015dd48d09e3f297f69b935dc84600001518381518110611a6c57611a6b6127a6565b5b6020026020010151604051611a819190612a21565b60405180910390a25b600260009054906101000a900473ffffffffffffffffffffffffffffffffffffffff1673ffffffffffffffffffffffffffffffffffffffff1663cfb519286040518163ffffffff1660e01b8152600401611ae390612ca4565b602060405180830381865afa158015611b00573d6000803e3d6000fd5b505050506040513d601f19601f82011682018060405250810190611b249190612779565b604051602001611b34919061291e565b604051602081830303815290604052805190602001208360000151600081518110611b6257611b616127a6565b5b6020026020010151604051602001611b7a919061291e565b6040516020818303038152906040528051906020012003611cb357600960009054906101000a900473ffffffffffffffffffffffffffffffffffffffff1673ffffffffffffffffffffffffffffffffffffffff16631d4fd87f84602001518381518110611bea57611be96127a6565b5b602002602001015185608001518560200151866040015187606001516040518663ffffffff1660e01b8152600401611c269594939291906129ce565b600060405180830381600087803b158015611c4057600080fd5b505af1158015611c54573d6000803e3d6000fd5b5050505082608001517f3b2e84a32c06c8109fd0e4fa81235d7fc35b9b4015dd48d09e3f297f69b935dc84600001518381518110611c9557611c946127a6565b5b6020026020010151604051611caa9190612a21565b60405180910390a25b600260009054906101000a900473ffffffffffffffffffffffffffffffffffffffff1673ffffffffffffffffffffffffffffffffffffffff1663cfb519286040518163ffffffff1660e01b8152600401611d0c90612d10565b602060405180830381865afa158015611d29573d6000803e3d6000fd5b505050506040513d601f19601f82011682018060405250810190611d4d9190612779565b604051602001611d5d919061291e565b604051602081830303815290604052805190602001208360000151600081518110611d8b57611d8a6127a6565b5b6020026020010151604051602001611da3919061291e565b6040516020818303038152906040528051906020012003611edc57600a60009054906101000a900473ffffffffffffffffffffffffffffffffffffffff1673ffffffffffffffffffffffffffffffffffffffff16631d4fd87f84602001518381518110611e1357611e126127a6565b5b602002602001015185608001518560200151866040015187606001516040518663ffffffff1660e01b8152600401611e4f9594939291906129ce565b600060405180830381600087803b158015611e6957600080fd5b505af1158015611e7d573d6000803e3d6000fd5b5050505082608001517f3b2e84a32c06c8109fd0e4fa81235d7fc35b9b4015dd48d09e3f297f69b935dc84600001518381518110611ebe57611ebd6127a6565b5b6020026020010151604051611ed39190612a21565b60405180910390a25b8080611ee790612804565b915050610d87565b505050565b6040518060a00160405280606081526020016060815260200160608152602001600073ffffffffffffffffffffffffffffffffffffffff168152602001600080191681525090565b600073ffffffffffffffffffffffffffffffffffffffff82169050919050565b6000819050919050565b6000611f81611f7c611f7784611f3c565b611f5c565b611f3c565b9050919050565b6000611f9382611f66565b9050919050565b6000611fa582611f88565b9050919050565b611fb581611f9a565b82525050565b6000602082019050611fd06000830184611fac565b92915050565b6000611fe182611f88565b9050919050565b611ff181611fd6565b82525050565b600060208201905061200c6000830184611fe8565b92915050565b600061201d82611f88565b9050919050565b61202d81612012565b82525050565b60006020820190506120486000830184612024565b92915050565b600080fd5b6000819050919050565b61206681612053565b811461207157600080fd5b50565b6000813590506120838161205d565b92915050565b60006020828403121561209f5761209e61204e565b5b60006120ad84828501612074565b91505092915050565b6000819050919050565b6120c9816120b6565b82525050565b6000819050919050565b6120e2816120cf565b82525050565b600060a0820190506120fd60008301886120c0565b61210a60208301876120d9565b61211760408301866120d9565b61212460608301856120d9565b61213160808301846120d9565b9695505050505050565b600061214682611f88565b9050919050565b6121568161213b565b82525050565b6000602082019050612171600083018461214d565b92915050565b612180816120b6565b811461218b57600080fd5b50565b60008135905061219d81612177565b92915050565b6121ac816120cf565b81146121b757600080fd5b50565b6000813590506121c9816121a3565b92915050565b6000806000606084860312156121e8576121e761204e565b5b60006121f68682870161218e565b93505060206122078682870161218e565b9250506040612218868287016121ba565b9150509250925092565b600081519050919050565b600082825260208201905092915050565b6000819050602082019050919050565b612257816120cf565b82525050565b6000612269838361224e565b60208301905092915050565b6000602082019050919050565b600061228d82612222565b612297818561222d565b93506122a28361223e565b8060005b838110156122d35781516122ba888261225d565b97506122c583612275565b9250506001810190506122a6565b5085935050505092915050565b600081519050919050565b600082825260208201905092915050565b6000819050602082019050919050565b612315816120b6565b82525050565b6000612327838361230c565b60208301905092915050565b6000602082019050919050565b600061234b826122e0565b61235581856122eb565b9350612360836122fc565b8060005b83811015612391578151612378888261231b565b975061238383612333565b925050600181019050612364565b5085935050505092915050565b60006123a982611f3c565b9050919050565b6123b98161239e565b82525050565b600060a08301600083015184820360008601526123dc8282612282565b915050602083015184820360208601526123f68282612282565b915050604083015184820360408601526124108282612340565b915050606083015161242560608601826123b0565b506080830151612438608086018261224e565b508091505092915050565b6000602082019050818103600083015261245d81846123bf565b905092915050565b6000806000806080858703121561247f5761247e61204e565b5b600061248d878288016121ba565b945050602061249e878288016121ba565b93505060406124af878288016121ba565b92505060606124c0878288016121ba565b91505092959194509250565b60006124d782611f88565b9050919050565b6124e7816124cc565b82525050565b600060208201905061250260008301846124de565b92915050565b600061251382611f88565b9050919050565b61252381612508565b82525050565b600060208201905061253e600083018461251a565b92915050565b60008060006060848603121561255d5761255c61204e565b5b600061256b8682870161218e565b935050602061257c8682870161218e565b925050604061258d8682870161218e565b9150509250925092565b60006125a282611f88565b9050919050565b6125b281612597565b82525050565b60006020820190506125cd60008301846125a9565b92915050565b60006125de82611f88565b9050919050565b6125ee816125d3565b82525050565b600060208201905061260960008301846125e5565b92915050565b600061261a82611f88565b9050919050565b61262a8161260f565b82525050565b60006020820190506126456000830184612621565b92915050565b600061265682611f88565b9050919050565b6126668161264b565b82525050565b6000602082019050612681600083018461265d565b92915050565b6000815190506126968161205d565b92915050565b6000602082840312156126b2576126b161204e565b5b60006126c084828501612687565b91505092915050565b7f4e487b7100000000000000000000000000000000000000000000000000000000600052604160045260246000fd5b61270181612053565b82525050565b600060208201905061271c60008301846126f8565b92915050565b60008151905061273181612177565b92915050565b60006020828403121561274d5761274c61204e565b5b600061275b84828501612722565b91505092915050565b600081519050612773816121a3565b92915050565b60006020828403121561278f5761278e61204e565b5b600061279d84828501612764565b91505092915050565b7f4e487b7100000000000000000000000000000000000000000000000000000000600052603260045260246000fd5b7f4e487b7100000000000000000000000000000000000000000000000000000000600052601160045260246000fd5b600061280f82612053565b91507fffffffffffffffffffffffffffffffffffffffffffffffffffffffffffffffff8203612841576128406127d5565b5b600182019050919050565b600082825260208201905092915050565b7f66697273745f7265706f72740000000000000000000000000000000000000000600082015250565b6000612893600c8361284c565b915061289e8261285d565b602082019050919050565b600060208201905081810360008301526128c281612886565b9050919050565b60006128d482612053565b91506128df83612053565b92508282039050818111156128f7576128f66127d5565b5b92915050565b6000819050919050565b612918612913826120cf565b6128fd565b82525050565b600061292a8284612907565b60208201915081905092915050565b7f4530303031303030310000000000000000000000000000000000000000000000600082015250565b600061296f60098361284c565b915061297a82612939565b602082019050919050565b6000602082019050818103600083015261299e81612962565b9050919050565b60006040820190506129ba60008301856120d9565b6129c760208301846120d9565b9392505050565b600060a0820190506129e360008301886120d9565b6129f060208301876120d9565b6129fd60408301866120d9565b612a0a60608301856120d9565b612a1760808301846120d9565b9695505050505050565b6000602082019050612a3660008301846120d9565b92915050565b7f4530303031303030320000000000000000000000000000000000000000000000600082015250565b6000612a7260098361284c565b9150612a7d82612a3c565b602082019050919050565b60006020820190508181036000830152612aa181612a65565b9050919050565b7f4530303031303030330000000000000000000000000000000000000000000000600082015250565b6000612ade60098361284c565b9150612ae982612aa8565b602082019050919050565b60006020820190508181036000830152612b0d81612ad1565b9050919050565b7f4530303031303030340000000000000000000000000000000000000000000000600082015250565b6000612b4a60098361284c565b9150612b5582612b14565b602082019050919050565b60006020820190508181036000830152612b7981612b3d565b9050919050565b7f4530303031303030350000000000000000000000000000000000000000000000600082015250565b6000612bb660098361284c565b9150612bc182612b80565b602082019050919050565b60006020820190508181036000830152612be581612ba9565b9050919050565b7f4530303031303030360000000000000000000000000000000000000000000000600082015250565b6000612c2260098361284c565b9150612c2d82612bec565b602082019050919050565b60006020820190508181036000830152612c5181612c15565b9050919050565b7f4530303031303030370000000000000000000000000000000000000000000000600082015250565b6000612c8e60098361284c565b9150612c9982612c58565b602082019050919050565b60006020820190508181036000830152612cbd81612c81565b9050919050565b7f4530303031303030380000000000000000000000000000000000000000000000600082015250565b6000612cfa60098361284c565b9150612d0582612cc4565b602082019050919050565b60006020820190508181036000830152612d2981612ced565b905091905056fea2646970667358221220e31d961119b3acdb32532e5325218f2ebef060e6fad8e5f05711a80633084b2e64736f6c63430008120033",
			"opcodes": "PUSH1 0x80 PUSH1 0x40 MSTORE CALLVALUE DUP1 ISZERO PUSH3 0x11 JUMPI PUSH1 0x0 DUP1 REVERT JUMPDEST POP PUSH1 0x40 MLOAD PUSH3 0x31A7 CODESIZE SUB DUP1 PUSH3 0x31A7 DUP4 CODECOPY DUP2 DUP2 ADD PUSH1 0x40 MSTORE DUP2 ADD SWAP1 PUSH3 0x37 SWAP2 SWAP1 PUSH3 0x33B JUMP JUMPDEST DUP10 PUSH1 0x1 PUSH1 0x0 PUSH2 0x100 EXP DUP2 SLOAD DUP2 PUSH20 0xFFFFFFFFFFFFFFFFFFFFFFFFFFFFFFFFFFFFFFFF MUL NOT AND SWAP1 DUP4 PUSH20 0xFFFFFFFFFFFFFFFFFFFFFFFFFFFFFFFFFFFFFFFF AND MUL OR SWAP1 SSTORE POP DUP9 PUSH1 0x2 PUSH1 0x0 PUSH2 0x100 EXP DUP2 SLOAD DUP2 PUSH20 0xFFFFFFFFFFFFFFFFFFFFFFFFFFFFFFFFFFFFFFFF MUL NOT AND SWAP1 DUP4 PUSH20 0xFFFFFFFFFFFFFFFFFFFFFFFFFFFFFFFFFFFFFFFF AND MUL OR SWAP1 SSTORE POP DUP8 PUSH1 0x3 PUSH1 0x0 PUSH2 0x100 EXP DUP2 SLOAD DUP2 PUSH20 0xFFFFFFFFFFFFFFFFFFFFFFFFFFFFFFFFFFFFFFFF MUL NOT AND SWAP1 DUP4 PUSH20 0xFFFFFFFFFFFFFFFFFFFFFFFFFFFFFFFFFFFFFFFF AND MUL OR SWAP1 SSTORE POP DUP7 PUSH1 0x4 PUSH1 0x0 PUSH2 0x100 EXP DUP2 SLOAD DUP2 PUSH20 0xFFFFFFFFFFFFFFFFFFFFFFFFFFFFFFFFFFFFFFFF MUL NOT AND SWAP1 DUP4 PUSH20 0xFFFFFFFFFFFFFFFFFFFFFFFFFFFFFFFFFFFFFFFF AND MUL OR SWAP1 SSTORE POP DUP6 PUSH1 0x5 PUSH1 0x0 PUSH2 0x100 EXP DUP2 SLOAD DUP2 PUSH20 0xFFFFFFFFFFFFFFFFFFFFFFFFFFFFFFFFFFFFFFFF MUL NOT AND SWAP1 DUP4 PUSH20 0xFFFFFFFFFFFFFFFFFFFFFFFFFFFFFFFFFFFFFFFF AND MUL OR SWAP1 SSTORE POP DUP5 PUSH1 0x6 PUSH1 0x0 PUSH2 0x100 EXP DUP2 SLOAD DUP2 PUSH20 0xFFFFFFFFFFFFFFFFFFFFFFFFFFFFFFFFFFFFFFFF MUL NOT AND SWAP1 DUP4 PUSH20 0xFFFFFFFFFFFFFFFFFFFFFFFFFFFFFFFFFFFFFFFF AND MUL OR SWAP1 SSTORE POP DUP4 PUSH1 0x7 PUSH1 0x0 PUSH2 0x100 EXP DUP2 SLOAD DUP2 PUSH20 0xFFFFFFFFFFFFFFFFFFFFFFFFFFFFFFFFFFFFFFFF MUL NOT AND SWAP1 DUP4 PUSH20 0xFFFFFFFFFFFFFFFFFFFFFFFFFFFFFFFFFFFFFFFF AND MUL OR SWAP1 SSTORE POP DUP3 PUSH1 0x8 PUSH1 0x0 PUSH2 0x100 EXP DUP2 SLOAD DUP2 PUSH20 0xFFFFFFFFFFFFFFFFFFFFFFFFFFFFFFFFFFFFFFFF MUL NOT AND SWAP1 DUP4 PUSH20 0xFFFFFFFFFFFFFFFFFFFFFFFFFFFFFFFFFFFFFFFF AND MUL OR SWAP1 SSTORE POP DUP2 PUSH1 0x9 PUSH1 0x0 PUSH2 0x100 EXP DUP2 SLOAD DUP2 PUSH20 0xFFFFFFFFFFFFFFFFFFFFFFFFFFFFFFFFFFFFFFFF MUL NOT AND SWAP1 DUP4 PUSH20 0xFFFFFFFFFFFFFFFFFFFFFFFFFFFFFFFFFFFFFFFF AND MUL OR SWAP1 SSTORE POP DUP1 PUSH1 0xA PUSH1 0x0 PUSH2 0x100 EXP DUP2 SLOAD DUP2 PUSH20 0xFFFFFFFFFFFFFFFFFFFFFFFFFFFFFFFFFFFFFFFF MUL NOT AND SWAP1 DUP4 PUSH20 0xFFFFFFFFFFFFFFFFFFFFFFFFFFFFFFFFFFFFFFFF AND MUL OR SWAP1 SSTORE POP POP POP POP POP POP POP POP POP POP POP PUSH3 0x431 JUMP JUMPDEST PUSH1 0x0 DUP1 REVERT JUMPDEST PUSH1 0x0 PUSH20 0xFFFFFFFFFFFFFFFFFFFFFFFFFFFFFFFFFFFFFFFF DUP3 AND SWAP1 POP SWAP2 SWAP1 POP JUMP JUMPDEST PUSH1 0x0 PUSH3 0x303 DUP3 PUSH3 0x2D6 JUMP JUMPDEST SWAP1 POP SWAP2 SWAP1 POP JUMP JUMPDEST PUSH3 0x315 DUP2 PUSH3 0x2F6 JUMP JUMPDEST DUP2 EQ PUSH3 0x321 JUMPI PUSH1 0x0 DUP1 REVERT JUMPDEST POP JUMP JUMPDEST PUSH1 0x0 DUP2 MLOAD SWAP1 POP PUSH3 0x335 DUP2 PUSH3 0x30A JUMP JUMPDEST SWAP3 SWAP2 POP POP JUMP JUMPDEST PUSH1 0x0 DUP1 PUSH1 0x0 DUP1 PUSH1 0x0 DUP1 PUSH1 0x0 DUP1 PUSH1 0x0 DUP1 PUSH2 0x140 DUP12 DUP14 SUB SLT ISZERO PUSH3 0x362 JUMPI PUSH3 0x361 PUSH3 0x2D1 JUMP JUMPDEST JUMPDEST PUSH1 0x0 PUSH3 0x372 DUP14 DUP3 DUP15 ADD PUSH3 0x324 JUMP JUMPDEST SWAP11 POP POP PUSH1 0x20 PUSH3 0x385 DUP14 DUP3 DUP15 ADD PUSH3 0x324 JUMP JUMPDEST SWAP10 POP POP PUSH1 0x40 PUSH3 0x398 DUP14 DUP3 DUP15 ADD PUSH3 0x324 JUMP JUMPDEST SWAP9 POP POP PUSH1 0x60 PUSH3 0x3AB DUP14 DUP3 DUP15 ADD PUSH3 0x324 JUMP JUMPDEST SWAP8 POP POP PUSH1 0x80 PUSH3 0x3BE DUP14 DUP3 DUP15 ADD PUSH3 0x324 JUMP JUMPDEST SWAP7 POP POP PUSH1 0xA0 PUSH3 0x3D1 DUP14 DUP3 DUP15 ADD PUSH3 0x324 JUMP JUMPDEST SWAP6 POP POP PUSH1 0xC0 PUSH3 0x3E4 DUP14 DUP3 DUP15 ADD PUSH3 0x324 JUMP JUMPDEST SWAP5 POP POP PUSH1 0xE0 PUSH3 0x3F7 DUP14 DUP3 DUP15 ADD PUSH3 0x324 JUMP JUMPDEST SWAP4 POP POP PUSH2 0x100 PUSH3 0x40B DUP14 DUP3 DUP15 ADD PUSH3 0x324 JUMP JUMPDEST SWAP3 POP POP PUSH2 0x120 PUSH3 0x41F DUP14 DUP3 DUP15 ADD PUSH3 0x324 JUMP JUMPDEST SWAP2 POP POP SWAP3 SWAP6 SWAP9 SWAP12 SWAP2 SWAP5 SWAP8 SWAP11 POP SWAP3 SWAP6 SWAP9 POP JUMP JUMPDEST PUSH2 0x2D66 DUP1 PUSH3 0x441 PUSH1 0x0 CODECOPY PUSH1 0x0 RETURN INVALID PUSH1 0x80 PUSH1 0x40 MSTORE CALLVALUE DUP1 ISZERO PUSH2 0x10 JUMPI PUSH1 0x0 DUP1 REVERT JUMPDEST POP PUSH1 0x4 CALLDATASIZE LT PUSH2 0xEA JUMPI PUSH1 0x0 CALLDATALOAD PUSH1 0xE0 SHR DUP1 PUSH4 0x6D762E7B GT PUSH2 0x8C JUMPI DUP1 PUSH4 0xA511B077 GT PUSH2 0x66 JUMPI DUP1 PUSH4 0xA511B077 EQ PUSH2 0x23F JUMPI DUP1 PUSH4 0xA6A1D0C5 EQ PUSH2 0x25D JUMPI DUP1 PUSH4 0xE064D199 EQ PUSH2 0x27B JUMPI DUP1 PUSH4 0xFB9C2606 EQ PUSH2 0x299 JUMPI PUSH2 0xEA JUMP JUMPDEST DUP1 PUSH4 0x6D762E7B EQ PUSH2 0x1E7 JUMPI DUP1 PUSH4 0x80CBBA5B EQ PUSH2 0x205 JUMPI DUP1 PUSH4 0x99EB0DBC EQ PUSH2 0x223 JUMPI PUSH2 0xEA JUMP JUMPDEST DUP1 PUSH4 0x3DF81812 GT PUSH2 0xC8 JUMPI DUP1 PUSH4 0x3DF81812 EQ PUSH2 0x149 JUMPI DUP1 PUSH4 0x4A6943AB EQ PUSH2 0x17D JUMPI DUP1 PUSH4 0x5A14FA8B EQ PUSH2 0x19B JUMPI DUP1 PUSH4 0x61C6E151 EQ PUSH2 0x1CB JUMPI PUSH2 0xEA JUMP JUMPDEST DUP1 PUSH4 0x1F74982 EQ PUSH2 0xEF JUMPI DUP1 PUSH4 0x1F45275B EQ PUSH2 0x10D JUMPI DUP1 PUSH4 0x24250B16 EQ PUSH2 0x12B JUMPI JUMPDEST PUSH1 0x0 DUP1 REVERT JUMPDEST PUSH2 0xF7 PUSH2 0x2B7 JUMP JUMPDEST PUSH1 0x40 MLOAD PUSH2 0x104 SWAP2 SWAP1 PUSH2 0x1FBB JUMP JUMPDEST PUSH1 0x40 MLOAD DUP1 SWAP2 SUB SWAP1 RETURN JUMPDEST PUSH2 0x115 PUSH2 0x2DD JUMP JUMPDEST PUSH1 0x40 MLOAD PUSH2 0x122 SWAP2 SWAP1 PUSH2 0x1FF7 JUMP JUMPDEST PUSH1 0x40 MLOAD DUP1 SWAP2 SUB SWAP1 RETURN JUMPDEST PUSH2 0x133 PUSH2 0x303 JUMP JUMPDEST PUSH1 0x40 MLOAD PUSH2 0x140 SWAP2 SWAP1 PUSH2 0x2033 JUMP JUMPDEST PUSH1 0x40 MLOAD DUP1 SWAP2 SUB SWAP1 RETURN JUMPDEST PUSH2 0x163 PUSH1 0x4 DUP1 CALLDATASIZE SUB DUP2 ADD SWAP1 PUSH2 0x15E SWAP2 SWAP1 PUSH2 0x2089 JUMP JUMPDEST PUSH2 0x329 JUMP JUMPDEST PUSH1 0x40 MLOAD PUSH2 0x174 SWAP6 SWAP5 SWAP4 SWAP3 SWAP2 SWAP1 PUSH2 0x20E8 JUMP JUMPDEST PUSH1 0x40 MLOAD DUP1 SWAP2 SUB SWAP1 RETURN JUMPDEST PUSH2 0x185 PUSH2 0x36F JUMP JUMPDEST PUSH1 0x40 MLOAD PUSH2 0x192 SWAP2 SWAP1 PUSH2 0x215C JUMP JUMPDEST PUSH1 0x40 MLOAD DUP1 SWAP2 SUB SWAP1 RETURN JUMPDEST PUSH2 0x1B5 PUSH1 0x4 DUP1 CALLDATASIZE SUB DUP2 ADD SWAP1 PUSH2 0x1B0 SWAP2 SWAP1 PUSH2 0x21CF JUMP JUMPDEST PUSH2 0x395 JUMP JUMPDEST PUSH1 0x40 MLOAD PUSH2 0x1C2 SWAP2 SWAP1 PUSH2 0x2443 JUMP JUMPDEST PUSH1 0x40 MLOAD DUP1 SWAP2 SUB SWAP1 RETURN JUMPDEST PUSH2 0x1E5 PUSH1 0x4 DUP1 CALLDATASIZE SUB DUP2 ADD SWAP1 PUSH2 0x1E0 SWAP2 SWAP1 PUSH2 0x2465 JUMP JUMPDEST PUSH2 0x9AB JUMP JUMPDEST STOP JUMPDEST PUSH2 0x1EF PUSH2 0xA3D JUMP JUMPDEST PUSH1 0x40 MLOAD PUSH2 0x1FC SWAP2 SWAP1 PUSH2 0x24ED JUMP JUMPDEST PUSH1 0x40 MLOAD DUP1 SWAP2 SUB SWAP1 RETURN JUMPDEST PUSH2 0x20D PUSH2 0xA63 JUMP JUMPDEST PUSH1 0x40 MLOAD PUSH2 0x21A SWAP2 SWAP1 PUSH2 0x2529 JUMP JUMPDEST PUSH1 0x40 MLOAD DUP1 SWAP2 SUB SWAP1 RETURN JUMPDEST PUSH2 0x23D PUSH1 0x4 DUP1 CALLDATASIZE SUB DUP2 ADD SWAP1 PUSH2 0x238 SWAP2 SWAP1 PUSH2 0x2544 JUMP JUMPDEST PUSH2 0xA89 JUMP JUMPDEST STOP JUMPDEST PUSH2 0x247 PUSH2 0xB3C JUMP JUMPDEST PUSH1 0x40 MLOAD PUSH2 0x254 SWAP2 SWAP1 PUSH2 0x25B8 JUMP JUMPDEST PUSH1 0x40 MLOAD DUP1 SWAP2 SUB SWAP1 RETURN JUMPDEST PUSH2 0x265 PUSH2 0xB62 JUMP JUMPDEST PUSH1 0x40 MLOAD PUSH2 0x272 SWAP2 SWAP1 PUSH2 0x25F4 JUMP JUMPDEST PUSH1 0x40 MLOAD DUP1 SWAP2 SUB SWAP1 RETURN JUMPDEST PUSH2 0x283 PUSH2 0xB88 JUMP JUMPDEST PUSH1 0x40 MLOAD PUSH2 0x290 SWAP2 SWAP1 PUSH2 0x2630 JUMP JUMPDEST PUSH1 0x40 MLOAD DUP1 SWAP2 SUB SWAP1 RETURN JUMPDEST PUSH2 0x2A1 PUSH2 0xBAE JUMP JUMPDEST PUSH1 0x40 MLOAD PUSH2 0x2AE SWAP2 SWAP1 PUSH2 0x266C JUMP JUMPDEST PUSH1 0x40 MLOAD DUP1 SWAP2 SUB SWAP1 RETURN JUMPDEST PUSH1 0x8 PUSH1 0x0 SWAP1 SLOAD SWAP1 PUSH2 0x100 EXP SWAP1 DIV PUSH20 0xFFFFFFFFFFFFFFFFFFFFFFFFFFFFFFFFFFFFFFFF AND DUP2 JUMP JUMPDEST PUSH1 0x1 PUSH1 0x0 SWAP1 SLOAD SWAP1 PUSH2 0x100 EXP SWAP1 DIV PUSH20 0xFFFFFFFFFFFFFFFFFFFFFFFFFFFFFFFFFFFFFFFF AND DUP2 JUMP JUMPDEST PUSH1 0x7 PUSH1 0x0 SWAP1 SLOAD SWAP1 PUSH2 0x100 EXP SWAP1 DIV PUSH20 0xFFFFFFFFFFFFFFFFFFFFFFFFFFFFFFFFFFFFFFFF AND DUP2 JUMP JUMPDEST PUSH1 0x0 DUP2 DUP2 SLOAD DUP2 LT PUSH2 0x339 JUMPI PUSH1 0x0 DUP1 REVERT JUMPDEST SWAP1 PUSH1 0x0 MSTORE PUSH1 0x20 PUSH1 0x0 KECCAK256 SWAP1 PUSH1 0x5 MUL ADD PUSH1 0x0 SWAP2 POP SWAP1 POP DUP1 PUSH1 0x0 ADD SLOAD SWAP1 DUP1 PUSH1 0x1 ADD SLOAD SWAP1 DUP1 PUSH1 0x2 ADD SLOAD SWAP1 DUP1 PUSH1 0x3 ADD SLOAD SWAP1 DUP1 PUSH1 0x4 ADD SLOAD SWAP1 POP DUP6 JUMP JUMPDEST PUSH1 0x9 PUSH1 0x0 SWAP1 SLOAD SWAP1 PUSH2 0x100 EXP SWAP1 DIV PUSH20 0xFFFFFFFFFFFFFFFFFFFFFFFFFFFFFFFFFFFFFFFF AND DUP2 JUMP JUMPDEST PUSH2 0x39D PUSH2 0x1EF4 JUMP JUMPDEST PUSH1 0x0 PUSH1 0x1 PUSH1 0x0 SWAP1 SLOAD SWAP1 PUSH2 0x100 EXP SWAP1 DIV PUSH20 0xFFFFFFFFFFFFFFFFFFFFFFFFFFFFFFFFFFFFFFFF AND PUSH20 0xFFFFFFFFFFFFFFFFFFFFFFFFFFFFFFFFFFFFFFFF AND PUSH4 0x578CB8F9 PUSH1 0x40 MLOAD DUP2 PUSH4 0xFFFFFFFF AND PUSH1 0xE0 SHL DUP2 MSTORE PUSH1 0x4 ADD PUSH1 0x20 PUSH1 0x40 MLOAD DUP1 DUP4 SUB DUP2 DUP7 GAS STATICCALL ISZERO DUP1 ISZERO PUSH2 0x40C JUMPI RETURNDATASIZE PUSH1 0x0 DUP1 RETURNDATACOPY RETURNDATASIZE PUSH1 0x0 REVERT JUMPDEST POP POP POP POP PUSH1 0x40 MLOAD RETURNDATASIZE PUSH1 0x1F NOT PUSH1 0x1F DUP3 ADD AND DUP3 ADD DUP1 PUSH1 0x40 MSTORE POP DUP2 ADD SWAP1 PUSH2 0x430 SWAP2 SWAP1 PUSH2 0x269C JUMP JUMPDEST SWAP1 POP PUSH1 0x0 DUP2 PUSH8 0xFFFFFFFFFFFFFFFF DUP2 GT ISZERO PUSH2 0x44E JUMPI PUSH2 0x44D PUSH2 0x26C9 JUMP JUMPDEST JUMPDEST PUSH1 0x40 MLOAD SWAP1 DUP1 DUP3 MSTORE DUP1 PUSH1 0x20 MUL PUSH1 0x20 ADD DUP3 ADD PUSH1 0x40 MSTORE DUP1 ISZERO PUSH2 0x47C JUMPI DUP2 PUSH1 0x20 ADD PUSH1 0x20 DUP3 MUL DUP1 CALLDATASIZE DUP4 CALLDATACOPY DUP1 DUP3 ADD SWAP2 POP POP SWAP1 POP JUMPDEST POP SWAP1 POP PUSH1 0x0 DUP3 PUSH8 0xFFFFFFFFFFFFFFFF DUP2 GT ISZERO PUSH2 0x49B JUMPI PUSH2 0x49A PUSH2 0x26C9 JUMP JUMPDEST JUMPDEST PUSH1 0x40 MLOAD SWAP1 DUP1 DUP3 MSTORE DUP1 PUSH1 0x20 MUL PUSH1 0x20 ADD DUP3 ADD PUSH1 0x40 MSTORE DUP1 ISZERO PUSH2 0x4C9 JUMPI DUP2 PUSH1 0x20 ADD PUSH1 0x20 DUP3 MUL DUP1 CALLDATASIZE DUP4 CALLDATACOPY DUP1 DUP3 ADD SWAP2 POP POP SWAP1 POP JUMPDEST POP SWAP1 POP PUSH1 0x0 DUP4 PUSH8 0xFFFFFFFFFFFFFFFF DUP2 GT ISZERO PUSH2 0x4E8 JUMPI PUSH2 0x4E7 PUSH2 0x26C9 JUMP JUMPDEST JUMPDEST PUSH1 0x40 MLOAD SWAP1 DUP1 DUP3 MSTORE DUP1 PUSH1 0x20 MUL PUSH1 0x20 ADD DUP3 ADD PUSH1 0x40 MSTORE DUP1 ISZERO PUSH2 0x516 JUMPI DUP2 PUSH1 0x20 ADD PUSH1 0x20 DUP3 MUL DUP1 CALLDATASIZE DUP4 CALLDATACOPY DUP1 DUP3 ADD SWAP2 POP POP SWAP1 POP JUMPDEST POP SWAP1 POP PUSH1 0x0 CALLER SWAP1 POP PUSH1 0x0 DUP1 JUMPDEST DUP7 DUP2 LT ISZERO PUSH2 0x798 JUMPI PUSH1 0x0 PUSH1 0x1 PUSH1 0x0 SWAP1 SLOAD SWAP1 PUSH2 0x100 EXP SWAP1 DIV PUSH20 0xFFFFFFFFFFFFFFFFFFFFFFFFFFFFFFFFFFFFFFFF AND PUSH20 0xFFFFFFFFFFFFFFFFFFFFFFFFFFFFFFFFFFFFFFFF AND PUSH4 0xFADC6BC6 DUP4 PUSH1 0x40 MLOAD DUP3 PUSH4 0xFFFFFFFF AND PUSH1 0xE0 SHL DUP2 MSTORE PUSH1 0x4 ADD PUSH2 0x587 SWAP2 SWAP1 PUSH2 0x2707 JUMP JUMPDEST PUSH1 0x20 PUSH1 0x40 MLOAD DUP1 DUP4 SUB DUP2 DUP7 GAS STATICCALL ISZERO DUP1 ISZERO PUSH2 0x5A4 JUMPI RETURNDATASIZE PUSH1 0x0 DUP1 RETURNDATACOPY RETURNDATASIZE PUSH1 0x0 REVERT JUMPDEST POP POP POP POP PUSH1 0x40 MLOAD RETURNDATASIZE PUSH1 0x1F NOT PUSH1 0x1F DUP3 ADD AND DUP3 ADD DUP1 PUSH1 0x40 MSTORE POP DUP2 ADD SWAP1 PUSH2 0x5C8 SWAP2 SWAP1 PUSH2 0x2737 JUMP JUMPDEST SWAP1 POP DUP12 DUP2 SLT ISZERO DUP1 ISZERO PUSH2 0x5DA JUMPI POP DUP11 DUP2 SGT ISZERO JUMPDEST ISZERO PUSH2 0x784 JUMPI PUSH1 0x1 PUSH1 0x0 SWAP1 SLOAD SWAP1 PUSH2 0x100 EXP SWAP1 DIV PUSH20 0xFFFFFFFFFFFFFFFFFFFFFFFFFFFFFFFFFFFFFFFF AND PUSH20 0xFFFFFFFFFFFFFFFFFFFFFFFFFFFFFFFFFFFFFFFF AND PUSH4 0xE09576F0 DUP4 PUSH1 0x40 MLOAD DUP3 PUSH4 0xFFFFFFFF AND PUSH1 0xE0 SHL DUP2 MSTORE PUSH1 0x4 ADD PUSH2 0x63A SWAP2 SWAP1 PUSH2 0x2707 JUMP JUMPDEST PUSH1 0x20 PUSH1 0x40 MLOAD DUP1 DUP4 SUB DUP2 DUP7 GAS STATICCALL ISZERO DUP1 ISZERO PUSH2 0x657 JUMPI RETURNDATASIZE PUSH1 0x0 DUP1 RETURNDATACOPY RETURNDATASIZE PUSH1 0x0 REVERT JUMPDEST POP POP POP POP PUSH1 0x40 MLOAD RETURNDATASIZE PUSH1 0x1F NOT PUSH1 0x1F DUP3 ADD AND DUP3 ADD DUP1 PUSH1 0x40 MSTORE POP DUP2 ADD SWAP1 PUSH2 0x67B SWAP2 SWAP1 PUSH2 0x2779 JUMP JUMPDEST DUP8 DUP5 DUP2 MLOAD DUP2 LT PUSH2 0x68E JUMPI PUSH2 0x68D PUSH2 0x27A6 JUMP JUMPDEST JUMPDEST PUSH1 0x20 MUL PUSH1 0x20 ADD ADD DUP2 DUP2 MSTORE POP POP PUSH1 0x1 PUSH1 0x0 SWAP1 SLOAD SWAP1 PUSH2 0x100 EXP SWAP1 DIV PUSH20 0xFFFFFFFFFFFFFFFFFFFFFFFFFFFFFFFFFFFFFFFF AND PUSH20 0xFFFFFFFFFFFFFFFFFFFFFFFFFFFFFFFFFFFFFFFF AND PUSH4 0x9B4E3420 DUP4 PUSH1 0x40 MLOAD DUP3 PUSH4 0xFFFFFFFF AND PUSH1 0xE0 SHL DUP2 MSTORE PUSH1 0x4 ADD PUSH2 0x6F5 SWAP2 SWAP1 PUSH2 0x2707 JUMP JUMPDEST PUSH1 0x20 PUSH1 0x40 MLOAD DUP1 DUP4 SUB DUP2 DUP7 GAS STATICCALL ISZERO DUP1 ISZERO PUSH2 0x712 JUMPI RETURNDATASIZE PUSH1 0x0 DUP1 RETURNDATACOPY RETURNDATASIZE PUSH1 0x0 REVERT JUMPDEST POP POP POP POP PUSH1 0x40 MLOAD RETURNDATASIZE PUSH1 0x1F NOT PUSH1 0x1F DUP3 ADD AND DUP3 ADD DUP1 PUSH1 0x40 MSTORE POP DUP2 ADD SWAP1 PUSH2 0x736 SWAP2 SWAP1 PUSH2 0x2779 JUMP JUMPDEST DUP7 DUP5 DUP2 MLOAD DUP2 LT PUSH2 0x749 JUMPI PUSH2 0x748 PUSH2 0x27A6 JUMP JUMPDEST JUMPDEST PUSH1 0x20 MUL PUSH1 0x20 ADD ADD DUP2 DUP2 MSTORE POP POP DUP1 DUP6 DUP5 DUP2 MLOAD DUP2 LT PUSH2 0x769 JUMPI PUSH2 0x768 PUSH2 0x27A6 JUMP JUMPDEST JUMPDEST PUSH1 0x20 MUL PUSH1 0x20 ADD ADD DUP2 DUP2 MSTORE POP POP DUP3 DUP1 PUSH2 0x780 SWAP1 PUSH2 0x2804 JUMP JUMPDEST SWAP4 POP POP JUMPDEST POP DUP1 DUP1 PUSH2 0x790 SWAP1 PUSH2 0x2804 JUMP JUMPDEST SWAP2 POP POP PUSH2 0x522 JUMP JUMPDEST POP PUSH1 0x0 DUP2 PUSH8 0xFFFFFFFFFFFFFFFF DUP2 GT ISZERO PUSH2 0x7B5 JUMPI PUSH2 0x7B4 PUSH2 0x26C9 JUMP JUMPDEST JUMPDEST PUSH1 0x40 MLOAD SWAP1 DUP1 DUP3 MSTORE DUP1 PUSH1 0x20 MUL PUSH1 0x20 ADD DUP3 ADD PUSH1 0x40 MSTORE DUP1 ISZERO PUSH2 0x7E3 JUMPI DUP2 PUSH1 0x20 ADD PUSH1 0x20 DUP3 MUL DUP1 CALLDATASIZE DUP4 CALLDATACOPY DUP1 DUP3 ADD SWAP2 POP POP SWAP1 POP JUMPDEST POP SWAP1 POP PUSH1 0x0 DUP3 PUSH8 0xFFFFFFFFFFFFFFFF DUP2 GT ISZERO PUSH2 0x802 JUMPI PUSH2 0x801 PUSH2 0x26C9 JUMP JUMPDEST JUMPDEST PUSH1 0x40 MLOAD SWAP1 DUP1 DUP3 MSTORE DUP1 PUSH1 0x20 MUL PUSH1 0x20 ADD DUP3 ADD PUSH1 0x40 MSTORE DUP1 ISZERO PUSH2 0x830 JUMPI DUP2 PUSH1 0x20 ADD PUSH1 0x20 DUP3 MUL DUP1 CALLDATASIZE DUP4 CALLDATACOPY DUP1 DUP3 ADD SWAP2 POP POP SWAP1 POP JUMPDEST POP SWAP1 POP PUSH1 0x0 DUP4 PUSH8 0xFFFFFFFFFFFFFFFF DUP2 GT ISZERO PUSH2 0x84F JUMPI PUSH2 0x84E PUSH2 0x26C9 JUMP JUMPDEST JUMPDEST PUSH1 0x40 MLOAD SWAP1 DUP1 DUP3 MSTORE DUP1 PUSH1 0x20 MUL PUSH1 0x20 ADD DUP3 ADD PUSH1 0x40 MSTORE DUP1 ISZERO PUSH2 0x87D JUMPI DUP2 PUSH1 0x20 ADD PUSH1 0x20 DUP3 MUL DUP1 CALLDATASIZE DUP4 CALLDATACOPY DUP1 DUP3 ADD SWAP2 POP POP SWAP1 POP JUMPDEST POP SWAP1 POP PUSH1 0x0 JUMPDEST DUP5 DUP2 LT ISZERO PUSH2 0x94C JUMPI DUP9 DUP2 DUP2 MLOAD DUP2 LT PUSH2 0x89E JUMPI PUSH2 0x89D PUSH2 0x27A6 JUMP JUMPDEST JUMPDEST PUSH1 0x20 MUL PUSH1 0x20 ADD ADD MLOAD DUP5 DUP3 DUP2 MLOAD DUP2 LT PUSH2 0x8B9 JUMPI PUSH2 0x8B8 PUSH2 0x27A6 JUMP JUMPDEST JUMPDEST PUSH1 0x20 MUL PUSH1 0x20 ADD ADD DUP2 DUP2 MSTORE POP POP DUP8 DUP2 DUP2 MLOAD DUP2 LT PUSH2 0x8D8 JUMPI PUSH2 0x8D7 PUSH2 0x27A6 JUMP JUMPDEST JUMPDEST PUSH1 0x20 MUL PUSH1 0x20 ADD ADD MLOAD DUP4 DUP3 DUP2 MLOAD DUP2 LT PUSH2 0x8F3 JUMPI PUSH2 0x8F2 PUSH2 0x27A6 JUMP JUMPDEST JUMPDEST PUSH1 0x20 MUL PUSH1 0x20 ADD ADD DUP2 DUP2 MSTORE POP POP DUP7 DUP2 DUP2 MLOAD DUP2 LT PUSH2 0x912 JUMPI PUSH2 0x911 PUSH2 0x27A6 JUMP JUMPDEST JUMPDEST PUSH1 0x20 MUL PUSH1 0x20 ADD ADD MLOAD DUP3 DUP3 DUP2 MLOAD DUP2 LT PUSH2 0x92D JUMPI PUSH2 0x92C PUSH2 0x27A6 JUMP JUMPDEST JUMPDEST PUSH1 0x20 MUL PUSH1 0x20 ADD ADD DUP2 DUP2 MSTORE POP POP DUP1 DUP1 PUSH2 0x944 SWAP1 PUSH2 0x2804 JUMP JUMPDEST SWAP2 POP POP PUSH2 0x883 JUMP JUMPDEST POP PUSH1 0x0 PUSH1 0x40 MLOAD DUP1 PUSH1 0xA0 ADD PUSH1 0x40 MSTORE DUP1 DUP6 DUP2 MSTORE PUSH1 0x20 ADD DUP5 DUP2 MSTORE PUSH1 0x20 ADD DUP4 DUP2 MSTORE PUSH1 0x20 ADD DUP8 PUSH20 0xFFFFFFFFFFFFFFFFFFFFFFFFFFFFFFFFFFFFFFFF AND DUP2 MSTORE PUSH1 0x20 ADD DUP14 DUP2 MSTORE POP SWAP1 POP PUSH2 0x997 DUP2 PUSH2 0xBD4 JUMP JUMPDEST DUP1 SWAP11 POP POP POP POP POP POP POP POP POP POP POP SWAP4 SWAP3 POP POP POP JUMP JUMPDEST PUSH1 0x0 PUSH1 0x40 MLOAD DUP1 PUSH1 0xA0 ADD PUSH1 0x40 MSTORE DUP1 TIMESTAMP DUP2 MSTORE PUSH1 0x20 ADD DUP7 DUP2 MSTORE PUSH1 0x20 ADD DUP6 DUP2 MSTORE PUSH1 0x20 ADD DUP5 DUP2 MSTORE PUSH1 0x20 ADD DUP4 DUP2 MSTORE POP SWAP1 POP PUSH1 0x0 DUP2 SWAP1 DUP1 PUSH1 0x1 DUP2 SLOAD ADD DUP1 DUP3 SSTORE DUP1 SWAP2 POP POP PUSH1 0x1 SWAP1 SUB SWAP1 PUSH1 0x0 MSTORE PUSH1 0x20 PUSH1 0x0 KECCAK256 SWAP1 PUSH1 0x5 MUL ADD PUSH1 0x0 SWAP1 SWAP2 SWAP1 SWAP2 SWAP1 SWAP2 POP PUSH1 0x0 DUP3 ADD MLOAD DUP2 PUSH1 0x0 ADD SSTORE PUSH1 0x20 DUP3 ADD MLOAD DUP2 PUSH1 0x1 ADD SSTORE PUSH1 0x40 DUP3 ADD MLOAD DUP2 PUSH1 0x2 ADD SSTORE PUSH1 0x60 DUP3 ADD MLOAD DUP2 PUSH1 0x3 ADD SSTORE PUSH1 0x80 DUP3 ADD MLOAD DUP2 PUSH1 0x4 ADD SSTORE POP POP POP POP POP POP POP JUMP JUMPDEST PUSH1 0xA PUSH1 0x0 SWAP1 SLOAD SWAP1 PUSH2 0x100 EXP SWAP1 DIV PUSH20 0xFFFFFFFFFFFFFFFFFFFFFFFFFFFFFFFFFFFFFFFF AND DUP2 JUMP JUMPDEST PUSH1 0x5 PUSH1 0x0 SWAP1 SLOAD SWAP1 PUSH2 0x100 EXP SWAP1 DIV PUSH20 0xFFFFFFFFFFFFFFFFFFFFFFFFFFFFFFFFFFFFFFFF AND DUP2 JUMP JUMPDEST PUSH2 0xB37 DUP4 PUSH1 0x0 SHL DUP4 PUSH1 0x0 SHL DUP4 PUSH1 0x0 SHL PUSH1 0x2 PUSH1 0x0 SWAP1 SLOAD SWAP1 PUSH2 0x100 EXP SWAP1 DIV PUSH20 0xFFFFFFFFFFFFFFFFFFFFFFFFFFFFFFFFFFFFFFFF AND PUSH20 0xFFFFFFFFFFFFFFFFFFFFFFFFFFFFFFFFFFFFFFFF AND PUSH4 0xCFB51928 PUSH1 0x40 MLOAD DUP2 PUSH4 0xFFFFFFFF AND PUSH1 0xE0 SHL DUP2 MSTORE PUSH1 0x4 ADD PUSH2 0xAF1 SWAP1 PUSH2 0x28A9 JUMP JUMPDEST PUSH1 0x20 PUSH1 0x40 MLOAD DUP1 DUP4 SUB DUP2 DUP7 GAS STATICCALL ISZERO DUP1 ISZERO PUSH2 0xB0E JUMPI RETURNDATASIZE PUSH1 0x0 DUP1 RETURNDATACOPY RETURNDATASIZE PUSH1 0x0 REVERT JUMPDEST POP POP POP POP PUSH1 0x40 MLOAD RETURNDATASIZE PUSH1 0x1F NOT PUSH1 0x1F DUP3 ADD AND DUP3 ADD DUP1 PUSH1 0x40 MSTORE POP DUP2 ADD SWAP1 PUSH2 0xB32 SWAP2 SWAP1 PUSH2 0x2779 JUMP JUMPDEST PUSH2 0x9AB JUMP JUMPDEST POP POP POP JUMP JUMPDEST PUSH1 0x6 PUSH1 0x0 SWAP1 SLOAD SWAP1 PUSH2 0x100 EXP SWAP1 DIV PUSH20 0xFFFFFFFFFFFFFFFFFFFFFFFFFFFFFFFFFFFFFFFF AND DUP2 JUMP JUMPDEST PUSH1 0x4 PUSH1 0x0 SWAP1 SLOAD SWAP1 PUSH2 0x100 EXP SWAP1 DIV PUSH20 0xFFFFFFFFFFFFFFFFFFFFFFFFFFFFFFFFFFFFFFFF AND DUP2 JUMP JUMPDEST PUSH1 0x2 PUSH1 0x0 SWAP1 SLOAD SWAP1 PUSH2 0x100 EXP SWAP1 DIV PUSH20 0xFFFFFFFFFFFFFFFFFFFFFFFFFFFFFFFFFFFFFFFF AND DUP2 JUMP JUMPDEST PUSH1 0x3 PUSH1 0x0 SWAP1 SLOAD SWAP1 PUSH2 0x100 EXP SWAP1 DIV PUSH20 0xFFFFFFFFFFFFFFFFFFFFFFFFFFFFFFFFFFFFFFFF AND DUP2 JUMP JUMPDEST PUSH1 0x0 DUP1 PUSH1 0x1 PUSH1 0x0 DUP1 SLOAD SWAP1 POP PUSH2 0xBE9 SWAP2 SWAP1 PUSH2 0x28C9 JUMP JUMPDEST DUP2 SLOAD DUP2 LT PUSH2 0xBFA JUMPI PUSH2 0xBF9 PUSH2 0x27A6 JUMP JUMPDEST JUMPDEST SWAP1 PUSH1 0x0 MSTORE PUSH1 0x20 PUSH1 0x0 KECCAK256 SWAP1 PUSH1 0x5 MUL ADD PUSH1 0x40 MLOAD DUP1 PUSH1 0xA0 ADD PUSH1 0x40 MSTORE SWAP1 DUP2 PUSH1 0x0 DUP3 ADD SLOAD DUP2 MSTORE PUSH1 0x20 ADD PUSH1 0x1 DUP3 ADD SLOAD DUP2 MSTORE PUSH1 0x20 ADD PUSH1 0x2 DUP3 ADD SLOAD DUP2 MSTORE PUSH1 0x20 ADD PUSH1 0x3 DUP3 ADD SLOAD DUP2 MSTORE PUSH1 0x20 ADD PUSH1 0x4 DUP3 ADD SLOAD DUP2 MSTORE POP POP SWAP1 POP PUSH32 0x1ACB9CCF50487F4A2CC6F4C3D7744E1A71460282F21A1471A160EAE671ED79FA DUP3 PUSH1 0x0 ADD MLOAD PUSH1 0x0 DUP2 MLOAD DUP2 LT PUSH2 0xC80 JUMPI PUSH2 0xC7F PUSH2 0x27A6 JUMP JUMPDEST JUMPDEST PUSH1 0x20 MUL PUSH1 0x20 ADD ADD MLOAD PUSH1 0x40 MLOAD PUSH1 0x20 ADD PUSH2 0xC98 SWAP2 SWAP1 PUSH2 0x291E JUMP JUMPDEST PUSH1 0x40 MLOAD PUSH1 0x20 DUP2 DUP4 SUB SUB DUP2 MSTORE SWAP1 PUSH1 0x40 MSTORE DUP1 MLOAD SWAP1 PUSH1 0x20 ADD KECCAK256 PUSH1 0x2 PUSH1 0x0 SWAP1 SLOAD SWAP1 PUSH2 0x100 EXP SWAP1 DIV PUSH20 0xFFFFFFFFFFFFFFFFFFFFFFFFFFFFFFFFFFFFFFFF AND PUSH20 0xFFFFFFFFFFFFFFFFFFFFFFFFFFFFFFFFFFFFFFFF AND PUSH4 0xCFB51928 PUSH1 0x40 MLOAD DUP2 PUSH4 0xFFFFFFFF AND PUSH1 0xE0 SHL DUP2 MSTORE PUSH1 0x4 ADD PUSH2 0xD07 SWAP1 PUSH2 0x2985 JUMP JUMPDEST PUSH1 0x20 PUSH1 0x40 MLOAD DUP1 DUP4 SUB DUP2 DUP7 GAS STATICCALL ISZERO DUP1 ISZERO PUSH2 0xD24 JUMPI RETURNDATASIZE PUSH1 0x0 DUP1 RETURNDATACOPY RETURNDATASIZE PUSH1 0x0 REVERT JUMPDEST POP POP POP POP PUSH1 0x40 MLOAD RETURNDATASIZE PUSH1 0x1F NOT PUSH1 0x1F DUP3 ADD AND DUP3 ADD DUP1 PUSH1 0x40 MSTORE POP DUP2 ADD SWAP1 PUSH2 0xD48 SWAP2 SWAP1 PUSH2 0x2779 JUMP JUMPDEST PUSH1 0x40 MLOAD PUSH1 0x20 ADD PUSH2 0xD58 SWAP2 SWAP1 PUSH2 0x291E JUMP JUMPDEST PUSH1 0x40 MLOAD PUSH1 0x20 DUP2 DUP4 SUB SUB DUP2 MSTORE SWAP1 PUSH1 0x40 MSTORE DUP1 MLOAD SWAP1 PUSH1 0x20 ADD KECCAK256 PUSH1 0x40 MLOAD PUSH2 0xD7C SWAP3 SWAP2 SWAP1 PUSH2 0x29A5 JUMP JUMPDEST PUSH1 0x40 MLOAD DUP1 SWAP2 SUB SWAP1 LOG1 PUSH1 0x0 JUMPDEST DUP3 PUSH1 0x0 ADD MLOAD MLOAD DUP2 LT ISZERO PUSH2 0x1EEF JUMPI PUSH1 0x2 PUSH1 0x0 SWAP1 SLOAD SWAP1 PUSH2 0x100 EXP SWAP1 DIV PUSH20 0xFFFFFFFFFFFFFFFFFFFFFFFFFFFFFFFFFFFFFFFF AND PUSH20 0xFFFFFFFFFFFFFFFFFFFFFFFFFFFFFFFFFFFFFFFF AND PUSH4 0xCFB51928 PUSH1 0x40 MLOAD DUP2 PUSH4 0xFFFFFFFF AND PUSH1 0xE0 SHL DUP2 MSTORE PUSH1 0x4 ADD PUSH2 0xDED SWAP1 PUSH2 0x2985 JUMP JUMPDEST PUSH1 0x20 PUSH1 0x40 MLOAD DUP1 DUP4 SUB DUP2 DUP7 GAS STATICCALL ISZERO DUP1 ISZERO PUSH2 0xE0A JUMPI RETURNDATASIZE PUSH1 0x0 DUP1 RETURNDATACOPY RETURNDATASIZE PUSH1 0x0 REVERT JUMPDEST POP POP POP POP PUSH1 0x40 MLOAD RETURNDATASIZE PUSH1 0x1F NOT PUSH1 0x1F DUP3 ADD AND DUP3 ADD DUP1 PUSH1 0x40 MSTORE POP DUP2 ADD SWAP1 PUSH2 0xE2E SWAP2 SWAP1 PUSH2 0x2779 JUMP JUMPDEST PUSH1 0x40 MLOAD PUSH1 0x20 ADD PUSH2 0xE3E SWAP2 SWAP1 PUSH2 0x291E JUMP JUMPDEST PUSH1 0x40 MLOAD PUSH1 0x20 DUP2 DUP4 SUB SUB DUP2 MSTORE SWAP1 PUSH1 0x40 MSTORE DUP1 MLOAD SWAP1 PUSH1 0x20 ADD KECCAK256 DUP4 PUSH1 0x0 ADD MLOAD PUSH1 0x0 DUP2 MLOAD DUP2 LT PUSH2 0xE6C JUMPI PUSH2 0xE6B PUSH2 0x27A6 JUMP JUMPDEST JUMPDEST PUSH1 0x20 MUL PUSH1 0x20 ADD ADD MLOAD PUSH1 0x40 MLOAD PUSH1 0x20 ADD PUSH2 0xE84 SWAP2 SWAP1 PUSH2 0x291E JUMP JUMPDEST PUSH1 0x40 MLOAD PUSH1 0x20 DUP2 DUP4 SUB SUB DUP2 MSTORE SWAP1 PUSH1 0x40 MSTORE DUP1 MLOAD SWAP1 PUSH1 0x20 ADD KECCAK256 SUB PUSH2 0xFBD JUMPI PUSH1 0x3 PUSH1 0x0 SWAP1 SLOAD SWAP1 PUSH2 0x100 EXP SWAP1 DIV PUSH20 0xFFFFFFFFFFFFFFFFFFFFFFFFFFFFFFFFFFFFFFFF AND PUSH20 0xFFFFFFFFFFFFFFFFFFFFFFFFFFFFFFFFFFFFFFFF AND PUSH4 0x1D4FD87F DUP5 PUSH1 0x20 ADD MLOAD DUP4 DUP2 MLOAD DUP2 LT PUSH2 0xEF4 JUMPI PUSH2 0xEF3 PUSH2 0x27A6 JUMP JUMPDEST JUMPDEST PUSH1 0x20 MUL PUSH1 0x20 ADD ADD MLOAD DUP6 PUSH1 0x80 ADD MLOAD DUP6 PUSH1 0x20 ADD MLOAD DUP7 PUSH1 0x40 ADD MLOAD DUP8 PUSH1 0x60 ADD MLOAD PUSH1 0x40 MLOAD DUP7 PUSH4 0xFFFFFFFF AND PUSH1 0xE0 SHL DUP2 MSTORE PUSH1 0x4 ADD PUSH2 0xF30 SWAP6 SWAP5 SWAP4 SWAP3 SWAP2 SWAP1 PUSH2 0x29CE JUMP JUMPDEST PUSH1 0x0 PUSH1 0x40 MLOAD DUP1 DUP4 SUB DUP2 PUSH1 0x0 DUP8 DUP1 EXTCODESIZE ISZERO DUP1 ISZERO PUSH2 0xF4A JUMPI PUSH1 0x0 DUP1 REVERT JUMPDEST POP GAS CALL ISZERO DUP1 ISZERO PUSH2 0xF5E JUMPI RETURNDATASIZE PUSH1 0x0 DUP1 RETURNDATACOPY RETURNDATASIZE PUSH1 0x0 REVERT JUMPDEST POP POP POP POP DUP3 PUSH1 0x80 ADD MLOAD PUSH32 0x3B2E84A32C06C8109FD0E4FA81235D7FC35B9B4015DD48D09E3F297F69B935DC DUP5 PUSH1 0x0 ADD MLOAD DUP4 DUP2 MLOAD DUP2 LT PUSH2 0xF9F JUMPI PUSH2 0xF9E PUSH2 0x27A6 JUMP JUMPDEST JUMPDEST PUSH1 0x20 MUL PUSH1 0x20 ADD ADD MLOAD PUSH1 0x40 MLOAD PUSH2 0xFB4 SWAP2 SWAP1 PUSH2 0x2A21 JUMP JUMPDEST PUSH1 0x40 MLOAD DUP1 SWAP2 SUB SWAP1 LOG2 JUMPDEST PUSH1 0x2 PUSH1 0x0 SWAP1 SLOAD SWAP1 PUSH2 0x100 EXP SWAP1 DIV PUSH20 0xFFFFFFFFFFFFFFFFFFFFFFFFFFFFFFFFFFFFFFFF AND PUSH20 0xFFFFFFFFFFFFFFFFFFFFFFFFFFFFFFFFFFFFFFFF AND PUSH4 0xCFB51928 PUSH1 0x40 MLOAD DUP2 PUSH4 0xFFFFFFFF AND PUSH1 0xE0 SHL DUP2 MSTORE PUSH1 0x4 ADD PUSH2 0x1016 SWAP1 PUSH2 0x2A88 JUMP JUMPDEST PUSH1 0x20 PUSH1 0x40 MLOAD DUP1 DUP4 SUB DUP2 DUP7 GAS STATICCALL ISZERO DUP1 ISZERO PUSH2 0x1033 JUMPI RETURNDATASIZE PUSH1 0x0 DUP1 RETURNDATACOPY RETURNDATASIZE PUSH1 0x0 REVERT JUMPDEST POP POP POP POP PUSH1 0x40 MLOAD RETURNDATASIZE PUSH1 0x1F NOT PUSH1 0x1F DUP3 ADD AND DUP3 ADD DUP1 PUSH1 0x40 MSTORE POP DUP2 ADD SWAP1 PUSH2 0x1057 SWAP2 SWAP1 PUSH2 0x2779 JUMP JUMPDEST PUSH1 0x40 MLOAD PUSH1 0x20 ADD PUSH2 0x1067 SWAP2 SWAP1 PUSH2 0x291E JUMP JUMPDEST PUSH1 0x40 MLOAD PUSH1 0x20 DUP2 DUP4 SUB SUB DUP2 MSTORE SWAP1 PUSH1 0x40 MSTORE DUP1 MLOAD SWAP1 PUSH1 0x20 ADD KECCAK256 DUP4 PUSH1 0x0 ADD MLOAD PUSH1 0x0 DUP2 MLOAD DUP2 LT PUSH2 0x1095 JUMPI PUSH2 0x1094 PUSH2 0x27A6 JUMP JUMPDEST JUMPDEST PUSH1 0x20 MUL PUSH1 0x20 ADD ADD MLOAD PUSH1 0x40 MLOAD PUSH1 0x20 ADD PUSH2 0x10AD SWAP2 SWAP1 PUSH2 0x291E JUMP JUMPDEST PUSH1 0x40 MLOAD PUSH1 0x20 DUP2 DUP4 SUB SUB DUP2 MSTORE SWAP1 PUSH1 0x40 MSTORE DUP1 MLOAD SWAP1 PUSH1 0x20 ADD KECCAK256 SUB PUSH2 0x11E6 JUMPI PUSH1 0x4 PUSH1 0x0 SWAP1 SLOAD SWAP1 PUSH2 0x100 EXP SWAP1 DIV PUSH20 0xFFFFFFFFFFFFFFFFFFFFFFFFFFFFFFFFFFFFFFFF AND PUSH20 0xFFFFFFFFFFFFFFFFFFFFFFFFFFFFFFFFFFFFFFFF AND PUSH4 0x1D4FD87F DUP5 PUSH1 0x20 ADD MLOAD DUP4 DUP2 MLOAD DUP2 LT PUSH2 0x111D JUMPI PUSH2 0x111C PUSH2 0x27A6 JUMP JUMPDEST JUMPDEST PUSH1 0x20 MUL PUSH1 0x20 ADD ADD MLOAD DUP6 PUSH1 0x80 ADD MLOAD DUP6 PUSH1 0x20 ADD MLOAD DUP7 PUSH1 0x40 ADD MLOAD DUP8 PUSH1 0x60 ADD MLOAD PUSH1 0x40 MLOAD DUP7 PUSH4 0xFFFFFFFF AND PUSH1 0xE0 SHL DUP2 MSTORE PUSH1 0x4 ADD PUSH2 0x1159 SWAP6 SWAP5 SWAP4 SWAP3 SWAP2 SWAP1 PUSH2 0x29CE JUMP JUMPDEST PUSH1 0x0 PUSH1 0x40 MLOAD DUP1 DUP4 SUB DUP2 PUSH1 0x0 DUP8 DUP1 EXTCODESIZE ISZERO DUP1 ISZERO PUSH2 0x1173 JUMPI PUSH1 0x0 DUP1 REVERT JUMPDEST POP GAS CALL ISZERO DUP1 ISZERO PUSH2 0x1187 JUMPI RETURNDATASIZE PUSH1 0x0 DUP1 RETURNDATACOPY RETURNDATASIZE PUSH1 0x0 REVERT JUMPDEST POP POP POP POP DUP3 PUSH1 0x80 ADD MLOAD PUSH32 0x3B2E84A32C06C8109FD0E4FA81235D7FC35B9B4015DD48D09E3F297F69B935DC DUP5 PUSH1 0x0 ADD MLOAD DUP4 DUP2 MLOAD DUP2 LT PUSH2 0x11C8 JUMPI PUSH2 0x11C7 PUSH2 0x27A6 JUMP JUMPDEST JUMPDEST PUSH1 0x20 MUL PUSH1 0x20 ADD ADD MLOAD PUSH1 0x40 MLOAD PUSH2 0x11DD SWAP2 SWAP1 PUSH2 0x2A21 JUMP JUMPDEST PUSH1 0x40 MLOAD DUP1 SWAP2 SUB SWAP1 LOG2 JUMPDEST PUSH1 0x2 PUSH1 0x0 SWAP1 SLOAD SWAP1 PUSH2 0x100 EXP SWAP1 DIV PUSH20 0xFFFFFFFFFFFFFFFFFFFFFFFFFFFFFFFFFFFFFFFF AND PUSH20 0xFFFFFFFFFFFFFFFFFFFFFFFFFFFFFFFFFFFFFFFF AND PUSH4 0xCFB51928 PUSH1 0x40 MLOAD DUP2 PUSH4 0xFFFFFFFF AND PUSH1 0xE0 SHL DUP2 MSTORE PUSH1 0x4 ADD PUSH2 0x123F SWAP1 PUSH2 0x2AF4 JUMP JUMPDEST PUSH1 0x20 PUSH1 0x40 MLOAD DUP1 DUP4 SUB DUP2 DUP7 GAS STATICCALL ISZERO DUP1 ISZERO PUSH2 0x125C JUMPI RETURNDATASIZE PUSH1 0x0 DUP1 RETURNDATACOPY RETURNDATASIZE PUSH1 0x0 REVERT JUMPDEST POP POP POP POP PUSH1 0x40 MLOAD RETURNDATASIZE PUSH1 0x1F NOT PUSH1 0x1F DUP3 ADD AND DUP3 ADD DUP1 PUSH1 0x40 MSTORE POP DUP2 ADD SWAP1 PUSH2 0x1280 SWAP2 SWAP1 PUSH2 0x2779 JUMP JUMPDEST PUSH1 0x40 MLOAD PUSH1 0x20 ADD PUSH2 0x1290 SWAP2 SWAP1 PUSH2 0x291E JUMP JUMPDEST PUSH1 0x40 MLOAD PUSH1 0x20 DUP2 DUP4 SUB SUB DUP2 MSTORE SWAP1 PUSH1 0x40 MSTORE DUP1 MLOAD SWAP1 PUSH1 0x20 ADD KECCAK256 DUP4 PUSH1 0x0 ADD MLOAD PUSH1 0x0 DUP2 MLOAD DUP2 LT PUSH2 0x12BE JUMPI PUSH2 0x12BD PUSH2 0x27A6 JUMP JUMPDEST JUMPDEST PUSH1 0x20 MUL PUSH1 0x20 ADD ADD MLOAD PUSH1 0x40 MLOAD PUSH1 0x20 ADD PUSH2 0x12D6 SWAP2 SWAP1 PUSH2 0x291E JUMP JUMPDEST PUSH1 0x40 MLOAD PUSH1 0x20 DUP2 DUP4 SUB SUB DUP2 MSTORE SWAP1 PUSH1 0x40 MSTORE DUP1 MLOAD SWAP1 PUSH1 0x20 ADD KECCAK256 SUB PUSH2 0x140F JUMPI PUSH1 0x5 PUSH1 0x0 SWAP1 SLOAD SWAP1 PUSH2 0x100 EXP SWAP1 DIV PUSH20 0xFFFFFFFFFFFFFFFFFFFFFFFFFFFFFFFFFFFFFFFF AND PUSH20 0xFFFFFFFFFFFFFFFFFFFFFFFFFFFFFFFFFFFFFFFF AND PUSH4 0x1D4FD87F DUP5 PUSH1 0x20 ADD MLOAD DUP4 DUP2 MLOAD DUP2 LT PUSH2 0x1346 JUMPI PUSH2 0x1345 PUSH2 0x27A6 JUMP JUMPDEST JUMPDEST PUSH1 0x20 MUL PUSH1 0x20 ADD ADD MLOAD DUP6 PUSH1 0x80 ADD MLOAD DUP6 PUSH1 0x20 ADD MLOAD DUP7 PUSH1 0x40 ADD MLOAD DUP8 PUSH1 0x60 ADD MLOAD PUSH1 0x40 MLOAD DUP7 PUSH4 0xFFFFFFFF AND PUSH1 0xE0 SHL DUP2 MSTORE PUSH1 0x4 ADD PUSH2 0x1382 SWAP6 SWAP5 SWAP4 SWAP3 SWAP2 SWAP1 PUSH2 0x29CE JUMP JUMPDEST PUSH1 0x0 PUSH1 0x40 MLOAD DUP1 DUP4 SUB DUP2 PUSH1 0x0 DUP8 DUP1 EXTCODESIZE ISZERO DUP1 ISZERO PUSH2 0x139C JUMPI PUSH1 0x0 DUP1 REVERT JUMPDEST POP GAS CALL ISZERO DUP1 ISZERO PUSH2 0x13B0 JUMPI RETURNDATASIZE PUSH1 0x0 DUP1 RETURNDATACOPY RETURNDATASIZE PUSH1 0x0 REVERT JUMPDEST POP POP POP POP DUP3 PUSH1 0x80 ADD MLOAD PUSH32 0x3B2E84A32C06C8109FD0E4FA81235D7FC35B9B4015DD48D09E3F297F69B935DC DUP5 PUSH1 0x0 ADD MLOAD DUP4 DUP2 MLOAD DUP2 LT PUSH2 0x13F1 JUMPI PUSH2 0x13F0 PUSH2 0x27A6 JUMP JUMPDEST JUMPDEST PUSH1 0x20 MUL PUSH1 0x20 ADD ADD MLOAD PUSH1 0x40 MLOAD PUSH2 0x1406 SWAP2 SWAP1 PUSH2 0x2A21 JUMP JUMPDEST PUSH1 0x40 MLOAD DUP1 SWAP2 SUB SWAP1 LOG2 JUMPDEST PUSH1 0x2 PUSH1 0x0 SWAP1 SLOAD SWAP1 PUSH2 0x100 EXP SWAP1 DIV PUSH20 0xFFFFFFFFFFFFFFFFFFFFFFFFFFFFFFFFFFFFFFFF AND PUSH20 0xFFFFFFFFFFFFFFFFFFFFFFFFFFFFFFFFFFFFFFFF AND PUSH4 0xCFB51928 PUSH1 0x40 MLOAD DUP2 PUSH4 0xFFFFFFFF AND PUSH1 0xE0 SHL DUP2 MSTORE PUSH1 0x4 ADD PUSH2 0x1468 SWAP1 PUSH2 0x2B60 JUMP JUMPDEST PUSH1 0x20 PUSH1 0x40 MLOAD DUP1 DUP4 SUB DUP2 DUP7 GAS STATICCALL ISZERO DUP1 ISZERO PUSH2 0x1485 JUMPI RETURNDATASIZE PUSH1 0x0 DUP1 RETURNDATACOPY RETURNDATASIZE PUSH1 0x0 REVERT JUMPDEST POP POP POP POP PUSH1 0x40 MLOAD RETURNDATASIZE PUSH1 0x1F NOT PUSH1 0x1F DUP3 ADD AND DUP3 ADD DUP1 PUSH1 0x40 MSTORE POP DUP2 ADD SWAP1 PUSH2 0x14A9 SWAP2 SWAP1 PUSH2 0x2779 JUMP JUMPDEST PUSH1 0x40 MLOAD PUSH1 0x20 ADD PUSH2 0x14B9 SWAP2 SWAP1 PUSH2 0x291E JUMP JUMPDEST PUSH1 0x40 MLOAD PUSH1 0x20 DUP2 DUP4 SUB SUB DUP2 MSTORE SWAP1 PUSH1 0x40 MSTORE DUP1 MLOAD SWAP1 PUSH1 0x20 ADD KECCAK256 DUP4 PUSH1 0x0 ADD MLOAD PUSH1 0x0 DUP2 MLOAD DUP2 LT PUSH2 0x14E7 JUMPI PUSH2 0x14E6 PUSH2 0x27A6 JUMP JUMPDEST JUMPDEST PUSH1 0x20 MUL PUSH1 0x20 ADD ADD MLOAD PUSH1 0x40 MLOAD PUSH1 0x20 ADD PUSH2 0x14FF SWAP2 SWAP1 PUSH2 0x291E JUMP JUMPDEST PUSH1 0x40 MLOAD PUSH1 0x20 DUP2 DUP4 SUB SUB DUP2 MSTORE SWAP1 PUSH1 0x40 MSTORE DUP1 MLOAD SWAP1 PUSH1 0x20 ADD KECCAK256 SUB PUSH2 0x1638 JUMPI PUSH1 0x6 PUSH1 0x0 SWAP1 SLOAD SWAP1 PUSH2 0x100 EXP SWAP1 DIV PUSH20 0xFFFFFFFFFFFFFFFFFFFFFFFFFFFFFFFFFFFFFFFF AND PUSH20 0xFFFFFFFFFFFFFFFFFFFFFFFFFFFFFFFFFFFFFFFF AND PUSH4 0x1D4FD87F DUP5 PUSH1 0x20 ADD MLOAD DUP4 DUP2 MLOAD DUP2 LT PUSH2 0x156F JUMPI PUSH2 0x156E PUSH2 0x27A6 JUMP JUMPDEST JUMPDEST PUSH1 0x20 MUL PUSH1 0x20 ADD ADD MLOAD DUP6 PUSH1 0x80 ADD MLOAD DUP6 PUSH1 0x20 ADD MLOAD DUP7 PUSH1 0x40 ADD MLOAD DUP8 PUSH1 0x60 ADD MLOAD PUSH1 0x40 MLOAD DUP7 PUSH4 0xFFFFFFFF AND PUSH1 0xE0 SHL DUP2 MSTORE PUSH1 0x4 ADD PUSH2 0x15AB SWAP6 SWAP5 SWAP4 SWAP3 SWAP2 SWAP1 PUSH2 0x29CE JUMP JUMPDEST PUSH1 0x0 PUSH1 0x40 MLOAD DUP1 DUP4 SUB DUP2 PUSH1 0x0 DUP8 DUP1 EXTCODESIZE ISZERO DUP1 ISZERO PUSH2 0x15C5 JUMPI PUSH1 0x0 DUP1 REVERT JUMPDEST POP GAS CALL ISZERO DUP1 ISZERO PUSH2 0x15D9 JUMPI RETURNDATASIZE PUSH1 0x0 DUP1 RETURNDATACOPY RETURNDATASIZE PUSH1 0x0 REVERT JUMPDEST POP POP POP POP DUP3 PUSH1 0x80 ADD MLOAD PUSH32 0x3B2E84A32C06C8109FD0E4FA81235D7FC35B9B4015DD48D09E3F297F69B935DC DUP5 PUSH1 0x0 ADD MLOAD DUP4 DUP2 MLOAD DUP2 LT PUSH2 0x161A JUMPI PUSH2 0x1619 PUSH2 0x27A6 JUMP JUMPDEST JUMPDEST PUSH1 0x20 MUL PUSH1 0x20 ADD ADD MLOAD PUSH1 0x40 MLOAD PUSH2 0x162F SWAP2 SWAP1 PUSH2 0x2A21 JUMP JUMPDEST PUSH1 0x40 MLOAD DUP1 SWAP2 SUB SWAP1 LOG2 JUMPDEST PUSH1 0x2 PUSH1 0x0 SWAP1 SLOAD SWAP1 PUSH2 0x100 EXP SWAP1 DIV PUSH20 0xFFFFFFFFFFFFFFFFFFFFFFFFFFFFFFFFFFFFFFFF AND PUSH20 0xFFFFFFFFFFFFFFFFFFFFFFFFFFFFFFFFFFFFFFFF AND PUSH4 0xCFB51928 PUSH1 0x40 MLOAD DUP2 PUSH4 0xFFFFFFFF AND PUSH1 0xE0 SHL DUP2 MSTORE PUSH1 0x4 ADD PUSH2 0x1691 SWAP1 PUSH2 0x2BCC JUMP JUMPDEST PUSH1 0x20 PUSH1 0x40 MLOAD DUP1 DUP4 SUB DUP2 DUP7 GAS STATICCALL ISZERO DUP1 ISZERO PUSH2 0x16AE JUMPI RETURNDATASIZE PUSH1 0x0 DUP1 RETURNDATACOPY RETURNDATASIZE PUSH1 0x0 REVERT JUMPDEST POP POP POP POP PUSH1 0x40 MLOAD RETURNDATASIZE PUSH1 0x1F NOT PUSH1 0x1F DUP3 ADD AND DUP3 ADD DUP1 PUSH1 0x40 MSTORE POP DUP2 ADD SWAP1 PUSH2 0x16D2 SWAP2 SWAP1 PUSH2 0x2779 JUMP JUMPDEST PUSH1 0x40 MLOAD PUSH1 0x20 ADD PUSH2 0x16E2 SWAP2 SWAP1 PUSH2 0x291E JUMP JUMPDEST PUSH1 0x40 MLOAD PUSH1 0x20 DUP2 DUP4 SUB SUB DUP2 MSTORE SWAP1 PUSH1 0x40 MSTORE DUP1 MLOAD SWAP1 PUSH1 0x20 ADD KECCAK256 DUP4 PUSH1 0x0 ADD MLOAD PUSH1 0x0 DUP2 MLOAD DUP2 LT PUSH2 0x1710 JUMPI PUSH2 0x170F PUSH2 0x27A6 JUMP JUMPDEST JUMPDEST PUSH1 0x20 MUL PUSH1 0x20 ADD ADD MLOAD PUSH1 0x40 MLOAD PUSH1 0x20 ADD PUSH2 0x1728 SWAP2 SWAP1 PUSH2 0x291E JUMP JUMPDEST PUSH1 0x40 MLOAD PUSH1 0x20 DUP2 DUP4 SUB SUB DUP2 MSTORE SWAP1 PUSH1 0x40 MSTORE DUP1 MLOAD SWAP1 PUSH1 0x20 ADD KECCAK256 SUB PUSH2 0x1861 JUMPI PUSH1 0x7 PUSH1 0x0 SWAP1 SLOAD SWAP1 PUSH2 0x100 EXP SWAP1 DIV PUSH20 0xFFFFFFFFFFFFFFFFFFFFFFFFFFFFFFFFFFFFFFFF AND PUSH20 0xFFFFFFFFFFFFFFFFFFFFFFFFFFFFFFFFFFFFFFFF AND PUSH4 0x1D4FD87F DUP5 PUSH1 0x20 ADD MLOAD DUP4 DUP2 MLOAD DUP2 LT PUSH2 0x1798 JUMPI PUSH2 0x1797 PUSH2 0x27A6 JUMP JUMPDEST JUMPDEST PUSH1 0x20 MUL PUSH1 0x20 ADD ADD MLOAD DUP6 PUSH1 0x80 ADD MLOAD DUP6 PUSH1 0x20 ADD MLOAD DUP7 PUSH1 0x40 ADD MLOAD DUP8 PUSH1 0x60 ADD MLOAD PUSH1 0x40 MLOAD DUP7 PUSH4 0xFFFFFFFF AND PUSH1 0xE0 SHL DUP2 MSTORE PUSH1 0x4 ADD PUSH2 0x17D4 SWAP6 SWAP5 SWAP4 SWAP3 SWAP2 SWAP1 PUSH2 0x29CE JUMP JUMPDEST PUSH1 0x0 PUSH1 0x40 MLOAD DUP1 DUP4 SUB DUP2 PUSH1 0x0 DUP8 DUP1 EXTCODESIZE ISZERO DUP1 ISZERO PUSH2 0x17EE JUMPI PUSH1 0x0 DUP1 REVERT JUMPDEST POP GAS CALL ISZERO DUP1 ISZERO PUSH2 0x1802 JUMPI RETURNDATASIZE PUSH1 0x0 DUP1 RETURNDATACOPY RETURNDATASIZE PUSH1 0x0 REVERT JUMPDEST POP POP POP POP DUP3 PUSH1 0x80 ADD MLOAD PUSH32 0x3B2E84A32C06C8109FD0E4FA81235D7FC35B9B4015DD48D09E3F297F69B935DC DUP5 PUSH1 0x0 ADD MLOAD DUP4 DUP2 MLOAD DUP2 LT PUSH2 0x1843 JUMPI PUSH2 0x1842 PUSH2 0x27A6 JUMP JUMPDEST JUMPDEST PUSH1 0x20 MUL PUSH1 0x20 ADD ADD MLOAD PUSH1 0x40 MLOAD PUSH2 0x1858 SWAP2 SWAP1 PUSH2 0x2A21 JUMP JUMPDEST PUSH1 0x40 MLOAD DUP1 SWAP2 SUB SWAP1 LOG2 JUMPDEST PUSH1 0x2 PUSH1 0x0 SWAP1 SLOAD SWAP1 PUSH2 0x100 EXP SWAP1 DIV PUSH20 0xFFFFFFFFFFFFFFFFFFFFFFFFFFFFFFFFFFFFFFFF AND PUSH20 0xFFFFFFFFFFFFFFFFFFFFFFFFFFFFFFFFFFFFFFFF AND PUSH4 0xCFB51928 PUSH1 0x40 MLOAD DUP2 PUSH4 0xFFFFFFFF AND PUSH1 0xE0 SHL DUP2 MSTORE PUSH1 0x4 ADD PUSH2 0x18BA SWAP1 PUSH2 0x2C38 JUMP JUMPDEST PUSH1 0x20 PUSH1 0x40 MLOAD DUP1 DUP4 SUB DUP2 DUP7 GAS STATICCALL ISZERO DUP1 ISZERO PUSH2 0x18D7 JUMPI RETURNDATASIZE PUSH1 0x0 DUP1 RETURNDATACOPY RETURNDATASIZE PUSH1 0x0 REVERT JUMPDEST POP POP POP POP PUSH1 0x40 MLOAD RETURNDATASIZE PUSH1 0x1F NOT PUSH1 0x1F DUP3 ADD AND DUP3 ADD DUP1 PUSH1 0x40 MSTORE POP DUP2 ADD SWAP1 PUSH2 0x18FB SWAP2 SWAP1 PUSH2 0x2779 JUMP JUMPDEST PUSH1 0x40 MLOAD PUSH1 0x20 ADD PUSH2 0x190B SWAP2 SWAP1 PUSH2 0x291E JUMP JUMPDEST PUSH1 0x40 MLOAD PUSH1 0x20 DUP2 DUP4 SUB SUB DUP2 MSTORE SWAP1 PUSH1 0x40 MSTORE DUP1 MLOAD SWAP1 PUSH1 0x20 ADD KECCAK256 DUP4 PUSH1 0x0 ADD MLOAD PUSH1 0x0 DUP2 MLOAD DUP2 LT PUSH2 0x1939 JUMPI PUSH2 0x1938 PUSH2 0x27A6 JUMP JUMPDEST JUMPDEST PUSH1 0x20 MUL PUSH1 0x20 ADD ADD MLOAD PUSH1 0x40 MLOAD PUSH1 0x20 ADD PUSH2 0x1951 SWAP2 SWAP1 PUSH2 0x291E JUMP JUMPDEST PUSH1 0x40 MLOAD PUSH1 0x20 DUP2 DUP4 SUB SUB DUP2 MSTORE SWAP1 PUSH1 0x40 MSTORE DUP1 MLOAD SWAP1 PUSH1 0x20 ADD KECCAK256 SUB PUSH2 0x1A8A JUMPI PUSH1 0x8 PUSH1 0x0 SWAP1 SLOAD SWAP1 PUSH2 0x100 EXP SWAP1 DIV PUSH20 0xFFFFFFFFFFFFFFFFFFFFFFFFFFFFFFFFFFFFFFFF AND PUSH20 0xFFFFFFFFFFFFFFFFFFFFFFFFFFFFFFFFFFFFFFFF AND PUSH4 0x1D4FD87F DUP5 PUSH1 0x20 ADD MLOAD DUP4 DUP2 MLOAD DUP2 LT PUSH2 0x19C1 JUMPI PUSH2 0x19C0 PUSH2 0x27A6 JUMP JUMPDEST JUMPDEST PUSH1 0x20 MUL PUSH1 0x20 ADD ADD MLOAD DUP6 PUSH1 0x80 ADD MLOAD DUP6 PUSH1 0x20 ADD MLOAD DUP7 PUSH1 0x40 ADD MLOAD DUP8 PUSH1 0x60 ADD MLOAD PUSH1 0x40 MLOAD DUP7 PUSH4 0xFFFFFFFF AND PUSH1 0xE0 SHL DUP2 MSTORE PUSH1 0x4 ADD PUSH2 0x19FD SWAP6 SWAP5 SWAP4 SWAP3 SWAP2 SWAP1 PUSH2 0x29CE JUMP JUMPDEST PUSH1 0x0 PUSH1 0x40 MLOAD DUP1 DUP4 SUB DUP2 PUSH1 0x0 DUP8 DUP1 EXTCODESIZE ISZERO DUP1 ISZERO PUSH2 0x1A17 JUMPI PUSH1 0x0 DUP1 REVERT JUMPDEST POP GAS CALL ISZERO DUP1 ISZERO PUSH2 0x1A2B JUMPI RETURNDATASIZE PUSH1 0x0 DUP1 RETURNDATACOPY RETURNDATASIZE PUSH1 0x0 REVERT JUMPDEST POP POP POP POP DUP3 PUSH1 0x80 ADD MLOAD PUSH32 0x3B2E84A32C06C8109FD0E4FA81235D7FC35B9B4015DD48D09E3F297F69B935DC DUP5 PUSH1 0x0 ADD MLOAD DUP4 DUP2 MLOAD DUP2 LT PUSH2 0x1A6C JUMPI PUSH2 0x1A6B PUSH2 0x27A6 JUMP JUMPDEST JUMPDEST PUSH1 0x20 MUL PUSH1 0x20 ADD ADD MLOAD PUSH1 0x40 MLOAD PUSH2 0x1A81 SWAP2 SWAP1 PUSH2 0x2A21 JUMP JUMPDEST PUSH1 0x40 MLOAD DUP1 SWAP2 SUB SWAP1 LOG2 JUMPDEST PUSH1 0x2 PUSH1 0x0 SWAP1 SLOAD SWAP1 PUSH2 0x100 EXP SWAP1 DIV PUSH20 0xFFFFFFFFFFFFFFFFFFFFFFFFFFFFFFFFFFFFFFFF AND PUSH20 0xFFFFFFFFFFFFFFFFFFFFFFFFFFFFFFFFFFFFFFFF AND PUSH4 0xCFB51928 PUSH1 0x40 MLOAD DUP2 PUSH4 0xFFFFFFFF AND PUSH1 0xE0 SHL DUP2 MSTORE PUSH1 0x4 ADD PUSH2 0x1AE3 SWAP1 PUSH2 0x2CA4 JUMP JUMPDEST PUSH1 0x20 PUSH1 0x40 MLOAD DUP1 DUP4 SUB DUP2 DUP7 GAS STATICCALL ISZERO DUP1 ISZERO PUSH2 0x1B00 JUMPI RETURNDATASIZE PUSH1 0x0 DUP1 RETURNDATACOPY RETURNDATASIZE PUSH1 0x0 REVERT JUMPDEST POP POP POP POP PUSH1 0x40 MLOAD RETURNDATASIZE PUSH1 0x1F NOT PUSH1 0x1F DUP3 ADD AND DUP3 ADD DUP1 PUSH1 0x40 MSTORE POP DUP2 ADD SWAP1 PUSH2 0x1B24 SWAP2 SWAP1 PUSH2 0x2779 JUMP JUMPDEST PUSH1 0x40 MLOAD PUSH1 0x20 ADD PUSH2 0x1B34 SWAP2 SWAP1 PUSH2 0x291E JUMP JUMPDEST PUSH1 0x40 MLOAD PUSH1 0x20 DUP2 DUP4 SUB SUB DUP2 MSTORE SWAP1 PUSH1 0x40 MSTORE DUP1 MLOAD SWAP1 PUSH1 0x20 ADD KECCAK256 DUP4 PUSH1 0x0 ADD MLOAD PUSH1 0x0 DUP2 MLOAD DUP2 LT PUSH2 0x1B62 JUMPI PUSH2 0x1B61 PUSH2 0x27A6 JUMP JUMPDEST JUMPDEST PUSH1 0x20 MUL PUSH1 0x20 ADD ADD MLOAD PUSH1 0x40 MLOAD PUSH1 0x20 ADD PUSH2 0x1B7A SWAP2 SWAP1 PUSH2 0x291E JUMP JUMPDEST PUSH1 0x40 MLOAD PUSH1 0x20 DUP2 DUP4 SUB SUB DUP2 MSTORE SWAP1 PUSH1 0x40 MSTORE DUP1 MLOAD SWAP1 PUSH1 0x20 ADD KECCAK256 SUB PUSH2 0x1CB3 JUMPI PUSH1 0x9 PUSH1 0x0 SWAP1 SLOAD SWAP1 PUSH2 0x100 EXP SWAP1 DIV PUSH20 0xFFFFFFFFFFFFFFFFFFFFFFFFFFFFFFFFFFFFFFFF AND PUSH20 0xFFFFFFFFFFFFFFFFFFFFFFFFFFFFFFFFFFFFFFFF AND PUSH4 0x1D4FD87F DUP5 PUSH1 0x20 ADD MLOAD DUP4 DUP2 MLOAD DUP2 LT PUSH2 0x1BEA JUMPI PUSH2 0x1BE9 PUSH2 0x27A6 JUMP JUMPDEST JUMPDEST PUSH1 0x20 MUL PUSH1 0x20 ADD ADD MLOAD DUP6 PUSH1 0x80 ADD MLOAD DUP6 PUSH1 0x20 ADD MLOAD DUP7 PUSH1 0x40 ADD MLOAD DUP8 PUSH1 0x60 ADD MLOAD PUSH1 0x40 MLOAD DUP7 PUSH4 0xFFFFFFFF AND PUSH1 0xE0 SHL DUP2 MSTORE PUSH1 0x4 ADD PUSH2 0x1C26 SWAP6 SWAP5 SWAP4 SWAP3 SWAP2 SWAP1 PUSH2 0x29CE JUMP JUMPDEST PUSH1 0x0 PUSH1 0x40 MLOAD DUP1 DUP4 SUB DUP2 PUSH1 0x0 DUP8 DUP1 EXTCODESIZE ISZERO DUP1 ISZERO PUSH2 0x1C40 JUMPI PUSH1 0x0 DUP1 REVERT JUMPDEST POP GAS CALL ISZERO DUP1 ISZERO PUSH2 0x1C54 JUMPI RETURNDATASIZE PUSH1 0x0 DUP1 RETURNDATACOPY RETURNDATASIZE PUSH1 0x0 REVERT JUMPDEST POP POP POP POP DUP3 PUSH1 0x80 ADD MLOAD PUSH32 0x3B2E84A32C06C8109FD0E4FA81235D7FC35B9B4015DD48D09E3F297F69B935DC DUP5 PUSH1 0x0 ADD MLOAD DUP4 DUP2 MLOAD DUP2 LT PUSH2 0x1C95 JUMPI PUSH2 0x1C94 PUSH2 0x27A6 JUMP JUMPDEST JUMPDEST PUSH1 0x20 MUL PUSH1 0x20 ADD ADD MLOAD PUSH1 0x40 MLOAD PUSH2 0x1CAA SWAP2 SWAP1 PUSH2 0x2A21 JUMP JUMPDEST PUSH1 0x40 MLOAD DUP1 SWAP2 SUB SWAP1 LOG2 JUMPDEST PUSH1 0x2 PUSH1 0x0 SWAP1 SLOAD SWAP1 PUSH2 0x100 EXP SWAP1 DIV PUSH20 0xFFFFFFFFFFFFFFFFFFFFFFFFFFFFFFFFFFFFFFFF AND PUSH20 0xFFFFFFFFFFFFFFFFFFFFFFFFFFFFFFFFFFFFFFFF AND PUSH4 0xCFB51928 PUSH1 0x40 MLOAD DUP2 PUSH4 0xFFFFFFFF AND PUSH1 0xE0 SHL DUP2 MSTORE PUSH1 0x4 ADD PUSH2 0x1D0C SWAP1 PUSH2 0x2D10 JUMP JUMPDEST PUSH1 0x20 PUSH1 0x40 MLOAD DUP1 DUP4 SUB DUP2 DUP7 GAS STATICCALL ISZERO DUP1 ISZERO PUSH2 0x1D29 JUMPI RETURNDATASIZE PUSH1 0x0 DUP1 RETURNDATACOPY RETURNDATASIZE PUSH1 0x0 REVERT JUMPDEST POP POP POP POP PUSH1 0x40 MLOAD RETURNDATASIZE PUSH1 0x1F NOT PUSH1 0x1F DUP3 ADD AND DUP3 ADD DUP1 PUSH1 0x40 MSTORE POP DUP2 ADD SWAP1 PUSH2 0x1D4D SWAP2 SWAP1 PUSH2 0x2779 JUMP JUMPDEST PUSH1 0x40 MLOAD PUSH1 0x20 ADD PUSH2 0x1D5D SWAP2 SWAP1 PUSH2 0x291E JUMP JUMPDEST PUSH1 0x40 MLOAD PUSH1 0x20 DUP2 DUP4 SUB SUB DUP2 MSTORE SWAP1 PUSH1 0x40 MSTORE DUP1 MLOAD SWAP1 PUSH1 0x20 ADD KECCAK256 DUP4 PUSH1 0x0 ADD MLOAD PUSH1 0x0 DUP2 MLOAD DUP2 LT PUSH2 0x1D8B JUMPI PUSH2 0x1D8A PUSH2 0x27A6 JUMP JUMPDEST JUMPDEST PUSH1 0x20 MUL PUSH1 0x20 ADD ADD MLOAD PUSH1 0x40 MLOAD PUSH1 0x20 ADD PUSH2 0x1DA3 SWAP2 SWAP1 PUSH2 0x291E JUMP JUMPDEST PUSH1 0x40 MLOAD PUSH1 0x20 DUP2 DUP4 SUB SUB DUP2 MSTORE SWAP1 PUSH1 0x40 MSTORE DUP1 MLOAD SWAP1 PUSH1 0x20 ADD KECCAK256 SUB PUSH2 0x1EDC JUMPI PUSH1 0xA PUSH1 0x0 SWAP1 SLOAD SWAP1 PUSH2 0x100 EXP SWAP1 DIV PUSH20 0xFFFFFFFFFFFFFFFFFFFFFFFFFFFFFFFFFFFFFFFF AND PUSH20 0xFFFFFFFFFFFFFFFFFFFFFFFFFFFFFFFFFFFFFFFF AND PUSH4 0x1D4FD87F DUP5 PUSH1 0x20 ADD MLOAD DUP4 DUP2 MLOAD DUP2 LT PUSH2 0x1E13 JUMPI PUSH2 0x1E12 PUSH2 0x27A6 JUMP JUMPDEST JUMPDEST PUSH1 0x20 MUL PUSH1 0x20 ADD ADD MLOAD DUP6 PUSH1 0x80 ADD MLOAD DUP6 PUSH1 0x20 ADD MLOAD DUP7 PUSH1 0x40 ADD MLOAD DUP8 PUSH1 0x60 ADD MLOAD PUSH1 0x40 MLOAD DUP7 PUSH4 0xFFFFFFFF AND PUSH1 0xE0 SHL DUP2 MSTORE PUSH1 0x4 ADD PUSH2 0x1E4F SWAP6 SWAP5 SWAP4 SWAP3 SWAP2 SWAP1 PUSH2 0x29CE JUMP JUMPDEST PUSH1 0x0 PUSH1 0x40 MLOAD DUP1 DUP4 SUB DUP2 PUSH1 0x0 DUP8 DUP1 EXTCODESIZE ISZERO DUP1 ISZERO PUSH2 0x1E69 JUMPI PUSH1 0x0 DUP1 REVERT JUMPDEST POP GAS CALL ISZERO DUP1 ISZERO PUSH2 0x1E7D JUMPI RETURNDATASIZE PUSH1 0x0 DUP1 RETURNDATACOPY RETURNDATASIZE PUSH1 0x0 REVERT JUMPDEST POP POP POP POP DUP3 PUSH1 0x80 ADD MLOAD PUSH32 0x3B2E84A32C06C8109FD0E4FA81235D7FC35B9B4015DD48D09E3F297F69B935DC DUP5 PUSH1 0x0 ADD MLOAD DUP4 DUP2 MLOAD DUP2 LT PUSH2 0x1EBE JUMPI PUSH2 0x1EBD PUSH2 0x27A6 JUMP JUMPDEST JUMPDEST PUSH1 0x20 MUL PUSH1 0x20 ADD ADD MLOAD PUSH1 0x40 MLOAD PUSH2 0x1ED3 SWAP2 SWAP1 PUSH2 0x2A21 JUMP JUMPDEST PUSH1 0x40 MLOAD DUP1 SWAP2 SUB SWAP1 LOG2 JUMPDEST DUP1 DUP1 PUSH2 0x1EE7 SWAP1 PUSH2 0x2804 JUMP JUMPDEST SWAP2 POP POP PUSH2 0xD87 JUMP JUMPDEST POP POP POP JUMP JUMPDEST PUSH1 0x40 MLOAD DUP1 PUSH1 0xA0 ADD PUSH1 0x40 MSTORE DUP1 PUSH1 0x60 DUP2 MSTORE PUSH1 0x20 ADD PUSH1 0x60 DUP2 MSTORE PUSH1 0x20 ADD PUSH1 0x60 DUP2 MSTORE PUSH1 0x20 ADD PUSH1 0x0 PUSH20 0xFFFFFFFFFFFFFFFFFFFFFFFFFFFFFFFFFFFFFFFF AND DUP2 MSTORE PUSH1 0x20 ADD PUSH1 0x0 DUP1 NOT AND DUP2 MSTORE POP SWAP1 JUMP JUMPDEST PUSH1 0x0 PUSH20 0xFFFFFFFFFFFFFFFFFFFFFFFFFFFFFFFFFFFFFFFF DUP3 AND SWAP1 POP SWAP2 SWAP1 POP JUMP JUMPDEST PUSH1 0x0 DUP2 SWAP1 POP SWAP2 SWAP1 POP JUMP JUMPDEST PUSH1 0x0 PUSH2 0x1F81 PUSH2 0x1F7C PUSH2 0x1F77 DUP5 PUSH2 0x1F3C JUMP JUMPDEST PUSH2 0x1F5C JUMP JUMPDEST PUSH2 0x1F3C JUMP JUMPDEST SWAP1 POP SWAP2 SWAP1 POP JUMP JUMPDEST PUSH1 0x0 PUSH2 0x1F93 DUP3 PUSH2 0x1F66 JUMP JUMPDEST SWAP1 POP SWAP2 SWAP1 POP JUMP JUMPDEST PUSH1 0x0 PUSH2 0x1FA5 DUP3 PUSH2 0x1F88 JUMP JUMPDEST SWAP1 POP SWAP2 SWAP1 POP JUMP JUMPDEST PUSH2 0x1FB5 DUP2 PUSH2 0x1F9A JUMP JUMPDEST DUP3 MSTORE POP POP JUMP JUMPDEST PUSH1 0x0 PUSH1 0x20 DUP3 ADD SWAP1 POP PUSH2 0x1FD0 PUSH1 0x0 DUP4 ADD DUP5 PUSH2 0x1FAC JUMP JUMPDEST SWAP3 SWAP2 POP POP JUMP JUMPDEST PUSH1 0x0 PUSH2 0x1FE1 DUP3 PUSH2 0x1F88 JUMP JUMPDEST SWAP1 POP SWAP2 SWAP1 POP JUMP JUMPDEST PUSH2 0x1FF1 DUP2 PUSH2 0x1FD6 JUMP JUMPDEST DUP3 MSTORE POP POP JUMP JUMPDEST PUSH1 0x0 PUSH1 0x20 DUP3 ADD SWAP1 POP PUSH2 0x200C PUSH1 0x0 DUP4 ADD DUP5 PUSH2 0x1FE8 JUMP JUMPDEST SWAP3 SWAP2 POP POP JUMP JUMPDEST PUSH1 0x0 PUSH2 0x201D DUP3 PUSH2 0x1F88 JUMP JUMPDEST SWAP1 POP SWAP2 SWAP1 POP JUMP JUMPDEST PUSH2 0x202D DUP2 PUSH2 0x2012 JUMP JUMPDEST DUP3 MSTORE POP POP JUMP JUMPDEST PUSH1 0x0 PUSH1 0x20 DUP3 ADD SWAP1 POP PUSH2 0x2048 PUSH1 0x0 DUP4 ADD DUP5 PUSH2 0x2024 JUMP JUMPDEST SWAP3 SWAP2 POP POP JUMP JUMPDEST PUSH1 0x0 DUP1 REVERT JUMPDEST PUSH1 0x0 DUP2 SWAP1 POP SWAP2 SWAP1 POP JUMP JUMPDEST PUSH2 0x2066 DUP2 PUSH2 0x2053 JUMP JUMPDEST DUP2 EQ PUSH2 0x2071 JUMPI PUSH1 0x0 DUP1 REVERT JUMPDEST POP JUMP JUMPDEST PUSH1 0x0 DUP2 CALLDATALOAD SWAP1 POP PUSH2 0x2083 DUP2 PUSH2 0x205D JUMP JUMPDEST SWAP3 SWAP2 POP POP JUMP JUMPDEST PUSH1 0x0 PUSH1 0x20 DUP3 DUP5 SUB SLT ISZERO PUSH2 0x209F JUMPI PUSH2 0x209E PUSH2 0x204E JUMP JUMPDEST JUMPDEST PUSH1 0x0 PUSH2 0x20AD DUP5 DUP3 DUP6 ADD PUSH2 0x2074 JUMP JUMPDEST SWAP2 POP POP SWAP3 SWAP2 POP POP JUMP JUMPDEST PUSH1 0x0 DUP2 SWAP1 POP SWAP2 SWAP1 POP JUMP JUMPDEST PUSH2 0x20C9 DUP2 PUSH2 0x20B6 JUMP JUMPDEST DUP3 MSTORE POP POP JUMP JUMPDEST PUSH1 0x0 DUP2 SWAP1 POP SWAP2 SWAP1 POP JUMP JUMPDEST PUSH2 0x20E2 DUP2 PUSH2 0x20CF JUMP JUMPDEST DUP3 MSTORE POP POP JUMP JUMPDEST PUSH1 0x0 PUSH1 0xA0 DUP3 ADD SWAP1 POP PUSH2 0x20FD PUSH1 0x0 DUP4 ADD DUP9 PUSH2 0x20C0 JUMP JUMPDEST PUSH2 0x210A PUSH1 0x20 DUP4 ADD DUP8 PUSH2 0x20D9 JUMP JUMPDEST PUSH2 0x2117 PUSH1 0x40 DUP4 ADD DUP7 PUSH2 0x20D9 JUMP JUMPDEST PUSH2 0x2124 PUSH1 0x60 DUP4 ADD DUP6 PUSH2 0x20D9 JUMP JUMPDEST PUSH2 0x2131 PUSH1 0x80 DUP4 ADD DUP5 PUSH2 0x20D9 JUMP JUMPDEST SWAP7 SWAP6 POP POP POP POP POP POP JUMP JUMPDEST PUSH1 0x0 PUSH2 0x2146 DUP3 PUSH2 0x1F88 JUMP JUMPDEST SWAP1 POP SWAP2 SWAP1 POP JUMP JUMPDEST PUSH2 0x2156 DUP2 PUSH2 0x213B JUMP JUMPDEST DUP3 MSTORE POP POP JUMP JUMPDEST PUSH1 0x0 PUSH1 0x20 DUP3 ADD SWAP1 POP PUSH2 0x2171 PUSH1 0x0 DUP4 ADD DUP5 PUSH2 0x214D JUMP JUMPDEST SWAP3 SWAP2 POP POP JUMP JUMPDEST PUSH2 0x2180 DUP2 PUSH2 0x20B6 JUMP JUMPDEST DUP2 EQ PUSH2 0x218B JUMPI PUSH1 0x0 DUP1 REVERT JUMPDEST POP JUMP JUMPDEST PUSH1 0x0 DUP2 CALLDATALOAD SWAP1 POP PUSH2 0x219D DUP2 PUSH2 0x2177 JUMP JUMPDEST SWAP3 SWAP2 POP POP JUMP JUMPDEST PUSH2 0x21AC DUP2 PUSH2 0x20CF JUMP JUMPDEST DUP2 EQ PUSH2 0x21B7 JUMPI PUSH1 0x0 DUP1 REVERT JUMPDEST POP JUMP JUMPDEST PUSH1 0x0 DUP2 CALLDATALOAD SWAP1 POP PUSH2 0x21C9 DUP2 PUSH2 0x21A3 JUMP JUMPDEST SWAP3 SWAP2 POP POP JUMP JUMPDEST PUSH1 0x0 DUP1 PUSH1 0x0 PUSH1 0x60 DUP5 DUP7 SUB SLT ISZERO PUSH2 0x21E8 JUMPI PUSH2 0x21E7 PUSH2 0x204E JUMP JUMPDEST JUMPDEST PUSH1 0x0 PUSH2 0x21F6 DUP7 DUP3 DUP8 ADD PUSH2 0x218E JUMP JUMPDEST SWAP4 POP POP PUSH1 0x20 PUSH2 0x2207 DUP7 DUP3 DUP8 ADD PUSH2 0x218E JUMP JUMPDEST SWAP3 POP POP PUSH1 0x40 PUSH2 0x2218 DUP7 DUP3 DUP8 ADD PUSH2 0x21BA JUMP JUMPDEST SWAP2 POP POP SWAP3 POP SWAP3 POP SWAP3 JUMP JUMPDEST PUSH1 0x0 DUP2 MLOAD SWAP1 POP SWAP2 SWAP1 POP JUMP JUMPDEST PUSH1 0x0 DUP3 DUP3 MSTORE PUSH1 0x20 DUP3 ADD SWAP1 POP SWAP3 SWAP2 POP POP JUMP JUMPDEST PUSH1 0x0 DUP2 SWAP1 POP PUSH1 0x20 DUP3 ADD SWAP1 POP SWAP2 SWAP1 POP JUMP JUMPDEST PUSH2 0x2257 DUP2 PUSH2 0x20CF JUMP JUMPDEST DUP3 MSTORE POP POP JUMP JUMPDEST PUSH1 0x0 PUSH2 0x2269 DUP4 DUP4 PUSH2 0x224E JUMP JUMPDEST PUSH1 0x20 DUP4 ADD SWAP1 POP SWAP3 SWAP2 POP POP JUMP JUMPDEST PUSH1 0x0 PUSH1 0x20 DUP3 ADD SWAP1 POP SWAP2 SWAP1 POP JUMP JUMPDEST PUSH1 0x0 PUSH2 0x228D DUP3 PUSH2 0x2222 JUMP JUMPDEST PUSH2 0x2297 DUP2 DUP6 PUSH2 0x222D JUMP JUMPDEST SWAP4 POP PUSH2 0x22A2 DUP4 PUSH2 0x223E JUMP JUMPDEST DUP1 PUSH1 0x0 JUMPDEST DUP4 DUP2 LT ISZERO PUSH2 0x22D3 JUMPI DUP2 MLOAD PUSH2 0x22BA DUP9 DUP3 PUSH2 0x225D JUMP JUMPDEST SWAP8 POP PUSH2 0x22C5 DUP4 PUSH2 0x2275 JUMP JUMPDEST SWAP3 POP POP PUSH1 0x1 DUP2 ADD SWAP1 POP PUSH2 0x22A6 JUMP JUMPDEST POP DUP6 SWAP4 POP POP POP POP SWAP3 SWAP2 POP POP JUMP JUMPDEST PUSH1 0x0 DUP2 MLOAD SWAP1 POP SWAP2 SWAP1 POP JUMP JUMPDEST PUSH1 0x0 DUP3 DUP3 MSTORE PUSH1 0x20 DUP3 ADD SWAP1 POP SWAP3 SWAP2 POP POP JUMP JUMPDEST PUSH1 0x0 DUP2 SWAP1 POP PUSH1 0x20 DUP3 ADD SWAP1 POP SWAP2 SWAP1 POP JUMP JUMPDEST PUSH2 0x2315 DUP2 PUSH2 0x20B6 JUMP JUMPDEST DUP3 MSTORE POP POP JUMP JUMPDEST PUSH1 0x0 PUSH2 0x2327 DUP4 DUP4 PUSH2 0x230C JUMP JUMPDEST PUSH1 0x20 DUP4 ADD SWAP1 POP SWAP3 SWAP2 POP POP JUMP JUMPDEST PUSH1 0x0 PUSH1 0x20 DUP3 ADD SWAP1 POP SWAP2 SWAP1 POP JUMP JUMPDEST PUSH1 0x0 PUSH2 0x234B DUP3 PUSH2 0x22E0 JUMP JUMPDEST PUSH2 0x2355 DUP2 DUP6 PUSH2 0x22EB JUMP JUMPDEST SWAP4 POP PUSH2 0x2360 DUP4 PUSH2 0x22FC JUMP JUMPDEST DUP1 PUSH1 0x0 JUMPDEST DUP4 DUP2 LT ISZERO PUSH2 0x2391 JUMPI DUP2 MLOAD PUSH2 0x2378 DUP9 DUP3 PUSH2 0x231B JUMP JUMPDEST SWAP8 POP PUSH2 0x2383 DUP4 PUSH2 0x2333 JUMP JUMPDEST SWAP3 POP POP PUSH1 0x1 DUP2 ADD SWAP1 POP PUSH2 0x2364 JUMP JUMPDEST POP DUP6 SWAP4 POP POP POP POP SWAP3 SWAP2 POP POP JUMP JUMPDEST PUSH1 0x0 PUSH2 0x23A9 DUP3 PUSH2 0x1F3C JUMP JUMPDEST SWAP1 POP SWAP2 SWAP1 POP JUMP JUMPDEST PUSH2 0x23B9 DUP2 PUSH2 0x239E JUMP JUMPDEST DUP3 MSTORE POP POP JUMP JUMPDEST PUSH1 0x0 PUSH1 0xA0 DUP4 ADD PUSH1 0x0 DUP4 ADD MLOAD DUP5 DUP3 SUB PUSH1 0x0 DUP7 ADD MSTORE PUSH2 0x23DC DUP3 DUP3 PUSH2 0x2282 JUMP JUMPDEST SWAP2 POP POP PUSH1 0x20 DUP4 ADD MLOAD DUP5 DUP3 SUB PUSH1 0x20 DUP7 ADD MSTORE PUSH2 0x23F6 DUP3 DUP3 PUSH2 0x2282 JUMP JUMPDEST SWAP2 POP POP PUSH1 0x40 DUP4 ADD MLOAD DUP5 DUP3 SUB PUSH1 0x40 DUP7 ADD MSTORE PUSH2 0x2410 DUP3 DUP3 PUSH2 0x2340 JUMP JUMPDEST SWAP2 POP POP PUSH1 0x60 DUP4 ADD MLOAD PUSH2 0x2425 PUSH1 0x60 DUP7 ADD DUP3 PUSH2 0x23B0 JUMP JUMPDEST POP PUSH1 0x80 DUP4 ADD MLOAD PUSH2 0x2438 PUSH1 0x80 DUP7 ADD DUP3 PUSH2 0x224E JUMP JUMPDEST POP DUP1 SWAP2 POP POP SWAP3 SWAP2 POP POP JUMP JUMPDEST PUSH1 0x0 PUSH1 0x20 DUP3 ADD SWAP1 POP DUP2 DUP2 SUB PUSH1 0x0 DUP4 ADD MSTORE PUSH2 0x245D DUP2 DUP5 PUSH2 0x23BF JUMP JUMPDEST SWAP1 POP SWAP3 SWAP2 POP POP JUMP JUMPDEST PUSH1 0x0 DUP1 PUSH1 0x0 DUP1 PUSH1 0x80 DUP6 DUP8 SUB SLT ISZERO PUSH2 0x247F JUMPI PUSH2 0x247E PUSH2 0x204E JUMP JUMPDEST JUMPDEST PUSH1 0x0 PUSH2 0x248D DUP8 DUP3 DUP9 ADD PUSH2 0x21BA JUMP JUMPDEST SWAP5 POP POP PUSH1 0x20 PUSH2 0x249E DUP8 DUP3 DUP9 ADD PUSH2 0x21BA JUMP JUMPDEST SWAP4 POP POP PUSH1 0x40 PUSH2 0x24AF DUP8 DUP3 DUP9 ADD PUSH2 0x21BA JUMP JUMPDEST SWAP3 POP POP PUSH1 0x60 PUSH2 0x24C0 DUP8 DUP3 DUP9 ADD PUSH2 0x21BA JUMP JUMPDEST SWAP2 POP POP SWAP3 SWAP6 SWAP2 SWAP5 POP SWAP3 POP JUMP JUMPDEST PUSH1 0x0 PUSH2 0x24D7 DUP3 PUSH2 0x1F88 JUMP JUMPDEST SWAP1 POP SWAP2 SWAP1 POP JUMP JUMPDEST PUSH2 0x24E7 DUP2 PUSH2 0x24CC JUMP JUMPDEST DUP3 MSTORE POP POP JUMP JUMPDEST PUSH1 0x0 PUSH1 0x20 DUP3 ADD SWAP1 POP PUSH2 0x2502 PUSH1 0x0 DUP4 ADD DUP5 PUSH2 0x24DE JUMP JUMPDEST SWAP3 SWAP2 POP POP JUMP JUMPDEST PUSH1 0x0 PUSH2 0x2513 DUP3 PUSH2 0x1F88 JUMP JUMPDEST SWAP1 POP SWAP2 SWAP1 POP JUMP JUMPDEST PUSH2 0x2523 DUP2 PUSH2 0x2508 JUMP JUMPDEST DUP3 MSTORE POP POP JUMP JUMPDEST PUSH1 0x0 PUSH1 0x20 DUP3 ADD SWAP1 POP PUSH2 0x253E PUSH1 0x0 DUP4 ADD DUP5 PUSH2 0x251A JUMP JUMPDEST SWAP3 SWAP2 POP POP JUMP JUMPDEST PUSH1 0x0 DUP1 PUSH1 0x0 PUSH1 0x60 DUP5 DUP7 SUB SLT ISZERO PUSH2 0x255D JUMPI PUSH2 0x255C PUSH2 0x204E JUMP JUMPDEST JUMPDEST PUSH1 0x0 PUSH2 0x256B DUP7 DUP3 DUP8 ADD PUSH2 0x218E JUMP JUMPDEST SWAP4 POP POP PUSH1 0x20 PUSH2 0x257C DUP7 DUP3 DUP8 ADD PUSH2 0x218E JUMP JUMPDEST SWAP3 POP POP PUSH1 0x40 PUSH2 0x258D DUP7 DUP3 DUP8 ADD PUSH2 0x218E JUMP JUMPDEST SWAP2 POP POP SWAP3 POP SWAP3 POP SWAP3 JUMP JUMPDEST PUSH1 0x0 PUSH2 0x25A2 DUP3 PUSH2 0x1F88 JUMP JUMPDEST SWAP1 POP SWAP2 SWAP1 POP JUMP JUMPDEST PUSH2 0x25B2 DUP2 PUSH2 0x2597 JUMP JUMPDEST DUP3 MSTORE POP POP JUMP JUMPDEST PUSH1 0x0 PUSH1 0x20 DUP3 ADD SWAP1 POP PUSH2 0x25CD PUSH1 0x0 DUP4 ADD DUP5 PUSH2 0x25A9 JUMP JUMPDEST SWAP3 SWAP2 POP POP JUMP JUMPDEST PUSH1 0x0 PUSH2 0x25DE DUP3 PUSH2 0x1F88 JUMP JUMPDEST SWAP1 POP SWAP2 SWAP1 POP JUMP JUMPDEST PUSH2 0x25EE DUP2 PUSH2 0x25D3 JUMP JUMPDEST DUP3 MSTORE POP POP JUMP JUMPDEST PUSH1 0x0 PUSH1 0x20 DUP3 ADD SWAP1 POP PUSH2 0x2609 PUSH1 0x0 DUP4 ADD DUP5 PUSH2 0x25E5 JUMP JUMPDEST SWAP3 SWAP2 POP POP JUMP JUMPDEST PUSH1 0x0 PUSH2 0x261A DUP3 PUSH2 0x1F88 JUMP JUMPDEST SWAP1 POP SWAP2 SWAP1 POP JUMP JUMPDEST PUSH2 0x262A DUP2 PUSH2 0x260F JUMP JUMPDEST DUP3 MSTORE POP POP JUMP JUMPDEST PUSH1 0x0 PUSH1 0x20 DUP3 ADD SWAP1 POP PUSH2 0x2645 PUSH1 0x0 DUP4 ADD DUP5 PUSH2 0x2621 JUMP JUMPDEST SWAP3 SWAP2 POP POP JUMP JUMPDEST PUSH1 0x0 PUSH2 0x2656 DUP3 PUSH2 0x1F88 JUMP JUMPDEST SWAP1 POP SWAP2 SWAP1 POP JUMP JUMPDEST PUSH2 0x2666 DUP2 PUSH2 0x264B JUMP JUMPDEST DUP3 MSTORE POP POP JUMP JUMPDEST PUSH1 0x0 PUSH1 0x20 DUP3 ADD SWAP1 POP PUSH2 0x2681 PUSH1 0x0 DUP4 ADD DUP5 PUSH2 0x265D JUMP JUMPDEST SWAP3 SWAP2 POP POP JUMP JUMPDEST PUSH1 0x0 DUP2 MLOAD SWAP1 POP PUSH2 0x2696 DUP2 PUSH2 0x205D JUMP JUMPDEST SWAP3 SWAP2 POP POP JUMP JUMPDEST PUSH1 0x0 PUSH1 0x20 DUP3 DUP5 SUB SLT ISZERO PUSH2 0x26B2 JUMPI PUSH2 0x26B1 PUSH2 0x204E JUMP JUMPDEST JUMPDEST PUSH1 0x0 PUSH2 0x26C0 DUP5 DUP3 DUP6 ADD PUSH2 0x2687 JUMP JUMPDEST SWAP2 POP POP SWAP3 SWAP2 POP POP JUMP JUMPDEST PUSH32 0x4E487B7100000000000000000000000000000000000000000000000000000000 PUSH1 0x0 MSTORE PUSH1 0x41 PUSH1 0x4 MSTORE PUSH1 0x24 PUSH1 0x0 REVERT JUMPDEST PUSH2 0x2701 DUP2 PUSH2 0x2053 JUMP JUMPDEST DUP3 MSTORE POP POP JUMP JUMPDEST PUSH1 0x0 PUSH1 0x20 DUP3 ADD SWAP1 POP PUSH2 0x271C PUSH1 0x0 DUP4 ADD DUP5 PUSH2 0x26F8 JUMP JUMPDEST SWAP3 SWAP2 POP POP JUMP JUMPDEST PUSH1 0x0 DUP2 MLOAD SWAP1 POP PUSH2 0x2731 DUP2 PUSH2 0x2177 JUMP JUMPDEST SWAP3 SWAP2 POP POP JUMP JUMPDEST PUSH1 0x0 PUSH1 0x20 DUP3 DUP5 SUB SLT ISZERO PUSH2 0x274D JUMPI PUSH2 0x274C PUSH2 0x204E JUMP JUMPDEST JUMPDEST PUSH1 0x0 PUSH2 0x275B DUP5 DUP3 DUP6 ADD PUSH2 0x2722 JUMP JUMPDEST SWAP2 POP POP SWAP3 SWAP2 POP POP JUMP JUMPDEST PUSH1 0x0 DUP2 MLOAD SWAP1 POP PUSH2 0x2773 DUP2 PUSH2 0x21A3 JUMP JUMPDEST SWAP3 SWAP2 POP POP JUMP JUMPDEST PUSH1 0x0 PUSH1 0x20 DUP3 DUP5 SUB SLT ISZERO PUSH2 0x278F JUMPI PUSH2 0x278E PUSH2 0x204E JUMP JUMPDEST JUMPDEST PUSH1 0x0 PUSH2 0x279D DUP5 DUP3 DUP6 ADD PUSH2 0x2764 JUMP JUMPDEST SWAP2 POP POP SWAP3 SWAP2 POP POP JUMP JUMPDEST PUSH32 0x4E487B7100000000000000000000000000000000000000000000000000000000 PUSH1 0x0 MSTORE PUSH1 0x32 PUSH1 0x4 MSTORE PUSH1 0x24 PUSH1 0x0 REVERT JUMPDEST PUSH32 0x4E487B7100000000000000000000000000000000000000000000000000000000 PUSH1 0x0 MSTORE PUSH1 0x11 PUSH1 0x4 MSTORE PUSH1 0x24 PUSH1 0x0 REVERT JUMPDEST PUSH1 0x0 PUSH2 0x280F DUP3 PUSH2 0x2053 JUMP JUMPDEST SWAP2 POP PUSH32 0xFFFFFFFFFFFFFFFFFFFFFFFFFFFFFFFFFFFFFFFFFFFFFFFFFFFFFFFFFFFFFFFF DUP3 SUB PUSH2 0x2841 JUMPI PUSH2 0x2840 PUSH2 0x27D5 JUMP JUMPDEST JUMPDEST PUSH1 0x1 DUP3 ADD SWAP1 POP SWAP2 SWAP1 POP JUMP JUMPDEST PUSH1 0x0 DUP3 DUP3 MSTORE PUSH1 0x20 DUP3 ADD SWAP1 POP SWAP3 SWAP2 POP POP JUMP JUMPDEST PUSH32 0x66697273745F7265706F72740000000000000000000000000000000000000000 PUSH1 0x0 DUP3 ADD MSTORE POP JUMP JUMPDEST PUSH1 0x0 PUSH2 0x2893 PUSH1 0xC DUP4 PUSH2 0x284C JUMP JUMPDEST SWAP2 POP PUSH2 0x289E DUP3 PUSH2 0x285D JUMP JUMPDEST PUSH1 0x20 DUP3 ADD SWAP1 POP SWAP2 SWAP1 POP JUMP JUMPDEST PUSH1 0x0 PUSH1 0x20 DUP3 ADD SWAP1 POP DUP2 DUP2 SUB PUSH1 0x0 DUP4 ADD MSTORE PUSH2 0x28C2 DUP2 PUSH2 0x2886 JUMP JUMPDEST SWAP1 POP SWAP2 SWAP1 POP JUMP JUMPDEST PUSH1 0x0 PUSH2 0x28D4 DUP3 PUSH2 0x2053 JUMP JUMPDEST SWAP2 POP PUSH2 0x28DF DUP4 PUSH2 0x2053 JUMP JUMPDEST SWAP3 POP DUP3 DUP3 SUB SWAP1 POP DUP2 DUP2 GT ISZERO PUSH2 0x28F7 JUMPI PUSH2 0x28F6 PUSH2 0x27D5 JUMP JUMPDEST JUMPDEST SWAP3 SWAP2 POP POP JUMP JUMPDEST PUSH1 0x0 DUP2 SWAP1 POP SWAP2 SWAP1 POP JUMP JUMPDEST PUSH2 0x2918 PUSH2 0x2913 DUP3 PUSH2 0x20CF JUMP JUMPDEST PUSH2 0x28FD JUMP JUMPDEST DUP3 MSTORE POP POP JUMP JUMPDEST PUSH1 0x0 PUSH2 0x292A DUP3 DUP5 PUSH2 0x2907 JUMP JUMPDEST PUSH1 0x20 DUP3 ADD SWAP2 POP DUP2 SWAP1 POP SWAP3 SWAP2 POP POP JUMP JUMPDEST PUSH32 0x4530303031303030310000000000000000000000000000000000000000000000 PUSH1 0x0 DUP3 ADD MSTORE POP JUMP JUMPDEST PUSH1 0x0 PUSH2 0x296F PUSH1 0x9 DUP4 PUSH2 0x284C JUMP JUMPDEST SWAP2 POP PUSH2 0x297A DUP3 PUSH2 0x2939 JUMP JUMPDEST PUSH1 0x20 DUP3 ADD SWAP1 POP SWAP2 SWAP1 POP JUMP JUMPDEST PUSH1 0x0 PUSH1 0x20 DUP3 ADD SWAP1 POP DUP2 DUP2 SUB PUSH1 0x0 DUP4 ADD MSTORE PUSH2 0x299E DUP2 PUSH2 0x2962 JUMP JUMPDEST SWAP1 POP SWAP2 SWAP1 POP JUMP JUMPDEST PUSH1 0x0 PUSH1 0x40 DUP3 ADD SWAP1 POP PUSH2 0x29BA PUSH1 0x0 DUP4 ADD DUP6 PUSH2 0x20D9 JUMP JUMPDEST PUSH2 0x29C7 PUSH1 0x20 DUP4 ADD DUP5 PUSH2 0x20D9 JUMP JUMPDEST SWAP4 SWAP3 POP POP POP JUMP JUMPDEST PUSH1 0x0 PUSH1 0xA0 DUP3 ADD SWAP1 POP PUSH2 0x29E3 PUSH1 0x0 DUP4 ADD DUP9 PUSH2 0x20D9 JUMP JUMPDEST PUSH2 0x29F0 PUSH1 0x20 DUP4 ADD DUP8 PUSH2 0x20D9 JUMP JUMPDEST PUSH2 0x29FD PUSH1 0x40 DUP4 ADD DUP7 PUSH2 0x20D9 JUMP JUMPDEST PUSH2 0x2A0A PUSH1 0x60 DUP4 ADD DUP6 PUSH2 0x20D9 JUMP JUMPDEST PUSH2 0x2A17 PUSH1 0x80 DUP4 ADD DUP5 PUSH2 0x20D9 JUMP JUMPDEST SWAP7 SWAP6 POP POP POP POP POP POP JUMP JUMPDEST PUSH1 0x0 PUSH1 0x20 DUP3 ADD SWAP1 POP PUSH2 0x2A36 PUSH1 0x0 DUP4 ADD DUP5 PUSH2 0x20D9 JUMP JUMPDEST SWAP3 SWAP2 POP POP JUMP JUMPDEST PUSH32 0x4530303031303030320000000000000000000000000000000000000000000000 PUSH1 0x0 DUP3 ADD MSTORE POP JUMP JUMPDEST PUSH1 0x0 PUSH2 0x2A72 PUSH1 0x9 DUP4 PUSH2 0x284C JUMP JUMPDEST SWAP2 POP PUSH2 0x2A7D DUP3 PUSH2 0x2A3C JUMP JUMPDEST PUSH1 0x20 DUP3 ADD SWAP1 POP SWAP2 SWAP1 POP JUMP JUMPDEST PUSH1 0x0 PUSH1 0x20 DUP3 ADD SWAP1 POP DUP2 DUP2 SUB PUSH1 0x0 DUP4 ADD MSTORE PUSH2 0x2AA1 DUP2 PUSH2 0x2A65 JUMP JUMPDEST SWAP1 POP SWAP2 SWAP1 POP JUMP JUMPDEST PUSH32 0x4530303031303030330000000000000000000000000000000000000000000000 PUSH1 0x0 DUP3 ADD MSTORE POP JUMP JUMPDEST PUSH1 0x0 PUSH2 0x2ADE PUSH1 0x9 DUP4 PUSH2 0x284C JUMP JUMPDEST SWAP2 POP PUSH2 0x2AE9 DUP3 PUSH2 0x2AA8 JUMP JUMPDEST PUSH1 0x20 DUP3 ADD SWAP1 POP SWAP2 SWAP1 POP JUMP JUMPDEST PUSH1 0x0 PUSH1 0x20 DUP3 ADD SWAP1 POP DUP2 DUP2 SUB PUSH1 0x0 DUP4 ADD MSTORE PUSH2 0x2B0D DUP2 PUSH2 0x2AD1 JUMP JUMPDEST SWAP1 POP SWAP2 SWAP1 POP JUMP JUMPDEST PUSH32 0x4530303031303030340000000000000000000000000000000000000000000000 PUSH1 0x0 DUP3 ADD MSTORE POP JUMP JUMPDEST PUSH1 0x0 PUSH2 0x2B4A PUSH1 0x9 DUP4 PUSH2 0x284C JUMP JUMPDEST SWAP2 POP PUSH2 0x2B55 DUP3 PUSH2 0x2B14 JUMP JUMPDEST PUSH1 0x20 DUP3 ADD SWAP1 POP SWAP2 SWAP1 POP JUMP JUMPDEST PUSH1 0x0 PUSH1 0x20 DUP3 ADD SWAP1 POP DUP2 DUP2 SUB PUSH1 0x0 DUP4 ADD MSTORE PUSH2 0x2B79 DUP2 PUSH2 0x2B3D JUMP JUMPDEST SWAP1 POP SWAP2 SWAP1 POP JUMP JUMPDEST PUSH32 0x4530303031303030350000000000000000000000000000000000000000000000 PUSH1 0x0 DUP3 ADD MSTORE POP JUMP JUMPDEST PUSH1 0x0 PUSH2 0x2BB6 PUSH1 0x9 DUP4 PUSH2 0x284C JUMP JUMPDEST SWAP2 POP PUSH2 0x2BC1 DUP3 PUSH2 0x2B80 JUMP JUMPDEST PUSH1 0x20 DUP3 ADD SWAP1 POP SWAP2 SWAP1 POP JUMP JUMPDEST PUSH1 0x0 PUSH1 0x20 DUP3 ADD SWAP1 POP DUP2 DUP2 SUB PUSH1 0x0 DUP4 ADD MSTORE PUSH2 0x2BE5 DUP2 PUSH2 0x2BA9 JUMP JUMPDEST SWAP1 POP SWAP2 SWAP1 POP JUMP JUMPDEST PUSH32 0x4530303031303030360000000000000000000000000000000000000000000000 PUSH1 0x0 DUP3 ADD MSTORE POP JUMP JUMPDEST PUSH1 0x0 PUSH2 0x2C22 PUSH1 0x9 DUP4 PUSH2 0x284C JUMP JUMPDEST SWAP2 POP PUSH2 0x2C2D DUP3 PUSH2 0x2BEC JUMP JUMPDEST PUSH1 0x20 DUP3 ADD SWAP1 POP SWAP2 SWAP1 POP JUMP JUMPDEST PUSH1 0x0 PUSH1 0x20 DUP3 ADD SWAP1 POP DUP2 DUP2 SUB PUSH1 0x0 DUP4 ADD MSTORE PUSH2 0x2C51 DUP2 PUSH2 0x2C15 JUMP JUMPDEST SWAP1 POP SWAP2 SWAP1 POP JUMP JUMPDEST PUSH32 0x4530303031303030370000000000000000000000000000000000000000000000 PUSH1 0x0 DUP3 ADD MSTORE POP JUMP JUMPDEST PUSH1 0x0 PUSH2 0x2C8E PUSH1 0x9 DUP4 PUSH2 0x284C JUMP JUMPDEST SWAP2 POP PUSH2 0x2C99 DUP3 PUSH2 0x2C58 JUMP JUMPDEST PUSH1 0x20 DUP3 ADD SWAP1 POP SWAP2 SWAP1 POP JUMP JUMPDEST PUSH1 0x0 PUSH1 0x20 DUP3 ADD SWAP1 POP DUP2 DUP2 SUB PUSH1 0x0 DUP4 ADD MSTORE PUSH2 0x2CBD DUP2 PUSH2 0x2C81 JUMP JUMPDEST SWAP1 POP SWAP2 SWAP1 POP JUMP JUMPDEST PUSH32 0x4530303031303030380000000000000000000000000000000000000000000000 PUSH1 0x0 DUP3 ADD MSTORE POP JUMP JUMPDEST PUSH1 0x0 PUSH2 0x2CFA PUSH1 0x9 DUP4 PUSH2 0x284C JUMP JUMPDEST SWAP2 POP PUSH2 0x2D05 DUP3 PUSH2 0x2CC4 JUMP JUMPDEST PUSH1 0x20 DUP3 ADD SWAP1 POP SWAP2 SWAP1 POP JUMP JUMPDEST PUSH1 0x0 PUSH1 0x20 DUP3 ADD SWAP1 POP DUP2 DUP2 SUB PUSH1 0x0 DUP4 ADD MSTORE PUSH2 0x2D29 DUP2 PUSH2 0x2CED JUMP JUMPDEST SWAP1 POP SWAP2 SWAP1 POP JUMP INVALID LOG2 PUSH5 0x6970667358 0x22 SLT KECCAK256 0xE3 SAR SWAP7 GT NOT 0xB3 0xAC 0xDB ORIGIN MSTORE8 0x2E MSTORE8 0x25 0x21 DUP16 0x2E 0xBE CREATE PUSH1 0xE6 STATICCALL 0xD8 0xE5 CREATE JUMPI GT 0xA8 MOD CALLER ADDMOD 0x4B 0x2E PUSH5 0x736F6C6343 STOP ADDMOD SLT STOP CALLER "
		},
		"gasEstimates": {
			"creation": {
				"codeDepositCost": "2324400",
				"executionCost": "infinite",
				"totalCost": "infinite"
			},
			"external": {
				"Iparser()": "infinite",
				"e00010001()": "infinite",
				"e00010002()": "infinite",
				"e00010003()": "infinite",
				"e00010004()": "infinite",
				"e00010005()": "infinite",
				"e00010006()": "infinite",
				"e00010007()": "infinite",
				"e00010008()": "infinite",
				"filterTransactionsInRange(int256,int256,bytes32)": "infinite",
				"rateHistory(uint256)": "infinite",
				"setRate(bytes32,bytes32,bytes32,bytes32)": "infinite",
				"setRateDecimal(int256,int256,int256)": "infinite",
				"transactionContract()": "infinite"
			},
			"internal": {
				"processFilteredTransactions(struct createTimeSpanReport.FilteredData memory)": "infinite"
			}
		},
		"methodIdentifiers": {
			"Iparser()": "e064d199",
			"e00010001()": "fb9c2606",
			"e00010002()": "a6a1d0c5",
			"e00010003()": "80cbba5b",
			"e00010004()": "a511b077",
			"e00010005()": "24250b16",
			"e00010006()": "01f74982",
			"e00010007()": "4a6943ab",
			"e00010008()": "6d762e7b",
			"filterTransactionsInRange(int256,int256,bytes32)": "5a14fa8b",
			"rateHistory(uint256)": "3df81812",
			"setRate(bytes32,bytes32,bytes32,bytes32)": "61c6e151",
			"setRateDecimal(int256,int256,int256)": "99eb0dbc",
			"transactionContract()": "1f45275b"
		}
	},
	"abi": [
		{
			"inputs": [
				{
					"internalType": "address",
					"name": "_transactionContractAddress",
					"type": "address"
				},
				{
					"internalType": "address",
					"name": "_parser",
					"type": "address"
				},
				{
					"internalType": "address",
					"name": "_E00010001",
					"type": "address"
				},
				{
					"internalType": "address",
					"name": "_E00010002",
					"type": "address"
				},
				{
					"internalType": "address",
					"name": "_E00010003",
					"type": "address"
				},
				{
					"internalType": "address",
					"name": "_E00010004",
					"type": "address"
				},
				{
					"internalType": "address",
					"name": "_E00010005",
					"type": "address"
				},
				{
					"internalType": "address",
					"name": "_E00010006",
					"type": "address"
				},
				{
					"internalType": "address",
					"name": "_E00010007",
					"type": "address"
				},
				{
					"internalType": "address",
					"name": "_E00010008",
					"type": "address"
				}
			],
			"stateMutability": "nonpayable",
			"type": "constructor"
		},
		{
			"anonymous": false,
			"inputs": [
				{
					"indexed": true,
					"internalType": "bytes32",
					"name": "reportID",
					"type": "bytes32"
				},
				{
					"indexed": false,
					"internalType": "bytes32",
					"name": "eventType",
					"type": "bytes32"
				}
			],
			"name": "TransactionProcessed",
			"type": "event"
		},
		{
			"anonymous": false,
			"inputs": [
				{
					"indexed": false,
					"internalType": "bytes32",
					"name": "datatypes",
					"type": "bytes32"
				},
				{
					"indexed": false,
					"internalType": "bytes32",
					"name": "keccak",
					"type": "bytes32"
				}
			],
			"name": "itshere",
			"type": "event"
		},
		{
			"inputs": [],
			"name": "Iparser",
			"outputs": [
				{
					"internalType": "contract IParser",
					"name": "",
					"type": "address"
				}
			],
			"stateMutability": "view",
			"type": "function"
		},
		{
			"inputs": [],
			"name": "e00010001",
			"outputs": [
				{
					"internalType": "contract E00010001",
					"name": "",
					"type": "address"
				}
			],
			"stateMutability": "view",
			"type": "function"
		},
		{
			"inputs": [],
			"name": "e00010002",
			"outputs": [
				{
					"internalType": "contract E00010002",
					"name": "",
					"type": "address"
				}
			],
			"stateMutability": "view",
			"type": "function"
		},
		{
			"inputs": [],
			"name": "e00010003",
			"outputs": [
				{
					"internalType": "contract E00010003",
					"name": "",
					"type": "address"
				}
			],
			"stateMutability": "view",
			"type": "function"
		},
		{
			"inputs": [],
			"name": "e00010004",
			"outputs": [
				{
					"internalType": "contract E00010004",
					"name": "",
					"type": "address"
				}
			],
			"stateMutability": "view",
			"type": "function"
		},
		{
			"inputs": [],
			"name": "e00010005",
			"outputs": [
				{
					"internalType": "contract E00010005",
					"name": "",
					"type": "address"
				}
			],
			"stateMutability": "view",
			"type": "function"
		},
		{
			"inputs": [],
			"name": "e00010006",
			"outputs": [
				{
					"internalType": "contract E00010006",
					"name": "",
					"type": "address"
				}
			],
			"stateMutability": "view",
			"type": "function"
		},
		{
			"inputs": [],
			"name": "e00010007",
			"outputs": [
				{
					"internalType": "contract E00010007",
					"name": "",
					"type": "address"
				}
			],
			"stateMutability": "view",
			"type": "function"
		},
		{
			"inputs": [],
			"name": "e00010008",
			"outputs": [
				{
					"internalType": "contract E00010008",
					"name": "",
					"type": "address"
				}
			],
			"stateMutability": "view",
			"type": "function"
		},
		{
			"inputs": [
				{
					"internalType": "int256",
					"name": "startTime",
					"type": "int256"
				},
				{
					"internalType": "int256",
					"name": "endTime",
					"type": "int256"
				},
				{
					"internalType": "bytes32",
					"name": "_reportID",
					"type": "bytes32"
				}
			],
			"name": "filterTransactionsInRange",
			"outputs": [
				{
					"components": [
						{
							"internalType": "bytes32[]",
							"name": "types",
							"type": "bytes32[]"
						},
						{
							"internalType": "bytes32[]",
							"name": "eventIds",
							"type": "bytes32[]"
						},
						{
							"internalType": "int256[]",
							"name": "transTimes",
							"type": "int256[]"
						},
						{
							"internalType": "address",
							"name": "reportCreater",
							"type": "address"
						},
						{
							"internalType": "bytes32",
							"name": "reportID",
							"type": "bytes32"
						}
					],
					"internalType": "struct createTimeSpanReport.FilteredData",
					"name": "",
					"type": "tuple"
				}
			],
			"stateMutability": "nonpayable",
			"type": "function"
		},
		{
			"inputs": [
				{
					"internalType": "uint256",
					"name": "",
					"type": "uint256"
				}
			],
			"name": "rateHistory",
			"outputs": [
				{
					"internalType": "int256",
					"name": "SP001",
					"type": "int256"
				},
				{
					"internalType": "bytes32",
					"name": "SP002",
					"type": "bytes32"
				},
				{
					"internalType": "bytes32",
					"name": "SP003",
					"type": "bytes32"
				},
				{
					"internalType": "bytes32",
					"name": "SP004",
					"type": "bytes32"
				},
				{
					"internalType": "bytes32",
					"name": "reportID",
					"type": "bytes32"
				}
			],
			"stateMutability": "view",
			"type": "function"
		},
		{
			"inputs": [
				{
					"internalType": "bytes32",
					"name": "_SP002",
					"type": "bytes32"
				},
				{
					"internalType": "bytes32",
					"name": "_SP003",
					"type": "bytes32"
				},
				{
					"internalType": "bytes32",
					"name": "_SP004",
					"type": "bytes32"
				},
				{
					"internalType": "bytes32",
					"name": "_reportID",
					"type": "bytes32"
				}
			],
			"name": "setRate",
			"outputs": [],
			"stateMutability": "nonpayable",
			"type": "function"
		},
		{
			"inputs": [
				{
					"internalType": "int256",
					"name": "_SP002",
					"type": "int256"
				},
				{
					"internalType": "int256",
					"name": "_SP003",
					"type": "int256"
				},
				{
					"internalType": "int256",
					"name": "_SP004",
					"type": "int256"
				}
			],
			"name": "setRateDecimal",
			"outputs": [],
			"stateMutability": "nonpayable",
			"type": "function"
		},
		{
			"inputs": [],
			"name": "transactionContract",
			"outputs": [
				{
					"internalType": "contract TransactionContract",
					"name": "",
					"type": "address"
				}
			],
			"stateMutability": "view",
			"type": "function"
		}
	]
}