{
	"data": {
		"bytecode": {
			"linkReferences": {},
			"object": "60806040523480156200001157600080fd5b50604051620037f5380380620037f583398181016040528101906200003791906200012a565b81600a60006101000a81548173ffffffffffffffffffffffffffffffffffffffff021916908373ffffffffffffffffffffffffffffffffffffffff160217905550806000806101000a81548173ffffffffffffffffffffffffffffffffffffffff021916908373ffffffffffffffffffffffffffffffffffffffff160217905550505062000171565b600080fd5b600073ffffffffffffffffffffffffffffffffffffffff82169050919050565b6000620000f282620000c5565b9050919050565b6200010481620000e5565b81146200011057600080fd5b50565b6000815190506200012481620000f9565b92915050565b60008060408385031215620001445762000143620000c0565b5b6000620001548582860162000113565b9250506020620001678582860162000113565b9150509250929050565b61367480620001816000396000f3fe608060405234801561001057600080fd5b50600436106100415760003560e01c80631f45275b146100465780632606a10b14610064578063ae8c0dd614610082575b600080fd5b61004e61009e565b60405161005b9190612271565b60405180910390f35b61006c6100c4565b60405161007991906122ad565b60405180910390f35b61009c60048036038101906100979190612458565b6100e8565b005b600a60009054906101000a900473ffffffffffffffffffffffffffffffffffffffff1681565b60008054906101000a900473ffffffffffffffffffffffffffffffffffffffff1681565b826001819055508160028190555080600381905550846008908161010c9190612722565b50836009908161011c9190612722565b507fb620de9f970909d721ffb707c84b4e17fdfd5f2e77d42c78b5b3e72219b4c001858484846040516101529493929190612877565b60405180910390a18460405160200161016b91906128ff565b6040516020818303038152906040528051906020012060086040516020016101939190612999565b604051602081830303815290604052805190602001200361047e57600a60009054906101000a900473ffffffffffffffffffffffffffffffffffffffff1673ffffffffffffffffffffffffffffffffffffffff1663d6fa22b9866040518263ffffffff1660e01b815260040161020991906129fc565b602060405180830381865afa158015610226573d6000803e3d6000fd5b505050506040513d601f19601f8201168201806040525081019061024a9190612a46565b600481905550600a60009054906101000a900473ffffffffffffffffffffffffffffffffffffffff1673ffffffffffffffffffffffffffffffffffffffff1663d6fa22b9866040518263ffffffff1660e01b81526004016102ab9190612abf565b602060405180830381865afa1580156102c8573d6000803e3d6000fd5b505050506040513d601f19601f820116820180604052508101906102ec9190612a46565b600581905550600a60009054906101000a900473ffffffffffffffffffffffffffffffffffffffff1673ffffffffffffffffffffffffffffffffffffffff1663d6fa22b9866040518263ffffffff1660e01b815260040161034d9190612b40565b602060405180830381865afa15801561036a573d6000803e3d6000fd5b505050506040513d601f19601f8201168201806040525081019061038e9190612a46565b600681905550600a60009054906101000a900473ffffffffffffffffffffffffffffffffffffffff1673ffffffffffffffffffffffffffffffffffffffff1663d6fa22b9866040518263ffffffff1660e01b81526004016103ef9190612bc1565b602060405180830381865afa15801561040c573d6000803e3d6000fd5b505050506040513d601f19601f820116820180604052508101906104309190612a46565b6007819055507f220a8bf64e1bca193d56916cdf8f96f4b7252a0bb416dc1aa24a58d902254d3785600454600554600654600754604051610475959493929190612bf6565b60405180910390a15b61048661049d565b61048e61141a565b6104966118a4565b5050505050565b60006002546006546004546104b29190612c7f565b6104bc9190612cc3565b90506000600567ffffffffffffffff8111156104db576104da6122f7565b5b60405190808252806020026020018201604052801561050e57816020015b60608152602001906001900390816104f95790505b509050604051806060016040528060328152602001613127603291398160008151811061053e5761053d612d3b565b5b60200260200101819052506040518060400160405280601b81526020017f6173736574732e746f74616c416d6f756e744661697256616c756500000000008152508160018151811061059357610592612d3b565b5b60200260200101819052506040518060400160405280601481526020017f746f74616c4173736574734661697256616c7565000000000000000000000000815250816002815181106105e8576105e7612d3b565b5b60200260200101819052506040518060600160405280602281526020016132b060229139816003815181106106205761061f612d3b565b5b6020026020010181905250604051806060016040528060358152602001613599603591398160048151811061065857610657612d3b565b5b602002602001018190525060008054906101000a900473ffffffffffffffffffffffffffffffffffffffff1673ffffffffffffffffffffffffffffffffffffffff16637a1a29fb6009836000815181106106b5576106b4612d3b565b5b6020026020010151856040518463ffffffff1660e01b81526004016106dc93929190612e3a565b600060405180830381600087803b1580156106f657600080fd5b505af115801561070a573d6000803e3d6000fd5b5050505060008054906101000a900473ffffffffffffffffffffffffffffffffffffffff1673ffffffffffffffffffffffffffffffffffffffff16637a1a29fb6009836001815181106107605761075f612d3b565b5b6020026020010151856040518463ffffffff1660e01b815260040161078793929190612e3a565b600060405180830381600087803b1580156107a157600080fd5b505af11580156107b5573d6000803e3d6000fd5b5050505060008054906101000a900473ffffffffffffffffffffffffffffffffffffffff1673ffffffffffffffffffffffffffffffffffffffff16637a1a29fb60098360028151811061080b5761080a612d3b565b5b6020026020010151856040518463ffffffff1660e01b815260040161083293929190612e3a565b600060405180830381600087803b15801561084c57600080fd5b505af1158015610860573d6000803e3d6000fd5b5050505060008054906101000a900473ffffffffffffffffffffffffffffffffffffffff1673ffffffffffffffffffffffffffffffffffffffff16637a1a29fb6009836003815181106108b6576108b5612d3b565b5b6020026020010151856040518463ffffffff1660e01b81526004016108dd93929190612e3a565b600060405180830381600087803b1580156108f757600080fd5b505af115801561090b573d6000803e3d6000fd5b5050505060008054906101000a900473ffffffffffffffffffffffffffffffffffffffff1673ffffffffffffffffffffffffffffffffffffffff16637a1a29fb60098360048151811061096157610960612d3b565b5b6020026020010151856040518463ffffffff1660e01b815260040161098893929190612e3a565b600060405180830381600087803b1580156109a257600080fd5b505af11580156109b6573d6000803e3d6000fd5b5050505060006006546004546109cc9190612c7f565b90506000600167ffffffffffffffff8111156109eb576109ea6122f7565b5b604051908082528060200260200182016040528015610a1e57816020015b6060815260200190600190039081610a095790505b5090506040518060600160405280603281526020016130f56032913981600081518110610a4e57610a4d612d3b565b5b602002602001018190525060008054906101000a900473ffffffffffffffffffffffffffffffffffffffff1673ffffffffffffffffffffffffffffffffffffffff16637a1a29fb600983600081518110610aab57610aaa612d3b565b5b6020026020010151856040518463ffffffff1660e01b8152600401610ad293929190612e3a565b600060405180830381600087803b158015610aec57600080fd5b505af1158015610b00573d6000803e3d6000fd5b505050506000600254600554600454610b199190612e92565b610b239190612cc3565b90506000600367ffffffffffffffff811115610b4257610b416122f7565b5b604051908082528060200260200182016040528015610b7557816020015b6060815260200190600190039081610b605790505b5090506040518060600160405280603481526020016133366034913981600081518110610ba557610ba4612d3b565b5b602002602001018190525060405180606001604052806037815260200161304c6037913981600181518110610bdd57610bdc612d3b565b5b60200260200101819052506040518060400160405280602081526020017f6c696162696c69746965732e746f74616c416d6f756e744661697256616c756581525081600281518110610c3257610c31612d3b565b5b602002602001018190525060008054906101000a900473ffffffffffffffffffffffffffffffffffffffff1673ffffffffffffffffffffffffffffffffffffffff16637a1a29fb600983600081518110610c8f57610c8e612d3b565b5b6020026020010151856040518463ffffffff1660e01b8152600401610cb693929190612e3a565b600060405180830381600087803b158015610cd057600080fd5b505af1158015610ce4573d6000803e3d6000fd5b5050505060008054906101000a900473ffffffffffffffffffffffffffffffffffffffff1673ffffffffffffffffffffffffffffffffffffffff16637a1a29fb600983600181518110610d3a57610d39612d3b565b5b6020026020010151856040518463ffffffff1660e01b8152600401610d6193929190612e3a565b600060405180830381600087803b158015610d7b57600080fd5b505af1158015610d8f573d6000803e3d6000fd5b5050505060008054906101000a900473ffffffffffffffffffffffffffffffffffffffff1673ffffffffffffffffffffffffffffffffffffffff16637a1a29fb600983600281518110610de557610de4612d3b565b5b6020026020010151856040518463ffffffff1660e01b8152600401610e0c93929190612e3a565b600060405180830381600087803b158015610e2657600080fd5b505af1158015610e3a573d6000803e3d6000fd5b505050506000600254600654600554610e539190612c7f565b610e5d9190612cc3565b90506000600367ffffffffffffffff811115610e7c57610e7b6122f7565b5b604051908082528060200260200182016040528015610eaf57816020015b6060815260200190600190039081610e9a5790505b50905060405180606001604052806034815260200161341d6034913981600081518110610edf57610ede612d3b565b5b60200260200101819052506040518060600160405280603781526020016132d26037913981600181518110610f1757610f16612d3b565b5b60200260200101819052506040518060400160405280601b81526020017f6571756974792e746f74616c416d6f756e744661697256616c7565000000000081525081600281518110610f6c57610f6b612d3b565b5b602002602001018190525060008054906101000a900473ffffffffffffffffffffffffffffffffffffffff1673ffffffffffffffffffffffffffffffffffffffff16637a1a29fb600983600081518110610fc957610fc8612d3b565b5b6020026020010151856040518463ffffffff1660e01b8152600401610ff093929190612e3a565b600060405180830381600087803b15801561100a57600080fd5b505af115801561101e573d6000803e3d6000fd5b5050505060008054906101000a900473ffffffffffffffffffffffffffffffffffffffff1673ffffffffffffffffffffffffffffffffffffffff16637a1a29fb60098360018151811061107457611073612d3b565b5b6020026020010151856040518463ffffffff1660e01b815260040161109b93929190612e3a565b600060405180830381600087803b1580156110b557600080fd5b505af11580156110c9573d6000803e3d6000fd5b5050505060008054906101000a900473ffffffffffffffffffffffffffffffffffffffff1673ffffffffffffffffffffffffffffffffffffffff16637a1a29fb60098360028151811061111f5761111e612d3b565b5b6020026020010151856040518463ffffffff1660e01b815260040161114693929190612e3a565b600060405180830381600087803b15801561116057600080fd5b505af1158015611174573d6000803e3d6000fd5b50505050600060065460055461118a9190612c7f565b90506000600167ffffffffffffffff8111156111a9576111a86122f7565b5b6040519080825280602002602001820160405280156111dc57816020015b60608152602001906001900390816111c75790505b5090506040518060600160405280603481526020016133e9603491398160008151811061120c5761120b612d3b565b5b602002602001018190525060008054906101000a900473ffffffffffffffffffffffffffffffffffffffff1673ffffffffffffffffffffffffffffffffffffffff16637a1a29fb60098360008151811061126957611268612d3b565b5b6020026020010151856040518463ffffffff1660e01b815260040161129093929190612e3a565b600060405180830381600087803b1580156112aa57600080fd5b505af11580156112be573d6000803e3d6000fd5b5050505060006005546004546112d49190612e92565b90506000600167ffffffffffffffff8111156112f3576112f26122f7565b5b60405190808252806020026020018201604052801561132657816020015b60608152602001906001900390816113115790505b5090506040518060600160405280603481526020016134e2603491398160008151811061135657611355612d3b565b5b602002602001018190525060008054906101000a900473ffffffffffffffffffffffffffffffffffffffff1673ffffffffffffffffffffffffffffffffffffffff16637a1a29fb6009836000815181106113b3576113b2612d3b565b5b6020026020010151856040518463ffffffff1660e01b81526004016113da93929190612e3a565b600060405180830381600087803b1580156113f457600080fd5b505af1158015611408573d6000803e3d6000fd5b50505050505050505050505050505050565b600060075460065460055461142f9190612c7f565b6114399190612cc3565b90506000600367ffffffffffffffff811115611458576114576122f7565b5b60405190808252806020026020018201604052801561148b57816020015b60608152602001906001900390816114765790505b5090506040518060600160405280602d8152602001613309602d9139816000815181106114bb576114ba612d3b565b5b60200260200101819052506040518060600160405280603b8152602001613231603b9139816001815181106114f3576114f2612d3b565b5b60200260200101819052506040518060400160405280600981526020017f6e657450726f66697400000000000000000000000000000000000000000000008152508160028151811061154857611547612d3b565b5b602002602001018190525060008054906101000a900473ffffffffffffffffffffffffffffffffffffffff1673ffffffffffffffffffffffffffffffffffffffff16637a1a29fb6009836000815181106115a5576115a4612d3b565b5b6020026020010151856040518463ffffffff1660e01b81526004016115cc93929190612f21565b600060405180830381600087803b1580156115e657600080fd5b505af11580156115fa573d6000803e3d6000fd5b5050505060008054906101000a900473ffffffffffffffffffffffffffffffffffffffff1673ffffffffffffffffffffffffffffffffffffffff16637a1a29fb6009836001815181106116505761164f612d3b565b5b6020026020010151856040518463ffffffff1660e01b815260040161167793929190612f21565b600060405180830381600087803b15801561169157600080fd5b505af11580156116a5573d6000803e3d6000fd5b5050505060008054906101000a900473ffffffffffffffffffffffffffffffffffffffff1673ffffffffffffffffffffffffffffffffffffffff16637a1a29fb6009836002815181106116fb576116fa612d3b565b5b6020026020010151856040518463ffffffff1660e01b815260040161172293929190612f21565b600060405180830381600087803b15801561173c57600080fd5b505af1158015611750573d6000803e3d6000fd5b5050505060006006546005546117669190612c7f565b90506000600167ffffffffffffffff811115611785576117846122f7565b5b6040519080825280602002602001820160405280156117b857816020015b60608152602001906001900390816117a35790505b5090506040518060600160405280602e815260200161301e602e9139816000815181106117e8576117e7612d3b565b5b602002602001018190525060008054906101000a900473ffffffffffffffffffffffffffffffffffffffff1673ffffffffffffffffffffffffffffffffffffffff16637a1a29fb60098360008151811061184557611844612d3b565b5b6020026020010151856040518463ffffffff1660e01b815260040161186c93929190612f21565b600060405180830381600087803b15801561188657600080fd5b505af115801561189a573d6000803e3d6000fd5b5050505050505050565b60006007546005546004546118b99190612e92565b6118c39190612cc3565b90506000600267ffffffffffffffff8111156118e2576118e16122f7565b5b60405190808252806020026020018201604052801561191557816020015b60608152602001906001900390816119005790505b5090506040518060a00160405280607181526020016135ce607191398160008151811061194557611944612d3b565b5b60200260200101819052506040518060a00160405280607f815260200161336a607f91398160018151811061197d5761197c612d3b565b5b602002602001018190525060008054906101000a900473ffffffffffffffffffffffffffffffffffffffff1673ffffffffffffffffffffffffffffffffffffffff16637a1a29fb6009836000815181106119da576119d9612d3b565b5b6020026020010151856040518463ffffffff1660e01b8152600401611a0193929190612fc5565b600060405180830381600087803b158015611a1b57600080fd5b505af1158015611a2f573d6000803e3d6000fd5b5050505060008054906101000a900473ffffffffffffffffffffffffffffffffffffffff1673ffffffffffffffffffffffffffffffffffffffff16637a1a29fb600983600181518110611a8557611a84612d3b565b5b6020026020010151856040518463ffffffff1660e01b8152600401611aac93929190612fc5565b600060405180830381600087803b158015611ac657600080fd5b505af1158015611ada573d6000803e3d6000fd5b505050506000600554600454611af09190612e92565b90506000600167ffffffffffffffff811115611b0f57611b0e6122f7565b5b604051908082528060200260200182016040528015611b4257816020015b6060815260200190600190039081611b2d5790505b5090506040518060a00160405280607281526020016130836072913981600081518110611b7257611b71612d3b565b5b602002602001018190525060008054906101000a900473ffffffffffffffffffffffffffffffffffffffff1673ffffffffffffffffffffffffffffffffffffffff16637a1a29fb600983600081518110611bcf57611bce612d3b565b5b6020026020010151856040518463ffffffff1660e01b8152600401611bf693929190612fc5565b600060405180830381600087803b158015611c1057600080fd5b505af1158015611c24573d6000803e3d6000fd5b505050506000600754600654600554611c3d9190612c7f565b611c479190612cc3565b90506000600267ffffffffffffffff811115611c6657611c656122f7565b5b604051908082528060200260200182016040528015611c9957816020015b6060815260200190600190039081611c845790505b5090506040518060c00160405280608381526020016135166083913981600081518110611cc957611cc8612d3b565b5b60200260200101819052506040518060c00160405280609181526020016134516091913981600181518110611d0157611d00612d3b565b5b602002602001018190525060008054906101000a900473ffffffffffffffffffffffffffffffffffffffff1673ffffffffffffffffffffffffffffffffffffffff16637a1a29fb600983600081518110611d5e57611d5d612d3b565b5b6020026020010151856040518463ffffffff1660e01b8152600401611d8593929190612fc5565b600060405180830381600087803b158015611d9f57600080fd5b505af1158015611db3573d6000803e3d6000fd5b5050505060008054906101000a900473ffffffffffffffffffffffffffffffffffffffff1673ffffffffffffffffffffffffffffffffffffffff16637a1a29fb600983600181518110611e0957611e08612d3b565b5b6020026020010151856040518463ffffffff1660e01b8152600401611e3093929190612fc5565b600060405180830381600087803b158015611e4a57600080fd5b505af1158015611e5e573d6000803e3d6000fd5b505050506000600654600554611e749190612c7f565b90506000600167ffffffffffffffff811115611e9357611e926122f7565b5b604051908082528060200260200182016040528015611ec657816020015b6060815260200190600190039081611eb15790505b5090506040518060c00160405280608481526020016131ad6084913981600081518110611ef657611ef5612d3b565b5b602002602001018190525060008054906101000a900473ffffffffffffffffffffffffffffffffffffffff1673ffffffffffffffffffffffffffffffffffffffff16637a1a29fb600983600081518110611f5357611f52612d3b565b5b6020026020010151856040518463ffffffff1660e01b8152600401611f7a93929190612fc5565b600060405180830381600087803b158015611f9457600080fd5b505af1158015611fa8573d6000803e3d6000fd5b505050506000600754600654600454611fc19190612c7f565b611fcb9190612cc3565b90506000600267ffffffffffffffff811115611fea57611fe96122f7565b5b60405190808252806020026020018201604052801561201d57816020015b60608152602001906001900390816120085790505b50905060405180608001604052806044815260200161326c604491398160008151811061204d5761204c612d3b565b5b6020026020010181905250604051806080016040528060548152602001613159605491398160018151811061208557612084612d3b565b5b602002602001018190525060008054906101000a900473ffffffffffffffffffffffffffffffffffffffff1673ffffffffffffffffffffffffffffffffffffffff16637a1a29fb6009836000815181106120e2576120e1612d3b565b5b6020026020010151856040518463ffffffff1660e01b815260040161210993929190612fc5565b600060405180830381600087803b15801561212357600080fd5b505af1158015612137573d6000803e3d6000fd5b5050505060008054906101000a900473ffffffffffffffffffffffffffffffffffffffff1673ffffffffffffffffffffffffffffffffffffffff16637a1a29fb60098360018151811061218d5761218c612d3b565b5b6020026020010151856040518463ffffffff1660e01b81526004016121b493929190612fc5565b600060405180830381600087803b1580156121ce57600080fd5b505af11580156121e2573d6000803e3d6000fd5b5050505050505050505050505050565b600073ffffffffffffffffffffffffffffffffffffffff82169050919050565b6000819050919050565b600061223761223261222d846121f2565b612212565b6121f2565b9050919050565b60006122498261221c565b9050919050565b600061225b8261223e565b9050919050565b61226b81612250565b82525050565b60006020820190506122866000830184612262565b92915050565b60006122978261223e565b9050919050565b6122a78161228c565b82525050565b60006020820190506122c2600083018461229e565b92915050565b6000604051905090565b600080fd5b600080fd5b600080fd5b600080fd5b6000601f19601f8301169050919050565b7f4e487b7100000000000000000000000000000000000000000000000000000000600052604160045260246000fd5b61232f826122e6565b810181811067ffffffffffffffff8211171561234e5761234d6122f7565b5b80604052505050565b60006123616122c8565b905061236d8282612326565b919050565b600067ffffffffffffffff82111561238d5761238c6122f7565b5b612396826122e6565b9050602081019050919050565b82818337600083830152505050565b60006123c56123c084612372565b612357565b9050828152602081018484840111156123e1576123e06122e1565b5b6123ec8482856123a3565b509392505050565b600082601f830112612409576124086122dc565b5b81356124198482602086016123b2565b91505092915050565b6000819050919050565b61243581612422565b811461244057600080fd5b50565b6000813590506124528161242c565b92915050565b600080600080600060a08688031215612474576124736122d2565b5b600086013567ffffffffffffffff811115612492576124916122d7565b5b61249e888289016123f4565b955050602086013567ffffffffffffffff8111156124bf576124be6122d7565b5b6124cb888289016123f4565b94505060406124dc88828901612443565b93505060606124ed88828901612443565b92505060806124fe88828901612443565b9150509295509295909350565b600081519050919050565b7f4e487b7100000000000000000000000000000000000000000000000000000000600052602260045260246000fd5b6000600282049050600182168061255d57607f821691505b6020821081036125705761256f612516565b5b50919050565b60008190508160005260206000209050919050565b60006020601f8301049050919050565b600082821b905092915050565b6000600883026125d87fffffffffffffffffffffffffffffffffffffffffffffffffffffffffffffffff8261259b565b6125e2868361259b565b95508019841693508086168417925050509392505050565b6000819050919050565b600061261f61261a612615846125fa565b612212565b6125fa565b9050919050565b6000819050919050565b61263983612604565b61264d61264582612626565b8484546125a8565b825550505050565b600090565b612662612655565b61266d818484612630565b505050565b5b818110156126915761268660008261265a565b600181019050612673565b5050565b601f8211156126d6576126a781612576565b6126b08461258b565b810160208510156126bf578190505b6126d36126cb8561258b565b830182612672565b50505b505050565b600082821c905092915050565b60006126f9600019846008026126db565b1980831691505092915050565b600061271283836126e8565b9150826002028217905092915050565b61272b8261250b565b67ffffffffffffffff811115612744576127436122f7565b5b61274e8254612545565b612759828285612695565b600060209050601f83116001811461278c576000841561277a578287015190505b6127848582612706565b8655506127ec565b601f19841661279a86612576565b60005b828110156127c25784890151825560018201915060208501945060208101905061279d565b868310156127df57848901516127db601f8916826126e8565b8355505b6001600288020188555050505b505050505050565b600082825260208201905092915050565b60005b83811015612823578082015181840152602081019050612808565b60008484015250505050565b600061283a8261250b565b61284481856127f4565b9350612854818560208601612805565b61285d816122e6565b840191505092915050565b61287181612422565b82525050565b60006080820190508181036000830152612891818761282f565b90506128a06020830186612868565b6128ad6040830185612868565b6128ba6060830184612868565b95945050505050565b600081905092915050565b60006128d98261250b565b6128e381856128c3565b93506128f3818560208601612805565b80840191505092915050565b600061290b82846128ce565b915081905092915050565b6000815461292381612545565b61292d81866128c3565b94506001821660008114612948576001811461295d57612990565b60ff1983168652811515820286019350612990565b61296685612576565b60005b8381101561298857815481890152600182019150602081019050612969565b838801955050505b50505092915050565b60006129a58284612916565b915081905092915050565b7f4550303031000000000000000000000000000000000000000000000000000000600082015250565b60006129e66005836127f4565b91506129f1826129b0565b602082019050919050565b60006040820190508181036000830152612a16818461282f565b90508181036020830152612a29816129d9565b905092915050565b600081519050612a408161242c565b92915050565b600060208284031215612a5c57612a5b6122d2565b5b6000612a6a84828501612a31565b91505092915050565b7f4550303032000000000000000000000000000000000000000000000000000000600082015250565b6000612aa96005836127f4565b9150612ab482612a73565b602082019050919050565b60006040820190508181036000830152612ad9818461282f565b90508181036020830152612aec81612a9c565b905092915050565b7f4550303033000000000000000000000000000000000000000000000000000000600082015250565b6000612b2a6005836127f4565b9150612b3582612af4565b602082019050919050565b60006040820190508181036000830152612b5a818461282f565b90508181036020830152612b6d81612b1d565b905092915050565b7f4550303035000000000000000000000000000000000000000000000000000000600082015250565b6000612bab6005836127f4565b9150612bb682612b75565b602082019050919050565b60006040820190508181036000830152612bdb818461282f565b90508181036020830152612bee81612b9e565b905092915050565b600060a0820190508181036000830152612c10818861282f565b9050612c1f6020830187612868565b612c2c6040830186612868565b612c396060830185612868565b612c466080830184612868565b9695505050505050565b7f4e487b7100000000000000000000000000000000000000000000000000000000600052601160045260246000fd5b6000612c8a82612422565b9150612c9583612422565b925082820190508281121560008312168382126000841215161715612cbd57612cbc612c50565b5b92915050565b6000612cce82612422565b9150612cd983612422565b9250828202612ce781612422565b91507f80000000000000000000000000000000000000000000000000000000000000008414600084121615612d1f57612d1e612c50565b5b8282058414831517612d3457612d33612c50565b5b5092915050565b7f4e487b7100000000000000000000000000000000000000000000000000000000600052603260045260246000fd5b60008154612d7781612545565b612d8181866127f4565b94506001821660008114612d9c5760018114612db257612de5565b60ff198316865281151560200286019350612de5565b612dbb85612576565b60005b83811015612ddd57815481890152600182019150602081019050612dbe565b808801955050505b50505092915050565b7f62616c616e636553686565740000000000000000000000000000000000000000600082015250565b6000612e24600c836127f4565b9150612e2f82612dee565b602082019050919050565b60006080820190508181036000830152612e548186612d6a565b90508181036020830152612e6781612e17565b90508181036040830152612e7b818561282f565b9050612e8a6060830184612868565b949350505050565b6000612e9d82612422565b9150612ea883612422565b9250828203905081811260008412168282136000851215161715612ecf57612ece612c50565b5b92915050565b7f636f6d70726568656e73697665496e636f6d6500000000000000000000000000600082015250565b6000612f0b6013836127f4565b9150612f1682612ed5565b602082019050919050565b60006080820190508181036000830152612f3b8186612d6a565b90508181036020830152612f4e81612efe565b90508181036040830152612f62818561282f565b9050612f716060830184612868565b949350505050565b7f63617368466c6f77000000000000000000000000000000000000000000000000600082015250565b6000612faf6008836127f4565b9150612fba82612f79565b602082019050919050565b60006080820190508181036000830152612fdf8186612d6a565b90508181036020830152612ff281612fa2565b90508181036040830152613006818561282f565b90506130156060830184612868565b94935050505056fe696e636f6d652e64657461696c732e6465706f7369744665652e627265616b646f776e2e4554482e616d6f756e746c696162696c69746965732e64657461696c732e757365724465706f7369742e627265616b646f776e2e4554482e6661697256616c7565737570706c656d656e74616c5363686564756c654f664e6f6e436173684f7065726174696e67416374697669746965732e64657461696c732e63727970746f63757272656e636965734465706f73697465644279437573746f6d6572732e627265616b646f776e2e4554482e616d6f756e746173736574732e64657461696c732e63727970746f63757272656e63792e627265616b646f776e2e4554482e616d6f756e746173736574732e64657461696c732e63727970746f63757272656e63792e746f74616c416d6f756e744661697256616c7565737570706c656d656e74616c5363686564756c654f664e6f6e436173684f7065726174696e67416374697669746965732e64657461696c732e63727970746f63757272656e63696573456e644f66506572696f64737570706c656d656e74616c5363686564756c654f664e6f6e436173684f7065726174696e67416374697669746965732e64657461696c732e63727970746f63757272656e63696573526563656976656446726f6d437573746f6d65727341735472616e73616374696f6e466565732e627265616b646f776e2e4554482e616d6f756e74696e636f6d652e64657461696c732e6465706f7369744665652e627265616b646f776e2e4554482e776569676874656441766572616765436f7374737570706c656d656e74616c5363686564756c654f664e6f6e436173684f7065726174696e67416374697669746965732e776569676874656441766572616765436f7374746f74616c4c696162696c6974696573416e644571756974794661697256616c75656571756974792e64657461696c732e72657461696e65644561726e696e67732e627265616b646f776e2e4554482e6661697256616c7565696e636f6d652e64657461696c732e6465706f7369744665652e776569676874656441766572616765436f73746c696162696c69746965732e64657461696c732e757365724465706f7369742e746f74616c416d6f756e744661697256616c7565737570706c656d656e74616c5363686564756c654f664e6f6e436173684f7065726174696e67416374697669746965732e64657461696c732e63727970746f63757272656e636965734465706f73697465644279437573746f6d6572732e627265616b646f776e2e4554482e776569676874656441766572616765436f73746571756974792e64657461696c732e72657461696e65644561726e696e67732e627265616b646f776e2e4554482e616d6f756e746571756974792e64657461696c732e72657461696e65644561726e696e67732e746f74616c416d6f756e744661697256616c7565737570706c656d656e74616c5363686564756c654f664e6f6e436173684f7065726174696e67416374697669746965732e64657461696c732e63727970746f63757272656e63696573526563656976656446726f6d437573746f6d65727341735472616e73616374696f6e466565732e627265616b646f776e2e4554482e776569676874656441766572616765436f73746c696162696c69746965732e64657461696c732e757365724465706f7369742e627265616b646f776e2e4554482e616d6f756e74737570706c656d656e74616c5363686564756c654f664e6f6e436173684f7065726174696e67416374697669746965732e64657461696c732e63727970746f63757272656e63696573526563656976656446726f6d437573746f6d65727341735472616e73616374696f6e466565732e776569676874656441766572616765436f73746173736574732e64657461696c732e63727970746f63757272656e63792e627265616b646f776e2e4554482e6661697256616c7565737570706c656d656e74616c5363686564756c654f664e6f6e436173684f7065726174696e67416374697669746965732e64657461696c732e63727970746f63757272656e636965734465706f73697465644279437573746f6d6572732e776569676874656441766572616765436f7374a2646970667358221220875036beff00c919baa7824acd6af207bdf4e6f89cf1e648f64178e1399d9d4f64736f6c63430008120033",
			"opcodes": "PUSH1 0x80 PUSH1 0x40 MSTORE CALLVALUE DUP1 ISZERO PUSH3 0x11 JUMPI PUSH1 0x0 DUP1 REVERT JUMPDEST POP PUSH1 0x40 MLOAD PUSH3 0x37F5 CODESIZE SUB DUP1 PUSH3 0x37F5 DUP4 CODECOPY DUP2 DUP2 ADD PUSH1 0x40 MSTORE DUP2 ADD SWAP1 PUSH3 0x37 SWAP2 SWAP1 PUSH3 0x12A JUMP JUMPDEST DUP2 PUSH1 0xA PUSH1 0x0 PUSH2 0x100 EXP DUP2 SLOAD DUP2 PUSH20 0xFFFFFFFFFFFFFFFFFFFFFFFFFFFFFFFFFFFFFFFF MUL NOT AND SWAP1 DUP4 PUSH20 0xFFFFFFFFFFFFFFFFFFFFFFFFFFFFFFFFFFFFFFFF AND MUL OR SWAP1 SSTORE POP DUP1 PUSH1 0x0 DUP1 PUSH2 0x100 EXP DUP2 SLOAD DUP2 PUSH20 0xFFFFFFFFFFFFFFFFFFFFFFFFFFFFFFFFFFFFFFFF MUL NOT AND SWAP1 DUP4 PUSH20 0xFFFFFFFFFFFFFFFFFFFFFFFFFFFFFFFFFFFFFFFF AND MUL OR SWAP1 SSTORE POP POP POP PUSH3 0x171 JUMP JUMPDEST PUSH1 0x0 DUP1 REVERT JUMPDEST PUSH1 0x0 PUSH20 0xFFFFFFFFFFFFFFFFFFFFFFFFFFFFFFFFFFFFFFFF DUP3 AND SWAP1 POP SWAP2 SWAP1 POP JUMP JUMPDEST PUSH1 0x0 PUSH3 0xF2 DUP3 PUSH3 0xC5 JUMP JUMPDEST SWAP1 POP SWAP2 SWAP1 POP JUMP JUMPDEST PUSH3 0x104 DUP2 PUSH3 0xE5 JUMP JUMPDEST DUP2 EQ PUSH3 0x110 JUMPI PUSH1 0x0 DUP1 REVERT JUMPDEST POP JUMP JUMPDEST PUSH1 0x0 DUP2 MLOAD SWAP1 POP PUSH3 0x124 DUP2 PUSH3 0xF9 JUMP JUMPDEST SWAP3 SWAP2 POP POP JUMP JUMPDEST PUSH1 0x0 DUP1 PUSH1 0x40 DUP4 DUP6 SUB SLT ISZERO PUSH3 0x144 JUMPI PUSH3 0x143 PUSH3 0xC0 JUMP JUMPDEST JUMPDEST PUSH1 0x0 PUSH3 0x154 DUP6 DUP3 DUP7 ADD PUSH3 0x113 JUMP JUMPDEST SWAP3 POP POP PUSH1 0x20 PUSH3 0x167 DUP6 DUP3 DUP7 ADD PUSH3 0x113 JUMP JUMPDEST SWAP2 POP POP SWAP3 POP SWAP3 SWAP1 POP JUMP JUMPDEST PUSH2 0x3674 DUP1 PUSH3 0x181 PUSH1 0x0 CODECOPY PUSH1 0x0 RETURN INVALID PUSH1 0x80 PUSH1 0x40 MSTORE CALLVALUE DUP1 ISZERO PUSH2 0x10 JUMPI PUSH1 0x0 DUP1 REVERT JUMPDEST POP PUSH1 0x4 CALLDATASIZE LT PUSH2 0x41 JUMPI PUSH1 0x0 CALLDATALOAD PUSH1 0xE0 SHR DUP1 PUSH4 0x1F45275B EQ PUSH2 0x46 JUMPI DUP1 PUSH4 0x2606A10B EQ PUSH2 0x64 JUMPI DUP1 PUSH4 0xAE8C0DD6 EQ PUSH2 0x82 JUMPI JUMPDEST PUSH1 0x0 DUP1 REVERT JUMPDEST PUSH2 0x4E PUSH2 0x9E JUMP JUMPDEST PUSH1 0x40 MLOAD PUSH2 0x5B SWAP2 SWAP1 PUSH2 0x2271 JUMP JUMPDEST PUSH1 0x40 MLOAD DUP1 SWAP2 SUB SWAP1 RETURN JUMPDEST PUSH2 0x6C PUSH2 0xC4 JUMP JUMPDEST PUSH1 0x40 MLOAD PUSH2 0x79 SWAP2 SWAP1 PUSH2 0x22AD JUMP JUMPDEST PUSH1 0x40 MLOAD DUP1 SWAP2 SUB SWAP1 RETURN JUMPDEST PUSH2 0x9C PUSH1 0x4 DUP1 CALLDATASIZE SUB DUP2 ADD SWAP1 PUSH2 0x97 SWAP2 SWAP1 PUSH2 0x2458 JUMP JUMPDEST PUSH2 0xE8 JUMP JUMPDEST STOP JUMPDEST PUSH1 0xA PUSH1 0x0 SWAP1 SLOAD SWAP1 PUSH2 0x100 EXP SWAP1 DIV PUSH20 0xFFFFFFFFFFFFFFFFFFFFFFFFFFFFFFFFFFFFFFFF AND DUP2 JUMP JUMPDEST PUSH1 0x0 DUP1 SLOAD SWAP1 PUSH2 0x100 EXP SWAP1 DIV PUSH20 0xFFFFFFFFFFFFFFFFFFFFFFFFFFFFFFFFFFFFFFFF AND DUP2 JUMP JUMPDEST DUP3 PUSH1 0x1 DUP2 SWAP1 SSTORE POP DUP2 PUSH1 0x2 DUP2 SWAP1 SSTORE POP DUP1 PUSH1 0x3 DUP2 SWAP1 SSTORE POP DUP5 PUSH1 0x8 SWAP1 DUP2 PUSH2 0x10C SWAP2 SWAP1 PUSH2 0x2722 JUMP JUMPDEST POP DUP4 PUSH1 0x9 SWAP1 DUP2 PUSH2 0x11C SWAP2 SWAP1 PUSH2 0x2722 JUMP JUMPDEST POP PUSH32 0xB620DE9F970909D721FFB707C84B4E17FDFD5F2E77D42C78B5B3E72219B4C001 DUP6 DUP5 DUP5 DUP5 PUSH1 0x40 MLOAD PUSH2 0x152 SWAP5 SWAP4 SWAP3 SWAP2 SWAP1 PUSH2 0x2877 JUMP JUMPDEST PUSH1 0x40 MLOAD DUP1 SWAP2 SUB SWAP1 LOG1 DUP5 PUSH1 0x40 MLOAD PUSH1 0x20 ADD PUSH2 0x16B SWAP2 SWAP1 PUSH2 0x28FF JUMP JUMPDEST PUSH1 0x40 MLOAD PUSH1 0x20 DUP2 DUP4 SUB SUB DUP2 MSTORE SWAP1 PUSH1 0x40 MSTORE DUP1 MLOAD SWAP1 PUSH1 0x20 ADD KECCAK256 PUSH1 0x8 PUSH1 0x40 MLOAD PUSH1 0x20 ADD PUSH2 0x193 SWAP2 SWAP1 PUSH2 0x2999 JUMP JUMPDEST PUSH1 0x40 MLOAD PUSH1 0x20 DUP2 DUP4 SUB SUB DUP2 MSTORE SWAP1 PUSH1 0x40 MSTORE DUP1 MLOAD SWAP1 PUSH1 0x20 ADD KECCAK256 SUB PUSH2 0x47E JUMPI PUSH1 0xA PUSH1 0x0 SWAP1 SLOAD SWAP1 PUSH2 0x100 EXP SWAP1 DIV PUSH20 0xFFFFFFFFFFFFFFFFFFFFFFFFFFFFFFFFFFFFFFFF AND PUSH20 0xFFFFFFFFFFFFFFFFFFFFFFFFFFFFFFFFFFFFFFFF AND PUSH4 0xD6FA22B9 DUP7 PUSH1 0x40 MLOAD DUP3 PUSH4 0xFFFFFFFF AND PUSH1 0xE0 SHL DUP2 MSTORE PUSH1 0x4 ADD PUSH2 0x209 SWAP2 SWAP1 PUSH2 0x29FC JUMP JUMPDEST PUSH1 0x20 PUSH1 0x40 MLOAD DUP1 DUP4 SUB DUP2 DUP7 GAS STATICCALL ISZERO DUP1 ISZERO PUSH2 0x226 JUMPI RETURNDATASIZE PUSH1 0x0 DUP1 RETURNDATACOPY RETURNDATASIZE PUSH1 0x0 REVERT JUMPDEST POP POP POP POP PUSH1 0x40 MLOAD RETURNDATASIZE PUSH1 0x1F NOT PUSH1 0x1F DUP3 ADD AND DUP3 ADD DUP1 PUSH1 0x40 MSTORE POP DUP2 ADD SWAP1 PUSH2 0x24A SWAP2 SWAP1 PUSH2 0x2A46 JUMP JUMPDEST PUSH1 0x4 DUP2 SWAP1 SSTORE POP PUSH1 0xA PUSH1 0x0 SWAP1 SLOAD SWAP1 PUSH2 0x100 EXP SWAP1 DIV PUSH20 0xFFFFFFFFFFFFFFFFFFFFFFFFFFFFFFFFFFFFFFFF AND PUSH20 0xFFFFFFFFFFFFFFFFFFFFFFFFFFFFFFFFFFFFFFFF AND PUSH4 0xD6FA22B9 DUP7 PUSH1 0x40 MLOAD DUP3 PUSH4 0xFFFFFFFF AND PUSH1 0xE0 SHL DUP2 MSTORE PUSH1 0x4 ADD PUSH2 0x2AB SWAP2 SWAP1 PUSH2 0x2ABF JUMP JUMPDEST PUSH1 0x20 PUSH1 0x40 MLOAD DUP1 DUP4 SUB DUP2 DUP7 GAS STATICCALL ISZERO DUP1 ISZERO PUSH2 0x2C8 JUMPI RETURNDATASIZE PUSH1 0x0 DUP1 RETURNDATACOPY RETURNDATASIZE PUSH1 0x0 REVERT JUMPDEST POP POP POP POP PUSH1 0x40 MLOAD RETURNDATASIZE PUSH1 0x1F NOT PUSH1 0x1F DUP3 ADD AND DUP3 ADD DUP1 PUSH1 0x40 MSTORE POP DUP2 ADD SWAP1 PUSH2 0x2EC SWAP2 SWAP1 PUSH2 0x2A46 JUMP JUMPDEST PUSH1 0x5 DUP2 SWAP1 SSTORE POP PUSH1 0xA PUSH1 0x0 SWAP1 SLOAD SWAP1 PUSH2 0x100 EXP SWAP1 DIV PUSH20 0xFFFFFFFFFFFFFFFFFFFFFFFFFFFFFFFFFFFFFFFF AND PUSH20 0xFFFFFFFFFFFFFFFFFFFFFFFFFFFFFFFFFFFFFFFF AND PUSH4 0xD6FA22B9 DUP7 PUSH1 0x40 MLOAD DUP3 PUSH4 0xFFFFFFFF AND PUSH1 0xE0 SHL DUP2 MSTORE PUSH1 0x4 ADD PUSH2 0x34D SWAP2 SWAP1 PUSH2 0x2B40 JUMP JUMPDEST PUSH1 0x20 PUSH1 0x40 MLOAD DUP1 DUP4 SUB DUP2 DUP7 GAS STATICCALL ISZERO DUP1 ISZERO PUSH2 0x36A JUMPI RETURNDATASIZE PUSH1 0x0 DUP1 RETURNDATACOPY RETURNDATASIZE PUSH1 0x0 REVERT JUMPDEST POP POP POP POP PUSH1 0x40 MLOAD RETURNDATASIZE PUSH1 0x1F NOT PUSH1 0x1F DUP3 ADD AND DUP3 ADD DUP1 PUSH1 0x40 MSTORE POP DUP2 ADD SWAP1 PUSH2 0x38E SWAP2 SWAP1 PUSH2 0x2A46 JUMP JUMPDEST PUSH1 0x6 DUP2 SWAP1 SSTORE POP PUSH1 0xA PUSH1 0x0 SWAP1 SLOAD SWAP1 PUSH2 0x100 EXP SWAP1 DIV PUSH20 0xFFFFFFFFFFFFFFFFFFFFFFFFFFFFFFFFFFFFFFFF AND PUSH20 0xFFFFFFFFFFFFFFFFFFFFFFFFFFFFFFFFFFFFFFFF AND PUSH4 0xD6FA22B9 DUP7 PUSH1 0x40 MLOAD DUP3 PUSH4 0xFFFFFFFF AND PUSH1 0xE0 SHL DUP2 MSTORE PUSH1 0x4 ADD PUSH2 0x3EF SWAP2 SWAP1 PUSH2 0x2BC1 JUMP JUMPDEST PUSH1 0x20 PUSH1 0x40 MLOAD DUP1 DUP4 SUB DUP2 DUP7 GAS STATICCALL ISZERO DUP1 ISZERO PUSH2 0x40C JUMPI RETURNDATASIZE PUSH1 0x0 DUP1 RETURNDATACOPY RETURNDATASIZE PUSH1 0x0 REVERT JUMPDEST POP POP POP POP PUSH1 0x40 MLOAD RETURNDATASIZE PUSH1 0x1F NOT PUSH1 0x1F DUP3 ADD AND DUP3 ADD DUP1 PUSH1 0x40 MSTORE POP DUP2 ADD SWAP1 PUSH2 0x430 SWAP2 SWAP1 PUSH2 0x2A46 JUMP JUMPDEST PUSH1 0x7 DUP2 SWAP1 SSTORE POP PUSH32 0x220A8BF64E1BCA193D56916CDF8F96F4B7252A0BB416DC1AA24A58D902254D37 DUP6 PUSH1 0x4 SLOAD PUSH1 0x5 SLOAD PUSH1 0x6 SLOAD PUSH1 0x7 SLOAD PUSH1 0x40 MLOAD PUSH2 0x475 SWAP6 SWAP5 SWAP4 SWAP3 SWAP2 SWAP1 PUSH2 0x2BF6 JUMP JUMPDEST PUSH1 0x40 MLOAD DUP1 SWAP2 SUB SWAP1 LOG1 JUMPDEST PUSH2 0x486 PUSH2 0x49D JUMP JUMPDEST PUSH2 0x48E PUSH2 0x141A JUMP JUMPDEST PUSH2 0x496 PUSH2 0x18A4 JUMP JUMPDEST POP POP POP POP POP JUMP JUMPDEST PUSH1 0x0 PUSH1 0x2 SLOAD PUSH1 0x6 SLOAD PUSH1 0x4 SLOAD PUSH2 0x4B2 SWAP2 SWAP1 PUSH2 0x2C7F JUMP JUMPDEST PUSH2 0x4BC SWAP2 SWAP1 PUSH2 0x2CC3 JUMP JUMPDEST SWAP1 POP PUSH1 0x0 PUSH1 0x5 PUSH8 0xFFFFFFFFFFFFFFFF DUP2 GT ISZERO PUSH2 0x4DB JUMPI PUSH2 0x4DA PUSH2 0x22F7 JUMP JUMPDEST JUMPDEST PUSH1 0x40 MLOAD SWAP1 DUP1 DUP3 MSTORE DUP1 PUSH1 0x20 MUL PUSH1 0x20 ADD DUP3 ADD PUSH1 0x40 MSTORE DUP1 ISZERO PUSH2 0x50E JUMPI DUP2 PUSH1 0x20 ADD JUMPDEST PUSH1 0x60 DUP2 MSTORE PUSH1 0x20 ADD SWAP1 PUSH1 0x1 SWAP1 SUB SWAP1 DUP2 PUSH2 0x4F9 JUMPI SWAP1 POP JUMPDEST POP SWAP1 POP PUSH1 0x40 MLOAD DUP1 PUSH1 0x60 ADD PUSH1 0x40 MSTORE DUP1 PUSH1 0x32 DUP2 MSTORE PUSH1 0x20 ADD PUSH2 0x3127 PUSH1 0x32 SWAP2 CODECOPY DUP2 PUSH1 0x0 DUP2 MLOAD DUP2 LT PUSH2 0x53E JUMPI PUSH2 0x53D PUSH2 0x2D3B JUMP JUMPDEST JUMPDEST PUSH1 0x20 MUL PUSH1 0x20 ADD ADD DUP2 SWAP1 MSTORE POP PUSH1 0x40 MLOAD DUP1 PUSH1 0x40 ADD PUSH1 0x40 MSTORE DUP1 PUSH1 0x1B DUP2 MSTORE PUSH1 0x20 ADD PUSH32 0x6173736574732E746F74616C416D6F756E744661697256616C75650000000000 DUP2 MSTORE POP DUP2 PUSH1 0x1 DUP2 MLOAD DUP2 LT PUSH2 0x593 JUMPI PUSH2 0x592 PUSH2 0x2D3B JUMP JUMPDEST JUMPDEST PUSH1 0x20 MUL PUSH1 0x20 ADD ADD DUP2 SWAP1 MSTORE POP PUSH1 0x40 MLOAD DUP1 PUSH1 0x40 ADD PUSH1 0x40 MSTORE DUP1 PUSH1 0x14 DUP2 MSTORE PUSH1 0x20 ADD PUSH32 0x746F74616C4173736574734661697256616C7565000000000000000000000000 DUP2 MSTORE POP DUP2 PUSH1 0x2 DUP2 MLOAD DUP2 LT PUSH2 0x5E8 JUMPI PUSH2 0x5E7 PUSH2 0x2D3B JUMP JUMPDEST JUMPDEST PUSH1 0x20 MUL PUSH1 0x20 ADD ADD DUP2 SWAP1 MSTORE POP PUSH1 0x40 MLOAD DUP1 PUSH1 0x60 ADD PUSH1 0x40 MSTORE DUP1 PUSH1 0x22 DUP2 MSTORE PUSH1 0x20 ADD PUSH2 0x32B0 PUSH1 0x22 SWAP2 CODECOPY DUP2 PUSH1 0x3 DUP2 MLOAD DUP2 LT PUSH2 0x620 JUMPI PUSH2 0x61F PUSH2 0x2D3B JUMP JUMPDEST JUMPDEST PUSH1 0x20 MUL PUSH1 0x20 ADD ADD DUP2 SWAP1 MSTORE POP PUSH1 0x40 MLOAD DUP1 PUSH1 0x60 ADD PUSH1 0x40 MSTORE DUP1 PUSH1 0x35 DUP2 MSTORE PUSH1 0x20 ADD PUSH2 0x3599 PUSH1 0x35 SWAP2 CODECOPY DUP2 PUSH1 0x4 DUP2 MLOAD DUP2 LT PUSH2 0x658 JUMPI PUSH2 0x657 PUSH2 0x2D3B JUMP JUMPDEST JUMPDEST PUSH1 0x20 MUL PUSH1 0x20 ADD ADD DUP2 SWAP1 MSTORE POP PUSH1 0x0 DUP1 SLOAD SWAP1 PUSH2 0x100 EXP SWAP1 DIV PUSH20 0xFFFFFFFFFFFFFFFFFFFFFFFFFFFFFFFFFFFFFFFF AND PUSH20 0xFFFFFFFFFFFFFFFFFFFFFFFFFFFFFFFFFFFFFFFF AND PUSH4 0x7A1A29FB PUSH1 0x9 DUP4 PUSH1 0x0 DUP2 MLOAD DUP2 LT PUSH2 0x6B5 JUMPI PUSH2 0x6B4 PUSH2 0x2D3B JUMP JUMPDEST JUMPDEST PUSH1 0x20 MUL PUSH1 0x20 ADD ADD MLOAD DUP6 PUSH1 0x40 MLOAD DUP5 PUSH4 0xFFFFFFFF AND PUSH1 0xE0 SHL DUP2 MSTORE PUSH1 0x4 ADD PUSH2 0x6DC SWAP4 SWAP3 SWAP2 SWAP1 PUSH2 0x2E3A JUMP JUMPDEST PUSH1 0x0 PUSH1 0x40 MLOAD DUP1 DUP4 SUB DUP2 PUSH1 0x0 DUP8 DUP1 EXTCODESIZE ISZERO DUP1 ISZERO PUSH2 0x6F6 JUMPI PUSH1 0x0 DUP1 REVERT JUMPDEST POP GAS CALL ISZERO DUP1 ISZERO PUSH2 0x70A JUMPI RETURNDATASIZE PUSH1 0x0 DUP1 RETURNDATACOPY RETURNDATASIZE PUSH1 0x0 REVERT JUMPDEST POP POP POP POP PUSH1 0x0 DUP1 SLOAD SWAP1 PUSH2 0x100 EXP SWAP1 DIV PUSH20 0xFFFFFFFFFFFFFFFFFFFFFFFFFFFFFFFFFFFFFFFF AND PUSH20 0xFFFFFFFFFFFFFFFFFFFFFFFFFFFFFFFFFFFFFFFF AND PUSH4 0x7A1A29FB PUSH1 0x9 DUP4 PUSH1 0x1 DUP2 MLOAD DUP2 LT PUSH2 0x760 JUMPI PUSH2 0x75F PUSH2 0x2D3B JUMP JUMPDEST JUMPDEST PUSH1 0x20 MUL PUSH1 0x20 ADD ADD MLOAD DUP6 PUSH1 0x40 MLOAD DUP5 PUSH4 0xFFFFFFFF AND PUSH1 0xE0 SHL DUP2 MSTORE PUSH1 0x4 ADD PUSH2 0x787 SWAP4 SWAP3 SWAP2 SWAP1 PUSH2 0x2E3A JUMP JUMPDEST PUSH1 0x0 PUSH1 0x40 MLOAD DUP1 DUP4 SUB DUP2 PUSH1 0x0 DUP8 DUP1 EXTCODESIZE ISZERO DUP1 ISZERO PUSH2 0x7A1 JUMPI PUSH1 0x0 DUP1 REVERT JUMPDEST POP GAS CALL ISZERO DUP1 ISZERO PUSH2 0x7B5 JUMPI RETURNDATASIZE PUSH1 0x0 DUP1 RETURNDATACOPY RETURNDATASIZE PUSH1 0x0 REVERT JUMPDEST POP POP POP POP PUSH1 0x0 DUP1 SLOAD SWAP1 PUSH2 0x100 EXP SWAP1 DIV PUSH20 0xFFFFFFFFFFFFFFFFFFFFFFFFFFFFFFFFFFFFFFFF AND PUSH20 0xFFFFFFFFFFFFFFFFFFFFFFFFFFFFFFFFFFFFFFFF AND PUSH4 0x7A1A29FB PUSH1 0x9 DUP4 PUSH1 0x2 DUP2 MLOAD DUP2 LT PUSH2 0x80B JUMPI PUSH2 0x80A PUSH2 0x2D3B JUMP JUMPDEST JUMPDEST PUSH1 0x20 MUL PUSH1 0x20 ADD ADD MLOAD DUP6 PUSH1 0x40 MLOAD DUP5 PUSH4 0xFFFFFFFF AND PUSH1 0xE0 SHL DUP2 MSTORE PUSH1 0x4 ADD PUSH2 0x832 SWAP4 SWAP3 SWAP2 SWAP1 PUSH2 0x2E3A JUMP JUMPDEST PUSH1 0x0 PUSH1 0x40 MLOAD DUP1 DUP4 SUB DUP2 PUSH1 0x0 DUP8 DUP1 EXTCODESIZE ISZERO DUP1 ISZERO PUSH2 0x84C JUMPI PUSH1 0x0 DUP1 REVERT JUMPDEST POP GAS CALL ISZERO DUP1 ISZERO PUSH2 0x860 JUMPI RETURNDATASIZE PUSH1 0x0 DUP1 RETURNDATACOPY RETURNDATASIZE PUSH1 0x0 REVERT JUMPDEST POP POP POP POP PUSH1 0x0 DUP1 SLOAD SWAP1 PUSH2 0x100 EXP SWAP1 DIV PUSH20 0xFFFFFFFFFFFFFFFFFFFFFFFFFFFFFFFFFFFFFFFF AND PUSH20 0xFFFFFFFFFFFFFFFFFFFFFFFFFFFFFFFFFFFFFFFF AND PUSH4 0x7A1A29FB PUSH1 0x9 DUP4 PUSH1 0x3 DUP2 MLOAD DUP2 LT PUSH2 0x8B6 JUMPI PUSH2 0x8B5 PUSH2 0x2D3B JUMP JUMPDEST JUMPDEST PUSH1 0x20 MUL PUSH1 0x20 ADD ADD MLOAD DUP6 PUSH1 0x40 MLOAD DUP5 PUSH4 0xFFFFFFFF AND PUSH1 0xE0 SHL DUP2 MSTORE PUSH1 0x4 ADD PUSH2 0x8DD SWAP4 SWAP3 SWAP2 SWAP1 PUSH2 0x2E3A JUMP JUMPDEST PUSH1 0x0 PUSH1 0x40 MLOAD DUP1 DUP4 SUB DUP2 PUSH1 0x0 DUP8 DUP1 EXTCODESIZE ISZERO DUP1 ISZERO PUSH2 0x8F7 JUMPI PUSH1 0x0 DUP1 REVERT JUMPDEST POP GAS CALL ISZERO DUP1 ISZERO PUSH2 0x90B JUMPI RETURNDATASIZE PUSH1 0x0 DUP1 RETURNDATACOPY RETURNDATASIZE PUSH1 0x0 REVERT JUMPDEST POP POP POP POP PUSH1 0x0 DUP1 SLOAD SWAP1 PUSH2 0x100 EXP SWAP1 DIV PUSH20 0xFFFFFFFFFFFFFFFFFFFFFFFFFFFFFFFFFFFFFFFF AND PUSH20 0xFFFFFFFFFFFFFFFFFFFFFFFFFFFFFFFFFFFFFFFF AND PUSH4 0x7A1A29FB PUSH1 0x9 DUP4 PUSH1 0x4 DUP2 MLOAD DUP2 LT PUSH2 0x961 JUMPI PUSH2 0x960 PUSH2 0x2D3B JUMP JUMPDEST JUMPDEST PUSH1 0x20 MUL PUSH1 0x20 ADD ADD MLOAD DUP6 PUSH1 0x40 MLOAD DUP5 PUSH4 0xFFFFFFFF AND PUSH1 0xE0 SHL DUP2 MSTORE PUSH1 0x4 ADD PUSH2 0x988 SWAP4 SWAP3 SWAP2 SWAP1 PUSH2 0x2E3A JUMP JUMPDEST PUSH1 0x0 PUSH1 0x40 MLOAD DUP1 DUP4 SUB DUP2 PUSH1 0x0 DUP8 DUP1 EXTCODESIZE ISZERO DUP1 ISZERO PUSH2 0x9A2 JUMPI PUSH1 0x0 DUP1 REVERT JUMPDEST POP GAS CALL ISZERO DUP1 ISZERO PUSH2 0x9B6 JUMPI RETURNDATASIZE PUSH1 0x0 DUP1 RETURNDATACOPY RETURNDATASIZE PUSH1 0x0 REVERT JUMPDEST POP POP POP POP PUSH1 0x0 PUSH1 0x6 SLOAD PUSH1 0x4 SLOAD PUSH2 0x9CC SWAP2 SWAP1 PUSH2 0x2C7F JUMP JUMPDEST SWAP1 POP PUSH1 0x0 PUSH1 0x1 PUSH8 0xFFFFFFFFFFFFFFFF DUP2 GT ISZERO PUSH2 0x9EB JUMPI PUSH2 0x9EA PUSH2 0x22F7 JUMP JUMPDEST JUMPDEST PUSH1 0x40 MLOAD SWAP1 DUP1 DUP3 MSTORE DUP1 PUSH1 0x20 MUL PUSH1 0x20 ADD DUP3 ADD PUSH1 0x40 MSTORE DUP1 ISZERO PUSH2 0xA1E JUMPI DUP2 PUSH1 0x20 ADD JUMPDEST PUSH1 0x60 DUP2 MSTORE PUSH1 0x20 ADD SWAP1 PUSH1 0x1 SWAP1 SUB SWAP1 DUP2 PUSH2 0xA09 JUMPI SWAP1 POP JUMPDEST POP SWAP1 POP PUSH1 0x40 MLOAD DUP1 PUSH1 0x60 ADD PUSH1 0x40 MSTORE DUP1 PUSH1 0x32 DUP2 MSTORE PUSH1 0x20 ADD PUSH2 0x30F5 PUSH1 0x32 SWAP2 CODECOPY DUP2 PUSH1 0x0 DUP2 MLOAD DUP2 LT PUSH2 0xA4E JUMPI PUSH2 0xA4D PUSH2 0x2D3B JUMP JUMPDEST JUMPDEST PUSH1 0x20 MUL PUSH1 0x20 ADD ADD DUP2 SWAP1 MSTORE POP PUSH1 0x0 DUP1 SLOAD SWAP1 PUSH2 0x100 EXP SWAP1 DIV PUSH20 0xFFFFFFFFFFFFFFFFFFFFFFFFFFFFFFFFFFFFFFFF AND PUSH20 0xFFFFFFFFFFFFFFFFFFFFFFFFFFFFFFFFFFFFFFFF AND PUSH4 0x7A1A29FB PUSH1 0x9 DUP4 PUSH1 0x0 DUP2 MLOAD DUP2 LT PUSH2 0xAAB JUMPI PUSH2 0xAAA PUSH2 0x2D3B JUMP JUMPDEST JUMPDEST PUSH1 0x20 MUL PUSH1 0x20 ADD ADD MLOAD DUP6 PUSH1 0x40 MLOAD DUP5 PUSH4 0xFFFFFFFF AND PUSH1 0xE0 SHL DUP2 MSTORE PUSH1 0x4 ADD PUSH2 0xAD2 SWAP4 SWAP3 SWAP2 SWAP1 PUSH2 0x2E3A JUMP JUMPDEST PUSH1 0x0 PUSH1 0x40 MLOAD DUP1 DUP4 SUB DUP2 PUSH1 0x0 DUP8 DUP1 EXTCODESIZE ISZERO DUP1 ISZERO PUSH2 0xAEC JUMPI PUSH1 0x0 DUP1 REVERT JUMPDEST POP GAS CALL ISZERO DUP1 ISZERO PUSH2 0xB00 JUMPI RETURNDATASIZE PUSH1 0x0 DUP1 RETURNDATACOPY RETURNDATASIZE PUSH1 0x0 REVERT JUMPDEST POP POP POP POP PUSH1 0x0 PUSH1 0x2 SLOAD PUSH1 0x5 SLOAD PUSH1 0x4 SLOAD PUSH2 0xB19 SWAP2 SWAP1 PUSH2 0x2E92 JUMP JUMPDEST PUSH2 0xB23 SWAP2 SWAP1 PUSH2 0x2CC3 JUMP JUMPDEST SWAP1 POP PUSH1 0x0 PUSH1 0x3 PUSH8 0xFFFFFFFFFFFFFFFF DUP2 GT ISZERO PUSH2 0xB42 JUMPI PUSH2 0xB41 PUSH2 0x22F7 JUMP JUMPDEST JUMPDEST PUSH1 0x40 MLOAD SWAP1 DUP1 DUP3 MSTORE DUP1 PUSH1 0x20 MUL PUSH1 0x20 ADD DUP3 ADD PUSH1 0x40 MSTORE DUP1 ISZERO PUSH2 0xB75 JUMPI DUP2 PUSH1 0x20 ADD JUMPDEST PUSH1 0x60 DUP2 MSTORE PUSH1 0x20 ADD SWAP1 PUSH1 0x1 SWAP1 SUB SWAP1 DUP2 PUSH2 0xB60 JUMPI SWAP1 POP JUMPDEST POP SWAP1 POP PUSH1 0x40 MLOAD DUP1 PUSH1 0x60 ADD PUSH1 0x40 MSTORE DUP1 PUSH1 0x34 DUP2 MSTORE PUSH1 0x20 ADD PUSH2 0x3336 PUSH1 0x34 SWAP2 CODECOPY DUP2 PUSH1 0x0 DUP2 MLOAD DUP2 LT PUSH2 0xBA5 JUMPI PUSH2 0xBA4 PUSH2 0x2D3B JUMP JUMPDEST JUMPDEST PUSH1 0x20 MUL PUSH1 0x20 ADD ADD DUP2 SWAP1 MSTORE POP PUSH1 0x40 MLOAD DUP1 PUSH1 0x60 ADD PUSH1 0x40 MSTORE DUP1 PUSH1 0x37 DUP2 MSTORE PUSH1 0x20 ADD PUSH2 0x304C PUSH1 0x37 SWAP2 CODECOPY DUP2 PUSH1 0x1 DUP2 MLOAD DUP2 LT PUSH2 0xBDD JUMPI PUSH2 0xBDC PUSH2 0x2D3B JUMP JUMPDEST JUMPDEST PUSH1 0x20 MUL PUSH1 0x20 ADD ADD DUP2 SWAP1 MSTORE POP PUSH1 0x40 MLOAD DUP1 PUSH1 0x40 ADD PUSH1 0x40 MSTORE DUP1 PUSH1 0x20 DUP2 MSTORE PUSH1 0x20 ADD PUSH32 0x6C696162696C69746965732E746F74616C416D6F756E744661697256616C7565 DUP2 MSTORE POP DUP2 PUSH1 0x2 DUP2 MLOAD DUP2 LT PUSH2 0xC32 JUMPI PUSH2 0xC31 PUSH2 0x2D3B JUMP JUMPDEST JUMPDEST PUSH1 0x20 MUL PUSH1 0x20 ADD ADD DUP2 SWAP1 MSTORE POP PUSH1 0x0 DUP1 SLOAD SWAP1 PUSH2 0x100 EXP SWAP1 DIV PUSH20 0xFFFFFFFFFFFFFFFFFFFFFFFFFFFFFFFFFFFFFFFF AND PUSH20 0xFFFFFFFFFFFFFFFFFFFFFFFFFFFFFFFFFFFFFFFF AND PUSH4 0x7A1A29FB PUSH1 0x9 DUP4 PUSH1 0x0 DUP2 MLOAD DUP2 LT PUSH2 0xC8F JUMPI PUSH2 0xC8E PUSH2 0x2D3B JUMP JUMPDEST JUMPDEST PUSH1 0x20 MUL PUSH1 0x20 ADD ADD MLOAD DUP6 PUSH1 0x40 MLOAD DUP5 PUSH4 0xFFFFFFFF AND PUSH1 0xE0 SHL DUP2 MSTORE PUSH1 0x4 ADD PUSH2 0xCB6 SWAP4 SWAP3 SWAP2 SWAP1 PUSH2 0x2E3A JUMP JUMPDEST PUSH1 0x0 PUSH1 0x40 MLOAD DUP1 DUP4 SUB DUP2 PUSH1 0x0 DUP8 DUP1 EXTCODESIZE ISZERO DUP1 ISZERO PUSH2 0xCD0 JUMPI PUSH1 0x0 DUP1 REVERT JUMPDEST POP GAS CALL ISZERO DUP1 ISZERO PUSH2 0xCE4 JUMPI RETURNDATASIZE PUSH1 0x0 DUP1 RETURNDATACOPY RETURNDATASIZE PUSH1 0x0 REVERT JUMPDEST POP POP POP POP PUSH1 0x0 DUP1 SLOAD SWAP1 PUSH2 0x100 EXP SWAP1 DIV PUSH20 0xFFFFFFFFFFFFFFFFFFFFFFFFFFFFFFFFFFFFFFFF AND PUSH20 0xFFFFFFFFFFFFFFFFFFFFFFFFFFFFFFFFFFFFFFFF AND PUSH4 0x7A1A29FB PUSH1 0x9 DUP4 PUSH1 0x1 DUP2 MLOAD DUP2 LT PUSH2 0xD3A JUMPI PUSH2 0xD39 PUSH2 0x2D3B JUMP JUMPDEST JUMPDEST PUSH1 0x20 MUL PUSH1 0x20 ADD ADD MLOAD DUP6 PUSH1 0x40 MLOAD DUP5 PUSH4 0xFFFFFFFF AND PUSH1 0xE0 SHL DUP2 MSTORE PUSH1 0x4 ADD PUSH2 0xD61 SWAP4 SWAP3 SWAP2 SWAP1 PUSH2 0x2E3A JUMP JUMPDEST PUSH1 0x0 PUSH1 0x40 MLOAD DUP1 DUP4 SUB DUP2 PUSH1 0x0 DUP8 DUP1 EXTCODESIZE ISZERO DUP1 ISZERO PUSH2 0xD7B JUMPI PUSH1 0x0 DUP1 REVERT JUMPDEST POP GAS CALL ISZERO DUP1 ISZERO PUSH2 0xD8F JUMPI RETURNDATASIZE PUSH1 0x0 DUP1 RETURNDATACOPY RETURNDATASIZE PUSH1 0x0 REVERT JUMPDEST POP POP POP POP PUSH1 0x0 DUP1 SLOAD SWAP1 PUSH2 0x100 EXP SWAP1 DIV PUSH20 0xFFFFFFFFFFFFFFFFFFFFFFFFFFFFFFFFFFFFFFFF AND PUSH20 0xFFFFFFFFFFFFFFFFFFFFFFFFFFFFFFFFFFFFFFFF AND PUSH4 0x7A1A29FB PUSH1 0x9 DUP4 PUSH1 0x2 DUP2 MLOAD DUP2 LT PUSH2 0xDE5 JUMPI PUSH2 0xDE4 PUSH2 0x2D3B JUMP JUMPDEST JUMPDEST PUSH1 0x20 MUL PUSH1 0x20 ADD ADD MLOAD DUP6 PUSH1 0x40 MLOAD DUP5 PUSH4 0xFFFFFFFF AND PUSH1 0xE0 SHL DUP2 MSTORE PUSH1 0x4 ADD PUSH2 0xE0C SWAP4 SWAP3 SWAP2 SWAP1 PUSH2 0x2E3A JUMP JUMPDEST PUSH1 0x0 PUSH1 0x40 MLOAD DUP1 DUP4 SUB DUP2 PUSH1 0x0 DUP8 DUP1 EXTCODESIZE ISZERO DUP1 ISZERO PUSH2 0xE26 JUMPI PUSH1 0x0 DUP1 REVERT JUMPDEST POP GAS CALL ISZERO DUP1 ISZERO PUSH2 0xE3A JUMPI RETURNDATASIZE PUSH1 0x0 DUP1 RETURNDATACOPY RETURNDATASIZE PUSH1 0x0 REVERT JUMPDEST POP POP POP POP PUSH1 0x0 PUSH1 0x2 SLOAD PUSH1 0x6 SLOAD PUSH1 0x5 SLOAD PUSH2 0xE53 SWAP2 SWAP1 PUSH2 0x2C7F JUMP JUMPDEST PUSH2 0xE5D SWAP2 SWAP1 PUSH2 0x2CC3 JUMP JUMPDEST SWAP1 POP PUSH1 0x0 PUSH1 0x3 PUSH8 0xFFFFFFFFFFFFFFFF DUP2 GT ISZERO PUSH2 0xE7C JUMPI PUSH2 0xE7B PUSH2 0x22F7 JUMP JUMPDEST JUMPDEST PUSH1 0x40 MLOAD SWAP1 DUP1 DUP3 MSTORE DUP1 PUSH1 0x20 MUL PUSH1 0x20 ADD DUP3 ADD PUSH1 0x40 MSTORE DUP1 ISZERO PUSH2 0xEAF JUMPI DUP2 PUSH1 0x20 ADD JUMPDEST PUSH1 0x60 DUP2 MSTORE PUSH1 0x20 ADD SWAP1 PUSH1 0x1 SWAP1 SUB SWAP1 DUP2 PUSH2 0xE9A JUMPI SWAP1 POP JUMPDEST POP SWAP1 POP PUSH1 0x40 MLOAD DUP1 PUSH1 0x60 ADD PUSH1 0x40 MSTORE DUP1 PUSH1 0x34 DUP2 MSTORE PUSH1 0x20 ADD PUSH2 0x341D PUSH1 0x34 SWAP2 CODECOPY DUP2 PUSH1 0x0 DUP2 MLOAD DUP2 LT PUSH2 0xEDF JUMPI PUSH2 0xEDE PUSH2 0x2D3B JUMP JUMPDEST JUMPDEST PUSH1 0x20 MUL PUSH1 0x20 ADD ADD DUP2 SWAP1 MSTORE POP PUSH1 0x40 MLOAD DUP1 PUSH1 0x60 ADD PUSH1 0x40 MSTORE DUP1 PUSH1 0x37 DUP2 MSTORE PUSH1 0x20 ADD PUSH2 0x32D2 PUSH1 0x37 SWAP2 CODECOPY DUP2 PUSH1 0x1 DUP2 MLOAD DUP2 LT PUSH2 0xF17 JUMPI PUSH2 0xF16 PUSH2 0x2D3B JUMP JUMPDEST JUMPDEST PUSH1 0x20 MUL PUSH1 0x20 ADD ADD DUP2 SWAP1 MSTORE POP PUSH1 0x40 MLOAD DUP1 PUSH1 0x40 ADD PUSH1 0x40 MSTORE DUP1 PUSH1 0x1B DUP2 MSTORE PUSH1 0x20 ADD PUSH32 0x6571756974792E746F74616C416D6F756E744661697256616C75650000000000 DUP2 MSTORE POP DUP2 PUSH1 0x2 DUP2 MLOAD DUP2 LT PUSH2 0xF6C JUMPI PUSH2 0xF6B PUSH2 0x2D3B JUMP JUMPDEST JUMPDEST PUSH1 0x20 MUL PUSH1 0x20 ADD ADD DUP2 SWAP1 MSTORE POP PUSH1 0x0 DUP1 SLOAD SWAP1 PUSH2 0x100 EXP SWAP1 DIV PUSH20 0xFFFFFFFFFFFFFFFFFFFFFFFFFFFFFFFFFFFFFFFF AND PUSH20 0xFFFFFFFFFFFFFFFFFFFFFFFFFFFFFFFFFFFFFFFF AND PUSH4 0x7A1A29FB PUSH1 0x9 DUP4 PUSH1 0x0 DUP2 MLOAD DUP2 LT PUSH2 0xFC9 JUMPI PUSH2 0xFC8 PUSH2 0x2D3B JUMP JUMPDEST JUMPDEST PUSH1 0x20 MUL PUSH1 0x20 ADD ADD MLOAD DUP6 PUSH1 0x40 MLOAD DUP5 PUSH4 0xFFFFFFFF AND PUSH1 0xE0 SHL DUP2 MSTORE PUSH1 0x4 ADD PUSH2 0xFF0 SWAP4 SWAP3 SWAP2 SWAP1 PUSH2 0x2E3A JUMP JUMPDEST PUSH1 0x0 PUSH1 0x40 MLOAD DUP1 DUP4 SUB DUP2 PUSH1 0x0 DUP8 DUP1 EXTCODESIZE ISZERO DUP1 ISZERO PUSH2 0x100A JUMPI PUSH1 0x0 DUP1 REVERT JUMPDEST POP GAS CALL ISZERO DUP1 ISZERO PUSH2 0x101E JUMPI RETURNDATASIZE PUSH1 0x0 DUP1 RETURNDATACOPY RETURNDATASIZE PUSH1 0x0 REVERT JUMPDEST POP POP POP POP PUSH1 0x0 DUP1 SLOAD SWAP1 PUSH2 0x100 EXP SWAP1 DIV PUSH20 0xFFFFFFFFFFFFFFFFFFFFFFFFFFFFFFFFFFFFFFFF AND PUSH20 0xFFFFFFFFFFFFFFFFFFFFFFFFFFFFFFFFFFFFFFFF AND PUSH4 0x7A1A29FB PUSH1 0x9 DUP4 PUSH1 0x1 DUP2 MLOAD DUP2 LT PUSH2 0x1074 JUMPI PUSH2 0x1073 PUSH2 0x2D3B JUMP JUMPDEST JUMPDEST PUSH1 0x20 MUL PUSH1 0x20 ADD ADD MLOAD DUP6 PUSH1 0x40 MLOAD DUP5 PUSH4 0xFFFFFFFF AND PUSH1 0xE0 SHL DUP2 MSTORE PUSH1 0x4 ADD PUSH2 0x109B SWAP4 SWAP3 SWAP2 SWAP1 PUSH2 0x2E3A JUMP JUMPDEST PUSH1 0x0 PUSH1 0x40 MLOAD DUP1 DUP4 SUB DUP2 PUSH1 0x0 DUP8 DUP1 EXTCODESIZE ISZERO DUP1 ISZERO PUSH2 0x10B5 JUMPI PUSH1 0x0 DUP1 REVERT JUMPDEST POP GAS CALL ISZERO DUP1 ISZERO PUSH2 0x10C9 JUMPI RETURNDATASIZE PUSH1 0x0 DUP1 RETURNDATACOPY RETURNDATASIZE PUSH1 0x0 REVERT JUMPDEST POP POP POP POP PUSH1 0x0 DUP1 SLOAD SWAP1 PUSH2 0x100 EXP SWAP1 DIV PUSH20 0xFFFFFFFFFFFFFFFFFFFFFFFFFFFFFFFFFFFFFFFF AND PUSH20 0xFFFFFFFFFFFFFFFFFFFFFFFFFFFFFFFFFFFFFFFF AND PUSH4 0x7A1A29FB PUSH1 0x9 DUP4 PUSH1 0x2 DUP2 MLOAD DUP2 LT PUSH2 0x111F JUMPI PUSH2 0x111E PUSH2 0x2D3B JUMP JUMPDEST JUMPDEST PUSH1 0x20 MUL PUSH1 0x20 ADD ADD MLOAD DUP6 PUSH1 0x40 MLOAD DUP5 PUSH4 0xFFFFFFFF AND PUSH1 0xE0 SHL DUP2 MSTORE PUSH1 0x4 ADD PUSH2 0x1146 SWAP4 SWAP3 SWAP2 SWAP1 PUSH2 0x2E3A JUMP JUMPDEST PUSH1 0x0 PUSH1 0x40 MLOAD DUP1 DUP4 SUB DUP2 PUSH1 0x0 DUP8 DUP1 EXTCODESIZE ISZERO DUP1 ISZERO PUSH2 0x1160 JUMPI PUSH1 0x0 DUP1 REVERT JUMPDEST POP GAS CALL ISZERO DUP1 ISZERO PUSH2 0x1174 JUMPI RETURNDATASIZE PUSH1 0x0 DUP1 RETURNDATACOPY RETURNDATASIZE PUSH1 0x0 REVERT JUMPDEST POP POP POP POP PUSH1 0x0 PUSH1 0x6 SLOAD PUSH1 0x5 SLOAD PUSH2 0x118A SWAP2 SWAP1 PUSH2 0x2C7F JUMP JUMPDEST SWAP1 POP PUSH1 0x0 PUSH1 0x1 PUSH8 0xFFFFFFFFFFFFFFFF DUP2 GT ISZERO PUSH2 0x11A9 JUMPI PUSH2 0x11A8 PUSH2 0x22F7 JUMP JUMPDEST JUMPDEST PUSH1 0x40 MLOAD SWAP1 DUP1 DUP3 MSTORE DUP1 PUSH1 0x20 MUL PUSH1 0x20 ADD DUP3 ADD PUSH1 0x40 MSTORE DUP1 ISZERO PUSH2 0x11DC JUMPI DUP2 PUSH1 0x20 ADD JUMPDEST PUSH1 0x60 DUP2 MSTORE PUSH1 0x20 ADD SWAP1 PUSH1 0x1 SWAP1 SUB SWAP1 DUP2 PUSH2 0x11C7 JUMPI SWAP1 POP JUMPDEST POP SWAP1 POP PUSH1 0x40 MLOAD DUP1 PUSH1 0x60 ADD PUSH1 0x40 MSTORE DUP1 PUSH1 0x34 DUP2 MSTORE PUSH1 0x20 ADD PUSH2 0x33E9 PUSH1 0x34 SWAP2 CODECOPY DUP2 PUSH1 0x0 DUP2 MLOAD DUP2 LT PUSH2 0x120C JUMPI PUSH2 0x120B PUSH2 0x2D3B JUMP JUMPDEST JUMPDEST PUSH1 0x20 MUL PUSH1 0x20 ADD ADD DUP2 SWAP1 MSTORE POP PUSH1 0x0 DUP1 SLOAD SWAP1 PUSH2 0x100 EXP SWAP1 DIV PUSH20 0xFFFFFFFFFFFFFFFFFFFFFFFFFFFFFFFFFFFFFFFF AND PUSH20 0xFFFFFFFFFFFFFFFFFFFFFFFFFFFFFFFFFFFFFFFF AND PUSH4 0x7A1A29FB PUSH1 0x9 DUP4 PUSH1 0x0 DUP2 MLOAD DUP2 LT PUSH2 0x1269 JUMPI PUSH2 0x1268 PUSH2 0x2D3B JUMP JUMPDEST JUMPDEST PUSH1 0x20 MUL PUSH1 0x20 ADD ADD MLOAD DUP6 PUSH1 0x40 MLOAD DUP5 PUSH4 0xFFFFFFFF AND PUSH1 0xE0 SHL DUP2 MSTORE PUSH1 0x4 ADD PUSH2 0x1290 SWAP4 SWAP3 SWAP2 SWAP1 PUSH2 0x2E3A JUMP JUMPDEST PUSH1 0x0 PUSH1 0x40 MLOAD DUP1 DUP4 SUB DUP2 PUSH1 0x0 DUP8 DUP1 EXTCODESIZE ISZERO DUP1 ISZERO PUSH2 0x12AA JUMPI PUSH1 0x0 DUP1 REVERT JUMPDEST POP GAS CALL ISZERO DUP1 ISZERO PUSH2 0x12BE JUMPI RETURNDATASIZE PUSH1 0x0 DUP1 RETURNDATACOPY RETURNDATASIZE PUSH1 0x0 REVERT JUMPDEST POP POP POP POP PUSH1 0x0 PUSH1 0x5 SLOAD PUSH1 0x4 SLOAD PUSH2 0x12D4 SWAP2 SWAP1 PUSH2 0x2E92 JUMP JUMPDEST SWAP1 POP PUSH1 0x0 PUSH1 0x1 PUSH8 0xFFFFFFFFFFFFFFFF DUP2 GT ISZERO PUSH2 0x12F3 JUMPI PUSH2 0x12F2 PUSH2 0x22F7 JUMP JUMPDEST JUMPDEST PUSH1 0x40 MLOAD SWAP1 DUP1 DUP3 MSTORE DUP1 PUSH1 0x20 MUL PUSH1 0x20 ADD DUP3 ADD PUSH1 0x40 MSTORE DUP1 ISZERO PUSH2 0x1326 JUMPI DUP2 PUSH1 0x20 ADD JUMPDEST PUSH1 0x60 DUP2 MSTORE PUSH1 0x20 ADD SWAP1 PUSH1 0x1 SWAP1 SUB SWAP1 DUP2 PUSH2 0x1311 JUMPI SWAP1 POP JUMPDEST POP SWAP1 POP PUSH1 0x40 MLOAD DUP1 PUSH1 0x60 ADD PUSH1 0x40 MSTORE DUP1 PUSH1 0x34 DUP2 MSTORE PUSH1 0x20 ADD PUSH2 0x34E2 PUSH1 0x34 SWAP2 CODECOPY DUP2 PUSH1 0x0 DUP2 MLOAD DUP2 LT PUSH2 0x1356 JUMPI PUSH2 0x1355 PUSH2 0x2D3B JUMP JUMPDEST JUMPDEST PUSH1 0x20 MUL PUSH1 0x20 ADD ADD DUP2 SWAP1 MSTORE POP PUSH1 0x0 DUP1 SLOAD SWAP1 PUSH2 0x100 EXP SWAP1 DIV PUSH20 0xFFFFFFFFFFFFFFFFFFFFFFFFFFFFFFFFFFFFFFFF AND PUSH20 0xFFFFFFFFFFFFFFFFFFFFFFFFFFFFFFFFFFFFFFFF AND PUSH4 0x7A1A29FB PUSH1 0x9 DUP4 PUSH1 0x0 DUP2 MLOAD DUP2 LT PUSH2 0x13B3 JUMPI PUSH2 0x13B2 PUSH2 0x2D3B JUMP JUMPDEST JUMPDEST PUSH1 0x20 MUL PUSH1 0x20 ADD ADD MLOAD DUP6 PUSH1 0x40 MLOAD DUP5 PUSH4 0xFFFFFFFF AND PUSH1 0xE0 SHL DUP2 MSTORE PUSH1 0x4 ADD PUSH2 0x13DA SWAP4 SWAP3 SWAP2 SWAP1 PUSH2 0x2E3A JUMP JUMPDEST PUSH1 0x0 PUSH1 0x40 MLOAD DUP1 DUP4 SUB DUP2 PUSH1 0x0 DUP8 DUP1 EXTCODESIZE ISZERO DUP1 ISZERO PUSH2 0x13F4 JUMPI PUSH1 0x0 DUP1 REVERT JUMPDEST POP GAS CALL ISZERO DUP1 ISZERO PUSH2 0x1408 JUMPI RETURNDATASIZE PUSH1 0x0 DUP1 RETURNDATACOPY RETURNDATASIZE PUSH1 0x0 REVERT JUMPDEST POP POP POP POP POP POP POP POP POP POP POP POP POP POP POP POP JUMP JUMPDEST PUSH1 0x0 PUSH1 0x7 SLOAD PUSH1 0x6 SLOAD PUSH1 0x5 SLOAD PUSH2 0x142F SWAP2 SWAP1 PUSH2 0x2C7F JUMP JUMPDEST PUSH2 0x1439 SWAP2 SWAP1 PUSH2 0x2CC3 JUMP JUMPDEST SWAP1 POP PUSH1 0x0 PUSH1 0x3 PUSH8 0xFFFFFFFFFFFFFFFF DUP2 GT ISZERO PUSH2 0x1458 JUMPI PUSH2 0x1457 PUSH2 0x22F7 JUMP JUMPDEST JUMPDEST PUSH1 0x40 MLOAD SWAP1 DUP1 DUP3 MSTORE DUP1 PUSH1 0x20 MUL PUSH1 0x20 ADD DUP3 ADD PUSH1 0x40 MSTORE DUP1 ISZERO PUSH2 0x148B JUMPI DUP2 PUSH1 0x20 ADD JUMPDEST PUSH1 0x60 DUP2 MSTORE PUSH1 0x20 ADD SWAP1 PUSH1 0x1 SWAP1 SUB SWAP1 DUP2 PUSH2 0x1476 JUMPI SWAP1 POP JUMPDEST POP SWAP1 POP PUSH1 0x40 MLOAD DUP1 PUSH1 0x60 ADD PUSH1 0x40 MSTORE DUP1 PUSH1 0x2D DUP2 MSTORE PUSH1 0x20 ADD PUSH2 0x3309 PUSH1 0x2D SWAP2 CODECOPY DUP2 PUSH1 0x0 DUP2 MLOAD DUP2 LT PUSH2 0x14BB JUMPI PUSH2 0x14BA PUSH2 0x2D3B JUMP JUMPDEST JUMPDEST PUSH1 0x20 MUL PUSH1 0x20 ADD ADD DUP2 SWAP1 MSTORE POP PUSH1 0x40 MLOAD DUP1 PUSH1 0x60 ADD PUSH1 0x40 MSTORE DUP1 PUSH1 0x3B DUP2 MSTORE PUSH1 0x20 ADD PUSH2 0x3231 PUSH1 0x3B SWAP2 CODECOPY DUP2 PUSH1 0x1 DUP2 MLOAD DUP2 LT PUSH2 0x14F3 JUMPI PUSH2 0x14F2 PUSH2 0x2D3B JUMP JUMPDEST JUMPDEST PUSH1 0x20 MUL PUSH1 0x20 ADD ADD DUP2 SWAP1 MSTORE POP PUSH1 0x40 MLOAD DUP1 PUSH1 0x40 ADD PUSH1 0x40 MSTORE DUP1 PUSH1 0x9 DUP2 MSTORE PUSH1 0x20 ADD PUSH32 0x6E657450726F6669740000000000000000000000000000000000000000000000 DUP2 MSTORE POP DUP2 PUSH1 0x2 DUP2 MLOAD DUP2 LT PUSH2 0x1548 JUMPI PUSH2 0x1547 PUSH2 0x2D3B JUMP JUMPDEST JUMPDEST PUSH1 0x20 MUL PUSH1 0x20 ADD ADD DUP2 SWAP1 MSTORE POP PUSH1 0x0 DUP1 SLOAD SWAP1 PUSH2 0x100 EXP SWAP1 DIV PUSH20 0xFFFFFFFFFFFFFFFFFFFFFFFFFFFFFFFFFFFFFFFF AND PUSH20 0xFFFFFFFFFFFFFFFFFFFFFFFFFFFFFFFFFFFFFFFF AND PUSH4 0x7A1A29FB PUSH1 0x9 DUP4 PUSH1 0x0 DUP2 MLOAD DUP2 LT PUSH2 0x15A5 JUMPI PUSH2 0x15A4 PUSH2 0x2D3B JUMP JUMPDEST JUMPDEST PUSH1 0x20 MUL PUSH1 0x20 ADD ADD MLOAD DUP6 PUSH1 0x40 MLOAD DUP5 PUSH4 0xFFFFFFFF AND PUSH1 0xE0 SHL DUP2 MSTORE PUSH1 0x4 ADD PUSH2 0x15CC SWAP4 SWAP3 SWAP2 SWAP1 PUSH2 0x2F21 JUMP JUMPDEST PUSH1 0x0 PUSH1 0x40 MLOAD DUP1 DUP4 SUB DUP2 PUSH1 0x0 DUP8 DUP1 EXTCODESIZE ISZERO DUP1 ISZERO PUSH2 0x15E6 JUMPI PUSH1 0x0 DUP1 REVERT JUMPDEST POP GAS CALL ISZERO DUP1 ISZERO PUSH2 0x15FA JUMPI RETURNDATASIZE PUSH1 0x0 DUP1 RETURNDATACOPY RETURNDATASIZE PUSH1 0x0 REVERT JUMPDEST POP POP POP POP PUSH1 0x0 DUP1 SLOAD SWAP1 PUSH2 0x100 EXP SWAP1 DIV PUSH20 0xFFFFFFFFFFFFFFFFFFFFFFFFFFFFFFFFFFFFFFFF AND PUSH20 0xFFFFFFFFFFFFFFFFFFFFFFFFFFFFFFFFFFFFFFFF AND PUSH4 0x7A1A29FB PUSH1 0x9 DUP4 PUSH1 0x1 DUP2 MLOAD DUP2 LT PUSH2 0x1650 JUMPI PUSH2 0x164F PUSH2 0x2D3B JUMP JUMPDEST JUMPDEST PUSH1 0x20 MUL PUSH1 0x20 ADD ADD MLOAD DUP6 PUSH1 0x40 MLOAD DUP5 PUSH4 0xFFFFFFFF AND PUSH1 0xE0 SHL DUP2 MSTORE PUSH1 0x4 ADD PUSH2 0x1677 SWAP4 SWAP3 SWAP2 SWAP1 PUSH2 0x2F21 JUMP JUMPDEST PUSH1 0x0 PUSH1 0x40 MLOAD DUP1 DUP4 SUB DUP2 PUSH1 0x0 DUP8 DUP1 EXTCODESIZE ISZERO DUP1 ISZERO PUSH2 0x1691 JUMPI PUSH1 0x0 DUP1 REVERT JUMPDEST POP GAS CALL ISZERO DUP1 ISZERO PUSH2 0x16A5 JUMPI RETURNDATASIZE PUSH1 0x0 DUP1 RETURNDATACOPY RETURNDATASIZE PUSH1 0x0 REVERT JUMPDEST POP POP POP POP PUSH1 0x0 DUP1 SLOAD SWAP1 PUSH2 0x100 EXP SWAP1 DIV PUSH20 0xFFFFFFFFFFFFFFFFFFFFFFFFFFFFFFFFFFFFFFFF AND PUSH20 0xFFFFFFFFFFFFFFFFFFFFFFFFFFFFFFFFFFFFFFFF AND PUSH4 0x7A1A29FB PUSH1 0x9 DUP4 PUSH1 0x2 DUP2 MLOAD DUP2 LT PUSH2 0x16FB JUMPI PUSH2 0x16FA PUSH2 0x2D3B JUMP JUMPDEST JUMPDEST PUSH1 0x20 MUL PUSH1 0x20 ADD ADD MLOAD DUP6 PUSH1 0x40 MLOAD DUP5 PUSH4 0xFFFFFFFF AND PUSH1 0xE0 SHL DUP2 MSTORE PUSH1 0x4 ADD PUSH2 0x1722 SWAP4 SWAP3 SWAP2 SWAP1 PUSH2 0x2F21 JUMP JUMPDEST PUSH1 0x0 PUSH1 0x40 MLOAD DUP1 DUP4 SUB DUP2 PUSH1 0x0 DUP8 DUP1 EXTCODESIZE ISZERO DUP1 ISZERO PUSH2 0x173C JUMPI PUSH1 0x0 DUP1 REVERT JUMPDEST POP GAS CALL ISZERO DUP1 ISZERO PUSH2 0x1750 JUMPI RETURNDATASIZE PUSH1 0x0 DUP1 RETURNDATACOPY RETURNDATASIZE PUSH1 0x0 REVERT JUMPDEST POP POP POP POP PUSH1 0x0 PUSH1 0x6 SLOAD PUSH1 0x5 SLOAD PUSH2 0x1766 SWAP2 SWAP1 PUSH2 0x2C7F JUMP JUMPDEST SWAP1 POP PUSH1 0x0 PUSH1 0x1 PUSH8 0xFFFFFFFFFFFFFFFF DUP2 GT ISZERO PUSH2 0x1785 JUMPI PUSH2 0x1784 PUSH2 0x22F7 JUMP JUMPDEST JUMPDEST PUSH1 0x40 MLOAD SWAP1 DUP1 DUP3 MSTORE DUP1 PUSH1 0x20 MUL PUSH1 0x20 ADD DUP3 ADD PUSH1 0x40 MSTORE DUP1 ISZERO PUSH2 0x17B8 JUMPI DUP2 PUSH1 0x20 ADD JUMPDEST PUSH1 0x60 DUP2 MSTORE PUSH1 0x20 ADD SWAP1 PUSH1 0x1 SWAP1 SUB SWAP1 DUP2 PUSH2 0x17A3 JUMPI SWAP1 POP JUMPDEST POP SWAP1 POP PUSH1 0x40 MLOAD DUP1 PUSH1 0x60 ADD PUSH1 0x40 MSTORE DUP1 PUSH1 0x2E DUP2 MSTORE PUSH1 0x20 ADD PUSH2 0x301E PUSH1 0x2E SWAP2 CODECOPY DUP2 PUSH1 0x0 DUP2 MLOAD DUP2 LT PUSH2 0x17E8 JUMPI PUSH2 0x17E7 PUSH2 0x2D3B JUMP JUMPDEST JUMPDEST PUSH1 0x20 MUL PUSH1 0x20 ADD ADD DUP2 SWAP1 MSTORE POP PUSH1 0x0 DUP1 SLOAD SWAP1 PUSH2 0x100 EXP SWAP1 DIV PUSH20 0xFFFFFFFFFFFFFFFFFFFFFFFFFFFFFFFFFFFFFFFF AND PUSH20 0xFFFFFFFFFFFFFFFFFFFFFFFFFFFFFFFFFFFFFFFF AND PUSH4 0x7A1A29FB PUSH1 0x9 DUP4 PUSH1 0x0 DUP2 MLOAD DUP2 LT PUSH2 0x1845 JUMPI PUSH2 0x1844 PUSH2 0x2D3B JUMP JUMPDEST JUMPDEST PUSH1 0x20 MUL PUSH1 0x20 ADD ADD MLOAD DUP6 PUSH1 0x40 MLOAD DUP5 PUSH4 0xFFFFFFFF AND PUSH1 0xE0 SHL DUP2 MSTORE PUSH1 0x4 ADD PUSH2 0x186C SWAP4 SWAP3 SWAP2 SWAP1 PUSH2 0x2F21 JUMP JUMPDEST PUSH1 0x0 PUSH1 0x40 MLOAD DUP1 DUP4 SUB DUP2 PUSH1 0x0 DUP8 DUP1 EXTCODESIZE ISZERO DUP1 ISZERO PUSH2 0x1886 JUMPI PUSH1 0x0 DUP1 REVERT JUMPDEST POP GAS CALL ISZERO DUP1 ISZERO PUSH2 0x189A JUMPI RETURNDATASIZE PUSH1 0x0 DUP1 RETURNDATACOPY RETURNDATASIZE PUSH1 0x0 REVERT JUMPDEST POP POP POP POP POP POP POP POP JUMP JUMPDEST PUSH1 0x0 PUSH1 0x7 SLOAD PUSH1 0x5 SLOAD PUSH1 0x4 SLOAD PUSH2 0x18B9 SWAP2 SWAP1 PUSH2 0x2E92 JUMP JUMPDEST PUSH2 0x18C3 SWAP2 SWAP1 PUSH2 0x2CC3 JUMP JUMPDEST SWAP1 POP PUSH1 0x0 PUSH1 0x2 PUSH8 0xFFFFFFFFFFFFFFFF DUP2 GT ISZERO PUSH2 0x18E2 JUMPI PUSH2 0x18E1 PUSH2 0x22F7 JUMP JUMPDEST JUMPDEST PUSH1 0x40 MLOAD SWAP1 DUP1 DUP3 MSTORE DUP1 PUSH1 0x20 MUL PUSH1 0x20 ADD DUP3 ADD PUSH1 0x40 MSTORE DUP1 ISZERO PUSH2 0x1915 JUMPI DUP2 PUSH1 0x20 ADD JUMPDEST PUSH1 0x60 DUP2 MSTORE PUSH1 0x20 ADD SWAP1 PUSH1 0x1 SWAP1 SUB SWAP1 DUP2 PUSH2 0x1900 JUMPI SWAP1 POP JUMPDEST POP SWAP1 POP PUSH1 0x40 MLOAD DUP1 PUSH1 0xA0 ADD PUSH1 0x40 MSTORE DUP1 PUSH1 0x71 DUP2 MSTORE PUSH1 0x20 ADD PUSH2 0x35CE PUSH1 0x71 SWAP2 CODECOPY DUP2 PUSH1 0x0 DUP2 MLOAD DUP2 LT PUSH2 0x1945 JUMPI PUSH2 0x1944 PUSH2 0x2D3B JUMP JUMPDEST JUMPDEST PUSH1 0x20 MUL PUSH1 0x20 ADD ADD DUP2 SWAP1 MSTORE POP PUSH1 0x40 MLOAD DUP1 PUSH1 0xA0 ADD PUSH1 0x40 MSTORE DUP1 PUSH1 0x7F DUP2 MSTORE PUSH1 0x20 ADD PUSH2 0x336A PUSH1 0x7F SWAP2 CODECOPY DUP2 PUSH1 0x1 DUP2 MLOAD DUP2 LT PUSH2 0x197D JUMPI PUSH2 0x197C PUSH2 0x2D3B JUMP JUMPDEST JUMPDEST PUSH1 0x20 MUL PUSH1 0x20 ADD ADD DUP2 SWAP1 MSTORE POP PUSH1 0x0 DUP1 SLOAD SWAP1 PUSH2 0x100 EXP SWAP1 DIV PUSH20 0xFFFFFFFFFFFFFFFFFFFFFFFFFFFFFFFFFFFFFFFF AND PUSH20 0xFFFFFFFFFFFFFFFFFFFFFFFFFFFFFFFFFFFFFFFF AND PUSH4 0x7A1A29FB PUSH1 0x9 DUP4 PUSH1 0x0 DUP2 MLOAD DUP2 LT PUSH2 0x19DA JUMPI PUSH2 0x19D9 PUSH2 0x2D3B JUMP JUMPDEST JUMPDEST PUSH1 0x20 MUL PUSH1 0x20 ADD ADD MLOAD DUP6 PUSH1 0x40 MLOAD DUP5 PUSH4 0xFFFFFFFF AND PUSH1 0xE0 SHL DUP2 MSTORE PUSH1 0x4 ADD PUSH2 0x1A01 SWAP4 SWAP3 SWAP2 SWAP1 PUSH2 0x2FC5 JUMP JUMPDEST PUSH1 0x0 PUSH1 0x40 MLOAD DUP1 DUP4 SUB DUP2 PUSH1 0x0 DUP8 DUP1 EXTCODESIZE ISZERO DUP1 ISZERO PUSH2 0x1A1B JUMPI PUSH1 0x0 DUP1 REVERT JUMPDEST POP GAS CALL ISZERO DUP1 ISZERO PUSH2 0x1A2F JUMPI RETURNDATASIZE PUSH1 0x0 DUP1 RETURNDATACOPY RETURNDATASIZE PUSH1 0x0 REVERT JUMPDEST POP POP POP POP PUSH1 0x0 DUP1 SLOAD SWAP1 PUSH2 0x100 EXP SWAP1 DIV PUSH20 0xFFFFFFFFFFFFFFFFFFFFFFFFFFFFFFFFFFFFFFFF AND PUSH20 0xFFFFFFFFFFFFFFFFFFFFFFFFFFFFFFFFFFFFFFFF AND PUSH4 0x7A1A29FB PUSH1 0x9 DUP4 PUSH1 0x1 DUP2 MLOAD DUP2 LT PUSH2 0x1A85 JUMPI PUSH2 0x1A84 PUSH2 0x2D3B JUMP JUMPDEST JUMPDEST PUSH1 0x20 MUL PUSH1 0x20 ADD ADD MLOAD DUP6 PUSH1 0x40 MLOAD DUP5 PUSH4 0xFFFFFFFF AND PUSH1 0xE0 SHL DUP2 MSTORE PUSH1 0x4 ADD PUSH2 0x1AAC SWAP4 SWAP3 SWAP2 SWAP1 PUSH2 0x2FC5 JUMP JUMPDEST PUSH1 0x0 PUSH1 0x40 MLOAD DUP1 DUP4 SUB DUP2 PUSH1 0x0 DUP8 DUP1 EXTCODESIZE ISZERO DUP1 ISZERO PUSH2 0x1AC6 JUMPI PUSH1 0x0 DUP1 REVERT JUMPDEST POP GAS CALL ISZERO DUP1 ISZERO PUSH2 0x1ADA JUMPI RETURNDATASIZE PUSH1 0x0 DUP1 RETURNDATACOPY RETURNDATASIZE PUSH1 0x0 REVERT JUMPDEST POP POP POP POP PUSH1 0x0 PUSH1 0x5 SLOAD PUSH1 0x4 SLOAD PUSH2 0x1AF0 SWAP2 SWAP1 PUSH2 0x2E92 JUMP JUMPDEST SWAP1 POP PUSH1 0x0 PUSH1 0x1 PUSH8 0xFFFFFFFFFFFFFFFF DUP2 GT ISZERO PUSH2 0x1B0F JUMPI PUSH2 0x1B0E PUSH2 0x22F7 JUMP JUMPDEST JUMPDEST PUSH1 0x40 MLOAD SWAP1 DUP1 DUP3 MSTORE DUP1 PUSH1 0x20 MUL PUSH1 0x20 ADD DUP3 ADD PUSH1 0x40 MSTORE DUP1 ISZERO PUSH2 0x1B42 JUMPI DUP2 PUSH1 0x20 ADD JUMPDEST PUSH1 0x60 DUP2 MSTORE PUSH1 0x20 ADD SWAP1 PUSH1 0x1 SWAP1 SUB SWAP1 DUP2 PUSH2 0x1B2D JUMPI SWAP1 POP JUMPDEST POP SWAP1 POP PUSH1 0x40 MLOAD DUP1 PUSH1 0xA0 ADD PUSH1 0x40 MSTORE DUP1 PUSH1 0x72 DUP2 MSTORE PUSH1 0x20 ADD PUSH2 0x3083 PUSH1 0x72 SWAP2 CODECOPY DUP2 PUSH1 0x0 DUP2 MLOAD DUP2 LT PUSH2 0x1B72 JUMPI PUSH2 0x1B71 PUSH2 0x2D3B JUMP JUMPDEST JUMPDEST PUSH1 0x20 MUL PUSH1 0x20 ADD ADD DUP2 SWAP1 MSTORE POP PUSH1 0x0 DUP1 SLOAD SWAP1 PUSH2 0x100 EXP SWAP1 DIV PUSH20 0xFFFFFFFFFFFFFFFFFFFFFFFFFFFFFFFFFFFFFFFF AND PUSH20 0xFFFFFFFFFFFFFFFFFFFFFFFFFFFFFFFFFFFFFFFF AND PUSH4 0x7A1A29FB PUSH1 0x9 DUP4 PUSH1 0x0 DUP2 MLOAD DUP2 LT PUSH2 0x1BCF JUMPI PUSH2 0x1BCE PUSH2 0x2D3B JUMP JUMPDEST JUMPDEST PUSH1 0x20 MUL PUSH1 0x20 ADD ADD MLOAD DUP6 PUSH1 0x40 MLOAD DUP5 PUSH4 0xFFFFFFFF AND PUSH1 0xE0 SHL DUP2 MSTORE PUSH1 0x4 ADD PUSH2 0x1BF6 SWAP4 SWAP3 SWAP2 SWAP1 PUSH2 0x2FC5 JUMP JUMPDEST PUSH1 0x0 PUSH1 0x40 MLOAD DUP1 DUP4 SUB DUP2 PUSH1 0x0 DUP8 DUP1 EXTCODESIZE ISZERO DUP1 ISZERO PUSH2 0x1C10 JUMPI PUSH1 0x0 DUP1 REVERT JUMPDEST POP GAS CALL ISZERO DUP1 ISZERO PUSH2 0x1C24 JUMPI RETURNDATASIZE PUSH1 0x0 DUP1 RETURNDATACOPY RETURNDATASIZE PUSH1 0x0 REVERT JUMPDEST POP POP POP POP PUSH1 0x0 PUSH1 0x7 SLOAD PUSH1 0x6 SLOAD PUSH1 0x5 SLOAD PUSH2 0x1C3D SWAP2 SWAP1 PUSH2 0x2C7F JUMP JUMPDEST PUSH2 0x1C47 SWAP2 SWAP1 PUSH2 0x2CC3 JUMP JUMPDEST SWAP1 POP PUSH1 0x0 PUSH1 0x2 PUSH8 0xFFFFFFFFFFFFFFFF DUP2 GT ISZERO PUSH2 0x1C66 JUMPI PUSH2 0x1C65 PUSH2 0x22F7 JUMP JUMPDEST JUMPDEST PUSH1 0x40 MLOAD SWAP1 DUP1 DUP3 MSTORE DUP1 PUSH1 0x20 MUL PUSH1 0x20 ADD DUP3 ADD PUSH1 0x40 MSTORE DUP1 ISZERO PUSH2 0x1C99 JUMPI DUP2 PUSH1 0x20 ADD JUMPDEST PUSH1 0x60 DUP2 MSTORE PUSH1 0x20 ADD SWAP1 PUSH1 0x1 SWAP1 SUB SWAP1 DUP2 PUSH2 0x1C84 JUMPI SWAP1 POP JUMPDEST POP SWAP1 POP PUSH1 0x40 MLOAD DUP1 PUSH1 0xC0 ADD PUSH1 0x40 MSTORE DUP1 PUSH1 0x83 DUP2 MSTORE PUSH1 0x20 ADD PUSH2 0x3516 PUSH1 0x83 SWAP2 CODECOPY DUP2 PUSH1 0x0 DUP2 MLOAD DUP2 LT PUSH2 0x1CC9 JUMPI PUSH2 0x1CC8 PUSH2 0x2D3B JUMP JUMPDEST JUMPDEST PUSH1 0x20 MUL PUSH1 0x20 ADD ADD DUP2 SWAP1 MSTORE POP PUSH1 0x40 MLOAD DUP1 PUSH1 0xC0 ADD PUSH1 0x40 MSTORE DUP1 PUSH1 0x91 DUP2 MSTORE PUSH1 0x20 ADD PUSH2 0x3451 PUSH1 0x91 SWAP2 CODECOPY DUP2 PUSH1 0x1 DUP2 MLOAD DUP2 LT PUSH2 0x1D01 JUMPI PUSH2 0x1D00 PUSH2 0x2D3B JUMP JUMPDEST JUMPDEST PUSH1 0x20 MUL PUSH1 0x20 ADD ADD DUP2 SWAP1 MSTORE POP PUSH1 0x0 DUP1 SLOAD SWAP1 PUSH2 0x100 EXP SWAP1 DIV PUSH20 0xFFFFFFFFFFFFFFFFFFFFFFFFFFFFFFFFFFFFFFFF AND PUSH20 0xFFFFFFFFFFFFFFFFFFFFFFFFFFFFFFFFFFFFFFFF AND PUSH4 0x7A1A29FB PUSH1 0x9 DUP4 PUSH1 0x0 DUP2 MLOAD DUP2 LT PUSH2 0x1D5E JUMPI PUSH2 0x1D5D PUSH2 0x2D3B JUMP JUMPDEST JUMPDEST PUSH1 0x20 MUL PUSH1 0x20 ADD ADD MLOAD DUP6 PUSH1 0x40 MLOAD DUP5 PUSH4 0xFFFFFFFF AND PUSH1 0xE0 SHL DUP2 MSTORE PUSH1 0x4 ADD PUSH2 0x1D85 SWAP4 SWAP3 SWAP2 SWAP1 PUSH2 0x2FC5 JUMP JUMPDEST PUSH1 0x0 PUSH1 0x40 MLOAD DUP1 DUP4 SUB DUP2 PUSH1 0x0 DUP8 DUP1 EXTCODESIZE ISZERO DUP1 ISZERO PUSH2 0x1D9F JUMPI PUSH1 0x0 DUP1 REVERT JUMPDEST POP GAS CALL ISZERO DUP1 ISZERO PUSH2 0x1DB3 JUMPI RETURNDATASIZE PUSH1 0x0 DUP1 RETURNDATACOPY RETURNDATASIZE PUSH1 0x0 REVERT JUMPDEST POP POP POP POP PUSH1 0x0 DUP1 SLOAD SWAP1 PUSH2 0x100 EXP SWAP1 DIV PUSH20 0xFFFFFFFFFFFFFFFFFFFFFFFFFFFFFFFFFFFFFFFF AND PUSH20 0xFFFFFFFFFFFFFFFFFFFFFFFFFFFFFFFFFFFFFFFF AND PUSH4 0x7A1A29FB PUSH1 0x9 DUP4 PUSH1 0x1 DUP2 MLOAD DUP2 LT PUSH2 0x1E09 JUMPI PUSH2 0x1E08 PUSH2 0x2D3B JUMP JUMPDEST JUMPDEST PUSH1 0x20 MUL PUSH1 0x20 ADD ADD MLOAD DUP6 PUSH1 0x40 MLOAD DUP5 PUSH4 0xFFFFFFFF AND PUSH1 0xE0 SHL DUP2 MSTORE PUSH1 0x4 ADD PUSH2 0x1E30 SWAP4 SWAP3 SWAP2 SWAP1 PUSH2 0x2FC5 JUMP JUMPDEST PUSH1 0x0 PUSH1 0x40 MLOAD DUP1 DUP4 SUB DUP2 PUSH1 0x0 DUP8 DUP1 EXTCODESIZE ISZERO DUP1 ISZERO PUSH2 0x1E4A JUMPI PUSH1 0x0 DUP1 REVERT JUMPDEST POP GAS CALL ISZERO DUP1 ISZERO PUSH2 0x1E5E JUMPI RETURNDATASIZE PUSH1 0x0 DUP1 RETURNDATACOPY RETURNDATASIZE PUSH1 0x0 REVERT JUMPDEST POP POP POP POP PUSH1 0x0 PUSH1 0x6 SLOAD PUSH1 0x5 SLOAD PUSH2 0x1E74 SWAP2 SWAP1 PUSH2 0x2C7F JUMP JUMPDEST SWAP1 POP PUSH1 0x0 PUSH1 0x1 PUSH8 0xFFFFFFFFFFFFFFFF DUP2 GT ISZERO PUSH2 0x1E93 JUMPI PUSH2 0x1E92 PUSH2 0x22F7 JUMP JUMPDEST JUMPDEST PUSH1 0x40 MLOAD SWAP1 DUP1 DUP3 MSTORE DUP1 PUSH1 0x20 MUL PUSH1 0x20 ADD DUP3 ADD PUSH1 0x40 MSTORE DUP1 ISZERO PUSH2 0x1EC6 JUMPI DUP2 PUSH1 0x20 ADD JUMPDEST PUSH1 0x60 DUP2 MSTORE PUSH1 0x20 ADD SWAP1 PUSH1 0x1 SWAP1 SUB SWAP1 DUP2 PUSH2 0x1EB1 JUMPI SWAP1 POP JUMPDEST POP SWAP1 POP PUSH1 0x40 MLOAD DUP1 PUSH1 0xC0 ADD PUSH1 0x40 MSTORE DUP1 PUSH1 0x84 DUP2 MSTORE PUSH1 0x20 ADD PUSH2 0x31AD PUSH1 0x84 SWAP2 CODECOPY DUP2 PUSH1 0x0 DUP2 MLOAD DUP2 LT PUSH2 0x1EF6 JUMPI PUSH2 0x1EF5 PUSH2 0x2D3B JUMP JUMPDEST JUMPDEST PUSH1 0x20 MUL PUSH1 0x20 ADD ADD DUP2 SWAP1 MSTORE POP PUSH1 0x0 DUP1 SLOAD SWAP1 PUSH2 0x100 EXP SWAP1 DIV PUSH20 0xFFFFFFFFFFFFFFFFFFFFFFFFFFFFFFFFFFFFFFFF AND PUSH20 0xFFFFFFFFFFFFFFFFFFFFFFFFFFFFFFFFFFFFFFFF AND PUSH4 0x7A1A29FB PUSH1 0x9 DUP4 PUSH1 0x0 DUP2 MLOAD DUP2 LT PUSH2 0x1F53 JUMPI PUSH2 0x1F52 PUSH2 0x2D3B JUMP JUMPDEST JUMPDEST PUSH1 0x20 MUL PUSH1 0x20 ADD ADD MLOAD DUP6 PUSH1 0x40 MLOAD DUP5 PUSH4 0xFFFFFFFF AND PUSH1 0xE0 SHL DUP2 MSTORE PUSH1 0x4 ADD PUSH2 0x1F7A SWAP4 SWAP3 SWAP2 SWAP1 PUSH2 0x2FC5 JUMP JUMPDEST PUSH1 0x0 PUSH1 0x40 MLOAD DUP1 DUP4 SUB DUP2 PUSH1 0x0 DUP8 DUP1 EXTCODESIZE ISZERO DUP1 ISZERO PUSH2 0x1F94 JUMPI PUSH1 0x0 DUP1 REVERT JUMPDEST POP GAS CALL ISZERO DUP1 ISZERO PUSH2 0x1FA8 JUMPI RETURNDATASIZE PUSH1 0x0 DUP1 RETURNDATACOPY RETURNDATASIZE PUSH1 0x0 REVERT JUMPDEST POP POP POP POP PUSH1 0x0 PUSH1 0x7 SLOAD PUSH1 0x6 SLOAD PUSH1 0x4 SLOAD PUSH2 0x1FC1 SWAP2 SWAP1 PUSH2 0x2C7F JUMP JUMPDEST PUSH2 0x1FCB SWAP2 SWAP1 PUSH2 0x2CC3 JUMP JUMPDEST SWAP1 POP PUSH1 0x0 PUSH1 0x2 PUSH8 0xFFFFFFFFFFFFFFFF DUP2 GT ISZERO PUSH2 0x1FEA JUMPI PUSH2 0x1FE9 PUSH2 0x22F7 JUMP JUMPDEST JUMPDEST PUSH1 0x40 MLOAD SWAP1 DUP1 DUP3 MSTORE DUP1 PUSH1 0x20 MUL PUSH1 0x20 ADD DUP3 ADD PUSH1 0x40 MSTORE DUP1 ISZERO PUSH2 0x201D JUMPI DUP2 PUSH1 0x20 ADD JUMPDEST PUSH1 0x60 DUP2 MSTORE PUSH1 0x20 ADD SWAP1 PUSH1 0x1 SWAP1 SUB SWAP1 DUP2 PUSH2 0x2008 JUMPI SWAP1 POP JUMPDEST POP SWAP1 POP PUSH1 0x40 MLOAD DUP1 PUSH1 0x80 ADD PUSH1 0x40 MSTORE DUP1 PUSH1 0x44 DUP2 MSTORE PUSH1 0x20 ADD PUSH2 0x326C PUSH1 0x44 SWAP2 CODECOPY DUP2 PUSH1 0x0 DUP2 MLOAD DUP2 LT PUSH2 0x204D JUMPI PUSH2 0x204C PUSH2 0x2D3B JUMP JUMPDEST JUMPDEST PUSH1 0x20 MUL PUSH1 0x20 ADD ADD DUP2 SWAP1 MSTORE POP PUSH1 0x40 MLOAD DUP1 PUSH1 0x80 ADD PUSH1 0x40 MSTORE DUP1 PUSH1 0x54 DUP2 MSTORE PUSH1 0x20 ADD PUSH2 0x3159 PUSH1 0x54 SWAP2 CODECOPY DUP2 PUSH1 0x1 DUP2 MLOAD DUP2 LT PUSH2 0x2085 JUMPI PUSH2 0x2084 PUSH2 0x2D3B JUMP JUMPDEST JUMPDEST PUSH1 0x20 MUL PUSH1 0x20 ADD ADD DUP2 SWAP1 MSTORE POP PUSH1 0x0 DUP1 SLOAD SWAP1 PUSH2 0x100 EXP SWAP1 DIV PUSH20 0xFFFFFFFFFFFFFFFFFFFFFFFFFFFFFFFFFFFFFFFF AND PUSH20 0xFFFFFFFFFFFFFFFFFFFFFFFFFFFFFFFFFFFFFFFF AND PUSH4 0x7A1A29FB PUSH1 0x9 DUP4 PUSH1 0x0 DUP2 MLOAD DUP2 LT PUSH2 0x20E2 JUMPI PUSH2 0x20E1 PUSH2 0x2D3B JUMP JUMPDEST JUMPDEST PUSH1 0x20 MUL PUSH1 0x20 ADD ADD MLOAD DUP6 PUSH1 0x40 MLOAD DUP5 PUSH4 0xFFFFFFFF AND PUSH1 0xE0 SHL DUP2 MSTORE PUSH1 0x4 ADD PUSH2 0x2109 SWAP4 SWAP3 SWAP2 SWAP1 PUSH2 0x2FC5 JUMP JUMPDEST PUSH1 0x0 PUSH1 0x40 MLOAD DUP1 DUP4 SUB DUP2 PUSH1 0x0 DUP8 DUP1 EXTCODESIZE ISZERO DUP1 ISZERO PUSH2 0x2123 JUMPI PUSH1 0x0 DUP1 REVERT JUMPDEST POP GAS CALL ISZERO DUP1 ISZERO PUSH2 0x2137 JUMPI RETURNDATASIZE PUSH1 0x0 DUP1 RETURNDATACOPY RETURNDATASIZE PUSH1 0x0 REVERT JUMPDEST POP POP POP POP PUSH1 0x0 DUP1 SLOAD SWAP1 PUSH2 0x100 EXP SWAP1 DIV PUSH20 0xFFFFFFFFFFFFFFFFFFFFFFFFFFFFFFFFFFFFFFFF AND PUSH20 0xFFFFFFFFFFFFFFFFFFFFFFFFFFFFFFFFFFFFFFFF AND PUSH4 0x7A1A29FB PUSH1 0x9 DUP4 PUSH1 0x1 DUP2 MLOAD DUP2 LT PUSH2 0x218D JUMPI PUSH2 0x218C PUSH2 0x2D3B JUMP JUMPDEST JUMPDEST PUSH1 0x20 MUL PUSH1 0x20 ADD ADD MLOAD DUP6 PUSH1 0x40 MLOAD DUP5 PUSH4 0xFFFFFFFF AND PUSH1 0xE0 SHL DUP2 MSTORE PUSH1 0x4 ADD PUSH2 0x21B4 SWAP4 SWAP3 SWAP2 SWAP1 PUSH2 0x2FC5 JUMP JUMPDEST PUSH1 0x0 PUSH1 0x40 MLOAD DUP1 DUP4 SUB DUP2 PUSH1 0x0 DUP8 DUP1 EXTCODESIZE ISZERO DUP1 ISZERO PUSH2 0x21CE JUMPI PUSH1 0x0 DUP1 REVERT JUMPDEST POP GAS CALL ISZERO DUP1 ISZERO PUSH2 0x21E2 JUMPI RETURNDATASIZE PUSH1 0x0 DUP1 RETURNDATACOPY RETURNDATASIZE PUSH1 0x0 REVERT JUMPDEST POP POP POP POP POP POP POP POP POP POP POP POP POP POP JUMP JUMPDEST PUSH1 0x0 PUSH20 0xFFFFFFFFFFFFFFFFFFFFFFFFFFFFFFFFFFFFFFFF DUP3 AND SWAP1 POP SWAP2 SWAP1 POP JUMP JUMPDEST PUSH1 0x0 DUP2 SWAP1 POP SWAP2 SWAP1 POP JUMP JUMPDEST PUSH1 0x0 PUSH2 0x2237 PUSH2 0x2232 PUSH2 0x222D DUP5 PUSH2 0x21F2 JUMP JUMPDEST PUSH2 0x2212 JUMP JUMPDEST PUSH2 0x21F2 JUMP JUMPDEST SWAP1 POP SWAP2 SWAP1 POP JUMP JUMPDEST PUSH1 0x0 PUSH2 0x2249 DUP3 PUSH2 0x221C JUMP JUMPDEST SWAP1 POP SWAP2 SWAP1 POP JUMP JUMPDEST PUSH1 0x0 PUSH2 0x225B DUP3 PUSH2 0x223E JUMP JUMPDEST SWAP1 POP SWAP2 SWAP1 POP JUMP JUMPDEST PUSH2 0x226B DUP2 PUSH2 0x2250 JUMP JUMPDEST DUP3 MSTORE POP POP JUMP JUMPDEST PUSH1 0x0 PUSH1 0x20 DUP3 ADD SWAP1 POP PUSH2 0x2286 PUSH1 0x0 DUP4 ADD DUP5 PUSH2 0x2262 JUMP JUMPDEST SWAP3 SWAP2 POP POP JUMP JUMPDEST PUSH1 0x0 PUSH2 0x2297 DUP3 PUSH2 0x223E JUMP JUMPDEST SWAP1 POP SWAP2 SWAP1 POP JUMP JUMPDEST PUSH2 0x22A7 DUP2 PUSH2 0x228C JUMP JUMPDEST DUP3 MSTORE POP POP JUMP JUMPDEST PUSH1 0x0 PUSH1 0x20 DUP3 ADD SWAP1 POP PUSH2 0x22C2 PUSH1 0x0 DUP4 ADD DUP5 PUSH2 0x229E JUMP JUMPDEST SWAP3 SWAP2 POP POP JUMP JUMPDEST PUSH1 0x0 PUSH1 0x40 MLOAD SWAP1 POP SWAP1 JUMP JUMPDEST PUSH1 0x0 DUP1 REVERT JUMPDEST PUSH1 0x0 DUP1 REVERT JUMPDEST PUSH1 0x0 DUP1 REVERT JUMPDEST PUSH1 0x0 DUP1 REVERT JUMPDEST PUSH1 0x0 PUSH1 0x1F NOT PUSH1 0x1F DUP4 ADD AND SWAP1 POP SWAP2 SWAP1 POP JUMP JUMPDEST PUSH32 0x4E487B7100000000000000000000000000000000000000000000000000000000 PUSH1 0x0 MSTORE PUSH1 0x41 PUSH1 0x4 MSTORE PUSH1 0x24 PUSH1 0x0 REVERT JUMPDEST PUSH2 0x232F DUP3 PUSH2 0x22E6 JUMP JUMPDEST DUP2 ADD DUP2 DUP2 LT PUSH8 0xFFFFFFFFFFFFFFFF DUP3 GT OR ISZERO PUSH2 0x234E JUMPI PUSH2 0x234D PUSH2 0x22F7 JUMP JUMPDEST JUMPDEST DUP1 PUSH1 0x40 MSTORE POP POP POP JUMP JUMPDEST PUSH1 0x0 PUSH2 0x2361 PUSH2 0x22C8 JUMP JUMPDEST SWAP1 POP PUSH2 0x236D DUP3 DUP3 PUSH2 0x2326 JUMP JUMPDEST SWAP2 SWAP1 POP JUMP JUMPDEST PUSH1 0x0 PUSH8 0xFFFFFFFFFFFFFFFF DUP3 GT ISZERO PUSH2 0x238D JUMPI PUSH2 0x238C PUSH2 0x22F7 JUMP JUMPDEST JUMPDEST PUSH2 0x2396 DUP3 PUSH2 0x22E6 JUMP JUMPDEST SWAP1 POP PUSH1 0x20 DUP2 ADD SWAP1 POP SWAP2 SWAP1 POP JUMP JUMPDEST DUP3 DUP2 DUP4 CALLDATACOPY PUSH1 0x0 DUP4 DUP4 ADD MSTORE POP POP POP JUMP JUMPDEST PUSH1 0x0 PUSH2 0x23C5 PUSH2 0x23C0 DUP5 PUSH2 0x2372 JUMP JUMPDEST PUSH2 0x2357 JUMP JUMPDEST SWAP1 POP DUP3 DUP2 MSTORE PUSH1 0x20 DUP2 ADD DUP5 DUP5 DUP5 ADD GT ISZERO PUSH2 0x23E1 JUMPI PUSH2 0x23E0 PUSH2 0x22E1 JUMP JUMPDEST JUMPDEST PUSH2 0x23EC DUP5 DUP3 DUP6 PUSH2 0x23A3 JUMP JUMPDEST POP SWAP4 SWAP3 POP POP POP JUMP JUMPDEST PUSH1 0x0 DUP3 PUSH1 0x1F DUP4 ADD SLT PUSH2 0x2409 JUMPI PUSH2 0x2408 PUSH2 0x22DC JUMP JUMPDEST JUMPDEST DUP2 CALLDATALOAD PUSH2 0x2419 DUP5 DUP3 PUSH1 0x20 DUP7 ADD PUSH2 0x23B2 JUMP JUMPDEST SWAP2 POP POP SWAP3 SWAP2 POP POP JUMP JUMPDEST PUSH1 0x0 DUP2 SWAP1 POP SWAP2 SWAP1 POP JUMP JUMPDEST PUSH2 0x2435 DUP2 PUSH2 0x2422 JUMP JUMPDEST DUP2 EQ PUSH2 0x2440 JUMPI PUSH1 0x0 DUP1 REVERT JUMPDEST POP JUMP JUMPDEST PUSH1 0x0 DUP2 CALLDATALOAD SWAP1 POP PUSH2 0x2452 DUP2 PUSH2 0x242C JUMP JUMPDEST SWAP3 SWAP2 POP POP JUMP JUMPDEST PUSH1 0x0 DUP1 PUSH1 0x0 DUP1 PUSH1 0x0 PUSH1 0xA0 DUP7 DUP9 SUB SLT ISZERO PUSH2 0x2474 JUMPI PUSH2 0x2473 PUSH2 0x22D2 JUMP JUMPDEST JUMPDEST PUSH1 0x0 DUP7 ADD CALLDATALOAD PUSH8 0xFFFFFFFFFFFFFFFF DUP2 GT ISZERO PUSH2 0x2492 JUMPI PUSH2 0x2491 PUSH2 0x22D7 JUMP JUMPDEST JUMPDEST PUSH2 0x249E DUP9 DUP3 DUP10 ADD PUSH2 0x23F4 JUMP JUMPDEST SWAP6 POP POP PUSH1 0x20 DUP7 ADD CALLDATALOAD PUSH8 0xFFFFFFFFFFFFFFFF DUP2 GT ISZERO PUSH2 0x24BF JUMPI PUSH2 0x24BE PUSH2 0x22D7 JUMP JUMPDEST JUMPDEST PUSH2 0x24CB DUP9 DUP3 DUP10 ADD PUSH2 0x23F4 JUMP JUMPDEST SWAP5 POP POP PUSH1 0x40 PUSH2 0x24DC DUP9 DUP3 DUP10 ADD PUSH2 0x2443 JUMP JUMPDEST SWAP4 POP POP PUSH1 0x60 PUSH2 0x24ED DUP9 DUP3 DUP10 ADD PUSH2 0x2443 JUMP JUMPDEST SWAP3 POP POP PUSH1 0x80 PUSH2 0x24FE DUP9 DUP3 DUP10 ADD PUSH2 0x2443 JUMP JUMPDEST SWAP2 POP POP SWAP3 SWAP6 POP SWAP3 SWAP6 SWAP1 SWAP4 POP JUMP JUMPDEST PUSH1 0x0 DUP2 MLOAD SWAP1 POP SWAP2 SWAP1 POP JUMP JUMPDEST PUSH32 0x4E487B7100000000000000000000000000000000000000000000000000000000 PUSH1 0x0 MSTORE PUSH1 0x22 PUSH1 0x4 MSTORE PUSH1 0x24 PUSH1 0x0 REVERT JUMPDEST PUSH1 0x0 PUSH1 0x2 DUP3 DIV SWAP1 POP PUSH1 0x1 DUP3 AND DUP1 PUSH2 0x255D JUMPI PUSH1 0x7F DUP3 AND SWAP2 POP JUMPDEST PUSH1 0x20 DUP3 LT DUP2 SUB PUSH2 0x2570 JUMPI PUSH2 0x256F PUSH2 0x2516 JUMP JUMPDEST JUMPDEST POP SWAP2 SWAP1 POP JUMP JUMPDEST PUSH1 0x0 DUP2 SWAP1 POP DUP2 PUSH1 0x0 MSTORE PUSH1 0x20 PUSH1 0x0 KECCAK256 SWAP1 POP SWAP2 SWAP1 POP JUMP JUMPDEST PUSH1 0x0 PUSH1 0x20 PUSH1 0x1F DUP4 ADD DIV SWAP1 POP SWAP2 SWAP1 POP JUMP JUMPDEST PUSH1 0x0 DUP3 DUP3 SHL SWAP1 POP SWAP3 SWAP2 POP POP JUMP JUMPDEST PUSH1 0x0 PUSH1 0x8 DUP4 MUL PUSH2 0x25D8 PUSH32 0xFFFFFFFFFFFFFFFFFFFFFFFFFFFFFFFFFFFFFFFFFFFFFFFFFFFFFFFFFFFFFFFF DUP3 PUSH2 0x259B JUMP JUMPDEST PUSH2 0x25E2 DUP7 DUP4 PUSH2 0x259B JUMP JUMPDEST SWAP6 POP DUP1 NOT DUP5 AND SWAP4 POP DUP1 DUP7 AND DUP5 OR SWAP3 POP POP POP SWAP4 SWAP3 POP POP POP JUMP JUMPDEST PUSH1 0x0 DUP2 SWAP1 POP SWAP2 SWAP1 POP JUMP JUMPDEST PUSH1 0x0 PUSH2 0x261F PUSH2 0x261A PUSH2 0x2615 DUP5 PUSH2 0x25FA JUMP JUMPDEST PUSH2 0x2212 JUMP JUMPDEST PUSH2 0x25FA JUMP JUMPDEST SWAP1 POP SWAP2 SWAP1 POP JUMP JUMPDEST PUSH1 0x0 DUP2 SWAP1 POP SWAP2 SWAP1 POP JUMP JUMPDEST PUSH2 0x2639 DUP4 PUSH2 0x2604 JUMP JUMPDEST PUSH2 0x264D PUSH2 0x2645 DUP3 PUSH2 0x2626 JUMP JUMPDEST DUP5 DUP5 SLOAD PUSH2 0x25A8 JUMP JUMPDEST DUP3 SSTORE POP POP POP POP JUMP JUMPDEST PUSH1 0x0 SWAP1 JUMP JUMPDEST PUSH2 0x2662 PUSH2 0x2655 JUMP JUMPDEST PUSH2 0x266D DUP2 DUP5 DUP5 PUSH2 0x2630 JUMP JUMPDEST POP POP POP JUMP JUMPDEST JUMPDEST DUP2 DUP2 LT ISZERO PUSH2 0x2691 JUMPI PUSH2 0x2686 PUSH1 0x0 DUP3 PUSH2 0x265A JUMP JUMPDEST PUSH1 0x1 DUP2 ADD SWAP1 POP PUSH2 0x2673 JUMP JUMPDEST POP POP JUMP JUMPDEST PUSH1 0x1F DUP3 GT ISZERO PUSH2 0x26D6 JUMPI PUSH2 0x26A7 DUP2 PUSH2 0x2576 JUMP JUMPDEST PUSH2 0x26B0 DUP5 PUSH2 0x258B JUMP JUMPDEST DUP2 ADD PUSH1 0x20 DUP6 LT ISZERO PUSH2 0x26BF JUMPI DUP2 SWAP1 POP JUMPDEST PUSH2 0x26D3 PUSH2 0x26CB DUP6 PUSH2 0x258B JUMP JUMPDEST DUP4 ADD DUP3 PUSH2 0x2672 JUMP JUMPDEST POP POP JUMPDEST POP POP POP JUMP JUMPDEST PUSH1 0x0 DUP3 DUP3 SHR SWAP1 POP SWAP3 SWAP2 POP POP JUMP JUMPDEST PUSH1 0x0 PUSH2 0x26F9 PUSH1 0x0 NOT DUP5 PUSH1 0x8 MUL PUSH2 0x26DB JUMP JUMPDEST NOT DUP1 DUP4 AND SWAP2 POP POP SWAP3 SWAP2 POP POP JUMP JUMPDEST PUSH1 0x0 PUSH2 0x2712 DUP4 DUP4 PUSH2 0x26E8 JUMP JUMPDEST SWAP2 POP DUP3 PUSH1 0x2 MUL DUP3 OR SWAP1 POP SWAP3 SWAP2 POP POP JUMP JUMPDEST PUSH2 0x272B DUP3 PUSH2 0x250B JUMP JUMPDEST PUSH8 0xFFFFFFFFFFFFFFFF DUP2 GT ISZERO PUSH2 0x2744 JUMPI PUSH2 0x2743 PUSH2 0x22F7 JUMP JUMPDEST JUMPDEST PUSH2 0x274E DUP3 SLOAD PUSH2 0x2545 JUMP JUMPDEST PUSH2 0x2759 DUP3 DUP3 DUP6 PUSH2 0x2695 JUMP JUMPDEST PUSH1 0x0 PUSH1 0x20 SWAP1 POP PUSH1 0x1F DUP4 GT PUSH1 0x1 DUP2 EQ PUSH2 0x278C JUMPI PUSH1 0x0 DUP5 ISZERO PUSH2 0x277A JUMPI DUP3 DUP8 ADD MLOAD SWAP1 POP JUMPDEST PUSH2 0x2784 DUP6 DUP3 PUSH2 0x2706 JUMP JUMPDEST DUP7 SSTORE POP PUSH2 0x27EC JUMP JUMPDEST PUSH1 0x1F NOT DUP5 AND PUSH2 0x279A DUP7 PUSH2 0x2576 JUMP JUMPDEST PUSH1 0x0 JUMPDEST DUP3 DUP2 LT ISZERO PUSH2 0x27C2 JUMPI DUP5 DUP10 ADD MLOAD DUP3 SSTORE PUSH1 0x1 DUP3 ADD SWAP2 POP PUSH1 0x20 DUP6 ADD SWAP5 POP PUSH1 0x20 DUP2 ADD SWAP1 POP PUSH2 0x279D JUMP JUMPDEST DUP7 DUP4 LT ISZERO PUSH2 0x27DF JUMPI DUP5 DUP10 ADD MLOAD PUSH2 0x27DB PUSH1 0x1F DUP10 AND DUP3 PUSH2 0x26E8 JUMP JUMPDEST DUP4 SSTORE POP JUMPDEST PUSH1 0x1 PUSH1 0x2 DUP9 MUL ADD DUP9 SSTORE POP POP POP JUMPDEST POP POP POP POP POP POP JUMP JUMPDEST PUSH1 0x0 DUP3 DUP3 MSTORE PUSH1 0x20 DUP3 ADD SWAP1 POP SWAP3 SWAP2 POP POP JUMP JUMPDEST PUSH1 0x0 JUMPDEST DUP4 DUP2 LT ISZERO PUSH2 0x2823 JUMPI DUP1 DUP3 ADD MLOAD DUP2 DUP5 ADD MSTORE PUSH1 0x20 DUP2 ADD SWAP1 POP PUSH2 0x2808 JUMP JUMPDEST PUSH1 0x0 DUP5 DUP5 ADD MSTORE POP POP POP POP JUMP JUMPDEST PUSH1 0x0 PUSH2 0x283A DUP3 PUSH2 0x250B JUMP JUMPDEST PUSH2 0x2844 DUP2 DUP6 PUSH2 0x27F4 JUMP JUMPDEST SWAP4 POP PUSH2 0x2854 DUP2 DUP6 PUSH1 0x20 DUP7 ADD PUSH2 0x2805 JUMP JUMPDEST PUSH2 0x285D DUP2 PUSH2 0x22E6 JUMP JUMPDEST DUP5 ADD SWAP2 POP POP SWAP3 SWAP2 POP POP JUMP JUMPDEST PUSH2 0x2871 DUP2 PUSH2 0x2422 JUMP JUMPDEST DUP3 MSTORE POP POP JUMP JUMPDEST PUSH1 0x0 PUSH1 0x80 DUP3 ADD SWAP1 POP DUP2 DUP2 SUB PUSH1 0x0 DUP4 ADD MSTORE PUSH2 0x2891 DUP2 DUP8 PUSH2 0x282F JUMP JUMPDEST SWAP1 POP PUSH2 0x28A0 PUSH1 0x20 DUP4 ADD DUP7 PUSH2 0x2868 JUMP JUMPDEST PUSH2 0x28AD PUSH1 0x40 DUP4 ADD DUP6 PUSH2 0x2868 JUMP JUMPDEST PUSH2 0x28BA PUSH1 0x60 DUP4 ADD DUP5 PUSH2 0x2868 JUMP JUMPDEST SWAP6 SWAP5 POP POP POP POP POP JUMP JUMPDEST PUSH1 0x0 DUP2 SWAP1 POP SWAP3 SWAP2 POP POP JUMP JUMPDEST PUSH1 0x0 PUSH2 0x28D9 DUP3 PUSH2 0x250B JUMP JUMPDEST PUSH2 0x28E3 DUP2 DUP6 PUSH2 0x28C3 JUMP JUMPDEST SWAP4 POP PUSH2 0x28F3 DUP2 DUP6 PUSH1 0x20 DUP7 ADD PUSH2 0x2805 JUMP JUMPDEST DUP1 DUP5 ADD SWAP2 POP POP SWAP3 SWAP2 POP POP JUMP JUMPDEST PUSH1 0x0 PUSH2 0x290B DUP3 DUP5 PUSH2 0x28CE JUMP JUMPDEST SWAP2 POP DUP2 SWAP1 POP SWAP3 SWAP2 POP POP JUMP JUMPDEST PUSH1 0x0 DUP2 SLOAD PUSH2 0x2923 DUP2 PUSH2 0x2545 JUMP JUMPDEST PUSH2 0x292D DUP2 DUP7 PUSH2 0x28C3 JUMP JUMPDEST SWAP5 POP PUSH1 0x1 DUP3 AND PUSH1 0x0 DUP2 EQ PUSH2 0x2948 JUMPI PUSH1 0x1 DUP2 EQ PUSH2 0x295D JUMPI PUSH2 0x2990 JUMP JUMPDEST PUSH1 0xFF NOT DUP4 AND DUP7 MSTORE DUP2 ISZERO ISZERO DUP3 MUL DUP7 ADD SWAP4 POP PUSH2 0x2990 JUMP JUMPDEST PUSH2 0x2966 DUP6 PUSH2 0x2576 JUMP JUMPDEST PUSH1 0x0 JUMPDEST DUP4 DUP2 LT ISZERO PUSH2 0x2988 JUMPI DUP2 SLOAD DUP2 DUP10 ADD MSTORE PUSH1 0x1 DUP3 ADD SWAP2 POP PUSH1 0x20 DUP2 ADD SWAP1 POP PUSH2 0x2969 JUMP JUMPDEST DUP4 DUP9 ADD SWAP6 POP POP POP JUMPDEST POP POP POP SWAP3 SWAP2 POP POP JUMP JUMPDEST PUSH1 0x0 PUSH2 0x29A5 DUP3 DUP5 PUSH2 0x2916 JUMP JUMPDEST SWAP2 POP DUP2 SWAP1 POP SWAP3 SWAP2 POP POP JUMP JUMPDEST PUSH32 0x4550303031000000000000000000000000000000000000000000000000000000 PUSH1 0x0 DUP3 ADD MSTORE POP JUMP JUMPDEST PUSH1 0x0 PUSH2 0x29E6 PUSH1 0x5 DUP4 PUSH2 0x27F4 JUMP JUMPDEST SWAP2 POP PUSH2 0x29F1 DUP3 PUSH2 0x29B0 JUMP JUMPDEST PUSH1 0x20 DUP3 ADD SWAP1 POP SWAP2 SWAP1 POP JUMP JUMPDEST PUSH1 0x0 PUSH1 0x40 DUP3 ADD SWAP1 POP DUP2 DUP2 SUB PUSH1 0x0 DUP4 ADD MSTORE PUSH2 0x2A16 DUP2 DUP5 PUSH2 0x282F JUMP JUMPDEST SWAP1 POP DUP2 DUP2 SUB PUSH1 0x20 DUP4 ADD MSTORE PUSH2 0x2A29 DUP2 PUSH2 0x29D9 JUMP JUMPDEST SWAP1 POP SWAP3 SWAP2 POP POP JUMP JUMPDEST PUSH1 0x0 DUP2 MLOAD SWAP1 POP PUSH2 0x2A40 DUP2 PUSH2 0x242C JUMP JUMPDEST SWAP3 SWAP2 POP POP JUMP JUMPDEST PUSH1 0x0 PUSH1 0x20 DUP3 DUP5 SUB SLT ISZERO PUSH2 0x2A5C JUMPI PUSH2 0x2A5B PUSH2 0x22D2 JUMP JUMPDEST JUMPDEST PUSH1 0x0 PUSH2 0x2A6A DUP5 DUP3 DUP6 ADD PUSH2 0x2A31 JUMP JUMPDEST SWAP2 POP POP SWAP3 SWAP2 POP POP JUMP JUMPDEST PUSH32 0x4550303032000000000000000000000000000000000000000000000000000000 PUSH1 0x0 DUP3 ADD MSTORE POP JUMP JUMPDEST PUSH1 0x0 PUSH2 0x2AA9 PUSH1 0x5 DUP4 PUSH2 0x27F4 JUMP JUMPDEST SWAP2 POP PUSH2 0x2AB4 DUP3 PUSH2 0x2A73 JUMP JUMPDEST PUSH1 0x20 DUP3 ADD SWAP1 POP SWAP2 SWAP1 POP JUMP JUMPDEST PUSH1 0x0 PUSH1 0x40 DUP3 ADD SWAP1 POP DUP2 DUP2 SUB PUSH1 0x0 DUP4 ADD MSTORE PUSH2 0x2AD9 DUP2 DUP5 PUSH2 0x282F JUMP JUMPDEST SWAP1 POP DUP2 DUP2 SUB PUSH1 0x20 DUP4 ADD MSTORE PUSH2 0x2AEC DUP2 PUSH2 0x2A9C JUMP JUMPDEST SWAP1 POP SWAP3 SWAP2 POP POP JUMP JUMPDEST PUSH32 0x4550303033000000000000000000000000000000000000000000000000000000 PUSH1 0x0 DUP3 ADD MSTORE POP JUMP JUMPDEST PUSH1 0x0 PUSH2 0x2B2A PUSH1 0x5 DUP4 PUSH2 0x27F4 JUMP JUMPDEST SWAP2 POP PUSH2 0x2B35 DUP3 PUSH2 0x2AF4 JUMP JUMPDEST PUSH1 0x20 DUP3 ADD SWAP1 POP SWAP2 SWAP1 POP JUMP JUMPDEST PUSH1 0x0 PUSH1 0x40 DUP3 ADD SWAP1 POP DUP2 DUP2 SUB PUSH1 0x0 DUP4 ADD MSTORE PUSH2 0x2B5A DUP2 DUP5 PUSH2 0x282F JUMP JUMPDEST SWAP1 POP DUP2 DUP2 SUB PUSH1 0x20 DUP4 ADD MSTORE PUSH2 0x2B6D DUP2 PUSH2 0x2B1D JUMP JUMPDEST SWAP1 POP SWAP3 SWAP2 POP POP JUMP JUMPDEST PUSH32 0x4550303035000000000000000000000000000000000000000000000000000000 PUSH1 0x0 DUP3 ADD MSTORE POP JUMP JUMPDEST PUSH1 0x0 PUSH2 0x2BAB PUSH1 0x5 DUP4 PUSH2 0x27F4 JUMP JUMPDEST SWAP2 POP PUSH2 0x2BB6 DUP3 PUSH2 0x2B75 JUMP JUMPDEST PUSH1 0x20 DUP3 ADD SWAP1 POP SWAP2 SWAP1 POP JUMP JUMPDEST PUSH1 0x0 PUSH1 0x40 DUP3 ADD SWAP1 POP DUP2 DUP2 SUB PUSH1 0x0 DUP4 ADD MSTORE PUSH2 0x2BDB DUP2 DUP5 PUSH2 0x282F JUMP JUMPDEST SWAP1 POP DUP2 DUP2 SUB PUSH1 0x20 DUP4 ADD MSTORE PUSH2 0x2BEE DUP2 PUSH2 0x2B9E JUMP JUMPDEST SWAP1 POP SWAP3 SWAP2 POP POP JUMP JUMPDEST PUSH1 0x0 PUSH1 0xA0 DUP3 ADD SWAP1 POP DUP2 DUP2 SUB PUSH1 0x0 DUP4 ADD MSTORE PUSH2 0x2C10 DUP2 DUP9 PUSH2 0x282F JUMP JUMPDEST SWAP1 POP PUSH2 0x2C1F PUSH1 0x20 DUP4 ADD DUP8 PUSH2 0x2868 JUMP JUMPDEST PUSH2 0x2C2C PUSH1 0x40 DUP4 ADD DUP7 PUSH2 0x2868 JUMP JUMPDEST PUSH2 0x2C39 PUSH1 0x60 DUP4 ADD DUP6 PUSH2 0x2868 JUMP JUMPDEST PUSH2 0x2C46 PUSH1 0x80 DUP4 ADD DUP5 PUSH2 0x2868 JUMP JUMPDEST SWAP7 SWAP6 POP POP POP POP POP POP JUMP JUMPDEST PUSH32 0x4E487B7100000000000000000000000000000000000000000000000000000000 PUSH1 0x0 MSTORE PUSH1 0x11 PUSH1 0x4 MSTORE PUSH1 0x24 PUSH1 0x0 REVERT JUMPDEST PUSH1 0x0 PUSH2 0x2C8A DUP3 PUSH2 0x2422 JUMP JUMPDEST SWAP2 POP PUSH2 0x2C95 DUP4 PUSH2 0x2422 JUMP JUMPDEST SWAP3 POP DUP3 DUP3 ADD SWAP1 POP DUP3 DUP2 SLT ISZERO PUSH1 0x0 DUP4 SLT AND DUP4 DUP3 SLT PUSH1 0x0 DUP5 SLT ISZERO AND OR ISZERO PUSH2 0x2CBD JUMPI PUSH2 0x2CBC PUSH2 0x2C50 JUMP JUMPDEST JUMPDEST SWAP3 SWAP2 POP POP JUMP JUMPDEST PUSH1 0x0 PUSH2 0x2CCE DUP3 PUSH2 0x2422 JUMP JUMPDEST SWAP2 POP PUSH2 0x2CD9 DUP4 PUSH2 0x2422 JUMP JUMPDEST SWAP3 POP DUP3 DUP3 MUL PUSH2 0x2CE7 DUP2 PUSH2 0x2422 JUMP JUMPDEST SWAP2 POP PUSH32 0x8000000000000000000000000000000000000000000000000000000000000000 DUP5 EQ PUSH1 0x0 DUP5 SLT AND ISZERO PUSH2 0x2D1F JUMPI PUSH2 0x2D1E PUSH2 0x2C50 JUMP JUMPDEST JUMPDEST DUP3 DUP3 SDIV DUP5 EQ DUP4 ISZERO OR PUSH2 0x2D34 JUMPI PUSH2 0x2D33 PUSH2 0x2C50 JUMP JUMPDEST JUMPDEST POP SWAP3 SWAP2 POP POP JUMP JUMPDEST PUSH32 0x4E487B7100000000000000000000000000000000000000000000000000000000 PUSH1 0x0 MSTORE PUSH1 0x32 PUSH1 0x4 MSTORE PUSH1 0x24 PUSH1 0x0 REVERT JUMPDEST PUSH1 0x0 DUP2 SLOAD PUSH2 0x2D77 DUP2 PUSH2 0x2545 JUMP JUMPDEST PUSH2 0x2D81 DUP2 DUP7 PUSH2 0x27F4 JUMP JUMPDEST SWAP5 POP PUSH1 0x1 DUP3 AND PUSH1 0x0 DUP2 EQ PUSH2 0x2D9C JUMPI PUSH1 0x1 DUP2 EQ PUSH2 0x2DB2 JUMPI PUSH2 0x2DE5 JUMP JUMPDEST PUSH1 0xFF NOT DUP4 AND DUP7 MSTORE DUP2 ISZERO ISZERO PUSH1 0x20 MUL DUP7 ADD SWAP4 POP PUSH2 0x2DE5 JUMP JUMPDEST PUSH2 0x2DBB DUP6 PUSH2 0x2576 JUMP JUMPDEST PUSH1 0x0 JUMPDEST DUP4 DUP2 LT ISZERO PUSH2 0x2DDD JUMPI DUP2 SLOAD DUP2 DUP10 ADD MSTORE PUSH1 0x1 DUP3 ADD SWAP2 POP PUSH1 0x20 DUP2 ADD SWAP1 POP PUSH2 0x2DBE JUMP JUMPDEST DUP1 DUP9 ADD SWAP6 POP POP POP JUMPDEST POP POP POP SWAP3 SWAP2 POP POP JUMP JUMPDEST PUSH32 0x62616C616E636553686565740000000000000000000000000000000000000000 PUSH1 0x0 DUP3 ADD MSTORE POP JUMP JUMPDEST PUSH1 0x0 PUSH2 0x2E24 PUSH1 0xC DUP4 PUSH2 0x27F4 JUMP JUMPDEST SWAP2 POP PUSH2 0x2E2F DUP3 PUSH2 0x2DEE JUMP JUMPDEST PUSH1 0x20 DUP3 ADD SWAP1 POP SWAP2 SWAP1 POP JUMP JUMPDEST PUSH1 0x0 PUSH1 0x80 DUP3 ADD SWAP1 POP DUP2 DUP2 SUB PUSH1 0x0 DUP4 ADD MSTORE PUSH2 0x2E54 DUP2 DUP7 PUSH2 0x2D6A JUMP JUMPDEST SWAP1 POP DUP2 DUP2 SUB PUSH1 0x20 DUP4 ADD MSTORE PUSH2 0x2E67 DUP2 PUSH2 0x2E17 JUMP JUMPDEST SWAP1 POP DUP2 DUP2 SUB PUSH1 0x40 DUP4 ADD MSTORE PUSH2 0x2E7B DUP2 DUP6 PUSH2 0x282F JUMP JUMPDEST SWAP1 POP PUSH2 0x2E8A PUSH1 0x60 DUP4 ADD DUP5 PUSH2 0x2868 JUMP JUMPDEST SWAP5 SWAP4 POP POP POP POP JUMP JUMPDEST PUSH1 0x0 PUSH2 0x2E9D DUP3 PUSH2 0x2422 JUMP JUMPDEST SWAP2 POP PUSH2 0x2EA8 DUP4 PUSH2 0x2422 JUMP JUMPDEST SWAP3 POP DUP3 DUP3 SUB SWAP1 POP DUP2 DUP2 SLT PUSH1 0x0 DUP5 SLT AND DUP3 DUP3 SGT PUSH1 0x0 DUP6 SLT ISZERO AND OR ISZERO PUSH2 0x2ECF JUMPI PUSH2 0x2ECE PUSH2 0x2C50 JUMP JUMPDEST JUMPDEST SWAP3 SWAP2 POP POP JUMP JUMPDEST PUSH32 0x636F6D70726568656E73697665496E636F6D6500000000000000000000000000 PUSH1 0x0 DUP3 ADD MSTORE POP JUMP JUMPDEST PUSH1 0x0 PUSH2 0x2F0B PUSH1 0x13 DUP4 PUSH2 0x27F4 JUMP JUMPDEST SWAP2 POP PUSH2 0x2F16 DUP3 PUSH2 0x2ED5 JUMP JUMPDEST PUSH1 0x20 DUP3 ADD SWAP1 POP SWAP2 SWAP1 POP JUMP JUMPDEST PUSH1 0x0 PUSH1 0x80 DUP3 ADD SWAP1 POP DUP2 DUP2 SUB PUSH1 0x0 DUP4 ADD MSTORE PUSH2 0x2F3B DUP2 DUP7 PUSH2 0x2D6A JUMP JUMPDEST SWAP1 POP DUP2 DUP2 SUB PUSH1 0x20 DUP4 ADD MSTORE PUSH2 0x2F4E DUP2 PUSH2 0x2EFE JUMP JUMPDEST SWAP1 POP DUP2 DUP2 SUB PUSH1 0x40 DUP4 ADD MSTORE PUSH2 0x2F62 DUP2 DUP6 PUSH2 0x282F JUMP JUMPDEST SWAP1 POP PUSH2 0x2F71 PUSH1 0x60 DUP4 ADD DUP5 PUSH2 0x2868 JUMP JUMPDEST SWAP5 SWAP4 POP POP POP POP JUMP JUMPDEST PUSH32 0x63617368466C6F77000000000000000000000000000000000000000000000000 PUSH1 0x0 DUP3 ADD MSTORE POP JUMP JUMPDEST PUSH1 0x0 PUSH2 0x2FAF PUSH1 0x8 DUP4 PUSH2 0x27F4 JUMP JUMPDEST SWAP2 POP PUSH2 0x2FBA DUP3 PUSH2 0x2F79 JUMP JUMPDEST PUSH1 0x20 DUP3 ADD SWAP1 POP SWAP2 SWAP1 POP JUMP JUMPDEST PUSH1 0x0 PUSH1 0x80 DUP3 ADD SWAP1 POP DUP2 DUP2 SUB PUSH1 0x0 DUP4 ADD MSTORE PUSH2 0x2FDF DUP2 DUP7 PUSH2 0x2D6A JUMP JUMPDEST SWAP1 POP DUP2 DUP2 SUB PUSH1 0x20 DUP4 ADD MSTORE PUSH2 0x2FF2 DUP2 PUSH2 0x2FA2 JUMP JUMPDEST SWAP1 POP DUP2 DUP2 SUB PUSH1 0x40 DUP4 ADD MSTORE PUSH2 0x3006 DUP2 DUP6 PUSH2 0x282F JUMP JUMPDEST SWAP1 POP PUSH2 0x3015 PUSH1 0x60 DUP4 ADD DUP5 PUSH2 0x2868 JUMP JUMPDEST SWAP5 SWAP4 POP POP POP POP JUMP INVALID PUSH10 0x6E636F6D652E64657461 PUSH10 0x6C732E6465706F736974 CHAINID PUSH6 0x652E62726561 PUSH12 0x646F776E2E4554482E616D6F PUSH22 0x6E746C696162696C69746965732E64657461696C732E PUSH22 0x7365724465706F7369742E627265616B646F776E2E45 SLOAD BASEFEE 0x2E PUSH7 0x61697256616C75 PUSH6 0x737570706C65 PUSH14 0x656E74616C5363686564756C654F PUSH7 0x4E6F6E43617368 0x4F PUSH17 0x65726174696E6741637469766974696573 0x2E PUSH5 0x657461696C PUSH20 0x2E63727970746F63757272656E63696573446570 PUSH16 0x73697465644279437573746F6D657273 0x2E PUSH3 0x726561 PUSH12 0x646F776E2E4554482E616D6F PUSH22 0x6E746173736574732E64657461696C732E6372797074 PUSH16 0x63757272656E63792E627265616B646F PUSH24 0x6E2E4554482E616D6F756E746173736574732E6465746169 PUSH13 0x732E63727970746F6375727265 PUSH15 0x63792E746F74616C416D6F756E7446 PUSH2 0x6972 JUMP PUSH2 0x6C75 PUSH6 0x737570706C65 PUSH14 0x656E74616C5363686564756C654F PUSH7 0x4E6F6E43617368 0x4F PUSH17 0x65726174696E6741637469766974696573 0x2E PUSH5 0x657461696C PUSH20 0x2E63727970746F63757272656E63696573456E64 0x4F PUSH7 0x506572696F6473 PUSH22 0x70706C656D656E74616C5363686564756C654F664E6F PUSH15 0x436173684F7065726174696E674163 PUSH21 0x697669746965732E64657461696C732E6372797074 PUSH16 0x63757272656E63696573526563656976 PUSH6 0x6446726F6D43 PUSH22 0x73746F6D65727341735472616E73616374696F6E4665 PUSH6 0x732E62726561 PUSH12 0x646F776E2E4554482E616D6F PUSH22 0x6E74696E636F6D652E64657461696C732E6465706F73 PUSH10 0x744665652E627265616B PUSH5 0x6F776E2E45 SLOAD BASEFEE 0x2E PUSH24 0x6569676874656441766572616765436F7374737570706C65 PUSH14 0x656E74616C5363686564756C654F PUSH7 0x4E6F6E43617368 0x4F PUSH17 0x65726174696E6741637469766974696573 0x2E PUSH24 0x6569676874656441766572616765436F7374746F74616C4C PUSH10 0x6162696C697469657341 PUSH15 0x644571756974794661697256616C75 PUSH6 0x657175697479 0x2E PUSH5 0x657461696C PUSH20 0x2E72657461696E65644561726E696E67732E6272 PUSH6 0x616B646F776E 0x2E GASLIMIT SLOAD BASEFEE 0x2E PUSH7 0x61697256616C75 PUSH6 0x696E636F6D65 0x2E PUSH5 0x657461696C PUSH20 0x2E6465706F7369744665652E7765696768746564 COINBASE PUSH23 0x6572616765436F73746C696162696C69746965732E6465 PUSH21 0x61696C732E757365724465706F7369742E746F7461 PUSH13 0x416D6F756E744661697256616C PUSH22 0x65737570706C656D656E74616C5363686564756C654F PUSH7 0x4E6F6E43617368 0x4F PUSH17 0x65726174696E6741637469766974696573 0x2E PUSH5 0x657461696C PUSH20 0x2E63727970746F63757272656E63696573446570 PUSH16 0x73697465644279437573746F6D657273 0x2E PUSH3 0x726561 PUSH12 0x646F776E2E4554482E776569 PUSH8 0x6874656441766572 PUSH2 0x6765 NUMBER PUSH16 0x73746571756974792E64657461696C73 0x2E PUSH19 0x657461696E65644561726E696E67732E627265 PUSH2 0x6B64 PUSH16 0x776E2E4554482E616D6F756E74657175 PUSH10 0x74792E64657461696C73 0x2E PUSH19 0x657461696E65644561726E696E67732E746F74 PUSH2 0x6C41 PUSH14 0x6F756E744661697256616C756573 PUSH22 0x70706C656D656E74616C5363686564756C654F664E6F PUSH15 0x436173684F7065726174696E674163 PUSH21 0x697669746965732E64657461696C732E6372797074 PUSH16 0x63757272656E63696573526563656976 PUSH6 0x6446726F6D43 PUSH22 0x73746F6D65727341735472616E73616374696F6E4665 PUSH6 0x732E62726561 PUSH12 0x646F776E2E4554482E776569 PUSH8 0x6874656441766572 PUSH2 0x6765 NUMBER PUSH16 0x73746C696162696C69746965732E6465 PUSH21 0x61696C732E757365724465706F7369742E62726561 PUSH12 0x646F776E2E4554482E616D6F PUSH22 0x6E74737570706C656D656E74616C5363686564756C65 0x4F PUSH7 0x4E6F6E43617368 0x4F PUSH17 0x65726174696E6741637469766974696573 0x2E PUSH5 0x657461696C PUSH20 0x2E63727970746F63757272656E63696573526563 PUSH6 0x697665644672 PUSH16 0x6D437573746F6D65727341735472616E PUSH20 0x616374696F6E466565732E776569676874656441 PUSH23 0x6572616765436F73746173736574732E64657461696C73 0x2E PUSH4 0x72797074 PUSH16 0x63757272656E63792E627265616B646F PUSH24 0x6E2E4554482E6661697256616C7565737570706C656D656E PUSH21 0x616C5363686564756C654F664E6F6E436173684F70 PUSH6 0x726174696E67 COINBASE PUSH4 0x74697669 PUSH21 0x6965732E64657461696C732E63727970746F637572 PUSH19 0x656E636965734465706F736974656442794375 PUSH20 0x746F6D6572732E77656967687465644176657261 PUSH8 0x65436F7374A26469 PUSH17 0x667358221220875036BEFF00C919BAA782 0x4A 0xCD PUSH11 0xF207BDF4E6F89CF1E648F6 COINBASE PUSH25 0xE1399D9D4F64736F6C63430008120033000000000000000000 "
		},
		"gasEstimates": {
			"creation": {
				"codeDepositCost": "2788000",
				"executionCost": "infinite",
				"totalCost": "infinite"
			},
			"external": {
				"getEventIdAndRate(string,string,int256,int256,int256)": "infinite",
				"report()": "infinite",
				"transactionContract()": "infinite"
			},
			"internal": {
				"computeBalanceSheet()": "infinite",
				"computeCashFlow()": "infinite",
				"computeComprehesiveIncome()": "infinite"
			}
		},
		"methodIdentifiers": {
			"getEventIdAndRate(string,string,int256,int256,int256)": "ae8c0dd6",
			"report()": "2606a10b",
			"transactionContract()": "1f45275b"
		}
	},
	"abi": [
		{
			"inputs": [
				{
					"internalType": "address",
					"name": "_transactionContractAddress",
					"type": "address"
				},
				{
					"internalType": "address",
					"name": "_reportAddress",
					"type": "address"
				}
			],
			"stateMutability": "nonpayable",
			"type": "constructor"
		},
		{
			"anonymous": false,
			"inputs": [
				{
					"indexed": false,
					"internalType": "string",
					"name": "eventId",
					"type": "string"
				},
				{
					"indexed": false,
					"internalType": "int256",
					"name": "EP001",
					"type": "int256"
				},
				{
					"indexed": false,
					"internalType": "int256",
					"name": "EP002",
					"type": "int256"
				},
				{
					"indexed": false,
					"internalType": "int256",
					"name": "EP003",
					"type": "int256"
				},
				{
					"indexed": false,
					"internalType": "int256",
					"name": "EP005",
					"type": "int256"
				}
			],
			"name": "EventEP001",
			"type": "event"
		},
		{
			"anonymous": false,
			"inputs": [
				{
					"indexed": false,
					"internalType": "string",
					"name": "eventId",
					"type": "string"
				},
				{
					"indexed": false,
					"internalType": "int256",
					"name": "SP002",
					"type": "int256"
				},
				{
					"indexed": false,
					"internalType": "int256",
					"name": "SP003",
					"type": "int256"
				},
				{
					"indexed": false,
					"internalType": "int256",
					"name": "SP004",
					"type": "int256"
				}
			],
			"name": "EventIdAndRateReceived",
			"type": "event"
		},
		{
			"inputs": [
				{
					"internalType": "string",
					"name": "_eventId",
					"type": "string"
				},
				{
					"internalType": "string",
					"name": "_reportID",
					"type": "string"
				},
				{
					"internalType": "int256",
					"name": "_SP002",
					"type": "int256"
				},
				{
					"internalType": "int256",
					"name": "_SP003",
					"type": "int256"
				},
				{
					"internalType": "int256",
					"name": "_SP004",
					"type": "int256"
				}
			],
			"name": "getEventIdAndRate",
			"outputs": [],
			"stateMutability": "nonpayable",
			"type": "function"
		},
		{
			"inputs": [],
			"name": "report",
			"outputs": [
				{
					"internalType": "contract Reports",
					"name": "",
					"type": "address"
				}
			],
			"stateMutability": "view",
			"type": "function"
		},
		{
			"inputs": [],
			"name": "transactionContract",
			"outputs": [
				{
					"internalType": "contract TransactionContract",
					"name": "",
					"type": "address"
				}
			],
			"stateMutability": "view",
			"type": "function"
		}
	]
}