{
	"data": {
		"bytecode": {
			"linkReferences": {},
			"object": "60806040523480156200001157600080fd5b50604051620047a6380380620047a683398181016040528101906200003791906200016c565b82600b60006101000a81548173ffffffffffffffffffffffffffffffffffffffff021916908373ffffffffffffffffffffffffffffffffffffffff16021790555081600c60006101000a81548173ffffffffffffffffffffffffffffffffffffffff021916908373ffffffffffffffffffffffffffffffffffffffff160217905550806000806101000a81548173ffffffffffffffffffffffffffffffffffffffff021916908373ffffffffffffffffffffffffffffffffffffffff160217905550505050620001c8565b600080fd5b600073ffffffffffffffffffffffffffffffffffffffff82169050919050565b6000620001348262000107565b9050919050565b620001468162000127565b81146200015257600080fd5b50565b60008151905062000166816200013b565b92915050565b60008060006060848603121562000188576200018762000102565b5b6000620001988682870162000155565b9350506020620001ab8682870162000155565b9250506040620001be8682870162000155565b9150509250925092565b6145ce80620001d86000396000f3fe608060405234801561001057600080fd5b506004361061004c5760003560e01c80631d4fd87f146100515780631f45275b1461006d5780632606a10b1461008b578063e064d199146100a9575b600080fd5b61006b60048036038101906100669190612f59565b6100c7565b005b6100756109c4565b6040516100829190613053565b60405180910390f35b6100936109ea565b6040516100a0919061308f565b60405180910390f35b6100b1610a0e565b6040516100be91906130cb565b60405180910390f35b8260001c6001819055508160001c6002819055508060001c600381905550600c60009054906101000a900473ffffffffffffffffffffffffffffffffffffffff1673ffffffffffffffffffffffffffffffffffffffff16639201de55866040518263ffffffff1660e01b815260040161014091906130f5565b600060405180830381865afa15801561015d573d6000803e3d6000fd5b505050506040513d6000823e3d601f19601f820116820180604052508101906101869190613271565b6009908161019491906134d1565b50600c60009054906101000a900473ffffffffffffffffffffffffffffffffffffffff1673ffffffffffffffffffffffffffffffffffffffff16639201de55856040518263ffffffff1660e01b81526004016101f091906130f5565b600060405180830381865afa15801561020d573d6000803e3d6000fd5b505050506040513d6000823e3d601f19601f820116820180604052508101906102369190613271565b600a908161024491906134d1565b507fb620de9f970909d721ffb707c84b4e17fdfd5f2e77d42c78b5b3e72219b4c00160096001546002546003546040516102819493929190613651565b60405180910390a1600b60009054906101000a900473ffffffffffffffffffffffffffffffffffffffff1673ffffffffffffffffffffffffffffffffffffffff1663419e413886600c60009054906101000a900473ffffffffffffffffffffffffffffffffffffffff1673ffffffffffffffffffffffffffffffffffffffff1663cfb519286040518163ffffffff1660e01b8152600401610321906136e9565b602060405180830381865afa15801561033e573d6000803e3d6000fd5b505050506040513d601f19601f82011682018060405250810190610362919061371e565b6040518363ffffffff1660e01b815260040161037f92919061374b565b602060405180830381865afa15801561039c573d6000803e3d6000fd5b505050506040513d601f19601f820116820180604052508101906103c091906137a0565b600481905550600b60009054906101000a900473ffffffffffffffffffffffffffffffffffffffff1673ffffffffffffffffffffffffffffffffffffffff1663419e413886600c60009054906101000a900473ffffffffffffffffffffffffffffffffffffffff1673ffffffffffffffffffffffffffffffffffffffff1663cfb519286040518163ffffffff1660e01b815260040161045e90613819565b602060405180830381865afa15801561047b573d6000803e3d6000fd5b505050506040513d601f19601f8201168201806040525081019061049f919061371e565b6040518363ffffffff1660e01b81526004016104bc92919061374b565b602060405180830381865afa1580156104d9573d6000803e3d6000fd5b505050506040513d601f19601f820116820180604052508101906104fd91906137a0565b600581905550600b60009054906101000a900473ffffffffffffffffffffffffffffffffffffffff1673ffffffffffffffffffffffffffffffffffffffff1663419e413886600c60009054906101000a900473ffffffffffffffffffffffffffffffffffffffff1673ffffffffffffffffffffffffffffffffffffffff1663cfb519286040518163ffffffff1660e01b815260040161059b90613885565b602060405180830381865afa1580156105b8573d6000803e3d6000fd5b505050506040513d601f19601f820116820180604052508101906105dc919061371e565b6040518363ffffffff1660e01b81526004016105f992919061374b565b602060405180830381865afa158015610616573d6000803e3d6000fd5b505050506040513d601f19601f8201168201806040525081019061063a91906137a0565b600681905550600b60009054906101000a900473ffffffffffffffffffffffffffffffffffffffff1673ffffffffffffffffffffffffffffffffffffffff1663419e413886600c60009054906101000a900473ffffffffffffffffffffffffffffffffffffffff1673ffffffffffffffffffffffffffffffffffffffff1663cfb519286040518163ffffffff1660e01b81526004016106d8906138f1565b602060405180830381865afa1580156106f5573d6000803e3d6000fd5b505050506040513d601f19601f82011682018060405250810190610719919061371e565b6040518363ffffffff1660e01b815260040161073692919061374b565b602060405180830381865afa158015610753573d6000803e3d6000fd5b505050506040513d601f19601f8201168201806040525081019061077791906137a0565b600781905550600b60009054906101000a900473ffffffffffffffffffffffffffffffffffffffff1673ffffffffffffffffffffffffffffffffffffffff1663419e413886600c60009054906101000a900473ffffffffffffffffffffffffffffffffffffffff1673ffffffffffffffffffffffffffffffffffffffff1663cfb519286040518163ffffffff1660e01b81526004016108159061395d565b602060405180830381865afa158015610832573d6000803e3d6000fd5b505050506040513d601f19601f82011682018060405250810190610856919061371e565b6040518363ffffffff1660e01b815260040161087392919061374b565b602060405180830381865afa158015610890573d6000803e3d6000fd5b505050506040513d601f19601f820116820180604052508101906108b491906137a0565b6008819055507fec7cc031eaf76f3e9e7db86a8b9fe53b8ac03f5d2661fe2996c869dd21df1be1600c60009054906101000a900473ffffffffffffffffffffffffffffffffffffffff1673ffffffffffffffffffffffffffffffffffffffff16639201de55876040518263ffffffff1660e01b815260040161093691906130f5565b600060405180830381865afa158015610953573d6000803e3d6000fd5b505050506040513d6000823e3d601f19601f8201168201806040525081019061097c9190613271565b60045460055460065460075460085460405161099d969594939291906139b6565b60405180910390a16109ad610a34565b6109b5611b3f565b6109bd6121c4565b5050505050565b600b60009054906101000a900473ffffffffffffffffffffffffffffffffffffffff1681565b60008054906101000a900473ffffffffffffffffffffffffffffffffffffffff1681565b600c60009054906101000a900473ffffffffffffffffffffffffffffffffffffffff1681565b6000670de0b6b3a7640000600254600754610a4e90613a4d565b610a589190613a95565b600254600654600554600454610a6d90613a4d565b610a779190613b0d565b610a819190613b0d565b610a8b9190613a95565b610a959190613b0d565b610a9f9190613b80565b90506000600467ffffffffffffffff811115610abe57610abd61312b565b5b604051908082528060200260200182016040528015610af157816020015b6060815260200190600190039081610adc5790505b509050604051806060016040528060328152602001613e6f6032913981600081518110610b2157610b20613bea565b5b60200260200101819052506040518060400160405280601b81526020017f6173736574732e746f74616c416d6f756e744661697256616c7565000000000081525081600181518110610b7657610b75613bea565b5b60200260200101819052506040518060400160405280601481526020017f746f74616c4173736574734661697256616c756500000000000000000000000081525081600281518110610bcb57610bca613bea565b5b602002602001018190525060405180606001604052806035815260200161447f6035913981600381518110610c0357610c02613bea565b5b602002602001018190525060008054906101000a900473ffffffffffffffffffffffffffffffffffffffff1673ffffffffffffffffffffffffffffffffffffffff16637a1a29fb600a83600081518110610c6057610c5f613bea565b5b6020026020010151856040518463ffffffff1660e01b8152600401610c8793929190613c65565b600060405180830381600087803b158015610ca157600080fd5b505af1158015610cb5573d6000803e3d6000fd5b5050505060008054906101000a900473ffffffffffffffffffffffffffffffffffffffff1673ffffffffffffffffffffffffffffffffffffffff16637a1a29fb600a83600181518110610d0b57610d0a613bea565b5b6020026020010151856040518463ffffffff1660e01b8152600401610d3293929190613c65565b600060405180830381600087803b158015610d4c57600080fd5b505af1158015610d60573d6000803e3d6000fd5b5050505060008054906101000a900473ffffffffffffffffffffffffffffffffffffffff1673ffffffffffffffffffffffffffffffffffffffff16637a1a29fb600a83600281518110610db657610db5613bea565b5b6020026020010151856040518463ffffffff1660e01b8152600401610ddd93929190613c65565b600060405180830381600087803b158015610df757600080fd5b505af1158015610e0b573d6000803e3d6000fd5b5050505060008054906101000a900473ffffffffffffffffffffffffffffffffffffffff1673ffffffffffffffffffffffffffffffffffffffff16637a1a29fb600a83600381518110610e6157610e60613bea565b5b6020026020010151856040518463ffffffff1660e01b8152600401610e8893929190613c65565b600060405180830381600087803b158015610ea257600080fd5b505af1158015610eb6573d6000803e3d6000fd5b505050506000670de0b6b3a7640000600754610ed190613a4d565b600654600554600454610ee390613a4d565b610eed9190613b0d565b610ef79190613b0d565b610f019190613b0d565b610f0b9190613b80565b90506000600167ffffffffffffffff811115610f2a57610f2961312b565b5b604051908082528060200260200182016040528015610f5d57816020015b6060815260200190600190039081610f485790505b509050604051806060016040528060328152602001613e3d6032913981600081518110610f8d57610f8c613bea565b5b602002602001018190525060008054906101000a900473ffffffffffffffffffffffffffffffffffffffff1673ffffffffffffffffffffffffffffffffffffffff16637a1a29fb600a83600081518110610fea57610fe9613bea565b5b6020026020010151856040518463ffffffff1660e01b815260040161101193929190613c65565b600060405180830381600087803b15801561102b57600080fd5b505af115801561103f573d6000803e3d6000fd5b505050506000670de0b6b3a764000060025460045461105d90613a4d565b6110679190613a95565b6110719190613b80565b90506000600367ffffffffffffffff8111156110905761108f61312b565b5b6040519080825280602002602001820160405280156110c357816020015b60608152602001906001900390816110ae5790505b50905060405180606001604052806034815260200161408d60349139816000815181106110f3576110f2613bea565b5b6020026020010181905250604051806060016040528060378152602001613e06603791398160018151811061112b5761112a613bea565b5b60200260200101819052506040518060400160405280602081526020017f6c696162696c69746965732e746f74616c416d6f756e744661697256616c7565815250816002815181106111805761117f613bea565b5b602002602001018190525060008054906101000a900473ffffffffffffffffffffffffffffffffffffffff1673ffffffffffffffffffffffffffffffffffffffff16637a1a29fb600a836000815181106111dd576111dc613bea565b5b6020026020010151856040518463ffffffff1660e01b815260040161120493929190613c65565b600060405180830381600087803b15801561121e57600080fd5b505af1158015611232573d6000803e3d6000fd5b5050505060008054906101000a900473ffffffffffffffffffffffffffffffffffffffff1673ffffffffffffffffffffffffffffffffffffffff16637a1a29fb600a8360018151811061128857611287613bea565b5b6020026020010151856040518463ffffffff1660e01b81526004016112af93929190613c65565b600060405180830381600087803b1580156112c957600080fd5b505af11580156112dd573d6000803e3d6000fd5b5050505060008054906101000a900473ffffffffffffffffffffffffffffffffffffffff1673ffffffffffffffffffffffffffffffffffffffff16637a1a29fb600a8360028151811061133357611332613bea565b5b6020026020010151856040518463ffffffff1660e01b815260040161135a93929190613c65565b600060405180830381600087803b15801561137457600080fd5b505af1158015611388573d6000803e3d6000fd5b50505050600060045461139a90613a4d565b90506000600167ffffffffffffffff8111156113b9576113b861312b565b5b6040519080825280602002602001820160405280156113ec57816020015b60608152602001906001900390816113d75790505b509050604051806060016040528060348152602001614411603491398160008151811061141c5761141b613bea565b5b602002602001018190525060008054906101000a900473ffffffffffffffffffffffffffffffffffffffff1673ffffffffffffffffffffffffffffffffffffffff16637a1a29fb600a8360008151811061147957611478613bea565b5b6020026020010151856040518463ffffffff1660e01b81526004016114a093929190613c65565b600060405180830381600087803b1580156114ba57600080fd5b505af11580156114ce573d6000803e3d6000fd5b505050506000670de0b6b3a76400006002546007546114ec90613a4d565b6114f69190613a95565b6002546006546005546115099190613b0d565b6115139190613a95565b61151d9190613b0d565b6115279190613b80565b90506000600367ffffffffffffffff8111156115465761154561312b565b5b60405190808252806020026020018201604052801561157957816020015b60608152602001906001900390816115645790505b50905060405180606001604052806034815260200161427d60349139816000815181106115a9576115a8613bea565b5b60200260200101819052506040518060400160405280601b81526020017f6571756974792e746f74616c416d6f756e744661697256616c75650000000000815250816001815181106115fe576115fd613bea565b5b6020026020010181905250604051806060016040528060378152602001614056603791398160028151811061163657611635613bea565b5b602002602001018190525060008054906101000a900473ffffffffffffffffffffffffffffffffffffffff1673ffffffffffffffffffffffffffffffffffffffff16637a1a29fb600a8360008151811061169357611692613bea565b5b6020026020010151856040518463ffffffff1660e01b81526004016116ba93929190613c65565b600060405180830381600087803b1580156116d457600080fd5b505af11580156116e8573d6000803e3d6000fd5b5050505060008054906101000a900473ffffffffffffffffffffffffffffffffffffffff1673ffffffffffffffffffffffffffffffffffffffff16637a1a29fb600a8360018151811061173e5761173d613bea565b5b6020026020010151856040518463ffffffff1660e01b815260040161176593929190613c65565b600060405180830381600087803b15801561177f57600080fd5b505af1158015611793573d6000803e3d6000fd5b5050505060008054906101000a900473ffffffffffffffffffffffffffffffffffffffff1673ffffffffffffffffffffffffffffffffffffffff16637a1a29fb600a836001815181106117e9576117e8613bea565b5b6020026020010151856040518463ffffffff1660e01b815260040161181093929190613c65565b600060405180830381600087803b15801561182a57600080fd5b505af115801561183e573d6000803e3d6000fd5b50505050600060075461185090613a4d565b6006546005546118609190613b0d565b61186a9190613b0d565b90506000600167ffffffffffffffff8111156118895761188861312b565b5b6040519080825280602002602001820160405280156118bc57816020015b60608152602001906001900390816118a75790505b50905060405180606001604052806034815260200161424960349139816000815181106118ec576118eb613bea565b5b602002602001018190525060008054906101000a900473ffffffffffffffffffffffffffffffffffffffff1673ffffffffffffffffffffffffffffffffffffffff16637a1a29fb600a8360008151811061194957611948613bea565b5b6020026020010151856040518463ffffffff1660e01b815260040161197093929190613c65565b600060405180830381600087803b15801561198a57600080fd5b505af115801561199e573d6000803e3d6000fd5b505050506000670de0b6b3a76400006002546007546119bc90613a4d565b6119c69190613a95565b6002546006546004546119d99190613b0d565b6119e39190613a95565b6119ed9190613b0d565b6119f79190613b80565b90506000600167ffffffffffffffff811115611a1657611a1561312b565b5b604051908082528060200260200182016040528015611a4957816020015b6060815260200190600190039081611a345790505b5090506040518060600160405280602281526020016140346022913981600081518110611a7957611a78613bea565b5b602002602001018190525060008054906101000a900473ffffffffffffffffffffffffffffffffffffffff1673ffffffffffffffffffffffffffffffffffffffff16637a1a29fb600a83600081518110611ad657611ad5613bea565b5b6020026020010151856040518463ffffffff1660e01b8152600401611afd93929190613c65565b600060405180830381600087803b158015611b1757600080fd5b505af1158015611b2b573d6000803e3d6000fd5b505050505050505050505050505050505050565b6000670de0b6b3a7640000600854600654600554611b5d9190613b0d565b611b679190613a95565b611b719190613b80565b90506000600267ffffffffffffffff811115611b9057611b8f61312b565b5b604051908082528060200260200182016040528015611bc357816020015b6060815260200190600190039081611bae5790505b5090506040518060600160405280603081526020016142196030913981600081518110611bf357611bf2613bea565b5b60200260200101819052506040518060600160405280603f81526020016141da603f913981600181518110611c2b57611c2a613bea565b5b602002602001018190525060008054906101000a900473ffffffffffffffffffffffffffffffffffffffff1673ffffffffffffffffffffffffffffffffffffffff16637a1a29fb600a83600081518110611c8857611c87613bea565b5b6020026020010151856040518463ffffffff1660e01b8152600401611caf93929190613d09565b600060405180830381600087803b158015611cc957600080fd5b505af1158015611cdd573d6000803e3d6000fd5b5050505060008054906101000a900473ffffffffffffffffffffffffffffffffffffffff1673ffffffffffffffffffffffffffffffffffffffff16637a1a29fb600a83600181518110611d3357611d32613bea565b5b6020026020010151856040518463ffffffff1660e01b8152600401611d5a93929190613d09565b600060405180830381600087803b158015611d7457600080fd5b505af1158015611d88573d6000803e3d6000fd5b505050506000600654600554611d9e9190613b0d565b90506000600167ffffffffffffffff811115611dbd57611dbc61312b565b5b604051908082528060200260200182016040528015611df057816020015b6060815260200190600190039081611ddb5790505b5090506040518060600160405280603281526020016143df6032913981600081518110611e2057611e1f613bea565b5b602002602001018190525060008054906101000a900473ffffffffffffffffffffffffffffffffffffffff1673ffffffffffffffffffffffffffffffffffffffff16637a1a29fb600a83600081518110611e7d57611e7c613bea565b5b6020026020010151856040518463ffffffff1660e01b8152600401611ea493929190613d09565b600060405180830381600087803b158015611ebe57600080fd5b505af1158015611ed2573d6000803e3d6000fd5b505050506000670de0b6b3a7640000600854600754611ef090613a4d565b611efa9190613a95565b611f049190613b80565b90506000600267ffffffffffffffff811115611f2357611f2261312b565b5b604051908082528060200260200182016040528015611f5657816020015b6060815260200190600190039081611f415790505b5090506040518060600160405280603681526020016140c16036913981600081518110611f8657611f85613bea565b5b60200260200101819052506040518060600160405280603a8152602001614445603a913981600181518110611fbe57611fbd613bea565b5b602002602001018190525060008054906101000a900473ffffffffffffffffffffffffffffffffffffffff1673ffffffffffffffffffffffffffffffffffffffff16637a1a29fb600a8360008151811061201b5761201a613bea565b5b6020026020010151856040518463ffffffff1660e01b815260040161204293929190613d09565b600060405180830381600087803b15801561205c57600080fd5b505af1158015612070573d6000803e3d6000fd5b50505050600060075461208290613a4d565b90506000600167ffffffffffffffff8111156120a1576120a061312b565b5b6040519080825280602002602001820160405280156120d457816020015b60608152602001906001900390816120bf5790505b5090506040518060600160405280603781526020016143a8603791398160008151811061210457612103613bea565b5b602002602001018190525060008054906101000a900473ffffffffffffffffffffffffffffffffffffffff1673ffffffffffffffffffffffffffffffffffffffff16637a1a29fb600a8360008151811061216157612160613bea565b5b6020026020010151856040518463ffffffff1660e01b815260040161218893929190613d09565b600060405180830381600087803b1580156121a257600080fd5b505af11580156121b6573d6000803e3d6000fd5b505050505050505050505050565b6000670de0b6b3a76400006008546004546121de90613a4d565b6121e89190613a95565b6121f29190613b80565b90506000600267ffffffffffffffff8111156122115761221061312b565b5b60405190808252806020026020018201604052801561224457816020015b606081526020019060019003908161222f5790505b5090506040518060a00160405280607181526020016140f7607191398160008151811061227457612273613bea565b5b60200260200101819052506040518060a00160405280607f81526020016142b1607f9139816001815181106122ac576122ab613bea565b5b602002602001018190525060008054906101000a900473ffffffffffffffffffffffffffffffffffffffff1673ffffffffffffffffffffffffffffffffffffffff16637a1a29fb600a8360008151811061230957612308613bea565b5b6020026020010151856040518463ffffffff1660e01b815260040161233093929190613dad565b600060405180830381600087803b15801561234a57600080fd5b505af115801561235e573d6000803e3d6000fd5b5050505060008054906101000a900473ffffffffffffffffffffffffffffffffffffffff1673ffffffffffffffffffffffffffffffffffffffff16637a1a29fb600a836001815181106123b4576123b3613bea565b5b6020026020010151856040518463ffffffff1660e01b81526004016123db93929190613dad565b600060405180830381600087803b1580156123f557600080fd5b505af1158015612409573d6000803e3d6000fd5b50505050600060045461241b90613a4d565b90506000600167ffffffffffffffff81111561243a5761243961312b565b5b60405190808252806020026020018201604052801561246d57816020015b60608152602001906001900390816124585790505b5090506040518060a0016040528060728152602001614168607291398160008151811061249d5761249c613bea565b5b602002602001018190525060008054906101000a900473ffffffffffffffffffffffffffffffffffffffff1673ffffffffffffffffffffffffffffffffffffffff16637a1a29fb600a836000815181106124fa576124f9613bea565b5b6020026020010151856040518463ffffffff1660e01b815260040161252193929190613dad565b600060405180830381600087803b15801561253b57600080fd5b505af115801561254f573d6000803e3d6000fd5b5050505060006006546005546125659190613b0d565b90506000600167ffffffffffffffff8111156125845761258361312b565b5b6040519080825280602002602001820160405280156125b757816020015b60608152602001906001900390816125a25790505b5090506040518060c0016040528060848152602001613ef560849139816000815181106125e7576125e6613bea565b5b602002602001018190525060008054906101000a900473ffffffffffffffffffffffffffffffffffffffff1673ffffffffffffffffffffffffffffffffffffffff16637a1a29fb600a8360008151811061264457612643613bea565b5b6020026020010151856040518463ffffffff1660e01b815260040161266b93929190613dad565b600060405180830381600087803b15801561268557600080fd5b505af1158015612699573d6000803e3d6000fd5b505050506000670de0b6b3a76400006008546006546005546126bb9190613b0d565b6126c59190613a95565b6126cf9190613b80565b90506000600267ffffffffffffffff8111156126ee576126ed61312b565b5b60405190808252806020026020018201604052801561272157816020015b606081526020019060019003908161270c5790505b509050604051806080016040528060448152602001613ff0604491398160008151811061275157612750613bea565b5b6020026020010181905250604051806080016040528060548152602001613ea1605491398160018151811061278957612788613bea565b5b602002602001018190525060008054906101000a900473ffffffffffffffffffffffffffffffffffffffff1673ffffffffffffffffffffffffffffffffffffffff16637a1a29fb600a836000815181106127e6576127e5613bea565b5b6020026020010151856040518463ffffffff1660e01b815260040161280d93929190613dad565b600060405180830381600087803b15801561282757600080fd5b505af115801561283b573d6000803e3d6000fd5b5050505060008054906101000a900473ffffffffffffffffffffffffffffffffffffffff1673ffffffffffffffffffffffffffffffffffffffff16637a1a29fb600a8360018151811061289157612890613bea565b5b6020026020010151856040518463ffffffff1660e01b81526004016128b893929190613dad565b600060405180830381600087803b1580156128d257600080fd5b505af11580156128e6573d6000803e3d6000fd5b505050506000670de0b6b3a764000060085460075461290490613a4d565b61290e9190613a95565b6129189190613b80565b90506000600267ffffffffffffffff8111156129375761293661312b565b5b60405190808252806020026020018201604052801561296a57816020015b60608152602001906001900390816129555790505b5090506040518060a0016040528060778152602001613f79607791398160008151811061299a57612999613bea565b5b60200260200101819052506040518060c001604052806085815260200161451460859139816001815181106129d2576129d1613bea565b5b602002602001018190525060008054906101000a900473ffffffffffffffffffffffffffffffffffffffff1673ffffffffffffffffffffffffffffffffffffffff16637a1a29fb600a83600081518110612a2f57612a2e613bea565b5b6020026020010151856040518463ffffffff1660e01b8152600401612a5693929190613dad565b600060405180830381600087803b158015612a7057600080fd5b505af1158015612a84573d6000803e3d6000fd5b5050505060008054906101000a900473ffffffffffffffffffffffffffffffffffffffff1673ffffffffffffffffffffffffffffffffffffffff16637a1a29fb600a83600181518110612ada57612ad9613bea565b5b6020026020010151856040518463ffffffff1660e01b8152600401612b0193929190613dad565b600060405180830381600087803b158015612b1b57600080fd5b505af1158015612b2f573d6000803e3d6000fd5b505050506000600754612b4190613a4d565b90506000600167ffffffffffffffff811115612b6057612b5f61312b565b5b604051908082528060200260200182016040528015612b9357816020015b6060815260200190600190039081612b7e5790505b5090506040518060a00160405280607881526020016143306078913981600081518110612bc357612bc2613bea565b5b602002602001018190525060008054906101000a900473ffffffffffffffffffffffffffffffffffffffff1673ffffffffffffffffffffffffffffffffffffffff16637a1a29fb600a83600081518110612c2057612c1f613bea565b5b6020026020010151856040518463ffffffff1660e01b8152600401612c4793929190613dad565b600060405180830381600087803b158015612c6157600080fd5b505af1158015612c75573d6000803e3d6000fd5b505050506000670de0b6b3a7640000600854600754612c9390613a4d565b612c9d9190613a95565b600854600654600554600454612cb290613a4d565b612cbc9190613b0d565b612cc69190613b0d565b612cd09190613a95565b612cda9190613b0d565b612ce49190613b80565b90506000600267ffffffffffffffff811115612d0357612d0261312b565b5b604051908082528060200260200182016040528015612d3657816020015b6060815260200190600190039081612d215790505b509050604051806080016040528060448152602001613ff06044913981600081518110612d6657612d65613bea565b5b60200260200101819052506040518060800160405280606081526020016144b46060913981600181518110612d9e57612d9d613bea565b5b602002602001018190525060008054906101000a900473ffffffffffffffffffffffffffffffffffffffff1673ffffffffffffffffffffffffffffffffffffffff16637a1a29fb600a83600081518110612dfb57612dfa613bea565b5b6020026020010151856040518463ffffffff1660e01b8152600401612e2293929190613dad565b600060405180830381600087803b158015612e3c57600080fd5b505af1158015612e50573d6000803e3d6000fd5b5050505060008054906101000a900473ffffffffffffffffffffffffffffffffffffffff1673ffffffffffffffffffffffffffffffffffffffff16637a1a29fb600a83600181518110612ea657612ea5613bea565b5b6020026020010151856040518463ffffffff1660e01b8152600401612ecd93929190613dad565b600060405180830381600087803b158015612ee757600080fd5b505af1158015612efb573d6000803e3d6000fd5b505050505050505050505050505050505050565b6000604051905090565b600080fd5b600080fd5b6000819050919050565b612f3681612f23565b8114612f4157600080fd5b50565b600081359050612f5381612f2d565b92915050565b600080600080600060a08688031215612f7557612f74612f19565b5b6000612f8388828901612f44565b9550506020612f9488828901612f44565b9450506040612fa588828901612f44565b9350506060612fb688828901612f44565b9250506080612fc788828901612f44565b9150509295509295909350565b600073ffffffffffffffffffffffffffffffffffffffff82169050919050565b6000819050919050565b600061301961301461300f84612fd4565b612ff4565b612fd4565b9050919050565b600061302b82612ffe565b9050919050565b600061303d82613020565b9050919050565b61304d81613032565b82525050565b60006020820190506130686000830184613044565b92915050565b600061307982613020565b9050919050565b6130898161306e565b82525050565b60006020820190506130a46000830184613080565b92915050565b60006130b582613020565b9050919050565b6130c5816130aa565b82525050565b60006020820190506130e060008301846130bc565b92915050565b6130ef81612f23565b82525050565b600060208201905061310a60008301846130e6565b92915050565b600080fd5b600080fd5b6000601f19601f8301169050919050565b7f4e487b7100000000000000000000000000000000000000000000000000000000600052604160045260246000fd5b6131638261311a565b810181811067ffffffffffffffff821117156131825761318161312b565b5b80604052505050565b6000613195612f0f565b90506131a1828261315a565b919050565b600067ffffffffffffffff8211156131c1576131c061312b565b5b6131ca8261311a565b9050602081019050919050565b60005b838110156131f55780820151818401526020810190506131da565b60008484015250505050565b600061321461320f846131a6565b61318b565b9050828152602081018484840111156132305761322f613115565b5b61323b8482856131d7565b509392505050565b600082601f83011261325857613257613110565b5b8151613268848260208601613201565b91505092915050565b60006020828403121561328757613286612f19565b5b600082015167ffffffffffffffff8111156132a5576132a4612f1e565b5b6132b184828501613243565b91505092915050565b600081519050919050565b7f4e487b7100000000000000000000000000000000000000000000000000000000600052602260045260246000fd5b6000600282049050600182168061330c57607f821691505b60208210810361331f5761331e6132c5565b5b50919050565b60008190508160005260206000209050919050565b60006020601f8301049050919050565b600082821b905092915050565b6000600883026133877fffffffffffffffffffffffffffffffffffffffffffffffffffffffffffffffff8261334a565b613391868361334a565b95508019841693508086168417925050509392505050565b6000819050919050565b60006133ce6133c96133c4846133a9565b612ff4565b6133a9565b9050919050565b6000819050919050565b6133e8836133b3565b6133fc6133f4826133d5565b848454613357565b825550505050565b600090565b613411613404565b61341c8184846133df565b505050565b5b8181101561344057613435600082613409565b600181019050613422565b5050565b601f8211156134855761345681613325565b61345f8461333a565b8101602085101561346e578190505b61348261347a8561333a565b830182613421565b50505b505050565b600082821c905092915050565b60006134a86000198460080261348a565b1980831691505092915050565b60006134c18383613497565b9150826002028217905092915050565b6134da826132ba565b67ffffffffffffffff8111156134f3576134f261312b565b5b6134fd82546132f4565b613508828285613444565b600060209050601f83116001811461353b5760008415613529578287015190505b61353385826134b5565b86555061359b565b601f19841661354986613325565b60005b828110156135715784890151825560018201915060208501945060208101905061354c565b8683101561358e578489015161358a601f891682613497565b8355505b6001600288020188555050505b505050505050565b600082825260208201905092915050565b600081546135c1816132f4565b6135cb81866135a3565b945060018216600081146135e657600181146135fc5761362f565b60ff19831686528115156020028601935061362f565b61360585613325565b60005b8381101561362757815481890152600182019150602081019050613608565b808801955050505b50505092915050565b6000819050919050565b61364b81613638565b82525050565b6000608082019050818103600083015261366b81876135b4565b905061367a6020830186613642565b6136876040830185613642565b6136946060830184613642565b95945050505050565b7f4550303031000000000000000000000000000000000000000000000000000000600082015250565b60006136d36005836135a3565b91506136de8261369d565b602082019050919050565b60006020820190508181036000830152613702816136c6565b9050919050565b60008151905061371881612f2d565b92915050565b60006020828403121561373457613733612f19565b5b600061374284828501613709565b91505092915050565b600060408201905061376060008301856130e6565b61376d60208301846130e6565b9392505050565b61377d81613638565b811461378857600080fd5b50565b60008151905061379a81613774565b92915050565b6000602082840312156137b6576137b5612f19565b5b60006137c48482850161378b565b91505092915050565b7f4550303032000000000000000000000000000000000000000000000000000000600082015250565b60006138036005836135a3565b915061380e826137cd565b602082019050919050565b60006020820190508181036000830152613832816137f6565b9050919050565b7f4550303033000000000000000000000000000000000000000000000000000000600082015250565b600061386f6005836135a3565b915061387a82613839565b602082019050919050565b6000602082019050818103600083015261389e81613862565b9050919050565b7f4550303034000000000000000000000000000000000000000000000000000000600082015250565b60006138db6005836135a3565b91506138e6826138a5565b602082019050919050565b6000602082019050818103600083015261390a816138ce565b9050919050565b7f4550303036000000000000000000000000000000000000000000000000000000600082015250565b60006139476005836135a3565b915061395282613911565b602082019050919050565b600060208201905081810360008301526139768161393a565b9050919050565b6000613988826132ba565b61399281856135a3565b93506139a28185602086016131d7565b6139ab8161311a565b840191505092915050565b600060c08201905081810360008301526139d0818961397d565b90506139df6020830188613642565b6139ec6040830187613642565b6139f96060830186613642565b613a066080830185613642565b613a1360a0830184613642565b979650505050505050565b7f4e487b7100000000000000000000000000000000000000000000000000000000600052601160045260246000fd5b6000613a5882613638565b91507f80000000000000000000000000000000000000000000000000000000000000008203613a8a57613a89613a1e565b5b816000039050919050565b6000613aa082613638565b9150613aab83613638565b9250828202613ab981613638565b91507f80000000000000000000000000000000000000000000000000000000000000008414600084121615613af157613af0613a1e565b5b8282058414831517613b0657613b05613a1e565b5b5092915050565b6000613b1882613638565b9150613b2383613638565b925082820190508281121560008312168382126000841215161715613b4b57613b4a613a1e565b5b92915050565b7f4e487b7100000000000000000000000000000000000000000000000000000000600052601260045260246000fd5b6000613b8b82613638565b9150613b9683613638565b925082613ba657613ba5613b51565b5b600160000383147f800000000000000000000000000000000000000000000000000000000000000083141615613bdf57613bde613a1e565b5b828205905092915050565b7f4e487b7100000000000000000000000000000000000000000000000000000000600052603260045260246000fd5b7f62616c616e636553686565740000000000000000000000000000000000000000600082015250565b6000613c4f600c836135a3565b9150613c5a82613c19565b602082019050919050565b60006080820190508181036000830152613c7f81866135b4565b90508181036020830152613c9281613c42565b90508181036040830152613ca6818561397d565b9050613cb56060830184613642565b949350505050565b7f636f6d70726568656e73697665496e636f6d6500000000000000000000000000600082015250565b6000613cf36013836135a3565b9150613cfe82613cbd565b602082019050919050565b60006080820190508181036000830152613d2381866135b4565b90508181036020830152613d3681613ce6565b90508181036040830152613d4a818561397d565b9050613d596060830184613642565b949350505050565b7f63617368466c6f77000000000000000000000000000000000000000000000000600082015250565b6000613d976008836135a3565b9150613da282613d61565b602082019050919050565b60006080820190508181036000830152613dc781866135b4565b90508181036020830152613dda81613d8a565b90508181036040830152613dee818561397d565b9050613dfd6060830184613642565b94935050505056fe6c696162696c69746965732e64657461696c732e757365724465706f7369742e627265616b646f776e2e4554482e6661697256616c75656173736574732e64657461696c732e63727970746f63757272656e63792e627265616b646f776e2e4554482e616d6f756e746173736574732e64657461696c732e63727970746f63757272656e63792e746f74616c416d6f756e744661697256616c7565737570706c656d656e74616c5363686564756c654f664e6f6e436173684f7065726174696e67416374697669746965732e64657461696c732e63727970746f63757272656e63696573456e644f66506572696f64737570706c656d656e74616c5363686564756c654f664e6f6e436173684f7065726174696e67416374697669746965732e64657461696c732e63727970746f63757272656e63696573526563656976656446726f6d437573746f6d65727341735472616e73616374696f6e466565732e627265616b646f776e2e4554482e616d6f756e74737570706c656d656e74616c5363686564756c654f664e6f6e436173684f7065726174696e67416374697669746965732e64657461696c732e63727970746f63757272656e6369657350616964546f537570706c69657273466f72457870656e7365732e776569676874656441766572616765436f7374737570706c656d656e74616c5363686564756c654f664e6f6e436173684f7065726174696e67416374697669746965732e776569676874656441766572616765436f7374746f74616c4c696162696c6974696573416e644571756974794661697256616c75656571756974792e64657461696c732e72657461696e65644561726e696e67732e627265616b646f776e2e4554482e6661697256616c75656c696162696c69746965732e64657461696c732e757365724465706f7369742e746f74616c416d6f756e744661697256616c7565636f7374732e64657461696c732e746563686e6963616c50726f76696465724665652e776569676874656441766572616765436f7374737570706c656d656e74616c5363686564756c654f664e6f6e436173684f7065726174696e67416374697669746965732e64657461696c732e63727970746f63757272656e6369657357697468647261776e4279437573746f6d6572732e776569676874656441766572616765436f7374737570706c656d656e74616c5363686564756c654f664e6f6e436173684f7065726174696e67416374697669746965732e64657461696c732e63727970746f63757272656e6369657357697468647261776e4279437573746f6d6572732e627265616b646f776e2e4554482e616d6f756e74696e636f6d652e64657461696c732e7769746864726177616c4665652e627265616b646f776e2e555344542e776569676874656441766572616765436f7374696e636f6d652e64657461696c732e7769746864726177616c4665652e776569676874656441766572616765436f73746571756974792e64657461696c732e72657461696e65644561726e696e67732e627265616b646f776e2e4554482e616d6f756e746571756974792e64657461696c732e72657461696e65644561726e696e67732e746f74616c416d6f756e744661697256616c7565737570706c656d656e74616c5363686564756c654f664e6f6e436173684f7065726174696e67416374697669746965732e64657461696c732e63727970746f63757272656e6369657357697468647261776e4279437573746f6d6572732e627265616b646f776e2e4554482e776569676874656441766572616765436f7374737570706c656d656e74616c5363686564756c654f664e6f6e436173684f7065726174696e67416374697669746965732e64657461696c732e63727970746f63757272656e6369657350616964546f537570706c69657273466f72457870656e7365732e627265616b646f776e2e4554482e616d6f756e74636f7374732e64657461696c732e746563686e6963616c50726f76696465724665652e627265616b646f776e2e4554482e616d6f756e74696e636f6d652e64657461696c732e7769746864726177616c4665652e627265616b646f776e2e555344542e616d6f756e746c696162696c69746965732e64657461696c732e757365724465706f7369742e627265616b646f776e2e4554482e616d6f756e74636f7374732e64657461696c732e746563686e6963616c50726f76696465724665652e627265616b646f776e2e4554482e6661697256616c75656173736574732e64657461696c732e63727970746f63757272656e63792e627265616b646f776e2e4554482e6661697256616c75656f74686572537570706c656d656e746172794974656d732e64657461696c732e72656c61746564546f4e6f6e436173682e63727970746f63757272656e63696573456e644f66506572696f642e776569676874656441766572616765436f7374737570706c656d656e74616c5363686564756c654f664e6f6e436173684f7065726174696e67416374697669746965732e64657461696c732e63727970746f63757272656e6369657350616964546f537570706c69657273466f72457870656e7365732e627265616b646f776e2e4554482e776569676874656441766572616765436f7374a26469706673582212206b657dbe124ce9646471722b2dc25b821c9f1a511a7419cb7140da1d6d28b3c964736f6c63430008120033",
			"opcodes": "PUSH1 0x80 PUSH1 0x40 MSTORE CALLVALUE DUP1 ISZERO PUSH3 0x11 JUMPI PUSH1 0x0 DUP1 REVERT JUMPDEST POP PUSH1 0x40 MLOAD PUSH3 0x47A6 CODESIZE SUB DUP1 PUSH3 0x47A6 DUP4 CODECOPY DUP2 DUP2 ADD PUSH1 0x40 MSTORE DUP2 ADD SWAP1 PUSH3 0x37 SWAP2 SWAP1 PUSH3 0x16C JUMP JUMPDEST DUP3 PUSH1 0xB PUSH1 0x0 PUSH2 0x100 EXP DUP2 SLOAD DUP2 PUSH20 0xFFFFFFFFFFFFFFFFFFFFFFFFFFFFFFFFFFFFFFFF MUL NOT AND SWAP1 DUP4 PUSH20 0xFFFFFFFFFFFFFFFFFFFFFFFFFFFFFFFFFFFFFFFF AND MUL OR SWAP1 SSTORE POP DUP2 PUSH1 0xC PUSH1 0x0 PUSH2 0x100 EXP DUP2 SLOAD DUP2 PUSH20 0xFFFFFFFFFFFFFFFFFFFFFFFFFFFFFFFFFFFFFFFF MUL NOT AND SWAP1 DUP4 PUSH20 0xFFFFFFFFFFFFFFFFFFFFFFFFFFFFFFFFFFFFFFFF AND MUL OR SWAP1 SSTORE POP DUP1 PUSH1 0x0 DUP1 PUSH2 0x100 EXP DUP2 SLOAD DUP2 PUSH20 0xFFFFFFFFFFFFFFFFFFFFFFFFFFFFFFFFFFFFFFFF MUL NOT AND SWAP1 DUP4 PUSH20 0xFFFFFFFFFFFFFFFFFFFFFFFFFFFFFFFFFFFFFFFF AND MUL OR SWAP1 SSTORE POP POP POP POP PUSH3 0x1C8 JUMP JUMPDEST PUSH1 0x0 DUP1 REVERT JUMPDEST PUSH1 0x0 PUSH20 0xFFFFFFFFFFFFFFFFFFFFFFFFFFFFFFFFFFFFFFFF DUP3 AND SWAP1 POP SWAP2 SWAP1 POP JUMP JUMPDEST PUSH1 0x0 PUSH3 0x134 DUP3 PUSH3 0x107 JUMP JUMPDEST SWAP1 POP SWAP2 SWAP1 POP JUMP JUMPDEST PUSH3 0x146 DUP2 PUSH3 0x127 JUMP JUMPDEST DUP2 EQ PUSH3 0x152 JUMPI PUSH1 0x0 DUP1 REVERT JUMPDEST POP JUMP JUMPDEST PUSH1 0x0 DUP2 MLOAD SWAP1 POP PUSH3 0x166 DUP2 PUSH3 0x13B JUMP JUMPDEST SWAP3 SWAP2 POP POP JUMP JUMPDEST PUSH1 0x0 DUP1 PUSH1 0x0 PUSH1 0x60 DUP5 DUP7 SUB SLT ISZERO PUSH3 0x188 JUMPI PUSH3 0x187 PUSH3 0x102 JUMP JUMPDEST JUMPDEST PUSH1 0x0 PUSH3 0x198 DUP7 DUP3 DUP8 ADD PUSH3 0x155 JUMP JUMPDEST SWAP4 POP POP PUSH1 0x20 PUSH3 0x1AB DUP7 DUP3 DUP8 ADD PUSH3 0x155 JUMP JUMPDEST SWAP3 POP POP PUSH1 0x40 PUSH3 0x1BE DUP7 DUP3 DUP8 ADD PUSH3 0x155 JUMP JUMPDEST SWAP2 POP POP SWAP3 POP SWAP3 POP SWAP3 JUMP JUMPDEST PUSH2 0x45CE DUP1 PUSH3 0x1D8 PUSH1 0x0 CODECOPY PUSH1 0x0 RETURN INVALID PUSH1 0x80 PUSH1 0x40 MSTORE CALLVALUE DUP1 ISZERO PUSH2 0x10 JUMPI PUSH1 0x0 DUP1 REVERT JUMPDEST POP PUSH1 0x4 CALLDATASIZE LT PUSH2 0x4C JUMPI PUSH1 0x0 CALLDATALOAD PUSH1 0xE0 SHR DUP1 PUSH4 0x1D4FD87F EQ PUSH2 0x51 JUMPI DUP1 PUSH4 0x1F45275B EQ PUSH2 0x6D JUMPI DUP1 PUSH4 0x2606A10B EQ PUSH2 0x8B JUMPI DUP1 PUSH4 0xE064D199 EQ PUSH2 0xA9 JUMPI JUMPDEST PUSH1 0x0 DUP1 REVERT JUMPDEST PUSH2 0x6B PUSH1 0x4 DUP1 CALLDATASIZE SUB DUP2 ADD SWAP1 PUSH2 0x66 SWAP2 SWAP1 PUSH2 0x2F59 JUMP JUMPDEST PUSH2 0xC7 JUMP JUMPDEST STOP JUMPDEST PUSH2 0x75 PUSH2 0x9C4 JUMP JUMPDEST PUSH1 0x40 MLOAD PUSH2 0x82 SWAP2 SWAP1 PUSH2 0x3053 JUMP JUMPDEST PUSH1 0x40 MLOAD DUP1 SWAP2 SUB SWAP1 RETURN JUMPDEST PUSH2 0x93 PUSH2 0x9EA JUMP JUMPDEST PUSH1 0x40 MLOAD PUSH2 0xA0 SWAP2 SWAP1 PUSH2 0x308F JUMP JUMPDEST PUSH1 0x40 MLOAD DUP1 SWAP2 SUB SWAP1 RETURN JUMPDEST PUSH2 0xB1 PUSH2 0xA0E JUMP JUMPDEST PUSH1 0x40 MLOAD PUSH2 0xBE SWAP2 SWAP1 PUSH2 0x30CB JUMP JUMPDEST PUSH1 0x40 MLOAD DUP1 SWAP2 SUB SWAP1 RETURN JUMPDEST DUP3 PUSH1 0x0 SHR PUSH1 0x1 DUP2 SWAP1 SSTORE POP DUP2 PUSH1 0x0 SHR PUSH1 0x2 DUP2 SWAP1 SSTORE POP DUP1 PUSH1 0x0 SHR PUSH1 0x3 DUP2 SWAP1 SSTORE POP PUSH1 0xC PUSH1 0x0 SWAP1 SLOAD SWAP1 PUSH2 0x100 EXP SWAP1 DIV PUSH20 0xFFFFFFFFFFFFFFFFFFFFFFFFFFFFFFFFFFFFFFFF AND PUSH20 0xFFFFFFFFFFFFFFFFFFFFFFFFFFFFFFFFFFFFFFFF AND PUSH4 0x9201DE55 DUP7 PUSH1 0x40 MLOAD DUP3 PUSH4 0xFFFFFFFF AND PUSH1 0xE0 SHL DUP2 MSTORE PUSH1 0x4 ADD PUSH2 0x140 SWAP2 SWAP1 PUSH2 0x30F5 JUMP JUMPDEST PUSH1 0x0 PUSH1 0x40 MLOAD DUP1 DUP4 SUB DUP2 DUP7 GAS STATICCALL ISZERO DUP1 ISZERO PUSH2 0x15D JUMPI RETURNDATASIZE PUSH1 0x0 DUP1 RETURNDATACOPY RETURNDATASIZE PUSH1 0x0 REVERT JUMPDEST POP POP POP POP PUSH1 0x40 MLOAD RETURNDATASIZE PUSH1 0x0 DUP3 RETURNDATACOPY RETURNDATASIZE PUSH1 0x1F NOT PUSH1 0x1F DUP3 ADD AND DUP3 ADD DUP1 PUSH1 0x40 MSTORE POP DUP2 ADD SWAP1 PUSH2 0x186 SWAP2 SWAP1 PUSH2 0x3271 JUMP JUMPDEST PUSH1 0x9 SWAP1 DUP2 PUSH2 0x194 SWAP2 SWAP1 PUSH2 0x34D1 JUMP JUMPDEST POP PUSH1 0xC PUSH1 0x0 SWAP1 SLOAD SWAP1 PUSH2 0x100 EXP SWAP1 DIV PUSH20 0xFFFFFFFFFFFFFFFFFFFFFFFFFFFFFFFFFFFFFFFF AND PUSH20 0xFFFFFFFFFFFFFFFFFFFFFFFFFFFFFFFFFFFFFFFF AND PUSH4 0x9201DE55 DUP6 PUSH1 0x40 MLOAD DUP3 PUSH4 0xFFFFFFFF AND PUSH1 0xE0 SHL DUP2 MSTORE PUSH1 0x4 ADD PUSH2 0x1F0 SWAP2 SWAP1 PUSH2 0x30F5 JUMP JUMPDEST PUSH1 0x0 PUSH1 0x40 MLOAD DUP1 DUP4 SUB DUP2 DUP7 GAS STATICCALL ISZERO DUP1 ISZERO PUSH2 0x20D JUMPI RETURNDATASIZE PUSH1 0x0 DUP1 RETURNDATACOPY RETURNDATASIZE PUSH1 0x0 REVERT JUMPDEST POP POP POP POP PUSH1 0x40 MLOAD RETURNDATASIZE PUSH1 0x0 DUP3 RETURNDATACOPY RETURNDATASIZE PUSH1 0x1F NOT PUSH1 0x1F DUP3 ADD AND DUP3 ADD DUP1 PUSH1 0x40 MSTORE POP DUP2 ADD SWAP1 PUSH2 0x236 SWAP2 SWAP1 PUSH2 0x3271 JUMP JUMPDEST PUSH1 0xA SWAP1 DUP2 PUSH2 0x244 SWAP2 SWAP1 PUSH2 0x34D1 JUMP JUMPDEST POP PUSH32 0xB620DE9F970909D721FFB707C84B4E17FDFD5F2E77D42C78B5B3E72219B4C001 PUSH1 0x9 PUSH1 0x1 SLOAD PUSH1 0x2 SLOAD PUSH1 0x3 SLOAD PUSH1 0x40 MLOAD PUSH2 0x281 SWAP5 SWAP4 SWAP3 SWAP2 SWAP1 PUSH2 0x3651 JUMP JUMPDEST PUSH1 0x40 MLOAD DUP1 SWAP2 SUB SWAP1 LOG1 PUSH1 0xB PUSH1 0x0 SWAP1 SLOAD SWAP1 PUSH2 0x100 EXP SWAP1 DIV PUSH20 0xFFFFFFFFFFFFFFFFFFFFFFFFFFFFFFFFFFFFFFFF AND PUSH20 0xFFFFFFFFFFFFFFFFFFFFFFFFFFFFFFFFFFFFFFFF AND PUSH4 0x419E4138 DUP7 PUSH1 0xC PUSH1 0x0 SWAP1 SLOAD SWAP1 PUSH2 0x100 EXP SWAP1 DIV PUSH20 0xFFFFFFFFFFFFFFFFFFFFFFFFFFFFFFFFFFFFFFFF AND PUSH20 0xFFFFFFFFFFFFFFFFFFFFFFFFFFFFFFFFFFFFFFFF AND PUSH4 0xCFB51928 PUSH1 0x40 MLOAD DUP2 PUSH4 0xFFFFFFFF AND PUSH1 0xE0 SHL DUP2 MSTORE PUSH1 0x4 ADD PUSH2 0x321 SWAP1 PUSH2 0x36E9 JUMP JUMPDEST PUSH1 0x20 PUSH1 0x40 MLOAD DUP1 DUP4 SUB DUP2 DUP7 GAS STATICCALL ISZERO DUP1 ISZERO PUSH2 0x33E JUMPI RETURNDATASIZE PUSH1 0x0 DUP1 RETURNDATACOPY RETURNDATASIZE PUSH1 0x0 REVERT JUMPDEST POP POP POP POP PUSH1 0x40 MLOAD RETURNDATASIZE PUSH1 0x1F NOT PUSH1 0x1F DUP3 ADD AND DUP3 ADD DUP1 PUSH1 0x40 MSTORE POP DUP2 ADD SWAP1 PUSH2 0x362 SWAP2 SWAP1 PUSH2 0x371E JUMP JUMPDEST PUSH1 0x40 MLOAD DUP4 PUSH4 0xFFFFFFFF AND PUSH1 0xE0 SHL DUP2 MSTORE PUSH1 0x4 ADD PUSH2 0x37F SWAP3 SWAP2 SWAP1 PUSH2 0x374B JUMP JUMPDEST PUSH1 0x20 PUSH1 0x40 MLOAD DUP1 DUP4 SUB DUP2 DUP7 GAS STATICCALL ISZERO DUP1 ISZERO PUSH2 0x39C JUMPI RETURNDATASIZE PUSH1 0x0 DUP1 RETURNDATACOPY RETURNDATASIZE PUSH1 0x0 REVERT JUMPDEST POP POP POP POP PUSH1 0x40 MLOAD RETURNDATASIZE PUSH1 0x1F NOT PUSH1 0x1F DUP3 ADD AND DUP3 ADD DUP1 PUSH1 0x40 MSTORE POP DUP2 ADD SWAP1 PUSH2 0x3C0 SWAP2 SWAP1 PUSH2 0x37A0 JUMP JUMPDEST PUSH1 0x4 DUP2 SWAP1 SSTORE POP PUSH1 0xB PUSH1 0x0 SWAP1 SLOAD SWAP1 PUSH2 0x100 EXP SWAP1 DIV PUSH20 0xFFFFFFFFFFFFFFFFFFFFFFFFFFFFFFFFFFFFFFFF AND PUSH20 0xFFFFFFFFFFFFFFFFFFFFFFFFFFFFFFFFFFFFFFFF AND PUSH4 0x419E4138 DUP7 PUSH1 0xC PUSH1 0x0 SWAP1 SLOAD SWAP1 PUSH2 0x100 EXP SWAP1 DIV PUSH20 0xFFFFFFFFFFFFFFFFFFFFFFFFFFFFFFFFFFFFFFFF AND PUSH20 0xFFFFFFFFFFFFFFFFFFFFFFFFFFFFFFFFFFFFFFFF AND PUSH4 0xCFB51928 PUSH1 0x40 MLOAD DUP2 PUSH4 0xFFFFFFFF AND PUSH1 0xE0 SHL DUP2 MSTORE PUSH1 0x4 ADD PUSH2 0x45E SWAP1 PUSH2 0x3819 JUMP JUMPDEST PUSH1 0x20 PUSH1 0x40 MLOAD DUP1 DUP4 SUB DUP2 DUP7 GAS STATICCALL ISZERO DUP1 ISZERO PUSH2 0x47B JUMPI RETURNDATASIZE PUSH1 0x0 DUP1 RETURNDATACOPY RETURNDATASIZE PUSH1 0x0 REVERT JUMPDEST POP POP POP POP PUSH1 0x40 MLOAD RETURNDATASIZE PUSH1 0x1F NOT PUSH1 0x1F DUP3 ADD AND DUP3 ADD DUP1 PUSH1 0x40 MSTORE POP DUP2 ADD SWAP1 PUSH2 0x49F SWAP2 SWAP1 PUSH2 0x371E JUMP JUMPDEST PUSH1 0x40 MLOAD DUP4 PUSH4 0xFFFFFFFF AND PUSH1 0xE0 SHL DUP2 MSTORE PUSH1 0x4 ADD PUSH2 0x4BC SWAP3 SWAP2 SWAP1 PUSH2 0x374B JUMP JUMPDEST PUSH1 0x20 PUSH1 0x40 MLOAD DUP1 DUP4 SUB DUP2 DUP7 GAS STATICCALL ISZERO DUP1 ISZERO PUSH2 0x4D9 JUMPI RETURNDATASIZE PUSH1 0x0 DUP1 RETURNDATACOPY RETURNDATASIZE PUSH1 0x0 REVERT JUMPDEST POP POP POP POP PUSH1 0x40 MLOAD RETURNDATASIZE PUSH1 0x1F NOT PUSH1 0x1F DUP3 ADD AND DUP3 ADD DUP1 PUSH1 0x40 MSTORE POP DUP2 ADD SWAP1 PUSH2 0x4FD SWAP2 SWAP1 PUSH2 0x37A0 JUMP JUMPDEST PUSH1 0x5 DUP2 SWAP1 SSTORE POP PUSH1 0xB PUSH1 0x0 SWAP1 SLOAD SWAP1 PUSH2 0x100 EXP SWAP1 DIV PUSH20 0xFFFFFFFFFFFFFFFFFFFFFFFFFFFFFFFFFFFFFFFF AND PUSH20 0xFFFFFFFFFFFFFFFFFFFFFFFFFFFFFFFFFFFFFFFF AND PUSH4 0x419E4138 DUP7 PUSH1 0xC PUSH1 0x0 SWAP1 SLOAD SWAP1 PUSH2 0x100 EXP SWAP1 DIV PUSH20 0xFFFFFFFFFFFFFFFFFFFFFFFFFFFFFFFFFFFFFFFF AND PUSH20 0xFFFFFFFFFFFFFFFFFFFFFFFFFFFFFFFFFFFFFFFF AND PUSH4 0xCFB51928 PUSH1 0x40 MLOAD DUP2 PUSH4 0xFFFFFFFF AND PUSH1 0xE0 SHL DUP2 MSTORE PUSH1 0x4 ADD PUSH2 0x59B SWAP1 PUSH2 0x3885 JUMP JUMPDEST PUSH1 0x20 PUSH1 0x40 MLOAD DUP1 DUP4 SUB DUP2 DUP7 GAS STATICCALL ISZERO DUP1 ISZERO PUSH2 0x5B8 JUMPI RETURNDATASIZE PUSH1 0x0 DUP1 RETURNDATACOPY RETURNDATASIZE PUSH1 0x0 REVERT JUMPDEST POP POP POP POP PUSH1 0x40 MLOAD RETURNDATASIZE PUSH1 0x1F NOT PUSH1 0x1F DUP3 ADD AND DUP3 ADD DUP1 PUSH1 0x40 MSTORE POP DUP2 ADD SWAP1 PUSH2 0x5DC SWAP2 SWAP1 PUSH2 0x371E JUMP JUMPDEST PUSH1 0x40 MLOAD DUP4 PUSH4 0xFFFFFFFF AND PUSH1 0xE0 SHL DUP2 MSTORE PUSH1 0x4 ADD PUSH2 0x5F9 SWAP3 SWAP2 SWAP1 PUSH2 0x374B JUMP JUMPDEST PUSH1 0x20 PUSH1 0x40 MLOAD DUP1 DUP4 SUB DUP2 DUP7 GAS STATICCALL ISZERO DUP1 ISZERO PUSH2 0x616 JUMPI RETURNDATASIZE PUSH1 0x0 DUP1 RETURNDATACOPY RETURNDATASIZE PUSH1 0x0 REVERT JUMPDEST POP POP POP POP PUSH1 0x40 MLOAD RETURNDATASIZE PUSH1 0x1F NOT PUSH1 0x1F DUP3 ADD AND DUP3 ADD DUP1 PUSH1 0x40 MSTORE POP DUP2 ADD SWAP1 PUSH2 0x63A SWAP2 SWAP1 PUSH2 0x37A0 JUMP JUMPDEST PUSH1 0x6 DUP2 SWAP1 SSTORE POP PUSH1 0xB PUSH1 0x0 SWAP1 SLOAD SWAP1 PUSH2 0x100 EXP SWAP1 DIV PUSH20 0xFFFFFFFFFFFFFFFFFFFFFFFFFFFFFFFFFFFFFFFF AND PUSH20 0xFFFFFFFFFFFFFFFFFFFFFFFFFFFFFFFFFFFFFFFF AND PUSH4 0x419E4138 DUP7 PUSH1 0xC PUSH1 0x0 SWAP1 SLOAD SWAP1 PUSH2 0x100 EXP SWAP1 DIV PUSH20 0xFFFFFFFFFFFFFFFFFFFFFFFFFFFFFFFFFFFFFFFF AND PUSH20 0xFFFFFFFFFFFFFFFFFFFFFFFFFFFFFFFFFFFFFFFF AND PUSH4 0xCFB51928 PUSH1 0x40 MLOAD DUP2 PUSH4 0xFFFFFFFF AND PUSH1 0xE0 SHL DUP2 MSTORE PUSH1 0x4 ADD PUSH2 0x6D8 SWAP1 PUSH2 0x38F1 JUMP JUMPDEST PUSH1 0x20 PUSH1 0x40 MLOAD DUP1 DUP4 SUB DUP2 DUP7 GAS STATICCALL ISZERO DUP1 ISZERO PUSH2 0x6F5 JUMPI RETURNDATASIZE PUSH1 0x0 DUP1 RETURNDATACOPY RETURNDATASIZE PUSH1 0x0 REVERT JUMPDEST POP POP POP POP PUSH1 0x40 MLOAD RETURNDATASIZE PUSH1 0x1F NOT PUSH1 0x1F DUP3 ADD AND DUP3 ADD DUP1 PUSH1 0x40 MSTORE POP DUP2 ADD SWAP1 PUSH2 0x719 SWAP2 SWAP1 PUSH2 0x371E JUMP JUMPDEST PUSH1 0x40 MLOAD DUP4 PUSH4 0xFFFFFFFF AND PUSH1 0xE0 SHL DUP2 MSTORE PUSH1 0x4 ADD PUSH2 0x736 SWAP3 SWAP2 SWAP1 PUSH2 0x374B JUMP JUMPDEST PUSH1 0x20 PUSH1 0x40 MLOAD DUP1 DUP4 SUB DUP2 DUP7 GAS STATICCALL ISZERO DUP1 ISZERO PUSH2 0x753 JUMPI RETURNDATASIZE PUSH1 0x0 DUP1 RETURNDATACOPY RETURNDATASIZE PUSH1 0x0 REVERT JUMPDEST POP POP POP POP PUSH1 0x40 MLOAD RETURNDATASIZE PUSH1 0x1F NOT PUSH1 0x1F DUP3 ADD AND DUP3 ADD DUP1 PUSH1 0x40 MSTORE POP DUP2 ADD SWAP1 PUSH2 0x777 SWAP2 SWAP1 PUSH2 0x37A0 JUMP JUMPDEST PUSH1 0x7 DUP2 SWAP1 SSTORE POP PUSH1 0xB PUSH1 0x0 SWAP1 SLOAD SWAP1 PUSH2 0x100 EXP SWAP1 DIV PUSH20 0xFFFFFFFFFFFFFFFFFFFFFFFFFFFFFFFFFFFFFFFF AND PUSH20 0xFFFFFFFFFFFFFFFFFFFFFFFFFFFFFFFFFFFFFFFF AND PUSH4 0x419E4138 DUP7 PUSH1 0xC PUSH1 0x0 SWAP1 SLOAD SWAP1 PUSH2 0x100 EXP SWAP1 DIV PUSH20 0xFFFFFFFFFFFFFFFFFFFFFFFFFFFFFFFFFFFFFFFF AND PUSH20 0xFFFFFFFFFFFFFFFFFFFFFFFFFFFFFFFFFFFFFFFF AND PUSH4 0xCFB51928 PUSH1 0x40 MLOAD DUP2 PUSH4 0xFFFFFFFF AND PUSH1 0xE0 SHL DUP2 MSTORE PUSH1 0x4 ADD PUSH2 0x815 SWAP1 PUSH2 0x395D JUMP JUMPDEST PUSH1 0x20 PUSH1 0x40 MLOAD DUP1 DUP4 SUB DUP2 DUP7 GAS STATICCALL ISZERO DUP1 ISZERO PUSH2 0x832 JUMPI RETURNDATASIZE PUSH1 0x0 DUP1 RETURNDATACOPY RETURNDATASIZE PUSH1 0x0 REVERT JUMPDEST POP POP POP POP PUSH1 0x40 MLOAD RETURNDATASIZE PUSH1 0x1F NOT PUSH1 0x1F DUP3 ADD AND DUP3 ADD DUP1 PUSH1 0x40 MSTORE POP DUP2 ADD SWAP1 PUSH2 0x856 SWAP2 SWAP1 PUSH2 0x371E JUMP JUMPDEST PUSH1 0x40 MLOAD DUP4 PUSH4 0xFFFFFFFF AND PUSH1 0xE0 SHL DUP2 MSTORE PUSH1 0x4 ADD PUSH2 0x873 SWAP3 SWAP2 SWAP1 PUSH2 0x374B JUMP JUMPDEST PUSH1 0x20 PUSH1 0x40 MLOAD DUP1 DUP4 SUB DUP2 DUP7 GAS STATICCALL ISZERO DUP1 ISZERO PUSH2 0x890 JUMPI RETURNDATASIZE PUSH1 0x0 DUP1 RETURNDATACOPY RETURNDATASIZE PUSH1 0x0 REVERT JUMPDEST POP POP POP POP PUSH1 0x40 MLOAD RETURNDATASIZE PUSH1 0x1F NOT PUSH1 0x1F DUP3 ADD AND DUP3 ADD DUP1 PUSH1 0x40 MSTORE POP DUP2 ADD SWAP1 PUSH2 0x8B4 SWAP2 SWAP1 PUSH2 0x37A0 JUMP JUMPDEST PUSH1 0x8 DUP2 SWAP1 SSTORE POP PUSH32 0xEC7CC031EAF76F3E9E7DB86A8B9FE53B8AC03F5D2661FE2996C869DD21DF1BE1 PUSH1 0xC PUSH1 0x0 SWAP1 SLOAD SWAP1 PUSH2 0x100 EXP SWAP1 DIV PUSH20 0xFFFFFFFFFFFFFFFFFFFFFFFFFFFFFFFFFFFFFFFF AND PUSH20 0xFFFFFFFFFFFFFFFFFFFFFFFFFFFFFFFFFFFFFFFF AND PUSH4 0x9201DE55 DUP8 PUSH1 0x40 MLOAD DUP3 PUSH4 0xFFFFFFFF AND PUSH1 0xE0 SHL DUP2 MSTORE PUSH1 0x4 ADD PUSH2 0x936 SWAP2 SWAP1 PUSH2 0x30F5 JUMP JUMPDEST PUSH1 0x0 PUSH1 0x40 MLOAD DUP1 DUP4 SUB DUP2 DUP7 GAS STATICCALL ISZERO DUP1 ISZERO PUSH2 0x953 JUMPI RETURNDATASIZE PUSH1 0x0 DUP1 RETURNDATACOPY RETURNDATASIZE PUSH1 0x0 REVERT JUMPDEST POP POP POP POP PUSH1 0x40 MLOAD RETURNDATASIZE PUSH1 0x0 DUP3 RETURNDATACOPY RETURNDATASIZE PUSH1 0x1F NOT PUSH1 0x1F DUP3 ADD AND DUP3 ADD DUP1 PUSH1 0x40 MSTORE POP DUP2 ADD SWAP1 PUSH2 0x97C SWAP2 SWAP1 PUSH2 0x3271 JUMP JUMPDEST PUSH1 0x4 SLOAD PUSH1 0x5 SLOAD PUSH1 0x6 SLOAD PUSH1 0x7 SLOAD PUSH1 0x8 SLOAD PUSH1 0x40 MLOAD PUSH2 0x99D SWAP7 SWAP6 SWAP5 SWAP4 SWAP3 SWAP2 SWAP1 PUSH2 0x39B6 JUMP JUMPDEST PUSH1 0x40 MLOAD DUP1 SWAP2 SUB SWAP1 LOG1 PUSH2 0x9AD PUSH2 0xA34 JUMP JUMPDEST PUSH2 0x9B5 PUSH2 0x1B3F JUMP JUMPDEST PUSH2 0x9BD PUSH2 0x21C4 JUMP JUMPDEST POP POP POP POP POP JUMP JUMPDEST PUSH1 0xB PUSH1 0x0 SWAP1 SLOAD SWAP1 PUSH2 0x100 EXP SWAP1 DIV PUSH20 0xFFFFFFFFFFFFFFFFFFFFFFFFFFFFFFFFFFFFFFFF AND DUP2 JUMP JUMPDEST PUSH1 0x0 DUP1 SLOAD SWAP1 PUSH2 0x100 EXP SWAP1 DIV PUSH20 0xFFFFFFFFFFFFFFFFFFFFFFFFFFFFFFFFFFFFFFFF AND DUP2 JUMP JUMPDEST PUSH1 0xC PUSH1 0x0 SWAP1 SLOAD SWAP1 PUSH2 0x100 EXP SWAP1 DIV PUSH20 0xFFFFFFFFFFFFFFFFFFFFFFFFFFFFFFFFFFFFFFFF AND DUP2 JUMP JUMPDEST PUSH1 0x0 PUSH8 0xDE0B6B3A7640000 PUSH1 0x2 SLOAD PUSH1 0x7 SLOAD PUSH2 0xA4E SWAP1 PUSH2 0x3A4D JUMP JUMPDEST PUSH2 0xA58 SWAP2 SWAP1 PUSH2 0x3A95 JUMP JUMPDEST PUSH1 0x2 SLOAD PUSH1 0x6 SLOAD PUSH1 0x5 SLOAD PUSH1 0x4 SLOAD PUSH2 0xA6D SWAP1 PUSH2 0x3A4D JUMP JUMPDEST PUSH2 0xA77 SWAP2 SWAP1 PUSH2 0x3B0D JUMP JUMPDEST PUSH2 0xA81 SWAP2 SWAP1 PUSH2 0x3B0D JUMP JUMPDEST PUSH2 0xA8B SWAP2 SWAP1 PUSH2 0x3A95 JUMP JUMPDEST PUSH2 0xA95 SWAP2 SWAP1 PUSH2 0x3B0D JUMP JUMPDEST PUSH2 0xA9F SWAP2 SWAP1 PUSH2 0x3B80 JUMP JUMPDEST SWAP1 POP PUSH1 0x0 PUSH1 0x4 PUSH8 0xFFFFFFFFFFFFFFFF DUP2 GT ISZERO PUSH2 0xABE JUMPI PUSH2 0xABD PUSH2 0x312B JUMP JUMPDEST JUMPDEST PUSH1 0x40 MLOAD SWAP1 DUP1 DUP3 MSTORE DUP1 PUSH1 0x20 MUL PUSH1 0x20 ADD DUP3 ADD PUSH1 0x40 MSTORE DUP1 ISZERO PUSH2 0xAF1 JUMPI DUP2 PUSH1 0x20 ADD JUMPDEST PUSH1 0x60 DUP2 MSTORE PUSH1 0x20 ADD SWAP1 PUSH1 0x1 SWAP1 SUB SWAP1 DUP2 PUSH2 0xADC JUMPI SWAP1 POP JUMPDEST POP SWAP1 POP PUSH1 0x40 MLOAD DUP1 PUSH1 0x60 ADD PUSH1 0x40 MSTORE DUP1 PUSH1 0x32 DUP2 MSTORE PUSH1 0x20 ADD PUSH2 0x3E6F PUSH1 0x32 SWAP2 CODECOPY DUP2 PUSH1 0x0 DUP2 MLOAD DUP2 LT PUSH2 0xB21 JUMPI PUSH2 0xB20 PUSH2 0x3BEA JUMP JUMPDEST JUMPDEST PUSH1 0x20 MUL PUSH1 0x20 ADD ADD DUP2 SWAP1 MSTORE POP PUSH1 0x40 MLOAD DUP1 PUSH1 0x40 ADD PUSH1 0x40 MSTORE DUP1 PUSH1 0x1B DUP2 MSTORE PUSH1 0x20 ADD PUSH32 0x6173736574732E746F74616C416D6F756E744661697256616C75650000000000 DUP2 MSTORE POP DUP2 PUSH1 0x1 DUP2 MLOAD DUP2 LT PUSH2 0xB76 JUMPI PUSH2 0xB75 PUSH2 0x3BEA JUMP JUMPDEST JUMPDEST PUSH1 0x20 MUL PUSH1 0x20 ADD ADD DUP2 SWAP1 MSTORE POP PUSH1 0x40 MLOAD DUP1 PUSH1 0x40 ADD PUSH1 0x40 MSTORE DUP1 PUSH1 0x14 DUP2 MSTORE PUSH1 0x20 ADD PUSH32 0x746F74616C4173736574734661697256616C7565000000000000000000000000 DUP2 MSTORE POP DUP2 PUSH1 0x2 DUP2 MLOAD DUP2 LT PUSH2 0xBCB JUMPI PUSH2 0xBCA PUSH2 0x3BEA JUMP JUMPDEST JUMPDEST PUSH1 0x20 MUL PUSH1 0x20 ADD ADD DUP2 SWAP1 MSTORE POP PUSH1 0x40 MLOAD DUP1 PUSH1 0x60 ADD PUSH1 0x40 MSTORE DUP1 PUSH1 0x35 DUP2 MSTORE PUSH1 0x20 ADD PUSH2 0x447F PUSH1 0x35 SWAP2 CODECOPY DUP2 PUSH1 0x3 DUP2 MLOAD DUP2 LT PUSH2 0xC03 JUMPI PUSH2 0xC02 PUSH2 0x3BEA JUMP JUMPDEST JUMPDEST PUSH1 0x20 MUL PUSH1 0x20 ADD ADD DUP2 SWAP1 MSTORE POP PUSH1 0x0 DUP1 SLOAD SWAP1 PUSH2 0x100 EXP SWAP1 DIV PUSH20 0xFFFFFFFFFFFFFFFFFFFFFFFFFFFFFFFFFFFFFFFF AND PUSH20 0xFFFFFFFFFFFFFFFFFFFFFFFFFFFFFFFFFFFFFFFF AND PUSH4 0x7A1A29FB PUSH1 0xA DUP4 PUSH1 0x0 DUP2 MLOAD DUP2 LT PUSH2 0xC60 JUMPI PUSH2 0xC5F PUSH2 0x3BEA JUMP JUMPDEST JUMPDEST PUSH1 0x20 MUL PUSH1 0x20 ADD ADD MLOAD DUP6 PUSH1 0x40 MLOAD DUP5 PUSH4 0xFFFFFFFF AND PUSH1 0xE0 SHL DUP2 MSTORE PUSH1 0x4 ADD PUSH2 0xC87 SWAP4 SWAP3 SWAP2 SWAP1 PUSH2 0x3C65 JUMP JUMPDEST PUSH1 0x0 PUSH1 0x40 MLOAD DUP1 DUP4 SUB DUP2 PUSH1 0x0 DUP8 DUP1 EXTCODESIZE ISZERO DUP1 ISZERO PUSH2 0xCA1 JUMPI PUSH1 0x0 DUP1 REVERT JUMPDEST POP GAS CALL ISZERO DUP1 ISZERO PUSH2 0xCB5 JUMPI RETURNDATASIZE PUSH1 0x0 DUP1 RETURNDATACOPY RETURNDATASIZE PUSH1 0x0 REVERT JUMPDEST POP POP POP POP PUSH1 0x0 DUP1 SLOAD SWAP1 PUSH2 0x100 EXP SWAP1 DIV PUSH20 0xFFFFFFFFFFFFFFFFFFFFFFFFFFFFFFFFFFFFFFFF AND PUSH20 0xFFFFFFFFFFFFFFFFFFFFFFFFFFFFFFFFFFFFFFFF AND PUSH4 0x7A1A29FB PUSH1 0xA DUP4 PUSH1 0x1 DUP2 MLOAD DUP2 LT PUSH2 0xD0B JUMPI PUSH2 0xD0A PUSH2 0x3BEA JUMP JUMPDEST JUMPDEST PUSH1 0x20 MUL PUSH1 0x20 ADD ADD MLOAD DUP6 PUSH1 0x40 MLOAD DUP5 PUSH4 0xFFFFFFFF AND PUSH1 0xE0 SHL DUP2 MSTORE PUSH1 0x4 ADD PUSH2 0xD32 SWAP4 SWAP3 SWAP2 SWAP1 PUSH2 0x3C65 JUMP JUMPDEST PUSH1 0x0 PUSH1 0x40 MLOAD DUP1 DUP4 SUB DUP2 PUSH1 0x0 DUP8 DUP1 EXTCODESIZE ISZERO DUP1 ISZERO PUSH2 0xD4C JUMPI PUSH1 0x0 DUP1 REVERT JUMPDEST POP GAS CALL ISZERO DUP1 ISZERO PUSH2 0xD60 JUMPI RETURNDATASIZE PUSH1 0x0 DUP1 RETURNDATACOPY RETURNDATASIZE PUSH1 0x0 REVERT JUMPDEST POP POP POP POP PUSH1 0x0 DUP1 SLOAD SWAP1 PUSH2 0x100 EXP SWAP1 DIV PUSH20 0xFFFFFFFFFFFFFFFFFFFFFFFFFFFFFFFFFFFFFFFF AND PUSH20 0xFFFFFFFFFFFFFFFFFFFFFFFFFFFFFFFFFFFFFFFF AND PUSH4 0x7A1A29FB PUSH1 0xA DUP4 PUSH1 0x2 DUP2 MLOAD DUP2 LT PUSH2 0xDB6 JUMPI PUSH2 0xDB5 PUSH2 0x3BEA JUMP JUMPDEST JUMPDEST PUSH1 0x20 MUL PUSH1 0x20 ADD ADD MLOAD DUP6 PUSH1 0x40 MLOAD DUP5 PUSH4 0xFFFFFFFF AND PUSH1 0xE0 SHL DUP2 MSTORE PUSH1 0x4 ADD PUSH2 0xDDD SWAP4 SWAP3 SWAP2 SWAP1 PUSH2 0x3C65 JUMP JUMPDEST PUSH1 0x0 PUSH1 0x40 MLOAD DUP1 DUP4 SUB DUP2 PUSH1 0x0 DUP8 DUP1 EXTCODESIZE ISZERO DUP1 ISZERO PUSH2 0xDF7 JUMPI PUSH1 0x0 DUP1 REVERT JUMPDEST POP GAS CALL ISZERO DUP1 ISZERO PUSH2 0xE0B JUMPI RETURNDATASIZE PUSH1 0x0 DUP1 RETURNDATACOPY RETURNDATASIZE PUSH1 0x0 REVERT JUMPDEST POP POP POP POP PUSH1 0x0 DUP1 SLOAD SWAP1 PUSH2 0x100 EXP SWAP1 DIV PUSH20 0xFFFFFFFFFFFFFFFFFFFFFFFFFFFFFFFFFFFFFFFF AND PUSH20 0xFFFFFFFFFFFFFFFFFFFFFFFFFFFFFFFFFFFFFFFF AND PUSH4 0x7A1A29FB PUSH1 0xA DUP4 PUSH1 0x3 DUP2 MLOAD DUP2 LT PUSH2 0xE61 JUMPI PUSH2 0xE60 PUSH2 0x3BEA JUMP JUMPDEST JUMPDEST PUSH1 0x20 MUL PUSH1 0x20 ADD ADD MLOAD DUP6 PUSH1 0x40 MLOAD DUP5 PUSH4 0xFFFFFFFF AND PUSH1 0xE0 SHL DUP2 MSTORE PUSH1 0x4 ADD PUSH2 0xE88 SWAP4 SWAP3 SWAP2 SWAP1 PUSH2 0x3C65 JUMP JUMPDEST PUSH1 0x0 PUSH1 0x40 MLOAD DUP1 DUP4 SUB DUP2 PUSH1 0x0 DUP8 DUP1 EXTCODESIZE ISZERO DUP1 ISZERO PUSH2 0xEA2 JUMPI PUSH1 0x0 DUP1 REVERT JUMPDEST POP GAS CALL ISZERO DUP1 ISZERO PUSH2 0xEB6 JUMPI RETURNDATASIZE PUSH1 0x0 DUP1 RETURNDATACOPY RETURNDATASIZE PUSH1 0x0 REVERT JUMPDEST POP POP POP POP PUSH1 0x0 PUSH8 0xDE0B6B3A7640000 PUSH1 0x7 SLOAD PUSH2 0xED1 SWAP1 PUSH2 0x3A4D JUMP JUMPDEST PUSH1 0x6 SLOAD PUSH1 0x5 SLOAD PUSH1 0x4 SLOAD PUSH2 0xEE3 SWAP1 PUSH2 0x3A4D JUMP JUMPDEST PUSH2 0xEED SWAP2 SWAP1 PUSH2 0x3B0D JUMP JUMPDEST PUSH2 0xEF7 SWAP2 SWAP1 PUSH2 0x3B0D JUMP JUMPDEST PUSH2 0xF01 SWAP2 SWAP1 PUSH2 0x3B0D JUMP JUMPDEST PUSH2 0xF0B SWAP2 SWAP1 PUSH2 0x3B80 JUMP JUMPDEST SWAP1 POP PUSH1 0x0 PUSH1 0x1 PUSH8 0xFFFFFFFFFFFFFFFF DUP2 GT ISZERO PUSH2 0xF2A JUMPI PUSH2 0xF29 PUSH2 0x312B JUMP JUMPDEST JUMPDEST PUSH1 0x40 MLOAD SWAP1 DUP1 DUP3 MSTORE DUP1 PUSH1 0x20 MUL PUSH1 0x20 ADD DUP3 ADD PUSH1 0x40 MSTORE DUP1 ISZERO PUSH2 0xF5D JUMPI DUP2 PUSH1 0x20 ADD JUMPDEST PUSH1 0x60 DUP2 MSTORE PUSH1 0x20 ADD SWAP1 PUSH1 0x1 SWAP1 SUB SWAP1 DUP2 PUSH2 0xF48 JUMPI SWAP1 POP JUMPDEST POP SWAP1 POP PUSH1 0x40 MLOAD DUP1 PUSH1 0x60 ADD PUSH1 0x40 MSTORE DUP1 PUSH1 0x32 DUP2 MSTORE PUSH1 0x20 ADD PUSH2 0x3E3D PUSH1 0x32 SWAP2 CODECOPY DUP2 PUSH1 0x0 DUP2 MLOAD DUP2 LT PUSH2 0xF8D JUMPI PUSH2 0xF8C PUSH2 0x3BEA JUMP JUMPDEST JUMPDEST PUSH1 0x20 MUL PUSH1 0x20 ADD ADD DUP2 SWAP1 MSTORE POP PUSH1 0x0 DUP1 SLOAD SWAP1 PUSH2 0x100 EXP SWAP1 DIV PUSH20 0xFFFFFFFFFFFFFFFFFFFFFFFFFFFFFFFFFFFFFFFF AND PUSH20 0xFFFFFFFFFFFFFFFFFFFFFFFFFFFFFFFFFFFFFFFF AND PUSH4 0x7A1A29FB PUSH1 0xA DUP4 PUSH1 0x0 DUP2 MLOAD DUP2 LT PUSH2 0xFEA JUMPI PUSH2 0xFE9 PUSH2 0x3BEA JUMP JUMPDEST JUMPDEST PUSH1 0x20 MUL PUSH1 0x20 ADD ADD MLOAD DUP6 PUSH1 0x40 MLOAD DUP5 PUSH4 0xFFFFFFFF AND PUSH1 0xE0 SHL DUP2 MSTORE PUSH1 0x4 ADD PUSH2 0x1011 SWAP4 SWAP3 SWAP2 SWAP1 PUSH2 0x3C65 JUMP JUMPDEST PUSH1 0x0 PUSH1 0x40 MLOAD DUP1 DUP4 SUB DUP2 PUSH1 0x0 DUP8 DUP1 EXTCODESIZE ISZERO DUP1 ISZERO PUSH2 0x102B JUMPI PUSH1 0x0 DUP1 REVERT JUMPDEST POP GAS CALL ISZERO DUP1 ISZERO PUSH2 0x103F JUMPI RETURNDATASIZE PUSH1 0x0 DUP1 RETURNDATACOPY RETURNDATASIZE PUSH1 0x0 REVERT JUMPDEST POP POP POP POP PUSH1 0x0 PUSH8 0xDE0B6B3A7640000 PUSH1 0x2 SLOAD PUSH1 0x4 SLOAD PUSH2 0x105D SWAP1 PUSH2 0x3A4D JUMP JUMPDEST PUSH2 0x1067 SWAP2 SWAP1 PUSH2 0x3A95 JUMP JUMPDEST PUSH2 0x1071 SWAP2 SWAP1 PUSH2 0x3B80 JUMP JUMPDEST SWAP1 POP PUSH1 0x0 PUSH1 0x3 PUSH8 0xFFFFFFFFFFFFFFFF DUP2 GT ISZERO PUSH2 0x1090 JUMPI PUSH2 0x108F PUSH2 0x312B JUMP JUMPDEST JUMPDEST PUSH1 0x40 MLOAD SWAP1 DUP1 DUP3 MSTORE DUP1 PUSH1 0x20 MUL PUSH1 0x20 ADD DUP3 ADD PUSH1 0x40 MSTORE DUP1 ISZERO PUSH2 0x10C3 JUMPI DUP2 PUSH1 0x20 ADD JUMPDEST PUSH1 0x60 DUP2 MSTORE PUSH1 0x20 ADD SWAP1 PUSH1 0x1 SWAP1 SUB SWAP1 DUP2 PUSH2 0x10AE JUMPI SWAP1 POP JUMPDEST POP SWAP1 POP PUSH1 0x40 MLOAD DUP1 PUSH1 0x60 ADD PUSH1 0x40 MSTORE DUP1 PUSH1 0x34 DUP2 MSTORE PUSH1 0x20 ADD PUSH2 0x408D PUSH1 0x34 SWAP2 CODECOPY DUP2 PUSH1 0x0 DUP2 MLOAD DUP2 LT PUSH2 0x10F3 JUMPI PUSH2 0x10F2 PUSH2 0x3BEA JUMP JUMPDEST JUMPDEST PUSH1 0x20 MUL PUSH1 0x20 ADD ADD DUP2 SWAP1 MSTORE POP PUSH1 0x40 MLOAD DUP1 PUSH1 0x60 ADD PUSH1 0x40 MSTORE DUP1 PUSH1 0x37 DUP2 MSTORE PUSH1 0x20 ADD PUSH2 0x3E06 PUSH1 0x37 SWAP2 CODECOPY DUP2 PUSH1 0x1 DUP2 MLOAD DUP2 LT PUSH2 0x112B JUMPI PUSH2 0x112A PUSH2 0x3BEA JUMP JUMPDEST JUMPDEST PUSH1 0x20 MUL PUSH1 0x20 ADD ADD DUP2 SWAP1 MSTORE POP PUSH1 0x40 MLOAD DUP1 PUSH1 0x40 ADD PUSH1 0x40 MSTORE DUP1 PUSH1 0x20 DUP2 MSTORE PUSH1 0x20 ADD PUSH32 0x6C696162696C69746965732E746F74616C416D6F756E744661697256616C7565 DUP2 MSTORE POP DUP2 PUSH1 0x2 DUP2 MLOAD DUP2 LT PUSH2 0x1180 JUMPI PUSH2 0x117F PUSH2 0x3BEA JUMP JUMPDEST JUMPDEST PUSH1 0x20 MUL PUSH1 0x20 ADD ADD DUP2 SWAP1 MSTORE POP PUSH1 0x0 DUP1 SLOAD SWAP1 PUSH2 0x100 EXP SWAP1 DIV PUSH20 0xFFFFFFFFFFFFFFFFFFFFFFFFFFFFFFFFFFFFFFFF AND PUSH20 0xFFFFFFFFFFFFFFFFFFFFFFFFFFFFFFFFFFFFFFFF AND PUSH4 0x7A1A29FB PUSH1 0xA DUP4 PUSH1 0x0 DUP2 MLOAD DUP2 LT PUSH2 0x11DD JUMPI PUSH2 0x11DC PUSH2 0x3BEA JUMP JUMPDEST JUMPDEST PUSH1 0x20 MUL PUSH1 0x20 ADD ADD MLOAD DUP6 PUSH1 0x40 MLOAD DUP5 PUSH4 0xFFFFFFFF AND PUSH1 0xE0 SHL DUP2 MSTORE PUSH1 0x4 ADD PUSH2 0x1204 SWAP4 SWAP3 SWAP2 SWAP1 PUSH2 0x3C65 JUMP JUMPDEST PUSH1 0x0 PUSH1 0x40 MLOAD DUP1 DUP4 SUB DUP2 PUSH1 0x0 DUP8 DUP1 EXTCODESIZE ISZERO DUP1 ISZERO PUSH2 0x121E JUMPI PUSH1 0x0 DUP1 REVERT JUMPDEST POP GAS CALL ISZERO DUP1 ISZERO PUSH2 0x1232 JUMPI RETURNDATASIZE PUSH1 0x0 DUP1 RETURNDATACOPY RETURNDATASIZE PUSH1 0x0 REVERT JUMPDEST POP POP POP POP PUSH1 0x0 DUP1 SLOAD SWAP1 PUSH2 0x100 EXP SWAP1 DIV PUSH20 0xFFFFFFFFFFFFFFFFFFFFFFFFFFFFFFFFFFFFFFFF AND PUSH20 0xFFFFFFFFFFFFFFFFFFFFFFFFFFFFFFFFFFFFFFFF AND PUSH4 0x7A1A29FB PUSH1 0xA DUP4 PUSH1 0x1 DUP2 MLOAD DUP2 LT PUSH2 0x1288 JUMPI PUSH2 0x1287 PUSH2 0x3BEA JUMP JUMPDEST JUMPDEST PUSH1 0x20 MUL PUSH1 0x20 ADD ADD MLOAD DUP6 PUSH1 0x40 MLOAD DUP5 PUSH4 0xFFFFFFFF AND PUSH1 0xE0 SHL DUP2 MSTORE PUSH1 0x4 ADD PUSH2 0x12AF SWAP4 SWAP3 SWAP2 SWAP1 PUSH2 0x3C65 JUMP JUMPDEST PUSH1 0x0 PUSH1 0x40 MLOAD DUP1 DUP4 SUB DUP2 PUSH1 0x0 DUP8 DUP1 EXTCODESIZE ISZERO DUP1 ISZERO PUSH2 0x12C9 JUMPI PUSH1 0x0 DUP1 REVERT JUMPDEST POP GAS CALL ISZERO DUP1 ISZERO PUSH2 0x12DD JUMPI RETURNDATASIZE PUSH1 0x0 DUP1 RETURNDATACOPY RETURNDATASIZE PUSH1 0x0 REVERT JUMPDEST POP POP POP POP PUSH1 0x0 DUP1 SLOAD SWAP1 PUSH2 0x100 EXP SWAP1 DIV PUSH20 0xFFFFFFFFFFFFFFFFFFFFFFFFFFFFFFFFFFFFFFFF AND PUSH20 0xFFFFFFFFFFFFFFFFFFFFFFFFFFFFFFFFFFFFFFFF AND PUSH4 0x7A1A29FB PUSH1 0xA DUP4 PUSH1 0x2 DUP2 MLOAD DUP2 LT PUSH2 0x1333 JUMPI PUSH2 0x1332 PUSH2 0x3BEA JUMP JUMPDEST JUMPDEST PUSH1 0x20 MUL PUSH1 0x20 ADD ADD MLOAD DUP6 PUSH1 0x40 MLOAD DUP5 PUSH4 0xFFFFFFFF AND PUSH1 0xE0 SHL DUP2 MSTORE PUSH1 0x4 ADD PUSH2 0x135A SWAP4 SWAP3 SWAP2 SWAP1 PUSH2 0x3C65 JUMP JUMPDEST PUSH1 0x0 PUSH1 0x40 MLOAD DUP1 DUP4 SUB DUP2 PUSH1 0x0 DUP8 DUP1 EXTCODESIZE ISZERO DUP1 ISZERO PUSH2 0x1374 JUMPI PUSH1 0x0 DUP1 REVERT JUMPDEST POP GAS CALL ISZERO DUP1 ISZERO PUSH2 0x1388 JUMPI RETURNDATASIZE PUSH1 0x0 DUP1 RETURNDATACOPY RETURNDATASIZE PUSH1 0x0 REVERT JUMPDEST POP POP POP POP PUSH1 0x0 PUSH1 0x4 SLOAD PUSH2 0x139A SWAP1 PUSH2 0x3A4D JUMP JUMPDEST SWAP1 POP PUSH1 0x0 PUSH1 0x1 PUSH8 0xFFFFFFFFFFFFFFFF DUP2 GT ISZERO PUSH2 0x13B9 JUMPI PUSH2 0x13B8 PUSH2 0x312B JUMP JUMPDEST JUMPDEST PUSH1 0x40 MLOAD SWAP1 DUP1 DUP3 MSTORE DUP1 PUSH1 0x20 MUL PUSH1 0x20 ADD DUP3 ADD PUSH1 0x40 MSTORE DUP1 ISZERO PUSH2 0x13EC JUMPI DUP2 PUSH1 0x20 ADD JUMPDEST PUSH1 0x60 DUP2 MSTORE PUSH1 0x20 ADD SWAP1 PUSH1 0x1 SWAP1 SUB SWAP1 DUP2 PUSH2 0x13D7 JUMPI SWAP1 POP JUMPDEST POP SWAP1 POP PUSH1 0x40 MLOAD DUP1 PUSH1 0x60 ADD PUSH1 0x40 MSTORE DUP1 PUSH1 0x34 DUP2 MSTORE PUSH1 0x20 ADD PUSH2 0x4411 PUSH1 0x34 SWAP2 CODECOPY DUP2 PUSH1 0x0 DUP2 MLOAD DUP2 LT PUSH2 0x141C JUMPI PUSH2 0x141B PUSH2 0x3BEA JUMP JUMPDEST JUMPDEST PUSH1 0x20 MUL PUSH1 0x20 ADD ADD DUP2 SWAP1 MSTORE POP PUSH1 0x0 DUP1 SLOAD SWAP1 PUSH2 0x100 EXP SWAP1 DIV PUSH20 0xFFFFFFFFFFFFFFFFFFFFFFFFFFFFFFFFFFFFFFFF AND PUSH20 0xFFFFFFFFFFFFFFFFFFFFFFFFFFFFFFFFFFFFFFFF AND PUSH4 0x7A1A29FB PUSH1 0xA DUP4 PUSH1 0x0 DUP2 MLOAD DUP2 LT PUSH2 0x1479 JUMPI PUSH2 0x1478 PUSH2 0x3BEA JUMP JUMPDEST JUMPDEST PUSH1 0x20 MUL PUSH1 0x20 ADD ADD MLOAD DUP6 PUSH1 0x40 MLOAD DUP5 PUSH4 0xFFFFFFFF AND PUSH1 0xE0 SHL DUP2 MSTORE PUSH1 0x4 ADD PUSH2 0x14A0 SWAP4 SWAP3 SWAP2 SWAP1 PUSH2 0x3C65 JUMP JUMPDEST PUSH1 0x0 PUSH1 0x40 MLOAD DUP1 DUP4 SUB DUP2 PUSH1 0x0 DUP8 DUP1 EXTCODESIZE ISZERO DUP1 ISZERO PUSH2 0x14BA JUMPI PUSH1 0x0 DUP1 REVERT JUMPDEST POP GAS CALL ISZERO DUP1 ISZERO PUSH2 0x14CE JUMPI RETURNDATASIZE PUSH1 0x0 DUP1 RETURNDATACOPY RETURNDATASIZE PUSH1 0x0 REVERT JUMPDEST POP POP POP POP PUSH1 0x0 PUSH8 0xDE0B6B3A7640000 PUSH1 0x2 SLOAD PUSH1 0x7 SLOAD PUSH2 0x14EC SWAP1 PUSH2 0x3A4D JUMP JUMPDEST PUSH2 0x14F6 SWAP2 SWAP1 PUSH2 0x3A95 JUMP JUMPDEST PUSH1 0x2 SLOAD PUSH1 0x6 SLOAD PUSH1 0x5 SLOAD PUSH2 0x1509 SWAP2 SWAP1 PUSH2 0x3B0D JUMP JUMPDEST PUSH2 0x1513 SWAP2 SWAP1 PUSH2 0x3A95 JUMP JUMPDEST PUSH2 0x151D SWAP2 SWAP1 PUSH2 0x3B0D JUMP JUMPDEST PUSH2 0x1527 SWAP2 SWAP1 PUSH2 0x3B80 JUMP JUMPDEST SWAP1 POP PUSH1 0x0 PUSH1 0x3 PUSH8 0xFFFFFFFFFFFFFFFF DUP2 GT ISZERO PUSH2 0x1546 JUMPI PUSH2 0x1545 PUSH2 0x312B JUMP JUMPDEST JUMPDEST PUSH1 0x40 MLOAD SWAP1 DUP1 DUP3 MSTORE DUP1 PUSH1 0x20 MUL PUSH1 0x20 ADD DUP3 ADD PUSH1 0x40 MSTORE DUP1 ISZERO PUSH2 0x1579 JUMPI DUP2 PUSH1 0x20 ADD JUMPDEST PUSH1 0x60 DUP2 MSTORE PUSH1 0x20 ADD SWAP1 PUSH1 0x1 SWAP1 SUB SWAP1 DUP2 PUSH2 0x1564 JUMPI SWAP1 POP JUMPDEST POP SWAP1 POP PUSH1 0x40 MLOAD DUP1 PUSH1 0x60 ADD PUSH1 0x40 MSTORE DUP1 PUSH1 0x34 DUP2 MSTORE PUSH1 0x20 ADD PUSH2 0x427D PUSH1 0x34 SWAP2 CODECOPY DUP2 PUSH1 0x0 DUP2 MLOAD DUP2 LT PUSH2 0x15A9 JUMPI PUSH2 0x15A8 PUSH2 0x3BEA JUMP JUMPDEST JUMPDEST PUSH1 0x20 MUL PUSH1 0x20 ADD ADD DUP2 SWAP1 MSTORE POP PUSH1 0x40 MLOAD DUP1 PUSH1 0x40 ADD PUSH1 0x40 MSTORE DUP1 PUSH1 0x1B DUP2 MSTORE PUSH1 0x20 ADD PUSH32 0x6571756974792E746F74616C416D6F756E744661697256616C75650000000000 DUP2 MSTORE POP DUP2 PUSH1 0x1 DUP2 MLOAD DUP2 LT PUSH2 0x15FE JUMPI PUSH2 0x15FD PUSH2 0x3BEA JUMP JUMPDEST JUMPDEST PUSH1 0x20 MUL PUSH1 0x20 ADD ADD DUP2 SWAP1 MSTORE POP PUSH1 0x40 MLOAD DUP1 PUSH1 0x60 ADD PUSH1 0x40 MSTORE DUP1 PUSH1 0x37 DUP2 MSTORE PUSH1 0x20 ADD PUSH2 0x4056 PUSH1 0x37 SWAP2 CODECOPY DUP2 PUSH1 0x2 DUP2 MLOAD DUP2 LT PUSH2 0x1636 JUMPI PUSH2 0x1635 PUSH2 0x3BEA JUMP JUMPDEST JUMPDEST PUSH1 0x20 MUL PUSH1 0x20 ADD ADD DUP2 SWAP1 MSTORE POP PUSH1 0x0 DUP1 SLOAD SWAP1 PUSH2 0x100 EXP SWAP1 DIV PUSH20 0xFFFFFFFFFFFFFFFFFFFFFFFFFFFFFFFFFFFFFFFF AND PUSH20 0xFFFFFFFFFFFFFFFFFFFFFFFFFFFFFFFFFFFFFFFF AND PUSH4 0x7A1A29FB PUSH1 0xA DUP4 PUSH1 0x0 DUP2 MLOAD DUP2 LT PUSH2 0x1693 JUMPI PUSH2 0x1692 PUSH2 0x3BEA JUMP JUMPDEST JUMPDEST PUSH1 0x20 MUL PUSH1 0x20 ADD ADD MLOAD DUP6 PUSH1 0x40 MLOAD DUP5 PUSH4 0xFFFFFFFF AND PUSH1 0xE0 SHL DUP2 MSTORE PUSH1 0x4 ADD PUSH2 0x16BA SWAP4 SWAP3 SWAP2 SWAP1 PUSH2 0x3C65 JUMP JUMPDEST PUSH1 0x0 PUSH1 0x40 MLOAD DUP1 DUP4 SUB DUP2 PUSH1 0x0 DUP8 DUP1 EXTCODESIZE ISZERO DUP1 ISZERO PUSH2 0x16D4 JUMPI PUSH1 0x0 DUP1 REVERT JUMPDEST POP GAS CALL ISZERO DUP1 ISZERO PUSH2 0x16E8 JUMPI RETURNDATASIZE PUSH1 0x0 DUP1 RETURNDATACOPY RETURNDATASIZE PUSH1 0x0 REVERT JUMPDEST POP POP POP POP PUSH1 0x0 DUP1 SLOAD SWAP1 PUSH2 0x100 EXP SWAP1 DIV PUSH20 0xFFFFFFFFFFFFFFFFFFFFFFFFFFFFFFFFFFFFFFFF AND PUSH20 0xFFFFFFFFFFFFFFFFFFFFFFFFFFFFFFFFFFFFFFFF AND PUSH4 0x7A1A29FB PUSH1 0xA DUP4 PUSH1 0x1 DUP2 MLOAD DUP2 LT PUSH2 0x173E JUMPI PUSH2 0x173D PUSH2 0x3BEA JUMP JUMPDEST JUMPDEST PUSH1 0x20 MUL PUSH1 0x20 ADD ADD MLOAD DUP6 PUSH1 0x40 MLOAD DUP5 PUSH4 0xFFFFFFFF AND PUSH1 0xE0 SHL DUP2 MSTORE PUSH1 0x4 ADD PUSH2 0x1765 SWAP4 SWAP3 SWAP2 SWAP1 PUSH2 0x3C65 JUMP JUMPDEST PUSH1 0x0 PUSH1 0x40 MLOAD DUP1 DUP4 SUB DUP2 PUSH1 0x0 DUP8 DUP1 EXTCODESIZE ISZERO DUP1 ISZERO PUSH2 0x177F JUMPI PUSH1 0x0 DUP1 REVERT JUMPDEST POP GAS CALL ISZERO DUP1 ISZERO PUSH2 0x1793 JUMPI RETURNDATASIZE PUSH1 0x0 DUP1 RETURNDATACOPY RETURNDATASIZE PUSH1 0x0 REVERT JUMPDEST POP POP POP POP PUSH1 0x0 DUP1 SLOAD SWAP1 PUSH2 0x100 EXP SWAP1 DIV PUSH20 0xFFFFFFFFFFFFFFFFFFFFFFFFFFFFFFFFFFFFFFFF AND PUSH20 0xFFFFFFFFFFFFFFFFFFFFFFFFFFFFFFFFFFFFFFFF AND PUSH4 0x7A1A29FB PUSH1 0xA DUP4 PUSH1 0x1 DUP2 MLOAD DUP2 LT PUSH2 0x17E9 JUMPI PUSH2 0x17E8 PUSH2 0x3BEA JUMP JUMPDEST JUMPDEST PUSH1 0x20 MUL PUSH1 0x20 ADD ADD MLOAD DUP6 PUSH1 0x40 MLOAD DUP5 PUSH4 0xFFFFFFFF AND PUSH1 0xE0 SHL DUP2 MSTORE PUSH1 0x4 ADD PUSH2 0x1810 SWAP4 SWAP3 SWAP2 SWAP1 PUSH2 0x3C65 JUMP JUMPDEST PUSH1 0x0 PUSH1 0x40 MLOAD DUP1 DUP4 SUB DUP2 PUSH1 0x0 DUP8 DUP1 EXTCODESIZE ISZERO DUP1 ISZERO PUSH2 0x182A JUMPI PUSH1 0x0 DUP1 REVERT JUMPDEST POP GAS CALL ISZERO DUP1 ISZERO PUSH2 0x183E JUMPI RETURNDATASIZE PUSH1 0x0 DUP1 RETURNDATACOPY RETURNDATASIZE PUSH1 0x0 REVERT JUMPDEST POP POP POP POP PUSH1 0x0 PUSH1 0x7 SLOAD PUSH2 0x1850 SWAP1 PUSH2 0x3A4D JUMP JUMPDEST PUSH1 0x6 SLOAD PUSH1 0x5 SLOAD PUSH2 0x1860 SWAP2 SWAP1 PUSH2 0x3B0D JUMP JUMPDEST PUSH2 0x186A SWAP2 SWAP1 PUSH2 0x3B0D JUMP JUMPDEST SWAP1 POP PUSH1 0x0 PUSH1 0x1 PUSH8 0xFFFFFFFFFFFFFFFF DUP2 GT ISZERO PUSH2 0x1889 JUMPI PUSH2 0x1888 PUSH2 0x312B JUMP JUMPDEST JUMPDEST PUSH1 0x40 MLOAD SWAP1 DUP1 DUP3 MSTORE DUP1 PUSH1 0x20 MUL PUSH1 0x20 ADD DUP3 ADD PUSH1 0x40 MSTORE DUP1 ISZERO PUSH2 0x18BC JUMPI DUP2 PUSH1 0x20 ADD JUMPDEST PUSH1 0x60 DUP2 MSTORE PUSH1 0x20 ADD SWAP1 PUSH1 0x1 SWAP1 SUB SWAP1 DUP2 PUSH2 0x18A7 JUMPI SWAP1 POP JUMPDEST POP SWAP1 POP PUSH1 0x40 MLOAD DUP1 PUSH1 0x60 ADD PUSH1 0x40 MSTORE DUP1 PUSH1 0x34 DUP2 MSTORE PUSH1 0x20 ADD PUSH2 0x4249 PUSH1 0x34 SWAP2 CODECOPY DUP2 PUSH1 0x0 DUP2 MLOAD DUP2 LT PUSH2 0x18EC JUMPI PUSH2 0x18EB PUSH2 0x3BEA JUMP JUMPDEST JUMPDEST PUSH1 0x20 MUL PUSH1 0x20 ADD ADD DUP2 SWAP1 MSTORE POP PUSH1 0x0 DUP1 SLOAD SWAP1 PUSH2 0x100 EXP SWAP1 DIV PUSH20 0xFFFFFFFFFFFFFFFFFFFFFFFFFFFFFFFFFFFFFFFF AND PUSH20 0xFFFFFFFFFFFFFFFFFFFFFFFFFFFFFFFFFFFFFFFF AND PUSH4 0x7A1A29FB PUSH1 0xA DUP4 PUSH1 0x0 DUP2 MLOAD DUP2 LT PUSH2 0x1949 JUMPI PUSH2 0x1948 PUSH2 0x3BEA JUMP JUMPDEST JUMPDEST PUSH1 0x20 MUL PUSH1 0x20 ADD ADD MLOAD DUP6 PUSH1 0x40 MLOAD DUP5 PUSH4 0xFFFFFFFF AND PUSH1 0xE0 SHL DUP2 MSTORE PUSH1 0x4 ADD PUSH2 0x1970 SWAP4 SWAP3 SWAP2 SWAP1 PUSH2 0x3C65 JUMP JUMPDEST PUSH1 0x0 PUSH1 0x40 MLOAD DUP1 DUP4 SUB DUP2 PUSH1 0x0 DUP8 DUP1 EXTCODESIZE ISZERO DUP1 ISZERO PUSH2 0x198A JUMPI PUSH1 0x0 DUP1 REVERT JUMPDEST POP GAS CALL ISZERO DUP1 ISZERO PUSH2 0x199E JUMPI RETURNDATASIZE PUSH1 0x0 DUP1 RETURNDATACOPY RETURNDATASIZE PUSH1 0x0 REVERT JUMPDEST POP POP POP POP PUSH1 0x0 PUSH8 0xDE0B6B3A7640000 PUSH1 0x2 SLOAD PUSH1 0x7 SLOAD PUSH2 0x19BC SWAP1 PUSH2 0x3A4D JUMP JUMPDEST PUSH2 0x19C6 SWAP2 SWAP1 PUSH2 0x3A95 JUMP JUMPDEST PUSH1 0x2 SLOAD PUSH1 0x6 SLOAD PUSH1 0x4 SLOAD PUSH2 0x19D9 SWAP2 SWAP1 PUSH2 0x3B0D JUMP JUMPDEST PUSH2 0x19E3 SWAP2 SWAP1 PUSH2 0x3A95 JUMP JUMPDEST PUSH2 0x19ED SWAP2 SWAP1 PUSH2 0x3B0D JUMP JUMPDEST PUSH2 0x19F7 SWAP2 SWAP1 PUSH2 0x3B80 JUMP JUMPDEST SWAP1 POP PUSH1 0x0 PUSH1 0x1 PUSH8 0xFFFFFFFFFFFFFFFF DUP2 GT ISZERO PUSH2 0x1A16 JUMPI PUSH2 0x1A15 PUSH2 0x312B JUMP JUMPDEST JUMPDEST PUSH1 0x40 MLOAD SWAP1 DUP1 DUP3 MSTORE DUP1 PUSH1 0x20 MUL PUSH1 0x20 ADD DUP3 ADD PUSH1 0x40 MSTORE DUP1 ISZERO PUSH2 0x1A49 JUMPI DUP2 PUSH1 0x20 ADD JUMPDEST PUSH1 0x60 DUP2 MSTORE PUSH1 0x20 ADD SWAP1 PUSH1 0x1 SWAP1 SUB SWAP1 DUP2 PUSH2 0x1A34 JUMPI SWAP1 POP JUMPDEST POP SWAP1 POP PUSH1 0x40 MLOAD DUP1 PUSH1 0x60 ADD PUSH1 0x40 MSTORE DUP1 PUSH1 0x22 DUP2 MSTORE PUSH1 0x20 ADD PUSH2 0x4034 PUSH1 0x22 SWAP2 CODECOPY DUP2 PUSH1 0x0 DUP2 MLOAD DUP2 LT PUSH2 0x1A79 JUMPI PUSH2 0x1A78 PUSH2 0x3BEA JUMP JUMPDEST JUMPDEST PUSH1 0x20 MUL PUSH1 0x20 ADD ADD DUP2 SWAP1 MSTORE POP PUSH1 0x0 DUP1 SLOAD SWAP1 PUSH2 0x100 EXP SWAP1 DIV PUSH20 0xFFFFFFFFFFFFFFFFFFFFFFFFFFFFFFFFFFFFFFFF AND PUSH20 0xFFFFFFFFFFFFFFFFFFFFFFFFFFFFFFFFFFFFFFFF AND PUSH4 0x7A1A29FB PUSH1 0xA DUP4 PUSH1 0x0 DUP2 MLOAD DUP2 LT PUSH2 0x1AD6 JUMPI PUSH2 0x1AD5 PUSH2 0x3BEA JUMP JUMPDEST JUMPDEST PUSH1 0x20 MUL PUSH1 0x20 ADD ADD MLOAD DUP6 PUSH1 0x40 MLOAD DUP5 PUSH4 0xFFFFFFFF AND PUSH1 0xE0 SHL DUP2 MSTORE PUSH1 0x4 ADD PUSH2 0x1AFD SWAP4 SWAP3 SWAP2 SWAP1 PUSH2 0x3C65 JUMP JUMPDEST PUSH1 0x0 PUSH1 0x40 MLOAD DUP1 DUP4 SUB DUP2 PUSH1 0x0 DUP8 DUP1 EXTCODESIZE ISZERO DUP1 ISZERO PUSH2 0x1B17 JUMPI PUSH1 0x0 DUP1 REVERT JUMPDEST POP GAS CALL ISZERO DUP1 ISZERO PUSH2 0x1B2B JUMPI RETURNDATASIZE PUSH1 0x0 DUP1 RETURNDATACOPY RETURNDATASIZE PUSH1 0x0 REVERT JUMPDEST POP POP POP POP POP POP POP POP POP POP POP POP POP POP POP POP POP POP JUMP JUMPDEST PUSH1 0x0 PUSH8 0xDE0B6B3A7640000 PUSH1 0x8 SLOAD PUSH1 0x6 SLOAD PUSH1 0x5 SLOAD PUSH2 0x1B5D SWAP2 SWAP1 PUSH2 0x3B0D JUMP JUMPDEST PUSH2 0x1B67 SWAP2 SWAP1 PUSH2 0x3A95 JUMP JUMPDEST PUSH2 0x1B71 SWAP2 SWAP1 PUSH2 0x3B80 JUMP JUMPDEST SWAP1 POP PUSH1 0x0 PUSH1 0x2 PUSH8 0xFFFFFFFFFFFFFFFF DUP2 GT ISZERO PUSH2 0x1B90 JUMPI PUSH2 0x1B8F PUSH2 0x312B JUMP JUMPDEST JUMPDEST PUSH1 0x40 MLOAD SWAP1 DUP1 DUP3 MSTORE DUP1 PUSH1 0x20 MUL PUSH1 0x20 ADD DUP3 ADD PUSH1 0x40 MSTORE DUP1 ISZERO PUSH2 0x1BC3 JUMPI DUP2 PUSH1 0x20 ADD JUMPDEST PUSH1 0x60 DUP2 MSTORE PUSH1 0x20 ADD SWAP1 PUSH1 0x1 SWAP1 SUB SWAP1 DUP2 PUSH2 0x1BAE JUMPI SWAP1 POP JUMPDEST POP SWAP1 POP PUSH1 0x40 MLOAD DUP1 PUSH1 0x60 ADD PUSH1 0x40 MSTORE DUP1 PUSH1 0x30 DUP2 MSTORE PUSH1 0x20 ADD PUSH2 0x4219 PUSH1 0x30 SWAP2 CODECOPY DUP2 PUSH1 0x0 DUP2 MLOAD DUP2 LT PUSH2 0x1BF3 JUMPI PUSH2 0x1BF2 PUSH2 0x3BEA JUMP JUMPDEST JUMPDEST PUSH1 0x20 MUL PUSH1 0x20 ADD ADD DUP2 SWAP1 MSTORE POP PUSH1 0x40 MLOAD DUP1 PUSH1 0x60 ADD PUSH1 0x40 MSTORE DUP1 PUSH1 0x3F DUP2 MSTORE PUSH1 0x20 ADD PUSH2 0x41DA PUSH1 0x3F SWAP2 CODECOPY DUP2 PUSH1 0x1 DUP2 MLOAD DUP2 LT PUSH2 0x1C2B JUMPI PUSH2 0x1C2A PUSH2 0x3BEA JUMP JUMPDEST JUMPDEST PUSH1 0x20 MUL PUSH1 0x20 ADD ADD DUP2 SWAP1 MSTORE POP PUSH1 0x0 DUP1 SLOAD SWAP1 PUSH2 0x100 EXP SWAP1 DIV PUSH20 0xFFFFFFFFFFFFFFFFFFFFFFFFFFFFFFFFFFFFFFFF AND PUSH20 0xFFFFFFFFFFFFFFFFFFFFFFFFFFFFFFFFFFFFFFFF AND PUSH4 0x7A1A29FB PUSH1 0xA DUP4 PUSH1 0x0 DUP2 MLOAD DUP2 LT PUSH2 0x1C88 JUMPI PUSH2 0x1C87 PUSH2 0x3BEA JUMP JUMPDEST JUMPDEST PUSH1 0x20 MUL PUSH1 0x20 ADD ADD MLOAD DUP6 PUSH1 0x40 MLOAD DUP5 PUSH4 0xFFFFFFFF AND PUSH1 0xE0 SHL DUP2 MSTORE PUSH1 0x4 ADD PUSH2 0x1CAF SWAP4 SWAP3 SWAP2 SWAP1 PUSH2 0x3D09 JUMP JUMPDEST PUSH1 0x0 PUSH1 0x40 MLOAD DUP1 DUP4 SUB DUP2 PUSH1 0x0 DUP8 DUP1 EXTCODESIZE ISZERO DUP1 ISZERO PUSH2 0x1CC9 JUMPI PUSH1 0x0 DUP1 REVERT JUMPDEST POP GAS CALL ISZERO DUP1 ISZERO PUSH2 0x1CDD JUMPI RETURNDATASIZE PUSH1 0x0 DUP1 RETURNDATACOPY RETURNDATASIZE PUSH1 0x0 REVERT JUMPDEST POP POP POP POP PUSH1 0x0 DUP1 SLOAD SWAP1 PUSH2 0x100 EXP SWAP1 DIV PUSH20 0xFFFFFFFFFFFFFFFFFFFFFFFFFFFFFFFFFFFFFFFF AND PUSH20 0xFFFFFFFFFFFFFFFFFFFFFFFFFFFFFFFFFFFFFFFF AND PUSH4 0x7A1A29FB PUSH1 0xA DUP4 PUSH1 0x1 DUP2 MLOAD DUP2 LT PUSH2 0x1D33 JUMPI PUSH2 0x1D32 PUSH2 0x3BEA JUMP JUMPDEST JUMPDEST PUSH1 0x20 MUL PUSH1 0x20 ADD ADD MLOAD DUP6 PUSH1 0x40 MLOAD DUP5 PUSH4 0xFFFFFFFF AND PUSH1 0xE0 SHL DUP2 MSTORE PUSH1 0x4 ADD PUSH2 0x1D5A SWAP4 SWAP3 SWAP2 SWAP1 PUSH2 0x3D09 JUMP JUMPDEST PUSH1 0x0 PUSH1 0x40 MLOAD DUP1 DUP4 SUB DUP2 PUSH1 0x0 DUP8 DUP1 EXTCODESIZE ISZERO DUP1 ISZERO PUSH2 0x1D74 JUMPI PUSH1 0x0 DUP1 REVERT JUMPDEST POP GAS CALL ISZERO DUP1 ISZERO PUSH2 0x1D88 JUMPI RETURNDATASIZE PUSH1 0x0 DUP1 RETURNDATACOPY RETURNDATASIZE PUSH1 0x0 REVERT JUMPDEST POP POP POP POP PUSH1 0x0 PUSH1 0x6 SLOAD PUSH1 0x5 SLOAD PUSH2 0x1D9E SWAP2 SWAP1 PUSH2 0x3B0D JUMP JUMPDEST SWAP1 POP PUSH1 0x0 PUSH1 0x1 PUSH8 0xFFFFFFFFFFFFFFFF DUP2 GT ISZERO PUSH2 0x1DBD JUMPI PUSH2 0x1DBC PUSH2 0x312B JUMP JUMPDEST JUMPDEST PUSH1 0x40 MLOAD SWAP1 DUP1 DUP3 MSTORE DUP1 PUSH1 0x20 MUL PUSH1 0x20 ADD DUP3 ADD PUSH1 0x40 MSTORE DUP1 ISZERO PUSH2 0x1DF0 JUMPI DUP2 PUSH1 0x20 ADD JUMPDEST PUSH1 0x60 DUP2 MSTORE PUSH1 0x20 ADD SWAP1 PUSH1 0x1 SWAP1 SUB SWAP1 DUP2 PUSH2 0x1DDB JUMPI SWAP1 POP JUMPDEST POP SWAP1 POP PUSH1 0x40 MLOAD DUP1 PUSH1 0x60 ADD PUSH1 0x40 MSTORE DUP1 PUSH1 0x32 DUP2 MSTORE PUSH1 0x20 ADD PUSH2 0x43DF PUSH1 0x32 SWAP2 CODECOPY DUP2 PUSH1 0x0 DUP2 MLOAD DUP2 LT PUSH2 0x1E20 JUMPI PUSH2 0x1E1F PUSH2 0x3BEA JUMP JUMPDEST JUMPDEST PUSH1 0x20 MUL PUSH1 0x20 ADD ADD DUP2 SWAP1 MSTORE POP PUSH1 0x0 DUP1 SLOAD SWAP1 PUSH2 0x100 EXP SWAP1 DIV PUSH20 0xFFFFFFFFFFFFFFFFFFFFFFFFFFFFFFFFFFFFFFFF AND PUSH20 0xFFFFFFFFFFFFFFFFFFFFFFFFFFFFFFFFFFFFFFFF AND PUSH4 0x7A1A29FB PUSH1 0xA DUP4 PUSH1 0x0 DUP2 MLOAD DUP2 LT PUSH2 0x1E7D JUMPI PUSH2 0x1E7C PUSH2 0x3BEA JUMP JUMPDEST JUMPDEST PUSH1 0x20 MUL PUSH1 0x20 ADD ADD MLOAD DUP6 PUSH1 0x40 MLOAD DUP5 PUSH4 0xFFFFFFFF AND PUSH1 0xE0 SHL DUP2 MSTORE PUSH1 0x4 ADD PUSH2 0x1EA4 SWAP4 SWAP3 SWAP2 SWAP1 PUSH2 0x3D09 JUMP JUMPDEST PUSH1 0x0 PUSH1 0x40 MLOAD DUP1 DUP4 SUB DUP2 PUSH1 0x0 DUP8 DUP1 EXTCODESIZE ISZERO DUP1 ISZERO PUSH2 0x1EBE JUMPI PUSH1 0x0 DUP1 REVERT JUMPDEST POP GAS CALL ISZERO DUP1 ISZERO PUSH2 0x1ED2 JUMPI RETURNDATASIZE PUSH1 0x0 DUP1 RETURNDATACOPY RETURNDATASIZE PUSH1 0x0 REVERT JUMPDEST POP POP POP POP PUSH1 0x0 PUSH8 0xDE0B6B3A7640000 PUSH1 0x8 SLOAD PUSH1 0x7 SLOAD PUSH2 0x1EF0 SWAP1 PUSH2 0x3A4D JUMP JUMPDEST PUSH2 0x1EFA SWAP2 SWAP1 PUSH2 0x3A95 JUMP JUMPDEST PUSH2 0x1F04 SWAP2 SWAP1 PUSH2 0x3B80 JUMP JUMPDEST SWAP1 POP PUSH1 0x0 PUSH1 0x2 PUSH8 0xFFFFFFFFFFFFFFFF DUP2 GT ISZERO PUSH2 0x1F23 JUMPI PUSH2 0x1F22 PUSH2 0x312B JUMP JUMPDEST JUMPDEST PUSH1 0x40 MLOAD SWAP1 DUP1 DUP3 MSTORE DUP1 PUSH1 0x20 MUL PUSH1 0x20 ADD DUP3 ADD PUSH1 0x40 MSTORE DUP1 ISZERO PUSH2 0x1F56 JUMPI DUP2 PUSH1 0x20 ADD JUMPDEST PUSH1 0x60 DUP2 MSTORE PUSH1 0x20 ADD SWAP1 PUSH1 0x1 SWAP1 SUB SWAP1 DUP2 PUSH2 0x1F41 JUMPI SWAP1 POP JUMPDEST POP SWAP1 POP PUSH1 0x40 MLOAD DUP1 PUSH1 0x60 ADD PUSH1 0x40 MSTORE DUP1 PUSH1 0x36 DUP2 MSTORE PUSH1 0x20 ADD PUSH2 0x40C1 PUSH1 0x36 SWAP2 CODECOPY DUP2 PUSH1 0x0 DUP2 MLOAD DUP2 LT PUSH2 0x1F86 JUMPI PUSH2 0x1F85 PUSH2 0x3BEA JUMP JUMPDEST JUMPDEST PUSH1 0x20 MUL PUSH1 0x20 ADD ADD DUP2 SWAP1 MSTORE POP PUSH1 0x40 MLOAD DUP1 PUSH1 0x60 ADD PUSH1 0x40 MSTORE DUP1 PUSH1 0x3A DUP2 MSTORE PUSH1 0x20 ADD PUSH2 0x4445 PUSH1 0x3A SWAP2 CODECOPY DUP2 PUSH1 0x1 DUP2 MLOAD DUP2 LT PUSH2 0x1FBE JUMPI PUSH2 0x1FBD PUSH2 0x3BEA JUMP JUMPDEST JUMPDEST PUSH1 0x20 MUL PUSH1 0x20 ADD ADD DUP2 SWAP1 MSTORE POP PUSH1 0x0 DUP1 SLOAD SWAP1 PUSH2 0x100 EXP SWAP1 DIV PUSH20 0xFFFFFFFFFFFFFFFFFFFFFFFFFFFFFFFFFFFFFFFF AND PUSH20 0xFFFFFFFFFFFFFFFFFFFFFFFFFFFFFFFFFFFFFFFF AND PUSH4 0x7A1A29FB PUSH1 0xA DUP4 PUSH1 0x0 DUP2 MLOAD DUP2 LT PUSH2 0x201B JUMPI PUSH2 0x201A PUSH2 0x3BEA JUMP JUMPDEST JUMPDEST PUSH1 0x20 MUL PUSH1 0x20 ADD ADD MLOAD DUP6 PUSH1 0x40 MLOAD DUP5 PUSH4 0xFFFFFFFF AND PUSH1 0xE0 SHL DUP2 MSTORE PUSH1 0x4 ADD PUSH2 0x2042 SWAP4 SWAP3 SWAP2 SWAP1 PUSH2 0x3D09 JUMP JUMPDEST PUSH1 0x0 PUSH1 0x40 MLOAD DUP1 DUP4 SUB DUP2 PUSH1 0x0 DUP8 DUP1 EXTCODESIZE ISZERO DUP1 ISZERO PUSH2 0x205C JUMPI PUSH1 0x0 DUP1 REVERT JUMPDEST POP GAS CALL ISZERO DUP1 ISZERO PUSH2 0x2070 JUMPI RETURNDATASIZE PUSH1 0x0 DUP1 RETURNDATACOPY RETURNDATASIZE PUSH1 0x0 REVERT JUMPDEST POP POP POP POP PUSH1 0x0 PUSH1 0x7 SLOAD PUSH2 0x2082 SWAP1 PUSH2 0x3A4D JUMP JUMPDEST SWAP1 POP PUSH1 0x0 PUSH1 0x1 PUSH8 0xFFFFFFFFFFFFFFFF DUP2 GT ISZERO PUSH2 0x20A1 JUMPI PUSH2 0x20A0 PUSH2 0x312B JUMP JUMPDEST JUMPDEST PUSH1 0x40 MLOAD SWAP1 DUP1 DUP3 MSTORE DUP1 PUSH1 0x20 MUL PUSH1 0x20 ADD DUP3 ADD PUSH1 0x40 MSTORE DUP1 ISZERO PUSH2 0x20D4 JUMPI DUP2 PUSH1 0x20 ADD JUMPDEST PUSH1 0x60 DUP2 MSTORE PUSH1 0x20 ADD SWAP1 PUSH1 0x1 SWAP1 SUB SWAP1 DUP2 PUSH2 0x20BF JUMPI SWAP1 POP JUMPDEST POP SWAP1 POP PUSH1 0x40 MLOAD DUP1 PUSH1 0x60 ADD PUSH1 0x40 MSTORE DUP1 PUSH1 0x37 DUP2 MSTORE PUSH1 0x20 ADD PUSH2 0x43A8 PUSH1 0x37 SWAP2 CODECOPY DUP2 PUSH1 0x0 DUP2 MLOAD DUP2 LT PUSH2 0x2104 JUMPI PUSH2 0x2103 PUSH2 0x3BEA JUMP JUMPDEST JUMPDEST PUSH1 0x20 MUL PUSH1 0x20 ADD ADD DUP2 SWAP1 MSTORE POP PUSH1 0x0 DUP1 SLOAD SWAP1 PUSH2 0x100 EXP SWAP1 DIV PUSH20 0xFFFFFFFFFFFFFFFFFFFFFFFFFFFFFFFFFFFFFFFF AND PUSH20 0xFFFFFFFFFFFFFFFFFFFFFFFFFFFFFFFFFFFFFFFF AND PUSH4 0x7A1A29FB PUSH1 0xA DUP4 PUSH1 0x0 DUP2 MLOAD DUP2 LT PUSH2 0x2161 JUMPI PUSH2 0x2160 PUSH2 0x3BEA JUMP JUMPDEST JUMPDEST PUSH1 0x20 MUL PUSH1 0x20 ADD ADD MLOAD DUP6 PUSH1 0x40 MLOAD DUP5 PUSH4 0xFFFFFFFF AND PUSH1 0xE0 SHL DUP2 MSTORE PUSH1 0x4 ADD PUSH2 0x2188 SWAP4 SWAP3 SWAP2 SWAP1 PUSH2 0x3D09 JUMP JUMPDEST PUSH1 0x0 PUSH1 0x40 MLOAD DUP1 DUP4 SUB DUP2 PUSH1 0x0 DUP8 DUP1 EXTCODESIZE ISZERO DUP1 ISZERO PUSH2 0x21A2 JUMPI PUSH1 0x0 DUP1 REVERT JUMPDEST POP GAS CALL ISZERO DUP1 ISZERO PUSH2 0x21B6 JUMPI RETURNDATASIZE PUSH1 0x0 DUP1 RETURNDATACOPY RETURNDATASIZE PUSH1 0x0 REVERT JUMPDEST POP POP POP POP POP POP POP POP POP POP POP POP JUMP JUMPDEST PUSH1 0x0 PUSH8 0xDE0B6B3A7640000 PUSH1 0x8 SLOAD PUSH1 0x4 SLOAD PUSH2 0x21DE SWAP1 PUSH2 0x3A4D JUMP JUMPDEST PUSH2 0x21E8 SWAP2 SWAP1 PUSH2 0x3A95 JUMP JUMPDEST PUSH2 0x21F2 SWAP2 SWAP1 PUSH2 0x3B80 JUMP JUMPDEST SWAP1 POP PUSH1 0x0 PUSH1 0x2 PUSH8 0xFFFFFFFFFFFFFFFF DUP2 GT ISZERO PUSH2 0x2211 JUMPI PUSH2 0x2210 PUSH2 0x312B JUMP JUMPDEST JUMPDEST PUSH1 0x40 MLOAD SWAP1 DUP1 DUP3 MSTORE DUP1 PUSH1 0x20 MUL PUSH1 0x20 ADD DUP3 ADD PUSH1 0x40 MSTORE DUP1 ISZERO PUSH2 0x2244 JUMPI DUP2 PUSH1 0x20 ADD JUMPDEST PUSH1 0x60 DUP2 MSTORE PUSH1 0x20 ADD SWAP1 PUSH1 0x1 SWAP1 SUB SWAP1 DUP2 PUSH2 0x222F JUMPI SWAP1 POP JUMPDEST POP SWAP1 POP PUSH1 0x40 MLOAD DUP1 PUSH1 0xA0 ADD PUSH1 0x40 MSTORE DUP1 PUSH1 0x71 DUP2 MSTORE PUSH1 0x20 ADD PUSH2 0x40F7 PUSH1 0x71 SWAP2 CODECOPY DUP2 PUSH1 0x0 DUP2 MLOAD DUP2 LT PUSH2 0x2274 JUMPI PUSH2 0x2273 PUSH2 0x3BEA JUMP JUMPDEST JUMPDEST PUSH1 0x20 MUL PUSH1 0x20 ADD ADD DUP2 SWAP1 MSTORE POP PUSH1 0x40 MLOAD DUP1 PUSH1 0xA0 ADD PUSH1 0x40 MSTORE DUP1 PUSH1 0x7F DUP2 MSTORE PUSH1 0x20 ADD PUSH2 0x42B1 PUSH1 0x7F SWAP2 CODECOPY DUP2 PUSH1 0x1 DUP2 MLOAD DUP2 LT PUSH2 0x22AC JUMPI PUSH2 0x22AB PUSH2 0x3BEA JUMP JUMPDEST JUMPDEST PUSH1 0x20 MUL PUSH1 0x20 ADD ADD DUP2 SWAP1 MSTORE POP PUSH1 0x0 DUP1 SLOAD SWAP1 PUSH2 0x100 EXP SWAP1 DIV PUSH20 0xFFFFFFFFFFFFFFFFFFFFFFFFFFFFFFFFFFFFFFFF AND PUSH20 0xFFFFFFFFFFFFFFFFFFFFFFFFFFFFFFFFFFFFFFFF AND PUSH4 0x7A1A29FB PUSH1 0xA DUP4 PUSH1 0x0 DUP2 MLOAD DUP2 LT PUSH2 0x2309 JUMPI PUSH2 0x2308 PUSH2 0x3BEA JUMP JUMPDEST JUMPDEST PUSH1 0x20 MUL PUSH1 0x20 ADD ADD MLOAD DUP6 PUSH1 0x40 MLOAD DUP5 PUSH4 0xFFFFFFFF AND PUSH1 0xE0 SHL DUP2 MSTORE PUSH1 0x4 ADD PUSH2 0x2330 SWAP4 SWAP3 SWAP2 SWAP1 PUSH2 0x3DAD JUMP JUMPDEST PUSH1 0x0 PUSH1 0x40 MLOAD DUP1 DUP4 SUB DUP2 PUSH1 0x0 DUP8 DUP1 EXTCODESIZE ISZERO DUP1 ISZERO PUSH2 0x234A JUMPI PUSH1 0x0 DUP1 REVERT JUMPDEST POP GAS CALL ISZERO DUP1 ISZERO PUSH2 0x235E JUMPI RETURNDATASIZE PUSH1 0x0 DUP1 RETURNDATACOPY RETURNDATASIZE PUSH1 0x0 REVERT JUMPDEST POP POP POP POP PUSH1 0x0 DUP1 SLOAD SWAP1 PUSH2 0x100 EXP SWAP1 DIV PUSH20 0xFFFFFFFFFFFFFFFFFFFFFFFFFFFFFFFFFFFFFFFF AND PUSH20 0xFFFFFFFFFFFFFFFFFFFFFFFFFFFFFFFFFFFFFFFF AND PUSH4 0x7A1A29FB PUSH1 0xA DUP4 PUSH1 0x1 DUP2 MLOAD DUP2 LT PUSH2 0x23B4 JUMPI PUSH2 0x23B3 PUSH2 0x3BEA JUMP JUMPDEST JUMPDEST PUSH1 0x20 MUL PUSH1 0x20 ADD ADD MLOAD DUP6 PUSH1 0x40 MLOAD DUP5 PUSH4 0xFFFFFFFF AND PUSH1 0xE0 SHL DUP2 MSTORE PUSH1 0x4 ADD PUSH2 0x23DB SWAP4 SWAP3 SWAP2 SWAP1 PUSH2 0x3DAD JUMP JUMPDEST PUSH1 0x0 PUSH1 0x40 MLOAD DUP1 DUP4 SUB DUP2 PUSH1 0x0 DUP8 DUP1 EXTCODESIZE ISZERO DUP1 ISZERO PUSH2 0x23F5 JUMPI PUSH1 0x0 DUP1 REVERT JUMPDEST POP GAS CALL ISZERO DUP1 ISZERO PUSH2 0x2409 JUMPI RETURNDATASIZE PUSH1 0x0 DUP1 RETURNDATACOPY RETURNDATASIZE PUSH1 0x0 REVERT JUMPDEST POP POP POP POP PUSH1 0x0 PUSH1 0x4 SLOAD PUSH2 0x241B SWAP1 PUSH2 0x3A4D JUMP JUMPDEST SWAP1 POP PUSH1 0x0 PUSH1 0x1 PUSH8 0xFFFFFFFFFFFFFFFF DUP2 GT ISZERO PUSH2 0x243A JUMPI PUSH2 0x2439 PUSH2 0x312B JUMP JUMPDEST JUMPDEST PUSH1 0x40 MLOAD SWAP1 DUP1 DUP3 MSTORE DUP1 PUSH1 0x20 MUL PUSH1 0x20 ADD DUP3 ADD PUSH1 0x40 MSTORE DUP1 ISZERO PUSH2 0x246D JUMPI DUP2 PUSH1 0x20 ADD JUMPDEST PUSH1 0x60 DUP2 MSTORE PUSH1 0x20 ADD SWAP1 PUSH1 0x1 SWAP1 SUB SWAP1 DUP2 PUSH2 0x2458 JUMPI SWAP1 POP JUMPDEST POP SWAP1 POP PUSH1 0x40 MLOAD DUP1 PUSH1 0xA0 ADD PUSH1 0x40 MSTORE DUP1 PUSH1 0x72 DUP2 MSTORE PUSH1 0x20 ADD PUSH2 0x4168 PUSH1 0x72 SWAP2 CODECOPY DUP2 PUSH1 0x0 DUP2 MLOAD DUP2 LT PUSH2 0x249D JUMPI PUSH2 0x249C PUSH2 0x3BEA JUMP JUMPDEST JUMPDEST PUSH1 0x20 MUL PUSH1 0x20 ADD ADD DUP2 SWAP1 MSTORE POP PUSH1 0x0 DUP1 SLOAD SWAP1 PUSH2 0x100 EXP SWAP1 DIV PUSH20 0xFFFFFFFFFFFFFFFFFFFFFFFFFFFFFFFFFFFFFFFF AND PUSH20 0xFFFFFFFFFFFFFFFFFFFFFFFFFFFFFFFFFFFFFFFF AND PUSH4 0x7A1A29FB PUSH1 0xA DUP4 PUSH1 0x0 DUP2 MLOAD DUP2 LT PUSH2 0x24FA JUMPI PUSH2 0x24F9 PUSH2 0x3BEA JUMP JUMPDEST JUMPDEST PUSH1 0x20 MUL PUSH1 0x20 ADD ADD MLOAD DUP6 PUSH1 0x40 MLOAD DUP5 PUSH4 0xFFFFFFFF AND PUSH1 0xE0 SHL DUP2 MSTORE PUSH1 0x4 ADD PUSH2 0x2521 SWAP4 SWAP3 SWAP2 SWAP1 PUSH2 0x3DAD JUMP JUMPDEST PUSH1 0x0 PUSH1 0x40 MLOAD DUP1 DUP4 SUB DUP2 PUSH1 0x0 DUP8 DUP1 EXTCODESIZE ISZERO DUP1 ISZERO PUSH2 0x253B JUMPI PUSH1 0x0 DUP1 REVERT JUMPDEST POP GAS CALL ISZERO DUP1 ISZERO PUSH2 0x254F JUMPI RETURNDATASIZE PUSH1 0x0 DUP1 RETURNDATACOPY RETURNDATASIZE PUSH1 0x0 REVERT JUMPDEST POP POP POP POP PUSH1 0x0 PUSH1 0x6 SLOAD PUSH1 0x5 SLOAD PUSH2 0x2565 SWAP2 SWAP1 PUSH2 0x3B0D JUMP JUMPDEST SWAP1 POP PUSH1 0x0 PUSH1 0x1 PUSH8 0xFFFFFFFFFFFFFFFF DUP2 GT ISZERO PUSH2 0x2584 JUMPI PUSH2 0x2583 PUSH2 0x312B JUMP JUMPDEST JUMPDEST PUSH1 0x40 MLOAD SWAP1 DUP1 DUP3 MSTORE DUP1 PUSH1 0x20 MUL PUSH1 0x20 ADD DUP3 ADD PUSH1 0x40 MSTORE DUP1 ISZERO PUSH2 0x25B7 JUMPI DUP2 PUSH1 0x20 ADD JUMPDEST PUSH1 0x60 DUP2 MSTORE PUSH1 0x20 ADD SWAP1 PUSH1 0x1 SWAP1 SUB SWAP1 DUP2 PUSH2 0x25A2 JUMPI SWAP1 POP JUMPDEST POP SWAP1 POP PUSH1 0x40 MLOAD DUP1 PUSH1 0xC0 ADD PUSH1 0x40 MSTORE DUP1 PUSH1 0x84 DUP2 MSTORE PUSH1 0x20 ADD PUSH2 0x3EF5 PUSH1 0x84 SWAP2 CODECOPY DUP2 PUSH1 0x0 DUP2 MLOAD DUP2 LT PUSH2 0x25E7 JUMPI PUSH2 0x25E6 PUSH2 0x3BEA JUMP JUMPDEST JUMPDEST PUSH1 0x20 MUL PUSH1 0x20 ADD ADD DUP2 SWAP1 MSTORE POP PUSH1 0x0 DUP1 SLOAD SWAP1 PUSH2 0x100 EXP SWAP1 DIV PUSH20 0xFFFFFFFFFFFFFFFFFFFFFFFFFFFFFFFFFFFFFFFF AND PUSH20 0xFFFFFFFFFFFFFFFFFFFFFFFFFFFFFFFFFFFFFFFF AND PUSH4 0x7A1A29FB PUSH1 0xA DUP4 PUSH1 0x0 DUP2 MLOAD DUP2 LT PUSH2 0x2644 JUMPI PUSH2 0x2643 PUSH2 0x3BEA JUMP JUMPDEST JUMPDEST PUSH1 0x20 MUL PUSH1 0x20 ADD ADD MLOAD DUP6 PUSH1 0x40 MLOAD DUP5 PUSH4 0xFFFFFFFF AND PUSH1 0xE0 SHL DUP2 MSTORE PUSH1 0x4 ADD PUSH2 0x266B SWAP4 SWAP3 SWAP2 SWAP1 PUSH2 0x3DAD JUMP JUMPDEST PUSH1 0x0 PUSH1 0x40 MLOAD DUP1 DUP4 SUB DUP2 PUSH1 0x0 DUP8 DUP1 EXTCODESIZE ISZERO DUP1 ISZERO PUSH2 0x2685 JUMPI PUSH1 0x0 DUP1 REVERT JUMPDEST POP GAS CALL ISZERO DUP1 ISZERO PUSH2 0x2699 JUMPI RETURNDATASIZE PUSH1 0x0 DUP1 RETURNDATACOPY RETURNDATASIZE PUSH1 0x0 REVERT JUMPDEST POP POP POP POP PUSH1 0x0 PUSH8 0xDE0B6B3A7640000 PUSH1 0x8 SLOAD PUSH1 0x6 SLOAD PUSH1 0x5 SLOAD PUSH2 0x26BB SWAP2 SWAP1 PUSH2 0x3B0D JUMP JUMPDEST PUSH2 0x26C5 SWAP2 SWAP1 PUSH2 0x3A95 JUMP JUMPDEST PUSH2 0x26CF SWAP2 SWAP1 PUSH2 0x3B80 JUMP JUMPDEST SWAP1 POP PUSH1 0x0 PUSH1 0x2 PUSH8 0xFFFFFFFFFFFFFFFF DUP2 GT ISZERO PUSH2 0x26EE JUMPI PUSH2 0x26ED PUSH2 0x312B JUMP JUMPDEST JUMPDEST PUSH1 0x40 MLOAD SWAP1 DUP1 DUP3 MSTORE DUP1 PUSH1 0x20 MUL PUSH1 0x20 ADD DUP3 ADD PUSH1 0x40 MSTORE DUP1 ISZERO PUSH2 0x2721 JUMPI DUP2 PUSH1 0x20 ADD JUMPDEST PUSH1 0x60 DUP2 MSTORE PUSH1 0x20 ADD SWAP1 PUSH1 0x1 SWAP1 SUB SWAP1 DUP2 PUSH2 0x270C JUMPI SWAP1 POP JUMPDEST POP SWAP1 POP PUSH1 0x40 MLOAD DUP1 PUSH1 0x80 ADD PUSH1 0x40 MSTORE DUP1 PUSH1 0x44 DUP2 MSTORE PUSH1 0x20 ADD PUSH2 0x3FF0 PUSH1 0x44 SWAP2 CODECOPY DUP2 PUSH1 0x0 DUP2 MLOAD DUP2 LT PUSH2 0x2751 JUMPI PUSH2 0x2750 PUSH2 0x3BEA JUMP JUMPDEST JUMPDEST PUSH1 0x20 MUL PUSH1 0x20 ADD ADD DUP2 SWAP1 MSTORE POP PUSH1 0x40 MLOAD DUP1 PUSH1 0x80 ADD PUSH1 0x40 MSTORE DUP1 PUSH1 0x54 DUP2 MSTORE PUSH1 0x20 ADD PUSH2 0x3EA1 PUSH1 0x54 SWAP2 CODECOPY DUP2 PUSH1 0x1 DUP2 MLOAD DUP2 LT PUSH2 0x2789 JUMPI PUSH2 0x2788 PUSH2 0x3BEA JUMP JUMPDEST JUMPDEST PUSH1 0x20 MUL PUSH1 0x20 ADD ADD DUP2 SWAP1 MSTORE POP PUSH1 0x0 DUP1 SLOAD SWAP1 PUSH2 0x100 EXP SWAP1 DIV PUSH20 0xFFFFFFFFFFFFFFFFFFFFFFFFFFFFFFFFFFFFFFFF AND PUSH20 0xFFFFFFFFFFFFFFFFFFFFFFFFFFFFFFFFFFFFFFFF AND PUSH4 0x7A1A29FB PUSH1 0xA DUP4 PUSH1 0x0 DUP2 MLOAD DUP2 LT PUSH2 0x27E6 JUMPI PUSH2 0x27E5 PUSH2 0x3BEA JUMP JUMPDEST JUMPDEST PUSH1 0x20 MUL PUSH1 0x20 ADD ADD MLOAD DUP6 PUSH1 0x40 MLOAD DUP5 PUSH4 0xFFFFFFFF AND PUSH1 0xE0 SHL DUP2 MSTORE PUSH1 0x4 ADD PUSH2 0x280D SWAP4 SWAP3 SWAP2 SWAP1 PUSH2 0x3DAD JUMP JUMPDEST PUSH1 0x0 PUSH1 0x40 MLOAD DUP1 DUP4 SUB DUP2 PUSH1 0x0 DUP8 DUP1 EXTCODESIZE ISZERO DUP1 ISZERO PUSH2 0x2827 JUMPI PUSH1 0x0 DUP1 REVERT JUMPDEST POP GAS CALL ISZERO DUP1 ISZERO PUSH2 0x283B JUMPI RETURNDATASIZE PUSH1 0x0 DUP1 RETURNDATACOPY RETURNDATASIZE PUSH1 0x0 REVERT JUMPDEST POP POP POP POP PUSH1 0x0 DUP1 SLOAD SWAP1 PUSH2 0x100 EXP SWAP1 DIV PUSH20 0xFFFFFFFFFFFFFFFFFFFFFFFFFFFFFFFFFFFFFFFF AND PUSH20 0xFFFFFFFFFFFFFFFFFFFFFFFFFFFFFFFFFFFFFFFF AND PUSH4 0x7A1A29FB PUSH1 0xA DUP4 PUSH1 0x1 DUP2 MLOAD DUP2 LT PUSH2 0x2891 JUMPI PUSH2 0x2890 PUSH2 0x3BEA JUMP JUMPDEST JUMPDEST PUSH1 0x20 MUL PUSH1 0x20 ADD ADD MLOAD DUP6 PUSH1 0x40 MLOAD DUP5 PUSH4 0xFFFFFFFF AND PUSH1 0xE0 SHL DUP2 MSTORE PUSH1 0x4 ADD PUSH2 0x28B8 SWAP4 SWAP3 SWAP2 SWAP1 PUSH2 0x3DAD JUMP JUMPDEST PUSH1 0x0 PUSH1 0x40 MLOAD DUP1 DUP4 SUB DUP2 PUSH1 0x0 DUP8 DUP1 EXTCODESIZE ISZERO DUP1 ISZERO PUSH2 0x28D2 JUMPI PUSH1 0x0 DUP1 REVERT JUMPDEST POP GAS CALL ISZERO DUP1 ISZERO PUSH2 0x28E6 JUMPI RETURNDATASIZE PUSH1 0x0 DUP1 RETURNDATACOPY RETURNDATASIZE PUSH1 0x0 REVERT JUMPDEST POP POP POP POP PUSH1 0x0 PUSH8 0xDE0B6B3A7640000 PUSH1 0x8 SLOAD PUSH1 0x7 SLOAD PUSH2 0x2904 SWAP1 PUSH2 0x3A4D JUMP JUMPDEST PUSH2 0x290E SWAP2 SWAP1 PUSH2 0x3A95 JUMP JUMPDEST PUSH2 0x2918 SWAP2 SWAP1 PUSH2 0x3B80 JUMP JUMPDEST SWAP1 POP PUSH1 0x0 PUSH1 0x2 PUSH8 0xFFFFFFFFFFFFFFFF DUP2 GT ISZERO PUSH2 0x2937 JUMPI PUSH2 0x2936 PUSH2 0x312B JUMP JUMPDEST JUMPDEST PUSH1 0x40 MLOAD SWAP1 DUP1 DUP3 MSTORE DUP1 PUSH1 0x20 MUL PUSH1 0x20 ADD DUP3 ADD PUSH1 0x40 MSTORE DUP1 ISZERO PUSH2 0x296A JUMPI DUP2 PUSH1 0x20 ADD JUMPDEST PUSH1 0x60 DUP2 MSTORE PUSH1 0x20 ADD SWAP1 PUSH1 0x1 SWAP1 SUB SWAP1 DUP2 PUSH2 0x2955 JUMPI SWAP1 POP JUMPDEST POP SWAP1 POP PUSH1 0x40 MLOAD DUP1 PUSH1 0xA0 ADD PUSH1 0x40 MSTORE DUP1 PUSH1 0x77 DUP2 MSTORE PUSH1 0x20 ADD PUSH2 0x3F79 PUSH1 0x77 SWAP2 CODECOPY DUP2 PUSH1 0x0 DUP2 MLOAD DUP2 LT PUSH2 0x299A JUMPI PUSH2 0x2999 PUSH2 0x3BEA JUMP JUMPDEST JUMPDEST PUSH1 0x20 MUL PUSH1 0x20 ADD ADD DUP2 SWAP1 MSTORE POP PUSH1 0x40 MLOAD DUP1 PUSH1 0xC0 ADD PUSH1 0x40 MSTORE DUP1 PUSH1 0x85 DUP2 MSTORE PUSH1 0x20 ADD PUSH2 0x4514 PUSH1 0x85 SWAP2 CODECOPY DUP2 PUSH1 0x1 DUP2 MLOAD DUP2 LT PUSH2 0x29D2 JUMPI PUSH2 0x29D1 PUSH2 0x3BEA JUMP JUMPDEST JUMPDEST PUSH1 0x20 MUL PUSH1 0x20 ADD ADD DUP2 SWAP1 MSTORE POP PUSH1 0x0 DUP1 SLOAD SWAP1 PUSH2 0x100 EXP SWAP1 DIV PUSH20 0xFFFFFFFFFFFFFFFFFFFFFFFFFFFFFFFFFFFFFFFF AND PUSH20 0xFFFFFFFFFFFFFFFFFFFFFFFFFFFFFFFFFFFFFFFF AND PUSH4 0x7A1A29FB PUSH1 0xA DUP4 PUSH1 0x0 DUP2 MLOAD DUP2 LT PUSH2 0x2A2F JUMPI PUSH2 0x2A2E PUSH2 0x3BEA JUMP JUMPDEST JUMPDEST PUSH1 0x20 MUL PUSH1 0x20 ADD ADD MLOAD DUP6 PUSH1 0x40 MLOAD DUP5 PUSH4 0xFFFFFFFF AND PUSH1 0xE0 SHL DUP2 MSTORE PUSH1 0x4 ADD PUSH2 0x2A56 SWAP4 SWAP3 SWAP2 SWAP1 PUSH2 0x3DAD JUMP JUMPDEST PUSH1 0x0 PUSH1 0x40 MLOAD DUP1 DUP4 SUB DUP2 PUSH1 0x0 DUP8 DUP1 EXTCODESIZE ISZERO DUP1 ISZERO PUSH2 0x2A70 JUMPI PUSH1 0x0 DUP1 REVERT JUMPDEST POP GAS CALL ISZERO DUP1 ISZERO PUSH2 0x2A84 JUMPI RETURNDATASIZE PUSH1 0x0 DUP1 RETURNDATACOPY RETURNDATASIZE PUSH1 0x0 REVERT JUMPDEST POP POP POP POP PUSH1 0x0 DUP1 SLOAD SWAP1 PUSH2 0x100 EXP SWAP1 DIV PUSH20 0xFFFFFFFFFFFFFFFFFFFFFFFFFFFFFFFFFFFFFFFF AND PUSH20 0xFFFFFFFFFFFFFFFFFFFFFFFFFFFFFFFFFFFFFFFF AND PUSH4 0x7A1A29FB PUSH1 0xA DUP4 PUSH1 0x1 DUP2 MLOAD DUP2 LT PUSH2 0x2ADA JUMPI PUSH2 0x2AD9 PUSH2 0x3BEA JUMP JUMPDEST JUMPDEST PUSH1 0x20 MUL PUSH1 0x20 ADD ADD MLOAD DUP6 PUSH1 0x40 MLOAD DUP5 PUSH4 0xFFFFFFFF AND PUSH1 0xE0 SHL DUP2 MSTORE PUSH1 0x4 ADD PUSH2 0x2B01 SWAP4 SWAP3 SWAP2 SWAP1 PUSH2 0x3DAD JUMP JUMPDEST PUSH1 0x0 PUSH1 0x40 MLOAD DUP1 DUP4 SUB DUP2 PUSH1 0x0 DUP8 DUP1 EXTCODESIZE ISZERO DUP1 ISZERO PUSH2 0x2B1B JUMPI PUSH1 0x0 DUP1 REVERT JUMPDEST POP GAS CALL ISZERO DUP1 ISZERO PUSH2 0x2B2F JUMPI RETURNDATASIZE PUSH1 0x0 DUP1 RETURNDATACOPY RETURNDATASIZE PUSH1 0x0 REVERT JUMPDEST POP POP POP POP PUSH1 0x0 PUSH1 0x7 SLOAD PUSH2 0x2B41 SWAP1 PUSH2 0x3A4D JUMP JUMPDEST SWAP1 POP PUSH1 0x0 PUSH1 0x1 PUSH8 0xFFFFFFFFFFFFFFFF DUP2 GT ISZERO PUSH2 0x2B60 JUMPI PUSH2 0x2B5F PUSH2 0x312B JUMP JUMPDEST JUMPDEST PUSH1 0x40 MLOAD SWAP1 DUP1 DUP3 MSTORE DUP1 PUSH1 0x20 MUL PUSH1 0x20 ADD DUP3 ADD PUSH1 0x40 MSTORE DUP1 ISZERO PUSH2 0x2B93 JUMPI DUP2 PUSH1 0x20 ADD JUMPDEST PUSH1 0x60 DUP2 MSTORE PUSH1 0x20 ADD SWAP1 PUSH1 0x1 SWAP1 SUB SWAP1 DUP2 PUSH2 0x2B7E JUMPI SWAP1 POP JUMPDEST POP SWAP1 POP PUSH1 0x40 MLOAD DUP1 PUSH1 0xA0 ADD PUSH1 0x40 MSTORE DUP1 PUSH1 0x78 DUP2 MSTORE PUSH1 0x20 ADD PUSH2 0x4330 PUSH1 0x78 SWAP2 CODECOPY DUP2 PUSH1 0x0 DUP2 MLOAD DUP2 LT PUSH2 0x2BC3 JUMPI PUSH2 0x2BC2 PUSH2 0x3BEA JUMP JUMPDEST JUMPDEST PUSH1 0x20 MUL PUSH1 0x20 ADD ADD DUP2 SWAP1 MSTORE POP PUSH1 0x0 DUP1 SLOAD SWAP1 PUSH2 0x100 EXP SWAP1 DIV PUSH20 0xFFFFFFFFFFFFFFFFFFFFFFFFFFFFFFFFFFFFFFFF AND PUSH20 0xFFFFFFFFFFFFFFFFFFFFFFFFFFFFFFFFFFFFFFFF AND PUSH4 0x7A1A29FB PUSH1 0xA DUP4 PUSH1 0x0 DUP2 MLOAD DUP2 LT PUSH2 0x2C20 JUMPI PUSH2 0x2C1F PUSH2 0x3BEA JUMP JUMPDEST JUMPDEST PUSH1 0x20 MUL PUSH1 0x20 ADD ADD MLOAD DUP6 PUSH1 0x40 MLOAD DUP5 PUSH4 0xFFFFFFFF AND PUSH1 0xE0 SHL DUP2 MSTORE PUSH1 0x4 ADD PUSH2 0x2C47 SWAP4 SWAP3 SWAP2 SWAP1 PUSH2 0x3DAD JUMP JUMPDEST PUSH1 0x0 PUSH1 0x40 MLOAD DUP1 DUP4 SUB DUP2 PUSH1 0x0 DUP8 DUP1 EXTCODESIZE ISZERO DUP1 ISZERO PUSH2 0x2C61 JUMPI PUSH1 0x0 DUP1 REVERT JUMPDEST POP GAS CALL ISZERO DUP1 ISZERO PUSH2 0x2C75 JUMPI RETURNDATASIZE PUSH1 0x0 DUP1 RETURNDATACOPY RETURNDATASIZE PUSH1 0x0 REVERT JUMPDEST POP POP POP POP PUSH1 0x0 PUSH8 0xDE0B6B3A7640000 PUSH1 0x8 SLOAD PUSH1 0x7 SLOAD PUSH2 0x2C93 SWAP1 PUSH2 0x3A4D JUMP JUMPDEST PUSH2 0x2C9D SWAP2 SWAP1 PUSH2 0x3A95 JUMP JUMPDEST PUSH1 0x8 SLOAD PUSH1 0x6 SLOAD PUSH1 0x5 SLOAD PUSH1 0x4 SLOAD PUSH2 0x2CB2 SWAP1 PUSH2 0x3A4D JUMP JUMPDEST PUSH2 0x2CBC SWAP2 SWAP1 PUSH2 0x3B0D JUMP JUMPDEST PUSH2 0x2CC6 SWAP2 SWAP1 PUSH2 0x3B0D JUMP JUMPDEST PUSH2 0x2CD0 SWAP2 SWAP1 PUSH2 0x3A95 JUMP JUMPDEST PUSH2 0x2CDA SWAP2 SWAP1 PUSH2 0x3B0D JUMP JUMPDEST PUSH2 0x2CE4 SWAP2 SWAP1 PUSH2 0x3B80 JUMP JUMPDEST SWAP1 POP PUSH1 0x0 PUSH1 0x2 PUSH8 0xFFFFFFFFFFFFFFFF DUP2 GT ISZERO PUSH2 0x2D03 JUMPI PUSH2 0x2D02 PUSH2 0x312B JUMP JUMPDEST JUMPDEST PUSH1 0x40 MLOAD SWAP1 DUP1 DUP3 MSTORE DUP1 PUSH1 0x20 MUL PUSH1 0x20 ADD DUP3 ADD PUSH1 0x40 MSTORE DUP1 ISZERO PUSH2 0x2D36 JUMPI DUP2 PUSH1 0x20 ADD JUMPDEST PUSH1 0x60 DUP2 MSTORE PUSH1 0x20 ADD SWAP1 PUSH1 0x1 SWAP1 SUB SWAP1 DUP2 PUSH2 0x2D21 JUMPI SWAP1 POP JUMPDEST POP SWAP1 POP PUSH1 0x40 MLOAD DUP1 PUSH1 0x80 ADD PUSH1 0x40 MSTORE DUP1 PUSH1 0x44 DUP2 MSTORE PUSH1 0x20 ADD PUSH2 0x3FF0 PUSH1 0x44 SWAP2 CODECOPY DUP2 PUSH1 0x0 DUP2 MLOAD DUP2 LT PUSH2 0x2D66 JUMPI PUSH2 0x2D65 PUSH2 0x3BEA JUMP JUMPDEST JUMPDEST PUSH1 0x20 MUL PUSH1 0x20 ADD ADD DUP2 SWAP1 MSTORE POP PUSH1 0x40 MLOAD DUP1 PUSH1 0x80 ADD PUSH1 0x40 MSTORE DUP1 PUSH1 0x60 DUP2 MSTORE PUSH1 0x20 ADD PUSH2 0x44B4 PUSH1 0x60 SWAP2 CODECOPY DUP2 PUSH1 0x1 DUP2 MLOAD DUP2 LT PUSH2 0x2D9E JUMPI PUSH2 0x2D9D PUSH2 0x3BEA JUMP JUMPDEST JUMPDEST PUSH1 0x20 MUL PUSH1 0x20 ADD ADD DUP2 SWAP1 MSTORE POP PUSH1 0x0 DUP1 SLOAD SWAP1 PUSH2 0x100 EXP SWAP1 DIV PUSH20 0xFFFFFFFFFFFFFFFFFFFFFFFFFFFFFFFFFFFFFFFF AND PUSH20 0xFFFFFFFFFFFFFFFFFFFFFFFFFFFFFFFFFFFFFFFF AND PUSH4 0x7A1A29FB PUSH1 0xA DUP4 PUSH1 0x0 DUP2 MLOAD DUP2 LT PUSH2 0x2DFB JUMPI PUSH2 0x2DFA PUSH2 0x3BEA JUMP JUMPDEST JUMPDEST PUSH1 0x20 MUL PUSH1 0x20 ADD ADD MLOAD DUP6 PUSH1 0x40 MLOAD DUP5 PUSH4 0xFFFFFFFF AND PUSH1 0xE0 SHL DUP2 MSTORE PUSH1 0x4 ADD PUSH2 0x2E22 SWAP4 SWAP3 SWAP2 SWAP1 PUSH2 0x3DAD JUMP JUMPDEST PUSH1 0x0 PUSH1 0x40 MLOAD DUP1 DUP4 SUB DUP2 PUSH1 0x0 DUP8 DUP1 EXTCODESIZE ISZERO DUP1 ISZERO PUSH2 0x2E3C JUMPI PUSH1 0x0 DUP1 REVERT JUMPDEST POP GAS CALL ISZERO DUP1 ISZERO PUSH2 0x2E50 JUMPI RETURNDATASIZE PUSH1 0x0 DUP1 RETURNDATACOPY RETURNDATASIZE PUSH1 0x0 REVERT JUMPDEST POP POP POP POP PUSH1 0x0 DUP1 SLOAD SWAP1 PUSH2 0x100 EXP SWAP1 DIV PUSH20 0xFFFFFFFFFFFFFFFFFFFFFFFFFFFFFFFFFFFFFFFF AND PUSH20 0xFFFFFFFFFFFFFFFFFFFFFFFFFFFFFFFFFFFFFFFF AND PUSH4 0x7A1A29FB PUSH1 0xA DUP4 PUSH1 0x1 DUP2 MLOAD DUP2 LT PUSH2 0x2EA6 JUMPI PUSH2 0x2EA5 PUSH2 0x3BEA JUMP JUMPDEST JUMPDEST PUSH1 0x20 MUL PUSH1 0x20 ADD ADD MLOAD DUP6 PUSH1 0x40 MLOAD DUP5 PUSH4 0xFFFFFFFF AND PUSH1 0xE0 SHL DUP2 MSTORE PUSH1 0x4 ADD PUSH2 0x2ECD SWAP4 SWAP3 SWAP2 SWAP1 PUSH2 0x3DAD JUMP JUMPDEST PUSH1 0x0 PUSH1 0x40 MLOAD DUP1 DUP4 SUB DUP2 PUSH1 0x0 DUP8 DUP1 EXTCODESIZE ISZERO DUP1 ISZERO PUSH2 0x2EE7 JUMPI PUSH1 0x0 DUP1 REVERT JUMPDEST POP GAS CALL ISZERO DUP1 ISZERO PUSH2 0x2EFB JUMPI RETURNDATASIZE PUSH1 0x0 DUP1 RETURNDATACOPY RETURNDATASIZE PUSH1 0x0 REVERT JUMPDEST POP POP POP POP POP POP POP POP POP POP POP POP POP POP POP POP POP POP JUMP JUMPDEST PUSH1 0x0 PUSH1 0x40 MLOAD SWAP1 POP SWAP1 JUMP JUMPDEST PUSH1 0x0 DUP1 REVERT JUMPDEST PUSH1 0x0 DUP1 REVERT JUMPDEST PUSH1 0x0 DUP2 SWAP1 POP SWAP2 SWAP1 POP JUMP JUMPDEST PUSH2 0x2F36 DUP2 PUSH2 0x2F23 JUMP JUMPDEST DUP2 EQ PUSH2 0x2F41 JUMPI PUSH1 0x0 DUP1 REVERT JUMPDEST POP JUMP JUMPDEST PUSH1 0x0 DUP2 CALLDATALOAD SWAP1 POP PUSH2 0x2F53 DUP2 PUSH2 0x2F2D JUMP JUMPDEST SWAP3 SWAP2 POP POP JUMP JUMPDEST PUSH1 0x0 DUP1 PUSH1 0x0 DUP1 PUSH1 0x0 PUSH1 0xA0 DUP7 DUP9 SUB SLT ISZERO PUSH2 0x2F75 JUMPI PUSH2 0x2F74 PUSH2 0x2F19 JUMP JUMPDEST JUMPDEST PUSH1 0x0 PUSH2 0x2F83 DUP9 DUP3 DUP10 ADD PUSH2 0x2F44 JUMP JUMPDEST SWAP6 POP POP PUSH1 0x20 PUSH2 0x2F94 DUP9 DUP3 DUP10 ADD PUSH2 0x2F44 JUMP JUMPDEST SWAP5 POP POP PUSH1 0x40 PUSH2 0x2FA5 DUP9 DUP3 DUP10 ADD PUSH2 0x2F44 JUMP JUMPDEST SWAP4 POP POP PUSH1 0x60 PUSH2 0x2FB6 DUP9 DUP3 DUP10 ADD PUSH2 0x2F44 JUMP JUMPDEST SWAP3 POP POP PUSH1 0x80 PUSH2 0x2FC7 DUP9 DUP3 DUP10 ADD PUSH2 0x2F44 JUMP JUMPDEST SWAP2 POP POP SWAP3 SWAP6 POP SWAP3 SWAP6 SWAP1 SWAP4 POP JUMP JUMPDEST PUSH1 0x0 PUSH20 0xFFFFFFFFFFFFFFFFFFFFFFFFFFFFFFFFFFFFFFFF DUP3 AND SWAP1 POP SWAP2 SWAP1 POP JUMP JUMPDEST PUSH1 0x0 DUP2 SWAP1 POP SWAP2 SWAP1 POP JUMP JUMPDEST PUSH1 0x0 PUSH2 0x3019 PUSH2 0x3014 PUSH2 0x300F DUP5 PUSH2 0x2FD4 JUMP JUMPDEST PUSH2 0x2FF4 JUMP JUMPDEST PUSH2 0x2FD4 JUMP JUMPDEST SWAP1 POP SWAP2 SWAP1 POP JUMP JUMPDEST PUSH1 0x0 PUSH2 0x302B DUP3 PUSH2 0x2FFE JUMP JUMPDEST SWAP1 POP SWAP2 SWAP1 POP JUMP JUMPDEST PUSH1 0x0 PUSH2 0x303D DUP3 PUSH2 0x3020 JUMP JUMPDEST SWAP1 POP SWAP2 SWAP1 POP JUMP JUMPDEST PUSH2 0x304D DUP2 PUSH2 0x3032 JUMP JUMPDEST DUP3 MSTORE POP POP JUMP JUMPDEST PUSH1 0x0 PUSH1 0x20 DUP3 ADD SWAP1 POP PUSH2 0x3068 PUSH1 0x0 DUP4 ADD DUP5 PUSH2 0x3044 JUMP JUMPDEST SWAP3 SWAP2 POP POP JUMP JUMPDEST PUSH1 0x0 PUSH2 0x3079 DUP3 PUSH2 0x3020 JUMP JUMPDEST SWAP1 POP SWAP2 SWAP1 POP JUMP JUMPDEST PUSH2 0x3089 DUP2 PUSH2 0x306E JUMP JUMPDEST DUP3 MSTORE POP POP JUMP JUMPDEST PUSH1 0x0 PUSH1 0x20 DUP3 ADD SWAP1 POP PUSH2 0x30A4 PUSH1 0x0 DUP4 ADD DUP5 PUSH2 0x3080 JUMP JUMPDEST SWAP3 SWAP2 POP POP JUMP JUMPDEST PUSH1 0x0 PUSH2 0x30B5 DUP3 PUSH2 0x3020 JUMP JUMPDEST SWAP1 POP SWAP2 SWAP1 POP JUMP JUMPDEST PUSH2 0x30C5 DUP2 PUSH2 0x30AA JUMP JUMPDEST DUP3 MSTORE POP POP JUMP JUMPDEST PUSH1 0x0 PUSH1 0x20 DUP3 ADD SWAP1 POP PUSH2 0x30E0 PUSH1 0x0 DUP4 ADD DUP5 PUSH2 0x30BC JUMP JUMPDEST SWAP3 SWAP2 POP POP JUMP JUMPDEST PUSH2 0x30EF DUP2 PUSH2 0x2F23 JUMP JUMPDEST DUP3 MSTORE POP POP JUMP JUMPDEST PUSH1 0x0 PUSH1 0x20 DUP3 ADD SWAP1 POP PUSH2 0x310A PUSH1 0x0 DUP4 ADD DUP5 PUSH2 0x30E6 JUMP JUMPDEST SWAP3 SWAP2 POP POP JUMP JUMPDEST PUSH1 0x0 DUP1 REVERT JUMPDEST PUSH1 0x0 DUP1 REVERT JUMPDEST PUSH1 0x0 PUSH1 0x1F NOT PUSH1 0x1F DUP4 ADD AND SWAP1 POP SWAP2 SWAP1 POP JUMP JUMPDEST PUSH32 0x4E487B7100000000000000000000000000000000000000000000000000000000 PUSH1 0x0 MSTORE PUSH1 0x41 PUSH1 0x4 MSTORE PUSH1 0x24 PUSH1 0x0 REVERT JUMPDEST PUSH2 0x3163 DUP3 PUSH2 0x311A JUMP JUMPDEST DUP2 ADD DUP2 DUP2 LT PUSH8 0xFFFFFFFFFFFFFFFF DUP3 GT OR ISZERO PUSH2 0x3182 JUMPI PUSH2 0x3181 PUSH2 0x312B JUMP JUMPDEST JUMPDEST DUP1 PUSH1 0x40 MSTORE POP POP POP JUMP JUMPDEST PUSH1 0x0 PUSH2 0x3195 PUSH2 0x2F0F JUMP JUMPDEST SWAP1 POP PUSH2 0x31A1 DUP3 DUP3 PUSH2 0x315A JUMP JUMPDEST SWAP2 SWAP1 POP JUMP JUMPDEST PUSH1 0x0 PUSH8 0xFFFFFFFFFFFFFFFF DUP3 GT ISZERO PUSH2 0x31C1 JUMPI PUSH2 0x31C0 PUSH2 0x312B JUMP JUMPDEST JUMPDEST PUSH2 0x31CA DUP3 PUSH2 0x311A JUMP JUMPDEST SWAP1 POP PUSH1 0x20 DUP2 ADD SWAP1 POP SWAP2 SWAP1 POP JUMP JUMPDEST PUSH1 0x0 JUMPDEST DUP4 DUP2 LT ISZERO PUSH2 0x31F5 JUMPI DUP1 DUP3 ADD MLOAD DUP2 DUP5 ADD MSTORE PUSH1 0x20 DUP2 ADD SWAP1 POP PUSH2 0x31DA JUMP JUMPDEST PUSH1 0x0 DUP5 DUP5 ADD MSTORE POP POP POP POP JUMP JUMPDEST PUSH1 0x0 PUSH2 0x3214 PUSH2 0x320F DUP5 PUSH2 0x31A6 JUMP JUMPDEST PUSH2 0x318B JUMP JUMPDEST SWAP1 POP DUP3 DUP2 MSTORE PUSH1 0x20 DUP2 ADD DUP5 DUP5 DUP5 ADD GT ISZERO PUSH2 0x3230 JUMPI PUSH2 0x322F PUSH2 0x3115 JUMP JUMPDEST JUMPDEST PUSH2 0x323B DUP5 DUP3 DUP6 PUSH2 0x31D7 JUMP JUMPDEST POP SWAP4 SWAP3 POP POP POP JUMP JUMPDEST PUSH1 0x0 DUP3 PUSH1 0x1F DUP4 ADD SLT PUSH2 0x3258 JUMPI PUSH2 0x3257 PUSH2 0x3110 JUMP JUMPDEST JUMPDEST DUP2 MLOAD PUSH2 0x3268 DUP5 DUP3 PUSH1 0x20 DUP7 ADD PUSH2 0x3201 JUMP JUMPDEST SWAP2 POP POP SWAP3 SWAP2 POP POP JUMP JUMPDEST PUSH1 0x0 PUSH1 0x20 DUP3 DUP5 SUB SLT ISZERO PUSH2 0x3287 JUMPI PUSH2 0x3286 PUSH2 0x2F19 JUMP JUMPDEST JUMPDEST PUSH1 0x0 DUP3 ADD MLOAD PUSH8 0xFFFFFFFFFFFFFFFF DUP2 GT ISZERO PUSH2 0x32A5 JUMPI PUSH2 0x32A4 PUSH2 0x2F1E JUMP JUMPDEST JUMPDEST PUSH2 0x32B1 DUP5 DUP3 DUP6 ADD PUSH2 0x3243 JUMP JUMPDEST SWAP2 POP POP SWAP3 SWAP2 POP POP JUMP JUMPDEST PUSH1 0x0 DUP2 MLOAD SWAP1 POP SWAP2 SWAP1 POP JUMP JUMPDEST PUSH32 0x4E487B7100000000000000000000000000000000000000000000000000000000 PUSH1 0x0 MSTORE PUSH1 0x22 PUSH1 0x4 MSTORE PUSH1 0x24 PUSH1 0x0 REVERT JUMPDEST PUSH1 0x0 PUSH1 0x2 DUP3 DIV SWAP1 POP PUSH1 0x1 DUP3 AND DUP1 PUSH2 0x330C JUMPI PUSH1 0x7F DUP3 AND SWAP2 POP JUMPDEST PUSH1 0x20 DUP3 LT DUP2 SUB PUSH2 0x331F JUMPI PUSH2 0x331E PUSH2 0x32C5 JUMP JUMPDEST JUMPDEST POP SWAP2 SWAP1 POP JUMP JUMPDEST PUSH1 0x0 DUP2 SWAP1 POP DUP2 PUSH1 0x0 MSTORE PUSH1 0x20 PUSH1 0x0 KECCAK256 SWAP1 POP SWAP2 SWAP1 POP JUMP JUMPDEST PUSH1 0x0 PUSH1 0x20 PUSH1 0x1F DUP4 ADD DIV SWAP1 POP SWAP2 SWAP1 POP JUMP JUMPDEST PUSH1 0x0 DUP3 DUP3 SHL SWAP1 POP SWAP3 SWAP2 POP POP JUMP JUMPDEST PUSH1 0x0 PUSH1 0x8 DUP4 MUL PUSH2 0x3387 PUSH32 0xFFFFFFFFFFFFFFFFFFFFFFFFFFFFFFFFFFFFFFFFFFFFFFFFFFFFFFFFFFFFFFFF DUP3 PUSH2 0x334A JUMP JUMPDEST PUSH2 0x3391 DUP7 DUP4 PUSH2 0x334A JUMP JUMPDEST SWAP6 POP DUP1 NOT DUP5 AND SWAP4 POP DUP1 DUP7 AND DUP5 OR SWAP3 POP POP POP SWAP4 SWAP3 POP POP POP JUMP JUMPDEST PUSH1 0x0 DUP2 SWAP1 POP SWAP2 SWAP1 POP JUMP JUMPDEST PUSH1 0x0 PUSH2 0x33CE PUSH2 0x33C9 PUSH2 0x33C4 DUP5 PUSH2 0x33A9 JUMP JUMPDEST PUSH2 0x2FF4 JUMP JUMPDEST PUSH2 0x33A9 JUMP JUMPDEST SWAP1 POP SWAP2 SWAP1 POP JUMP JUMPDEST PUSH1 0x0 DUP2 SWAP1 POP SWAP2 SWAP1 POP JUMP JUMPDEST PUSH2 0x33E8 DUP4 PUSH2 0x33B3 JUMP JUMPDEST PUSH2 0x33FC PUSH2 0x33F4 DUP3 PUSH2 0x33D5 JUMP JUMPDEST DUP5 DUP5 SLOAD PUSH2 0x3357 JUMP JUMPDEST DUP3 SSTORE POP POP POP POP JUMP JUMPDEST PUSH1 0x0 SWAP1 JUMP JUMPDEST PUSH2 0x3411 PUSH2 0x3404 JUMP JUMPDEST PUSH2 0x341C DUP2 DUP5 DUP5 PUSH2 0x33DF JUMP JUMPDEST POP POP POP JUMP JUMPDEST JUMPDEST DUP2 DUP2 LT ISZERO PUSH2 0x3440 JUMPI PUSH2 0x3435 PUSH1 0x0 DUP3 PUSH2 0x3409 JUMP JUMPDEST PUSH1 0x1 DUP2 ADD SWAP1 POP PUSH2 0x3422 JUMP JUMPDEST POP POP JUMP JUMPDEST PUSH1 0x1F DUP3 GT ISZERO PUSH2 0x3485 JUMPI PUSH2 0x3456 DUP2 PUSH2 0x3325 JUMP JUMPDEST PUSH2 0x345F DUP5 PUSH2 0x333A JUMP JUMPDEST DUP2 ADD PUSH1 0x20 DUP6 LT ISZERO PUSH2 0x346E JUMPI DUP2 SWAP1 POP JUMPDEST PUSH2 0x3482 PUSH2 0x347A DUP6 PUSH2 0x333A JUMP JUMPDEST DUP4 ADD DUP3 PUSH2 0x3421 JUMP JUMPDEST POP POP JUMPDEST POP POP POP JUMP JUMPDEST PUSH1 0x0 DUP3 DUP3 SHR SWAP1 POP SWAP3 SWAP2 POP POP JUMP JUMPDEST PUSH1 0x0 PUSH2 0x34A8 PUSH1 0x0 NOT DUP5 PUSH1 0x8 MUL PUSH2 0x348A JUMP JUMPDEST NOT DUP1 DUP4 AND SWAP2 POP POP SWAP3 SWAP2 POP POP JUMP JUMPDEST PUSH1 0x0 PUSH2 0x34C1 DUP4 DUP4 PUSH2 0x3497 JUMP JUMPDEST SWAP2 POP DUP3 PUSH1 0x2 MUL DUP3 OR SWAP1 POP SWAP3 SWAP2 POP POP JUMP JUMPDEST PUSH2 0x34DA DUP3 PUSH2 0x32BA JUMP JUMPDEST PUSH8 0xFFFFFFFFFFFFFFFF DUP2 GT ISZERO PUSH2 0x34F3 JUMPI PUSH2 0x34F2 PUSH2 0x312B JUMP JUMPDEST JUMPDEST PUSH2 0x34FD DUP3 SLOAD PUSH2 0x32F4 JUMP JUMPDEST PUSH2 0x3508 DUP3 DUP3 DUP6 PUSH2 0x3444 JUMP JUMPDEST PUSH1 0x0 PUSH1 0x20 SWAP1 POP PUSH1 0x1F DUP4 GT PUSH1 0x1 DUP2 EQ PUSH2 0x353B JUMPI PUSH1 0x0 DUP5 ISZERO PUSH2 0x3529 JUMPI DUP3 DUP8 ADD MLOAD SWAP1 POP JUMPDEST PUSH2 0x3533 DUP6 DUP3 PUSH2 0x34B5 JUMP JUMPDEST DUP7 SSTORE POP PUSH2 0x359B JUMP JUMPDEST PUSH1 0x1F NOT DUP5 AND PUSH2 0x3549 DUP7 PUSH2 0x3325 JUMP JUMPDEST PUSH1 0x0 JUMPDEST DUP3 DUP2 LT ISZERO PUSH2 0x3571 JUMPI DUP5 DUP10 ADD MLOAD DUP3 SSTORE PUSH1 0x1 DUP3 ADD SWAP2 POP PUSH1 0x20 DUP6 ADD SWAP5 POP PUSH1 0x20 DUP2 ADD SWAP1 POP PUSH2 0x354C JUMP JUMPDEST DUP7 DUP4 LT ISZERO PUSH2 0x358E JUMPI DUP5 DUP10 ADD MLOAD PUSH2 0x358A PUSH1 0x1F DUP10 AND DUP3 PUSH2 0x3497 JUMP JUMPDEST DUP4 SSTORE POP JUMPDEST PUSH1 0x1 PUSH1 0x2 DUP9 MUL ADD DUP9 SSTORE POP POP POP JUMPDEST POP POP POP POP POP POP JUMP JUMPDEST PUSH1 0x0 DUP3 DUP3 MSTORE PUSH1 0x20 DUP3 ADD SWAP1 POP SWAP3 SWAP2 POP POP JUMP JUMPDEST PUSH1 0x0 DUP2 SLOAD PUSH2 0x35C1 DUP2 PUSH2 0x32F4 JUMP JUMPDEST PUSH2 0x35CB DUP2 DUP7 PUSH2 0x35A3 JUMP JUMPDEST SWAP5 POP PUSH1 0x1 DUP3 AND PUSH1 0x0 DUP2 EQ PUSH2 0x35E6 JUMPI PUSH1 0x1 DUP2 EQ PUSH2 0x35FC JUMPI PUSH2 0x362F JUMP JUMPDEST PUSH1 0xFF NOT DUP4 AND DUP7 MSTORE DUP2 ISZERO ISZERO PUSH1 0x20 MUL DUP7 ADD SWAP4 POP PUSH2 0x362F JUMP JUMPDEST PUSH2 0x3605 DUP6 PUSH2 0x3325 JUMP JUMPDEST PUSH1 0x0 JUMPDEST DUP4 DUP2 LT ISZERO PUSH2 0x3627 JUMPI DUP2 SLOAD DUP2 DUP10 ADD MSTORE PUSH1 0x1 DUP3 ADD SWAP2 POP PUSH1 0x20 DUP2 ADD SWAP1 POP PUSH2 0x3608 JUMP JUMPDEST DUP1 DUP9 ADD SWAP6 POP POP POP JUMPDEST POP POP POP SWAP3 SWAP2 POP POP JUMP JUMPDEST PUSH1 0x0 DUP2 SWAP1 POP SWAP2 SWAP1 POP JUMP JUMPDEST PUSH2 0x364B DUP2 PUSH2 0x3638 JUMP JUMPDEST DUP3 MSTORE POP POP JUMP JUMPDEST PUSH1 0x0 PUSH1 0x80 DUP3 ADD SWAP1 POP DUP2 DUP2 SUB PUSH1 0x0 DUP4 ADD MSTORE PUSH2 0x366B DUP2 DUP8 PUSH2 0x35B4 JUMP JUMPDEST SWAP1 POP PUSH2 0x367A PUSH1 0x20 DUP4 ADD DUP7 PUSH2 0x3642 JUMP JUMPDEST PUSH2 0x3687 PUSH1 0x40 DUP4 ADD DUP6 PUSH2 0x3642 JUMP JUMPDEST PUSH2 0x3694 PUSH1 0x60 DUP4 ADD DUP5 PUSH2 0x3642 JUMP JUMPDEST SWAP6 SWAP5 POP POP POP POP POP JUMP JUMPDEST PUSH32 0x4550303031000000000000000000000000000000000000000000000000000000 PUSH1 0x0 DUP3 ADD MSTORE POP JUMP JUMPDEST PUSH1 0x0 PUSH2 0x36D3 PUSH1 0x5 DUP4 PUSH2 0x35A3 JUMP JUMPDEST SWAP2 POP PUSH2 0x36DE DUP3 PUSH2 0x369D JUMP JUMPDEST PUSH1 0x20 DUP3 ADD SWAP1 POP SWAP2 SWAP1 POP JUMP JUMPDEST PUSH1 0x0 PUSH1 0x20 DUP3 ADD SWAP1 POP DUP2 DUP2 SUB PUSH1 0x0 DUP4 ADD MSTORE PUSH2 0x3702 DUP2 PUSH2 0x36C6 JUMP JUMPDEST SWAP1 POP SWAP2 SWAP1 POP JUMP JUMPDEST PUSH1 0x0 DUP2 MLOAD SWAP1 POP PUSH2 0x3718 DUP2 PUSH2 0x2F2D JUMP JUMPDEST SWAP3 SWAP2 POP POP JUMP JUMPDEST PUSH1 0x0 PUSH1 0x20 DUP3 DUP5 SUB SLT ISZERO PUSH2 0x3734 JUMPI PUSH2 0x3733 PUSH2 0x2F19 JUMP JUMPDEST JUMPDEST PUSH1 0x0 PUSH2 0x3742 DUP5 DUP3 DUP6 ADD PUSH2 0x3709 JUMP JUMPDEST SWAP2 POP POP SWAP3 SWAP2 POP POP JUMP JUMPDEST PUSH1 0x0 PUSH1 0x40 DUP3 ADD SWAP1 POP PUSH2 0x3760 PUSH1 0x0 DUP4 ADD DUP6 PUSH2 0x30E6 JUMP JUMPDEST PUSH2 0x376D PUSH1 0x20 DUP4 ADD DUP5 PUSH2 0x30E6 JUMP JUMPDEST SWAP4 SWAP3 POP POP POP JUMP JUMPDEST PUSH2 0x377D DUP2 PUSH2 0x3638 JUMP JUMPDEST DUP2 EQ PUSH2 0x3788 JUMPI PUSH1 0x0 DUP1 REVERT JUMPDEST POP JUMP JUMPDEST PUSH1 0x0 DUP2 MLOAD SWAP1 POP PUSH2 0x379A DUP2 PUSH2 0x3774 JUMP JUMPDEST SWAP3 SWAP2 POP POP JUMP JUMPDEST PUSH1 0x0 PUSH1 0x20 DUP3 DUP5 SUB SLT ISZERO PUSH2 0x37B6 JUMPI PUSH2 0x37B5 PUSH2 0x2F19 JUMP JUMPDEST JUMPDEST PUSH1 0x0 PUSH2 0x37C4 DUP5 DUP3 DUP6 ADD PUSH2 0x378B JUMP JUMPDEST SWAP2 POP POP SWAP3 SWAP2 POP POP JUMP JUMPDEST PUSH32 0x4550303032000000000000000000000000000000000000000000000000000000 PUSH1 0x0 DUP3 ADD MSTORE POP JUMP JUMPDEST PUSH1 0x0 PUSH2 0x3803 PUSH1 0x5 DUP4 PUSH2 0x35A3 JUMP JUMPDEST SWAP2 POP PUSH2 0x380E DUP3 PUSH2 0x37CD JUMP JUMPDEST PUSH1 0x20 DUP3 ADD SWAP1 POP SWAP2 SWAP1 POP JUMP JUMPDEST PUSH1 0x0 PUSH1 0x20 DUP3 ADD SWAP1 POP DUP2 DUP2 SUB PUSH1 0x0 DUP4 ADD MSTORE PUSH2 0x3832 DUP2 PUSH2 0x37F6 JUMP JUMPDEST SWAP1 POP SWAP2 SWAP1 POP JUMP JUMPDEST PUSH32 0x4550303033000000000000000000000000000000000000000000000000000000 PUSH1 0x0 DUP3 ADD MSTORE POP JUMP JUMPDEST PUSH1 0x0 PUSH2 0x386F PUSH1 0x5 DUP4 PUSH2 0x35A3 JUMP JUMPDEST SWAP2 POP PUSH2 0x387A DUP3 PUSH2 0x3839 JUMP JUMPDEST PUSH1 0x20 DUP3 ADD SWAP1 POP SWAP2 SWAP1 POP JUMP JUMPDEST PUSH1 0x0 PUSH1 0x20 DUP3 ADD SWAP1 POP DUP2 DUP2 SUB PUSH1 0x0 DUP4 ADD MSTORE PUSH2 0x389E DUP2 PUSH2 0x3862 JUMP JUMPDEST SWAP1 POP SWAP2 SWAP1 POP JUMP JUMPDEST PUSH32 0x4550303034000000000000000000000000000000000000000000000000000000 PUSH1 0x0 DUP3 ADD MSTORE POP JUMP JUMPDEST PUSH1 0x0 PUSH2 0x38DB PUSH1 0x5 DUP4 PUSH2 0x35A3 JUMP JUMPDEST SWAP2 POP PUSH2 0x38E6 DUP3 PUSH2 0x38A5 JUMP JUMPDEST PUSH1 0x20 DUP3 ADD SWAP1 POP SWAP2 SWAP1 POP JUMP JUMPDEST PUSH1 0x0 PUSH1 0x20 DUP3 ADD SWAP1 POP DUP2 DUP2 SUB PUSH1 0x0 DUP4 ADD MSTORE PUSH2 0x390A DUP2 PUSH2 0x38CE JUMP JUMPDEST SWAP1 POP SWAP2 SWAP1 POP JUMP JUMPDEST PUSH32 0x4550303036000000000000000000000000000000000000000000000000000000 PUSH1 0x0 DUP3 ADD MSTORE POP JUMP JUMPDEST PUSH1 0x0 PUSH2 0x3947 PUSH1 0x5 DUP4 PUSH2 0x35A3 JUMP JUMPDEST SWAP2 POP PUSH2 0x3952 DUP3 PUSH2 0x3911 JUMP JUMPDEST PUSH1 0x20 DUP3 ADD SWAP1 POP SWAP2 SWAP1 POP JUMP JUMPDEST PUSH1 0x0 PUSH1 0x20 DUP3 ADD SWAP1 POP DUP2 DUP2 SUB PUSH1 0x0 DUP4 ADD MSTORE PUSH2 0x3976 DUP2 PUSH2 0x393A JUMP JUMPDEST SWAP1 POP SWAP2 SWAP1 POP JUMP JUMPDEST PUSH1 0x0 PUSH2 0x3988 DUP3 PUSH2 0x32BA JUMP JUMPDEST PUSH2 0x3992 DUP2 DUP6 PUSH2 0x35A3 JUMP JUMPDEST SWAP4 POP PUSH2 0x39A2 DUP2 DUP6 PUSH1 0x20 DUP7 ADD PUSH2 0x31D7 JUMP JUMPDEST PUSH2 0x39AB DUP2 PUSH2 0x311A JUMP JUMPDEST DUP5 ADD SWAP2 POP POP SWAP3 SWAP2 POP POP JUMP JUMPDEST PUSH1 0x0 PUSH1 0xC0 DUP3 ADD SWAP1 POP DUP2 DUP2 SUB PUSH1 0x0 DUP4 ADD MSTORE PUSH2 0x39D0 DUP2 DUP10 PUSH2 0x397D JUMP JUMPDEST SWAP1 POP PUSH2 0x39DF PUSH1 0x20 DUP4 ADD DUP9 PUSH2 0x3642 JUMP JUMPDEST PUSH2 0x39EC PUSH1 0x40 DUP4 ADD DUP8 PUSH2 0x3642 JUMP JUMPDEST PUSH2 0x39F9 PUSH1 0x60 DUP4 ADD DUP7 PUSH2 0x3642 JUMP JUMPDEST PUSH2 0x3A06 PUSH1 0x80 DUP4 ADD DUP6 PUSH2 0x3642 JUMP JUMPDEST PUSH2 0x3A13 PUSH1 0xA0 DUP4 ADD DUP5 PUSH2 0x3642 JUMP JUMPDEST SWAP8 SWAP7 POP POP POP POP POP POP POP JUMP JUMPDEST PUSH32 0x4E487B7100000000000000000000000000000000000000000000000000000000 PUSH1 0x0 MSTORE PUSH1 0x11 PUSH1 0x4 MSTORE PUSH1 0x24 PUSH1 0x0 REVERT JUMPDEST PUSH1 0x0 PUSH2 0x3A58 DUP3 PUSH2 0x3638 JUMP JUMPDEST SWAP2 POP PUSH32 0x8000000000000000000000000000000000000000000000000000000000000000 DUP3 SUB PUSH2 0x3A8A JUMPI PUSH2 0x3A89 PUSH2 0x3A1E JUMP JUMPDEST JUMPDEST DUP2 PUSH1 0x0 SUB SWAP1 POP SWAP2 SWAP1 POP JUMP JUMPDEST PUSH1 0x0 PUSH2 0x3AA0 DUP3 PUSH2 0x3638 JUMP JUMPDEST SWAP2 POP PUSH2 0x3AAB DUP4 PUSH2 0x3638 JUMP JUMPDEST SWAP3 POP DUP3 DUP3 MUL PUSH2 0x3AB9 DUP2 PUSH2 0x3638 JUMP JUMPDEST SWAP2 POP PUSH32 0x8000000000000000000000000000000000000000000000000000000000000000 DUP5 EQ PUSH1 0x0 DUP5 SLT AND ISZERO PUSH2 0x3AF1 JUMPI PUSH2 0x3AF0 PUSH2 0x3A1E JUMP JUMPDEST JUMPDEST DUP3 DUP3 SDIV DUP5 EQ DUP4 ISZERO OR PUSH2 0x3B06 JUMPI PUSH2 0x3B05 PUSH2 0x3A1E JUMP JUMPDEST JUMPDEST POP SWAP3 SWAP2 POP POP JUMP JUMPDEST PUSH1 0x0 PUSH2 0x3B18 DUP3 PUSH2 0x3638 JUMP JUMPDEST SWAP2 POP PUSH2 0x3B23 DUP4 PUSH2 0x3638 JUMP JUMPDEST SWAP3 POP DUP3 DUP3 ADD SWAP1 POP DUP3 DUP2 SLT ISZERO PUSH1 0x0 DUP4 SLT AND DUP4 DUP3 SLT PUSH1 0x0 DUP5 SLT ISZERO AND OR ISZERO PUSH2 0x3B4B JUMPI PUSH2 0x3B4A PUSH2 0x3A1E JUMP JUMPDEST JUMPDEST SWAP3 SWAP2 POP POP JUMP JUMPDEST PUSH32 0x4E487B7100000000000000000000000000000000000000000000000000000000 PUSH1 0x0 MSTORE PUSH1 0x12 PUSH1 0x4 MSTORE PUSH1 0x24 PUSH1 0x0 REVERT JUMPDEST PUSH1 0x0 PUSH2 0x3B8B DUP3 PUSH2 0x3638 JUMP JUMPDEST SWAP2 POP PUSH2 0x3B96 DUP4 PUSH2 0x3638 JUMP JUMPDEST SWAP3 POP DUP3 PUSH2 0x3BA6 JUMPI PUSH2 0x3BA5 PUSH2 0x3B51 JUMP JUMPDEST JUMPDEST PUSH1 0x1 PUSH1 0x0 SUB DUP4 EQ PUSH32 0x8000000000000000000000000000000000000000000000000000000000000000 DUP4 EQ AND ISZERO PUSH2 0x3BDF JUMPI PUSH2 0x3BDE PUSH2 0x3A1E JUMP JUMPDEST JUMPDEST DUP3 DUP3 SDIV SWAP1 POP SWAP3 SWAP2 POP POP JUMP JUMPDEST PUSH32 0x4E487B7100000000000000000000000000000000000000000000000000000000 PUSH1 0x0 MSTORE PUSH1 0x32 PUSH1 0x4 MSTORE PUSH1 0x24 PUSH1 0x0 REVERT JUMPDEST PUSH32 0x62616C616E636553686565740000000000000000000000000000000000000000 PUSH1 0x0 DUP3 ADD MSTORE POP JUMP JUMPDEST PUSH1 0x0 PUSH2 0x3C4F PUSH1 0xC DUP4 PUSH2 0x35A3 JUMP JUMPDEST SWAP2 POP PUSH2 0x3C5A DUP3 PUSH2 0x3C19 JUMP JUMPDEST PUSH1 0x20 DUP3 ADD SWAP1 POP SWAP2 SWAP1 POP JUMP JUMPDEST PUSH1 0x0 PUSH1 0x80 DUP3 ADD SWAP1 POP DUP2 DUP2 SUB PUSH1 0x0 DUP4 ADD MSTORE PUSH2 0x3C7F DUP2 DUP7 PUSH2 0x35B4 JUMP JUMPDEST SWAP1 POP DUP2 DUP2 SUB PUSH1 0x20 DUP4 ADD MSTORE PUSH2 0x3C92 DUP2 PUSH2 0x3C42 JUMP JUMPDEST SWAP1 POP DUP2 DUP2 SUB PUSH1 0x40 DUP4 ADD MSTORE PUSH2 0x3CA6 DUP2 DUP6 PUSH2 0x397D JUMP JUMPDEST SWAP1 POP PUSH2 0x3CB5 PUSH1 0x60 DUP4 ADD DUP5 PUSH2 0x3642 JUMP JUMPDEST SWAP5 SWAP4 POP POP POP POP JUMP JUMPDEST PUSH32 0x636F6D70726568656E73697665496E636F6D6500000000000000000000000000 PUSH1 0x0 DUP3 ADD MSTORE POP JUMP JUMPDEST PUSH1 0x0 PUSH2 0x3CF3 PUSH1 0x13 DUP4 PUSH2 0x35A3 JUMP JUMPDEST SWAP2 POP PUSH2 0x3CFE DUP3 PUSH2 0x3CBD JUMP JUMPDEST PUSH1 0x20 DUP3 ADD SWAP1 POP SWAP2 SWAP1 POP JUMP JUMPDEST PUSH1 0x0 PUSH1 0x80 DUP3 ADD SWAP1 POP DUP2 DUP2 SUB PUSH1 0x0 DUP4 ADD MSTORE PUSH2 0x3D23 DUP2 DUP7 PUSH2 0x35B4 JUMP JUMPDEST SWAP1 POP DUP2 DUP2 SUB PUSH1 0x20 DUP4 ADD MSTORE PUSH2 0x3D36 DUP2 PUSH2 0x3CE6 JUMP JUMPDEST SWAP1 POP DUP2 DUP2 SUB PUSH1 0x40 DUP4 ADD MSTORE PUSH2 0x3D4A DUP2 DUP6 PUSH2 0x397D JUMP JUMPDEST SWAP1 POP PUSH2 0x3D59 PUSH1 0x60 DUP4 ADD DUP5 PUSH2 0x3642 JUMP JUMPDEST SWAP5 SWAP4 POP POP POP POP JUMP JUMPDEST PUSH32 0x63617368466C6F77000000000000000000000000000000000000000000000000 PUSH1 0x0 DUP3 ADD MSTORE POP JUMP JUMPDEST PUSH1 0x0 PUSH2 0x3D97 PUSH1 0x8 DUP4 PUSH2 0x35A3 JUMP JUMPDEST SWAP2 POP PUSH2 0x3DA2 DUP3 PUSH2 0x3D61 JUMP JUMPDEST PUSH1 0x20 DUP3 ADD SWAP1 POP SWAP2 SWAP1 POP JUMP JUMPDEST PUSH1 0x0 PUSH1 0x80 DUP3 ADD SWAP1 POP DUP2 DUP2 SUB PUSH1 0x0 DUP4 ADD MSTORE PUSH2 0x3DC7 DUP2 DUP7 PUSH2 0x35B4 JUMP JUMPDEST SWAP1 POP DUP2 DUP2 SUB PUSH1 0x20 DUP4 ADD MSTORE PUSH2 0x3DDA DUP2 PUSH2 0x3D8A JUMP JUMPDEST SWAP1 POP DUP2 DUP2 SUB PUSH1 0x40 DUP4 ADD MSTORE PUSH2 0x3DEE DUP2 DUP6 PUSH2 0x397D JUMP JUMPDEST SWAP1 POP PUSH2 0x3DFD PUSH1 0x60 DUP4 ADD DUP5 PUSH2 0x3642 JUMP JUMPDEST SWAP5 SWAP4 POP POP POP POP JUMP INVALID PUSH13 0x696162696C69746965732E6465 PUSH21 0x61696C732E757365724465706F7369742E62726561 PUSH12 0x646F776E2E4554482E666169 PUSH19 0x56616C75656173736574732E64657461696C73 0x2E PUSH4 0x72797074 PUSH16 0x63757272656E63792E627265616B646F PUSH24 0x6E2E4554482E616D6F756E746173736574732E6465746169 PUSH13 0x732E63727970746F6375727265 PUSH15 0x63792E746F74616C416D6F756E7446 PUSH2 0x6972 JUMP PUSH2 0x6C75 PUSH6 0x737570706C65 PUSH14 0x656E74616C5363686564756C654F PUSH7 0x4E6F6E43617368 0x4F PUSH17 0x65726174696E6741637469766974696573 0x2E PUSH5 0x657461696C PUSH20 0x2E63727970746F63757272656E63696573456E64 0x4F PUSH7 0x506572696F6473 PUSH22 0x70706C656D656E74616C5363686564756C654F664E6F PUSH15 0x436173684F7065726174696E674163 PUSH21 0x697669746965732E64657461696C732E6372797074 PUSH16 0x63757272656E63696573526563656976 PUSH6 0x6446726F6D43 PUSH22 0x73746F6D65727341735472616E73616374696F6E4665 PUSH6 0x732E62726561 PUSH12 0x646F776E2E4554482E616D6F PUSH22 0x6E74737570706C656D656E74616C5363686564756C65 0x4F PUSH7 0x4E6F6E43617368 0x4F PUSH17 0x65726174696E6741637469766974696573 0x2E PUSH5 0x657461696C PUSH20 0x2E63727970746F63757272656E63696573506169 PUSH5 0x546F537570 PUSH17 0x6C69657273466F72457870656E7365732E PUSH24 0x6569676874656441766572616765436F7374737570706C65 PUSH14 0x656E74616C5363686564756C654F PUSH7 0x4E6F6E43617368 0x4F PUSH17 0x65726174696E6741637469766974696573 0x2E PUSH24 0x6569676874656441766572616765436F7374746F74616C4C PUSH10 0x6162696C697469657341 PUSH15 0x644571756974794661697256616C75 PUSH6 0x657175697479 0x2E PUSH5 0x657461696C PUSH20 0x2E72657461696E65644561726E696E67732E6272 PUSH6 0x616B646F776E 0x2E GASLIMIT SLOAD BASEFEE 0x2E PUSH7 0x61697256616C75 PUSH6 0x6C696162696C PUSH10 0x746965732E6465746169 PUSH13 0x732E757365724465706F736974 0x2E PUSH21 0x6F74616C416D6F756E744661697256616C7565636F PUSH20 0x74732E64657461696C732E746563686E6963616C POP PUSH19 0x6F76696465724665652E776569676874656441 PUSH23 0x6572616765436F7374737570706C656D656E74616C5363 PUSH9 0x6564756C654F664E6F PUSH15 0x436173684F7065726174696E674163 PUSH21 0x697669746965732E64657461696C732E6372797074 PUSH16 0x63757272656E63696573576974686472 PUSH2 0x776E TIMESTAMP PUSH26 0x437573746F6D6572732E77656967687465644176657261676543 PUSH16 0x7374737570706C656D656E74616C5363 PUSH9 0x6564756C654F664E6F PUSH15 0x436173684F7065726174696E674163 PUSH21 0x697669746965732E64657461696C732E6372797074 PUSH16 0x63757272656E63696573576974686472 PUSH2 0x776E TIMESTAMP PUSH26 0x437573746F6D6572732E627265616B646F776E2E4554482E616D PUSH16 0x756E74696E636F6D652E64657461696C PUSH20 0x2E7769746864726177616C4665652E627265616B PUSH5 0x6F776E2E55 MSTORE8 PREVRANDAO SLOAD 0x2E PUSH24 0x6569676874656441766572616765436F7374696E636F6D65 0x2E PUSH5 0x657461696C PUSH20 0x2E7769746864726177616C4665652E7765696768 PUSH21 0x656441766572616765436F73746571756974792E64 PUSH6 0x7461696C732E PUSH19 0x657461696E65644561726E696E67732E627265 PUSH2 0x6B64 PUSH16 0x776E2E4554482E616D6F756E74657175 PUSH10 0x74792E64657461696C73 0x2E PUSH19 0x657461696E65644561726E696E67732E746F74 PUSH2 0x6C41 PUSH14 0x6F756E744661697256616C756573 PUSH22 0x70706C656D656E74616C5363686564756C654F664E6F PUSH15 0x436173684F7065726174696E674163 PUSH21 0x697669746965732E64657461696C732E6372797074 PUSH16 0x63757272656E63696573576974686472 PUSH2 0x776E TIMESTAMP PUSH26 0x437573746F6D6572732E627265616B646F776E2E4554482E7765 PUSH10 0x67687465644176657261 PUSH8 0x65436F7374737570 PUSH17 0x6C656D656E74616C5363686564756C654F PUSH7 0x4E6F6E43617368 0x4F PUSH17 0x65726174696E6741637469766974696573 0x2E PUSH5 0x657461696C PUSH20 0x2E63727970746F63757272656E63696573506169 PUSH5 0x546F537570 PUSH17 0x6C69657273466F72457870656E7365732E PUSH3 0x726561 PUSH12 0x646F776E2E4554482E616D6F PUSH22 0x6E74636F7374732E64657461696C732E746563686E69 PUSH4 0x616C5072 PUSH16 0x76696465724665652E627265616B646F PUSH24 0x6E2E4554482E616D6F756E74696E636F6D652E6465746169 PUSH13 0x732E7769746864726177616C46 PUSH6 0x652E62726561 PUSH12 0x646F776E2E555344542E616D PUSH16 0x756E746C696162696C69746965732E64 PUSH6 0x7461696C732E PUSH22 0x7365724465706F7369742E627265616B646F776E2E45 SLOAD BASEFEE 0x2E PUSH2 0x6D6F PUSH22 0x6E74636F7374732E64657461696C732E746563686E69 PUSH4 0x616C5072 PUSH16 0x76696465724665652E627265616B646F PUSH24 0x6E2E4554482E6661697256616C75656173736574732E6465 PUSH21 0x61696C732E63727970746F63757272656E63792E62 PUSH19 0x65616B646F776E2E4554482E6661697256616C PUSH22 0x656F74686572537570706C656D656E74617279497465 PUSH14 0x732E64657461696C732E72656C61 PUSH21 0x6564546F4E6F6E436173682E63727970746F637572 PUSH19 0x656E63696573456E644F66506572696F642E77 PUSH6 0x696768746564 COINBASE PUSH23 0x6572616765436F7374737570706C656D656E74616C5363 PUSH9 0x6564756C654F664E6F PUSH15 0x436173684F7065726174696E674163 PUSH21 0x697669746965732E64657461696C732E6372797074 PUSH16 0x63757272656E6369657350616964546F MSTORE8 PUSH22 0x70706C69657273466F72457870656E7365732E627265 PUSH2 0x6B64 PUSH16 0x776E2E4554482E776569676874656441 PUSH23 0x6572616765436F7374A26469706673582212206B657DBE SLT 0x4C 0xE9 PUSH5 0x6471722B2D 0xC2 JUMPDEST DUP3 SHR SWAP16 BYTE MLOAD BYTE PUSH21 0x19CB7140DA1D6D28B3C964736F6C63430008120033 "
		},
		"gasEstimates": {
			"creation": {
				"codeDepositCost": "3574000",
				"executionCost": "infinite",
				"totalCost": "infinite"
			},
			"external": {
				"Iparser()": "infinite",
				"getEventIdAndRate(bytes32,bytes32,bytes32,bytes32,bytes32)": "infinite",
				"report()": "infinite",
				"transactionContract()": "infinite"
			},
			"internal": {
				"computeBalanceSheet()": "infinite",
				"computeCashFlow()": "infinite",
				"computeComprehesiveIncome()": "infinite"
			}
		},
		"methodIdentifiers": {
			"Iparser()": "e064d199",
			"getEventIdAndRate(bytes32,bytes32,bytes32,bytes32,bytes32)": "1d4fd87f",
			"report()": "2606a10b",
			"transactionContract()": "1f45275b"
		}
	},
	"abi": [
		{
			"inputs": [
				{
					"internalType": "address",
					"name": "_transactionContractAddress",
					"type": "address"
				},
				{
					"internalType": "address",
					"name": "_Parser",
					"type": "address"
				},
				{
					"internalType": "address",
					"name": "_reportAddress",
					"type": "address"
				}
			],
			"stateMutability": "nonpayable",
			"type": "constructor"
		},
		{
			"anonymous": false,
			"inputs": [
				{
					"indexed": false,
					"internalType": "string",
					"name": "eventId",
					"type": "string"
				},
				{
					"indexed": false,
					"internalType": "int256",
					"name": "EP001",
					"type": "int256"
				},
				{
					"indexed": false,
					"internalType": "int256",
					"name": "EP002",
					"type": "int256"
				},
				{
					"indexed": false,
					"internalType": "int256",
					"name": "EP003",
					"type": "int256"
				},
				{
					"indexed": false,
					"internalType": "int256",
					"name": "EP004",
					"type": "int256"
				},
				{
					"indexed": false,
					"internalType": "int256",
					"name": "EP006",
					"type": "int256"
				}
			],
			"name": "EventEP001",
			"type": "event"
		},
		{
			"anonymous": false,
			"inputs": [
				{
					"indexed": false,
					"internalType": "string",
					"name": "eventId",
					"type": "string"
				},
				{
					"indexed": false,
					"internalType": "int256",
					"name": "SP002",
					"type": "int256"
				},
				{
					"indexed": false,
					"internalType": "int256",
					"name": "SP003",
					"type": "int256"
				},
				{
					"indexed": false,
					"internalType": "int256",
					"name": "SP004",
					"type": "int256"
				}
			],
			"name": "EventIdAndRateReceived",
			"type": "event"
		},
		{
			"inputs": [],
			"name": "Iparser",
			"outputs": [
				{
					"internalType": "contract IParser",
					"name": "",
					"type": "address"
				}
			],
			"stateMutability": "view",
			"type": "function"
		},
		{
			"inputs": [
				{
					"internalType": "bytes32",
					"name": "_eventId",
					"type": "bytes32"
				},
				{
					"internalType": "bytes32",
					"name": "_reportID",
					"type": "bytes32"
				},
				{
					"internalType": "bytes32",
					"name": "_SP002",
					"type": "bytes32"
				},
				{
					"internalType": "bytes32",
					"name": "_SP003",
					"type": "bytes32"
				},
				{
					"internalType": "bytes32",
					"name": "_SP004",
					"type": "bytes32"
				}
			],
			"name": "getEventIdAndRate",
			"outputs": [],
			"stateMutability": "nonpayable",
			"type": "function"
		},
		{
			"inputs": [],
			"name": "report",
			"outputs": [
				{
					"internalType": "contract Reports",
					"name": "",
					"type": "address"
				}
			],
			"stateMutability": "view",
			"type": "function"
		},
		{
			"inputs": [],
			"name": "transactionContract",
			"outputs": [
				{
					"internalType": "contract TransactionContract",
					"name": "",
					"type": "address"
				}
			],
			"stateMutability": "view",
			"type": "function"
		}
	]
}