{
	"data": {
		"bytecode": {
			"linkReferences": {},
			"object": "60806040523480156200001157600080fd5b50604051620038633803806200386383398181016040528101906200003791906200012a565b81600a60006101000a81548173ffffffffffffffffffffffffffffffffffffffff021916908373ffffffffffffffffffffffffffffffffffffffff160217905550806000806101000a81548173ffffffffffffffffffffffffffffffffffffffff021916908373ffffffffffffffffffffffffffffffffffffffff160217905550505062000171565b600080fd5b600073ffffffffffffffffffffffffffffffffffffffff82169050919050565b6000620000f282620000c5565b9050919050565b6200010481620000e5565b81146200011057600080fd5b50565b6000815190506200012481620000f9565b92915050565b60008060408385031215620001445762000143620000c0565b5b6000620001548582860162000113565b9250506020620001678582860162000113565b9150509250929050565b6136e280620001816000396000f3fe608060405234801561001057600080fd5b50600436106100415760003560e01c80631f45275b146100465780632606a10b14610064578063d6bc166d14610082575b600080fd5b61004e61009e565b60405161005b91906122c5565b60405180910390f35b61006c6100c4565b6040516100799190612301565b60405180910390f35b61009c600480360381019061009791906124ac565b6100e8565b005b600a60009054906101000a900473ffffffffffffffffffffffffffffffffffffffff1681565b60008054906101000a900473ffffffffffffffffffffffffffffffffffffffff1681565b826001819055508160028190555080600381905550846008908161010c919061276c565b50836009908161011c919061276c565b507f2f8b6c1fd8fe2d4e7dd11b901ace8653bc7de5d664372c606d1f14cac3b1d9528584848460405161015294939291906128c1565b60405180910390a18460405160200161016b9190612949565b60405160208183030381529060405280519060200120600860405160200161019391906129e3565b604051602081830303815290604052805190602001200361047e57600a60009054906101000a900473ffffffffffffffffffffffffffffffffffffffff1673ffffffffffffffffffffffffffffffffffffffff1663d6fa22b9866040518263ffffffff1660e01b81526004016102099190612a46565b602060405180830381865afa158015610226573d6000803e3d6000fd5b505050506040513d601f19601f8201168201806040525081019061024a9190612a90565b600481905550600a60009054906101000a900473ffffffffffffffffffffffffffffffffffffffff1673ffffffffffffffffffffffffffffffffffffffff1663d6fa22b9866040518263ffffffff1660e01b81526004016102ab9190612b09565b602060405180830381865afa1580156102c8573d6000803e3d6000fd5b505050506040513d601f19601f820116820180604052508101906102ec9190612a90565b600581905550600a60009054906101000a900473ffffffffffffffffffffffffffffffffffffffff1673ffffffffffffffffffffffffffffffffffffffff1663d6fa22b9866040518263ffffffff1660e01b815260040161034d9190612b8a565b602060405180830381865afa15801561036a573d6000803e3d6000fd5b505050506040513d601f19601f8201168201806040525081019061038e9190612a90565b600681905550600a60009054906101000a900473ffffffffffffffffffffffffffffffffffffffff1673ffffffffffffffffffffffffffffffffffffffff1663d6fa22b9866040518263ffffffff1660e01b81526004016103ef9190612c0b565b602060405180830381865afa15801561040c573d6000803e3d6000fd5b505050506040513d601f19601f820116820180604052508101906104309190612a90565b6007819055507f117c37ae5b048dc17f2eae7251347332ea4fa6db043a63b2ff4ef49062aed29285600454600554600654600754604051610475959493929190612c40565b60405180910390a15b61048661049d565b61048e61143e565b6104966118d4565b5050505050565b600060646002546006546004546104b49190612cc9565b6104be9190612cfd565b6104c89190612d6e565b90506000600567ffffffffffffffff8111156104e7576104e661234b565b5b60405190808252806020026020018201604052801561051a57816020015b60608152602001906001900390816105055790505b509050604051806060016040528060328152602001613195603291398160008151811061054a57610549612d9f565b5b60200260200101819052506040518060400160405280601b81526020017f6173736574732e746f74616c416d6f756e744661697256616c756500000000008152508160018151811061059f5761059e612d9f565b5b60200260200101819052506040518060400160405280601481526020017f746f74616c4173736574734661697256616c7565000000000000000000000000815250816002815181106105f4576105f3612d9f565b5b602002602001018190525060405180606001604052806022815260200161331e602291398160038151811061062c5761062b612d9f565b5b6020026020010181905250604051806060016040528060358152602001613607603591398160048151811061066457610663612d9f565b5b602002602001018190525060008054906101000a900473ffffffffffffffffffffffffffffffffffffffff1673ffffffffffffffffffffffffffffffffffffffff16637a1a29fb6009836000815181106106c1576106c0612d9f565b5b6020026020010151856040518463ffffffff1660e01b81526004016106e893929190612eb7565b600060405180830381600087803b15801561070257600080fd5b505af1158015610716573d6000803e3d6000fd5b5050505060008054906101000a900473ffffffffffffffffffffffffffffffffffffffff1673ffffffffffffffffffffffffffffffffffffffff16637a1a29fb60098360018151811061076c5761076b612d9f565b5b6020026020010151856040518463ffffffff1660e01b815260040161079393929190612eb7565b600060405180830381600087803b1580156107ad57600080fd5b505af11580156107c1573d6000803e3d6000fd5b5050505060008054906101000a900473ffffffffffffffffffffffffffffffffffffffff1673ffffffffffffffffffffffffffffffffffffffff16637a1a29fb60098360028151811061081757610816612d9f565b5b6020026020010151856040518463ffffffff1660e01b815260040161083e93929190612eb7565b600060405180830381600087803b15801561085857600080fd5b505af115801561086c573d6000803e3d6000fd5b5050505060008054906101000a900473ffffffffffffffffffffffffffffffffffffffff1673ffffffffffffffffffffffffffffffffffffffff16637a1a29fb6009836003815181106108c2576108c1612d9f565b5b6020026020010151856040518463ffffffff1660e01b81526004016108e993929190612eb7565b600060405180830381600087803b15801561090357600080fd5b505af1158015610917573d6000803e3d6000fd5b5050505060008054906101000a900473ffffffffffffffffffffffffffffffffffffffff1673ffffffffffffffffffffffffffffffffffffffff16637a1a29fb60098360048151811061096d5761096c612d9f565b5b6020026020010151856040518463ffffffff1660e01b815260040161099493929190612eb7565b600060405180830381600087803b1580156109ae57600080fd5b505af11580156109c2573d6000803e3d6000fd5b5050505060006006546004546109d89190612cc9565b90506000600167ffffffffffffffff8111156109f7576109f661234b565b5b604051908082528060200260200182016040528015610a2a57816020015b6060815260200190600190039081610a155790505b5090506040518060600160405280603281526020016131636032913981600081518110610a5a57610a59612d9f565b5b602002602001018190525060008054906101000a900473ffffffffffffffffffffffffffffffffffffffff1673ffffffffffffffffffffffffffffffffffffffff16637a1a29fb600983600081518110610ab757610ab6612d9f565b5b6020026020010151856040518463ffffffff1660e01b8152600401610ade93929190612eb7565b600060405180830381600087803b158015610af857600080fd5b505af1158015610b0c573d6000803e3d6000fd5b5050505060006064600254600554600454610b279190612f0f565b610b319190612cfd565b610b3b9190612d6e565b90506000600367ffffffffffffffff811115610b5a57610b5961234b565b5b604051908082528060200260200182016040528015610b8d57816020015b6060815260200190600190039081610b785790505b5090506040518060600160405280603481526020016133a46034913981600081518110610bbd57610bbc612d9f565b5b60200260200101819052506040518060600160405280603781526020016130ba6037913981600181518110610bf557610bf4612d9f565b5b60200260200101819052506040518060400160405280602081526020017f6c696162696c69746965732e746f74616c416d6f756e744661697256616c756581525081600281518110610c4a57610c49612d9f565b5b602002602001018190525060008054906101000a900473ffffffffffffffffffffffffffffffffffffffff1673ffffffffffffffffffffffffffffffffffffffff16637a1a29fb600983600081518110610ca757610ca6612d9f565b5b6020026020010151856040518463ffffffff1660e01b8152600401610cce93929190612eb7565b600060405180830381600087803b158015610ce857600080fd5b505af1158015610cfc573d6000803e3d6000fd5b5050505060008054906101000a900473ffffffffffffffffffffffffffffffffffffffff1673ffffffffffffffffffffffffffffffffffffffff16637a1a29fb600983600181518110610d5257610d51612d9f565b5b6020026020010151856040518463ffffffff1660e01b8152600401610d7993929190612eb7565b600060405180830381600087803b158015610d9357600080fd5b505af1158015610da7573d6000803e3d6000fd5b5050505060008054906101000a900473ffffffffffffffffffffffffffffffffffffffff1673ffffffffffffffffffffffffffffffffffffffff16637a1a29fb600983600281518110610dfd57610dfc612d9f565b5b6020026020010151856040518463ffffffff1660e01b8152600401610e2493929190612eb7565b600060405180830381600087803b158015610e3e57600080fd5b505af1158015610e52573d6000803e3d6000fd5b5050505060006064600254600654600554610e6d9190612cc9565b610e779190612cfd565b610e819190612d6e565b90506000600367ffffffffffffffff811115610ea057610e9f61234b565b5b604051908082528060200260200182016040528015610ed357816020015b6060815260200190600190039081610ebe5790505b50905060405180606001604052806034815260200161348b6034913981600081518110610f0357610f02612d9f565b5b60200260200101819052506040518060600160405280603781526020016133406037913981600181518110610f3b57610f3a612d9f565b5b60200260200101819052506040518060400160405280601b81526020017f6571756974792e746f74616c416d6f756e744661697256616c7565000000000081525081600281518110610f9057610f8f612d9f565b5b602002602001018190525060008054906101000a900473ffffffffffffffffffffffffffffffffffffffff1673ffffffffffffffffffffffffffffffffffffffff16637a1a29fb600983600081518110610fed57610fec612d9f565b5b6020026020010151856040518463ffffffff1660e01b815260040161101493929190612eb7565b600060405180830381600087803b15801561102e57600080fd5b505af1158015611042573d6000803e3d6000fd5b5050505060008054906101000a900473ffffffffffffffffffffffffffffffffffffffff1673ffffffffffffffffffffffffffffffffffffffff16637a1a29fb60098360018151811061109857611097612d9f565b5b6020026020010151856040518463ffffffff1660e01b81526004016110bf93929190612eb7565b600060405180830381600087803b1580156110d957600080fd5b505af11580156110ed573d6000803e3d6000fd5b5050505060008054906101000a900473ffffffffffffffffffffffffffffffffffffffff1673ffffffffffffffffffffffffffffffffffffffff16637a1a29fb60098360028151811061114357611142612d9f565b5b6020026020010151856040518463ffffffff1660e01b815260040161116a93929190612eb7565b600060405180830381600087803b15801561118457600080fd5b505af1158015611198573d6000803e3d6000fd5b5050505060006006546005546111ae9190612cc9565b90506000600167ffffffffffffffff8111156111cd576111cc61234b565b5b60405190808252806020026020018201604052801561120057816020015b60608152602001906001900390816111eb5790505b50905060405180606001604052806034815260200161345760349139816000815181106112305761122f612d9f565b5b602002602001018190525060008054906101000a900473ffffffffffffffffffffffffffffffffffffffff1673ffffffffffffffffffffffffffffffffffffffff16637a1a29fb60098360008151811061128d5761128c612d9f565b5b6020026020010151856040518463ffffffff1660e01b81526004016112b493929190612eb7565b600060405180830381600087803b1580156112ce57600080fd5b505af11580156112e2573d6000803e3d6000fd5b5050505060006005546004546112f89190612f0f565b90506000600167ffffffffffffffff8111156113175761131661234b565b5b60405190808252806020026020018201604052801561134a57816020015b60608152602001906001900390816113355790505b509050604051806060016040528060348152602001613550603491398160008151811061137a57611379612d9f565b5b602002602001018190525060008054906101000a900473ffffffffffffffffffffffffffffffffffffffff1673ffffffffffffffffffffffffffffffffffffffff16637a1a29fb6009836000815181106113d7576113d6612d9f565b5b6020026020010151856040518463ffffffff1660e01b81526004016113fe93929190612eb7565b600060405180830381600087803b15801561141857600080fd5b505af115801561142c573d6000803e3d6000fd5b50505050505050505050505050505050565b600060646007546006546005546114559190612cc9565b61145f9190612cfd565b6114699190612d6e565b90506000600367ffffffffffffffff8111156114885761148761234b565b5b6040519080825280602002602001820160405280156114bb57816020015b60608152602001906001900390816114a65790505b5090506040518060600160405280602d8152602001613377602d9139816000815181106114eb576114ea612d9f565b5b60200260200101819052506040518060600160405280603b815260200161329f603b91398160018151811061152357611522612d9f565b5b60200260200101819052506040518060400160405280600981526020017f6e657450726f66697400000000000000000000000000000000000000000000008152508160028151811061157857611577612d9f565b5b602002602001018190525060008054906101000a900473ffffffffffffffffffffffffffffffffffffffff1673ffffffffffffffffffffffffffffffffffffffff16637a1a29fb6009836000815181106115d5576115d4612d9f565b5b6020026020010151856040518463ffffffff1660e01b81526004016115fc93929190612f8f565b600060405180830381600087803b15801561161657600080fd5b505af115801561162a573d6000803e3d6000fd5b5050505060008054906101000a900473ffffffffffffffffffffffffffffffffffffffff1673ffffffffffffffffffffffffffffffffffffffff16637a1a29fb6009836001815181106116805761167f612d9f565b5b6020026020010151856040518463ffffffff1660e01b81526004016116a793929190612f8f565b600060405180830381600087803b1580156116c157600080fd5b505af11580156116d5573d6000803e3d6000fd5b5050505060008054906101000a900473ffffffffffffffffffffffffffffffffffffffff1673ffffffffffffffffffffffffffffffffffffffff16637a1a29fb60098360028151811061172b5761172a612d9f565b5b6020026020010151856040518463ffffffff1660e01b815260040161175293929190612f8f565b600060405180830381600087803b15801561176c57600080fd5b505af1158015611780573d6000803e3d6000fd5b5050505060006006546005546117969190612cc9565b90506000600167ffffffffffffffff8111156117b5576117b461234b565b5b6040519080825280602002602001820160405280156117e857816020015b60608152602001906001900390816117d35790505b5090506040518060600160405280602e815260200161308c602e91398160008151811061181857611817612d9f565b5b602002602001018190525060008054906101000a900473ffffffffffffffffffffffffffffffffffffffff1673ffffffffffffffffffffffffffffffffffffffff16637a1a29fb60098360008151811061187557611874612d9f565b5b6020026020010151856040518463ffffffff1660e01b815260040161189c93929190612f8f565b600060405180830381600087803b1580156118b657600080fd5b505af11580156118ca573d6000803e3d6000fd5b5050505050505050565b600060646007546005546004546118eb9190612f0f565b6118f59190612cfd565b6118ff9190612d6e565b90506000600267ffffffffffffffff81111561191e5761191d61234b565b5b60405190808252806020026020018201604052801561195157816020015b606081526020019060019003908161193c5790505b5090506040518060a001604052806071815260200161363c607191398160008151811061198157611980612d9f565b5b60200260200101819052506040518060a00160405280607f81526020016133d8607f9139816001815181106119b9576119b8612d9f565b5b602002602001018190525060008054906101000a900473ffffffffffffffffffffffffffffffffffffffff1673ffffffffffffffffffffffffffffffffffffffff16637a1a29fb600983600081518110611a1657611a15612d9f565b5b6020026020010151856040518463ffffffff1660e01b8152600401611a3d93929190613033565b600060405180830381600087803b158015611a5757600080fd5b505af1158015611a6b573d6000803e3d6000fd5b5050505060008054906101000a900473ffffffffffffffffffffffffffffffffffffffff1673ffffffffffffffffffffffffffffffffffffffff16637a1a29fb600983600181518110611ac157611ac0612d9f565b5b6020026020010151856040518463ffffffff1660e01b8152600401611ae893929190613033565b600060405180830381600087803b158015611b0257600080fd5b505af1158015611b16573d6000803e3d6000fd5b505050506000600554600454611b2c9190612f0f565b90506000600167ffffffffffffffff811115611b4b57611b4a61234b565b5b604051908082528060200260200182016040528015611b7e57816020015b6060815260200190600190039081611b695790505b5090506040518060a00160405280607281526020016130f16072913981600081518110611bae57611bad612d9f565b5b602002602001018190525060008054906101000a900473ffffffffffffffffffffffffffffffffffffffff1673ffffffffffffffffffffffffffffffffffffffff16637a1a29fb600983600081518110611c0b57611c0a612d9f565b5b6020026020010151856040518463ffffffff1660e01b8152600401611c3293929190613033565b600060405180830381600087803b158015611c4c57600080fd5b505af1158015611c60573d6000803e3d6000fd5b5050505060006064600754600654600554611c7b9190612cc9565b611c859190612cfd565b611c8f9190612d6e565b90506000600267ffffffffffffffff811115611cae57611cad61234b565b5b604051908082528060200260200182016040528015611ce157816020015b6060815260200190600190039081611ccc5790505b5090506040518060c00160405280608381526020016135846083913981600081518110611d1157611d10612d9f565b5b60200260200101819052506040518060c00160405280609181526020016134bf6091913981600181518110611d4957611d48612d9f565b5b602002602001018190525060008054906101000a900473ffffffffffffffffffffffffffffffffffffffff1673ffffffffffffffffffffffffffffffffffffffff16637a1a29fb600983600081518110611da657611da5612d9f565b5b6020026020010151856040518463ffffffff1660e01b8152600401611dcd93929190613033565b600060405180830381600087803b158015611de757600080fd5b505af1158015611dfb573d6000803e3d6000fd5b5050505060008054906101000a900473ffffffffffffffffffffffffffffffffffffffff1673ffffffffffffffffffffffffffffffffffffffff16637a1a29fb600983600181518110611e5157611e50612d9f565b5b6020026020010151856040518463ffffffff1660e01b8152600401611e7893929190613033565b600060405180830381600087803b158015611e9257600080fd5b505af1158015611ea6573d6000803e3d6000fd5b505050506000600654600554611ebc9190612cc9565b90506000600167ffffffffffffffff811115611edb57611eda61234b565b5b604051908082528060200260200182016040528015611f0e57816020015b6060815260200190600190039081611ef95790505b5090506040518060c001604052806084815260200161321b6084913981600081518110611f3e57611f3d612d9f565b5b602002602001018190525060008054906101000a900473ffffffffffffffffffffffffffffffffffffffff1673ffffffffffffffffffffffffffffffffffffffff16637a1a29fb600983600081518110611f9b57611f9a612d9f565b5b6020026020010151856040518463ffffffff1660e01b8152600401611fc293929190613033565b600060405180830381600087803b158015611fdc57600080fd5b505af1158015611ff0573d6000803e3d6000fd5b505050506000606460075460065460045461200b9190612cc9565b6120159190612cfd565b61201f9190612d6e565b90506000600267ffffffffffffffff81111561203e5761203d61234b565b5b60405190808252806020026020018201604052801561207157816020015b606081526020019060019003908161205c5790505b5090506040518060800160405280604481526020016132da60449139816000815181106120a1576120a0612d9f565b5b60200260200101819052506040518060800160405280605481526020016131c760549139816001815181106120d9576120d8612d9f565b5b602002602001018190525060008054906101000a900473ffffffffffffffffffffffffffffffffffffffff1673ffffffffffffffffffffffffffffffffffffffff16637a1a29fb60098360008151811061213657612135612d9f565b5b6020026020010151856040518463ffffffff1660e01b815260040161215d93929190613033565b600060405180830381600087803b15801561217757600080fd5b505af115801561218b573d6000803e3d6000fd5b5050505060008054906101000a900473ffffffffffffffffffffffffffffffffffffffff1673ffffffffffffffffffffffffffffffffffffffff16637a1a29fb6009836001815181106121e1576121e0612d9f565b5b6020026020010151856040518463ffffffff1660e01b815260040161220893929190613033565b600060405180830381600087803b15801561222257600080fd5b505af1158015612236573d6000803e3d6000fd5b5050505050505050505050505050565b600073ffffffffffffffffffffffffffffffffffffffff82169050919050565b6000819050919050565b600061228b61228661228184612246565b612266565b612246565b9050919050565b600061229d82612270565b9050919050565b60006122af82612292565b9050919050565b6122bf816122a4565b82525050565b60006020820190506122da60008301846122b6565b92915050565b60006122eb82612292565b9050919050565b6122fb816122e0565b82525050565b600060208201905061231660008301846122f2565b92915050565b6000604051905090565b600080fd5b600080fd5b600080fd5b600080fd5b6000601f19601f8301169050919050565b7f4e487b7100000000000000000000000000000000000000000000000000000000600052604160045260246000fd5b6123838261233a565b810181811067ffffffffffffffff821117156123a2576123a161234b565b5b80604052505050565b60006123b561231c565b90506123c1828261237a565b919050565b600067ffffffffffffffff8211156123e1576123e061234b565b5b6123ea8261233a565b9050602081019050919050565b82818337600083830152505050565b6000612419612414846123c6565b6123ab565b90508281526020810184848401111561243557612434612335565b5b6124408482856123f7565b509392505050565b600082601f83011261245d5761245c612330565b5b813561246d848260208601612406565b91505092915050565b6000819050919050565b61248981612476565b811461249457600080fd5b50565b6000813590506124a681612480565b92915050565b600080600080600060a086880312156124c8576124c7612326565b5b600086013567ffffffffffffffff8111156124e6576124e561232b565b5b6124f288828901612448565b955050602086013567ffffffffffffffff8111156125135761251261232b565b5b61251f88828901612448565b945050604061253088828901612497565b935050606061254188828901612497565b925050608061255288828901612497565b9150509295509295909350565b600081519050919050565b7f4e487b7100000000000000000000000000000000000000000000000000000000600052602260045260246000fd5b600060028204905060018216806125b157607f821691505b6020821081036125c4576125c361256a565b5b50919050565b60008190508160005260206000209050919050565b60006020601f8301049050919050565b600082821b905092915050565b60006008830261262c7fffffffffffffffffffffffffffffffffffffffffffffffffffffffffffffffff826125ef565b61263686836125ef565b95508019841693508086168417925050509392505050565b600061266961266461265f84612476565b612266565b612476565b9050919050565b6000819050919050565b6126838361264e565b61269761268f82612670565b8484546125fc565b825550505050565b600090565b6126ac61269f565b6126b781848461267a565b505050565b5b818110156126db576126d06000826126a4565b6001810190506126bd565b5050565b601f821115612720576126f1816125ca565b6126fa846125df565b81016020851015612709578190505b61271d612715856125df565b8301826126bc565b50505b505050565b600082821c905092915050565b600061274360001984600802612725565b1980831691505092915050565b600061275c8383612732565b9150826002028217905092915050565b6127758261255f565b67ffffffffffffffff81111561278e5761278d61234b565b5b6127988254612599565b6127a38282856126df565b600060209050601f8311600181146127d657600084156127c4578287015190505b6127ce8582612750565b865550612836565b601f1984166127e4866125ca565b60005b8281101561280c578489015182556001820191506020850194506020810190506127e7565b868310156128295784890151612825601f891682612732565b8355505b6001600288020188555050505b505050505050565b600082825260208201905092915050565b60005b8381101561286d578082015181840152602081019050612852565b60008484015250505050565b60006128848261255f565b61288e818561283e565b935061289e81856020860161284f565b6128a78161233a565b840191505092915050565b6128bb81612476565b82525050565b600060808201905081810360008301526128db8187612879565b90506128ea60208301866128b2565b6128f760408301856128b2565b61290460608301846128b2565b95945050505050565b600081905092915050565b60006129238261255f565b61292d818561290d565b935061293d81856020860161284f565b80840191505092915050565b60006129558284612918565b915081905092915050565b6000815461296d81612599565b612977818661290d565b9450600182166000811461299257600181146129a7576129da565b60ff19831686528115158202860193506129da565b6129b0856125ca565b60005b838110156129d2578154818901526001820191506020810190506129b3565b838801955050505b50505092915050565b60006129ef8284612960565b915081905092915050565b7f4550303031000000000000000000000000000000000000000000000000000000600082015250565b6000612a3060058361283e565b9150612a3b826129fa565b602082019050919050565b60006040820190508181036000830152612a608184612879565b90508181036020830152612a7381612a23565b905092915050565b600081519050612a8a81612480565b92915050565b600060208284031215612aa657612aa5612326565b5b6000612ab484828501612a7b565b91505092915050565b7f4550303032000000000000000000000000000000000000000000000000000000600082015250565b6000612af360058361283e565b9150612afe82612abd565b602082019050919050565b60006040820190508181036000830152612b238184612879565b90508181036020830152612b3681612ae6565b905092915050565b7f4550303033000000000000000000000000000000000000000000000000000000600082015250565b6000612b7460058361283e565b9150612b7f82612b3e565b602082019050919050565b60006040820190508181036000830152612ba48184612879565b90508181036020830152612bb781612b67565b905092915050565b7f4550303035000000000000000000000000000000000000000000000000000000600082015250565b6000612bf560058361283e565b9150612c0082612bbf565b602082019050919050565b60006040820190508181036000830152612c258184612879565b90508181036020830152612c3881612be8565b905092915050565b600060a0820190508181036000830152612c5a8188612879565b9050612c6960208301876128b2565b612c7660408301866128b2565b612c8360608301856128b2565b612c9060808301846128b2565b9695505050505050565b7f4e487b7100000000000000000000000000000000000000000000000000000000600052601160045260246000fd5b6000612cd482612476565b9150612cdf83612476565b9250828201905080821115612cf757612cf6612c9a565b5b92915050565b6000612d0882612476565b9150612d1383612476565b9250828202612d2181612476565b91508282048414831517612d3857612d37612c9a565b5b5092915050565b7f4e487b7100000000000000000000000000000000000000000000000000000000600052601260045260246000fd5b6000612d7982612476565b9150612d8483612476565b925082612d9457612d93612d3f565b5b828204905092915050565b7f4e487b7100000000000000000000000000000000000000000000000000000000600052603260045260246000fd5b60008154612ddb81612599565b612de5818661283e565b94506001821660008114612e005760018114612e1657612e49565b60ff198316865281151560200286019350612e49565b612e1f856125ca565b60005b83811015612e4157815481890152600182019150602081019050612e22565b808801955050505b50505092915050565b7f62616c616e636553686565740000000000000000000000000000000000000000600082015250565b6000612e88600c8361283e565b9150612e9382612e52565b602082019050919050565b6000819050919050565b612eb181612e9e565b82525050565b60006080820190508181036000830152612ed18186612dce565b90508181036020830152612ee481612e7b565b90508181036040830152612ef88185612879565b9050612f076060830184612ea8565b949350505050565b6000612f1a82612476565b9150612f2583612476565b9250828203905081811115612f3d57612f3c612c9a565b5b92915050565b7f636f6d70726568656e73697665496e636f6d6500000000000000000000000000600082015250565b6000612f7960138361283e565b9150612f8482612f43565b602082019050919050565b60006080820190508181036000830152612fa98186612dce565b90508181036020830152612fbc81612f6c565b90508181036040830152612fd08185612879565b9050612fdf6060830184612ea8565b949350505050565b7f63617368466c6f77000000000000000000000000000000000000000000000000600082015250565b600061301d60088361283e565b915061302882612fe7565b602082019050919050565b6000608082019050818103600083015261304d8186612dce565b9050818103602083015261306081613010565b905081810360408301526130748185612879565b90506130836060830184612ea8565b94935050505056fe696e636f6d652e64657461696c732e6465706f7369744665652e627265616b646f776e2e4554482e616d6f756e746c696162696c69746965732e64657461696c732e757365724465706f7369742e627265616b646f776e2e4554482e6661697256616c7565737570706c656d656e74616c5363686564756c654f664e6f6e436173684f7065726174696e67416374697669746965732e64657461696c732e63727970746f63757272656e636965734465706f73697465644279437573746f6d6572732e627265616b646f776e2e4554482e616d6f756e746173736574732e64657461696c732e63727970746f63757272656e63792e627265616b646f776e2e4554482e616d6f756e746173736574732e64657461696c732e63727970746f63757272656e63792e746f74616c416d6f756e744661697256616c7565737570706c656d656e74616c5363686564756c654f664e6f6e436173684f7065726174696e67416374697669746965732e64657461696c732e63727970746f63757272656e63696573456e644f66506572696f64737570706c656d656e74616c5363686564756c654f664e6f6e436173684f7065726174696e67416374697669746965732e64657461696c732e63727970746f63757272656e63696573526563656976656446726f6d437573746f6d65727341735472616e73616374696f6e466565732e627265616b646f776e2e4554482e616d6f756e74696e636f6d652e64657461696c732e6465706f7369744665652e627265616b646f776e2e4554482e776569676874656441766572616765436f7374737570706c656d656e74616c5363686564756c654f664e6f6e436173684f7065726174696e67416374697669746965732e776569676874656441766572616765436f7374746f74616c4c696162696c6974696573416e644571756974794661697256616c75656571756974792e64657461696c732e72657461696e65644561726e696e67732e627265616b646f776e2e4554482e6661697256616c7565696e636f6d652e64657461696c732e6465706f7369744665652e776569676874656441766572616765436f73746c696162696c69746965732e64657461696c732e757365724465706f7369742e746f74616c416d6f756e744661697256616c7565737570706c656d656e74616c5363686564756c654f664e6f6e436173684f7065726174696e67416374697669746965732e64657461696c732e63727970746f63757272656e636965734465706f73697465644279437573746f6d6572732e627265616b646f776e2e4554482e776569676874656441766572616765436f73746571756974792e64657461696c732e72657461696e65644561726e696e67732e627265616b646f776e2e4554482e616d6f756e746571756974792e64657461696c732e72657461696e65644561726e696e67732e746f74616c416d6f756e744661697256616c7565737570706c656d656e74616c5363686564756c654f664e6f6e436173684f7065726174696e67416374697669746965732e64657461696c732e63727970746f63757272656e63696573526563656976656446726f6d437573746f6d65727341735472616e73616374696f6e466565732e627265616b646f776e2e4554482e776569676874656441766572616765436f73746c696162696c69746965732e64657461696c732e757365724465706f7369742e627265616b646f776e2e4554482e616d6f756e74737570706c656d656e74616c5363686564756c654f664e6f6e436173684f7065726174696e67416374697669746965732e64657461696c732e63727970746f63757272656e63696573526563656976656446726f6d437573746f6d65727341735472616e73616374696f6e466565732e776569676874656441766572616765436f73746173736574732e64657461696c732e63727970746f63757272656e63792e627265616b646f776e2e4554482e6661697256616c7565737570706c656d656e74616c5363686564756c654f664e6f6e436173684f7065726174696e67416374697669746965732e64657461696c732e63727970746f63757272656e636965734465706f73697465644279437573746f6d6572732e776569676874656441766572616765436f7374a26469706673582212208cbaadddb64fed36e65e8d18d0e71e288783180ecb2c053ccd1b84a3dac32de564736f6c63430008120033",
			"opcodes": "PUSH1 0x80 PUSH1 0x40 MSTORE CALLVALUE DUP1 ISZERO PUSH3 0x11 JUMPI PUSH1 0x0 DUP1 REVERT JUMPDEST POP PUSH1 0x40 MLOAD PUSH3 0x3863 CODESIZE SUB DUP1 PUSH3 0x3863 DUP4 CODECOPY DUP2 DUP2 ADD PUSH1 0x40 MSTORE DUP2 ADD SWAP1 PUSH3 0x37 SWAP2 SWAP1 PUSH3 0x12A JUMP JUMPDEST DUP2 PUSH1 0xA PUSH1 0x0 PUSH2 0x100 EXP DUP2 SLOAD DUP2 PUSH20 0xFFFFFFFFFFFFFFFFFFFFFFFFFFFFFFFFFFFFFFFF MUL NOT AND SWAP1 DUP4 PUSH20 0xFFFFFFFFFFFFFFFFFFFFFFFFFFFFFFFFFFFFFFFF AND MUL OR SWAP1 SSTORE POP DUP1 PUSH1 0x0 DUP1 PUSH2 0x100 EXP DUP2 SLOAD DUP2 PUSH20 0xFFFFFFFFFFFFFFFFFFFFFFFFFFFFFFFFFFFFFFFF MUL NOT AND SWAP1 DUP4 PUSH20 0xFFFFFFFFFFFFFFFFFFFFFFFFFFFFFFFFFFFFFFFF AND MUL OR SWAP1 SSTORE POP POP POP PUSH3 0x171 JUMP JUMPDEST PUSH1 0x0 DUP1 REVERT JUMPDEST PUSH1 0x0 PUSH20 0xFFFFFFFFFFFFFFFFFFFFFFFFFFFFFFFFFFFFFFFF DUP3 AND SWAP1 POP SWAP2 SWAP1 POP JUMP JUMPDEST PUSH1 0x0 PUSH3 0xF2 DUP3 PUSH3 0xC5 JUMP JUMPDEST SWAP1 POP SWAP2 SWAP1 POP JUMP JUMPDEST PUSH3 0x104 DUP2 PUSH3 0xE5 JUMP JUMPDEST DUP2 EQ PUSH3 0x110 JUMPI PUSH1 0x0 DUP1 REVERT JUMPDEST POP JUMP JUMPDEST PUSH1 0x0 DUP2 MLOAD SWAP1 POP PUSH3 0x124 DUP2 PUSH3 0xF9 JUMP JUMPDEST SWAP3 SWAP2 POP POP JUMP JUMPDEST PUSH1 0x0 DUP1 PUSH1 0x40 DUP4 DUP6 SUB SLT ISZERO PUSH3 0x144 JUMPI PUSH3 0x143 PUSH3 0xC0 JUMP JUMPDEST JUMPDEST PUSH1 0x0 PUSH3 0x154 DUP6 DUP3 DUP7 ADD PUSH3 0x113 JUMP JUMPDEST SWAP3 POP POP PUSH1 0x20 PUSH3 0x167 DUP6 DUP3 DUP7 ADD PUSH3 0x113 JUMP JUMPDEST SWAP2 POP POP SWAP3 POP SWAP3 SWAP1 POP JUMP JUMPDEST PUSH2 0x36E2 DUP1 PUSH3 0x181 PUSH1 0x0 CODECOPY PUSH1 0x0 RETURN INVALID PUSH1 0x80 PUSH1 0x40 MSTORE CALLVALUE DUP1 ISZERO PUSH2 0x10 JUMPI PUSH1 0x0 DUP1 REVERT JUMPDEST POP PUSH1 0x4 CALLDATASIZE LT PUSH2 0x41 JUMPI PUSH1 0x0 CALLDATALOAD PUSH1 0xE0 SHR DUP1 PUSH4 0x1F45275B EQ PUSH2 0x46 JUMPI DUP1 PUSH4 0x2606A10B EQ PUSH2 0x64 JUMPI DUP1 PUSH4 0xD6BC166D EQ PUSH2 0x82 JUMPI JUMPDEST PUSH1 0x0 DUP1 REVERT JUMPDEST PUSH2 0x4E PUSH2 0x9E JUMP JUMPDEST PUSH1 0x40 MLOAD PUSH2 0x5B SWAP2 SWAP1 PUSH2 0x22C5 JUMP JUMPDEST PUSH1 0x40 MLOAD DUP1 SWAP2 SUB SWAP1 RETURN JUMPDEST PUSH2 0x6C PUSH2 0xC4 JUMP JUMPDEST PUSH1 0x40 MLOAD PUSH2 0x79 SWAP2 SWAP1 PUSH2 0x2301 JUMP JUMPDEST PUSH1 0x40 MLOAD DUP1 SWAP2 SUB SWAP1 RETURN JUMPDEST PUSH2 0x9C PUSH1 0x4 DUP1 CALLDATASIZE SUB DUP2 ADD SWAP1 PUSH2 0x97 SWAP2 SWAP1 PUSH2 0x24AC JUMP JUMPDEST PUSH2 0xE8 JUMP JUMPDEST STOP JUMPDEST PUSH1 0xA PUSH1 0x0 SWAP1 SLOAD SWAP1 PUSH2 0x100 EXP SWAP1 DIV PUSH20 0xFFFFFFFFFFFFFFFFFFFFFFFFFFFFFFFFFFFFFFFF AND DUP2 JUMP JUMPDEST PUSH1 0x0 DUP1 SLOAD SWAP1 PUSH2 0x100 EXP SWAP1 DIV PUSH20 0xFFFFFFFFFFFFFFFFFFFFFFFFFFFFFFFFFFFFFFFF AND DUP2 JUMP JUMPDEST DUP3 PUSH1 0x1 DUP2 SWAP1 SSTORE POP DUP2 PUSH1 0x2 DUP2 SWAP1 SSTORE POP DUP1 PUSH1 0x3 DUP2 SWAP1 SSTORE POP DUP5 PUSH1 0x8 SWAP1 DUP2 PUSH2 0x10C SWAP2 SWAP1 PUSH2 0x276C JUMP JUMPDEST POP DUP4 PUSH1 0x9 SWAP1 DUP2 PUSH2 0x11C SWAP2 SWAP1 PUSH2 0x276C JUMP JUMPDEST POP PUSH32 0x2F8B6C1FD8FE2D4E7DD11B901ACE8653BC7DE5D664372C606D1F14CAC3B1D952 DUP6 DUP5 DUP5 DUP5 PUSH1 0x40 MLOAD PUSH2 0x152 SWAP5 SWAP4 SWAP3 SWAP2 SWAP1 PUSH2 0x28C1 JUMP JUMPDEST PUSH1 0x40 MLOAD DUP1 SWAP2 SUB SWAP1 LOG1 DUP5 PUSH1 0x40 MLOAD PUSH1 0x20 ADD PUSH2 0x16B SWAP2 SWAP1 PUSH2 0x2949 JUMP JUMPDEST PUSH1 0x40 MLOAD PUSH1 0x20 DUP2 DUP4 SUB SUB DUP2 MSTORE SWAP1 PUSH1 0x40 MSTORE DUP1 MLOAD SWAP1 PUSH1 0x20 ADD KECCAK256 PUSH1 0x8 PUSH1 0x40 MLOAD PUSH1 0x20 ADD PUSH2 0x193 SWAP2 SWAP1 PUSH2 0x29E3 JUMP JUMPDEST PUSH1 0x40 MLOAD PUSH1 0x20 DUP2 DUP4 SUB SUB DUP2 MSTORE SWAP1 PUSH1 0x40 MSTORE DUP1 MLOAD SWAP1 PUSH1 0x20 ADD KECCAK256 SUB PUSH2 0x47E JUMPI PUSH1 0xA PUSH1 0x0 SWAP1 SLOAD SWAP1 PUSH2 0x100 EXP SWAP1 DIV PUSH20 0xFFFFFFFFFFFFFFFFFFFFFFFFFFFFFFFFFFFFFFFF AND PUSH20 0xFFFFFFFFFFFFFFFFFFFFFFFFFFFFFFFFFFFFFFFF AND PUSH4 0xD6FA22B9 DUP7 PUSH1 0x40 MLOAD DUP3 PUSH4 0xFFFFFFFF AND PUSH1 0xE0 SHL DUP2 MSTORE PUSH1 0x4 ADD PUSH2 0x209 SWAP2 SWAP1 PUSH2 0x2A46 JUMP JUMPDEST PUSH1 0x20 PUSH1 0x40 MLOAD DUP1 DUP4 SUB DUP2 DUP7 GAS STATICCALL ISZERO DUP1 ISZERO PUSH2 0x226 JUMPI RETURNDATASIZE PUSH1 0x0 DUP1 RETURNDATACOPY RETURNDATASIZE PUSH1 0x0 REVERT JUMPDEST POP POP POP POP PUSH1 0x40 MLOAD RETURNDATASIZE PUSH1 0x1F NOT PUSH1 0x1F DUP3 ADD AND DUP3 ADD DUP1 PUSH1 0x40 MSTORE POP DUP2 ADD SWAP1 PUSH2 0x24A SWAP2 SWAP1 PUSH2 0x2A90 JUMP JUMPDEST PUSH1 0x4 DUP2 SWAP1 SSTORE POP PUSH1 0xA PUSH1 0x0 SWAP1 SLOAD SWAP1 PUSH2 0x100 EXP SWAP1 DIV PUSH20 0xFFFFFFFFFFFFFFFFFFFFFFFFFFFFFFFFFFFFFFFF AND PUSH20 0xFFFFFFFFFFFFFFFFFFFFFFFFFFFFFFFFFFFFFFFF AND PUSH4 0xD6FA22B9 DUP7 PUSH1 0x40 MLOAD DUP3 PUSH4 0xFFFFFFFF AND PUSH1 0xE0 SHL DUP2 MSTORE PUSH1 0x4 ADD PUSH2 0x2AB SWAP2 SWAP1 PUSH2 0x2B09 JUMP JUMPDEST PUSH1 0x20 PUSH1 0x40 MLOAD DUP1 DUP4 SUB DUP2 DUP7 GAS STATICCALL ISZERO DUP1 ISZERO PUSH2 0x2C8 JUMPI RETURNDATASIZE PUSH1 0x0 DUP1 RETURNDATACOPY RETURNDATASIZE PUSH1 0x0 REVERT JUMPDEST POP POP POP POP PUSH1 0x40 MLOAD RETURNDATASIZE PUSH1 0x1F NOT PUSH1 0x1F DUP3 ADD AND DUP3 ADD DUP1 PUSH1 0x40 MSTORE POP DUP2 ADD SWAP1 PUSH2 0x2EC SWAP2 SWAP1 PUSH2 0x2A90 JUMP JUMPDEST PUSH1 0x5 DUP2 SWAP1 SSTORE POP PUSH1 0xA PUSH1 0x0 SWAP1 SLOAD SWAP1 PUSH2 0x100 EXP SWAP1 DIV PUSH20 0xFFFFFFFFFFFFFFFFFFFFFFFFFFFFFFFFFFFFFFFF AND PUSH20 0xFFFFFFFFFFFFFFFFFFFFFFFFFFFFFFFFFFFFFFFF AND PUSH4 0xD6FA22B9 DUP7 PUSH1 0x40 MLOAD DUP3 PUSH4 0xFFFFFFFF AND PUSH1 0xE0 SHL DUP2 MSTORE PUSH1 0x4 ADD PUSH2 0x34D SWAP2 SWAP1 PUSH2 0x2B8A JUMP JUMPDEST PUSH1 0x20 PUSH1 0x40 MLOAD DUP1 DUP4 SUB DUP2 DUP7 GAS STATICCALL ISZERO DUP1 ISZERO PUSH2 0x36A JUMPI RETURNDATASIZE PUSH1 0x0 DUP1 RETURNDATACOPY RETURNDATASIZE PUSH1 0x0 REVERT JUMPDEST POP POP POP POP PUSH1 0x40 MLOAD RETURNDATASIZE PUSH1 0x1F NOT PUSH1 0x1F DUP3 ADD AND DUP3 ADD DUP1 PUSH1 0x40 MSTORE POP DUP2 ADD SWAP1 PUSH2 0x38E SWAP2 SWAP1 PUSH2 0x2A90 JUMP JUMPDEST PUSH1 0x6 DUP2 SWAP1 SSTORE POP PUSH1 0xA PUSH1 0x0 SWAP1 SLOAD SWAP1 PUSH2 0x100 EXP SWAP1 DIV PUSH20 0xFFFFFFFFFFFFFFFFFFFFFFFFFFFFFFFFFFFFFFFF AND PUSH20 0xFFFFFFFFFFFFFFFFFFFFFFFFFFFFFFFFFFFFFFFF AND PUSH4 0xD6FA22B9 DUP7 PUSH1 0x40 MLOAD DUP3 PUSH4 0xFFFFFFFF AND PUSH1 0xE0 SHL DUP2 MSTORE PUSH1 0x4 ADD PUSH2 0x3EF SWAP2 SWAP1 PUSH2 0x2C0B JUMP JUMPDEST PUSH1 0x20 PUSH1 0x40 MLOAD DUP1 DUP4 SUB DUP2 DUP7 GAS STATICCALL ISZERO DUP1 ISZERO PUSH2 0x40C JUMPI RETURNDATASIZE PUSH1 0x0 DUP1 RETURNDATACOPY RETURNDATASIZE PUSH1 0x0 REVERT JUMPDEST POP POP POP POP PUSH1 0x40 MLOAD RETURNDATASIZE PUSH1 0x1F NOT PUSH1 0x1F DUP3 ADD AND DUP3 ADD DUP1 PUSH1 0x40 MSTORE POP DUP2 ADD SWAP1 PUSH2 0x430 SWAP2 SWAP1 PUSH2 0x2A90 JUMP JUMPDEST PUSH1 0x7 DUP2 SWAP1 SSTORE POP PUSH32 0x117C37AE5B048DC17F2EAE7251347332EA4FA6DB043A63B2FF4EF49062AED292 DUP6 PUSH1 0x4 SLOAD PUSH1 0x5 SLOAD PUSH1 0x6 SLOAD PUSH1 0x7 SLOAD PUSH1 0x40 MLOAD PUSH2 0x475 SWAP6 SWAP5 SWAP4 SWAP3 SWAP2 SWAP1 PUSH2 0x2C40 JUMP JUMPDEST PUSH1 0x40 MLOAD DUP1 SWAP2 SUB SWAP1 LOG1 JUMPDEST PUSH2 0x486 PUSH2 0x49D JUMP JUMPDEST PUSH2 0x48E PUSH2 0x143E JUMP JUMPDEST PUSH2 0x496 PUSH2 0x18D4 JUMP JUMPDEST POP POP POP POP POP JUMP JUMPDEST PUSH1 0x0 PUSH1 0x64 PUSH1 0x2 SLOAD PUSH1 0x6 SLOAD PUSH1 0x4 SLOAD PUSH2 0x4B4 SWAP2 SWAP1 PUSH2 0x2CC9 JUMP JUMPDEST PUSH2 0x4BE SWAP2 SWAP1 PUSH2 0x2CFD JUMP JUMPDEST PUSH2 0x4C8 SWAP2 SWAP1 PUSH2 0x2D6E JUMP JUMPDEST SWAP1 POP PUSH1 0x0 PUSH1 0x5 PUSH8 0xFFFFFFFFFFFFFFFF DUP2 GT ISZERO PUSH2 0x4E7 JUMPI PUSH2 0x4E6 PUSH2 0x234B JUMP JUMPDEST JUMPDEST PUSH1 0x40 MLOAD SWAP1 DUP1 DUP3 MSTORE DUP1 PUSH1 0x20 MUL PUSH1 0x20 ADD DUP3 ADD PUSH1 0x40 MSTORE DUP1 ISZERO PUSH2 0x51A JUMPI DUP2 PUSH1 0x20 ADD JUMPDEST PUSH1 0x60 DUP2 MSTORE PUSH1 0x20 ADD SWAP1 PUSH1 0x1 SWAP1 SUB SWAP1 DUP2 PUSH2 0x505 JUMPI SWAP1 POP JUMPDEST POP SWAP1 POP PUSH1 0x40 MLOAD DUP1 PUSH1 0x60 ADD PUSH1 0x40 MSTORE DUP1 PUSH1 0x32 DUP2 MSTORE PUSH1 0x20 ADD PUSH2 0x3195 PUSH1 0x32 SWAP2 CODECOPY DUP2 PUSH1 0x0 DUP2 MLOAD DUP2 LT PUSH2 0x54A JUMPI PUSH2 0x549 PUSH2 0x2D9F JUMP JUMPDEST JUMPDEST PUSH1 0x20 MUL PUSH1 0x20 ADD ADD DUP2 SWAP1 MSTORE POP PUSH1 0x40 MLOAD DUP1 PUSH1 0x40 ADD PUSH1 0x40 MSTORE DUP1 PUSH1 0x1B DUP2 MSTORE PUSH1 0x20 ADD PUSH32 0x6173736574732E746F74616C416D6F756E744661697256616C75650000000000 DUP2 MSTORE POP DUP2 PUSH1 0x1 DUP2 MLOAD DUP2 LT PUSH2 0x59F JUMPI PUSH2 0x59E PUSH2 0x2D9F JUMP JUMPDEST JUMPDEST PUSH1 0x20 MUL PUSH1 0x20 ADD ADD DUP2 SWAP1 MSTORE POP PUSH1 0x40 MLOAD DUP1 PUSH1 0x40 ADD PUSH1 0x40 MSTORE DUP1 PUSH1 0x14 DUP2 MSTORE PUSH1 0x20 ADD PUSH32 0x746F74616C4173736574734661697256616C7565000000000000000000000000 DUP2 MSTORE POP DUP2 PUSH1 0x2 DUP2 MLOAD DUP2 LT PUSH2 0x5F4 JUMPI PUSH2 0x5F3 PUSH2 0x2D9F JUMP JUMPDEST JUMPDEST PUSH1 0x20 MUL PUSH1 0x20 ADD ADD DUP2 SWAP1 MSTORE POP PUSH1 0x40 MLOAD DUP1 PUSH1 0x60 ADD PUSH1 0x40 MSTORE DUP1 PUSH1 0x22 DUP2 MSTORE PUSH1 0x20 ADD PUSH2 0x331E PUSH1 0x22 SWAP2 CODECOPY DUP2 PUSH1 0x3 DUP2 MLOAD DUP2 LT PUSH2 0x62C JUMPI PUSH2 0x62B PUSH2 0x2D9F JUMP JUMPDEST JUMPDEST PUSH1 0x20 MUL PUSH1 0x20 ADD ADD DUP2 SWAP1 MSTORE POP PUSH1 0x40 MLOAD DUP1 PUSH1 0x60 ADD PUSH1 0x40 MSTORE DUP1 PUSH1 0x35 DUP2 MSTORE PUSH1 0x20 ADD PUSH2 0x3607 PUSH1 0x35 SWAP2 CODECOPY DUP2 PUSH1 0x4 DUP2 MLOAD DUP2 LT PUSH2 0x664 JUMPI PUSH2 0x663 PUSH2 0x2D9F JUMP JUMPDEST JUMPDEST PUSH1 0x20 MUL PUSH1 0x20 ADD ADD DUP2 SWAP1 MSTORE POP PUSH1 0x0 DUP1 SLOAD SWAP1 PUSH2 0x100 EXP SWAP1 DIV PUSH20 0xFFFFFFFFFFFFFFFFFFFFFFFFFFFFFFFFFFFFFFFF AND PUSH20 0xFFFFFFFFFFFFFFFFFFFFFFFFFFFFFFFFFFFFFFFF AND PUSH4 0x7A1A29FB PUSH1 0x9 DUP4 PUSH1 0x0 DUP2 MLOAD DUP2 LT PUSH2 0x6C1 JUMPI PUSH2 0x6C0 PUSH2 0x2D9F JUMP JUMPDEST JUMPDEST PUSH1 0x20 MUL PUSH1 0x20 ADD ADD MLOAD DUP6 PUSH1 0x40 MLOAD DUP5 PUSH4 0xFFFFFFFF AND PUSH1 0xE0 SHL DUP2 MSTORE PUSH1 0x4 ADD PUSH2 0x6E8 SWAP4 SWAP3 SWAP2 SWAP1 PUSH2 0x2EB7 JUMP JUMPDEST PUSH1 0x0 PUSH1 0x40 MLOAD DUP1 DUP4 SUB DUP2 PUSH1 0x0 DUP8 DUP1 EXTCODESIZE ISZERO DUP1 ISZERO PUSH2 0x702 JUMPI PUSH1 0x0 DUP1 REVERT JUMPDEST POP GAS CALL ISZERO DUP1 ISZERO PUSH2 0x716 JUMPI RETURNDATASIZE PUSH1 0x0 DUP1 RETURNDATACOPY RETURNDATASIZE PUSH1 0x0 REVERT JUMPDEST POP POP POP POP PUSH1 0x0 DUP1 SLOAD SWAP1 PUSH2 0x100 EXP SWAP1 DIV PUSH20 0xFFFFFFFFFFFFFFFFFFFFFFFFFFFFFFFFFFFFFFFF AND PUSH20 0xFFFFFFFFFFFFFFFFFFFFFFFFFFFFFFFFFFFFFFFF AND PUSH4 0x7A1A29FB PUSH1 0x9 DUP4 PUSH1 0x1 DUP2 MLOAD DUP2 LT PUSH2 0x76C JUMPI PUSH2 0x76B PUSH2 0x2D9F JUMP JUMPDEST JUMPDEST PUSH1 0x20 MUL PUSH1 0x20 ADD ADD MLOAD DUP6 PUSH1 0x40 MLOAD DUP5 PUSH4 0xFFFFFFFF AND PUSH1 0xE0 SHL DUP2 MSTORE PUSH1 0x4 ADD PUSH2 0x793 SWAP4 SWAP3 SWAP2 SWAP1 PUSH2 0x2EB7 JUMP JUMPDEST PUSH1 0x0 PUSH1 0x40 MLOAD DUP1 DUP4 SUB DUP2 PUSH1 0x0 DUP8 DUP1 EXTCODESIZE ISZERO DUP1 ISZERO PUSH2 0x7AD JUMPI PUSH1 0x0 DUP1 REVERT JUMPDEST POP GAS CALL ISZERO DUP1 ISZERO PUSH2 0x7C1 JUMPI RETURNDATASIZE PUSH1 0x0 DUP1 RETURNDATACOPY RETURNDATASIZE PUSH1 0x0 REVERT JUMPDEST POP POP POP POP PUSH1 0x0 DUP1 SLOAD SWAP1 PUSH2 0x100 EXP SWAP1 DIV PUSH20 0xFFFFFFFFFFFFFFFFFFFFFFFFFFFFFFFFFFFFFFFF AND PUSH20 0xFFFFFFFFFFFFFFFFFFFFFFFFFFFFFFFFFFFFFFFF AND PUSH4 0x7A1A29FB PUSH1 0x9 DUP4 PUSH1 0x2 DUP2 MLOAD DUP2 LT PUSH2 0x817 JUMPI PUSH2 0x816 PUSH2 0x2D9F JUMP JUMPDEST JUMPDEST PUSH1 0x20 MUL PUSH1 0x20 ADD ADD MLOAD DUP6 PUSH1 0x40 MLOAD DUP5 PUSH4 0xFFFFFFFF AND PUSH1 0xE0 SHL DUP2 MSTORE PUSH1 0x4 ADD PUSH2 0x83E SWAP4 SWAP3 SWAP2 SWAP1 PUSH2 0x2EB7 JUMP JUMPDEST PUSH1 0x0 PUSH1 0x40 MLOAD DUP1 DUP4 SUB DUP2 PUSH1 0x0 DUP8 DUP1 EXTCODESIZE ISZERO DUP1 ISZERO PUSH2 0x858 JUMPI PUSH1 0x0 DUP1 REVERT JUMPDEST POP GAS CALL ISZERO DUP1 ISZERO PUSH2 0x86C JUMPI RETURNDATASIZE PUSH1 0x0 DUP1 RETURNDATACOPY RETURNDATASIZE PUSH1 0x0 REVERT JUMPDEST POP POP POP POP PUSH1 0x0 DUP1 SLOAD SWAP1 PUSH2 0x100 EXP SWAP1 DIV PUSH20 0xFFFFFFFFFFFFFFFFFFFFFFFFFFFFFFFFFFFFFFFF AND PUSH20 0xFFFFFFFFFFFFFFFFFFFFFFFFFFFFFFFFFFFFFFFF AND PUSH4 0x7A1A29FB PUSH1 0x9 DUP4 PUSH1 0x3 DUP2 MLOAD DUP2 LT PUSH2 0x8C2 JUMPI PUSH2 0x8C1 PUSH2 0x2D9F JUMP JUMPDEST JUMPDEST PUSH1 0x20 MUL PUSH1 0x20 ADD ADD MLOAD DUP6 PUSH1 0x40 MLOAD DUP5 PUSH4 0xFFFFFFFF AND PUSH1 0xE0 SHL DUP2 MSTORE PUSH1 0x4 ADD PUSH2 0x8E9 SWAP4 SWAP3 SWAP2 SWAP1 PUSH2 0x2EB7 JUMP JUMPDEST PUSH1 0x0 PUSH1 0x40 MLOAD DUP1 DUP4 SUB DUP2 PUSH1 0x0 DUP8 DUP1 EXTCODESIZE ISZERO DUP1 ISZERO PUSH2 0x903 JUMPI PUSH1 0x0 DUP1 REVERT JUMPDEST POP GAS CALL ISZERO DUP1 ISZERO PUSH2 0x917 JUMPI RETURNDATASIZE PUSH1 0x0 DUP1 RETURNDATACOPY RETURNDATASIZE PUSH1 0x0 REVERT JUMPDEST POP POP POP POP PUSH1 0x0 DUP1 SLOAD SWAP1 PUSH2 0x100 EXP SWAP1 DIV PUSH20 0xFFFFFFFFFFFFFFFFFFFFFFFFFFFFFFFFFFFFFFFF AND PUSH20 0xFFFFFFFFFFFFFFFFFFFFFFFFFFFFFFFFFFFFFFFF AND PUSH4 0x7A1A29FB PUSH1 0x9 DUP4 PUSH1 0x4 DUP2 MLOAD DUP2 LT PUSH2 0x96D JUMPI PUSH2 0x96C PUSH2 0x2D9F JUMP JUMPDEST JUMPDEST PUSH1 0x20 MUL PUSH1 0x20 ADD ADD MLOAD DUP6 PUSH1 0x40 MLOAD DUP5 PUSH4 0xFFFFFFFF AND PUSH1 0xE0 SHL DUP2 MSTORE PUSH1 0x4 ADD PUSH2 0x994 SWAP4 SWAP3 SWAP2 SWAP1 PUSH2 0x2EB7 JUMP JUMPDEST PUSH1 0x0 PUSH1 0x40 MLOAD DUP1 DUP4 SUB DUP2 PUSH1 0x0 DUP8 DUP1 EXTCODESIZE ISZERO DUP1 ISZERO PUSH2 0x9AE JUMPI PUSH1 0x0 DUP1 REVERT JUMPDEST POP GAS CALL ISZERO DUP1 ISZERO PUSH2 0x9C2 JUMPI RETURNDATASIZE PUSH1 0x0 DUP1 RETURNDATACOPY RETURNDATASIZE PUSH1 0x0 REVERT JUMPDEST POP POP POP POP PUSH1 0x0 PUSH1 0x6 SLOAD PUSH1 0x4 SLOAD PUSH2 0x9D8 SWAP2 SWAP1 PUSH2 0x2CC9 JUMP JUMPDEST SWAP1 POP PUSH1 0x0 PUSH1 0x1 PUSH8 0xFFFFFFFFFFFFFFFF DUP2 GT ISZERO PUSH2 0x9F7 JUMPI PUSH2 0x9F6 PUSH2 0x234B JUMP JUMPDEST JUMPDEST PUSH1 0x40 MLOAD SWAP1 DUP1 DUP3 MSTORE DUP1 PUSH1 0x20 MUL PUSH1 0x20 ADD DUP3 ADD PUSH1 0x40 MSTORE DUP1 ISZERO PUSH2 0xA2A JUMPI DUP2 PUSH1 0x20 ADD JUMPDEST PUSH1 0x60 DUP2 MSTORE PUSH1 0x20 ADD SWAP1 PUSH1 0x1 SWAP1 SUB SWAP1 DUP2 PUSH2 0xA15 JUMPI SWAP1 POP JUMPDEST POP SWAP1 POP PUSH1 0x40 MLOAD DUP1 PUSH1 0x60 ADD PUSH1 0x40 MSTORE DUP1 PUSH1 0x32 DUP2 MSTORE PUSH1 0x20 ADD PUSH2 0x3163 PUSH1 0x32 SWAP2 CODECOPY DUP2 PUSH1 0x0 DUP2 MLOAD DUP2 LT PUSH2 0xA5A JUMPI PUSH2 0xA59 PUSH2 0x2D9F JUMP JUMPDEST JUMPDEST PUSH1 0x20 MUL PUSH1 0x20 ADD ADD DUP2 SWAP1 MSTORE POP PUSH1 0x0 DUP1 SLOAD SWAP1 PUSH2 0x100 EXP SWAP1 DIV PUSH20 0xFFFFFFFFFFFFFFFFFFFFFFFFFFFFFFFFFFFFFFFF AND PUSH20 0xFFFFFFFFFFFFFFFFFFFFFFFFFFFFFFFFFFFFFFFF AND PUSH4 0x7A1A29FB PUSH1 0x9 DUP4 PUSH1 0x0 DUP2 MLOAD DUP2 LT PUSH2 0xAB7 JUMPI PUSH2 0xAB6 PUSH2 0x2D9F JUMP JUMPDEST JUMPDEST PUSH1 0x20 MUL PUSH1 0x20 ADD ADD MLOAD DUP6 PUSH1 0x40 MLOAD DUP5 PUSH4 0xFFFFFFFF AND PUSH1 0xE0 SHL DUP2 MSTORE PUSH1 0x4 ADD PUSH2 0xADE SWAP4 SWAP3 SWAP2 SWAP1 PUSH2 0x2EB7 JUMP JUMPDEST PUSH1 0x0 PUSH1 0x40 MLOAD DUP1 DUP4 SUB DUP2 PUSH1 0x0 DUP8 DUP1 EXTCODESIZE ISZERO DUP1 ISZERO PUSH2 0xAF8 JUMPI PUSH1 0x0 DUP1 REVERT JUMPDEST POP GAS CALL ISZERO DUP1 ISZERO PUSH2 0xB0C JUMPI RETURNDATASIZE PUSH1 0x0 DUP1 RETURNDATACOPY RETURNDATASIZE PUSH1 0x0 REVERT JUMPDEST POP POP POP POP PUSH1 0x0 PUSH1 0x64 PUSH1 0x2 SLOAD PUSH1 0x5 SLOAD PUSH1 0x4 SLOAD PUSH2 0xB27 SWAP2 SWAP1 PUSH2 0x2F0F JUMP JUMPDEST PUSH2 0xB31 SWAP2 SWAP1 PUSH2 0x2CFD JUMP JUMPDEST PUSH2 0xB3B SWAP2 SWAP1 PUSH2 0x2D6E JUMP JUMPDEST SWAP1 POP PUSH1 0x0 PUSH1 0x3 PUSH8 0xFFFFFFFFFFFFFFFF DUP2 GT ISZERO PUSH2 0xB5A JUMPI PUSH2 0xB59 PUSH2 0x234B JUMP JUMPDEST JUMPDEST PUSH1 0x40 MLOAD SWAP1 DUP1 DUP3 MSTORE DUP1 PUSH1 0x20 MUL PUSH1 0x20 ADD DUP3 ADD PUSH1 0x40 MSTORE DUP1 ISZERO PUSH2 0xB8D JUMPI DUP2 PUSH1 0x20 ADD JUMPDEST PUSH1 0x60 DUP2 MSTORE PUSH1 0x20 ADD SWAP1 PUSH1 0x1 SWAP1 SUB SWAP1 DUP2 PUSH2 0xB78 JUMPI SWAP1 POP JUMPDEST POP SWAP1 POP PUSH1 0x40 MLOAD DUP1 PUSH1 0x60 ADD PUSH1 0x40 MSTORE DUP1 PUSH1 0x34 DUP2 MSTORE PUSH1 0x20 ADD PUSH2 0x33A4 PUSH1 0x34 SWAP2 CODECOPY DUP2 PUSH1 0x0 DUP2 MLOAD DUP2 LT PUSH2 0xBBD JUMPI PUSH2 0xBBC PUSH2 0x2D9F JUMP JUMPDEST JUMPDEST PUSH1 0x20 MUL PUSH1 0x20 ADD ADD DUP2 SWAP1 MSTORE POP PUSH1 0x40 MLOAD DUP1 PUSH1 0x60 ADD PUSH1 0x40 MSTORE DUP1 PUSH1 0x37 DUP2 MSTORE PUSH1 0x20 ADD PUSH2 0x30BA PUSH1 0x37 SWAP2 CODECOPY DUP2 PUSH1 0x1 DUP2 MLOAD DUP2 LT PUSH2 0xBF5 JUMPI PUSH2 0xBF4 PUSH2 0x2D9F JUMP JUMPDEST JUMPDEST PUSH1 0x20 MUL PUSH1 0x20 ADD ADD DUP2 SWAP1 MSTORE POP PUSH1 0x40 MLOAD DUP1 PUSH1 0x40 ADD PUSH1 0x40 MSTORE DUP1 PUSH1 0x20 DUP2 MSTORE PUSH1 0x20 ADD PUSH32 0x6C696162696C69746965732E746F74616C416D6F756E744661697256616C7565 DUP2 MSTORE POP DUP2 PUSH1 0x2 DUP2 MLOAD DUP2 LT PUSH2 0xC4A JUMPI PUSH2 0xC49 PUSH2 0x2D9F JUMP JUMPDEST JUMPDEST PUSH1 0x20 MUL PUSH1 0x20 ADD ADD DUP2 SWAP1 MSTORE POP PUSH1 0x0 DUP1 SLOAD SWAP1 PUSH2 0x100 EXP SWAP1 DIV PUSH20 0xFFFFFFFFFFFFFFFFFFFFFFFFFFFFFFFFFFFFFFFF AND PUSH20 0xFFFFFFFFFFFFFFFFFFFFFFFFFFFFFFFFFFFFFFFF AND PUSH4 0x7A1A29FB PUSH1 0x9 DUP4 PUSH1 0x0 DUP2 MLOAD DUP2 LT PUSH2 0xCA7 JUMPI PUSH2 0xCA6 PUSH2 0x2D9F JUMP JUMPDEST JUMPDEST PUSH1 0x20 MUL PUSH1 0x20 ADD ADD MLOAD DUP6 PUSH1 0x40 MLOAD DUP5 PUSH4 0xFFFFFFFF AND PUSH1 0xE0 SHL DUP2 MSTORE PUSH1 0x4 ADD PUSH2 0xCCE SWAP4 SWAP3 SWAP2 SWAP1 PUSH2 0x2EB7 JUMP JUMPDEST PUSH1 0x0 PUSH1 0x40 MLOAD DUP1 DUP4 SUB DUP2 PUSH1 0x0 DUP8 DUP1 EXTCODESIZE ISZERO DUP1 ISZERO PUSH2 0xCE8 JUMPI PUSH1 0x0 DUP1 REVERT JUMPDEST POP GAS CALL ISZERO DUP1 ISZERO PUSH2 0xCFC JUMPI RETURNDATASIZE PUSH1 0x0 DUP1 RETURNDATACOPY RETURNDATASIZE PUSH1 0x0 REVERT JUMPDEST POP POP POP POP PUSH1 0x0 DUP1 SLOAD SWAP1 PUSH2 0x100 EXP SWAP1 DIV PUSH20 0xFFFFFFFFFFFFFFFFFFFFFFFFFFFFFFFFFFFFFFFF AND PUSH20 0xFFFFFFFFFFFFFFFFFFFFFFFFFFFFFFFFFFFFFFFF AND PUSH4 0x7A1A29FB PUSH1 0x9 DUP4 PUSH1 0x1 DUP2 MLOAD DUP2 LT PUSH2 0xD52 JUMPI PUSH2 0xD51 PUSH2 0x2D9F JUMP JUMPDEST JUMPDEST PUSH1 0x20 MUL PUSH1 0x20 ADD ADD MLOAD DUP6 PUSH1 0x40 MLOAD DUP5 PUSH4 0xFFFFFFFF AND PUSH1 0xE0 SHL DUP2 MSTORE PUSH1 0x4 ADD PUSH2 0xD79 SWAP4 SWAP3 SWAP2 SWAP1 PUSH2 0x2EB7 JUMP JUMPDEST PUSH1 0x0 PUSH1 0x40 MLOAD DUP1 DUP4 SUB DUP2 PUSH1 0x0 DUP8 DUP1 EXTCODESIZE ISZERO DUP1 ISZERO PUSH2 0xD93 JUMPI PUSH1 0x0 DUP1 REVERT JUMPDEST POP GAS CALL ISZERO DUP1 ISZERO PUSH2 0xDA7 JUMPI RETURNDATASIZE PUSH1 0x0 DUP1 RETURNDATACOPY RETURNDATASIZE PUSH1 0x0 REVERT JUMPDEST POP POP POP POP PUSH1 0x0 DUP1 SLOAD SWAP1 PUSH2 0x100 EXP SWAP1 DIV PUSH20 0xFFFFFFFFFFFFFFFFFFFFFFFFFFFFFFFFFFFFFFFF AND PUSH20 0xFFFFFFFFFFFFFFFFFFFFFFFFFFFFFFFFFFFFFFFF AND PUSH4 0x7A1A29FB PUSH1 0x9 DUP4 PUSH1 0x2 DUP2 MLOAD DUP2 LT PUSH2 0xDFD JUMPI PUSH2 0xDFC PUSH2 0x2D9F JUMP JUMPDEST JUMPDEST PUSH1 0x20 MUL PUSH1 0x20 ADD ADD MLOAD DUP6 PUSH1 0x40 MLOAD DUP5 PUSH4 0xFFFFFFFF AND PUSH1 0xE0 SHL DUP2 MSTORE PUSH1 0x4 ADD PUSH2 0xE24 SWAP4 SWAP3 SWAP2 SWAP1 PUSH2 0x2EB7 JUMP JUMPDEST PUSH1 0x0 PUSH1 0x40 MLOAD DUP1 DUP4 SUB DUP2 PUSH1 0x0 DUP8 DUP1 EXTCODESIZE ISZERO DUP1 ISZERO PUSH2 0xE3E JUMPI PUSH1 0x0 DUP1 REVERT JUMPDEST POP GAS CALL ISZERO DUP1 ISZERO PUSH2 0xE52 JUMPI RETURNDATASIZE PUSH1 0x0 DUP1 RETURNDATACOPY RETURNDATASIZE PUSH1 0x0 REVERT JUMPDEST POP POP POP POP PUSH1 0x0 PUSH1 0x64 PUSH1 0x2 SLOAD PUSH1 0x6 SLOAD PUSH1 0x5 SLOAD PUSH2 0xE6D SWAP2 SWAP1 PUSH2 0x2CC9 JUMP JUMPDEST PUSH2 0xE77 SWAP2 SWAP1 PUSH2 0x2CFD JUMP JUMPDEST PUSH2 0xE81 SWAP2 SWAP1 PUSH2 0x2D6E JUMP JUMPDEST SWAP1 POP PUSH1 0x0 PUSH1 0x3 PUSH8 0xFFFFFFFFFFFFFFFF DUP2 GT ISZERO PUSH2 0xEA0 JUMPI PUSH2 0xE9F PUSH2 0x234B JUMP JUMPDEST JUMPDEST PUSH1 0x40 MLOAD SWAP1 DUP1 DUP3 MSTORE DUP1 PUSH1 0x20 MUL PUSH1 0x20 ADD DUP3 ADD PUSH1 0x40 MSTORE DUP1 ISZERO PUSH2 0xED3 JUMPI DUP2 PUSH1 0x20 ADD JUMPDEST PUSH1 0x60 DUP2 MSTORE PUSH1 0x20 ADD SWAP1 PUSH1 0x1 SWAP1 SUB SWAP1 DUP2 PUSH2 0xEBE JUMPI SWAP1 POP JUMPDEST POP SWAP1 POP PUSH1 0x40 MLOAD DUP1 PUSH1 0x60 ADD PUSH1 0x40 MSTORE DUP1 PUSH1 0x34 DUP2 MSTORE PUSH1 0x20 ADD PUSH2 0x348B PUSH1 0x34 SWAP2 CODECOPY DUP2 PUSH1 0x0 DUP2 MLOAD DUP2 LT PUSH2 0xF03 JUMPI PUSH2 0xF02 PUSH2 0x2D9F JUMP JUMPDEST JUMPDEST PUSH1 0x20 MUL PUSH1 0x20 ADD ADD DUP2 SWAP1 MSTORE POP PUSH1 0x40 MLOAD DUP1 PUSH1 0x60 ADD PUSH1 0x40 MSTORE DUP1 PUSH1 0x37 DUP2 MSTORE PUSH1 0x20 ADD PUSH2 0x3340 PUSH1 0x37 SWAP2 CODECOPY DUP2 PUSH1 0x1 DUP2 MLOAD DUP2 LT PUSH2 0xF3B JUMPI PUSH2 0xF3A PUSH2 0x2D9F JUMP JUMPDEST JUMPDEST PUSH1 0x20 MUL PUSH1 0x20 ADD ADD DUP2 SWAP1 MSTORE POP PUSH1 0x40 MLOAD DUP1 PUSH1 0x40 ADD PUSH1 0x40 MSTORE DUP1 PUSH1 0x1B DUP2 MSTORE PUSH1 0x20 ADD PUSH32 0x6571756974792E746F74616C416D6F756E744661697256616C75650000000000 DUP2 MSTORE POP DUP2 PUSH1 0x2 DUP2 MLOAD DUP2 LT PUSH2 0xF90 JUMPI PUSH2 0xF8F PUSH2 0x2D9F JUMP JUMPDEST JUMPDEST PUSH1 0x20 MUL PUSH1 0x20 ADD ADD DUP2 SWAP1 MSTORE POP PUSH1 0x0 DUP1 SLOAD SWAP1 PUSH2 0x100 EXP SWAP1 DIV PUSH20 0xFFFFFFFFFFFFFFFFFFFFFFFFFFFFFFFFFFFFFFFF AND PUSH20 0xFFFFFFFFFFFFFFFFFFFFFFFFFFFFFFFFFFFFFFFF AND PUSH4 0x7A1A29FB PUSH1 0x9 DUP4 PUSH1 0x0 DUP2 MLOAD DUP2 LT PUSH2 0xFED JUMPI PUSH2 0xFEC PUSH2 0x2D9F JUMP JUMPDEST JUMPDEST PUSH1 0x20 MUL PUSH1 0x20 ADD ADD MLOAD DUP6 PUSH1 0x40 MLOAD DUP5 PUSH4 0xFFFFFFFF AND PUSH1 0xE0 SHL DUP2 MSTORE PUSH1 0x4 ADD PUSH2 0x1014 SWAP4 SWAP3 SWAP2 SWAP1 PUSH2 0x2EB7 JUMP JUMPDEST PUSH1 0x0 PUSH1 0x40 MLOAD DUP1 DUP4 SUB DUP2 PUSH1 0x0 DUP8 DUP1 EXTCODESIZE ISZERO DUP1 ISZERO PUSH2 0x102E JUMPI PUSH1 0x0 DUP1 REVERT JUMPDEST POP GAS CALL ISZERO DUP1 ISZERO PUSH2 0x1042 JUMPI RETURNDATASIZE PUSH1 0x0 DUP1 RETURNDATACOPY RETURNDATASIZE PUSH1 0x0 REVERT JUMPDEST POP POP POP POP PUSH1 0x0 DUP1 SLOAD SWAP1 PUSH2 0x100 EXP SWAP1 DIV PUSH20 0xFFFFFFFFFFFFFFFFFFFFFFFFFFFFFFFFFFFFFFFF AND PUSH20 0xFFFFFFFFFFFFFFFFFFFFFFFFFFFFFFFFFFFFFFFF AND PUSH4 0x7A1A29FB PUSH1 0x9 DUP4 PUSH1 0x1 DUP2 MLOAD DUP2 LT PUSH2 0x1098 JUMPI PUSH2 0x1097 PUSH2 0x2D9F JUMP JUMPDEST JUMPDEST PUSH1 0x20 MUL PUSH1 0x20 ADD ADD MLOAD DUP6 PUSH1 0x40 MLOAD DUP5 PUSH4 0xFFFFFFFF AND PUSH1 0xE0 SHL DUP2 MSTORE PUSH1 0x4 ADD PUSH2 0x10BF SWAP4 SWAP3 SWAP2 SWAP1 PUSH2 0x2EB7 JUMP JUMPDEST PUSH1 0x0 PUSH1 0x40 MLOAD DUP1 DUP4 SUB DUP2 PUSH1 0x0 DUP8 DUP1 EXTCODESIZE ISZERO DUP1 ISZERO PUSH2 0x10D9 JUMPI PUSH1 0x0 DUP1 REVERT JUMPDEST POP GAS CALL ISZERO DUP1 ISZERO PUSH2 0x10ED JUMPI RETURNDATASIZE PUSH1 0x0 DUP1 RETURNDATACOPY RETURNDATASIZE PUSH1 0x0 REVERT JUMPDEST POP POP POP POP PUSH1 0x0 DUP1 SLOAD SWAP1 PUSH2 0x100 EXP SWAP1 DIV PUSH20 0xFFFFFFFFFFFFFFFFFFFFFFFFFFFFFFFFFFFFFFFF AND PUSH20 0xFFFFFFFFFFFFFFFFFFFFFFFFFFFFFFFFFFFFFFFF AND PUSH4 0x7A1A29FB PUSH1 0x9 DUP4 PUSH1 0x2 DUP2 MLOAD DUP2 LT PUSH2 0x1143 JUMPI PUSH2 0x1142 PUSH2 0x2D9F JUMP JUMPDEST JUMPDEST PUSH1 0x20 MUL PUSH1 0x20 ADD ADD MLOAD DUP6 PUSH1 0x40 MLOAD DUP5 PUSH4 0xFFFFFFFF AND PUSH1 0xE0 SHL DUP2 MSTORE PUSH1 0x4 ADD PUSH2 0x116A SWAP4 SWAP3 SWAP2 SWAP1 PUSH2 0x2EB7 JUMP JUMPDEST PUSH1 0x0 PUSH1 0x40 MLOAD DUP1 DUP4 SUB DUP2 PUSH1 0x0 DUP8 DUP1 EXTCODESIZE ISZERO DUP1 ISZERO PUSH2 0x1184 JUMPI PUSH1 0x0 DUP1 REVERT JUMPDEST POP GAS CALL ISZERO DUP1 ISZERO PUSH2 0x1198 JUMPI RETURNDATASIZE PUSH1 0x0 DUP1 RETURNDATACOPY RETURNDATASIZE PUSH1 0x0 REVERT JUMPDEST POP POP POP POP PUSH1 0x0 PUSH1 0x6 SLOAD PUSH1 0x5 SLOAD PUSH2 0x11AE SWAP2 SWAP1 PUSH2 0x2CC9 JUMP JUMPDEST SWAP1 POP PUSH1 0x0 PUSH1 0x1 PUSH8 0xFFFFFFFFFFFFFFFF DUP2 GT ISZERO PUSH2 0x11CD JUMPI PUSH2 0x11CC PUSH2 0x234B JUMP JUMPDEST JUMPDEST PUSH1 0x40 MLOAD SWAP1 DUP1 DUP3 MSTORE DUP1 PUSH1 0x20 MUL PUSH1 0x20 ADD DUP3 ADD PUSH1 0x40 MSTORE DUP1 ISZERO PUSH2 0x1200 JUMPI DUP2 PUSH1 0x20 ADD JUMPDEST PUSH1 0x60 DUP2 MSTORE PUSH1 0x20 ADD SWAP1 PUSH1 0x1 SWAP1 SUB SWAP1 DUP2 PUSH2 0x11EB JUMPI SWAP1 POP JUMPDEST POP SWAP1 POP PUSH1 0x40 MLOAD DUP1 PUSH1 0x60 ADD PUSH1 0x40 MSTORE DUP1 PUSH1 0x34 DUP2 MSTORE PUSH1 0x20 ADD PUSH2 0x3457 PUSH1 0x34 SWAP2 CODECOPY DUP2 PUSH1 0x0 DUP2 MLOAD DUP2 LT PUSH2 0x1230 JUMPI PUSH2 0x122F PUSH2 0x2D9F JUMP JUMPDEST JUMPDEST PUSH1 0x20 MUL PUSH1 0x20 ADD ADD DUP2 SWAP1 MSTORE POP PUSH1 0x0 DUP1 SLOAD SWAP1 PUSH2 0x100 EXP SWAP1 DIV PUSH20 0xFFFFFFFFFFFFFFFFFFFFFFFFFFFFFFFFFFFFFFFF AND PUSH20 0xFFFFFFFFFFFFFFFFFFFFFFFFFFFFFFFFFFFFFFFF AND PUSH4 0x7A1A29FB PUSH1 0x9 DUP4 PUSH1 0x0 DUP2 MLOAD DUP2 LT PUSH2 0x128D JUMPI PUSH2 0x128C PUSH2 0x2D9F JUMP JUMPDEST JUMPDEST PUSH1 0x20 MUL PUSH1 0x20 ADD ADD MLOAD DUP6 PUSH1 0x40 MLOAD DUP5 PUSH4 0xFFFFFFFF AND PUSH1 0xE0 SHL DUP2 MSTORE PUSH1 0x4 ADD PUSH2 0x12B4 SWAP4 SWAP3 SWAP2 SWAP1 PUSH2 0x2EB7 JUMP JUMPDEST PUSH1 0x0 PUSH1 0x40 MLOAD DUP1 DUP4 SUB DUP2 PUSH1 0x0 DUP8 DUP1 EXTCODESIZE ISZERO DUP1 ISZERO PUSH2 0x12CE JUMPI PUSH1 0x0 DUP1 REVERT JUMPDEST POP GAS CALL ISZERO DUP1 ISZERO PUSH2 0x12E2 JUMPI RETURNDATASIZE PUSH1 0x0 DUP1 RETURNDATACOPY RETURNDATASIZE PUSH1 0x0 REVERT JUMPDEST POP POP POP POP PUSH1 0x0 PUSH1 0x5 SLOAD PUSH1 0x4 SLOAD PUSH2 0x12F8 SWAP2 SWAP1 PUSH2 0x2F0F JUMP JUMPDEST SWAP1 POP PUSH1 0x0 PUSH1 0x1 PUSH8 0xFFFFFFFFFFFFFFFF DUP2 GT ISZERO PUSH2 0x1317 JUMPI PUSH2 0x1316 PUSH2 0x234B JUMP JUMPDEST JUMPDEST PUSH1 0x40 MLOAD SWAP1 DUP1 DUP3 MSTORE DUP1 PUSH1 0x20 MUL PUSH1 0x20 ADD DUP3 ADD PUSH1 0x40 MSTORE DUP1 ISZERO PUSH2 0x134A JUMPI DUP2 PUSH1 0x20 ADD JUMPDEST PUSH1 0x60 DUP2 MSTORE PUSH1 0x20 ADD SWAP1 PUSH1 0x1 SWAP1 SUB SWAP1 DUP2 PUSH2 0x1335 JUMPI SWAP1 POP JUMPDEST POP SWAP1 POP PUSH1 0x40 MLOAD DUP1 PUSH1 0x60 ADD PUSH1 0x40 MSTORE DUP1 PUSH1 0x34 DUP2 MSTORE PUSH1 0x20 ADD PUSH2 0x3550 PUSH1 0x34 SWAP2 CODECOPY DUP2 PUSH1 0x0 DUP2 MLOAD DUP2 LT PUSH2 0x137A JUMPI PUSH2 0x1379 PUSH2 0x2D9F JUMP JUMPDEST JUMPDEST PUSH1 0x20 MUL PUSH1 0x20 ADD ADD DUP2 SWAP1 MSTORE POP PUSH1 0x0 DUP1 SLOAD SWAP1 PUSH2 0x100 EXP SWAP1 DIV PUSH20 0xFFFFFFFFFFFFFFFFFFFFFFFFFFFFFFFFFFFFFFFF AND PUSH20 0xFFFFFFFFFFFFFFFFFFFFFFFFFFFFFFFFFFFFFFFF AND PUSH4 0x7A1A29FB PUSH1 0x9 DUP4 PUSH1 0x0 DUP2 MLOAD DUP2 LT PUSH2 0x13D7 JUMPI PUSH2 0x13D6 PUSH2 0x2D9F JUMP JUMPDEST JUMPDEST PUSH1 0x20 MUL PUSH1 0x20 ADD ADD MLOAD DUP6 PUSH1 0x40 MLOAD DUP5 PUSH4 0xFFFFFFFF AND PUSH1 0xE0 SHL DUP2 MSTORE PUSH1 0x4 ADD PUSH2 0x13FE SWAP4 SWAP3 SWAP2 SWAP1 PUSH2 0x2EB7 JUMP JUMPDEST PUSH1 0x0 PUSH1 0x40 MLOAD DUP1 DUP4 SUB DUP2 PUSH1 0x0 DUP8 DUP1 EXTCODESIZE ISZERO DUP1 ISZERO PUSH2 0x1418 JUMPI PUSH1 0x0 DUP1 REVERT JUMPDEST POP GAS CALL ISZERO DUP1 ISZERO PUSH2 0x142C JUMPI RETURNDATASIZE PUSH1 0x0 DUP1 RETURNDATACOPY RETURNDATASIZE PUSH1 0x0 REVERT JUMPDEST POP POP POP POP POP POP POP POP POP POP POP POP POP POP POP POP JUMP JUMPDEST PUSH1 0x0 PUSH1 0x64 PUSH1 0x7 SLOAD PUSH1 0x6 SLOAD PUSH1 0x5 SLOAD PUSH2 0x1455 SWAP2 SWAP1 PUSH2 0x2CC9 JUMP JUMPDEST PUSH2 0x145F SWAP2 SWAP1 PUSH2 0x2CFD JUMP JUMPDEST PUSH2 0x1469 SWAP2 SWAP1 PUSH2 0x2D6E JUMP JUMPDEST SWAP1 POP PUSH1 0x0 PUSH1 0x3 PUSH8 0xFFFFFFFFFFFFFFFF DUP2 GT ISZERO PUSH2 0x1488 JUMPI PUSH2 0x1487 PUSH2 0x234B JUMP JUMPDEST JUMPDEST PUSH1 0x40 MLOAD SWAP1 DUP1 DUP3 MSTORE DUP1 PUSH1 0x20 MUL PUSH1 0x20 ADD DUP3 ADD PUSH1 0x40 MSTORE DUP1 ISZERO PUSH2 0x14BB JUMPI DUP2 PUSH1 0x20 ADD JUMPDEST PUSH1 0x60 DUP2 MSTORE PUSH1 0x20 ADD SWAP1 PUSH1 0x1 SWAP1 SUB SWAP1 DUP2 PUSH2 0x14A6 JUMPI SWAP1 POP JUMPDEST POP SWAP1 POP PUSH1 0x40 MLOAD DUP1 PUSH1 0x60 ADD PUSH1 0x40 MSTORE DUP1 PUSH1 0x2D DUP2 MSTORE PUSH1 0x20 ADD PUSH2 0x3377 PUSH1 0x2D SWAP2 CODECOPY DUP2 PUSH1 0x0 DUP2 MLOAD DUP2 LT PUSH2 0x14EB JUMPI PUSH2 0x14EA PUSH2 0x2D9F JUMP JUMPDEST JUMPDEST PUSH1 0x20 MUL PUSH1 0x20 ADD ADD DUP2 SWAP1 MSTORE POP PUSH1 0x40 MLOAD DUP1 PUSH1 0x60 ADD PUSH1 0x40 MSTORE DUP1 PUSH1 0x3B DUP2 MSTORE PUSH1 0x20 ADD PUSH2 0x329F PUSH1 0x3B SWAP2 CODECOPY DUP2 PUSH1 0x1 DUP2 MLOAD DUP2 LT PUSH2 0x1523 JUMPI PUSH2 0x1522 PUSH2 0x2D9F JUMP JUMPDEST JUMPDEST PUSH1 0x20 MUL PUSH1 0x20 ADD ADD DUP2 SWAP1 MSTORE POP PUSH1 0x40 MLOAD DUP1 PUSH1 0x40 ADD PUSH1 0x40 MSTORE DUP1 PUSH1 0x9 DUP2 MSTORE PUSH1 0x20 ADD PUSH32 0x6E657450726F6669740000000000000000000000000000000000000000000000 DUP2 MSTORE POP DUP2 PUSH1 0x2 DUP2 MLOAD DUP2 LT PUSH2 0x1578 JUMPI PUSH2 0x1577 PUSH2 0x2D9F JUMP JUMPDEST JUMPDEST PUSH1 0x20 MUL PUSH1 0x20 ADD ADD DUP2 SWAP1 MSTORE POP PUSH1 0x0 DUP1 SLOAD SWAP1 PUSH2 0x100 EXP SWAP1 DIV PUSH20 0xFFFFFFFFFFFFFFFFFFFFFFFFFFFFFFFFFFFFFFFF AND PUSH20 0xFFFFFFFFFFFFFFFFFFFFFFFFFFFFFFFFFFFFFFFF AND PUSH4 0x7A1A29FB PUSH1 0x9 DUP4 PUSH1 0x0 DUP2 MLOAD DUP2 LT PUSH2 0x15D5 JUMPI PUSH2 0x15D4 PUSH2 0x2D9F JUMP JUMPDEST JUMPDEST PUSH1 0x20 MUL PUSH1 0x20 ADD ADD MLOAD DUP6 PUSH1 0x40 MLOAD DUP5 PUSH4 0xFFFFFFFF AND PUSH1 0xE0 SHL DUP2 MSTORE PUSH1 0x4 ADD PUSH2 0x15FC SWAP4 SWAP3 SWAP2 SWAP1 PUSH2 0x2F8F JUMP JUMPDEST PUSH1 0x0 PUSH1 0x40 MLOAD DUP1 DUP4 SUB DUP2 PUSH1 0x0 DUP8 DUP1 EXTCODESIZE ISZERO DUP1 ISZERO PUSH2 0x1616 JUMPI PUSH1 0x0 DUP1 REVERT JUMPDEST POP GAS CALL ISZERO DUP1 ISZERO PUSH2 0x162A JUMPI RETURNDATASIZE PUSH1 0x0 DUP1 RETURNDATACOPY RETURNDATASIZE PUSH1 0x0 REVERT JUMPDEST POP POP POP POP PUSH1 0x0 DUP1 SLOAD SWAP1 PUSH2 0x100 EXP SWAP1 DIV PUSH20 0xFFFFFFFFFFFFFFFFFFFFFFFFFFFFFFFFFFFFFFFF AND PUSH20 0xFFFFFFFFFFFFFFFFFFFFFFFFFFFFFFFFFFFFFFFF AND PUSH4 0x7A1A29FB PUSH1 0x9 DUP4 PUSH1 0x1 DUP2 MLOAD DUP2 LT PUSH2 0x1680 JUMPI PUSH2 0x167F PUSH2 0x2D9F JUMP JUMPDEST JUMPDEST PUSH1 0x20 MUL PUSH1 0x20 ADD ADD MLOAD DUP6 PUSH1 0x40 MLOAD DUP5 PUSH4 0xFFFFFFFF AND PUSH1 0xE0 SHL DUP2 MSTORE PUSH1 0x4 ADD PUSH2 0x16A7 SWAP4 SWAP3 SWAP2 SWAP1 PUSH2 0x2F8F JUMP JUMPDEST PUSH1 0x0 PUSH1 0x40 MLOAD DUP1 DUP4 SUB DUP2 PUSH1 0x0 DUP8 DUP1 EXTCODESIZE ISZERO DUP1 ISZERO PUSH2 0x16C1 JUMPI PUSH1 0x0 DUP1 REVERT JUMPDEST POP GAS CALL ISZERO DUP1 ISZERO PUSH2 0x16D5 JUMPI RETURNDATASIZE PUSH1 0x0 DUP1 RETURNDATACOPY RETURNDATASIZE PUSH1 0x0 REVERT JUMPDEST POP POP POP POP PUSH1 0x0 DUP1 SLOAD SWAP1 PUSH2 0x100 EXP SWAP1 DIV PUSH20 0xFFFFFFFFFFFFFFFFFFFFFFFFFFFFFFFFFFFFFFFF AND PUSH20 0xFFFFFFFFFFFFFFFFFFFFFFFFFFFFFFFFFFFFFFFF AND PUSH4 0x7A1A29FB PUSH1 0x9 DUP4 PUSH1 0x2 DUP2 MLOAD DUP2 LT PUSH2 0x172B JUMPI PUSH2 0x172A PUSH2 0x2D9F JUMP JUMPDEST JUMPDEST PUSH1 0x20 MUL PUSH1 0x20 ADD ADD MLOAD DUP6 PUSH1 0x40 MLOAD DUP5 PUSH4 0xFFFFFFFF AND PUSH1 0xE0 SHL DUP2 MSTORE PUSH1 0x4 ADD PUSH2 0x1752 SWAP4 SWAP3 SWAP2 SWAP1 PUSH2 0x2F8F JUMP JUMPDEST PUSH1 0x0 PUSH1 0x40 MLOAD DUP1 DUP4 SUB DUP2 PUSH1 0x0 DUP8 DUP1 EXTCODESIZE ISZERO DUP1 ISZERO PUSH2 0x176C JUMPI PUSH1 0x0 DUP1 REVERT JUMPDEST POP GAS CALL ISZERO DUP1 ISZERO PUSH2 0x1780 JUMPI RETURNDATASIZE PUSH1 0x0 DUP1 RETURNDATACOPY RETURNDATASIZE PUSH1 0x0 REVERT JUMPDEST POP POP POP POP PUSH1 0x0 PUSH1 0x6 SLOAD PUSH1 0x5 SLOAD PUSH2 0x1796 SWAP2 SWAP1 PUSH2 0x2CC9 JUMP JUMPDEST SWAP1 POP PUSH1 0x0 PUSH1 0x1 PUSH8 0xFFFFFFFFFFFFFFFF DUP2 GT ISZERO PUSH2 0x17B5 JUMPI PUSH2 0x17B4 PUSH2 0x234B JUMP JUMPDEST JUMPDEST PUSH1 0x40 MLOAD SWAP1 DUP1 DUP3 MSTORE DUP1 PUSH1 0x20 MUL PUSH1 0x20 ADD DUP3 ADD PUSH1 0x40 MSTORE DUP1 ISZERO PUSH2 0x17E8 JUMPI DUP2 PUSH1 0x20 ADD JUMPDEST PUSH1 0x60 DUP2 MSTORE PUSH1 0x20 ADD SWAP1 PUSH1 0x1 SWAP1 SUB SWAP1 DUP2 PUSH2 0x17D3 JUMPI SWAP1 POP JUMPDEST POP SWAP1 POP PUSH1 0x40 MLOAD DUP1 PUSH1 0x60 ADD PUSH1 0x40 MSTORE DUP1 PUSH1 0x2E DUP2 MSTORE PUSH1 0x20 ADD PUSH2 0x308C PUSH1 0x2E SWAP2 CODECOPY DUP2 PUSH1 0x0 DUP2 MLOAD DUP2 LT PUSH2 0x1818 JUMPI PUSH2 0x1817 PUSH2 0x2D9F JUMP JUMPDEST JUMPDEST PUSH1 0x20 MUL PUSH1 0x20 ADD ADD DUP2 SWAP1 MSTORE POP PUSH1 0x0 DUP1 SLOAD SWAP1 PUSH2 0x100 EXP SWAP1 DIV PUSH20 0xFFFFFFFFFFFFFFFFFFFFFFFFFFFFFFFFFFFFFFFF AND PUSH20 0xFFFFFFFFFFFFFFFFFFFFFFFFFFFFFFFFFFFFFFFF AND PUSH4 0x7A1A29FB PUSH1 0x9 DUP4 PUSH1 0x0 DUP2 MLOAD DUP2 LT PUSH2 0x1875 JUMPI PUSH2 0x1874 PUSH2 0x2D9F JUMP JUMPDEST JUMPDEST PUSH1 0x20 MUL PUSH1 0x20 ADD ADD MLOAD DUP6 PUSH1 0x40 MLOAD DUP5 PUSH4 0xFFFFFFFF AND PUSH1 0xE0 SHL DUP2 MSTORE PUSH1 0x4 ADD PUSH2 0x189C SWAP4 SWAP3 SWAP2 SWAP1 PUSH2 0x2F8F JUMP JUMPDEST PUSH1 0x0 PUSH1 0x40 MLOAD DUP1 DUP4 SUB DUP2 PUSH1 0x0 DUP8 DUP1 EXTCODESIZE ISZERO DUP1 ISZERO PUSH2 0x18B6 JUMPI PUSH1 0x0 DUP1 REVERT JUMPDEST POP GAS CALL ISZERO DUP1 ISZERO PUSH2 0x18CA JUMPI RETURNDATASIZE PUSH1 0x0 DUP1 RETURNDATACOPY RETURNDATASIZE PUSH1 0x0 REVERT JUMPDEST POP POP POP POP POP POP POP POP JUMP JUMPDEST PUSH1 0x0 PUSH1 0x64 PUSH1 0x7 SLOAD PUSH1 0x5 SLOAD PUSH1 0x4 SLOAD PUSH2 0x18EB SWAP2 SWAP1 PUSH2 0x2F0F JUMP JUMPDEST PUSH2 0x18F5 SWAP2 SWAP1 PUSH2 0x2CFD JUMP JUMPDEST PUSH2 0x18FF SWAP2 SWAP1 PUSH2 0x2D6E JUMP JUMPDEST SWAP1 POP PUSH1 0x0 PUSH1 0x2 PUSH8 0xFFFFFFFFFFFFFFFF DUP2 GT ISZERO PUSH2 0x191E JUMPI PUSH2 0x191D PUSH2 0x234B JUMP JUMPDEST JUMPDEST PUSH1 0x40 MLOAD SWAP1 DUP1 DUP3 MSTORE DUP1 PUSH1 0x20 MUL PUSH1 0x20 ADD DUP3 ADD PUSH1 0x40 MSTORE DUP1 ISZERO PUSH2 0x1951 JUMPI DUP2 PUSH1 0x20 ADD JUMPDEST PUSH1 0x60 DUP2 MSTORE PUSH1 0x20 ADD SWAP1 PUSH1 0x1 SWAP1 SUB SWAP1 DUP2 PUSH2 0x193C JUMPI SWAP1 POP JUMPDEST POP SWAP1 POP PUSH1 0x40 MLOAD DUP1 PUSH1 0xA0 ADD PUSH1 0x40 MSTORE DUP1 PUSH1 0x71 DUP2 MSTORE PUSH1 0x20 ADD PUSH2 0x363C PUSH1 0x71 SWAP2 CODECOPY DUP2 PUSH1 0x0 DUP2 MLOAD DUP2 LT PUSH2 0x1981 JUMPI PUSH2 0x1980 PUSH2 0x2D9F JUMP JUMPDEST JUMPDEST PUSH1 0x20 MUL PUSH1 0x20 ADD ADD DUP2 SWAP1 MSTORE POP PUSH1 0x40 MLOAD DUP1 PUSH1 0xA0 ADD PUSH1 0x40 MSTORE DUP1 PUSH1 0x7F DUP2 MSTORE PUSH1 0x20 ADD PUSH2 0x33D8 PUSH1 0x7F SWAP2 CODECOPY DUP2 PUSH1 0x1 DUP2 MLOAD DUP2 LT PUSH2 0x19B9 JUMPI PUSH2 0x19B8 PUSH2 0x2D9F JUMP JUMPDEST JUMPDEST PUSH1 0x20 MUL PUSH1 0x20 ADD ADD DUP2 SWAP1 MSTORE POP PUSH1 0x0 DUP1 SLOAD SWAP1 PUSH2 0x100 EXP SWAP1 DIV PUSH20 0xFFFFFFFFFFFFFFFFFFFFFFFFFFFFFFFFFFFFFFFF AND PUSH20 0xFFFFFFFFFFFFFFFFFFFFFFFFFFFFFFFFFFFFFFFF AND PUSH4 0x7A1A29FB PUSH1 0x9 DUP4 PUSH1 0x0 DUP2 MLOAD DUP2 LT PUSH2 0x1A16 JUMPI PUSH2 0x1A15 PUSH2 0x2D9F JUMP JUMPDEST JUMPDEST PUSH1 0x20 MUL PUSH1 0x20 ADD ADD MLOAD DUP6 PUSH1 0x40 MLOAD DUP5 PUSH4 0xFFFFFFFF AND PUSH1 0xE0 SHL DUP2 MSTORE PUSH1 0x4 ADD PUSH2 0x1A3D SWAP4 SWAP3 SWAP2 SWAP1 PUSH2 0x3033 JUMP JUMPDEST PUSH1 0x0 PUSH1 0x40 MLOAD DUP1 DUP4 SUB DUP2 PUSH1 0x0 DUP8 DUP1 EXTCODESIZE ISZERO DUP1 ISZERO PUSH2 0x1A57 JUMPI PUSH1 0x0 DUP1 REVERT JUMPDEST POP GAS CALL ISZERO DUP1 ISZERO PUSH2 0x1A6B JUMPI RETURNDATASIZE PUSH1 0x0 DUP1 RETURNDATACOPY RETURNDATASIZE PUSH1 0x0 REVERT JUMPDEST POP POP POP POP PUSH1 0x0 DUP1 SLOAD SWAP1 PUSH2 0x100 EXP SWAP1 DIV PUSH20 0xFFFFFFFFFFFFFFFFFFFFFFFFFFFFFFFFFFFFFFFF AND PUSH20 0xFFFFFFFFFFFFFFFFFFFFFFFFFFFFFFFFFFFFFFFF AND PUSH4 0x7A1A29FB PUSH1 0x9 DUP4 PUSH1 0x1 DUP2 MLOAD DUP2 LT PUSH2 0x1AC1 JUMPI PUSH2 0x1AC0 PUSH2 0x2D9F JUMP JUMPDEST JUMPDEST PUSH1 0x20 MUL PUSH1 0x20 ADD ADD MLOAD DUP6 PUSH1 0x40 MLOAD DUP5 PUSH4 0xFFFFFFFF AND PUSH1 0xE0 SHL DUP2 MSTORE PUSH1 0x4 ADD PUSH2 0x1AE8 SWAP4 SWAP3 SWAP2 SWAP1 PUSH2 0x3033 JUMP JUMPDEST PUSH1 0x0 PUSH1 0x40 MLOAD DUP1 DUP4 SUB DUP2 PUSH1 0x0 DUP8 DUP1 EXTCODESIZE ISZERO DUP1 ISZERO PUSH2 0x1B02 JUMPI PUSH1 0x0 DUP1 REVERT JUMPDEST POP GAS CALL ISZERO DUP1 ISZERO PUSH2 0x1B16 JUMPI RETURNDATASIZE PUSH1 0x0 DUP1 RETURNDATACOPY RETURNDATASIZE PUSH1 0x0 REVERT JUMPDEST POP POP POP POP PUSH1 0x0 PUSH1 0x5 SLOAD PUSH1 0x4 SLOAD PUSH2 0x1B2C SWAP2 SWAP1 PUSH2 0x2F0F JUMP JUMPDEST SWAP1 POP PUSH1 0x0 PUSH1 0x1 PUSH8 0xFFFFFFFFFFFFFFFF DUP2 GT ISZERO PUSH2 0x1B4B JUMPI PUSH2 0x1B4A PUSH2 0x234B JUMP JUMPDEST JUMPDEST PUSH1 0x40 MLOAD SWAP1 DUP1 DUP3 MSTORE DUP1 PUSH1 0x20 MUL PUSH1 0x20 ADD DUP3 ADD PUSH1 0x40 MSTORE DUP1 ISZERO PUSH2 0x1B7E JUMPI DUP2 PUSH1 0x20 ADD JUMPDEST PUSH1 0x60 DUP2 MSTORE PUSH1 0x20 ADD SWAP1 PUSH1 0x1 SWAP1 SUB SWAP1 DUP2 PUSH2 0x1B69 JUMPI SWAP1 POP JUMPDEST POP SWAP1 POP PUSH1 0x40 MLOAD DUP1 PUSH1 0xA0 ADD PUSH1 0x40 MSTORE DUP1 PUSH1 0x72 DUP2 MSTORE PUSH1 0x20 ADD PUSH2 0x30F1 PUSH1 0x72 SWAP2 CODECOPY DUP2 PUSH1 0x0 DUP2 MLOAD DUP2 LT PUSH2 0x1BAE JUMPI PUSH2 0x1BAD PUSH2 0x2D9F JUMP JUMPDEST JUMPDEST PUSH1 0x20 MUL PUSH1 0x20 ADD ADD DUP2 SWAP1 MSTORE POP PUSH1 0x0 DUP1 SLOAD SWAP1 PUSH2 0x100 EXP SWAP1 DIV PUSH20 0xFFFFFFFFFFFFFFFFFFFFFFFFFFFFFFFFFFFFFFFF AND PUSH20 0xFFFFFFFFFFFFFFFFFFFFFFFFFFFFFFFFFFFFFFFF AND PUSH4 0x7A1A29FB PUSH1 0x9 DUP4 PUSH1 0x0 DUP2 MLOAD DUP2 LT PUSH2 0x1C0B JUMPI PUSH2 0x1C0A PUSH2 0x2D9F JUMP JUMPDEST JUMPDEST PUSH1 0x20 MUL PUSH1 0x20 ADD ADD MLOAD DUP6 PUSH1 0x40 MLOAD DUP5 PUSH4 0xFFFFFFFF AND PUSH1 0xE0 SHL DUP2 MSTORE PUSH1 0x4 ADD PUSH2 0x1C32 SWAP4 SWAP3 SWAP2 SWAP1 PUSH2 0x3033 JUMP JUMPDEST PUSH1 0x0 PUSH1 0x40 MLOAD DUP1 DUP4 SUB DUP2 PUSH1 0x0 DUP8 DUP1 EXTCODESIZE ISZERO DUP1 ISZERO PUSH2 0x1C4C JUMPI PUSH1 0x0 DUP1 REVERT JUMPDEST POP GAS CALL ISZERO DUP1 ISZERO PUSH2 0x1C60 JUMPI RETURNDATASIZE PUSH1 0x0 DUP1 RETURNDATACOPY RETURNDATASIZE PUSH1 0x0 REVERT JUMPDEST POP POP POP POP PUSH1 0x0 PUSH1 0x64 PUSH1 0x7 SLOAD PUSH1 0x6 SLOAD PUSH1 0x5 SLOAD PUSH2 0x1C7B SWAP2 SWAP1 PUSH2 0x2CC9 JUMP JUMPDEST PUSH2 0x1C85 SWAP2 SWAP1 PUSH2 0x2CFD JUMP JUMPDEST PUSH2 0x1C8F SWAP2 SWAP1 PUSH2 0x2D6E JUMP JUMPDEST SWAP1 POP PUSH1 0x0 PUSH1 0x2 PUSH8 0xFFFFFFFFFFFFFFFF DUP2 GT ISZERO PUSH2 0x1CAE JUMPI PUSH2 0x1CAD PUSH2 0x234B JUMP JUMPDEST JUMPDEST PUSH1 0x40 MLOAD SWAP1 DUP1 DUP3 MSTORE DUP1 PUSH1 0x20 MUL PUSH1 0x20 ADD DUP3 ADD PUSH1 0x40 MSTORE DUP1 ISZERO PUSH2 0x1CE1 JUMPI DUP2 PUSH1 0x20 ADD JUMPDEST PUSH1 0x60 DUP2 MSTORE PUSH1 0x20 ADD SWAP1 PUSH1 0x1 SWAP1 SUB SWAP1 DUP2 PUSH2 0x1CCC JUMPI SWAP1 POP JUMPDEST POP SWAP1 POP PUSH1 0x40 MLOAD DUP1 PUSH1 0xC0 ADD PUSH1 0x40 MSTORE DUP1 PUSH1 0x83 DUP2 MSTORE PUSH1 0x20 ADD PUSH2 0x3584 PUSH1 0x83 SWAP2 CODECOPY DUP2 PUSH1 0x0 DUP2 MLOAD DUP2 LT PUSH2 0x1D11 JUMPI PUSH2 0x1D10 PUSH2 0x2D9F JUMP JUMPDEST JUMPDEST PUSH1 0x20 MUL PUSH1 0x20 ADD ADD DUP2 SWAP1 MSTORE POP PUSH1 0x40 MLOAD DUP1 PUSH1 0xC0 ADD PUSH1 0x40 MSTORE DUP1 PUSH1 0x91 DUP2 MSTORE PUSH1 0x20 ADD PUSH2 0x34BF PUSH1 0x91 SWAP2 CODECOPY DUP2 PUSH1 0x1 DUP2 MLOAD DUP2 LT PUSH2 0x1D49 JUMPI PUSH2 0x1D48 PUSH2 0x2D9F JUMP JUMPDEST JUMPDEST PUSH1 0x20 MUL PUSH1 0x20 ADD ADD DUP2 SWAP1 MSTORE POP PUSH1 0x0 DUP1 SLOAD SWAP1 PUSH2 0x100 EXP SWAP1 DIV PUSH20 0xFFFFFFFFFFFFFFFFFFFFFFFFFFFFFFFFFFFFFFFF AND PUSH20 0xFFFFFFFFFFFFFFFFFFFFFFFFFFFFFFFFFFFFFFFF AND PUSH4 0x7A1A29FB PUSH1 0x9 DUP4 PUSH1 0x0 DUP2 MLOAD DUP2 LT PUSH2 0x1DA6 JUMPI PUSH2 0x1DA5 PUSH2 0x2D9F JUMP JUMPDEST JUMPDEST PUSH1 0x20 MUL PUSH1 0x20 ADD ADD MLOAD DUP6 PUSH1 0x40 MLOAD DUP5 PUSH4 0xFFFFFFFF AND PUSH1 0xE0 SHL DUP2 MSTORE PUSH1 0x4 ADD PUSH2 0x1DCD SWAP4 SWAP3 SWAP2 SWAP1 PUSH2 0x3033 JUMP JUMPDEST PUSH1 0x0 PUSH1 0x40 MLOAD DUP1 DUP4 SUB DUP2 PUSH1 0x0 DUP8 DUP1 EXTCODESIZE ISZERO DUP1 ISZERO PUSH2 0x1DE7 JUMPI PUSH1 0x0 DUP1 REVERT JUMPDEST POP GAS CALL ISZERO DUP1 ISZERO PUSH2 0x1DFB JUMPI RETURNDATASIZE PUSH1 0x0 DUP1 RETURNDATACOPY RETURNDATASIZE PUSH1 0x0 REVERT JUMPDEST POP POP POP POP PUSH1 0x0 DUP1 SLOAD SWAP1 PUSH2 0x100 EXP SWAP1 DIV PUSH20 0xFFFFFFFFFFFFFFFFFFFFFFFFFFFFFFFFFFFFFFFF AND PUSH20 0xFFFFFFFFFFFFFFFFFFFFFFFFFFFFFFFFFFFFFFFF AND PUSH4 0x7A1A29FB PUSH1 0x9 DUP4 PUSH1 0x1 DUP2 MLOAD DUP2 LT PUSH2 0x1E51 JUMPI PUSH2 0x1E50 PUSH2 0x2D9F JUMP JUMPDEST JUMPDEST PUSH1 0x20 MUL PUSH1 0x20 ADD ADD MLOAD DUP6 PUSH1 0x40 MLOAD DUP5 PUSH4 0xFFFFFFFF AND PUSH1 0xE0 SHL DUP2 MSTORE PUSH1 0x4 ADD PUSH2 0x1E78 SWAP4 SWAP3 SWAP2 SWAP1 PUSH2 0x3033 JUMP JUMPDEST PUSH1 0x0 PUSH1 0x40 MLOAD DUP1 DUP4 SUB DUP2 PUSH1 0x0 DUP8 DUP1 EXTCODESIZE ISZERO DUP1 ISZERO PUSH2 0x1E92 JUMPI PUSH1 0x0 DUP1 REVERT JUMPDEST POP GAS CALL ISZERO DUP1 ISZERO PUSH2 0x1EA6 JUMPI RETURNDATASIZE PUSH1 0x0 DUP1 RETURNDATACOPY RETURNDATASIZE PUSH1 0x0 REVERT JUMPDEST POP POP POP POP PUSH1 0x0 PUSH1 0x6 SLOAD PUSH1 0x5 SLOAD PUSH2 0x1EBC SWAP2 SWAP1 PUSH2 0x2CC9 JUMP JUMPDEST SWAP1 POP PUSH1 0x0 PUSH1 0x1 PUSH8 0xFFFFFFFFFFFFFFFF DUP2 GT ISZERO PUSH2 0x1EDB JUMPI PUSH2 0x1EDA PUSH2 0x234B JUMP JUMPDEST JUMPDEST PUSH1 0x40 MLOAD SWAP1 DUP1 DUP3 MSTORE DUP1 PUSH1 0x20 MUL PUSH1 0x20 ADD DUP3 ADD PUSH1 0x40 MSTORE DUP1 ISZERO PUSH2 0x1F0E JUMPI DUP2 PUSH1 0x20 ADD JUMPDEST PUSH1 0x60 DUP2 MSTORE PUSH1 0x20 ADD SWAP1 PUSH1 0x1 SWAP1 SUB SWAP1 DUP2 PUSH2 0x1EF9 JUMPI SWAP1 POP JUMPDEST POP SWAP1 POP PUSH1 0x40 MLOAD DUP1 PUSH1 0xC0 ADD PUSH1 0x40 MSTORE DUP1 PUSH1 0x84 DUP2 MSTORE PUSH1 0x20 ADD PUSH2 0x321B PUSH1 0x84 SWAP2 CODECOPY DUP2 PUSH1 0x0 DUP2 MLOAD DUP2 LT PUSH2 0x1F3E JUMPI PUSH2 0x1F3D PUSH2 0x2D9F JUMP JUMPDEST JUMPDEST PUSH1 0x20 MUL PUSH1 0x20 ADD ADD DUP2 SWAP1 MSTORE POP PUSH1 0x0 DUP1 SLOAD SWAP1 PUSH2 0x100 EXP SWAP1 DIV PUSH20 0xFFFFFFFFFFFFFFFFFFFFFFFFFFFFFFFFFFFFFFFF AND PUSH20 0xFFFFFFFFFFFFFFFFFFFFFFFFFFFFFFFFFFFFFFFF AND PUSH4 0x7A1A29FB PUSH1 0x9 DUP4 PUSH1 0x0 DUP2 MLOAD DUP2 LT PUSH2 0x1F9B JUMPI PUSH2 0x1F9A PUSH2 0x2D9F JUMP JUMPDEST JUMPDEST PUSH1 0x20 MUL PUSH1 0x20 ADD ADD MLOAD DUP6 PUSH1 0x40 MLOAD DUP5 PUSH4 0xFFFFFFFF AND PUSH1 0xE0 SHL DUP2 MSTORE PUSH1 0x4 ADD PUSH2 0x1FC2 SWAP4 SWAP3 SWAP2 SWAP1 PUSH2 0x3033 JUMP JUMPDEST PUSH1 0x0 PUSH1 0x40 MLOAD DUP1 DUP4 SUB DUP2 PUSH1 0x0 DUP8 DUP1 EXTCODESIZE ISZERO DUP1 ISZERO PUSH2 0x1FDC JUMPI PUSH1 0x0 DUP1 REVERT JUMPDEST POP GAS CALL ISZERO DUP1 ISZERO PUSH2 0x1FF0 JUMPI RETURNDATASIZE PUSH1 0x0 DUP1 RETURNDATACOPY RETURNDATASIZE PUSH1 0x0 REVERT JUMPDEST POP POP POP POP PUSH1 0x0 PUSH1 0x64 PUSH1 0x7 SLOAD PUSH1 0x6 SLOAD PUSH1 0x4 SLOAD PUSH2 0x200B SWAP2 SWAP1 PUSH2 0x2CC9 JUMP JUMPDEST PUSH2 0x2015 SWAP2 SWAP1 PUSH2 0x2CFD JUMP JUMPDEST PUSH2 0x201F SWAP2 SWAP1 PUSH2 0x2D6E JUMP JUMPDEST SWAP1 POP PUSH1 0x0 PUSH1 0x2 PUSH8 0xFFFFFFFFFFFFFFFF DUP2 GT ISZERO PUSH2 0x203E JUMPI PUSH2 0x203D PUSH2 0x234B JUMP JUMPDEST JUMPDEST PUSH1 0x40 MLOAD SWAP1 DUP1 DUP3 MSTORE DUP1 PUSH1 0x20 MUL PUSH1 0x20 ADD DUP3 ADD PUSH1 0x40 MSTORE DUP1 ISZERO PUSH2 0x2071 JUMPI DUP2 PUSH1 0x20 ADD JUMPDEST PUSH1 0x60 DUP2 MSTORE PUSH1 0x20 ADD SWAP1 PUSH1 0x1 SWAP1 SUB SWAP1 DUP2 PUSH2 0x205C JUMPI SWAP1 POP JUMPDEST POP SWAP1 POP PUSH1 0x40 MLOAD DUP1 PUSH1 0x80 ADD PUSH1 0x40 MSTORE DUP1 PUSH1 0x44 DUP2 MSTORE PUSH1 0x20 ADD PUSH2 0x32DA PUSH1 0x44 SWAP2 CODECOPY DUP2 PUSH1 0x0 DUP2 MLOAD DUP2 LT PUSH2 0x20A1 JUMPI PUSH2 0x20A0 PUSH2 0x2D9F JUMP JUMPDEST JUMPDEST PUSH1 0x20 MUL PUSH1 0x20 ADD ADD DUP2 SWAP1 MSTORE POP PUSH1 0x40 MLOAD DUP1 PUSH1 0x80 ADD PUSH1 0x40 MSTORE DUP1 PUSH1 0x54 DUP2 MSTORE PUSH1 0x20 ADD PUSH2 0x31C7 PUSH1 0x54 SWAP2 CODECOPY DUP2 PUSH1 0x1 DUP2 MLOAD DUP2 LT PUSH2 0x20D9 JUMPI PUSH2 0x20D8 PUSH2 0x2D9F JUMP JUMPDEST JUMPDEST PUSH1 0x20 MUL PUSH1 0x20 ADD ADD DUP2 SWAP1 MSTORE POP PUSH1 0x0 DUP1 SLOAD SWAP1 PUSH2 0x100 EXP SWAP1 DIV PUSH20 0xFFFFFFFFFFFFFFFFFFFFFFFFFFFFFFFFFFFFFFFF AND PUSH20 0xFFFFFFFFFFFFFFFFFFFFFFFFFFFFFFFFFFFFFFFF AND PUSH4 0x7A1A29FB PUSH1 0x9 DUP4 PUSH1 0x0 DUP2 MLOAD DUP2 LT PUSH2 0x2136 JUMPI PUSH2 0x2135 PUSH2 0x2D9F JUMP JUMPDEST JUMPDEST PUSH1 0x20 MUL PUSH1 0x20 ADD ADD MLOAD DUP6 PUSH1 0x40 MLOAD DUP5 PUSH4 0xFFFFFFFF AND PUSH1 0xE0 SHL DUP2 MSTORE PUSH1 0x4 ADD PUSH2 0x215D SWAP4 SWAP3 SWAP2 SWAP1 PUSH2 0x3033 JUMP JUMPDEST PUSH1 0x0 PUSH1 0x40 MLOAD DUP1 DUP4 SUB DUP2 PUSH1 0x0 DUP8 DUP1 EXTCODESIZE ISZERO DUP1 ISZERO PUSH2 0x2177 JUMPI PUSH1 0x0 DUP1 REVERT JUMPDEST POP GAS CALL ISZERO DUP1 ISZERO PUSH2 0x218B JUMPI RETURNDATASIZE PUSH1 0x0 DUP1 RETURNDATACOPY RETURNDATASIZE PUSH1 0x0 REVERT JUMPDEST POP POP POP POP PUSH1 0x0 DUP1 SLOAD SWAP1 PUSH2 0x100 EXP SWAP1 DIV PUSH20 0xFFFFFFFFFFFFFFFFFFFFFFFFFFFFFFFFFFFFFFFF AND PUSH20 0xFFFFFFFFFFFFFFFFFFFFFFFFFFFFFFFFFFFFFFFF AND PUSH4 0x7A1A29FB PUSH1 0x9 DUP4 PUSH1 0x1 DUP2 MLOAD DUP2 LT PUSH2 0x21E1 JUMPI PUSH2 0x21E0 PUSH2 0x2D9F JUMP JUMPDEST JUMPDEST PUSH1 0x20 MUL PUSH1 0x20 ADD ADD MLOAD DUP6 PUSH1 0x40 MLOAD DUP5 PUSH4 0xFFFFFFFF AND PUSH1 0xE0 SHL DUP2 MSTORE PUSH1 0x4 ADD PUSH2 0x2208 SWAP4 SWAP3 SWAP2 SWAP1 PUSH2 0x3033 JUMP JUMPDEST PUSH1 0x0 PUSH1 0x40 MLOAD DUP1 DUP4 SUB DUP2 PUSH1 0x0 DUP8 DUP1 EXTCODESIZE ISZERO DUP1 ISZERO PUSH2 0x2222 JUMPI PUSH1 0x0 DUP1 REVERT JUMPDEST POP GAS CALL ISZERO DUP1 ISZERO PUSH2 0x2236 JUMPI RETURNDATASIZE PUSH1 0x0 DUP1 RETURNDATACOPY RETURNDATASIZE PUSH1 0x0 REVERT JUMPDEST POP POP POP POP POP POP POP POP POP POP POP POP POP POP JUMP JUMPDEST PUSH1 0x0 PUSH20 0xFFFFFFFFFFFFFFFFFFFFFFFFFFFFFFFFFFFFFFFF DUP3 AND SWAP1 POP SWAP2 SWAP1 POP JUMP JUMPDEST PUSH1 0x0 DUP2 SWAP1 POP SWAP2 SWAP1 POP JUMP JUMPDEST PUSH1 0x0 PUSH2 0x228B PUSH2 0x2286 PUSH2 0x2281 DUP5 PUSH2 0x2246 JUMP JUMPDEST PUSH2 0x2266 JUMP JUMPDEST PUSH2 0x2246 JUMP JUMPDEST SWAP1 POP SWAP2 SWAP1 POP JUMP JUMPDEST PUSH1 0x0 PUSH2 0x229D DUP3 PUSH2 0x2270 JUMP JUMPDEST SWAP1 POP SWAP2 SWAP1 POP JUMP JUMPDEST PUSH1 0x0 PUSH2 0x22AF DUP3 PUSH2 0x2292 JUMP JUMPDEST SWAP1 POP SWAP2 SWAP1 POP JUMP JUMPDEST PUSH2 0x22BF DUP2 PUSH2 0x22A4 JUMP JUMPDEST DUP3 MSTORE POP POP JUMP JUMPDEST PUSH1 0x0 PUSH1 0x20 DUP3 ADD SWAP1 POP PUSH2 0x22DA PUSH1 0x0 DUP4 ADD DUP5 PUSH2 0x22B6 JUMP JUMPDEST SWAP3 SWAP2 POP POP JUMP JUMPDEST PUSH1 0x0 PUSH2 0x22EB DUP3 PUSH2 0x2292 JUMP JUMPDEST SWAP1 POP SWAP2 SWAP1 POP JUMP JUMPDEST PUSH2 0x22FB DUP2 PUSH2 0x22E0 JUMP JUMPDEST DUP3 MSTORE POP POP JUMP JUMPDEST PUSH1 0x0 PUSH1 0x20 DUP3 ADD SWAP1 POP PUSH2 0x2316 PUSH1 0x0 DUP4 ADD DUP5 PUSH2 0x22F2 JUMP JUMPDEST SWAP3 SWAP2 POP POP JUMP JUMPDEST PUSH1 0x0 PUSH1 0x40 MLOAD SWAP1 POP SWAP1 JUMP JUMPDEST PUSH1 0x0 DUP1 REVERT JUMPDEST PUSH1 0x0 DUP1 REVERT JUMPDEST PUSH1 0x0 DUP1 REVERT JUMPDEST PUSH1 0x0 DUP1 REVERT JUMPDEST PUSH1 0x0 PUSH1 0x1F NOT PUSH1 0x1F DUP4 ADD AND SWAP1 POP SWAP2 SWAP1 POP JUMP JUMPDEST PUSH32 0x4E487B7100000000000000000000000000000000000000000000000000000000 PUSH1 0x0 MSTORE PUSH1 0x41 PUSH1 0x4 MSTORE PUSH1 0x24 PUSH1 0x0 REVERT JUMPDEST PUSH2 0x2383 DUP3 PUSH2 0x233A JUMP JUMPDEST DUP2 ADD DUP2 DUP2 LT PUSH8 0xFFFFFFFFFFFFFFFF DUP3 GT OR ISZERO PUSH2 0x23A2 JUMPI PUSH2 0x23A1 PUSH2 0x234B JUMP JUMPDEST JUMPDEST DUP1 PUSH1 0x40 MSTORE POP POP POP JUMP JUMPDEST PUSH1 0x0 PUSH2 0x23B5 PUSH2 0x231C JUMP JUMPDEST SWAP1 POP PUSH2 0x23C1 DUP3 DUP3 PUSH2 0x237A JUMP JUMPDEST SWAP2 SWAP1 POP JUMP JUMPDEST PUSH1 0x0 PUSH8 0xFFFFFFFFFFFFFFFF DUP3 GT ISZERO PUSH2 0x23E1 JUMPI PUSH2 0x23E0 PUSH2 0x234B JUMP JUMPDEST JUMPDEST PUSH2 0x23EA DUP3 PUSH2 0x233A JUMP JUMPDEST SWAP1 POP PUSH1 0x20 DUP2 ADD SWAP1 POP SWAP2 SWAP1 POP JUMP JUMPDEST DUP3 DUP2 DUP4 CALLDATACOPY PUSH1 0x0 DUP4 DUP4 ADD MSTORE POP POP POP JUMP JUMPDEST PUSH1 0x0 PUSH2 0x2419 PUSH2 0x2414 DUP5 PUSH2 0x23C6 JUMP JUMPDEST PUSH2 0x23AB JUMP JUMPDEST SWAP1 POP DUP3 DUP2 MSTORE PUSH1 0x20 DUP2 ADD DUP5 DUP5 DUP5 ADD GT ISZERO PUSH2 0x2435 JUMPI PUSH2 0x2434 PUSH2 0x2335 JUMP JUMPDEST JUMPDEST PUSH2 0x2440 DUP5 DUP3 DUP6 PUSH2 0x23F7 JUMP JUMPDEST POP SWAP4 SWAP3 POP POP POP JUMP JUMPDEST PUSH1 0x0 DUP3 PUSH1 0x1F DUP4 ADD SLT PUSH2 0x245D JUMPI PUSH2 0x245C PUSH2 0x2330 JUMP JUMPDEST JUMPDEST DUP2 CALLDATALOAD PUSH2 0x246D DUP5 DUP3 PUSH1 0x20 DUP7 ADD PUSH2 0x2406 JUMP JUMPDEST SWAP2 POP POP SWAP3 SWAP2 POP POP JUMP JUMPDEST PUSH1 0x0 DUP2 SWAP1 POP SWAP2 SWAP1 POP JUMP JUMPDEST PUSH2 0x2489 DUP2 PUSH2 0x2476 JUMP JUMPDEST DUP2 EQ PUSH2 0x2494 JUMPI PUSH1 0x0 DUP1 REVERT JUMPDEST POP JUMP JUMPDEST PUSH1 0x0 DUP2 CALLDATALOAD SWAP1 POP PUSH2 0x24A6 DUP2 PUSH2 0x2480 JUMP JUMPDEST SWAP3 SWAP2 POP POP JUMP JUMPDEST PUSH1 0x0 DUP1 PUSH1 0x0 DUP1 PUSH1 0x0 PUSH1 0xA0 DUP7 DUP9 SUB SLT ISZERO PUSH2 0x24C8 JUMPI PUSH2 0x24C7 PUSH2 0x2326 JUMP JUMPDEST JUMPDEST PUSH1 0x0 DUP7 ADD CALLDATALOAD PUSH8 0xFFFFFFFFFFFFFFFF DUP2 GT ISZERO PUSH2 0x24E6 JUMPI PUSH2 0x24E5 PUSH2 0x232B JUMP JUMPDEST JUMPDEST PUSH2 0x24F2 DUP9 DUP3 DUP10 ADD PUSH2 0x2448 JUMP JUMPDEST SWAP6 POP POP PUSH1 0x20 DUP7 ADD CALLDATALOAD PUSH8 0xFFFFFFFFFFFFFFFF DUP2 GT ISZERO PUSH2 0x2513 JUMPI PUSH2 0x2512 PUSH2 0x232B JUMP JUMPDEST JUMPDEST PUSH2 0x251F DUP9 DUP3 DUP10 ADD PUSH2 0x2448 JUMP JUMPDEST SWAP5 POP POP PUSH1 0x40 PUSH2 0x2530 DUP9 DUP3 DUP10 ADD PUSH2 0x2497 JUMP JUMPDEST SWAP4 POP POP PUSH1 0x60 PUSH2 0x2541 DUP9 DUP3 DUP10 ADD PUSH2 0x2497 JUMP JUMPDEST SWAP3 POP POP PUSH1 0x80 PUSH2 0x2552 DUP9 DUP3 DUP10 ADD PUSH2 0x2497 JUMP JUMPDEST SWAP2 POP POP SWAP3 SWAP6 POP SWAP3 SWAP6 SWAP1 SWAP4 POP JUMP JUMPDEST PUSH1 0x0 DUP2 MLOAD SWAP1 POP SWAP2 SWAP1 POP JUMP JUMPDEST PUSH32 0x4E487B7100000000000000000000000000000000000000000000000000000000 PUSH1 0x0 MSTORE PUSH1 0x22 PUSH1 0x4 MSTORE PUSH1 0x24 PUSH1 0x0 REVERT JUMPDEST PUSH1 0x0 PUSH1 0x2 DUP3 DIV SWAP1 POP PUSH1 0x1 DUP3 AND DUP1 PUSH2 0x25B1 JUMPI PUSH1 0x7F DUP3 AND SWAP2 POP JUMPDEST PUSH1 0x20 DUP3 LT DUP2 SUB PUSH2 0x25C4 JUMPI PUSH2 0x25C3 PUSH2 0x256A JUMP JUMPDEST JUMPDEST POP SWAP2 SWAP1 POP JUMP JUMPDEST PUSH1 0x0 DUP2 SWAP1 POP DUP2 PUSH1 0x0 MSTORE PUSH1 0x20 PUSH1 0x0 KECCAK256 SWAP1 POP SWAP2 SWAP1 POP JUMP JUMPDEST PUSH1 0x0 PUSH1 0x20 PUSH1 0x1F DUP4 ADD DIV SWAP1 POP SWAP2 SWAP1 POP JUMP JUMPDEST PUSH1 0x0 DUP3 DUP3 SHL SWAP1 POP SWAP3 SWAP2 POP POP JUMP JUMPDEST PUSH1 0x0 PUSH1 0x8 DUP4 MUL PUSH2 0x262C PUSH32 0xFFFFFFFFFFFFFFFFFFFFFFFFFFFFFFFFFFFFFFFFFFFFFFFFFFFFFFFFFFFFFFFF DUP3 PUSH2 0x25EF JUMP JUMPDEST PUSH2 0x2636 DUP7 DUP4 PUSH2 0x25EF JUMP JUMPDEST SWAP6 POP DUP1 NOT DUP5 AND SWAP4 POP DUP1 DUP7 AND DUP5 OR SWAP3 POP POP POP SWAP4 SWAP3 POP POP POP JUMP JUMPDEST PUSH1 0x0 PUSH2 0x2669 PUSH2 0x2664 PUSH2 0x265F DUP5 PUSH2 0x2476 JUMP JUMPDEST PUSH2 0x2266 JUMP JUMPDEST PUSH2 0x2476 JUMP JUMPDEST SWAP1 POP SWAP2 SWAP1 POP JUMP JUMPDEST PUSH1 0x0 DUP2 SWAP1 POP SWAP2 SWAP1 POP JUMP JUMPDEST PUSH2 0x2683 DUP4 PUSH2 0x264E JUMP JUMPDEST PUSH2 0x2697 PUSH2 0x268F DUP3 PUSH2 0x2670 JUMP JUMPDEST DUP5 DUP5 SLOAD PUSH2 0x25FC JUMP JUMPDEST DUP3 SSTORE POP POP POP POP JUMP JUMPDEST PUSH1 0x0 SWAP1 JUMP JUMPDEST PUSH2 0x26AC PUSH2 0x269F JUMP JUMPDEST PUSH2 0x26B7 DUP2 DUP5 DUP5 PUSH2 0x267A JUMP JUMPDEST POP POP POP JUMP JUMPDEST JUMPDEST DUP2 DUP2 LT ISZERO PUSH2 0x26DB JUMPI PUSH2 0x26D0 PUSH1 0x0 DUP3 PUSH2 0x26A4 JUMP JUMPDEST PUSH1 0x1 DUP2 ADD SWAP1 POP PUSH2 0x26BD JUMP JUMPDEST POP POP JUMP JUMPDEST PUSH1 0x1F DUP3 GT ISZERO PUSH2 0x2720 JUMPI PUSH2 0x26F1 DUP2 PUSH2 0x25CA JUMP JUMPDEST PUSH2 0x26FA DUP5 PUSH2 0x25DF JUMP JUMPDEST DUP2 ADD PUSH1 0x20 DUP6 LT ISZERO PUSH2 0x2709 JUMPI DUP2 SWAP1 POP JUMPDEST PUSH2 0x271D PUSH2 0x2715 DUP6 PUSH2 0x25DF JUMP JUMPDEST DUP4 ADD DUP3 PUSH2 0x26BC JUMP JUMPDEST POP POP JUMPDEST POP POP POP JUMP JUMPDEST PUSH1 0x0 DUP3 DUP3 SHR SWAP1 POP SWAP3 SWAP2 POP POP JUMP JUMPDEST PUSH1 0x0 PUSH2 0x2743 PUSH1 0x0 NOT DUP5 PUSH1 0x8 MUL PUSH2 0x2725 JUMP JUMPDEST NOT DUP1 DUP4 AND SWAP2 POP POP SWAP3 SWAP2 POP POP JUMP JUMPDEST PUSH1 0x0 PUSH2 0x275C DUP4 DUP4 PUSH2 0x2732 JUMP JUMPDEST SWAP2 POP DUP3 PUSH1 0x2 MUL DUP3 OR SWAP1 POP SWAP3 SWAP2 POP POP JUMP JUMPDEST PUSH2 0x2775 DUP3 PUSH2 0x255F JUMP JUMPDEST PUSH8 0xFFFFFFFFFFFFFFFF DUP2 GT ISZERO PUSH2 0x278E JUMPI PUSH2 0x278D PUSH2 0x234B JUMP JUMPDEST JUMPDEST PUSH2 0x2798 DUP3 SLOAD PUSH2 0x2599 JUMP JUMPDEST PUSH2 0x27A3 DUP3 DUP3 DUP6 PUSH2 0x26DF JUMP JUMPDEST PUSH1 0x0 PUSH1 0x20 SWAP1 POP PUSH1 0x1F DUP4 GT PUSH1 0x1 DUP2 EQ PUSH2 0x27D6 JUMPI PUSH1 0x0 DUP5 ISZERO PUSH2 0x27C4 JUMPI DUP3 DUP8 ADD MLOAD SWAP1 POP JUMPDEST PUSH2 0x27CE DUP6 DUP3 PUSH2 0x2750 JUMP JUMPDEST DUP7 SSTORE POP PUSH2 0x2836 JUMP JUMPDEST PUSH1 0x1F NOT DUP5 AND PUSH2 0x27E4 DUP7 PUSH2 0x25CA JUMP JUMPDEST PUSH1 0x0 JUMPDEST DUP3 DUP2 LT ISZERO PUSH2 0x280C JUMPI DUP5 DUP10 ADD MLOAD DUP3 SSTORE PUSH1 0x1 DUP3 ADD SWAP2 POP PUSH1 0x20 DUP6 ADD SWAP5 POP PUSH1 0x20 DUP2 ADD SWAP1 POP PUSH2 0x27E7 JUMP JUMPDEST DUP7 DUP4 LT ISZERO PUSH2 0x2829 JUMPI DUP5 DUP10 ADD MLOAD PUSH2 0x2825 PUSH1 0x1F DUP10 AND DUP3 PUSH2 0x2732 JUMP JUMPDEST DUP4 SSTORE POP JUMPDEST PUSH1 0x1 PUSH1 0x2 DUP9 MUL ADD DUP9 SSTORE POP POP POP JUMPDEST POP POP POP POP POP POP JUMP JUMPDEST PUSH1 0x0 DUP3 DUP3 MSTORE PUSH1 0x20 DUP3 ADD SWAP1 POP SWAP3 SWAP2 POP POP JUMP JUMPDEST PUSH1 0x0 JUMPDEST DUP4 DUP2 LT ISZERO PUSH2 0x286D JUMPI DUP1 DUP3 ADD MLOAD DUP2 DUP5 ADD MSTORE PUSH1 0x20 DUP2 ADD SWAP1 POP PUSH2 0x2852 JUMP JUMPDEST PUSH1 0x0 DUP5 DUP5 ADD MSTORE POP POP POP POP JUMP JUMPDEST PUSH1 0x0 PUSH2 0x2884 DUP3 PUSH2 0x255F JUMP JUMPDEST PUSH2 0x288E DUP2 DUP6 PUSH2 0x283E JUMP JUMPDEST SWAP4 POP PUSH2 0x289E DUP2 DUP6 PUSH1 0x20 DUP7 ADD PUSH2 0x284F JUMP JUMPDEST PUSH2 0x28A7 DUP2 PUSH2 0x233A JUMP JUMPDEST DUP5 ADD SWAP2 POP POP SWAP3 SWAP2 POP POP JUMP JUMPDEST PUSH2 0x28BB DUP2 PUSH2 0x2476 JUMP JUMPDEST DUP3 MSTORE POP POP JUMP JUMPDEST PUSH1 0x0 PUSH1 0x80 DUP3 ADD SWAP1 POP DUP2 DUP2 SUB PUSH1 0x0 DUP4 ADD MSTORE PUSH2 0x28DB DUP2 DUP8 PUSH2 0x2879 JUMP JUMPDEST SWAP1 POP PUSH2 0x28EA PUSH1 0x20 DUP4 ADD DUP7 PUSH2 0x28B2 JUMP JUMPDEST PUSH2 0x28F7 PUSH1 0x40 DUP4 ADD DUP6 PUSH2 0x28B2 JUMP JUMPDEST PUSH2 0x2904 PUSH1 0x60 DUP4 ADD DUP5 PUSH2 0x28B2 JUMP JUMPDEST SWAP6 SWAP5 POP POP POP POP POP JUMP JUMPDEST PUSH1 0x0 DUP2 SWAP1 POP SWAP3 SWAP2 POP POP JUMP JUMPDEST PUSH1 0x0 PUSH2 0x2923 DUP3 PUSH2 0x255F JUMP JUMPDEST PUSH2 0x292D DUP2 DUP6 PUSH2 0x290D JUMP JUMPDEST SWAP4 POP PUSH2 0x293D DUP2 DUP6 PUSH1 0x20 DUP7 ADD PUSH2 0x284F JUMP JUMPDEST DUP1 DUP5 ADD SWAP2 POP POP SWAP3 SWAP2 POP POP JUMP JUMPDEST PUSH1 0x0 PUSH2 0x2955 DUP3 DUP5 PUSH2 0x2918 JUMP JUMPDEST SWAP2 POP DUP2 SWAP1 POP SWAP3 SWAP2 POP POP JUMP JUMPDEST PUSH1 0x0 DUP2 SLOAD PUSH2 0x296D DUP2 PUSH2 0x2599 JUMP JUMPDEST PUSH2 0x2977 DUP2 DUP7 PUSH2 0x290D JUMP JUMPDEST SWAP5 POP PUSH1 0x1 DUP3 AND PUSH1 0x0 DUP2 EQ PUSH2 0x2992 JUMPI PUSH1 0x1 DUP2 EQ PUSH2 0x29A7 JUMPI PUSH2 0x29DA JUMP JUMPDEST PUSH1 0xFF NOT DUP4 AND DUP7 MSTORE DUP2 ISZERO ISZERO DUP3 MUL DUP7 ADD SWAP4 POP PUSH2 0x29DA JUMP JUMPDEST PUSH2 0x29B0 DUP6 PUSH2 0x25CA JUMP JUMPDEST PUSH1 0x0 JUMPDEST DUP4 DUP2 LT ISZERO PUSH2 0x29D2 JUMPI DUP2 SLOAD DUP2 DUP10 ADD MSTORE PUSH1 0x1 DUP3 ADD SWAP2 POP PUSH1 0x20 DUP2 ADD SWAP1 POP PUSH2 0x29B3 JUMP JUMPDEST DUP4 DUP9 ADD SWAP6 POP POP POP JUMPDEST POP POP POP SWAP3 SWAP2 POP POP JUMP JUMPDEST PUSH1 0x0 PUSH2 0x29EF DUP3 DUP5 PUSH2 0x2960 JUMP JUMPDEST SWAP2 POP DUP2 SWAP1 POP SWAP3 SWAP2 POP POP JUMP JUMPDEST PUSH32 0x4550303031000000000000000000000000000000000000000000000000000000 PUSH1 0x0 DUP3 ADD MSTORE POP JUMP JUMPDEST PUSH1 0x0 PUSH2 0x2A30 PUSH1 0x5 DUP4 PUSH2 0x283E JUMP JUMPDEST SWAP2 POP PUSH2 0x2A3B DUP3 PUSH2 0x29FA JUMP JUMPDEST PUSH1 0x20 DUP3 ADD SWAP1 POP SWAP2 SWAP1 POP JUMP JUMPDEST PUSH1 0x0 PUSH1 0x40 DUP3 ADD SWAP1 POP DUP2 DUP2 SUB PUSH1 0x0 DUP4 ADD MSTORE PUSH2 0x2A60 DUP2 DUP5 PUSH2 0x2879 JUMP JUMPDEST SWAP1 POP DUP2 DUP2 SUB PUSH1 0x20 DUP4 ADD MSTORE PUSH2 0x2A73 DUP2 PUSH2 0x2A23 JUMP JUMPDEST SWAP1 POP SWAP3 SWAP2 POP POP JUMP JUMPDEST PUSH1 0x0 DUP2 MLOAD SWAP1 POP PUSH2 0x2A8A DUP2 PUSH2 0x2480 JUMP JUMPDEST SWAP3 SWAP2 POP POP JUMP JUMPDEST PUSH1 0x0 PUSH1 0x20 DUP3 DUP5 SUB SLT ISZERO PUSH2 0x2AA6 JUMPI PUSH2 0x2AA5 PUSH2 0x2326 JUMP JUMPDEST JUMPDEST PUSH1 0x0 PUSH2 0x2AB4 DUP5 DUP3 DUP6 ADD PUSH2 0x2A7B JUMP JUMPDEST SWAP2 POP POP SWAP3 SWAP2 POP POP JUMP JUMPDEST PUSH32 0x4550303032000000000000000000000000000000000000000000000000000000 PUSH1 0x0 DUP3 ADD MSTORE POP JUMP JUMPDEST PUSH1 0x0 PUSH2 0x2AF3 PUSH1 0x5 DUP4 PUSH2 0x283E JUMP JUMPDEST SWAP2 POP PUSH2 0x2AFE DUP3 PUSH2 0x2ABD JUMP JUMPDEST PUSH1 0x20 DUP3 ADD SWAP1 POP SWAP2 SWAP1 POP JUMP JUMPDEST PUSH1 0x0 PUSH1 0x40 DUP3 ADD SWAP1 POP DUP2 DUP2 SUB PUSH1 0x0 DUP4 ADD MSTORE PUSH2 0x2B23 DUP2 DUP5 PUSH2 0x2879 JUMP JUMPDEST SWAP1 POP DUP2 DUP2 SUB PUSH1 0x20 DUP4 ADD MSTORE PUSH2 0x2B36 DUP2 PUSH2 0x2AE6 JUMP JUMPDEST SWAP1 POP SWAP3 SWAP2 POP POP JUMP JUMPDEST PUSH32 0x4550303033000000000000000000000000000000000000000000000000000000 PUSH1 0x0 DUP3 ADD MSTORE POP JUMP JUMPDEST PUSH1 0x0 PUSH2 0x2B74 PUSH1 0x5 DUP4 PUSH2 0x283E JUMP JUMPDEST SWAP2 POP PUSH2 0x2B7F DUP3 PUSH2 0x2B3E JUMP JUMPDEST PUSH1 0x20 DUP3 ADD SWAP1 POP SWAP2 SWAP1 POP JUMP JUMPDEST PUSH1 0x0 PUSH1 0x40 DUP3 ADD SWAP1 POP DUP2 DUP2 SUB PUSH1 0x0 DUP4 ADD MSTORE PUSH2 0x2BA4 DUP2 DUP5 PUSH2 0x2879 JUMP JUMPDEST SWAP1 POP DUP2 DUP2 SUB PUSH1 0x20 DUP4 ADD MSTORE PUSH2 0x2BB7 DUP2 PUSH2 0x2B67 JUMP JUMPDEST SWAP1 POP SWAP3 SWAP2 POP POP JUMP JUMPDEST PUSH32 0x4550303035000000000000000000000000000000000000000000000000000000 PUSH1 0x0 DUP3 ADD MSTORE POP JUMP JUMPDEST PUSH1 0x0 PUSH2 0x2BF5 PUSH1 0x5 DUP4 PUSH2 0x283E JUMP JUMPDEST SWAP2 POP PUSH2 0x2C00 DUP3 PUSH2 0x2BBF JUMP JUMPDEST PUSH1 0x20 DUP3 ADD SWAP1 POP SWAP2 SWAP1 POP JUMP JUMPDEST PUSH1 0x0 PUSH1 0x40 DUP3 ADD SWAP1 POP DUP2 DUP2 SUB PUSH1 0x0 DUP4 ADD MSTORE PUSH2 0x2C25 DUP2 DUP5 PUSH2 0x2879 JUMP JUMPDEST SWAP1 POP DUP2 DUP2 SUB PUSH1 0x20 DUP4 ADD MSTORE PUSH2 0x2C38 DUP2 PUSH2 0x2BE8 JUMP JUMPDEST SWAP1 POP SWAP3 SWAP2 POP POP JUMP JUMPDEST PUSH1 0x0 PUSH1 0xA0 DUP3 ADD SWAP1 POP DUP2 DUP2 SUB PUSH1 0x0 DUP4 ADD MSTORE PUSH2 0x2C5A DUP2 DUP9 PUSH2 0x2879 JUMP JUMPDEST SWAP1 POP PUSH2 0x2C69 PUSH1 0x20 DUP4 ADD DUP8 PUSH2 0x28B2 JUMP JUMPDEST PUSH2 0x2C76 PUSH1 0x40 DUP4 ADD DUP7 PUSH2 0x28B2 JUMP JUMPDEST PUSH2 0x2C83 PUSH1 0x60 DUP4 ADD DUP6 PUSH2 0x28B2 JUMP JUMPDEST PUSH2 0x2C90 PUSH1 0x80 DUP4 ADD DUP5 PUSH2 0x28B2 JUMP JUMPDEST SWAP7 SWAP6 POP POP POP POP POP POP JUMP JUMPDEST PUSH32 0x4E487B7100000000000000000000000000000000000000000000000000000000 PUSH1 0x0 MSTORE PUSH1 0x11 PUSH1 0x4 MSTORE PUSH1 0x24 PUSH1 0x0 REVERT JUMPDEST PUSH1 0x0 PUSH2 0x2CD4 DUP3 PUSH2 0x2476 JUMP JUMPDEST SWAP2 POP PUSH2 0x2CDF DUP4 PUSH2 0x2476 JUMP JUMPDEST SWAP3 POP DUP3 DUP3 ADD SWAP1 POP DUP1 DUP3 GT ISZERO PUSH2 0x2CF7 JUMPI PUSH2 0x2CF6 PUSH2 0x2C9A JUMP JUMPDEST JUMPDEST SWAP3 SWAP2 POP POP JUMP JUMPDEST PUSH1 0x0 PUSH2 0x2D08 DUP3 PUSH2 0x2476 JUMP JUMPDEST SWAP2 POP PUSH2 0x2D13 DUP4 PUSH2 0x2476 JUMP JUMPDEST SWAP3 POP DUP3 DUP3 MUL PUSH2 0x2D21 DUP2 PUSH2 0x2476 JUMP JUMPDEST SWAP2 POP DUP3 DUP3 DIV DUP5 EQ DUP4 ISZERO OR PUSH2 0x2D38 JUMPI PUSH2 0x2D37 PUSH2 0x2C9A JUMP JUMPDEST JUMPDEST POP SWAP3 SWAP2 POP POP JUMP JUMPDEST PUSH32 0x4E487B7100000000000000000000000000000000000000000000000000000000 PUSH1 0x0 MSTORE PUSH1 0x12 PUSH1 0x4 MSTORE PUSH1 0x24 PUSH1 0x0 REVERT JUMPDEST PUSH1 0x0 PUSH2 0x2D79 DUP3 PUSH2 0x2476 JUMP JUMPDEST SWAP2 POP PUSH2 0x2D84 DUP4 PUSH2 0x2476 JUMP JUMPDEST SWAP3 POP DUP3 PUSH2 0x2D94 JUMPI PUSH2 0x2D93 PUSH2 0x2D3F JUMP JUMPDEST JUMPDEST DUP3 DUP3 DIV SWAP1 POP SWAP3 SWAP2 POP POP JUMP JUMPDEST PUSH32 0x4E487B7100000000000000000000000000000000000000000000000000000000 PUSH1 0x0 MSTORE PUSH1 0x32 PUSH1 0x4 MSTORE PUSH1 0x24 PUSH1 0x0 REVERT JUMPDEST PUSH1 0x0 DUP2 SLOAD PUSH2 0x2DDB DUP2 PUSH2 0x2599 JUMP JUMPDEST PUSH2 0x2DE5 DUP2 DUP7 PUSH2 0x283E JUMP JUMPDEST SWAP5 POP PUSH1 0x1 DUP3 AND PUSH1 0x0 DUP2 EQ PUSH2 0x2E00 JUMPI PUSH1 0x1 DUP2 EQ PUSH2 0x2E16 JUMPI PUSH2 0x2E49 JUMP JUMPDEST PUSH1 0xFF NOT DUP4 AND DUP7 MSTORE DUP2 ISZERO ISZERO PUSH1 0x20 MUL DUP7 ADD SWAP4 POP PUSH2 0x2E49 JUMP JUMPDEST PUSH2 0x2E1F DUP6 PUSH2 0x25CA JUMP JUMPDEST PUSH1 0x0 JUMPDEST DUP4 DUP2 LT ISZERO PUSH2 0x2E41 JUMPI DUP2 SLOAD DUP2 DUP10 ADD MSTORE PUSH1 0x1 DUP3 ADD SWAP2 POP PUSH1 0x20 DUP2 ADD SWAP1 POP PUSH2 0x2E22 JUMP JUMPDEST DUP1 DUP9 ADD SWAP6 POP POP POP JUMPDEST POP POP POP SWAP3 SWAP2 POP POP JUMP JUMPDEST PUSH32 0x62616C616E636553686565740000000000000000000000000000000000000000 PUSH1 0x0 DUP3 ADD MSTORE POP JUMP JUMPDEST PUSH1 0x0 PUSH2 0x2E88 PUSH1 0xC DUP4 PUSH2 0x283E JUMP JUMPDEST SWAP2 POP PUSH2 0x2E93 DUP3 PUSH2 0x2E52 JUMP JUMPDEST PUSH1 0x20 DUP3 ADD SWAP1 POP SWAP2 SWAP1 POP JUMP JUMPDEST PUSH1 0x0 DUP2 SWAP1 POP SWAP2 SWAP1 POP JUMP JUMPDEST PUSH2 0x2EB1 DUP2 PUSH2 0x2E9E JUMP JUMPDEST DUP3 MSTORE POP POP JUMP JUMPDEST PUSH1 0x0 PUSH1 0x80 DUP3 ADD SWAP1 POP DUP2 DUP2 SUB PUSH1 0x0 DUP4 ADD MSTORE PUSH2 0x2ED1 DUP2 DUP7 PUSH2 0x2DCE JUMP JUMPDEST SWAP1 POP DUP2 DUP2 SUB PUSH1 0x20 DUP4 ADD MSTORE PUSH2 0x2EE4 DUP2 PUSH2 0x2E7B JUMP JUMPDEST SWAP1 POP DUP2 DUP2 SUB PUSH1 0x40 DUP4 ADD MSTORE PUSH2 0x2EF8 DUP2 DUP6 PUSH2 0x2879 JUMP JUMPDEST SWAP1 POP PUSH2 0x2F07 PUSH1 0x60 DUP4 ADD DUP5 PUSH2 0x2EA8 JUMP JUMPDEST SWAP5 SWAP4 POP POP POP POP JUMP JUMPDEST PUSH1 0x0 PUSH2 0x2F1A DUP3 PUSH2 0x2476 JUMP JUMPDEST SWAP2 POP PUSH2 0x2F25 DUP4 PUSH2 0x2476 JUMP JUMPDEST SWAP3 POP DUP3 DUP3 SUB SWAP1 POP DUP2 DUP2 GT ISZERO PUSH2 0x2F3D JUMPI PUSH2 0x2F3C PUSH2 0x2C9A JUMP JUMPDEST JUMPDEST SWAP3 SWAP2 POP POP JUMP JUMPDEST PUSH32 0x636F6D70726568656E73697665496E636F6D6500000000000000000000000000 PUSH1 0x0 DUP3 ADD MSTORE POP JUMP JUMPDEST PUSH1 0x0 PUSH2 0x2F79 PUSH1 0x13 DUP4 PUSH2 0x283E JUMP JUMPDEST SWAP2 POP PUSH2 0x2F84 DUP3 PUSH2 0x2F43 JUMP JUMPDEST PUSH1 0x20 DUP3 ADD SWAP1 POP SWAP2 SWAP1 POP JUMP JUMPDEST PUSH1 0x0 PUSH1 0x80 DUP3 ADD SWAP1 POP DUP2 DUP2 SUB PUSH1 0x0 DUP4 ADD MSTORE PUSH2 0x2FA9 DUP2 DUP7 PUSH2 0x2DCE JUMP JUMPDEST SWAP1 POP DUP2 DUP2 SUB PUSH1 0x20 DUP4 ADD MSTORE PUSH2 0x2FBC DUP2 PUSH2 0x2F6C JUMP JUMPDEST SWAP1 POP DUP2 DUP2 SUB PUSH1 0x40 DUP4 ADD MSTORE PUSH2 0x2FD0 DUP2 DUP6 PUSH2 0x2879 JUMP JUMPDEST SWAP1 POP PUSH2 0x2FDF PUSH1 0x60 DUP4 ADD DUP5 PUSH2 0x2EA8 JUMP JUMPDEST SWAP5 SWAP4 POP POP POP POP JUMP JUMPDEST PUSH32 0x63617368466C6F77000000000000000000000000000000000000000000000000 PUSH1 0x0 DUP3 ADD MSTORE POP JUMP JUMPDEST PUSH1 0x0 PUSH2 0x301D PUSH1 0x8 DUP4 PUSH2 0x283E JUMP JUMPDEST SWAP2 POP PUSH2 0x3028 DUP3 PUSH2 0x2FE7 JUMP JUMPDEST PUSH1 0x20 DUP3 ADD SWAP1 POP SWAP2 SWAP1 POP JUMP JUMPDEST PUSH1 0x0 PUSH1 0x80 DUP3 ADD SWAP1 POP DUP2 DUP2 SUB PUSH1 0x0 DUP4 ADD MSTORE PUSH2 0x304D DUP2 DUP7 PUSH2 0x2DCE JUMP JUMPDEST SWAP1 POP DUP2 DUP2 SUB PUSH1 0x20 DUP4 ADD MSTORE PUSH2 0x3060 DUP2 PUSH2 0x3010 JUMP JUMPDEST SWAP1 POP DUP2 DUP2 SUB PUSH1 0x40 DUP4 ADD MSTORE PUSH2 0x3074 DUP2 DUP6 PUSH2 0x2879 JUMP JUMPDEST SWAP1 POP PUSH2 0x3083 PUSH1 0x60 DUP4 ADD DUP5 PUSH2 0x2EA8 JUMP JUMPDEST SWAP5 SWAP4 POP POP POP POP JUMP INVALID PUSH10 0x6E636F6D652E64657461 PUSH10 0x6C732E6465706F736974 CHAINID PUSH6 0x652E62726561 PUSH12 0x646F776E2E4554482E616D6F PUSH22 0x6E746C696162696C69746965732E64657461696C732E PUSH22 0x7365724465706F7369742E627265616B646F776E2E45 SLOAD BASEFEE 0x2E PUSH7 0x61697256616C75 PUSH6 0x737570706C65 PUSH14 0x656E74616C5363686564756C654F PUSH7 0x4E6F6E43617368 0x4F PUSH17 0x65726174696E6741637469766974696573 0x2E PUSH5 0x657461696C PUSH20 0x2E63727970746F63757272656E63696573446570 PUSH16 0x73697465644279437573746F6D657273 0x2E PUSH3 0x726561 PUSH12 0x646F776E2E4554482E616D6F PUSH22 0x6E746173736574732E64657461696C732E6372797074 PUSH16 0x63757272656E63792E627265616B646F PUSH24 0x6E2E4554482E616D6F756E746173736574732E6465746169 PUSH13 0x732E63727970746F6375727265 PUSH15 0x63792E746F74616C416D6F756E7446 PUSH2 0x6972 JUMP PUSH2 0x6C75 PUSH6 0x737570706C65 PUSH14 0x656E74616C5363686564756C654F PUSH7 0x4E6F6E43617368 0x4F PUSH17 0x65726174696E6741637469766974696573 0x2E PUSH5 0x657461696C PUSH20 0x2E63727970746F63757272656E63696573456E64 0x4F PUSH7 0x506572696F6473 PUSH22 0x70706C656D656E74616C5363686564756C654F664E6F PUSH15 0x436173684F7065726174696E674163 PUSH21 0x697669746965732E64657461696C732E6372797074 PUSH16 0x63757272656E63696573526563656976 PUSH6 0x6446726F6D43 PUSH22 0x73746F6D65727341735472616E73616374696F6E4665 PUSH6 0x732E62726561 PUSH12 0x646F776E2E4554482E616D6F PUSH22 0x6E74696E636F6D652E64657461696C732E6465706F73 PUSH10 0x744665652E627265616B PUSH5 0x6F776E2E45 SLOAD BASEFEE 0x2E PUSH24 0x6569676874656441766572616765436F7374737570706C65 PUSH14 0x656E74616C5363686564756C654F PUSH7 0x4E6F6E43617368 0x4F PUSH17 0x65726174696E6741637469766974696573 0x2E PUSH24 0x6569676874656441766572616765436F7374746F74616C4C PUSH10 0x6162696C697469657341 PUSH15 0x644571756974794661697256616C75 PUSH6 0x657175697479 0x2E PUSH5 0x657461696C PUSH20 0x2E72657461696E65644561726E696E67732E6272 PUSH6 0x616B646F776E 0x2E GASLIMIT SLOAD BASEFEE 0x2E PUSH7 0x61697256616C75 PUSH6 0x696E636F6D65 0x2E PUSH5 0x657461696C PUSH20 0x2E6465706F7369744665652E7765696768746564 COINBASE PUSH23 0x6572616765436F73746C696162696C69746965732E6465 PUSH21 0x61696C732E757365724465706F7369742E746F7461 PUSH13 0x416D6F756E744661697256616C PUSH22 0x65737570706C656D656E74616C5363686564756C654F PUSH7 0x4E6F6E43617368 0x4F PUSH17 0x65726174696E6741637469766974696573 0x2E PUSH5 0x657461696C PUSH20 0x2E63727970746F63757272656E63696573446570 PUSH16 0x73697465644279437573746F6D657273 0x2E PUSH3 0x726561 PUSH12 0x646F776E2E4554482E776569 PUSH8 0x6874656441766572 PUSH2 0x6765 NUMBER PUSH16 0x73746571756974792E64657461696C73 0x2E PUSH19 0x657461696E65644561726E696E67732E627265 PUSH2 0x6B64 PUSH16 0x776E2E4554482E616D6F756E74657175 PUSH10 0x74792E64657461696C73 0x2E PUSH19 0x657461696E65644561726E696E67732E746F74 PUSH2 0x6C41 PUSH14 0x6F756E744661697256616C756573 PUSH22 0x70706C656D656E74616C5363686564756C654F664E6F PUSH15 0x436173684F7065726174696E674163 PUSH21 0x697669746965732E64657461696C732E6372797074 PUSH16 0x63757272656E63696573526563656976 PUSH6 0x6446726F6D43 PUSH22 0x73746F6D65727341735472616E73616374696F6E4665 PUSH6 0x732E62726561 PUSH12 0x646F776E2E4554482E776569 PUSH8 0x6874656441766572 PUSH2 0x6765 NUMBER PUSH16 0x73746C696162696C69746965732E6465 PUSH21 0x61696C732E757365724465706F7369742E62726561 PUSH12 0x646F776E2E4554482E616D6F PUSH22 0x6E74737570706C656D656E74616C5363686564756C65 0x4F PUSH7 0x4E6F6E43617368 0x4F PUSH17 0x65726174696E6741637469766974696573 0x2E PUSH5 0x657461696C PUSH20 0x2E63727970746F63757272656E63696573526563 PUSH6 0x697665644672 PUSH16 0x6D437573746F6D65727341735472616E PUSH20 0x616374696F6E466565732E776569676874656441 PUSH23 0x6572616765436F73746173736574732E64657461696C73 0x2E PUSH4 0x72797074 PUSH16 0x63757272656E63792E627265616B646F PUSH24 0x6E2E4554482E6661697256616C7565737570706C656D656E PUSH21 0x616C5363686564756C654F664E6F6E436173684F70 PUSH6 0x726174696E67 COINBASE PUSH4 0x74697669 PUSH21 0x6965732E64657461696C732E63727970746F637572 PUSH19 0x656E636965734465706F736974656442794375 PUSH20 0x746F6D6572732E77656967687465644176657261 PUSH8 0x65436F7374A26469 PUSH17 0x6673582212208CBAADDDB64FED36E65E8D XOR 0xD0 0xE7 0x1E 0x28 DUP8 DUP4 XOR 0xE 0xCB 0x2C SDIV EXTCODECOPY 0xCD SHL DUP5 LOG3 0xDA 0xC3 0x2D 0xE5 PUSH5 0x736F6C6343 STOP ADDMOD SLT STOP CALLER "
		},
		"gasEstimates": {
			"creation": {
				"codeDepositCost": "2810000",
				"executionCost": "infinite",
				"totalCost": "infinite"
			},
			"external": {
				"getEventIdAndRate(string,string,uint256,uint256,uint256)": "infinite",
				"report()": "infinite",
				"transactionContract()": "infinite"
			},
			"internal": {
				"computeBalanceSheet()": "infinite",
				"computeCashFlow()": "infinite",
				"computeComprehesiveIncome()": "infinite"
			}
		},
		"methodIdentifiers": {
			"getEventIdAndRate(string,string,uint256,uint256,uint256)": "d6bc166d",
			"report()": "2606a10b",
			"transactionContract()": "1f45275b"
		}
	},
	"abi": [
		{
			"inputs": [
				{
					"internalType": "address",
					"name": "_transactionContractAddress",
					"type": "address"
				},
				{
					"internalType": "address",
					"name": "_reportAddress",
					"type": "address"
				}
			],
			"stateMutability": "nonpayable",
			"type": "constructor"
		},
		{
			"anonymous": false,
			"inputs": [
				{
					"indexed": false,
					"internalType": "string",
					"name": "eventId",
					"type": "string"
				},
				{
					"indexed": false,
					"internalType": "uint256",
					"name": "EP001",
					"type": "uint256"
				},
				{
					"indexed": false,
					"internalType": "uint256",
					"name": "EP002",
					"type": "uint256"
				},
				{
					"indexed": false,
					"internalType": "uint256",
					"name": "EP003",
					"type": "uint256"
				},
				{
					"indexed": false,
					"internalType": "uint256",
					"name": "EP005",
					"type": "uint256"
				}
			],
			"name": "EventEP001",
			"type": "event"
		},
		{
			"anonymous": false,
			"inputs": [
				{
					"indexed": false,
					"internalType": "string",
					"name": "eventId",
					"type": "string"
				},
				{
					"indexed": false,
					"internalType": "uint256",
					"name": "SP002",
					"type": "uint256"
				},
				{
					"indexed": false,
					"internalType": "uint256",
					"name": "SP003",
					"type": "uint256"
				},
				{
					"indexed": false,
					"internalType": "uint256",
					"name": "SP004",
					"type": "uint256"
				}
			],
			"name": "EventIdAndRateReceived",
			"type": "event"
		},
		{
			"inputs": [
				{
					"internalType": "string",
					"name": "_eventId",
					"type": "string"
				},
				{
					"internalType": "string",
					"name": "_reportID",
					"type": "string"
				},
				{
					"internalType": "uint256",
					"name": "_SP002",
					"type": "uint256"
				},
				{
					"internalType": "uint256",
					"name": "_SP003",
					"type": "uint256"
				},
				{
					"internalType": "uint256",
					"name": "_SP004",
					"type": "uint256"
				}
			],
			"name": "getEventIdAndRate",
			"outputs": [],
			"stateMutability": "nonpayable",
			"type": "function"
		},
		{
			"inputs": [],
			"name": "report",
			"outputs": [
				{
					"internalType": "contract Reports",
					"name": "",
					"type": "address"
				}
			],
			"stateMutability": "view",
			"type": "function"
		},
		{
			"inputs": [],
			"name": "transactionContract",
			"outputs": [
				{
					"internalType": "contract TransactionContract",
					"name": "",
					"type": "address"
				}
			],
			"stateMutability": "view",
			"type": "function"
		}
	]
}