{
	"data": {
		"bytecode": {
			"linkReferences": {},
			"object": "608060405234801561000f575f80fd5b5061037b8061001d5f395ff3fe608060405234801561000f575f80fd5b5060043610610034575f3560e01c80631ecb8ac614610038578063a4a945c914610068575b5f80fd5b610052600480360381019061004d91906101e2565b610084565b60405161005f919061024c565b60405180910390f35b610082600480360381019061007d919061028f565b610159565b005b5f8073ffffffffffffffffffffffffffffffffffffffff165f808481526020019081526020015f205f9054906101000a900473ffffffffffffffffffffffffffffffffffffffff1673ffffffffffffffffffffffffffffffffffffffff1603610122576040517f08c379a000000000000000000000000000000000000000000000000000000000815260040161011990610327565b60405180910390fd5b5f808381526020019081526020015f205f9054906101000a900473ffffffffffffffffffffffffffffffffffffffff169050919050565b805f808481526020019081526020015f205f6101000a81548173ffffffffffffffffffffffffffffffffffffffff021916908373ffffffffffffffffffffffffffffffffffffffff1602179055505050565b5f80fd5b5f819050919050565b6101c1816101af565b81146101cb575f80fd5b50565b5f813590506101dc816101b8565b92915050565b5f602082840312156101f7576101f66101ab565b5b5f610204848285016101ce565b91505092915050565b5f73ffffffffffffffffffffffffffffffffffffffff82169050919050565b5f6102368261020d565b9050919050565b6102468161022c565b82525050565b5f60208201905061025f5f83018461023d565b92915050565b61026e8161022c565b8114610278575f80fd5b50565b5f8135905061028981610265565b92915050565b5f80604083850312156102a5576102a46101ab565b5b5f6102b2858286016101ce565b92505060206102c38582860161027b565b9150509250929050565b5f82825260208201905092915050565b7f48616e646c6572206e6f742072656769737465726564000000000000000000005f82015250565b5f6103116016836102cd565b915061031c826102dd565b602082019050919050565b5f6020820190508181035f83015261033e81610305565b905091905056fea264697066735822122075592cbe5f6b6b9952e37360ea0cc3d0c1e5f697c4260d8c39bf2cf945d2164764736f6c63430008160033",
			"opcodes": "PUSH1 0x80 PUSH1 0x40 MSTORE CALLVALUE DUP1 ISZERO PUSH2 0xF JUMPI PUSH0 DUP1 REVERT JUMPDEST POP PUSH2 0x37B DUP1 PUSH2 0x1D PUSH0 CODECOPY PUSH0 RETURN INVALID PUSH1 0x80 PUSH1 0x40 MSTORE CALLVALUE DUP1 ISZERO PUSH2 0xF JUMPI PUSH0 DUP1 REVERT JUMPDEST POP PUSH1 0x4 CALLDATASIZE LT PUSH2 0x34 JUMPI PUSH0 CALLDATALOAD PUSH1 0xE0 SHR DUP1 PUSH4 0x1ECB8AC6 EQ PUSH2 0x38 JUMPI DUP1 PUSH4 0xA4A945C9 EQ PUSH2 0x68 JUMPI JUMPDEST PUSH0 DUP1 REVERT JUMPDEST PUSH2 0x52 PUSH1 0x4 DUP1 CALLDATASIZE SUB DUP2 ADD SWAP1 PUSH2 0x4D SWAP2 SWAP1 PUSH2 0x1E2 JUMP JUMPDEST PUSH2 0x84 JUMP JUMPDEST PUSH1 0x40 MLOAD PUSH2 0x5F SWAP2 SWAP1 PUSH2 0x24C JUMP JUMPDEST PUSH1 0x40 MLOAD DUP1 SWAP2 SUB SWAP1 RETURN JUMPDEST PUSH2 0x82 PUSH1 0x4 DUP1 CALLDATASIZE SUB DUP2 ADD SWAP1 PUSH2 0x7D SWAP2 SWAP1 PUSH2 0x28F JUMP JUMPDEST PUSH2 0x159 JUMP JUMPDEST STOP JUMPDEST PUSH0 DUP1 PUSH20 0xFFFFFFFFFFFFFFFFFFFFFFFFFFFFFFFFFFFFFFFF AND PUSH0 DUP1 DUP5 DUP2 MSTORE PUSH1 0x20 ADD SWAP1 DUP2 MSTORE PUSH1 0x20 ADD PUSH0 KECCAK256 PUSH0 SWAP1 SLOAD SWAP1 PUSH2 0x100 EXP SWAP1 DIV PUSH20 0xFFFFFFFFFFFFFFFFFFFFFFFFFFFFFFFFFFFFFFFF AND PUSH20 0xFFFFFFFFFFFFFFFFFFFFFFFFFFFFFFFFFFFFFFFF AND SUB PUSH2 0x122 JUMPI PUSH1 0x40 MLOAD PUSH32 0x8C379A000000000000000000000000000000000000000000000000000000000 DUP2 MSTORE PUSH1 0x4 ADD PUSH2 0x119 SWAP1 PUSH2 0x327 JUMP JUMPDEST PUSH1 0x40 MLOAD DUP1 SWAP2 SUB SWAP1 REVERT JUMPDEST PUSH0 DUP1 DUP4 DUP2 MSTORE PUSH1 0x20 ADD SWAP1 DUP2 MSTORE PUSH1 0x20 ADD PUSH0 KECCAK256 PUSH0 SWAP1 SLOAD SWAP1 PUSH2 0x100 EXP SWAP1 DIV PUSH20 0xFFFFFFFFFFFFFFFFFFFFFFFFFFFFFFFFFFFFFFFF AND SWAP1 POP SWAP2 SWAP1 POP JUMP JUMPDEST DUP1 PUSH0 DUP1 DUP5 DUP2 MSTORE PUSH1 0x20 ADD SWAP1 DUP2 MSTORE PUSH1 0x20 ADD PUSH0 KECCAK256 PUSH0 PUSH2 0x100 EXP DUP2 SLOAD DUP2 PUSH20 0xFFFFFFFFFFFFFFFFFFFFFFFFFFFFFFFFFFFFFFFF MUL NOT AND SWAP1 DUP4 PUSH20 0xFFFFFFFFFFFFFFFFFFFFFFFFFFFFFFFFFFFFFFFF AND MUL OR SWAP1 SSTORE POP POP POP JUMP JUMPDEST PUSH0 DUP1 REVERT JUMPDEST PUSH0 DUP2 SWAP1 POP SWAP2 SWAP1 POP JUMP JUMPDEST PUSH2 0x1C1 DUP2 PUSH2 0x1AF JUMP JUMPDEST DUP2 EQ PUSH2 0x1CB JUMPI PUSH0 DUP1 REVERT JUMPDEST POP JUMP JUMPDEST PUSH0 DUP2 CALLDATALOAD SWAP1 POP PUSH2 0x1DC DUP2 PUSH2 0x1B8 JUMP JUMPDEST SWAP3 SWAP2 POP POP JUMP JUMPDEST PUSH0 PUSH1 0x20 DUP3 DUP5 SUB SLT ISZERO PUSH2 0x1F7 JUMPI PUSH2 0x1F6 PUSH2 0x1AB JUMP JUMPDEST JUMPDEST PUSH0 PUSH2 0x204 DUP5 DUP3 DUP6 ADD PUSH2 0x1CE JUMP JUMPDEST SWAP2 POP POP SWAP3 SWAP2 POP POP JUMP JUMPDEST PUSH0 PUSH20 0xFFFFFFFFFFFFFFFFFFFFFFFFFFFFFFFFFFFFFFFF DUP3 AND SWAP1 POP SWAP2 SWAP1 POP JUMP JUMPDEST PUSH0 PUSH2 0x236 DUP3 PUSH2 0x20D JUMP JUMPDEST SWAP1 POP SWAP2 SWAP1 POP JUMP JUMPDEST PUSH2 0x246 DUP2 PUSH2 0x22C JUMP JUMPDEST DUP3 MSTORE POP POP JUMP JUMPDEST PUSH0 PUSH1 0x20 DUP3 ADD SWAP1 POP PUSH2 0x25F PUSH0 DUP4 ADD DUP5 PUSH2 0x23D JUMP JUMPDEST SWAP3 SWAP2 POP POP JUMP JUMPDEST PUSH2 0x26E DUP2 PUSH2 0x22C JUMP JUMPDEST DUP2 EQ PUSH2 0x278 JUMPI PUSH0 DUP1 REVERT JUMPDEST POP JUMP JUMPDEST PUSH0 DUP2 CALLDATALOAD SWAP1 POP PUSH2 0x289 DUP2 PUSH2 0x265 JUMP JUMPDEST SWAP3 SWAP2 POP POP JUMP JUMPDEST PUSH0 DUP1 PUSH1 0x40 DUP4 DUP6 SUB SLT ISZERO PUSH2 0x2A5 JUMPI PUSH2 0x2A4 PUSH2 0x1AB JUMP JUMPDEST JUMPDEST PUSH0 PUSH2 0x2B2 DUP6 DUP3 DUP7 ADD PUSH2 0x1CE JUMP JUMPDEST SWAP3 POP POP PUSH1 0x20 PUSH2 0x2C3 DUP6 DUP3 DUP7 ADD PUSH2 0x27B JUMP JUMPDEST SWAP2 POP POP SWAP3 POP SWAP3 SWAP1 POP JUMP JUMPDEST PUSH0 DUP3 DUP3 MSTORE PUSH1 0x20 DUP3 ADD SWAP1 POP SWAP3 SWAP2 POP POP JUMP JUMPDEST PUSH32 0x48616E646C6572206E6F74207265676973746572656400000000000000000000 PUSH0 DUP3 ADD MSTORE POP JUMP JUMPDEST PUSH0 PUSH2 0x311 PUSH1 0x16 DUP4 PUSH2 0x2CD JUMP JUMPDEST SWAP2 POP PUSH2 0x31C DUP3 PUSH2 0x2DD JUMP JUMPDEST PUSH1 0x20 DUP3 ADD SWAP1 POP SWAP2 SWAP1 POP JUMP JUMPDEST PUSH0 PUSH1 0x20 DUP3 ADD SWAP1 POP DUP2 DUP2 SUB PUSH0 DUP4 ADD MSTORE PUSH2 0x33E DUP2 PUSH2 0x305 JUMP JUMPDEST SWAP1 POP SWAP2 SWAP1 POP JUMP INVALID LOG2 PUSH5 0x6970667358 0x22 SLT KECCAK256 PUSH22 0x592CBE5F6B6B9952E37360EA0CC3D0C1E5F697C4260D DUP13 CODECOPY 0xBF 0x2C 0xF9 GASLIMIT 0xD2 AND SELFBALANCE PUSH5 0x736F6C6343 STOP ADDMOD AND STOP CALLER "
		},
		"gasEstimates": {
			"creation": {
				"codeDepositCost": "178200",
				"executionCost": "218",
				"totalCost": "178418"
			},
			"external": {
				"getHandler(bytes32)": "5076",
				"registerHandler(bytes32,address)": "24962"
			}
		},
		"methodIdentifiers": {
			"getHandler(bytes32)": "1ecb8ac6",
			"registerHandler(bytes32,address)": "a4a945c9"
		}
	},
	"abi": [
		{
			"inputs": [
				{
					"internalType": "bytes32",
					"name": "transactionType",
					"type": "bytes32"
				}
			],
			"name": "getHandler",
			"outputs": [
				{
					"internalType": "address",
					"name": "",
					"type": "address"
				}
			],
			"stateMutability": "view",
			"type": "function"
		},
		{
			"inputs": [
				{
					"internalType": "bytes32",
					"name": "transactionType",
					"type": "bytes32"
				},
				{
					"internalType": "address",
					"name": "handler",
					"type": "address"
				}
			],
			"name": "registerHandler",
			"outputs": [],
			"stateMutability": "nonpayable",
			"type": "function"
		}
	]
}