{
  "_format": "hh-sol-artifact-1",
  "contractName": "RouterContract",
  "sourceName": "src/services/blockchain/contracts/router.sol",
  "abi": [
    {
      "inputs": [
        {
          "internalType": "address",
          "name": "_transactionContract",
          "type": "address"
        },
        {
          "internalType": "address",
          "name": "_timeSpanReport",
          "type": "address"
        },
        {
          "internalType": "address",
          "name": "_reports",
          "type": "address"
        }
      ],
      "stateMutability": "nonpayable",
      "type": "constructor"
    },
    {
      "inputs": [
        {
          "internalType": "bytes32[]",
          "name": "data",
          "type": "bytes32[]"
        }
      ],
      "name": "addTransactionRecord",
      "outputs": [],
      "stateMutability": "nonpayable",
      "type": "function"
    },
    {
      "inputs": [
        {
          "internalType": "int256",
          "name": "startTime",
          "type": "int256"
        },
        {
          "internalType": "int256",
          "name": "endTime",
          "type": "int256"
        },
        {
          "internalType": "bytes32",
          "name": "reportID",
          "type": "bytes32"
        }
      ],
      "name": "generateReport",
      "outputs": [],
      "stateMutability": "nonpayable",
      "type": "function"
    },
    {
      "inputs": [],
      "name": "getLatestTransactionTime",
      "outputs": [
        {
          "internalType": "int256",
          "name": "",
          "type": "int256"
        }
      ],
      "stateMutability": "view",
      "type": "function"
    },
    {
      "inputs": [
        {
          "internalType": "string",
          "name": "reportID",
          "type": "string"
        },
        {
          "internalType": "string",
          "name": "reportType",
          "type": "string"
        },
        {
          "internalType": "string",
          "name": "reportColumn",
          "type": "string"
        }
      ],
      "name": "getValue",
      "outputs": [
        {
          "internalType": "int256",
          "name": "",
          "type": "int256"
        }
      ],
      "stateMutability": "view",
      "type": "function"
    },
    {
      "inputs": [
        {
          "internalType": "bytes32",
          "name": "transactionType",
          "type": "bytes32"
        },
        {
          "internalType": "address",
          "name": "handlerAddress",
          "type": "address"
        }
      ],
      "name": "registerHandler",
      "outputs": [],
      "stateMutability": "nonpayable",
      "type": "function"
    },
    {
      "inputs": [
        {
          "internalType": "bytes32",
          "name": "_SP002",
          "type": "bytes32"
        },
        {
          "internalType": "bytes32",
          "name": "_SP003",
          "type": "bytes32"
        },
        {
          "internalType": "bytes32",
          "name": "_SP004",
          "type": "bytes32"
        },
        {
          "internalType": "bytes32",
          "name": "_reportID",
          "type": "bytes32"
        }
      ],
      "name": "setRate",
      "outputs": [],
      "stateMutability": "nonpayable",
      "type": "function"
    }
  ],
  "bytecode": "0x60806040523480156200001157600080fd5b506040516200110238038062001102833981810160405281019062000037919062000119565b826000806101000a81548173ffffffffffffffffffffffffffffffffffffffff021916908373ffffffffffffffffffffffffffffffffffffffff16021790555081600160006101000a81548173ffffffffffffffffffffffffffffffffffffffff021916908373ffffffffffffffffffffffffffffffffffffffff16021790555080600260006101000a81548173ffffffffffffffffffffffffffffffffffffffff021916908373ffffffffffffffffffffffffffffffffffffffff160217905550505050620001bd565b6000815190506200011381620001a3565b92915050565b6000806000606084860312156200012f57600080fd5b60006200013f8682870162000102565b9350506020620001528682870162000102565b9250506040620001658682870162000102565b9150509250925092565b60006200017c8262000183565b9050919050565b600073ffffffffffffffffffffffffffffffffffffffff82169050919050565b620001ae816200016f565b8114620001ba57600080fd5b50565b610f3580620001cd6000396000f3fe608060405234801561001057600080fd5b50600436106100625760003560e01c80633d94e9b61461006757806361c6e151146100835780638a04ddba1461009f578063a4a945c9146100bd578063aba5f544146100d9578063e1c1a5e414610109575b600080fd5b610081600480360381019061007c9190610877565b610125565b005b61009d600480360381019061009891906108f4565b6101b3565b005b6100a761024c565b6040516100b49190610c22565b60405180910390f35b6100d760048036038101906100d291906108b8565b6102f2565b005b6100f360048036038101906100ee91906109cf565b610389565b6040516101009190610c22565b60405180910390f35b610123600480360381019061011e9190610980565b610443565b005b60008054906101000a900473ffffffffffffffffffffffffffffffffffffffff1673ffffffffffffffffffffffffffffffffffffffff1663c4af6548826040518263ffffffff1660e01b815260040161017e9190610b92565b600060405180830381600087803b15801561019857600080fd5b505af11580156101ac573d6000803e3d6000fd5b5050505050565b600160009054906101000a900473ffffffffffffffffffffffffffffffffffffffff1673ffffffffffffffffffffffffffffffffffffffff166361c6e151858585856040518563ffffffff1660e01b81526004016102149493929190610bb4565b600060405180830381600087803b15801561022e57600080fd5b505af1158015610242573d6000803e3d6000fd5b5050505050505050565b60008060009054906101000a900473ffffffffffffffffffffffffffffffffffffffff1673ffffffffffffffffffffffffffffffffffffffff16638a04ddba6040518163ffffffff1660e01b815260040160206040518083038186803b1580156102b557600080fd5b505afa1580156102c9573d6000803e3d6000fd5b505050506040513d601f19601f820116820180604052508101906102ed9190610957565b905090565b600081905060008054906101000a900473ffffffffffffffffffffffffffffffffffffffff1673ffffffffffffffffffffffffffffffffffffffff1663a3edf3e184836040518363ffffffff1660e01b8152600401610352929190610bf9565b600060405180830381600087803b15801561036c57600080fd5b505af1158015610380573d6000803e3d6000fd5b50505050505050565b6000600260009054906101000a900473ffffffffffffffffffffffffffffffffffffffff1673ffffffffffffffffffffffffffffffffffffffff1663aba5f5448585856040518463ffffffff1660e01b81526004016103ea93929190610c74565b60206040518083038186803b15801561040257600080fd5b505afa158015610416573d6000803e3d6000fd5b505050506040513d601f19601f8201168201806040525081019061043a9190610957565b90509392505050565b600160009054906101000a900473ffffffffffffffffffffffffffffffffffffffff1673ffffffffffffffffffffffffffffffffffffffff16635a14fa8b8484846040518463ffffffff1660e01b81526004016104a293929190610c3d565b600060405180830381600087803b1580156104bc57600080fd5b505af11580156104d0573d6000803e3d6000fd5b505050506040513d6000823e3d601f19601f820116820180604052508101906104f99190610a66565b50505050565b600061051261050d84610cf1565b610cc0565b9050808382526020820190508285602086028201111561053157600080fd5b60005b8581101561056157816105478882610729565b845260208401935060208301925050600181019050610534565b5050509392505050565b600061057e61057984610cf1565b610cc0565b9050808382526020820190508285602086028201111561059d57600080fd5b60005b858110156105cd57816105b3888261073e565b8452602084019350602083019250506001810190506105a0565b5050509392505050565b60006105ea6105e584610d1d565b610cc0565b9050808382526020820190508285602086028201111561060957600080fd5b60005b85811015610639578161061f8882610768565b84526020840193506020830192505060018101905061060c565b5050509392505050565b600061065661065184610d49565b610cc0565b90508281526020810184848401111561066e57600080fd5b610679848285610e38565b509392505050565b60008135905061069081610eba565b92915050565b6000815190506106a581610eba565b92915050565b600082601f8301126106bc57600080fd5b81356106cc8482602086016104ff565b91505092915050565b600082601f8301126106e657600080fd5b81516106f684826020860161056b565b91505092915050565b600082601f83011261071057600080fd5b81516107208482602086016105d7565b91505092915050565b60008135905061073881610ed1565b92915050565b60008151905061074d81610ed1565b92915050565b60008135905061076281610ee8565b92915050565b60008151905061077781610ee8565b92915050565b600082601f83011261078e57600080fd5b813561079e848260208601610643565b91505092915050565b600060a082840312156107b957600080fd5b6107c360a0610cc0565b9050600082015167ffffffffffffffff8111156107df57600080fd5b6107eb848285016106d5565b600083015250602082015167ffffffffffffffff81111561080b57600080fd5b610817848285016106d5565b602083015250604082015167ffffffffffffffff81111561083757600080fd5b610843848285016106ff565b604083015250606061085784828501610696565b606083015250608061086b8482850161073e565b60808301525092915050565b60006020828403121561088957600080fd5b600082013567ffffffffffffffff8111156108a357600080fd5b6108af848285016106ab565b91505092915050565b600080604083850312156108cb57600080fd5b60006108d985828601610729565b92505060206108ea85828601610681565b9150509250929050565b6000806000806080858703121561090a57600080fd5b600061091887828801610729565b945050602061092987828801610729565b935050604061093a87828801610729565b925050606061094b87828801610729565b91505092959194509250565b60006020828403121561096957600080fd5b600061097784828501610768565b91505092915050565b60008060006060848603121561099557600080fd5b60006109a386828701610753565b93505060206109b486828701610753565b92505060406109c586828701610729565b9150509250925092565b6000806000606084860312156109e457600080fd5b600084013567ffffffffffffffff8111156109fe57600080fd5b610a0a8682870161077d565b935050602084013567ffffffffffffffff811115610a2757600080fd5b610a338682870161077d565b925050604084013567ffffffffffffffff811115610a5057600080fd5b610a5c8682870161077d565b9150509250925092565b600060208284031215610a7857600080fd5b600082015167ffffffffffffffff811115610a9257600080fd5b610a9e848285016107a7565b91505092915050565b6000610ab38383610b1d565b60208301905092915050565b6000610aca82610d89565b610ad48185610dac565b9350610adf83610d79565b8060005b83811015610b10578151610af78882610aa7565b9750610b0283610d9f565b925050600181019050610ae3565b5085935050505092915050565b610b2681610de0565b82525050565b610b3581610de0565b82525050565b610b4481610e14565b82525050565b610b5381610dea565b82525050565b6000610b6482610d94565b610b6e8185610dbd565b9350610b7e818560208601610e47565b610b8781610ea9565b840191505092915050565b60006020820190508181036000830152610bac8184610abf565b905092915050565b6000608082019050610bc96000830187610b2c565b610bd66020830186610b2c565b610be36040830185610b2c565b610bf06060830184610b2c565b95945050505050565b6000604082019050610c0e6000830185610b2c565b610c1b6020830184610b3b565b9392505050565b6000602082019050610c376000830184610b4a565b92915050565b6000606082019050610c526000830186610b4a565b610c5f6020830185610b4a565b610c6c6040830184610b2c565b949350505050565b60006060820190508181036000830152610c8e8186610b59565b90508181036020830152610ca28185610b59565b90508181036040830152610cb68184610b59565b9050949350505050565b6000604051905081810181811067ffffffffffffffff82111715610ce757610ce6610e7a565b5b8060405250919050565b600067ffffffffffffffff821115610d0c57610d0b610e7a565b5b602082029050602081019050919050565b600067ffffffffffffffff821115610d3857610d37610e7a565b5b602082029050602081019050919050565b600067ffffffffffffffff821115610d6457610d63610e7a565b5b601f19601f8301169050602081019050919050565b6000819050602082019050919050565b600081519050919050565b600081519050919050565b6000602082019050919050565b600082825260208201905092915050565b600082825260208201905092915050565b6000610dd982610df4565b9050919050565b6000819050919050565b6000819050919050565b600073ffffffffffffffffffffffffffffffffffffffff82169050919050565b6000610e1f82610e26565b9050919050565b6000610e3182610df4565b9050919050565b82818337600083830152505050565b60005b83811015610e65578082015181840152602081019050610e4a565b83811115610e74576000848401525b50505050565b7f4e487b7100000000000000000000000000000000000000000000000000000000600052604160045260246000fd5b6000601f19601f8301169050919050565b610ec381610dce565b8114610ece57600080fd5b50565b610eda81610de0565b8114610ee557600080fd5b50565b610ef181610dea565b8114610efc57600080fd5b5056fea2646970667358221220ef26a98a58ea3fa4dc1e549c7f848f328f32cdd342cbe0e56bb2d571b0b8de5664736f6c63430008000033",
  "linkReferences": {},
  "deployedLinkReferences": {}
}