{
  "_format": "hh-sol-artifact-1",
  "contractName": "RouterContract",
  "sourceName": "src/services/blockchain/contracts/router.sol",
  "abi": [
    {
      "inputs": [
        {
          "internalType": "address",
          "name": "_transactionContract",
          "type": "address"
        },
        {
          "internalType": "address",
          "name": "_timeSpanReport",
          "type": "address"
        }
      ],
      "stateMutability": "nonpayable",
      "type": "constructor"
    },
    {
      "inputs": [
        {
          "internalType": "bytes32[]",
          "name": "data",
          "type": "bytes32[]"
        }
      ],
      "name": "addTransactionRecord",
      "outputs": [],
      "stateMutability": "nonpayable",
      "type": "function"
    },
    {
      "inputs": [
        {
          "internalType": "int256",
          "name": "startTime",
          "type": "int256"
        },
        {
          "internalType": "int256",
          "name": "endTime",
          "type": "int256"
        },
        {
          "internalType": "bytes32",
          "name": "reportID",
          "type": "bytes32"
        }
      ],
      "name": "generateReport",
      "outputs": [],
      "stateMutability": "nonpayable",
      "type": "function"
    },
    {
      "inputs": [
        {
          "internalType": "string",
          "name": "_str1",
          "type": "string"
        },
        {
          "internalType": "string",
          "name": "_str2",
          "type": "string"
        },
        {
          "internalType": "int256",
          "name": "_int1",
          "type": "int256"
        },
        {
          "internalType": "int256",
          "name": "_int2",
          "type": "int256"
        },
        {
          "internalType": "int256",
          "name": "_int3",
          "type": "int256"
        },
        {
          "internalType": "int256",
          "name": "_int4",
          "type": "int256"
        }
      ],
      "name": "inputWithDecimal",
      "outputs": [],
      "stateMutability": "nonpayable",
      "type": "function"
    },
    {
      "inputs": [
        {
          "internalType": "bytes32",
          "name": "transactionType",
          "type": "bytes32"
        },
        {
          "internalType": "address",
          "name": "handlerAddress",
          "type": "address"
        }
      ],
      "name": "registerHandler",
      "outputs": [],
      "stateMutability": "nonpayable",
      "type": "function"
    },
    {
      "inputs": [
        {
          "internalType": "bytes32",
          "name": "_SP002",
          "type": "bytes32"
        },
        {
          "internalType": "bytes32",
          "name": "_SP003",
          "type": "bytes32"
        },
        {
          "internalType": "bytes32",
          "name": "_SP004",
          "type": "bytes32"
        },
        {
          "internalType": "bytes32",
          "name": "_reportID",
          "type": "bytes32"
        }
      ],
      "name": "setRate",
      "outputs": [],
      "stateMutability": "nonpayable",
      "type": "function"
    },
    {
      "inputs": [
        {
          "internalType": "int256",
          "name": "_SP002",
          "type": "int256"
        },
        {
          "internalType": "int256",
          "name": "_SP003",
          "type": "int256"
        },
        {
          "internalType": "int256",
          "name": "_SP004",
          "type": "int256"
        }
      ],
      "name": "setRateDecimal",
      "outputs": [],
      "stateMutability": "nonpayable",
      "type": "function"
    }
  ],
  "bytecode": "0x60806040523480156200001157600080fd5b5060405162001191380380620011918339818101604052810190620000379190620000d7565b816000806101000a81548173ffffffffffffffffffffffffffffffffffffffff021916908373ffffffffffffffffffffffffffffffffffffffff16021790555080600160006101000a81548173ffffffffffffffffffffffffffffffffffffffff021916908373ffffffffffffffffffffffffffffffffffffffff160217905550505062000166565b600081519050620000d1816200014c565b92915050565b60008060408385031215620000eb57600080fd5b6000620000fb85828601620000c0565b92505060206200010e85828601620000c0565b9150509250929050565b600062000125826200012c565b9050919050565b600073ffffffffffffffffffffffffffffffffffffffff82169050919050565b620001578162000118565b81146200016357600080fd5b50565b61101b80620001766000396000f3fe608060405234801561001057600080fd5b50600436106100625760003560e01c80633d94e9b61461006757806361c6e1511461008357806399eb0dbc1461009f578063a4a945c9146100bb578063df4ecf42146100d7578063e1c1a5e4146100f3575b600080fd5b610081600480360381019061007c91906108cc565b61010f565b005b61009d6004803603810190610098919061098a565b61019d565b005b6100b960048036038101906100b49190610a3c565b610236565b005b6100d560048036038101906100d0919061094e565b610314565b005b6100f160048036038101906100ec9190610a8b565b6103ab565b005b61010d600480360381019061010891906109ed565b61046e565b005b60008054906101000a900473ffffffffffffffffffffffffffffffffffffffff1673ffffffffffffffffffffffffffffffffffffffff1663c4af6548826040518263ffffffff1660e01b81526004016101689190610c70565b600060405180830381600087803b15801561018257600080fd5b505af1158015610196573d6000803e3d6000fd5b5050505050565b600160009054906101000a900473ffffffffffffffffffffffffffffffffffffffff1673ffffffffffffffffffffffffffffffffffffffff166361c6e151858585856040518563ffffffff1660e01b81526004016101fe9493929190610c92565b600060405180830381600087803b15801561021857600080fd5b505af115801561022c573d6000803e3d6000fd5b5050505050505050565b600160009054906101000a900473ffffffffffffffffffffffffffffffffffffffff1673ffffffffffffffffffffffffffffffffffffffff166361c6e1518460001b8460001b8460001b6102be6040518060400160405280600c81526020017f66697273745f7265706f7274000000000000000000000000000000000000000081525061052a565b6040518563ffffffff1660e01b81526004016102dd9493929190610c92565b600060405180830381600087803b1580156102f757600080fd5b505af115801561030b573d6000803e3d6000fd5b50505050505050565b600081905060008054906101000a900473ffffffffffffffffffffffffffffffffffffffff1673ffffffffffffffffffffffffffffffffffffffff1663a3edf3e184836040518363ffffffff1660e01b8152600401610374929190610cd7565b600060405180830381600087803b15801561038e57600080fd5b505af11580156103a2573d6000803e3d6000fd5b50505050505050565b60008054906101000a900473ffffffffffffffffffffffffffffffffffffffff1673ffffffffffffffffffffffffffffffffffffffff1663df4ecf428787878787876040518763ffffffff1660e01b815260040161040e96959493929190610d37565b600060405180830381600087803b15801561042857600080fd5b505af115801561043c573d6000803e3d6000fd5b505050506040513d6000823e3d601f19601f82011682018060405250810190610465919061090d565b50505050505050565b600160009054906101000a900473ffffffffffffffffffffffffffffffffffffffff1673ffffffffffffffffffffffffffffffffffffffff16635a14fa8b8484846040518463ffffffff1660e01b81526004016104cd93929190610d00565b600060405180830381600087803b1580156104e757600080fd5b505af11580156104fb573d6000803e3d6000fd5b505050506040513d6000823e3d601f19601f820116820180604052508101906105249190610b44565b50505050565b600080829050600081511415610546576000801b91505061054f565b60208301519150505b919050565b600061056761056284610dd7565b610da6565b9050808382526020820190508285602086028201111561058657600080fd5b60005b858110156105b6578161059c888261077e565b845260208401935060208301925050600181019050610589565b5050509392505050565b60006105d36105ce84610dd7565b610da6565b905080838252602082019050828560208602820111156105f257600080fd5b60005b8581101561062257816106088882610793565b8452602084019350602083019250506001810190506105f5565b5050509392505050565b600061063f61063a84610e03565b610da6565b9050808382526020820190508285602086028201111561065e57600080fd5b60005b8581101561068e578161067488826107bd565b845260208401935060208301925050600181019050610661565b5050509392505050565b60006106ab6106a684610e2f565b610da6565b9050828152602081018484840111156106c357600080fd5b6106ce848285610f1e565b509392505050565b6000813590506106e581610fa0565b92915050565b6000815190506106fa81610fa0565b92915050565b600082601f83011261071157600080fd5b8135610721848260208601610554565b91505092915050565b600082601f83011261073b57600080fd5b815161074b8482602086016105c0565b91505092915050565b600082601f83011261076557600080fd5b815161077584826020860161062c565b91505092915050565b60008135905061078d81610fb7565b92915050565b6000815190506107a281610fb7565b92915050565b6000813590506107b781610fce565b92915050565b6000815190506107cc81610fce565b92915050565b600082601f8301126107e357600080fd5b81356107f3848260208601610698565b91505092915050565b600060a0828403121561080e57600080fd5b61081860a0610da6565b9050600082015167ffffffffffffffff81111561083457600080fd5b6108408482850161072a565b600083015250602082015167ffffffffffffffff81111561086057600080fd5b61086c8482850161072a565b602083015250604082015167ffffffffffffffff81111561088c57600080fd5b61089884828501610754565b60408301525060606108ac848285016106eb565b60608301525060806108c084828501610793565b60808301525092915050565b6000602082840312156108de57600080fd5b600082013567ffffffffffffffff8111156108f857600080fd5b61090484828501610700565b91505092915050565b60006020828403121561091f57600080fd5b600082015167ffffffffffffffff81111561093957600080fd5b6109458482850161072a565b91505092915050565b6000806040838503121561096157600080fd5b600061096f8582860161077e565b9250506020610980858286016106d6565b9150509250929050565b600080600080608085870312156109a057600080fd5b60006109ae8782880161077e565b94505060206109bf8782880161077e565b93505060406109d08782880161077e565b92505060606109e18782880161077e565b91505092959194509250565b600080600060608486031215610a0257600080fd5b6000610a10868287016107a8565b9350506020610a21868287016107a8565b9250506040610a328682870161077e565b9150509250925092565b600080600060608486031215610a5157600080fd5b6000610a5f868287016107a8565b9350506020610a70868287016107a8565b9250506040610a81868287016107a8565b9150509250925092565b60008060008060008060c08789031215610aa457600080fd5b600087013567ffffffffffffffff811115610abe57600080fd5b610aca89828a016107d2565b965050602087013567ffffffffffffffff811115610ae757600080fd5b610af389828a016107d2565b9550506040610b0489828a016107a8565b9450506060610b1589828a016107a8565b9350506080610b2689828a016107a8565b92505060a0610b3789828a016107a8565b9150509295509295509295565b600060208284031215610b5657600080fd5b600082015167ffffffffffffffff811115610b7057600080fd5b610b7c848285016107fc565b91505092915050565b6000610b918383610bfb565b60208301905092915050565b6000610ba882610e6f565b610bb28185610e92565b9350610bbd83610e5f565b8060005b83811015610bee578151610bd58882610b85565b9750610be083610e85565b925050600181019050610bc1565b5085935050505092915050565b610c0481610ec6565b82525050565b610c1381610ec6565b82525050565b610c2281610efa565b82525050565b610c3181610ed0565b82525050565b6000610c4282610e7a565b610c4c8185610ea3565b9350610c5c818560208601610f2d565b610c6581610f8f565b840191505092915050565b60006020820190508181036000830152610c8a8184610b9d565b905092915050565b6000608082019050610ca76000830187610c0a565b610cb46020830186610c0a565b610cc16040830185610c0a565b610cce6060830184610c0a565b95945050505050565b6000604082019050610cec6000830185610c0a565b610cf96020830184610c19565b9392505050565b6000606082019050610d156000830186610c28565b610d226020830185610c28565b610d2f6040830184610c0a565b949350505050565b600060c0820190508181036000830152610d518189610c37565b90508181036020830152610d658188610c37565b9050610d746040830187610c28565b610d816060830186610c28565b610d8e6080830185610c28565b610d9b60a0830184610c28565b979650505050505050565b6000604051905081810181811067ffffffffffffffff82111715610dcd57610dcc610f60565b5b8060405250919050565b600067ffffffffffffffff821115610df257610df1610f60565b5b602082029050602081019050919050565b600067ffffffffffffffff821115610e1e57610e1d610f60565b5b602082029050602081019050919050565b600067ffffffffffffffff821115610e4a57610e49610f60565b5b601f19601f8301169050602081019050919050565b6000819050602082019050919050565b600081519050919050565b600081519050919050565b6000602082019050919050565b600082825260208201905092915050565b600082825260208201905092915050565b6000610ebf82610eda565b9050919050565b6000819050919050565b6000819050919050565b600073ffffffffffffffffffffffffffffffffffffffff82169050919050565b6000610f0582610f0c565b9050919050565b6000610f1782610eda565b9050919050565b82818337600083830152505050565b60005b83811015610f4b578082015181840152602081019050610f30565b83811115610f5a576000848401525b50505050565b7f4e487b7100000000000000000000000000000000000000000000000000000000600052604160045260246000fd5b6000601f19601f8301169050919050565b610fa981610eb4565b8114610fb457600080fd5b50565b610fc081610ec6565b8114610fcb57600080fd5b50565b610fd781610ed0565b8114610fe257600080fd5b5056fea26469706673582212204545dec2b27d55979f765ad93fa8edbb6e074f3ae56c38c8c0a322edb282c2ad64736f6c63430008000033",
  "linkReferences": {},
  "deployedLinkReferences": {}
}