{
  "_format": "hh-sol-artifact-1",
  "contractName": "TransactionContract",
  "sourceName": "src/services/blockchain/contracts/transactionContract.sol",
  "abi": [
    {
      "inputs": [
        {
          "internalType": "address",
          "name": "_parser",
          "type": "address"
        }
      ],
      "stateMutability": "nonpayable",
      "type": "constructor"
    },
    {
      "anonymous": false,
      "inputs": [
        {
          "indexed": false,
          "internalType": "bytes32",
          "name": "transactionType",
          "type": "bytes32"
        }
      ],
      "name": "transactionAdded",
      "type": "event"
    },
    {
      "inputs": [],
      "name": "Iparser",
      "outputs": [
        {
          "internalType": "contract IParser",
          "name": "",
          "type": "address"
        }
      ],
      "stateMutability": "view",
      "type": "function"
    },
    {
      "inputs": [
        {
          "internalType": "bytes32",
          "name": "eventId",
          "type": "bytes32"
        },
        {
          "internalType": "bytes32",
          "name": "transactionType",
          "type": "bytes32"
        },
        {
          "internalType": "address",
          "name": "recorder",
          "type": "address"
        },
        {
          "internalType": "bytes32[]",
          "name": "paramKeys",
          "type": "bytes32[]"
        },
        {
          "internalType": "int256[]",
          "name": "paramValues",
          "type": "int256[]"
        }
      ],
      "name": "addProcessedTransaction",
      "outputs": [],
      "stateMutability": "nonpayable",
      "type": "function"
    },
    {
      "inputs": [
        {
          "internalType": "bytes32[]",
          "name": "data",
          "type": "bytes32[]"
        }
      ],
      "name": "addRecord",
      "outputs": [],
      "stateMutability": "nonpayable",
      "type": "function"
    },
    {
      "inputs": [
        {
          "internalType": "bytes32",
          "name": "transactionType",
          "type": "bytes32"
        }
      ],
      "name": "getHandler",
      "outputs": [
        {
          "internalType": "contract ITransactionHandler",
          "name": "",
          "type": "address"
        }
      ],
      "stateMutability": "view",
      "type": "function"
    },
    {
      "inputs": [],
      "name": "getLatestTransactionTime",
      "outputs": [
        {
          "internalType": "int256",
          "name": "",
          "type": "int256"
        }
      ],
      "stateMutability": "view",
      "type": "function"
    },
    {
      "inputs": [
        {
          "internalType": "bytes32",
          "name": "_eventId",
          "type": "bytes32"
        }
      ],
      "name": "getTransaction",
      "outputs": [
        {
          "internalType": "bytes32",
          "name": "",
          "type": "bytes32"
        },
        {
          "internalType": "bytes32",
          "name": "",
          "type": "bytes32"
        },
        {
          "internalType": "address",
          "name": "",
          "type": "address"
        }
      ],
      "stateMutability": "view",
      "type": "function"
    },
    {
      "inputs": [
        {
          "internalType": "uint256",
          "name": "index",
          "type": "uint256"
        }
      ],
      "name": "getTransactionEventId",
      "outputs": [
        {
          "internalType": "bytes32",
          "name": "",
          "type": "bytes32"
        }
      ],
      "stateMutability": "view",
      "type": "function"
    },
    {
      "inputs": [
        {
          "internalType": "uint256",
          "name": "index",
          "type": "uint256"
        },
        {
          "internalType": "bytes32",
          "name": "paramKey",
          "type": "bytes32"
        }
      ],
      "name": "getTransactionParam",
      "outputs": [
        {
          "internalType": "int256",
          "name": "",
          "type": "int256"
        }
      ],
      "stateMutability": "view",
      "type": "function"
    },
    {
      "inputs": [
        {
          "internalType": "bytes32",
          "name": "_eventId",
          "type": "bytes32"
        },
        {
          "internalType": "bytes32",
          "name": "_paramKey",
          "type": "bytes32"
        }
      ],
      "name": "getTransactionParamByEventId",
      "outputs": [
        {
          "internalType": "int256",
          "name": "",
          "type": "int256"
        }
      ],
      "stateMutability": "view",
      "type": "function"
    },
    {
      "inputs": [
        {
          "internalType": "uint256",
          "name": "index",
          "type": "uint256"
        }
      ],
      "name": "getTransactionTime",
      "outputs": [
        {
          "internalType": "int256",
          "name": "",
          "type": "int256"
        }
      ],
      "stateMutability": "view",
      "type": "function"
    },
    {
      "inputs": [
        {
          "internalType": "uint256",
          "name": "index",
          "type": "uint256"
        }
      ],
      "name": "getTransactionType",
      "outputs": [
        {
          "internalType": "bytes32",
          "name": "",
          "type": "bytes32"
        }
      ],
      "stateMutability": "view",
      "type": "function"
    },
    {
      "inputs": [],
      "name": "getTransactionsCount",
      "outputs": [
        {
          "internalType": "uint256",
          "name": "",
          "type": "uint256"
        }
      ],
      "stateMutability": "view",
      "type": "function"
    },
    {
      "inputs": [
        {
          "internalType": "bytes32",
          "name": "transactionType",
          "type": "bytes32"
        },
        {
          "internalType": "contract ITransactionHandler",
          "name": "handler",
          "type": "address"
        }
      ],
      "name": "registerHanlder",
      "outputs": [],
      "stateMutability": "nonpayable",
      "type": "function"
    },
    {
      "inputs": [
        {
          "internalType": "uint256",
          "name": "",
          "type": "uint256"
        }
      ],
      "name": "transactions",
      "outputs": [
        {
          "internalType": "bytes32",
          "name": "eventId",
          "type": "bytes32"
        },
        {
          "internalType": "bytes32",
          "name": "transactionType",
          "type": "bytes32"
        },
        {
          "internalType": "address",
          "name": "recorder",
          "type": "address"
        }
      ],
      "stateMutability": "view",
      "type": "function"
    }
  ],
  "bytecode": "0x60806040523480156200001157600080fd5b5060405162001db038038062001db0833981810160405281019062000037919062000095565b806000806101000a81548173ffffffffffffffffffffffffffffffffffffffff021916908373ffffffffffffffffffffffffffffffffffffffff160217905550506200010f565b6000815190506200008f81620000f5565b92915050565b600060208284031215620000a857600080fd5b6000620000b8848285016200007e565b91505092915050565b6000620000ce82620000d5565b9050919050565b600073ffffffffffffffffffffffffffffffffffffffff82169050919050565b6200010081620000c1565b81146200010c57600080fd5b50565b611c91806200011f6000396000f3fe608060405234801561001057600080fd5b50600436106100ea5760003560e01c80639b4e34201161008c578063e064d19911610066578063e064d19914610287578063e09576f0146102a5578063ed40bbd5146102d5578063fadc6bc6146102f1576100ea565b80639b4e34201461021f578063a3edf3e11461024f578063c4af65481461026b576100ea565b80634aae13ca116100c85780634aae13ca1461017f578063578cb8f9146101b15780638a04ddba146101cf5780639ace38c2146101ed576100ea565b80631afc42b6146100ef5780631ecb8ac61461011f578063419e41381461014f575b600080fd5b61010960048036038101906101049190611309565b610321565b604051610116919061181a565b60405180910390f35b6101396004803603810190610134919061116f565b610388565b60405161014691906117ff565b60405180910390f35b610169600480360381019061016491906111c1565b6103c5565b604051610176919061181a565b60405180910390f35b6101996004803603810190610194919061116f565b6103f2565b6040516101a8939291906117ad565b60405180910390f35b6101b9610440565b6040516101c69190611975565b60405180910390f35b6101d761044d565b6040516101e4919061181a565b60405180910390f35b610207600480360381019061020291906112e0565b6105b4565b604051610216939291906117ad565b60405180910390f35b610239600480360381019061023491906112e0565b61060e565b6040516102469190611792565b60405180910390f35b610269600480360381019061026491906112a4565b610663565b005b6102856004803603810190610280919061112e565b6107a3565b005b61028f610ad9565b60405161029c91906117e4565b60405180910390f35b6102bf60048036038101906102ba91906112e0565b610afd565b6040516102cc9190611792565b60405180910390f35b6102ef60048036038101906102ea91906111fd565b610b52565b005b61030b600480360381019061030691906112e0565b610d58565b604051610318919061181a565b60405180910390f35b60006001838154811061035d577f4e487b7100000000000000000000000000000000000000000000000000000000600052603260045260246000fd5b9060005260206000209060040201600301600083815260200190815260200160002054905092915050565b60006002600083815260200190815260200160002060009054906101000a900473ffffffffffffffffffffffffffffffffffffffff169050919050565b6000806103d184610e65565b90508060030160008481526020019081526020016000205491505092915050565b60008060008061040185610e65565b9050806001015481600001548260020160009054906101000a900473ffffffffffffffffffffffffffffffffffffffff16935093509350509193909250565b6000600180549050905090565b60008060018054905011610496576040517f08c379a000000000000000000000000000000000000000000000000000000000815260040161048d90611895565b60405180910390fd5b600060018080805490506104aa9190611a63565b815481106104e1577f4e487b7100000000000000000000000000000000000000000000000000000000600052603260045260246000fd5b906000526020600020906004020190508060030160008060009054906101000a900473ffffffffffffffffffffffffffffffffffffffff1673ffffffffffffffffffffffffffffffffffffffff1663cfb519286040518163ffffffff1660e01b815260040161054f906118d5565b60206040518083038186803b15801561056757600080fd5b505afa15801561057b573d6000803e3d6000fd5b505050506040513d601f19601f8201168201806040525081019061059f9190611198565b81526020019081526020016000205491505090565b600181815481106105c457600080fd5b90600052602060002090600402016000915090508060000154908060010154908060020160009054906101000a900473ffffffffffffffffffffffffffffffffffffffff16905083565b60006001828154811061064a577f4e487b7100000000000000000000000000000000000000000000000000000000600052603260045260246000fd5b9060005260206000209060040201600001549050919050565b600073ffffffffffffffffffffffffffffffffffffffff166002600084815260200190815260200160002060009054906101000a900473ffffffffffffffffffffffffffffffffffffffff1673ffffffffffffffffffffffffffffffffffffffff1614610705576040517f08c379a00000000000000000000000000000000000000000000000000000000081526004016106fc90611955565b60405180910390fd5b61070e81610f71565b61074d576040517f08c379a000000000000000000000000000000000000000000000000000000000815260040161074490611855565b60405180910390fd5b806002600084815260200190815260200160002060006101000a81548173ffffffffffffffffffffffffffffffffffffffff021916908373ffffffffffffffffffffffffffffffffffffffff1602179055505050565b600460009054906101000a900460ff16156107f3576040517f08c379a00000000000000000000000000000000000000000000000000000000081526004016107ea90611875565b60405180910390fd5b6001600460006101000a81548160ff021916908315150217905550600381511015610853576040517f08c379a000000000000000000000000000000000000000000000000000000000815260040161084a90611915565b60405180910390fd5b60008160008151811061088f577f4e487b7100000000000000000000000000000000000000000000000000000000600052603260045260246000fd5b602002602001015190506003600082815260200190815260200160002060009054906101000a900460ff16156108fa576040517f08c379a00000000000000000000000000000000000000000000000000000000081526004016108f190611935565b60405180910390fd5b600082600181518110610936577f4e487b7100000000000000000000000000000000000000000000000000000000600052603260045260246000fd5b6020026020010151905060006002600083815260200190815260200160002060009054906101000a900473ffffffffffffffffffffffffffffffffffffffff169050600073ffffffffffffffffffffffffffffffffffffffff168173ffffffffffffffffffffffffffffffffffffffff1614156109e8576040517f08c379a00000000000000000000000000000000000000000000000000000000081526004016109df90611835565b60405180910390fd5b8073ffffffffffffffffffffffffffffffffffffffff1663e91046a985336040518363ffffffff1660e01b8152600401610a23929190611762565b600060405180830381600087803b158015610a3d57600080fd5b505af1158015610a51573d6000803e3d6000fd5b505050507f72570b7d88e67bddfce79348887be0460047ae7c5690788e67dc3e81457c6cc582604051610a849190611792565b60405180910390a160016003600085815260200190815260200160002060006101000a81548160ff0219169083151502179055505050506000600460006101000a81548160ff02191690831515021790555050565b60008054906101000a900473ffffffffffffffffffffffffffffffffffffffff1681565b600060018281548110610b39577f4e487b7100000000000000000000000000000000000000000000000000000000600052603260045260246000fd5b9060005260206000209060040201600101549050919050565b8051825114610b96576040517f08c379a0000000000000000000000000000000000000000000000000000000008152600401610b8d906118f5565b60405180910390fd5b600060018054905090506001808160018154018082558091505003906000526020600020905050600060018281548110610bf9577f4e487b7100000000000000000000000000000000000000000000000000000000600052603260045260246000fd5b90600052602060002090600402019050868160000181905550858160010181905550848160020160006101000a81548173ffffffffffffffffffffffffffffffffffffffff021916908373ffffffffffffffffffffffffffffffffffffffff16021790555060005b8451811015610d1757838181518110610ca3577f4e487b7100000000000000000000000000000000000000000000000000000000600052603260045260246000fd5b6020026020010151826003016000878481518110610cea577f4e487b7100000000000000000000000000000000000000000000000000000000600052603260045260246000fd5b60200260200101518152602001908152602001600020819055508080610d0f90611b41565b915050610c61565b507f72570b7d88e67bddfce79348887be0460047ae7c5690788e67dc3e81457c6cc586604051610d479190611792565b60405180910390a150505050505050565b600060018281548110610d94577f4e487b7100000000000000000000000000000000000000000000000000000000600052603260045260246000fd5b906000526020600020906004020160030160008060009054906101000a900473ffffffffffffffffffffffffffffffffffffffff1673ffffffffffffffffffffffffffffffffffffffff1663cfb519286040518163ffffffff1660e01b8152600401610dff906118d5565b60206040518083038186803b158015610e1757600080fd5b505afa158015610e2b573d6000803e3d6000fd5b505050506040513d601f19601f82011682018060405250810190610e4f9190611198565b8152602001908152602001600020549050919050565b600080600090505b600180549050811015610f30578260018281548110610eb5577f4e487b7100000000000000000000000000000000000000000000000000000000600052603260045260246000fd5b9060005260206000209060040201600001541415610f1d5760018181548110610f07577f4e487b7100000000000000000000000000000000000000000000000000000000600052603260045260246000fd5b9060005260206000209060040201915050610f6c565b8080610f2890611b41565b915050610e6d565b506040517f08c379a0000000000000000000000000000000000000000000000000000000008152600401610f63906118b5565b60405180910390fd5b919050565b600080823b905060008111915050919050565b6000610f97610f92846119c1565b611990565b90508083825260208201905082856020860282011115610fb657600080fd5b60005b85811015610fe65781610fcc88826110c5565b845260208401935060208301925050600181019050610fb9565b5050509392505050565b6000611003610ffe846119ed565b611990565b9050808382526020820190508285602086028201111561102257600080fd5b60005b8581101561105257816110388882611104565b845260208401935060208301925050600181019050611025565b5050509392505050565b60008135905061106b81611be8565b92915050565b600082601f83011261108257600080fd5b8135611092848260208601610f84565b91505092915050565b600082601f8301126110ac57600080fd5b81356110bc848260208601610ff0565b91505092915050565b6000813590506110d481611bff565b92915050565b6000815190506110e981611bff565b92915050565b6000813590506110fe81611c16565b92915050565b60008135905061111381611c2d565b92915050565b60008135905061112881611c44565b92915050565b60006020828403121561114057600080fd5b600082013567ffffffffffffffff81111561115a57600080fd5b61116684828501611071565b91505092915050565b60006020828403121561118157600080fd5b600061118f848285016110c5565b91505092915050565b6000602082840312156111aa57600080fd5b60006111b8848285016110da565b91505092915050565b600080604083850312156111d457600080fd5b60006111e2858286016110c5565b92505060206111f3858286016110c5565b9150509250929050565b600080600080600060a0868803121561121557600080fd5b6000611223888289016110c5565b9550506020611234888289016110c5565b94505060406112458882890161105c565b935050606086013567ffffffffffffffff81111561126257600080fd5b61126e88828901611071565b925050608086013567ffffffffffffffff81111561128b57600080fd5b6112978882890161109b565b9150509295509295909350565b600080604083850312156112b757600080fd5b60006112c5858286016110c5565b92505060206112d6858286016110ef565b9150509250929050565b6000602082840312156112f257600080fd5b600061130084828501611119565b91505092915050565b6000806040838503121561131c57600080fd5b600061132a85828601611119565b925050602061133b858286016110c5565b9150509250929050565b600061135183836113ca565b60208301905092915050565b61136681611a97565b82525050565b600061137782611a29565b6113818185611a41565b935061138c83611a19565b8060005b838110156113bd5781516113a48882611345565b97506113af83611a34565b925050600181019050611390565b5085935050505092915050565b6113d381611aa9565b82525050565b6113e281611aa9565b82525050565b6113f181611af9565b82525050565b61140081611b1d565b82525050565b61140f81611ac5565b82525050565b6000611422602783611a52565b91507f5472616e73616374696f6e20747970652068616e646c6572206e6f742072656760008301527f69737465726564000000000000000000000000000000000000000000000000006020830152604082019050919050565b6000611488602483611a52565b91507f50726f76696465642061646472657373206d757374206265206120636f6e747260008301527f6163742e000000000000000000000000000000000000000000000000000000006020830152604082019050919050565b60006114ee601683611a52565b91507f5265656e7472616e6379206e6f7420616c6c6f776564000000000000000000006000830152602082019050919050565b600061152e601883611a52565b91507f4e6f207472616e73616374696f6e73207265636f7264656400000000000000006000830152602082019050919050565b600061156e602883611a52565b91507f5472616e73616374696f6e207769746820676976656e206576656e744964206e60008301527f6f7420666f756e640000000000000000000000000000000000000000000000006020830152604082019050919050565b60006115d4600a83611a52565b91507f7472616e735f74696d65000000000000000000000000000000000000000000006000830152602082019050919050565b6000611614602a83611a52565b91507f506172616d206b65797320616e642076616c756573206d757374206d6174636860008301527f20696e206c656e677468000000000000000000000000000000000000000000006020830152604082019050919050565b600061167a602683611a52565b91507f44617461206d7573742068617665206174206c6561737420746872656520656c60008301527f656d656e747300000000000000000000000000000000000000000000000000006020830152604082019050919050565b60006116e0601e83611a52565b91507f4576656e742049442068617320616c7265616479206265656e207573656400006000830152602082019050919050565b6000611720601a83611a52565b91507f48616e646c657220616c726561647920726567697374657265640000000000006000830152602082019050919050565b61175c81611aef565b82525050565b6000604082019050818103600083015261177c818561136c565b905061178b602083018461135d565b9392505050565b60006020820190506117a760008301846113d9565b92915050565b60006060820190506117c260008301866113d9565b6117cf60208301856113d9565b6117dc604083018461135d565b949350505050565b60006020820190506117f960008301846113e8565b92915050565b600060208201905061181460008301846113f7565b92915050565b600060208201905061182f6000830184611406565b92915050565b6000602082019050818103600083015261184e81611415565b9050919050565b6000602082019050818103600083015261186e8161147b565b9050919050565b6000602082019050818103600083015261188e816114e1565b9050919050565b600060208201905081810360008301526118ae81611521565b9050919050565b600060208201905081810360008301526118ce81611561565b9050919050565b600060208201905081810360008301526118ee816115c7565b9050919050565b6000602082019050818103600083015261190e81611607565b9050919050565b6000602082019050818103600083015261192e8161166d565b9050919050565b6000602082019050818103600083015261194e816116d3565b9050919050565b6000602082019050818103600083015261196e81611713565b9050919050565b600060208201905061198a6000830184611753565b92915050565b6000604051905081810181811067ffffffffffffffff821117156119b7576119b6611bb9565b5b8060405250919050565b600067ffffffffffffffff8211156119dc576119db611bb9565b5b602082029050602081019050919050565b600067ffffffffffffffff821115611a0857611a07611bb9565b5b602082029050602081019050919050565b6000819050602082019050919050565b600081519050919050565b6000602082019050919050565b600082825260208201905092915050565b600082825260208201905092915050565b6000611a6e82611aef565b9150611a7983611aef565b925082821015611a8c57611a8b611b8a565b5b828203905092915050565b6000611aa282611acf565b9050919050565b6000819050919050565b6000611abe82611a97565b9050919050565b6000819050919050565b600073ffffffffffffffffffffffffffffffffffffffff82169050919050565b6000819050919050565b6000611b0482611b0b565b9050919050565b6000611b1682611acf565b9050919050565b6000611b2882611b2f565b9050919050565b6000611b3a82611acf565b9050919050565b6000611b4c82611aef565b91507fffffffffffffffffffffffffffffffffffffffffffffffffffffffffffffffff821415611b7f57611b7e611b8a565b5b600182019050919050565b7f4e487b7100000000000000000000000000000000000000000000000000000000600052601160045260246000fd5b7f4e487b7100000000000000000000000000000000000000000000000000000000600052604160045260246000fd5b611bf181611a97565b8114611bfc57600080fd5b50565b611c0881611aa9565b8114611c1357600080fd5b50565b611c1f81611ab3565b8114611c2a57600080fd5b50565b611c3681611ac5565b8114611c4157600080fd5b50565b611c4d81611aef565b8114611c5857600080fd5b5056fea264697066735822122080a1bf6e739ec21fe6d73f6994bf0190af9f82c8773209e5fc092220f85e9e5f64736f6c63430008000033",
  "linkReferences": {},
  "deployedLinkReferences": {}
}