{
  "_format": "hh-sol-artifact-1",
  "contractName": "TransactionContract",
  "sourceName": "src/services/blockchain/contracts/transactionContract.sol",
  "abi": [
    {
      "inputs": [
        {
          "internalType": "address",
          "name": "_parser",
          "type": "address"
        }
      ],
      "stateMutability": "nonpayable",
      "type": "constructor"
    },
    {
      "anonymous": false,
      "inputs": [
        {
          "indexed": false,
          "internalType": "bytes32",
          "name": "transactionType",
          "type": "bytes32"
        }
      ],
      "name": "transactionAdded",
      "type": "event"
    },
    {
      "inputs": [],
      "name": "Iparser",
      "outputs": [
        {
          "internalType": "contract IParser",
          "name": "",
          "type": "address"
        }
      ],
      "stateMutability": "view",
      "type": "function"
    },
    {
      "inputs": [
        {
          "internalType": "bytes32",
          "name": "eventId",
          "type": "bytes32"
        },
        {
          "internalType": "bytes32",
          "name": "transactionType",
          "type": "bytes32"
        },
        {
          "internalType": "address",
          "name": "recorder",
          "type": "address"
        },
        {
          "internalType": "bytes32[]",
          "name": "paramKeys",
          "type": "bytes32[]"
        },
        {
          "internalType": "int256[]",
          "name": "paramValues",
          "type": "int256[]"
        }
      ],
      "name": "addProcessedTransaction",
      "outputs": [],
      "stateMutability": "nonpayable",
      "type": "function"
    },
    {
      "inputs": [
        {
          "internalType": "bytes32[]",
          "name": "data",
          "type": "bytes32[]"
        }
      ],
      "name": "addRecord",
      "outputs": [],
      "stateMutability": "nonpayable",
      "type": "function"
    },
    {
      "inputs": [
        {
          "internalType": "bytes32",
          "name": "_eventId",
          "type": "bytes32"
        }
      ],
      "name": "getTransaction",
      "outputs": [
        {
          "internalType": "bytes32",
          "name": "",
          "type": "bytes32"
        },
        {
          "internalType": "bytes32",
          "name": "",
          "type": "bytes32"
        },
        {
          "internalType": "address",
          "name": "",
          "type": "address"
        }
      ],
      "stateMutability": "view",
      "type": "function"
    },
    {
      "inputs": [
        {
          "internalType": "uint256",
          "name": "index",
          "type": "uint256"
        }
      ],
      "name": "getTransactionEventId",
      "outputs": [
        {
          "internalType": "bytes32",
          "name": "",
          "type": "bytes32"
        }
      ],
      "stateMutability": "view",
      "type": "function"
    },
    {
      "inputs": [
        {
          "internalType": "uint256",
          "name": "index",
          "type": "uint256"
        },
        {
          "internalType": "bytes32",
          "name": "paramKey",
          "type": "bytes32"
        }
      ],
      "name": "getTransactionParam",
      "outputs": [
        {
          "internalType": "int256",
          "name": "",
          "type": "int256"
        }
      ],
      "stateMutability": "view",
      "type": "function"
    },
    {
      "inputs": [
        {
          "internalType": "bytes32",
          "name": "_eventId",
          "type": "bytes32"
        },
        {
          "internalType": "bytes32",
          "name": "_paramKey",
          "type": "bytes32"
        }
      ],
      "name": "getTransactionParamByEventId",
      "outputs": [
        {
          "internalType": "int256",
          "name": "",
          "type": "int256"
        }
      ],
      "stateMutability": "view",
      "type": "function"
    },
    {
      "inputs": [
        {
          "internalType": "uint256",
          "name": "index",
          "type": "uint256"
        }
      ],
      "name": "getTransactionTime",
      "outputs": [
        {
          "internalType": "int256",
          "name": "",
          "type": "int256"
        }
      ],
      "stateMutability": "view",
      "type": "function"
    },
    {
      "inputs": [
        {
          "internalType": "uint256",
          "name": "index",
          "type": "uint256"
        }
      ],
      "name": "getTransactionType",
      "outputs": [
        {
          "internalType": "bytes32",
          "name": "",
          "type": "bytes32"
        }
      ],
      "stateMutability": "view",
      "type": "function"
    },
    {
      "inputs": [],
      "name": "getTransactionsCount",
      "outputs": [
        {
          "internalType": "uint256",
          "name": "",
          "type": "uint256"
        }
      ],
      "stateMutability": "view",
      "type": "function"
    },
    {
      "inputs": [
        {
          "internalType": "string",
          "name": "_str1",
          "type": "string"
        },
        {
          "internalType": "string",
          "name": "_str2",
          "type": "string"
        },
        {
          "internalType": "int256",
          "name": "_int1",
          "type": "int256"
        },
        {
          "internalType": "int256",
          "name": "_int2",
          "type": "int256"
        },
        {
          "internalType": "int256",
          "name": "_int3",
          "type": "int256"
        },
        {
          "internalType": "int256",
          "name": "_int4",
          "type": "int256"
        }
      ],
      "name": "inputWithDecimal",
      "outputs": [
        {
          "internalType": "bytes32[]",
          "name": "",
          "type": "bytes32[]"
        }
      ],
      "stateMutability": "nonpayable",
      "type": "function"
    },
    {
      "inputs": [
        {
          "internalType": "bytes32",
          "name": "transactionType",
          "type": "bytes32"
        },
        {
          "internalType": "contract ITransactionHandler",
          "name": "handler",
          "type": "address"
        }
      ],
      "name": "registerHanlder",
      "outputs": [],
      "stateMutability": "nonpayable",
      "type": "function"
    },
    {
      "inputs": [
        {
          "internalType": "uint256",
          "name": "",
          "type": "uint256"
        }
      ],
      "name": "transactions",
      "outputs": [
        {
          "internalType": "bytes32",
          "name": "eventId",
          "type": "bytes32"
        },
        {
          "internalType": "bytes32",
          "name": "transactionType",
          "type": "bytes32"
        },
        {
          "internalType": "address",
          "name": "recorder",
          "type": "address"
        }
      ],
      "stateMutability": "view",
      "type": "function"
    }
  ],
  "bytecode": "0x60806040523480156200001157600080fd5b5060405162001f4738038062001f47833981810160405281019062000037919062000095565b806000806101000a81548173ffffffffffffffffffffffffffffffffffffffff021916908373ffffffffffffffffffffffffffffffffffffffff160217905550506200010f565b6000815190506200008f81620000f5565b92915050565b600060208284031215620000a857600080fd5b6000620000b8848285016200007e565b91505092915050565b6000620000ce82620000d5565b9050919050565b600073ffffffffffffffffffffffffffffffffffffffff82169050919050565b6200010081620000c1565b81146200010c57600080fd5b50565b611e28806200011f6000396000f3fe608060405234801561001057600080fd5b50600436106100cf5760003560e01c8063a3edf3e11161008c578063e064d19911610066578063e064d1991461024e578063e09576f01461026c578063ed40bbd51461029c578063fadc6bc6146102b8576100cf565b8063a3edf3e1146101e6578063c4af654814610202578063df4ecf421461021e576100cf565b80631afc42b6146100d4578063419e4138146101045780634aae13ca14610134578063578cb8f9146101665780639ace38c2146101845780639b4e3420146101b6575b600080fd5b6100ee60048036038101906100e9919061161d565b6102e8565b6040516100fb91906119f9565b60405180910390f35b61011e6004803603810190610119919061141c565b61034f565b60405161012b91906119f9565b60405180910390f35b61014e600480360381019061014991906113ca565b61037c565b60405161015d939291906119a7565b60405180910390f35b61016e6103ca565b60405161017b9190611ad6565b60405180910390f35b61019e600480360381019061019991906115f4565b6103d7565b6040516101ad939291906119a7565b60405180910390f35b6101d060048036038101906101cb91906115f4565b610431565b6040516101dd919061198c565b60405180910390f35b61020060048036038101906101fb91906114ff565b610486565b005b61021c60048036038101906102179190611389565b6104dc565b005b6102386004803603810190610233919061153b565b6106b8565b604051610245919061193a565b60405180910390f35b610256610cdf565b60405161026391906119de565b60405180910390f35b610286600480360381019061028191906115f4565b610d03565b604051610293919061198c565b60405180910390f35b6102b660048036038101906102b19190611458565b610d58565b005b6102d260048036038101906102cd91906115f4565b610f5e565b6040516102df91906119f9565b60405180910390f35b600060018381548110610324577f4e487b7100000000000000000000000000000000000000000000000000000000600052603260045260246000fd5b9060005260206000209060040201600301600083815260200190815260200160002054905092915050565b60008061035b8461106b565b90508060030160008481526020019081526020016000205491505092915050565b60008060008061038b8561106b565b9050806001015481600001548260020160009054906101000a900473ffffffffffffffffffffffffffffffffffffffff16935093509350509193909250565b6000600180549050905090565b600181815481106103e757600080fd5b90600052602060002090600402016000915090508060000154908060010154908060020160009054906101000a900473ffffffffffffffffffffffffffffffffffffffff16905083565b60006001828154811061046d577f4e487b7100000000000000000000000000000000000000000000000000000000600052603260045260246000fd5b9060005260206000209060040201600001549050919050565b806002600084815260200190815260200160002060006101000a81548173ffffffffffffffffffffffffffffffffffffffff021916908373ffffffffffffffffffffffffffffffffffffffff1602179055505050565b600381511015610521576040517f08c379a000000000000000000000000000000000000000000000000000000000815260040161051890611ab6565b60405180910390fd5b60008160018151811061055d577f4e487b7100000000000000000000000000000000000000000000000000000000600052603260045260246000fd5b6020026020010151905060006002600083815260200190815260200160002060009054906101000a900473ffffffffffffffffffffffffffffffffffffffff169050600073ffffffffffffffffffffffffffffffffffffffff168173ffffffffffffffffffffffffffffffffffffffff16141561060f576040517f08c379a000000000000000000000000000000000000000000000000000000000815260040161060690611a76565b60405180910390fd5b8073ffffffffffffffffffffffffffffffffffffffff1663e91046a984336040518363ffffffff1660e01b815260040161064a92919061195c565b600060405180830381600087803b15801561066457600080fd5b505af1158015610678573d6000803e3d6000fd5b505050507f72570b7d88e67bddfce79348887be0460047ae7c5690788e67dc3e81457c6cc5826040516106ab919061198c565b60405180910390a1505050565b60606000600667ffffffffffffffff8111156106fd577f4e487b7100000000000000000000000000000000000000000000000000000000600052604160045260246000fd5b60405190808252806020026020018201604052801561072b5781602001602082028036833780820191505090505b50905060008054906101000a900473ffffffffffffffffffffffffffffffffffffffff1673ffffffffffffffffffffffffffffffffffffffff1663cfb51928896040518263ffffffff1660e01b81526004016107879190611a14565b60206040518083038186803b15801561079f57600080fd5b505afa1580156107b3573d6000803e3d6000fd5b505050506040513d601f19601f820116820180604052508101906107d791906113f3565b81600081518110610811577f4e487b7100000000000000000000000000000000000000000000000000000000600052603260045260246000fd5b60200260200101818152505060008054906101000a900473ffffffffffffffffffffffffffffffffffffffff1673ffffffffffffffffffffffffffffffffffffffff1663cfb51928886040518263ffffffff1660e01b81526004016108769190611a14565b60206040518083038186803b15801561088e57600080fd5b505afa1580156108a2573d6000803e3d6000fd5b505050506040513d601f19601f820116820180604052508101906108c691906113f3565b81600181518110610900577f4e487b7100000000000000000000000000000000000000000000000000000000600052603260045260246000fd5b60200260200101818152505060008054906101000a900473ffffffffffffffffffffffffffffffffffffffff1673ffffffffffffffffffffffffffffffffffffffff16638e4a01bd876040518263ffffffff1660e01b815260040161096591906119f9565b60206040518083038186803b15801561097d57600080fd5b505afa158015610991573d6000803e3d6000fd5b505050506040513d601f19601f820116820180604052508101906109b591906113f3565b816002815181106109ef577f4e487b7100000000000000000000000000000000000000000000000000000000600052603260045260246000fd5b60200260200101818152505060008054906101000a900473ffffffffffffffffffffffffffffffffffffffff1673ffffffffffffffffffffffffffffffffffffffff16638e4a01bd866040518263ffffffff1660e01b8152600401610a5491906119f9565b60206040518083038186803b158015610a6c57600080fd5b505afa158015610a80573d6000803e3d6000fd5b505050506040513d601f19601f82011682018060405250810190610aa491906113f3565b81600381518110610ade577f4e487b7100000000000000000000000000000000000000000000000000000000600052603260045260246000fd5b60200260200101818152505060008054906101000a900473ffffffffffffffffffffffffffffffffffffffff1673ffffffffffffffffffffffffffffffffffffffff16638e4a01bd856040518263ffffffff1660e01b8152600401610b4391906119f9565b60206040518083038186803b158015610b5b57600080fd5b505afa158015610b6f573d6000803e3d6000fd5b505050506040513d601f19601f82011682018060405250810190610b9391906113f3565b81600481518110610bcd577f4e487b7100000000000000000000000000000000000000000000000000000000600052603260045260246000fd5b60200260200101818152505060008054906101000a900473ffffffffffffffffffffffffffffffffffffffff1673ffffffffffffffffffffffffffffffffffffffff16638e4a01bd846040518263ffffffff1660e01b8152600401610c3291906119f9565b60206040518083038186803b158015610c4a57600080fd5b505afa158015610c5e573d6000803e3d6000fd5b505050506040513d601f19601f82011682018060405250810190610c8291906113f3565b81600581518110610cbc577f4e487b7100000000000000000000000000000000000000000000000000000000600052603260045260246000fd5b602002602001018181525050610cd1816104dc565b809150509695505050505050565b60008054906101000a900473ffffffffffffffffffffffffffffffffffffffff1681565b600060018281548110610d3f577f4e487b7100000000000000000000000000000000000000000000000000000000600052603260045260246000fd5b9060005260206000209060040201600101549050919050565b8051825114610d9c576040517f08c379a0000000000000000000000000000000000000000000000000000000008152600401610d9390611a96565b60405180910390fd5b600060018054905090506001808160018154018082558091505003906000526020600020905050600060018281548110610dff577f4e487b7100000000000000000000000000000000000000000000000000000000600052603260045260246000fd5b90600052602060002090600402019050868160000181905550858160010181905550848160020160006101000a81548173ffffffffffffffffffffffffffffffffffffffff021916908373ffffffffffffffffffffffffffffffffffffffff16021790555060005b8451811015610f1d57838181518110610ea9577f4e487b7100000000000000000000000000000000000000000000000000000000600052603260045260246000fd5b6020026020010151826003016000878481518110610ef0577f4e487b7100000000000000000000000000000000000000000000000000000000600052603260045260246000fd5b60200260200101518152602001908152602001600020819055508080610f1590611cc7565b915050610e67565b507f72570b7d88e67bddfce79348887be0460047ae7c5690788e67dc3e81457c6cc586604051610f4d919061198c565b60405180910390a150505050505050565b600060018281548110610f9a577f4e487b7100000000000000000000000000000000000000000000000000000000600052603260045260246000fd5b906000526020600020906004020160030160008060009054906101000a900473ffffffffffffffffffffffffffffffffffffffff1673ffffffffffffffffffffffffffffffffffffffff1663cfb519286040518163ffffffff1660e01b815260040161100590611a56565b60206040518083038186803b15801561101d57600080fd5b505afa158015611031573d6000803e3d6000fd5b505050506040513d601f19601f8201168201806040525081019061105591906113f3565b8152602001908152602001600020549050919050565b600080600090505b6001805490508110156111365782600182815481106110bb577f4e487b7100000000000000000000000000000000000000000000000000000000600052603260045260246000fd5b9060005260206000209060040201600001541415611123576001818154811061110d577f4e487b7100000000000000000000000000000000000000000000000000000000600052603260045260246000fd5b9060005260206000209060040201915050611172565b808061112e90611cc7565b915050611073565b506040517f08c379a000000000000000000000000000000000000000000000000000000000815260040161116990611a36565b60405180910390fd5b919050565b600061118a61118584611b22565b611af1565b905080838252602082019050828560208602820111156111a957600080fd5b60005b858110156111d957816111bf88826112f6565b8452602084019350602083019250506001810190506111ac565b5050509392505050565b60006111f66111f184611b4e565b611af1565b9050808382526020820190508285602086028201111561121557600080fd5b60005b85811015611245578161122b8882611335565b845260208401935060208301925050600181019050611218565b5050509392505050565b600061126261125d84611b7a565b611af1565b90508281526020810184848401111561127a57600080fd5b611285848285611c85565b509392505050565b60008135905061129c81611d7f565b92915050565b600082601f8301126112b357600080fd5b81356112c3848260208601611177565b91505092915050565b600082601f8301126112dd57600080fd5b81356112ed8482602086016111e3565b91505092915050565b60008135905061130581611d96565b92915050565b60008151905061131a81611d96565b92915050565b60008135905061132f81611dad565b92915050565b60008135905061134481611dc4565b92915050565b600082601f83011261135b57600080fd5b813561136b84826020860161124f565b91505092915050565b60008135905061138381611ddb565b92915050565b60006020828403121561139b57600080fd5b600082013567ffffffffffffffff8111156113b557600080fd5b6113c1848285016112a2565b91505092915050565b6000602082840312156113dc57600080fd5b60006113ea848285016112f6565b91505092915050565b60006020828403121561140557600080fd5b60006114138482850161130b565b91505092915050565b6000806040838503121561142f57600080fd5b600061143d858286016112f6565b925050602061144e858286016112f6565b9150509250929050565b600080600080600060a0868803121561147057600080fd5b600061147e888289016112f6565b955050602061148f888289016112f6565b94505060406114a08882890161128d565b935050606086013567ffffffffffffffff8111156114bd57600080fd5b6114c9888289016112a2565b925050608086013567ffffffffffffffff8111156114e657600080fd5b6114f2888289016112cc565b9150509295509295909350565b6000806040838503121561151257600080fd5b6000611520858286016112f6565b925050602061153185828601611320565b9150509250929050565b60008060008060008060c0878903121561155457600080fd5b600087013567ffffffffffffffff81111561156e57600080fd5b61157a89828a0161134a565b965050602087013567ffffffffffffffff81111561159757600080fd5b6115a389828a0161134a565b95505060406115b489828a01611335565b94505060606115c589828a01611335565b93505060806115d689828a01611335565b92505060a06115e789828a01611335565b9150509295509295509295565b60006020828403121561160657600080fd5b600061161484828501611374565b91505092915050565b6000806040838503121561163057600080fd5b600061163e85828601611374565b925050602061164f858286016112f6565b9150509250929050565b600061166583836116de565b60208301905092915050565b61167a81611bff565b82525050565b600061168b82611bba565b6116958185611bdd565b93506116a083611baa565b8060005b838110156116d15781516116b88882611659565b97506116c383611bd0565b9250506001810190506116a4565b5085935050505092915050565b6116e781611c11565b82525050565b6116f681611c11565b82525050565b61170581611c61565b82525050565b61171481611c2d565b82525050565b600061172582611bc5565b61172f8185611bee565b935061173f818560208601611c94565b61174881611d6e565b840191505092915050565b6000611760602883611bee565b91507f5472616e73616374696f6e207769746820676976656e206576656e744964206e60008301527f6f7420666f756e640000000000000000000000000000000000000000000000006020830152604082019050919050565b60006117c6600a83611bee565b91507f7472616e735f74696d65000000000000000000000000000000000000000000006000830152602082019050919050565b6000611806602d83611bee565b91507f50726f636573736f7220666f72207472616e73616374696f6e2074797065206e60008301527f6f742072656769737465726564000000000000000000000000000000000000006020830152604082019050919050565b600061186c602a83611bee565b91507f506172616d206b65797320616e642076616c756573206d757374206d6174636860008301527f20696e206c656e677468000000000000000000000000000000000000000000006020830152604082019050919050565b60006118d2602683611bee565b91507f44617461206d7573742068617665206174206c6561737420746872656520656c60008301527f656d656e747300000000000000000000000000000000000000000000000000006020830152604082019050919050565b61193481611c57565b82525050565b600060208201905081810360008301526119548184611680565b905092915050565b600060408201905081810360008301526119768185611680565b90506119856020830184611671565b9392505050565b60006020820190506119a160008301846116ed565b92915050565b60006060820190506119bc60008301866116ed565b6119c960208301856116ed565b6119d66040830184611671565b949350505050565b60006020820190506119f360008301846116fc565b92915050565b6000602082019050611a0e600083018461170b565b92915050565b60006020820190508181036000830152611a2e818461171a565b905092915050565b60006020820190508181036000830152611a4f81611753565b9050919050565b60006020820190508181036000830152611a6f816117b9565b9050919050565b60006020820190508181036000830152611a8f816117f9565b9050919050565b60006020820190508181036000830152611aaf8161185f565b9050919050565b60006020820190508181036000830152611acf816118c5565b9050919050565b6000602082019050611aeb600083018461192b565b92915050565b6000604051905081810181811067ffffffffffffffff82111715611b1857611b17611d3f565b5b8060405250919050565b600067ffffffffffffffff821115611b3d57611b3c611d3f565b5b602082029050602081019050919050565b600067ffffffffffffffff821115611b6957611b68611d3f565b5b602082029050602081019050919050565b600067ffffffffffffffff821115611b9557611b94611d3f565b5b601f19601f8301169050602081019050919050565b6000819050602082019050919050565b600081519050919050565b600081519050919050565b6000602082019050919050565b600082825260208201905092915050565b600082825260208201905092915050565b6000611c0a82611c37565b9050919050565b6000819050919050565b6000611c2682611bff565b9050919050565b6000819050919050565b600073ffffffffffffffffffffffffffffffffffffffff82169050919050565b6000819050919050565b6000611c6c82611c73565b9050919050565b6000611c7e82611c37565b9050919050565b82818337600083830152505050565b60005b83811015611cb2578082015181840152602081019050611c97565b83811115611cc1576000848401525b50505050565b6000611cd282611c57565b91507fffffffffffffffffffffffffffffffffffffffffffffffffffffffffffffffff821415611d0557611d04611d10565b5b600182019050919050565b7f4e487b7100000000000000000000000000000000000000000000000000000000600052601160045260246000fd5b7f4e487b7100000000000000000000000000000000000000000000000000000000600052604160045260246000fd5b6000601f19601f8301169050919050565b611d8881611bff565b8114611d9357600080fd5b50565b611d9f81611c11565b8114611daa57600080fd5b50565b611db681611c1b565b8114611dc157600080fd5b50565b611dcd81611c2d565b8114611dd857600080fd5b50565b611de481611c57565b8114611def57600080fd5b5056fea2646970667358221220b42ecbca3f2d4e2d8fa22fd9090af4d4cba2222910d892e88ccc15302b652a9b64736f6c63430008000033",
  "linkReferences": {},
  "deployedLinkReferences": {}
}