{
	"data": {
		"bytecode": {
			"linkReferences": {},
			"object": "608060405234801561001057600080fd5b506149f4806100206000396000f3fe608060405234801561001057600080fd5b50600436106101005760003560e01c806358dbda9d116100975780639ff16eb7116100665780639ff16eb7146102de578063c2e275411461030e578063f40915f714610344578063f61347cf1461036257610100565b806358dbda9d1461023c5780636ccc29dc1461025a578063869152e7146102785780639ace38c2146102a857610100565b80632e7700f0116100d35780632e7700f01461019f5780633989c666146101bd5780633df81812146101d95780634fb9118b1461020c57610100565b806312496544146101055780632995997c146101215780632b3a86591461013f5780632c86881c1461016f575b600080fd5b61011f600480360381019061011a9190612b07565b610392565b005b610129610d3f565b6040516101369190612bdb565b60405180910390f35b61015960048036038101906101549190612bf6565b610dc2565b6040516101669190612c58565b60405180910390f35b61018960048036038101906101849190612bf6565b610df0565b6040516101969190612c58565b60405180910390f35b6101a7610e1e565b6040516101b49190612bdb565b60405180910390f35b6101d760048036038101906101d29190612c73565b610e2a565b005b6101f360048036038101906101ee9190612cc6565b610eab565b6040516102039493929190612cf3565b60405180910390f35b61022660048036038101906102219190612d38565b610eeb565b6040516102339190612f6b565b60405180910390f35b610244611218565b6040516102519190612bdb565b60405180910390f35b6102626112a7565b60405161026f9190613030565b60405180910390f35b610292600480360381019061028d9190612cc6565b61148f565b60405161029f9190613030565b60405180910390f35b6102c260048036038101906102bd9190612cc6565b611668565b6040516102d5979695949392919061309c565b60405180910390f35b6102f860048036038101906102f39190612bf6565b6117ca565b6040516103059190613030565b60405180910390f35b61032860048036038101906103239190612d38565b611a56565b60405161033b9796959493929190613541565b60405180910390f35b61034c6122d7565b6040516103599190612bdb565b60405180910390f35b61037c60048036038101906103779190612bf6565b61235a565b6040516103899190612c58565b60405180910390f35b6000600180549050116103da576040517f08c379a00000000000000000000000000000000000000000000000000000000081526004016103d19061362d565b60405180910390fd5b60005b6000805490508110156104af57600081815481106103fe576103fd61364d565b5b906000526020600020906007020160000160405160200161041f919061377f565b604051602081830303815290604052805190602001208760405160200161044691906137c7565b604051602081830303815290604052805190602001200361049c576040517f08c379a00000000000000000000000000000000000000000000000000000000081526004016104939061382a565b60405180910390fd5b80806104a790613879565b9150506103dd565b5060006040518060e00160405280888152602001878152602001868152602001858152602001848152602001428152602001838152509050600060018080805490506104fb91906138c1565b8154811061050c5761050b61364d565b5b90600052602060002090600402016040518060800160405290816000820154815260200160018201548152602001600282015481526020016003820154815250509050600082908060018154018082558091505060019003906000526020600020906007020160009091909190915060008201518160000190816105909190613a8c565b5060208201518160010190816105a69190613a8c565b5060408201518160020155606082015181600301556080820151816004015560a0820151816005015560c08201518160060155505060016000805490506105ed91906138c1565b6005836000015160405161060191906137c7565b908152602001604051809103902081905550600060648260200151846080015185604001516106309190613b5e565b61063a9190613b92565b6106449190613c03565b90506000600567ffffffffffffffff811115610663576106626129a6565b5b60405190808252806020026020018201604052801561069657816020015b60608152602001906001900390816106815790505b50905060405180606001604052806032815260200161441260329139816000815181106106c6576106c561364d565b5b60200260200101819052506040518060600160405280603681526020016145a560369139816001815181106106fe576106fd61364d565b5b60200260200101819052506040518060400160405280601b81526020017f6173736574732e746f74616c416d6f756e744661697256616c75650000000000815250816002815181106107535761075261364d565b5b60200260200101819052506040518060400160405280601481526020017f746f74616c4173736574734661697256616c7565000000000000000000000000815250816003815181106107a8576107a761364d565b5b602002602001018190525060405180606001604052806022815260200161458360229139816004815181106107e0576107df61364d565b5b60200260200101819052506107f58183612388565b60008460800151856040015161080b9190613b5e565b905080600260405161081c90613ca6565b908152602001604051809103902060008282546108399190613cbb565b925050819055506000606485602001518760600151886040015161085d91906138c1565b6108679190613b92565b6108719190613c03565b90506000600367ffffffffffffffff8111156108905761088f6129a6565b5b6040519080825280602002602001820160405280156108c357816020015b60608152602001906001900390816108ae5790505b50905060405180606001604052806034815260200161463760349139816000815181106108f3576108f261364d565b5b6020026020010181905250604051806060016040528060388152602001614801603891398160018151811061092b5761092a61364d565b5b60200260200101819052506040518060400160405280602081526020017f6c696162696c69746965732e746f74616c416d6f756e744661697256616c7565815250816002815181106109805761097f61364d565b5b60200260200101819052506109958183612388565b6000876060015188604001516109ab91906138c1565b90508060026040516109bc90613d71565b908152602001604051809103902060008282546109d99190613cbb565b925050819055506000606488602001518a608001518b606001516109fd9190613b5e565b610a079190613b92565b610a119190613c03565b90506000600367ffffffffffffffff811115610a3057610a2f6129a6565b5b604051908082528060200260200182016040528015610a6357816020015b6060815260200190600190039081610a4e5790505b5090506040518060600160405280603481526020016147256034913981600081518110610a9357610a9261364d565b5b60200260200101819052506040518060600160405280603881526020016144986038913981600181518110610acb57610aca61364d565b5b60200260200101819052506040518060400160405280601b81526020017f6571756974792e746f74616c416d6f756e744661697256616c7565000000000081525081600281518110610b2057610b1f61364d565b5b6020026020010181905250610b358183612388565b60008a608001518b60600151610b4b9190613b5e565b9050806002604051610b5c90613df8565b90815260200160405180910390206000828254610b799190613cbb565b92505081905550600060648c60c001518d608001518e60600151610b9d9190613b5e565b610ba79190613b92565b610bb19190613c03565b90506000600367ffffffffffffffff811115610bd057610bcf6129a6565b5b604051908082528060200260200182016040528015610c0357816020015b6060815260200190600190039081610bee5790505b5090506040518060600160405280602d81526020016145db602d913981600081518110610c3357610c3261364d565b5b60200260200101819052506040518060600160405280603c81526020016144d0603c913981600181518110610c6b57610c6a61364d565b5b60200260200101819052506040518060400160405280600981526020017f6e657450726f666974000000000000000000000000000000000000000000000081525081600281518110610cc057610cbf61364d565b5b6020026020010181905250610cd581836123fb565b60008d608001518e60600151610ceb9190613b5e565b9050806003604051610cfc90613e7f565b90815260200160405180910390206000828254610d199190613cbb565b92505081905550610d298e61246e565b5050505050505050505050505050505050505050565b60008060018054905011610d88576040517f08c379a0000000000000000000000000000000000000000000000000000000008152600401610d7f90613f06565b60405180910390fd5b6001808080549050610d9a91906138c1565b81548110610dab57610daa61364d565b5b906000526020600020906004020160030154905090565b6003818051602081018201805184825260208301602085012081835280955050505050506000915090505481565b6004818051602081018201805184825260208301602085012081835280955050505050506000915090505481565b60008080549050905090565b60006040518060800160405280428152602001858152602001848152602001838152509050600181908060018154018082558091505060019003906000526020600020906004020160009091909190915060008201518160000155602082015181600101556040820151816002015560608201518160030155505050505050565b60018181548110610ebb57600080fd5b90600052602060002090600402016000915090508060000154908060010154908060020154908060030154905084565b60606000805b600080549050811015610f7f578460008281548110610f1357610f1261364d565b5b90600052602060002090600702016005015410158015610f5857508360008281548110610f4357610f4261364d565b5b90600052602060002090600702016005015411155b15610f6c578180610f6890613879565b9250505b8080610f7790613879565b915050610ef1565b5060008167ffffffffffffffff811115610f9c57610f9b6129a6565b5b604051908082528060200260200182016040528015610fd557816020015b610fc26128c3565b815260200190600190039081610fba5790505b5090506000805b60008054905081101561120b578660008281548110610ffe57610ffd61364d565b5b906000526020600020906007020160050154101580156110435750856000828154811061102e5761102d61364d565b5b90600052602060002090600702016005015411155b156111f8576000818154811061105c5761105b61364d565b5b90600052602060002090600702016040518060e0016040529081600082018054611085906136ab565b80601f01602080910402602001604051908101604052809291908181526020018280546110b1906136ab565b80156110fe5780601f106110d3576101008083540402835291602001916110fe565b820191906000526020600020905b8154815290600101906020018083116110e157829003601f168201915b50505050508152602001600182018054611117906136ab565b80601f0160208091040260200160405190810160405280929190818152602001828054611143906136ab565b80156111905780601f1061116557610100808354040283529160200191611190565b820191906000526020600020905b81548152906001019060200180831161117357829003601f168201915b50505050508152602001600282015481526020016003820154815260200160048201548152602001600582015481526020016006820154815250508383815181106111de576111dd61364d565b5b602002602001018190525081806111f490613879565b9250505b808061120390613879565b915050610fdc565b5081935050505092915050565b60008060018054905011611261576040517f08c379a000000000000000000000000000000000000000000000000000000000815260040161125890613f98565b60405180910390fd5b6064600180808054905061127591906138c1565b815481106112865761128561364d565b5b9060005260206000209060040201600101546112a29190613c03565b905090565b6112af6128c3565b60008080549050116112f6576040517f08c379a00000000000000000000000000000000000000000000000000000000081526004016112ed90614004565b60405180910390fd5b6000600160008054905061130a91906138c1565b8154811061131b5761131a61364d565b5b90600052602060002090600702016040518060e0016040529081600082018054611344906136ab565b80601f0160208091040260200160405190810160405280929190818152602001828054611370906136ab565b80156113bd5780601f10611392576101008083540402835291602001916113bd565b820191906000526020600020905b8154815290600101906020018083116113a057829003601f168201915b505050505081526020016001820180546113d6906136ab565b80601f0160208091040260200160405190810160405280929190818152602001828054611402906136ab565b801561144f5780601f106114245761010080835404028352916020019161144f565b820191906000526020600020905b81548152906001019060200180831161143257829003601f168201915b5050505050815260200160028201548152602001600382015481526020016004820154815260200160058201548152602001600682015481525050905090565b6114976128c3565b60008054905082106114de576040517f08c379a00000000000000000000000000000000000000000000000000000000081526004016114d590614070565b60405180910390fd5b600082815481106114f2576114f161364d565b5b90600052602060002090600702016040518060e001604052908160008201805461151b906136ab565b80601f0160208091040260200160405190810160405280929190818152602001828054611547906136ab565b80156115945780601f1061156957610100808354040283529160200191611594565b820191906000526020600020905b81548152906001019060200180831161157757829003601f168201915b505050505081526020016001820180546115ad906136ab565b80601f01602080910402602001604051908101604052809291908181526020018280546115d9906136ab565b80156116265780601f106115fb57610100808354040283529160200191611626565b820191906000526020600020905b81548152906001019060200180831161160957829003601f168201915b50505050508152602001600282015481526020016003820154815260200160048201548152602001600582015481526020016006820154815250509050919050565b6000818154811061167857600080fd5b906000526020600020906007020160009150905080600001805461169b906136ab565b80601f01602080910402602001604051908101604052809291908181526020018280546116c7906136ab565b80156117145780601f106116e957610100808354040283529160200191611714565b820191906000526020600020905b8154815290600101906020018083116116f757829003601f168201915b505050505090806001018054611729906136ab565b80601f0160208091040260200160405190810160405280929190818152602001828054611755906136ab565b80156117a25780601f10611777576101008083540402835291602001916117a2565b820191906000526020600020905b81548152906001019060200180831161178557829003601f168201915b5050505050908060020154908060030154908060040154908060050154908060060154905087565b6117d26128c3565b60006005836040516117e491906137c7565b90815260200160405180910390205414158061186f57508160405160200161180c91906137c7565b60405160208183030381529060405280519060200120600080815481106118365761183561364d565b5b9060005260206000209060070201600001604051602001611857919061377f565b60405160208183030381529060405280519060200120145b6118ae576040517f08c379a00000000000000000000000000000000000000000000000000000000081526004016118a5906140dc565b60405180910390fd5b60006005836040516118c091906137c7565b908152602001604051809103902054815481106118e0576118df61364d565b5b90600052602060002090600702016040518060e0016040529081600082018054611909906136ab565b80601f0160208091040260200160405190810160405280929190818152602001828054611935906136ab565b80156119825780601f1061195757610100808354040283529160200191611982565b820191906000526020600020905b81548152906001019060200180831161196557829003601f168201915b5050505050815260200160018201805461199b906136ab565b80601f01602080910402602001604051908101604052809291908181526020018280546119c7906136ab565b8015611a145780601f106119e957610100808354040283529160200191611a14565b820191906000526020600020905b8154815290600101906020018083116119f757829003601f168201915b50505050508152602001600282015481526020016003820154815260200160048201548152602001600582015481526020016006820154815250509050919050565b6060611a60612900565b6060611a6a612928565b6060611a7461294f565b60606000611a828a8a610eeb565b9050805167ffffffffffffffff811115611a9f57611a9e6129a6565b5b604051908082528060200260200182016040528015611ad257816020015b6060815260200190600190039081611abd5790505b509750604051806101c0016040528060405180606001604052806032815260200161441260329139815260200160405180606001604052806033815260200161450c6033913981526020016040518060600160405280603681526020016145a56036913981526020016040518060400160405280601b81526020017f6173736574732e746f74616c416d6f756e744661697256616c7565000000000081525081526020016040518060400160405280601481526020017f746f74616c4173736574734661697256616c756500000000000000000000000081525081526020016040518060600160405280603481526020016146376034913981526020016040518060600160405280603581526020016146f06035913981526020016040518060600160405280603881526020016148016038913981526020016040518060400160405280602081526020017f6c696162696c69746965732e746f74616c416d6f756e744661697256616c756581525081526020016040518060600160405280603481526020016147256034913981526020016040518060600160405280603581526020016147cc6035913981526020016040518060600160405280603881526020016144986038913981526020016040518060400160405280601b81526020017f6571756974792e746f74616c416d6f756e744661697256616c75650000000000815250815260200160405180606001604052806022815260200161458360229139815250965060405180608001604052806040518060600160405280602d81526020016145db602d913981526020016040518060600160405280602f8152602001614608602f913981526020016040518060a00160405280608081526020016143926080913981526020016040518060400160405280600981526020017f6e657450726f666974000000000000000000000000000000000000000000000081525081525094506040518061010001604052806040518060a001604052806071815260200161494e6071913981526020016040518060a00160405280607381526020016147596073913981526020016040518060a00160405280608081526020016143926080913981526020016040518060c00160405280608381526020016148cb6083913981526020016040518060c001604052806085815260200161466b6085913981526020016040518060c001604052806092815260200161483960929139815260200160405180608001604052806044815260200161453f604491398152602001604051806080016040528060548152602001614444605491398152509250805167ffffffffffffffff811115611eb057611eaf6129a6565b5b604051908082528060200260200182016040528015611ee357816020015b6060815260200190600190039081611ece5790505b509550805167ffffffffffffffff811115611f0157611f006129a6565b5b604051908082528060200260200182016040528015611f3457816020015b6060815260200190600190039081611f1f5790505b509350805167ffffffffffffffff811115611f5257611f516129a6565b5b604051908082528060200260200182016040528015611f8557816020015b6060815260200190600190039081611f705790505b50915060005b81518110156122c957818181518110611fa757611fa661364d565b5b602002602001015160000151898281518110611fc657611fc561364d565b5b6020026020010181905250600e67ffffffffffffffff811115611fec57611feb6129a6565b5b60405190808252806020026020018201604052801561201a5781602001602082028036833780820191505090505b5087828151811061202e5761202d61364d565b5b6020026020010181905250600467ffffffffffffffff811115612054576120536129a6565b5b6040519080825280602002602001820160405280156120825781602001602082028036833780820191505090505b508582815181106120965761209561364d565b5b6020026020010181905250600867ffffffffffffffff8111156120bc576120bb6129a6565b5b6040519080825280602002602001820160405280156120ea5781602001602082028036833780820191505090505b508382815181106120fe576120fd61364d565b5b602002602001018190525060005b600e8110156121975760028982600e811061212a5761212961364d565b5b602002015160405161213c91906137c7565b90815260200160405180910390205488838151811061215e5761215d61364d565b5b602002602001015182815181106121785761217761364d565b5b602002602001018181525050808061218f90613879565b91505061210c565b5060005b60048110156122265760038782600481106121b9576121b861364d565b5b60200201516040516121cb91906137c7565b9081526020016040518091039020548683815181106121ed576121ec61364d565b5b602002602001015182815181106122075761220661364d565b5b602002602001018181525050808061221e90613879565b91505061219b565b5060005b60088110156122b55760048582600881106122485761224761364d565b5b602002015160405161225a91906137c7565b90815260200160405180910390205484838151811061227c5761227b61364d565b5b602002602001015182815181106122965761229561364d565b5b60200260200101818152505080806122ad90613879565b91505061222a565b5080806122c190613879565b915050611f8b565b505092959891949750929550565b60008060018054905011612320576040517f08c379a00000000000000000000000000000000000000000000000000000000081526004016123179061416e565b60405180910390fd5b600180808054905061233291906138c1565b815481106123435761234261364d565b5b906000526020600020906004020160020154905090565b6002818051602081018201805184825260208301602085012081835280955050505050506000915090505481565b60005b82518110156123f6578160028483815181106123aa576123a961364d565b5b60200260200101516040516123bf91906137c7565b908152602001604051809103902060008282546123dc9190613cbb565b9250508190555080806123ee90613879565b91505061238b565b505050565b60005b82518110156124695781600384838151811061241d5761241c61364d565b5b602002602001015160405161243291906137c7565b9081526020016040518091039020600082825461244f9190613cbb565b92505081905550808061246190613879565b9150506123fe565b505050565b600060648260c001518360600151846040015161248b91906138c1565b6124959190613b92565b61249f9190613c03565b90506000600267ffffffffffffffff8111156124be576124bd6129a6565b5b6040519080825280602002602001820160405280156124f157816020015b60608152602001906001900390816124dc5790505b5090506040518060a001604052806071815260200161494e60719139816000815181106125215761252061364d565b5b60200260200101819052506040518060a001604052806080815260200161439260809139816001815181106125595761255861364d565b5b602002602001018190525061256e8183612850565b60008360600151846040015161258491906138c1565b90508060046040516125959061424c565b908152602001604051809103902060008282546125b29190613cbb565b92505081905550600060648560c00151866080015187606001516125d69190613b5e565b6125e09190613b92565b6125ea9190613c03565b90506000600267ffffffffffffffff811115612609576126086129a6565b5b60405190808252806020026020018201604052801561263c57816020015b60608152602001906001900390816126275790505b5090506040518060c00160405280608381526020016148cb608391398160008151811061266c5761266b61364d565b5b60200260200101819052506040518060c001604052806092815260200161483960929139816001815181106126a4576126a361364d565b5b60200260200101819052506126b98183612850565b6000866060015187604001516126cf91906138c1565b90508060046040516126e090614345565b908152602001604051809103902060008282546126fd9190613cbb565b92505081905550600060648860c0015189608001518a604001516127219190613b5e565b61272b9190613b92565b6127359190613c03565b90506000600267ffffffffffffffff811115612754576127536129a6565b5b60405190808252806020026020018201604052801561278757816020015b60608152602001906001900390816127725790505b50905060405180608001604052806044815260200161453f60449139816000815181106127b7576127b661364d565b5b602002602001018190525060405180608001604052806054815260200161444460549139816001815181106127ef576127ee61364d565b5b60200260200101819052506128048183612850565b7fa26bdd521074fe90072fbbad03f6cccbc67a863f014b3f6afa31efa7e026ee4a89600001518a6020015160405161283d92919061435a565b60405180910390a1505050505050505050565b60005b82518110156128be578160048483815181106128725761287161364d565b5b602002602001015160405161288791906137c7565b908152602001604051809103902060008282546128a49190613cbb565b9250508190555080806128b690613879565b915050612853565b505050565b6040518060e00160405280606081526020016060815260200160008152602001600081526020016000815260200160008152602001600081525090565b604051806101c00160405280600e905b60608152602001906001900390816129105790505090565b60405180608001604052806004905b60608152602001906001900390816129375790505090565b6040518061010001604052806008905b606081526020019060019003908161295f5790505090565b6000604051905090565b600080fd5b600080fd5b600080fd5b600080fd5b6000601f19601f8301169050919050565b7f4e487b7100000000000000000000000000000000000000000000000000000000600052604160045260246000fd5b6129de82612995565b810181811067ffffffffffffffff821117156129fd576129fc6129a6565b5b80604052505050565b6000612a10612977565b9050612a1c82826129d5565b919050565b600067ffffffffffffffff821115612a3c57612a3b6129a6565b5b612a4582612995565b9050602081019050919050565b82818337600083830152505050565b6000612a74612a6f84612a21565b612a06565b905082815260208101848484011115612a9057612a8f612990565b5b612a9b848285612a52565b509392505050565b600082601f830112612ab857612ab761298b565b5b8135612ac8848260208601612a61565b91505092915050565b6000819050919050565b612ae481612ad1565b8114612aef57600080fd5b50565b600081359050612b0181612adb565b92915050565b60008060008060008060c08789031215612b2457612b23612981565b5b600087013567ffffffffffffffff811115612b4257612b41612986565b5b612b4e89828a01612aa3565b965050602087013567ffffffffffffffff811115612b6f57612b6e612986565b5b612b7b89828a01612aa3565b9550506040612b8c89828a01612af2565b9450506060612b9d89828a01612af2565b9350506080612bae89828a01612af2565b92505060a0612bbf89828a01612af2565b9150509295509295509295565b612bd581612ad1565b82525050565b6000602082019050612bf06000830184612bcc565b92915050565b600060208284031215612c0c57612c0b612981565b5b600082013567ffffffffffffffff811115612c2a57612c29612986565b5b612c3684828501612aa3565b91505092915050565b6000819050919050565b612c5281612c3f565b82525050565b6000602082019050612c6d6000830184612c49565b92915050565b600080600060608486031215612c8c57612c8b612981565b5b6000612c9a86828701612af2565b9350506020612cab86828701612af2565b9250506040612cbc86828701612af2565b9150509250925092565b600060208284031215612cdc57612cdb612981565b5b6000612cea84828501612af2565b91505092915050565b6000608082019050612d086000830187612bcc565b612d156020830186612bcc565b612d226040830185612bcc565b612d2f6060830184612bcc565b95945050505050565b60008060408385031215612d4f57612d4e612981565b5b6000612d5d85828601612af2565b9250506020612d6e85828601612af2565b9150509250929050565b600081519050919050565b600082825260208201905092915050565b6000819050602082019050919050565b600081519050919050565b600082825260208201905092915050565b60005b83811015612dde578082015181840152602081019050612dc3565b60008484015250505050565b6000612df582612da4565b612dff8185612daf565b9350612e0f818560208601612dc0565b612e1881612995565b840191505092915050565b612e2c81612ad1565b82525050565b600060e0830160008301518482036000860152612e4f8282612dea565b91505060208301518482036020860152612e698282612dea565b9150506040830151612e7e6040860182612e23565b506060830151612e916060860182612e23565b506080830151612ea46080860182612e23565b5060a0830151612eb760a0860182612e23565b5060c0830151612eca60c0860182612e23565b508091505092915050565b6000612ee18383612e32565b905092915050565b6000602082019050919050565b6000612f0182612d78565b612f0b8185612d83565b935083602082028501612f1d85612d94565b8060005b85811015612f595784840389528151612f3a8582612ed5565b9450612f4583612ee9565b925060208a01995050600181019050612f21565b50829750879550505050505092915050565b60006020820190508181036000830152612f858184612ef6565b905092915050565b600060e0830160008301518482036000860152612faa8282612dea565b91505060208301518482036020860152612fc48282612dea565b9150506040830151612fd96040860182612e23565b506060830151612fec6060860182612e23565b506080830151612fff6080860182612e23565b5060a083015161301260a0860182612e23565b5060c083015161302560c0860182612e23565b508091505092915050565b6000602082019050818103600083015261304a8184612f8d565b905092915050565b600082825260208201905092915050565b600061306e82612da4565b6130788185613052565b9350613088818560208601612dc0565b61309181612995565b840191505092915050565b600060e08201905081810360008301526130b6818a613063565b905081810360208301526130ca8189613063565b90506130d96040830188612bcc565b6130e66060830187612bcc565b6130f36080830186612bcc565b61310060a0830185612bcc565b61310d60c0830184612bcc565b98975050505050505050565b600081519050919050565b600082825260208201905092915050565b6000819050602082019050919050565b60006131518383612dea565b905092915050565b6000602082019050919050565b600061317182613119565b61317b8185613124565b93508360208202850161318d85613135565b8060005b858110156131c957848403895281516131aa8582613145565b94506131b583613159565b925060208a01995050600181019050613191565b50829750879550505050505092915050565b6000600e9050919050565b600081905092915050565b6000819050919050565b6000602082019050919050565b6000613213826131db565b61321d81856131e6565b93508360208202850161322f856131f1565b8060005b8581101561326b578484038952815161324c8582613145565b9450613257836131fb565b925060208a01995050600181019050613233565b50829750879550505050505092915050565b600081519050919050565b600082825260208201905092915050565b6000819050602082019050919050565b600081519050919050565b600082825260208201905092915050565b6000819050602082019050919050565b6132de81612c3f565b82525050565b60006132f083836132d5565b60208301905092915050565b6000602082019050919050565b6000613314826132a9565b61331e81856132b4565b9350613329836132c5565b8060005b8381101561335a57815161334188826132e4565b975061334c836132fc565b92505060018101905061332d565b5085935050505092915050565b60006133738383613309565b905092915050565b6000602082019050919050565b60006133938261327d565b61339d8185613288565b9350836020820285016133af85613299565b8060005b858110156133eb57848403895281516133cc8582613367565b94506133d78361337b565b925060208a019950506001810190506133b3565b50829750879550505050505092915050565b600060049050919050565b600081905092915050565b6000819050919050565b6000602082019050919050565b6000613435826133fd565b61343f8185613408565b93508360208202850161345185613413565b8060005b8581101561348d578484038952815161346e8582613145565b94506134798361341d565b925060208a01995050600181019050613455565b50829750879550505050505092915050565b600060089050919050565b600081905092915050565b6000819050919050565b6000602082019050919050565b60006134d78261349f565b6134e181856134aa565b9350836020820285016134f3856134b5565b8060005b8581101561352f57848403895281516135108582613145565b945061351b836134bf565b925060208a019950506001810190506134f7565b50829750879550505050505092915050565b600060e082019050818103600083015261355b818a613166565b9050818103602083015261356f8189613208565b905081810360408301526135838188613388565b90508181036060830152613597818761342a565b905081810360808301526135ab8186613388565b905081810360a08301526135bf81856134cc565b905081810360c08301526135d38184613388565b905098975050505050505050565b7f4e6f207261746520686973746f727920617661696c61626c652e000000000000600082015250565b6000613617601a83613052565b9150613622826135e1565b602082019050919050565b600060208201905081810360008301526136468161360a565b9050919050565b7f4e487b7100000000000000000000000000000000000000000000000000000000600052603260045260246000fd5b7f4e487b7100000000000000000000000000000000000000000000000000000000600052602260045260246000fd5b600060028204905060018216806136c357607f821691505b6020821081036136d6576136d561367c565b5b50919050565b600081905092915050565b60008190508160005260206000209050919050565b60008154613709816136ab565b61371381866136dc565b9450600182166000811461372e576001811461374357613776565b60ff1983168652811515820286019350613776565b61374c856136e7565b60005b8381101561376e5781548189015260018201915060208101905061374f565b838801955050505b50505092915050565b600061378b82846136fc565b915081905092915050565b60006137a182612da4565b6137ab81856136dc565b93506137bb818560208601612dc0565b80840191505092915050565b60006137d38284613796565b915081905092915050565b7f494420616c7265616479206578697374732e0000000000000000000000000000600082015250565b6000613814601283613052565b915061381f826137de565b602082019050919050565b6000602082019050818103600083015261384381613807565b9050919050565b7f4e487b7100000000000000000000000000000000000000000000000000000000600052601160045260246000fd5b600061388482612ad1565b91507fffffffffffffffffffffffffffffffffffffffffffffffffffffffffffffffff82036138b6576138b561384a565b5b600182019050919050565b60006138cc82612ad1565b91506138d783612ad1565b92508282039050818111156138ef576138ee61384a565b5b92915050565b60006020601f8301049050919050565b600082821b905092915050565b6000600883026139427fffffffffffffffffffffffffffffffffffffffffffffffffffffffffffffffff82613905565b61394c8683613905565b95508019841693508086168417925050509392505050565b6000819050919050565b600061398961398461397f84612ad1565b613964565b612ad1565b9050919050565b6000819050919050565b6139a38361396e565b6139b76139af82613990565b848454613912565b825550505050565b600090565b6139cc6139bf565b6139d781848461399a565b505050565b5b818110156139fb576139f06000826139c4565b6001810190506139dd565b5050565b601f821115613a4057613a11816136e7565b613a1a846138f5565b81016020851015613a29578190505b613a3d613a35856138f5565b8301826139dc565b50505b505050565b600082821c905092915050565b6000613a6360001984600802613a45565b1980831691505092915050565b6000613a7c8383613a52565b9150826002028217905092915050565b613a9582612da4565b67ffffffffffffffff811115613aae57613aad6129a6565b5b613ab882546136ab565b613ac38282856139ff565b600060209050601f831160018114613af65760008415613ae4578287015190505b613aee8582613a70565b865550613b56565b601f198416613b04866136e7565b60005b82811015613b2c57848901518255600182019150602085019450602081019050613b07565b86831015613b495784890151613b45601f891682613a52565b8355505b6001600288020188555050505b505050505050565b6000613b6982612ad1565b9150613b7483612ad1565b9250828201905080821115613b8c57613b8b61384a565b5b92915050565b6000613b9d82612ad1565b9150613ba883612ad1565b9250828202613bb681612ad1565b91508282048414831517613bcd57613bcc61384a565b5b5092915050565b7f4e487b7100000000000000000000000000000000000000000000000000000000600052601260045260246000fd5b6000613c0e82612ad1565b9150613c1983612ad1565b925082613c2957613c28613bd4565b5b828204905092915050565b7f6173736574732e64657461696c732e63727970746f63757272656e63792e627260008201527f65616b646f776e2e555344542e616d6f756e7400000000000000000000000000602082015250565b6000613c906033836136dc565b9150613c9b82613c34565b603382019050919050565b6000613cb182613c83565b9150819050919050565b6000613cc682612c3f565b9150613cd183612c3f565b925082820190508281121560008312168382126000841215161715613cf957613cf861384a565b5b92915050565b7f6c696162696c69746965732e64657461696c732e757365724465706f7369742e60008201527f627265616b646f776e2e555344542e616d6f756e740000000000000000000000602082015250565b6000613d5b6035836136dc565b9150613d6682613cff565b603582019050919050565b6000613d7c82613d4e565b9150819050919050565b7f6571756974792e64657461696c732e72657461696e65644561726e696e67732e60008201527f627265616b646f776e2e555344542e616d6f756e740000000000000000000000602082015250565b6000613de26035836136dc565b9150613ded82613d86565b603582019050919050565b6000613e0382613dd5565b9150819050919050565b7f696e636f6d652e64657461696c732e6465706f7369744665652e627265616b6460008201527f6f776e2e555344542e616d6f756e740000000000000000000000000000000000602082015250565b6000613e69602f836136dc565b9150613e7482613e0d565b602f82019050919050565b6000613e8a82613e5c565b9150819050919050565b7f4e6f204254432f20555344207261746520686973746f727920617661696c616260008201527f6c652e0000000000000000000000000000000000000000000000000000000000602082015250565b6000613ef0602383613052565b9150613efb82613e94565b604082019050919050565b60006020820190508181036000830152613f1f81613ee3565b9050919050565b7f4e6f20555344542f20555344207261746520686973746f727920617661696c6160008201527f626c652e00000000000000000000000000000000000000000000000000000000602082015250565b6000613f82602483613052565b9150613f8d82613f26565b604082019050919050565b60006020820190508181036000830152613fb181613f75565b9050919050565b7f4e6f207472616e73616374696f6e7320617661696c61626c652e000000000000600082015250565b6000613fee601a83613052565b9150613ff982613fb8565b602082019050919050565b6000602082019050818103600083015261401d81613fe1565b9050919050565b7f496e76616c696420696e64657800000000000000000000000000000000000000600082015250565b600061405a600d83613052565b915061406582614024565b602082019050919050565b600060208201905081810360008301526140898161404d565b9050919050565b7f5472616e73616374696f6e206e6f7420666f756e640000000000000000000000600082015250565b60006140c6601583613052565b91506140d182614090565b602082019050919050565b600060208201905081810360008301526140f5816140b9565b9050919050565b7f4e6f204554482f20555344207261746520686973746f727920617661696c616260008201527f6c652e0000000000000000000000000000000000000000000000000000000000602082015250565b6000614158602383613052565b9150614163826140fc565b604082019050919050565b600060208201905081810360008301526141878161414b565b9050919050565b7f737570706c656d656e74616c5363686564756c654f664e6f6e436173684f706560008201527f726174696e67416374697669746965732e64657461696c732e63727970746f6360208201527f757272656e636965734465706f73697465644279437573746f6d6572732e627260408201527f65616b646f776e2e555344542e616d6f756e7400000000000000000000000000606082015250565b60006142366073836136dc565b91506142418261418e565b607382019050919050565b600061425782614229565b9150819050919050565b7f737570706c656d656e74616c5363686564756c654f664e6f6e436173684f706560008201527f726174696e67416374697669746965732e64657461696c732e63727970746f6360208201527f757272656e63696573526563656976656446726f6d437573746f6d657273417360408201527f5472616e73616374696f6e466565732e627265616b646f776e2e555344542e6160608201527f6d6f756e74000000000000000000000000000000000000000000000000000000608082015250565b600061432f6085836136dc565b915061433a82614261565b608582019050919050565b600061435082614322565b9150819050919050565b600060408201905081810360008301526143748185613063565b905081810360208301526143888184613063565b9050939250505056fe737570706c656d656e74616c5363686564756c654f664e6f6e436173684f7065726174696e67416374697669746965732e64657461696c732e63727970746f63757272656e636965734465706f73697465644279437573746f6d6572732e627265616b646f776e2e555344542e776569676874656441766572616765436f73746173736574732e64657461696c732e63727970746f63757272656e63792e746f74616c416d6f756e744661697256616c7565737570706c656d656e74616c5363686564756c654f664e6f6e436173684f7065726174696e67416374697669746965732e64657461696c732e63727970746f63757272656e63696573456e644f66506572696f646571756974792e64657461696c732e72657461696e65644561726e696e67732e627265616b646f776e2e555344542e6661697256616c7565696e636f6d652e64657461696c732e6465706f7369744665652e627265616b646f776e2e555344542e776569676874656441766572616765436f73746173736574732e64657461696c732e63727970746f63757272656e63792e627265616b646f776e2e555344542e616d6f756e74737570706c656d656e74616c5363686564756c654f664e6f6e436173684f7065726174696e67416374697669746965732e776569676874656441766572616765436f7374746f74616c4c696162696c6974696573416e644571756974794661697256616c75656173736574732e64657461696c732e63727970746f63757272656e63792e627265616b646f776e2e555344542e6661697256616c7565696e636f6d652e64657461696c732e6465706f7369744665652e776569676874656441766572616765436f7374696e636f6d652e64657461696c732e6465706f7369744665652e627265616b646f776e2e555344542e616d6f756e746c696162696c69746965732e64657461696c732e757365724465706f7369742e746f74616c416d6f756e744661697256616c7565737570706c656d656e74616c5363686564756c654f664e6f6e436173684f7065726174696e67416374697669746965732e64657461696c732e63727970746f63757272656e63696573526563656976656446726f6d437573746f6d65727341735472616e73616374696f6e466565732e627265616b646f776e2e555344542e616d6f756e746c696162696c69746965732e64657461696c732e757365724465706f7369742e627265616b646f776e2e555344542e616d6f756e746571756974792e64657461696c732e72657461696e65644561726e696e67732e746f74616c416d6f756e744661697256616c7565737570706c656d656e74616c5363686564756c654f664e6f6e436173684f7065726174696e67416374697669746965732e64657461696c732e63727970746f63757272656e636965734465706f73697465644279437573746f6d6572732e627265616b646f776e2e555344542e616d6f756e746571756974792e64657461696c732e72657461696e65644561726e696e67732e627265616b646f776e2e555344542e616d6f756e746c696162696c69746965732e64657461696c732e757365724465706f7369742e627265616b646f776e2e555344542e6661697256616c7565737570706c656d656e74616c5363686564756c654f664e6f6e436173684f7065726174696e67416374697669746965732e64657461696c732e63727970746f63757272656e63696573526563656976656446726f6d437573746f6d65727341735472616e73616374696f6e466565732e627265616b646f776e2e555344542e776569676874656441766572616765436f7374737570706c656d656e74616c5363686564756c654f664e6f6e436173684f7065726174696e67416374697669746965732e64657461696c732e63727970746f63757272656e63696573526563656976656446726f6d437573746f6d65727341735472616e73616374696f6e466565732e776569676874656441766572616765436f7374737570706c656d656e74616c5363686564756c654f664e6f6e436173684f7065726174696e67416374697669746965732e64657461696c732e63727970746f63757272656e636965734465706f73697465644279437573746f6d6572732e776569676874656441766572616765436f7374a264697066735822122005065326c5397dc96e4e6beb70dc1068529218d489d09d200881dd2195cde13664736f6c63430008120033",
			"opcodes": "PUSH1 0x80 PUSH1 0x40 MSTORE CALLVALUE DUP1 ISZERO PUSH2 0x10 JUMPI PUSH1 0x0 DUP1 REVERT JUMPDEST POP PUSH2 0x49F4 DUP1 PUSH2 0x20 PUSH1 0x0 CODECOPY PUSH1 0x0 RETURN INVALID PUSH1 0x80 PUSH1 0x40 MSTORE CALLVALUE DUP1 ISZERO PUSH2 0x10 JUMPI PUSH1 0x0 DUP1 REVERT JUMPDEST POP PUSH1 0x4 CALLDATASIZE LT PUSH2 0x100 JUMPI PUSH1 0x0 CALLDATALOAD PUSH1 0xE0 SHR DUP1 PUSH4 0x58DBDA9D GT PUSH2 0x97 JUMPI DUP1 PUSH4 0x9FF16EB7 GT PUSH2 0x66 JUMPI DUP1 PUSH4 0x9FF16EB7 EQ PUSH2 0x2DE JUMPI DUP1 PUSH4 0xC2E27541 EQ PUSH2 0x30E JUMPI DUP1 PUSH4 0xF40915F7 EQ PUSH2 0x344 JUMPI DUP1 PUSH4 0xF61347CF EQ PUSH2 0x362 JUMPI PUSH2 0x100 JUMP JUMPDEST DUP1 PUSH4 0x58DBDA9D EQ PUSH2 0x23C JUMPI DUP1 PUSH4 0x6CCC29DC EQ PUSH2 0x25A JUMPI DUP1 PUSH4 0x869152E7 EQ PUSH2 0x278 JUMPI DUP1 PUSH4 0x9ACE38C2 EQ PUSH2 0x2A8 JUMPI PUSH2 0x100 JUMP JUMPDEST DUP1 PUSH4 0x2E7700F0 GT PUSH2 0xD3 JUMPI DUP1 PUSH4 0x2E7700F0 EQ PUSH2 0x19F JUMPI DUP1 PUSH4 0x3989C666 EQ PUSH2 0x1BD JUMPI DUP1 PUSH4 0x3DF81812 EQ PUSH2 0x1D9 JUMPI DUP1 PUSH4 0x4FB9118B EQ PUSH2 0x20C JUMPI PUSH2 0x100 JUMP JUMPDEST DUP1 PUSH4 0x12496544 EQ PUSH2 0x105 JUMPI DUP1 PUSH4 0x2995997C EQ PUSH2 0x121 JUMPI DUP1 PUSH4 0x2B3A8659 EQ PUSH2 0x13F JUMPI DUP1 PUSH4 0x2C86881C EQ PUSH2 0x16F JUMPI JUMPDEST PUSH1 0x0 DUP1 REVERT JUMPDEST PUSH2 0x11F PUSH1 0x4 DUP1 CALLDATASIZE SUB DUP2 ADD SWAP1 PUSH2 0x11A SWAP2 SWAP1 PUSH2 0x2B07 JUMP JUMPDEST PUSH2 0x392 JUMP JUMPDEST STOP JUMPDEST PUSH2 0x129 PUSH2 0xD3F JUMP JUMPDEST PUSH1 0x40 MLOAD PUSH2 0x136 SWAP2 SWAP1 PUSH2 0x2BDB JUMP JUMPDEST PUSH1 0x40 MLOAD DUP1 SWAP2 SUB SWAP1 RETURN JUMPDEST PUSH2 0x159 PUSH1 0x4 DUP1 CALLDATASIZE SUB DUP2 ADD SWAP1 PUSH2 0x154 SWAP2 SWAP1 PUSH2 0x2BF6 JUMP JUMPDEST PUSH2 0xDC2 JUMP JUMPDEST PUSH1 0x40 MLOAD PUSH2 0x166 SWAP2 SWAP1 PUSH2 0x2C58 JUMP JUMPDEST PUSH1 0x40 MLOAD DUP1 SWAP2 SUB SWAP1 RETURN JUMPDEST PUSH2 0x189 PUSH1 0x4 DUP1 CALLDATASIZE SUB DUP2 ADD SWAP1 PUSH2 0x184 SWAP2 SWAP1 PUSH2 0x2BF6 JUMP JUMPDEST PUSH2 0xDF0 JUMP JUMPDEST PUSH1 0x40 MLOAD PUSH2 0x196 SWAP2 SWAP1 PUSH2 0x2C58 JUMP JUMPDEST PUSH1 0x40 MLOAD DUP1 SWAP2 SUB SWAP1 RETURN JUMPDEST PUSH2 0x1A7 PUSH2 0xE1E JUMP JUMPDEST PUSH1 0x40 MLOAD PUSH2 0x1B4 SWAP2 SWAP1 PUSH2 0x2BDB JUMP JUMPDEST PUSH1 0x40 MLOAD DUP1 SWAP2 SUB SWAP1 RETURN JUMPDEST PUSH2 0x1D7 PUSH1 0x4 DUP1 CALLDATASIZE SUB DUP2 ADD SWAP1 PUSH2 0x1D2 SWAP2 SWAP1 PUSH2 0x2C73 JUMP JUMPDEST PUSH2 0xE2A JUMP JUMPDEST STOP JUMPDEST PUSH2 0x1F3 PUSH1 0x4 DUP1 CALLDATASIZE SUB DUP2 ADD SWAP1 PUSH2 0x1EE SWAP2 SWAP1 PUSH2 0x2CC6 JUMP JUMPDEST PUSH2 0xEAB JUMP JUMPDEST PUSH1 0x40 MLOAD PUSH2 0x203 SWAP5 SWAP4 SWAP3 SWAP2 SWAP1 PUSH2 0x2CF3 JUMP JUMPDEST PUSH1 0x40 MLOAD DUP1 SWAP2 SUB SWAP1 RETURN JUMPDEST PUSH2 0x226 PUSH1 0x4 DUP1 CALLDATASIZE SUB DUP2 ADD SWAP1 PUSH2 0x221 SWAP2 SWAP1 PUSH2 0x2D38 JUMP JUMPDEST PUSH2 0xEEB JUMP JUMPDEST PUSH1 0x40 MLOAD PUSH2 0x233 SWAP2 SWAP1 PUSH2 0x2F6B JUMP JUMPDEST PUSH1 0x40 MLOAD DUP1 SWAP2 SUB SWAP1 RETURN JUMPDEST PUSH2 0x244 PUSH2 0x1218 JUMP JUMPDEST PUSH1 0x40 MLOAD PUSH2 0x251 SWAP2 SWAP1 PUSH2 0x2BDB JUMP JUMPDEST PUSH1 0x40 MLOAD DUP1 SWAP2 SUB SWAP1 RETURN JUMPDEST PUSH2 0x262 PUSH2 0x12A7 JUMP JUMPDEST PUSH1 0x40 MLOAD PUSH2 0x26F SWAP2 SWAP1 PUSH2 0x3030 JUMP JUMPDEST PUSH1 0x40 MLOAD DUP1 SWAP2 SUB SWAP1 RETURN JUMPDEST PUSH2 0x292 PUSH1 0x4 DUP1 CALLDATASIZE SUB DUP2 ADD SWAP1 PUSH2 0x28D SWAP2 SWAP1 PUSH2 0x2CC6 JUMP JUMPDEST PUSH2 0x148F JUMP JUMPDEST PUSH1 0x40 MLOAD PUSH2 0x29F SWAP2 SWAP1 PUSH2 0x3030 JUMP JUMPDEST PUSH1 0x40 MLOAD DUP1 SWAP2 SUB SWAP1 RETURN JUMPDEST PUSH2 0x2C2 PUSH1 0x4 DUP1 CALLDATASIZE SUB DUP2 ADD SWAP1 PUSH2 0x2BD SWAP2 SWAP1 PUSH2 0x2CC6 JUMP JUMPDEST PUSH2 0x1668 JUMP JUMPDEST PUSH1 0x40 MLOAD PUSH2 0x2D5 SWAP8 SWAP7 SWAP6 SWAP5 SWAP4 SWAP3 SWAP2 SWAP1 PUSH2 0x309C JUMP JUMPDEST PUSH1 0x40 MLOAD DUP1 SWAP2 SUB SWAP1 RETURN JUMPDEST PUSH2 0x2F8 PUSH1 0x4 DUP1 CALLDATASIZE SUB DUP2 ADD SWAP1 PUSH2 0x2F3 SWAP2 SWAP1 PUSH2 0x2BF6 JUMP JUMPDEST PUSH2 0x17CA JUMP JUMPDEST PUSH1 0x40 MLOAD PUSH2 0x305 SWAP2 SWAP1 PUSH2 0x3030 JUMP JUMPDEST PUSH1 0x40 MLOAD DUP1 SWAP2 SUB SWAP1 RETURN JUMPDEST PUSH2 0x328 PUSH1 0x4 DUP1 CALLDATASIZE SUB DUP2 ADD SWAP1 PUSH2 0x323 SWAP2 SWAP1 PUSH2 0x2D38 JUMP JUMPDEST PUSH2 0x1A56 JUMP JUMPDEST PUSH1 0x40 MLOAD PUSH2 0x33B SWAP8 SWAP7 SWAP6 SWAP5 SWAP4 SWAP3 SWAP2 SWAP1 PUSH2 0x3541 JUMP JUMPDEST PUSH1 0x40 MLOAD DUP1 SWAP2 SUB SWAP1 RETURN JUMPDEST PUSH2 0x34C PUSH2 0x22D7 JUMP JUMPDEST PUSH1 0x40 MLOAD PUSH2 0x359 SWAP2 SWAP1 PUSH2 0x2BDB JUMP JUMPDEST PUSH1 0x40 MLOAD DUP1 SWAP2 SUB SWAP1 RETURN JUMPDEST PUSH2 0x37C PUSH1 0x4 DUP1 CALLDATASIZE SUB DUP2 ADD SWAP1 PUSH2 0x377 SWAP2 SWAP1 PUSH2 0x2BF6 JUMP JUMPDEST PUSH2 0x235A JUMP JUMPDEST PUSH1 0x40 MLOAD PUSH2 0x389 SWAP2 SWAP1 PUSH2 0x2C58 JUMP JUMPDEST PUSH1 0x40 MLOAD DUP1 SWAP2 SUB SWAP1 RETURN JUMPDEST PUSH1 0x0 PUSH1 0x1 DUP1 SLOAD SWAP1 POP GT PUSH2 0x3DA JUMPI PUSH1 0x40 MLOAD PUSH32 0x8C379A000000000000000000000000000000000000000000000000000000000 DUP2 MSTORE PUSH1 0x4 ADD PUSH2 0x3D1 SWAP1 PUSH2 0x362D JUMP JUMPDEST PUSH1 0x40 MLOAD DUP1 SWAP2 SUB SWAP1 REVERT JUMPDEST PUSH1 0x0 JUMPDEST PUSH1 0x0 DUP1 SLOAD SWAP1 POP DUP2 LT ISZERO PUSH2 0x4AF JUMPI PUSH1 0x0 DUP2 DUP2 SLOAD DUP2 LT PUSH2 0x3FE JUMPI PUSH2 0x3FD PUSH2 0x364D JUMP JUMPDEST JUMPDEST SWAP1 PUSH1 0x0 MSTORE PUSH1 0x20 PUSH1 0x0 KECCAK256 SWAP1 PUSH1 0x7 MUL ADD PUSH1 0x0 ADD PUSH1 0x40 MLOAD PUSH1 0x20 ADD PUSH2 0x41F SWAP2 SWAP1 PUSH2 0x377F JUMP JUMPDEST PUSH1 0x40 MLOAD PUSH1 0x20 DUP2 DUP4 SUB SUB DUP2 MSTORE SWAP1 PUSH1 0x40 MSTORE DUP1 MLOAD SWAP1 PUSH1 0x20 ADD KECCAK256 DUP8 PUSH1 0x40 MLOAD PUSH1 0x20 ADD PUSH2 0x446 SWAP2 SWAP1 PUSH2 0x37C7 JUMP JUMPDEST PUSH1 0x40 MLOAD PUSH1 0x20 DUP2 DUP4 SUB SUB DUP2 MSTORE SWAP1 PUSH1 0x40 MSTORE DUP1 MLOAD SWAP1 PUSH1 0x20 ADD KECCAK256 SUB PUSH2 0x49C JUMPI PUSH1 0x40 MLOAD PUSH32 0x8C379A000000000000000000000000000000000000000000000000000000000 DUP2 MSTORE PUSH1 0x4 ADD PUSH2 0x493 SWAP1 PUSH2 0x382A JUMP JUMPDEST PUSH1 0x40 MLOAD DUP1 SWAP2 SUB SWAP1 REVERT JUMPDEST DUP1 DUP1 PUSH2 0x4A7 SWAP1 PUSH2 0x3879 JUMP JUMPDEST SWAP2 POP POP PUSH2 0x3DD JUMP JUMPDEST POP PUSH1 0x0 PUSH1 0x40 MLOAD DUP1 PUSH1 0xE0 ADD PUSH1 0x40 MSTORE DUP1 DUP9 DUP2 MSTORE PUSH1 0x20 ADD DUP8 DUP2 MSTORE PUSH1 0x20 ADD DUP7 DUP2 MSTORE PUSH1 0x20 ADD DUP6 DUP2 MSTORE PUSH1 0x20 ADD DUP5 DUP2 MSTORE PUSH1 0x20 ADD TIMESTAMP DUP2 MSTORE PUSH1 0x20 ADD DUP4 DUP2 MSTORE POP SWAP1 POP PUSH1 0x0 PUSH1 0x1 DUP1 DUP1 DUP1 SLOAD SWAP1 POP PUSH2 0x4FB SWAP2 SWAP1 PUSH2 0x38C1 JUMP JUMPDEST DUP2 SLOAD DUP2 LT PUSH2 0x50C JUMPI PUSH2 0x50B PUSH2 0x364D JUMP JUMPDEST JUMPDEST SWAP1 PUSH1 0x0 MSTORE PUSH1 0x20 PUSH1 0x0 KECCAK256 SWAP1 PUSH1 0x4 MUL ADD PUSH1 0x40 MLOAD DUP1 PUSH1 0x80 ADD PUSH1 0x40 MSTORE SWAP1 DUP2 PUSH1 0x0 DUP3 ADD SLOAD DUP2 MSTORE PUSH1 0x20 ADD PUSH1 0x1 DUP3 ADD SLOAD DUP2 MSTORE PUSH1 0x20 ADD PUSH1 0x2 DUP3 ADD SLOAD DUP2 MSTORE PUSH1 0x20 ADD PUSH1 0x3 DUP3 ADD SLOAD DUP2 MSTORE POP POP SWAP1 POP PUSH1 0x0 DUP3 SWAP1 DUP1 PUSH1 0x1 DUP2 SLOAD ADD DUP1 DUP3 SSTORE DUP1 SWAP2 POP POP PUSH1 0x1 SWAP1 SUB SWAP1 PUSH1 0x0 MSTORE PUSH1 0x20 PUSH1 0x0 KECCAK256 SWAP1 PUSH1 0x7 MUL ADD PUSH1 0x0 SWAP1 SWAP2 SWAP1 SWAP2 SWAP1 SWAP2 POP PUSH1 0x0 DUP3 ADD MLOAD DUP2 PUSH1 0x0 ADD SWAP1 DUP2 PUSH2 0x590 SWAP2 SWAP1 PUSH2 0x3A8C JUMP JUMPDEST POP PUSH1 0x20 DUP3 ADD MLOAD DUP2 PUSH1 0x1 ADD SWAP1 DUP2 PUSH2 0x5A6 SWAP2 SWAP1 PUSH2 0x3A8C JUMP JUMPDEST POP PUSH1 0x40 DUP3 ADD MLOAD DUP2 PUSH1 0x2 ADD SSTORE PUSH1 0x60 DUP3 ADD MLOAD DUP2 PUSH1 0x3 ADD SSTORE PUSH1 0x80 DUP3 ADD MLOAD DUP2 PUSH1 0x4 ADD SSTORE PUSH1 0xA0 DUP3 ADD MLOAD DUP2 PUSH1 0x5 ADD SSTORE PUSH1 0xC0 DUP3 ADD MLOAD DUP2 PUSH1 0x6 ADD SSTORE POP POP PUSH1 0x1 PUSH1 0x0 DUP1 SLOAD SWAP1 POP PUSH2 0x5ED SWAP2 SWAP1 PUSH2 0x38C1 JUMP JUMPDEST PUSH1 0x5 DUP4 PUSH1 0x0 ADD MLOAD PUSH1 0x40 MLOAD PUSH2 0x601 SWAP2 SWAP1 PUSH2 0x37C7 JUMP JUMPDEST SWAP1 DUP2 MSTORE PUSH1 0x20 ADD PUSH1 0x40 MLOAD DUP1 SWAP2 SUB SWAP1 KECCAK256 DUP2 SWAP1 SSTORE POP PUSH1 0x0 PUSH1 0x64 DUP3 PUSH1 0x20 ADD MLOAD DUP5 PUSH1 0x80 ADD MLOAD DUP6 PUSH1 0x40 ADD MLOAD PUSH2 0x630 SWAP2 SWAP1 PUSH2 0x3B5E JUMP JUMPDEST PUSH2 0x63A SWAP2 SWAP1 PUSH2 0x3B92 JUMP JUMPDEST PUSH2 0x644 SWAP2 SWAP1 PUSH2 0x3C03 JUMP JUMPDEST SWAP1 POP PUSH1 0x0 PUSH1 0x5 PUSH8 0xFFFFFFFFFFFFFFFF DUP2 GT ISZERO PUSH2 0x663 JUMPI PUSH2 0x662 PUSH2 0x29A6 JUMP JUMPDEST JUMPDEST PUSH1 0x40 MLOAD SWAP1 DUP1 DUP3 MSTORE DUP1 PUSH1 0x20 MUL PUSH1 0x20 ADD DUP3 ADD PUSH1 0x40 MSTORE DUP1 ISZERO PUSH2 0x696 JUMPI DUP2 PUSH1 0x20 ADD JUMPDEST PUSH1 0x60 DUP2 MSTORE PUSH1 0x20 ADD SWAP1 PUSH1 0x1 SWAP1 SUB SWAP1 DUP2 PUSH2 0x681 JUMPI SWAP1 POP JUMPDEST POP SWAP1 POP PUSH1 0x40 MLOAD DUP1 PUSH1 0x60 ADD PUSH1 0x40 MSTORE DUP1 PUSH1 0x32 DUP2 MSTORE PUSH1 0x20 ADD PUSH2 0x4412 PUSH1 0x32 SWAP2 CODECOPY DUP2 PUSH1 0x0 DUP2 MLOAD DUP2 LT PUSH2 0x6C6 JUMPI PUSH2 0x6C5 PUSH2 0x364D JUMP JUMPDEST JUMPDEST PUSH1 0x20 MUL PUSH1 0x20 ADD ADD DUP2 SWAP1 MSTORE POP PUSH1 0x40 MLOAD DUP1 PUSH1 0x60 ADD PUSH1 0x40 MSTORE DUP1 PUSH1 0x36 DUP2 MSTORE PUSH1 0x20 ADD PUSH2 0x45A5 PUSH1 0x36 SWAP2 CODECOPY DUP2 PUSH1 0x1 DUP2 MLOAD DUP2 LT PUSH2 0x6FE JUMPI PUSH2 0x6FD PUSH2 0x364D JUMP JUMPDEST JUMPDEST PUSH1 0x20 MUL PUSH1 0x20 ADD ADD DUP2 SWAP1 MSTORE POP PUSH1 0x40 MLOAD DUP1 PUSH1 0x40 ADD PUSH1 0x40 MSTORE DUP1 PUSH1 0x1B DUP2 MSTORE PUSH1 0x20 ADD PUSH32 0x6173736574732E746F74616C416D6F756E744661697256616C75650000000000 DUP2 MSTORE POP DUP2 PUSH1 0x2 DUP2 MLOAD DUP2 LT PUSH2 0x753 JUMPI PUSH2 0x752 PUSH2 0x364D JUMP JUMPDEST JUMPDEST PUSH1 0x20 MUL PUSH1 0x20 ADD ADD DUP2 SWAP1 MSTORE POP PUSH1 0x40 MLOAD DUP1 PUSH1 0x40 ADD PUSH1 0x40 MSTORE DUP1 PUSH1 0x14 DUP2 MSTORE PUSH1 0x20 ADD PUSH32 0x746F74616C4173736574734661697256616C7565000000000000000000000000 DUP2 MSTORE POP DUP2 PUSH1 0x3 DUP2 MLOAD DUP2 LT PUSH2 0x7A8 JUMPI PUSH2 0x7A7 PUSH2 0x364D JUMP JUMPDEST JUMPDEST PUSH1 0x20 MUL PUSH1 0x20 ADD ADD DUP2 SWAP1 MSTORE POP PUSH1 0x40 MLOAD DUP1 PUSH1 0x60 ADD PUSH1 0x40 MSTORE DUP1 PUSH1 0x22 DUP2 MSTORE PUSH1 0x20 ADD PUSH2 0x4583 PUSH1 0x22 SWAP2 CODECOPY DUP2 PUSH1 0x4 DUP2 MLOAD DUP2 LT PUSH2 0x7E0 JUMPI PUSH2 0x7DF PUSH2 0x364D JUMP JUMPDEST JUMPDEST PUSH1 0x20 MUL PUSH1 0x20 ADD ADD DUP2 SWAP1 MSTORE POP PUSH2 0x7F5 DUP2 DUP4 PUSH2 0x2388 JUMP JUMPDEST PUSH1 0x0 DUP5 PUSH1 0x80 ADD MLOAD DUP6 PUSH1 0x40 ADD MLOAD PUSH2 0x80B SWAP2 SWAP1 PUSH2 0x3B5E JUMP JUMPDEST SWAP1 POP DUP1 PUSH1 0x2 PUSH1 0x40 MLOAD PUSH2 0x81C SWAP1 PUSH2 0x3CA6 JUMP JUMPDEST SWAP1 DUP2 MSTORE PUSH1 0x20 ADD PUSH1 0x40 MLOAD DUP1 SWAP2 SUB SWAP1 KECCAK256 PUSH1 0x0 DUP3 DUP3 SLOAD PUSH2 0x839 SWAP2 SWAP1 PUSH2 0x3CBB JUMP JUMPDEST SWAP3 POP POP DUP2 SWAP1 SSTORE POP PUSH1 0x0 PUSH1 0x64 DUP6 PUSH1 0x20 ADD MLOAD DUP8 PUSH1 0x60 ADD MLOAD DUP9 PUSH1 0x40 ADD MLOAD PUSH2 0x85D SWAP2 SWAP1 PUSH2 0x38C1 JUMP JUMPDEST PUSH2 0x867 SWAP2 SWAP1 PUSH2 0x3B92 JUMP JUMPDEST PUSH2 0x871 SWAP2 SWAP1 PUSH2 0x3C03 JUMP JUMPDEST SWAP1 POP PUSH1 0x0 PUSH1 0x3 PUSH8 0xFFFFFFFFFFFFFFFF DUP2 GT ISZERO PUSH2 0x890 JUMPI PUSH2 0x88F PUSH2 0x29A6 JUMP JUMPDEST JUMPDEST PUSH1 0x40 MLOAD SWAP1 DUP1 DUP3 MSTORE DUP1 PUSH1 0x20 MUL PUSH1 0x20 ADD DUP3 ADD PUSH1 0x40 MSTORE DUP1 ISZERO PUSH2 0x8C3 JUMPI DUP2 PUSH1 0x20 ADD JUMPDEST PUSH1 0x60 DUP2 MSTORE PUSH1 0x20 ADD SWAP1 PUSH1 0x1 SWAP1 SUB SWAP1 DUP2 PUSH2 0x8AE JUMPI SWAP1 POP JUMPDEST POP SWAP1 POP PUSH1 0x40 MLOAD DUP1 PUSH1 0x60 ADD PUSH1 0x40 MSTORE DUP1 PUSH1 0x34 DUP2 MSTORE PUSH1 0x20 ADD PUSH2 0x4637 PUSH1 0x34 SWAP2 CODECOPY DUP2 PUSH1 0x0 DUP2 MLOAD DUP2 LT PUSH2 0x8F3 JUMPI PUSH2 0x8F2 PUSH2 0x364D JUMP JUMPDEST JUMPDEST PUSH1 0x20 MUL PUSH1 0x20 ADD ADD DUP2 SWAP1 MSTORE POP PUSH1 0x40 MLOAD DUP1 PUSH1 0x60 ADD PUSH1 0x40 MSTORE DUP1 PUSH1 0x38 DUP2 MSTORE PUSH1 0x20 ADD PUSH2 0x4801 PUSH1 0x38 SWAP2 CODECOPY DUP2 PUSH1 0x1 DUP2 MLOAD DUP2 LT PUSH2 0x92B JUMPI PUSH2 0x92A PUSH2 0x364D JUMP JUMPDEST JUMPDEST PUSH1 0x20 MUL PUSH1 0x20 ADD ADD DUP2 SWAP1 MSTORE POP PUSH1 0x40 MLOAD DUP1 PUSH1 0x40 ADD PUSH1 0x40 MSTORE DUP1 PUSH1 0x20 DUP2 MSTORE PUSH1 0x20 ADD PUSH32 0x6C696162696C69746965732E746F74616C416D6F756E744661697256616C7565 DUP2 MSTORE POP DUP2 PUSH1 0x2 DUP2 MLOAD DUP2 LT PUSH2 0x980 JUMPI PUSH2 0x97F PUSH2 0x364D JUMP JUMPDEST JUMPDEST PUSH1 0x20 MUL PUSH1 0x20 ADD ADD DUP2 SWAP1 MSTORE POP PUSH2 0x995 DUP2 DUP4 PUSH2 0x2388 JUMP JUMPDEST PUSH1 0x0 DUP8 PUSH1 0x60 ADD MLOAD DUP9 PUSH1 0x40 ADD MLOAD PUSH2 0x9AB SWAP2 SWAP1 PUSH2 0x38C1 JUMP JUMPDEST SWAP1 POP DUP1 PUSH1 0x2 PUSH1 0x40 MLOAD PUSH2 0x9BC SWAP1 PUSH2 0x3D71 JUMP JUMPDEST SWAP1 DUP2 MSTORE PUSH1 0x20 ADD PUSH1 0x40 MLOAD DUP1 SWAP2 SUB SWAP1 KECCAK256 PUSH1 0x0 DUP3 DUP3 SLOAD PUSH2 0x9D9 SWAP2 SWAP1 PUSH2 0x3CBB JUMP JUMPDEST SWAP3 POP POP DUP2 SWAP1 SSTORE POP PUSH1 0x0 PUSH1 0x64 DUP9 PUSH1 0x20 ADD MLOAD DUP11 PUSH1 0x80 ADD MLOAD DUP12 PUSH1 0x60 ADD MLOAD PUSH2 0x9FD SWAP2 SWAP1 PUSH2 0x3B5E JUMP JUMPDEST PUSH2 0xA07 SWAP2 SWAP1 PUSH2 0x3B92 JUMP JUMPDEST PUSH2 0xA11 SWAP2 SWAP1 PUSH2 0x3C03 JUMP JUMPDEST SWAP1 POP PUSH1 0x0 PUSH1 0x3 PUSH8 0xFFFFFFFFFFFFFFFF DUP2 GT ISZERO PUSH2 0xA30 JUMPI PUSH2 0xA2F PUSH2 0x29A6 JUMP JUMPDEST JUMPDEST PUSH1 0x40 MLOAD SWAP1 DUP1 DUP3 MSTORE DUP1 PUSH1 0x20 MUL PUSH1 0x20 ADD DUP3 ADD PUSH1 0x40 MSTORE DUP1 ISZERO PUSH2 0xA63 JUMPI DUP2 PUSH1 0x20 ADD JUMPDEST PUSH1 0x60 DUP2 MSTORE PUSH1 0x20 ADD SWAP1 PUSH1 0x1 SWAP1 SUB SWAP1 DUP2 PUSH2 0xA4E JUMPI SWAP1 POP JUMPDEST POP SWAP1 POP PUSH1 0x40 MLOAD DUP1 PUSH1 0x60 ADD PUSH1 0x40 MSTORE DUP1 PUSH1 0x34 DUP2 MSTORE PUSH1 0x20 ADD PUSH2 0x4725 PUSH1 0x34 SWAP2 CODECOPY DUP2 PUSH1 0x0 DUP2 MLOAD DUP2 LT PUSH2 0xA93 JUMPI PUSH2 0xA92 PUSH2 0x364D JUMP JUMPDEST JUMPDEST PUSH1 0x20 MUL PUSH1 0x20 ADD ADD DUP2 SWAP1 MSTORE POP PUSH1 0x40 MLOAD DUP1 PUSH1 0x60 ADD PUSH1 0x40 MSTORE DUP1 PUSH1 0x38 DUP2 MSTORE PUSH1 0x20 ADD PUSH2 0x4498 PUSH1 0x38 SWAP2 CODECOPY DUP2 PUSH1 0x1 DUP2 MLOAD DUP2 LT PUSH2 0xACB JUMPI PUSH2 0xACA PUSH2 0x364D JUMP JUMPDEST JUMPDEST PUSH1 0x20 MUL PUSH1 0x20 ADD ADD DUP2 SWAP1 MSTORE POP PUSH1 0x40 MLOAD DUP1 PUSH1 0x40 ADD PUSH1 0x40 MSTORE DUP1 PUSH1 0x1B DUP2 MSTORE PUSH1 0x20 ADD PUSH32 0x6571756974792E746F74616C416D6F756E744661697256616C75650000000000 DUP2 MSTORE POP DUP2 PUSH1 0x2 DUP2 MLOAD DUP2 LT PUSH2 0xB20 JUMPI PUSH2 0xB1F PUSH2 0x364D JUMP JUMPDEST JUMPDEST PUSH1 0x20 MUL PUSH1 0x20 ADD ADD DUP2 SWAP1 MSTORE POP PUSH2 0xB35 DUP2 DUP4 PUSH2 0x2388 JUMP JUMPDEST PUSH1 0x0 DUP11 PUSH1 0x80 ADD MLOAD DUP12 PUSH1 0x60 ADD MLOAD PUSH2 0xB4B SWAP2 SWAP1 PUSH2 0x3B5E JUMP JUMPDEST SWAP1 POP DUP1 PUSH1 0x2 PUSH1 0x40 MLOAD PUSH2 0xB5C SWAP1 PUSH2 0x3DF8 JUMP JUMPDEST SWAP1 DUP2 MSTORE PUSH1 0x20 ADD PUSH1 0x40 MLOAD DUP1 SWAP2 SUB SWAP1 KECCAK256 PUSH1 0x0 DUP3 DUP3 SLOAD PUSH2 0xB79 SWAP2 SWAP1 PUSH2 0x3CBB JUMP JUMPDEST SWAP3 POP POP DUP2 SWAP1 SSTORE POP PUSH1 0x0 PUSH1 0x64 DUP13 PUSH1 0xC0 ADD MLOAD DUP14 PUSH1 0x80 ADD MLOAD DUP15 PUSH1 0x60 ADD MLOAD PUSH2 0xB9D SWAP2 SWAP1 PUSH2 0x3B5E JUMP JUMPDEST PUSH2 0xBA7 SWAP2 SWAP1 PUSH2 0x3B92 JUMP JUMPDEST PUSH2 0xBB1 SWAP2 SWAP1 PUSH2 0x3C03 JUMP JUMPDEST SWAP1 POP PUSH1 0x0 PUSH1 0x3 PUSH8 0xFFFFFFFFFFFFFFFF DUP2 GT ISZERO PUSH2 0xBD0 JUMPI PUSH2 0xBCF PUSH2 0x29A6 JUMP JUMPDEST JUMPDEST PUSH1 0x40 MLOAD SWAP1 DUP1 DUP3 MSTORE DUP1 PUSH1 0x20 MUL PUSH1 0x20 ADD DUP3 ADD PUSH1 0x40 MSTORE DUP1 ISZERO PUSH2 0xC03 JUMPI DUP2 PUSH1 0x20 ADD JUMPDEST PUSH1 0x60 DUP2 MSTORE PUSH1 0x20 ADD SWAP1 PUSH1 0x1 SWAP1 SUB SWAP1 DUP2 PUSH2 0xBEE JUMPI SWAP1 POP JUMPDEST POP SWAP1 POP PUSH1 0x40 MLOAD DUP1 PUSH1 0x60 ADD PUSH1 0x40 MSTORE DUP1 PUSH1 0x2D DUP2 MSTORE PUSH1 0x20 ADD PUSH2 0x45DB PUSH1 0x2D SWAP2 CODECOPY DUP2 PUSH1 0x0 DUP2 MLOAD DUP2 LT PUSH2 0xC33 JUMPI PUSH2 0xC32 PUSH2 0x364D JUMP JUMPDEST JUMPDEST PUSH1 0x20 MUL PUSH1 0x20 ADD ADD DUP2 SWAP1 MSTORE POP PUSH1 0x40 MLOAD DUP1 PUSH1 0x60 ADD PUSH1 0x40 MSTORE DUP1 PUSH1 0x3C DUP2 MSTORE PUSH1 0x20 ADD PUSH2 0x44D0 PUSH1 0x3C SWAP2 CODECOPY DUP2 PUSH1 0x1 DUP2 MLOAD DUP2 LT PUSH2 0xC6B JUMPI PUSH2 0xC6A PUSH2 0x364D JUMP JUMPDEST JUMPDEST PUSH1 0x20 MUL PUSH1 0x20 ADD ADD DUP2 SWAP1 MSTORE POP PUSH1 0x40 MLOAD DUP1 PUSH1 0x40 ADD PUSH1 0x40 MSTORE DUP1 PUSH1 0x9 DUP2 MSTORE PUSH1 0x20 ADD PUSH32 0x6E657450726F6669740000000000000000000000000000000000000000000000 DUP2 MSTORE POP DUP2 PUSH1 0x2 DUP2 MLOAD DUP2 LT PUSH2 0xCC0 JUMPI PUSH2 0xCBF PUSH2 0x364D JUMP JUMPDEST JUMPDEST PUSH1 0x20 MUL PUSH1 0x20 ADD ADD DUP2 SWAP1 MSTORE POP PUSH2 0xCD5 DUP2 DUP4 PUSH2 0x23FB JUMP JUMPDEST PUSH1 0x0 DUP14 PUSH1 0x80 ADD MLOAD DUP15 PUSH1 0x60 ADD MLOAD PUSH2 0xCEB SWAP2 SWAP1 PUSH2 0x3B5E JUMP JUMPDEST SWAP1 POP DUP1 PUSH1 0x3 PUSH1 0x40 MLOAD PUSH2 0xCFC SWAP1 PUSH2 0x3E7F JUMP JUMPDEST SWAP1 DUP2 MSTORE PUSH1 0x20 ADD PUSH1 0x40 MLOAD DUP1 SWAP2 SUB SWAP1 KECCAK256 PUSH1 0x0 DUP3 DUP3 SLOAD PUSH2 0xD19 SWAP2 SWAP1 PUSH2 0x3CBB JUMP JUMPDEST SWAP3 POP POP DUP2 SWAP1 SSTORE POP PUSH2 0xD29 DUP15 PUSH2 0x246E JUMP JUMPDEST POP POP POP POP POP POP POP POP POP POP POP POP POP POP POP POP POP POP POP POP JUMP JUMPDEST PUSH1 0x0 DUP1 PUSH1 0x1 DUP1 SLOAD SWAP1 POP GT PUSH2 0xD88 JUMPI PUSH1 0x40 MLOAD PUSH32 0x8C379A000000000000000000000000000000000000000000000000000000000 DUP2 MSTORE PUSH1 0x4 ADD PUSH2 0xD7F SWAP1 PUSH2 0x3F06 JUMP JUMPDEST PUSH1 0x40 MLOAD DUP1 SWAP2 SUB SWAP1 REVERT JUMPDEST PUSH1 0x1 DUP1 DUP1 DUP1 SLOAD SWAP1 POP PUSH2 0xD9A SWAP2 SWAP1 PUSH2 0x38C1 JUMP JUMPDEST DUP2 SLOAD DUP2 LT PUSH2 0xDAB JUMPI PUSH2 0xDAA PUSH2 0x364D JUMP JUMPDEST JUMPDEST SWAP1 PUSH1 0x0 MSTORE PUSH1 0x20 PUSH1 0x0 KECCAK256 SWAP1 PUSH1 0x4 MUL ADD PUSH1 0x3 ADD SLOAD SWAP1 POP SWAP1 JUMP JUMPDEST PUSH1 0x3 DUP2 DUP1 MLOAD PUSH1 0x20 DUP2 ADD DUP3 ADD DUP1 MLOAD DUP5 DUP3 MSTORE PUSH1 0x20 DUP4 ADD PUSH1 0x20 DUP6 ADD KECCAK256 DUP2 DUP4 MSTORE DUP1 SWAP6 POP POP POP POP POP POP PUSH1 0x0 SWAP2 POP SWAP1 POP SLOAD DUP2 JUMP JUMPDEST PUSH1 0x4 DUP2 DUP1 MLOAD PUSH1 0x20 DUP2 ADD DUP3 ADD DUP1 MLOAD DUP5 DUP3 MSTORE PUSH1 0x20 DUP4 ADD PUSH1 0x20 DUP6 ADD KECCAK256 DUP2 DUP4 MSTORE DUP1 SWAP6 POP POP POP POP POP POP PUSH1 0x0 SWAP2 POP SWAP1 POP SLOAD DUP2 JUMP JUMPDEST PUSH1 0x0 DUP1 DUP1 SLOAD SWAP1 POP SWAP1 POP SWAP1 JUMP JUMPDEST PUSH1 0x0 PUSH1 0x40 MLOAD DUP1 PUSH1 0x80 ADD PUSH1 0x40 MSTORE DUP1 TIMESTAMP DUP2 MSTORE PUSH1 0x20 ADD DUP6 DUP2 MSTORE PUSH1 0x20 ADD DUP5 DUP2 MSTORE PUSH1 0x20 ADD DUP4 DUP2 MSTORE POP SWAP1 POP PUSH1 0x1 DUP2 SWAP1 DUP1 PUSH1 0x1 DUP2 SLOAD ADD DUP1 DUP3 SSTORE DUP1 SWAP2 POP POP PUSH1 0x1 SWAP1 SUB SWAP1 PUSH1 0x0 MSTORE PUSH1 0x20 PUSH1 0x0 KECCAK256 SWAP1 PUSH1 0x4 MUL ADD PUSH1 0x0 SWAP1 SWAP2 SWAP1 SWAP2 SWAP1 SWAP2 POP PUSH1 0x0 DUP3 ADD MLOAD DUP2 PUSH1 0x0 ADD SSTORE PUSH1 0x20 DUP3 ADD MLOAD DUP2 PUSH1 0x1 ADD SSTORE PUSH1 0x40 DUP3 ADD MLOAD DUP2 PUSH1 0x2 ADD SSTORE PUSH1 0x60 DUP3 ADD MLOAD DUP2 PUSH1 0x3 ADD SSTORE POP POP POP POP POP POP JUMP JUMPDEST PUSH1 0x1 DUP2 DUP2 SLOAD DUP2 LT PUSH2 0xEBB JUMPI PUSH1 0x0 DUP1 REVERT JUMPDEST SWAP1 PUSH1 0x0 MSTORE PUSH1 0x20 PUSH1 0x0 KECCAK256 SWAP1 PUSH1 0x4 MUL ADD PUSH1 0x0 SWAP2 POP SWAP1 POP DUP1 PUSH1 0x0 ADD SLOAD SWAP1 DUP1 PUSH1 0x1 ADD SLOAD SWAP1 DUP1 PUSH1 0x2 ADD SLOAD SWAP1 DUP1 PUSH1 0x3 ADD SLOAD SWAP1 POP DUP5 JUMP JUMPDEST PUSH1 0x60 PUSH1 0x0 DUP1 JUMPDEST PUSH1 0x0 DUP1 SLOAD SWAP1 POP DUP2 LT ISZERO PUSH2 0xF7F JUMPI DUP5 PUSH1 0x0 DUP3 DUP2 SLOAD DUP2 LT PUSH2 0xF13 JUMPI PUSH2 0xF12 PUSH2 0x364D JUMP JUMPDEST JUMPDEST SWAP1 PUSH1 0x0 MSTORE PUSH1 0x20 PUSH1 0x0 KECCAK256 SWAP1 PUSH1 0x7 MUL ADD PUSH1 0x5 ADD SLOAD LT ISZERO DUP1 ISZERO PUSH2 0xF58 JUMPI POP DUP4 PUSH1 0x0 DUP3 DUP2 SLOAD DUP2 LT PUSH2 0xF43 JUMPI PUSH2 0xF42 PUSH2 0x364D JUMP JUMPDEST JUMPDEST SWAP1 PUSH1 0x0 MSTORE PUSH1 0x20 PUSH1 0x0 KECCAK256 SWAP1 PUSH1 0x7 MUL ADD PUSH1 0x5 ADD SLOAD GT ISZERO JUMPDEST ISZERO PUSH2 0xF6C JUMPI DUP2 DUP1 PUSH2 0xF68 SWAP1 PUSH2 0x3879 JUMP JUMPDEST SWAP3 POP POP JUMPDEST DUP1 DUP1 PUSH2 0xF77 SWAP1 PUSH2 0x3879 JUMP JUMPDEST SWAP2 POP POP PUSH2 0xEF1 JUMP JUMPDEST POP PUSH1 0x0 DUP2 PUSH8 0xFFFFFFFFFFFFFFFF DUP2 GT ISZERO PUSH2 0xF9C JUMPI PUSH2 0xF9B PUSH2 0x29A6 JUMP JUMPDEST JUMPDEST PUSH1 0x40 MLOAD SWAP1 DUP1 DUP3 MSTORE DUP1 PUSH1 0x20 MUL PUSH1 0x20 ADD DUP3 ADD PUSH1 0x40 MSTORE DUP1 ISZERO PUSH2 0xFD5 JUMPI DUP2 PUSH1 0x20 ADD JUMPDEST PUSH2 0xFC2 PUSH2 0x28C3 JUMP JUMPDEST DUP2 MSTORE PUSH1 0x20 ADD SWAP1 PUSH1 0x1 SWAP1 SUB SWAP1 DUP2 PUSH2 0xFBA JUMPI SWAP1 POP JUMPDEST POP SWAP1 POP PUSH1 0x0 DUP1 JUMPDEST PUSH1 0x0 DUP1 SLOAD SWAP1 POP DUP2 LT ISZERO PUSH2 0x120B JUMPI DUP7 PUSH1 0x0 DUP3 DUP2 SLOAD DUP2 LT PUSH2 0xFFE JUMPI PUSH2 0xFFD PUSH2 0x364D JUMP JUMPDEST JUMPDEST SWAP1 PUSH1 0x0 MSTORE PUSH1 0x20 PUSH1 0x0 KECCAK256 SWAP1 PUSH1 0x7 MUL ADD PUSH1 0x5 ADD SLOAD LT ISZERO DUP1 ISZERO PUSH2 0x1043 JUMPI POP DUP6 PUSH1 0x0 DUP3 DUP2 SLOAD DUP2 LT PUSH2 0x102E JUMPI PUSH2 0x102D PUSH2 0x364D JUMP JUMPDEST JUMPDEST SWAP1 PUSH1 0x0 MSTORE PUSH1 0x20 PUSH1 0x0 KECCAK256 SWAP1 PUSH1 0x7 MUL ADD PUSH1 0x5 ADD SLOAD GT ISZERO JUMPDEST ISZERO PUSH2 0x11F8 JUMPI PUSH1 0x0 DUP2 DUP2 SLOAD DUP2 LT PUSH2 0x105C JUMPI PUSH2 0x105B PUSH2 0x364D JUMP JUMPDEST JUMPDEST SWAP1 PUSH1 0x0 MSTORE PUSH1 0x20 PUSH1 0x0 KECCAK256 SWAP1 PUSH1 0x7 MUL ADD PUSH1 0x40 MLOAD DUP1 PUSH1 0xE0 ADD PUSH1 0x40 MSTORE SWAP1 DUP2 PUSH1 0x0 DUP3 ADD DUP1 SLOAD PUSH2 0x1085 SWAP1 PUSH2 0x36AB JUMP JUMPDEST DUP1 PUSH1 0x1F ADD PUSH1 0x20 DUP1 SWAP2 DIV MUL PUSH1 0x20 ADD PUSH1 0x40 MLOAD SWAP1 DUP2 ADD PUSH1 0x40 MSTORE DUP1 SWAP3 SWAP2 SWAP1 DUP2 DUP2 MSTORE PUSH1 0x20 ADD DUP3 DUP1 SLOAD PUSH2 0x10B1 SWAP1 PUSH2 0x36AB JUMP JUMPDEST DUP1 ISZERO PUSH2 0x10FE JUMPI DUP1 PUSH1 0x1F LT PUSH2 0x10D3 JUMPI PUSH2 0x100 DUP1 DUP4 SLOAD DIV MUL DUP4 MSTORE SWAP2 PUSH1 0x20 ADD SWAP2 PUSH2 0x10FE JUMP JUMPDEST DUP3 ADD SWAP2 SWAP1 PUSH1 0x0 MSTORE PUSH1 0x20 PUSH1 0x0 KECCAK256 SWAP1 JUMPDEST DUP2 SLOAD DUP2 MSTORE SWAP1 PUSH1 0x1 ADD SWAP1 PUSH1 0x20 ADD DUP1 DUP4 GT PUSH2 0x10E1 JUMPI DUP3 SWAP1 SUB PUSH1 0x1F AND DUP3 ADD SWAP2 JUMPDEST POP POP POP POP POP DUP2 MSTORE PUSH1 0x20 ADD PUSH1 0x1 DUP3 ADD DUP1 SLOAD PUSH2 0x1117 SWAP1 PUSH2 0x36AB JUMP JUMPDEST DUP1 PUSH1 0x1F ADD PUSH1 0x20 DUP1 SWAP2 DIV MUL PUSH1 0x20 ADD PUSH1 0x40 MLOAD SWAP1 DUP2 ADD PUSH1 0x40 MSTORE DUP1 SWAP3 SWAP2 SWAP1 DUP2 DUP2 MSTORE PUSH1 0x20 ADD DUP3 DUP1 SLOAD PUSH2 0x1143 SWAP1 PUSH2 0x36AB JUMP JUMPDEST DUP1 ISZERO PUSH2 0x1190 JUMPI DUP1 PUSH1 0x1F LT PUSH2 0x1165 JUMPI PUSH2 0x100 DUP1 DUP4 SLOAD DIV MUL DUP4 MSTORE SWAP2 PUSH1 0x20 ADD SWAP2 PUSH2 0x1190 JUMP JUMPDEST DUP3 ADD SWAP2 SWAP1 PUSH1 0x0 MSTORE PUSH1 0x20 PUSH1 0x0 KECCAK256 SWAP1 JUMPDEST DUP2 SLOAD DUP2 MSTORE SWAP1 PUSH1 0x1 ADD SWAP1 PUSH1 0x20 ADD DUP1 DUP4 GT PUSH2 0x1173 JUMPI DUP3 SWAP1 SUB PUSH1 0x1F AND DUP3 ADD SWAP2 JUMPDEST POP POP POP POP POP DUP2 MSTORE PUSH1 0x20 ADD PUSH1 0x2 DUP3 ADD SLOAD DUP2 MSTORE PUSH1 0x20 ADD PUSH1 0x3 DUP3 ADD SLOAD DUP2 MSTORE PUSH1 0x20 ADD PUSH1 0x4 DUP3 ADD SLOAD DUP2 MSTORE PUSH1 0x20 ADD PUSH1 0x5 DUP3 ADD SLOAD DUP2 MSTORE PUSH1 0x20 ADD PUSH1 0x6 DUP3 ADD SLOAD DUP2 MSTORE POP POP DUP4 DUP4 DUP2 MLOAD DUP2 LT PUSH2 0x11DE JUMPI PUSH2 0x11DD PUSH2 0x364D JUMP JUMPDEST JUMPDEST PUSH1 0x20 MUL PUSH1 0x20 ADD ADD DUP2 SWAP1 MSTORE POP DUP2 DUP1 PUSH2 0x11F4 SWAP1 PUSH2 0x3879 JUMP JUMPDEST SWAP3 POP POP JUMPDEST DUP1 DUP1 PUSH2 0x1203 SWAP1 PUSH2 0x3879 JUMP JUMPDEST SWAP2 POP POP PUSH2 0xFDC JUMP JUMPDEST POP DUP2 SWAP4 POP POP POP POP SWAP3 SWAP2 POP POP JUMP JUMPDEST PUSH1 0x0 DUP1 PUSH1 0x1 DUP1 SLOAD SWAP1 POP GT PUSH2 0x1261 JUMPI PUSH1 0x40 MLOAD PUSH32 0x8C379A000000000000000000000000000000000000000000000000000000000 DUP2 MSTORE PUSH1 0x4 ADD PUSH2 0x1258 SWAP1 PUSH2 0x3F98 JUMP JUMPDEST PUSH1 0x40 MLOAD DUP1 SWAP2 SUB SWAP1 REVERT JUMPDEST PUSH1 0x64 PUSH1 0x1 DUP1 DUP1 DUP1 SLOAD SWAP1 POP PUSH2 0x1275 SWAP2 SWAP1 PUSH2 0x38C1 JUMP JUMPDEST DUP2 SLOAD DUP2 LT PUSH2 0x1286 JUMPI PUSH2 0x1285 PUSH2 0x364D JUMP JUMPDEST JUMPDEST SWAP1 PUSH1 0x0 MSTORE PUSH1 0x20 PUSH1 0x0 KECCAK256 SWAP1 PUSH1 0x4 MUL ADD PUSH1 0x1 ADD SLOAD PUSH2 0x12A2 SWAP2 SWAP1 PUSH2 0x3C03 JUMP JUMPDEST SWAP1 POP SWAP1 JUMP JUMPDEST PUSH2 0x12AF PUSH2 0x28C3 JUMP JUMPDEST PUSH1 0x0 DUP1 DUP1 SLOAD SWAP1 POP GT PUSH2 0x12F6 JUMPI PUSH1 0x40 MLOAD PUSH32 0x8C379A000000000000000000000000000000000000000000000000000000000 DUP2 MSTORE PUSH1 0x4 ADD PUSH2 0x12ED SWAP1 PUSH2 0x4004 JUMP JUMPDEST PUSH1 0x40 MLOAD DUP1 SWAP2 SUB SWAP1 REVERT JUMPDEST PUSH1 0x0 PUSH1 0x1 PUSH1 0x0 DUP1 SLOAD SWAP1 POP PUSH2 0x130A SWAP2 SWAP1 PUSH2 0x38C1 JUMP JUMPDEST DUP2 SLOAD DUP2 LT PUSH2 0x131B JUMPI PUSH2 0x131A PUSH2 0x364D JUMP JUMPDEST JUMPDEST SWAP1 PUSH1 0x0 MSTORE PUSH1 0x20 PUSH1 0x0 KECCAK256 SWAP1 PUSH1 0x7 MUL ADD PUSH1 0x40 MLOAD DUP1 PUSH1 0xE0 ADD PUSH1 0x40 MSTORE SWAP1 DUP2 PUSH1 0x0 DUP3 ADD DUP1 SLOAD PUSH2 0x1344 SWAP1 PUSH2 0x36AB JUMP JUMPDEST DUP1 PUSH1 0x1F ADD PUSH1 0x20 DUP1 SWAP2 DIV MUL PUSH1 0x20 ADD PUSH1 0x40 MLOAD SWAP1 DUP2 ADD PUSH1 0x40 MSTORE DUP1 SWAP3 SWAP2 SWAP1 DUP2 DUP2 MSTORE PUSH1 0x20 ADD DUP3 DUP1 SLOAD PUSH2 0x1370 SWAP1 PUSH2 0x36AB JUMP JUMPDEST DUP1 ISZERO PUSH2 0x13BD JUMPI DUP1 PUSH1 0x1F LT PUSH2 0x1392 JUMPI PUSH2 0x100 DUP1 DUP4 SLOAD DIV MUL DUP4 MSTORE SWAP2 PUSH1 0x20 ADD SWAP2 PUSH2 0x13BD JUMP JUMPDEST DUP3 ADD SWAP2 SWAP1 PUSH1 0x0 MSTORE PUSH1 0x20 PUSH1 0x0 KECCAK256 SWAP1 JUMPDEST DUP2 SLOAD DUP2 MSTORE SWAP1 PUSH1 0x1 ADD SWAP1 PUSH1 0x20 ADD DUP1 DUP4 GT PUSH2 0x13A0 JUMPI DUP3 SWAP1 SUB PUSH1 0x1F AND DUP3 ADD SWAP2 JUMPDEST POP POP POP POP POP DUP2 MSTORE PUSH1 0x20 ADD PUSH1 0x1 DUP3 ADD DUP1 SLOAD PUSH2 0x13D6 SWAP1 PUSH2 0x36AB JUMP JUMPDEST DUP1 PUSH1 0x1F ADD PUSH1 0x20 DUP1 SWAP2 DIV MUL PUSH1 0x20 ADD PUSH1 0x40 MLOAD SWAP1 DUP2 ADD PUSH1 0x40 MSTORE DUP1 SWAP3 SWAP2 SWAP1 DUP2 DUP2 MSTORE PUSH1 0x20 ADD DUP3 DUP1 SLOAD PUSH2 0x1402 SWAP1 PUSH2 0x36AB JUMP JUMPDEST DUP1 ISZERO PUSH2 0x144F JUMPI DUP1 PUSH1 0x1F LT PUSH2 0x1424 JUMPI PUSH2 0x100 DUP1 DUP4 SLOAD DIV MUL DUP4 MSTORE SWAP2 PUSH1 0x20 ADD SWAP2 PUSH2 0x144F JUMP JUMPDEST DUP3 ADD SWAP2 SWAP1 PUSH1 0x0 MSTORE PUSH1 0x20 PUSH1 0x0 KECCAK256 SWAP1 JUMPDEST DUP2 SLOAD DUP2 MSTORE SWAP1 PUSH1 0x1 ADD SWAP1 PUSH1 0x20 ADD DUP1 DUP4 GT PUSH2 0x1432 JUMPI DUP3 SWAP1 SUB PUSH1 0x1F AND DUP3 ADD SWAP2 JUMPDEST POP POP POP POP POP DUP2 MSTORE PUSH1 0x20 ADD PUSH1 0x2 DUP3 ADD SLOAD DUP2 MSTORE PUSH1 0x20 ADD PUSH1 0x3 DUP3 ADD SLOAD DUP2 MSTORE PUSH1 0x20 ADD PUSH1 0x4 DUP3 ADD SLOAD DUP2 MSTORE PUSH1 0x20 ADD PUSH1 0x5 DUP3 ADD SLOAD DUP2 MSTORE PUSH1 0x20 ADD PUSH1 0x6 DUP3 ADD SLOAD DUP2 MSTORE POP POP SWAP1 POP SWAP1 JUMP JUMPDEST PUSH2 0x1497 PUSH2 0x28C3 JUMP JUMPDEST PUSH1 0x0 DUP1 SLOAD SWAP1 POP DUP3 LT PUSH2 0x14DE JUMPI PUSH1 0x40 MLOAD PUSH32 0x8C379A000000000000000000000000000000000000000000000000000000000 DUP2 MSTORE PUSH1 0x4 ADD PUSH2 0x14D5 SWAP1 PUSH2 0x4070 JUMP JUMPDEST PUSH1 0x40 MLOAD DUP1 SWAP2 SUB SWAP1 REVERT JUMPDEST PUSH1 0x0 DUP3 DUP2 SLOAD DUP2 LT PUSH2 0x14F2 JUMPI PUSH2 0x14F1 PUSH2 0x364D JUMP JUMPDEST JUMPDEST SWAP1 PUSH1 0x0 MSTORE PUSH1 0x20 PUSH1 0x0 KECCAK256 SWAP1 PUSH1 0x7 MUL ADD PUSH1 0x40 MLOAD DUP1 PUSH1 0xE0 ADD PUSH1 0x40 MSTORE SWAP1 DUP2 PUSH1 0x0 DUP3 ADD DUP1 SLOAD PUSH2 0x151B SWAP1 PUSH2 0x36AB JUMP JUMPDEST DUP1 PUSH1 0x1F ADD PUSH1 0x20 DUP1 SWAP2 DIV MUL PUSH1 0x20 ADD PUSH1 0x40 MLOAD SWAP1 DUP2 ADD PUSH1 0x40 MSTORE DUP1 SWAP3 SWAP2 SWAP1 DUP2 DUP2 MSTORE PUSH1 0x20 ADD DUP3 DUP1 SLOAD PUSH2 0x1547 SWAP1 PUSH2 0x36AB JUMP JUMPDEST DUP1 ISZERO PUSH2 0x1594 JUMPI DUP1 PUSH1 0x1F LT PUSH2 0x1569 JUMPI PUSH2 0x100 DUP1 DUP4 SLOAD DIV MUL DUP4 MSTORE SWAP2 PUSH1 0x20 ADD SWAP2 PUSH2 0x1594 JUMP JUMPDEST DUP3 ADD SWAP2 SWAP1 PUSH1 0x0 MSTORE PUSH1 0x20 PUSH1 0x0 KECCAK256 SWAP1 JUMPDEST DUP2 SLOAD DUP2 MSTORE SWAP1 PUSH1 0x1 ADD SWAP1 PUSH1 0x20 ADD DUP1 DUP4 GT PUSH2 0x1577 JUMPI DUP3 SWAP1 SUB PUSH1 0x1F AND DUP3 ADD SWAP2 JUMPDEST POP POP POP POP POP DUP2 MSTORE PUSH1 0x20 ADD PUSH1 0x1 DUP3 ADD DUP1 SLOAD PUSH2 0x15AD SWAP1 PUSH2 0x36AB JUMP JUMPDEST DUP1 PUSH1 0x1F ADD PUSH1 0x20 DUP1 SWAP2 DIV MUL PUSH1 0x20 ADD PUSH1 0x40 MLOAD SWAP1 DUP2 ADD PUSH1 0x40 MSTORE DUP1 SWAP3 SWAP2 SWAP1 DUP2 DUP2 MSTORE PUSH1 0x20 ADD DUP3 DUP1 SLOAD PUSH2 0x15D9 SWAP1 PUSH2 0x36AB JUMP JUMPDEST DUP1 ISZERO PUSH2 0x1626 JUMPI DUP1 PUSH1 0x1F LT PUSH2 0x15FB JUMPI PUSH2 0x100 DUP1 DUP4 SLOAD DIV MUL DUP4 MSTORE SWAP2 PUSH1 0x20 ADD SWAP2 PUSH2 0x1626 JUMP JUMPDEST DUP3 ADD SWAP2 SWAP1 PUSH1 0x0 MSTORE PUSH1 0x20 PUSH1 0x0 KECCAK256 SWAP1 JUMPDEST DUP2 SLOAD DUP2 MSTORE SWAP1 PUSH1 0x1 ADD SWAP1 PUSH1 0x20 ADD DUP1 DUP4 GT PUSH2 0x1609 JUMPI DUP3 SWAP1 SUB PUSH1 0x1F AND DUP3 ADD SWAP2 JUMPDEST POP POP POP POP POP DUP2 MSTORE PUSH1 0x20 ADD PUSH1 0x2 DUP3 ADD SLOAD DUP2 MSTORE PUSH1 0x20 ADD PUSH1 0x3 DUP3 ADD SLOAD DUP2 MSTORE PUSH1 0x20 ADD PUSH1 0x4 DUP3 ADD SLOAD DUP2 MSTORE PUSH1 0x20 ADD PUSH1 0x5 DUP3 ADD SLOAD DUP2 MSTORE PUSH1 0x20 ADD PUSH1 0x6 DUP3 ADD SLOAD DUP2 MSTORE POP POP SWAP1 POP SWAP2 SWAP1 POP JUMP JUMPDEST PUSH1 0x0 DUP2 DUP2 SLOAD DUP2 LT PUSH2 0x1678 JUMPI PUSH1 0x0 DUP1 REVERT JUMPDEST SWAP1 PUSH1 0x0 MSTORE PUSH1 0x20 PUSH1 0x0 KECCAK256 SWAP1 PUSH1 0x7 MUL ADD PUSH1 0x0 SWAP2 POP SWAP1 POP DUP1 PUSH1 0x0 ADD DUP1 SLOAD PUSH2 0x169B SWAP1 PUSH2 0x36AB JUMP JUMPDEST DUP1 PUSH1 0x1F ADD PUSH1 0x20 DUP1 SWAP2 DIV MUL PUSH1 0x20 ADD PUSH1 0x40 MLOAD SWAP1 DUP2 ADD PUSH1 0x40 MSTORE DUP1 SWAP3 SWAP2 SWAP1 DUP2 DUP2 MSTORE PUSH1 0x20 ADD DUP3 DUP1 SLOAD PUSH2 0x16C7 SWAP1 PUSH2 0x36AB JUMP JUMPDEST DUP1 ISZERO PUSH2 0x1714 JUMPI DUP1 PUSH1 0x1F LT PUSH2 0x16E9 JUMPI PUSH2 0x100 DUP1 DUP4 SLOAD DIV MUL DUP4 MSTORE SWAP2 PUSH1 0x20 ADD SWAP2 PUSH2 0x1714 JUMP JUMPDEST DUP3 ADD SWAP2 SWAP1 PUSH1 0x0 MSTORE PUSH1 0x20 PUSH1 0x0 KECCAK256 SWAP1 JUMPDEST DUP2 SLOAD DUP2 MSTORE SWAP1 PUSH1 0x1 ADD SWAP1 PUSH1 0x20 ADD DUP1 DUP4 GT PUSH2 0x16F7 JUMPI DUP3 SWAP1 SUB PUSH1 0x1F AND DUP3 ADD SWAP2 JUMPDEST POP POP POP POP POP SWAP1 DUP1 PUSH1 0x1 ADD DUP1 SLOAD PUSH2 0x1729 SWAP1 PUSH2 0x36AB JUMP JUMPDEST DUP1 PUSH1 0x1F ADD PUSH1 0x20 DUP1 SWAP2 DIV MUL PUSH1 0x20 ADD PUSH1 0x40 MLOAD SWAP1 DUP2 ADD PUSH1 0x40 MSTORE DUP1 SWAP3 SWAP2 SWAP1 DUP2 DUP2 MSTORE PUSH1 0x20 ADD DUP3 DUP1 SLOAD PUSH2 0x1755 SWAP1 PUSH2 0x36AB JUMP JUMPDEST DUP1 ISZERO PUSH2 0x17A2 JUMPI DUP1 PUSH1 0x1F LT PUSH2 0x1777 JUMPI PUSH2 0x100 DUP1 DUP4 SLOAD DIV MUL DUP4 MSTORE SWAP2 PUSH1 0x20 ADD SWAP2 PUSH2 0x17A2 JUMP JUMPDEST DUP3 ADD SWAP2 SWAP1 PUSH1 0x0 MSTORE PUSH1 0x20 PUSH1 0x0 KECCAK256 SWAP1 JUMPDEST DUP2 SLOAD DUP2 MSTORE SWAP1 PUSH1 0x1 ADD SWAP1 PUSH1 0x20 ADD DUP1 DUP4 GT PUSH2 0x1785 JUMPI DUP3 SWAP1 SUB PUSH1 0x1F AND DUP3 ADD SWAP2 JUMPDEST POP POP POP POP POP SWAP1 DUP1 PUSH1 0x2 ADD SLOAD SWAP1 DUP1 PUSH1 0x3 ADD SLOAD SWAP1 DUP1 PUSH1 0x4 ADD SLOAD SWAP1 DUP1 PUSH1 0x5 ADD SLOAD SWAP1 DUP1 PUSH1 0x6 ADD SLOAD SWAP1 POP DUP8 JUMP JUMPDEST PUSH2 0x17D2 PUSH2 0x28C3 JUMP JUMPDEST PUSH1 0x0 PUSH1 0x5 DUP4 PUSH1 0x40 MLOAD PUSH2 0x17E4 SWAP2 SWAP1 PUSH2 0x37C7 JUMP JUMPDEST SWAP1 DUP2 MSTORE PUSH1 0x20 ADD PUSH1 0x40 MLOAD DUP1 SWAP2 SUB SWAP1 KECCAK256 SLOAD EQ ISZERO DUP1 PUSH2 0x186F JUMPI POP DUP2 PUSH1 0x40 MLOAD PUSH1 0x20 ADD PUSH2 0x180C SWAP2 SWAP1 PUSH2 0x37C7 JUMP JUMPDEST PUSH1 0x40 MLOAD PUSH1 0x20 DUP2 DUP4 SUB SUB DUP2 MSTORE SWAP1 PUSH1 0x40 MSTORE DUP1 MLOAD SWAP1 PUSH1 0x20 ADD KECCAK256 PUSH1 0x0 DUP1 DUP2 SLOAD DUP2 LT PUSH2 0x1836 JUMPI PUSH2 0x1835 PUSH2 0x364D JUMP JUMPDEST JUMPDEST SWAP1 PUSH1 0x0 MSTORE PUSH1 0x20 PUSH1 0x0 KECCAK256 SWAP1 PUSH1 0x7 MUL ADD PUSH1 0x0 ADD PUSH1 0x40 MLOAD PUSH1 0x20 ADD PUSH2 0x1857 SWAP2 SWAP1 PUSH2 0x377F JUMP JUMPDEST PUSH1 0x40 MLOAD PUSH1 0x20 DUP2 DUP4 SUB SUB DUP2 MSTORE SWAP1 PUSH1 0x40 MSTORE DUP1 MLOAD SWAP1 PUSH1 0x20 ADD KECCAK256 EQ JUMPDEST PUSH2 0x18AE JUMPI PUSH1 0x40 MLOAD PUSH32 0x8C379A000000000000000000000000000000000000000000000000000000000 DUP2 MSTORE PUSH1 0x4 ADD PUSH2 0x18A5 SWAP1 PUSH2 0x40DC JUMP JUMPDEST PUSH1 0x40 MLOAD DUP1 SWAP2 SUB SWAP1 REVERT JUMPDEST PUSH1 0x0 PUSH1 0x5 DUP4 PUSH1 0x40 MLOAD PUSH2 0x18C0 SWAP2 SWAP1 PUSH2 0x37C7 JUMP JUMPDEST SWAP1 DUP2 MSTORE PUSH1 0x20 ADD PUSH1 0x40 MLOAD DUP1 SWAP2 SUB SWAP1 KECCAK256 SLOAD DUP2 SLOAD DUP2 LT PUSH2 0x18E0 JUMPI PUSH2 0x18DF PUSH2 0x364D JUMP JUMPDEST JUMPDEST SWAP1 PUSH1 0x0 MSTORE PUSH1 0x20 PUSH1 0x0 KECCAK256 SWAP1 PUSH1 0x7 MUL ADD PUSH1 0x40 MLOAD DUP1 PUSH1 0xE0 ADD PUSH1 0x40 MSTORE SWAP1 DUP2 PUSH1 0x0 DUP3 ADD DUP1 SLOAD PUSH2 0x1909 SWAP1 PUSH2 0x36AB JUMP JUMPDEST DUP1 PUSH1 0x1F ADD PUSH1 0x20 DUP1 SWAP2 DIV MUL PUSH1 0x20 ADD PUSH1 0x40 MLOAD SWAP1 DUP2 ADD PUSH1 0x40 MSTORE DUP1 SWAP3 SWAP2 SWAP1 DUP2 DUP2 MSTORE PUSH1 0x20 ADD DUP3 DUP1 SLOAD PUSH2 0x1935 SWAP1 PUSH2 0x36AB JUMP JUMPDEST DUP1 ISZERO PUSH2 0x1982 JUMPI DUP1 PUSH1 0x1F LT PUSH2 0x1957 JUMPI PUSH2 0x100 DUP1 DUP4 SLOAD DIV MUL DUP4 MSTORE SWAP2 PUSH1 0x20 ADD SWAP2 PUSH2 0x1982 JUMP JUMPDEST DUP3 ADD SWAP2 SWAP1 PUSH1 0x0 MSTORE PUSH1 0x20 PUSH1 0x0 KECCAK256 SWAP1 JUMPDEST DUP2 SLOAD DUP2 MSTORE SWAP1 PUSH1 0x1 ADD SWAP1 PUSH1 0x20 ADD DUP1 DUP4 GT PUSH2 0x1965 JUMPI DUP3 SWAP1 SUB PUSH1 0x1F AND DUP3 ADD SWAP2 JUMPDEST POP POP POP POP POP DUP2 MSTORE PUSH1 0x20 ADD PUSH1 0x1 DUP3 ADD DUP1 SLOAD PUSH2 0x199B SWAP1 PUSH2 0x36AB JUMP JUMPDEST DUP1 PUSH1 0x1F ADD PUSH1 0x20 DUP1 SWAP2 DIV MUL PUSH1 0x20 ADD PUSH1 0x40 MLOAD SWAP1 DUP2 ADD PUSH1 0x40 MSTORE DUP1 SWAP3 SWAP2 SWAP1 DUP2 DUP2 MSTORE PUSH1 0x20 ADD DUP3 DUP1 SLOAD PUSH2 0x19C7 SWAP1 PUSH2 0x36AB JUMP JUMPDEST DUP1 ISZERO PUSH2 0x1A14 JUMPI DUP1 PUSH1 0x1F LT PUSH2 0x19E9 JUMPI PUSH2 0x100 DUP1 DUP4 SLOAD DIV MUL DUP4 MSTORE SWAP2 PUSH1 0x20 ADD SWAP2 PUSH2 0x1A14 JUMP JUMPDEST DUP3 ADD SWAP2 SWAP1 PUSH1 0x0 MSTORE PUSH1 0x20 PUSH1 0x0 KECCAK256 SWAP1 JUMPDEST DUP2 SLOAD DUP2 MSTORE SWAP1 PUSH1 0x1 ADD SWAP1 PUSH1 0x20 ADD DUP1 DUP4 GT PUSH2 0x19F7 JUMPI DUP3 SWAP1 SUB PUSH1 0x1F AND DUP3 ADD SWAP2 JUMPDEST POP POP POP POP POP DUP2 MSTORE PUSH1 0x20 ADD PUSH1 0x2 DUP3 ADD SLOAD DUP2 MSTORE PUSH1 0x20 ADD PUSH1 0x3 DUP3 ADD SLOAD DUP2 MSTORE PUSH1 0x20 ADD PUSH1 0x4 DUP3 ADD SLOAD DUP2 MSTORE PUSH1 0x20 ADD PUSH1 0x5 DUP3 ADD SLOAD DUP2 MSTORE PUSH1 0x20 ADD PUSH1 0x6 DUP3 ADD SLOAD DUP2 MSTORE POP POP SWAP1 POP SWAP2 SWAP1 POP JUMP JUMPDEST PUSH1 0x60 PUSH2 0x1A60 PUSH2 0x2900 JUMP JUMPDEST PUSH1 0x60 PUSH2 0x1A6A PUSH2 0x2928 JUMP JUMPDEST PUSH1 0x60 PUSH2 0x1A74 PUSH2 0x294F JUMP JUMPDEST PUSH1 0x60 PUSH1 0x0 PUSH2 0x1A82 DUP11 DUP11 PUSH2 0xEEB JUMP JUMPDEST SWAP1 POP DUP1 MLOAD PUSH8 0xFFFFFFFFFFFFFFFF DUP2 GT ISZERO PUSH2 0x1A9F JUMPI PUSH2 0x1A9E PUSH2 0x29A6 JUMP JUMPDEST JUMPDEST PUSH1 0x40 MLOAD SWAP1 DUP1 DUP3 MSTORE DUP1 PUSH1 0x20 MUL PUSH1 0x20 ADD DUP3 ADD PUSH1 0x40 MSTORE DUP1 ISZERO PUSH2 0x1AD2 JUMPI DUP2 PUSH1 0x20 ADD JUMPDEST PUSH1 0x60 DUP2 MSTORE PUSH1 0x20 ADD SWAP1 PUSH1 0x1 SWAP1 SUB SWAP1 DUP2 PUSH2 0x1ABD JUMPI SWAP1 POP JUMPDEST POP SWAP8 POP PUSH1 0x40 MLOAD DUP1 PUSH2 0x1C0 ADD PUSH1 0x40 MSTORE DUP1 PUSH1 0x40 MLOAD DUP1 PUSH1 0x60 ADD PUSH1 0x40 MSTORE DUP1 PUSH1 0x32 DUP2 MSTORE PUSH1 0x20 ADD PUSH2 0x4412 PUSH1 0x32 SWAP2 CODECOPY DUP2 MSTORE PUSH1 0x20 ADD PUSH1 0x40 MLOAD DUP1 PUSH1 0x60 ADD PUSH1 0x40 MSTORE DUP1 PUSH1 0x33 DUP2 MSTORE PUSH1 0x20 ADD PUSH2 0x450C PUSH1 0x33 SWAP2 CODECOPY DUP2 MSTORE PUSH1 0x20 ADD PUSH1 0x40 MLOAD DUP1 PUSH1 0x60 ADD PUSH1 0x40 MSTORE DUP1 PUSH1 0x36 DUP2 MSTORE PUSH1 0x20 ADD PUSH2 0x45A5 PUSH1 0x36 SWAP2 CODECOPY DUP2 MSTORE PUSH1 0x20 ADD PUSH1 0x40 MLOAD DUP1 PUSH1 0x40 ADD PUSH1 0x40 MSTORE DUP1 PUSH1 0x1B DUP2 MSTORE PUSH1 0x20 ADD PUSH32 0x6173736574732E746F74616C416D6F756E744661697256616C75650000000000 DUP2 MSTORE POP DUP2 MSTORE PUSH1 0x20 ADD PUSH1 0x40 MLOAD DUP1 PUSH1 0x40 ADD PUSH1 0x40 MSTORE DUP1 PUSH1 0x14 DUP2 MSTORE PUSH1 0x20 ADD PUSH32 0x746F74616C4173736574734661697256616C7565000000000000000000000000 DUP2 MSTORE POP DUP2 MSTORE PUSH1 0x20 ADD PUSH1 0x40 MLOAD DUP1 PUSH1 0x60 ADD PUSH1 0x40 MSTORE DUP1 PUSH1 0x34 DUP2 MSTORE PUSH1 0x20 ADD PUSH2 0x4637 PUSH1 0x34 SWAP2 CODECOPY DUP2 MSTORE PUSH1 0x20 ADD PUSH1 0x40 MLOAD DUP1 PUSH1 0x60 ADD PUSH1 0x40 MSTORE DUP1 PUSH1 0x35 DUP2 MSTORE PUSH1 0x20 ADD PUSH2 0x46F0 PUSH1 0x35 SWAP2 CODECOPY DUP2 MSTORE PUSH1 0x20 ADD PUSH1 0x40 MLOAD DUP1 PUSH1 0x60 ADD PUSH1 0x40 MSTORE DUP1 PUSH1 0x38 DUP2 MSTORE PUSH1 0x20 ADD PUSH2 0x4801 PUSH1 0x38 SWAP2 CODECOPY DUP2 MSTORE PUSH1 0x20 ADD PUSH1 0x40 MLOAD DUP1 PUSH1 0x40 ADD PUSH1 0x40 MSTORE DUP1 PUSH1 0x20 DUP2 MSTORE PUSH1 0x20 ADD PUSH32 0x6C696162696C69746965732E746F74616C416D6F756E744661697256616C7565 DUP2 MSTORE POP DUP2 MSTORE PUSH1 0x20 ADD PUSH1 0x40 MLOAD DUP1 PUSH1 0x60 ADD PUSH1 0x40 MSTORE DUP1 PUSH1 0x34 DUP2 MSTORE PUSH1 0x20 ADD PUSH2 0x4725 PUSH1 0x34 SWAP2 CODECOPY DUP2 MSTORE PUSH1 0x20 ADD PUSH1 0x40 MLOAD DUP1 PUSH1 0x60 ADD PUSH1 0x40 MSTORE DUP1 PUSH1 0x35 DUP2 MSTORE PUSH1 0x20 ADD PUSH2 0x47CC PUSH1 0x35 SWAP2 CODECOPY DUP2 MSTORE PUSH1 0x20 ADD PUSH1 0x40 MLOAD DUP1 PUSH1 0x60 ADD PUSH1 0x40 MSTORE DUP1 PUSH1 0x38 DUP2 MSTORE PUSH1 0x20 ADD PUSH2 0x4498 PUSH1 0x38 SWAP2 CODECOPY DUP2 MSTORE PUSH1 0x20 ADD PUSH1 0x40 MLOAD DUP1 PUSH1 0x40 ADD PUSH1 0x40 MSTORE DUP1 PUSH1 0x1B DUP2 MSTORE PUSH1 0x20 ADD PUSH32 0x6571756974792E746F74616C416D6F756E744661697256616C75650000000000 DUP2 MSTORE POP DUP2 MSTORE PUSH1 0x20 ADD PUSH1 0x40 MLOAD DUP1 PUSH1 0x60 ADD PUSH1 0x40 MSTORE DUP1 PUSH1 0x22 DUP2 MSTORE PUSH1 0x20 ADD PUSH2 0x4583 PUSH1 0x22 SWAP2 CODECOPY DUP2 MSTORE POP SWAP7 POP PUSH1 0x40 MLOAD DUP1 PUSH1 0x80 ADD PUSH1 0x40 MSTORE DUP1 PUSH1 0x40 MLOAD DUP1 PUSH1 0x60 ADD PUSH1 0x40 MSTORE DUP1 PUSH1 0x2D DUP2 MSTORE PUSH1 0x20 ADD PUSH2 0x45DB PUSH1 0x2D SWAP2 CODECOPY DUP2 MSTORE PUSH1 0x20 ADD PUSH1 0x40 MLOAD DUP1 PUSH1 0x60 ADD PUSH1 0x40 MSTORE DUP1 PUSH1 0x2F DUP2 MSTORE PUSH1 0x20 ADD PUSH2 0x4608 PUSH1 0x2F SWAP2 CODECOPY DUP2 MSTORE PUSH1 0x20 ADD PUSH1 0x40 MLOAD DUP1 PUSH1 0xA0 ADD PUSH1 0x40 MSTORE DUP1 PUSH1 0x80 DUP2 MSTORE PUSH1 0x20 ADD PUSH2 0x4392 PUSH1 0x80 SWAP2 CODECOPY DUP2 MSTORE PUSH1 0x20 ADD PUSH1 0x40 MLOAD DUP1 PUSH1 0x40 ADD PUSH1 0x40 MSTORE DUP1 PUSH1 0x9 DUP2 MSTORE PUSH1 0x20 ADD PUSH32 0x6E657450726F6669740000000000000000000000000000000000000000000000 DUP2 MSTORE POP DUP2 MSTORE POP SWAP5 POP PUSH1 0x40 MLOAD DUP1 PUSH2 0x100 ADD PUSH1 0x40 MSTORE DUP1 PUSH1 0x40 MLOAD DUP1 PUSH1 0xA0 ADD PUSH1 0x40 MSTORE DUP1 PUSH1 0x71 DUP2 MSTORE PUSH1 0x20 ADD PUSH2 0x494E PUSH1 0x71 SWAP2 CODECOPY DUP2 MSTORE PUSH1 0x20 ADD PUSH1 0x40 MLOAD DUP1 PUSH1 0xA0 ADD PUSH1 0x40 MSTORE DUP1 PUSH1 0x73 DUP2 MSTORE PUSH1 0x20 ADD PUSH2 0x4759 PUSH1 0x73 SWAP2 CODECOPY DUP2 MSTORE PUSH1 0x20 ADD PUSH1 0x40 MLOAD DUP1 PUSH1 0xA0 ADD PUSH1 0x40 MSTORE DUP1 PUSH1 0x80 DUP2 MSTORE PUSH1 0x20 ADD PUSH2 0x4392 PUSH1 0x80 SWAP2 CODECOPY DUP2 MSTORE PUSH1 0x20 ADD PUSH1 0x40 MLOAD DUP1 PUSH1 0xC0 ADD PUSH1 0x40 MSTORE DUP1 PUSH1 0x83 DUP2 MSTORE PUSH1 0x20 ADD PUSH2 0x48CB PUSH1 0x83 SWAP2 CODECOPY DUP2 MSTORE PUSH1 0x20 ADD PUSH1 0x40 MLOAD DUP1 PUSH1 0xC0 ADD PUSH1 0x40 MSTORE DUP1 PUSH1 0x85 DUP2 MSTORE PUSH1 0x20 ADD PUSH2 0x466B PUSH1 0x85 SWAP2 CODECOPY DUP2 MSTORE PUSH1 0x20 ADD PUSH1 0x40 MLOAD DUP1 PUSH1 0xC0 ADD PUSH1 0x40 MSTORE DUP1 PUSH1 0x92 DUP2 MSTORE PUSH1 0x20 ADD PUSH2 0x4839 PUSH1 0x92 SWAP2 CODECOPY DUP2 MSTORE PUSH1 0x20 ADD PUSH1 0x40 MLOAD DUP1 PUSH1 0x80 ADD PUSH1 0x40 MSTORE DUP1 PUSH1 0x44 DUP2 MSTORE PUSH1 0x20 ADD PUSH2 0x453F PUSH1 0x44 SWAP2 CODECOPY DUP2 MSTORE PUSH1 0x20 ADD PUSH1 0x40 MLOAD DUP1 PUSH1 0x80 ADD PUSH1 0x40 MSTORE DUP1 PUSH1 0x54 DUP2 MSTORE PUSH1 0x20 ADD PUSH2 0x4444 PUSH1 0x54 SWAP2 CODECOPY DUP2 MSTORE POP SWAP3 POP DUP1 MLOAD PUSH8 0xFFFFFFFFFFFFFFFF DUP2 GT ISZERO PUSH2 0x1EB0 JUMPI PUSH2 0x1EAF PUSH2 0x29A6 JUMP JUMPDEST JUMPDEST PUSH1 0x40 MLOAD SWAP1 DUP1 DUP3 MSTORE DUP1 PUSH1 0x20 MUL PUSH1 0x20 ADD DUP3 ADD PUSH1 0x40 MSTORE DUP1 ISZERO PUSH2 0x1EE3 JUMPI DUP2 PUSH1 0x20 ADD JUMPDEST PUSH1 0x60 DUP2 MSTORE PUSH1 0x20 ADD SWAP1 PUSH1 0x1 SWAP1 SUB SWAP1 DUP2 PUSH2 0x1ECE JUMPI SWAP1 POP JUMPDEST POP SWAP6 POP DUP1 MLOAD PUSH8 0xFFFFFFFFFFFFFFFF DUP2 GT ISZERO PUSH2 0x1F01 JUMPI PUSH2 0x1F00 PUSH2 0x29A6 JUMP JUMPDEST JUMPDEST PUSH1 0x40 MLOAD SWAP1 DUP1 DUP3 MSTORE DUP1 PUSH1 0x20 MUL PUSH1 0x20 ADD DUP3 ADD PUSH1 0x40 MSTORE DUP1 ISZERO PUSH2 0x1F34 JUMPI DUP2 PUSH1 0x20 ADD JUMPDEST PUSH1 0x60 DUP2 MSTORE PUSH1 0x20 ADD SWAP1 PUSH1 0x1 SWAP1 SUB SWAP1 DUP2 PUSH2 0x1F1F JUMPI SWAP1 POP JUMPDEST POP SWAP4 POP DUP1 MLOAD PUSH8 0xFFFFFFFFFFFFFFFF DUP2 GT ISZERO PUSH2 0x1F52 JUMPI PUSH2 0x1F51 PUSH2 0x29A6 JUMP JUMPDEST JUMPDEST PUSH1 0x40 MLOAD SWAP1 DUP1 DUP3 MSTORE DUP1 PUSH1 0x20 MUL PUSH1 0x20 ADD DUP3 ADD PUSH1 0x40 MSTORE DUP1 ISZERO PUSH2 0x1F85 JUMPI DUP2 PUSH1 0x20 ADD JUMPDEST PUSH1 0x60 DUP2 MSTORE PUSH1 0x20 ADD SWAP1 PUSH1 0x1 SWAP1 SUB SWAP1 DUP2 PUSH2 0x1F70 JUMPI SWAP1 POP JUMPDEST POP SWAP2 POP PUSH1 0x0 JUMPDEST DUP2 MLOAD DUP2 LT ISZERO PUSH2 0x22C9 JUMPI DUP2 DUP2 DUP2 MLOAD DUP2 LT PUSH2 0x1FA7 JUMPI PUSH2 0x1FA6 PUSH2 0x364D JUMP JUMPDEST JUMPDEST PUSH1 0x20 MUL PUSH1 0x20 ADD ADD MLOAD PUSH1 0x0 ADD MLOAD DUP10 DUP3 DUP2 MLOAD DUP2 LT PUSH2 0x1FC6 JUMPI PUSH2 0x1FC5 PUSH2 0x364D JUMP JUMPDEST JUMPDEST PUSH1 0x20 MUL PUSH1 0x20 ADD ADD DUP2 SWAP1 MSTORE POP PUSH1 0xE PUSH8 0xFFFFFFFFFFFFFFFF DUP2 GT ISZERO PUSH2 0x1FEC JUMPI PUSH2 0x1FEB PUSH2 0x29A6 JUMP JUMPDEST JUMPDEST PUSH1 0x40 MLOAD SWAP1 DUP1 DUP3 MSTORE DUP1 PUSH1 0x20 MUL PUSH1 0x20 ADD DUP3 ADD PUSH1 0x40 MSTORE DUP1 ISZERO PUSH2 0x201A JUMPI DUP2 PUSH1 0x20 ADD PUSH1 0x20 DUP3 MUL DUP1 CALLDATASIZE DUP4 CALLDATACOPY DUP1 DUP3 ADD SWAP2 POP POP SWAP1 POP JUMPDEST POP DUP8 DUP3 DUP2 MLOAD DUP2 LT PUSH2 0x202E JUMPI PUSH2 0x202D PUSH2 0x364D JUMP JUMPDEST JUMPDEST PUSH1 0x20 MUL PUSH1 0x20 ADD ADD DUP2 SWAP1 MSTORE POP PUSH1 0x4 PUSH8 0xFFFFFFFFFFFFFFFF DUP2 GT ISZERO PUSH2 0x2054 JUMPI PUSH2 0x2053 PUSH2 0x29A6 JUMP JUMPDEST JUMPDEST PUSH1 0x40 MLOAD SWAP1 DUP1 DUP3 MSTORE DUP1 PUSH1 0x20 MUL PUSH1 0x20 ADD DUP3 ADD PUSH1 0x40 MSTORE DUP1 ISZERO PUSH2 0x2082 JUMPI DUP2 PUSH1 0x20 ADD PUSH1 0x20 DUP3 MUL DUP1 CALLDATASIZE DUP4 CALLDATACOPY DUP1 DUP3 ADD SWAP2 POP POP SWAP1 POP JUMPDEST POP DUP6 DUP3 DUP2 MLOAD DUP2 LT PUSH2 0x2096 JUMPI PUSH2 0x2095 PUSH2 0x364D JUMP JUMPDEST JUMPDEST PUSH1 0x20 MUL PUSH1 0x20 ADD ADD DUP2 SWAP1 MSTORE POP PUSH1 0x8 PUSH8 0xFFFFFFFFFFFFFFFF DUP2 GT ISZERO PUSH2 0x20BC JUMPI PUSH2 0x20BB PUSH2 0x29A6 JUMP JUMPDEST JUMPDEST PUSH1 0x40 MLOAD SWAP1 DUP1 DUP3 MSTORE DUP1 PUSH1 0x20 MUL PUSH1 0x20 ADD DUP3 ADD PUSH1 0x40 MSTORE DUP1 ISZERO PUSH2 0x20EA JUMPI DUP2 PUSH1 0x20 ADD PUSH1 0x20 DUP3 MUL DUP1 CALLDATASIZE DUP4 CALLDATACOPY DUP1 DUP3 ADD SWAP2 POP POP SWAP1 POP JUMPDEST POP DUP4 DUP3 DUP2 MLOAD DUP2 LT PUSH2 0x20FE JUMPI PUSH2 0x20FD PUSH2 0x364D JUMP JUMPDEST JUMPDEST PUSH1 0x20 MUL PUSH1 0x20 ADD ADD DUP2 SWAP1 MSTORE POP PUSH1 0x0 JUMPDEST PUSH1 0xE DUP2 LT ISZERO PUSH2 0x2197 JUMPI PUSH1 0x2 DUP10 DUP3 PUSH1 0xE DUP2 LT PUSH2 0x212A JUMPI PUSH2 0x2129 PUSH2 0x364D JUMP JUMPDEST JUMPDEST PUSH1 0x20 MUL ADD MLOAD PUSH1 0x40 MLOAD PUSH2 0x213C SWAP2 SWAP1 PUSH2 0x37C7 JUMP JUMPDEST SWAP1 DUP2 MSTORE PUSH1 0x20 ADD PUSH1 0x40 MLOAD DUP1 SWAP2 SUB SWAP1 KECCAK256 SLOAD DUP9 DUP4 DUP2 MLOAD DUP2 LT PUSH2 0x215E JUMPI PUSH2 0x215D PUSH2 0x364D JUMP JUMPDEST JUMPDEST PUSH1 0x20 MUL PUSH1 0x20 ADD ADD MLOAD DUP3 DUP2 MLOAD DUP2 LT PUSH2 0x2178 JUMPI PUSH2 0x2177 PUSH2 0x364D JUMP JUMPDEST JUMPDEST PUSH1 0x20 MUL PUSH1 0x20 ADD ADD DUP2 DUP2 MSTORE POP POP DUP1 DUP1 PUSH2 0x218F SWAP1 PUSH2 0x3879 JUMP JUMPDEST SWAP2 POP POP PUSH2 0x210C JUMP JUMPDEST POP PUSH1 0x0 JUMPDEST PUSH1 0x4 DUP2 LT ISZERO PUSH2 0x2226 JUMPI PUSH1 0x3 DUP8 DUP3 PUSH1 0x4 DUP2 LT PUSH2 0x21B9 JUMPI PUSH2 0x21B8 PUSH2 0x364D JUMP JUMPDEST JUMPDEST PUSH1 0x20 MUL ADD MLOAD PUSH1 0x40 MLOAD PUSH2 0x21CB SWAP2 SWAP1 PUSH2 0x37C7 JUMP JUMPDEST SWAP1 DUP2 MSTORE PUSH1 0x20 ADD PUSH1 0x40 MLOAD DUP1 SWAP2 SUB SWAP1 KECCAK256 SLOAD DUP7 DUP4 DUP2 MLOAD DUP2 LT PUSH2 0x21ED JUMPI PUSH2 0x21EC PUSH2 0x364D JUMP JUMPDEST JUMPDEST PUSH1 0x20 MUL PUSH1 0x20 ADD ADD MLOAD DUP3 DUP2 MLOAD DUP2 LT PUSH2 0x2207 JUMPI PUSH2 0x2206 PUSH2 0x364D JUMP JUMPDEST JUMPDEST PUSH1 0x20 MUL PUSH1 0x20 ADD ADD DUP2 DUP2 MSTORE POP POP DUP1 DUP1 PUSH2 0x221E SWAP1 PUSH2 0x3879 JUMP JUMPDEST SWAP2 POP POP PUSH2 0x219B JUMP JUMPDEST POP PUSH1 0x0 JUMPDEST PUSH1 0x8 DUP2 LT ISZERO PUSH2 0x22B5 JUMPI PUSH1 0x4 DUP6 DUP3 PUSH1 0x8 DUP2 LT PUSH2 0x2248 JUMPI PUSH2 0x2247 PUSH2 0x364D JUMP JUMPDEST JUMPDEST PUSH1 0x20 MUL ADD MLOAD PUSH1 0x40 MLOAD PUSH2 0x225A SWAP2 SWAP1 PUSH2 0x37C7 JUMP JUMPDEST SWAP1 DUP2 MSTORE PUSH1 0x20 ADD PUSH1 0x40 MLOAD DUP1 SWAP2 SUB SWAP1 KECCAK256 SLOAD DUP5 DUP4 DUP2 MLOAD DUP2 LT PUSH2 0x227C JUMPI PUSH2 0x227B PUSH2 0x364D JUMP JUMPDEST JUMPDEST PUSH1 0x20 MUL PUSH1 0x20 ADD ADD MLOAD DUP3 DUP2 MLOAD DUP2 LT PUSH2 0x2296 JUMPI PUSH2 0x2295 PUSH2 0x364D JUMP JUMPDEST JUMPDEST PUSH1 0x20 MUL PUSH1 0x20 ADD ADD DUP2 DUP2 MSTORE POP POP DUP1 DUP1 PUSH2 0x22AD SWAP1 PUSH2 0x3879 JUMP JUMPDEST SWAP2 POP POP PUSH2 0x222A JUMP JUMPDEST POP DUP1 DUP1 PUSH2 0x22C1 SWAP1 PUSH2 0x3879 JUMP JUMPDEST SWAP2 POP POP PUSH2 0x1F8B JUMP JUMPDEST POP POP SWAP3 SWAP6 SWAP9 SWAP2 SWAP5 SWAP8 POP SWAP3 SWAP6 POP JUMP JUMPDEST PUSH1 0x0 DUP1 PUSH1 0x1 DUP1 SLOAD SWAP1 POP GT PUSH2 0x2320 JUMPI PUSH1 0x40 MLOAD PUSH32 0x8C379A000000000000000000000000000000000000000000000000000000000 DUP2 MSTORE PUSH1 0x4 ADD PUSH2 0x2317 SWAP1 PUSH2 0x416E JUMP JUMPDEST PUSH1 0x40 MLOAD DUP1 SWAP2 SUB SWAP1 REVERT JUMPDEST PUSH1 0x1 DUP1 DUP1 DUP1 SLOAD SWAP1 POP PUSH2 0x2332 SWAP2 SWAP1 PUSH2 0x38C1 JUMP JUMPDEST DUP2 SLOAD DUP2 LT PUSH2 0x2343 JUMPI PUSH2 0x2342 PUSH2 0x364D JUMP JUMPDEST JUMPDEST SWAP1 PUSH1 0x0 MSTORE PUSH1 0x20 PUSH1 0x0 KECCAK256 SWAP1 PUSH1 0x4 MUL ADD PUSH1 0x2 ADD SLOAD SWAP1 POP SWAP1 JUMP JUMPDEST PUSH1 0x2 DUP2 DUP1 MLOAD PUSH1 0x20 DUP2 ADD DUP3 ADD DUP1 MLOAD DUP5 DUP3 MSTORE PUSH1 0x20 DUP4 ADD PUSH1 0x20 DUP6 ADD KECCAK256 DUP2 DUP4 MSTORE DUP1 SWAP6 POP POP POP POP POP POP PUSH1 0x0 SWAP2 POP SWAP1 POP SLOAD DUP2 JUMP JUMPDEST PUSH1 0x0 JUMPDEST DUP3 MLOAD DUP2 LT ISZERO PUSH2 0x23F6 JUMPI DUP2 PUSH1 0x2 DUP5 DUP4 DUP2 MLOAD DUP2 LT PUSH2 0x23AA JUMPI PUSH2 0x23A9 PUSH2 0x364D JUMP JUMPDEST JUMPDEST PUSH1 0x20 MUL PUSH1 0x20 ADD ADD MLOAD PUSH1 0x40 MLOAD PUSH2 0x23BF SWAP2 SWAP1 PUSH2 0x37C7 JUMP JUMPDEST SWAP1 DUP2 MSTORE PUSH1 0x20 ADD PUSH1 0x40 MLOAD DUP1 SWAP2 SUB SWAP1 KECCAK256 PUSH1 0x0 DUP3 DUP3 SLOAD PUSH2 0x23DC SWAP2 SWAP1 PUSH2 0x3CBB JUMP JUMPDEST SWAP3 POP POP DUP2 SWAP1 SSTORE POP DUP1 DUP1 PUSH2 0x23EE SWAP1 PUSH2 0x3879 JUMP JUMPDEST SWAP2 POP POP PUSH2 0x238B JUMP JUMPDEST POP POP POP JUMP JUMPDEST PUSH1 0x0 JUMPDEST DUP3 MLOAD DUP2 LT ISZERO PUSH2 0x2469 JUMPI DUP2 PUSH1 0x3 DUP5 DUP4 DUP2 MLOAD DUP2 LT PUSH2 0x241D JUMPI PUSH2 0x241C PUSH2 0x364D JUMP JUMPDEST JUMPDEST PUSH1 0x20 MUL PUSH1 0x20 ADD ADD MLOAD PUSH1 0x40 MLOAD PUSH2 0x2432 SWAP2 SWAP1 PUSH2 0x37C7 JUMP JUMPDEST SWAP1 DUP2 MSTORE PUSH1 0x20 ADD PUSH1 0x40 MLOAD DUP1 SWAP2 SUB SWAP1 KECCAK256 PUSH1 0x0 DUP3 DUP3 SLOAD PUSH2 0x244F SWAP2 SWAP1 PUSH2 0x3CBB JUMP JUMPDEST SWAP3 POP POP DUP2 SWAP1 SSTORE POP DUP1 DUP1 PUSH2 0x2461 SWAP1 PUSH2 0x3879 JUMP JUMPDEST SWAP2 POP POP PUSH2 0x23FE JUMP JUMPDEST POP POP POP JUMP JUMPDEST PUSH1 0x0 PUSH1 0x64 DUP3 PUSH1 0xC0 ADD MLOAD DUP4 PUSH1 0x60 ADD MLOAD DUP5 PUSH1 0x40 ADD MLOAD PUSH2 0x248B SWAP2 SWAP1 PUSH2 0x38C1 JUMP JUMPDEST PUSH2 0x2495 SWAP2 SWAP1 PUSH2 0x3B92 JUMP JUMPDEST PUSH2 0x249F SWAP2 SWAP1 PUSH2 0x3C03 JUMP JUMPDEST SWAP1 POP PUSH1 0x0 PUSH1 0x2 PUSH8 0xFFFFFFFFFFFFFFFF DUP2 GT ISZERO PUSH2 0x24BE JUMPI PUSH2 0x24BD PUSH2 0x29A6 JUMP JUMPDEST JUMPDEST PUSH1 0x40 MLOAD SWAP1 DUP1 DUP3 MSTORE DUP1 PUSH1 0x20 MUL PUSH1 0x20 ADD DUP3 ADD PUSH1 0x40 MSTORE DUP1 ISZERO PUSH2 0x24F1 JUMPI DUP2 PUSH1 0x20 ADD JUMPDEST PUSH1 0x60 DUP2 MSTORE PUSH1 0x20 ADD SWAP1 PUSH1 0x1 SWAP1 SUB SWAP1 DUP2 PUSH2 0x24DC JUMPI SWAP1 POP JUMPDEST POP SWAP1 POP PUSH1 0x40 MLOAD DUP1 PUSH1 0xA0 ADD PUSH1 0x40 MSTORE DUP1 PUSH1 0x71 DUP2 MSTORE PUSH1 0x20 ADD PUSH2 0x494E PUSH1 0x71 SWAP2 CODECOPY DUP2 PUSH1 0x0 DUP2 MLOAD DUP2 LT PUSH2 0x2521 JUMPI PUSH2 0x2520 PUSH2 0x364D JUMP JUMPDEST JUMPDEST PUSH1 0x20 MUL PUSH1 0x20 ADD ADD DUP2 SWAP1 MSTORE POP PUSH1 0x40 MLOAD DUP1 PUSH1 0xA0 ADD PUSH1 0x40 MSTORE DUP1 PUSH1 0x80 DUP2 MSTORE PUSH1 0x20 ADD PUSH2 0x4392 PUSH1 0x80 SWAP2 CODECOPY DUP2 PUSH1 0x1 DUP2 MLOAD DUP2 LT PUSH2 0x2559 JUMPI PUSH2 0x2558 PUSH2 0x364D JUMP JUMPDEST JUMPDEST PUSH1 0x20 MUL PUSH1 0x20 ADD ADD DUP2 SWAP1 MSTORE POP PUSH2 0x256E DUP2 DUP4 PUSH2 0x2850 JUMP JUMPDEST PUSH1 0x0 DUP4 PUSH1 0x60 ADD MLOAD DUP5 PUSH1 0x40 ADD MLOAD PUSH2 0x2584 SWAP2 SWAP1 PUSH2 0x38C1 JUMP JUMPDEST SWAP1 POP DUP1 PUSH1 0x4 PUSH1 0x40 MLOAD PUSH2 0x2595 SWAP1 PUSH2 0x424C JUMP JUMPDEST SWAP1 DUP2 MSTORE PUSH1 0x20 ADD PUSH1 0x40 MLOAD DUP1 SWAP2 SUB SWAP1 KECCAK256 PUSH1 0x0 DUP3 DUP3 SLOAD PUSH2 0x25B2 SWAP2 SWAP1 PUSH2 0x3CBB JUMP JUMPDEST SWAP3 POP POP DUP2 SWAP1 SSTORE POP PUSH1 0x0 PUSH1 0x64 DUP6 PUSH1 0xC0 ADD MLOAD DUP7 PUSH1 0x80 ADD MLOAD DUP8 PUSH1 0x60 ADD MLOAD PUSH2 0x25D6 SWAP2 SWAP1 PUSH2 0x3B5E JUMP JUMPDEST PUSH2 0x25E0 SWAP2 SWAP1 PUSH2 0x3B92 JUMP JUMPDEST PUSH2 0x25EA SWAP2 SWAP1 PUSH2 0x3C03 JUMP JUMPDEST SWAP1 POP PUSH1 0x0 PUSH1 0x2 PUSH8 0xFFFFFFFFFFFFFFFF DUP2 GT ISZERO PUSH2 0x2609 JUMPI PUSH2 0x2608 PUSH2 0x29A6 JUMP JUMPDEST JUMPDEST PUSH1 0x40 MLOAD SWAP1 DUP1 DUP3 MSTORE DUP1 PUSH1 0x20 MUL PUSH1 0x20 ADD DUP3 ADD PUSH1 0x40 MSTORE DUP1 ISZERO PUSH2 0x263C JUMPI DUP2 PUSH1 0x20 ADD JUMPDEST PUSH1 0x60 DUP2 MSTORE PUSH1 0x20 ADD SWAP1 PUSH1 0x1 SWAP1 SUB SWAP1 DUP2 PUSH2 0x2627 JUMPI SWAP1 POP JUMPDEST POP SWAP1 POP PUSH1 0x40 MLOAD DUP1 PUSH1 0xC0 ADD PUSH1 0x40 MSTORE DUP1 PUSH1 0x83 DUP2 MSTORE PUSH1 0x20 ADD PUSH2 0x48CB PUSH1 0x83 SWAP2 CODECOPY DUP2 PUSH1 0x0 DUP2 MLOAD DUP2 LT PUSH2 0x266C JUMPI PUSH2 0x266B PUSH2 0x364D JUMP JUMPDEST JUMPDEST PUSH1 0x20 MUL PUSH1 0x20 ADD ADD DUP2 SWAP1 MSTORE POP PUSH1 0x40 MLOAD DUP1 PUSH1 0xC0 ADD PUSH1 0x40 MSTORE DUP1 PUSH1 0x92 DUP2 MSTORE PUSH1 0x20 ADD PUSH2 0x4839 PUSH1 0x92 SWAP2 CODECOPY DUP2 PUSH1 0x1 DUP2 MLOAD DUP2 LT PUSH2 0x26A4 JUMPI PUSH2 0x26A3 PUSH2 0x364D JUMP JUMPDEST JUMPDEST PUSH1 0x20 MUL PUSH1 0x20 ADD ADD DUP2 SWAP1 MSTORE POP PUSH2 0x26B9 DUP2 DUP4 PUSH2 0x2850 JUMP JUMPDEST PUSH1 0x0 DUP7 PUSH1 0x60 ADD MLOAD DUP8 PUSH1 0x40 ADD MLOAD PUSH2 0x26CF SWAP2 SWAP1 PUSH2 0x38C1 JUMP JUMPDEST SWAP1 POP DUP1 PUSH1 0x4 PUSH1 0x40 MLOAD PUSH2 0x26E0 SWAP1 PUSH2 0x4345 JUMP JUMPDEST SWAP1 DUP2 MSTORE PUSH1 0x20 ADD PUSH1 0x40 MLOAD DUP1 SWAP2 SUB SWAP1 KECCAK256 PUSH1 0x0 DUP3 DUP3 SLOAD PUSH2 0x26FD SWAP2 SWAP1 PUSH2 0x3CBB JUMP JUMPDEST SWAP3 POP POP DUP2 SWAP1 SSTORE POP PUSH1 0x0 PUSH1 0x64 DUP9 PUSH1 0xC0 ADD MLOAD DUP10 PUSH1 0x80 ADD MLOAD DUP11 PUSH1 0x40 ADD MLOAD PUSH2 0x2721 SWAP2 SWAP1 PUSH2 0x3B5E JUMP JUMPDEST PUSH2 0x272B SWAP2 SWAP1 PUSH2 0x3B92 JUMP JUMPDEST PUSH2 0x2735 SWAP2 SWAP1 PUSH2 0x3C03 JUMP JUMPDEST SWAP1 POP PUSH1 0x0 PUSH1 0x2 PUSH8 0xFFFFFFFFFFFFFFFF DUP2 GT ISZERO PUSH2 0x2754 JUMPI PUSH2 0x2753 PUSH2 0x29A6 JUMP JUMPDEST JUMPDEST PUSH1 0x40 MLOAD SWAP1 DUP1 DUP3 MSTORE DUP1 PUSH1 0x20 MUL PUSH1 0x20 ADD DUP3 ADD PUSH1 0x40 MSTORE DUP1 ISZERO PUSH2 0x2787 JUMPI DUP2 PUSH1 0x20 ADD JUMPDEST PUSH1 0x60 DUP2 MSTORE PUSH1 0x20 ADD SWAP1 PUSH1 0x1 SWAP1 SUB SWAP1 DUP2 PUSH2 0x2772 JUMPI SWAP1 POP JUMPDEST POP SWAP1 POP PUSH1 0x40 MLOAD DUP1 PUSH1 0x80 ADD PUSH1 0x40 MSTORE DUP1 PUSH1 0x44 DUP2 MSTORE PUSH1 0x20 ADD PUSH2 0x453F PUSH1 0x44 SWAP2 CODECOPY DUP2 PUSH1 0x0 DUP2 MLOAD DUP2 LT PUSH2 0x27B7 JUMPI PUSH2 0x27B6 PUSH2 0x364D JUMP JUMPDEST JUMPDEST PUSH1 0x20 MUL PUSH1 0x20 ADD ADD DUP2 SWAP1 MSTORE POP PUSH1 0x40 MLOAD DUP1 PUSH1 0x80 ADD PUSH1 0x40 MSTORE DUP1 PUSH1 0x54 DUP2 MSTORE PUSH1 0x20 ADD PUSH2 0x4444 PUSH1 0x54 SWAP2 CODECOPY DUP2 PUSH1 0x1 DUP2 MLOAD DUP2 LT PUSH2 0x27EF JUMPI PUSH2 0x27EE PUSH2 0x364D JUMP JUMPDEST JUMPDEST PUSH1 0x20 MUL PUSH1 0x20 ADD ADD DUP2 SWAP1 MSTORE POP PUSH2 0x2804 DUP2 DUP4 PUSH2 0x2850 JUMP JUMPDEST PUSH32 0xA26BDD521074FE90072FBBAD03F6CCCBC67A863F014B3F6AFA31EFA7E026EE4A DUP10 PUSH1 0x0 ADD MLOAD DUP11 PUSH1 0x20 ADD MLOAD PUSH1 0x40 MLOAD PUSH2 0x283D SWAP3 SWAP2 SWAP1 PUSH2 0x435A JUMP JUMPDEST PUSH1 0x40 MLOAD DUP1 SWAP2 SUB SWAP1 LOG1 POP POP POP POP POP POP POP POP POP JUMP JUMPDEST PUSH1 0x0 JUMPDEST DUP3 MLOAD DUP2 LT ISZERO PUSH2 0x28BE JUMPI DUP2 PUSH1 0x4 DUP5 DUP4 DUP2 MLOAD DUP2 LT PUSH2 0x2872 JUMPI PUSH2 0x2871 PUSH2 0x364D JUMP JUMPDEST JUMPDEST PUSH1 0x20 MUL PUSH1 0x20 ADD ADD MLOAD PUSH1 0x40 MLOAD PUSH2 0x2887 SWAP2 SWAP1 PUSH2 0x37C7 JUMP JUMPDEST SWAP1 DUP2 MSTORE PUSH1 0x20 ADD PUSH1 0x40 MLOAD DUP1 SWAP2 SUB SWAP1 KECCAK256 PUSH1 0x0 DUP3 DUP3 SLOAD PUSH2 0x28A4 SWAP2 SWAP1 PUSH2 0x3CBB JUMP JUMPDEST SWAP3 POP POP DUP2 SWAP1 SSTORE POP DUP1 DUP1 PUSH2 0x28B6 SWAP1 PUSH2 0x3879 JUMP JUMPDEST SWAP2 POP POP PUSH2 0x2853 JUMP JUMPDEST POP POP POP JUMP JUMPDEST PUSH1 0x40 MLOAD DUP1 PUSH1 0xE0 ADD PUSH1 0x40 MSTORE DUP1 PUSH1 0x60 DUP2 MSTORE PUSH1 0x20 ADD PUSH1 0x60 DUP2 MSTORE PUSH1 0x20 ADD PUSH1 0x0 DUP2 MSTORE PUSH1 0x20 ADD PUSH1 0x0 DUP2 MSTORE PUSH1 0x20 ADD PUSH1 0x0 DUP2 MSTORE PUSH1 0x20 ADD PUSH1 0x0 DUP2 MSTORE PUSH1 0x20 ADD PUSH1 0x0 DUP2 MSTORE POP SWAP1 JUMP JUMPDEST PUSH1 0x40 MLOAD DUP1 PUSH2 0x1C0 ADD PUSH1 0x40 MSTORE DUP1 PUSH1 0xE SWAP1 JUMPDEST PUSH1 0x60 DUP2 MSTORE PUSH1 0x20 ADD SWAP1 PUSH1 0x1 SWAP1 SUB SWAP1 DUP2 PUSH2 0x2910 JUMPI SWAP1 POP POP SWAP1 JUMP JUMPDEST PUSH1 0x40 MLOAD DUP1 PUSH1 0x80 ADD PUSH1 0x40 MSTORE DUP1 PUSH1 0x4 SWAP1 JUMPDEST PUSH1 0x60 DUP2 MSTORE PUSH1 0x20 ADD SWAP1 PUSH1 0x1 SWAP1 SUB SWAP1 DUP2 PUSH2 0x2937 JUMPI SWAP1 POP POP SWAP1 JUMP JUMPDEST PUSH1 0x40 MLOAD DUP1 PUSH2 0x100 ADD PUSH1 0x40 MSTORE DUP1 PUSH1 0x8 SWAP1 JUMPDEST PUSH1 0x60 DUP2 MSTORE PUSH1 0x20 ADD SWAP1 PUSH1 0x1 SWAP1 SUB SWAP1 DUP2 PUSH2 0x295F JUMPI SWAP1 POP POP SWAP1 JUMP JUMPDEST PUSH1 0x0 PUSH1 0x40 MLOAD SWAP1 POP SWAP1 JUMP JUMPDEST PUSH1 0x0 DUP1 REVERT JUMPDEST PUSH1 0x0 DUP1 REVERT JUMPDEST PUSH1 0x0 DUP1 REVERT JUMPDEST PUSH1 0x0 DUP1 REVERT JUMPDEST PUSH1 0x0 PUSH1 0x1F NOT PUSH1 0x1F DUP4 ADD AND SWAP1 POP SWAP2 SWAP1 POP JUMP JUMPDEST PUSH32 0x4E487B7100000000000000000000000000000000000000000000000000000000 PUSH1 0x0 MSTORE PUSH1 0x41 PUSH1 0x4 MSTORE PUSH1 0x24 PUSH1 0x0 REVERT JUMPDEST PUSH2 0x29DE DUP3 PUSH2 0x2995 JUMP JUMPDEST DUP2 ADD DUP2 DUP2 LT PUSH8 0xFFFFFFFFFFFFFFFF DUP3 GT OR ISZERO PUSH2 0x29FD JUMPI PUSH2 0x29FC PUSH2 0x29A6 JUMP JUMPDEST JUMPDEST DUP1 PUSH1 0x40 MSTORE POP POP POP JUMP JUMPDEST PUSH1 0x0 PUSH2 0x2A10 PUSH2 0x2977 JUMP JUMPDEST SWAP1 POP PUSH2 0x2A1C DUP3 DUP3 PUSH2 0x29D5 JUMP JUMPDEST SWAP2 SWAP1 POP JUMP JUMPDEST PUSH1 0x0 PUSH8 0xFFFFFFFFFFFFFFFF DUP3 GT ISZERO PUSH2 0x2A3C JUMPI PUSH2 0x2A3B PUSH2 0x29A6 JUMP JUMPDEST JUMPDEST PUSH2 0x2A45 DUP3 PUSH2 0x2995 JUMP JUMPDEST SWAP1 POP PUSH1 0x20 DUP2 ADD SWAP1 POP SWAP2 SWAP1 POP JUMP JUMPDEST DUP3 DUP2 DUP4 CALLDATACOPY PUSH1 0x0 DUP4 DUP4 ADD MSTORE POP POP POP JUMP JUMPDEST PUSH1 0x0 PUSH2 0x2A74 PUSH2 0x2A6F DUP5 PUSH2 0x2A21 JUMP JUMPDEST PUSH2 0x2A06 JUMP JUMPDEST SWAP1 POP DUP3 DUP2 MSTORE PUSH1 0x20 DUP2 ADD DUP5 DUP5 DUP5 ADD GT ISZERO PUSH2 0x2A90 JUMPI PUSH2 0x2A8F PUSH2 0x2990 JUMP JUMPDEST JUMPDEST PUSH2 0x2A9B DUP5 DUP3 DUP6 PUSH2 0x2A52 JUMP JUMPDEST POP SWAP4 SWAP3 POP POP POP JUMP JUMPDEST PUSH1 0x0 DUP3 PUSH1 0x1F DUP4 ADD SLT PUSH2 0x2AB8 JUMPI PUSH2 0x2AB7 PUSH2 0x298B JUMP JUMPDEST JUMPDEST DUP2 CALLDATALOAD PUSH2 0x2AC8 DUP5 DUP3 PUSH1 0x20 DUP7 ADD PUSH2 0x2A61 JUMP JUMPDEST SWAP2 POP POP SWAP3 SWAP2 POP POP JUMP JUMPDEST PUSH1 0x0 DUP2 SWAP1 POP SWAP2 SWAP1 POP JUMP JUMPDEST PUSH2 0x2AE4 DUP2 PUSH2 0x2AD1 JUMP JUMPDEST DUP2 EQ PUSH2 0x2AEF JUMPI PUSH1 0x0 DUP1 REVERT JUMPDEST POP JUMP JUMPDEST PUSH1 0x0 DUP2 CALLDATALOAD SWAP1 POP PUSH2 0x2B01 DUP2 PUSH2 0x2ADB JUMP JUMPDEST SWAP3 SWAP2 POP POP JUMP JUMPDEST PUSH1 0x0 DUP1 PUSH1 0x0 DUP1 PUSH1 0x0 DUP1 PUSH1 0xC0 DUP8 DUP10 SUB SLT ISZERO PUSH2 0x2B24 JUMPI PUSH2 0x2B23 PUSH2 0x2981 JUMP JUMPDEST JUMPDEST PUSH1 0x0 DUP8 ADD CALLDATALOAD PUSH8 0xFFFFFFFFFFFFFFFF DUP2 GT ISZERO PUSH2 0x2B42 JUMPI PUSH2 0x2B41 PUSH2 0x2986 JUMP JUMPDEST JUMPDEST PUSH2 0x2B4E DUP10 DUP3 DUP11 ADD PUSH2 0x2AA3 JUMP JUMPDEST SWAP7 POP POP PUSH1 0x20 DUP8 ADD CALLDATALOAD PUSH8 0xFFFFFFFFFFFFFFFF DUP2 GT ISZERO PUSH2 0x2B6F JUMPI PUSH2 0x2B6E PUSH2 0x2986 JUMP JUMPDEST JUMPDEST PUSH2 0x2B7B DUP10 DUP3 DUP11 ADD PUSH2 0x2AA3 JUMP JUMPDEST SWAP6 POP POP PUSH1 0x40 PUSH2 0x2B8C DUP10 DUP3 DUP11 ADD PUSH2 0x2AF2 JUMP JUMPDEST SWAP5 POP POP PUSH1 0x60 PUSH2 0x2B9D DUP10 DUP3 DUP11 ADD PUSH2 0x2AF2 JUMP JUMPDEST SWAP4 POP POP PUSH1 0x80 PUSH2 0x2BAE DUP10 DUP3 DUP11 ADD PUSH2 0x2AF2 JUMP JUMPDEST SWAP3 POP POP PUSH1 0xA0 PUSH2 0x2BBF DUP10 DUP3 DUP11 ADD PUSH2 0x2AF2 JUMP JUMPDEST SWAP2 POP POP SWAP3 SWAP6 POP SWAP3 SWAP6 POP SWAP3 SWAP6 JUMP JUMPDEST PUSH2 0x2BD5 DUP2 PUSH2 0x2AD1 JUMP JUMPDEST DUP3 MSTORE POP POP JUMP JUMPDEST PUSH1 0x0 PUSH1 0x20 DUP3 ADD SWAP1 POP PUSH2 0x2BF0 PUSH1 0x0 DUP4 ADD DUP5 PUSH2 0x2BCC JUMP JUMPDEST SWAP3 SWAP2 POP POP JUMP JUMPDEST PUSH1 0x0 PUSH1 0x20 DUP3 DUP5 SUB SLT ISZERO PUSH2 0x2C0C JUMPI PUSH2 0x2C0B PUSH2 0x2981 JUMP JUMPDEST JUMPDEST PUSH1 0x0 DUP3 ADD CALLDATALOAD PUSH8 0xFFFFFFFFFFFFFFFF DUP2 GT ISZERO PUSH2 0x2C2A JUMPI PUSH2 0x2C29 PUSH2 0x2986 JUMP JUMPDEST JUMPDEST PUSH2 0x2C36 DUP5 DUP3 DUP6 ADD PUSH2 0x2AA3 JUMP JUMPDEST SWAP2 POP POP SWAP3 SWAP2 POP POP JUMP JUMPDEST PUSH1 0x0 DUP2 SWAP1 POP SWAP2 SWAP1 POP JUMP JUMPDEST PUSH2 0x2C52 DUP2 PUSH2 0x2C3F JUMP JUMPDEST DUP3 MSTORE POP POP JUMP JUMPDEST PUSH1 0x0 PUSH1 0x20 DUP3 ADD SWAP1 POP PUSH2 0x2C6D PUSH1 0x0 DUP4 ADD DUP5 PUSH2 0x2C49 JUMP JUMPDEST SWAP3 SWAP2 POP POP JUMP JUMPDEST PUSH1 0x0 DUP1 PUSH1 0x0 PUSH1 0x60 DUP5 DUP7 SUB SLT ISZERO PUSH2 0x2C8C JUMPI PUSH2 0x2C8B PUSH2 0x2981 JUMP JUMPDEST JUMPDEST PUSH1 0x0 PUSH2 0x2C9A DUP7 DUP3 DUP8 ADD PUSH2 0x2AF2 JUMP JUMPDEST SWAP4 POP POP PUSH1 0x20 PUSH2 0x2CAB DUP7 DUP3 DUP8 ADD PUSH2 0x2AF2 JUMP JUMPDEST SWAP3 POP POP PUSH1 0x40 PUSH2 0x2CBC DUP7 DUP3 DUP8 ADD PUSH2 0x2AF2 JUMP JUMPDEST SWAP2 POP POP SWAP3 POP SWAP3 POP SWAP3 JUMP JUMPDEST PUSH1 0x0 PUSH1 0x20 DUP3 DUP5 SUB SLT ISZERO PUSH2 0x2CDC JUMPI PUSH2 0x2CDB PUSH2 0x2981 JUMP JUMPDEST JUMPDEST PUSH1 0x0 PUSH2 0x2CEA DUP5 DUP3 DUP6 ADD PUSH2 0x2AF2 JUMP JUMPDEST SWAP2 POP POP SWAP3 SWAP2 POP POP JUMP JUMPDEST PUSH1 0x0 PUSH1 0x80 DUP3 ADD SWAP1 POP PUSH2 0x2D08 PUSH1 0x0 DUP4 ADD DUP8 PUSH2 0x2BCC JUMP JUMPDEST PUSH2 0x2D15 PUSH1 0x20 DUP4 ADD DUP7 PUSH2 0x2BCC JUMP JUMPDEST PUSH2 0x2D22 PUSH1 0x40 DUP4 ADD DUP6 PUSH2 0x2BCC JUMP JUMPDEST PUSH2 0x2D2F PUSH1 0x60 DUP4 ADD DUP5 PUSH2 0x2BCC JUMP JUMPDEST SWAP6 SWAP5 POP POP POP POP POP JUMP JUMPDEST PUSH1 0x0 DUP1 PUSH1 0x40 DUP4 DUP6 SUB SLT ISZERO PUSH2 0x2D4F JUMPI PUSH2 0x2D4E PUSH2 0x2981 JUMP JUMPDEST JUMPDEST PUSH1 0x0 PUSH2 0x2D5D DUP6 DUP3 DUP7 ADD PUSH2 0x2AF2 JUMP JUMPDEST SWAP3 POP POP PUSH1 0x20 PUSH2 0x2D6E DUP6 DUP3 DUP7 ADD PUSH2 0x2AF2 JUMP JUMPDEST SWAP2 POP POP SWAP3 POP SWAP3 SWAP1 POP JUMP JUMPDEST PUSH1 0x0 DUP2 MLOAD SWAP1 POP SWAP2 SWAP1 POP JUMP JUMPDEST PUSH1 0x0 DUP3 DUP3 MSTORE PUSH1 0x20 DUP3 ADD SWAP1 POP SWAP3 SWAP2 POP POP JUMP JUMPDEST PUSH1 0x0 DUP2 SWAP1 POP PUSH1 0x20 DUP3 ADD SWAP1 POP SWAP2 SWAP1 POP JUMP JUMPDEST PUSH1 0x0 DUP2 MLOAD SWAP1 POP SWAP2 SWAP1 POP JUMP JUMPDEST PUSH1 0x0 DUP3 DUP3 MSTORE PUSH1 0x20 DUP3 ADD SWAP1 POP SWAP3 SWAP2 POP POP JUMP JUMPDEST PUSH1 0x0 JUMPDEST DUP4 DUP2 LT ISZERO PUSH2 0x2DDE JUMPI DUP1 DUP3 ADD MLOAD DUP2 DUP5 ADD MSTORE PUSH1 0x20 DUP2 ADD SWAP1 POP PUSH2 0x2DC3 JUMP JUMPDEST PUSH1 0x0 DUP5 DUP5 ADD MSTORE POP POP POP POP JUMP JUMPDEST PUSH1 0x0 PUSH2 0x2DF5 DUP3 PUSH2 0x2DA4 JUMP JUMPDEST PUSH2 0x2DFF DUP2 DUP6 PUSH2 0x2DAF JUMP JUMPDEST SWAP4 POP PUSH2 0x2E0F DUP2 DUP6 PUSH1 0x20 DUP7 ADD PUSH2 0x2DC0 JUMP JUMPDEST PUSH2 0x2E18 DUP2 PUSH2 0x2995 JUMP JUMPDEST DUP5 ADD SWAP2 POP POP SWAP3 SWAP2 POP POP JUMP JUMPDEST PUSH2 0x2E2C DUP2 PUSH2 0x2AD1 JUMP JUMPDEST DUP3 MSTORE POP POP JUMP JUMPDEST PUSH1 0x0 PUSH1 0xE0 DUP4 ADD PUSH1 0x0 DUP4 ADD MLOAD DUP5 DUP3 SUB PUSH1 0x0 DUP7 ADD MSTORE PUSH2 0x2E4F DUP3 DUP3 PUSH2 0x2DEA JUMP JUMPDEST SWAP2 POP POP PUSH1 0x20 DUP4 ADD MLOAD DUP5 DUP3 SUB PUSH1 0x20 DUP7 ADD MSTORE PUSH2 0x2E69 DUP3 DUP3 PUSH2 0x2DEA JUMP JUMPDEST SWAP2 POP POP PUSH1 0x40 DUP4 ADD MLOAD PUSH2 0x2E7E PUSH1 0x40 DUP7 ADD DUP3 PUSH2 0x2E23 JUMP JUMPDEST POP PUSH1 0x60 DUP4 ADD MLOAD PUSH2 0x2E91 PUSH1 0x60 DUP7 ADD DUP3 PUSH2 0x2E23 JUMP JUMPDEST POP PUSH1 0x80 DUP4 ADD MLOAD PUSH2 0x2EA4 PUSH1 0x80 DUP7 ADD DUP3 PUSH2 0x2E23 JUMP JUMPDEST POP PUSH1 0xA0 DUP4 ADD MLOAD PUSH2 0x2EB7 PUSH1 0xA0 DUP7 ADD DUP3 PUSH2 0x2E23 JUMP JUMPDEST POP PUSH1 0xC0 DUP4 ADD MLOAD PUSH2 0x2ECA PUSH1 0xC0 DUP7 ADD DUP3 PUSH2 0x2E23 JUMP JUMPDEST POP DUP1 SWAP2 POP POP SWAP3 SWAP2 POP POP JUMP JUMPDEST PUSH1 0x0 PUSH2 0x2EE1 DUP4 DUP4 PUSH2 0x2E32 JUMP JUMPDEST SWAP1 POP SWAP3 SWAP2 POP POP JUMP JUMPDEST PUSH1 0x0 PUSH1 0x20 DUP3 ADD SWAP1 POP SWAP2 SWAP1 POP JUMP JUMPDEST PUSH1 0x0 PUSH2 0x2F01 DUP3 PUSH2 0x2D78 JUMP JUMPDEST PUSH2 0x2F0B DUP2 DUP6 PUSH2 0x2D83 JUMP JUMPDEST SWAP4 POP DUP4 PUSH1 0x20 DUP3 MUL DUP6 ADD PUSH2 0x2F1D DUP6 PUSH2 0x2D94 JUMP JUMPDEST DUP1 PUSH1 0x0 JUMPDEST DUP6 DUP2 LT ISZERO PUSH2 0x2F59 JUMPI DUP5 DUP5 SUB DUP10 MSTORE DUP2 MLOAD PUSH2 0x2F3A DUP6 DUP3 PUSH2 0x2ED5 JUMP JUMPDEST SWAP5 POP PUSH2 0x2F45 DUP4 PUSH2 0x2EE9 JUMP JUMPDEST SWAP3 POP PUSH1 0x20 DUP11 ADD SWAP10 POP POP PUSH1 0x1 DUP2 ADD SWAP1 POP PUSH2 0x2F21 JUMP JUMPDEST POP DUP3 SWAP8 POP DUP8 SWAP6 POP POP POP POP POP POP SWAP3 SWAP2 POP POP JUMP JUMPDEST PUSH1 0x0 PUSH1 0x20 DUP3 ADD SWAP1 POP DUP2 DUP2 SUB PUSH1 0x0 DUP4 ADD MSTORE PUSH2 0x2F85 DUP2 DUP5 PUSH2 0x2EF6 JUMP JUMPDEST SWAP1 POP SWAP3 SWAP2 POP POP JUMP JUMPDEST PUSH1 0x0 PUSH1 0xE0 DUP4 ADD PUSH1 0x0 DUP4 ADD MLOAD DUP5 DUP3 SUB PUSH1 0x0 DUP7 ADD MSTORE PUSH2 0x2FAA DUP3 DUP3 PUSH2 0x2DEA JUMP JUMPDEST SWAP2 POP POP PUSH1 0x20 DUP4 ADD MLOAD DUP5 DUP3 SUB PUSH1 0x20 DUP7 ADD MSTORE PUSH2 0x2FC4 DUP3 DUP3 PUSH2 0x2DEA JUMP JUMPDEST SWAP2 POP POP PUSH1 0x40 DUP4 ADD MLOAD PUSH2 0x2FD9 PUSH1 0x40 DUP7 ADD DUP3 PUSH2 0x2E23 JUMP JUMPDEST POP PUSH1 0x60 DUP4 ADD MLOAD PUSH2 0x2FEC PUSH1 0x60 DUP7 ADD DUP3 PUSH2 0x2E23 JUMP JUMPDEST POP PUSH1 0x80 DUP4 ADD MLOAD PUSH2 0x2FFF PUSH1 0x80 DUP7 ADD DUP3 PUSH2 0x2E23 JUMP JUMPDEST POP PUSH1 0xA0 DUP4 ADD MLOAD PUSH2 0x3012 PUSH1 0xA0 DUP7 ADD DUP3 PUSH2 0x2E23 JUMP JUMPDEST POP PUSH1 0xC0 DUP4 ADD MLOAD PUSH2 0x3025 PUSH1 0xC0 DUP7 ADD DUP3 PUSH2 0x2E23 JUMP JUMPDEST POP DUP1 SWAP2 POP POP SWAP3 SWAP2 POP POP JUMP JUMPDEST PUSH1 0x0 PUSH1 0x20 DUP3 ADD SWAP1 POP DUP2 DUP2 SUB PUSH1 0x0 DUP4 ADD MSTORE PUSH2 0x304A DUP2 DUP5 PUSH2 0x2F8D JUMP JUMPDEST SWAP1 POP SWAP3 SWAP2 POP POP JUMP JUMPDEST PUSH1 0x0 DUP3 DUP3 MSTORE PUSH1 0x20 DUP3 ADD SWAP1 POP SWAP3 SWAP2 POP POP JUMP JUMPDEST PUSH1 0x0 PUSH2 0x306E DUP3 PUSH2 0x2DA4 JUMP JUMPDEST PUSH2 0x3078 DUP2 DUP6 PUSH2 0x3052 JUMP JUMPDEST SWAP4 POP PUSH2 0x3088 DUP2 DUP6 PUSH1 0x20 DUP7 ADD PUSH2 0x2DC0 JUMP JUMPDEST PUSH2 0x3091 DUP2 PUSH2 0x2995 JUMP JUMPDEST DUP5 ADD SWAP2 POP POP SWAP3 SWAP2 POP POP JUMP JUMPDEST PUSH1 0x0 PUSH1 0xE0 DUP3 ADD SWAP1 POP DUP2 DUP2 SUB PUSH1 0x0 DUP4 ADD MSTORE PUSH2 0x30B6 DUP2 DUP11 PUSH2 0x3063 JUMP JUMPDEST SWAP1 POP DUP2 DUP2 SUB PUSH1 0x20 DUP4 ADD MSTORE PUSH2 0x30CA DUP2 DUP10 PUSH2 0x3063 JUMP JUMPDEST SWAP1 POP PUSH2 0x30D9 PUSH1 0x40 DUP4 ADD DUP9 PUSH2 0x2BCC JUMP JUMPDEST PUSH2 0x30E6 PUSH1 0x60 DUP4 ADD DUP8 PUSH2 0x2BCC JUMP JUMPDEST PUSH2 0x30F3 PUSH1 0x80 DUP4 ADD DUP7 PUSH2 0x2BCC JUMP JUMPDEST PUSH2 0x3100 PUSH1 0xA0 DUP4 ADD DUP6 PUSH2 0x2BCC JUMP JUMPDEST PUSH2 0x310D PUSH1 0xC0 DUP4 ADD DUP5 PUSH2 0x2BCC JUMP JUMPDEST SWAP9 SWAP8 POP POP POP POP POP POP POP POP JUMP JUMPDEST PUSH1 0x0 DUP2 MLOAD SWAP1 POP SWAP2 SWAP1 POP JUMP JUMPDEST PUSH1 0x0 DUP3 DUP3 MSTORE PUSH1 0x20 DUP3 ADD SWAP1 POP SWAP3 SWAP2 POP POP JUMP JUMPDEST PUSH1 0x0 DUP2 SWAP1 POP PUSH1 0x20 DUP3 ADD SWAP1 POP SWAP2 SWAP1 POP JUMP JUMPDEST PUSH1 0x0 PUSH2 0x3151 DUP4 DUP4 PUSH2 0x2DEA JUMP JUMPDEST SWAP1 POP SWAP3 SWAP2 POP POP JUMP JUMPDEST PUSH1 0x0 PUSH1 0x20 DUP3 ADD SWAP1 POP SWAP2 SWAP1 POP JUMP JUMPDEST PUSH1 0x0 PUSH2 0x3171 DUP3 PUSH2 0x3119 JUMP JUMPDEST PUSH2 0x317B DUP2 DUP6 PUSH2 0x3124 JUMP JUMPDEST SWAP4 POP DUP4 PUSH1 0x20 DUP3 MUL DUP6 ADD PUSH2 0x318D DUP6 PUSH2 0x3135 JUMP JUMPDEST DUP1 PUSH1 0x0 JUMPDEST DUP6 DUP2 LT ISZERO PUSH2 0x31C9 JUMPI DUP5 DUP5 SUB DUP10 MSTORE DUP2 MLOAD PUSH2 0x31AA DUP6 DUP3 PUSH2 0x3145 JUMP JUMPDEST SWAP5 POP PUSH2 0x31B5 DUP4 PUSH2 0x3159 JUMP JUMPDEST SWAP3 POP PUSH1 0x20 DUP11 ADD SWAP10 POP POP PUSH1 0x1 DUP2 ADD SWAP1 POP PUSH2 0x3191 JUMP JUMPDEST POP DUP3 SWAP8 POP DUP8 SWAP6 POP POP POP POP POP POP SWAP3 SWAP2 POP POP JUMP JUMPDEST PUSH1 0x0 PUSH1 0xE SWAP1 POP SWAP2 SWAP1 POP JUMP JUMPDEST PUSH1 0x0 DUP2 SWAP1 POP SWAP3 SWAP2 POP POP JUMP JUMPDEST PUSH1 0x0 DUP2 SWAP1 POP SWAP2 SWAP1 POP JUMP JUMPDEST PUSH1 0x0 PUSH1 0x20 DUP3 ADD SWAP1 POP SWAP2 SWAP1 POP JUMP JUMPDEST PUSH1 0x0 PUSH2 0x3213 DUP3 PUSH2 0x31DB JUMP JUMPDEST PUSH2 0x321D DUP2 DUP6 PUSH2 0x31E6 JUMP JUMPDEST SWAP4 POP DUP4 PUSH1 0x20 DUP3 MUL DUP6 ADD PUSH2 0x322F DUP6 PUSH2 0x31F1 JUMP JUMPDEST DUP1 PUSH1 0x0 JUMPDEST DUP6 DUP2 LT ISZERO PUSH2 0x326B JUMPI DUP5 DUP5 SUB DUP10 MSTORE DUP2 MLOAD PUSH2 0x324C DUP6 DUP3 PUSH2 0x3145 JUMP JUMPDEST SWAP5 POP PUSH2 0x3257 DUP4 PUSH2 0x31FB JUMP JUMPDEST SWAP3 POP PUSH1 0x20 DUP11 ADD SWAP10 POP POP PUSH1 0x1 DUP2 ADD SWAP1 POP PUSH2 0x3233 JUMP JUMPDEST POP DUP3 SWAP8 POP DUP8 SWAP6 POP POP POP POP POP POP SWAP3 SWAP2 POP POP JUMP JUMPDEST PUSH1 0x0 DUP2 MLOAD SWAP1 POP SWAP2 SWAP1 POP JUMP JUMPDEST PUSH1 0x0 DUP3 DUP3 MSTORE PUSH1 0x20 DUP3 ADD SWAP1 POP SWAP3 SWAP2 POP POP JUMP JUMPDEST PUSH1 0x0 DUP2 SWAP1 POP PUSH1 0x20 DUP3 ADD SWAP1 POP SWAP2 SWAP1 POP JUMP JUMPDEST PUSH1 0x0 DUP2 MLOAD SWAP1 POP SWAP2 SWAP1 POP JUMP JUMPDEST PUSH1 0x0 DUP3 DUP3 MSTORE PUSH1 0x20 DUP3 ADD SWAP1 POP SWAP3 SWAP2 POP POP JUMP JUMPDEST PUSH1 0x0 DUP2 SWAP1 POP PUSH1 0x20 DUP3 ADD SWAP1 POP SWAP2 SWAP1 POP JUMP JUMPDEST PUSH2 0x32DE DUP2 PUSH2 0x2C3F JUMP JUMPDEST DUP3 MSTORE POP POP JUMP JUMPDEST PUSH1 0x0 PUSH2 0x32F0 DUP4 DUP4 PUSH2 0x32D5 JUMP JUMPDEST PUSH1 0x20 DUP4 ADD SWAP1 POP SWAP3 SWAP2 POP POP JUMP JUMPDEST PUSH1 0x0 PUSH1 0x20 DUP3 ADD SWAP1 POP SWAP2 SWAP1 POP JUMP JUMPDEST PUSH1 0x0 PUSH2 0x3314 DUP3 PUSH2 0x32A9 JUMP JUMPDEST PUSH2 0x331E DUP2 DUP6 PUSH2 0x32B4 JUMP JUMPDEST SWAP4 POP PUSH2 0x3329 DUP4 PUSH2 0x32C5 JUMP JUMPDEST DUP1 PUSH1 0x0 JUMPDEST DUP4 DUP2 LT ISZERO PUSH2 0x335A JUMPI DUP2 MLOAD PUSH2 0x3341 DUP9 DUP3 PUSH2 0x32E4 JUMP JUMPDEST SWAP8 POP PUSH2 0x334C DUP4 PUSH2 0x32FC JUMP JUMPDEST SWAP3 POP POP PUSH1 0x1 DUP2 ADD SWAP1 POP PUSH2 0x332D JUMP JUMPDEST POP DUP6 SWAP4 POP POP POP POP SWAP3 SWAP2 POP POP JUMP JUMPDEST PUSH1 0x0 PUSH2 0x3373 DUP4 DUP4 PUSH2 0x3309 JUMP JUMPDEST SWAP1 POP SWAP3 SWAP2 POP POP JUMP JUMPDEST PUSH1 0x0 PUSH1 0x20 DUP3 ADD SWAP1 POP SWAP2 SWAP1 POP JUMP JUMPDEST PUSH1 0x0 PUSH2 0x3393 DUP3 PUSH2 0x327D JUMP JUMPDEST PUSH2 0x339D DUP2 DUP6 PUSH2 0x3288 JUMP JUMPDEST SWAP4 POP DUP4 PUSH1 0x20 DUP3 MUL DUP6 ADD PUSH2 0x33AF DUP6 PUSH2 0x3299 JUMP JUMPDEST DUP1 PUSH1 0x0 JUMPDEST DUP6 DUP2 LT ISZERO PUSH2 0x33EB JUMPI DUP5 DUP5 SUB DUP10 MSTORE DUP2 MLOAD PUSH2 0x33CC DUP6 DUP3 PUSH2 0x3367 JUMP JUMPDEST SWAP5 POP PUSH2 0x33D7 DUP4 PUSH2 0x337B JUMP JUMPDEST SWAP3 POP PUSH1 0x20 DUP11 ADD SWAP10 POP POP PUSH1 0x1 DUP2 ADD SWAP1 POP PUSH2 0x33B3 JUMP JUMPDEST POP DUP3 SWAP8 POP DUP8 SWAP6 POP POP POP POP POP POP SWAP3 SWAP2 POP POP JUMP JUMPDEST PUSH1 0x0 PUSH1 0x4 SWAP1 POP SWAP2 SWAP1 POP JUMP JUMPDEST PUSH1 0x0 DUP2 SWAP1 POP SWAP3 SWAP2 POP POP JUMP JUMPDEST PUSH1 0x0 DUP2 SWAP1 POP SWAP2 SWAP1 POP JUMP JUMPDEST PUSH1 0x0 PUSH1 0x20 DUP3 ADD SWAP1 POP SWAP2 SWAP1 POP JUMP JUMPDEST PUSH1 0x0 PUSH2 0x3435 DUP3 PUSH2 0x33FD JUMP JUMPDEST PUSH2 0x343F DUP2 DUP6 PUSH2 0x3408 JUMP JUMPDEST SWAP4 POP DUP4 PUSH1 0x20 DUP3 MUL DUP6 ADD PUSH2 0x3451 DUP6 PUSH2 0x3413 JUMP JUMPDEST DUP1 PUSH1 0x0 JUMPDEST DUP6 DUP2 LT ISZERO PUSH2 0x348D JUMPI DUP5 DUP5 SUB DUP10 MSTORE DUP2 MLOAD PUSH2 0x346E DUP6 DUP3 PUSH2 0x3145 JUMP JUMPDEST SWAP5 POP PUSH2 0x3479 DUP4 PUSH2 0x341D JUMP JUMPDEST SWAP3 POP PUSH1 0x20 DUP11 ADD SWAP10 POP POP PUSH1 0x1 DUP2 ADD SWAP1 POP PUSH2 0x3455 JUMP JUMPDEST POP DUP3 SWAP8 POP DUP8 SWAP6 POP POP POP POP POP POP SWAP3 SWAP2 POP POP JUMP JUMPDEST PUSH1 0x0 PUSH1 0x8 SWAP1 POP SWAP2 SWAP1 POP JUMP JUMPDEST PUSH1 0x0 DUP2 SWAP1 POP SWAP3 SWAP2 POP POP JUMP JUMPDEST PUSH1 0x0 DUP2 SWAP1 POP SWAP2 SWAP1 POP JUMP JUMPDEST PUSH1 0x0 PUSH1 0x20 DUP3 ADD SWAP1 POP SWAP2 SWAP1 POP JUMP JUMPDEST PUSH1 0x0 PUSH2 0x34D7 DUP3 PUSH2 0x349F JUMP JUMPDEST PUSH2 0x34E1 DUP2 DUP6 PUSH2 0x34AA JUMP JUMPDEST SWAP4 POP DUP4 PUSH1 0x20 DUP3 MUL DUP6 ADD PUSH2 0x34F3 DUP6 PUSH2 0x34B5 JUMP JUMPDEST DUP1 PUSH1 0x0 JUMPDEST DUP6 DUP2 LT ISZERO PUSH2 0x352F JUMPI DUP5 DUP5 SUB DUP10 MSTORE DUP2 MLOAD PUSH2 0x3510 DUP6 DUP3 PUSH2 0x3145 JUMP JUMPDEST SWAP5 POP PUSH2 0x351B DUP4 PUSH2 0x34BF JUMP JUMPDEST SWAP3 POP PUSH1 0x20 DUP11 ADD SWAP10 POP POP PUSH1 0x1 DUP2 ADD SWAP1 POP PUSH2 0x34F7 JUMP JUMPDEST POP DUP3 SWAP8 POP DUP8 SWAP6 POP POP POP POP POP POP SWAP3 SWAP2 POP POP JUMP JUMPDEST PUSH1 0x0 PUSH1 0xE0 DUP3 ADD SWAP1 POP DUP2 DUP2 SUB PUSH1 0x0 DUP4 ADD MSTORE PUSH2 0x355B DUP2 DUP11 PUSH2 0x3166 JUMP JUMPDEST SWAP1 POP DUP2 DUP2 SUB PUSH1 0x20 DUP4 ADD MSTORE PUSH2 0x356F DUP2 DUP10 PUSH2 0x3208 JUMP JUMPDEST SWAP1 POP DUP2 DUP2 SUB PUSH1 0x40 DUP4 ADD MSTORE PUSH2 0x3583 DUP2 DUP9 PUSH2 0x3388 JUMP JUMPDEST SWAP1 POP DUP2 DUP2 SUB PUSH1 0x60 DUP4 ADD MSTORE PUSH2 0x3597 DUP2 DUP8 PUSH2 0x342A JUMP JUMPDEST SWAP1 POP DUP2 DUP2 SUB PUSH1 0x80 DUP4 ADD MSTORE PUSH2 0x35AB DUP2 DUP7 PUSH2 0x3388 JUMP JUMPDEST SWAP1 POP DUP2 DUP2 SUB PUSH1 0xA0 DUP4 ADD MSTORE PUSH2 0x35BF DUP2 DUP6 PUSH2 0x34CC JUMP JUMPDEST SWAP1 POP DUP2 DUP2 SUB PUSH1 0xC0 DUP4 ADD MSTORE PUSH2 0x35D3 DUP2 DUP5 PUSH2 0x3388 JUMP JUMPDEST SWAP1 POP SWAP9 SWAP8 POP POP POP POP POP POP POP POP JUMP JUMPDEST PUSH32 0x4E6F207261746520686973746F727920617661696C61626C652E000000000000 PUSH1 0x0 DUP3 ADD MSTORE POP JUMP JUMPDEST PUSH1 0x0 PUSH2 0x3617 PUSH1 0x1A DUP4 PUSH2 0x3052 JUMP JUMPDEST SWAP2 POP PUSH2 0x3622 DUP3 PUSH2 0x35E1 JUMP JUMPDEST PUSH1 0x20 DUP3 ADD SWAP1 POP SWAP2 SWAP1 POP JUMP JUMPDEST PUSH1 0x0 PUSH1 0x20 DUP3 ADD SWAP1 POP DUP2 DUP2 SUB PUSH1 0x0 DUP4 ADD MSTORE PUSH2 0x3646 DUP2 PUSH2 0x360A JUMP JUMPDEST SWAP1 POP SWAP2 SWAP1 POP JUMP JUMPDEST PUSH32 0x4E487B7100000000000000000000000000000000000000000000000000000000 PUSH1 0x0 MSTORE PUSH1 0x32 PUSH1 0x4 MSTORE PUSH1 0x24 PUSH1 0x0 REVERT JUMPDEST PUSH32 0x4E487B7100000000000000000000000000000000000000000000000000000000 PUSH1 0x0 MSTORE PUSH1 0x22 PUSH1 0x4 MSTORE PUSH1 0x24 PUSH1 0x0 REVERT JUMPDEST PUSH1 0x0 PUSH1 0x2 DUP3 DIV SWAP1 POP PUSH1 0x1 DUP3 AND DUP1 PUSH2 0x36C3 JUMPI PUSH1 0x7F DUP3 AND SWAP2 POP JUMPDEST PUSH1 0x20 DUP3 LT DUP2 SUB PUSH2 0x36D6 JUMPI PUSH2 0x36D5 PUSH2 0x367C JUMP JUMPDEST JUMPDEST POP SWAP2 SWAP1 POP JUMP JUMPDEST PUSH1 0x0 DUP2 SWAP1 POP SWAP3 SWAP2 POP POP JUMP JUMPDEST PUSH1 0x0 DUP2 SWAP1 POP DUP2 PUSH1 0x0 MSTORE PUSH1 0x20 PUSH1 0x0 KECCAK256 SWAP1 POP SWAP2 SWAP1 POP JUMP JUMPDEST PUSH1 0x0 DUP2 SLOAD PUSH2 0x3709 DUP2 PUSH2 0x36AB JUMP JUMPDEST PUSH2 0x3713 DUP2 DUP7 PUSH2 0x36DC JUMP JUMPDEST SWAP5 POP PUSH1 0x1 DUP3 AND PUSH1 0x0 DUP2 EQ PUSH2 0x372E JUMPI PUSH1 0x1 DUP2 EQ PUSH2 0x3743 JUMPI PUSH2 0x3776 JUMP JUMPDEST PUSH1 0xFF NOT DUP4 AND DUP7 MSTORE DUP2 ISZERO ISZERO DUP3 MUL DUP7 ADD SWAP4 POP PUSH2 0x3776 JUMP JUMPDEST PUSH2 0x374C DUP6 PUSH2 0x36E7 JUMP JUMPDEST PUSH1 0x0 JUMPDEST DUP4 DUP2 LT ISZERO PUSH2 0x376E JUMPI DUP2 SLOAD DUP2 DUP10 ADD MSTORE PUSH1 0x1 DUP3 ADD SWAP2 POP PUSH1 0x20 DUP2 ADD SWAP1 POP PUSH2 0x374F JUMP JUMPDEST DUP4 DUP9 ADD SWAP6 POP POP POP JUMPDEST POP POP POP SWAP3 SWAP2 POP POP JUMP JUMPDEST PUSH1 0x0 PUSH2 0x378B DUP3 DUP5 PUSH2 0x36FC JUMP JUMPDEST SWAP2 POP DUP2 SWAP1 POP SWAP3 SWAP2 POP POP JUMP JUMPDEST PUSH1 0x0 PUSH2 0x37A1 DUP3 PUSH2 0x2DA4 JUMP JUMPDEST PUSH2 0x37AB DUP2 DUP6 PUSH2 0x36DC JUMP JUMPDEST SWAP4 POP PUSH2 0x37BB DUP2 DUP6 PUSH1 0x20 DUP7 ADD PUSH2 0x2DC0 JUMP JUMPDEST DUP1 DUP5 ADD SWAP2 POP POP SWAP3 SWAP2 POP POP JUMP JUMPDEST PUSH1 0x0 PUSH2 0x37D3 DUP3 DUP5 PUSH2 0x3796 JUMP JUMPDEST SWAP2 POP DUP2 SWAP1 POP SWAP3 SWAP2 POP POP JUMP JUMPDEST PUSH32 0x494420616C7265616479206578697374732E0000000000000000000000000000 PUSH1 0x0 DUP3 ADD MSTORE POP JUMP JUMPDEST PUSH1 0x0 PUSH2 0x3814 PUSH1 0x12 DUP4 PUSH2 0x3052 JUMP JUMPDEST SWAP2 POP PUSH2 0x381F DUP3 PUSH2 0x37DE JUMP JUMPDEST PUSH1 0x20 DUP3 ADD SWAP1 POP SWAP2 SWAP1 POP JUMP JUMPDEST PUSH1 0x0 PUSH1 0x20 DUP3 ADD SWAP1 POP DUP2 DUP2 SUB PUSH1 0x0 DUP4 ADD MSTORE PUSH2 0x3843 DUP2 PUSH2 0x3807 JUMP JUMPDEST SWAP1 POP SWAP2 SWAP1 POP JUMP JUMPDEST PUSH32 0x4E487B7100000000000000000000000000000000000000000000000000000000 PUSH1 0x0 MSTORE PUSH1 0x11 PUSH1 0x4 MSTORE PUSH1 0x24 PUSH1 0x0 REVERT JUMPDEST PUSH1 0x0 PUSH2 0x3884 DUP3 PUSH2 0x2AD1 JUMP JUMPDEST SWAP2 POP PUSH32 0xFFFFFFFFFFFFFFFFFFFFFFFFFFFFFFFFFFFFFFFFFFFFFFFFFFFFFFFFFFFFFFFF DUP3 SUB PUSH2 0x38B6 JUMPI PUSH2 0x38B5 PUSH2 0x384A JUMP JUMPDEST JUMPDEST PUSH1 0x1 DUP3 ADD SWAP1 POP SWAP2 SWAP1 POP JUMP JUMPDEST PUSH1 0x0 PUSH2 0x38CC DUP3 PUSH2 0x2AD1 JUMP JUMPDEST SWAP2 POP PUSH2 0x38D7 DUP4 PUSH2 0x2AD1 JUMP JUMPDEST SWAP3 POP DUP3 DUP3 SUB SWAP1 POP DUP2 DUP2 GT ISZERO PUSH2 0x38EF JUMPI PUSH2 0x38EE PUSH2 0x384A JUMP JUMPDEST JUMPDEST SWAP3 SWAP2 POP POP JUMP JUMPDEST PUSH1 0x0 PUSH1 0x20 PUSH1 0x1F DUP4 ADD DIV SWAP1 POP SWAP2 SWAP1 POP JUMP JUMPDEST PUSH1 0x0 DUP3 DUP3 SHL SWAP1 POP SWAP3 SWAP2 POP POP JUMP JUMPDEST PUSH1 0x0 PUSH1 0x8 DUP4 MUL PUSH2 0x3942 PUSH32 0xFFFFFFFFFFFFFFFFFFFFFFFFFFFFFFFFFFFFFFFFFFFFFFFFFFFFFFFFFFFFFFFF DUP3 PUSH2 0x3905 JUMP JUMPDEST PUSH2 0x394C DUP7 DUP4 PUSH2 0x3905 JUMP JUMPDEST SWAP6 POP DUP1 NOT DUP5 AND SWAP4 POP DUP1 DUP7 AND DUP5 OR SWAP3 POP POP POP SWAP4 SWAP3 POP POP POP JUMP JUMPDEST PUSH1 0x0 DUP2 SWAP1 POP SWAP2 SWAP1 POP JUMP JUMPDEST PUSH1 0x0 PUSH2 0x3989 PUSH2 0x3984 PUSH2 0x397F DUP5 PUSH2 0x2AD1 JUMP JUMPDEST PUSH2 0x3964 JUMP JUMPDEST PUSH2 0x2AD1 JUMP JUMPDEST SWAP1 POP SWAP2 SWAP1 POP JUMP JUMPDEST PUSH1 0x0 DUP2 SWAP1 POP SWAP2 SWAP1 POP JUMP JUMPDEST PUSH2 0x39A3 DUP4 PUSH2 0x396E JUMP JUMPDEST PUSH2 0x39B7 PUSH2 0x39AF DUP3 PUSH2 0x3990 JUMP JUMPDEST DUP5 DUP5 SLOAD PUSH2 0x3912 JUMP JUMPDEST DUP3 SSTORE POP POP POP POP JUMP JUMPDEST PUSH1 0x0 SWAP1 JUMP JUMPDEST PUSH2 0x39CC PUSH2 0x39BF JUMP JUMPDEST PUSH2 0x39D7 DUP2 DUP5 DUP5 PUSH2 0x399A JUMP JUMPDEST POP POP POP JUMP JUMPDEST JUMPDEST DUP2 DUP2 LT ISZERO PUSH2 0x39FB JUMPI PUSH2 0x39F0 PUSH1 0x0 DUP3 PUSH2 0x39C4 JUMP JUMPDEST PUSH1 0x1 DUP2 ADD SWAP1 POP PUSH2 0x39DD JUMP JUMPDEST POP POP JUMP JUMPDEST PUSH1 0x1F DUP3 GT ISZERO PUSH2 0x3A40 JUMPI PUSH2 0x3A11 DUP2 PUSH2 0x36E7 JUMP JUMPDEST PUSH2 0x3A1A DUP5 PUSH2 0x38F5 JUMP JUMPDEST DUP2 ADD PUSH1 0x20 DUP6 LT ISZERO PUSH2 0x3A29 JUMPI DUP2 SWAP1 POP JUMPDEST PUSH2 0x3A3D PUSH2 0x3A35 DUP6 PUSH2 0x38F5 JUMP JUMPDEST DUP4 ADD DUP3 PUSH2 0x39DC JUMP JUMPDEST POP POP JUMPDEST POP POP POP JUMP JUMPDEST PUSH1 0x0 DUP3 DUP3 SHR SWAP1 POP SWAP3 SWAP2 POP POP JUMP JUMPDEST PUSH1 0x0 PUSH2 0x3A63 PUSH1 0x0 NOT DUP5 PUSH1 0x8 MUL PUSH2 0x3A45 JUMP JUMPDEST NOT DUP1 DUP4 AND SWAP2 POP POP SWAP3 SWAP2 POP POP JUMP JUMPDEST PUSH1 0x0 PUSH2 0x3A7C DUP4 DUP4 PUSH2 0x3A52 JUMP JUMPDEST SWAP2 POP DUP3 PUSH1 0x2 MUL DUP3 OR SWAP1 POP SWAP3 SWAP2 POP POP JUMP JUMPDEST PUSH2 0x3A95 DUP3 PUSH2 0x2DA4 JUMP JUMPDEST PUSH8 0xFFFFFFFFFFFFFFFF DUP2 GT ISZERO PUSH2 0x3AAE JUMPI PUSH2 0x3AAD PUSH2 0x29A6 JUMP JUMPDEST JUMPDEST PUSH2 0x3AB8 DUP3 SLOAD PUSH2 0x36AB JUMP JUMPDEST PUSH2 0x3AC3 DUP3 DUP3 DUP6 PUSH2 0x39FF JUMP JUMPDEST PUSH1 0x0 PUSH1 0x20 SWAP1 POP PUSH1 0x1F DUP4 GT PUSH1 0x1 DUP2 EQ PUSH2 0x3AF6 JUMPI PUSH1 0x0 DUP5 ISZERO PUSH2 0x3AE4 JUMPI DUP3 DUP8 ADD MLOAD SWAP1 POP JUMPDEST PUSH2 0x3AEE DUP6 DUP3 PUSH2 0x3A70 JUMP JUMPDEST DUP7 SSTORE POP PUSH2 0x3B56 JUMP JUMPDEST PUSH1 0x1F NOT DUP5 AND PUSH2 0x3B04 DUP7 PUSH2 0x36E7 JUMP JUMPDEST PUSH1 0x0 JUMPDEST DUP3 DUP2 LT ISZERO PUSH2 0x3B2C JUMPI DUP5 DUP10 ADD MLOAD DUP3 SSTORE PUSH1 0x1 DUP3 ADD SWAP2 POP PUSH1 0x20 DUP6 ADD SWAP5 POP PUSH1 0x20 DUP2 ADD SWAP1 POP PUSH2 0x3B07 JUMP JUMPDEST DUP7 DUP4 LT ISZERO PUSH2 0x3B49 JUMPI DUP5 DUP10 ADD MLOAD PUSH2 0x3B45 PUSH1 0x1F DUP10 AND DUP3 PUSH2 0x3A52 JUMP JUMPDEST DUP4 SSTORE POP JUMPDEST PUSH1 0x1 PUSH1 0x2 DUP9 MUL ADD DUP9 SSTORE POP POP POP JUMPDEST POP POP POP POP POP POP JUMP JUMPDEST PUSH1 0x0 PUSH2 0x3B69 DUP3 PUSH2 0x2AD1 JUMP JUMPDEST SWAP2 POP PUSH2 0x3B74 DUP4 PUSH2 0x2AD1 JUMP JUMPDEST SWAP3 POP DUP3 DUP3 ADD SWAP1 POP DUP1 DUP3 GT ISZERO PUSH2 0x3B8C JUMPI PUSH2 0x3B8B PUSH2 0x384A JUMP JUMPDEST JUMPDEST SWAP3 SWAP2 POP POP JUMP JUMPDEST PUSH1 0x0 PUSH2 0x3B9D DUP3 PUSH2 0x2AD1 JUMP JUMPDEST SWAP2 POP PUSH2 0x3BA8 DUP4 PUSH2 0x2AD1 JUMP JUMPDEST SWAP3 POP DUP3 DUP3 MUL PUSH2 0x3BB6 DUP2 PUSH2 0x2AD1 JUMP JUMPDEST SWAP2 POP DUP3 DUP3 DIV DUP5 EQ DUP4 ISZERO OR PUSH2 0x3BCD JUMPI PUSH2 0x3BCC PUSH2 0x384A JUMP JUMPDEST JUMPDEST POP SWAP3 SWAP2 POP POP JUMP JUMPDEST PUSH32 0x4E487B7100000000000000000000000000000000000000000000000000000000 PUSH1 0x0 MSTORE PUSH1 0x12 PUSH1 0x4 MSTORE PUSH1 0x24 PUSH1 0x0 REVERT JUMPDEST PUSH1 0x0 PUSH2 0x3C0E DUP3 PUSH2 0x2AD1 JUMP JUMPDEST SWAP2 POP PUSH2 0x3C19 DUP4 PUSH2 0x2AD1 JUMP JUMPDEST SWAP3 POP DUP3 PUSH2 0x3C29 JUMPI PUSH2 0x3C28 PUSH2 0x3BD4 JUMP JUMPDEST JUMPDEST DUP3 DUP3 DIV SWAP1 POP SWAP3 SWAP2 POP POP JUMP JUMPDEST PUSH32 0x6173736574732E64657461696C732E63727970746F63757272656E63792E6272 PUSH1 0x0 DUP3 ADD MSTORE PUSH32 0x65616B646F776E2E555344542E616D6F756E7400000000000000000000000000 PUSH1 0x20 DUP3 ADD MSTORE POP JUMP JUMPDEST PUSH1 0x0 PUSH2 0x3C90 PUSH1 0x33 DUP4 PUSH2 0x36DC JUMP JUMPDEST SWAP2 POP PUSH2 0x3C9B DUP3 PUSH2 0x3C34 JUMP JUMPDEST PUSH1 0x33 DUP3 ADD SWAP1 POP SWAP2 SWAP1 POP JUMP JUMPDEST PUSH1 0x0 PUSH2 0x3CB1 DUP3 PUSH2 0x3C83 JUMP JUMPDEST SWAP2 POP DUP2 SWAP1 POP SWAP2 SWAP1 POP JUMP JUMPDEST PUSH1 0x0 PUSH2 0x3CC6 DUP3 PUSH2 0x2C3F JUMP JUMPDEST SWAP2 POP PUSH2 0x3CD1 DUP4 PUSH2 0x2C3F JUMP JUMPDEST SWAP3 POP DUP3 DUP3 ADD SWAP1 POP DUP3 DUP2 SLT ISZERO PUSH1 0x0 DUP4 SLT AND DUP4 DUP3 SLT PUSH1 0x0 DUP5 SLT ISZERO AND OR ISZERO PUSH2 0x3CF9 JUMPI PUSH2 0x3CF8 PUSH2 0x384A JUMP JUMPDEST JUMPDEST SWAP3 SWAP2 POP POP JUMP JUMPDEST PUSH32 0x6C696162696C69746965732E64657461696C732E757365724465706F7369742E PUSH1 0x0 DUP3 ADD MSTORE PUSH32 0x627265616B646F776E2E555344542E616D6F756E740000000000000000000000 PUSH1 0x20 DUP3 ADD MSTORE POP JUMP JUMPDEST PUSH1 0x0 PUSH2 0x3D5B PUSH1 0x35 DUP4 PUSH2 0x36DC JUMP JUMPDEST SWAP2 POP PUSH2 0x3D66 DUP3 PUSH2 0x3CFF JUMP JUMPDEST PUSH1 0x35 DUP3 ADD SWAP1 POP SWAP2 SWAP1 POP JUMP JUMPDEST PUSH1 0x0 PUSH2 0x3D7C DUP3 PUSH2 0x3D4E JUMP JUMPDEST SWAP2 POP DUP2 SWAP1 POP SWAP2 SWAP1 POP JUMP JUMPDEST PUSH32 0x6571756974792E64657461696C732E72657461696E65644561726E696E67732E PUSH1 0x0 DUP3 ADD MSTORE PUSH32 0x627265616B646F776E2E555344542E616D6F756E740000000000000000000000 PUSH1 0x20 DUP3 ADD MSTORE POP JUMP JUMPDEST PUSH1 0x0 PUSH2 0x3DE2 PUSH1 0x35 DUP4 PUSH2 0x36DC JUMP JUMPDEST SWAP2 POP PUSH2 0x3DED DUP3 PUSH2 0x3D86 JUMP JUMPDEST PUSH1 0x35 DUP3 ADD SWAP1 POP SWAP2 SWAP1 POP JUMP JUMPDEST PUSH1 0x0 PUSH2 0x3E03 DUP3 PUSH2 0x3DD5 JUMP JUMPDEST SWAP2 POP DUP2 SWAP1 POP SWAP2 SWAP1 POP JUMP JUMPDEST PUSH32 0x696E636F6D652E64657461696C732E6465706F7369744665652E627265616B64 PUSH1 0x0 DUP3 ADD MSTORE PUSH32 0x6F776E2E555344542E616D6F756E740000000000000000000000000000000000 PUSH1 0x20 DUP3 ADD MSTORE POP JUMP JUMPDEST PUSH1 0x0 PUSH2 0x3E69 PUSH1 0x2F DUP4 PUSH2 0x36DC JUMP JUMPDEST SWAP2 POP PUSH2 0x3E74 DUP3 PUSH2 0x3E0D JUMP JUMPDEST PUSH1 0x2F DUP3 ADD SWAP1 POP SWAP2 SWAP1 POP JUMP JUMPDEST PUSH1 0x0 PUSH2 0x3E8A DUP3 PUSH2 0x3E5C JUMP JUMPDEST SWAP2 POP DUP2 SWAP1 POP SWAP2 SWAP1 POP JUMP JUMPDEST PUSH32 0x4E6F204254432F20555344207261746520686973746F727920617661696C6162 PUSH1 0x0 DUP3 ADD MSTORE PUSH32 0x6C652E0000000000000000000000000000000000000000000000000000000000 PUSH1 0x20 DUP3 ADD MSTORE POP JUMP JUMPDEST PUSH1 0x0 PUSH2 0x3EF0 PUSH1 0x23 DUP4 PUSH2 0x3052 JUMP JUMPDEST SWAP2 POP PUSH2 0x3EFB DUP3 PUSH2 0x3E94 JUMP JUMPDEST PUSH1 0x40 DUP3 ADD SWAP1 POP SWAP2 SWAP1 POP JUMP JUMPDEST PUSH1 0x0 PUSH1 0x20 DUP3 ADD SWAP1 POP DUP2 DUP2 SUB PUSH1 0x0 DUP4 ADD MSTORE PUSH2 0x3F1F DUP2 PUSH2 0x3EE3 JUMP JUMPDEST SWAP1 POP SWAP2 SWAP1 POP JUMP JUMPDEST PUSH32 0x4E6F20555344542F20555344207261746520686973746F727920617661696C61 PUSH1 0x0 DUP3 ADD MSTORE PUSH32 0x626C652E00000000000000000000000000000000000000000000000000000000 PUSH1 0x20 DUP3 ADD MSTORE POP JUMP JUMPDEST PUSH1 0x0 PUSH2 0x3F82 PUSH1 0x24 DUP4 PUSH2 0x3052 JUMP JUMPDEST SWAP2 POP PUSH2 0x3F8D DUP3 PUSH2 0x3F26 JUMP JUMPDEST PUSH1 0x40 DUP3 ADD SWAP1 POP SWAP2 SWAP1 POP JUMP JUMPDEST PUSH1 0x0 PUSH1 0x20 DUP3 ADD SWAP1 POP DUP2 DUP2 SUB PUSH1 0x0 DUP4 ADD MSTORE PUSH2 0x3FB1 DUP2 PUSH2 0x3F75 JUMP JUMPDEST SWAP1 POP SWAP2 SWAP1 POP JUMP JUMPDEST PUSH32 0x4E6F207472616E73616374696F6E7320617661696C61626C652E000000000000 PUSH1 0x0 DUP3 ADD MSTORE POP JUMP JUMPDEST PUSH1 0x0 PUSH2 0x3FEE PUSH1 0x1A DUP4 PUSH2 0x3052 JUMP JUMPDEST SWAP2 POP PUSH2 0x3FF9 DUP3 PUSH2 0x3FB8 JUMP JUMPDEST PUSH1 0x20 DUP3 ADD SWAP1 POP SWAP2 SWAP1 POP JUMP JUMPDEST PUSH1 0x0 PUSH1 0x20 DUP3 ADD SWAP1 POP DUP2 DUP2 SUB PUSH1 0x0 DUP4 ADD MSTORE PUSH2 0x401D DUP2 PUSH2 0x3FE1 JUMP JUMPDEST SWAP1 POP SWAP2 SWAP1 POP JUMP JUMPDEST PUSH32 0x496E76616C696420696E64657800000000000000000000000000000000000000 PUSH1 0x0 DUP3 ADD MSTORE POP JUMP JUMPDEST PUSH1 0x0 PUSH2 0x405A PUSH1 0xD DUP4 PUSH2 0x3052 JUMP JUMPDEST SWAP2 POP PUSH2 0x4065 DUP3 PUSH2 0x4024 JUMP JUMPDEST PUSH1 0x20 DUP3 ADD SWAP1 POP SWAP2 SWAP1 POP JUMP JUMPDEST PUSH1 0x0 PUSH1 0x20 DUP3 ADD SWAP1 POP DUP2 DUP2 SUB PUSH1 0x0 DUP4 ADD MSTORE PUSH2 0x4089 DUP2 PUSH2 0x404D JUMP JUMPDEST SWAP1 POP SWAP2 SWAP1 POP JUMP JUMPDEST PUSH32 0x5472616E73616374696F6E206E6F7420666F756E640000000000000000000000 PUSH1 0x0 DUP3 ADD MSTORE POP JUMP JUMPDEST PUSH1 0x0 PUSH2 0x40C6 PUSH1 0x15 DUP4 PUSH2 0x3052 JUMP JUMPDEST SWAP2 POP PUSH2 0x40D1 DUP3 PUSH2 0x4090 JUMP JUMPDEST PUSH1 0x20 DUP3 ADD SWAP1 POP SWAP2 SWAP1 POP JUMP JUMPDEST PUSH1 0x0 PUSH1 0x20 DUP3 ADD SWAP1 POP DUP2 DUP2 SUB PUSH1 0x0 DUP4 ADD MSTORE PUSH2 0x40F5 DUP2 PUSH2 0x40B9 JUMP JUMPDEST SWAP1 POP SWAP2 SWAP1 POP JUMP JUMPDEST PUSH32 0x4E6F204554482F20555344207261746520686973746F727920617661696C6162 PUSH1 0x0 DUP3 ADD MSTORE PUSH32 0x6C652E0000000000000000000000000000000000000000000000000000000000 PUSH1 0x20 DUP3 ADD MSTORE POP JUMP JUMPDEST PUSH1 0x0 PUSH2 0x4158 PUSH1 0x23 DUP4 PUSH2 0x3052 JUMP JUMPDEST SWAP2 POP PUSH2 0x4163 DUP3 PUSH2 0x40FC JUMP JUMPDEST PUSH1 0x40 DUP3 ADD SWAP1 POP SWAP2 SWAP1 POP JUMP JUMPDEST PUSH1 0x0 PUSH1 0x20 DUP3 ADD SWAP1 POP DUP2 DUP2 SUB PUSH1 0x0 DUP4 ADD MSTORE PUSH2 0x4187 DUP2 PUSH2 0x414B JUMP JUMPDEST SWAP1 POP SWAP2 SWAP1 POP JUMP JUMPDEST PUSH32 0x737570706C656D656E74616C5363686564756C654F664E6F6E436173684F7065 PUSH1 0x0 DUP3 ADD MSTORE PUSH32 0x726174696E67416374697669746965732E64657461696C732E63727970746F63 PUSH1 0x20 DUP3 ADD MSTORE PUSH32 0x757272656E636965734465706F73697465644279437573746F6D6572732E6272 PUSH1 0x40 DUP3 ADD MSTORE PUSH32 0x65616B646F776E2E555344542E616D6F756E7400000000000000000000000000 PUSH1 0x60 DUP3 ADD MSTORE POP JUMP JUMPDEST PUSH1 0x0 PUSH2 0x4236 PUSH1 0x73 DUP4 PUSH2 0x36DC JUMP JUMPDEST SWAP2 POP PUSH2 0x4241 DUP3 PUSH2 0x418E JUMP JUMPDEST PUSH1 0x73 DUP3 ADD SWAP1 POP SWAP2 SWAP1 POP JUMP JUMPDEST PUSH1 0x0 PUSH2 0x4257 DUP3 PUSH2 0x4229 JUMP JUMPDEST SWAP2 POP DUP2 SWAP1 POP SWAP2 SWAP1 POP JUMP JUMPDEST PUSH32 0x737570706C656D656E74616C5363686564756C654F664E6F6E436173684F7065 PUSH1 0x0 DUP3 ADD MSTORE PUSH32 0x726174696E67416374697669746965732E64657461696C732E63727970746F63 PUSH1 0x20 DUP3 ADD MSTORE PUSH32 0x757272656E63696573526563656976656446726F6D437573746F6D6572734173 PUSH1 0x40 DUP3 ADD MSTORE PUSH32 0x5472616E73616374696F6E466565732E627265616B646F776E2E555344542E61 PUSH1 0x60 DUP3 ADD MSTORE PUSH32 0x6D6F756E74000000000000000000000000000000000000000000000000000000 PUSH1 0x80 DUP3 ADD MSTORE POP JUMP JUMPDEST PUSH1 0x0 PUSH2 0x432F PUSH1 0x85 DUP4 PUSH2 0x36DC JUMP JUMPDEST SWAP2 POP PUSH2 0x433A DUP3 PUSH2 0x4261 JUMP JUMPDEST PUSH1 0x85 DUP3 ADD SWAP1 POP SWAP2 SWAP1 POP JUMP JUMPDEST PUSH1 0x0 PUSH2 0x4350 DUP3 PUSH2 0x4322 JUMP JUMPDEST SWAP2 POP DUP2 SWAP1 POP SWAP2 SWAP1 POP JUMP JUMPDEST PUSH1 0x0 PUSH1 0x40 DUP3 ADD SWAP1 POP DUP2 DUP2 SUB PUSH1 0x0 DUP4 ADD MSTORE PUSH2 0x4374 DUP2 DUP6 PUSH2 0x3063 JUMP JUMPDEST SWAP1 POP DUP2 DUP2 SUB PUSH1 0x20 DUP4 ADD MSTORE PUSH2 0x4388 DUP2 DUP5 PUSH2 0x3063 JUMP JUMPDEST SWAP1 POP SWAP4 SWAP3 POP POP POP JUMP INVALID PUSH20 0x7570706C656D656E74616C5363686564756C654F PUSH7 0x4E6F6E43617368 0x4F PUSH17 0x65726174696E6741637469766974696573 0x2E PUSH5 0x657461696C PUSH20 0x2E63727970746F63757272656E63696573446570 PUSH16 0x73697465644279437573746F6D657273 0x2E PUSH3 0x726561 PUSH12 0x646F776E2E555344542E7765 PUSH10 0x67687465644176657261 PUSH8 0x65436F7374617373 PUSH6 0x74732E646574 PUSH2 0x696C PUSH20 0x2E63727970746F63757272656E63792E746F7461 PUSH13 0x416D6F756E744661697256616C PUSH22 0x65737570706C656D656E74616C5363686564756C654F PUSH7 0x4E6F6E43617368 0x4F PUSH17 0x65726174696E6741637469766974696573 0x2E PUSH5 0x657461696C PUSH20 0x2E63727970746F63757272656E63696573456E64 0x4F PUSH7 0x506572696F6465 PUSH18 0x756974792E64657461696C732E7265746169 PUSH15 0x65644561726E696E67732E62726561 PUSH12 0x646F776E2E555344542E6661 PUSH10 0x7256616C7565696E636F PUSH14 0x652E64657461696C732E6465706F PUSH20 0x69744665652E627265616B646F776E2E55534454 0x2E PUSH24 0x6569676874656441766572616765436F7374617373657473 0x2E PUSH5 0x657461696C PUSH20 0x2E63727970746F63757272656E63792E62726561 PUSH12 0x646F776E2E555344542E616D PUSH16 0x756E74737570706C656D656E74616C53 PUSH4 0x68656475 PUSH13 0x654F664E6F6E436173684F7065 PUSH19 0x6174696E67416374697669746965732E776569 PUSH8 0x6874656441766572 PUSH2 0x6765 NUMBER PUSH16 0x7374746F74616C4C696162696C697469 PUSH6 0x73416E644571 PUSH22 0x6974794661697256616C75656173736574732E646574 PUSH2 0x696C PUSH20 0x2E63727970746F63757272656E63792E62726561 PUSH12 0x646F776E2E555344542E6661 PUSH10 0x7256616C7565696E636F PUSH14 0x652E64657461696C732E6465706F PUSH20 0x69744665652E7765696768746564417665726167 PUSH6 0x436F7374696E PUSH4 0x6F6D652E PUSH5 0x657461696C PUSH20 0x2E6465706F7369744665652E627265616B646F77 PUSH15 0x2E555344542E616D6F756E746C6961 PUSH3 0x696C69 PUSH21 0x6965732E64657461696C732E757365724465706F73 PUSH10 0x742E746F74616C416D6F PUSH22 0x6E744661697256616C7565737570706C656D656E7461 PUSH13 0x5363686564756C654F664E6F6E NUMBER PUSH2 0x7368 0x4F PUSH17 0x65726174696E6741637469766974696573 0x2E PUSH5 0x657461696C PUSH20 0x2E63727970746F63757272656E63696573526563 PUSH6 0x697665644672 PUSH16 0x6D437573746F6D65727341735472616E PUSH20 0x616374696F6E466565732E627265616B646F776E 0x2E SSTORE MSTORE8 PREVRANDAO SLOAD 0x2E PUSH2 0x6D6F PUSH22 0x6E746C696162696C69746965732E64657461696C732E PUSH22 0x7365724465706F7369742E627265616B646F776E2E55 MSTORE8 PREVRANDAO SLOAD 0x2E PUSH2 0x6D6F PUSH22 0x6E746571756974792E64657461696C732E7265746169 PUSH15 0x65644561726E696E67732E746F7461 PUSH13 0x416D6F756E744661697256616C PUSH22 0x65737570706C656D656E74616C5363686564756C654F PUSH7 0x4E6F6E43617368 0x4F PUSH17 0x65726174696E6741637469766974696573 0x2E PUSH5 0x657461696C PUSH20 0x2E63727970746F63757272656E63696573446570 PUSH16 0x73697465644279437573746F6D657273 0x2E PUSH3 0x726561 PUSH12 0x646F776E2E555344542E616D PUSH16 0x756E746571756974792E64657461696C PUSH20 0x2E72657461696E65644561726E696E67732E6272 PUSH6 0x616B646F776E 0x2E SSTORE MSTORE8 PREVRANDAO SLOAD 0x2E PUSH2 0x6D6F PUSH22 0x6E746C696162696C69746965732E64657461696C732E PUSH22 0x7365724465706F7369742E627265616B646F776E2E55 MSTORE8 PREVRANDAO SLOAD 0x2E PUSH7 0x61697256616C75 PUSH6 0x737570706C65 PUSH14 0x656E74616C5363686564756C654F PUSH7 0x4E6F6E43617368 0x4F PUSH17 0x65726174696E6741637469766974696573 0x2E PUSH5 0x657461696C PUSH20 0x2E63727970746F63757272656E63696573526563 PUSH6 0x697665644672 PUSH16 0x6D437573746F6D65727341735472616E PUSH20 0x616374696F6E466565732E627265616B646F776E 0x2E SSTORE MSTORE8 PREVRANDAO SLOAD 0x2E PUSH24 0x6569676874656441766572616765436F7374737570706C65 PUSH14 0x656E74616C5363686564756C654F PUSH7 0x4E6F6E43617368 0x4F PUSH17 0x65726174696E6741637469766974696573 0x2E PUSH5 0x657461696C PUSH20 0x2E63727970746F63757272656E63696573526563 PUSH6 0x697665644672 PUSH16 0x6D437573746F6D65727341735472616E PUSH20 0x616374696F6E466565732E776569676874656441 PUSH23 0x6572616765436F7374737570706C656D656E74616C5363 PUSH9 0x6564756C654F664E6F PUSH15 0x436173684F7065726174696E674163 PUSH21 0x697669746965732E64657461696C732E6372797074 PUSH16 0x63757272656E636965734465706F7369 PUSH21 0x65644279437573746F6D6572732E77656967687465 PUSH5 0x4176657261 PUSH8 0x65436F7374A26469 PUSH17 0x66735822122005065326C5397DC96E4E6B 0xEB PUSH17 0xDC1068529218D489D09D200881DD2195CD 0xE1 CALLDATASIZE PUSH5 0x736F6C6343 STOP ADDMOD SLT STOP CALLER "
		},
		"gasEstimates": {
			"creation": {
				"codeDepositCost": "3786400",
				"executionCost": "4287",
				"totalCost": "3790687"
			},
			"external": {
				"balanceSheet(string)": "infinite",
				"cashFlow(string)": "infinite",
				"comprehensiveIncome(string)": "infinite",
				"getLatesBTCtoUSDRate()": "infinite",
				"getLatestETHtoUSDRate()": "infinite",
				"getLatestTransaction()": "infinite",
				"getLatestUSDTtoUSDRate()": "infinite",
				"getReportsInTimeRange(uint256,uint256)": "infinite",
				"getTransactionById(string)": "infinite",
				"getTransactionByIndex(uint256)": "infinite",
				"getTransactionCount()": "2468",
				"getTransactionsInTimeRange(uint256,uint256)": "infinite",
				"rateHistory(uint256)": "infinite",
				"recordTransaction(string,string,uint256,uint256,uint256,uint256)": "infinite",
				"setRate(uint256,uint256,uint256)": "infinite",
				"transactions(uint256)": "infinite"
			},
			"internal": {
				"addAmountToBalanceSheet(string memory[] memory,int256)": "infinite",
				"addAmountToCashFlow(string memory[] memory,int256)": "infinite",
				"addAmountTocomprehensive(string memory[] memory,int256)": "infinite",
				"recordTransactionCashFlow(struct E0.Event memory)": "infinite"
			}
		},
		"methodIdentifiers": {
			"balanceSheet(string)": "f61347cf",
			"cashFlow(string)": "2c86881c",
			"comprehensiveIncome(string)": "2b3a8659",
			"getLatesBTCtoUSDRate()": "2995997c",
			"getLatestETHtoUSDRate()": "f40915f7",
			"getLatestTransaction()": "6ccc29dc",
			"getLatestUSDTtoUSDRate()": "58dbda9d",
			"getReportsInTimeRange(uint256,uint256)": "c2e27541",
			"getTransactionById(string)": "9ff16eb7",
			"getTransactionByIndex(uint256)": "869152e7",
			"getTransactionCount()": "2e7700f0",
			"getTransactionsInTimeRange(uint256,uint256)": "4fb9118b",
			"rateHistory(uint256)": "3df81812",
			"recordTransaction(string,string,uint256,uint256,uint256,uint256)": "12496544",
			"setRate(uint256,uint256,uint256)": "3989c666",
			"transactions(uint256)": "9ace38c2"
		}
	},
	"abi": [
		{
			"anonymous": false,
			"inputs": [
				{
					"indexed": false,
					"internalType": "string",
					"name": "id",
					"type": "string"
				},
				{
					"indexed": false,
					"internalType": "string",
					"name": "transactionType",
					"type": "string"
				}
			],
			"name": "NewTransaction",
			"type": "event"
		},
		{
			"inputs": [
				{
					"internalType": "string",
					"name": "",
					"type": "string"
				}
			],
			"name": "balanceSheet",
			"outputs": [
				{
					"internalType": "int256",
					"name": "",
					"type": "int256"
				}
			],
			"stateMutability": "view",
			"type": "function"
		},
		{
			"inputs": [
				{
					"internalType": "string",
					"name": "",
					"type": "string"
				}
			],
			"name": "cashFlow",
			"outputs": [
				{
					"internalType": "int256",
					"name": "",
					"type": "int256"
				}
			],
			"stateMutability": "view",
			"type": "function"
		},
		{
			"inputs": [
				{
					"internalType": "string",
					"name": "",
					"type": "string"
				}
			],
			"name": "comprehensiveIncome",
			"outputs": [
				{
					"internalType": "int256",
					"name": "",
					"type": "int256"
				}
			],
			"stateMutability": "view",
			"type": "function"
		},
		{
			"inputs": [],
			"name": "getLatesBTCtoUSDRate",
			"outputs": [
				{
					"internalType": "uint256",
					"name": "",
					"type": "uint256"
				}
			],
			"stateMutability": "view",
			"type": "function"
		},
		{
			"inputs": [],
			"name": "getLatestETHtoUSDRate",
			"outputs": [
				{
					"internalType": "uint256",
					"name": "",
					"type": "uint256"
				}
			],
			"stateMutability": "view",
			"type": "function"
		},
		{
			"inputs": [],
			"name": "getLatestTransaction",
			"outputs": [
				{
					"components": [
						{
							"internalType": "string",
							"name": "id",
							"type": "string"
						},
						{
							"internalType": "string",
							"name": "transactionType",
							"type": "string"
						},
						{
							"internalType": "uint256",
							"name": "amount",
							"type": "uint256"
						},
						{
							"internalType": "uint256",
							"name": "internalFee",
							"type": "uint256"
						},
						{
							"internalType": "uint256",
							"name": "externalFee",
							"type": "uint256"
						},
						{
							"internalType": "uint256",
							"name": "timestamp",
							"type": "uint256"
						},
						{
							"internalType": "uint256",
							"name": "rateUSDTtoUSD",
							"type": "uint256"
						}
					],
					"internalType": "struct E0.Event",
					"name": "",
					"type": "tuple"
				}
			],
			"stateMutability": "view",
			"type": "function"
		},
		{
			"inputs": [],
			"name": "getLatestUSDTtoUSDRate",
			"outputs": [
				{
					"internalType": "uint256",
					"name": "",
					"type": "uint256"
				}
			],
			"stateMutability": "view",
			"type": "function"
		},
		{
			"inputs": [
				{
					"internalType": "uint256",
					"name": "startTime",
					"type": "uint256"
				},
				{
					"internalType": "uint256",
					"name": "endTime",
					"type": "uint256"
				}
			],
			"name": "getReportsInTimeRange",
			"outputs": [
				{
					"internalType": "string[]",
					"name": "IDS",
					"type": "string[]"
				},
				{
					"internalType": "string[14]",
					"name": "balanceSheetKeys",
					"type": "string[14]"
				},
				{
					"internalType": "int256[][]",
					"name": "balanceSheetValues",
					"type": "int256[][]"
				},
				{
					"internalType": "string[4]",
					"name": "comprehensiveIncomeKeys",
					"type": "string[4]"
				},
				{
					"internalType": "int256[][]",
					"name": "comprehensiveIncomeValues",
					"type": "int256[][]"
				},
				{
					"internalType": "string[8]",
					"name": "cashFlowKeys",
					"type": "string[8]"
				},
				{
					"internalType": "int256[][]",
					"name": "cashFlowValues",
					"type": "int256[][]"
				}
			],
			"stateMutability": "view",
			"type": "function"
		},
		{
			"inputs": [
				{
					"internalType": "string",
					"name": "id",
					"type": "string"
				}
			],
			"name": "getTransactionById",
			"outputs": [
				{
					"components": [
						{
							"internalType": "string",
							"name": "id",
							"type": "string"
						},
						{
							"internalType": "string",
							"name": "transactionType",
							"type": "string"
						},
						{
							"internalType": "uint256",
							"name": "amount",
							"type": "uint256"
						},
						{
							"internalType": "uint256",
							"name": "internalFee",
							"type": "uint256"
						},
						{
							"internalType": "uint256",
							"name": "externalFee",
							"type": "uint256"
						},
						{
							"internalType": "uint256",
							"name": "timestamp",
							"type": "uint256"
						},
						{
							"internalType": "uint256",
							"name": "rateUSDTtoUSD",
							"type": "uint256"
						}
					],
					"internalType": "struct E0.Event",
					"name": "",
					"type": "tuple"
				}
			],
			"stateMutability": "view",
			"type": "function"
		},
		{
			"inputs": [
				{
					"internalType": "uint256",
					"name": "index",
					"type": "uint256"
				}
			],
			"name": "getTransactionByIndex",
			"outputs": [
				{
					"components": [
						{
							"internalType": "string",
							"name": "id",
							"type": "string"
						},
						{
							"internalType": "string",
							"name": "transactionType",
							"type": "string"
						},
						{
							"internalType": "uint256",
							"name": "amount",
							"type": "uint256"
						},
						{
							"internalType": "uint256",
							"name": "internalFee",
							"type": "uint256"
						},
						{
							"internalType": "uint256",
							"name": "externalFee",
							"type": "uint256"
						},
						{
							"internalType": "uint256",
							"name": "timestamp",
							"type": "uint256"
						},
						{
							"internalType": "uint256",
							"name": "rateUSDTtoUSD",
							"type": "uint256"
						}
					],
					"internalType": "struct E0.Event",
					"name": "",
					"type": "tuple"
				}
			],
			"stateMutability": "view",
			"type": "function"
		},
		{
			"inputs": [],
			"name": "getTransactionCount",
			"outputs": [
				{
					"internalType": "uint256",
					"name": "",
					"type": "uint256"
				}
			],
			"stateMutability": "view",
			"type": "function"
		},
		{
			"inputs": [
				{
					"internalType": "uint256",
					"name": "startTime",
					"type": "uint256"
				},
				{
					"internalType": "uint256",
					"name": "endTime",
					"type": "uint256"
				}
			],
			"name": "getTransactionsInTimeRange",
			"outputs": [
				{
					"components": [
						{
							"internalType": "string",
							"name": "id",
							"type": "string"
						},
						{
							"internalType": "string",
							"name": "transactionType",
							"type": "string"
						},
						{
							"internalType": "uint256",
							"name": "amount",
							"type": "uint256"
						},
						{
							"internalType": "uint256",
							"name": "internalFee",
							"type": "uint256"
						},
						{
							"internalType": "uint256",
							"name": "externalFee",
							"type": "uint256"
						},
						{
							"internalType": "uint256",
							"name": "timestamp",
							"type": "uint256"
						},
						{
							"internalType": "uint256",
							"name": "rateUSDTtoUSD",
							"type": "uint256"
						}
					],
					"internalType": "struct E0.Event[]",
					"name": "",
					"type": "tuple[]"
				}
			],
			"stateMutability": "view",
			"type": "function"
		},
		{
			"inputs": [
				{
					"internalType": "uint256",
					"name": "",
					"type": "uint256"
				}
			],
			"name": "rateHistory",
			"outputs": [
				{
					"internalType": "uint256",
					"name": "timestamp",
					"type": "uint256"
				},
				{
					"internalType": "uint256",
					"name": "rateUSDTtoUSD",
					"type": "uint256"
				},
				{
					"internalType": "uint256",
					"name": "rateETHtoUSD",
					"type": "uint256"
				},
				{
					"internalType": "uint256",
					"name": "rateBTCtoUSD",
					"type": "uint256"
				}
			],
			"stateMutability": "view",
			"type": "function"
		},
		{
			"inputs": [
				{
					"internalType": "string",
					"name": "_id",
					"type": "string"
				},
				{
					"internalType": "string",
					"name": "_transactionType",
					"type": "string"
				},
				{
					"internalType": "uint256",
					"name": "_amount",
					"type": "uint256"
				},
				{
					"internalType": "uint256",
					"name": "_internalFee",
					"type": "uint256"
				},
				{
					"internalType": "uint256",
					"name": "_externalFee",
					"type": "uint256"
				},
				{
					"internalType": "uint256",
					"name": "_rateUSDTtoUSD",
					"type": "uint256"
				}
			],
			"name": "recordTransaction",
			"outputs": [],
			"stateMutability": "nonpayable",
			"type": "function"
		},
		{
			"inputs": [
				{
					"internalType": "uint256",
					"name": "_rateUSDTtoUSD",
					"type": "uint256"
				},
				{
					"internalType": "uint256",
					"name": "_rateETHtoUSD",
					"type": "uint256"
				},
				{
					"internalType": "uint256",
					"name": "_rateBTCtoUSD",
					"type": "uint256"
				}
			],
			"name": "setRate",
			"outputs": [],
			"stateMutability": "nonpayable",
			"type": "function"
		},
		{
			"inputs": [
				{
					"internalType": "uint256",
					"name": "",
					"type": "uint256"
				}
			],
			"name": "transactions",
			"outputs": [
				{
					"internalType": "string",
					"name": "id",
					"type": "string"
				},
				{
					"internalType": "string",
					"name": "transactionType",
					"type": "string"
				},
				{
					"internalType": "uint256",
					"name": "amount",
					"type": "uint256"
				},
				{
					"internalType": "uint256",
					"name": "internalFee",
					"type": "uint256"
				},
				{
					"internalType": "uint256",
					"name": "externalFee",
					"type": "uint256"
				},
				{
					"internalType": "uint256",
					"name": "timestamp",
					"type": "uint256"
				},
				{
					"internalType": "uint256",
					"name": "rateUSDTtoUSD",
					"type": "uint256"
				}
			],
			"stateMutability": "view",
			"type": "function"
		}
	]
}