{
	"data": {
		"bytecode": {
			"linkReferences": {},
			"object": "60806040523480156200001157600080fd5b50604051620018ab380380620018ab83398181016040528101906200003791906200012a565b81600a60006101000a81548173ffffffffffffffffffffffffffffffffffffffff021916908373ffffffffffffffffffffffffffffffffffffffff160217905550806000806101000a81548173ffffffffffffffffffffffffffffffffffffffff021916908373ffffffffffffffffffffffffffffffffffffffff160217905550505062000171565b600080fd5b600073ffffffffffffffffffffffffffffffffffffffff82169050919050565b6000620000f282620000c5565b9050919050565b6200010481620000e5565b81146200011057600080fd5b50565b6000815190506200012481620000f9565b92915050565b60008060408385031215620001445762000143620000c0565b5b6000620001548582860162000113565b9250506020620001678582860162000113565b9150509250929050565b61172a80620001816000396000f3fe608060405234801561001057600080fd5b50600436106100415760003560e01c80631f45275b146100465780632606a10b14610064578063d6bc166d14610082575b600080fd5b61004e61009e565b60405161005b9190610a39565b60405180910390f35b61006c6100c4565b6040516100799190610a75565b60405180910390f35b61009c60048036038101906100979190610c20565b6100e8565b005b600a60009054906101000a900473ffffffffffffffffffffffffffffffffffffffff1681565b60008054906101000a900473ffffffffffffffffffffffffffffffffffffffff1681565b826001819055508160028190555080600381905550846008908161010c9190610ee0565b50836009908161011c9190610ee0565b507f2f8b6c1fd8fe2d4e7dd11b901ace8653bc7de5d664372c606d1f14cac3b1d952858484846040516101529493929190611035565b60405180910390a18460405160200161016b91906110bd565b6040516020818303038152906040528051906020012060086040516020016101939190611157565b604051602081830303815290604052805190602001200361047e57600a60009054906101000a900473ffffffffffffffffffffffffffffffffffffffff1673ffffffffffffffffffffffffffffffffffffffff1663d6fa22b9866040518263ffffffff1660e01b815260040161020991906111ba565b602060405180830381865afa158015610226573d6000803e3d6000fd5b505050506040513d601f19601f8201168201806040525081019061024a9190611204565b600481905550600a60009054906101000a900473ffffffffffffffffffffffffffffffffffffffff1673ffffffffffffffffffffffffffffffffffffffff1663d6fa22b9866040518263ffffffff1660e01b81526004016102ab919061127d565b602060405180830381865afa1580156102c8573d6000803e3d6000fd5b505050506040513d601f19601f820116820180604052508101906102ec9190611204565b600581905550600a60009054906101000a900473ffffffffffffffffffffffffffffffffffffffff1673ffffffffffffffffffffffffffffffffffffffff1663d6fa22b9866040518263ffffffff1660e01b815260040161034d91906112fe565b602060405180830381865afa15801561036a573d6000803e3d6000fd5b505050506040513d601f19601f8201168201806040525081019061038e9190611204565b600681905550600a60009054906101000a900473ffffffffffffffffffffffffffffffffffffffff1673ffffffffffffffffffffffffffffffffffffffff1663d6fa22b9866040518263ffffffff1660e01b81526004016103ef919061137f565b602060405180830381865afa15801561040c573d6000803e3d6000fd5b505050506040513d601f19601f820116820180604052508101906104309190611204565b6007819055507f117c37ae5b048dc17f2eae7251347332ea4fa6db043a63b2ff4ef49062aed292856004546005546006546007546040516104759594939291906113b4565b60405180910390a15b61048661048d565b5050505050565b600060646001546006546004546104a4919061143d565b6104ae9190611471565b6104b891906114e2565b90506000600567ffffffffffffffff8111156104d7576104d6610abf565b5b60405190808252806020026020018201604052801561050a57816020015b60608152602001906001900390816104f55790505b50905060405180606001604052806032815260200161166b603291398160008151811061053a57610539611513565b5b60200260200101819052506040518060600160405280603681526020016116bf603691398160018151811061057257610571611513565b5b60200260200101819052506040518060400160405280601b81526020017f6173736574732e746f74616c416d6f756e744661697256616c75650000000000815250816002815181106105c7576105c6611513565b5b60200260200101819052506040518060400160405280601481526020017f746f74616c4173736574734661697256616c75650000000000000000000000008152508160038151811061061c5761061b611513565b5b602002602001018190525060405180606001604052806022815260200161169d602291398160048151811061065457610653611513565b5b602002602001018190525060008054906101000a900473ffffffffffffffffffffffffffffffffffffffff1673ffffffffffffffffffffffffffffffffffffffff16630d23da126009836000815181106106b1576106b0611513565b5b6020026020010151856040518463ffffffff1660e01b81526004016106d893929190611612565b600060405180830381600087803b1580156106f257600080fd5b505af1158015610706573d6000803e3d6000fd5b5050505060008054906101000a900473ffffffffffffffffffffffffffffffffffffffff1673ffffffffffffffffffffffffffffffffffffffff16630d23da1260098360018151811061075c5761075b611513565b5b6020026020010151856040518463ffffffff1660e01b815260040161078393929190611612565b600060405180830381600087803b15801561079d57600080fd5b505af11580156107b1573d6000803e3d6000fd5b5050505060008054906101000a900473ffffffffffffffffffffffffffffffffffffffff1673ffffffffffffffffffffffffffffffffffffffff16630d23da1260098360028151811061080757610806611513565b5b6020026020010151856040518463ffffffff1660e01b815260040161082e93929190611612565b600060405180830381600087803b15801561084857600080fd5b505af115801561085c573d6000803e3d6000fd5b5050505060008054906101000a900473ffffffffffffffffffffffffffffffffffffffff1673ffffffffffffffffffffffffffffffffffffffff16630d23da126009836003815181106108b2576108b1611513565b5b6020026020010151856040518463ffffffff1660e01b81526004016108d993929190611612565b600060405180830381600087803b1580156108f357600080fd5b505af1158015610907573d6000803e3d6000fd5b5050505060008054906101000a900473ffffffffffffffffffffffffffffffffffffffff1673ffffffffffffffffffffffffffffffffffffffff16630d23da1260098360048151811061095d5761095c611513565b5b6020026020010151856040518463ffffffff1660e01b815260040161098493929190611612565b600060405180830381600087803b15801561099e57600080fd5b505af11580156109b2573d6000803e3d6000fd5b505050505050565b600073ffffffffffffffffffffffffffffffffffffffff82169050919050565b6000819050919050565b60006109ff6109fa6109f5846109ba565b6109da565b6109ba565b9050919050565b6000610a11826109e4565b9050919050565b6000610a2382610a06565b9050919050565b610a3381610a18565b82525050565b6000602082019050610a4e6000830184610a2a565b92915050565b6000610a5f82610a06565b9050919050565b610a6f81610a54565b82525050565b6000602082019050610a8a6000830184610a66565b92915050565b6000604051905090565b600080fd5b600080fd5b600080fd5b600080fd5b6000601f19601f8301169050919050565b7f4e487b7100000000000000000000000000000000000000000000000000000000600052604160045260246000fd5b610af782610aae565b810181811067ffffffffffffffff82111715610b1657610b15610abf565b5b80604052505050565b6000610b29610a90565b9050610b358282610aee565b919050565b600067ffffffffffffffff821115610b5557610b54610abf565b5b610b5e82610aae565b9050602081019050919050565b82818337600083830152505050565b6000610b8d610b8884610b3a565b610b1f565b905082815260208101848484011115610ba957610ba8610aa9565b5b610bb4848285610b6b565b509392505050565b600082601f830112610bd157610bd0610aa4565b5b8135610be1848260208601610b7a565b91505092915050565b6000819050919050565b610bfd81610bea565b8114610c0857600080fd5b50565b600081359050610c1a81610bf4565b92915050565b600080600080600060a08688031215610c3c57610c3b610a9a565b5b600086013567ffffffffffffffff811115610c5a57610c59610a9f565b5b610c6688828901610bbc565b955050602086013567ffffffffffffffff811115610c8757610c86610a9f565b5b610c9388828901610bbc565b9450506040610ca488828901610c0b565b9350506060610cb588828901610c0b565b9250506080610cc688828901610c0b565b9150509295509295909350565b600081519050919050565b7f4e487b7100000000000000000000000000000000000000000000000000000000600052602260045260246000fd5b60006002820490506001821680610d2557607f821691505b602082108103610d3857610d37610cde565b5b50919050565b60008190508160005260206000209050919050565b60006020601f8301049050919050565b600082821b905092915050565b600060088302610da07fffffffffffffffffffffffffffffffffffffffffffffffffffffffffffffffff82610d63565b610daa8683610d63565b95508019841693508086168417925050509392505050565b6000610ddd610dd8610dd384610bea565b6109da565b610bea565b9050919050565b6000819050919050565b610df783610dc2565b610e0b610e0382610de4565b848454610d70565b825550505050565b600090565b610e20610e13565b610e2b818484610dee565b505050565b5b81811015610e4f57610e44600082610e18565b600181019050610e31565b5050565b601f821115610e9457610e6581610d3e565b610e6e84610d53565b81016020851015610e7d578190505b610e91610e8985610d53565b830182610e30565b50505b505050565b600082821c905092915050565b6000610eb760001984600802610e99565b1980831691505092915050565b6000610ed08383610ea6565b9150826002028217905092915050565b610ee982610cd3565b67ffffffffffffffff811115610f0257610f01610abf565b5b610f0c8254610d0d565b610f17828285610e53565b600060209050601f831160018114610f4a5760008415610f38578287015190505b610f428582610ec4565b865550610faa565b601f198416610f5886610d3e565b60005b82811015610f8057848901518255600182019150602085019450602081019050610f5b565b86831015610f9d5784890151610f99601f891682610ea6565b8355505b6001600288020188555050505b505050505050565b600082825260208201905092915050565b60005b83811015610fe1578082015181840152602081019050610fc6565b60008484015250505050565b6000610ff882610cd3565b6110028185610fb2565b9350611012818560208601610fc3565b61101b81610aae565b840191505092915050565b61102f81610bea565b82525050565b6000608082019050818103600083015261104f8187610fed565b905061105e6020830186611026565b61106b6040830185611026565b6110786060830184611026565b95945050505050565b600081905092915050565b600061109782610cd3565b6110a18185611081565b93506110b1818560208601610fc3565b80840191505092915050565b60006110c9828461108c565b915081905092915050565b600081546110e181610d0d565b6110eb8186611081565b94506001821660008114611106576001811461111b5761114e565b60ff198316865281151582028601935061114e565b61112485610d3e565b60005b8381101561114657815481890152600182019150602081019050611127565b838801955050505b50505092915050565b600061116382846110d4565b915081905092915050565b7f4550303031000000000000000000000000000000000000000000000000000000600082015250565b60006111a4600583610fb2565b91506111af8261116e565b602082019050919050565b600060408201905081810360008301526111d48184610fed565b905081810360208301526111e781611197565b905092915050565b6000815190506111fe81610bf4565b92915050565b60006020828403121561121a57611219610a9a565b5b6000611228848285016111ef565b91505092915050565b7f4550303032000000000000000000000000000000000000000000000000000000600082015250565b6000611267600583610fb2565b915061127282611231565b602082019050919050565b600060408201905081810360008301526112978184610fed565b905081810360208301526112aa8161125a565b905092915050565b7f4550303033000000000000000000000000000000000000000000000000000000600082015250565b60006112e8600583610fb2565b91506112f3826112b2565b602082019050919050565b600060408201905081810360008301526113188184610fed565b9050818103602083015261132b816112db565b905092915050565b7f4550303035000000000000000000000000000000000000000000000000000000600082015250565b6000611369600583610fb2565b915061137482611333565b602082019050919050565b600060408201905081810360008301526113998184610fed565b905081810360208301526113ac8161135c565b905092915050565b600060a08201905081810360008301526113ce8188610fed565b90506113dd6020830187611026565b6113ea6040830186611026565b6113f76060830185611026565b6114046080830184611026565b9695505050505050565b7f4e487b7100000000000000000000000000000000000000000000000000000000600052601160045260246000fd5b600061144882610bea565b915061145383610bea565b925082820190508082111561146b5761146a61140e565b5b92915050565b600061147c82610bea565b915061148783610bea565b925082820261149581610bea565b915082820484148315176114ac576114ab61140e565b5b5092915050565b7f4e487b7100000000000000000000000000000000000000000000000000000000600052601260045260246000fd5b60006114ed82610bea565b91506114f883610bea565b925082611508576115076114b3565b5b828204905092915050565b7f4e487b7100000000000000000000000000000000000000000000000000000000600052603260045260246000fd5b6000815461154f81610d0d565b6115598186610fb2565b94506001821660008114611574576001811461158a576115bd565b60ff1983168652811515602002860193506115bd565b61159385610d3e565b60005b838110156115b557815481890152600182019150602081019050611596565b808801955050505b50505092915050565b7f62616c616e636553686565740000000000000000000000000000000000000000600082015250565b60006115fc600c83610fb2565b9150611607826115c6565b602082019050919050565b6000608082019050818103600083015261162c8186611542565b9050818103602083015261163f816115ef565b905081810360408301526116538185610fed565b90506116626060830184611026565b94935050505056fe6173736574732e64657461696c732e63727970746f63757272656e63792e746f74616c416d6f756e744661697256616c7565746f74616c4c696162696c6974696573416e644571756974794661697256616c75656173736574732e64657461696c732e63727970746f63757272656e63792e627265616b646f776e2e555344542e6661697256616c7565a2646970667358221220911cf81f6b671cb1a4641d6bdd30c63a1cc7bdc0f24c34ce10067f8a44cf8f3164736f6c63430008120033",
			"opcodes": "PUSH1 0x80 PUSH1 0x40 MSTORE CALLVALUE DUP1 ISZERO PUSH3 0x11 JUMPI PUSH1 0x0 DUP1 REVERT JUMPDEST POP PUSH1 0x40 MLOAD PUSH3 0x18AB CODESIZE SUB DUP1 PUSH3 0x18AB DUP4 CODECOPY DUP2 DUP2 ADD PUSH1 0x40 MSTORE DUP2 ADD SWAP1 PUSH3 0x37 SWAP2 SWAP1 PUSH3 0x12A JUMP JUMPDEST DUP2 PUSH1 0xA PUSH1 0x0 PUSH2 0x100 EXP DUP2 SLOAD DUP2 PUSH20 0xFFFFFFFFFFFFFFFFFFFFFFFFFFFFFFFFFFFFFFFF MUL NOT AND SWAP1 DUP4 PUSH20 0xFFFFFFFFFFFFFFFFFFFFFFFFFFFFFFFFFFFFFFFF AND MUL OR SWAP1 SSTORE POP DUP1 PUSH1 0x0 DUP1 PUSH2 0x100 EXP DUP2 SLOAD DUP2 PUSH20 0xFFFFFFFFFFFFFFFFFFFFFFFFFFFFFFFFFFFFFFFF MUL NOT AND SWAP1 DUP4 PUSH20 0xFFFFFFFFFFFFFFFFFFFFFFFFFFFFFFFFFFFFFFFF AND MUL OR SWAP1 SSTORE POP POP POP PUSH3 0x171 JUMP JUMPDEST PUSH1 0x0 DUP1 REVERT JUMPDEST PUSH1 0x0 PUSH20 0xFFFFFFFFFFFFFFFFFFFFFFFFFFFFFFFFFFFFFFFF DUP3 AND SWAP1 POP SWAP2 SWAP1 POP JUMP JUMPDEST PUSH1 0x0 PUSH3 0xF2 DUP3 PUSH3 0xC5 JUMP JUMPDEST SWAP1 POP SWAP2 SWAP1 POP JUMP JUMPDEST PUSH3 0x104 DUP2 PUSH3 0xE5 JUMP JUMPDEST DUP2 EQ PUSH3 0x110 JUMPI PUSH1 0x0 DUP1 REVERT JUMPDEST POP JUMP JUMPDEST PUSH1 0x0 DUP2 MLOAD SWAP1 POP PUSH3 0x124 DUP2 PUSH3 0xF9 JUMP JUMPDEST SWAP3 SWAP2 POP POP JUMP JUMPDEST PUSH1 0x0 DUP1 PUSH1 0x40 DUP4 DUP6 SUB SLT ISZERO PUSH3 0x144 JUMPI PUSH3 0x143 PUSH3 0xC0 JUMP JUMPDEST JUMPDEST PUSH1 0x0 PUSH3 0x154 DUP6 DUP3 DUP7 ADD PUSH3 0x113 JUMP JUMPDEST SWAP3 POP POP PUSH1 0x20 PUSH3 0x167 DUP6 DUP3 DUP7 ADD PUSH3 0x113 JUMP JUMPDEST SWAP2 POP POP SWAP3 POP SWAP3 SWAP1 POP JUMP JUMPDEST PUSH2 0x172A DUP1 PUSH3 0x181 PUSH1 0x0 CODECOPY PUSH1 0x0 RETURN INVALID PUSH1 0x80 PUSH1 0x40 MSTORE CALLVALUE DUP1 ISZERO PUSH2 0x10 JUMPI PUSH1 0x0 DUP1 REVERT JUMPDEST POP PUSH1 0x4 CALLDATASIZE LT PUSH2 0x41 JUMPI PUSH1 0x0 CALLDATALOAD PUSH1 0xE0 SHR DUP1 PUSH4 0x1F45275B EQ PUSH2 0x46 JUMPI DUP1 PUSH4 0x2606A10B EQ PUSH2 0x64 JUMPI DUP1 PUSH4 0xD6BC166D EQ PUSH2 0x82 JUMPI JUMPDEST PUSH1 0x0 DUP1 REVERT JUMPDEST PUSH2 0x4E PUSH2 0x9E JUMP JUMPDEST PUSH1 0x40 MLOAD PUSH2 0x5B SWAP2 SWAP1 PUSH2 0xA39 JUMP JUMPDEST PUSH1 0x40 MLOAD DUP1 SWAP2 SUB SWAP1 RETURN JUMPDEST PUSH2 0x6C PUSH2 0xC4 JUMP JUMPDEST PUSH1 0x40 MLOAD PUSH2 0x79 SWAP2 SWAP1 PUSH2 0xA75 JUMP JUMPDEST PUSH1 0x40 MLOAD DUP1 SWAP2 SUB SWAP1 RETURN JUMPDEST PUSH2 0x9C PUSH1 0x4 DUP1 CALLDATASIZE SUB DUP2 ADD SWAP1 PUSH2 0x97 SWAP2 SWAP1 PUSH2 0xC20 JUMP JUMPDEST PUSH2 0xE8 JUMP JUMPDEST STOP JUMPDEST PUSH1 0xA PUSH1 0x0 SWAP1 SLOAD SWAP1 PUSH2 0x100 EXP SWAP1 DIV PUSH20 0xFFFFFFFFFFFFFFFFFFFFFFFFFFFFFFFFFFFFFFFF AND DUP2 JUMP JUMPDEST PUSH1 0x0 DUP1 SLOAD SWAP1 PUSH2 0x100 EXP SWAP1 DIV PUSH20 0xFFFFFFFFFFFFFFFFFFFFFFFFFFFFFFFFFFFFFFFF AND DUP2 JUMP JUMPDEST DUP3 PUSH1 0x1 DUP2 SWAP1 SSTORE POP DUP2 PUSH1 0x2 DUP2 SWAP1 SSTORE POP DUP1 PUSH1 0x3 DUP2 SWAP1 SSTORE POP DUP5 PUSH1 0x8 SWAP1 DUP2 PUSH2 0x10C SWAP2 SWAP1 PUSH2 0xEE0 JUMP JUMPDEST POP DUP4 PUSH1 0x9 SWAP1 DUP2 PUSH2 0x11C SWAP2 SWAP1 PUSH2 0xEE0 JUMP JUMPDEST POP PUSH32 0x2F8B6C1FD8FE2D4E7DD11B901ACE8653BC7DE5D664372C606D1F14CAC3B1D952 DUP6 DUP5 DUP5 DUP5 PUSH1 0x40 MLOAD PUSH2 0x152 SWAP5 SWAP4 SWAP3 SWAP2 SWAP1 PUSH2 0x1035 JUMP JUMPDEST PUSH1 0x40 MLOAD DUP1 SWAP2 SUB SWAP1 LOG1 DUP5 PUSH1 0x40 MLOAD PUSH1 0x20 ADD PUSH2 0x16B SWAP2 SWAP1 PUSH2 0x10BD JUMP JUMPDEST PUSH1 0x40 MLOAD PUSH1 0x20 DUP2 DUP4 SUB SUB DUP2 MSTORE SWAP1 PUSH1 0x40 MSTORE DUP1 MLOAD SWAP1 PUSH1 0x20 ADD KECCAK256 PUSH1 0x8 PUSH1 0x40 MLOAD PUSH1 0x20 ADD PUSH2 0x193 SWAP2 SWAP1 PUSH2 0x1157 JUMP JUMPDEST PUSH1 0x40 MLOAD PUSH1 0x20 DUP2 DUP4 SUB SUB DUP2 MSTORE SWAP1 PUSH1 0x40 MSTORE DUP1 MLOAD SWAP1 PUSH1 0x20 ADD KECCAK256 SUB PUSH2 0x47E JUMPI PUSH1 0xA PUSH1 0x0 SWAP1 SLOAD SWAP1 PUSH2 0x100 EXP SWAP1 DIV PUSH20 0xFFFFFFFFFFFFFFFFFFFFFFFFFFFFFFFFFFFFFFFF AND PUSH20 0xFFFFFFFFFFFFFFFFFFFFFFFFFFFFFFFFFFFFFFFF AND PUSH4 0xD6FA22B9 DUP7 PUSH1 0x40 MLOAD DUP3 PUSH4 0xFFFFFFFF AND PUSH1 0xE0 SHL DUP2 MSTORE PUSH1 0x4 ADD PUSH2 0x209 SWAP2 SWAP1 PUSH2 0x11BA JUMP JUMPDEST PUSH1 0x20 PUSH1 0x40 MLOAD DUP1 DUP4 SUB DUP2 DUP7 GAS STATICCALL ISZERO DUP1 ISZERO PUSH2 0x226 JUMPI RETURNDATASIZE PUSH1 0x0 DUP1 RETURNDATACOPY RETURNDATASIZE PUSH1 0x0 REVERT JUMPDEST POP POP POP POP PUSH1 0x40 MLOAD RETURNDATASIZE PUSH1 0x1F NOT PUSH1 0x1F DUP3 ADD AND DUP3 ADD DUP1 PUSH1 0x40 MSTORE POP DUP2 ADD SWAP1 PUSH2 0x24A SWAP2 SWAP1 PUSH2 0x1204 JUMP JUMPDEST PUSH1 0x4 DUP2 SWAP1 SSTORE POP PUSH1 0xA PUSH1 0x0 SWAP1 SLOAD SWAP1 PUSH2 0x100 EXP SWAP1 DIV PUSH20 0xFFFFFFFFFFFFFFFFFFFFFFFFFFFFFFFFFFFFFFFF AND PUSH20 0xFFFFFFFFFFFFFFFFFFFFFFFFFFFFFFFFFFFFFFFF AND PUSH4 0xD6FA22B9 DUP7 PUSH1 0x40 MLOAD DUP3 PUSH4 0xFFFFFFFF AND PUSH1 0xE0 SHL DUP2 MSTORE PUSH1 0x4 ADD PUSH2 0x2AB SWAP2 SWAP1 PUSH2 0x127D JUMP JUMPDEST PUSH1 0x20 PUSH1 0x40 MLOAD DUP1 DUP4 SUB DUP2 DUP7 GAS STATICCALL ISZERO DUP1 ISZERO PUSH2 0x2C8 JUMPI RETURNDATASIZE PUSH1 0x0 DUP1 RETURNDATACOPY RETURNDATASIZE PUSH1 0x0 REVERT JUMPDEST POP POP POP POP PUSH1 0x40 MLOAD RETURNDATASIZE PUSH1 0x1F NOT PUSH1 0x1F DUP3 ADD AND DUP3 ADD DUP1 PUSH1 0x40 MSTORE POP DUP2 ADD SWAP1 PUSH2 0x2EC SWAP2 SWAP1 PUSH2 0x1204 JUMP JUMPDEST PUSH1 0x5 DUP2 SWAP1 SSTORE POP PUSH1 0xA PUSH1 0x0 SWAP1 SLOAD SWAP1 PUSH2 0x100 EXP SWAP1 DIV PUSH20 0xFFFFFFFFFFFFFFFFFFFFFFFFFFFFFFFFFFFFFFFF AND PUSH20 0xFFFFFFFFFFFFFFFFFFFFFFFFFFFFFFFFFFFFFFFF AND PUSH4 0xD6FA22B9 DUP7 PUSH1 0x40 MLOAD DUP3 PUSH4 0xFFFFFFFF AND PUSH1 0xE0 SHL DUP2 MSTORE PUSH1 0x4 ADD PUSH2 0x34D SWAP2 SWAP1 PUSH2 0x12FE JUMP JUMPDEST PUSH1 0x20 PUSH1 0x40 MLOAD DUP1 DUP4 SUB DUP2 DUP7 GAS STATICCALL ISZERO DUP1 ISZERO PUSH2 0x36A JUMPI RETURNDATASIZE PUSH1 0x0 DUP1 RETURNDATACOPY RETURNDATASIZE PUSH1 0x0 REVERT JUMPDEST POP POP POP POP PUSH1 0x40 MLOAD RETURNDATASIZE PUSH1 0x1F NOT PUSH1 0x1F DUP3 ADD AND DUP3 ADD DUP1 PUSH1 0x40 MSTORE POP DUP2 ADD SWAP1 PUSH2 0x38E SWAP2 SWAP1 PUSH2 0x1204 JUMP JUMPDEST PUSH1 0x6 DUP2 SWAP1 SSTORE POP PUSH1 0xA PUSH1 0x0 SWAP1 SLOAD SWAP1 PUSH2 0x100 EXP SWAP1 DIV PUSH20 0xFFFFFFFFFFFFFFFFFFFFFFFFFFFFFFFFFFFFFFFF AND PUSH20 0xFFFFFFFFFFFFFFFFFFFFFFFFFFFFFFFFFFFFFFFF AND PUSH4 0xD6FA22B9 DUP7 PUSH1 0x40 MLOAD DUP3 PUSH4 0xFFFFFFFF AND PUSH1 0xE0 SHL DUP2 MSTORE PUSH1 0x4 ADD PUSH2 0x3EF SWAP2 SWAP1 PUSH2 0x137F JUMP JUMPDEST PUSH1 0x20 PUSH1 0x40 MLOAD DUP1 DUP4 SUB DUP2 DUP7 GAS STATICCALL ISZERO DUP1 ISZERO PUSH2 0x40C JUMPI RETURNDATASIZE PUSH1 0x0 DUP1 RETURNDATACOPY RETURNDATASIZE PUSH1 0x0 REVERT JUMPDEST POP POP POP POP PUSH1 0x40 MLOAD RETURNDATASIZE PUSH1 0x1F NOT PUSH1 0x1F DUP3 ADD AND DUP3 ADD DUP1 PUSH1 0x40 MSTORE POP DUP2 ADD SWAP1 PUSH2 0x430 SWAP2 SWAP1 PUSH2 0x1204 JUMP JUMPDEST PUSH1 0x7 DUP2 SWAP1 SSTORE POP PUSH32 0x117C37AE5B048DC17F2EAE7251347332EA4FA6DB043A63B2FF4EF49062AED292 DUP6 PUSH1 0x4 SLOAD PUSH1 0x5 SLOAD PUSH1 0x6 SLOAD PUSH1 0x7 SLOAD PUSH1 0x40 MLOAD PUSH2 0x475 SWAP6 SWAP5 SWAP4 SWAP3 SWAP2 SWAP1 PUSH2 0x13B4 JUMP JUMPDEST PUSH1 0x40 MLOAD DUP1 SWAP2 SUB SWAP1 LOG1 JUMPDEST PUSH2 0x486 PUSH2 0x48D JUMP JUMPDEST POP POP POP POP POP JUMP JUMPDEST PUSH1 0x0 PUSH1 0x64 PUSH1 0x1 SLOAD PUSH1 0x6 SLOAD PUSH1 0x4 SLOAD PUSH2 0x4A4 SWAP2 SWAP1 PUSH2 0x143D JUMP JUMPDEST PUSH2 0x4AE SWAP2 SWAP1 PUSH2 0x1471 JUMP JUMPDEST PUSH2 0x4B8 SWAP2 SWAP1 PUSH2 0x14E2 JUMP JUMPDEST SWAP1 POP PUSH1 0x0 PUSH1 0x5 PUSH8 0xFFFFFFFFFFFFFFFF DUP2 GT ISZERO PUSH2 0x4D7 JUMPI PUSH2 0x4D6 PUSH2 0xABF JUMP JUMPDEST JUMPDEST PUSH1 0x40 MLOAD SWAP1 DUP1 DUP3 MSTORE DUP1 PUSH1 0x20 MUL PUSH1 0x20 ADD DUP3 ADD PUSH1 0x40 MSTORE DUP1 ISZERO PUSH2 0x50A JUMPI DUP2 PUSH1 0x20 ADD JUMPDEST PUSH1 0x60 DUP2 MSTORE PUSH1 0x20 ADD SWAP1 PUSH1 0x1 SWAP1 SUB SWAP1 DUP2 PUSH2 0x4F5 JUMPI SWAP1 POP JUMPDEST POP SWAP1 POP PUSH1 0x40 MLOAD DUP1 PUSH1 0x60 ADD PUSH1 0x40 MSTORE DUP1 PUSH1 0x32 DUP2 MSTORE PUSH1 0x20 ADD PUSH2 0x166B PUSH1 0x32 SWAP2 CODECOPY DUP2 PUSH1 0x0 DUP2 MLOAD DUP2 LT PUSH2 0x53A JUMPI PUSH2 0x539 PUSH2 0x1513 JUMP JUMPDEST JUMPDEST PUSH1 0x20 MUL PUSH1 0x20 ADD ADD DUP2 SWAP1 MSTORE POP PUSH1 0x40 MLOAD DUP1 PUSH1 0x60 ADD PUSH1 0x40 MSTORE DUP1 PUSH1 0x36 DUP2 MSTORE PUSH1 0x20 ADD PUSH2 0x16BF PUSH1 0x36 SWAP2 CODECOPY DUP2 PUSH1 0x1 DUP2 MLOAD DUP2 LT PUSH2 0x572 JUMPI PUSH2 0x571 PUSH2 0x1513 JUMP JUMPDEST JUMPDEST PUSH1 0x20 MUL PUSH1 0x20 ADD ADD DUP2 SWAP1 MSTORE POP PUSH1 0x40 MLOAD DUP1 PUSH1 0x40 ADD PUSH1 0x40 MSTORE DUP1 PUSH1 0x1B DUP2 MSTORE PUSH1 0x20 ADD PUSH32 0x6173736574732E746F74616C416D6F756E744661697256616C75650000000000 DUP2 MSTORE POP DUP2 PUSH1 0x2 DUP2 MLOAD DUP2 LT PUSH2 0x5C7 JUMPI PUSH2 0x5C6 PUSH2 0x1513 JUMP JUMPDEST JUMPDEST PUSH1 0x20 MUL PUSH1 0x20 ADD ADD DUP2 SWAP1 MSTORE POP PUSH1 0x40 MLOAD DUP1 PUSH1 0x40 ADD PUSH1 0x40 MSTORE DUP1 PUSH1 0x14 DUP2 MSTORE PUSH1 0x20 ADD PUSH32 0x746F74616C4173736574734661697256616C7565000000000000000000000000 DUP2 MSTORE POP DUP2 PUSH1 0x3 DUP2 MLOAD DUP2 LT PUSH2 0x61C JUMPI PUSH2 0x61B PUSH2 0x1513 JUMP JUMPDEST JUMPDEST PUSH1 0x20 MUL PUSH1 0x20 ADD ADD DUP2 SWAP1 MSTORE POP PUSH1 0x40 MLOAD DUP1 PUSH1 0x60 ADD PUSH1 0x40 MSTORE DUP1 PUSH1 0x22 DUP2 MSTORE PUSH1 0x20 ADD PUSH2 0x169D PUSH1 0x22 SWAP2 CODECOPY DUP2 PUSH1 0x4 DUP2 MLOAD DUP2 LT PUSH2 0x654 JUMPI PUSH2 0x653 PUSH2 0x1513 JUMP JUMPDEST JUMPDEST PUSH1 0x20 MUL PUSH1 0x20 ADD ADD DUP2 SWAP1 MSTORE POP PUSH1 0x0 DUP1 SLOAD SWAP1 PUSH2 0x100 EXP SWAP1 DIV PUSH20 0xFFFFFFFFFFFFFFFFFFFFFFFFFFFFFFFFFFFFFFFF AND PUSH20 0xFFFFFFFFFFFFFFFFFFFFFFFFFFFFFFFFFFFFFFFF AND PUSH4 0xD23DA12 PUSH1 0x9 DUP4 PUSH1 0x0 DUP2 MLOAD DUP2 LT PUSH2 0x6B1 JUMPI PUSH2 0x6B0 PUSH2 0x1513 JUMP JUMPDEST JUMPDEST PUSH1 0x20 MUL PUSH1 0x20 ADD ADD MLOAD DUP6 PUSH1 0x40 MLOAD DUP5 PUSH4 0xFFFFFFFF AND PUSH1 0xE0 SHL DUP2 MSTORE PUSH1 0x4 ADD PUSH2 0x6D8 SWAP4 SWAP3 SWAP2 SWAP1 PUSH2 0x1612 JUMP JUMPDEST PUSH1 0x0 PUSH1 0x40 MLOAD DUP1 DUP4 SUB DUP2 PUSH1 0x0 DUP8 DUP1 EXTCODESIZE ISZERO DUP1 ISZERO PUSH2 0x6F2 JUMPI PUSH1 0x0 DUP1 REVERT JUMPDEST POP GAS CALL ISZERO DUP1 ISZERO PUSH2 0x706 JUMPI RETURNDATASIZE PUSH1 0x0 DUP1 RETURNDATACOPY RETURNDATASIZE PUSH1 0x0 REVERT JUMPDEST POP POP POP POP PUSH1 0x0 DUP1 SLOAD SWAP1 PUSH2 0x100 EXP SWAP1 DIV PUSH20 0xFFFFFFFFFFFFFFFFFFFFFFFFFFFFFFFFFFFFFFFF AND PUSH20 0xFFFFFFFFFFFFFFFFFFFFFFFFFFFFFFFFFFFFFFFF AND PUSH4 0xD23DA12 PUSH1 0x9 DUP4 PUSH1 0x1 DUP2 MLOAD DUP2 LT PUSH2 0x75C JUMPI PUSH2 0x75B PUSH2 0x1513 JUMP JUMPDEST JUMPDEST PUSH1 0x20 MUL PUSH1 0x20 ADD ADD MLOAD DUP6 PUSH1 0x40 MLOAD DUP5 PUSH4 0xFFFFFFFF AND PUSH1 0xE0 SHL DUP2 MSTORE PUSH1 0x4 ADD PUSH2 0x783 SWAP4 SWAP3 SWAP2 SWAP1 PUSH2 0x1612 JUMP JUMPDEST PUSH1 0x0 PUSH1 0x40 MLOAD DUP1 DUP4 SUB DUP2 PUSH1 0x0 DUP8 DUP1 EXTCODESIZE ISZERO DUP1 ISZERO PUSH2 0x79D JUMPI PUSH1 0x0 DUP1 REVERT JUMPDEST POP GAS CALL ISZERO DUP1 ISZERO PUSH2 0x7B1 JUMPI RETURNDATASIZE PUSH1 0x0 DUP1 RETURNDATACOPY RETURNDATASIZE PUSH1 0x0 REVERT JUMPDEST POP POP POP POP PUSH1 0x0 DUP1 SLOAD SWAP1 PUSH2 0x100 EXP SWAP1 DIV PUSH20 0xFFFFFFFFFFFFFFFFFFFFFFFFFFFFFFFFFFFFFFFF AND PUSH20 0xFFFFFFFFFFFFFFFFFFFFFFFFFFFFFFFFFFFFFFFF AND PUSH4 0xD23DA12 PUSH1 0x9 DUP4 PUSH1 0x2 DUP2 MLOAD DUP2 LT PUSH2 0x807 JUMPI PUSH2 0x806 PUSH2 0x1513 JUMP JUMPDEST JUMPDEST PUSH1 0x20 MUL PUSH1 0x20 ADD ADD MLOAD DUP6 PUSH1 0x40 MLOAD DUP5 PUSH4 0xFFFFFFFF AND PUSH1 0xE0 SHL DUP2 MSTORE PUSH1 0x4 ADD PUSH2 0x82E SWAP4 SWAP3 SWAP2 SWAP1 PUSH2 0x1612 JUMP JUMPDEST PUSH1 0x0 PUSH1 0x40 MLOAD DUP1 DUP4 SUB DUP2 PUSH1 0x0 DUP8 DUP1 EXTCODESIZE ISZERO DUP1 ISZERO PUSH2 0x848 JUMPI PUSH1 0x0 DUP1 REVERT JUMPDEST POP GAS CALL ISZERO DUP1 ISZERO PUSH2 0x85C JUMPI RETURNDATASIZE PUSH1 0x0 DUP1 RETURNDATACOPY RETURNDATASIZE PUSH1 0x0 REVERT JUMPDEST POP POP POP POP PUSH1 0x0 DUP1 SLOAD SWAP1 PUSH2 0x100 EXP SWAP1 DIV PUSH20 0xFFFFFFFFFFFFFFFFFFFFFFFFFFFFFFFFFFFFFFFF AND PUSH20 0xFFFFFFFFFFFFFFFFFFFFFFFFFFFFFFFFFFFFFFFF AND PUSH4 0xD23DA12 PUSH1 0x9 DUP4 PUSH1 0x3 DUP2 MLOAD DUP2 LT PUSH2 0x8B2 JUMPI PUSH2 0x8B1 PUSH2 0x1513 JUMP JUMPDEST JUMPDEST PUSH1 0x20 MUL PUSH1 0x20 ADD ADD MLOAD DUP6 PUSH1 0x40 MLOAD DUP5 PUSH4 0xFFFFFFFF AND PUSH1 0xE0 SHL DUP2 MSTORE PUSH1 0x4 ADD PUSH2 0x8D9 SWAP4 SWAP3 SWAP2 SWAP1 PUSH2 0x1612 JUMP JUMPDEST PUSH1 0x0 PUSH1 0x40 MLOAD DUP1 DUP4 SUB DUP2 PUSH1 0x0 DUP8 DUP1 EXTCODESIZE ISZERO DUP1 ISZERO PUSH2 0x8F3 JUMPI PUSH1 0x0 DUP1 REVERT JUMPDEST POP GAS CALL ISZERO DUP1 ISZERO PUSH2 0x907 JUMPI RETURNDATASIZE PUSH1 0x0 DUP1 RETURNDATACOPY RETURNDATASIZE PUSH1 0x0 REVERT JUMPDEST POP POP POP POP PUSH1 0x0 DUP1 SLOAD SWAP1 PUSH2 0x100 EXP SWAP1 DIV PUSH20 0xFFFFFFFFFFFFFFFFFFFFFFFFFFFFFFFFFFFFFFFF AND PUSH20 0xFFFFFFFFFFFFFFFFFFFFFFFFFFFFFFFFFFFFFFFF AND PUSH4 0xD23DA12 PUSH1 0x9 DUP4 PUSH1 0x4 DUP2 MLOAD DUP2 LT PUSH2 0x95D JUMPI PUSH2 0x95C PUSH2 0x1513 JUMP JUMPDEST JUMPDEST PUSH1 0x20 MUL PUSH1 0x20 ADD ADD MLOAD DUP6 PUSH1 0x40 MLOAD DUP5 PUSH4 0xFFFFFFFF AND PUSH1 0xE0 SHL DUP2 MSTORE PUSH1 0x4 ADD PUSH2 0x984 SWAP4 SWAP3 SWAP2 SWAP1 PUSH2 0x1612 JUMP JUMPDEST PUSH1 0x0 PUSH1 0x40 MLOAD DUP1 DUP4 SUB DUP2 PUSH1 0x0 DUP8 DUP1 EXTCODESIZE ISZERO DUP1 ISZERO PUSH2 0x99E JUMPI PUSH1 0x0 DUP1 REVERT JUMPDEST POP GAS CALL ISZERO DUP1 ISZERO PUSH2 0x9B2 JUMPI RETURNDATASIZE PUSH1 0x0 DUP1 RETURNDATACOPY RETURNDATASIZE PUSH1 0x0 REVERT JUMPDEST POP POP POP POP POP POP JUMP JUMPDEST PUSH1 0x0 PUSH20 0xFFFFFFFFFFFFFFFFFFFFFFFFFFFFFFFFFFFFFFFF DUP3 AND SWAP1 POP SWAP2 SWAP1 POP JUMP JUMPDEST PUSH1 0x0 DUP2 SWAP1 POP SWAP2 SWAP1 POP JUMP JUMPDEST PUSH1 0x0 PUSH2 0x9FF PUSH2 0x9FA PUSH2 0x9F5 DUP5 PUSH2 0x9BA JUMP JUMPDEST PUSH2 0x9DA JUMP JUMPDEST PUSH2 0x9BA JUMP JUMPDEST SWAP1 POP SWAP2 SWAP1 POP JUMP JUMPDEST PUSH1 0x0 PUSH2 0xA11 DUP3 PUSH2 0x9E4 JUMP JUMPDEST SWAP1 POP SWAP2 SWAP1 POP JUMP JUMPDEST PUSH1 0x0 PUSH2 0xA23 DUP3 PUSH2 0xA06 JUMP JUMPDEST SWAP1 POP SWAP2 SWAP1 POP JUMP JUMPDEST PUSH2 0xA33 DUP2 PUSH2 0xA18 JUMP JUMPDEST DUP3 MSTORE POP POP JUMP JUMPDEST PUSH1 0x0 PUSH1 0x20 DUP3 ADD SWAP1 POP PUSH2 0xA4E PUSH1 0x0 DUP4 ADD DUP5 PUSH2 0xA2A JUMP JUMPDEST SWAP3 SWAP2 POP POP JUMP JUMPDEST PUSH1 0x0 PUSH2 0xA5F DUP3 PUSH2 0xA06 JUMP JUMPDEST SWAP1 POP SWAP2 SWAP1 POP JUMP JUMPDEST PUSH2 0xA6F DUP2 PUSH2 0xA54 JUMP JUMPDEST DUP3 MSTORE POP POP JUMP JUMPDEST PUSH1 0x0 PUSH1 0x20 DUP3 ADD SWAP1 POP PUSH2 0xA8A PUSH1 0x0 DUP4 ADD DUP5 PUSH2 0xA66 JUMP JUMPDEST SWAP3 SWAP2 POP POP JUMP JUMPDEST PUSH1 0x0 PUSH1 0x40 MLOAD SWAP1 POP SWAP1 JUMP JUMPDEST PUSH1 0x0 DUP1 REVERT JUMPDEST PUSH1 0x0 DUP1 REVERT JUMPDEST PUSH1 0x0 DUP1 REVERT JUMPDEST PUSH1 0x0 DUP1 REVERT JUMPDEST PUSH1 0x0 PUSH1 0x1F NOT PUSH1 0x1F DUP4 ADD AND SWAP1 POP SWAP2 SWAP1 POP JUMP JUMPDEST PUSH32 0x4E487B7100000000000000000000000000000000000000000000000000000000 PUSH1 0x0 MSTORE PUSH1 0x41 PUSH1 0x4 MSTORE PUSH1 0x24 PUSH1 0x0 REVERT JUMPDEST PUSH2 0xAF7 DUP3 PUSH2 0xAAE JUMP JUMPDEST DUP2 ADD DUP2 DUP2 LT PUSH8 0xFFFFFFFFFFFFFFFF DUP3 GT OR ISZERO PUSH2 0xB16 JUMPI PUSH2 0xB15 PUSH2 0xABF JUMP JUMPDEST JUMPDEST DUP1 PUSH1 0x40 MSTORE POP POP POP JUMP JUMPDEST PUSH1 0x0 PUSH2 0xB29 PUSH2 0xA90 JUMP JUMPDEST SWAP1 POP PUSH2 0xB35 DUP3 DUP3 PUSH2 0xAEE JUMP JUMPDEST SWAP2 SWAP1 POP JUMP JUMPDEST PUSH1 0x0 PUSH8 0xFFFFFFFFFFFFFFFF DUP3 GT ISZERO PUSH2 0xB55 JUMPI PUSH2 0xB54 PUSH2 0xABF JUMP JUMPDEST JUMPDEST PUSH2 0xB5E DUP3 PUSH2 0xAAE JUMP JUMPDEST SWAP1 POP PUSH1 0x20 DUP2 ADD SWAP1 POP SWAP2 SWAP1 POP JUMP JUMPDEST DUP3 DUP2 DUP4 CALLDATACOPY PUSH1 0x0 DUP4 DUP4 ADD MSTORE POP POP POP JUMP JUMPDEST PUSH1 0x0 PUSH2 0xB8D PUSH2 0xB88 DUP5 PUSH2 0xB3A JUMP JUMPDEST PUSH2 0xB1F JUMP JUMPDEST SWAP1 POP DUP3 DUP2 MSTORE PUSH1 0x20 DUP2 ADD DUP5 DUP5 DUP5 ADD GT ISZERO PUSH2 0xBA9 JUMPI PUSH2 0xBA8 PUSH2 0xAA9 JUMP JUMPDEST JUMPDEST PUSH2 0xBB4 DUP5 DUP3 DUP6 PUSH2 0xB6B JUMP JUMPDEST POP SWAP4 SWAP3 POP POP POP JUMP JUMPDEST PUSH1 0x0 DUP3 PUSH1 0x1F DUP4 ADD SLT PUSH2 0xBD1 JUMPI PUSH2 0xBD0 PUSH2 0xAA4 JUMP JUMPDEST JUMPDEST DUP2 CALLDATALOAD PUSH2 0xBE1 DUP5 DUP3 PUSH1 0x20 DUP7 ADD PUSH2 0xB7A JUMP JUMPDEST SWAP2 POP POP SWAP3 SWAP2 POP POP JUMP JUMPDEST PUSH1 0x0 DUP2 SWAP1 POP SWAP2 SWAP1 POP JUMP JUMPDEST PUSH2 0xBFD DUP2 PUSH2 0xBEA JUMP JUMPDEST DUP2 EQ PUSH2 0xC08 JUMPI PUSH1 0x0 DUP1 REVERT JUMPDEST POP JUMP JUMPDEST PUSH1 0x0 DUP2 CALLDATALOAD SWAP1 POP PUSH2 0xC1A DUP2 PUSH2 0xBF4 JUMP JUMPDEST SWAP3 SWAP2 POP POP JUMP JUMPDEST PUSH1 0x0 DUP1 PUSH1 0x0 DUP1 PUSH1 0x0 PUSH1 0xA0 DUP7 DUP9 SUB SLT ISZERO PUSH2 0xC3C JUMPI PUSH2 0xC3B PUSH2 0xA9A JUMP JUMPDEST JUMPDEST PUSH1 0x0 DUP7 ADD CALLDATALOAD PUSH8 0xFFFFFFFFFFFFFFFF DUP2 GT ISZERO PUSH2 0xC5A JUMPI PUSH2 0xC59 PUSH2 0xA9F JUMP JUMPDEST JUMPDEST PUSH2 0xC66 DUP9 DUP3 DUP10 ADD PUSH2 0xBBC JUMP JUMPDEST SWAP6 POP POP PUSH1 0x20 DUP7 ADD CALLDATALOAD PUSH8 0xFFFFFFFFFFFFFFFF DUP2 GT ISZERO PUSH2 0xC87 JUMPI PUSH2 0xC86 PUSH2 0xA9F JUMP JUMPDEST JUMPDEST PUSH2 0xC93 DUP9 DUP3 DUP10 ADD PUSH2 0xBBC JUMP JUMPDEST SWAP5 POP POP PUSH1 0x40 PUSH2 0xCA4 DUP9 DUP3 DUP10 ADD PUSH2 0xC0B JUMP JUMPDEST SWAP4 POP POP PUSH1 0x60 PUSH2 0xCB5 DUP9 DUP3 DUP10 ADD PUSH2 0xC0B JUMP JUMPDEST SWAP3 POP POP PUSH1 0x80 PUSH2 0xCC6 DUP9 DUP3 DUP10 ADD PUSH2 0xC0B JUMP JUMPDEST SWAP2 POP POP SWAP3 SWAP6 POP SWAP3 SWAP6 SWAP1 SWAP4 POP JUMP JUMPDEST PUSH1 0x0 DUP2 MLOAD SWAP1 POP SWAP2 SWAP1 POP JUMP JUMPDEST PUSH32 0x4E487B7100000000000000000000000000000000000000000000000000000000 PUSH1 0x0 MSTORE PUSH1 0x22 PUSH1 0x4 MSTORE PUSH1 0x24 PUSH1 0x0 REVERT JUMPDEST PUSH1 0x0 PUSH1 0x2 DUP3 DIV SWAP1 POP PUSH1 0x1 DUP3 AND DUP1 PUSH2 0xD25 JUMPI PUSH1 0x7F DUP3 AND SWAP2 POP JUMPDEST PUSH1 0x20 DUP3 LT DUP2 SUB PUSH2 0xD38 JUMPI PUSH2 0xD37 PUSH2 0xCDE JUMP JUMPDEST JUMPDEST POP SWAP2 SWAP1 POP JUMP JUMPDEST PUSH1 0x0 DUP2 SWAP1 POP DUP2 PUSH1 0x0 MSTORE PUSH1 0x20 PUSH1 0x0 KECCAK256 SWAP1 POP SWAP2 SWAP1 POP JUMP JUMPDEST PUSH1 0x0 PUSH1 0x20 PUSH1 0x1F DUP4 ADD DIV SWAP1 POP SWAP2 SWAP1 POP JUMP JUMPDEST PUSH1 0x0 DUP3 DUP3 SHL SWAP1 POP SWAP3 SWAP2 POP POP JUMP JUMPDEST PUSH1 0x0 PUSH1 0x8 DUP4 MUL PUSH2 0xDA0 PUSH32 0xFFFFFFFFFFFFFFFFFFFFFFFFFFFFFFFFFFFFFFFFFFFFFFFFFFFFFFFFFFFFFFFF DUP3 PUSH2 0xD63 JUMP JUMPDEST PUSH2 0xDAA DUP7 DUP4 PUSH2 0xD63 JUMP JUMPDEST SWAP6 POP DUP1 NOT DUP5 AND SWAP4 POP DUP1 DUP7 AND DUP5 OR SWAP3 POP POP POP SWAP4 SWAP3 POP POP POP JUMP JUMPDEST PUSH1 0x0 PUSH2 0xDDD PUSH2 0xDD8 PUSH2 0xDD3 DUP5 PUSH2 0xBEA JUMP JUMPDEST PUSH2 0x9DA JUMP JUMPDEST PUSH2 0xBEA JUMP JUMPDEST SWAP1 POP SWAP2 SWAP1 POP JUMP JUMPDEST PUSH1 0x0 DUP2 SWAP1 POP SWAP2 SWAP1 POP JUMP JUMPDEST PUSH2 0xDF7 DUP4 PUSH2 0xDC2 JUMP JUMPDEST PUSH2 0xE0B PUSH2 0xE03 DUP3 PUSH2 0xDE4 JUMP JUMPDEST DUP5 DUP5 SLOAD PUSH2 0xD70 JUMP JUMPDEST DUP3 SSTORE POP POP POP POP JUMP JUMPDEST PUSH1 0x0 SWAP1 JUMP JUMPDEST PUSH2 0xE20 PUSH2 0xE13 JUMP JUMPDEST PUSH2 0xE2B DUP2 DUP5 DUP5 PUSH2 0xDEE JUMP JUMPDEST POP POP POP JUMP JUMPDEST JUMPDEST DUP2 DUP2 LT ISZERO PUSH2 0xE4F JUMPI PUSH2 0xE44 PUSH1 0x0 DUP3 PUSH2 0xE18 JUMP JUMPDEST PUSH1 0x1 DUP2 ADD SWAP1 POP PUSH2 0xE31 JUMP JUMPDEST POP POP JUMP JUMPDEST PUSH1 0x1F DUP3 GT ISZERO PUSH2 0xE94 JUMPI PUSH2 0xE65 DUP2 PUSH2 0xD3E JUMP JUMPDEST PUSH2 0xE6E DUP5 PUSH2 0xD53 JUMP JUMPDEST DUP2 ADD PUSH1 0x20 DUP6 LT ISZERO PUSH2 0xE7D JUMPI DUP2 SWAP1 POP JUMPDEST PUSH2 0xE91 PUSH2 0xE89 DUP6 PUSH2 0xD53 JUMP JUMPDEST DUP4 ADD DUP3 PUSH2 0xE30 JUMP JUMPDEST POP POP JUMPDEST POP POP POP JUMP JUMPDEST PUSH1 0x0 DUP3 DUP3 SHR SWAP1 POP SWAP3 SWAP2 POP POP JUMP JUMPDEST PUSH1 0x0 PUSH2 0xEB7 PUSH1 0x0 NOT DUP5 PUSH1 0x8 MUL PUSH2 0xE99 JUMP JUMPDEST NOT DUP1 DUP4 AND SWAP2 POP POP SWAP3 SWAP2 POP POP JUMP JUMPDEST PUSH1 0x0 PUSH2 0xED0 DUP4 DUP4 PUSH2 0xEA6 JUMP JUMPDEST SWAP2 POP DUP3 PUSH1 0x2 MUL DUP3 OR SWAP1 POP SWAP3 SWAP2 POP POP JUMP JUMPDEST PUSH2 0xEE9 DUP3 PUSH2 0xCD3 JUMP JUMPDEST PUSH8 0xFFFFFFFFFFFFFFFF DUP2 GT ISZERO PUSH2 0xF02 JUMPI PUSH2 0xF01 PUSH2 0xABF JUMP JUMPDEST JUMPDEST PUSH2 0xF0C DUP3 SLOAD PUSH2 0xD0D JUMP JUMPDEST PUSH2 0xF17 DUP3 DUP3 DUP6 PUSH2 0xE53 JUMP JUMPDEST PUSH1 0x0 PUSH1 0x20 SWAP1 POP PUSH1 0x1F DUP4 GT PUSH1 0x1 DUP2 EQ PUSH2 0xF4A JUMPI PUSH1 0x0 DUP5 ISZERO PUSH2 0xF38 JUMPI DUP3 DUP8 ADD MLOAD SWAP1 POP JUMPDEST PUSH2 0xF42 DUP6 DUP3 PUSH2 0xEC4 JUMP JUMPDEST DUP7 SSTORE POP PUSH2 0xFAA JUMP JUMPDEST PUSH1 0x1F NOT DUP5 AND PUSH2 0xF58 DUP7 PUSH2 0xD3E JUMP JUMPDEST PUSH1 0x0 JUMPDEST DUP3 DUP2 LT ISZERO PUSH2 0xF80 JUMPI DUP5 DUP10 ADD MLOAD DUP3 SSTORE PUSH1 0x1 DUP3 ADD SWAP2 POP PUSH1 0x20 DUP6 ADD SWAP5 POP PUSH1 0x20 DUP2 ADD SWAP1 POP PUSH2 0xF5B JUMP JUMPDEST DUP7 DUP4 LT ISZERO PUSH2 0xF9D JUMPI DUP5 DUP10 ADD MLOAD PUSH2 0xF99 PUSH1 0x1F DUP10 AND DUP3 PUSH2 0xEA6 JUMP JUMPDEST DUP4 SSTORE POP JUMPDEST PUSH1 0x1 PUSH1 0x2 DUP9 MUL ADD DUP9 SSTORE POP POP POP JUMPDEST POP POP POP POP POP POP JUMP JUMPDEST PUSH1 0x0 DUP3 DUP3 MSTORE PUSH1 0x20 DUP3 ADD SWAP1 POP SWAP3 SWAP2 POP POP JUMP JUMPDEST PUSH1 0x0 JUMPDEST DUP4 DUP2 LT ISZERO PUSH2 0xFE1 JUMPI DUP1 DUP3 ADD MLOAD DUP2 DUP5 ADD MSTORE PUSH1 0x20 DUP2 ADD SWAP1 POP PUSH2 0xFC6 JUMP JUMPDEST PUSH1 0x0 DUP5 DUP5 ADD MSTORE POP POP POP POP JUMP JUMPDEST PUSH1 0x0 PUSH2 0xFF8 DUP3 PUSH2 0xCD3 JUMP JUMPDEST PUSH2 0x1002 DUP2 DUP6 PUSH2 0xFB2 JUMP JUMPDEST SWAP4 POP PUSH2 0x1012 DUP2 DUP6 PUSH1 0x20 DUP7 ADD PUSH2 0xFC3 JUMP JUMPDEST PUSH2 0x101B DUP2 PUSH2 0xAAE JUMP JUMPDEST DUP5 ADD SWAP2 POP POP SWAP3 SWAP2 POP POP JUMP JUMPDEST PUSH2 0x102F DUP2 PUSH2 0xBEA JUMP JUMPDEST DUP3 MSTORE POP POP JUMP JUMPDEST PUSH1 0x0 PUSH1 0x80 DUP3 ADD SWAP1 POP DUP2 DUP2 SUB PUSH1 0x0 DUP4 ADD MSTORE PUSH2 0x104F DUP2 DUP8 PUSH2 0xFED JUMP JUMPDEST SWAP1 POP PUSH2 0x105E PUSH1 0x20 DUP4 ADD DUP7 PUSH2 0x1026 JUMP JUMPDEST PUSH2 0x106B PUSH1 0x40 DUP4 ADD DUP6 PUSH2 0x1026 JUMP JUMPDEST PUSH2 0x1078 PUSH1 0x60 DUP4 ADD DUP5 PUSH2 0x1026 JUMP JUMPDEST SWAP6 SWAP5 POP POP POP POP POP JUMP JUMPDEST PUSH1 0x0 DUP2 SWAP1 POP SWAP3 SWAP2 POP POP JUMP JUMPDEST PUSH1 0x0 PUSH2 0x1097 DUP3 PUSH2 0xCD3 JUMP JUMPDEST PUSH2 0x10A1 DUP2 DUP6 PUSH2 0x1081 JUMP JUMPDEST SWAP4 POP PUSH2 0x10B1 DUP2 DUP6 PUSH1 0x20 DUP7 ADD PUSH2 0xFC3 JUMP JUMPDEST DUP1 DUP5 ADD SWAP2 POP POP SWAP3 SWAP2 POP POP JUMP JUMPDEST PUSH1 0x0 PUSH2 0x10C9 DUP3 DUP5 PUSH2 0x108C JUMP JUMPDEST SWAP2 POP DUP2 SWAP1 POP SWAP3 SWAP2 POP POP JUMP JUMPDEST PUSH1 0x0 DUP2 SLOAD PUSH2 0x10E1 DUP2 PUSH2 0xD0D JUMP JUMPDEST PUSH2 0x10EB DUP2 DUP7 PUSH2 0x1081 JUMP JUMPDEST SWAP5 POP PUSH1 0x1 DUP3 AND PUSH1 0x0 DUP2 EQ PUSH2 0x1106 JUMPI PUSH1 0x1 DUP2 EQ PUSH2 0x111B JUMPI PUSH2 0x114E JUMP JUMPDEST PUSH1 0xFF NOT DUP4 AND DUP7 MSTORE DUP2 ISZERO ISZERO DUP3 MUL DUP7 ADD SWAP4 POP PUSH2 0x114E JUMP JUMPDEST PUSH2 0x1124 DUP6 PUSH2 0xD3E JUMP JUMPDEST PUSH1 0x0 JUMPDEST DUP4 DUP2 LT ISZERO PUSH2 0x1146 JUMPI DUP2 SLOAD DUP2 DUP10 ADD MSTORE PUSH1 0x1 DUP3 ADD SWAP2 POP PUSH1 0x20 DUP2 ADD SWAP1 POP PUSH2 0x1127 JUMP JUMPDEST DUP4 DUP9 ADD SWAP6 POP POP POP JUMPDEST POP POP POP SWAP3 SWAP2 POP POP JUMP JUMPDEST PUSH1 0x0 PUSH2 0x1163 DUP3 DUP5 PUSH2 0x10D4 JUMP JUMPDEST SWAP2 POP DUP2 SWAP1 POP SWAP3 SWAP2 POP POP JUMP JUMPDEST PUSH32 0x4550303031000000000000000000000000000000000000000000000000000000 PUSH1 0x0 DUP3 ADD MSTORE POP JUMP JUMPDEST PUSH1 0x0 PUSH2 0x11A4 PUSH1 0x5 DUP4 PUSH2 0xFB2 JUMP JUMPDEST SWAP2 POP PUSH2 0x11AF DUP3 PUSH2 0x116E JUMP JUMPDEST PUSH1 0x20 DUP3 ADD SWAP1 POP SWAP2 SWAP1 POP JUMP JUMPDEST PUSH1 0x0 PUSH1 0x40 DUP3 ADD SWAP1 POP DUP2 DUP2 SUB PUSH1 0x0 DUP4 ADD MSTORE PUSH2 0x11D4 DUP2 DUP5 PUSH2 0xFED JUMP JUMPDEST SWAP1 POP DUP2 DUP2 SUB PUSH1 0x20 DUP4 ADD MSTORE PUSH2 0x11E7 DUP2 PUSH2 0x1197 JUMP JUMPDEST SWAP1 POP SWAP3 SWAP2 POP POP JUMP JUMPDEST PUSH1 0x0 DUP2 MLOAD SWAP1 POP PUSH2 0x11FE DUP2 PUSH2 0xBF4 JUMP JUMPDEST SWAP3 SWAP2 POP POP JUMP JUMPDEST PUSH1 0x0 PUSH1 0x20 DUP3 DUP5 SUB SLT ISZERO PUSH2 0x121A JUMPI PUSH2 0x1219 PUSH2 0xA9A JUMP JUMPDEST JUMPDEST PUSH1 0x0 PUSH2 0x1228 DUP5 DUP3 DUP6 ADD PUSH2 0x11EF JUMP JUMPDEST SWAP2 POP POP SWAP3 SWAP2 POP POP JUMP JUMPDEST PUSH32 0x4550303032000000000000000000000000000000000000000000000000000000 PUSH1 0x0 DUP3 ADD MSTORE POP JUMP JUMPDEST PUSH1 0x0 PUSH2 0x1267 PUSH1 0x5 DUP4 PUSH2 0xFB2 JUMP JUMPDEST SWAP2 POP PUSH2 0x1272 DUP3 PUSH2 0x1231 JUMP JUMPDEST PUSH1 0x20 DUP3 ADD SWAP1 POP SWAP2 SWAP1 POP JUMP JUMPDEST PUSH1 0x0 PUSH1 0x40 DUP3 ADD SWAP1 POP DUP2 DUP2 SUB PUSH1 0x0 DUP4 ADD MSTORE PUSH2 0x1297 DUP2 DUP5 PUSH2 0xFED JUMP JUMPDEST SWAP1 POP DUP2 DUP2 SUB PUSH1 0x20 DUP4 ADD MSTORE PUSH2 0x12AA DUP2 PUSH2 0x125A JUMP JUMPDEST SWAP1 POP SWAP3 SWAP2 POP POP JUMP JUMPDEST PUSH32 0x4550303033000000000000000000000000000000000000000000000000000000 PUSH1 0x0 DUP3 ADD MSTORE POP JUMP JUMPDEST PUSH1 0x0 PUSH2 0x12E8 PUSH1 0x5 DUP4 PUSH2 0xFB2 JUMP JUMPDEST SWAP2 POP PUSH2 0x12F3 DUP3 PUSH2 0x12B2 JUMP JUMPDEST PUSH1 0x20 DUP3 ADD SWAP1 POP SWAP2 SWAP1 POP JUMP JUMPDEST PUSH1 0x0 PUSH1 0x40 DUP3 ADD SWAP1 POP DUP2 DUP2 SUB PUSH1 0x0 DUP4 ADD MSTORE PUSH2 0x1318 DUP2 DUP5 PUSH2 0xFED JUMP JUMPDEST SWAP1 POP DUP2 DUP2 SUB PUSH1 0x20 DUP4 ADD MSTORE PUSH2 0x132B DUP2 PUSH2 0x12DB JUMP JUMPDEST SWAP1 POP SWAP3 SWAP2 POP POP JUMP JUMPDEST PUSH32 0x4550303035000000000000000000000000000000000000000000000000000000 PUSH1 0x0 DUP3 ADD MSTORE POP JUMP JUMPDEST PUSH1 0x0 PUSH2 0x1369 PUSH1 0x5 DUP4 PUSH2 0xFB2 JUMP JUMPDEST SWAP2 POP PUSH2 0x1374 DUP3 PUSH2 0x1333 JUMP JUMPDEST PUSH1 0x20 DUP3 ADD SWAP1 POP SWAP2 SWAP1 POP JUMP JUMPDEST PUSH1 0x0 PUSH1 0x40 DUP3 ADD SWAP1 POP DUP2 DUP2 SUB PUSH1 0x0 DUP4 ADD MSTORE PUSH2 0x1399 DUP2 DUP5 PUSH2 0xFED JUMP JUMPDEST SWAP1 POP DUP2 DUP2 SUB PUSH1 0x20 DUP4 ADD MSTORE PUSH2 0x13AC DUP2 PUSH2 0x135C JUMP JUMPDEST SWAP1 POP SWAP3 SWAP2 POP POP JUMP JUMPDEST PUSH1 0x0 PUSH1 0xA0 DUP3 ADD SWAP1 POP DUP2 DUP2 SUB PUSH1 0x0 DUP4 ADD MSTORE PUSH2 0x13CE DUP2 DUP9 PUSH2 0xFED JUMP JUMPDEST SWAP1 POP PUSH2 0x13DD PUSH1 0x20 DUP4 ADD DUP8 PUSH2 0x1026 JUMP JUMPDEST PUSH2 0x13EA PUSH1 0x40 DUP4 ADD DUP7 PUSH2 0x1026 JUMP JUMPDEST PUSH2 0x13F7 PUSH1 0x60 DUP4 ADD DUP6 PUSH2 0x1026 JUMP JUMPDEST PUSH2 0x1404 PUSH1 0x80 DUP4 ADD DUP5 PUSH2 0x1026 JUMP JUMPDEST SWAP7 SWAP6 POP POP POP POP POP POP JUMP JUMPDEST PUSH32 0x4E487B7100000000000000000000000000000000000000000000000000000000 PUSH1 0x0 MSTORE PUSH1 0x11 PUSH1 0x4 MSTORE PUSH1 0x24 PUSH1 0x0 REVERT JUMPDEST PUSH1 0x0 PUSH2 0x1448 DUP3 PUSH2 0xBEA JUMP JUMPDEST SWAP2 POP PUSH2 0x1453 DUP4 PUSH2 0xBEA JUMP JUMPDEST SWAP3 POP DUP3 DUP3 ADD SWAP1 POP DUP1 DUP3 GT ISZERO PUSH2 0x146B JUMPI PUSH2 0x146A PUSH2 0x140E JUMP JUMPDEST JUMPDEST SWAP3 SWAP2 POP POP JUMP JUMPDEST PUSH1 0x0 PUSH2 0x147C DUP3 PUSH2 0xBEA JUMP JUMPDEST SWAP2 POP PUSH2 0x1487 DUP4 PUSH2 0xBEA JUMP JUMPDEST SWAP3 POP DUP3 DUP3 MUL PUSH2 0x1495 DUP2 PUSH2 0xBEA JUMP JUMPDEST SWAP2 POP DUP3 DUP3 DIV DUP5 EQ DUP4 ISZERO OR PUSH2 0x14AC JUMPI PUSH2 0x14AB PUSH2 0x140E JUMP JUMPDEST JUMPDEST POP SWAP3 SWAP2 POP POP JUMP JUMPDEST PUSH32 0x4E487B7100000000000000000000000000000000000000000000000000000000 PUSH1 0x0 MSTORE PUSH1 0x12 PUSH1 0x4 MSTORE PUSH1 0x24 PUSH1 0x0 REVERT JUMPDEST PUSH1 0x0 PUSH2 0x14ED DUP3 PUSH2 0xBEA JUMP JUMPDEST SWAP2 POP PUSH2 0x14F8 DUP4 PUSH2 0xBEA JUMP JUMPDEST SWAP3 POP DUP3 PUSH2 0x1508 JUMPI PUSH2 0x1507 PUSH2 0x14B3 JUMP JUMPDEST JUMPDEST DUP3 DUP3 DIV SWAP1 POP SWAP3 SWAP2 POP POP JUMP JUMPDEST PUSH32 0x4E487B7100000000000000000000000000000000000000000000000000000000 PUSH1 0x0 MSTORE PUSH1 0x32 PUSH1 0x4 MSTORE PUSH1 0x24 PUSH1 0x0 REVERT JUMPDEST PUSH1 0x0 DUP2 SLOAD PUSH2 0x154F DUP2 PUSH2 0xD0D JUMP JUMPDEST PUSH2 0x1559 DUP2 DUP7 PUSH2 0xFB2 JUMP JUMPDEST SWAP5 POP PUSH1 0x1 DUP3 AND PUSH1 0x0 DUP2 EQ PUSH2 0x1574 JUMPI PUSH1 0x1 DUP2 EQ PUSH2 0x158A JUMPI PUSH2 0x15BD JUMP JUMPDEST PUSH1 0xFF NOT DUP4 AND DUP7 MSTORE DUP2 ISZERO ISZERO PUSH1 0x20 MUL DUP7 ADD SWAP4 POP PUSH2 0x15BD JUMP JUMPDEST PUSH2 0x1593 DUP6 PUSH2 0xD3E JUMP JUMPDEST PUSH1 0x0 JUMPDEST DUP4 DUP2 LT ISZERO PUSH2 0x15B5 JUMPI DUP2 SLOAD DUP2 DUP10 ADD MSTORE PUSH1 0x1 DUP3 ADD SWAP2 POP PUSH1 0x20 DUP2 ADD SWAP1 POP PUSH2 0x1596 JUMP JUMPDEST DUP1 DUP9 ADD SWAP6 POP POP POP JUMPDEST POP POP POP SWAP3 SWAP2 POP POP JUMP JUMPDEST PUSH32 0x62616C616E636553686565740000000000000000000000000000000000000000 PUSH1 0x0 DUP3 ADD MSTORE POP JUMP JUMPDEST PUSH1 0x0 PUSH2 0x15FC PUSH1 0xC DUP4 PUSH2 0xFB2 JUMP JUMPDEST SWAP2 POP PUSH2 0x1607 DUP3 PUSH2 0x15C6 JUMP JUMPDEST PUSH1 0x20 DUP3 ADD SWAP1 POP SWAP2 SWAP1 POP JUMP JUMPDEST PUSH1 0x0 PUSH1 0x80 DUP3 ADD SWAP1 POP DUP2 DUP2 SUB PUSH1 0x0 DUP4 ADD MSTORE PUSH2 0x162C DUP2 DUP7 PUSH2 0x1542 JUMP JUMPDEST SWAP1 POP DUP2 DUP2 SUB PUSH1 0x20 DUP4 ADD MSTORE PUSH2 0x163F DUP2 PUSH2 0x15EF JUMP JUMPDEST SWAP1 POP DUP2 DUP2 SUB PUSH1 0x40 DUP4 ADD MSTORE PUSH2 0x1653 DUP2 DUP6 PUSH2 0xFED JUMP JUMPDEST SWAP1 POP PUSH2 0x1662 PUSH1 0x60 DUP4 ADD DUP5 PUSH2 0x1026 JUMP JUMPDEST SWAP5 SWAP4 POP POP POP POP JUMP INVALID PUSH2 0x7373 PUSH6 0x74732E646574 PUSH2 0x696C PUSH20 0x2E63727970746F63757272656E63792E746F7461 PUSH13 0x416D6F756E744661697256616C PUSH22 0x65746F74616C4C696162696C6974696573416E644571 PUSH22 0x6974794661697256616C75656173736574732E646574 PUSH2 0x696C PUSH20 0x2E63727970746F63757272656E63792E62726561 PUSH12 0x646F776E2E555344542E6661 PUSH10 0x7256616C7565A2646970 PUSH7 0x7358221220911C 0xF8 0x1F PUSH12 0x671CB1A4641D6BDD30C63A1C 0xC7 0xBD 0xC0 CALLCODE 0x4C CALLVALUE 0xCE LT MOD PUSH32 0x8A44CF8F3164736F6C6343000812003300000000000000000000000000000000 "
		},
		"gasEstimates": {
			"creation": {
				"codeDepositCost": "1186000",
				"executionCost": "infinite",
				"totalCost": "infinite"
			},
			"external": {
				"getEventIdAndRate(string,string,uint256,uint256,uint256)": "infinite",
				"report()": "infinite",
				"transactionContract()": "infinite"
			},
			"internal": {
				"computeBalanceSheet()": "infinite"
			}
		},
		"methodIdentifiers": {
			"getEventIdAndRate(string,string,uint256,uint256,uint256)": "d6bc166d",
			"report()": "2606a10b",
			"transactionContract()": "1f45275b"
		}
	},
	"abi": [
		{
			"inputs": [
				{
					"internalType": "address",
					"name": "_transactionContractAddress",
					"type": "address"
				},
				{
					"internalType": "address",
					"name": "_reportAddress",
					"type": "address"
				}
			],
			"stateMutability": "nonpayable",
			"type": "constructor"
		},
		{
			"anonymous": false,
			"inputs": [
				{
					"indexed": false,
					"internalType": "string",
					"name": "eventId",
					"type": "string"
				},
				{
					"indexed": false,
					"internalType": "uint256",
					"name": "EP001",
					"type": "uint256"
				},
				{
					"indexed": false,
					"internalType": "uint256",
					"name": "EP002",
					"type": "uint256"
				},
				{
					"indexed": false,
					"internalType": "uint256",
					"name": "EP003",
					"type": "uint256"
				},
				{
					"indexed": false,
					"internalType": "uint256",
					"name": "EP005",
					"type": "uint256"
				}
			],
			"name": "EventEP001",
			"type": "event"
		},
		{
			"anonymous": false,
			"inputs": [
				{
					"indexed": false,
					"internalType": "string",
					"name": "eventId",
					"type": "string"
				},
				{
					"indexed": false,
					"internalType": "uint256",
					"name": "SP002",
					"type": "uint256"
				},
				{
					"indexed": false,
					"internalType": "uint256",
					"name": "SP003",
					"type": "uint256"
				},
				{
					"indexed": false,
					"internalType": "uint256",
					"name": "SP004",
					"type": "uint256"
				}
			],
			"name": "EventIdAndRateReceived",
			"type": "event"
		},
		{
			"inputs": [
				{
					"internalType": "string",
					"name": "_eventId",
					"type": "string"
				},
				{
					"internalType": "string",
					"name": "_reportID",
					"type": "string"
				},
				{
					"internalType": "uint256",
					"name": "_SP002",
					"type": "uint256"
				},
				{
					"internalType": "uint256",
					"name": "_SP003",
					"type": "uint256"
				},
				{
					"internalType": "uint256",
					"name": "_SP004",
					"type": "uint256"
				}
			],
			"name": "getEventIdAndRate",
			"outputs": [],
			"stateMutability": "nonpayable",
			"type": "function"
		},
		{
			"inputs": [],
			"name": "report",
			"outputs": [
				{
					"internalType": "contract Reports",
					"name": "",
					"type": "address"
				}
			],
			"stateMutability": "view",
			"type": "function"
		},
		{
			"inputs": [],
			"name": "transactionContract",
			"outputs": [
				{
					"internalType": "contract TransactionContract",
					"name": "",
					"type": "address"
				}
			],
			"stateMutability": "view",
			"type": "function"
		}
	]
}