{
	"data": {
		"bytecode": {
			"linkReferences": {},
			"object": "608060405234801561001057600080fd5b50614400806100206000396000f3fe608060405234801561001057600080fd5b50600436106100b45760003560e01c80636ccc29dc116100715780636ccc29dc1461019f578063869152e7146101bd5780639ace38c2146101ed5780639ff16eb714610223578063c2e2754114610253578063f61347cf14610289576100b4565b806312496544146100b95780632b3a8659146100d55780632c86881c146101055780632e7700f0146101355780634fb9118b14610153578063519a334b14610183575b600080fd5b6100d360048036038101906100ce919061274a565b6102b9565b005b6100ef60048036038101906100ea919061280f565b610bad565b6040516100fc9190612871565b60405180910390f35b61011f600480360381019061011a919061280f565b610bdb565b60405161012c9190612871565b60405180910390f35b61013d610c09565b60405161014a919061289b565b60405180910390f35b61016d600480360381019061016891906128b6565b610c15565b60405161017a9190612ae9565b60405180910390f35b61019d60048036038101906101989190612b0b565b610f42565b005b6101a7610f6d565b6040516101b49190612c31565b60405180910390f35b6101d760048036038101906101d29190612c53565b611155565b6040516101e49190612c31565b60405180910390f35b61020760048036038101906102029190612c53565b61132e565b60405161021a9796959493929190612cca565b60405180910390f35b61023d6004803603810190610238919061280f565b611490565b60405161024a9190612c31565b60405180910390f35b61026d600480360381019061026891906128b6565b61171c565b604051610280979695949392919061316f565b60405180910390f35b6102a3600480360381019061029e919061280f565b611f9d565b6040516102b09190612871565b60405180910390f35b60005b60008054905081101561038e57600081815481106102dd576102dc61320f565b5b90600052602060002090600702016000016040516020016102fe9190613341565b60405160208183030381529060405280519060200120876040516020016103259190613389565b604051602081830303815290604052805190602001200361037b576040517f08c379a0000000000000000000000000000000000000000000000000000000008152600401610372906133ec565b60405180910390fd5b80806103869061343b565b9150506102bc565b5060006040518060e0016040528088815260200187815260200186815260200185815260200184815260200142815260200183815250905060008190806001815401808255809150506001900390600052602060002090600702016000909190919091506000820151816000019081610407919061361a565b50602082015181600101908161041d919061361a565b5060408201518160020155606082015181600301556080820151816004015560a0820151816005015560c082015181600601555050600160008054905061046491906136ec565b600482600001516040516104789190613389565b90815260200160405180910390208190555060006064600554836080015184604001516104a59190613720565b6104af9190613754565b6104b991906137c5565b90506000600567ffffffffffffffff8111156104d8576104d76125e9565b5b60405190808252806020026020018201604052801561050b57816020015b60608152602001906001900390816104f65790505b509050604051806060016040528060328152602001613e1e603291398160008151811061053b5761053a61320f565b5b6020026020010181905250604051806060016040528060368152602001613fb160369139816001815181106105735761057261320f565b5b60200260200101819052506040518060400160405280601b81526020017f6173736574732e746f74616c416d6f756e744661697256616c75650000000000815250816002815181106105c8576105c761320f565b5b60200260200101819052506040518060400160405280601481526020017f746f74616c4173736574734661697256616c75650000000000000000000000008152508160038151811061061d5761061c61320f565b5b6020026020010181905250604051806060016040528060228152602001613f8f60229139816004815181106106555761065461320f565b5b602002602001018190525061066a8183611fcb565b6000836080015184604001516106809190613720565b905080600160405161069190613868565b908152602001604051809103902060008282546106ae919061387d565b9250508190555060006064600554866060015187604001516106d091906136ec565b6106da9190613754565b6106e491906137c5565b90506000600367ffffffffffffffff811115610703576107026125e9565b5b60405190808252806020026020018201604052801561073657816020015b60608152602001906001900390816107215790505b50905060405180606001604052806034815260200161404360349139816000815181106107665761076561320f565b5b602002602001018190525060405180606001604052806038815260200161420d603891398160018151811061079e5761079d61320f565b5b60200260200101819052506040518060400160405280602081526020017f6c696162696c69746965732e746f74616c416d6f756e744661697256616c7565815250816002815181106107f3576107f261320f565b5b60200260200101819052506108088183611fcb565b60008660600151876040015161081e91906136ec565b905080600160405161082f90613933565b9081526020016040518091039020600082825461084c919061387d565b925050819055506000606460055489608001518a6060015161086e9190613720565b6108789190613754565b61088291906137c5565b90506000600367ffffffffffffffff8111156108a1576108a06125e9565b5b6040519080825280602002602001820160405280156108d457816020015b60608152602001906001900390816108bf5790505b50905060405180606001604052806034815260200161413160349139816000815181106109045761090361320f565b5b6020026020010181905250604051806060016040528060388152602001613ea4603891398160018151811061093c5761093b61320f565b5b60200260200101819052506040518060400160405280601b81526020017f6571756974792e746f74616c416d6f756e744661697256616c75650000000000815250816002815181106109915761099061320f565b5b60200260200101819052506109a68183611fcb565b600089608001518a606001516109bc9190613720565b90508060016040516109cd906139ba565b908152602001604051809103902060008282546109ea919061387d565b92505081905550600060646005548c608001518d60600151610a0c9190613720565b610a169190613754565b610a2091906137c5565b90506000600367ffffffffffffffff811115610a3f57610a3e6125e9565b5b604051908082528060200260200182016040528015610a7257816020015b6060815260200190600190039081610a5d5790505b5090506040518060600160405280602d8152602001613fe7602d913981600081518110610aa257610aa161320f565b5b60200260200101819052506040518060600160405280603c8152602001613edc603c913981600181518110610ada57610ad961320f565b5b60200260200101819052506040518060400160405280600981526020017f6e657450726f666974000000000000000000000000000000000000000000000081525081600281518110610b2f57610b2e61320f565b5b6020026020010181905250610b44818361203e565b60008c608001518d60600151610b5a9190613720565b9050806002604051610b6b90613a41565b90815260200160405180910390206000828254610b88919061387d565b92505081905550610b988d6120b1565b50505050505050505050505050505050505050565b6002818051602081018201805184825260208301602085012081835280955050505050506000915090505481565b6003818051602081018201805184825260208301602085012081835280955050505050506000915090505481565b60008080549050905090565b60606000805b600080549050811015610ca9578460008281548110610c3d57610c3c61320f565b5b90600052602060002090600702016005015410158015610c8257508360008281548110610c6d57610c6c61320f565b5b90600052602060002090600702016005015411155b15610c96578180610c929061343b565b9250505b8080610ca19061343b565b915050610c1b565b5060008167ffffffffffffffff811115610cc657610cc56125e9565b5b604051908082528060200260200182016040528015610cff57816020015b610cec612506565b815260200190600190039081610ce45790505b5090506000805b600080549050811015610f35578660008281548110610d2857610d2761320f565b5b90600052602060002090600702016005015410158015610d6d57508560008281548110610d5857610d5761320f565b5b90600052602060002090600702016005015411155b15610f225760008181548110610d8657610d8561320f565b5b90600052602060002090600702016040518060e0016040529081600082018054610daf9061326d565b80601f0160208091040260200160405190810160405280929190818152602001828054610ddb9061326d565b8015610e285780601f10610dfd57610100808354040283529160200191610e28565b820191906000526020600020905b815481529060010190602001808311610e0b57829003601f168201915b50505050508152602001600182018054610e419061326d565b80601f0160208091040260200160405190810160405280929190818152602001828054610e6d9061326d565b8015610eba5780601f10610e8f57610100808354040283529160200191610eba565b820191906000526020600020905b815481529060010190602001808311610e9d57829003601f168201915b5050505050815260200160028201548152602001600382015481526020016004820154815260200160058201548152602001600682015481525050838381518110610f0857610f0761320f565b5b60200260200101819052508180610f1e9061343b565b9250505b8080610f2d9061343b565b915050610d06565b5081935050505092915050565b8260058190555081600681905550806007819055508360089081610f66919061361a565b5050505050565b610f75612506565b6000808054905011610fbc576040517f08c379a0000000000000000000000000000000000000000000000000000000008152600401610fb390613aa2565b60405180910390fd5b60006001600080549050610fd091906136ec565b81548110610fe157610fe061320f565b5b90600052602060002090600702016040518060e001604052908160008201805461100a9061326d565b80601f01602080910402602001604051908101604052809291908181526020018280546110369061326d565b80156110835780601f1061105857610100808354040283529160200191611083565b820191906000526020600020905b81548152906001019060200180831161106657829003601f168201915b5050505050815260200160018201805461109c9061326d565b80601f01602080910402602001604051908101604052809291908181526020018280546110c89061326d565b80156111155780601f106110ea57610100808354040283529160200191611115565b820191906000526020600020905b8154815290600101906020018083116110f857829003601f168201915b5050505050815260200160028201548152602001600382015481526020016004820154815260200160058201548152602001600682015481525050905090565b61115d612506565b60008054905082106111a4576040517f08c379a000000000000000000000000000000000000000000000000000000000815260040161119b90613b0e565b60405180910390fd5b600082815481106111b8576111b761320f565b5b90600052602060002090600702016040518060e00160405290816000820180546111e19061326d565b80601f016020809104026020016040519081016040528092919081815260200182805461120d9061326d565b801561125a5780601f1061122f5761010080835404028352916020019161125a565b820191906000526020600020905b81548152906001019060200180831161123d57829003601f168201915b505050505081526020016001820180546112739061326d565b80601f016020809104026020016040519081016040528092919081815260200182805461129f9061326d565b80156112ec5780601f106112c1576101008083540402835291602001916112ec565b820191906000526020600020905b8154815290600101906020018083116112cf57829003601f168201915b50505050508152602001600282015481526020016003820154815260200160048201548152602001600582015481526020016006820154815250509050919050565b6000818154811061133e57600080fd5b90600052602060002090600702016000915090508060000180546113619061326d565b80601f016020809104026020016040519081016040528092919081815260200182805461138d9061326d565b80156113da5780601f106113af576101008083540402835291602001916113da565b820191906000526020600020905b8154815290600101906020018083116113bd57829003601f168201915b5050505050908060010180546113ef9061326d565b80601f016020809104026020016040519081016040528092919081815260200182805461141b9061326d565b80156114685780601f1061143d57610100808354040283529160200191611468565b820191906000526020600020905b81548152906001019060200180831161144b57829003601f168201915b5050505050908060020154908060030154908060040154908060050154908060060154905087565b611498612506565b60006004836040516114aa9190613389565b9081526020016040518091039020541415806115355750816040516020016114d29190613389565b60405160208183030381529060405280519060200120600080815481106114fc576114fb61320f565b5b906000526020600020906007020160000160405160200161151d9190613341565b60405160208183030381529060405280519060200120145b611574576040517f08c379a000000000000000000000000000000000000000000000000000000000815260040161156b90613b7a565b60405180910390fd5b60006004836040516115869190613389565b908152602001604051809103902054815481106115a6576115a561320f565b5b90600052602060002090600702016040518060e00160405290816000820180546115cf9061326d565b80601f01602080910402602001604051908101604052809291908181526020018280546115fb9061326d565b80156116485780601f1061161d57610100808354040283529160200191611648565b820191906000526020600020905b81548152906001019060200180831161162b57829003601f168201915b505050505081526020016001820180546116619061326d565b80601f016020809104026020016040519081016040528092919081815260200182805461168d9061326d565b80156116da5780601f106116af576101008083540402835291602001916116da565b820191906000526020600020905b8154815290600101906020018083116116bd57829003601f168201915b50505050508152602001600282015481526020016003820154815260200160048201548152602001600582015481526020016006820154815250509050919050565b6060611726612543565b606061173061256b565b606061173a612592565b606060006117488a8a610c15565b9050805167ffffffffffffffff811115611765576117646125e9565b5b60405190808252806020026020018201604052801561179857816020015b60608152602001906001900390816117835790505b509750604051806101c00160405280604051806060016040528060328152602001613e1e603291398152602001604051806060016040528060338152602001613f18603391398152602001604051806060016040528060368152602001613fb16036913981526020016040518060400160405280601b81526020017f6173736574732e746f74616c416d6f756e744661697256616c7565000000000081525081526020016040518060400160405280601481526020017f746f74616c4173736574734661697256616c756500000000000000000000000081525081526020016040518060600160405280603481526020016140436034913981526020016040518060600160405280603581526020016140fc60359139815260200160405180606001604052806038815260200161420d6038913981526020016040518060400160405280602081526020017f6c696162696c69746965732e746f74616c416d6f756e744661697256616c756581525081526020016040518060600160405280603481526020016141316034913981526020016040518060600160405280603581526020016141d8603591398152602001604051806060016040528060388152602001613ea46038913981526020016040518060400160405280601b81526020017f6571756974792e746f74616c416d6f756e744661697256616c756500000000008152508152602001604051806060016040528060228152602001613f8f60229139815250965060405180608001604052806040518060600160405280602d8152602001613fe7602d913981526020016040518060600160405280602f8152602001614014602f913981526020016040518060a0016040528060808152602001613d9e6080913981526020016040518060400160405280600981526020017f6e657450726f666974000000000000000000000000000000000000000000000081525081525094506040518061010001604052806040518060a001604052806071815260200161435a6071913981526020016040518060a00160405280607381526020016141656073913981526020016040518060a0016040528060808152602001613d9e6080913981526020016040518060c00160405280608381526020016142d76083913981526020016040518060c00160405280608581526020016140776085913981526020016040518060c0016040528060928152602001614245609291398152602001604051806080016040528060448152602001613f4b604491398152602001604051806080016040528060548152602001613e50605491398152509250805167ffffffffffffffff811115611b7657611b756125e9565b5b604051908082528060200260200182016040528015611ba957816020015b6060815260200190600190039081611b945790505b509550805167ffffffffffffffff811115611bc757611bc66125e9565b5b604051908082528060200260200182016040528015611bfa57816020015b6060815260200190600190039081611be55790505b509350805167ffffffffffffffff811115611c1857611c176125e9565b5b604051908082528060200260200182016040528015611c4b57816020015b6060815260200190600190039081611c365790505b50915060005b8151811015611f8f57818181518110611c6d57611c6c61320f565b5b602002602001015160000151898281518110611c8c57611c8b61320f565b5b6020026020010181905250600e67ffffffffffffffff811115611cb257611cb16125e9565b5b604051908082528060200260200182016040528015611ce05781602001602082028036833780820191505090505b50878281518110611cf457611cf361320f565b5b6020026020010181905250600467ffffffffffffffff811115611d1a57611d196125e9565b5b604051908082528060200260200182016040528015611d485781602001602082028036833780820191505090505b50858281518110611d5c57611d5b61320f565b5b6020026020010181905250600867ffffffffffffffff811115611d8257611d816125e9565b5b604051908082528060200260200182016040528015611db05781602001602082028036833780820191505090505b50838281518110611dc457611dc361320f565b5b602002602001018190525060005b600e811015611e5d5760018982600e8110611df057611def61320f565b5b6020020151604051611e029190613389565b908152602001604051809103902054888381518110611e2457611e2361320f565b5b60200260200101518281518110611e3e57611e3d61320f565b5b6020026020010181815250508080611e559061343b565b915050611dd2565b5060005b6004811015611eec576002878260048110611e7f57611e7e61320f565b5b6020020151604051611e919190613389565b908152602001604051809103902054868381518110611eb357611eb261320f565b5b60200260200101518281518110611ecd57611ecc61320f565b5b6020026020010181815250508080611ee49061343b565b915050611e61565b5060005b6008811015611f7b576003858260088110611f0e57611f0d61320f565b5b6020020151604051611f209190613389565b908152602001604051809103902054848381518110611f4257611f4161320f565b5b60200260200101518281518110611f5c57611f5b61320f565b5b6020026020010181815250508080611f739061343b565b915050611ef0565b508080611f879061343b565b915050611c51565b505092959891949750929550565b6001818051602081018201805184825260208301602085012081835280955050505050506000915090505481565b60005b825181101561203957816001848381518110611fed57611fec61320f565b5b60200260200101516040516120029190613389565b9081526020016040518091039020600082825461201f919061387d565b9250508190555080806120319061343b565b915050611fce565b505050565b60005b82518110156120ac578160028483815181106120605761205f61320f565b5b60200260200101516040516120759190613389565b90815260200160405180910390206000828254612092919061387d565b9250508190555080806120a49061343b565b915050612041565b505050565b600060648260c00151836060015184604001516120ce91906136ec565b6120d89190613754565b6120e291906137c5565b90506000600267ffffffffffffffff811115612101576121006125e9565b5b60405190808252806020026020018201604052801561213457816020015b606081526020019060019003908161211f5790505b5090506040518060a001604052806071815260200161435a60719139816000815181106121645761216361320f565b5b60200260200101819052506040518060a0016040528060808152602001613d9e608091398160018151811061219c5761219b61320f565b5b60200260200101819052506121b18183612493565b6000836060015184604001516121c791906136ec565b90508060036040516121d890613c58565b908152602001604051809103902060008282546121f5919061387d565b92505081905550600060648560c00151866080015187606001516122199190613720565b6122239190613754565b61222d91906137c5565b90506000600267ffffffffffffffff81111561224c5761224b6125e9565b5b60405190808252806020026020018201604052801561227f57816020015b606081526020019060019003908161226a5790505b5090506040518060c00160405280608381526020016142d760839139816000815181106122af576122ae61320f565b5b60200260200101819052506040518060c001604052806092815260200161424560929139816001815181106122e7576122e661320f565b5b60200260200101819052506122fc8183612493565b60008660600151876040015161231291906136ec565b905080600360405161232390613d51565b90815260200160405180910390206000828254612340919061387d565b92505081905550600060648860c0015189608001518a604001516123649190613720565b61236e9190613754565b61237891906137c5565b90506000600267ffffffffffffffff811115612397576123966125e9565b5b6040519080825280602002602001820160405280156123ca57816020015b60608152602001906001900390816123b55790505b509050604051806080016040528060448152602001613f4b60449139816000815181106123fa576123f961320f565b5b6020026020010181905250604051806080016040528060548152602001613e5060549139816001815181106124325761243161320f565b5b60200260200101819052506124478183612493565b7fa26bdd521074fe90072fbbad03f6cccbc67a863f014b3f6afa31efa7e026ee4a89600001518a60200151604051612480929190613d66565b60405180910390a1505050505050505050565b60005b8251811015612501578160038483815181106124b5576124b461320f565b5b60200260200101516040516124ca9190613389565b908152602001604051809103902060008282546124e7919061387d565b9250508190555080806124f99061343b565b915050612496565b505050565b6040518060e00160405280606081526020016060815260200160008152602001600081526020016000815260200160008152602001600081525090565b604051806101c00160405280600e905b60608152602001906001900390816125535790505090565b60405180608001604052806004905b606081526020019060019003908161257a5790505090565b6040518061010001604052806008905b60608152602001906001900390816125a25790505090565b6000604051905090565b600080fd5b600080fd5b600080fd5b600080fd5b6000601f19601f8301169050919050565b7f4e487b7100000000000000000000000000000000000000000000000000000000600052604160045260246000fd5b612621826125d8565b810181811067ffffffffffffffff821117156126405761263f6125e9565b5b80604052505050565b60006126536125ba565b905061265f8282612618565b919050565b600067ffffffffffffffff82111561267f5761267e6125e9565b5b612688826125d8565b9050602081019050919050565b82818337600083830152505050565b60006126b76126b284612664565b612649565b9050828152602081018484840111156126d3576126d26125d3565b5b6126de848285612695565b509392505050565b600082601f8301126126fb576126fa6125ce565b5b813561270b8482602086016126a4565b91505092915050565b6000819050919050565b61272781612714565b811461273257600080fd5b50565b6000813590506127448161271e565b92915050565b60008060008060008060c08789031215612767576127666125c4565b5b600087013567ffffffffffffffff811115612785576127846125c9565b5b61279189828a016126e6565b965050602087013567ffffffffffffffff8111156127b2576127b16125c9565b5b6127be89828a016126e6565b95505060406127cf89828a01612735565b94505060606127e089828a01612735565b93505060806127f189828a01612735565b92505060a061280289828a01612735565b9150509295509295509295565b600060208284031215612825576128246125c4565b5b600082013567ffffffffffffffff811115612843576128426125c9565b5b61284f848285016126e6565b91505092915050565b6000819050919050565b61286b81612858565b82525050565b60006020820190506128866000830184612862565b92915050565b61289581612714565b82525050565b60006020820190506128b0600083018461288c565b92915050565b600080604083850312156128cd576128cc6125c4565b5b60006128db85828601612735565b92505060206128ec85828601612735565b9150509250929050565b600081519050919050565b600082825260208201905092915050565b6000819050602082019050919050565b600081519050919050565b600082825260208201905092915050565b60005b8381101561295c578082015181840152602081019050612941565b60008484015250505050565b600061297382612922565b61297d818561292d565b935061298d81856020860161293e565b612996816125d8565b840191505092915050565b6129aa81612714565b82525050565b600060e08301600083015184820360008601526129cd8282612968565b915050602083015184820360208601526129e78282612968565b91505060408301516129fc60408601826129a1565b506060830151612a0f60608601826129a1565b506080830151612a2260808601826129a1565b5060a0830151612a3560a08601826129a1565b5060c0830151612a4860c08601826129a1565b508091505092915050565b6000612a5f83836129b0565b905092915050565b6000602082019050919050565b6000612a7f826128f6565b612a898185612901565b935083602082028501612a9b85612912565b8060005b85811015612ad75784840389528151612ab88582612a53565b9450612ac383612a67565b925060208a01995050600181019050612a9f565b50829750879550505050505092915050565b60006020820190508181036000830152612b038184612a74565b905092915050565b60008060008060808587031215612b2557612b246125c4565b5b600085013567ffffffffffffffff811115612b4357612b426125c9565b5b612b4f878288016126e6565b9450506020612b6087828801612735565b9350506040612b7187828801612735565b9250506060612b8287828801612735565b91505092959194509250565b600060e0830160008301518482036000860152612bab8282612968565b91505060208301518482036020860152612bc58282612968565b9150506040830151612bda60408601826129a1565b506060830151612bed60608601826129a1565b506080830151612c0060808601826129a1565b5060a0830151612c1360a08601826129a1565b5060c0830151612c2660c08601826129a1565b508091505092915050565b60006020820190508181036000830152612c4b8184612b8e565b905092915050565b600060208284031215612c6957612c686125c4565b5b6000612c7784828501612735565b91505092915050565b600082825260208201905092915050565b6000612c9c82612922565b612ca68185612c80565b9350612cb681856020860161293e565b612cbf816125d8565b840191505092915050565b600060e0820190508181036000830152612ce4818a612c91565b90508181036020830152612cf88189612c91565b9050612d07604083018861288c565b612d14606083018761288c565b612d21608083018661288c565b612d2e60a083018561288c565b612d3b60c083018461288c565b98975050505050505050565b600081519050919050565b600082825260208201905092915050565b6000819050602082019050919050565b6000612d7f8383612968565b905092915050565b6000602082019050919050565b6000612d9f82612d47565b612da98185612d52565b935083602082028501612dbb85612d63565b8060005b85811015612df75784840389528151612dd88582612d73565b9450612de383612d87565b925060208a01995050600181019050612dbf565b50829750879550505050505092915050565b6000600e9050919050565b600081905092915050565b6000819050919050565b6000602082019050919050565b6000612e4182612e09565b612e4b8185612e14565b935083602082028501612e5d85612e1f565b8060005b85811015612e995784840389528151612e7a8582612d73565b9450612e8583612e29565b925060208a01995050600181019050612e61565b50829750879550505050505092915050565b600081519050919050565b600082825260208201905092915050565b6000819050602082019050919050565b600081519050919050565b600082825260208201905092915050565b6000819050602082019050919050565b612f0c81612858565b82525050565b6000612f1e8383612f03565b60208301905092915050565b6000602082019050919050565b6000612f4282612ed7565b612f4c8185612ee2565b9350612f5783612ef3565b8060005b83811015612f88578151612f6f8882612f12565b9750612f7a83612f2a565b925050600181019050612f5b565b5085935050505092915050565b6000612fa18383612f37565b905092915050565b6000602082019050919050565b6000612fc182612eab565b612fcb8185612eb6565b935083602082028501612fdd85612ec7565b8060005b858110156130195784840389528151612ffa8582612f95565b945061300583612fa9565b925060208a01995050600181019050612fe1565b50829750879550505050505092915050565b600060049050919050565b600081905092915050565b6000819050919050565b6000602082019050919050565b60006130638261302b565b61306d8185613036565b93508360208202850161307f85613041565b8060005b858110156130bb578484038952815161309c8582612d73565b94506130a78361304b565b925060208a01995050600181019050613083565b50829750879550505050505092915050565b600060089050919050565b600081905092915050565b6000819050919050565b6000602082019050919050565b6000613105826130cd565b61310f81856130d8565b935083602082028501613121856130e3565b8060005b8581101561315d578484038952815161313e8582612d73565b9450613149836130ed565b925060208a01995050600181019050613125565b50829750879550505050505092915050565b600060e0820190508181036000830152613189818a612d94565b9050818103602083015261319d8189612e36565b905081810360408301526131b18188612fb6565b905081810360608301526131c58187613058565b905081810360808301526131d98186612fb6565b905081810360a08301526131ed81856130fa565b905081810360c08301526132018184612fb6565b905098975050505050505050565b7f4e487b7100000000000000000000000000000000000000000000000000000000600052603260045260246000fd5b7f4e487b7100000000000000000000000000000000000000000000000000000000600052602260045260246000fd5b6000600282049050600182168061328557607f821691505b6020821081036132985761329761323e565b5b50919050565b600081905092915050565b60008190508160005260206000209050919050565b600081546132cb8161326d565b6132d5818661329e565b945060018216600081146132f0576001811461330557613338565b60ff1983168652811515820286019350613338565b61330e856132a9565b60005b8381101561333057815481890152600182019150602081019050613311565b838801955050505b50505092915050565b600061334d82846132be565b915081905092915050565b600061336382612922565b61336d818561329e565b935061337d81856020860161293e565b80840191505092915050565b60006133958284613358565b915081905092915050565b7f494420616c7265616479206578697374732e0000000000000000000000000000600082015250565b60006133d6601283612c80565b91506133e1826133a0565b602082019050919050565b60006020820190508181036000830152613405816133c9565b9050919050565b7f4e487b7100000000000000000000000000000000000000000000000000000000600052601160045260246000fd5b600061344682612714565b91507fffffffffffffffffffffffffffffffffffffffffffffffffffffffffffffffff82036134785761347761340c565b5b600182019050919050565b60006020601f8301049050919050565b600082821b905092915050565b6000600883026134d07fffffffffffffffffffffffffffffffffffffffffffffffffffffffffffffffff82613493565b6134da8683613493565b95508019841693508086168417925050509392505050565b6000819050919050565b600061351761351261350d84612714565b6134f2565b612714565b9050919050565b6000819050919050565b613531836134fc565b61354561353d8261351e565b8484546134a0565b825550505050565b600090565b61355a61354d565b613565818484613528565b505050565b5b818110156135895761357e600082613552565b60018101905061356b565b5050565b601f8211156135ce5761359f816132a9565b6135a884613483565b810160208510156135b7578190505b6135cb6135c385613483565b83018261356a565b50505b505050565b600082821c905092915050565b60006135f1600019846008026135d3565b1980831691505092915050565b600061360a83836135e0565b9150826002028217905092915050565b61362382612922565b67ffffffffffffffff81111561363c5761363b6125e9565b5b613646825461326d565b61365182828561358d565b600060209050601f8311600181146136845760008415613672578287015190505b61367c85826135fe565b8655506136e4565b601f198416613692866132a9565b60005b828110156136ba57848901518255600182019150602085019450602081019050613695565b868310156136d757848901516136d3601f8916826135e0565b8355505b6001600288020188555050505b505050505050565b60006136f782612714565b915061370283612714565b925082820390508181111561371a5761371961340c565b5b92915050565b600061372b82612714565b915061373683612714565b925082820190508082111561374e5761374d61340c565b5b92915050565b600061375f82612714565b915061376a83612714565b925082820261377881612714565b9150828204841483151761378f5761378e61340c565b5b5092915050565b7f4e487b7100000000000000000000000000000000000000000000000000000000600052601260045260246000fd5b60006137d082612714565b91506137db83612714565b9250826137eb576137ea613796565b5b828204905092915050565b7f6173736574732e64657461696c732e63727970746f63757272656e63792e627260008201527f65616b646f776e2e555344542e616d6f756e7400000000000000000000000000602082015250565b600061385260338361329e565b915061385d826137f6565b603382019050919050565b600061387382613845565b9150819050919050565b600061388882612858565b915061389383612858565b9250828201905082811215600083121683821260008412151617156138bb576138ba61340c565b5b92915050565b7f6c696162696c69746965732e64657461696c732e757365724465706f7369742e60008201527f627265616b646f776e2e555344542e616d6f756e740000000000000000000000602082015250565b600061391d60358361329e565b9150613928826138c1565b603582019050919050565b600061393e82613910565b9150819050919050565b7f6571756974792e64657461696c732e72657461696e65644561726e696e67732e60008201527f627265616b646f776e2e555344542e616d6f756e740000000000000000000000602082015250565b60006139a460358361329e565b91506139af82613948565b603582019050919050565b60006139c582613997565b9150819050919050565b7f696e636f6d652e64657461696c732e6465706f7369744665652e627265616b6460008201527f6f776e2e555344542e616d6f756e740000000000000000000000000000000000602082015250565b6000613a2b602f8361329e565b9150613a36826139cf565b602f82019050919050565b6000613a4c82613a1e565b9150819050919050565b7f4e6f207472616e73616374696f6e7320617661696c61626c652e000000000000600082015250565b6000613a8c601a83612c80565b9150613a9782613a56565b602082019050919050565b60006020820190508181036000830152613abb81613a7f565b9050919050565b7f496e76616c696420696e64657800000000000000000000000000000000000000600082015250565b6000613af8600d83612c80565b9150613b0382613ac2565b602082019050919050565b60006020820190508181036000830152613b2781613aeb565b9050919050565b7f5472616e73616374696f6e206e6f7420666f756e640000000000000000000000600082015250565b6000613b64601583612c80565b9150613b6f82613b2e565b602082019050919050565b60006020820190508181036000830152613b9381613b57565b9050919050565b7f737570706c656d656e74616c5363686564756c654f664e6f6e436173684f706560008201527f726174696e67416374697669746965732e64657461696c732e63727970746f6360208201527f757272656e636965734465706f73697465644279437573746f6d6572732e627260408201527f65616b646f776e2e555344542e616d6f756e7400000000000000000000000000606082015250565b6000613c4260738361329e565b9150613c4d82613b9a565b607382019050919050565b6000613c6382613c35565b9150819050919050565b7f737570706c656d656e74616c5363686564756c654f664e6f6e436173684f706560008201527f726174696e67416374697669746965732e64657461696c732e63727970746f6360208201527f757272656e63696573526563656976656446726f6d437573746f6d657273417360408201527f5472616e73616374696f6e466565732e627265616b646f776e2e555344542e6160608201527f6d6f756e74000000000000000000000000000000000000000000000000000000608082015250565b6000613d3b60858361329e565b9150613d4682613c6d565b608582019050919050565b6000613d5c82613d2e565b9150819050919050565b60006040820190508181036000830152613d808185612c91565b90508181036020830152613d948184612c91565b9050939250505056fe737570706c656d656e74616c5363686564756c654f664e6f6e436173684f7065726174696e67416374697669746965732e64657461696c732e63727970746f63757272656e636965734465706f73697465644279437573746f6d6572732e627265616b646f776e2e555344542e776569676874656441766572616765436f73746173736574732e64657461696c732e63727970746f63757272656e63792e746f74616c416d6f756e744661697256616c7565737570706c656d656e74616c5363686564756c654f664e6f6e436173684f7065726174696e67416374697669746965732e64657461696c732e63727970746f63757272656e63696573456e644f66506572696f646571756974792e64657461696c732e72657461696e65644561726e696e67732e627265616b646f776e2e555344542e6661697256616c7565696e636f6d652e64657461696c732e6465706f7369744665652e627265616b646f776e2e555344542e776569676874656441766572616765436f73746173736574732e64657461696c732e63727970746f63757272656e63792e627265616b646f776e2e555344542e616d6f756e74737570706c656d656e74616c5363686564756c654f664e6f6e436173684f7065726174696e67416374697669746965732e776569676874656441766572616765436f7374746f74616c4c696162696c6974696573416e644571756974794661697256616c75656173736574732e64657461696c732e63727970746f63757272656e63792e627265616b646f776e2e555344542e6661697256616c7565696e636f6d652e64657461696c732e6465706f7369744665652e776569676874656441766572616765436f7374696e636f6d652e64657461696c732e6465706f7369744665652e627265616b646f776e2e555344542e616d6f756e746c696162696c69746965732e64657461696c732e757365724465706f7369742e746f74616c416d6f756e744661697256616c7565737570706c656d656e74616c5363686564756c654f664e6f6e436173684f7065726174696e67416374697669746965732e64657461696c732e63727970746f63757272656e63696573526563656976656446726f6d437573746f6d65727341735472616e73616374696f6e466565732e627265616b646f776e2e555344542e616d6f756e746c696162696c69746965732e64657461696c732e757365724465706f7369742e627265616b646f776e2e555344542e616d6f756e746571756974792e64657461696c732e72657461696e65644561726e696e67732e746f74616c416d6f756e744661697256616c7565737570706c656d656e74616c5363686564756c654f664e6f6e436173684f7065726174696e67416374697669746965732e64657461696c732e63727970746f63757272656e636965734465706f73697465644279437573746f6d6572732e627265616b646f776e2e555344542e616d6f756e746571756974792e64657461696c732e72657461696e65644561726e696e67732e627265616b646f776e2e555344542e616d6f756e746c696162696c69746965732e64657461696c732e757365724465706f7369742e627265616b646f776e2e555344542e6661697256616c7565737570706c656d656e74616c5363686564756c654f664e6f6e436173684f7065726174696e67416374697669746965732e64657461696c732e63727970746f63757272656e63696573526563656976656446726f6d437573746f6d65727341735472616e73616374696f6e466565732e627265616b646f776e2e555344542e776569676874656441766572616765436f7374737570706c656d656e74616c5363686564756c654f664e6f6e436173684f7065726174696e67416374697669746965732e64657461696c732e63727970746f63757272656e63696573526563656976656446726f6d437573746f6d65727341735472616e73616374696f6e466565732e776569676874656441766572616765436f7374737570706c656d656e74616c5363686564756c654f664e6f6e436173684f7065726174696e67416374697669746965732e64657461696c732e63727970746f63757272656e636965734465706f73697465644279437573746f6d6572732e776569676874656441766572616765436f7374a2646970667358221220fd30d3e02bb8d0666d03737e2495d8653b1313a1e8b0a401c987eddbf325ecee64736f6c63430008120033",
			"opcodes": "PUSH1 0x80 PUSH1 0x40 MSTORE CALLVALUE DUP1 ISZERO PUSH2 0x10 JUMPI PUSH1 0x0 DUP1 REVERT JUMPDEST POP PUSH2 0x4400 DUP1 PUSH2 0x20 PUSH1 0x0 CODECOPY PUSH1 0x0 RETURN INVALID PUSH1 0x80 PUSH1 0x40 MSTORE CALLVALUE DUP1 ISZERO PUSH2 0x10 JUMPI PUSH1 0x0 DUP1 REVERT JUMPDEST POP PUSH1 0x4 CALLDATASIZE LT PUSH2 0xB4 JUMPI PUSH1 0x0 CALLDATALOAD PUSH1 0xE0 SHR DUP1 PUSH4 0x6CCC29DC GT PUSH2 0x71 JUMPI DUP1 PUSH4 0x6CCC29DC EQ PUSH2 0x19F JUMPI DUP1 PUSH4 0x869152E7 EQ PUSH2 0x1BD JUMPI DUP1 PUSH4 0x9ACE38C2 EQ PUSH2 0x1ED JUMPI DUP1 PUSH4 0x9FF16EB7 EQ PUSH2 0x223 JUMPI DUP1 PUSH4 0xC2E27541 EQ PUSH2 0x253 JUMPI DUP1 PUSH4 0xF61347CF EQ PUSH2 0x289 JUMPI PUSH2 0xB4 JUMP JUMPDEST DUP1 PUSH4 0x12496544 EQ PUSH2 0xB9 JUMPI DUP1 PUSH4 0x2B3A8659 EQ PUSH2 0xD5 JUMPI DUP1 PUSH4 0x2C86881C EQ PUSH2 0x105 JUMPI DUP1 PUSH4 0x2E7700F0 EQ PUSH2 0x135 JUMPI DUP1 PUSH4 0x4FB9118B EQ PUSH2 0x153 JUMPI DUP1 PUSH4 0x519A334B EQ PUSH2 0x183 JUMPI JUMPDEST PUSH1 0x0 DUP1 REVERT JUMPDEST PUSH2 0xD3 PUSH1 0x4 DUP1 CALLDATASIZE SUB DUP2 ADD SWAP1 PUSH2 0xCE SWAP2 SWAP1 PUSH2 0x274A JUMP JUMPDEST PUSH2 0x2B9 JUMP JUMPDEST STOP JUMPDEST PUSH2 0xEF PUSH1 0x4 DUP1 CALLDATASIZE SUB DUP2 ADD SWAP1 PUSH2 0xEA SWAP2 SWAP1 PUSH2 0x280F JUMP JUMPDEST PUSH2 0xBAD JUMP JUMPDEST PUSH1 0x40 MLOAD PUSH2 0xFC SWAP2 SWAP1 PUSH2 0x2871 JUMP JUMPDEST PUSH1 0x40 MLOAD DUP1 SWAP2 SUB SWAP1 RETURN JUMPDEST PUSH2 0x11F PUSH1 0x4 DUP1 CALLDATASIZE SUB DUP2 ADD SWAP1 PUSH2 0x11A SWAP2 SWAP1 PUSH2 0x280F JUMP JUMPDEST PUSH2 0xBDB JUMP JUMPDEST PUSH1 0x40 MLOAD PUSH2 0x12C SWAP2 SWAP1 PUSH2 0x2871 JUMP JUMPDEST PUSH1 0x40 MLOAD DUP1 SWAP2 SUB SWAP1 RETURN JUMPDEST PUSH2 0x13D PUSH2 0xC09 JUMP JUMPDEST PUSH1 0x40 MLOAD PUSH2 0x14A SWAP2 SWAP1 PUSH2 0x289B JUMP JUMPDEST PUSH1 0x40 MLOAD DUP1 SWAP2 SUB SWAP1 RETURN JUMPDEST PUSH2 0x16D PUSH1 0x4 DUP1 CALLDATASIZE SUB DUP2 ADD SWAP1 PUSH2 0x168 SWAP2 SWAP1 PUSH2 0x28B6 JUMP JUMPDEST PUSH2 0xC15 JUMP JUMPDEST PUSH1 0x40 MLOAD PUSH2 0x17A SWAP2 SWAP1 PUSH2 0x2AE9 JUMP JUMPDEST PUSH1 0x40 MLOAD DUP1 SWAP2 SUB SWAP1 RETURN JUMPDEST PUSH2 0x19D PUSH1 0x4 DUP1 CALLDATASIZE SUB DUP2 ADD SWAP1 PUSH2 0x198 SWAP2 SWAP1 PUSH2 0x2B0B JUMP JUMPDEST PUSH2 0xF42 JUMP JUMPDEST STOP JUMPDEST PUSH2 0x1A7 PUSH2 0xF6D JUMP JUMPDEST PUSH1 0x40 MLOAD PUSH2 0x1B4 SWAP2 SWAP1 PUSH2 0x2C31 JUMP JUMPDEST PUSH1 0x40 MLOAD DUP1 SWAP2 SUB SWAP1 RETURN JUMPDEST PUSH2 0x1D7 PUSH1 0x4 DUP1 CALLDATASIZE SUB DUP2 ADD SWAP1 PUSH2 0x1D2 SWAP2 SWAP1 PUSH2 0x2C53 JUMP JUMPDEST PUSH2 0x1155 JUMP JUMPDEST PUSH1 0x40 MLOAD PUSH2 0x1E4 SWAP2 SWAP1 PUSH2 0x2C31 JUMP JUMPDEST PUSH1 0x40 MLOAD DUP1 SWAP2 SUB SWAP1 RETURN JUMPDEST PUSH2 0x207 PUSH1 0x4 DUP1 CALLDATASIZE SUB DUP2 ADD SWAP1 PUSH2 0x202 SWAP2 SWAP1 PUSH2 0x2C53 JUMP JUMPDEST PUSH2 0x132E JUMP JUMPDEST PUSH1 0x40 MLOAD PUSH2 0x21A SWAP8 SWAP7 SWAP6 SWAP5 SWAP4 SWAP3 SWAP2 SWAP1 PUSH2 0x2CCA JUMP JUMPDEST PUSH1 0x40 MLOAD DUP1 SWAP2 SUB SWAP1 RETURN JUMPDEST PUSH2 0x23D PUSH1 0x4 DUP1 CALLDATASIZE SUB DUP2 ADD SWAP1 PUSH2 0x238 SWAP2 SWAP1 PUSH2 0x280F JUMP JUMPDEST PUSH2 0x1490 JUMP JUMPDEST PUSH1 0x40 MLOAD PUSH2 0x24A SWAP2 SWAP1 PUSH2 0x2C31 JUMP JUMPDEST PUSH1 0x40 MLOAD DUP1 SWAP2 SUB SWAP1 RETURN JUMPDEST PUSH2 0x26D PUSH1 0x4 DUP1 CALLDATASIZE SUB DUP2 ADD SWAP1 PUSH2 0x268 SWAP2 SWAP1 PUSH2 0x28B6 JUMP JUMPDEST PUSH2 0x171C JUMP JUMPDEST PUSH1 0x40 MLOAD PUSH2 0x280 SWAP8 SWAP7 SWAP6 SWAP5 SWAP4 SWAP3 SWAP2 SWAP1 PUSH2 0x316F JUMP JUMPDEST PUSH1 0x40 MLOAD DUP1 SWAP2 SUB SWAP1 RETURN JUMPDEST PUSH2 0x2A3 PUSH1 0x4 DUP1 CALLDATASIZE SUB DUP2 ADD SWAP1 PUSH2 0x29E SWAP2 SWAP1 PUSH2 0x280F JUMP JUMPDEST PUSH2 0x1F9D JUMP JUMPDEST PUSH1 0x40 MLOAD PUSH2 0x2B0 SWAP2 SWAP1 PUSH2 0x2871 JUMP JUMPDEST PUSH1 0x40 MLOAD DUP1 SWAP2 SUB SWAP1 RETURN JUMPDEST PUSH1 0x0 JUMPDEST PUSH1 0x0 DUP1 SLOAD SWAP1 POP DUP2 LT ISZERO PUSH2 0x38E JUMPI PUSH1 0x0 DUP2 DUP2 SLOAD DUP2 LT PUSH2 0x2DD JUMPI PUSH2 0x2DC PUSH2 0x320F JUMP JUMPDEST JUMPDEST SWAP1 PUSH1 0x0 MSTORE PUSH1 0x20 PUSH1 0x0 KECCAK256 SWAP1 PUSH1 0x7 MUL ADD PUSH1 0x0 ADD PUSH1 0x40 MLOAD PUSH1 0x20 ADD PUSH2 0x2FE SWAP2 SWAP1 PUSH2 0x3341 JUMP JUMPDEST PUSH1 0x40 MLOAD PUSH1 0x20 DUP2 DUP4 SUB SUB DUP2 MSTORE SWAP1 PUSH1 0x40 MSTORE DUP1 MLOAD SWAP1 PUSH1 0x20 ADD KECCAK256 DUP8 PUSH1 0x40 MLOAD PUSH1 0x20 ADD PUSH2 0x325 SWAP2 SWAP1 PUSH2 0x3389 JUMP JUMPDEST PUSH1 0x40 MLOAD PUSH1 0x20 DUP2 DUP4 SUB SUB DUP2 MSTORE SWAP1 PUSH1 0x40 MSTORE DUP1 MLOAD SWAP1 PUSH1 0x20 ADD KECCAK256 SUB PUSH2 0x37B JUMPI PUSH1 0x40 MLOAD PUSH32 0x8C379A000000000000000000000000000000000000000000000000000000000 DUP2 MSTORE PUSH1 0x4 ADD PUSH2 0x372 SWAP1 PUSH2 0x33EC JUMP JUMPDEST PUSH1 0x40 MLOAD DUP1 SWAP2 SUB SWAP1 REVERT JUMPDEST DUP1 DUP1 PUSH2 0x386 SWAP1 PUSH2 0x343B JUMP JUMPDEST SWAP2 POP POP PUSH2 0x2BC JUMP JUMPDEST POP PUSH1 0x0 PUSH1 0x40 MLOAD DUP1 PUSH1 0xE0 ADD PUSH1 0x40 MSTORE DUP1 DUP9 DUP2 MSTORE PUSH1 0x20 ADD DUP8 DUP2 MSTORE PUSH1 0x20 ADD DUP7 DUP2 MSTORE PUSH1 0x20 ADD DUP6 DUP2 MSTORE PUSH1 0x20 ADD DUP5 DUP2 MSTORE PUSH1 0x20 ADD TIMESTAMP DUP2 MSTORE PUSH1 0x20 ADD DUP4 DUP2 MSTORE POP SWAP1 POP PUSH1 0x0 DUP2 SWAP1 DUP1 PUSH1 0x1 DUP2 SLOAD ADD DUP1 DUP3 SSTORE DUP1 SWAP2 POP POP PUSH1 0x1 SWAP1 SUB SWAP1 PUSH1 0x0 MSTORE PUSH1 0x20 PUSH1 0x0 KECCAK256 SWAP1 PUSH1 0x7 MUL ADD PUSH1 0x0 SWAP1 SWAP2 SWAP1 SWAP2 SWAP1 SWAP2 POP PUSH1 0x0 DUP3 ADD MLOAD DUP2 PUSH1 0x0 ADD SWAP1 DUP2 PUSH2 0x407 SWAP2 SWAP1 PUSH2 0x361A JUMP JUMPDEST POP PUSH1 0x20 DUP3 ADD MLOAD DUP2 PUSH1 0x1 ADD SWAP1 DUP2 PUSH2 0x41D SWAP2 SWAP1 PUSH2 0x361A JUMP JUMPDEST POP PUSH1 0x40 DUP3 ADD MLOAD DUP2 PUSH1 0x2 ADD SSTORE PUSH1 0x60 DUP3 ADD MLOAD DUP2 PUSH1 0x3 ADD SSTORE PUSH1 0x80 DUP3 ADD MLOAD DUP2 PUSH1 0x4 ADD SSTORE PUSH1 0xA0 DUP3 ADD MLOAD DUP2 PUSH1 0x5 ADD SSTORE PUSH1 0xC0 DUP3 ADD MLOAD DUP2 PUSH1 0x6 ADD SSTORE POP POP PUSH1 0x1 PUSH1 0x0 DUP1 SLOAD SWAP1 POP PUSH2 0x464 SWAP2 SWAP1 PUSH2 0x36EC JUMP JUMPDEST PUSH1 0x4 DUP3 PUSH1 0x0 ADD MLOAD PUSH1 0x40 MLOAD PUSH2 0x478 SWAP2 SWAP1 PUSH2 0x3389 JUMP JUMPDEST SWAP1 DUP2 MSTORE PUSH1 0x20 ADD PUSH1 0x40 MLOAD DUP1 SWAP2 SUB SWAP1 KECCAK256 DUP2 SWAP1 SSTORE POP PUSH1 0x0 PUSH1 0x64 PUSH1 0x5 SLOAD DUP4 PUSH1 0x80 ADD MLOAD DUP5 PUSH1 0x40 ADD MLOAD PUSH2 0x4A5 SWAP2 SWAP1 PUSH2 0x3720 JUMP JUMPDEST PUSH2 0x4AF SWAP2 SWAP1 PUSH2 0x3754 JUMP JUMPDEST PUSH2 0x4B9 SWAP2 SWAP1 PUSH2 0x37C5 JUMP JUMPDEST SWAP1 POP PUSH1 0x0 PUSH1 0x5 PUSH8 0xFFFFFFFFFFFFFFFF DUP2 GT ISZERO PUSH2 0x4D8 JUMPI PUSH2 0x4D7 PUSH2 0x25E9 JUMP JUMPDEST JUMPDEST PUSH1 0x40 MLOAD SWAP1 DUP1 DUP3 MSTORE DUP1 PUSH1 0x20 MUL PUSH1 0x20 ADD DUP3 ADD PUSH1 0x40 MSTORE DUP1 ISZERO PUSH2 0x50B JUMPI DUP2 PUSH1 0x20 ADD JUMPDEST PUSH1 0x60 DUP2 MSTORE PUSH1 0x20 ADD SWAP1 PUSH1 0x1 SWAP1 SUB SWAP1 DUP2 PUSH2 0x4F6 JUMPI SWAP1 POP JUMPDEST POP SWAP1 POP PUSH1 0x40 MLOAD DUP1 PUSH1 0x60 ADD PUSH1 0x40 MSTORE DUP1 PUSH1 0x32 DUP2 MSTORE PUSH1 0x20 ADD PUSH2 0x3E1E PUSH1 0x32 SWAP2 CODECOPY DUP2 PUSH1 0x0 DUP2 MLOAD DUP2 LT PUSH2 0x53B JUMPI PUSH2 0x53A PUSH2 0x320F JUMP JUMPDEST JUMPDEST PUSH1 0x20 MUL PUSH1 0x20 ADD ADD DUP2 SWAP1 MSTORE POP PUSH1 0x40 MLOAD DUP1 PUSH1 0x60 ADD PUSH1 0x40 MSTORE DUP1 PUSH1 0x36 DUP2 MSTORE PUSH1 0x20 ADD PUSH2 0x3FB1 PUSH1 0x36 SWAP2 CODECOPY DUP2 PUSH1 0x1 DUP2 MLOAD DUP2 LT PUSH2 0x573 JUMPI PUSH2 0x572 PUSH2 0x320F JUMP JUMPDEST JUMPDEST PUSH1 0x20 MUL PUSH1 0x20 ADD ADD DUP2 SWAP1 MSTORE POP PUSH1 0x40 MLOAD DUP1 PUSH1 0x40 ADD PUSH1 0x40 MSTORE DUP1 PUSH1 0x1B DUP2 MSTORE PUSH1 0x20 ADD PUSH32 0x6173736574732E746F74616C416D6F756E744661697256616C75650000000000 DUP2 MSTORE POP DUP2 PUSH1 0x2 DUP2 MLOAD DUP2 LT PUSH2 0x5C8 JUMPI PUSH2 0x5C7 PUSH2 0x320F JUMP JUMPDEST JUMPDEST PUSH1 0x20 MUL PUSH1 0x20 ADD ADD DUP2 SWAP1 MSTORE POP PUSH1 0x40 MLOAD DUP1 PUSH1 0x40 ADD PUSH1 0x40 MSTORE DUP1 PUSH1 0x14 DUP2 MSTORE PUSH1 0x20 ADD PUSH32 0x746F74616C4173736574734661697256616C7565000000000000000000000000 DUP2 MSTORE POP DUP2 PUSH1 0x3 DUP2 MLOAD DUP2 LT PUSH2 0x61D JUMPI PUSH2 0x61C PUSH2 0x320F JUMP JUMPDEST JUMPDEST PUSH1 0x20 MUL PUSH1 0x20 ADD ADD DUP2 SWAP1 MSTORE POP PUSH1 0x40 MLOAD DUP1 PUSH1 0x60 ADD PUSH1 0x40 MSTORE DUP1 PUSH1 0x22 DUP2 MSTORE PUSH1 0x20 ADD PUSH2 0x3F8F PUSH1 0x22 SWAP2 CODECOPY DUP2 PUSH1 0x4 DUP2 MLOAD DUP2 LT PUSH2 0x655 JUMPI PUSH2 0x654 PUSH2 0x320F JUMP JUMPDEST JUMPDEST PUSH1 0x20 MUL PUSH1 0x20 ADD ADD DUP2 SWAP1 MSTORE POP PUSH2 0x66A DUP2 DUP4 PUSH2 0x1FCB JUMP JUMPDEST PUSH1 0x0 DUP4 PUSH1 0x80 ADD MLOAD DUP5 PUSH1 0x40 ADD MLOAD PUSH2 0x680 SWAP2 SWAP1 PUSH2 0x3720 JUMP JUMPDEST SWAP1 POP DUP1 PUSH1 0x1 PUSH1 0x40 MLOAD PUSH2 0x691 SWAP1 PUSH2 0x3868 JUMP JUMPDEST SWAP1 DUP2 MSTORE PUSH1 0x20 ADD PUSH1 0x40 MLOAD DUP1 SWAP2 SUB SWAP1 KECCAK256 PUSH1 0x0 DUP3 DUP3 SLOAD PUSH2 0x6AE SWAP2 SWAP1 PUSH2 0x387D JUMP JUMPDEST SWAP3 POP POP DUP2 SWAP1 SSTORE POP PUSH1 0x0 PUSH1 0x64 PUSH1 0x5 SLOAD DUP7 PUSH1 0x60 ADD MLOAD DUP8 PUSH1 0x40 ADD MLOAD PUSH2 0x6D0 SWAP2 SWAP1 PUSH2 0x36EC JUMP JUMPDEST PUSH2 0x6DA SWAP2 SWAP1 PUSH2 0x3754 JUMP JUMPDEST PUSH2 0x6E4 SWAP2 SWAP1 PUSH2 0x37C5 JUMP JUMPDEST SWAP1 POP PUSH1 0x0 PUSH1 0x3 PUSH8 0xFFFFFFFFFFFFFFFF DUP2 GT ISZERO PUSH2 0x703 JUMPI PUSH2 0x702 PUSH2 0x25E9 JUMP JUMPDEST JUMPDEST PUSH1 0x40 MLOAD SWAP1 DUP1 DUP3 MSTORE DUP1 PUSH1 0x20 MUL PUSH1 0x20 ADD DUP3 ADD PUSH1 0x40 MSTORE DUP1 ISZERO PUSH2 0x736 JUMPI DUP2 PUSH1 0x20 ADD JUMPDEST PUSH1 0x60 DUP2 MSTORE PUSH1 0x20 ADD SWAP1 PUSH1 0x1 SWAP1 SUB SWAP1 DUP2 PUSH2 0x721 JUMPI SWAP1 POP JUMPDEST POP SWAP1 POP PUSH1 0x40 MLOAD DUP1 PUSH1 0x60 ADD PUSH1 0x40 MSTORE DUP1 PUSH1 0x34 DUP2 MSTORE PUSH1 0x20 ADD PUSH2 0x4043 PUSH1 0x34 SWAP2 CODECOPY DUP2 PUSH1 0x0 DUP2 MLOAD DUP2 LT PUSH2 0x766 JUMPI PUSH2 0x765 PUSH2 0x320F JUMP JUMPDEST JUMPDEST PUSH1 0x20 MUL PUSH1 0x20 ADD ADD DUP2 SWAP1 MSTORE POP PUSH1 0x40 MLOAD DUP1 PUSH1 0x60 ADD PUSH1 0x40 MSTORE DUP1 PUSH1 0x38 DUP2 MSTORE PUSH1 0x20 ADD PUSH2 0x420D PUSH1 0x38 SWAP2 CODECOPY DUP2 PUSH1 0x1 DUP2 MLOAD DUP2 LT PUSH2 0x79E JUMPI PUSH2 0x79D PUSH2 0x320F JUMP JUMPDEST JUMPDEST PUSH1 0x20 MUL PUSH1 0x20 ADD ADD DUP2 SWAP1 MSTORE POP PUSH1 0x40 MLOAD DUP1 PUSH1 0x40 ADD PUSH1 0x40 MSTORE DUP1 PUSH1 0x20 DUP2 MSTORE PUSH1 0x20 ADD PUSH32 0x6C696162696C69746965732E746F74616C416D6F756E744661697256616C7565 DUP2 MSTORE POP DUP2 PUSH1 0x2 DUP2 MLOAD DUP2 LT PUSH2 0x7F3 JUMPI PUSH2 0x7F2 PUSH2 0x320F JUMP JUMPDEST JUMPDEST PUSH1 0x20 MUL PUSH1 0x20 ADD ADD DUP2 SWAP1 MSTORE POP PUSH2 0x808 DUP2 DUP4 PUSH2 0x1FCB JUMP JUMPDEST PUSH1 0x0 DUP7 PUSH1 0x60 ADD MLOAD DUP8 PUSH1 0x40 ADD MLOAD PUSH2 0x81E SWAP2 SWAP1 PUSH2 0x36EC JUMP JUMPDEST SWAP1 POP DUP1 PUSH1 0x1 PUSH1 0x40 MLOAD PUSH2 0x82F SWAP1 PUSH2 0x3933 JUMP JUMPDEST SWAP1 DUP2 MSTORE PUSH1 0x20 ADD PUSH1 0x40 MLOAD DUP1 SWAP2 SUB SWAP1 KECCAK256 PUSH1 0x0 DUP3 DUP3 SLOAD PUSH2 0x84C SWAP2 SWAP1 PUSH2 0x387D JUMP JUMPDEST SWAP3 POP POP DUP2 SWAP1 SSTORE POP PUSH1 0x0 PUSH1 0x64 PUSH1 0x5 SLOAD DUP10 PUSH1 0x80 ADD MLOAD DUP11 PUSH1 0x60 ADD MLOAD PUSH2 0x86E SWAP2 SWAP1 PUSH2 0x3720 JUMP JUMPDEST PUSH2 0x878 SWAP2 SWAP1 PUSH2 0x3754 JUMP JUMPDEST PUSH2 0x882 SWAP2 SWAP1 PUSH2 0x37C5 JUMP JUMPDEST SWAP1 POP PUSH1 0x0 PUSH1 0x3 PUSH8 0xFFFFFFFFFFFFFFFF DUP2 GT ISZERO PUSH2 0x8A1 JUMPI PUSH2 0x8A0 PUSH2 0x25E9 JUMP JUMPDEST JUMPDEST PUSH1 0x40 MLOAD SWAP1 DUP1 DUP3 MSTORE DUP1 PUSH1 0x20 MUL PUSH1 0x20 ADD DUP3 ADD PUSH1 0x40 MSTORE DUP1 ISZERO PUSH2 0x8D4 JUMPI DUP2 PUSH1 0x20 ADD JUMPDEST PUSH1 0x60 DUP2 MSTORE PUSH1 0x20 ADD SWAP1 PUSH1 0x1 SWAP1 SUB SWAP1 DUP2 PUSH2 0x8BF JUMPI SWAP1 POP JUMPDEST POP SWAP1 POP PUSH1 0x40 MLOAD DUP1 PUSH1 0x60 ADD PUSH1 0x40 MSTORE DUP1 PUSH1 0x34 DUP2 MSTORE PUSH1 0x20 ADD PUSH2 0x4131 PUSH1 0x34 SWAP2 CODECOPY DUP2 PUSH1 0x0 DUP2 MLOAD DUP2 LT PUSH2 0x904 JUMPI PUSH2 0x903 PUSH2 0x320F JUMP JUMPDEST JUMPDEST PUSH1 0x20 MUL PUSH1 0x20 ADD ADD DUP2 SWAP1 MSTORE POP PUSH1 0x40 MLOAD DUP1 PUSH1 0x60 ADD PUSH1 0x40 MSTORE DUP1 PUSH1 0x38 DUP2 MSTORE PUSH1 0x20 ADD PUSH2 0x3EA4 PUSH1 0x38 SWAP2 CODECOPY DUP2 PUSH1 0x1 DUP2 MLOAD DUP2 LT PUSH2 0x93C JUMPI PUSH2 0x93B PUSH2 0x320F JUMP JUMPDEST JUMPDEST PUSH1 0x20 MUL PUSH1 0x20 ADD ADD DUP2 SWAP1 MSTORE POP PUSH1 0x40 MLOAD DUP1 PUSH1 0x40 ADD PUSH1 0x40 MSTORE DUP1 PUSH1 0x1B DUP2 MSTORE PUSH1 0x20 ADD PUSH32 0x6571756974792E746F74616C416D6F756E744661697256616C75650000000000 DUP2 MSTORE POP DUP2 PUSH1 0x2 DUP2 MLOAD DUP2 LT PUSH2 0x991 JUMPI PUSH2 0x990 PUSH2 0x320F JUMP JUMPDEST JUMPDEST PUSH1 0x20 MUL PUSH1 0x20 ADD ADD DUP2 SWAP1 MSTORE POP PUSH2 0x9A6 DUP2 DUP4 PUSH2 0x1FCB JUMP JUMPDEST PUSH1 0x0 DUP10 PUSH1 0x80 ADD MLOAD DUP11 PUSH1 0x60 ADD MLOAD PUSH2 0x9BC SWAP2 SWAP1 PUSH2 0x3720 JUMP JUMPDEST SWAP1 POP DUP1 PUSH1 0x1 PUSH1 0x40 MLOAD PUSH2 0x9CD SWAP1 PUSH2 0x39BA JUMP JUMPDEST SWAP1 DUP2 MSTORE PUSH1 0x20 ADD PUSH1 0x40 MLOAD DUP1 SWAP2 SUB SWAP1 KECCAK256 PUSH1 0x0 DUP3 DUP3 SLOAD PUSH2 0x9EA SWAP2 SWAP1 PUSH2 0x387D JUMP JUMPDEST SWAP3 POP POP DUP2 SWAP1 SSTORE POP PUSH1 0x0 PUSH1 0x64 PUSH1 0x5 SLOAD DUP13 PUSH1 0x80 ADD MLOAD DUP14 PUSH1 0x60 ADD MLOAD PUSH2 0xA0C SWAP2 SWAP1 PUSH2 0x3720 JUMP JUMPDEST PUSH2 0xA16 SWAP2 SWAP1 PUSH2 0x3754 JUMP JUMPDEST PUSH2 0xA20 SWAP2 SWAP1 PUSH2 0x37C5 JUMP JUMPDEST SWAP1 POP PUSH1 0x0 PUSH1 0x3 PUSH8 0xFFFFFFFFFFFFFFFF DUP2 GT ISZERO PUSH2 0xA3F JUMPI PUSH2 0xA3E PUSH2 0x25E9 JUMP JUMPDEST JUMPDEST PUSH1 0x40 MLOAD SWAP1 DUP1 DUP3 MSTORE DUP1 PUSH1 0x20 MUL PUSH1 0x20 ADD DUP3 ADD PUSH1 0x40 MSTORE DUP1 ISZERO PUSH2 0xA72 JUMPI DUP2 PUSH1 0x20 ADD JUMPDEST PUSH1 0x60 DUP2 MSTORE PUSH1 0x20 ADD SWAP1 PUSH1 0x1 SWAP1 SUB SWAP1 DUP2 PUSH2 0xA5D JUMPI SWAP1 POP JUMPDEST POP SWAP1 POP PUSH1 0x40 MLOAD DUP1 PUSH1 0x60 ADD PUSH1 0x40 MSTORE DUP1 PUSH1 0x2D DUP2 MSTORE PUSH1 0x20 ADD PUSH2 0x3FE7 PUSH1 0x2D SWAP2 CODECOPY DUP2 PUSH1 0x0 DUP2 MLOAD DUP2 LT PUSH2 0xAA2 JUMPI PUSH2 0xAA1 PUSH2 0x320F JUMP JUMPDEST JUMPDEST PUSH1 0x20 MUL PUSH1 0x20 ADD ADD DUP2 SWAP1 MSTORE POP PUSH1 0x40 MLOAD DUP1 PUSH1 0x60 ADD PUSH1 0x40 MSTORE DUP1 PUSH1 0x3C DUP2 MSTORE PUSH1 0x20 ADD PUSH2 0x3EDC PUSH1 0x3C SWAP2 CODECOPY DUP2 PUSH1 0x1 DUP2 MLOAD DUP2 LT PUSH2 0xADA JUMPI PUSH2 0xAD9 PUSH2 0x320F JUMP JUMPDEST JUMPDEST PUSH1 0x20 MUL PUSH1 0x20 ADD ADD DUP2 SWAP1 MSTORE POP PUSH1 0x40 MLOAD DUP1 PUSH1 0x40 ADD PUSH1 0x40 MSTORE DUP1 PUSH1 0x9 DUP2 MSTORE PUSH1 0x20 ADD PUSH32 0x6E657450726F6669740000000000000000000000000000000000000000000000 DUP2 MSTORE POP DUP2 PUSH1 0x2 DUP2 MLOAD DUP2 LT PUSH2 0xB2F JUMPI PUSH2 0xB2E PUSH2 0x320F JUMP JUMPDEST JUMPDEST PUSH1 0x20 MUL PUSH1 0x20 ADD ADD DUP2 SWAP1 MSTORE POP PUSH2 0xB44 DUP2 DUP4 PUSH2 0x203E JUMP JUMPDEST PUSH1 0x0 DUP13 PUSH1 0x80 ADD MLOAD DUP14 PUSH1 0x60 ADD MLOAD PUSH2 0xB5A SWAP2 SWAP1 PUSH2 0x3720 JUMP JUMPDEST SWAP1 POP DUP1 PUSH1 0x2 PUSH1 0x40 MLOAD PUSH2 0xB6B SWAP1 PUSH2 0x3A41 JUMP JUMPDEST SWAP1 DUP2 MSTORE PUSH1 0x20 ADD PUSH1 0x40 MLOAD DUP1 SWAP2 SUB SWAP1 KECCAK256 PUSH1 0x0 DUP3 DUP3 SLOAD PUSH2 0xB88 SWAP2 SWAP1 PUSH2 0x387D JUMP JUMPDEST SWAP3 POP POP DUP2 SWAP1 SSTORE POP PUSH2 0xB98 DUP14 PUSH2 0x20B1 JUMP JUMPDEST POP POP POP POP POP POP POP POP POP POP POP POP POP POP POP POP POP POP POP JUMP JUMPDEST PUSH1 0x2 DUP2 DUP1 MLOAD PUSH1 0x20 DUP2 ADD DUP3 ADD DUP1 MLOAD DUP5 DUP3 MSTORE PUSH1 0x20 DUP4 ADD PUSH1 0x20 DUP6 ADD KECCAK256 DUP2 DUP4 MSTORE DUP1 SWAP6 POP POP POP POP POP POP PUSH1 0x0 SWAP2 POP SWAP1 POP SLOAD DUP2 JUMP JUMPDEST PUSH1 0x3 DUP2 DUP1 MLOAD PUSH1 0x20 DUP2 ADD DUP3 ADD DUP1 MLOAD DUP5 DUP3 MSTORE PUSH1 0x20 DUP4 ADD PUSH1 0x20 DUP6 ADD KECCAK256 DUP2 DUP4 MSTORE DUP1 SWAP6 POP POP POP POP POP POP PUSH1 0x0 SWAP2 POP SWAP1 POP SLOAD DUP2 JUMP JUMPDEST PUSH1 0x0 DUP1 DUP1 SLOAD SWAP1 POP SWAP1 POP SWAP1 JUMP JUMPDEST PUSH1 0x60 PUSH1 0x0 DUP1 JUMPDEST PUSH1 0x0 DUP1 SLOAD SWAP1 POP DUP2 LT ISZERO PUSH2 0xCA9 JUMPI DUP5 PUSH1 0x0 DUP3 DUP2 SLOAD DUP2 LT PUSH2 0xC3D JUMPI PUSH2 0xC3C PUSH2 0x320F JUMP JUMPDEST JUMPDEST SWAP1 PUSH1 0x0 MSTORE PUSH1 0x20 PUSH1 0x0 KECCAK256 SWAP1 PUSH1 0x7 MUL ADD PUSH1 0x5 ADD SLOAD LT ISZERO DUP1 ISZERO PUSH2 0xC82 JUMPI POP DUP4 PUSH1 0x0 DUP3 DUP2 SLOAD DUP2 LT PUSH2 0xC6D JUMPI PUSH2 0xC6C PUSH2 0x320F JUMP JUMPDEST JUMPDEST SWAP1 PUSH1 0x0 MSTORE PUSH1 0x20 PUSH1 0x0 KECCAK256 SWAP1 PUSH1 0x7 MUL ADD PUSH1 0x5 ADD SLOAD GT ISZERO JUMPDEST ISZERO PUSH2 0xC96 JUMPI DUP2 DUP1 PUSH2 0xC92 SWAP1 PUSH2 0x343B JUMP JUMPDEST SWAP3 POP POP JUMPDEST DUP1 DUP1 PUSH2 0xCA1 SWAP1 PUSH2 0x343B JUMP JUMPDEST SWAP2 POP POP PUSH2 0xC1B JUMP JUMPDEST POP PUSH1 0x0 DUP2 PUSH8 0xFFFFFFFFFFFFFFFF DUP2 GT ISZERO PUSH2 0xCC6 JUMPI PUSH2 0xCC5 PUSH2 0x25E9 JUMP JUMPDEST JUMPDEST PUSH1 0x40 MLOAD SWAP1 DUP1 DUP3 MSTORE DUP1 PUSH1 0x20 MUL PUSH1 0x20 ADD DUP3 ADD PUSH1 0x40 MSTORE DUP1 ISZERO PUSH2 0xCFF JUMPI DUP2 PUSH1 0x20 ADD JUMPDEST PUSH2 0xCEC PUSH2 0x2506 JUMP JUMPDEST DUP2 MSTORE PUSH1 0x20 ADD SWAP1 PUSH1 0x1 SWAP1 SUB SWAP1 DUP2 PUSH2 0xCE4 JUMPI SWAP1 POP JUMPDEST POP SWAP1 POP PUSH1 0x0 DUP1 JUMPDEST PUSH1 0x0 DUP1 SLOAD SWAP1 POP DUP2 LT ISZERO PUSH2 0xF35 JUMPI DUP7 PUSH1 0x0 DUP3 DUP2 SLOAD DUP2 LT PUSH2 0xD28 JUMPI PUSH2 0xD27 PUSH2 0x320F JUMP JUMPDEST JUMPDEST SWAP1 PUSH1 0x0 MSTORE PUSH1 0x20 PUSH1 0x0 KECCAK256 SWAP1 PUSH1 0x7 MUL ADD PUSH1 0x5 ADD SLOAD LT ISZERO DUP1 ISZERO PUSH2 0xD6D JUMPI POP DUP6 PUSH1 0x0 DUP3 DUP2 SLOAD DUP2 LT PUSH2 0xD58 JUMPI PUSH2 0xD57 PUSH2 0x320F JUMP JUMPDEST JUMPDEST SWAP1 PUSH1 0x0 MSTORE PUSH1 0x20 PUSH1 0x0 KECCAK256 SWAP1 PUSH1 0x7 MUL ADD PUSH1 0x5 ADD SLOAD GT ISZERO JUMPDEST ISZERO PUSH2 0xF22 JUMPI PUSH1 0x0 DUP2 DUP2 SLOAD DUP2 LT PUSH2 0xD86 JUMPI PUSH2 0xD85 PUSH2 0x320F JUMP JUMPDEST JUMPDEST SWAP1 PUSH1 0x0 MSTORE PUSH1 0x20 PUSH1 0x0 KECCAK256 SWAP1 PUSH1 0x7 MUL ADD PUSH1 0x40 MLOAD DUP1 PUSH1 0xE0 ADD PUSH1 0x40 MSTORE SWAP1 DUP2 PUSH1 0x0 DUP3 ADD DUP1 SLOAD PUSH2 0xDAF SWAP1 PUSH2 0x326D JUMP JUMPDEST DUP1 PUSH1 0x1F ADD PUSH1 0x20 DUP1 SWAP2 DIV MUL PUSH1 0x20 ADD PUSH1 0x40 MLOAD SWAP1 DUP2 ADD PUSH1 0x40 MSTORE DUP1 SWAP3 SWAP2 SWAP1 DUP2 DUP2 MSTORE PUSH1 0x20 ADD DUP3 DUP1 SLOAD PUSH2 0xDDB SWAP1 PUSH2 0x326D JUMP JUMPDEST DUP1 ISZERO PUSH2 0xE28 JUMPI DUP1 PUSH1 0x1F LT PUSH2 0xDFD JUMPI PUSH2 0x100 DUP1 DUP4 SLOAD DIV MUL DUP4 MSTORE SWAP2 PUSH1 0x20 ADD SWAP2 PUSH2 0xE28 JUMP JUMPDEST DUP3 ADD SWAP2 SWAP1 PUSH1 0x0 MSTORE PUSH1 0x20 PUSH1 0x0 KECCAK256 SWAP1 JUMPDEST DUP2 SLOAD DUP2 MSTORE SWAP1 PUSH1 0x1 ADD SWAP1 PUSH1 0x20 ADD DUP1 DUP4 GT PUSH2 0xE0B JUMPI DUP3 SWAP1 SUB PUSH1 0x1F AND DUP3 ADD SWAP2 JUMPDEST POP POP POP POP POP DUP2 MSTORE PUSH1 0x20 ADD PUSH1 0x1 DUP3 ADD DUP1 SLOAD PUSH2 0xE41 SWAP1 PUSH2 0x326D JUMP JUMPDEST DUP1 PUSH1 0x1F ADD PUSH1 0x20 DUP1 SWAP2 DIV MUL PUSH1 0x20 ADD PUSH1 0x40 MLOAD SWAP1 DUP2 ADD PUSH1 0x40 MSTORE DUP1 SWAP3 SWAP2 SWAP1 DUP2 DUP2 MSTORE PUSH1 0x20 ADD DUP3 DUP1 SLOAD PUSH2 0xE6D SWAP1 PUSH2 0x326D JUMP JUMPDEST DUP1 ISZERO PUSH2 0xEBA JUMPI DUP1 PUSH1 0x1F LT PUSH2 0xE8F JUMPI PUSH2 0x100 DUP1 DUP4 SLOAD DIV MUL DUP4 MSTORE SWAP2 PUSH1 0x20 ADD SWAP2 PUSH2 0xEBA JUMP JUMPDEST DUP3 ADD SWAP2 SWAP1 PUSH1 0x0 MSTORE PUSH1 0x20 PUSH1 0x0 KECCAK256 SWAP1 JUMPDEST DUP2 SLOAD DUP2 MSTORE SWAP1 PUSH1 0x1 ADD SWAP1 PUSH1 0x20 ADD DUP1 DUP4 GT PUSH2 0xE9D JUMPI DUP3 SWAP1 SUB PUSH1 0x1F AND DUP3 ADD SWAP2 JUMPDEST POP POP POP POP POP DUP2 MSTORE PUSH1 0x20 ADD PUSH1 0x2 DUP3 ADD SLOAD DUP2 MSTORE PUSH1 0x20 ADD PUSH1 0x3 DUP3 ADD SLOAD DUP2 MSTORE PUSH1 0x20 ADD PUSH1 0x4 DUP3 ADD SLOAD DUP2 MSTORE PUSH1 0x20 ADD PUSH1 0x5 DUP3 ADD SLOAD DUP2 MSTORE PUSH1 0x20 ADD PUSH1 0x6 DUP3 ADD SLOAD DUP2 MSTORE POP POP DUP4 DUP4 DUP2 MLOAD DUP2 LT PUSH2 0xF08 JUMPI PUSH2 0xF07 PUSH2 0x320F JUMP JUMPDEST JUMPDEST PUSH1 0x20 MUL PUSH1 0x20 ADD ADD DUP2 SWAP1 MSTORE POP DUP2 DUP1 PUSH2 0xF1E SWAP1 PUSH2 0x343B JUMP JUMPDEST SWAP3 POP POP JUMPDEST DUP1 DUP1 PUSH2 0xF2D SWAP1 PUSH2 0x343B JUMP JUMPDEST SWAP2 POP POP PUSH2 0xD06 JUMP JUMPDEST POP DUP2 SWAP4 POP POP POP POP SWAP3 SWAP2 POP POP JUMP JUMPDEST DUP3 PUSH1 0x5 DUP2 SWAP1 SSTORE POP DUP2 PUSH1 0x6 DUP2 SWAP1 SSTORE POP DUP1 PUSH1 0x7 DUP2 SWAP1 SSTORE POP DUP4 PUSH1 0x8 SWAP1 DUP2 PUSH2 0xF66 SWAP2 SWAP1 PUSH2 0x361A JUMP JUMPDEST POP POP POP POP POP JUMP JUMPDEST PUSH2 0xF75 PUSH2 0x2506 JUMP JUMPDEST PUSH1 0x0 DUP1 DUP1 SLOAD SWAP1 POP GT PUSH2 0xFBC JUMPI PUSH1 0x40 MLOAD PUSH32 0x8C379A000000000000000000000000000000000000000000000000000000000 DUP2 MSTORE PUSH1 0x4 ADD PUSH2 0xFB3 SWAP1 PUSH2 0x3AA2 JUMP JUMPDEST PUSH1 0x40 MLOAD DUP1 SWAP2 SUB SWAP1 REVERT JUMPDEST PUSH1 0x0 PUSH1 0x1 PUSH1 0x0 DUP1 SLOAD SWAP1 POP PUSH2 0xFD0 SWAP2 SWAP1 PUSH2 0x36EC JUMP JUMPDEST DUP2 SLOAD DUP2 LT PUSH2 0xFE1 JUMPI PUSH2 0xFE0 PUSH2 0x320F JUMP JUMPDEST JUMPDEST SWAP1 PUSH1 0x0 MSTORE PUSH1 0x20 PUSH1 0x0 KECCAK256 SWAP1 PUSH1 0x7 MUL ADD PUSH1 0x40 MLOAD DUP1 PUSH1 0xE0 ADD PUSH1 0x40 MSTORE SWAP1 DUP2 PUSH1 0x0 DUP3 ADD DUP1 SLOAD PUSH2 0x100A SWAP1 PUSH2 0x326D JUMP JUMPDEST DUP1 PUSH1 0x1F ADD PUSH1 0x20 DUP1 SWAP2 DIV MUL PUSH1 0x20 ADD PUSH1 0x40 MLOAD SWAP1 DUP2 ADD PUSH1 0x40 MSTORE DUP1 SWAP3 SWAP2 SWAP1 DUP2 DUP2 MSTORE PUSH1 0x20 ADD DUP3 DUP1 SLOAD PUSH2 0x1036 SWAP1 PUSH2 0x326D JUMP JUMPDEST DUP1 ISZERO PUSH2 0x1083 JUMPI DUP1 PUSH1 0x1F LT PUSH2 0x1058 JUMPI PUSH2 0x100 DUP1 DUP4 SLOAD DIV MUL DUP4 MSTORE SWAP2 PUSH1 0x20 ADD SWAP2 PUSH2 0x1083 JUMP JUMPDEST DUP3 ADD SWAP2 SWAP1 PUSH1 0x0 MSTORE PUSH1 0x20 PUSH1 0x0 KECCAK256 SWAP1 JUMPDEST DUP2 SLOAD DUP2 MSTORE SWAP1 PUSH1 0x1 ADD SWAP1 PUSH1 0x20 ADD DUP1 DUP4 GT PUSH2 0x1066 JUMPI DUP3 SWAP1 SUB PUSH1 0x1F AND DUP3 ADD SWAP2 JUMPDEST POP POP POP POP POP DUP2 MSTORE PUSH1 0x20 ADD PUSH1 0x1 DUP3 ADD DUP1 SLOAD PUSH2 0x109C SWAP1 PUSH2 0x326D JUMP JUMPDEST DUP1 PUSH1 0x1F ADD PUSH1 0x20 DUP1 SWAP2 DIV MUL PUSH1 0x20 ADD PUSH1 0x40 MLOAD SWAP1 DUP2 ADD PUSH1 0x40 MSTORE DUP1 SWAP3 SWAP2 SWAP1 DUP2 DUP2 MSTORE PUSH1 0x20 ADD DUP3 DUP1 SLOAD PUSH2 0x10C8 SWAP1 PUSH2 0x326D JUMP JUMPDEST DUP1 ISZERO PUSH2 0x1115 JUMPI DUP1 PUSH1 0x1F LT PUSH2 0x10EA JUMPI PUSH2 0x100 DUP1 DUP4 SLOAD DIV MUL DUP4 MSTORE SWAP2 PUSH1 0x20 ADD SWAP2 PUSH2 0x1115 JUMP JUMPDEST DUP3 ADD SWAP2 SWAP1 PUSH1 0x0 MSTORE PUSH1 0x20 PUSH1 0x0 KECCAK256 SWAP1 JUMPDEST DUP2 SLOAD DUP2 MSTORE SWAP1 PUSH1 0x1 ADD SWAP1 PUSH1 0x20 ADD DUP1 DUP4 GT PUSH2 0x10F8 JUMPI DUP3 SWAP1 SUB PUSH1 0x1F AND DUP3 ADD SWAP2 JUMPDEST POP POP POP POP POP DUP2 MSTORE PUSH1 0x20 ADD PUSH1 0x2 DUP3 ADD SLOAD DUP2 MSTORE PUSH1 0x20 ADD PUSH1 0x3 DUP3 ADD SLOAD DUP2 MSTORE PUSH1 0x20 ADD PUSH1 0x4 DUP3 ADD SLOAD DUP2 MSTORE PUSH1 0x20 ADD PUSH1 0x5 DUP3 ADD SLOAD DUP2 MSTORE PUSH1 0x20 ADD PUSH1 0x6 DUP3 ADD SLOAD DUP2 MSTORE POP POP SWAP1 POP SWAP1 JUMP JUMPDEST PUSH2 0x115D PUSH2 0x2506 JUMP JUMPDEST PUSH1 0x0 DUP1 SLOAD SWAP1 POP DUP3 LT PUSH2 0x11A4 JUMPI PUSH1 0x40 MLOAD PUSH32 0x8C379A000000000000000000000000000000000000000000000000000000000 DUP2 MSTORE PUSH1 0x4 ADD PUSH2 0x119B SWAP1 PUSH2 0x3B0E JUMP JUMPDEST PUSH1 0x40 MLOAD DUP1 SWAP2 SUB SWAP1 REVERT JUMPDEST PUSH1 0x0 DUP3 DUP2 SLOAD DUP2 LT PUSH2 0x11B8 JUMPI PUSH2 0x11B7 PUSH2 0x320F JUMP JUMPDEST JUMPDEST SWAP1 PUSH1 0x0 MSTORE PUSH1 0x20 PUSH1 0x0 KECCAK256 SWAP1 PUSH1 0x7 MUL ADD PUSH1 0x40 MLOAD DUP1 PUSH1 0xE0 ADD PUSH1 0x40 MSTORE SWAP1 DUP2 PUSH1 0x0 DUP3 ADD DUP1 SLOAD PUSH2 0x11E1 SWAP1 PUSH2 0x326D JUMP JUMPDEST DUP1 PUSH1 0x1F ADD PUSH1 0x20 DUP1 SWAP2 DIV MUL PUSH1 0x20 ADD PUSH1 0x40 MLOAD SWAP1 DUP2 ADD PUSH1 0x40 MSTORE DUP1 SWAP3 SWAP2 SWAP1 DUP2 DUP2 MSTORE PUSH1 0x20 ADD DUP3 DUP1 SLOAD PUSH2 0x120D SWAP1 PUSH2 0x326D JUMP JUMPDEST DUP1 ISZERO PUSH2 0x125A JUMPI DUP1 PUSH1 0x1F LT PUSH2 0x122F JUMPI PUSH2 0x100 DUP1 DUP4 SLOAD DIV MUL DUP4 MSTORE SWAP2 PUSH1 0x20 ADD SWAP2 PUSH2 0x125A JUMP JUMPDEST DUP3 ADD SWAP2 SWAP1 PUSH1 0x0 MSTORE PUSH1 0x20 PUSH1 0x0 KECCAK256 SWAP1 JUMPDEST DUP2 SLOAD DUP2 MSTORE SWAP1 PUSH1 0x1 ADD SWAP1 PUSH1 0x20 ADD DUP1 DUP4 GT PUSH2 0x123D JUMPI DUP3 SWAP1 SUB PUSH1 0x1F AND DUP3 ADD SWAP2 JUMPDEST POP POP POP POP POP DUP2 MSTORE PUSH1 0x20 ADD PUSH1 0x1 DUP3 ADD DUP1 SLOAD PUSH2 0x1273 SWAP1 PUSH2 0x326D JUMP JUMPDEST DUP1 PUSH1 0x1F ADD PUSH1 0x20 DUP1 SWAP2 DIV MUL PUSH1 0x20 ADD PUSH1 0x40 MLOAD SWAP1 DUP2 ADD PUSH1 0x40 MSTORE DUP1 SWAP3 SWAP2 SWAP1 DUP2 DUP2 MSTORE PUSH1 0x20 ADD DUP3 DUP1 SLOAD PUSH2 0x129F SWAP1 PUSH2 0x326D JUMP JUMPDEST DUP1 ISZERO PUSH2 0x12EC JUMPI DUP1 PUSH1 0x1F LT PUSH2 0x12C1 JUMPI PUSH2 0x100 DUP1 DUP4 SLOAD DIV MUL DUP4 MSTORE SWAP2 PUSH1 0x20 ADD SWAP2 PUSH2 0x12EC JUMP JUMPDEST DUP3 ADD SWAP2 SWAP1 PUSH1 0x0 MSTORE PUSH1 0x20 PUSH1 0x0 KECCAK256 SWAP1 JUMPDEST DUP2 SLOAD DUP2 MSTORE SWAP1 PUSH1 0x1 ADD SWAP1 PUSH1 0x20 ADD DUP1 DUP4 GT PUSH2 0x12CF JUMPI DUP3 SWAP1 SUB PUSH1 0x1F AND DUP3 ADD SWAP2 JUMPDEST POP POP POP POP POP DUP2 MSTORE PUSH1 0x20 ADD PUSH1 0x2 DUP3 ADD SLOAD DUP2 MSTORE PUSH1 0x20 ADD PUSH1 0x3 DUP3 ADD SLOAD DUP2 MSTORE PUSH1 0x20 ADD PUSH1 0x4 DUP3 ADD SLOAD DUP2 MSTORE PUSH1 0x20 ADD PUSH1 0x5 DUP3 ADD SLOAD DUP2 MSTORE PUSH1 0x20 ADD PUSH1 0x6 DUP3 ADD SLOAD DUP2 MSTORE POP POP SWAP1 POP SWAP2 SWAP1 POP JUMP JUMPDEST PUSH1 0x0 DUP2 DUP2 SLOAD DUP2 LT PUSH2 0x133E JUMPI PUSH1 0x0 DUP1 REVERT JUMPDEST SWAP1 PUSH1 0x0 MSTORE PUSH1 0x20 PUSH1 0x0 KECCAK256 SWAP1 PUSH1 0x7 MUL ADD PUSH1 0x0 SWAP2 POP SWAP1 POP DUP1 PUSH1 0x0 ADD DUP1 SLOAD PUSH2 0x1361 SWAP1 PUSH2 0x326D JUMP JUMPDEST DUP1 PUSH1 0x1F ADD PUSH1 0x20 DUP1 SWAP2 DIV MUL PUSH1 0x20 ADD PUSH1 0x40 MLOAD SWAP1 DUP2 ADD PUSH1 0x40 MSTORE DUP1 SWAP3 SWAP2 SWAP1 DUP2 DUP2 MSTORE PUSH1 0x20 ADD DUP3 DUP1 SLOAD PUSH2 0x138D SWAP1 PUSH2 0x326D JUMP JUMPDEST DUP1 ISZERO PUSH2 0x13DA JUMPI DUP1 PUSH1 0x1F LT PUSH2 0x13AF JUMPI PUSH2 0x100 DUP1 DUP4 SLOAD DIV MUL DUP4 MSTORE SWAP2 PUSH1 0x20 ADD SWAP2 PUSH2 0x13DA JUMP JUMPDEST DUP3 ADD SWAP2 SWAP1 PUSH1 0x0 MSTORE PUSH1 0x20 PUSH1 0x0 KECCAK256 SWAP1 JUMPDEST DUP2 SLOAD DUP2 MSTORE SWAP1 PUSH1 0x1 ADD SWAP1 PUSH1 0x20 ADD DUP1 DUP4 GT PUSH2 0x13BD JUMPI DUP3 SWAP1 SUB PUSH1 0x1F AND DUP3 ADD SWAP2 JUMPDEST POP POP POP POP POP SWAP1 DUP1 PUSH1 0x1 ADD DUP1 SLOAD PUSH2 0x13EF SWAP1 PUSH2 0x326D JUMP JUMPDEST DUP1 PUSH1 0x1F ADD PUSH1 0x20 DUP1 SWAP2 DIV MUL PUSH1 0x20 ADD PUSH1 0x40 MLOAD SWAP1 DUP2 ADD PUSH1 0x40 MSTORE DUP1 SWAP3 SWAP2 SWAP1 DUP2 DUP2 MSTORE PUSH1 0x20 ADD DUP3 DUP1 SLOAD PUSH2 0x141B SWAP1 PUSH2 0x326D JUMP JUMPDEST DUP1 ISZERO PUSH2 0x1468 JUMPI DUP1 PUSH1 0x1F LT PUSH2 0x143D JUMPI PUSH2 0x100 DUP1 DUP4 SLOAD DIV MUL DUP4 MSTORE SWAP2 PUSH1 0x20 ADD SWAP2 PUSH2 0x1468 JUMP JUMPDEST DUP3 ADD SWAP2 SWAP1 PUSH1 0x0 MSTORE PUSH1 0x20 PUSH1 0x0 KECCAK256 SWAP1 JUMPDEST DUP2 SLOAD DUP2 MSTORE SWAP1 PUSH1 0x1 ADD SWAP1 PUSH1 0x20 ADD DUP1 DUP4 GT PUSH2 0x144B JUMPI DUP3 SWAP1 SUB PUSH1 0x1F AND DUP3 ADD SWAP2 JUMPDEST POP POP POP POP POP SWAP1 DUP1 PUSH1 0x2 ADD SLOAD SWAP1 DUP1 PUSH1 0x3 ADD SLOAD SWAP1 DUP1 PUSH1 0x4 ADD SLOAD SWAP1 DUP1 PUSH1 0x5 ADD SLOAD SWAP1 DUP1 PUSH1 0x6 ADD SLOAD SWAP1 POP DUP8 JUMP JUMPDEST PUSH2 0x1498 PUSH2 0x2506 JUMP JUMPDEST PUSH1 0x0 PUSH1 0x4 DUP4 PUSH1 0x40 MLOAD PUSH2 0x14AA SWAP2 SWAP1 PUSH2 0x3389 JUMP JUMPDEST SWAP1 DUP2 MSTORE PUSH1 0x20 ADD PUSH1 0x40 MLOAD DUP1 SWAP2 SUB SWAP1 KECCAK256 SLOAD EQ ISZERO DUP1 PUSH2 0x1535 JUMPI POP DUP2 PUSH1 0x40 MLOAD PUSH1 0x20 ADD PUSH2 0x14D2 SWAP2 SWAP1 PUSH2 0x3389 JUMP JUMPDEST PUSH1 0x40 MLOAD PUSH1 0x20 DUP2 DUP4 SUB SUB DUP2 MSTORE SWAP1 PUSH1 0x40 MSTORE DUP1 MLOAD SWAP1 PUSH1 0x20 ADD KECCAK256 PUSH1 0x0 DUP1 DUP2 SLOAD DUP2 LT PUSH2 0x14FC JUMPI PUSH2 0x14FB PUSH2 0x320F JUMP JUMPDEST JUMPDEST SWAP1 PUSH1 0x0 MSTORE PUSH1 0x20 PUSH1 0x0 KECCAK256 SWAP1 PUSH1 0x7 MUL ADD PUSH1 0x0 ADD PUSH1 0x40 MLOAD PUSH1 0x20 ADD PUSH2 0x151D SWAP2 SWAP1 PUSH2 0x3341 JUMP JUMPDEST PUSH1 0x40 MLOAD PUSH1 0x20 DUP2 DUP4 SUB SUB DUP2 MSTORE SWAP1 PUSH1 0x40 MSTORE DUP1 MLOAD SWAP1 PUSH1 0x20 ADD KECCAK256 EQ JUMPDEST PUSH2 0x1574 JUMPI PUSH1 0x40 MLOAD PUSH32 0x8C379A000000000000000000000000000000000000000000000000000000000 DUP2 MSTORE PUSH1 0x4 ADD PUSH2 0x156B SWAP1 PUSH2 0x3B7A JUMP JUMPDEST PUSH1 0x40 MLOAD DUP1 SWAP2 SUB SWAP1 REVERT JUMPDEST PUSH1 0x0 PUSH1 0x4 DUP4 PUSH1 0x40 MLOAD PUSH2 0x1586 SWAP2 SWAP1 PUSH2 0x3389 JUMP JUMPDEST SWAP1 DUP2 MSTORE PUSH1 0x20 ADD PUSH1 0x40 MLOAD DUP1 SWAP2 SUB SWAP1 KECCAK256 SLOAD DUP2 SLOAD DUP2 LT PUSH2 0x15A6 JUMPI PUSH2 0x15A5 PUSH2 0x320F JUMP JUMPDEST JUMPDEST SWAP1 PUSH1 0x0 MSTORE PUSH1 0x20 PUSH1 0x0 KECCAK256 SWAP1 PUSH1 0x7 MUL ADD PUSH1 0x40 MLOAD DUP1 PUSH1 0xE0 ADD PUSH1 0x40 MSTORE SWAP1 DUP2 PUSH1 0x0 DUP3 ADD DUP1 SLOAD PUSH2 0x15CF SWAP1 PUSH2 0x326D JUMP JUMPDEST DUP1 PUSH1 0x1F ADD PUSH1 0x20 DUP1 SWAP2 DIV MUL PUSH1 0x20 ADD PUSH1 0x40 MLOAD SWAP1 DUP2 ADD PUSH1 0x40 MSTORE DUP1 SWAP3 SWAP2 SWAP1 DUP2 DUP2 MSTORE PUSH1 0x20 ADD DUP3 DUP1 SLOAD PUSH2 0x15FB SWAP1 PUSH2 0x326D JUMP JUMPDEST DUP1 ISZERO PUSH2 0x1648 JUMPI DUP1 PUSH1 0x1F LT PUSH2 0x161D JUMPI PUSH2 0x100 DUP1 DUP4 SLOAD DIV MUL DUP4 MSTORE SWAP2 PUSH1 0x20 ADD SWAP2 PUSH2 0x1648 JUMP JUMPDEST DUP3 ADD SWAP2 SWAP1 PUSH1 0x0 MSTORE PUSH1 0x20 PUSH1 0x0 KECCAK256 SWAP1 JUMPDEST DUP2 SLOAD DUP2 MSTORE SWAP1 PUSH1 0x1 ADD SWAP1 PUSH1 0x20 ADD DUP1 DUP4 GT PUSH2 0x162B JUMPI DUP3 SWAP1 SUB PUSH1 0x1F AND DUP3 ADD SWAP2 JUMPDEST POP POP POP POP POP DUP2 MSTORE PUSH1 0x20 ADD PUSH1 0x1 DUP3 ADD DUP1 SLOAD PUSH2 0x1661 SWAP1 PUSH2 0x326D JUMP JUMPDEST DUP1 PUSH1 0x1F ADD PUSH1 0x20 DUP1 SWAP2 DIV MUL PUSH1 0x20 ADD PUSH1 0x40 MLOAD SWAP1 DUP2 ADD PUSH1 0x40 MSTORE DUP1 SWAP3 SWAP2 SWAP1 DUP2 DUP2 MSTORE PUSH1 0x20 ADD DUP3 DUP1 SLOAD PUSH2 0x168D SWAP1 PUSH2 0x326D JUMP JUMPDEST DUP1 ISZERO PUSH2 0x16DA JUMPI DUP1 PUSH1 0x1F LT PUSH2 0x16AF JUMPI PUSH2 0x100 DUP1 DUP4 SLOAD DIV MUL DUP4 MSTORE SWAP2 PUSH1 0x20 ADD SWAP2 PUSH2 0x16DA JUMP JUMPDEST DUP3 ADD SWAP2 SWAP1 PUSH1 0x0 MSTORE PUSH1 0x20 PUSH1 0x0 KECCAK256 SWAP1 JUMPDEST DUP2 SLOAD DUP2 MSTORE SWAP1 PUSH1 0x1 ADD SWAP1 PUSH1 0x20 ADD DUP1 DUP4 GT PUSH2 0x16BD JUMPI DUP3 SWAP1 SUB PUSH1 0x1F AND DUP3 ADD SWAP2 JUMPDEST POP POP POP POP POP DUP2 MSTORE PUSH1 0x20 ADD PUSH1 0x2 DUP3 ADD SLOAD DUP2 MSTORE PUSH1 0x20 ADD PUSH1 0x3 DUP3 ADD SLOAD DUP2 MSTORE PUSH1 0x20 ADD PUSH1 0x4 DUP3 ADD SLOAD DUP2 MSTORE PUSH1 0x20 ADD PUSH1 0x5 DUP3 ADD SLOAD DUP2 MSTORE PUSH1 0x20 ADD PUSH1 0x6 DUP3 ADD SLOAD DUP2 MSTORE POP POP SWAP1 POP SWAP2 SWAP1 POP JUMP JUMPDEST PUSH1 0x60 PUSH2 0x1726 PUSH2 0x2543 JUMP JUMPDEST PUSH1 0x60 PUSH2 0x1730 PUSH2 0x256B JUMP JUMPDEST PUSH1 0x60 PUSH2 0x173A PUSH2 0x2592 JUMP JUMPDEST PUSH1 0x60 PUSH1 0x0 PUSH2 0x1748 DUP11 DUP11 PUSH2 0xC15 JUMP JUMPDEST SWAP1 POP DUP1 MLOAD PUSH8 0xFFFFFFFFFFFFFFFF DUP2 GT ISZERO PUSH2 0x1765 JUMPI PUSH2 0x1764 PUSH2 0x25E9 JUMP JUMPDEST JUMPDEST PUSH1 0x40 MLOAD SWAP1 DUP1 DUP3 MSTORE DUP1 PUSH1 0x20 MUL PUSH1 0x20 ADD DUP3 ADD PUSH1 0x40 MSTORE DUP1 ISZERO PUSH2 0x1798 JUMPI DUP2 PUSH1 0x20 ADD JUMPDEST PUSH1 0x60 DUP2 MSTORE PUSH1 0x20 ADD SWAP1 PUSH1 0x1 SWAP1 SUB SWAP1 DUP2 PUSH2 0x1783 JUMPI SWAP1 POP JUMPDEST POP SWAP8 POP PUSH1 0x40 MLOAD DUP1 PUSH2 0x1C0 ADD PUSH1 0x40 MSTORE DUP1 PUSH1 0x40 MLOAD DUP1 PUSH1 0x60 ADD PUSH1 0x40 MSTORE DUP1 PUSH1 0x32 DUP2 MSTORE PUSH1 0x20 ADD PUSH2 0x3E1E PUSH1 0x32 SWAP2 CODECOPY DUP2 MSTORE PUSH1 0x20 ADD PUSH1 0x40 MLOAD DUP1 PUSH1 0x60 ADD PUSH1 0x40 MSTORE DUP1 PUSH1 0x33 DUP2 MSTORE PUSH1 0x20 ADD PUSH2 0x3F18 PUSH1 0x33 SWAP2 CODECOPY DUP2 MSTORE PUSH1 0x20 ADD PUSH1 0x40 MLOAD DUP1 PUSH1 0x60 ADD PUSH1 0x40 MSTORE DUP1 PUSH1 0x36 DUP2 MSTORE PUSH1 0x20 ADD PUSH2 0x3FB1 PUSH1 0x36 SWAP2 CODECOPY DUP2 MSTORE PUSH1 0x20 ADD PUSH1 0x40 MLOAD DUP1 PUSH1 0x40 ADD PUSH1 0x40 MSTORE DUP1 PUSH1 0x1B DUP2 MSTORE PUSH1 0x20 ADD PUSH32 0x6173736574732E746F74616C416D6F756E744661697256616C75650000000000 DUP2 MSTORE POP DUP2 MSTORE PUSH1 0x20 ADD PUSH1 0x40 MLOAD DUP1 PUSH1 0x40 ADD PUSH1 0x40 MSTORE DUP1 PUSH1 0x14 DUP2 MSTORE PUSH1 0x20 ADD PUSH32 0x746F74616C4173736574734661697256616C7565000000000000000000000000 DUP2 MSTORE POP DUP2 MSTORE PUSH1 0x20 ADD PUSH1 0x40 MLOAD DUP1 PUSH1 0x60 ADD PUSH1 0x40 MSTORE DUP1 PUSH1 0x34 DUP2 MSTORE PUSH1 0x20 ADD PUSH2 0x4043 PUSH1 0x34 SWAP2 CODECOPY DUP2 MSTORE PUSH1 0x20 ADD PUSH1 0x40 MLOAD DUP1 PUSH1 0x60 ADD PUSH1 0x40 MSTORE DUP1 PUSH1 0x35 DUP2 MSTORE PUSH1 0x20 ADD PUSH2 0x40FC PUSH1 0x35 SWAP2 CODECOPY DUP2 MSTORE PUSH1 0x20 ADD PUSH1 0x40 MLOAD DUP1 PUSH1 0x60 ADD PUSH1 0x40 MSTORE DUP1 PUSH1 0x38 DUP2 MSTORE PUSH1 0x20 ADD PUSH2 0x420D PUSH1 0x38 SWAP2 CODECOPY DUP2 MSTORE PUSH1 0x20 ADD PUSH1 0x40 MLOAD DUP1 PUSH1 0x40 ADD PUSH1 0x40 MSTORE DUP1 PUSH1 0x20 DUP2 MSTORE PUSH1 0x20 ADD PUSH32 0x6C696162696C69746965732E746F74616C416D6F756E744661697256616C7565 DUP2 MSTORE POP DUP2 MSTORE PUSH1 0x20 ADD PUSH1 0x40 MLOAD DUP1 PUSH1 0x60 ADD PUSH1 0x40 MSTORE DUP1 PUSH1 0x34 DUP2 MSTORE PUSH1 0x20 ADD PUSH2 0x4131 PUSH1 0x34 SWAP2 CODECOPY DUP2 MSTORE PUSH1 0x20 ADD PUSH1 0x40 MLOAD DUP1 PUSH1 0x60 ADD PUSH1 0x40 MSTORE DUP1 PUSH1 0x35 DUP2 MSTORE PUSH1 0x20 ADD PUSH2 0x41D8 PUSH1 0x35 SWAP2 CODECOPY DUP2 MSTORE PUSH1 0x20 ADD PUSH1 0x40 MLOAD DUP1 PUSH1 0x60 ADD PUSH1 0x40 MSTORE DUP1 PUSH1 0x38 DUP2 MSTORE PUSH1 0x20 ADD PUSH2 0x3EA4 PUSH1 0x38 SWAP2 CODECOPY DUP2 MSTORE PUSH1 0x20 ADD PUSH1 0x40 MLOAD DUP1 PUSH1 0x40 ADD PUSH1 0x40 MSTORE DUP1 PUSH1 0x1B DUP2 MSTORE PUSH1 0x20 ADD PUSH32 0x6571756974792E746F74616C416D6F756E744661697256616C75650000000000 DUP2 MSTORE POP DUP2 MSTORE PUSH1 0x20 ADD PUSH1 0x40 MLOAD DUP1 PUSH1 0x60 ADD PUSH1 0x40 MSTORE DUP1 PUSH1 0x22 DUP2 MSTORE PUSH1 0x20 ADD PUSH2 0x3F8F PUSH1 0x22 SWAP2 CODECOPY DUP2 MSTORE POP SWAP7 POP PUSH1 0x40 MLOAD DUP1 PUSH1 0x80 ADD PUSH1 0x40 MSTORE DUP1 PUSH1 0x40 MLOAD DUP1 PUSH1 0x60 ADD PUSH1 0x40 MSTORE DUP1 PUSH1 0x2D DUP2 MSTORE PUSH1 0x20 ADD PUSH2 0x3FE7 PUSH1 0x2D SWAP2 CODECOPY DUP2 MSTORE PUSH1 0x20 ADD PUSH1 0x40 MLOAD DUP1 PUSH1 0x60 ADD PUSH1 0x40 MSTORE DUP1 PUSH1 0x2F DUP2 MSTORE PUSH1 0x20 ADD PUSH2 0x4014 PUSH1 0x2F SWAP2 CODECOPY DUP2 MSTORE PUSH1 0x20 ADD PUSH1 0x40 MLOAD DUP1 PUSH1 0xA0 ADD PUSH1 0x40 MSTORE DUP1 PUSH1 0x80 DUP2 MSTORE PUSH1 0x20 ADD PUSH2 0x3D9E PUSH1 0x80 SWAP2 CODECOPY DUP2 MSTORE PUSH1 0x20 ADD PUSH1 0x40 MLOAD DUP1 PUSH1 0x40 ADD PUSH1 0x40 MSTORE DUP1 PUSH1 0x9 DUP2 MSTORE PUSH1 0x20 ADD PUSH32 0x6E657450726F6669740000000000000000000000000000000000000000000000 DUP2 MSTORE POP DUP2 MSTORE POP SWAP5 POP PUSH1 0x40 MLOAD DUP1 PUSH2 0x100 ADD PUSH1 0x40 MSTORE DUP1 PUSH1 0x40 MLOAD DUP1 PUSH1 0xA0 ADD PUSH1 0x40 MSTORE DUP1 PUSH1 0x71 DUP2 MSTORE PUSH1 0x20 ADD PUSH2 0x435A PUSH1 0x71 SWAP2 CODECOPY DUP2 MSTORE PUSH1 0x20 ADD PUSH1 0x40 MLOAD DUP1 PUSH1 0xA0 ADD PUSH1 0x40 MSTORE DUP1 PUSH1 0x73 DUP2 MSTORE PUSH1 0x20 ADD PUSH2 0x4165 PUSH1 0x73 SWAP2 CODECOPY DUP2 MSTORE PUSH1 0x20 ADD PUSH1 0x40 MLOAD DUP1 PUSH1 0xA0 ADD PUSH1 0x40 MSTORE DUP1 PUSH1 0x80 DUP2 MSTORE PUSH1 0x20 ADD PUSH2 0x3D9E PUSH1 0x80 SWAP2 CODECOPY DUP2 MSTORE PUSH1 0x20 ADD PUSH1 0x40 MLOAD DUP1 PUSH1 0xC0 ADD PUSH1 0x40 MSTORE DUP1 PUSH1 0x83 DUP2 MSTORE PUSH1 0x20 ADD PUSH2 0x42D7 PUSH1 0x83 SWAP2 CODECOPY DUP2 MSTORE PUSH1 0x20 ADD PUSH1 0x40 MLOAD DUP1 PUSH1 0xC0 ADD PUSH1 0x40 MSTORE DUP1 PUSH1 0x85 DUP2 MSTORE PUSH1 0x20 ADD PUSH2 0x4077 PUSH1 0x85 SWAP2 CODECOPY DUP2 MSTORE PUSH1 0x20 ADD PUSH1 0x40 MLOAD DUP1 PUSH1 0xC0 ADD PUSH1 0x40 MSTORE DUP1 PUSH1 0x92 DUP2 MSTORE PUSH1 0x20 ADD PUSH2 0x4245 PUSH1 0x92 SWAP2 CODECOPY DUP2 MSTORE PUSH1 0x20 ADD PUSH1 0x40 MLOAD DUP1 PUSH1 0x80 ADD PUSH1 0x40 MSTORE DUP1 PUSH1 0x44 DUP2 MSTORE PUSH1 0x20 ADD PUSH2 0x3F4B PUSH1 0x44 SWAP2 CODECOPY DUP2 MSTORE PUSH1 0x20 ADD PUSH1 0x40 MLOAD DUP1 PUSH1 0x80 ADD PUSH1 0x40 MSTORE DUP1 PUSH1 0x54 DUP2 MSTORE PUSH1 0x20 ADD PUSH2 0x3E50 PUSH1 0x54 SWAP2 CODECOPY DUP2 MSTORE POP SWAP3 POP DUP1 MLOAD PUSH8 0xFFFFFFFFFFFFFFFF DUP2 GT ISZERO PUSH2 0x1B76 JUMPI PUSH2 0x1B75 PUSH2 0x25E9 JUMP JUMPDEST JUMPDEST PUSH1 0x40 MLOAD SWAP1 DUP1 DUP3 MSTORE DUP1 PUSH1 0x20 MUL PUSH1 0x20 ADD DUP3 ADD PUSH1 0x40 MSTORE DUP1 ISZERO PUSH2 0x1BA9 JUMPI DUP2 PUSH1 0x20 ADD JUMPDEST PUSH1 0x60 DUP2 MSTORE PUSH1 0x20 ADD SWAP1 PUSH1 0x1 SWAP1 SUB SWAP1 DUP2 PUSH2 0x1B94 JUMPI SWAP1 POP JUMPDEST POP SWAP6 POP DUP1 MLOAD PUSH8 0xFFFFFFFFFFFFFFFF DUP2 GT ISZERO PUSH2 0x1BC7 JUMPI PUSH2 0x1BC6 PUSH2 0x25E9 JUMP JUMPDEST JUMPDEST PUSH1 0x40 MLOAD SWAP1 DUP1 DUP3 MSTORE DUP1 PUSH1 0x20 MUL PUSH1 0x20 ADD DUP3 ADD PUSH1 0x40 MSTORE DUP1 ISZERO PUSH2 0x1BFA JUMPI DUP2 PUSH1 0x20 ADD JUMPDEST PUSH1 0x60 DUP2 MSTORE PUSH1 0x20 ADD SWAP1 PUSH1 0x1 SWAP1 SUB SWAP1 DUP2 PUSH2 0x1BE5 JUMPI SWAP1 POP JUMPDEST POP SWAP4 POP DUP1 MLOAD PUSH8 0xFFFFFFFFFFFFFFFF DUP2 GT ISZERO PUSH2 0x1C18 JUMPI PUSH2 0x1C17 PUSH2 0x25E9 JUMP JUMPDEST JUMPDEST PUSH1 0x40 MLOAD SWAP1 DUP1 DUP3 MSTORE DUP1 PUSH1 0x20 MUL PUSH1 0x20 ADD DUP3 ADD PUSH1 0x40 MSTORE DUP1 ISZERO PUSH2 0x1C4B JUMPI DUP2 PUSH1 0x20 ADD JUMPDEST PUSH1 0x60 DUP2 MSTORE PUSH1 0x20 ADD SWAP1 PUSH1 0x1 SWAP1 SUB SWAP1 DUP2 PUSH2 0x1C36 JUMPI SWAP1 POP JUMPDEST POP SWAP2 POP PUSH1 0x0 JUMPDEST DUP2 MLOAD DUP2 LT ISZERO PUSH2 0x1F8F JUMPI DUP2 DUP2 DUP2 MLOAD DUP2 LT PUSH2 0x1C6D JUMPI PUSH2 0x1C6C PUSH2 0x320F JUMP JUMPDEST JUMPDEST PUSH1 0x20 MUL PUSH1 0x20 ADD ADD MLOAD PUSH1 0x0 ADD MLOAD DUP10 DUP3 DUP2 MLOAD DUP2 LT PUSH2 0x1C8C JUMPI PUSH2 0x1C8B PUSH2 0x320F JUMP JUMPDEST JUMPDEST PUSH1 0x20 MUL PUSH1 0x20 ADD ADD DUP2 SWAP1 MSTORE POP PUSH1 0xE PUSH8 0xFFFFFFFFFFFFFFFF DUP2 GT ISZERO PUSH2 0x1CB2 JUMPI PUSH2 0x1CB1 PUSH2 0x25E9 JUMP JUMPDEST JUMPDEST PUSH1 0x40 MLOAD SWAP1 DUP1 DUP3 MSTORE DUP1 PUSH1 0x20 MUL PUSH1 0x20 ADD DUP3 ADD PUSH1 0x40 MSTORE DUP1 ISZERO PUSH2 0x1CE0 JUMPI DUP2 PUSH1 0x20 ADD PUSH1 0x20 DUP3 MUL DUP1 CALLDATASIZE DUP4 CALLDATACOPY DUP1 DUP3 ADD SWAP2 POP POP SWAP1 POP JUMPDEST POP DUP8 DUP3 DUP2 MLOAD DUP2 LT PUSH2 0x1CF4 JUMPI PUSH2 0x1CF3 PUSH2 0x320F JUMP JUMPDEST JUMPDEST PUSH1 0x20 MUL PUSH1 0x20 ADD ADD DUP2 SWAP1 MSTORE POP PUSH1 0x4 PUSH8 0xFFFFFFFFFFFFFFFF DUP2 GT ISZERO PUSH2 0x1D1A JUMPI PUSH2 0x1D19 PUSH2 0x25E9 JUMP JUMPDEST JUMPDEST PUSH1 0x40 MLOAD SWAP1 DUP1 DUP3 MSTORE DUP1 PUSH1 0x20 MUL PUSH1 0x20 ADD DUP3 ADD PUSH1 0x40 MSTORE DUP1 ISZERO PUSH2 0x1D48 JUMPI DUP2 PUSH1 0x20 ADD PUSH1 0x20 DUP3 MUL DUP1 CALLDATASIZE DUP4 CALLDATACOPY DUP1 DUP3 ADD SWAP2 POP POP SWAP1 POP JUMPDEST POP DUP6 DUP3 DUP2 MLOAD DUP2 LT PUSH2 0x1D5C JUMPI PUSH2 0x1D5B PUSH2 0x320F JUMP JUMPDEST JUMPDEST PUSH1 0x20 MUL PUSH1 0x20 ADD ADD DUP2 SWAP1 MSTORE POP PUSH1 0x8 PUSH8 0xFFFFFFFFFFFFFFFF DUP2 GT ISZERO PUSH2 0x1D82 JUMPI PUSH2 0x1D81 PUSH2 0x25E9 JUMP JUMPDEST JUMPDEST PUSH1 0x40 MLOAD SWAP1 DUP1 DUP3 MSTORE DUP1 PUSH1 0x20 MUL PUSH1 0x20 ADD DUP3 ADD PUSH1 0x40 MSTORE DUP1 ISZERO PUSH2 0x1DB0 JUMPI DUP2 PUSH1 0x20 ADD PUSH1 0x20 DUP3 MUL DUP1 CALLDATASIZE DUP4 CALLDATACOPY DUP1 DUP3 ADD SWAP2 POP POP SWAP1 POP JUMPDEST POP DUP4 DUP3 DUP2 MLOAD DUP2 LT PUSH2 0x1DC4 JUMPI PUSH2 0x1DC3 PUSH2 0x320F JUMP JUMPDEST JUMPDEST PUSH1 0x20 MUL PUSH1 0x20 ADD ADD DUP2 SWAP1 MSTORE POP PUSH1 0x0 JUMPDEST PUSH1 0xE DUP2 LT ISZERO PUSH2 0x1E5D JUMPI PUSH1 0x1 DUP10 DUP3 PUSH1 0xE DUP2 LT PUSH2 0x1DF0 JUMPI PUSH2 0x1DEF PUSH2 0x320F JUMP JUMPDEST JUMPDEST PUSH1 0x20 MUL ADD MLOAD PUSH1 0x40 MLOAD PUSH2 0x1E02 SWAP2 SWAP1 PUSH2 0x3389 JUMP JUMPDEST SWAP1 DUP2 MSTORE PUSH1 0x20 ADD PUSH1 0x40 MLOAD DUP1 SWAP2 SUB SWAP1 KECCAK256 SLOAD DUP9 DUP4 DUP2 MLOAD DUP2 LT PUSH2 0x1E24 JUMPI PUSH2 0x1E23 PUSH2 0x320F JUMP JUMPDEST JUMPDEST PUSH1 0x20 MUL PUSH1 0x20 ADD ADD MLOAD DUP3 DUP2 MLOAD DUP2 LT PUSH2 0x1E3E JUMPI PUSH2 0x1E3D PUSH2 0x320F JUMP JUMPDEST JUMPDEST PUSH1 0x20 MUL PUSH1 0x20 ADD ADD DUP2 DUP2 MSTORE POP POP DUP1 DUP1 PUSH2 0x1E55 SWAP1 PUSH2 0x343B JUMP JUMPDEST SWAP2 POP POP PUSH2 0x1DD2 JUMP JUMPDEST POP PUSH1 0x0 JUMPDEST PUSH1 0x4 DUP2 LT ISZERO PUSH2 0x1EEC JUMPI PUSH1 0x2 DUP8 DUP3 PUSH1 0x4 DUP2 LT PUSH2 0x1E7F JUMPI PUSH2 0x1E7E PUSH2 0x320F JUMP JUMPDEST JUMPDEST PUSH1 0x20 MUL ADD MLOAD PUSH1 0x40 MLOAD PUSH2 0x1E91 SWAP2 SWAP1 PUSH2 0x3389 JUMP JUMPDEST SWAP1 DUP2 MSTORE PUSH1 0x20 ADD PUSH1 0x40 MLOAD DUP1 SWAP2 SUB SWAP1 KECCAK256 SLOAD DUP7 DUP4 DUP2 MLOAD DUP2 LT PUSH2 0x1EB3 JUMPI PUSH2 0x1EB2 PUSH2 0x320F JUMP JUMPDEST JUMPDEST PUSH1 0x20 MUL PUSH1 0x20 ADD ADD MLOAD DUP3 DUP2 MLOAD DUP2 LT PUSH2 0x1ECD JUMPI PUSH2 0x1ECC PUSH2 0x320F JUMP JUMPDEST JUMPDEST PUSH1 0x20 MUL PUSH1 0x20 ADD ADD DUP2 DUP2 MSTORE POP POP DUP1 DUP1 PUSH2 0x1EE4 SWAP1 PUSH2 0x343B JUMP JUMPDEST SWAP2 POP POP PUSH2 0x1E61 JUMP JUMPDEST POP PUSH1 0x0 JUMPDEST PUSH1 0x8 DUP2 LT ISZERO PUSH2 0x1F7B JUMPI PUSH1 0x3 DUP6 DUP3 PUSH1 0x8 DUP2 LT PUSH2 0x1F0E JUMPI PUSH2 0x1F0D PUSH2 0x320F JUMP JUMPDEST JUMPDEST PUSH1 0x20 MUL ADD MLOAD PUSH1 0x40 MLOAD PUSH2 0x1F20 SWAP2 SWAP1 PUSH2 0x3389 JUMP JUMPDEST SWAP1 DUP2 MSTORE PUSH1 0x20 ADD PUSH1 0x40 MLOAD DUP1 SWAP2 SUB SWAP1 KECCAK256 SLOAD DUP5 DUP4 DUP2 MLOAD DUP2 LT PUSH2 0x1F42 JUMPI PUSH2 0x1F41 PUSH2 0x320F JUMP JUMPDEST JUMPDEST PUSH1 0x20 MUL PUSH1 0x20 ADD ADD MLOAD DUP3 DUP2 MLOAD DUP2 LT PUSH2 0x1F5C JUMPI PUSH2 0x1F5B PUSH2 0x320F JUMP JUMPDEST JUMPDEST PUSH1 0x20 MUL PUSH1 0x20 ADD ADD DUP2 DUP2 MSTORE POP POP DUP1 DUP1 PUSH2 0x1F73 SWAP1 PUSH2 0x343B JUMP JUMPDEST SWAP2 POP POP PUSH2 0x1EF0 JUMP JUMPDEST POP DUP1 DUP1 PUSH2 0x1F87 SWAP1 PUSH2 0x343B JUMP JUMPDEST SWAP2 POP POP PUSH2 0x1C51 JUMP JUMPDEST POP POP SWAP3 SWAP6 SWAP9 SWAP2 SWAP5 SWAP8 POP SWAP3 SWAP6 POP JUMP JUMPDEST PUSH1 0x1 DUP2 DUP1 MLOAD PUSH1 0x20 DUP2 ADD DUP3 ADD DUP1 MLOAD DUP5 DUP3 MSTORE PUSH1 0x20 DUP4 ADD PUSH1 0x20 DUP6 ADD KECCAK256 DUP2 DUP4 MSTORE DUP1 SWAP6 POP POP POP POP POP POP PUSH1 0x0 SWAP2 POP SWAP1 POP SLOAD DUP2 JUMP JUMPDEST PUSH1 0x0 JUMPDEST DUP3 MLOAD DUP2 LT ISZERO PUSH2 0x2039 JUMPI DUP2 PUSH1 0x1 DUP5 DUP4 DUP2 MLOAD DUP2 LT PUSH2 0x1FED JUMPI PUSH2 0x1FEC PUSH2 0x320F JUMP JUMPDEST JUMPDEST PUSH1 0x20 MUL PUSH1 0x20 ADD ADD MLOAD PUSH1 0x40 MLOAD PUSH2 0x2002 SWAP2 SWAP1 PUSH2 0x3389 JUMP JUMPDEST SWAP1 DUP2 MSTORE PUSH1 0x20 ADD PUSH1 0x40 MLOAD DUP1 SWAP2 SUB SWAP1 KECCAK256 PUSH1 0x0 DUP3 DUP3 SLOAD PUSH2 0x201F SWAP2 SWAP1 PUSH2 0x387D JUMP JUMPDEST SWAP3 POP POP DUP2 SWAP1 SSTORE POP DUP1 DUP1 PUSH2 0x2031 SWAP1 PUSH2 0x343B JUMP JUMPDEST SWAP2 POP POP PUSH2 0x1FCE JUMP JUMPDEST POP POP POP JUMP JUMPDEST PUSH1 0x0 JUMPDEST DUP3 MLOAD DUP2 LT ISZERO PUSH2 0x20AC JUMPI DUP2 PUSH1 0x2 DUP5 DUP4 DUP2 MLOAD DUP2 LT PUSH2 0x2060 JUMPI PUSH2 0x205F PUSH2 0x320F JUMP JUMPDEST JUMPDEST PUSH1 0x20 MUL PUSH1 0x20 ADD ADD MLOAD PUSH1 0x40 MLOAD PUSH2 0x2075 SWAP2 SWAP1 PUSH2 0x3389 JUMP JUMPDEST SWAP1 DUP2 MSTORE PUSH1 0x20 ADD PUSH1 0x40 MLOAD DUP1 SWAP2 SUB SWAP1 KECCAK256 PUSH1 0x0 DUP3 DUP3 SLOAD PUSH2 0x2092 SWAP2 SWAP1 PUSH2 0x387D JUMP JUMPDEST SWAP3 POP POP DUP2 SWAP1 SSTORE POP DUP1 DUP1 PUSH2 0x20A4 SWAP1 PUSH2 0x343B JUMP JUMPDEST SWAP2 POP POP PUSH2 0x2041 JUMP JUMPDEST POP POP POP JUMP JUMPDEST PUSH1 0x0 PUSH1 0x64 DUP3 PUSH1 0xC0 ADD MLOAD DUP4 PUSH1 0x60 ADD MLOAD DUP5 PUSH1 0x40 ADD MLOAD PUSH2 0x20CE SWAP2 SWAP1 PUSH2 0x36EC JUMP JUMPDEST PUSH2 0x20D8 SWAP2 SWAP1 PUSH2 0x3754 JUMP JUMPDEST PUSH2 0x20E2 SWAP2 SWAP1 PUSH2 0x37C5 JUMP JUMPDEST SWAP1 POP PUSH1 0x0 PUSH1 0x2 PUSH8 0xFFFFFFFFFFFFFFFF DUP2 GT ISZERO PUSH2 0x2101 JUMPI PUSH2 0x2100 PUSH2 0x25E9 JUMP JUMPDEST JUMPDEST PUSH1 0x40 MLOAD SWAP1 DUP1 DUP3 MSTORE DUP1 PUSH1 0x20 MUL PUSH1 0x20 ADD DUP3 ADD PUSH1 0x40 MSTORE DUP1 ISZERO PUSH2 0x2134 JUMPI DUP2 PUSH1 0x20 ADD JUMPDEST PUSH1 0x60 DUP2 MSTORE PUSH1 0x20 ADD SWAP1 PUSH1 0x1 SWAP1 SUB SWAP1 DUP2 PUSH2 0x211F JUMPI SWAP1 POP JUMPDEST POP SWAP1 POP PUSH1 0x40 MLOAD DUP1 PUSH1 0xA0 ADD PUSH1 0x40 MSTORE DUP1 PUSH1 0x71 DUP2 MSTORE PUSH1 0x20 ADD PUSH2 0x435A PUSH1 0x71 SWAP2 CODECOPY DUP2 PUSH1 0x0 DUP2 MLOAD DUP2 LT PUSH2 0x2164 JUMPI PUSH2 0x2163 PUSH2 0x320F JUMP JUMPDEST JUMPDEST PUSH1 0x20 MUL PUSH1 0x20 ADD ADD DUP2 SWAP1 MSTORE POP PUSH1 0x40 MLOAD DUP1 PUSH1 0xA0 ADD PUSH1 0x40 MSTORE DUP1 PUSH1 0x80 DUP2 MSTORE PUSH1 0x20 ADD PUSH2 0x3D9E PUSH1 0x80 SWAP2 CODECOPY DUP2 PUSH1 0x1 DUP2 MLOAD DUP2 LT PUSH2 0x219C JUMPI PUSH2 0x219B PUSH2 0x320F JUMP JUMPDEST JUMPDEST PUSH1 0x20 MUL PUSH1 0x20 ADD ADD DUP2 SWAP1 MSTORE POP PUSH2 0x21B1 DUP2 DUP4 PUSH2 0x2493 JUMP JUMPDEST PUSH1 0x0 DUP4 PUSH1 0x60 ADD MLOAD DUP5 PUSH1 0x40 ADD MLOAD PUSH2 0x21C7 SWAP2 SWAP1 PUSH2 0x36EC JUMP JUMPDEST SWAP1 POP DUP1 PUSH1 0x3 PUSH1 0x40 MLOAD PUSH2 0x21D8 SWAP1 PUSH2 0x3C58 JUMP JUMPDEST SWAP1 DUP2 MSTORE PUSH1 0x20 ADD PUSH1 0x40 MLOAD DUP1 SWAP2 SUB SWAP1 KECCAK256 PUSH1 0x0 DUP3 DUP3 SLOAD PUSH2 0x21F5 SWAP2 SWAP1 PUSH2 0x387D JUMP JUMPDEST SWAP3 POP POP DUP2 SWAP1 SSTORE POP PUSH1 0x0 PUSH1 0x64 DUP6 PUSH1 0xC0 ADD MLOAD DUP7 PUSH1 0x80 ADD MLOAD DUP8 PUSH1 0x60 ADD MLOAD PUSH2 0x2219 SWAP2 SWAP1 PUSH2 0x3720 JUMP JUMPDEST PUSH2 0x2223 SWAP2 SWAP1 PUSH2 0x3754 JUMP JUMPDEST PUSH2 0x222D SWAP2 SWAP1 PUSH2 0x37C5 JUMP JUMPDEST SWAP1 POP PUSH1 0x0 PUSH1 0x2 PUSH8 0xFFFFFFFFFFFFFFFF DUP2 GT ISZERO PUSH2 0x224C JUMPI PUSH2 0x224B PUSH2 0x25E9 JUMP JUMPDEST JUMPDEST PUSH1 0x40 MLOAD SWAP1 DUP1 DUP3 MSTORE DUP1 PUSH1 0x20 MUL PUSH1 0x20 ADD DUP3 ADD PUSH1 0x40 MSTORE DUP1 ISZERO PUSH2 0x227F JUMPI DUP2 PUSH1 0x20 ADD JUMPDEST PUSH1 0x60 DUP2 MSTORE PUSH1 0x20 ADD SWAP1 PUSH1 0x1 SWAP1 SUB SWAP1 DUP2 PUSH2 0x226A JUMPI SWAP1 POP JUMPDEST POP SWAP1 POP PUSH1 0x40 MLOAD DUP1 PUSH1 0xC0 ADD PUSH1 0x40 MSTORE DUP1 PUSH1 0x83 DUP2 MSTORE PUSH1 0x20 ADD PUSH2 0x42D7 PUSH1 0x83 SWAP2 CODECOPY DUP2 PUSH1 0x0 DUP2 MLOAD DUP2 LT PUSH2 0x22AF JUMPI PUSH2 0x22AE PUSH2 0x320F JUMP JUMPDEST JUMPDEST PUSH1 0x20 MUL PUSH1 0x20 ADD ADD DUP2 SWAP1 MSTORE POP PUSH1 0x40 MLOAD DUP1 PUSH1 0xC0 ADD PUSH1 0x40 MSTORE DUP1 PUSH1 0x92 DUP2 MSTORE PUSH1 0x20 ADD PUSH2 0x4245 PUSH1 0x92 SWAP2 CODECOPY DUP2 PUSH1 0x1 DUP2 MLOAD DUP2 LT PUSH2 0x22E7 JUMPI PUSH2 0x22E6 PUSH2 0x320F JUMP JUMPDEST JUMPDEST PUSH1 0x20 MUL PUSH1 0x20 ADD ADD DUP2 SWAP1 MSTORE POP PUSH2 0x22FC DUP2 DUP4 PUSH2 0x2493 JUMP JUMPDEST PUSH1 0x0 DUP7 PUSH1 0x60 ADD MLOAD DUP8 PUSH1 0x40 ADD MLOAD PUSH2 0x2312 SWAP2 SWAP1 PUSH2 0x36EC JUMP JUMPDEST SWAP1 POP DUP1 PUSH1 0x3 PUSH1 0x40 MLOAD PUSH2 0x2323 SWAP1 PUSH2 0x3D51 JUMP JUMPDEST SWAP1 DUP2 MSTORE PUSH1 0x20 ADD PUSH1 0x40 MLOAD DUP1 SWAP2 SUB SWAP1 KECCAK256 PUSH1 0x0 DUP3 DUP3 SLOAD PUSH2 0x2340 SWAP2 SWAP1 PUSH2 0x387D JUMP JUMPDEST SWAP3 POP POP DUP2 SWAP1 SSTORE POP PUSH1 0x0 PUSH1 0x64 DUP9 PUSH1 0xC0 ADD MLOAD DUP10 PUSH1 0x80 ADD MLOAD DUP11 PUSH1 0x40 ADD MLOAD PUSH2 0x2364 SWAP2 SWAP1 PUSH2 0x3720 JUMP JUMPDEST PUSH2 0x236E SWAP2 SWAP1 PUSH2 0x3754 JUMP JUMPDEST PUSH2 0x2378 SWAP2 SWAP1 PUSH2 0x37C5 JUMP JUMPDEST SWAP1 POP PUSH1 0x0 PUSH1 0x2 PUSH8 0xFFFFFFFFFFFFFFFF DUP2 GT ISZERO PUSH2 0x2397 JUMPI PUSH2 0x2396 PUSH2 0x25E9 JUMP JUMPDEST JUMPDEST PUSH1 0x40 MLOAD SWAP1 DUP1 DUP3 MSTORE DUP1 PUSH1 0x20 MUL PUSH1 0x20 ADD DUP3 ADD PUSH1 0x40 MSTORE DUP1 ISZERO PUSH2 0x23CA JUMPI DUP2 PUSH1 0x20 ADD JUMPDEST PUSH1 0x60 DUP2 MSTORE PUSH1 0x20 ADD SWAP1 PUSH1 0x1 SWAP1 SUB SWAP1 DUP2 PUSH2 0x23B5 JUMPI SWAP1 POP JUMPDEST POP SWAP1 POP PUSH1 0x40 MLOAD DUP1 PUSH1 0x80 ADD PUSH1 0x40 MSTORE DUP1 PUSH1 0x44 DUP2 MSTORE PUSH1 0x20 ADD PUSH2 0x3F4B PUSH1 0x44 SWAP2 CODECOPY DUP2 PUSH1 0x0 DUP2 MLOAD DUP2 LT PUSH2 0x23FA JUMPI PUSH2 0x23F9 PUSH2 0x320F JUMP JUMPDEST JUMPDEST PUSH1 0x20 MUL PUSH1 0x20 ADD ADD DUP2 SWAP1 MSTORE POP PUSH1 0x40 MLOAD DUP1 PUSH1 0x80 ADD PUSH1 0x40 MSTORE DUP1 PUSH1 0x54 DUP2 MSTORE PUSH1 0x20 ADD PUSH2 0x3E50 PUSH1 0x54 SWAP2 CODECOPY DUP2 PUSH1 0x1 DUP2 MLOAD DUP2 LT PUSH2 0x2432 JUMPI PUSH2 0x2431 PUSH2 0x320F JUMP JUMPDEST JUMPDEST PUSH1 0x20 MUL PUSH1 0x20 ADD ADD DUP2 SWAP1 MSTORE POP PUSH2 0x2447 DUP2 DUP4 PUSH2 0x2493 JUMP JUMPDEST PUSH32 0xA26BDD521074FE90072FBBAD03F6CCCBC67A863F014B3F6AFA31EFA7E026EE4A DUP10 PUSH1 0x0 ADD MLOAD DUP11 PUSH1 0x20 ADD MLOAD PUSH1 0x40 MLOAD PUSH2 0x2480 SWAP3 SWAP2 SWAP1 PUSH2 0x3D66 JUMP JUMPDEST PUSH1 0x40 MLOAD DUP1 SWAP2 SUB SWAP1 LOG1 POP POP POP POP POP POP POP POP POP JUMP JUMPDEST PUSH1 0x0 JUMPDEST DUP3 MLOAD DUP2 LT ISZERO PUSH2 0x2501 JUMPI DUP2 PUSH1 0x3 DUP5 DUP4 DUP2 MLOAD DUP2 LT PUSH2 0x24B5 JUMPI PUSH2 0x24B4 PUSH2 0x320F JUMP JUMPDEST JUMPDEST PUSH1 0x20 MUL PUSH1 0x20 ADD ADD MLOAD PUSH1 0x40 MLOAD PUSH2 0x24CA SWAP2 SWAP1 PUSH2 0x3389 JUMP JUMPDEST SWAP1 DUP2 MSTORE PUSH1 0x20 ADD PUSH1 0x40 MLOAD DUP1 SWAP2 SUB SWAP1 KECCAK256 PUSH1 0x0 DUP3 DUP3 SLOAD PUSH2 0x24E7 SWAP2 SWAP1 PUSH2 0x387D JUMP JUMPDEST SWAP3 POP POP DUP2 SWAP1 SSTORE POP DUP1 DUP1 PUSH2 0x24F9 SWAP1 PUSH2 0x343B JUMP JUMPDEST SWAP2 POP POP PUSH2 0x2496 JUMP JUMPDEST POP POP POP JUMP JUMPDEST PUSH1 0x40 MLOAD DUP1 PUSH1 0xE0 ADD PUSH1 0x40 MSTORE DUP1 PUSH1 0x60 DUP2 MSTORE PUSH1 0x20 ADD PUSH1 0x60 DUP2 MSTORE PUSH1 0x20 ADD PUSH1 0x0 DUP2 MSTORE PUSH1 0x20 ADD PUSH1 0x0 DUP2 MSTORE PUSH1 0x20 ADD PUSH1 0x0 DUP2 MSTORE PUSH1 0x20 ADD PUSH1 0x0 DUP2 MSTORE PUSH1 0x20 ADD PUSH1 0x0 DUP2 MSTORE POP SWAP1 JUMP JUMPDEST PUSH1 0x40 MLOAD DUP1 PUSH2 0x1C0 ADD PUSH1 0x40 MSTORE DUP1 PUSH1 0xE SWAP1 JUMPDEST PUSH1 0x60 DUP2 MSTORE PUSH1 0x20 ADD SWAP1 PUSH1 0x1 SWAP1 SUB SWAP1 DUP2 PUSH2 0x2553 JUMPI SWAP1 POP POP SWAP1 JUMP JUMPDEST PUSH1 0x40 MLOAD DUP1 PUSH1 0x80 ADD PUSH1 0x40 MSTORE DUP1 PUSH1 0x4 SWAP1 JUMPDEST PUSH1 0x60 DUP2 MSTORE PUSH1 0x20 ADD SWAP1 PUSH1 0x1 SWAP1 SUB SWAP1 DUP2 PUSH2 0x257A JUMPI SWAP1 POP POP SWAP1 JUMP JUMPDEST PUSH1 0x40 MLOAD DUP1 PUSH2 0x100 ADD PUSH1 0x40 MSTORE DUP1 PUSH1 0x8 SWAP1 JUMPDEST PUSH1 0x60 DUP2 MSTORE PUSH1 0x20 ADD SWAP1 PUSH1 0x1 SWAP1 SUB SWAP1 DUP2 PUSH2 0x25A2 JUMPI SWAP1 POP POP SWAP1 JUMP JUMPDEST PUSH1 0x0 PUSH1 0x40 MLOAD SWAP1 POP SWAP1 JUMP JUMPDEST PUSH1 0x0 DUP1 REVERT JUMPDEST PUSH1 0x0 DUP1 REVERT JUMPDEST PUSH1 0x0 DUP1 REVERT JUMPDEST PUSH1 0x0 DUP1 REVERT JUMPDEST PUSH1 0x0 PUSH1 0x1F NOT PUSH1 0x1F DUP4 ADD AND SWAP1 POP SWAP2 SWAP1 POP JUMP JUMPDEST PUSH32 0x4E487B7100000000000000000000000000000000000000000000000000000000 PUSH1 0x0 MSTORE PUSH1 0x41 PUSH1 0x4 MSTORE PUSH1 0x24 PUSH1 0x0 REVERT JUMPDEST PUSH2 0x2621 DUP3 PUSH2 0x25D8 JUMP JUMPDEST DUP2 ADD DUP2 DUP2 LT PUSH8 0xFFFFFFFFFFFFFFFF DUP3 GT OR ISZERO PUSH2 0x2640 JUMPI PUSH2 0x263F PUSH2 0x25E9 JUMP JUMPDEST JUMPDEST DUP1 PUSH1 0x40 MSTORE POP POP POP JUMP JUMPDEST PUSH1 0x0 PUSH2 0x2653 PUSH2 0x25BA JUMP JUMPDEST SWAP1 POP PUSH2 0x265F DUP3 DUP3 PUSH2 0x2618 JUMP JUMPDEST SWAP2 SWAP1 POP JUMP JUMPDEST PUSH1 0x0 PUSH8 0xFFFFFFFFFFFFFFFF DUP3 GT ISZERO PUSH2 0x267F JUMPI PUSH2 0x267E PUSH2 0x25E9 JUMP JUMPDEST JUMPDEST PUSH2 0x2688 DUP3 PUSH2 0x25D8 JUMP JUMPDEST SWAP1 POP PUSH1 0x20 DUP2 ADD SWAP1 POP SWAP2 SWAP1 POP JUMP JUMPDEST DUP3 DUP2 DUP4 CALLDATACOPY PUSH1 0x0 DUP4 DUP4 ADD MSTORE POP POP POP JUMP JUMPDEST PUSH1 0x0 PUSH2 0x26B7 PUSH2 0x26B2 DUP5 PUSH2 0x2664 JUMP JUMPDEST PUSH2 0x2649 JUMP JUMPDEST SWAP1 POP DUP3 DUP2 MSTORE PUSH1 0x20 DUP2 ADD DUP5 DUP5 DUP5 ADD GT ISZERO PUSH2 0x26D3 JUMPI PUSH2 0x26D2 PUSH2 0x25D3 JUMP JUMPDEST JUMPDEST PUSH2 0x26DE DUP5 DUP3 DUP6 PUSH2 0x2695 JUMP JUMPDEST POP SWAP4 SWAP3 POP POP POP JUMP JUMPDEST PUSH1 0x0 DUP3 PUSH1 0x1F DUP4 ADD SLT PUSH2 0x26FB JUMPI PUSH2 0x26FA PUSH2 0x25CE JUMP JUMPDEST JUMPDEST DUP2 CALLDATALOAD PUSH2 0x270B DUP5 DUP3 PUSH1 0x20 DUP7 ADD PUSH2 0x26A4 JUMP JUMPDEST SWAP2 POP POP SWAP3 SWAP2 POP POP JUMP JUMPDEST PUSH1 0x0 DUP2 SWAP1 POP SWAP2 SWAP1 POP JUMP JUMPDEST PUSH2 0x2727 DUP2 PUSH2 0x2714 JUMP JUMPDEST DUP2 EQ PUSH2 0x2732 JUMPI PUSH1 0x0 DUP1 REVERT JUMPDEST POP JUMP JUMPDEST PUSH1 0x0 DUP2 CALLDATALOAD SWAP1 POP PUSH2 0x2744 DUP2 PUSH2 0x271E JUMP JUMPDEST SWAP3 SWAP2 POP POP JUMP JUMPDEST PUSH1 0x0 DUP1 PUSH1 0x0 DUP1 PUSH1 0x0 DUP1 PUSH1 0xC0 DUP8 DUP10 SUB SLT ISZERO PUSH2 0x2767 JUMPI PUSH2 0x2766 PUSH2 0x25C4 JUMP JUMPDEST JUMPDEST PUSH1 0x0 DUP8 ADD CALLDATALOAD PUSH8 0xFFFFFFFFFFFFFFFF DUP2 GT ISZERO PUSH2 0x2785 JUMPI PUSH2 0x2784 PUSH2 0x25C9 JUMP JUMPDEST JUMPDEST PUSH2 0x2791 DUP10 DUP3 DUP11 ADD PUSH2 0x26E6 JUMP JUMPDEST SWAP7 POP POP PUSH1 0x20 DUP8 ADD CALLDATALOAD PUSH8 0xFFFFFFFFFFFFFFFF DUP2 GT ISZERO PUSH2 0x27B2 JUMPI PUSH2 0x27B1 PUSH2 0x25C9 JUMP JUMPDEST JUMPDEST PUSH2 0x27BE DUP10 DUP3 DUP11 ADD PUSH2 0x26E6 JUMP JUMPDEST SWAP6 POP POP PUSH1 0x40 PUSH2 0x27CF DUP10 DUP3 DUP11 ADD PUSH2 0x2735 JUMP JUMPDEST SWAP5 POP POP PUSH1 0x60 PUSH2 0x27E0 DUP10 DUP3 DUP11 ADD PUSH2 0x2735 JUMP JUMPDEST SWAP4 POP POP PUSH1 0x80 PUSH2 0x27F1 DUP10 DUP3 DUP11 ADD PUSH2 0x2735 JUMP JUMPDEST SWAP3 POP POP PUSH1 0xA0 PUSH2 0x2802 DUP10 DUP3 DUP11 ADD PUSH2 0x2735 JUMP JUMPDEST SWAP2 POP POP SWAP3 SWAP6 POP SWAP3 SWAP6 POP SWAP3 SWAP6 JUMP JUMPDEST PUSH1 0x0 PUSH1 0x20 DUP3 DUP5 SUB SLT ISZERO PUSH2 0x2825 JUMPI PUSH2 0x2824 PUSH2 0x25C4 JUMP JUMPDEST JUMPDEST PUSH1 0x0 DUP3 ADD CALLDATALOAD PUSH8 0xFFFFFFFFFFFFFFFF DUP2 GT ISZERO PUSH2 0x2843 JUMPI PUSH2 0x2842 PUSH2 0x25C9 JUMP JUMPDEST JUMPDEST PUSH2 0x284F DUP5 DUP3 DUP6 ADD PUSH2 0x26E6 JUMP JUMPDEST SWAP2 POP POP SWAP3 SWAP2 POP POP JUMP JUMPDEST PUSH1 0x0 DUP2 SWAP1 POP SWAP2 SWAP1 POP JUMP JUMPDEST PUSH2 0x286B DUP2 PUSH2 0x2858 JUMP JUMPDEST DUP3 MSTORE POP POP JUMP JUMPDEST PUSH1 0x0 PUSH1 0x20 DUP3 ADD SWAP1 POP PUSH2 0x2886 PUSH1 0x0 DUP4 ADD DUP5 PUSH2 0x2862 JUMP JUMPDEST SWAP3 SWAP2 POP POP JUMP JUMPDEST PUSH2 0x2895 DUP2 PUSH2 0x2714 JUMP JUMPDEST DUP3 MSTORE POP POP JUMP JUMPDEST PUSH1 0x0 PUSH1 0x20 DUP3 ADD SWAP1 POP PUSH2 0x28B0 PUSH1 0x0 DUP4 ADD DUP5 PUSH2 0x288C JUMP JUMPDEST SWAP3 SWAP2 POP POP JUMP JUMPDEST PUSH1 0x0 DUP1 PUSH1 0x40 DUP4 DUP6 SUB SLT ISZERO PUSH2 0x28CD JUMPI PUSH2 0x28CC PUSH2 0x25C4 JUMP JUMPDEST JUMPDEST PUSH1 0x0 PUSH2 0x28DB DUP6 DUP3 DUP7 ADD PUSH2 0x2735 JUMP JUMPDEST SWAP3 POP POP PUSH1 0x20 PUSH2 0x28EC DUP6 DUP3 DUP7 ADD PUSH2 0x2735 JUMP JUMPDEST SWAP2 POP POP SWAP3 POP SWAP3 SWAP1 POP JUMP JUMPDEST PUSH1 0x0 DUP2 MLOAD SWAP1 POP SWAP2 SWAP1 POP JUMP JUMPDEST PUSH1 0x0 DUP3 DUP3 MSTORE PUSH1 0x20 DUP3 ADD SWAP1 POP SWAP3 SWAP2 POP POP JUMP JUMPDEST PUSH1 0x0 DUP2 SWAP1 POP PUSH1 0x20 DUP3 ADD SWAP1 POP SWAP2 SWAP1 POP JUMP JUMPDEST PUSH1 0x0 DUP2 MLOAD SWAP1 POP SWAP2 SWAP1 POP JUMP JUMPDEST PUSH1 0x0 DUP3 DUP3 MSTORE PUSH1 0x20 DUP3 ADD SWAP1 POP SWAP3 SWAP2 POP POP JUMP JUMPDEST PUSH1 0x0 JUMPDEST DUP4 DUP2 LT ISZERO PUSH2 0x295C JUMPI DUP1 DUP3 ADD MLOAD DUP2 DUP5 ADD MSTORE PUSH1 0x20 DUP2 ADD SWAP1 POP PUSH2 0x2941 JUMP JUMPDEST PUSH1 0x0 DUP5 DUP5 ADD MSTORE POP POP POP POP JUMP JUMPDEST PUSH1 0x0 PUSH2 0x2973 DUP3 PUSH2 0x2922 JUMP JUMPDEST PUSH2 0x297D DUP2 DUP6 PUSH2 0x292D JUMP JUMPDEST SWAP4 POP PUSH2 0x298D DUP2 DUP6 PUSH1 0x20 DUP7 ADD PUSH2 0x293E JUMP JUMPDEST PUSH2 0x2996 DUP2 PUSH2 0x25D8 JUMP JUMPDEST DUP5 ADD SWAP2 POP POP SWAP3 SWAP2 POP POP JUMP JUMPDEST PUSH2 0x29AA DUP2 PUSH2 0x2714 JUMP JUMPDEST DUP3 MSTORE POP POP JUMP JUMPDEST PUSH1 0x0 PUSH1 0xE0 DUP4 ADD PUSH1 0x0 DUP4 ADD MLOAD DUP5 DUP3 SUB PUSH1 0x0 DUP7 ADD MSTORE PUSH2 0x29CD DUP3 DUP3 PUSH2 0x2968 JUMP JUMPDEST SWAP2 POP POP PUSH1 0x20 DUP4 ADD MLOAD DUP5 DUP3 SUB PUSH1 0x20 DUP7 ADD MSTORE PUSH2 0x29E7 DUP3 DUP3 PUSH2 0x2968 JUMP JUMPDEST SWAP2 POP POP PUSH1 0x40 DUP4 ADD MLOAD PUSH2 0x29FC PUSH1 0x40 DUP7 ADD DUP3 PUSH2 0x29A1 JUMP JUMPDEST POP PUSH1 0x60 DUP4 ADD MLOAD PUSH2 0x2A0F PUSH1 0x60 DUP7 ADD DUP3 PUSH2 0x29A1 JUMP JUMPDEST POP PUSH1 0x80 DUP4 ADD MLOAD PUSH2 0x2A22 PUSH1 0x80 DUP7 ADD DUP3 PUSH2 0x29A1 JUMP JUMPDEST POP PUSH1 0xA0 DUP4 ADD MLOAD PUSH2 0x2A35 PUSH1 0xA0 DUP7 ADD DUP3 PUSH2 0x29A1 JUMP JUMPDEST POP PUSH1 0xC0 DUP4 ADD MLOAD PUSH2 0x2A48 PUSH1 0xC0 DUP7 ADD DUP3 PUSH2 0x29A1 JUMP JUMPDEST POP DUP1 SWAP2 POP POP SWAP3 SWAP2 POP POP JUMP JUMPDEST PUSH1 0x0 PUSH2 0x2A5F DUP4 DUP4 PUSH2 0x29B0 JUMP JUMPDEST SWAP1 POP SWAP3 SWAP2 POP POP JUMP JUMPDEST PUSH1 0x0 PUSH1 0x20 DUP3 ADD SWAP1 POP SWAP2 SWAP1 POP JUMP JUMPDEST PUSH1 0x0 PUSH2 0x2A7F DUP3 PUSH2 0x28F6 JUMP JUMPDEST PUSH2 0x2A89 DUP2 DUP6 PUSH2 0x2901 JUMP JUMPDEST SWAP4 POP DUP4 PUSH1 0x20 DUP3 MUL DUP6 ADD PUSH2 0x2A9B DUP6 PUSH2 0x2912 JUMP JUMPDEST DUP1 PUSH1 0x0 JUMPDEST DUP6 DUP2 LT ISZERO PUSH2 0x2AD7 JUMPI DUP5 DUP5 SUB DUP10 MSTORE DUP2 MLOAD PUSH2 0x2AB8 DUP6 DUP3 PUSH2 0x2A53 JUMP JUMPDEST SWAP5 POP PUSH2 0x2AC3 DUP4 PUSH2 0x2A67 JUMP JUMPDEST SWAP3 POP PUSH1 0x20 DUP11 ADD SWAP10 POP POP PUSH1 0x1 DUP2 ADD SWAP1 POP PUSH2 0x2A9F JUMP JUMPDEST POP DUP3 SWAP8 POP DUP8 SWAP6 POP POP POP POP POP POP SWAP3 SWAP2 POP POP JUMP JUMPDEST PUSH1 0x0 PUSH1 0x20 DUP3 ADD SWAP1 POP DUP2 DUP2 SUB PUSH1 0x0 DUP4 ADD MSTORE PUSH2 0x2B03 DUP2 DUP5 PUSH2 0x2A74 JUMP JUMPDEST SWAP1 POP SWAP3 SWAP2 POP POP JUMP JUMPDEST PUSH1 0x0 DUP1 PUSH1 0x0 DUP1 PUSH1 0x80 DUP6 DUP8 SUB SLT ISZERO PUSH2 0x2B25 JUMPI PUSH2 0x2B24 PUSH2 0x25C4 JUMP JUMPDEST JUMPDEST PUSH1 0x0 DUP6 ADD CALLDATALOAD PUSH8 0xFFFFFFFFFFFFFFFF DUP2 GT ISZERO PUSH2 0x2B43 JUMPI PUSH2 0x2B42 PUSH2 0x25C9 JUMP JUMPDEST JUMPDEST PUSH2 0x2B4F DUP8 DUP3 DUP9 ADD PUSH2 0x26E6 JUMP JUMPDEST SWAP5 POP POP PUSH1 0x20 PUSH2 0x2B60 DUP8 DUP3 DUP9 ADD PUSH2 0x2735 JUMP JUMPDEST SWAP4 POP POP PUSH1 0x40 PUSH2 0x2B71 DUP8 DUP3 DUP9 ADD PUSH2 0x2735 JUMP JUMPDEST SWAP3 POP POP PUSH1 0x60 PUSH2 0x2B82 DUP8 DUP3 DUP9 ADD PUSH2 0x2735 JUMP JUMPDEST SWAP2 POP POP SWAP3 SWAP6 SWAP2 SWAP5 POP SWAP3 POP JUMP JUMPDEST PUSH1 0x0 PUSH1 0xE0 DUP4 ADD PUSH1 0x0 DUP4 ADD MLOAD DUP5 DUP3 SUB PUSH1 0x0 DUP7 ADD MSTORE PUSH2 0x2BAB DUP3 DUP3 PUSH2 0x2968 JUMP JUMPDEST SWAP2 POP POP PUSH1 0x20 DUP4 ADD MLOAD DUP5 DUP3 SUB PUSH1 0x20 DUP7 ADD MSTORE PUSH2 0x2BC5 DUP3 DUP3 PUSH2 0x2968 JUMP JUMPDEST SWAP2 POP POP PUSH1 0x40 DUP4 ADD MLOAD PUSH2 0x2BDA PUSH1 0x40 DUP7 ADD DUP3 PUSH2 0x29A1 JUMP JUMPDEST POP PUSH1 0x60 DUP4 ADD MLOAD PUSH2 0x2BED PUSH1 0x60 DUP7 ADD DUP3 PUSH2 0x29A1 JUMP JUMPDEST POP PUSH1 0x80 DUP4 ADD MLOAD PUSH2 0x2C00 PUSH1 0x80 DUP7 ADD DUP3 PUSH2 0x29A1 JUMP JUMPDEST POP PUSH1 0xA0 DUP4 ADD MLOAD PUSH2 0x2C13 PUSH1 0xA0 DUP7 ADD DUP3 PUSH2 0x29A1 JUMP JUMPDEST POP PUSH1 0xC0 DUP4 ADD MLOAD PUSH2 0x2C26 PUSH1 0xC0 DUP7 ADD DUP3 PUSH2 0x29A1 JUMP JUMPDEST POP DUP1 SWAP2 POP POP SWAP3 SWAP2 POP POP JUMP JUMPDEST PUSH1 0x0 PUSH1 0x20 DUP3 ADD SWAP1 POP DUP2 DUP2 SUB PUSH1 0x0 DUP4 ADD MSTORE PUSH2 0x2C4B DUP2 DUP5 PUSH2 0x2B8E JUMP JUMPDEST SWAP1 POP SWAP3 SWAP2 POP POP JUMP JUMPDEST PUSH1 0x0 PUSH1 0x20 DUP3 DUP5 SUB SLT ISZERO PUSH2 0x2C69 JUMPI PUSH2 0x2C68 PUSH2 0x25C4 JUMP JUMPDEST JUMPDEST PUSH1 0x0 PUSH2 0x2C77 DUP5 DUP3 DUP6 ADD PUSH2 0x2735 JUMP JUMPDEST SWAP2 POP POP SWAP3 SWAP2 POP POP JUMP JUMPDEST PUSH1 0x0 DUP3 DUP3 MSTORE PUSH1 0x20 DUP3 ADD SWAP1 POP SWAP3 SWAP2 POP POP JUMP JUMPDEST PUSH1 0x0 PUSH2 0x2C9C DUP3 PUSH2 0x2922 JUMP JUMPDEST PUSH2 0x2CA6 DUP2 DUP6 PUSH2 0x2C80 JUMP JUMPDEST SWAP4 POP PUSH2 0x2CB6 DUP2 DUP6 PUSH1 0x20 DUP7 ADD PUSH2 0x293E JUMP JUMPDEST PUSH2 0x2CBF DUP2 PUSH2 0x25D8 JUMP JUMPDEST DUP5 ADD SWAP2 POP POP SWAP3 SWAP2 POP POP JUMP JUMPDEST PUSH1 0x0 PUSH1 0xE0 DUP3 ADD SWAP1 POP DUP2 DUP2 SUB PUSH1 0x0 DUP4 ADD MSTORE PUSH2 0x2CE4 DUP2 DUP11 PUSH2 0x2C91 JUMP JUMPDEST SWAP1 POP DUP2 DUP2 SUB PUSH1 0x20 DUP4 ADD MSTORE PUSH2 0x2CF8 DUP2 DUP10 PUSH2 0x2C91 JUMP JUMPDEST SWAP1 POP PUSH2 0x2D07 PUSH1 0x40 DUP4 ADD DUP9 PUSH2 0x288C JUMP JUMPDEST PUSH2 0x2D14 PUSH1 0x60 DUP4 ADD DUP8 PUSH2 0x288C JUMP JUMPDEST PUSH2 0x2D21 PUSH1 0x80 DUP4 ADD DUP7 PUSH2 0x288C JUMP JUMPDEST PUSH2 0x2D2E PUSH1 0xA0 DUP4 ADD DUP6 PUSH2 0x288C JUMP JUMPDEST PUSH2 0x2D3B PUSH1 0xC0 DUP4 ADD DUP5 PUSH2 0x288C JUMP JUMPDEST SWAP9 SWAP8 POP POP POP POP POP POP POP POP JUMP JUMPDEST PUSH1 0x0 DUP2 MLOAD SWAP1 POP SWAP2 SWAP1 POP JUMP JUMPDEST PUSH1 0x0 DUP3 DUP3 MSTORE PUSH1 0x20 DUP3 ADD SWAP1 POP SWAP3 SWAP2 POP POP JUMP JUMPDEST PUSH1 0x0 DUP2 SWAP1 POP PUSH1 0x20 DUP3 ADD SWAP1 POP SWAP2 SWAP1 POP JUMP JUMPDEST PUSH1 0x0 PUSH2 0x2D7F DUP4 DUP4 PUSH2 0x2968 JUMP JUMPDEST SWAP1 POP SWAP3 SWAP2 POP POP JUMP JUMPDEST PUSH1 0x0 PUSH1 0x20 DUP3 ADD SWAP1 POP SWAP2 SWAP1 POP JUMP JUMPDEST PUSH1 0x0 PUSH2 0x2D9F DUP3 PUSH2 0x2D47 JUMP JUMPDEST PUSH2 0x2DA9 DUP2 DUP6 PUSH2 0x2D52 JUMP JUMPDEST SWAP4 POP DUP4 PUSH1 0x20 DUP3 MUL DUP6 ADD PUSH2 0x2DBB DUP6 PUSH2 0x2D63 JUMP JUMPDEST DUP1 PUSH1 0x0 JUMPDEST DUP6 DUP2 LT ISZERO PUSH2 0x2DF7 JUMPI DUP5 DUP5 SUB DUP10 MSTORE DUP2 MLOAD PUSH2 0x2DD8 DUP6 DUP3 PUSH2 0x2D73 JUMP JUMPDEST SWAP5 POP PUSH2 0x2DE3 DUP4 PUSH2 0x2D87 JUMP JUMPDEST SWAP3 POP PUSH1 0x20 DUP11 ADD SWAP10 POP POP PUSH1 0x1 DUP2 ADD SWAP1 POP PUSH2 0x2DBF JUMP JUMPDEST POP DUP3 SWAP8 POP DUP8 SWAP6 POP POP POP POP POP POP SWAP3 SWAP2 POP POP JUMP JUMPDEST PUSH1 0x0 PUSH1 0xE SWAP1 POP SWAP2 SWAP1 POP JUMP JUMPDEST PUSH1 0x0 DUP2 SWAP1 POP SWAP3 SWAP2 POP POP JUMP JUMPDEST PUSH1 0x0 DUP2 SWAP1 POP SWAP2 SWAP1 POP JUMP JUMPDEST PUSH1 0x0 PUSH1 0x20 DUP3 ADD SWAP1 POP SWAP2 SWAP1 POP JUMP JUMPDEST PUSH1 0x0 PUSH2 0x2E41 DUP3 PUSH2 0x2E09 JUMP JUMPDEST PUSH2 0x2E4B DUP2 DUP6 PUSH2 0x2E14 JUMP JUMPDEST SWAP4 POP DUP4 PUSH1 0x20 DUP3 MUL DUP6 ADD PUSH2 0x2E5D DUP6 PUSH2 0x2E1F JUMP JUMPDEST DUP1 PUSH1 0x0 JUMPDEST DUP6 DUP2 LT ISZERO PUSH2 0x2E99 JUMPI DUP5 DUP5 SUB DUP10 MSTORE DUP2 MLOAD PUSH2 0x2E7A DUP6 DUP3 PUSH2 0x2D73 JUMP JUMPDEST SWAP5 POP PUSH2 0x2E85 DUP4 PUSH2 0x2E29 JUMP JUMPDEST SWAP3 POP PUSH1 0x20 DUP11 ADD SWAP10 POP POP PUSH1 0x1 DUP2 ADD SWAP1 POP PUSH2 0x2E61 JUMP JUMPDEST POP DUP3 SWAP8 POP DUP8 SWAP6 POP POP POP POP POP POP SWAP3 SWAP2 POP POP JUMP JUMPDEST PUSH1 0x0 DUP2 MLOAD SWAP1 POP SWAP2 SWAP1 POP JUMP JUMPDEST PUSH1 0x0 DUP3 DUP3 MSTORE PUSH1 0x20 DUP3 ADD SWAP1 POP SWAP3 SWAP2 POP POP JUMP JUMPDEST PUSH1 0x0 DUP2 SWAP1 POP PUSH1 0x20 DUP3 ADD SWAP1 POP SWAP2 SWAP1 POP JUMP JUMPDEST PUSH1 0x0 DUP2 MLOAD SWAP1 POP SWAP2 SWAP1 POP JUMP JUMPDEST PUSH1 0x0 DUP3 DUP3 MSTORE PUSH1 0x20 DUP3 ADD SWAP1 POP SWAP3 SWAP2 POP POP JUMP JUMPDEST PUSH1 0x0 DUP2 SWAP1 POP PUSH1 0x20 DUP3 ADD SWAP1 POP SWAP2 SWAP1 POP JUMP JUMPDEST PUSH2 0x2F0C DUP2 PUSH2 0x2858 JUMP JUMPDEST DUP3 MSTORE POP POP JUMP JUMPDEST PUSH1 0x0 PUSH2 0x2F1E DUP4 DUP4 PUSH2 0x2F03 JUMP JUMPDEST PUSH1 0x20 DUP4 ADD SWAP1 POP SWAP3 SWAP2 POP POP JUMP JUMPDEST PUSH1 0x0 PUSH1 0x20 DUP3 ADD SWAP1 POP SWAP2 SWAP1 POP JUMP JUMPDEST PUSH1 0x0 PUSH2 0x2F42 DUP3 PUSH2 0x2ED7 JUMP JUMPDEST PUSH2 0x2F4C DUP2 DUP6 PUSH2 0x2EE2 JUMP JUMPDEST SWAP4 POP PUSH2 0x2F57 DUP4 PUSH2 0x2EF3 JUMP JUMPDEST DUP1 PUSH1 0x0 JUMPDEST DUP4 DUP2 LT ISZERO PUSH2 0x2F88 JUMPI DUP2 MLOAD PUSH2 0x2F6F DUP9 DUP3 PUSH2 0x2F12 JUMP JUMPDEST SWAP8 POP PUSH2 0x2F7A DUP4 PUSH2 0x2F2A JUMP JUMPDEST SWAP3 POP POP PUSH1 0x1 DUP2 ADD SWAP1 POP PUSH2 0x2F5B JUMP JUMPDEST POP DUP6 SWAP4 POP POP POP POP SWAP3 SWAP2 POP POP JUMP JUMPDEST PUSH1 0x0 PUSH2 0x2FA1 DUP4 DUP4 PUSH2 0x2F37 JUMP JUMPDEST SWAP1 POP SWAP3 SWAP2 POP POP JUMP JUMPDEST PUSH1 0x0 PUSH1 0x20 DUP3 ADD SWAP1 POP SWAP2 SWAP1 POP JUMP JUMPDEST PUSH1 0x0 PUSH2 0x2FC1 DUP3 PUSH2 0x2EAB JUMP JUMPDEST PUSH2 0x2FCB DUP2 DUP6 PUSH2 0x2EB6 JUMP JUMPDEST SWAP4 POP DUP4 PUSH1 0x20 DUP3 MUL DUP6 ADD PUSH2 0x2FDD DUP6 PUSH2 0x2EC7 JUMP JUMPDEST DUP1 PUSH1 0x0 JUMPDEST DUP6 DUP2 LT ISZERO PUSH2 0x3019 JUMPI DUP5 DUP5 SUB DUP10 MSTORE DUP2 MLOAD PUSH2 0x2FFA DUP6 DUP3 PUSH2 0x2F95 JUMP JUMPDEST SWAP5 POP PUSH2 0x3005 DUP4 PUSH2 0x2FA9 JUMP JUMPDEST SWAP3 POP PUSH1 0x20 DUP11 ADD SWAP10 POP POP PUSH1 0x1 DUP2 ADD SWAP1 POP PUSH2 0x2FE1 JUMP JUMPDEST POP DUP3 SWAP8 POP DUP8 SWAP6 POP POP POP POP POP POP SWAP3 SWAP2 POP POP JUMP JUMPDEST PUSH1 0x0 PUSH1 0x4 SWAP1 POP SWAP2 SWAP1 POP JUMP JUMPDEST PUSH1 0x0 DUP2 SWAP1 POP SWAP3 SWAP2 POP POP JUMP JUMPDEST PUSH1 0x0 DUP2 SWAP1 POP SWAP2 SWAP1 POP JUMP JUMPDEST PUSH1 0x0 PUSH1 0x20 DUP3 ADD SWAP1 POP SWAP2 SWAP1 POP JUMP JUMPDEST PUSH1 0x0 PUSH2 0x3063 DUP3 PUSH2 0x302B JUMP JUMPDEST PUSH2 0x306D DUP2 DUP6 PUSH2 0x3036 JUMP JUMPDEST SWAP4 POP DUP4 PUSH1 0x20 DUP3 MUL DUP6 ADD PUSH2 0x307F DUP6 PUSH2 0x3041 JUMP JUMPDEST DUP1 PUSH1 0x0 JUMPDEST DUP6 DUP2 LT ISZERO PUSH2 0x30BB JUMPI DUP5 DUP5 SUB DUP10 MSTORE DUP2 MLOAD PUSH2 0x309C DUP6 DUP3 PUSH2 0x2D73 JUMP JUMPDEST SWAP5 POP PUSH2 0x30A7 DUP4 PUSH2 0x304B JUMP JUMPDEST SWAP3 POP PUSH1 0x20 DUP11 ADD SWAP10 POP POP PUSH1 0x1 DUP2 ADD SWAP1 POP PUSH2 0x3083 JUMP JUMPDEST POP DUP3 SWAP8 POP DUP8 SWAP6 POP POP POP POP POP POP SWAP3 SWAP2 POP POP JUMP JUMPDEST PUSH1 0x0 PUSH1 0x8 SWAP1 POP SWAP2 SWAP1 POP JUMP JUMPDEST PUSH1 0x0 DUP2 SWAP1 POP SWAP3 SWAP2 POP POP JUMP JUMPDEST PUSH1 0x0 DUP2 SWAP1 POP SWAP2 SWAP1 POP JUMP JUMPDEST PUSH1 0x0 PUSH1 0x20 DUP3 ADD SWAP1 POP SWAP2 SWAP1 POP JUMP JUMPDEST PUSH1 0x0 PUSH2 0x3105 DUP3 PUSH2 0x30CD JUMP JUMPDEST PUSH2 0x310F DUP2 DUP6 PUSH2 0x30D8 JUMP JUMPDEST SWAP4 POP DUP4 PUSH1 0x20 DUP3 MUL DUP6 ADD PUSH2 0x3121 DUP6 PUSH2 0x30E3 JUMP JUMPDEST DUP1 PUSH1 0x0 JUMPDEST DUP6 DUP2 LT ISZERO PUSH2 0x315D JUMPI DUP5 DUP5 SUB DUP10 MSTORE DUP2 MLOAD PUSH2 0x313E DUP6 DUP3 PUSH2 0x2D73 JUMP JUMPDEST SWAP5 POP PUSH2 0x3149 DUP4 PUSH2 0x30ED JUMP JUMPDEST SWAP3 POP PUSH1 0x20 DUP11 ADD SWAP10 POP POP PUSH1 0x1 DUP2 ADD SWAP1 POP PUSH2 0x3125 JUMP JUMPDEST POP DUP3 SWAP8 POP DUP8 SWAP6 POP POP POP POP POP POP SWAP3 SWAP2 POP POP JUMP JUMPDEST PUSH1 0x0 PUSH1 0xE0 DUP3 ADD SWAP1 POP DUP2 DUP2 SUB PUSH1 0x0 DUP4 ADD MSTORE PUSH2 0x3189 DUP2 DUP11 PUSH2 0x2D94 JUMP JUMPDEST SWAP1 POP DUP2 DUP2 SUB PUSH1 0x20 DUP4 ADD MSTORE PUSH2 0x319D DUP2 DUP10 PUSH2 0x2E36 JUMP JUMPDEST SWAP1 POP DUP2 DUP2 SUB PUSH1 0x40 DUP4 ADD MSTORE PUSH2 0x31B1 DUP2 DUP9 PUSH2 0x2FB6 JUMP JUMPDEST SWAP1 POP DUP2 DUP2 SUB PUSH1 0x60 DUP4 ADD MSTORE PUSH2 0x31C5 DUP2 DUP8 PUSH2 0x3058 JUMP JUMPDEST SWAP1 POP DUP2 DUP2 SUB PUSH1 0x80 DUP4 ADD MSTORE PUSH2 0x31D9 DUP2 DUP7 PUSH2 0x2FB6 JUMP JUMPDEST SWAP1 POP DUP2 DUP2 SUB PUSH1 0xA0 DUP4 ADD MSTORE PUSH2 0x31ED DUP2 DUP6 PUSH2 0x30FA JUMP JUMPDEST SWAP1 POP DUP2 DUP2 SUB PUSH1 0xC0 DUP4 ADD MSTORE PUSH2 0x3201 DUP2 DUP5 PUSH2 0x2FB6 JUMP JUMPDEST SWAP1 POP SWAP9 SWAP8 POP POP POP POP POP POP POP POP JUMP JUMPDEST PUSH32 0x4E487B7100000000000000000000000000000000000000000000000000000000 PUSH1 0x0 MSTORE PUSH1 0x32 PUSH1 0x4 MSTORE PUSH1 0x24 PUSH1 0x0 REVERT JUMPDEST PUSH32 0x4E487B7100000000000000000000000000000000000000000000000000000000 PUSH1 0x0 MSTORE PUSH1 0x22 PUSH1 0x4 MSTORE PUSH1 0x24 PUSH1 0x0 REVERT JUMPDEST PUSH1 0x0 PUSH1 0x2 DUP3 DIV SWAP1 POP PUSH1 0x1 DUP3 AND DUP1 PUSH2 0x3285 JUMPI PUSH1 0x7F DUP3 AND SWAP2 POP JUMPDEST PUSH1 0x20 DUP3 LT DUP2 SUB PUSH2 0x3298 JUMPI PUSH2 0x3297 PUSH2 0x323E JUMP JUMPDEST JUMPDEST POP SWAP2 SWAP1 POP JUMP JUMPDEST PUSH1 0x0 DUP2 SWAP1 POP SWAP3 SWAP2 POP POP JUMP JUMPDEST PUSH1 0x0 DUP2 SWAP1 POP DUP2 PUSH1 0x0 MSTORE PUSH1 0x20 PUSH1 0x0 KECCAK256 SWAP1 POP SWAP2 SWAP1 POP JUMP JUMPDEST PUSH1 0x0 DUP2 SLOAD PUSH2 0x32CB DUP2 PUSH2 0x326D JUMP JUMPDEST PUSH2 0x32D5 DUP2 DUP7 PUSH2 0x329E JUMP JUMPDEST SWAP5 POP PUSH1 0x1 DUP3 AND PUSH1 0x0 DUP2 EQ PUSH2 0x32F0 JUMPI PUSH1 0x1 DUP2 EQ PUSH2 0x3305 JUMPI PUSH2 0x3338 JUMP JUMPDEST PUSH1 0xFF NOT DUP4 AND DUP7 MSTORE DUP2 ISZERO ISZERO DUP3 MUL DUP7 ADD SWAP4 POP PUSH2 0x3338 JUMP JUMPDEST PUSH2 0x330E DUP6 PUSH2 0x32A9 JUMP JUMPDEST PUSH1 0x0 JUMPDEST DUP4 DUP2 LT ISZERO PUSH2 0x3330 JUMPI DUP2 SLOAD DUP2 DUP10 ADD MSTORE PUSH1 0x1 DUP3 ADD SWAP2 POP PUSH1 0x20 DUP2 ADD SWAP1 POP PUSH2 0x3311 JUMP JUMPDEST DUP4 DUP9 ADD SWAP6 POP POP POP JUMPDEST POP POP POP SWAP3 SWAP2 POP POP JUMP JUMPDEST PUSH1 0x0 PUSH2 0x334D DUP3 DUP5 PUSH2 0x32BE JUMP JUMPDEST SWAP2 POP DUP2 SWAP1 POP SWAP3 SWAP2 POP POP JUMP JUMPDEST PUSH1 0x0 PUSH2 0x3363 DUP3 PUSH2 0x2922 JUMP JUMPDEST PUSH2 0x336D DUP2 DUP6 PUSH2 0x329E JUMP JUMPDEST SWAP4 POP PUSH2 0x337D DUP2 DUP6 PUSH1 0x20 DUP7 ADD PUSH2 0x293E JUMP JUMPDEST DUP1 DUP5 ADD SWAP2 POP POP SWAP3 SWAP2 POP POP JUMP JUMPDEST PUSH1 0x0 PUSH2 0x3395 DUP3 DUP5 PUSH2 0x3358 JUMP JUMPDEST SWAP2 POP DUP2 SWAP1 POP SWAP3 SWAP2 POP POP JUMP JUMPDEST PUSH32 0x494420616C7265616479206578697374732E0000000000000000000000000000 PUSH1 0x0 DUP3 ADD MSTORE POP JUMP JUMPDEST PUSH1 0x0 PUSH2 0x33D6 PUSH1 0x12 DUP4 PUSH2 0x2C80 JUMP JUMPDEST SWAP2 POP PUSH2 0x33E1 DUP3 PUSH2 0x33A0 JUMP JUMPDEST PUSH1 0x20 DUP3 ADD SWAP1 POP SWAP2 SWAP1 POP JUMP JUMPDEST PUSH1 0x0 PUSH1 0x20 DUP3 ADD SWAP1 POP DUP2 DUP2 SUB PUSH1 0x0 DUP4 ADD MSTORE PUSH2 0x3405 DUP2 PUSH2 0x33C9 JUMP JUMPDEST SWAP1 POP SWAP2 SWAP1 POP JUMP JUMPDEST PUSH32 0x4E487B7100000000000000000000000000000000000000000000000000000000 PUSH1 0x0 MSTORE PUSH1 0x11 PUSH1 0x4 MSTORE PUSH1 0x24 PUSH1 0x0 REVERT JUMPDEST PUSH1 0x0 PUSH2 0x3446 DUP3 PUSH2 0x2714 JUMP JUMPDEST SWAP2 POP PUSH32 0xFFFFFFFFFFFFFFFFFFFFFFFFFFFFFFFFFFFFFFFFFFFFFFFFFFFFFFFFFFFFFFFF DUP3 SUB PUSH2 0x3478 JUMPI PUSH2 0x3477 PUSH2 0x340C JUMP JUMPDEST JUMPDEST PUSH1 0x1 DUP3 ADD SWAP1 POP SWAP2 SWAP1 POP JUMP JUMPDEST PUSH1 0x0 PUSH1 0x20 PUSH1 0x1F DUP4 ADD DIV SWAP1 POP SWAP2 SWAP1 POP JUMP JUMPDEST PUSH1 0x0 DUP3 DUP3 SHL SWAP1 POP SWAP3 SWAP2 POP POP JUMP JUMPDEST PUSH1 0x0 PUSH1 0x8 DUP4 MUL PUSH2 0x34D0 PUSH32 0xFFFFFFFFFFFFFFFFFFFFFFFFFFFFFFFFFFFFFFFFFFFFFFFFFFFFFFFFFFFFFFFF DUP3 PUSH2 0x3493 JUMP JUMPDEST PUSH2 0x34DA DUP7 DUP4 PUSH2 0x3493 JUMP JUMPDEST SWAP6 POP DUP1 NOT DUP5 AND SWAP4 POP DUP1 DUP7 AND DUP5 OR SWAP3 POP POP POP SWAP4 SWAP3 POP POP POP JUMP JUMPDEST PUSH1 0x0 DUP2 SWAP1 POP SWAP2 SWAP1 POP JUMP JUMPDEST PUSH1 0x0 PUSH2 0x3517 PUSH2 0x3512 PUSH2 0x350D DUP5 PUSH2 0x2714 JUMP JUMPDEST PUSH2 0x34F2 JUMP JUMPDEST PUSH2 0x2714 JUMP JUMPDEST SWAP1 POP SWAP2 SWAP1 POP JUMP JUMPDEST PUSH1 0x0 DUP2 SWAP1 POP SWAP2 SWAP1 POP JUMP JUMPDEST PUSH2 0x3531 DUP4 PUSH2 0x34FC JUMP JUMPDEST PUSH2 0x3545 PUSH2 0x353D DUP3 PUSH2 0x351E JUMP JUMPDEST DUP5 DUP5 SLOAD PUSH2 0x34A0 JUMP JUMPDEST DUP3 SSTORE POP POP POP POP JUMP JUMPDEST PUSH1 0x0 SWAP1 JUMP JUMPDEST PUSH2 0x355A PUSH2 0x354D JUMP JUMPDEST PUSH2 0x3565 DUP2 DUP5 DUP5 PUSH2 0x3528 JUMP JUMPDEST POP POP POP JUMP JUMPDEST JUMPDEST DUP2 DUP2 LT ISZERO PUSH2 0x3589 JUMPI PUSH2 0x357E PUSH1 0x0 DUP3 PUSH2 0x3552 JUMP JUMPDEST PUSH1 0x1 DUP2 ADD SWAP1 POP PUSH2 0x356B JUMP JUMPDEST POP POP JUMP JUMPDEST PUSH1 0x1F DUP3 GT ISZERO PUSH2 0x35CE JUMPI PUSH2 0x359F DUP2 PUSH2 0x32A9 JUMP JUMPDEST PUSH2 0x35A8 DUP5 PUSH2 0x3483 JUMP JUMPDEST DUP2 ADD PUSH1 0x20 DUP6 LT ISZERO PUSH2 0x35B7 JUMPI DUP2 SWAP1 POP JUMPDEST PUSH2 0x35CB PUSH2 0x35C3 DUP6 PUSH2 0x3483 JUMP JUMPDEST DUP4 ADD DUP3 PUSH2 0x356A JUMP JUMPDEST POP POP JUMPDEST POP POP POP JUMP JUMPDEST PUSH1 0x0 DUP3 DUP3 SHR SWAP1 POP SWAP3 SWAP2 POP POP JUMP JUMPDEST PUSH1 0x0 PUSH2 0x35F1 PUSH1 0x0 NOT DUP5 PUSH1 0x8 MUL PUSH2 0x35D3 JUMP JUMPDEST NOT DUP1 DUP4 AND SWAP2 POP POP SWAP3 SWAP2 POP POP JUMP JUMPDEST PUSH1 0x0 PUSH2 0x360A DUP4 DUP4 PUSH2 0x35E0 JUMP JUMPDEST SWAP2 POP DUP3 PUSH1 0x2 MUL DUP3 OR SWAP1 POP SWAP3 SWAP2 POP POP JUMP JUMPDEST PUSH2 0x3623 DUP3 PUSH2 0x2922 JUMP JUMPDEST PUSH8 0xFFFFFFFFFFFFFFFF DUP2 GT ISZERO PUSH2 0x363C JUMPI PUSH2 0x363B PUSH2 0x25E9 JUMP JUMPDEST JUMPDEST PUSH2 0x3646 DUP3 SLOAD PUSH2 0x326D JUMP JUMPDEST PUSH2 0x3651 DUP3 DUP3 DUP6 PUSH2 0x358D JUMP JUMPDEST PUSH1 0x0 PUSH1 0x20 SWAP1 POP PUSH1 0x1F DUP4 GT PUSH1 0x1 DUP2 EQ PUSH2 0x3684 JUMPI PUSH1 0x0 DUP5 ISZERO PUSH2 0x3672 JUMPI DUP3 DUP8 ADD MLOAD SWAP1 POP JUMPDEST PUSH2 0x367C DUP6 DUP3 PUSH2 0x35FE JUMP JUMPDEST DUP7 SSTORE POP PUSH2 0x36E4 JUMP JUMPDEST PUSH1 0x1F NOT DUP5 AND PUSH2 0x3692 DUP7 PUSH2 0x32A9 JUMP JUMPDEST PUSH1 0x0 JUMPDEST DUP3 DUP2 LT ISZERO PUSH2 0x36BA JUMPI DUP5 DUP10 ADD MLOAD DUP3 SSTORE PUSH1 0x1 DUP3 ADD SWAP2 POP PUSH1 0x20 DUP6 ADD SWAP5 POP PUSH1 0x20 DUP2 ADD SWAP1 POP PUSH2 0x3695 JUMP JUMPDEST DUP7 DUP4 LT ISZERO PUSH2 0x36D7 JUMPI DUP5 DUP10 ADD MLOAD PUSH2 0x36D3 PUSH1 0x1F DUP10 AND DUP3 PUSH2 0x35E0 JUMP JUMPDEST DUP4 SSTORE POP JUMPDEST PUSH1 0x1 PUSH1 0x2 DUP9 MUL ADD DUP9 SSTORE POP POP POP JUMPDEST POP POP POP POP POP POP JUMP JUMPDEST PUSH1 0x0 PUSH2 0x36F7 DUP3 PUSH2 0x2714 JUMP JUMPDEST SWAP2 POP PUSH2 0x3702 DUP4 PUSH2 0x2714 JUMP JUMPDEST SWAP3 POP DUP3 DUP3 SUB SWAP1 POP DUP2 DUP2 GT ISZERO PUSH2 0x371A JUMPI PUSH2 0x3719 PUSH2 0x340C JUMP JUMPDEST JUMPDEST SWAP3 SWAP2 POP POP JUMP JUMPDEST PUSH1 0x0 PUSH2 0x372B DUP3 PUSH2 0x2714 JUMP JUMPDEST SWAP2 POP PUSH2 0x3736 DUP4 PUSH2 0x2714 JUMP JUMPDEST SWAP3 POP DUP3 DUP3 ADD SWAP1 POP DUP1 DUP3 GT ISZERO PUSH2 0x374E JUMPI PUSH2 0x374D PUSH2 0x340C JUMP JUMPDEST JUMPDEST SWAP3 SWAP2 POP POP JUMP JUMPDEST PUSH1 0x0 PUSH2 0x375F DUP3 PUSH2 0x2714 JUMP JUMPDEST SWAP2 POP PUSH2 0x376A DUP4 PUSH2 0x2714 JUMP JUMPDEST SWAP3 POP DUP3 DUP3 MUL PUSH2 0x3778 DUP2 PUSH2 0x2714 JUMP JUMPDEST SWAP2 POP DUP3 DUP3 DIV DUP5 EQ DUP4 ISZERO OR PUSH2 0x378F JUMPI PUSH2 0x378E PUSH2 0x340C JUMP JUMPDEST JUMPDEST POP SWAP3 SWAP2 POP POP JUMP JUMPDEST PUSH32 0x4E487B7100000000000000000000000000000000000000000000000000000000 PUSH1 0x0 MSTORE PUSH1 0x12 PUSH1 0x4 MSTORE PUSH1 0x24 PUSH1 0x0 REVERT JUMPDEST PUSH1 0x0 PUSH2 0x37D0 DUP3 PUSH2 0x2714 JUMP JUMPDEST SWAP2 POP PUSH2 0x37DB DUP4 PUSH2 0x2714 JUMP JUMPDEST SWAP3 POP DUP3 PUSH2 0x37EB JUMPI PUSH2 0x37EA PUSH2 0x3796 JUMP JUMPDEST JUMPDEST DUP3 DUP3 DIV SWAP1 POP SWAP3 SWAP2 POP POP JUMP JUMPDEST PUSH32 0x6173736574732E64657461696C732E63727970746F63757272656E63792E6272 PUSH1 0x0 DUP3 ADD MSTORE PUSH32 0x65616B646F776E2E555344542E616D6F756E7400000000000000000000000000 PUSH1 0x20 DUP3 ADD MSTORE POP JUMP JUMPDEST PUSH1 0x0 PUSH2 0x3852 PUSH1 0x33 DUP4 PUSH2 0x329E JUMP JUMPDEST SWAP2 POP PUSH2 0x385D DUP3 PUSH2 0x37F6 JUMP JUMPDEST PUSH1 0x33 DUP3 ADD SWAP1 POP SWAP2 SWAP1 POP JUMP JUMPDEST PUSH1 0x0 PUSH2 0x3873 DUP3 PUSH2 0x3845 JUMP JUMPDEST SWAP2 POP DUP2 SWAP1 POP SWAP2 SWAP1 POP JUMP JUMPDEST PUSH1 0x0 PUSH2 0x3888 DUP3 PUSH2 0x2858 JUMP JUMPDEST SWAP2 POP PUSH2 0x3893 DUP4 PUSH2 0x2858 JUMP JUMPDEST SWAP3 POP DUP3 DUP3 ADD SWAP1 POP DUP3 DUP2 SLT ISZERO PUSH1 0x0 DUP4 SLT AND DUP4 DUP3 SLT PUSH1 0x0 DUP5 SLT ISZERO AND OR ISZERO PUSH2 0x38BB JUMPI PUSH2 0x38BA PUSH2 0x340C JUMP JUMPDEST JUMPDEST SWAP3 SWAP2 POP POP JUMP JUMPDEST PUSH32 0x6C696162696C69746965732E64657461696C732E757365724465706F7369742E PUSH1 0x0 DUP3 ADD MSTORE PUSH32 0x627265616B646F776E2E555344542E616D6F756E740000000000000000000000 PUSH1 0x20 DUP3 ADD MSTORE POP JUMP JUMPDEST PUSH1 0x0 PUSH2 0x391D PUSH1 0x35 DUP4 PUSH2 0x329E JUMP JUMPDEST SWAP2 POP PUSH2 0x3928 DUP3 PUSH2 0x38C1 JUMP JUMPDEST PUSH1 0x35 DUP3 ADD SWAP1 POP SWAP2 SWAP1 POP JUMP JUMPDEST PUSH1 0x0 PUSH2 0x393E DUP3 PUSH2 0x3910 JUMP JUMPDEST SWAP2 POP DUP2 SWAP1 POP SWAP2 SWAP1 POP JUMP JUMPDEST PUSH32 0x6571756974792E64657461696C732E72657461696E65644561726E696E67732E PUSH1 0x0 DUP3 ADD MSTORE PUSH32 0x627265616B646F776E2E555344542E616D6F756E740000000000000000000000 PUSH1 0x20 DUP3 ADD MSTORE POP JUMP JUMPDEST PUSH1 0x0 PUSH2 0x39A4 PUSH1 0x35 DUP4 PUSH2 0x329E JUMP JUMPDEST SWAP2 POP PUSH2 0x39AF DUP3 PUSH2 0x3948 JUMP JUMPDEST PUSH1 0x35 DUP3 ADD SWAP1 POP SWAP2 SWAP1 POP JUMP JUMPDEST PUSH1 0x0 PUSH2 0x39C5 DUP3 PUSH2 0x3997 JUMP JUMPDEST SWAP2 POP DUP2 SWAP1 POP SWAP2 SWAP1 POP JUMP JUMPDEST PUSH32 0x696E636F6D652E64657461696C732E6465706F7369744665652E627265616B64 PUSH1 0x0 DUP3 ADD MSTORE PUSH32 0x6F776E2E555344542E616D6F756E740000000000000000000000000000000000 PUSH1 0x20 DUP3 ADD MSTORE POP JUMP JUMPDEST PUSH1 0x0 PUSH2 0x3A2B PUSH1 0x2F DUP4 PUSH2 0x329E JUMP JUMPDEST SWAP2 POP PUSH2 0x3A36 DUP3 PUSH2 0x39CF JUMP JUMPDEST PUSH1 0x2F DUP3 ADD SWAP1 POP SWAP2 SWAP1 POP JUMP JUMPDEST PUSH1 0x0 PUSH2 0x3A4C DUP3 PUSH2 0x3A1E JUMP JUMPDEST SWAP2 POP DUP2 SWAP1 POP SWAP2 SWAP1 POP JUMP JUMPDEST PUSH32 0x4E6F207472616E73616374696F6E7320617661696C61626C652E000000000000 PUSH1 0x0 DUP3 ADD MSTORE POP JUMP JUMPDEST PUSH1 0x0 PUSH2 0x3A8C PUSH1 0x1A DUP4 PUSH2 0x2C80 JUMP JUMPDEST SWAP2 POP PUSH2 0x3A97 DUP3 PUSH2 0x3A56 JUMP JUMPDEST PUSH1 0x20 DUP3 ADD SWAP1 POP SWAP2 SWAP1 POP JUMP JUMPDEST PUSH1 0x0 PUSH1 0x20 DUP3 ADD SWAP1 POP DUP2 DUP2 SUB PUSH1 0x0 DUP4 ADD MSTORE PUSH2 0x3ABB DUP2 PUSH2 0x3A7F JUMP JUMPDEST SWAP1 POP SWAP2 SWAP1 POP JUMP JUMPDEST PUSH32 0x496E76616C696420696E64657800000000000000000000000000000000000000 PUSH1 0x0 DUP3 ADD MSTORE POP JUMP JUMPDEST PUSH1 0x0 PUSH2 0x3AF8 PUSH1 0xD DUP4 PUSH2 0x2C80 JUMP JUMPDEST SWAP2 POP PUSH2 0x3B03 DUP3 PUSH2 0x3AC2 JUMP JUMPDEST PUSH1 0x20 DUP3 ADD SWAP1 POP SWAP2 SWAP1 POP JUMP JUMPDEST PUSH1 0x0 PUSH1 0x20 DUP3 ADD SWAP1 POP DUP2 DUP2 SUB PUSH1 0x0 DUP4 ADD MSTORE PUSH2 0x3B27 DUP2 PUSH2 0x3AEB JUMP JUMPDEST SWAP1 POP SWAP2 SWAP1 POP JUMP JUMPDEST PUSH32 0x5472616E73616374696F6E206E6F7420666F756E640000000000000000000000 PUSH1 0x0 DUP3 ADD MSTORE POP JUMP JUMPDEST PUSH1 0x0 PUSH2 0x3B64 PUSH1 0x15 DUP4 PUSH2 0x2C80 JUMP JUMPDEST SWAP2 POP PUSH2 0x3B6F DUP3 PUSH2 0x3B2E JUMP JUMPDEST PUSH1 0x20 DUP3 ADD SWAP1 POP SWAP2 SWAP1 POP JUMP JUMPDEST PUSH1 0x0 PUSH1 0x20 DUP3 ADD SWAP1 POP DUP2 DUP2 SUB PUSH1 0x0 DUP4 ADD MSTORE PUSH2 0x3B93 DUP2 PUSH2 0x3B57 JUMP JUMPDEST SWAP1 POP SWAP2 SWAP1 POP JUMP JUMPDEST PUSH32 0x737570706C656D656E74616C5363686564756C654F664E6F6E436173684F7065 PUSH1 0x0 DUP3 ADD MSTORE PUSH32 0x726174696E67416374697669746965732E64657461696C732E63727970746F63 PUSH1 0x20 DUP3 ADD MSTORE PUSH32 0x757272656E636965734465706F73697465644279437573746F6D6572732E6272 PUSH1 0x40 DUP3 ADD MSTORE PUSH32 0x65616B646F776E2E555344542E616D6F756E7400000000000000000000000000 PUSH1 0x60 DUP3 ADD MSTORE POP JUMP JUMPDEST PUSH1 0x0 PUSH2 0x3C42 PUSH1 0x73 DUP4 PUSH2 0x329E JUMP JUMPDEST SWAP2 POP PUSH2 0x3C4D DUP3 PUSH2 0x3B9A JUMP JUMPDEST PUSH1 0x73 DUP3 ADD SWAP1 POP SWAP2 SWAP1 POP JUMP JUMPDEST PUSH1 0x0 PUSH2 0x3C63 DUP3 PUSH2 0x3C35 JUMP JUMPDEST SWAP2 POP DUP2 SWAP1 POP SWAP2 SWAP1 POP JUMP JUMPDEST PUSH32 0x737570706C656D656E74616C5363686564756C654F664E6F6E436173684F7065 PUSH1 0x0 DUP3 ADD MSTORE PUSH32 0x726174696E67416374697669746965732E64657461696C732E63727970746F63 PUSH1 0x20 DUP3 ADD MSTORE PUSH32 0x757272656E63696573526563656976656446726F6D437573746F6D6572734173 PUSH1 0x40 DUP3 ADD MSTORE PUSH32 0x5472616E73616374696F6E466565732E627265616B646F776E2E555344542E61 PUSH1 0x60 DUP3 ADD MSTORE PUSH32 0x6D6F756E74000000000000000000000000000000000000000000000000000000 PUSH1 0x80 DUP3 ADD MSTORE POP JUMP JUMPDEST PUSH1 0x0 PUSH2 0x3D3B PUSH1 0x85 DUP4 PUSH2 0x329E JUMP JUMPDEST SWAP2 POP PUSH2 0x3D46 DUP3 PUSH2 0x3C6D JUMP JUMPDEST PUSH1 0x85 DUP3 ADD SWAP1 POP SWAP2 SWAP1 POP JUMP JUMPDEST PUSH1 0x0 PUSH2 0x3D5C DUP3 PUSH2 0x3D2E JUMP JUMPDEST SWAP2 POP DUP2 SWAP1 POP SWAP2 SWAP1 POP JUMP JUMPDEST PUSH1 0x0 PUSH1 0x40 DUP3 ADD SWAP1 POP DUP2 DUP2 SUB PUSH1 0x0 DUP4 ADD MSTORE PUSH2 0x3D80 DUP2 DUP6 PUSH2 0x2C91 JUMP JUMPDEST SWAP1 POP DUP2 DUP2 SUB PUSH1 0x20 DUP4 ADD MSTORE PUSH2 0x3D94 DUP2 DUP5 PUSH2 0x2C91 JUMP JUMPDEST SWAP1 POP SWAP4 SWAP3 POP POP POP JUMP INVALID PUSH20 0x7570706C656D656E74616C5363686564756C654F PUSH7 0x4E6F6E43617368 0x4F PUSH17 0x65726174696E6741637469766974696573 0x2E PUSH5 0x657461696C PUSH20 0x2E63727970746F63757272656E63696573446570 PUSH16 0x73697465644279437573746F6D657273 0x2E PUSH3 0x726561 PUSH12 0x646F776E2E555344542E7765 PUSH10 0x67687465644176657261 PUSH8 0x65436F7374617373 PUSH6 0x74732E646574 PUSH2 0x696C PUSH20 0x2E63727970746F63757272656E63792E746F7461 PUSH13 0x416D6F756E744661697256616C PUSH22 0x65737570706C656D656E74616C5363686564756C654F PUSH7 0x4E6F6E43617368 0x4F PUSH17 0x65726174696E6741637469766974696573 0x2E PUSH5 0x657461696C PUSH20 0x2E63727970746F63757272656E63696573456E64 0x4F PUSH7 0x506572696F6465 PUSH18 0x756974792E64657461696C732E7265746169 PUSH15 0x65644561726E696E67732E62726561 PUSH12 0x646F776E2E555344542E6661 PUSH10 0x7256616C7565696E636F PUSH14 0x652E64657461696C732E6465706F PUSH20 0x69744665652E627265616B646F776E2E55534454 0x2E PUSH24 0x6569676874656441766572616765436F7374617373657473 0x2E PUSH5 0x657461696C PUSH20 0x2E63727970746F63757272656E63792E62726561 PUSH12 0x646F776E2E555344542E616D PUSH16 0x756E74737570706C656D656E74616C53 PUSH4 0x68656475 PUSH13 0x654F664E6F6E436173684F7065 PUSH19 0x6174696E67416374697669746965732E776569 PUSH8 0x6874656441766572 PUSH2 0x6765 NUMBER PUSH16 0x7374746F74616C4C696162696C697469 PUSH6 0x73416E644571 PUSH22 0x6974794661697256616C75656173736574732E646574 PUSH2 0x696C PUSH20 0x2E63727970746F63757272656E63792E62726561 PUSH12 0x646F776E2E555344542E6661 PUSH10 0x7256616C7565696E636F PUSH14 0x652E64657461696C732E6465706F PUSH20 0x69744665652E7765696768746564417665726167 PUSH6 0x436F7374696E PUSH4 0x6F6D652E PUSH5 0x657461696C PUSH20 0x2E6465706F7369744665652E627265616B646F77 PUSH15 0x2E555344542E616D6F756E746C6961 PUSH3 0x696C69 PUSH21 0x6965732E64657461696C732E757365724465706F73 PUSH10 0x742E746F74616C416D6F PUSH22 0x6E744661697256616C7565737570706C656D656E7461 PUSH13 0x5363686564756C654F664E6F6E NUMBER PUSH2 0x7368 0x4F PUSH17 0x65726174696E6741637469766974696573 0x2E PUSH5 0x657461696C PUSH20 0x2E63727970746F63757272656E63696573526563 PUSH6 0x697665644672 PUSH16 0x6D437573746F6D65727341735472616E PUSH20 0x616374696F6E466565732E627265616B646F776E 0x2E SSTORE MSTORE8 PREVRANDAO SLOAD 0x2E PUSH2 0x6D6F PUSH22 0x6E746C696162696C69746965732E64657461696C732E PUSH22 0x7365724465706F7369742E627265616B646F776E2E55 MSTORE8 PREVRANDAO SLOAD 0x2E PUSH2 0x6D6F PUSH22 0x6E746571756974792E64657461696C732E7265746169 PUSH15 0x65644561726E696E67732E746F7461 PUSH13 0x416D6F756E744661697256616C PUSH22 0x65737570706C656D656E74616C5363686564756C654F PUSH7 0x4E6F6E43617368 0x4F PUSH17 0x65726174696E6741637469766974696573 0x2E PUSH5 0x657461696C PUSH20 0x2E63727970746F63757272656E63696573446570 PUSH16 0x73697465644279437573746F6D657273 0x2E PUSH3 0x726561 PUSH12 0x646F776E2E555344542E616D PUSH16 0x756E746571756974792E64657461696C PUSH20 0x2E72657461696E65644561726E696E67732E6272 PUSH6 0x616B646F776E 0x2E SSTORE MSTORE8 PREVRANDAO SLOAD 0x2E PUSH2 0x6D6F PUSH22 0x6E746C696162696C69746965732E64657461696C732E PUSH22 0x7365724465706F7369742E627265616B646F776E2E55 MSTORE8 PREVRANDAO SLOAD 0x2E PUSH7 0x61697256616C75 PUSH6 0x737570706C65 PUSH14 0x656E74616C5363686564756C654F PUSH7 0x4E6F6E43617368 0x4F PUSH17 0x65726174696E6741637469766974696573 0x2E PUSH5 0x657461696C PUSH20 0x2E63727970746F63757272656E63696573526563 PUSH6 0x697665644672 PUSH16 0x6D437573746F6D65727341735472616E PUSH20 0x616374696F6E466565732E627265616B646F776E 0x2E SSTORE MSTORE8 PREVRANDAO SLOAD 0x2E PUSH24 0x6569676874656441766572616765436F7374737570706C65 PUSH14 0x656E74616C5363686564756C654F PUSH7 0x4E6F6E43617368 0x4F PUSH17 0x65726174696E6741637469766974696573 0x2E PUSH5 0x657461696C PUSH20 0x2E63727970746F63757272656E63696573526563 PUSH6 0x697665644672 PUSH16 0x6D437573746F6D65727341735472616E PUSH20 0x616374696F6E466565732E776569676874656441 PUSH23 0x6572616765436F7374737570706C656D656E74616C5363 PUSH9 0x6564756C654F664E6F PUSH15 0x436173684F7065726174696E674163 PUSH21 0x697669746965732E64657461696C732E6372797074 PUSH16 0x63757272656E636965734465706F7369 PUSH21 0x65644279437573746F6D6572732E77656967687465 PUSH5 0x4176657261 PUSH8 0x65436F7374A26469 PUSH17 0x667358221220FD30D3E02BB8D0666D0373 PUSH31 0x2495D8653B1313A1E8B0A401C987EDDBF325ECEE64736F6C63430008120033 "
		},
		"gasEstimates": {
			"creation": {
				"codeDepositCost": "3481600",
				"executionCost": "3893",
				"totalCost": "3485493"
			},
			"external": {
				"balanceSheet(string)": "infinite",
				"cashFlow(string)": "infinite",
				"comprehensiveIncome(string)": "infinite",
				"getEventIdAndRate(string,uint256,uint256,uint256)": "infinite",
				"getLatestTransaction()": "infinite",
				"getReportsInTimeRange(uint256,uint256)": "infinite",
				"getTransactionById(string)": "infinite",
				"getTransactionByIndex(uint256)": "infinite",
				"getTransactionCount()": "2512",
				"getTransactionsInTimeRange(uint256,uint256)": "infinite",
				"recordTransaction(string,string,uint256,uint256,uint256,uint256)": "infinite",
				"transactions(uint256)": "infinite"
			},
			"internal": {
				"addAmountToBalanceSheet(string memory[] memory,int256)": "infinite",
				"addAmountToCashFlow(string memory[] memory,int256)": "infinite",
				"addAmountTocomprehensive(string memory[] memory,int256)": "infinite",
				"recordTransactionCashFlow(struct E00010001.Event memory)": "infinite"
			}
		},
		"methodIdentifiers": {
			"balanceSheet(string)": "f61347cf",
			"cashFlow(string)": "2c86881c",
			"comprehensiveIncome(string)": "2b3a8659",
			"getEventIdAndRate(string,uint256,uint256,uint256)": "519a334b",
			"getLatestTransaction()": "6ccc29dc",
			"getReportsInTimeRange(uint256,uint256)": "c2e27541",
			"getTransactionById(string)": "9ff16eb7",
			"getTransactionByIndex(uint256)": "869152e7",
			"getTransactionCount()": "2e7700f0",
			"getTransactionsInTimeRange(uint256,uint256)": "4fb9118b",
			"recordTransaction(string,string,uint256,uint256,uint256,uint256)": "12496544",
			"transactions(uint256)": "9ace38c2"
		}
	},
	"abi": [
		{
			"anonymous": false,
			"inputs": [
				{
					"indexed": false,
					"internalType": "string",
					"name": "id",
					"type": "string"
				},
				{
					"indexed": false,
					"internalType": "string",
					"name": "transactionType",
					"type": "string"
				}
			],
			"name": "NewTransaction",
			"type": "event"
		},
		{
			"inputs": [
				{
					"internalType": "string",
					"name": "",
					"type": "string"
				}
			],
			"name": "balanceSheet",
			"outputs": [
				{
					"internalType": "int256",
					"name": "",
					"type": "int256"
				}
			],
			"stateMutability": "view",
			"type": "function"
		},
		{
			"inputs": [
				{
					"internalType": "string",
					"name": "",
					"type": "string"
				}
			],
			"name": "cashFlow",
			"outputs": [
				{
					"internalType": "int256",
					"name": "",
					"type": "int256"
				}
			],
			"stateMutability": "view",
			"type": "function"
		},
		{
			"inputs": [
				{
					"internalType": "string",
					"name": "",
					"type": "string"
				}
			],
			"name": "comprehensiveIncome",
			"outputs": [
				{
					"internalType": "int256",
					"name": "",
					"type": "int256"
				}
			],
			"stateMutability": "view",
			"type": "function"
		},
		{
			"inputs": [
				{
					"internalType": "string",
					"name": "_eventId",
					"type": "string"
				},
				{
					"internalType": "uint256",
					"name": "_SP002",
					"type": "uint256"
				},
				{
					"internalType": "uint256",
					"name": "_SP003",
					"type": "uint256"
				},
				{
					"internalType": "uint256",
					"name": "_SP004",
					"type": "uint256"
				}
			],
			"name": "getEventIdAndRate",
			"outputs": [],
			"stateMutability": "nonpayable",
			"type": "function"
		},
		{
			"inputs": [],
			"name": "getLatestTransaction",
			"outputs": [
				{
					"components": [
						{
							"internalType": "string",
							"name": "id",
							"type": "string"
						},
						{
							"internalType": "string",
							"name": "transactionType",
							"type": "string"
						},
						{
							"internalType": "uint256",
							"name": "amount",
							"type": "uint256"
						},
						{
							"internalType": "uint256",
							"name": "internalFee",
							"type": "uint256"
						},
						{
							"internalType": "uint256",
							"name": "externalFee",
							"type": "uint256"
						},
						{
							"internalType": "uint256",
							"name": "timestamp",
							"type": "uint256"
						},
						{
							"internalType": "uint256",
							"name": "rateUSDTtoUSD",
							"type": "uint256"
						}
					],
					"internalType": "struct E00010001.Event",
					"name": "",
					"type": "tuple"
				}
			],
			"stateMutability": "view",
			"type": "function"
		},
		{
			"inputs": [
				{
					"internalType": "uint256",
					"name": "startTime",
					"type": "uint256"
				},
				{
					"internalType": "uint256",
					"name": "endTime",
					"type": "uint256"
				}
			],
			"name": "getReportsInTimeRange",
			"outputs": [
				{
					"internalType": "string[]",
					"name": "IDS",
					"type": "string[]"
				},
				{
					"internalType": "string[14]",
					"name": "balanceSheetKeys",
					"type": "string[14]"
				},
				{
					"internalType": "int256[][]",
					"name": "balanceSheetValues",
					"type": "int256[][]"
				},
				{
					"internalType": "string[4]",
					"name": "comprehensiveIncomeKeys",
					"type": "string[4]"
				},
				{
					"internalType": "int256[][]",
					"name": "comprehensiveIncomeValues",
					"type": "int256[][]"
				},
				{
					"internalType": "string[8]",
					"name": "cashFlowKeys",
					"type": "string[8]"
				},
				{
					"internalType": "int256[][]",
					"name": "cashFlowValues",
					"type": "int256[][]"
				}
			],
			"stateMutability": "view",
			"type": "function"
		},
		{
			"inputs": [
				{
					"internalType": "string",
					"name": "id",
					"type": "string"
				}
			],
			"name": "getTransactionById",
			"outputs": [
				{
					"components": [
						{
							"internalType": "string",
							"name": "id",
							"type": "string"
						},
						{
							"internalType": "string",
							"name": "transactionType",
							"type": "string"
						},
						{
							"internalType": "uint256",
							"name": "amount",
							"type": "uint256"
						},
						{
							"internalType": "uint256",
							"name": "internalFee",
							"type": "uint256"
						},
						{
							"internalType": "uint256",
							"name": "externalFee",
							"type": "uint256"
						},
						{
							"internalType": "uint256",
							"name": "timestamp",
							"type": "uint256"
						},
						{
							"internalType": "uint256",
							"name": "rateUSDTtoUSD",
							"type": "uint256"
						}
					],
					"internalType": "struct E00010001.Event",
					"name": "",
					"type": "tuple"
				}
			],
			"stateMutability": "view",
			"type": "function"
		},
		{
			"inputs": [
				{
					"internalType": "uint256",
					"name": "index",
					"type": "uint256"
				}
			],
			"name": "getTransactionByIndex",
			"outputs": [
				{
					"components": [
						{
							"internalType": "string",
							"name": "id",
							"type": "string"
						},
						{
							"internalType": "string",
							"name": "transactionType",
							"type": "string"
						},
						{
							"internalType": "uint256",
							"name": "amount",
							"type": "uint256"
						},
						{
							"internalType": "uint256",
							"name": "internalFee",
							"type": "uint256"
						},
						{
							"internalType": "uint256",
							"name": "externalFee",
							"type": "uint256"
						},
						{
							"internalType": "uint256",
							"name": "timestamp",
							"type": "uint256"
						},
						{
							"internalType": "uint256",
							"name": "rateUSDTtoUSD",
							"type": "uint256"
						}
					],
					"internalType": "struct E00010001.Event",
					"name": "",
					"type": "tuple"
				}
			],
			"stateMutability": "view",
			"type": "function"
		},
		{
			"inputs": [],
			"name": "getTransactionCount",
			"outputs": [
				{
					"internalType": "uint256",
					"name": "",
					"type": "uint256"
				}
			],
			"stateMutability": "view",
			"type": "function"
		},
		{
			"inputs": [
				{
					"internalType": "uint256",
					"name": "startTime",
					"type": "uint256"
				},
				{
					"internalType": "uint256",
					"name": "endTime",
					"type": "uint256"
				}
			],
			"name": "getTransactionsInTimeRange",
			"outputs": [
				{
					"components": [
						{
							"internalType": "string",
							"name": "id",
							"type": "string"
						},
						{
							"internalType": "string",
							"name": "transactionType",
							"type": "string"
						},
						{
							"internalType": "uint256",
							"name": "amount",
							"type": "uint256"
						},
						{
							"internalType": "uint256",
							"name": "internalFee",
							"type": "uint256"
						},
						{
							"internalType": "uint256",
							"name": "externalFee",
							"type": "uint256"
						},
						{
							"internalType": "uint256",
							"name": "timestamp",
							"type": "uint256"
						},
						{
							"internalType": "uint256",
							"name": "rateUSDTtoUSD",
							"type": "uint256"
						}
					],
					"internalType": "struct E00010001.Event[]",
					"name": "",
					"type": "tuple[]"
				}
			],
			"stateMutability": "view",
			"type": "function"
		},
		{
			"inputs": [
				{
					"internalType": "string",
					"name": "_id",
					"type": "string"
				},
				{
					"internalType": "string",
					"name": "_transactionType",
					"type": "string"
				},
				{
					"internalType": "uint256",
					"name": "_amount",
					"type": "uint256"
				},
				{
					"internalType": "uint256",
					"name": "_internalFee",
					"type": "uint256"
				},
				{
					"internalType": "uint256",
					"name": "_externalFee",
					"type": "uint256"
				},
				{
					"internalType": "uint256",
					"name": "_rateUSDTtoUSD",
					"type": "uint256"
				}
			],
			"name": "recordTransaction",
			"outputs": [],
			"stateMutability": "nonpayable",
			"type": "function"
		},
		{
			"inputs": [
				{
					"internalType": "uint256",
					"name": "",
					"type": "uint256"
				}
			],
			"name": "transactions",
			"outputs": [
				{
					"internalType": "string",
					"name": "id",
					"type": "string"
				},
				{
					"internalType": "string",
					"name": "transactionType",
					"type": "string"
				},
				{
					"internalType": "uint256",
					"name": "amount",
					"type": "uint256"
				},
				{
					"internalType": "uint256",
					"name": "internalFee",
					"type": "uint256"
				},
				{
					"internalType": "uint256",
					"name": "externalFee",
					"type": "uint256"
				},
				{
					"internalType": "uint256",
					"name": "timestamp",
					"type": "uint256"
				},
				{
					"internalType": "uint256",
					"name": "rateUSDTtoUSD",
					"type": "uint256"
				}
			],
			"stateMutability": "view",
			"type": "function"
		}
	]
}